{
  "abi": [
    {
      "anonymous": false,
      "inputs": [
        {
          "indexed": false,
          "internalType": "uint256",
          "name": "requestId",
          "type": "uint256"
        },
        {
          "indexed": false,
          "internalType": "address",
          "name": "depositRecipient",
          "type": "address"
        },
        {
          "indexed": false,
          "internalType": "address",
          "name": "tokenAddress",
          "type": "address"
        },
        {
          "indexed": false,
          "internalType": "uint256",
          "name": "amount",
          "type": "uint256"
        }
      ],
      "name": "DepositAcceptedIntoQueue",
      "type": "event"
    },
    {
      "anonymous": false,
      "inputs": [
        {
          "indexed": false,
          "internalType": "uint256",
          "name": "requestId",
          "type": "uint256"
        },
        {
          "indexed": false,
          "internalType": "bool",
          "name": "cancelJustified",
          "type": "bool"
        }
      ],
      "name": "DisputeResolutionAcceptedIntoQueue",
      "type": "event"
    },
    {
      "anonymous": false,
      "inputs": [
        {
          "indexed": false,
          "internalType": "address",
          "name": "sender",
          "type": "address"
        },
        {
          "indexed": false,
          "internalType": "address",
          "name": "token_address",
          "type": "address"
        },
        {
          "indexed": false,
          "internalType": "uint256",
          "name": "amount",
          "type": "uint256"
        }
      ],
      "name": "ERC20TokensWithdrawn",
      "type": "event"
    },
    {
      "anonymous": false,
      "inputs": [
        {
          "indexed": false,
          "internalType": "uint8",
          "name": "version",
          "type": "uint8"
        }
      ],
      "name": "Initialized",
      "type": "event"
    },
    {
      "anonymous": false,
      "inputs": [
        {
          "indexed": false,
          "internalType": "address",
          "name": "sender",
          "type": "address"
        },
        {
          "indexed": false,
          "internalType": "uint256",
          "name": "amount",
          "type": "uint256"
        }
      ],
      "name": "NativeTokensWithdrawn",
      "type": "event"
    },
    {
      "anonymous": false,
      "inputs": [
        {
          "indexed": false,
          "internalType": "address",
          "name": "updater",
          "type": "address"
        }
      ],
      "name": "NewUpdaterSet",
      "type": "event"
    },
    {
      "anonymous": false,
      "inputs": [
        {
          "indexed": true,
          "internalType": "address",
          "name": "previousOwner",
          "type": "address"
        },
        {
          "indexed": true,
          "internalType": "address",
          "name": "newOwner",
          "type": "address"
        }
      ],
      "name": "OwnershipTransferred",
      "type": "event"
    },
    {
      "anonymous": false,
      "inputs": [
        {
          "indexed": true,
          "internalType": "address",
          "name": "account",
          "type": "address"
        },
        {
          "indexed": false,
          "internalType": "uint256",
          "name": "newPausedStatus",
          "type": "uint256"
        }
      ],
      "name": "Paused",
      "type": "event"
    },
    {
      "anonymous": false,
      "inputs": [
        {
          "indexed": false,
          "internalType": "contract IPauserRegistry",
          "name": "pauserRegistry",
          "type": "address"
        },
        {
          "indexed": false,
          "internalType": "contract IPauserRegistry",
          "name": "newPauserRegistry",
          "type": "address"
        }
      ],
      "name": "PauserRegistrySet",
      "type": "event"
    },
    {
      "anonymous": false,
      "inputs": [
        {
          "indexed": true,
          "internalType": "address",
          "name": "account",
          "type": "address"
        },
        {
          "indexed": false,
          "internalType": "uint256",
          "name": "newPausedStatus",
          "type": "uint256"
        }
      ],
      "name": "Unpaused",
      "type": "event"
    },
    {
      "anonymous": false,
      "inputs": [
        {
          "indexed": false,
          "internalType": "uint256",
          "name": "requestId",
          "type": "uint256"
        },
        {
          "indexed": false,
          "internalType": "bytes32",
          "name": "withdrawalHash",
          "type": "bytes32"
        }
      ],
      "name": "WithdrawalClosed",
      "type": "event"
    },
    {
      "inputs": [],
      "name": "ETH_TOKEN_ADDRESS",
      "outputs": [
        {
          "internalType": "address",
          "name": "",
          "type": "address"
        }
      ],
      "stateMutability": "view",
      "type": "function"
    },
    {
      "inputs": [
        {
          "internalType": "bytes32",
          "name": "leave_hash",
          "type": "bytes32"
        },
        {
          "internalType": "uint32",
          "name": "leave_idx",
          "type": "uint32"
        },
        {
          "internalType": "bytes32[]",
          "name": "proof",
          "type": "bytes32[]"
        },
        {
          "internalType": "uint32",
          "name": "leaves_count",
          "type": "uint32"
        }
      ],
      "name": "calculate_root",
      "outputs": [
        {
          "internalType": "bytes32",
          "name": "",
          "type": "bytes32"
        }
      ],
      "stateMutability": "pure",
      "type": "function"
    },
    {
      "inputs": [
        {
          "internalType": "uint32",
          "name": "level",
          "type": "uint32"
        },
        {
          "internalType": "uint32",
          "name": "pos",
          "type": "uint32"
        },
        {
          "internalType": "bytes32",
          "name": "hash",
          "type": "bytes32"
        },
        {
          "internalType": "bytes32[]",
          "name": "proofs",
          "type": "bytes32[]"
        },
        {
          "internalType": "uint32",
          "name": "proof_idx",
          "type": "uint32"
        },
        {
          "internalType": "uint32",
          "name": "max_index",
          "type": "uint32"
        }
      ],
      "name": "calculate_root_impl",
      "outputs": [
        {
          "internalType": "bytes32",
          "name": "",
          "type": "bytes32"
        }
      ],
      "stateMutability": "pure",
      "type": "function"
    },
    {
      "inputs": [
        {
          "internalType": "uint256",
          "name": "",
          "type": "uint256"
        }
      ],
      "name": "cancelResolutions",
      "outputs": [
        {
          "components": [
            {
              "internalType": "enum IRolldownPrimitives.Origin",
              "name": "origin",
              "type": "uint8"
            },
            {
              "internalType": "uint256",
              "name": "id",
              "type": "uint256"
            }
          ],
          "internalType": "struct IRolldownPrimitives.RequestId",
          "name": "requestId",
          "type": "tuple"
        },
        {
          "internalType": "uint256",
          "name": "l2RequestId",
          "type": "uint256"
        },
        {
          "internalType": "bool",
          "name": "cancelJustified",
          "type": "bool"
        },
        {
          "internalType": "uint256",
          "name": "timeStamp",
          "type": "uint256"
        }
      ],
      "stateMutability": "view",
      "type": "function"
    },
    {
      "inputs": [],
      "name": "chain",
      "outputs": [
        {
          "internalType": "enum IRolldownPrimitives.ChainId",
          "name": "",
          "type": "uint8"
        }
      ],
      "stateMutability": "view",
      "type": "function"
    },
    {
      "inputs": [
        {
          "components": [
            {
              "components": [
                {
                  "internalType": "enum IRolldownPrimitives.Origin",
                  "name": "origin",
                  "type": "uint8"
                },
                {
                  "internalType": "uint256",
                  "name": "id",
                  "type": "uint256"
                }
              ],
              "internalType": "struct IRolldownPrimitives.RequestId",
              "name": "requestId",
              "type": "tuple"
            },
            {
              "components": [
                {
                  "internalType": "uint256",
                  "name": "start",
                  "type": "uint256"
                },
                {
                  "internalType": "uint256",
                  "name": "end",
                  "type": "uint256"
                }
              ],
              "internalType": "struct IRolldownPrimitives.Range",
              "name": "range",
              "type": "tuple"
            },
            {
              "internalType": "bytes32",
              "name": "hash",
              "type": "bytes32"
            }
          ],
          "internalType": "struct IRolldownPrimitives.Cancel",
          "name": "cancel",
          "type": "tuple"
        },
        {
          "internalType": "bytes32",
          "name": "merkle_root",
          "type": "bytes32"
        },
        {
          "internalType": "bytes32[]",
          "name": "proof",
          "type": "bytes32[]"
        }
      ],
      "name": "close_cancel",
      "outputs": [],
      "stateMutability": "nonpayable",
      "type": "function"
    },
    {
      "inputs": [
        {
          "components": [
            {
              "components": [
                {
                  "internalType": "enum IRolldownPrimitives.Origin",
                  "name": "origin",
                  "type": "uint8"
                },
                {
                  "internalType": "uint256",
                  "name": "id",
                  "type": "uint256"
                }
              ],
              "internalType": "struct IRolldownPrimitives.RequestId",
              "name": "requestId",
              "type": "tuple"
            },
            {
              "internalType": "address",
              "name": "recipient",
              "type": "address"
            },
            {
              "internalType": "address",
              "name": "tokenAddress",
              "type": "address"
            },
            {
              "internalType": "uint256",
              "name": "amount",
              "type": "uint256"
            }
          ],
          "internalType": "struct IRolldownPrimitives.Withdrawal",
          "name": "withdrawal",
          "type": "tuple"
        },
        {
          "internalType": "bytes32",
          "name": "merkle_root",
          "type": "bytes32"
        },
        {
          "internalType": "bytes32[]",
          "name": "proof",
          "type": "bytes32[]"
        }
      ],
      "name": "close_withdrawal",
      "outputs": [],
      "stateMutability": "nonpayable",
      "type": "function"
    },
    {
      "inputs": [],
      "name": "counter",
      "outputs": [
        {
          "internalType": "uint256",
          "name": "",
          "type": "uint256"
        }
      ],
      "stateMutability": "view",
      "type": "function"
    },
    {
      "inputs": [
        {
          "internalType": "address",
          "name": "tokenAddress",
          "type": "address"
        },
        {
          "internalType": "uint256",
          "name": "amount",
          "type": "uint256"
        }
      ],
      "name": "deposit",
      "outputs": [],
      "stateMutability": "nonpayable",
      "type": "function"
    },
    {
      "inputs": [
        {
          "internalType": "address",
          "name": "tokenAddress",
          "type": "address"
        },
        {
          "internalType": "uint256",
          "name": "amount",
          "type": "uint256"
        }
      ],
      "name": "deposit_erc20",
      "outputs": [],
      "stateMutability": "nonpayable",
      "type": "function"
    },
    {
      "inputs": [],
      "name": "deposit_native",
      "outputs": [],
      "stateMutability": "payable",
      "type": "function"
    },
    {
      "inputs": [
        {
          "internalType": "uint256",
          "name": "requestId",
          "type": "uint256"
        }
      ],
      "name": "find_l2_batch",
      "outputs": [
        {
          "components": [
            {
              "internalType": "uint256",
              "name": "start",
              "type": "uint256"
            },
            {
              "internalType": "uint256",
              "name": "end",
              "type": "uint256"
            }
          ],
          "internalType": "struct IRolldownPrimitives.Range",
          "name": "",
          "type": "tuple"
        }
      ],
      "stateMutability": "view",
      "type": "function"
    },
    {
      "inputs": [
        {
          "internalType": "uint256",
          "name": "start",
          "type": "uint256"
        },
        {
          "internalType": "uint256",
          "name": "end",
          "type": "uint256"
        }
      ],
      "name": "getPendingRequests",
      "outputs": [
        {
          "components": [
            {
              "internalType": "enum IRolldownPrimitives.ChainId",
              "name": "chain",
              "type": "uint8"
            },
            {
              "components": [
                {
                  "components": [
                    {
                      "internalType": "enum IRolldownPrimitives.Origin",
                      "name": "origin",
                      "type": "uint8"
                    },
                    {
                      "internalType": "uint256",
                      "name": "id",
                      "type": "uint256"
                    }
                  ],
                  "internalType": "struct IRolldownPrimitives.RequestId",
                  "name": "requestId",
                  "type": "tuple"
                },
                {
                  "internalType": "address",
                  "name": "depositRecipient",
                  "type": "address"
                },
                {
                  "internalType": "address",
                  "name": "tokenAddress",
                  "type": "address"
                },
                {
                  "internalType": "uint256",
                  "name": "amount",
                  "type": "uint256"
                },
                {
                  "internalType": "uint256",
                  "name": "timeStamp",
                  "type": "uint256"
                }
              ],
              "internalType": "struct IRolldownPrimitives.Deposit[]",
              "name": "pendingDeposits",
              "type": "tuple[]"
            },
            {
              "components": [
                {
                  "components": [
                    {
                      "internalType": "enum IRolldownPrimitives.Origin",
                      "name": "origin",
                      "type": "uint8"
                    },
                    {
                      "internalType": "uint256",
                      "name": "id",
                      "type": "uint256"
                    }
                  ],
                  "internalType": "struct IRolldownPrimitives.RequestId",
                  "name": "requestId",
                  "type": "tuple"
                },
                {
                  "internalType": "uint256",
                  "name": "l2RequestId",
                  "type": "uint256"
                },
                {
                  "internalType": "bool",
                  "name": "cancelJustified",
                  "type": "bool"
                },
                {
                  "internalType": "uint256",
                  "name": "timeStamp",
                  "type": "uint256"
                }
              ],
              "internalType": "struct IRolldownPrimitives.CancelResolution[]",
              "name": "pendingCancelResolutions",
              "type": "tuple[]"
            }
          ],
          "internalType": "struct IRolldownPrimitives.L1Update",
          "name": "",
          "type": "tuple"
        }
      ],
      "stateMutability": "view",
      "type": "function"
    },
    {
      "inputs": [],
      "name": "getUpdateForL2",
      "outputs": [
        {
          "components": [
            {
              "internalType": "enum IRolldownPrimitives.ChainId",
              "name": "chain",
              "type": "uint8"
            },
            {
              "components": [
                {
                  "components": [
                    {
                      "internalType": "enum IRolldownPrimitives.Origin",
                      "name": "origin",
                      "type": "uint8"
                    },
                    {
                      "internalType": "uint256",
                      "name": "id",
                      "type": "uint256"
                    }
                  ],
                  "internalType": "struct IRolldownPrimitives.RequestId",
                  "name": "requestId",
                  "type": "tuple"
                },
                {
                  "internalType": "address",
                  "name": "depositRecipient",
                  "type": "address"
                },
                {
                  "internalType": "address",
                  "name": "tokenAddress",
                  "type": "address"
                },
                {
                  "internalType": "uint256",
                  "name": "amount",
                  "type": "uint256"
                },
                {
                  "internalType": "uint256",
                  "name": "timeStamp",
                  "type": "uint256"
                }
              ],
              "internalType": "struct IRolldownPrimitives.Deposit[]",
              "name": "pendingDeposits",
              "type": "tuple[]"
            },
            {
              "components": [
                {
                  "components": [
                    {
                      "internalType": "enum IRolldownPrimitives.Origin",
                      "name": "origin",
                      "type": "uint8"
                    },
                    {
                      "internalType": "uint256",
                      "name": "id",
                      "type": "uint256"
                    }
                  ],
                  "internalType": "struct IRolldownPrimitives.RequestId",
                  "name": "requestId",
                  "type": "tuple"
                },
                {
                  "internalType": "uint256",
                  "name": "l2RequestId",
                  "type": "uint256"
                },
                {
                  "internalType": "bool",
                  "name": "cancelJustified",
                  "type": "bool"
                },
                {
                  "internalType": "uint256",
                  "name": "timeStamp",
                  "type": "uint256"
                }
              ],
              "internalType": "struct IRolldownPrimitives.CancelResolution[]",
              "name": "pendingCancelResolutions",
              "type": "tuple[]"
            }
          ],
          "internalType": "struct IRolldownPrimitives.L1Update",
          "name": "",
          "type": "tuple"
        }
      ],
      "stateMutability": "view",
      "type": "function"
    },
    {
      "inputs": [
        {
          "internalType": "contract IPauserRegistry",
          "name": "_pauserRegistry",
          "type": "address"
        },
        {
          "internalType": "address",
          "name": "initialOwner",
          "type": "address"
        },
        {
          "internalType": "enum IRolldownPrimitives.ChainId",
          "name": "chainId",
          "type": "uint8"
        },
        {
          "internalType": "address",
          "name": "updater",
          "type": "address"
        }
      ],
      "name": "initialize",
      "outputs": [],
      "stateMutability": "nonpayable",
      "type": "function"
    },
    {
      "inputs": [],
      "name": "lastProcessedUpdate_origin_l1",
      "outputs": [
        {
          "internalType": "uint256",
          "name": "",
          "type": "uint256"
        }
      ],
      "stateMutability": "view",
      "type": "function"
    },
    {
      "inputs": [],
      "name": "lastProcessedUpdate_origin_l2",
      "outputs": [
        {
          "internalType": "uint256",
          "name": "",
          "type": "uint256"
        }
      ],
      "stateMutability": "view",
      "type": "function"
    },
    {
      "inputs": [
        {
          "internalType": "bytes32",
          "name": "",
          "type": "bytes32"
        }
      ],
      "name": "merkleRootRange",
      "outputs": [
        {
          "internalType": "uint256",
          "name": "start",
          "type": "uint256"
        },
        {
          "internalType": "uint256",
          "name": "end",
          "type": "uint256"
        }
      ],
      "stateMutability": "view",
      "type": "function"
    },
    {
      "inputs": [],
      "name": "owner",
      "outputs": [
        {
          "internalType": "address",
          "name": "",
          "type": "address"
        }
      ],
      "stateMutability": "view",
      "type": "function"
    },
    {
      "inputs": [
        {
          "internalType": "uint256",
          "name": "newPausedStatus",
          "type": "uint256"
        }
      ],
      "name": "pause",
      "outputs": [],
      "stateMutability": "nonpayable",
      "type": "function"
    },
    {
      "inputs": [],
      "name": "pauseAll",
      "outputs": [],
      "stateMutability": "nonpayable",
      "type": "function"
    },
    {
      "inputs": [
        {
          "internalType": "uint8",
          "name": "index",
          "type": "uint8"
        }
      ],
      "name": "paused",
      "outputs": [
        {
          "internalType": "bool",
          "name": "",
          "type": "bool"
        }
      ],
      "stateMutability": "view",
      "type": "function"
    },
    {
      "inputs": [],
      "name": "paused",
      "outputs": [
        {
          "internalType": "uint256",
          "name": "",
          "type": "uint256"
        }
      ],
      "stateMutability": "view",
      "type": "function"
    },
    {
      "inputs": [],
      "name": "pauserRegistry",
      "outputs": [
        {
          "internalType": "contract IPauserRegistry",
          "name": "",
          "type": "address"
        }
      ],
      "stateMutability": "view",
      "type": "function"
    },
    {
      "inputs": [
        {
          "internalType": "uint256",
          "name": "",
          "type": "uint256"
        }
      ],
      "name": "processedL2Requests",
      "outputs": [
        {
          "internalType": "bool",
          "name": "",
          "type": "bool"
        }
      ],
      "stateMutability": "view",
      "type": "function"
    },
    {
      "inputs": [],
      "name": "renounceOwnership",
      "outputs": [],
      "stateMutability": "nonpayable",
      "type": "function"
    },
    {
      "inputs": [
        {
          "internalType": "contract IPauserRegistry",
          "name": "newPauserRegistry",
          "type": "address"
        }
      ],
      "name": "setPauserRegistry",
      "outputs": [],
      "stateMutability": "nonpayable",
      "type": "function"
    },
    {
      "inputs": [
        {
          "internalType": "address",
          "name": "updater",
          "type": "address"
        }
      ],
      "name": "setUpdater",
      "outputs": [],
      "stateMutability": "nonpayable",
      "type": "function"
    },
    {
      "inputs": [
        {
          "internalType": "address",
          "name": "newOwner",
          "type": "address"
        }
      ],
      "name": "transferOwnership",
      "outputs": [],
      "stateMutability": "nonpayable",
      "type": "function"
    },
    {
      "inputs": [
        {
          "internalType": "uint256",
          "name": "newPausedStatus",
          "type": "uint256"
        }
      ],
      "name": "unpause",
      "outputs": [],
      "stateMutability": "nonpayable",
      "type": "function"
    },
    {
      "inputs": [
        {
          "internalType": "bytes32",
          "name": "merkle_root",
          "type": "bytes32"
        },
        {
          "components": [
            {
              "internalType": "uint256",
              "name": "start",
              "type": "uint256"
            },
            {
              "internalType": "uint256",
              "name": "end",
              "type": "uint256"
            }
          ],
          "internalType": "struct IRolldownPrimitives.Range",
          "name": "range",
          "type": "tuple"
        }
      ],
      "name": "update_l1_from_l2",
      "outputs": [],
      "stateMutability": "nonpayable",
      "type": "function"
    },
    {
      "inputs": [],
      "name": "updaterAccount",
      "outputs": [
        {
          "internalType": "address",
          "name": "",
          "type": "address"
        }
      ],
      "stateMutability": "view",
      "type": "function"
    }
  ],
  "bytecode": {
    "object": "0x608060405234801561001057600080fd5b50612f66806100206000396000f3fe6080604052600436106101e35760003560e01c80638da5cb5b11610102578063d16544f011610095578063f2fde38b11610064578063f2fde38b146105a4578063f9ecd01e146105c4578063fabc1cbc146105ff578063ffea632b1461061f57600080fd5b8063d16544f01461052e578063dfb0b12b1461054e578063ef0ba5d01461056e578063f26ee9d01461058e57600080fd5b8063b1538706116100d1578063b1538706146104ba578063c763e5a1146104cf578063c87c2224146104f6578063ca9b21ae146104fe57600080fd5b80638da5cb5b1461042c5780639d54f4191461044a578063a555980b1461046a578063af26c6951461049a57600080fd5b80635ac86ab71161017a57806371c544611161014957806371c54461146103a457806379e041f2146103c95780637fd4f845146103f6578063886f11951461040c57600080fd5b80635ac86ab71461031a5780635c975abb1461035a57806361bc221a14610379578063715018a61461038f57600080fd5b80631878d1f1116101b65780631878d1f11461026a57806347e7ef241461029c5780634f48eedf146102bc578063595c6a671461030557600080fd5b806301ef6966146101e857806308f42d401461020a57806310d67a2f1461022a578063136439dd1461024a575b600080fd5b3480156101f457600080fd5b50610208610203366004612744565b61063f565b005b34801561021657600080fd5b5061020861022536600461279f565b6107fa565b34801561023657600080fd5b506102086102453660046127ec565b6109c3565b34801561025657600080fd5b50610208610265366004612810565b610a76565b34801561027657600080fd5b5061027f600181565b6040516001600160a01b0390911681526020015b60405180910390f35b3480156102a857600080fd5b506102086102b7366004612829565b610bb5565b3480156102c857600080fd5b506102f06102d7366004612810565b609d602052600090815260409020805460019091015482565b60408051928352602083019190915201610293565b34801561031157600080fd5b50610208610be3565b34801561032657600080fd5b5061034a610335366004612855565b606654600160ff9092169190911b9081161490565b6040519015158152602001610293565b34801561036657600080fd5b506066545b604051908152602001610293565b34801561038557600080fd5b5061036b60975481565b34801561039b57600080fd5b50610208610caa565b3480156103b057600080fd5b50609a5461027f9061010090046001600160a01b031681565b3480156103d557600080fd5b506103e96103e4366004612878565b610cbe565b604051610293919061294e565b34801561040257600080fd5b5061036b60985481565b34801561041857600080fd5b5060655461027f906001600160a01b031681565b34801561043857600080fd5b506033546001600160a01b031661027f565b34801561045657600080fd5b506102086104653660046127ec565b61106b565b34801561047657600080fd5b5061034a610485366004612810565b609e6020526000908152604090205460ff1681565b3480156104a657600080fd5b5061036b6104b5366004612a21565b611169565b3480156104c657600080fd5b506103e96111ba565b3480156104db57600080fd5b50609a546104e99060ff1681565b6040516102939190612a90565b610208611205565b34801561050a57600080fd5b5061051e610519366004612810565b6113cc565b6040516102939493929190612aa3565b34801561053a57600080fd5b50610208610549366004612829565b61143e565b34801561055a57600080fd5b50610208610569366004612744565b6116e4565b34801561057a57600080fd5b5061036b610589366004612acc565b611870565b34801561059a57600080fd5b5061036b60995481565b3480156105b057600080fd5b506102086105bf3660046127ec565b6119ac565b3480156105d057600080fd5b506105e46105df366004612810565b611a22565b60408051825181526020928301519281019290925201610293565b34801561060b57600080fd5b5061020861061a366004612810565b611b96565b34801561062b57600080fd5b5061020861063a366004612b69565b611cf2565b6000838152609d602090815260409182902082518084019093528054808452600190910154918301919091521580159061067c5750602081015115155b6106c35760405162461bcd60e51b8152602060048201526013602482015272155b9adb9bdddb881b595c9adb19481c9bdbdd606a1b60448201526064015b60405180910390fd5b6000856040516020016106d69190612be6565b60408051601f198184030181529181528151602092830120888301356000908152609e90935291205490915060ff16156107465760405162461bcd60e51b8152602060048201526011602482015270105b1c9958591e481c1c9bd8d95cdcd959607a1b60448201526064016106ba565b8151602083015160009161075991612c2e565b610764906001612c45565b835190915060009061077b9060208a013590612c2e565b90508661078b8483898987611169565b146107c85760405162461bcd60e51b815260206004820152600d60248201526c24b73b30b634b210383937b7b360991b60448201526064016106ba565b6107d188611e6b565b505050506020938401356000908152609e90945250506040909120805460ff1916600117905550565b6066541561081a5760405162461bcd60e51b81526004016106ba90612c5d565b609a5461010090046001600160a01b031633146108695760405162461bcd60e51b815260206004820152600d60248201526c2737ba103a34329037bbb732b960991b60448201526064016106ba565b6099548160200135116108be5760405162461bcd60e51b815260206004820152601960248201527f557064617465206272696e6773206e6f206e657720646174610000000000000060448201526064016106ba565b6099546108cd60018335612c2e565b111561091b5760405162461bcd60e51b815260206004820152601760248201527f50726576696f757320757064617465206d697373696e6700000000000000000060448201526064016106ba565b8035602082013510156109605760405162461bcd60e51b815260206004820152600d60248201526c496e76616c69642072616e676560981b60448201526064016106ba565b609f8054600181019091557f0bc14066c33013fe88f66e314e4cf150b0b2d4d6451a1a51dbbd1c27cd11de28018290556000828152609d6020526040902081906109b7828281358155602082013560018201555050565b50506020013560995550565b606560009054906101000a90046001600160a01b03166001600160a01b031663eab66d7a6040518163ffffffff1660e01b8152600401602060405180830381865afa158015610a16573d6000803e3d6000fd5b505050506040513d601f19601f82011682018060405250810190610a3a9190612c94565b6001600160a01b0316336001600160a01b031614610a6a5760405162461bcd60e51b81526004016106ba90612cb1565b610a7381611fbd565b50565b60655460405163237dfb4760e11b81523360048201526001600160a01b03909116906346fbf68e90602401602060405180830381865afa158015610abe573d6000803e3d6000fd5b505050506040513d601f19601f82011682018060405250810190610ae29190612cfb565b610afe5760405162461bcd60e51b81526004016106ba90612d1d565b60665481811614610b775760405162461bcd60e51b815260206004820152603860248201527f5061757361626c652e70617573653a20696e76616c696420617474656d70742060448201527f746f20756e70617573652066756e6374696f6e616c697479000000000000000060648201526084016106ba565b606681905560405181815233907fab40a374bc51de372200a8bc981af8c9ecdc08dfdaef0bb6e09f88f3c616ef3d906020015b60405180910390a250565b60665415610bd55760405162461bcd60e51b81526004016106ba90612c5d565b610bdf828261143e565b5050565b60655460405163237dfb4760e11b81523360048201526001600160a01b03909116906346fbf68e90602401602060405180830381865afa158015610c2b573d6000803e3d6000fd5b505050506040513d601f19601f82011682018060405250810190610c4f9190612cfb565b610c6b5760405162461bcd60e51b81526004016106ba90612d1d565b600019606681905560405190815233907fab40a374bc51de372200a8bc981af8c9ecdc08dfdaef0bb6e09f88f3c616ef3d9060200160405180910390a2565b610cb26120b4565b610cbc600061210e565b565b610ce36040805160608101909152806000815260200160608152602001606081525090565b610d086040805160608101909152806000815260200160608152602001606081525090565b609a54819060ff166001811115610d2157610d2161289a565b90816001811115610d3457610d3461289a565b905250600080855b858111610da3576000818152609c602052604090206001015415610d6c5782610d6481612d65565b935050610d91565b6000818152609b602052604090206001015415610d915781610d8d81612d65565b9250505b80610d9b81612d65565b915050610d3c565b508167ffffffffffffffff811115610dbd57610dbd612d80565b604051908082528060200260200182016040528015610e2357816020015b6040805160e081018252600060a0820181815260c08301829052825260208083018290529282018190526060820181905260808201528252600019909201910181610ddb5790505b5060208401528067ffffffffffffffff811115610e4257610e42612d80565b604051908082528060200260200182016040528015610ea157816020015b6040805160c08101825260006080820181815260a083018290528252602080830182905292820181905260608201528252600019909201910181610e605790505b506040840152506000905080855b858111611060576000818152609c602052604090206001015415610f8e576000818152609c602052604090819020815160e081019092528054829060a08201908390829060ff166001811115610f0757610f0761289a565b6001811115610f1857610f1861289a565b81526001919091015460209182015290825260028301546001600160a01b039081168383015260038401541660408301526004830154606083015260059092015460809091015285015184610f6c81612d65565b955081518110610f7e57610f7e612d96565b602002602001018190525061104e565b6000818152609b602052604090206002015415611049576000818152609b602052604090819020815160c081019092528054829060808201908390829060ff166001811115610fdf57610fdf61289a565b6001811115610ff057610ff061289a565b815260019190910154602091820152908252600283015490820152600382015460ff1615156040808301919091526004909201546060909101528501518361103781612d65565b945081518110610f7e57610f7e612d96565b611060565b8061105881612d65565b915050610eaf565b509195945050505050565b6066541561108b5760405162461bcd60e51b81526004016106ba90612c5d565b609a5461010090046001600160a01b031633146111095760405162461bcd60e51b815260206004820152603660248201527f4f6e6c792061637469766520757064617465722063616e206d6f7665207269676044820152751a1d1cc81d1bc818481b995dc818481858d8dbdd5b9d60521b60648201526084016106ba565b609a8054610100600160a81b0319166101006001600160a01b038481168202929092179283905560405192041681527f1b0f2f500df596b42b73e80dbec6a1fb570f01978a586723f988a5fc54d773a1906020015b60405180910390a150565b600080825b63ffffffff81161561119957611185600282612dc2565b9050611192600183612de5565b915061116e565b6111ae82888a8989600061058960018c612e0d565b98975050505050505050565b6111df6040805160608101909152806000815260200160608152602001606081525090565b61120060985460016111f19190612c45565b60016097546103e49190612c2e565b905090565b606654156112255760405162461bcd60e51b81526004016106ba90612c5d565b600034116112755760405162461bcd60e51b815260206004820181905260248201527f6d73672076616c7565206d75737420626520677265617465722074686174203060448201526064016106ba565b6040805160e081019091523390349042906000908060a0810180848152602001609760008154809291906112a890612d65565b90915550905281526001600160a01b0386166020808301919091526001604080840182905260608401889052608090930186905283518201516000908152609c9092529190208251805182549495508594929391928492839160ff19169083818111156113175761131761289a565b0217905550602091820151600191820155838201516002840180546001600160a01b03199081166001600160a01b039384161790915560408087015160038701805490931690841617909155606080870151600487015560809687015160059096019590955586518401518151908152918a1693820193909352918201529081018590527fe28491c2da97a9923c92f6590a040dfc143fe636e8545356cdab0a796e1acefa910160405180910390a150505050565b609b6020526000908152604090819020815180830190925280549091908290829060ff1660018111156114015761140161289a565b60018111156114125761141261289a565b815260019190910154602090910152600282015460038301546004909301549192909160ff9091169084565b6066541561145e5760405162461bcd60e51b81526004016106ba90612c5d565b6001600160a01b0382166114ac5760405162461bcd60e51b8152602060048201526015602482015274496e76616c696420746f6b656e206164647265737360581b60448201526064016106ba565b600081116114cc5760405162461bcd60e51b81526004016106ba90612e32565b6040516323b872dd60e01b81523360048201819052306024830152604482018390529083906001600160a01b038216906323b872dd906064016020604051808303816000875af1158015611524573d6000803e3d6000fd5b505050506040513d601f19601f820116820180604052508101906115489190612cfb565b61158c5760405162461bcd60e51b8152602060048201526015602482015274151bdad95b881d1c985b9cd9995c8819985a5b1959605a1b60448201526064016106ba565b6040805160e0810190915242906000908060a0810180848152602001609760008154809291906115bb90612d65565b90915550905281526001600160a01b0380871660208084019190915290891660408084019190915260608301899052608090920185905282518101516000908152609c909152208151805182549394508493839190829060ff1916600183818111156116295761162961289a565b021790555060209182015160019190910155828101516002830180546001600160a01b03199081166001600160a01b03938416179091556040808601516003860180549093169084161790915560608086015160048601556080958601516005909501949094558551830151815190815289831693810193909352908a16908201529081018790527fe28491c2da97a9923c92f6590a040dfc143fe636e8545356cdab0a796e1acefa910160405180910390a1505050505050565b6000838152609d60209081526040918290208251808401909352805480845260019091015491830191909152158015906117215750602081015115155b6117635760405162461bcd60e51b8152602060048201526013602482015272155b9adb9bdddb881b595c9adb19481c9bdbdd606a1b60448201526064016106ba565b6000856040516020016117769190612e67565b60408051601f198184030181529181528151602092830120888301356000908152609e90935291205490915060ff16156117e65760405162461bcd60e51b8152602060048201526011602482015270105b1c9958591e481c1c9bd8d95cdcd959607a1b60448201526064016106ba565b815160208301516000916117f991612c2e565b611804906001612c45565b835190915060009061181a9060208a0135612c2e565b90508661182a8483898987611169565b146118675760405162461bcd60e51b815260206004820152600d60248201526c24b73b30b634b210383937b7b360991b60448201526064016106ba565b6107d188612160565b600061187d600288612eb9565b63ffffffff16611902578163ffffffff168763ffffffff1614156118a057611960565b858585856118ad81612edc565b965063ffffffff168181106118c4576118c4612d96565b905060200201356040516020016118e5929190918252602082015260400190565b604051602081830303815290604052805190602001209550611960565b84848461190e81612edc565b955063ffffffff1681811061192557611925612d96565b9050602002013586604051602001611947929190918252602082015260400190565b6040516020818303038152906040528051906020012095505b8763ffffffff16600114156119765750846119a1565b61199e61198460018a612e0d565b61198f60028a612dc2565b8888888861058960028a612dc2565b90505b979650505050505050565b6119b46120b4565b6001600160a01b038116611a195760405162461bcd60e51b815260206004820152602660248201527f4f776e61626c653a206e6577206f776e657220697320746865207a65726f206160448201526564647265737360d01b60648201526084016106ba565b610a738161210e565b6040805180820190915260008082526020820152609954821115611a7d5760405162461bcd60e51b8152602060048201526012602482015271125b9d985b1a59081c995c5d595cdd081a5960721b60448201526064016106ba565b609f54611a9d575050604080518082019091526000808252602082015290565b609f54600090611aaf90600190612c2e565b90505b609d6000609f8381548110611ac957611ac9612d96565b90600052602060002001548152602001908152602001600020600001548310158015611b285750609d6000609f8381548110611b0757611b07612d96565b90600052602060002001548152602001908152602001600020600101548311155b15611b8457609d6000609f8381548110611b4457611b44612d96565b9060005260206000200154815260200190815260200160002060405180604001604052908160008201548152602001600182015481525050915050919050565b80611b8e81612f00565b915050611ab2565b606560009054906101000a90046001600160a01b03166001600160a01b031663eab66d7a6040518163ffffffff1660e01b8152600401602060405180830381865afa158015611be9573d6000803e3d6000fd5b505050506040513d601f19601f82011682018060405250810190611c0d9190612c94565b6001600160a01b0316336001600160a01b031614611c3d5760405162461bcd60e51b81526004016106ba90612cb1565b606654198119606654191614611cbb5760405162461bcd60e51b815260206004820152603860248201527f5061757361626c652e756e70617573653a20696e76616c696420617474656d7060448201527f7420746f2070617573652066756e6374696f6e616c697479000000000000000060648201526084016106ba565b606681905560405181815233907f3582d1828e26bf56bd801502bc021ac0bc8afb57c826e4986b45593c8fad389c90602001610baa565b600054610100900460ff1615808015611d125750600054600160ff909116105b80611d2c5750303b158015611d2c575060005460ff166001145b611d8f5760405162461bcd60e51b815260206004820152602e60248201527f496e697469616c697a61626c653a20636f6e747261637420697320616c72656160448201526d191e481a5b9a5d1a585b1a5e995960921b60648201526084016106ba565b6000805460ff191660011790558015611db2576000805461ff0019166101001790555b611dbd8560006121f9565b611dc68461210e565b6000609881905560016097819055609991909155609a8054859260ff19909116908381811115611df857611df861289a565b0217905550609a8054610100600160a81b0319166101006001600160a01b038516021790558015611e64576000805461ff0019169055604051600181527f7f26b83ff96e1f2b6a682f133852f6798a09c465da95921460cefb3847402498906020015b60405180910390a15b5050505050565b6000611e7f60408301356060840135610cbe565b9050600081604051602001611e94919061294e565b60408051601f19818403018152828252805160209091012060c083019091529150429060009080608081018084815260200160976000815480929190611ed990612d65565b9091555090528152602087810135818301526080880135861415604080840191909152606090920185905282518101516000908152609b909152208151805182549394508493839190829060ff191660018381811115611f3b57611f3b61289a565b021790555060209182015160019091015582810151600283015560408084015160038401805491151560ff199092169190911790556060909301516004909201919091558201518282015191517fd16f202ac5905ff5d1851f4805ffe56d1212db32fa989881d0044b9cf0f7277692611e5b9282521515602082015260400190565b6001600160a01b03811661204b5760405162461bcd60e51b815260206004820152604960248201527f5061757361626c652e5f73657450617573657252656769737472793a206e657760448201527f50617573657252656769737472792063616e6e6f7420626520746865207a65726064820152686f206164647265737360b81b608482015260a4016106ba565b606554604080516001600160a01b03928316815291831660208301527f6e9fcd539896fca60e8b0f01dd580233e48a6b0f7df013b89ba7f565869acdb6910160405180910390a1606580546001600160a01b0319166001600160a01b0392909216919091179055565b6033546001600160a01b03163314610cbc5760405162461bcd60e51b815260206004820181905260248201527f4f776e61626c653a2063616c6c6572206973206e6f7420746865206f776e657260448201526064016106ba565b603380546001600160a01b038381166001600160a01b0319831681179093556040519116919082907f8be0079c531659141344cd1fd0a4f28419497f9722a3daafe3b4186f6b6457e090600090a35050565b600161217260808301606084016127ec565b6001600160a01b0316141561218f5761218a816122df565b612198565b612198816123c7565b7f935f26d94be31907080aa78b3e6e2ac6d48a072af096c20268388621bbc117898160000160200135826040516020016121d29190612e67565b60408051601f1981840301815282825280516020918201209383528201929092520161115e565b6065546001600160a01b031615801561221a57506001600160a01b03821615155b61229c5760405162461bcd60e51b815260206004820152604760248201527f5061757361626c652e5f696e697469616c697a655061757365723a205f696e6960448201527f7469616c697a6550617573657228292063616e206f6e6c792062652063616c6c6064820152666564206f6e636560c81b608482015260a4016106ba565b606681905560405181815233907fab40a374bc51de372200a8bc981af8c9ecdc08dfdaef0bb6e09f88f3c616ef3d9060200160405180910390a2610bdf82611fbd565b6080810135303110156123345760405162461bcd60e51b815260206004820152601c60248201527f4e6f7420656e6f7567682066756e647320696e20636f6e74726163740000000060448201526064016106ba565b60008160800135116123585760405162461bcd60e51b81526004016106ba90612e32565b61237561236b60608301604084016127ec565b82608001356125c2565b7fe0495355c1e04c512584521854d222d239a4b782b39ac8a7e835a34f5ec7c1e16123a660608301604084016127ec565b604080516001600160a01b039092168252608084013560208301520161115e565b60006123d960808301606084016127ec565b6040516370a0823160e01b81523060048201529091506080830135906001600160a01b038316906370a0823190602401602060405180830381865afa158015612426573d6000803e3d6000fd5b505050506040513d601f19601f8201168201806040525081019061244a9190612f17565b10156124985760405162461bcd60e51b815260206004820152601c60248201527f4e6f7420656e6f7567682066756e647320696e20636f6e74726163740000000060448201526064016106ba565b60008260800135116124bc5760405162461bcd60e51b81526004016106ba90612e32565b6001600160a01b03811663a9059cbb6124db60608501604086016127ec565b6040516001600160e01b031960e084901b1681526001600160a01b039091166004820152608085013560248201526044016020604051808303816000875af115801561252b573d6000803e3d6000fd5b505050506040513d601f19601f8201168201806040525081019061254f9190612cfb565b507ee763f7778b8ceef7270c89b7d1df1008b0e482da39c43831417733af96fb0d61258060608401604085016127ec565b61259060808501606086016127ec565b604080516001600160a01b03938416815292909116602083015260808501359082015260600160405180910390a15050565b804710156126125760405162461bcd60e51b815260206004820152601d60248201527f416464726573733a20696e73756666696369656e742062616c616e636500000060448201526064016106ba565b6000826001600160a01b03168260405160006040518083038185875af1925050503d806000811461265f576040519150601f19603f3d011682016040523d82523d6000602084013e612664565b606091505b50509050806126db5760405162461bcd60e51b815260206004820152603a60248201527f416464726573733a20756e61626c6520746f2073656e642076616c75652c207260448201527f6563697069656e74206d6179206861766520726576657274656400000000000060648201526084016106ba565b505050565b600060a082840312156126f257600080fd5b50919050565b60008083601f84011261270a57600080fd5b50813567ffffffffffffffff81111561272257600080fd5b6020830191508360208260051b850101111561273d57600080fd5b9250929050565b60008060008060e0858703121561275a57600080fd5b61276486866126e0565b935060a0850135925060c085013567ffffffffffffffff81111561278757600080fd5b612793878288016126f8565b95989497509550505050565b60008082840360608112156127b357600080fd5b833592506040601f19820112156127c957600080fd5b506020830190509250929050565b6001600160a01b0381168114610a7357600080fd5b6000602082840312156127fe57600080fd5b8135612809816127d7565b9392505050565b60006020828403121561282257600080fd5b5035919050565b6000806040838503121561283c57600080fd5b8235612847816127d7565b946020939093013593505050565b60006020828403121561286757600080fd5b813560ff8116811461280957600080fd5b6000806040838503121561288b57600080fd5b50508035926020909101359150565b634e487b7160e01b600052602160045260246000fd5b60028110610a7357634e487b7160e01b600052602160045260246000fd5b80516128d9816128b0565b8252602090810151910152565b600081518084526020808501945080840160005b8381101561294357815161290f8882516128ce565b8084015160408981019190915281015115156060808a01919091520151608088015260a090960195908201906001016128fa565b509495945050505050565b6000602080835260808084018551612965816128b0565b85840152858301516060604080880182905282519384905260a093928601928489019060005b818110156129dd5785516129a08482516128ce565b808a01516001600160a01b03908116858701528582015116868501528581015189850152880151878401529488019460c09092019160010161298b565b505089820151898203601f1901848b015296506129fa81886128e6565b9a9950505050505050505050565b803563ffffffff81168114612a1c57600080fd5b919050565b600080600080600060808688031215612a3957600080fd5b85359450612a4960208701612a08565b9350604086013567ffffffffffffffff811115612a6557600080fd5b612a71888289016126f8565b9094509250612a84905060608701612a08565b90509295509295909350565b60208101612a9d836128b0565b91905290565b60a08101612ab182876128ce565b60408201949094529115156060830152608090910152919050565b600080600080600080600060c0888a031215612ae757600080fd5b612af088612a08565b9650612afe60208901612a08565b955060408801359450606088013567ffffffffffffffff811115612b2157600080fd5b612b2d8a828b016126f8565b9095509350612b40905060808901612a08565b9150612b4e60a08901612a08565b905092959891949750929550565b60028110610a7357600080fd5b60008060008060808587031215612b7f57600080fd5b8435612b8a816127d7565b93506020850135612b9a816127d7565b92506040850135612baa81612b5c565b91506060850135612bba816127d7565b939692955090935050565b8035612bd081612b5c565b612bd9816128b0565b8252602090810135910152565b60a08101612bf48284612bc5565b60408301356040830152606083013560608301526080830135608083015292915050565b634e487b7160e01b600052601160045260246000fd5b600082821015612c4057612c40612c18565b500390565b60008219821115612c5857612c58612c18565b500190565b6020808252601c908201527f5061757361626c653a20636f6e74726163742069732070617573656400000000604082015260600190565b600060208284031215612ca657600080fd5b8151612809816127d7565b6020808252602a908201527f6d73672e73656e646572206973206e6f74207065726d697373696f6e6564206160408201526939903ab73830bab9b2b960b11b606082015260800190565b600060208284031215612d0d57600080fd5b8151801515811461280957600080fd5b60208082526028908201527f6d73672e73656e646572206973206e6f74207065726d697373696f6e6564206160408201526739903830bab9b2b960c11b606082015260800190565b6000600019821415612d7957612d79612c18565b5060010190565b634e487b7160e01b600052604160045260246000fd5b634e487b7160e01b600052603260045260246000fd5b634e487b7160e01b600052601260045260246000fd5b600063ffffffff80841680612dd957612dd9612dac565b92169190910492915050565b600063ffffffff808316818516808303821115612e0457612e04612c18565b01949350505050565b600063ffffffff83811690831681811015612e2a57612e2a612c18565b039392505050565b6020808252818101527f416d6f756e74206d7573742062652067726561746572207468616e207a65726f604082015260600190565b60a08101612e758284612bc5565b6040830135612e83816127d7565b6001600160a01b039081166040840152606084013590612ea2826127d7565b166060830152608092830135929091019190915290565b600063ffffffff80841680612ed057612ed0612dac565b92169190910692915050565b600063ffffffff80831681811415612ef657612ef6612c18565b6001019392505050565b600081612f0f57612f0f612c18565b506000190190565b600060208284031215612f2957600080fd5b505191905056fea264697066735822122091ea9cb042cec6809e01bb52b76dad6f80194cf562a68b6766c05fd35ab3e35264736f6c634300080c0033",
    "linkReferences": {}
  },
  "methodIdentifiers": {
    "ETH_TOKEN_ADDRESS()": "1878d1f1",
    "calculate_root(bytes32,uint32,bytes32[],uint32)": "af26c695",
    "calculate_root_impl(uint32,uint32,bytes32,bytes32[],uint32,uint32)": "ef0ba5d0",
    "cancelResolutions(uint256)": "ca9b21ae",
    "chain()": "c763e5a1",
    "close_cancel(((uint8,uint256),(uint256,uint256),bytes32),bytes32,bytes32[])": "01ef6966",
    "close_withdrawal(((uint8,uint256),address,address,uint256),bytes32,bytes32[])": "dfb0b12b",
    "counter()": "61bc221a",
    "deposit(address,uint256)": "47e7ef24",
    "deposit_erc20(address,uint256)": "d16544f0",
    "deposit_native()": "c87c2224",
    "find_l2_batch(uint256)": "f9ecd01e",
    "getPendingRequests(uint256,uint256)": "79e041f2",
    "getUpdateForL2()": "b1538706",
    "initialize(address,address,uint8,address)": "ffea632b",
    "lastProcessedUpdate_origin_l1()": "7fd4f845",
    "lastProcessedUpdate_origin_l2()": "f26ee9d0",
    "merkleRootRange(bytes32)": "4f48eedf",
    "owner()": "8da5cb5b",
    "pause(uint256)": "136439dd",
    "pauseAll()": "595c6a67",
    "paused()": "5c975abb",
    "paused(uint8)": "5ac86ab7",
    "pauserRegistry()": "886f1195",
    "processedL2Requests(uint256)": "a555980b",
    "renounceOwnership()": "715018a6",
    "setPauserRegistry(address)": "10d67a2f",
    "setUpdater(address)": "9d54f419",
    "transferOwnership(address)": "f2fde38b",
    "unpause(uint256)": "fabc1cbc",
    "update_l1_from_l2(bytes32,(uint256,uint256))": "08f42d40",
    "updaterAccount()": "71c54461"
  },
  "id": 122
}