{
  "abi": [
    {
      "anonymous": false,
      "inputs": [
        {
          "indexed": false,
          "internalType": "uint256",
          "name": "requestId",
          "type": "uint256"
        },
        {
          "indexed": false,
          "internalType": "address",
          "name": "depositRecipient",
          "type": "address"
        },
        {
          "indexed": false,
          "internalType": "address",
          "name": "tokenAddress",
          "type": "address"
        },
        {
          "indexed": false,
          "internalType": "uint256",
          "name": "amount",
          "type": "uint256"
        }
      ],
      "name": "DepositAcceptedIntoQueue",
      "type": "event"
    },
    {
      "anonymous": false,
      "inputs": [
        {
          "indexed": false,
          "internalType": "uint256",
          "name": "requestId",
          "type": "uint256"
        },
        {
          "indexed": false,
          "internalType": "bool",
          "name": "cancelJustified",
          "type": "bool"
        }
      ],
      "name": "DisputeResolutionAcceptedIntoQueue",
      "type": "event"
    },
    {
      "anonymous": false,
      "inputs": [
        {
          "indexed": false,
          "internalType": "address",
          "name": "sender",
          "type": "address"
        },
        {
          "indexed": false,
          "internalType": "uint256",
          "name": "amount",
          "type": "uint256"
        }
      ],
      "name": "EthWithdrawPending",
      "type": "event"
    },
    {
      "anonymous": false,
      "inputs": [
        {
          "indexed": false,
          "internalType": "address",
          "name": "depositRecipient",
          "type": "address"
        },
        {
          "indexed": false,
          "internalType": "address",
          "name": "tokenAddress",
          "type": "address"
        },
        {
          "indexed": false,
          "internalType": "uint256",
          "name": "amount",
          "type": "uint256"
        }
      ],
      "name": "FundsReturned",
      "type": "event"
    },
    {
      "anonymous": false,
      "inputs": [
        {
          "indexed": false,
          "internalType": "address",
          "name": "withdrawRecipient",
          "type": "address"
        },
        {
          "indexed": false,
          "internalType": "address",
          "name": "tokenAddress",
          "type": "address"
        },
        {
          "indexed": false,
          "internalType": "uint256",
          "name": "amount",
          "type": "uint256"
        }
      ],
      "name": "FundsWithdrawn",
      "type": "event"
    },
    {
      "anonymous": false,
      "inputs": [
        {
          "indexed": false,
          "internalType": "uint8",
          "name": "version",
          "type": "uint8"
        }
      ],
      "name": "Initialized",
      "type": "event"
    },
    {
      "anonymous": false,
      "inputs": [
        {
          "indexed": false,
          "internalType": "uint256",
          "name": "requestId",
          "type": "uint256"
        },
        {
          "indexed": false,
          "internalType": "uint256[]",
          "name": "l2UpdatesToRemove",
          "type": "uint256[]"
        }
      ],
      "name": "L2UpdatesToRemovedAcceptedIntoQueue",
      "type": "event"
    },
    {
      "anonymous": false,
      "inputs": [
        {
          "indexed": true,
          "internalType": "address",
          "name": "previousOwner",
          "type": "address"
        },
        {
          "indexed": true,
          "internalType": "address",
          "name": "newOwner",
          "type": "address"
        }
      ],
      "name": "OwnershipTransferred",
      "type": "event"
    },
    {
      "anonymous": false,
      "inputs": [
        {
          "indexed": true,
          "internalType": "address",
          "name": "account",
          "type": "address"
        },
        {
          "indexed": false,
          "internalType": "uint256",
          "name": "newPausedStatus",
          "type": "uint256"
        }
      ],
      "name": "Paused",
      "type": "event"
    },
    {
      "anonymous": false,
      "inputs": [
        {
          "indexed": false,
          "internalType": "contract IPauserRegistry",
          "name": "pauserRegistry",
          "type": "address"
        },
        {
          "indexed": false,
          "internalType": "contract IPauserRegistry",
          "name": "newPauserRegistry",
          "type": "address"
        }
      ],
      "name": "PauserRegistrySet",
      "type": "event"
    },
    {
      "anonymous": false,
      "inputs": [
        {
          "indexed": false,
          "internalType": "address",
          "name": "sender",
          "type": "address"
        },
        {
          "indexed": false,
          "internalType": "uint256",
          "name": "amount",
          "type": "uint256"
        }
      ],
      "name": "PendingEthWithdrawn",
      "type": "event"
    },
    {
      "anonymous": false,
      "inputs": [
        {
          "indexed": true,
          "internalType": "address",
          "name": "account",
          "type": "address"
        },
        {
          "indexed": false,
          "internalType": "uint256",
          "name": "newPausedStatus",
          "type": "uint256"
        }
      ],
      "name": "Unpaused",
      "type": "event"
    },
    {
      "anonymous": false,
      "inputs": [
        {
          "indexed": false,
          "internalType": "uint256",
          "name": "requestId",
          "type": "uint256"
        },
        {
          "indexed": false,
          "internalType": "bool",
          "name": "success",
          "type": "bool"
        }
      ],
      "name": "WithdrawalResolutionAcceptedIntoQueue",
      "type": "event"
    },
    {
      "anonymous": false,
      "inputs": [
        {
          "indexed": false,
          "internalType": "bytes32",
          "name": "cancelHash",
          "type": "bytes32"
        },
        {
          "indexed": false,
          "internalType": "bytes32",
          "name": "calculatedHash",
          "type": "bytes32"
        }
      ],
      "name": "cancelAndCalculatedHash",
      "type": "event"
    },
    {
      "inputs": [],
      "name": "ETH_TOKEN_ADDRESS",
      "outputs": [
        {
          "internalType": "address",
          "name": "",
          "type": "address"
        }
      ],
      "stateMutability": "view",
      "type": "function"
    },
    {
      "inputs": [
        {
          "internalType": "uint256",
          "name": "",
          "type": "uint256"
        }
      ],
      "name": "cancelResolutions",
      "outputs": [
        {
          "components": [
            {
              "internalType": "enum IRolldownPrimitives.Origin",
              "name": "origin",
              "type": "uint8"
            },
            {
              "internalType": "uint256",
              "name": "id",
              "type": "uint256"
            }
          ],
          "internalType": "struct IRolldownPrimitives.RequestId",
          "name": "requestId",
          "type": "tuple"
        },
        {
          "internalType": "uint256",
          "name": "l2RequestId",
          "type": "uint256"
        },
        {
          "internalType": "bool",
          "name": "cancelJustified",
          "type": "bool"
        },
        {
          "internalType": "uint256",
          "name": "timeStamp",
          "type": "uint256"
        }
      ],
      "stateMutability": "view",
      "type": "function"
    },
    {
      "inputs": [],
      "name": "chain",
      "outputs": [
        {
          "internalType": "enum IRolldownPrimitives.ChainId",
          "name": "",
          "type": "uint8"
        }
      ],
      "stateMutability": "view",
      "type": "function"
    },
    {
      "inputs": [],
      "name": "counter",
      "outputs": [
        {
          "internalType": "uint256",
          "name": "",
          "type": "uint256"
        }
      ],
      "stateMutability": "view",
      "type": "function"
    },
    {
      "inputs": [
        {
          "internalType": "address",
          "name": "tokenAddress",
          "type": "address"
        },
        {
          "internalType": "uint256",
          "name": "amount",
          "type": "uint256"
        }
      ],
      "name": "deposit",
      "outputs": [],
      "stateMutability": "nonpayable",
      "type": "function"
    },
    {
      "inputs": [
        {
          "internalType": "address",
          "name": "tokenAddress",
          "type": "address"
        },
        {
          "internalType": "uint256",
          "name": "amount",
          "type": "uint256"
        }
      ],
      "name": "deposit_erc20",
      "outputs": [],
      "stateMutability": "nonpayable",
      "type": "function"
    },
    {
      "inputs": [],
      "name": "deposit_eth",
      "outputs": [],
      "stateMutability": "payable",
      "type": "function"
    },
    {
      "inputs": [
        {
          "internalType": "uint256",
          "name": "start",
          "type": "uint256"
        },
        {
          "internalType": "uint256",
          "name": "end",
          "type": "uint256"
        }
      ],
      "name": "getPendingRequests",
      "outputs": [
        {
          "components": [
            {
              "internalType": "enum IRolldownPrimitives.ChainId",
              "name": "chain",
              "type": "uint8"
            },
            {
              "components": [
                {
                  "components": [
                    {
                      "internalType": "enum IRolldownPrimitives.Origin",
                      "name": "origin",
                      "type": "uint8"
                    },
                    {
                      "internalType": "uint256",
                      "name": "id",
                      "type": "uint256"
                    }
                  ],
                  "internalType": "struct IRolldownPrimitives.RequestId",
                  "name": "requestId",
                  "type": "tuple"
                },
                {
                  "internalType": "address",
                  "name": "depositRecipient",
                  "type": "address"
                },
                {
                  "internalType": "address",
                  "name": "tokenAddress",
                  "type": "address"
                },
                {
                  "internalType": "uint256",
                  "name": "amount",
                  "type": "uint256"
                },
                {
                  "internalType": "uint256",
                  "name": "timeStamp",
                  "type": "uint256"
                }
              ],
              "internalType": "struct IRolldownPrimitives.Deposit[]",
              "name": "pendingDeposits",
              "type": "tuple[]"
            },
            {
              "components": [
                {
                  "components": [
                    {
                      "internalType": "enum IRolldownPrimitives.Origin",
                      "name": "origin",
                      "type": "uint8"
                    },
                    {
                      "internalType": "uint256",
                      "name": "id",
                      "type": "uint256"
                    }
                  ],
                  "internalType": "struct IRolldownPrimitives.RequestId",
                  "name": "requestId",
                  "type": "tuple"
                },
                {
                  "internalType": "uint256",
                  "name": "l2RequestId",
                  "type": "uint256"
                },
                {
                  "internalType": "bool",
                  "name": "cancelJustified",
                  "type": "bool"
                },
                {
                  "internalType": "uint256",
                  "name": "timeStamp",
                  "type": "uint256"
                }
              ],
              "internalType": "struct IRolldownPrimitives.CancelResolution[]",
              "name": "pendingCancelResolutions",
              "type": "tuple[]"
            },
            {
              "components": [
                {
                  "components": [
                    {
                      "internalType": "enum IRolldownPrimitives.Origin",
                      "name": "origin",
                      "type": "uint8"
                    },
                    {
                      "internalType": "uint256",
                      "name": "id",
                      "type": "uint256"
                    }
                  ],
                  "internalType": "struct IRolldownPrimitives.RequestId",
                  "name": "requestId",
                  "type": "tuple"
                },
                {
                  "internalType": "uint256",
                  "name": "l2RequestId",
                  "type": "uint256"
                },
                {
                  "internalType": "bool",
                  "name": "status",
                  "type": "bool"
                },
                {
                  "internalType": "uint256",
                  "name": "timeStamp",
                  "type": "uint256"
                }
              ],
              "internalType": "struct IRolldownPrimitives.WithdrawalResolution[]",
              "name": "pendingWithdrawalResolutions",
              "type": "tuple[]"
            },
            {
              "components": [
                {
                  "components": [
                    {
                      "internalType": "enum IRolldownPrimitives.Origin",
                      "name": "origin",
                      "type": "uint8"
                    },
                    {
                      "internalType": "uint256",
                      "name": "id",
                      "type": "uint256"
                    }
                  ],
                  "internalType": "struct IRolldownPrimitives.RequestId",
                  "name": "requestId",
                  "type": "tuple"
                },
                {
                  "internalType": "uint256[]",
                  "name": "l2UpdatesToRemove",
                  "type": "uint256[]"
                },
                {
                  "internalType": "uint256",
                  "name": "timeStamp",
                  "type": "uint256"
                }
              ],
              "internalType": "struct IRolldownPrimitives.L2UpdatesToRemove[]",
              "name": "pendingL2UpdatesToRemove",
              "type": "tuple[]"
            }
          ],
          "internalType": "struct IRolldownPrimitives.L1Update",
          "name": "",
          "type": "tuple"
        }
      ],
      "stateMutability": "view",
      "type": "function"
    },
    {
      "inputs": [],
      "name": "getUpdateForL2",
      "outputs": [
        {
          "components": [
            {
              "internalType": "enum IRolldownPrimitives.ChainId",
              "name": "chain",
              "type": "uint8"
            },
            {
              "components": [
                {
                  "components": [
                    {
                      "internalType": "enum IRolldownPrimitives.Origin",
                      "name": "origin",
                      "type": "uint8"
                    },
                    {
                      "internalType": "uint256",
                      "name": "id",
                      "type": "uint256"
                    }
                  ],
                  "internalType": "struct IRolldownPrimitives.RequestId",
                  "name": "requestId",
                  "type": "tuple"
                },
                {
                  "internalType": "address",
                  "name": "depositRecipient",
                  "type": "address"
                },
                {
                  "internalType": "address",
                  "name": "tokenAddress",
                  "type": "address"
                },
                {
                  "internalType": "uint256",
                  "name": "amount",
                  "type": "uint256"
                },
                {
                  "internalType": "uint256",
                  "name": "timeStamp",
                  "type": "uint256"
                }
              ],
              "internalType": "struct IRolldownPrimitives.Deposit[]",
              "name": "pendingDeposits",
              "type": "tuple[]"
            },
            {
              "components": [
                {
                  "components": [
                    {
                      "internalType": "enum IRolldownPrimitives.Origin",
                      "name": "origin",
                      "type": "uint8"
                    },
                    {
                      "internalType": "uint256",
                      "name": "id",
                      "type": "uint256"
                    }
                  ],
                  "internalType": "struct IRolldownPrimitives.RequestId",
                  "name": "requestId",
                  "type": "tuple"
                },
                {
                  "internalType": "uint256",
                  "name": "l2RequestId",
                  "type": "uint256"
                },
                {
                  "internalType": "bool",
                  "name": "cancelJustified",
                  "type": "bool"
                },
                {
                  "internalType": "uint256",
                  "name": "timeStamp",
                  "type": "uint256"
                }
              ],
              "internalType": "struct IRolldownPrimitives.CancelResolution[]",
              "name": "pendingCancelResolutions",
              "type": "tuple[]"
            },
            {
              "components": [
                {
                  "components": [
                    {
                      "internalType": "enum IRolldownPrimitives.Origin",
                      "name": "origin",
                      "type": "uint8"
                    },
                    {
                      "internalType": "uint256",
                      "name": "id",
                      "type": "uint256"
                    }
                  ],
                  "internalType": "struct IRolldownPrimitives.RequestId",
                  "name": "requestId",
                  "type": "tuple"
                },
                {
                  "internalType": "uint256",
                  "name": "l2RequestId",
                  "type": "uint256"
                },
                {
                  "internalType": "bool",
                  "name": "status",
                  "type": "bool"
                },
                {
                  "internalType": "uint256",
                  "name": "timeStamp",
                  "type": "uint256"
                }
              ],
              "internalType": "struct IRolldownPrimitives.WithdrawalResolution[]",
              "name": "pendingWithdrawalResolutions",
              "type": "tuple[]"
            },
            {
              "components": [
                {
                  "components": [
                    {
                      "internalType": "enum IRolldownPrimitives.Origin",
                      "name": "origin",
                      "type": "uint8"
                    },
                    {
                      "internalType": "uint256",
                      "name": "id",
                      "type": "uint256"
                    }
                  ],
                  "internalType": "struct IRolldownPrimitives.RequestId",
                  "name": "requestId",
                  "type": "tuple"
                },
                {
                  "internalType": "uint256[]",
                  "name": "l2UpdatesToRemove",
                  "type": "uint256[]"
                },
                {
                  "internalType": "uint256",
                  "name": "timeStamp",
                  "type": "uint256"
                }
              ],
              "internalType": "struct IRolldownPrimitives.L2UpdatesToRemove[]",
              "name": "pendingL2UpdatesToRemove",
              "type": "tuple[]"
            }
          ],
          "internalType": "struct IRolldownPrimitives.L1Update",
          "name": "",
          "type": "tuple"
        }
      ],
      "stateMutability": "view",
      "type": "function"
    },
    {
      "inputs": [
        {
          "internalType": "contract IPauserRegistry",
          "name": "_pauserRegistry",
          "type": "address"
        },
        {
          "internalType": "address",
          "name": "initialOwner",
          "type": "address"
        },
        {
          "internalType": "enum IRolldownPrimitives.ChainId",
          "name": "chain",
          "type": "uint8"
        }
      ],
      "name": "initialize",
      "outputs": [],
      "stateMutability": "nonpayable",
      "type": "function"
    },
    {
      "inputs": [],
      "name": "lastProcessedUpdate_origin_l1",
      "outputs": [
        {
          "internalType": "uint256",
          "name": "",
          "type": "uint256"
        }
      ],
      "stateMutability": "view",
      "type": "function"
    },
    {
      "inputs": [],
      "name": "lastProcessedUpdate_origin_l2",
      "outputs": [
        {
          "internalType": "uint256",
          "name": "",
          "type": "uint256"
        }
      ],
      "stateMutability": "view",
      "type": "function"
    },
    {
      "inputs": [],
      "name": "owner",
      "outputs": [
        {
          "internalType": "address",
          "name": "",
          "type": "address"
        }
      ],
      "stateMutability": "view",
      "type": "function"
    },
    {
      "inputs": [
        {
          "internalType": "uint256",
          "name": "newPausedStatus",
          "type": "uint256"
        }
      ],
      "name": "pause",
      "outputs": [],
      "stateMutability": "nonpayable",
      "type": "function"
    },
    {
      "inputs": [],
      "name": "pauseAll",
      "outputs": [],
      "stateMutability": "nonpayable",
      "type": "function"
    },
    {
      "inputs": [
        {
          "internalType": "uint8",
          "name": "index",
          "type": "uint8"
        }
      ],
      "name": "paused",
      "outputs": [
        {
          "internalType": "bool",
          "name": "",
          "type": "bool"
        }
      ],
      "stateMutability": "view",
      "type": "function"
    },
    {
      "inputs": [],
      "name": "paused",
      "outputs": [
        {
          "internalType": "uint256",
          "name": "",
          "type": "uint256"
        }
      ],
      "stateMutability": "view",
      "type": "function"
    },
    {
      "inputs": [],
      "name": "pauserRegistry",
      "outputs": [
        {
          "internalType": "contract IPauserRegistry",
          "name": "",
          "type": "address"
        }
      ],
      "stateMutability": "view",
      "type": "function"
    },
    {
      "inputs": [
        {
          "internalType": "address",
          "name": "",
          "type": "address"
        }
      ],
      "name": "pendingEthWithdrawals",
      "outputs": [
        {
          "internalType": "uint256",
          "name": "",
          "type": "uint256"
        }
      ],
      "stateMutability": "view",
      "type": "function"
    },
    {
      "inputs": [],
      "name": "renounceOwnership",
      "outputs": [],
      "stateMutability": "nonpayable",
      "type": "function"
    },
    {
      "inputs": [
        {
          "internalType": "contract IPauserRegistry",
          "name": "newPauserRegistry",
          "type": "address"
        }
      ],
      "name": "setPauserRegistry",
      "outputs": [],
      "stateMutability": "nonpayable",
      "type": "function"
    },
    {
      "inputs": [
        {
          "internalType": "address",
          "name": "newOwner",
          "type": "address"
        }
      ],
      "name": "transferOwnership",
      "outputs": [],
      "stateMutability": "nonpayable",
      "type": "function"
    },
    {
      "inputs": [
        {
          "internalType": "uint256",
          "name": "newPausedStatus",
          "type": "uint256"
        }
      ],
      "name": "unpause",
      "outputs": [],
      "stateMutability": "nonpayable",
      "type": "function"
    },
    {
      "inputs": [
        {
          "components": [
            {
              "components": [
                {
                  "components": [
                    {
                      "internalType": "enum IRolldownPrimitives.Origin",
                      "name": "origin",
                      "type": "uint8"
                    },
                    {
                      "internalType": "uint256",
                      "name": "id",
                      "type": "uint256"
                    }
                  ],
                  "internalType": "struct IRolldownPrimitives.RequestId",
                  "name": "requestId",
                  "type": "tuple"
                },
                {
                  "components": [
                    {
                      "internalType": "uint256",
                      "name": "start",
                      "type": "uint256"
                    },
                    {
                      "internalType": "uint256",
                      "name": "end",
                      "type": "uint256"
                    }
                  ],
                  "internalType": "struct IRolldownPrimitives.Range",
                  "name": "range",
                  "type": "tuple"
                },
                {
                  "internalType": "bytes32",
                  "name": "hash",
                  "type": "bytes32"
                }
              ],
              "internalType": "struct IRolldownPrimitives.Cancel[]",
              "name": "cancels",
              "type": "tuple[]"
            },
            {
              "components": [
                {
                  "components": [
                    {
                      "internalType": "enum IRolldownPrimitives.Origin",
                      "name": "origin",
                      "type": "uint8"
                    },
                    {
                      "internalType": "uint256",
                      "name": "id",
                      "type": "uint256"
                    }
                  ],
                  "internalType": "struct IRolldownPrimitives.RequestId",
                  "name": "requestId",
                  "type": "tuple"
                },
                {
                  "internalType": "address",
                  "name": "withdrawalRecipient",
                  "type": "address"
                },
                {
                  "internalType": "address",
                  "name": "tokenAddress",
                  "type": "address"
                },
                {
                  "internalType": "uint256",
                  "name": "amount",
                  "type": "uint256"
                }
              ],
              "internalType": "struct IRolldownPrimitives.Withdrawal[]",
              "name": "withdrawals",
              "type": "tuple[]"
            },
            {
              "components": [
                {
                  "components": [
                    {
                      "internalType": "enum IRolldownPrimitives.Origin",
                      "name": "origin",
                      "type": "uint8"
                    },
                    {
                      "internalType": "uint256",
                      "name": "id",
                      "type": "uint256"
                    }
                  ],
                  "internalType": "struct IRolldownPrimitives.RequestId",
                  "name": "requestId",
                  "type": "tuple"
                },
                {
                  "internalType": "uint256",
                  "name": "originRequestId",
                  "type": "uint256"
                },
                {
                  "internalType": "enum IRolldownPrimitives.UpdateType",
                  "name": "updateType",
                  "type": "uint8"
                },
                {
                  "internalType": "bool",
                  "name": "status",
                  "type": "bool"
                }
              ],
              "internalType": "struct IRolldownPrimitives.RequestResult[]",
              "name": "results",
              "type": "tuple[]"
            }
          ],
          "internalType": "struct IRolldownPrimitives.L2Update",
          "name": "inputArray",
          "type": "tuple"
        }
      ],
      "name": "update_l1_from_l2",
      "outputs": [],
      "stateMutability": "nonpayable",
      "type": "function"
    },
    {
      "inputs": [
        {
          "internalType": "uint256",
          "name": "amount",
          "type": "uint256"
        }
      ],
      "name": "withdraw_pending_eth",
      "outputs": [],
      "stateMutability": "nonpayable",
      "type": "function"
    },
    {
      "inputs": [
        {
          "internalType": "uint256",
          "name": "",
          "type": "uint256"
        }
      ],
      "name": "withdrawalResolutions",
      "outputs": [
        {
          "components": [
            {
              "internalType": "enum IRolldownPrimitives.Origin",
              "name": "origin",
              "type": "uint8"
            },
            {
              "internalType": "uint256",
              "name": "id",
              "type": "uint256"
            }
          ],
          "internalType": "struct IRolldownPrimitives.RequestId",
          "name": "requestId",
          "type": "tuple"
        },
        {
          "internalType": "uint256",
          "name": "l2RequestId",
          "type": "uint256"
        },
        {
          "internalType": "bool",
          "name": "status",
          "type": "bool"
        },
        {
          "internalType": "uint256",
          "name": "timeStamp",
          "type": "uint256"
        }
      ],
      "stateMutability": "view",
      "type": "function"
    }
  ],
  "bytecode": {
    "object": "0x608060405234801561001057600080fd5b506138dd806100206000396000f3fe6080604052600436106101815760003560e01c806380bc280c116100d1578063b15387061161008a578063d16544f011610064578063d16544f01461046e578063f26ee9d01461048e578063f2fde38b146104a4578063fabc1cbc146104c457600080fd5b8063b153870614610412578063c763e5a114610427578063ca9b21ae1461044e57600080fd5b806380bc280c14610337578063886f11951461036457806389232a00146103845780638da5cb5b146103a4578063a7acab46146103c2578063a80fc9bd146103e257600080fd5b8063595c6a671161013e57806361bc221a1161011857806361bc221a146102c9578063715018a6146102df57806379e041f2146102f45780637fd4f8451461032157600080fd5b8063595c6a67146102555780635ac86ab71461026a5780635c975abb146102aa57600080fd5b806310d67a2f14610186578063136439dd146101a85780631878d1f1146101c8578063274b3df41461020d57806347e7ef24146102155780635740b89d14610235575b600080fd5b34801561019257600080fd5b506101a66101a136600461312a565b6104e4565b005b3480156101b457600080fd5b506101a66101c3366004613147565b6105a0565b3480156101d457600080fd5b506101f073574839586746383753739573937593749373345781565b6040516001600160a01b0390911681526020015b60405180910390f35b6101a66106df565b34801561022157600080fd5b506101a6610230366004613160565b6108d0565b34801561024157600080fd5b506101a661025036600461318c565b6108fe565b34801561026157600080fd5b506101a6610b72565b34801561027657600080fd5b5061029a6102853660046131c7565b606654600160ff9092169190911b9081161490565b6040519015158152602001610204565b3480156102b657600080fd5b506066545b604051908152602001610204565b3480156102d557600080fd5b506102bb60975481565b3480156102eb57600080fd5b506101a6610c39565b34801561030057600080fd5b5061031461030f3660046131ea565b610c4d565b604051610204919061336e565b34801561032d57600080fd5b506102bb60985481565b34801561034357600080fd5b506102bb61035236600461312a565b609f6020526000908152604090205481565b34801561037057600080fd5b506065546101f0906001600160a01b031681565b34801561039057600080fd5b506101a661039f36600461347b565b6112eb565b3480156103b057600080fd5b506033546001600160a01b03166101f0565b3480156103ce57600080fd5b506101a66103dd366004613147565b611416565b3480156103ee57600080fd5b506104026103fd366004613147565b6115b1565b60405161020494939291906134c6565b34801561041e57600080fd5b50610314611623565b34801561043357600080fd5b50609a546104419060ff1681565b60405161020491906134ef565b34801561045a57600080fd5b50610402610469366004613147565b61167c565b34801561047a57600080fd5b506101a6610489366004613160565b6116b1565b34801561049a57600080fd5b506102bb60995481565b3480156104b057600080fd5b506101a66104bf36600461312a565b61197c565b3480156104d057600080fd5b506101a66104df366004613147565b6119f2565b606560009054906101000a90046001600160a01b03166001600160a01b031663eab66d7a6040518163ffffffff1660e01b8152600401602060405180830381865afa158015610537573d6000803e3d6000fd5b505050506040513d601f19601f8201168201806040525081019061055b9190613502565b6001600160a01b0316336001600160a01b0316146105945760405162461bcd60e51b815260040161058b9061351f565b60405180910390fd5b61059d81611b4e565b50565b60655460405163237dfb4760e11b81523360048201526001600160a01b03909116906346fbf68e90602401602060405180830381865afa1580156105e8573d6000803e3d6000fd5b505050506040513d601f19601f8201168201806040525081019061060c9190613577565b6106285760405162461bcd60e51b815260040161058b90613594565b606654818116146106a15760405162461bcd60e51b815260206004820152603860248201527f5061757361626c652e70617573653a20696e76616c696420617474656d70742060448201527f746f20756e70617573652066756e6374696f6e616c6974790000000000000000606482015260840161058b565b606681905560405181815233907fab40a374bc51de372200a8bc981af8c9ecdc08dfdaef0bb6e09f88f3c616ef3d906020015b60405180910390a250565b606654156106ff5760405162461bcd60e51b815260040161058b906135dc565b6000341161074f5760405162461bcd60e51b815260206004820181905260248201527f6d73672076616c7565206d757374206265206772656174657220746861742030604482015260640161058b565b6040805160e081019091523390349042906000908060a08101808481526020016097600081548092919061078290613629565b90915550905281526001600160a01b03861660208083019190915273574839586746383753739573937593749373345760408084019190915260608301879052608090920185905282518101516000908152609d909152208151805182549394508493839190829060ff1916600183818111156108015761080161320c565b021790555060209182015160019190910155828101516002830180546001600160a01b03199081166001600160a01b03938416179091556040808601516003860180549093169084161790915560608086015160048601556080958601516005909501949094558551830151815190815291891692820192909252735748395867463837537395739375937493733457918101919091529081018590527fe28491c2da97a9923c92f6590a040dfc143fe636e8545356cdab0a796e1acefa91015b60405180910390a150505050565b606654156108f05760405162461bcd60e51b815260040161058b906135dc565b6108fa82826116b1565b5050565b6066541561091e5760405162461bcd60e51b815260040161058b906135dc565b600161092d6040830183613644565b9050101580610948575060016109438280613644565b905010155b806109625750600161095d6020830183613644565b905010155b6109b85760405162461bcd60e51b815260206004820152602160248201527f4172726179206d7573742068617665206174206c6561737420312075706461746044820152606560f81b606482015260840161058b565b6000806109c483611c45565b9150915081600014156109e95760405162461bcd60e51b815260040161058b90613694565b6099546109f79060016136be565b821115610a165760405162461bcd60e51b815260040161058b90613694565b6099548111610a375760405162461bcd60e51b815260040161058b90613694565b6000610a438385611d7b565b90506000610a5d82610a586040880188613644565b6120f5565b9050610a6982866123bb565b805115610b6b576097805460009182610a8183613629565b909155506040805160a08101909152909150806060810180600081526020908101859052908252818101859052426040928301526000848152609e90915220815180518254839190829060ff191660018381811115610ae257610ae261320c565b0217905550602091820151600190910155828101518051610b0992600285019201906130b5565b5060408201518160030155905050815160986000828254610b2a91906136be565b90915550506040517f09b30365986269e3939307e7ca7b7b7421a8ad08ef18bb766c668d27cbc2aef990610b6190839085906136d6565b60405180910390a1505b5050505050565b60655460405163237dfb4760e11b81523360048201526001600160a01b03909116906346fbf68e90602401602060405180830381865afa158015610bba573d6000803e3d6000fd5b505050506040513d601f19601f82011682018060405250810190610bde9190613577565b610bfa5760405162461bcd60e51b815260040161058b90613594565b600019606681905560405190815233907fab40a374bc51de372200a8bc981af8c9ecdc08dfdaef0bb6e09f88f3c616ef3d9060200160405180910390a2565b610c416125bb565b610c4b6000612615565b565b610c806040805160a081019091528060008152602001606081526020016060815260200160608152602001606081525090565b610cb36040805160a081019091528060008152602001606081526020016060815260200160608152602001606081525090565b6000808080875b878111610d73576000818152609d602052604090206001015415610cea5784610ce281613629565b955050610d61565b6000818152609e602052604090206001015415610d135781610d0b81613629565b925050610d61565b6000818152609b602052604090206001015415610d3c5783610d3481613629565b945050610d61565b6000818152609c602052604090206001015415610d615782610d5d81613629565b9350505b80610d6b81613629565b915050610cba565b508367ffffffffffffffff811115610d8d57610d8d6136f7565b604051908082528060200260200182016040528015610df357816020015b6040805160e081018252600060a0820181815260c08301829052825260208083018290529282018190526060820181905260808201528252600019909201910181610dab5790505b5060208601528167ffffffffffffffff811115610e1257610e126136f7565b604051908082528060200260200182016040528015610e7157816020015b6040805160c08101825260006080820181815260a083018290528252602080830182905292820181905260608201528252600019909201910181610e305790505b5060408601528267ffffffffffffffff811115610e9057610e906136f7565b604051908082528060200260200182016040528015610eef57816020015b6040805160c08101825260006080820181815260a083018290528252602080830182905292820181905260608201528252600019909201910181610eae5790505b5060608601528067ffffffffffffffff811115610f0e57610f0e6136f7565b604051908082528060200260200182016040528015610f6857816020015b6040805160a08101825260006060808301828152608084018390528352602083015291810191909152815260200190600190039081610f2c5790505b506080860152506000925082915081905080875b8781116112dc576000818152609d60205260409020600101541561105b576000818152609d602052604090819020815160e081019092528054829060a08201908390829060ff166001811115610fd457610fd461320c565b6001811115610fe557610fe561320c565b81526001919091015460209182015290825260028301546001600160a01b03908116838301526003840154166040830152600483015460608301526005909201546080909101528701518661103981613629565b97508151811061104b5761104b61370d565b60200260200101819052506112ca565b6000818152609b602052604090206001015415611112576000818152609b602052604090819020815160c081019092528054829060808201908390829060ff1660018111156110ac576110ac61320c565b60018111156110bd576110bd61320c565b815260019190910154602091820152908252600283015490820152600382015460ff16151560408201526004909101546060918201528701518561110081613629565b96508151811061104b5761104b61370d565b6000818152609e60205260409020600101541561120a576000818152609e602052604090819020815160a081019092528054829060608201908390829060ff1660018111156111635761116361320c565b60018111156111745761117461320c565b81526020016001820154815250508152602001600282018054806020026020016040519081016040528092919081815260200182805480156111d557602002820191906000526020600020905b8154815260200190600101908083116111c1575b50505050508152602001600382015481525050866080015183806111f890613629565b94508151811061104b5761104b61370d565b6000818152609c6020526040902060020154156112c5576000818152609c602052604090819020815160c081019092528054829060808201908390829060ff16600181111561125b5761125b61320c565b600181111561126c5761126c61320c565b815260019190910154602091820152908252600283015490820152600382015460ff161515604080830191909152600490920154606090910152870151846112b381613629565b95508151811061104b5761104b61370d565b6112dc565b806112d481613629565b915050610f7c565b50939450505050505b92915050565b600054610100900460ff161580801561130b5750600054600160ff909116105b806113255750303b158015611325575060005460ff166001145b6113885760405162461bcd60e51b815260206004820152602e60248201527f496e697469616c697a61626c653a20636f6e747261637420697320616c72656160448201526d191e481a5b9a5d1a585b1a5e995960921b606482015260840161058b565b6000805460ff1916600117905580156113ab576000805461ff0019166101001790555b6113b6846000612667565b6113bf83612615565b6000609881905560016097556099558015611410576000805461ff0019169055604051600181527f7f26b83ff96e1f2b6a682f133852f6798a09c465da95921460cefb3847402498906020016108c2565b50505050565b606654156114365760405162461bcd60e51b815260040161058b906135dc565b600081116114865760405162461bcd60e51b815260206004820181905260248201527f416d6f756e74206d7573742062652067726561746572207468616e207a65726f604482015260640161058b565b336000818152609f60205260409020548211156114f05760405162461bcd60e51b815260206004820152602260248201527f6e6f7420656e6f7567682070656e64696e6720776974686472617720616d6f756044820152611b9d60f21b606482015260840161058b565b30318211156115385760405162461bcd60e51b81526020600482015260146024820152736e6f7420656e6f756768206574682066756e647360601b604482015260640161058b565b6001600160a01b0381166000908152609f602052604081208054849290611560908490613723565b9091555050604080516001600160a01b0383168152602081018490527f74b13e26477934df4349c96042c16ffb2ec5e0f902cdf60e4755711cd460ce99910160405180910390a16108fa818361274d565b609b6020526000908152604090819020815180830190925280549091908290829060ff1660018111156115e6576115e661320c565b60018111156115f7576115f761320c565b815260019190910154602090910152600282015460038301546004909301549192909160ff9091169084565b6116566040805160a081019091528060008152602001606081526020016060815260200160608152602001606081525090565b611677609854600161166891906136be565b600160975461030f9190613723565b905090565b609c6020526000908152604090819020815180830190925280549091908290829060ff1660018111156115e6576115e661320c565b606654156116d15760405162461bcd60e51b815260040161058b906135dc565b6001600160a01b03821661171f5760405162461bcd60e51b8152602060048201526015602482015274496e76616c696420746f6b656e206164647265737360581b604482015260640161058b565b6000811161176f5760405162461bcd60e51b815260206004820181905260248201527f416d6f756e74206d7573742062652067726561746572207468616e207a65726f604482015260640161058b565b6040516323b872dd60e01b81523360048201819052306024830152604482018390529083906001600160a01b038216906323b872dd906064016020604051808303816000875af11580156117c7573d6000803e3d6000fd5b505050506040513d601f19601f820116820180604052508101906117eb9190613577565b61182f5760405162461bcd60e51b8152602060048201526015602482015274151bdad95b881d1c985b9cd9995c8819985a5b1959605a1b604482015260640161058b565b6040805160e0810190915242906000908060a08101808481526020016097600081548092919061185e90613629565b90915550905281526001600160a01b0380871660208084019190915290891660408084019190915260608301899052608090920185905282518101516000908152609d909152208151805182549394508493839190829060ff1916600183818111156118cc576118cc61320c565b021790555060209182015160019190910155828101516002830180546001600160a01b03199081166001600160a01b03938416179091556040808601516003860180549093169084161790915560608086015160048601556080958601516005909501949094558551830151815190815289831693810193909352908a16908201529081018790527fe28491c2da97a9923c92f6590a040dfc143fe636e8545356cdab0a796e1acefa9101610b61565b6119846125bb565b6001600160a01b0381166119e95760405162461bcd60e51b815260206004820152602660248201527f4f776e61626c653a206e6577206f776e657220697320746865207a65726f206160448201526564647265737360d01b606482015260840161058b565b61059d81612615565b606560009054906101000a90046001600160a01b03166001600160a01b031663eab66d7a6040518163ffffffff1660e01b8152600401602060405180830381865afa158015611a45573d6000803e3d6000fd5b505050506040513d601f19601f82011682018060405250810190611a699190613502565b6001600160a01b0316336001600160a01b031614611a995760405162461bcd60e51b815260040161058b9061351f565b606654198119606654191614611b175760405162461bcd60e51b815260206004820152603860248201527f5061757361626c652e756e70617573653a20696e76616c696420617474656d7060448201527f7420746f2070617573652066756e6374696f6e616c6974790000000000000000606482015260840161058b565b606681905560405181815233907f3582d1828e26bf56bd801502bc021ac0bc8afb57c826e4986b45593c8fad389c906020016106d4565b6001600160a01b038116611bdc5760405162461bcd60e51b815260206004820152604960248201527f5061757361626c652e5f73657450617573657252656769737472793a206e657760448201527f50617573657252656769737472792063616e6e6f7420626520746865207a65726064820152686f206164647265737360b81b608482015260a40161058b565b606554604080516001600160a01b03928316815291831660208301527f6e9fcd539896fca60e8b0f01dd580233e48a6b0f7df013b89ba7f565869acdb6910160405180910390a1606580546001600160a01b0319166001600160a01b0392909216919091179055565b6000806000198180611c578680613644565b90501115611cdb57611c90611c6c8680613644565b6000818110611c7d57611c7d61370d565b905060a00201600001602001358361286b565b9150611cd8611c9f8680613644565b6001611cab8980613644565b611cb6929150613723565b818110611cc557611cc561370d565b905060a002016000016020013582612881565b90505b6000611cea6020870187613644565b90501115611d2657611d02611c6c6020870187613644565b9150611d23611d146020870187613644565b6001611cab60208a018a613644565b90505b6000611d356040870187613644565b90501115611d7157611d4d611c6c6040870187613644565b9150611d6e611d5f6040870187613644565b6001611cab60408a018a613644565b90505b9094909350915050565b6060611d8a6040830183613644565b1590508015611da25750611d9e8280613644565b1590505b8015611dba5750611db66020830183613644565b1590505b15611dd457506040805160008152602081019091526112e5565b600080808080611de76040880188613644565b9050611df66020890189613644565b9050611e028980613644565b611e0d9291506136be565b611e1791906136be565b905060008167ffffffffffffffff811115611e3457611e346136f7565b604051908082528060200260200182016040528015611e5d578160200160208202803683370190505b509050885b611e6c838b6136be565b8110156120e857611e8060208a018a613644565b905087108015611eb8575080611e9960208b018b613644565b89818110611ea957611ea961370d565b905060a0020160000160200135145b15611f20576001828581518110611ed157611ed161370d565b60200260200101906005811115611eea57611eea61320c565b90816005811115611efd57611efd61320c565b90525086611f0a81613629565b9750508380611f1890613629565b9450506120d6565b611f2a8980613644565b905086108015611f5f575080611f408a80613644565b88818110611f5057611f5061370d565b905060a0020160000160200135145b15611fbf576004828581518110611f7857611f7861370d565b60200260200101906005811115611f9157611f9161320c565b90816005811115611fa457611fa461320c565b90525085611fb181613629565b9650508380611f1890613629565b611fcc60408a018a613644565b905085108015612004575080611fe560408b018b613644565b87818110611ff557611ff561370d565b905060a0020160000160200135145b1561206457600382858151811061201d5761201d61370d565b602002602001019060058111156120365761203661320c565b908160058111156120495761204961320c565b9052508461205681613629565b9550508380611f1890613629565b61209a604051806040016040528060158152602001743932b8bab2b9ba39903737ba1034b71037b93232b960591b815250612890565b60405162461bcd60e51b8152602060048201526011602482015270696e76616c696465204c3255706461746560781b604482015260640161058b565b806120e081613629565b915050611e62565b5098975050505050505050565b60608161211157506040805160008152602081019091526123b4565b6000808367ffffffffffffffff81111561212d5761212d6136f7565b604051908082528060200260200182016040528015612156578160200160208202803683370190505b5090506000805b875181101561231157600388828151811061217a5761217a61370d565b602002602001015160058111156121935761219361320c565b14156122ff5760008787846121a781613629565b95508181106121b8576121b861370d565b905060a002018036038101906121ce9190613781565b9050609954816000015160200151116121e757506122ff565b6000816040015160058111156121ff576121ff61320c565b1480612220575060038160400151600581111561221e5761221e61320c565b145b80612240575060058160400151600581111561223e5761223e61320c565b145b80612260575060028160400151600581111561225e5761225e61320c565b145b156122be576020810151848661227581613629565b9750815181106122875761228761370d565b60209081029190910101526000816040015160058111156122aa576122aa61320c565b14156122b9576122b9816128d3565b6122fd565b60405162461bcd60e51b8152602060048201526014602482015273756e6b6e6f776e2072657175657374207479706560601b604482015260640161058b565b505b8061230981613629565b91505061215d565b5060008367ffffffffffffffff81111561232d5761232d6136f7565b604051908082528060200260200182016040528015612356578160200160208202803683370190505b50905060005b848110156123ad578381815181106123765761237661370d565b60200260200101518282815181106123905761239061370d565b6020908102919091010152806123a581613629565b91505061235c565b5093505050505b9392505050565b6000806000805b85518110156125b35760018682815181106123df576123df61370d565b602002602001015160058111156123f8576123f861320c565b1415612469573661240c6020870187613644565b8561241681613629565b96508181106124275761242761370d565b905060a00201905060995481600001602001351161244557506125a1565b61244e81612a5a565b6099805490600061245e83613629565b9190505550506125a1565b600486828151811061247d5761247d61370d565b602002602001015160058111156124965761249661320c565b14156124e957366124a78680613644565b866124b181613629565b97508181106124c2576124c261370d565b905060a0020190506099548160000160200135116124e057506125a1565b61244e81612aa0565b60038682815181106124fd576124fd61370d565b602002602001015160058111156125165761251661320c565b1415612563573661252a6040870187613644565b8461253481613629565b95508181106125455761254561370d565b905060a00201905060995481600001602001351161244e57506125a1565b60405162461bcd60e51b8152602060048201526013602482015272756e6b6e6f776e20757064617465207479706560681b604482015260640161058b565b806125ab81613629565b9150506123c2565b505050505050565b6033546001600160a01b03163314610c4b5760405162461bcd60e51b815260206004820181905260248201527f4f776e61626c653a2063616c6c6572206973206e6f7420746865206f776e6572604482015260640161058b565b603380546001600160a01b038381166001600160a01b0319831681179093556040519116919082907f8be0079c531659141344cd1fd0a4f28419497f9722a3daafe3b4186f6b6457e090600090a35050565b6065546001600160a01b031615801561268857506001600160a01b03821615155b61270a5760405162461bcd60e51b815260206004820152604760248201527f5061757361626c652e5f696e697469616c697a655061757365723a205f696e6960448201527f7469616c697a6550617573657228292063616e206f6e6c792062652063616c6c6064820152666564206f6e636560c81b608482015260a40161058b565b606681905560405181815233907fab40a374bc51de372200a8bc981af8c9ecdc08dfdaef0bb6e09f88f3c616ef3d9060200160405180910390a26108fa82611b4e565b8047101561279d5760405162461bcd60e51b815260206004820152601d60248201527f416464726573733a20696e73756666696369656e742062616c616e6365000000604482015260640161058b565b6000826001600160a01b03168260405160006040518083038185875af1925050503d80600081146127ea576040519150601f19603f3d011682016040523d82523d6000602084013e6127ef565b606091505b50509050806128665760405162461bcd60e51b815260206004820152603a60248201527f416464726573733a20756e61626c6520746f2073656e642076616c75652c207260448201527f6563697069656e74206d61792068617665207265766572746564000000000000606482015260840161058b565b505050565b600081831061287a57816123b4565b5090919050565b600081831161287a57816123b4565b61059d816040516024016128a49190613839565b60408051601f198184030181529190526020810180516001600160e01b031663104c13eb60e21b179052612c00565b806060015161059d5780516020908101516000818152609d9092526040808320815160e081019092528054929392829060a08201908390829060ff1660018111156129205761292061320c565b60018111156129315761293161320c565b81526001919091015460209182015290825260028301546001600160a01b039081168383015260038401548116604080850191909152600480860154606080870191909152600590960154608090950194909452858101519286015194860151905163a9059cbb60e01b815294821693850193909352602484019290925292935082169063a9059cbb906044016020604051808303816000875af11580156129dd573d6000803e3d6000fd5b505050506040513d601f19601f82011682018060405250810190612a019190613577565b5060208083015160408085015160608087015183516001600160a01b0395861681529490921694840194909452908201527fd94415916610c60b0e0e439fd308b171a6e28fad608830cf17f14ff5928e227991016108c2565b735748395867463837537395739375937493733457612a7f608083016060840161312a565b6001600160a01b03161415612a975761059d81612c21565b61059d81612e16565b6000612ab460408301356060840135610c4d565b9050600081604051602001612ac9919061336e565b60408051601f19818403018152828252805160209091012060c083019091529150429060009080608081018084815260200160976000815480929190612b0e90613629565b90915550905281526020878101358183015260808801358614604080840191909152606090920185905282518101516000908152609c909152208151805182549394508493839190829060ff191660018381811115612b6f57612b6f61320c565b021790555060209182015160019091015582810151600283015560408084015160038401805491151560ff199092169190911790556060909301516004909201919091558201518282015191517fd16f202ac5905ff5d1851f4805ffe56d1212db32fa989881d0044b9cf0f7277692612bf19282521515602082015260400190565b60405180910390a15050505050565b80516a636f6e736f6c652e6c6f67602083016000808483855afa5050505050565b6040805160c081019091526080808301353031101591429160009190819081018084815260200160976000815480929190612c5b90613629565b909155509052815260208681013581830152851515604080840191909152606090920185905282518101516000908152609b909152208151805182549394508493839190829060ff191660018381811115612cb857612cb861320c565b02179055506020918201516001919091015582810151600283015560408084015160038401805460ff191691151591909117905560609093015160049092019190915582518101518251908152851515918101919091527f0c4873525770dbb64515e9d3950131f79ed8f72ff147ff1723bbe2e77e3791aa910160405180910390a18215611410576080840135609f6000612d59606088016040890161312a565b6001600160a01b03166001600160a01b031681526020019081526020016000206000828254612d8891906136be565b909155507fe40f985f6a88d7d060348dc647fb85bb6365eee1437a753cd67141bc3eda8fa99050612dbf606086016040870161312a565b609f6000612dd36060890160408a0161312a565b6001600160a01b03166001600160a01b03168152602001908152602001600020546040516108c29291906001600160a01b03929092168252602082015260400190565b6000612e28608083016060840161312a565b6040516370a0823160e01b81523060048201529091506000906080840135906001600160a01b038416906370a0823190602401602060405180830381865afa158015612e78573d6000803e3d6000fd5b505050506040513d601f19601f82011682018060405250810190612e9c919061388e565b6040805160c081019091529111159150429060009080608081018084815260200160976000815480929190612ed090613629565b909155509052815260208781013581830152851515604080840191909152606090920185905282518101516000908152609b909152208151805182549394508493839190829060ff191660018381811115612f2d57612f2d61320c565b02179055506020918201516001919091015582810151600283015560408084015160038401805460ff191691151591909117905560609093015160049092019190915582518101518251908152851515918101919091527f0c4873525770dbb64515e9d3950131f79ed8f72ff147ff1723bbe2e77e3791aa910160405180910390a18215610b6b576001600160a01b03841663a9059cbb612fd4606088016040890161312a565b6040516001600160e01b031960e084901b1681526001600160a01b039091166004820152608088013560248201526044016020604051808303816000875af1158015613024573d6000803e3d6000fd5b505050506040513d601f19601f820116820180604052508101906130489190613577565b507fa92ff919b850e4909ab2261d907ef955f11bc1716733a6cbece38d163a69af8a61307a606087016040880161312a565b61308a608088016060890161312a565b604080516001600160a01b039384168152929091166020830152608088013590820152606001612bf1565b8280548282559060005260206000209081019282156130f0579160200282015b828111156130f05782518255916020019190600101906130d5565b506130fc929150613100565b5090565b5b808211156130fc5760008155600101613101565b6001600160a01b038116811461059d57600080fd5b60006020828403121561313c57600080fd5b81356123b481613115565b60006020828403121561315957600080fd5b5035919050565b6000806040838503121561317357600080fd5b823561317e81613115565b946020939093013593505050565b60006020828403121561319e57600080fd5b813567ffffffffffffffff8111156131b557600080fd5b8201606081850312156123b457600080fd5b6000602082840312156131d957600080fd5b813560ff811681146123b457600080fd5b600080604083850312156131fd57600080fd5b50508035926020909101359150565b634e487b7160e01b600052602160045260246000fd5b6002811061059d57634e487b7160e01b600052602160045260246000fd5b805161324b81613222565b8252602090810151910152565b600081518084526020808501945080840160005b838110156132b5578151613281888251613240565b8084015160408981019190915281015115156060808a01919091520151608088015260a0909601959082019060010161326c565b509495945050505050565b600081518084526020808501945080840160005b838110156132b5578151875295820195908201906001016132d4565b600081518084526020808501808196508360051b8101915082860160005b858110156133615782840389528151608061332a868351613240565b8682015160408281890152613341838901836132c0565b93015160609790970196909652509885019893509084019060010161330e565b5091979650505050505050565b6000602080835260c0808401855161338581613222565b858401528583015160a06040808801829052825193849052918501926000929060e08901905b808510156134075785516133c0838251613240565b808901516001600160a01b039081168486015284820151166060808501919091528101516080808501919091520151848301529487019460019490940193908601906133ab565b50818a01519650601f199550858982030160608a01526134278188613258565b9650505060608801519250838786030160808801526134468584613258565b945060808801519250838786030181880152505061346483826132f0565b9695505050505050565b6002811061059d57600080fd5b60008060006060848603121561349057600080fd5b833561349b81613115565b925060208401356134ab81613115565b915060408401356134bb8161346e565b809150509250925092565b60a081016134d48287613240565b60408201949094529115156060830152608090910152919050565b602081016134fc83613222565b91905290565b60006020828403121561351457600080fd5b81516123b481613115565b6020808252602a908201527f6d73672e73656e646572206973206e6f74207065726d697373696f6e6564206160408201526939903ab73830bab9b2b960b11b606082015260800190565b801515811461059d57600080fd5b60006020828403121561358957600080fd5b81516123b481613569565b60208082526028908201527f6d73672e73656e646572206973206e6f74207065726d697373696f6e6564206160408201526739903830bab9b2b960c11b606082015260800190565b6020808252601c908201527f5061757361626c653a20636f6e74726163742069732070617573656400000000604082015260600190565b634e487b7160e01b600052601160045260246000fd5b600060001982141561363d5761363d613613565b5060010190565b6000808335601e1984360301811261365b57600080fd5b83018035915067ffffffffffffffff82111561367657600080fd5b602001915060a08102360382131561368d57600080fd5b9250929050565b60208082526010908201526f496e76616c6964204c3255706461746560801b604082015260600190565b600082198211156136d1576136d1613613565b500190565b8281526040602082015260006136ef60408301846132c0565b949350505050565b634e487b7160e01b600052604160045260246000fd5b634e487b7160e01b600052603260045260246000fd5b60008282101561373557613735613613565b500390565b6040805190810167ffffffffffffffff8111828210171561376b57634e487b7160e01b600052604160045260246000fd5b60405290565b803561377c81613569565b919050565b600081830360a081121561379457600080fd5b6040516080810181811067ffffffffffffffff821117156137c557634e487b7160e01b600052604160045260246000fd5b60409081528212156137d657600080fd5b6137de61373a565b915083356137eb8161346e565b808352506020840135602083015281815260408401356020820152606084013591506006821061381a57600080fd5b81604082015261382c60808501613771565b6060820152949350505050565b600060208083528351808285015260005b818110156138665785810183015185820160400152820161384a565b81811115613878576000604083870101525b50601f01601f1916929092016040019392505050565b6000602082840312156138a057600080fd5b505191905056fea2646970667358221220db147e090c95b794effac0f9965ee2450530203ac7bd4a9820b7ebb0c884249b64736f6c634300080c0033",
    "linkReferences": {}
  },
  "methodIdentifiers": {
    "ETH_TOKEN_ADDRESS()": "1878d1f1",
    "cancelResolutions(uint256)": "ca9b21ae",
    "chain()": "c763e5a1",
    "counter()": "61bc221a",
    "deposit(address,uint256)": "47e7ef24",
    "deposit_erc20(address,uint256)": "d16544f0",
    "deposit_eth()": "274b3df4",
    "getPendingRequests(uint256,uint256)": "79e041f2",
    "getUpdateForL2()": "b1538706",
    "initialize(address,address,uint8)": "89232a00",
    "lastProcessedUpdate_origin_l1()": "7fd4f845",
    "lastProcessedUpdate_origin_l2()": "f26ee9d0",
    "owner()": "8da5cb5b",
    "pause(uint256)": "136439dd",
    "pauseAll()": "595c6a67",
    "paused()": "5c975abb",
    "paused(uint8)": "5ac86ab7",
    "pauserRegistry()": "886f1195",
    "pendingEthWithdrawals(address)": "80bc280c",
    "renounceOwnership()": "715018a6",
    "setPauserRegistry(address)": "10d67a2f",
    "transferOwnership(address)": "f2fde38b",
    "unpause(uint256)": "fabc1cbc",
    "update_l1_from_l2((((uint8,uint256),(uint256,uint256),bytes32)[],((uint8,uint256),address,address,uint256)[],((uint8,uint256),uint256,uint8,bool)[]))": "5740b89d",
    "withdraw_pending_eth(uint256)": "a7acab46",
    "withdrawalResolutions(uint256)": "a80fc9bd"
  },
  "id": 103
}