{
  "abi": [
    {
      "inputs": [],
      "stateMutability": "nonpayable",
      "type": "constructor"
    },
    {
      "anonymous": false,
      "inputs": [
        {
          "indexed": false,
          "internalType": "uint256",
          "name": "requestId",
          "type": "uint256"
        },
        {
          "indexed": false,
          "internalType": "address",
          "name": "depositRecipient",
          "type": "address"
        },
        {
          "indexed": false,
          "internalType": "address",
          "name": "tokenAddress",
          "type": "address"
        },
        {
          "indexed": false,
          "internalType": "uint256",
          "name": "amount",
          "type": "uint256"
        }
      ],
      "name": "DepositAcceptedIntoQueue",
      "type": "event"
    },
    {
      "anonymous": false,
      "inputs": [
        {
          "indexed": false,
          "internalType": "uint256",
          "name": "requestId",
          "type": "uint256"
        },
        {
          "indexed": false,
          "internalType": "bool",
          "name": "cancelJustified",
          "type": "bool"
        }
      ],
      "name": "DisputeResolutionAcceptedIntoQueue",
      "type": "event"
    },
    {
      "anonymous": false,
      "inputs": [
        {
          "indexed": false,
          "internalType": "address",
          "name": "withdrawRecipient",
          "type": "address"
        },
        {
          "indexed": false,
          "internalType": "address",
          "name": "tokenAddress",
          "type": "address"
        },
        {
          "indexed": false,
          "internalType": "uint256",
          "name": "amount",
          "type": "uint256"
        }
      ],
      "name": "FundsWithdrawn",
      "type": "event"
    },
    {
      "anonymous": false,
      "inputs": [
        {
          "indexed": false,
          "internalType": "uint256",
          "name": "requestId",
          "type": "uint256"
        },
        {
          "indexed": false,
          "internalType": "uint256[]",
          "name": "l2UpdatesToRemove",
          "type": "uint256[]"
        }
      ],
      "name": "L2UpdatesToRemovedAcceptedIntoQueue",
      "type": "event"
    },
    {
      "anonymous": false,
      "inputs": [
        {
          "indexed": false,
          "internalType": "uint256",
          "name": "requestId",
          "type": "uint256"
        },
        {
          "indexed": false,
          "internalType": "address",
          "name": "withdrawRecipient",
          "type": "address"
        },
        {
          "indexed": false,
          "internalType": "address",
          "name": "tokenAddress",
          "type": "address"
        },
        {
          "indexed": false,
          "internalType": "uint256",
          "name": "amount",
          "type": "uint256"
        }
      ],
      "name": "WithdrawAcceptedIntoQueue",
      "type": "event"
    },
    {
      "anonymous": false,
      "inputs": [
        {
          "indexed": false,
          "internalType": "bytes32",
          "name": "cancelHash",
          "type": "bytes32"
        },
        {
          "indexed": false,
          "internalType": "bytes32",
          "name": "calculatedHash",
          "type": "bytes32"
        }
      ],
      "name": "cancelAndCalculatedHash",
      "type": "event"
    },
    {
      "inputs": [
        {
          "internalType": "uint256",
          "name": "",
          "type": "uint256"
        }
      ],
      "name": "cancelResolutions",
      "outputs": [
        {
          "internalType": "uint256",
          "name": "l2RequestId",
          "type": "uint256"
        },
        {
          "internalType": "bool",
          "name": "cancelJustified",
          "type": "bool"
        }
      ],
      "stateMutability": "view",
      "type": "function"
    },
    {
      "inputs": [],
      "name": "counter",
      "outputs": [
        {
          "internalType": "uint256",
          "name": "",
          "type": "uint256"
        }
      ],
      "stateMutability": "view",
      "type": "function"
    },
    {
      "inputs": [
        {
          "internalType": "address",
          "name": "tokenAddress",
          "type": "address"
        },
        {
          "internalType": "uint256",
          "name": "amount",
          "type": "uint256"
        }
      ],
      "name": "deposit",
      "outputs": [],
      "stateMutability": "nonpayable",
      "type": "function"
    },
    {
      "inputs": [],
      "name": "getUpdateForL2",
      "outputs": [
        {
          "components": [
            {
              "internalType": "uint256",
              "name": "lastProccessedRequestOnL1",
              "type": "uint256"
            },
            {
              "internalType": "uint256",
              "name": "lastAcceptedRequestOnL1",
              "type": "uint256"
            },
            {
              "internalType": "uint256",
              "name": "offset",
              "type": "uint256"
            },
            {
              "internalType": "enum RollDown.PendingRequestType[]",
              "name": "order",
              "type": "uint8[]"
            },
            {
              "components": [
                {
                  "internalType": "address",
                  "name": "withdrawRecipient",
                  "type": "address"
                },
                {
                  "internalType": "address",
                  "name": "tokenAddress",
                  "type": "address"
                },
                {
                  "internalType": "uint256",
                  "name": "amount",
                  "type": "uint256"
                }
              ],
              "internalType": "struct RollDown.Withdraw[]",
              "name": "pendingWithdraws",
              "type": "tuple[]"
            },
            {
              "components": [
                {
                  "internalType": "address",
                  "name": "depositRecipient",
                  "type": "address"
                },
                {
                  "internalType": "address",
                  "name": "tokenAddress",
                  "type": "address"
                },
                {
                  "internalType": "uint256",
                  "name": "amount",
                  "type": "uint256"
                }
              ],
              "internalType": "struct RollDown.Deposit[]",
              "name": "pendingDeposits",
              "type": "tuple[]"
            },
            {
              "components": [
                {
                  "internalType": "uint256",
                  "name": "l2RequestId",
                  "type": "uint256"
                },
                {
                  "internalType": "bool",
                  "name": "cancelJustified",
                  "type": "bool"
                }
              ],
              "internalType": "struct RollDown.CancelResolution[]",
              "name": "pendingCancelResultions",
              "type": "tuple[]"
            },
            {
              "components": [
                {
                  "internalType": "uint256[]",
                  "name": "l2UpdatesToRemove",
                  "type": "uint256[]"
                }
              ],
              "internalType": "struct RollDown.L2UpdatesToRemove[]",
              "name": "pendingL2UpdatesToRemove",
              "type": "tuple[]"
            }
          ],
          "internalType": "struct RollDown.L1Update",
          "name": "",
          "type": "tuple"
        }
      ],
      "stateMutability": "view",
      "type": "function"
    },
    {
      "inputs": [],
      "name": "lastProcessedUpdate_origin_l1",
      "outputs": [
        {
          "internalType": "uint256",
          "name": "",
          "type": "uint256"
        }
      ],
      "stateMutability": "view",
      "type": "function"
    },
    {
      "inputs": [],
      "name": "lastProcessedUpdate_origin_l2",
      "outputs": [
        {
          "internalType": "uint256",
          "name": "",
          "type": "uint256"
        }
      ],
      "stateMutability": "view",
      "type": "function"
    },
    {
      "inputs": [
        {
          "components": [
            {
              "components": [
                {
                  "internalType": "uint256",
                  "name": "l2RequestId",
                  "type": "uint256"
                },
                {
                  "internalType": "uint256",
                  "name": "lastProccessedRequestOnL1",
                  "type": "uint256"
                },
                {
                  "internalType": "uint256",
                  "name": "lastAcceptedRequestOnL1",
                  "type": "uint256"
                },
                {
                  "internalType": "bytes32",
                  "name": "hash",
                  "type": "bytes32"
                }
              ],
              "internalType": "struct RollDown.Cancel[]",
              "name": "cancles",
              "type": "tuple[]"
            },
            {
              "components": [
                {
                  "internalType": "uint256",
                  "name": "requestId",
                  "type": "uint256"
                },
                {
                  "internalType": "enum RollDown.UpdateType",
                  "name": "updateType",
                  "type": "uint8"
                },
                {
                  "internalType": "bool",
                  "name": "status",
                  "type": "bool"
                }
              ],
              "internalType": "struct RollDown.RequestResult[]",
              "name": "results",
              "type": "tuple[]"
            }
          ],
          "internalType": "struct RollDown.L2Update",
          "name": "inputArray",
          "type": "tuple"
        }
      ],
      "name": "update_l1_from_l2",
      "outputs": [],
      "stateMutability": "nonpayable",
      "type": "function"
    },
    {
      "inputs": [
        {
          "internalType": "address",
          "name": "tokenAddress",
          "type": "address"
        },
        {
          "internalType": "uint256",
          "name": "amount",
          "type": "uint256"
        }
      ],
      "name": "withdraw",
      "outputs": [],
      "stateMutability": "nonpayable",
      "type": "function"
    }
  ],
  "bytecode": {
    "object": "0x608060405234801561001057600080fd5b506000600281905560018055600381905580546001600160a01b03191633179055611a24806100406000396000f3fe608060405234801561001057600080fd5b50600436106100885760003560e01c8063b15387061161005b578063b1538706146100da578063ca9b21ae146100ef578063f26ee9d01461012e578063f3fef3a31461013757600080fd5b806347e7ef241461008d57806361bc221a146100a25780637fd4f845146100be57806390645146146100c7575b600080fd5b6100a061009b366004611540565b61014a565b005b6100ab60015481565b6040519081526020015b60405180910390f35b6100ab60025481565b6100a06100d5366004611578565b6103a3565b6100e26105fc565b6040516100b59190611758565b6101196100fd366004611814565b6004602052600090815260409020805460019091015460ff1682565b604080519283529015156020830152016100b5565b6100ab60035481565b6100a0610145366004611540565b610623565b6001600160a01b03821661019d5760405162461bcd60e51b8152602060048201526015602482015274496e76616c696420746f6b656e206164647265737360581b60448201526064015b60405180910390fd5b600081116101ed5760405162461bcd60e51b815260206004820181905260248201527f416d6f756e74206d7573742062652067726561746572207468616e207a65726f6044820152606401610194565b6040516323b872dd60e01b815233600482018190526001600160a01b038416602483018190526044830184905290918491906323b872dd906064016020604051808303816000875af1158015610247573d6000803e3d6000fd5b505050506040513d601f19601f8201168201806040525081019061026b919061183e565b6102af5760405162461bcd60e51b8152602060048201526015602482015274151bdad95b881d1c985b9cd9995c8819985a5b1959605a1b6044820152606401610194565b604080516060810182526001600160a01b03808516825286166020820152908101849052600180548291600591600091826102e983611871565b9091555081526020808201929092526040908101600020835181546001600160a01b039182166001600160a01b03199182161783559385015160018084018054929093169190951617905592015160029092019190915580547fe28491c2da97a9923c92f6590a040dfc143fe636e8545356cdab0a796e1acefa9161036d9161188a565b604080519182526001600160a01b0380871660208401528816908201526060810186905260800160405180910390a15050505050565b60016103b2602083018361189d565b90501015806103cd575060016103c882806118ed565b905010155b6104235760405162461bcd60e51b815260206004820152602160248201527f4172726179206d7573742068617665206174206c6561737420312075706461746044820152606560f81b6064820152608401610194565b600061043a610435602084018461189d565b6107b4565b9050600061045061044b84806118ed565b610adf565b8251909150156104f8576001805483916007916000918261047083611871565b919050558152602001908152602001600020600001908051906020019061049892919061149b565b508151600260008282546104ac9190611937565b9091555050600180547f09b30365986269e3939307e7ca7b7b7421a8ad08ef18bb766c668d27cbc2aef9916104e09161188a565b836040516104ef92919061194a565b60405180910390a15b8051156105f75760005b81518110156105f55781818151811061051d5761051d61196b565b6020026020010151600460006001600081548092919061053c90611871565b909155508152602080820192909252604001600020825181559101516001909101805460ff191691151591909117905581517fd16f202ac5905ff5d1851f4805ffe56d1212db32fa989881d0044b9cf0f72776908390839081106105a2576105a261196b565b6020026020010151600001518383815181106105c0576105c061196b565b6020026020010151602001516040516105e59291909182521515602082015260400190565b60405180910390a1600101610502565b505b505050565b6106046114e6565b61061e60025460016106169190611937565b600154610c3c565b905090565b6001600160a01b0382166106715760405162461bcd60e51b8152602060048201526015602482015274496e76616c696420746f6b656e206164647265737360581b6044820152606401610194565b600081116106c15760405162461bcd60e51b815260206004820181905260248201527f416d6f756e74206d7573742062652067726561746572207468616e207a65726f6044820152606401610194565b60408051606081018252338082526001600160a01b0385166020830152918101839052600180548291600691600091826106fa83611871565b9091555081526020808201929092526040908101600020835181546001600160a01b039182166001600160a01b03199182161783559385015160018084018054929093169190951617905592015160029092019190915580547fc764405a2acf44bf91c070359a13daa334e14c5a24f6f78b82e5b94d4863b0df9161077e9161188a565b604080519182526001600160a01b038086166020840152871690820152606081018590526080015b60405180910390a150505050565b606060008281036107d5575050604080516000815260208101909152610ad9565b6000848460008181106107ea576107ea61196b565b60600291909101359150600090508467ffffffffffffffff81111561081157610811611981565b60405190808252806020026020018201604052801561083a578160200160208202803683370190505b50905060015b858110156108e157610853836001611937565b8787838181106108655761086561196b565b90506060020160000135146108bc5760405162461bcd60e51b815260206004820152601960248201527f526571756573747320617265206e6f7420696e206f72646572000000000000006044820152606401610194565b8686828181106108ce576108ce61196b565b6060029190910135935050600101610840565b5060005b85811015610a4057368787838181106109005761090061196b565b905060600201905060025481600001351161091b5750610a38565b600061092d6040830160208401611997565b600381111561093e5761093e6115ba565b03610973578035838661095081611871565b9750815181106109625761096261196b565b602002602001018181525050610a36565b60016109856040830160208401611997565b6003811115610996576109966115ba565b036109c2576109b581356109b060608401604085016119b8565b6112b6565b8035838661095081611871565b60026109d46040830160208401611997565b60038111156109e5576109e56115ba565b036109f7578035838661095081611871565b60405162461bcd60e51b8152602060048201526014602482015273756e6b6e6f776e2072657175657374207479706560601b6044820152606401610194565b505b6001016108e5565b5060008367ffffffffffffffff811115610a5c57610a5c611981565b604051908082528060200260200182016040528015610a85578160200160208202803683370190505b50905060005b84811015610ad257828181518110610aa557610aa561196b565b6020026020010151828281518110610abf57610abf61196b565b6020908102919091010152600101610a8b565b5093505050505b92915050565b606060008267ffffffffffffffff811115610afc57610afc611981565b604051908082528060200260200182016040528015610b4157816020015b6040805180820190915260008082526020820152815260200190600190039081610b1a5790505b50905060005b83811015610c34576000610b91868684818110610b6657610b6661196b565b90506080020160400135878785818110610b8257610b8261196b565b90506080020160200135610c3c565b9050600081604051602001610ba69190611758565b6040516020818303038152906040528051906020012090506040518060400160405280888886818110610bdb57610bdb61196b565b905060800201600001358152602001888886818110610bfc57610bfc61196b565b9050608002016060013583141515815250848481518110610c1f57610c1f61196b565b60209081029190910101525050600101610b47565b509392505050565b610c446114e6565b610c4c6114e6565b6000808080875b878111610d12576000818152600560205260409020546001600160a01b031615610c895784610c8181611871565b955050610d00565b6000818152600660205260409020546001600160a01b031615610cb85783610cb081611871565b945050610d00565b60008181526007602052604090205415610cde5781610cd681611871565b925050610d00565b60008181526004602052604090205415610d005782610cfc81611871565b9350505b80610d0a81611871565b915050610c53565b5060008183610d218688611937565b610d2b9190611937565b610d359190611937565b90508067ffffffffffffffff811115610d5057610d50611981565b604051908082528060200260200182016040528015610d79578160200160208202803683370190505b506060870152604086018990528367ffffffffffffffff811115610d9f57610d9f611981565b604051908082528060200260200182016040528015610dea57816020015b6040805160608101825260008082526020808301829052928201528252600019909201910181610dbd5790505b5060808701528467ffffffffffffffff811115610e0957610e09611981565b604051908082528060200260200182016040528015610e5457816020015b6040805160608101825260008082526020808301829052928201528252600019909201910181610e275790505b5060a08701528267ffffffffffffffff811115610e7357610e73611981565b604051908082528060200260200182016040528015610eb857816020015b6040805180820190915260008082526020820152815260200190600190039081610e915790505b5060c08701528167ffffffffffffffff811115610ed757610ed7611981565b604051908082528060200260200182016040528015610f1757816020015b604080516020810190915260608152815260200190600190039081610ef55790505b5060e0870152505050858352505060208101839052600080808080885b8881116112a8576000818152600560205260409020546001600160a01b03161561101d57600087606001518380610f6a90611871565b945081518110610f7c57610f7c61196b565b60200260200101906003811115610f9557610f956115ba565b90816003811115610fa857610fa86115ba565b905250600081815260056020908152604091829020825160608101845281546001600160a01b03908116825260018301541692810192909252600201549181019190915260a088015187610ffb81611871565b98508151811061100d5761100d61196b565b6020026020010181905250611296565b6000818152600660205260409020546001600160a01b0316156110ef5760018760600151838061104c90611871565b94508151811061105e5761105e61196b565b60200260200101906003811115611077576110776115ba565b9081600381111561108a5761108a6115ba565b905250600081815260066020908152604091829020825160608101845281546001600160a01b0390811682526001830154169281019290925260020154918101919091526080880151866110dd81611871565b97508151811061100d5761100d61196b565b600081815260076020526040902054156111de5760038760600151838061111590611871565b9450815181106111275761112761196b565b60200260200101906003811115611140576111406115ba565b90816003811115611153576111536115ba565b905250600081815260076020908152604091829020825181548084028201850185529281018381529093919284928491908401828280156111b357602002820191906000526020600020905b81548152602001906001019080831161119f575b5050505050815250508760e0015184806111cc90611871565b95508151811061100d5761100d61196b565b600081815260046020526040902054156112915760028760600151838061120490611871565b9450815181106112165761121661196b565b6020026020010190600381111561122f5761122f6115ba565b90816003811115611242576112426115ba565b9052506000818152600460209081526040918290208251808401909352805483526001015460ff1615159082015260c08801518561127f81611871565b96508151811061100d5761100d61196b565b6112a8565b806112a081611871565b915050610f34565b509498975050505050505050565b801561149757600082815260066020908152604091829020825160608101845281546001600160a01b03908116825260018301541692810183905260029091015481840181905292516370a0823160e01b815230600482015290929082906370a0823190602401602060405180830381865afa15801561133a573d6000803e3d6000fd5b505050506040513d601f19601f8201168201806040525081019061135e91906119d5565b10156113b85760405162461bcd60e51b8152602060048201526024808201527f496e73756666696369656e742062616c616e636520696e2074686520636f6e746044820152631c9858dd60e21b6064820152608401610194565b8151604080840151905163a9059cbb60e01b81526001600160a01b0384169263a9059cbb926113fd926004016001600160a01b03929092168252602082015260400190565b6020604051808303816000875af115801561141c573d6000803e3d6000fd5b505050506040513d601f19601f82011682018060405250810190611440919061183e565b50815160208084015160408086015181516001600160a01b0395861681529490921692840192909252908201527fa92ff919b850e4909ab2261d907ef955f11bc1716733a6cbece38d163a69af8a906060016107a6565b5050565b8280548282559060005260206000209081019282156114d6579160200282015b828111156114d65782518255916020019190600101906114bb565b506114e292915061152b565b5090565b60405180610100016040528060008152602001600081526020016000815260200160608152602001606081526020016060815260200160608152602001606081525090565b5b808211156114e2576000815560010161152c565b6000806040838503121561155357600080fd5b82356001600160a01b038116811461156a57600080fd5b946020939093013593505050565b60006020828403121561158a57600080fd5b813567ffffffffffffffff8111156115a157600080fd5b8201604081850312156115b357600080fd5b9392505050565b634e487b7160e01b600052602160045260246000fd5b6000815180845260208085019450602084016000805b8481101561161f578251600480821061160c57634e487b7160e01b845260218152602484fd5b50885296830196918301916001016115e6565b50959695505050505050565b60008151808452602080850194506020840160005b8381101561167e57815180516001600160a01b0390811689528482015116848901526040908101519088015260609096019590820190600101611640565b509495945050505050565b60008151808452602080850194506020840160005b8381101561167e578151805188528301511515838801526040909601959082019060010161169e565b60008151808452602080850194506020840160005b8381101561167e578151875295820195908201906001016116dc565b600082825180855260208086019550808260051b84010181860160005b8481101561174b57858303601f19018952815151848452611738858501826116c7565b9985019993505090830190600101611715565b5090979650505050505050565b60208152815160208201526020820151604082015260408201516060820152600060608301516101008060808501526117956101208501836115d0565b91506080850151601f19808685030160a08701526117b3848361162b565b935060a08701519150808685030160c08701526117d0848361162b565b935060c08701519150808685030160e08701526117ed8483611689565b935060e087015191508086850301838701525061180a83826116f8565b9695505050505050565b60006020828403121561182657600080fd5b5035919050565b801515811461183b57600080fd5b50565b60006020828403121561185057600080fd5b81516115b38161182d565b634e487b7160e01b600052601160045260246000fd5b6000600182016118835761188361185b565b5060010190565b81810381811115610ad957610ad961185b565b6000808335601e198436030181126118b457600080fd5b83018035915067ffffffffffffffff8211156118cf57600080fd5b60200191506060810236038213156118e657600080fd5b9250929050565b6000808335601e1984360301811261190457600080fd5b83018035915067ffffffffffffffff82111561191f57600080fd5b6020019150600781901b36038213156118e657600080fd5b80820180821115610ad957610ad961185b565b82815260406020820152600061196360408301846116c7565b949350505050565b634e487b7160e01b600052603260045260246000fd5b634e487b7160e01b600052604160045260246000fd5b6000602082840312156119a957600080fd5b8135600481106115b357600080fd5b6000602082840312156119ca57600080fd5b81356115b38161182d565b6000602082840312156119e757600080fd5b505191905056fea2646970667358221220e8b1143bb8e306f857e3ffaa7364bb16b282a95fd5c2e3778c6ca6eb9e08daac64736f6c63430008160033",
    "linkReferences": {}
  },
  "methodIdentifiers": {
    "cancelResolutions(uint256)": "ca9b21ae",
    "counter()": "61bc221a",
    "deposit(address,uint256)": "47e7ef24",
    "getUpdateForL2()": "b1538706",
    "lastProcessedUpdate_origin_l1()": "7fd4f845",
    "lastProcessedUpdate_origin_l2()": "f26ee9d0",
    "update_l1_from_l2(((uint256,uint256,uint256,bytes32)[],(uint256,uint8,bool)[]))": "90645146",
    "withdraw(address,uint256)": "f3fef3a3"
  },
  "id": 24
}