{
  "abi": [
    {
      "inputs": [],
      "stateMutability": "nonpayable",
      "type": "constructor"
    },
    {
      "anonymous": false,
      "inputs": [
        {
          "indexed": false,
          "internalType": "uint256",
          "name": "requestId",
          "type": "uint256"
        },
        {
          "indexed": false,
          "internalType": "address",
          "name": "depositRecipient",
          "type": "address"
        },
        {
          "indexed": false,
          "internalType": "address",
          "name": "tokenAddress",
          "type": "address"
        },
        {
          "indexed": false,
          "internalType": "uint256",
          "name": "amount",
          "type": "uint256"
        }
      ],
      "name": "DepositAcceptedIntoQueue",
      "type": "event"
    },
    {
      "anonymous": false,
      "inputs": [
        {
          "indexed": false,
          "internalType": "uint256",
          "name": "requestId",
          "type": "uint256"
        },
        {
          "indexed": false,
          "internalType": "bool",
          "name": "cancelJustified",
          "type": "bool"
        }
      ],
      "name": "DisputeResolutionAcceptedIntoQueue",
      "type": "event"
    },
    {
      "anonymous": false,
      "inputs": [
        {
          "indexed": false,
          "internalType": "address",
          "name": "depositRecipient",
          "type": "address"
        },
        {
          "indexed": false,
          "internalType": "address",
          "name": "tokenAddress",
          "type": "address"
        },
        {
          "indexed": false,
          "internalType": "uint256",
          "name": "amount",
          "type": "uint256"
        }
      ],
      "name": "FundsReturned",
      "type": "event"
    },
    {
      "anonymous": false,
      "inputs": [
        {
          "indexed": false,
          "internalType": "address",
          "name": "withdrawRecipient",
          "type": "address"
        },
        {
          "indexed": false,
          "internalType": "address",
          "name": "tokenAddress",
          "type": "address"
        },
        {
          "indexed": false,
          "internalType": "uint256",
          "name": "amount",
          "type": "uint256"
        }
      ],
      "name": "FundsWithdrawn",
      "type": "event"
    },
    {
      "anonymous": false,
      "inputs": [
        {
          "indexed": false,
          "internalType": "uint256",
          "name": "requestId",
          "type": "uint256"
        },
        {
          "indexed": false,
          "internalType": "uint256[]",
          "name": "l2UpdatesToRemove",
          "type": "uint256[]"
        }
      ],
      "name": "L2UpdatesToRemovedAcceptedIntoQueue",
      "type": "event"
    },
    {
      "anonymous": false,
      "inputs": [
        {
          "indexed": false,
          "internalType": "uint256",
          "name": "requestId",
          "type": "uint256"
        },
        {
          "indexed": false,
          "internalType": "bool",
          "name": "success",
          "type": "bool"
        }
      ],
      "name": "WithdrawalResolutionAcceptedIntoQueue",
      "type": "event"
    },
    {
      "anonymous": false,
      "inputs": [
        {
          "indexed": false,
          "internalType": "bytes32",
          "name": "cancelHash",
          "type": "bytes32"
        },
        {
          "indexed": false,
          "internalType": "bytes32",
          "name": "calculatedHash",
          "type": "bytes32"
        }
      ],
      "name": "cancelAndCalculatedHash",
      "type": "event"
    },
    {
      "inputs": [
        {
          "internalType": "uint256",
          "name": "",
          "type": "uint256"
        }
      ],
      "name": "cancelResolutions",
      "outputs": [
        {
          "components": [
            {
              "internalType": "enum RollDown.Origin",
              "name": "origin",
              "type": "uint8"
            },
            {
              "internalType": "uint256",
              "name": "id",
              "type": "uint256"
            }
          ],
          "internalType": "struct RollDown.RequestId",
          "name": "requestId",
          "type": "tuple"
        },
        {
          "internalType": "uint256",
          "name": "l2RequestId",
          "type": "uint256"
        },
        {
          "internalType": "bool",
          "name": "cancelJustified",
          "type": "bool"
        },
        {
          "internalType": "uint256",
          "name": "timeStamp",
          "type": "uint256"
        }
      ],
      "stateMutability": "view",
      "type": "function"
    },
    {
      "inputs": [],
      "name": "counter",
      "outputs": [
        {
          "internalType": "uint256",
          "name": "",
          "type": "uint256"
        }
      ],
      "stateMutability": "view",
      "type": "function"
    },
    {
      "inputs": [
        {
          "internalType": "address",
          "name": "tokenAddress",
          "type": "address"
        },
        {
          "internalType": "uint256",
          "name": "amount",
          "type": "uint256"
        }
      ],
      "name": "deposit",
      "outputs": [],
      "stateMutability": "nonpayable",
      "type": "function"
    },
    {
      "inputs": [
        {
          "internalType": "uint256",
          "name": "start",
          "type": "uint256"
        },
        {
          "internalType": "uint256",
          "name": "end",
          "type": "uint256"
        }
      ],
      "name": "getPendingRequests",
      "outputs": [
        {
          "components": [
            {
              "components": [
                {
                  "components": [
                    {
                      "internalType": "enum RollDown.Origin",
                      "name": "origin",
                      "type": "uint8"
                    },
                    {
                      "internalType": "uint256",
                      "name": "id",
                      "type": "uint256"
                    }
                  ],
                  "internalType": "struct RollDown.RequestId",
                  "name": "requestId",
                  "type": "tuple"
                },
                {
                  "internalType": "address",
                  "name": "depositRecipient",
                  "type": "address"
                },
                {
                  "internalType": "address",
                  "name": "tokenAddress",
                  "type": "address"
                },
                {
                  "internalType": "uint256",
                  "name": "amount",
                  "type": "uint256"
                },
                {
                  "internalType": "uint256",
                  "name": "timeStamp",
                  "type": "uint256"
                }
              ],
              "internalType": "struct RollDown.Deposit[]",
              "name": "pendingDeposits",
              "type": "tuple[]"
            },
            {
              "components": [
                {
                  "components": [
                    {
                      "internalType": "enum RollDown.Origin",
                      "name": "origin",
                      "type": "uint8"
                    },
                    {
                      "internalType": "uint256",
                      "name": "id",
                      "type": "uint256"
                    }
                  ],
                  "internalType": "struct RollDown.RequestId",
                  "name": "requestId",
                  "type": "tuple"
                },
                {
                  "internalType": "uint256",
                  "name": "l2RequestId",
                  "type": "uint256"
                },
                {
                  "internalType": "bool",
                  "name": "cancelJustified",
                  "type": "bool"
                },
                {
                  "internalType": "uint256",
                  "name": "timeStamp",
                  "type": "uint256"
                }
              ],
              "internalType": "struct RollDown.CancelResolution[]",
              "name": "pendingCancelResultions",
              "type": "tuple[]"
            },
            {
              "components": [
                {
                  "components": [
                    {
                      "internalType": "enum RollDown.Origin",
                      "name": "origin",
                      "type": "uint8"
                    },
                    {
                      "internalType": "uint256",
                      "name": "id",
                      "type": "uint256"
                    }
                  ],
                  "internalType": "struct RollDown.RequestId",
                  "name": "requestId",
                  "type": "tuple"
                },
                {
                  "internalType": "uint256",
                  "name": "l2RequestId",
                  "type": "uint256"
                },
                {
                  "internalType": "bool",
                  "name": "status",
                  "type": "bool"
                },
                {
                  "internalType": "uint256",
                  "name": "timeStamp",
                  "type": "uint256"
                }
              ],
              "internalType": "struct RollDown.WithdrawalResolution[]",
              "name": "pendingWithdrawalResolutions",
              "type": "tuple[]"
            },
            {
              "components": [
                {
                  "components": [
                    {
                      "internalType": "enum RollDown.Origin",
                      "name": "origin",
                      "type": "uint8"
                    },
                    {
                      "internalType": "uint256",
                      "name": "id",
                      "type": "uint256"
                    }
                  ],
                  "internalType": "struct RollDown.RequestId",
                  "name": "requestId",
                  "type": "tuple"
                },
                {
                  "internalType": "uint256[]",
                  "name": "l2UpdatesToRemove",
                  "type": "uint256[]"
                },
                {
                  "internalType": "uint256",
                  "name": "timeStamp",
                  "type": "uint256"
                }
              ],
              "internalType": "struct RollDown.L2UpdatesToRemove[]",
              "name": "pendingL2UpdatesToRemove",
              "type": "tuple[]"
            }
          ],
          "internalType": "struct RollDown.L1Update",
          "name": "",
          "type": "tuple"
        }
      ],
      "stateMutability": "view",
      "type": "function"
    },
    {
      "inputs": [],
      "name": "getUpdateForL2",
      "outputs": [
        {
          "components": [
            {
              "components": [
                {
                  "components": [
                    {
                      "internalType": "enum RollDown.Origin",
                      "name": "origin",
                      "type": "uint8"
                    },
                    {
                      "internalType": "uint256",
                      "name": "id",
                      "type": "uint256"
                    }
                  ],
                  "internalType": "struct RollDown.RequestId",
                  "name": "requestId",
                  "type": "tuple"
                },
                {
                  "internalType": "address",
                  "name": "depositRecipient",
                  "type": "address"
                },
                {
                  "internalType": "address",
                  "name": "tokenAddress",
                  "type": "address"
                },
                {
                  "internalType": "uint256",
                  "name": "amount",
                  "type": "uint256"
                },
                {
                  "internalType": "uint256",
                  "name": "timeStamp",
                  "type": "uint256"
                }
              ],
              "internalType": "struct RollDown.Deposit[]",
              "name": "pendingDeposits",
              "type": "tuple[]"
            },
            {
              "components": [
                {
                  "components": [
                    {
                      "internalType": "enum RollDown.Origin",
                      "name": "origin",
                      "type": "uint8"
                    },
                    {
                      "internalType": "uint256",
                      "name": "id",
                      "type": "uint256"
                    }
                  ],
                  "internalType": "struct RollDown.RequestId",
                  "name": "requestId",
                  "type": "tuple"
                },
                {
                  "internalType": "uint256",
                  "name": "l2RequestId",
                  "type": "uint256"
                },
                {
                  "internalType": "bool",
                  "name": "cancelJustified",
                  "type": "bool"
                },
                {
                  "internalType": "uint256",
                  "name": "timeStamp",
                  "type": "uint256"
                }
              ],
              "internalType": "struct RollDown.CancelResolution[]",
              "name": "pendingCancelResultions",
              "type": "tuple[]"
            },
            {
              "components": [
                {
                  "components": [
                    {
                      "internalType": "enum RollDown.Origin",
                      "name": "origin",
                      "type": "uint8"
                    },
                    {
                      "internalType": "uint256",
                      "name": "id",
                      "type": "uint256"
                    }
                  ],
                  "internalType": "struct RollDown.RequestId",
                  "name": "requestId",
                  "type": "tuple"
                },
                {
                  "internalType": "uint256",
                  "name": "l2RequestId",
                  "type": "uint256"
                },
                {
                  "internalType": "bool",
                  "name": "status",
                  "type": "bool"
                },
                {
                  "internalType": "uint256",
                  "name": "timeStamp",
                  "type": "uint256"
                }
              ],
              "internalType": "struct RollDown.WithdrawalResolution[]",
              "name": "pendingWithdrawalResolutions",
              "type": "tuple[]"
            },
            {
              "components": [
                {
                  "components": [
                    {
                      "internalType": "enum RollDown.Origin",
                      "name": "origin",
                      "type": "uint8"
                    },
                    {
                      "internalType": "uint256",
                      "name": "id",
                      "type": "uint256"
                    }
                  ],
                  "internalType": "struct RollDown.RequestId",
                  "name": "requestId",
                  "type": "tuple"
                },
                {
                  "internalType": "uint256[]",
                  "name": "l2UpdatesToRemove",
                  "type": "uint256[]"
                },
                {
                  "internalType": "uint256",
                  "name": "timeStamp",
                  "type": "uint256"
                }
              ],
              "internalType": "struct RollDown.L2UpdatesToRemove[]",
              "name": "pendingL2UpdatesToRemove",
              "type": "tuple[]"
            }
          ],
          "internalType": "struct RollDown.L1Update",
          "name": "",
          "type": "tuple"
        }
      ],
      "stateMutability": "view",
      "type": "function"
    },
    {
      "inputs": [],
      "name": "lastProcessedUpdate_origin_l1",
      "outputs": [
        {
          "internalType": "uint256",
          "name": "",
          "type": "uint256"
        }
      ],
      "stateMutability": "view",
      "type": "function"
    },
    {
      "inputs": [],
      "name": "lastProcessedUpdate_origin_l2",
      "outputs": [
        {
          "internalType": "uint256",
          "name": "",
          "type": "uint256"
        }
      ],
      "stateMutability": "view",
      "type": "function"
    },
    {
      "inputs": [
        {
          "components": [
            {
              "components": [
                {
                  "components": [
                    {
                      "internalType": "enum RollDown.Origin",
                      "name": "origin",
                      "type": "uint8"
                    },
                    {
                      "internalType": "uint256",
                      "name": "id",
                      "type": "uint256"
                    }
                  ],
                  "internalType": "struct RollDown.RequestId",
                  "name": "requestId",
                  "type": "tuple"
                },
                {
                  "components": [
                    {
                      "internalType": "uint256",
                      "name": "start",
                      "type": "uint256"
                    },
                    {
                      "internalType": "uint256",
                      "name": "end",
                      "type": "uint256"
                    }
                  ],
                  "internalType": "struct RollDown.Range",
                  "name": "range",
                  "type": "tuple"
                },
                {
                  "internalType": "bytes32",
                  "name": "hash",
                  "type": "bytes32"
                }
              ],
              "internalType": "struct RollDown.Cancel[]",
              "name": "cancels",
              "type": "tuple[]"
            },
            {
              "components": [
                {
                  "components": [
                    {
                      "internalType": "enum RollDown.Origin",
                      "name": "origin",
                      "type": "uint8"
                    },
                    {
                      "internalType": "uint256",
                      "name": "id",
                      "type": "uint256"
                    }
                  ],
                  "internalType": "struct RollDown.RequestId",
                  "name": "requestId",
                  "type": "tuple"
                },
                {
                  "internalType": "address",
                  "name": "withdrawalRecipient",
                  "type": "address"
                },
                {
                  "internalType": "address",
                  "name": "tokenAddress",
                  "type": "address"
                },
                {
                  "internalType": "uint256",
                  "name": "amount",
                  "type": "uint256"
                }
              ],
              "internalType": "struct RollDown.Withdrawal[]",
              "name": "withdrawals",
              "type": "tuple[]"
            },
            {
              "components": [
                {
                  "components": [
                    {
                      "internalType": "enum RollDown.Origin",
                      "name": "origin",
                      "type": "uint8"
                    },
                    {
                      "internalType": "uint256",
                      "name": "id",
                      "type": "uint256"
                    }
                  ],
                  "internalType": "struct RollDown.RequestId",
                  "name": "requestId",
                  "type": "tuple"
                },
                {
                  "internalType": "uint256",
                  "name": "originRequestId",
                  "type": "uint256"
                },
                {
                  "internalType": "enum RollDown.UpdateType",
                  "name": "updateType",
                  "type": "uint8"
                },
                {
                  "internalType": "bool",
                  "name": "status",
                  "type": "bool"
                }
              ],
              "internalType": "struct RollDown.RequestResult[]",
              "name": "results",
              "type": "tuple[]"
            }
          ],
          "internalType": "struct RollDown.L2Update",
          "name": "inputArray",
          "type": "tuple"
        }
      ],
      "name": "update_l1_from_l2",
      "outputs": [],
      "stateMutability": "nonpayable",
      "type": "function"
    },
    {
      "inputs": [
        {
          "internalType": "uint256",
          "name": "",
          "type": "uint256"
        }
      ],
      "name": "withdrawalResolutions",
      "outputs": [
        {
          "components": [
            {
              "internalType": "enum RollDown.Origin",
              "name": "origin",
              "type": "uint8"
            },
            {
              "internalType": "uint256",
              "name": "id",
              "type": "uint256"
            }
          ],
          "internalType": "struct RollDown.RequestId",
          "name": "requestId",
          "type": "tuple"
        },
        {
          "internalType": "uint256",
          "name": "l2RequestId",
          "type": "uint256"
        },
        {
          "internalType": "bool",
          "name": "status",
          "type": "bool"
        },
        {
          "internalType": "uint256",
          "name": "timeStamp",
          "type": "uint256"
        }
      ],
      "stateMutability": "view",
      "type": "function"
    }
  ],
  "bytecode": {
    "object": "0x608060405234801561001057600080fd5b506000600281905560018055600381905580546001600160a01b03191633179055612411806100406000396000f3fe608060405234801561001057600080fd5b50600436106100935760003560e01c80637fd4f845116100665780637fd4f845146100fc578063a80fc9bd14610105578063b153870614610128578063ca9b21ae14610130578063f26ee9d01461014357600080fd5b806347e7ef24146100985780635740b89d146100ad57806361bc221a146100c057806379e041f2146100dc575b600080fd5b6100ab6100a6366004611db5565b61014c565b005b6100ab6100bb366004611ddf565b610408565b6100c960015481565b6040519081526020015b60405180910390f35b6100ef6100ea366004611e1a565b610651565b6040516100d39190611fe1565b6100c960025481565b6101186101133660046120cc565b610cde565b6040516100d394939291906120e5565b6100ef610d50565b61011861013e3660046120cc565b610da0565b6100c960035481565b6001600160a01b03821661019f5760405162461bcd60e51b8152602060048201526015602482015274496e76616c696420746f6b656e206164647265737360581b60448201526064015b60405180910390fd5b600081116101ef5760405162461bcd60e51b815260206004820181905260248201527f416d6f756e74206d7573742062652067726561746572207468616e207a65726f6044820152606401610196565b6040516323b872dd60e01b81523360048201819052306024830152604482018390529083906001600160a01b038216906323b872dd906064016020604051808303816000875af1158015610247573d6000803e3d6000fd5b505050506040513d601f19601f8201168201806040525081019061026b919061211c565b6102af5760405162461bcd60e51b8152602060048201526015602482015274151bdad95b881d1c985b9cd9995c8819985a5b1959605a1b6044820152606401610196565b6040805160e0810190915242906000908060a0810180848152602001600160008154809291906102de9061214f565b90915550905281526001600160a01b03808716602080840191909152908916604080840191909152606083018990526080909201859052825181015160009081526006909152208151805182549394508493839190829060ff19166001838181111561034c5761034c611e3c565b021790555060209182015160019190910155828101516002830180546001600160a01b03199081166001600160a01b03938416179091556040808601516003860180549093169084161790915560608086015160048601556080958601516005909501949094558551830151815190815289831693810193909352908a16908201529081018790527fe28491c2da97a9923c92f6590a040dfc143fe636e8545356cdab0a796e1acefa91015b60405180910390a1505050505050565b60016104176040830183612168565b90501015806104325750600161042d8280612168565b905010155b8061044c575060016104476020830183612168565b905010155b6104a25760405162461bcd60e51b815260206004820152602160248201527f4172726179206d7573742068617665206174206c6561737420312075706461746044820152606560f81b6064820152608401610196565b6000806104ae83610dd5565b91509150816000036104d25760405162461bcd60e51b8152600401610196906121b8565b6003546104e09060016121e2565b8211156104ff5760405162461bcd60e51b8152600401610196906121b8565b60035481116105205760405162461bcd60e51b8152600401610196906121b8565b600061052c8385610f0b565b90506000610546826105416040880188612168565b61127b565b9050610552828661152f565b80511561064a57600180546000918261056a8361214f565b909155506040805160a08101909152909150806060810180600081526020908101859052908252818101859052426040928301526000848152600790915220815180518254839190829060ff1916600183818111156105cb576105cb611e3c565b02179055506020918201516001909101558281015180516105f29260028501920190611d39565b506040820151816003015590505081516002600082825461061391906121e2565b90915550506040517f09b30365986269e3939307e7ca7b7b7421a8ad08ef18bb766c668d27cbc2aef9906103f890839085906121f5565b5050505050565b61067c6040518060800160405280606081526020016060815260200160608152602001606081525090565b6106a76040518060800160405280606081526020016060815260200160608152602001606081525090565b6000808080875b87811161076757600081815260066020526040902060010154156106de57846106d68161214f565b955050610755565b6000818152600760205260409020600101541561070757816106ff8161214f565b925050610755565b6000818152600460205260409020600101541561073057836107288161214f565b945050610755565b6000818152600560205260409020600101541561075557826107518161214f565b9350505b8061075f8161214f565b9150506106ae565b508367ffffffffffffffff81111561078157610781612216565b6040519080825280602002602001820160405280156107e757816020015b6040805160e081018252600060a0820181815260c0830182905282526020808301829052928201819052606082018190526080820152825260001990920191018161079f5790505b5085528167ffffffffffffffff81111561080357610803612216565b60405190808252806020026020018201604052801561086257816020015b6040805160c08101825260006080820181815260a0830182905282526020808301829052928201819052606082015282526000199092019101816108215790505b5060208601528267ffffffffffffffff81111561088157610881612216565b6040519080825280602002602001820160405280156108e057816020015b6040805160c08101825260006080820181815260a08301829052825260208083018290529282018190526060820152825260001990920191018161089f5790505b5060408601528067ffffffffffffffff8111156108ff576108ff612216565b60405190808252806020026020018201604052801561095957816020015b6040805160a0810182526000606080830182815260808401839052835260208301529181019190915281526020019060019003908161091d5790505b506060860152506000925082915081905080875b878111610ccf5760008181526006602052604090206001015415610a4e5760008181526006602052604090819020815160e081019092528054829060a08201908390829060ff1660018111156109c5576109c5611e3c565b60018111156109d6576109d6611e3c565b81526001919091015460209182015290825260028301546001600160a01b0390811691830191909152600383015416604082015260048201546060820152600590910154608090910152865186610a2c8161214f565b975081518110610a3e57610a3e61222c565b6020026020010181905250610cbd565b60008181526004602052604090206001015415610b095760008181526004602052604090819020815160c081019092528054829060808201908390829060ff166001811115610a9f57610a9f611e3c565b6001811115610ab057610ab0611e3c565b815260019190910154602091820152908252600283015490820152600382015460ff16151560408083019190915260049092015460609091015287015185610af78161214f565b965081518110610a3e57610a3e61222c565b60008181526007602052604090206001015415610c015760008181526007602052604090819020815160a081019092528054829060608201908390829060ff166001811115610b5a57610b5a611e3c565b6001811115610b6b57610b6b611e3c565b8152602001600182015481525050815260200160028201805480602002602001604051908101604052809291908181526020018280548015610bcc57602002820191906000526020600020905b815481526020019060010190808311610bb8575b5050505050815260200160038201548152505086606001518380610bef9061214f565b945081518110610a3e57610a3e61222c565b60008181526005602052604090206002015415610cb85760008181526005602052604090819020815160c081019092528054829060808201908390829060ff166001811115610c5257610c52611e3c565b6001811115610c6357610c63611e3c565b815260019190910154602091820152908252600283015482820152600383015460ff161515604083015260049092015460609091015287015184610ca68161214f565b955081518110610a3e57610a3e61222c565b610ccf565b80610cc78161214f565b91505061096d565b50939450505050505b92915050565b60046020526000908152604090819020815180830190925280549091908290829060ff166001811115610d1357610d13611e3c565b6001811115610d2457610d24611e3c565b815260019190910154602090910152600282015460038301546004909301549192909160ff9091169084565b610d7b6040518060800160405280606081526020016060815260200160608152602001606081525090565b610d9b6002546001610d8d91906121e2565b600180546100ea9190612242565b905090565b60056020526000908152604090819020815180830190925280549091908290829060ff166001811115610d1357610d13611e3c565b6000806000198180610de78680612168565b90501115610e6b57610e20610dfc8680612168565b6000818110610e0d57610e0d61222c565b905060a002016000016020013583611722565b9150610e68610e2f8680612168565b6001610e3b8980612168565b610e46929150612242565b818110610e5557610e5561222c565b905060a002016000016020013582611738565b90505b6000610e7a6020870187612168565b90501115610eb657610e92610dfc6020870187612168565b9150610eb3610ea46020870187612168565b6001610e3b60208a018a612168565b90505b6000610ec56040870187612168565b90501115610f0157610edd610dfc6040870187612168565b9150610efe610eef6040870187612168565b6001610e3b60408a018a612168565b90505b9094909350915050565b6060610f1a6040830183612168565b1590508015610f325750610f2e8280612168565b1590505b8015610f4a5750610f466020830183612168565b1590505b15610f645750604080516000815260208101909152610cd8565b600080808080610f776040880188612168565b9050610f866020890189612168565b9050610f928980612168565b610f9d9291506121e2565b610fa791906121e2565b905060008167ffffffffffffffff811115610fc457610fc4612216565b604051908082528060200260200182016040528015610fed578160200160208202803683370190505b509050885b610ffc838b6121e2565b81101561126e5761101060208a018a612168565b90508710801561104857508061102960208b018b612168565b898181106110395761103961222c565b905060a0020160000160200135145b156110b05760018285815181106110615761106161222c565b6020026020010190600581111561107a5761107a611e3c565b9081600581111561108d5761108d611e3c565b9052508661109a8161214f565b97505083806110a89061214f565b945050611266565b6110ba8980612168565b9050861080156110ef5750806110d08a80612168565b888181106110e0576110e061222c565b905060a0020160000160200135145b1561114f5760048285815181106111085761110861222c565b6020026020010190600581111561112157611121611e3c565b9081600581111561113457611134611e3c565b905250856111418161214f565b96505083806110a89061214f565b61115c60408a018a612168565b90508510801561119457508061117560408b018b612168565b878181106111855761118561222c565b905060a0020160000160200135145b156111f45760038285815181106111ad576111ad61222c565b602002602001019060058111156111c6576111c6611e3c565b908160058111156111d9576111d9611e3c565b905250846111e68161214f565b95505083806110a89061214f565b61122a604051806040016040528060158152602001743932b8bab2b9ba39903737ba1034b71037b93232b960591b815250611747565b60405162461bcd60e51b8152602060048201526011602482015270696e76616c696465204c3255706461746560781b6044820152606401610196565b600101610ff2565b5098975050505050505050565b6060600082900361129b5750604080516000815260208101909152611528565b6000808367ffffffffffffffff8111156112b7576112b7612216565b6040519080825280602002602001820160405280156112e0578160200160208202803683370190505b5090506000805b875181101561148f5760038882815181106113045761130461222c565b6020026020010151600581111561131d5761131d611e3c565b036114875760008787846113308161214f565b95508181106113415761134161222c565b905060a0020180360381019061135791906122c8565b9050600354816000015160200151116113705750611487565b60008160400151600581111561138857611388611e3c565b14806113a957506003816040015160058111156113a7576113a7611e3c565b145b806113c957506005816040015160058111156113c7576113c7611e3c565b145b806113e957506002816040015160058111156113e7576113e7611e3c565b145b1561144657602081015184866113fe8161214f565b9750815181106114105761141061222c565b602090810291909101015260008160400151600581111561143357611433611e3c565b03611441576114418161178d565b611485565b60405162461bcd60e51b8152602060048201526014602482015273756e6b6e6f776e2072657175657374207479706560601b6044820152606401610196565b505b6001016112e7565b5060008367ffffffffffffffff8111156114ab576114ab612216565b6040519080825280602002602001820160405280156114d4578160200160208202803683370190505b50905060005b84811015611521578381815181106114f4576114f461222c565b602002602001015182828151811061150e5761150e61222c565b60209081029190910101526001016114da565b5093505050505b9392505050565b6000806000805b855181101561171a5760018682815181106115535761155361222c565b6020026020010151600581111561156c5761156c611e3c565b036115dc573661157f6020870187612168565b856115898161214f565b965081811061159a5761159a61222c565b905060a0020190506003548160000160200135116115b85750611712565b6115c18161191d565b600380549060006115d18361214f565b919050555050611712565b60048682815181106115f0576115f061222c565b6020026020010151600581111561160957611609611e3c565b0361165b57366116198680612168565b866116238161214f565b97508181106116345761163461222c565b905060a0020190506003548160000160200135116116525750611712565b6115c181611bc7565b600386828151811061166f5761166f61222c565b6020026020010151600581111561168857611688611e3c565b036116d4573661169b6040870187612168565b846116a58161214f565b95508181106116b6576116b661222c565b905060a0020190506003548160000160200135116115c15750611712565b60405162461bcd60e51b8152602060048201526013602482015272756e6b6e6f776e20757064617465207479706560681b6044820152606401610196565b600101611536565b505050505050565b60008183106117315781611528565b5090919050565b60008183116117315781611528565b61178a8160405160240161175b9190612358565b60408051601f198184030181529190526020810180516001600160e01b031663104c13eb60e21b179052611d18565b50565b806060015161178a578051602090810151600081815260069092526040808320815160e081019092528054929392829060a08201908390829060ff1660018111156117da576117da611e3c565b60018111156117eb576117eb611e3c565b81526001919091015460209182015290825260028301546001600160a01b039081168383015260038401548116604080850191909152600480860154606080870191909152600590960154608090950194909452858101519286015194860151905163a9059cbb60e01b815294821693850193909352602484019290925292935082169063a9059cbb906044016020604051808303816000875af1158015611897573d6000803e3d6000fd5b505050506040513d601f19601f820116820180604052508101906118bb919061211c565b5060208083015160408085015160608087015183516001600160a01b0395861681529490921694840194909452908201527fd94415916610c60b0e0e439fd308b171a6e28fad608830cf17f14ff5928e2279910160405180910390a150505050565b600061192f60808301606084016123a7565b6040516370a0823160e01b81523060048201529091506000906080840135906001600160a01b038416906370a0823190602401602060405180830381865afa15801561197f573d6000803e3d6000fd5b505050506040513d601f19601f820116820180604052508101906119a391906123c2565b6040805160c0810190915291111591504290600090806080810180848152602001600160008154809291906119d79061214f565b9091555090528152602087810135818301528515156040808401919091526060909201859052825181015160009081526004909152208151805182549394508493839190829060ff191660018381811115611a3457611a34611e3c565b02179055506020918201516001919091015582810151600283015560408084015160038401805460ff191691151591909117905560609093015160049092019190915582518101518251908152851515918101919091527f0c4873525770dbb64515e9d3950131f79ed8f72ff147ff1723bbe2e77e3791aa910160405180910390a1821561064a576001600160a01b03841663a9059cbb611adb60608801604089016123a7565b6040516001600160e01b031960e084901b1681526001600160a01b039091166004820152608088013560248201526044016020604051808303816000875af1158015611b2b573d6000803e3d6000fd5b505050506040513d601f19601f82011682018060405250810190611b4f919061211c565b507fa92ff919b850e4909ab2261d907ef955f11bc1716733a6cbece38d163a69af8a611b8160608701604088016123a7565b611b9160808801606089016123a7565b604080516001600160a01b0393841681529290911660208301526080880135908201526060015b60405180910390a15050505050565b6000611bdb60408301356060840135610651565b9050600081604051602001611bf09190611fe1565b60408051601f19818403018152828252805160209091012060c083019091529150429060009080608081018084815260200160016000815480929190611c359061214f565b909155509052815260208781013581830152608088013586146040808401919091526060909201859052825181015160009081526005909152208151805182549394508493839190829060ff191660018381811115611c9657611c96611e3c565b021790555060209182015160019091015582810151600283015560408084015160038401805491151560ff199092169190911790556060909301516004909201919091558201518282015191517fd16f202ac5905ff5d1851f4805ffe56d1212db32fa989881d0044b9cf0f7277692611bb89282521515602082015260400190565b80516a636f6e736f6c652e6c6f67602083016000808483855afa5050505050565b828054828255906000526020600020908101928215611d74579160200282015b82811115611d74578251825591602001919060010190611d59565b50611d80929150611d84565b5090565b5b80821115611d805760008155600101611d85565b80356001600160a01b0381168114611db057600080fd5b919050565b60008060408385031215611dc857600080fd5b611dd183611d99565b946020939093013593505050565b600060208284031215611df157600080fd5b813567ffffffffffffffff811115611e0857600080fd5b82016060818503121561152857600080fd5b60008060408385031215611e2d57600080fd5b50508035926020909101359150565b634e487b7160e01b600052602160045260246000fd5b805160028110611e7257634e487b7160e01b600052602160045260246000fd5b8252602090810151910152565b611e8a828251611e52565b60208101516040830152604081015115156060830152606081015160808301525050565b60008151808452602080850194506020840160005b83811015611ee957611ed6878351611e7f565b60a0969096019590820190600101611ec3565b509495945050505050565b60008151808452602080850194506020840160005b83811015611ee957611f1c878351611e7f565b60a0969096019590820190600101611f09565b60008151808452602080850194506020840160005b83811015611ee957815187529582019590820190600101611f44565b600082825180855260208086019550808260051b84010181860160005b84811015611fd457601f1986840301895281516080611f9d858351611e52565b8582015160408281880152611fb483880183611f2f565b930151606096909601959095525098840198925090830190600101611f7d565b5090979650505050505050565b6000602080835260a080840185516080808588015282825180855260c0945060c089019150868401935060005b81811015612066578451612023848251611e52565b808901516001600160a01b03908116604086810191909152820151166060808601919091528101518585015284015187840152938701939185019160010161200e565b5050858901519550601f199450848882030160408901526120878187611eae565b9550505050506040850151818584030160608601526120a68382611ef4565b9250506060850151818584030160808601526120c28382611f60565b9695505050505050565b6000602082840312156120de57600080fd5b5035919050565b60a081016120f38287611e52565b60408201949094529115156060830152608090910152919050565b801515811461178a57600080fd5b60006020828403121561212e57600080fd5b81516115288161210e565b634e487b7160e01b600052601160045260246000fd5b60006001820161216157612161612139565b5060010190565b6000808335601e1984360301811261217f57600080fd5b83018035915067ffffffffffffffff82111561219a57600080fd5b602001915060a0810236038213156121b157600080fd5b9250929050565b60208082526010908201526f496e76616c6964204c3255706461746560801b604082015260600190565b80820180821115610cd857610cd8612139565b82815260406020820152600061220e6040830184611f2f565b949350505050565b634e487b7160e01b600052604160045260246000fd5b634e487b7160e01b600052603260045260246000fd5b81810381811115610cd857610cd8612139565b6040516080810167ffffffffffffffff8111828210171561228657634e487b7160e01b600052604160045260246000fd5b60405290565b6040805190810167ffffffffffffffff8111828210171561228657634e487b7160e01b600052604160045260246000fd5b8035611db08161210e565b600081830360a08112156122db57600080fd5b6122e3612255565b60408212156122f157600080fd5b6122f961228c565b915083356002811061230a57600080fd5b808352506020840135602083015281815260408401356020820152606084013591506006821061233957600080fd5b81604082015261234b608085016122bd565b6060820152949350505050565b60006020808352835180602085015260005b818110156123865785810183015185820160400152820161236a565b506000604082860101526040601f19601f8301168501019250505092915050565b6000602082840312156123b957600080fd5b61152882611d99565b6000602082840312156123d457600080fd5b505191905056fea26469706673582212201926e40da665cc3c15a44b0bae5e2aa8095f4fc60a4dca6fe1038f198a881fa464736f6c63430008160033",
    "linkReferences": {}
  },
  "methodIdentifiers": {
    "cancelResolutions(uint256)": "ca9b21ae",
    "counter()": "61bc221a",
    "deposit(address,uint256)": "47e7ef24",
    "getPendingRequests(uint256,uint256)": "79e041f2",
    "getUpdateForL2()": "b1538706",
    "lastProcessedUpdate_origin_l1()": "7fd4f845",
    "lastProcessedUpdate_origin_l2()": "f26ee9d0",
    "update_l1_from_l2((((uint8,uint256),(uint256,uint256),bytes32)[],((uint8,uint256),address,address,uint256)[],((uint8,uint256),uint256,uint8,bool)[]))": "5740b89d",
    "withdrawalResolutions(uint256)": "a80fc9bd"
  },
  "id": 24
}