{"abi":[{"type":"function","name":"CLOSED","inputs":[],"outputs":[{"name":"","type":"address","internalType":"address"}],"stateMutability":"view"},{"type":"function","name":"NATIVE_TOKEN_ADDRESS","inputs":[],"outputs":[{"name":"","type":"address","internalType":"address"}],"stateMutability":"view"},{"type":"function","name":"calculate_root","inputs":[{"name":"leave_hash","type":"bytes32","internalType":"bytes32"},{"name":"leave_idx","type":"uint32","internalType":"uint32"},{"name":"proof","type":"bytes32[]","internalType":"bytes32[]"},{"name":"leaves_count","type":"uint32","internalType":"uint32"}],"outputs":[{"name":"","type":"bytes32","internalType":"bytes32"}],"stateMutability":"pure"},{"type":"function","name":"calculate_root_impl","inputs":[{"name":"level","type":"uint32","internalType":"uint32"},{"name":"pos","type":"uint32","internalType":"uint32"},{"name":"hash","type":"bytes32","internalType":"bytes32"},{"name":"proofs","type":"bytes32[]","internalType":"bytes32[]"},{"name":"proof_idx","type":"uint32","internalType":"uint32"},{"name":"max_index","type":"uint32","internalType":"uint32"}],"outputs":[{"name":"","type":"bytes32","internalType":"bytes32"}],"stateMutability":"pure"},{"type":"function","name":"cancelResolutions","inputs":[{"name":"","type":"uint256","internalType":"uint256"}],"outputs":[{"name":"requestId","type":"tuple","internalType":"struct IRolldownPrimitives.RequestId","components":[{"name":"origin","type":"uint8","internalType":"enum IRolldownPrimitives.Origin"},{"name":"id","type":"uint256","internalType":"uint256"}]},{"name":"l2RequestId","type":"uint256","internalType":"uint256"},{"name":"cancelJustified","type":"bool","internalType":"bool"},{"name":"timeStamp","type":"uint256","internalType":"uint256"}],"stateMutability":"view"},{"type":"function","name":"chain","inputs":[],"outputs":[{"name":"","type":"uint8","internalType":"enum IRolldownPrimitives.ChainId"}],"stateMutability":"view"},{"type":"function","name":"close_cancel","inputs":[{"name":"cancel","type":"tuple","internalType":"struct IRolldownPrimitives.Cancel","components":[{"name":"requestId","type":"tuple","internalType":"struct IRolldownPrimitives.RequestId","components":[{"name":"origin","type":"uint8","internalType":"enum IRolldownPrimitives.Origin"},{"name":"id","type":"uint256","internalType":"uint256"}]},{"name":"range","type":"tuple","internalType":"struct IRolldownPrimitives.Range","components":[{"name":"start","type":"uint256","internalType":"uint256"},{"name":"end","type":"uint256","internalType":"uint256"}]},{"name":"hash","type":"bytes32","internalType":"bytes32"}]},{"name":"merkle_root","type":"bytes32","internalType":"bytes32"},{"name":"proof","type":"bytes32[]","internalType":"bytes32[]"}],"outputs":[],"stateMutability":"nonpayable"},{"type":"function","name":"close_deposit_refund","inputs":[{"name":"failedDeposit","type":"tuple","internalType":"struct IRolldownPrimitives.FailedDepositResolution","components":[{"name":"requestId","type":"tuple","internalType":"struct IRolldownPrimitives.RequestId","components":[{"name":"origin","type":"uint8","internalType":"enum IRolldownPrimitives.Origin"},{"name":"id","type":"uint256","internalType":"uint256"}]},{"name":"originRequestId","type":"uint256","internalType":"uint256"},{"name":"ferry","type":"address","internalType":"address"}]},{"name":"merkle_root","type":"bytes32","internalType":"bytes32"},{"name":"proof","type":"bytes32[]","internalType":"bytes32[]"}],"outputs":[],"stateMutability":"nonpayable"},{"type":"function","name":"close_withdrawal","inputs":[{"name":"withdrawal","type":"tuple","internalType":"struct IRolldownPrimitives.Withdrawal","components":[{"name":"requestId","type":"tuple","internalType":"struct IRolldownPrimitives.RequestId","components":[{"name":"origin","type":"uint8","internalType":"enum IRolldownPrimitives.Origin"},{"name":"id","type":"uint256","internalType":"uint256"}]},{"name":"recipient","type":"address","internalType":"address"},{"name":"tokenAddress","type":"address","internalType":"address"},{"name":"amount","type":"uint256","internalType":"uint256"},{"name":"ferryTip","type":"uint256","internalType":"uint256"}]},{"name":"merkle_root","type":"bytes32","internalType":"bytes32"},{"name":"proof","type":"bytes32[]","internalType":"bytes32[]"}],"outputs":[],"stateMutability":"nonpayable"},{"type":"function","name":"counter","inputs":[],"outputs":[{"name":"","type":"uint256","internalType":"uint256"}],"stateMutability":"view"},{"type":"function","name":"deposit","inputs":[{"name":"tokenAddress","type":"address","internalType":"address"},{"name":"amount","type":"uint256","internalType":"uint256"},{"name":"ferryTip","type":"uint256","internalType":"uint256"}],"outputs":[],"stateMutability":"nonpayable"},{"type":"function","name":"deposit","inputs":[{"name":"tokenAddress","type":"address","internalType":"address"},{"name":"amount","type":"uint256","internalType":"uint256"}],"outputs":[],"stateMutability":"nonpayable"},{"type":"function","name":"deposit_erc20","inputs":[{"name":"tokenAddress","type":"address","internalType":"address"},{"name":"amount","type":"uint256","internalType":"uint256"},{"name":"ferryTip","type":"uint256","internalType":"uint256"}],"outputs":[],"stateMutability":"nonpayable"},{"type":"function","name":"deposit_erc20","inputs":[{"name":"tokenAddress","type":"address","internalType":"address"},{"name":"amount","type":"uint256","internalType":"uint256"}],"outputs":[],"stateMutability":"nonpayable"},{"type":"function","name":"deposit_native","inputs":[],"outputs":[],"stateMutability":"payable"},{"type":"function","name":"deposit_native","inputs":[{"name":"ferryTip","type":"uint256","internalType":"uint256"}],"outputs":[],"stateMutability":"payable"},{"type":"function","name":"deposits","inputs":[{"name":"","type":"uint256","internalType":"uint256"}],"outputs":[{"name":"requestId","type":"tuple","internalType":"struct IRolldownPrimitives.RequestId","components":[{"name":"origin","type":"uint8","internalType":"enum IRolldownPrimitives.Origin"},{"name":"id","type":"uint256","internalType":"uint256"}]},{"name":"depositRecipient","type":"address","internalType":"address"},{"name":"tokenAddress","type":"address","internalType":"address"},{"name":"amount","type":"uint256","internalType":"uint256"},{"name":"timeStamp","type":"uint256","internalType":"uint256"},{"name":"ferryTip","type":"uint256","internalType":"uint256"}],"stateMutability":"view"},{"type":"function","name":"ferry_withdrawal","inputs":[{"name":"withdrawal","type":"tuple","internalType":"struct IRolldownPrimitives.Withdrawal","components":[{"name":"requestId","type":"tuple","internalType":"struct IRolldownPrimitives.RequestId","components":[{"name":"origin","type":"uint8","internalType":"enum IRolldownPrimitives.Origin"},{"name":"id","type":"uint256","internalType":"uint256"}]},{"name":"recipient","type":"address","internalType":"address"},{"name":"tokenAddress","type":"address","internalType":"address"},{"name":"amount","type":"uint256","internalType":"uint256"},{"name":"ferryTip","type":"uint256","internalType":"uint256"}]}],"outputs":[],"stateMutability":"payable"},{"type":"function","name":"find_l2_batch","inputs":[{"name":"requestId","type":"uint256","internalType":"uint256"}],"outputs":[{"name":"","type":"bytes32","internalType":"bytes32"}],"stateMutability":"view"},{"type":"function","name":"getMerkleRootsLength","inputs":[],"outputs":[{"name":"","type":"uint256","internalType":"uint256"}],"stateMutability":"view"},{"type":"function","name":"getPendingRequests","inputs":[{"name":"start","type":"uint256","internalType":"uint256"},{"name":"end","type":"uint256","internalType":"uint256"}],"outputs":[{"name":"","type":"tuple","internalType":"struct IRolldownPrimitives.L1Update","components":[{"name":"chain","type":"uint8","internalType":"enum IRolldownPrimitives.ChainId"},{"name":"pendingDeposits","type":"tuple[]","internalType":"struct IRolldownPrimitives.Deposit[]","components":[{"name":"requestId","type":"tuple","internalType":"struct IRolldownPrimitives.RequestId","components":[{"name":"origin","type":"uint8","internalType":"enum IRolldownPrimitives.Origin"},{"name":"id","type":"uint256","internalType":"uint256"}]},{"name":"depositRecipient","type":"address","internalType":"address"},{"name":"tokenAddress","type":"address","internalType":"address"},{"name":"amount","type":"uint256","internalType":"uint256"},{"name":"timeStamp","type":"uint256","internalType":"uint256"},{"name":"ferryTip","type":"uint256","internalType":"uint256"}]},{"name":"pendingCancelResolutions","type":"tuple[]","internalType":"struct IRolldownPrimitives.CancelResolution[]","components":[{"name":"requestId","type":"tuple","internalType":"struct IRolldownPrimitives.RequestId","components":[{"name":"origin","type":"uint8","internalType":"enum IRolldownPrimitives.Origin"},{"name":"id","type":"uint256","internalType":"uint256"}]},{"name":"l2RequestId","type":"uint256","internalType":"uint256"},{"name":"cancelJustified","type":"bool","internalType":"bool"},{"name":"timeStamp","type":"uint256","internalType":"uint256"}]}]}],"stateMutability":"view"},{"type":"function","name":"getUpdateForL2","inputs":[],"outputs":[{"name":"","type":"tuple","internalType":"struct IRolldownPrimitives.L1Update","components":[{"name":"chain","type":"uint8","internalType":"enum IRolldownPrimitives.ChainId"},{"name":"pendingDeposits","type":"tuple[]","internalType":"struct IRolldownPrimitives.Deposit[]","components":[{"name":"requestId","type":"tuple","internalType":"struct IRolldownPrimitives.RequestId","components":[{"name":"origin","type":"uint8","internalType":"enum IRolldownPrimitives.Origin"},{"name":"id","type":"uint256","internalType":"uint256"}]},{"name":"depositRecipient","type":"address","internalType":"address"},{"name":"tokenAddress","type":"address","internalType":"address"},{"name":"amount","type":"uint256","internalType":"uint256"},{"name":"timeStamp","type":"uint256","internalType":"uint256"},{"name":"ferryTip","type":"uint256","internalType":"uint256"}]},{"name":"pendingCancelResolutions","type":"tuple[]","internalType":"struct IRolldownPrimitives.CancelResolution[]","components":[{"name":"requestId","type":"tuple","internalType":"struct IRolldownPrimitives.RequestId","components":[{"name":"origin","type":"uint8","internalType":"enum IRolldownPrimitives.Origin"},{"name":"id","type":"uint256","internalType":"uint256"}]},{"name":"l2RequestId","type":"uint256","internalType":"uint256"},{"name":"cancelJustified","type":"bool","internalType":"bool"},{"name":"timeStamp","type":"uint256","internalType":"uint256"}]}]}],"stateMutability":"view"},{"type":"function","name":"hashCancel","inputs":[{"name":"cancel","type":"tuple","internalType":"struct IRolldownPrimitives.Cancel","components":[{"name":"requestId","type":"tuple","internalType":"struct IRolldownPrimitives.RequestId","components":[{"name":"origin","type":"uint8","internalType":"enum IRolldownPrimitives.Origin"},{"name":"id","type":"uint256","internalType":"uint256"}]},{"name":"range","type":"tuple","internalType":"struct IRolldownPrimitives.Range","components":[{"name":"start","type":"uint256","internalType":"uint256"},{"name":"end","type":"uint256","internalType":"uint256"}]},{"name":"hash","type":"bytes32","internalType":"bytes32"}]}],"outputs":[{"name":"","type":"bytes32","internalType":"bytes32"}],"stateMutability":"pure"},{"type":"function","name":"hashFailedDepositResolution","inputs":[{"name":"failedDeposit","type":"tuple","internalType":"struct IRolldownPrimitives.FailedDepositResolution","components":[{"name":"requestId","type":"tuple","internalType":"struct IRolldownPrimitives.RequestId","components":[{"name":"origin","type":"uint8","internalType":"enum IRolldownPrimitives.Origin"},{"name":"id","type":"uint256","internalType":"uint256"}]},{"name":"originRequestId","type":"uint256","internalType":"uint256"},{"name":"ferry","type":"address","internalType":"address"}]}],"outputs":[{"name":"","type":"bytes32","internalType":"bytes32"}],"stateMutability":"pure"},{"type":"function","name":"hashWithdrawal","inputs":[{"name":"withdrawal","type":"tuple","internalType":"struct IRolldownPrimitives.Withdrawal","components":[{"name":"requestId","type":"tuple","internalType":"struct IRolldownPrimitives.RequestId","components":[{"name":"origin","type":"uint8","internalType":"enum IRolldownPrimitives.Origin"},{"name":"id","type":"uint256","internalType":"uint256"}]},{"name":"recipient","type":"address","internalType":"address"},{"name":"tokenAddress","type":"address","internalType":"address"},{"name":"amount","type":"uint256","internalType":"uint256"},{"name":"ferryTip","type":"uint256","internalType":"uint256"}]}],"outputs":[{"name":"","type":"bytes32","internalType":"bytes32"}],"stateMutability":"pure"},{"type":"function","name":"initialize","inputs":[{"name":"_pauserRegistry","type":"address","internalType":"contract IPauserRegistry"},{"name":"initialOwner","type":"address","internalType":"address"},{"name":"chainId","type":"uint8","internalType":"enum IRolldownPrimitives.ChainId"},{"name":"updater","type":"address","internalType":"address"}],"outputs":[],"stateMutability":"nonpayable"},{"type":"function","name":"lastProcessedUpdate_origin_l1","inputs":[],"outputs":[{"name":"","type":"uint256","internalType":"uint256"}],"stateMutability":"view"},{"type":"function","name":"lastProcessedUpdate_origin_l2","inputs":[],"outputs":[{"name":"","type":"uint256","internalType":"uint256"}],"stateMutability":"view"},{"type":"function","name":"merkleRootRange","inputs":[{"name":"","type":"bytes32","internalType":"bytes32"}],"outputs":[{"name":"start","type":"uint256","internalType":"uint256"},{"name":"end","type":"uint256","internalType":"uint256"}],"stateMutability":"view"},{"type":"function","name":"owner","inputs":[],"outputs":[{"name":"","type":"address","internalType":"address"}],"stateMutability":"view"},{"type":"function","name":"pause","inputs":[{"name":"newPausedStatus","type":"uint256","internalType":"uint256"}],"outputs":[],"stateMutability":"nonpayable"},{"type":"function","name":"pauseAll","inputs":[],"outputs":[],"stateMutability":"nonpayable"},{"type":"function","name":"paused","inputs":[{"name":"index","type":"uint8","internalType":"uint8"}],"outputs":[{"name":"","type":"bool","internalType":"bool"}],"stateMutability":"view"},{"type":"function","name":"paused","inputs":[],"outputs":[{"name":"","type":"uint256","internalType":"uint256"}],"stateMutability":"view"},{"type":"function","name":"pauserRegistry","inputs":[],"outputs":[{"name":"","type":"address","internalType":"contract IPauserRegistry"}],"stateMutability":"view"},{"type":"function","name":"processedL2Requests","inputs":[{"name":"","type":"bytes32","internalType":"bytes32"}],"outputs":[{"name":"","type":"address","internalType":"address"}],"stateMutability":"view"},{"type":"function","name":"renounceOwnership","inputs":[],"outputs":[],"stateMutability":"nonpayable"},{"type":"function","name":"roots","inputs":[{"name":"","type":"uint256","internalType":"uint256"}],"outputs":[{"name":"","type":"bytes32","internalType":"bytes32"}],"stateMutability":"view"},{"type":"function","name":"setPauserRegistry","inputs":[{"name":"newPauserRegistry","type":"address","internalType":"contract IPauserRegistry"}],"outputs":[],"stateMutability":"nonpayable"},{"type":"function","name":"setUpdater","inputs":[{"name":"updater","type":"address","internalType":"address"}],"outputs":[],"stateMutability":"nonpayable"},{"type":"function","name":"transferOwnership","inputs":[{"name":"newOwner","type":"address","internalType":"address"}],"outputs":[],"stateMutability":"nonpayable"},{"type":"function","name":"unpause","inputs":[{"name":"newPausedStatus","type":"uint256","internalType":"uint256"}],"outputs":[],"stateMutability":"nonpayable"},{"type":"function","name":"update_l1_from_l2","inputs":[{"name":"merkle_root","type":"bytes32","internalType":"bytes32"},{"name":"range","type":"tuple","internalType":"struct IRolldownPrimitives.Range","components":[{"name":"start","type":"uint256","internalType":"uint256"},{"name":"end","type":"uint256","internalType":"uint256"}]}],"outputs":[],"stateMutability":"nonpayable"},{"type":"function","name":"updaterAccount","inputs":[],"outputs":[{"name":"","type":"address","internalType":"address"}],"stateMutability":"view"},{"type":"event","name":"DepositAcceptedIntoQueue","inputs":[{"name":"requestId","type":"uint256","indexed":false,"internalType":"uint256"},{"name":"depositRecipient","type":"address","indexed":false,"internalType":"address"},{"name":"tokenAddress","type":"address","indexed":false,"internalType":"address"},{"name":"amount","type":"uint256","indexed":false,"internalType":"uint256"},{"name":"ferryTip","type":"uint256","indexed":false,"internalType":"uint256"}],"anonymous":false},{"type":"event","name":"DisputeResolutionAcceptedIntoQueue","inputs":[{"name":"requestId","type":"uint256","indexed":false,"internalType":"uint256"},{"name":"cancelJustified","type":"bool","indexed":false,"internalType":"bool"},{"name":"cancelResolutionHash","type":"bytes32","indexed":false,"internalType":"bytes32"}],"anonymous":false},{"type":"event","name":"ERC20TokensWithdrawn","inputs":[{"name":"sender","type":"address","indexed":false,"internalType":"address"},{"name":"token_address","type":"address","indexed":false,"internalType":"address"},{"name":"amount","type":"uint256","indexed":false,"internalType":"uint256"}],"anonymous":false},{"type":"event","name":"FailedDepositResolutionClosed","inputs":[{"name":"requestId","type":"uint256","indexed":false,"internalType":"uint256"},{"name":"originDepositId","type":"uint256","indexed":false,"internalType":"uint256"},{"name":"failedDespotiResolutionHash","type":"bytes32","indexed":false,"internalType":"bytes32"}],"anonymous":false},{"type":"event","name":"FerriedWithdrawalClosed","inputs":[{"name":"requestId","type":"uint256","indexed":false,"internalType":"uint256"},{"name":"withdrawalHash","type":"bytes32","indexed":false,"internalType":"bytes32"}],"anonymous":false},{"type":"event","name":"Initialized","inputs":[{"name":"version","type":"uint8","indexed":false,"internalType":"uint8"}],"anonymous":false},{"type":"event","name":"L2UpdateAccepted","inputs":[{"name":"root","type":"bytes32","indexed":false,"internalType":"bytes32"},{"name":"range","type":"tuple","indexed":false,"internalType":"struct IRolldownPrimitives.Range","components":[{"name":"start","type":"uint256","internalType":"uint256"},{"name":"end","type":"uint256","internalType":"uint256"}]}],"anonymous":false},{"type":"event","name":"NativeTokensWithdrawn","inputs":[{"name":"sender","type":"address","indexed":false,"internalType":"address"},{"name":"amount","type":"uint256","indexed":false,"internalType":"uint256"}],"anonymous":false},{"type":"event","name":"NewUpdaterSet","inputs":[{"name":"updater","type":"address","indexed":false,"internalType":"address"}],"anonymous":false},{"type":"event","name":"OwnershipTransferred","inputs":[{"name":"previousOwner","type":"address","indexed":true,"internalType":"address"},{"name":"newOwner","type":"address","indexed":true,"internalType":"address"}],"anonymous":false},{"type":"event","name":"Paused","inputs":[{"name":"account","type":"address","indexed":true,"internalType":"address"},{"name":"newPausedStatus","type":"uint256","indexed":false,"internalType":"uint256"}],"anonymous":false},{"type":"event","name":"PauserRegistrySet","inputs":[{"name":"pauserRegistry","type":"address","indexed":false,"internalType":"contract IPauserRegistry"},{"name":"newPauserRegistry","type":"address","indexed":false,"internalType":"contract IPauserRegistry"}],"anonymous":false},{"type":"event","name":"Unpaused","inputs":[{"name":"account","type":"address","indexed":true,"internalType":"address"},{"name":"newPausedStatus","type":"uint256","indexed":false,"internalType":"uint256"}],"anonymous":false},{"type":"event","name":"WithdrawalClosed","inputs":[{"name":"requestId","type":"uint256","indexed":false,"internalType":"uint256"},{"name":"withdrawalHash","type":"bytes32","indexed":false,"internalType":"bytes32"}],"anonymous":false},{"type":"event","name":"WithdrawalFerried","inputs":[{"name":"requestId","type":"uint256","indexed":false,"internalType":"uint256"},{"name":"amount","type":"uint256","indexed":false,"internalType":"uint256"},{"name":"recipient","type":"address","indexed":false,"internalType":"address"},{"name":"ferry","type":"address","indexed":false,"internalType":"address"},{"name":"withdrawalHash","type":"bytes32","indexed":false,"internalType":"bytes32"}],"anonymous":false}],"bytecode":{"object":"0x608060405234801561001057600080fd5b50600160d255613fff806100256000396000f3fe6080604052600436106102675760003560e01c8063950ac48711610144578063d16544f0116100b6578063f26ee9d01161007a578063f26ee9d014610738578063f2fde38b1461074e578063f9ecd01e1461076e578063fabc1cbc1461078e578063ff2bae86146107ae578063ffea632b146107c357600080fd5b8063d16544f014610366578063de70e0b8146106ba578063df2ebdbb146106f0578063dffbdd9f14610705578063ef0ba5d01461071857600080fd5b8063b153870611610108578063b153870614610606578063c2b40ae41461061b578063c763e5a11461063b578063c87c222414610662578063ca9b21ae1461066a578063cc8c909f1461069a57600080fd5b8063950ac487146105545780639d54f41914610574578063ae46db1114610594578063af26c695146105b4578063b02c43d0146105d457600080fd5b8063595c6a67116101dd57806371c54461116101a157806371c544611461048e57806379e041f2146104b35780637fd4f845146104e0578063886f1195146104f6578063890e95ce146105165780638da5cb5b1461053657600080fd5b8063595c6a67146103ef5780635ac86ab7146104045780635c975abb1461044457806361bc221a14610463578063715018a61461047957600080fd5b80630efe6a8b1161022f5780630efe6a8b1461028e57806310d67a2f14610326578063136439dd1461034657806347e7ef24146103665780634bf5fec3146103865780634f48eedf146103a657600080fd5b806301ef69661461026c57806308aba1b21461028e57806308f42d40146102ae5780630cac57ab146102ce5780630e2636a3146102e1575b600080fd5b34801561027857600080fd5b5061028c6102873660046134e9565b6107e3565b005b34801561029a57600080fd5b5061028c6102a9366004613559565b610898565b3480156102ba57600080fd5b5061028c6102c936600461358e565b6108f4565b61028c6102dc3660046135d8565b610b47565b3480156102ed57600080fd5b5061030973111111111111111111111111111111111111111181565b6040516001600160a01b0390911681526020015b60405180910390f35b34801561033257600080fd5b5061028c6103413660046135f4565b610f52565b34801561035257600080fd5b5061028c610361366004613611565b611005565b34801561037257600080fd5b5061028c61038136600461362a565b611144565b34801561039257600080fd5b5061028c6103a1366004613656565b6111a0565b3480156103b257600080fd5b506103da6103c1366004613611565b609d602052600090815260409020805460019091015482565b6040805192835260208301919091520161031d565b3480156103fb57600080fd5b5061028c6113f0565b34801561041057600080fd5b5061043461041f36600461369a565b606654600160ff9092169190911b9081161490565b604051901515815260200161031d565b34801561045057600080fd5b506066545b60405190815260200161031d565b34801561046f57600080fd5b5061045560975481565b34801561048557600080fd5b5061028c6114b7565b34801561049a57600080fd5b50609a546103099061010090046001600160a01b031681565b3480156104bf57600080fd5b506104d36104ce3660046136bd565b6114cb565b60405161031d9190613785565b3480156104ec57600080fd5b5061045560985481565b34801561050257600080fd5b50606554610309906001600160a01b031681565b34801561052257600080fd5b506104556105313660046135d8565b6118e5565b34801561054257600080fd5b506033546001600160a01b0316610309565b34801561056057600080fd5b5061028c61056f36600461385a565b611953565b34801561058057600080fd5b5061028c61058f3660046135f4565b6119c2565b3480156105a057600080fd5b506104556105af36600461389d565b611a49565b3480156105c057600080fd5b506104556105cf3660046138d2565b611a7d565b3480156105e057600080fd5b506105f46105ef366004613611565b611ace565b60405161031d96959493929190613941565b34801561061257600080fd5b506104d3611b55565b34801561062757600080fd5b50610455610636366004613611565b611ba0565b34801561064757600080fd5b50609a546106559060ff1681565b60405161031d9190613983565b61028c611bc1565b34801561067657600080fd5b5061068a610685366004613611565b611c19565b60405161031d9493929190613996565b3480156106a657600080fd5b506104556106b53660046139bf565b611c8b565b3480156106c657600080fd5b506103096106d5366004613611565b609e602052600090815260409020546001600160a01b031681565b3480156106fc57600080fd5b50610309600181565b61028c610713366004613611565b611cbf565b34801561072457600080fd5b506104556107333660046139db565b611d17565b34801561074457600080fd5b5061045560995481565b34801561075a57600080fd5b5061028c6107693660046135f4565b611e50565b34801561077a57600080fd5b50610455610789366004613611565b611ec6565b34801561079a57600080fd5b5061028c6107a9366004613611565b612038565b3480156107ba57600080fd5b50609f54610455565b3480156107cf57600080fd5b5061028c6107de366004613a78565b612194565b6066541561080c5760405162461bcd60e51b815260040161080390613ad4565b60405180910390fd5b600260d2540361082e5760405162461bcd60e51b815260040161080390613b0b565b600260d255600061083e85611c8b565b905061085160208601358286868661230d565b61085b85826125a0565b6000908152609e6020526040902080546001600160a01b0319167311111111111111111111111111111111111111111790555050600160d2555050565b606654156108b85760405162461bcd60e51b815260040161080390613ad4565b600260d254036108da5760405162461bcd60e51b815260040161080390613b0b565b600260d2556108ea838383612724565b5050600160d25550565b606654156109145760405162461bcd60e51b815260040161080390613ad4565b609a5461010090046001600160a01b031633146109635760405162461bcd60e51b815260206004820152600d60248201526c2737ba103a34329037bbb732b960991b6044820152606401610803565b6099548160200135116109b85760405162461bcd60e51b815260206004820152601960248201527f557064617465206272696e6773206e6f206e65772064617461000000000000006044820152606401610803565b8035610a065760405162461bcd60e51b815260206004820152601f60248201527f72616e6765206964206d7573742062652067726561746572207468616e2030006044820152606401610803565b609954610a1560018335613b58565b1115610a635760405162461bcd60e51b815260206004820152601760248201527f50726576696f757320757064617465206d697373696e670000000000000000006044820152606401610803565b803560208201351015610aa85760405162461bcd60e51b815260206004820152600d60248201526c496e76616c69642072616e676560981b6044820152606401610803565b609f8054600181019091557f0bc14066c33013fe88f66e314e4cf150b0b2d4d6451a1a51dbbd1c27cd11de28018290556000828152609d602052604090208190610aff828281358155602082013560018201555050565b505060208101356099556040517f49c158d490db9e066f01b5d4f1a094485a6598cb6c5296b4c07e46c12a1dc11c90610b3b9084908490613b6f565b60405180910390a15050565b60665415610b675760405162461bcd60e51b815260040161080390613ad4565b600260d25403610b895760405162461bcd60e51b815260040161080390613b0b565b600260d255608081013560a08201351115610bb65760405162461bcd60e51b815260040161080390613b8d565b6000610bca60a08301356080840135613b58565b90506000610bd7836118e5565b6000818152609e60205260409020549091506001600160a01b031615610c315760405162461bcd60e51b815260206004820152600f60248201526e105b1c9958591e4819995c9c9a5959608a1b6044820152606401610803565b6000818152609e6020526040902080546001600160a01b031916331790556001610c6160808501606086016135f4565b6001600160a01b031603610df65760003411610cb75760405162461bcd60e51b815260206004820152601560248201527413985d1a5d99481d1bdad95b881b9bdd081cd95b9d605a1b6044820152606401610803565b813414610d3d5760405162461bcd60e51b815260206004820152604860248201527f53656e7420616d6f756e742073686f756c642065786163746c79206d6174636860448201527f207769746864726177616c2e616d6f756e74202d207769746864726177616c2e606482015267066657272795469760c41b608482015260a401610803565b610d4d60608401604085016135f4565b6001600160a01b03166108fc839081150290604051600060405180830381858888f19350505050158015610d85573d6000803e3d6000fd5b507f7a9abd9eb86bdbca89cba4069a632c37d93db82e3e14ad8119a3a7812814853e602084013583610dbd60608701604088016135f4565b6040805193845260208401929092526001600160a01b0316908201523360608201526080810183905260a00160405180910390a16108ea565b6000610e0860808501606086016135f4565b6040516370a0823160e01b815233600482015290915083906001600160a01b038316906370a0823190602401602060405180830381865afa158015610e51573d6000803e3d6000fd5b505050506040513d601f19601f82011682018060405250810190610e759190613bc4565b1015610eb65760405162461bcd60e51b815260206004820152601060248201526f4e6f7420656e6f7567682066756e647360801b6044820152606401610803565b610edc33610eca60608701604088016135f4565b6001600160a01b03841691908661293a565b7f7a9abd9eb86bdbca89cba4069a632c37d93db82e3e14ad8119a3a7812814853e602085013584610f1360608801604089016135f4565b6040805193845260208401929092526001600160a01b0316908201523360608201526080810184905260a00160405180910390a1505050600160d25550565b606560009054906101000a90046001600160a01b03166001600160a01b031663eab66d7a6040518163ffffffff1660e01b8152600401602060405180830381865afa158015610fa5573d6000803e3d6000fd5b505050506040513d601f19601f82011682018060405250810190610fc99190613bdd565b6001600160a01b0316336001600160a01b031614610ff95760405162461bcd60e51b815260040161080390613bfa565b611002816129ab565b50565b60655460405163237dfb4760e11b81523360048201526001600160a01b03909116906346fbf68e90602401602060405180830381865afa15801561104d573d6000803e3d6000fd5b505050506040513d601f19601f820116820180604052508101906110719190613c44565b61108d5760405162461bcd60e51b815260040161080390613c66565b606654818116146111065760405162461bcd60e51b815260206004820152603860248201527f5061757361626c652e70617573653a20696e76616c696420617474656d70742060448201527f746f20756e70617573652066756e6374696f6e616c69747900000000000000006064820152608401610803565b606681905560405181815233907fab40a374bc51de372200a8bc981af8c9ecdc08dfdaef0bb6e09f88f3c616ef3d906020015b60405180910390a250565b606654156111645760405162461bcd60e51b815260040161080390613ad4565b600260d254036111865760405162461bcd60e51b815260040161080390613b0b565b600260d25561119782826000612724565b5050600160d255565b606654156111c05760405162461bcd60e51b815260040161080390613ad4565b600260d254036111e25760405162461bcd60e51b815260040161080390613b0b565b600260d25560006111f2856118e5565b905061120560208601358286868661230d565b6000818152609e6020526040902080546001600160a01b03198116731111111111111111111111111111111111111111179091556001600160a01b03168015158061135457600161125c6080890160608a016135f4565b6001600160a01b0316036112b15761129461127d6060890160408a016135f4565b61128f60a08a013560808b0135613b58565b612aa2565b60a0870135156112ac576112ac338860a00135612aa2565b611313565b6112eb6112c46060890160408a016135f4565b6112d460808a0160608b016135f4565b6112e660a08b013560808c0135613b58565b612b63565b60a087013515611313576113133361130960808a0160608b016135f4565b8960a00135612b63565b60408051602089810135825281018590527f935f26d94be31907080aa78b3e6e2ac6d48a072af096c20268388621bbc11789910160405180910390a16113e2565b60016113666080890160608a016135f4565b6001600160a01b03160361138757611382828860800135612aa2565b6113a5565b6113a58261139b60808a0160608b016135f4565b8960800135612b63565b60408051602089810135825281018590527f2996fd546c37d74c170466ea6aa4a308e3ca2d4aa689e6e9e32994db5039cc0e910160405180910390a15b5050600160d2555050505050565b60655460405163237dfb4760e11b81523360048201526001600160a01b03909116906346fbf68e90602401602060405180830381865afa158015611438573d6000803e3d6000fd5b505050506040513d601f19601f8201168201806040525081019061145c9190613c44565b6114785760405162461bcd60e51b815260040161080390613c66565b600019606681905560405190815233907fab40a374bc51de372200a8bc981af8c9ecdc08dfdaef0bb6e09f88f3c616ef3d9060200160405180910390a2565b6114bf612ca2565b6114c96000612cfc565b565b6114f06040805160608101909152806000815260200160608152602001606081525090565b6115156040805160608101909152806000815260200160608152602001606081525090565b609a54819060ff16600181111561152e5761152e6136df565b90816001811115611541576115416136df565b90525060008085158015611553575084155b15611563578293505050506118df565b855b858111611608576000818152609c602052604090206001015415611595578261158d81613cae565b9350506115f6565b6000818152609b6020526040902060010154156115be57816115b681613cae565b9250506115f6565b60405162461bcd60e51b815260206004820152600d60248201526c496e76616c69642072616e676560981b6044820152606401610803565b8061160081613cae565b915050611565565b508167ffffffffffffffff81111561162257611622613cc7565b60405190808252806020026020018201604052801561169057816020015b6040805161010081018252600060c0820181815260e0830182905282526020808301829052928201819052606082018190526080820181905260a082015282526000199092019101816116405790505b5060208401528067ffffffffffffffff8111156116af576116af613cc7565b60405190808252806020026020018201604052801561170e57816020015b6040805160c08101825260006080820181815260a0830182905282526020808301829052928201819052606082015282526000199092019101816116cd5790505b506040840152506000905080855b8581116118d8576000818152609c602052604090206001015415611806576000818152609c602052604090819020815161010081019092528054829060c08201908390829060ff166001811115611775576117756136df565b6001811115611786576117866136df565b81526001919091015460209182015290825260028301546001600160a01b03908116838301526003840154166040830152600483015460608301526005830154608083015260069092015460a090910152850151846117e481613cae565b9550815181106117f6576117f6613cdd565b60200260200101819052506118c6565b6000818152609b6020526040902060020154156118c1576000818152609b602052604090819020815160c081019092528054829060808201908390829060ff166001811115611857576118576136df565b6001811115611868576118686136df565b815260019190910154602091820152908252600283015490820152600382015460ff161515604080830191909152600490920154606090910152850151836118af81613cae565b9450815181106117f6576117f6613cdd565b6118d8565b806118d081613cae565b91505061171c565b5091925050505b92915050565b6000806040516020016118f89190613cf3565b604051602081830303815290604052826040516020016119189190613d28565b60408051601f19818403018152908290526119369291602001613db0565b604051602081830303815290604052805190602001209050919050565b606654156119735760405162461bcd60e51b815260040161080390613ad4565b600260d254036119955760405162461bcd60e51b815260040161080390613b0b565b600260d25560006119a585611a49565b90506119b860208601358286868661230d565b61085b8582612d4e565b6119ca612ca2565b606654156119ea5760405162461bcd60e51b815260040161080390613ad4565b609a8054610100600160a81b0319166101006001600160a01b038481168202929092179283905560405192041681527f1b0f2f500df596b42b73e80dbec6a1fb570f01978a586723f988a5fc54d773a19060200160405180910390a150565b60006002604051602001611a5d9190613cf3565b604051602081830303815290604052826040516020016119189190613ddf565b600080825b63ffffffff811615611aad57611a99600282613e33565b9050611aa6600183613e56565b9150611a82565b611ac282888a8989600061073360018c613e75565b98975050505050505050565b609c6020526000908152604090819020815180830190925280549091908290829060ff166001811115611b0357611b036136df565b6001811115611b1457611b146136df565b815260019190910154602090910152600282015460038301546004840154600585015460069095015493946001600160a01b03938416949290931692909186565b611b7a6040805160608101909152806000815260200160608152602001606081525090565b611b9b6098546001611b8c9190613e9a565b60016097546104ce9190613b58565b905090565b609f8181548110611bb057600080fd5b600091825260209091200154905081565b600260d25403611be35760405162461bcd60e51b815260040161080390613b0b565b600260d25560665415611c085760405162461bcd60e51b815260040161080390613ad4565b611c126000612e33565b600160d255565b609b6020526000908152604090819020815180830190925280549091908290829060ff166001811115611c4e57611c4e6136df565b6001811115611c5f57611c5f6136df565b815260019190910154602090910152600282015460038301546004909301549192909160ff9091169084565b60006001604051602001611c9f9190613cf3565b604051602081830303815290604052826040516020016119189190613eb2565b600260d25403611ce15760405162461bcd60e51b815260040161080390613b0b565b600260d25560665415611d065760405162461bcd60e51b815260040161080390613ad4565b611d0f81612e33565b50600160d255565b6000611d24600288613ee8565b63ffffffff16600003611da7578163ffffffff168763ffffffff160315611e055785858585611d5281613f0b565b965063ffffffff16818110611d6957611d69613cdd565b90506020020135604051602001611d8a929190918252602082015260400190565b604051602081830303815290604052805190602001209550611e05565b848484611db381613f0b565b955063ffffffff16818110611dca57611dca613cdd565b9050602002013586604051602001611dec929190918252602082015260400190565b6040516020818303038152906040528051906020012095505b8763ffffffff16600103611e1a575084611e45565b611e42611e2860018a613e75565b611e3360028a613e33565b8888888861073360028a613e33565b90505b979650505050505050565b611e58612ca2565b6001600160a01b038116611ebd5760405162461bcd60e51b815260206004820152602660248201527f4f776e61626c653a206e6577206f776e657220697320746865207a65726f206160448201526564647265737360d01b6064820152608401610803565b61100281612cfc565b6000609954821115611f0f5760405162461bcd60e51b8152602060048201526012602482015271125b9d985b1a59081c995c5d595cdd081a5960721b6044820152606401610803565b609f54600003611f705760405162461bcd60e51b815260206004820152602660248201527f746865726520617265206e6f20726f6f747320796574206f6e2074686520636f6044820152651b9d1c9858dd60d21b6064820152608401610803565b609f54600090611f8290600190613b58565b90505b609d6000609f8381548110611f9c57611f9c613cdd565b90600052602060002001548152602001908152602001600020600001548310158015611ffb5750609d6000609f8381548110611fda57611fda613cdd565b90600052602060002001548152602001908152602001600020600101548311155b1561202657609f818154811061201357612013613cdd565b9060005260206000200154915050919050565b8061203081613f2e565b915050611f85565b606560009054906101000a90046001600160a01b03166001600160a01b031663eab66d7a6040518163ffffffff1660e01b8152600401602060405180830381865afa15801561208b573d6000803e3d6000fd5b505050506040513d601f19601f820116820180604052508101906120af9190613bdd565b6001600160a01b0316336001600160a01b0316146120df5760405162461bcd60e51b815260040161080390613bfa565b60665419811960665419161461215d5760405162461bcd60e51b815260206004820152603860248201527f5061757361626c652e756e70617573653a20696e76616c696420617474656d7060448201527f7420746f2070617573652066756e6374696f6e616c69747900000000000000006064820152608401610803565b606681905560405181815233907f3582d1828e26bf56bd801502bc021ac0bc8afb57c826e4986b45593c8fad389c90602001611139565b600054610100900460ff16158080156121b45750600054600160ff909116105b806121ce5750303b1580156121ce575060005460ff166001145b6122315760405162461bcd60e51b815260206004820152602e60248201527f496e697469616c697a61626c653a20636f6e747261637420697320616c72656160448201526d191e481a5b9a5d1a585b1a5e995960921b6064820152608401610803565b6000805460ff191660011790558015612254576000805461ff0019166101001790555b61225f85600061300c565b61226884612cfc565b6000609881905560016097819055609991909155609a8054859260ff1990911690838181111561229a5761229a6136df565b0217905550609a8054610100600160a81b0319166101006001600160a01b038516021790558015612306576000805461ff0019169055604051600181527f7f26b83ff96e1f2b6a682f133852f6798a09c465da95921460cefb3847402498906020015b60405180910390a15b5050505050565b6000838152609d602090815260409182902082518084019093528054808452600190910154918301919091521580159061234a5750602081015115155b61238c5760405162461bcd60e51b8152602060048201526013602482015272155b9adb9bdddb881b595c9adb19481c9bdbdd606a1b6044820152606401610803565b6000858152609e60205260409020546001600160a01b031673111111111111111111111111111111111111111019016123fb5760405162461bcd60e51b8152602060048201526011602482015270105b1c9958591e481c1c9bd8d95cdcd959607a1b6044820152606401610803565b80516020820151101561245b5760405162461bcd60e51b815260206004820152602260248201527f496e76616c696420726571756573742072616e67652c20656e64203c207374616044820152611c9d60f21b6064820152608401610803565b805186108061246d5750806020015186115b156124ba5760405162461bcd60e51b815260206004820152601b60248201527f52657175657374206964206f757473696465206f662072616e676500000000006044820152606401610803565b8051602082015163ffffffff916124d091613b58565b6124db906001613e9a565b11156125195760405162461bcd60e51b815260206004820152600d60248201526c52616e676520746f6f2062696760981b6044820152606401610803565b8051602082015160009161252c91613b58565b612537906001613e9a565b82519091506000906125499089613b58565b9050856125598883888887611a7d565b146125965760405162461bcd60e51b815260206004820152600d60248201526c24b73b30b634b210383937b7b360991b6044820152606401610803565b5050505050505050565b600060016097546125b19190613b58565b606084013511156125c457506001612611565b60006125d8604085013560608601356114cb565b90506000816040516020016125ed9190613785565b60408051601f19818403018152919052805160209091012060808601351415925050505b6040805160c0810190915242906000908060808101808481526020016097600081548092919061264090613cae565b909155509052815260208781013581830152851515604080840191909152606090920185905282518101516000908152609b909152208151805182549394508493839190829060ff19166001838181111561269d5761269d6136df565b02179055506020918201516001919091015582810151600283015560408084015160038401805460ff1916911515919091179055606093840151600490930192909255838101518483015183519182521515918101919091529081018690527f9ef11353afd97d339a77732850b7c22704656558d9ba63cc7e321e0ac4c20aa991016122fd565b818111156127445760405162461bcd60e51b815260040161080390613b8d565b6001600160a01b0383166127925760405162461bcd60e51b8152602060048201526015602482015274496e76616c696420746f6b656e206164647265737360581b6044820152606401610803565b600082116127b25760405162461bcd60e51b815260040161080390613f45565b33836127c96001600160a01b03821683308761293a565b60408051610100810190915242906000908060c0810180848152602001609760008154809291906127f990613cae565b90915550905281526001600160a01b03808716602080840191909152908a16604080840191909152606083018a90526080830186905260a090920188905282518101516000908152609c909152208151805182549394508493839190829060ff19166001838181111561286e5761286e6136df565b021790555060209182015160019190910155828101516002830180546001600160a01b03199081166001600160a01b0393841617909155604080860151600386018054909316908416179091556060808601516004860155608080870151600587015560a096870151600690960195909555865184015182519081528a841694810194909452918c169083015281018990529081018790527f225305ecb66fa9b9b29f8dead9baea365a6c225d639dfd866e782ccb63e2f05b910160405180910390a150505050505050565b6040516001600160a01b03808516602483015283166044820152606481018290526129a59085906323b872dd60e01b906084015b60408051601f198184030181529190526020810180516001600160e01b03166001600160e01b0319909316929092179091526130f2565b50505050565b6001600160a01b038116612a395760405162461bcd60e51b815260206004820152604960248201527f5061757361626c652e5f73657450617573657252656769737472793a206e657760448201527f50617573657252656769737472792063616e6e6f7420626520746865207a65726064820152686f206164647265737360b81b608482015260a401610803565b606554604080516001600160a01b03928316815291831660208301527f6e9fcd539896fca60e8b0f01dd580233e48a6b0f7df013b89ba7f565869acdb6910160405180910390a1606580546001600160a01b0319166001600160a01b0392909216919091179055565b3031811115612af35760405162461bcd60e51b815260206004820152601c60248201527f4e6f7420656e6f7567682066756e647320696e20636f6e7472616374000000006044820152606401610803565b60008111612b135760405162461bcd60e51b815260040161080390613f45565b604080516001600160a01b0384168152602081018390527fe0495355c1e04c512584521854d222d239a4b782b39ac8a7e835a34f5ec7c1e1910160405180910390a1612b5f82826131c9565b5050565b6040516370a0823160e01b8152306004820152829082906001600160a01b038316906370a0823190602401602060405180830381865afa158015612bab573d6000803e3d6000fd5b505050506040513d601f19601f82011682018060405250810190612bcf9190613bc4565b1015612c1d5760405162461bcd60e51b815260206004820152601c60248201527f4e6f7420656e6f7567682066756e647320696e20636f6e7472616374000000006044820152606401610803565b60008211612c3d5760405162461bcd60e51b815260040161080390613f45565b612c516001600160a01b03821685846132e2565b604080516001600160a01b038087168252851660208201529081018390527ee763f7778b8ceef7270c89b7d1df1008b0e482da39c43831417733af96fb0d906060015b60405180910390a150505050565b6033546001600160a01b031633146114c95760405162461bcd60e51b815260206004820181905260248201527f4f776e61626c653a2063616c6c6572206973206e6f7420746865206f776e65726044820152606401610803565b603380546001600160a01b038381166001600160a01b0319831681179093556040519116919082907f8be0079c531659141344cd1fd0a4f28419497f9722a3daafe3b4186f6b6457e090600090a35050565b6040808301356000908152609c602052908120600281015490916001600160a01b0390911690612d8460808601606087016135f4565b6001600160a01b031614612da557612da260808501606086016135f4565b90505b60038201546001600160a01b031660001901612dce57612dc9818360040154612aa2565b612def565b60038201546004830154612def9183916001600160a01b0390911690612b63565b60408051602086810135825286830135908201529081018490527f13750c731f87c15242874ce74bf4649502cc8e7c829067ce846505acdb96289d90606001612c94565b34811115612e535760405162461bcd60e51b815260040161080390613b8d565b60003411612ea35760405162461bcd60e51b815260206004820181905260248201527f6d73672076616c7565206d7573742062652067726561746572207468617420306044820152606401610803565b6040805161010081019091523390349042906000908060c081018084815260200160976000815480929190612ed790613cae565b90915550905281526001600160a01b03861660208083019190915260016040808401829052606084018890526080840187905260a090930189905283518201516000908152609c9092529190208251805182549495508594929391928492839160ff1916908381811115612f4d57612f4d6136df565b0217905550602091820151600191820155838201516002840180546001600160a01b03199081166001600160a01b0393841617909155604080870151600387018054909316908416179091556060808701516004870155608080880151600588015560a09788015160069097019690965587518501518251908152928b16948301949094528101919091529081018690529081018790527f225305ecb66fa9b9b29f8dead9baea365a6c225d639dfd866e782ccb63e2f05b91016122fd565b6065546001600160a01b031615801561302d57506001600160a01b03821615155b6130af5760405162461bcd60e51b815260206004820152604760248201527f5061757361626c652e5f696e697469616c697a655061757365723a205f696e6960448201527f7469616c697a6550617573657228292063616e206f6e6c792062652063616c6c6064820152666564206f6e636560c81b608482015260a401610803565b606681905560405181815233907fab40a374bc51de372200a8bc981af8c9ecdc08dfdaef0bb6e09f88f3c616ef3d9060200160405180910390a2612b5f826129ab565b6000613147826040518060400160405280602081526020017f5361666545524332303a206c6f772d6c6576656c2063616c6c206661696c6564815250856001600160a01b03166133129092919063ffffffff16565b8051909150156131c457808060200190518101906131659190613c44565b6131c45760405162461bcd60e51b815260206004820152602a60248201527f5361666545524332303a204552433230206f7065726174696f6e20646964206e6044820152691bdd081cdd58d8d9595960b21b6064820152608401610803565b505050565b804710156132195760405162461bcd60e51b815260206004820152601d60248201527f416464726573733a20696e73756666696369656e742062616c616e63650000006044820152606401610803565b6000826001600160a01b03168260405160006040518083038185875af1925050503d8060008114613266576040519150601f19603f3d011682016040523d82523d6000602084013e61326b565b606091505b50509050806131c45760405162461bcd60e51b815260206004820152603a60248201527f416464726573733a20756e61626c6520746f2073656e642076616c75652c207260448201527f6563697069656e74206d617920686176652072657665727465640000000000006064820152608401610803565b6040516001600160a01b0383166024820152604481018290526131c490849063a9059cbb60e01b9060640161296e565b6060613321848460008561332b565b90505b9392505050565b60608247101561338c5760405162461bcd60e51b815260206004820152602660248201527f416464726573733a20696e73756666696369656e742062616c616e636520666f6044820152651c8818d85b1b60d21b6064820152608401610803565b6001600160a01b0385163b6133e35760405162461bcd60e51b815260206004820152601d60248201527f416464726573733a2063616c6c20746f206e6f6e2d636f6e74726163740000006044820152606401610803565b600080866001600160a01b031685876040516133ff9190613f7a565b60006040518083038185875af1925050503d806000811461343c576040519150601f19603f3d011682016040523d82523d6000602084013e613441565b606091505b5091509150611e458282866060831561345b575081613324565b82511561346b5782518084602001fd5b8160405162461bcd60e51b81526004016108039190613f96565b600060a0828403121561349757600080fd5b50919050565b60008083601f8401126134af57600080fd5b50813567ffffffffffffffff8111156134c757600080fd5b6020830191508360208260051b85010111156134e257600080fd5b9250929050565b60008060008060e085870312156134ff57600080fd5b6135098686613485565b935060a0850135925060c085013567ffffffffffffffff81111561352c57600080fd5b6135388782880161349d565b95989497509550505050565b6001600160a01b038116811461100257600080fd5b60008060006060848603121561356e57600080fd5b833561357981613544565b95602085013595506040909401359392505050565b60008082840360608112156135a257600080fd5b833592506040601f19820112156135b857600080fd5b506020830190509250929050565b600060c0828403121561349757600080fd5b600060c082840312156135ea57600080fd5b61332483836135c6565b60006020828403121561360657600080fd5b813561332481613544565b60006020828403121561362357600080fd5b5035919050565b6000806040838503121561363d57600080fd5b823561364881613544565b946020939093013593505050565b600080600080610100858703121561366d57600080fd5b61367786866135c6565b935060c0850135925060e085013567ffffffffffffffff81111561352c57600080fd5b6000602082840312156136ac57600080fd5b813560ff8116811461332457600080fd5b600080604083850312156136d057600080fd5b50508035926020909101359150565b634e487b7160e01b600052602160045260246000fd5b60028110611002576110026136df565b8051613710816136f5565b8252602090810151910152565b600081518084526020808501945080840160005b8381101561377a578151613746888251613705565b8084015160408981019190915281015115156060808a01919091520151608088015260a09096019590820190600101613731565b509495945050505050565b600060208083526080808401855161379c816136f5565b85840152858301516060604080880182905282519384905260a093928601928489019060005b8181101561381d5785516137d7848251613705565b808a01516001600160a01b03908116858701528582015116868501528581015189850152888101518885015287015160c08401529488019460e0909201916001016137c2565b505089820151898203601f1901848b0152965061383a818861371d565b9a9950505050505050505050565b60006080828403121561349757600080fd5b60008060008060c0858703121561387057600080fd5b61387a8686613848565b93506080850135925060a085013567ffffffffffffffff81111561352c57600080fd5b6000608082840312156138af57600080fd5b6133248383613848565b803563ffffffff811681146138cd57600080fd5b919050565b6000806000806000608086880312156138ea57600080fd5b853594506138fa602087016138b9565b9350604086013567ffffffffffffffff81111561391657600080fd5b6139228882890161349d565b90945092506139359050606087016138b9565b90509295509295909350565b60e0810161394f8289613705565b6001600160a01b039687166040830152949095166060860152608085019290925260a084015260c090920191909152919050565b60208101613990836136f5565b91905290565b60a081016139a48287613705565b60408201949094529115156060830152608090910152919050565b600060a082840312156139d157600080fd5b6133248383613485565b600080600080600080600060c0888a0312156139f657600080fd5b6139ff886138b9565b9650613a0d602089016138b9565b955060408801359450606088013567ffffffffffffffff811115613a3057600080fd5b613a3c8a828b0161349d565b9095509350613a4f9050608089016138b9565b9150613a5d60a089016138b9565b905092959891949750929550565b6002811061100257600080fd5b60008060008060808587031215613a8e57600080fd5b8435613a9981613544565b93506020850135613aa981613544565b92506040850135613ab981613a6b565b91506060850135613ac981613544565b939692955090935050565b6020808252601c908201527f5061757361626c653a20636f6e74726163742069732070617573656400000000604082015260600190565b6020808252601f908201527f5265656e7472616e637947756172643a207265656e7472616e742063616c6c00604082015260600190565b634e487b7160e01b600052601160045260246000fd5b600082821015613b6a57613b6a613b42565b500390565b82815260608101613324602083018480358252602090810135910152565b6020808252601c908201527f5469702065786365656473206465706f736974656420616d6f756e7400000000604082015260600190565b600060208284031215613bd657600080fd5b5051919050565b600060208284031215613bef57600080fd5b815161332481613544565b6020808252602a908201527f6d73672e73656e646572206973206e6f74207065726d697373696f6e6564206160408201526939903ab73830bab9b2b960b11b606082015260800190565b600060208284031215613c5657600080fd5b8151801515811461332457600080fd5b60208082526028908201527f6d73672e73656e646572206973206e6f74207065726d697373696f6e6564206160408201526739903830bab9b2b960c11b606082015260800190565b600060018201613cc057613cc0613b42565b5060010190565b634e487b7160e01b600052604160045260246000fd5b634e487b7160e01b600052603260045260246000fd5b6020810160038310613990576139906136df565b8035613d1281613a6b565b613d1b816136f5565b8252602090810135910152565b60c08101613d368284613d07565b6040830135613d4481613544565b6001600160a01b039081166040840152606084013590613d6382613544565b1660608301526080838101359083015260a092830135929091019190915290565b60005b83811015613d9f578181015183820152602001613d87565b838111156129a55750506000910152565b60008351613dc2818460208801613d84565b835190830190613dd6818360208801613d84565b01949350505050565b60808101613ded8284613d07565b604083013560408301526060830135613e0581613544565b6001600160a01b031660609290920191909152919050565b634e487b7160e01b600052601260045260246000fd5b600063ffffffff80841680613e4a57613e4a613e1d565b92169190910492915050565b600063ffffffff808316818516808303821115613dd657613dd6613b42565b600063ffffffff83811690831681811015613e9257613e92613b42565b039392505050565b60008219821115613ead57613ead613b42565b500190565b60a08101613ec08284613d07565b613eda604083016040850180358252602090810135910152565b608092830135919092015290565b600063ffffffff80841680613eff57613eff613e1d565b92169190910692915050565b600063ffffffff808316818103613f2457613f24613b42565b6001019392505050565b600081613f3d57613f3d613b42565b506000190190565b6020808252818101527f416d6f756e74206d7573742062652067726561746572207468616e207a65726f604082015260600190565b60008251613f8c818460208701613d84565b9190910192915050565b6020815260008251806020840152613fb5816040850160208701613d84565b601f01601f1916919091016040019291505056fea26469706673582212205b57ebcd6786a74221956f7dbb932ddb9c3873319695cdd33165a3d23ee3c30264736f6c634300080d0033","linkReferences":{}},"methodIdentifiers":{"CLOSED()":"0e2636a3","NATIVE_TOKEN_ADDRESS()":"df2ebdbb","calculate_root(bytes32,uint32,bytes32[],uint32)":"af26c695","calculate_root_impl(uint32,uint32,bytes32,bytes32[],uint32,uint32)":"ef0ba5d0","cancelResolutions(uint256)":"ca9b21ae","chain()":"c763e5a1","close_cancel(((uint8,uint256),(uint256,uint256),bytes32),bytes32,bytes32[])":"01ef6966","close_deposit_refund(((uint8,uint256),uint256,address),bytes32,bytes32[])":"950ac487","close_withdrawal(((uint8,uint256),address,address,uint256,uint256),bytes32,bytes32[])":"4bf5fec3","counter()":"61bc221a","deposit(address,uint256)":"47e7ef24","deposit(address,uint256,uint256)":"0efe6a8b","deposit_erc20(address,uint256)":"d16544f0","deposit_erc20(address,uint256,uint256)":"08aba1b2","deposit_native()":"c87c2224","deposit_native(uint256)":"dffbdd9f","deposits(uint256)":"b02c43d0","ferry_withdrawal(((uint8,uint256),address,address,uint256,uint256))":"0cac57ab","find_l2_batch(uint256)":"f9ecd01e","getMerkleRootsLength()":"ff2bae86","getPendingRequests(uint256,uint256)":"79e041f2","getUpdateForL2()":"b1538706","hashCancel(((uint8,uint256),(uint256,uint256),bytes32))":"cc8c909f","hashFailedDepositResolution(((uint8,uint256),uint256,address))":"ae46db11","hashWithdrawal(((uint8,uint256),address,address,uint256,uint256))":"890e95ce","initialize(address,address,uint8,address)":"ffea632b","lastProcessedUpdate_origin_l1()":"7fd4f845","lastProcessedUpdate_origin_l2()":"f26ee9d0","merkleRootRange(bytes32)":"4f48eedf","owner()":"8da5cb5b","pause(uint256)":"136439dd","pauseAll()":"595c6a67","paused()":"5c975abb","paused(uint8)":"5ac86ab7","pauserRegistry()":"886f1195","processedL2Requests(bytes32)":"de70e0b8","renounceOwnership()":"715018a6","roots(uint256)":"c2b40ae4","setPauserRegistry(address)":"10d67a2f","setUpdater(address)":"9d54f419","transferOwnership(address)":"f2fde38b","unpause(uint256)":"fabc1cbc","update_l1_from_l2(bytes32,(uint256,uint256))":"08f42d40","updaterAccount()":"71c54461"},"id":141}