{"abi":[{"type":"constructor","inputs":[],"stateMutability":"nonpayable"},{"type":"function","name":"cancelResolutions","inputs":[{"name":"","type":"uint256","internalType":"uint256"}],"outputs":[{"name":"requestId","type":"tuple","internalType":"struct RollDown.RequestId","components":[{"name":"origin","type":"uint8","internalType":"enum RollDown.Origin"},{"name":"id","type":"uint256","internalType":"uint256"}]},{"name":"l2RequestId","type":"uint256","internalType":"uint256"},{"name":"cancelJustified","type":"bool","internalType":"bool"},{"name":"blockHash","type":"bytes32","internalType":"bytes32"}],"stateMutability":"view"},{"type":"function","name":"counter","inputs":[],"outputs":[{"name":"","type":"uint256","internalType":"uint256"}],"stateMutability":"view"},{"type":"function","name":"deposit","inputs":[{"name":"tokenAddress","type":"address","internalType":"address"},{"name":"amount","type":"uint256","internalType":"uint256"}],"outputs":[],"stateMutability":"nonpayable"},{"type":"function","name":"getUpdateForL2","inputs":[],"outputs":[{"name":"","type":"tuple","internalType":"struct RollDown.L1Update","components":[{"name":"pendingDeposits","type":"tuple[]","internalType":"struct RollDown.Deposit[]","components":[{"name":"requestId","type":"tuple","internalType":"struct RollDown.RequestId","components":[{"name":"origin","type":"uint8","internalType":"enum RollDown.Origin"},{"name":"id","type":"uint256","internalType":"uint256"}]},{"name":"depositRecipient","type":"address","internalType":"address"},{"name":"tokenAddress","type":"address","internalType":"address"},{"name":"amount","type":"uint256","internalType":"uint256"},{"name":"blockHash","type":"bytes32","internalType":"bytes32"}]},{"name":"pendingCancelResultions","type":"tuple[]","internalType":"struct RollDown.CancelResolution[]","components":[{"name":"requestId","type":"tuple","internalType":"struct RollDown.RequestId","components":[{"name":"origin","type":"uint8","internalType":"enum RollDown.Origin"},{"name":"id","type":"uint256","internalType":"uint256"}]},{"name":"l2RequestId","type":"uint256","internalType":"uint256"},{"name":"cancelJustified","type":"bool","internalType":"bool"},{"name":"blockHash","type":"bytes32","internalType":"bytes32"}]},{"name":"pendingWithdrawalResolutions","type":"tuple[]","internalType":"struct RollDown.WithdrawalResolution[]","components":[{"name":"requestId","type":"tuple","internalType":"struct RollDown.RequestId","components":[{"name":"origin","type":"uint8","internalType":"enum RollDown.Origin"},{"name":"id","type":"uint256","internalType":"uint256"}]},{"name":"l2RequestId","type":"uint256","internalType":"uint256"},{"name":"status","type":"bool","internalType":"bool"},{"name":"blockHash","type":"bytes32","internalType":"bytes32"}]},{"name":"pendingL2UpdatesToRemove","type":"tuple[]","internalType":"struct RollDown.L2UpdatesToRemove[]","components":[{"name":"requestId","type":"tuple","internalType":"struct RollDown.RequestId","components":[{"name":"origin","type":"uint8","internalType":"enum RollDown.Origin"},{"name":"id","type":"uint256","internalType":"uint256"}]},{"name":"l2UpdatesToRemove","type":"uint256[]","internalType":"uint256[]"},{"name":"blockHash","type":"bytes32","internalType":"bytes32"}]}]}],"stateMutability":"view"},{"type":"function","name":"lastProcessedUpdate_origin_l1","inputs":[],"outputs":[{"name":"","type":"uint256","internalType":"uint256"}],"stateMutability":"view"},{"type":"function","name":"lastProcessedUpdate_origin_l2","inputs":[],"outputs":[{"name":"","type":"uint256","internalType":"uint256"}],"stateMutability":"view"},{"type":"function","name":"update_l1_from_l2","inputs":[{"name":"inputArray","type":"tuple","internalType":"struct RollDown.L2Update","components":[{"name":"cancels","type":"tuple[]","internalType":"struct RollDown.Cancel[]","components":[{"name":"requestId","type":"tuple","internalType":"struct RollDown.RequestId","components":[{"name":"origin","type":"uint8","internalType":"enum RollDown.Origin"},{"name":"id","type":"uint256","internalType":"uint256"}]},{"name":"range","type":"tuple","internalType":"struct RollDown.Range","components":[{"name":"start","type":"uint256","internalType":"uint256"},{"name":"end","type":"uint256","internalType":"uint256"}]},{"name":"hash","type":"bytes32","internalType":"bytes32"}]},{"name":"withdrawals","type":"tuple[]","internalType":"struct RollDown.Withdrawal[]","components":[{"name":"requestId","type":"tuple","internalType":"struct RollDown.RequestId","components":[{"name":"origin","type":"uint8","internalType":"enum RollDown.Origin"},{"name":"id","type":"uint256","internalType":"uint256"}]},{"name":"withdrawalRecipient","type":"address","internalType":"address"},{"name":"tokenAddress","type":"address","internalType":"address"},{"name":"amount","type":"uint256","internalType":"uint256"}]},{"name":"results","type":"tuple[]","internalType":"struct RollDown.RequestResult[]","components":[{"name":"requestId","type":"tuple","internalType":"struct RollDown.RequestId","components":[{"name":"origin","type":"uint8","internalType":"enum RollDown.Origin"},{"name":"id","type":"uint256","internalType":"uint256"}]},{"name":"originRequestId","type":"uint256","internalType":"uint256"},{"name":"updateType","type":"uint8","internalType":"enum RollDown.UpdateType"},{"name":"status","type":"bool","internalType":"bool"}]}]}],"outputs":[],"stateMutability":"nonpayable"},{"type":"function","name":"withdrawalResolutions","inputs":[{"name":"","type":"uint256","internalType":"uint256"}],"outputs":[{"name":"requestId","type":"tuple","internalType":"struct RollDown.RequestId","components":[{"name":"origin","type":"uint8","internalType":"enum RollDown.Origin"},{"name":"id","type":"uint256","internalType":"uint256"}]},{"name":"l2RequestId","type":"uint256","internalType":"uint256"},{"name":"status","type":"bool","internalType":"bool"},{"name":"blockHash","type":"bytes32","internalType":"bytes32"}],"stateMutability":"view"},{"type":"event","name":"DepositAcceptedIntoQueue","inputs":[{"name":"requestId","type":"uint256","indexed":false,"internalType":"uint256"},{"name":"depositRecipient","type":"address","indexed":false,"internalType":"address"},{"name":"tokenAddress","type":"address","indexed":false,"internalType":"address"},{"name":"amount","type":"uint256","indexed":false,"internalType":"uint256"}],"anonymous":false},{"type":"event","name":"DisputeResolutionAcceptedIntoQueue","inputs":[{"name":"requestId","type":"uint256","indexed":false,"internalType":"uint256"},{"name":"cancelJustified","type":"bool","indexed":false,"internalType":"bool"}],"anonymous":false},{"type":"event","name":"FundsWithdrawn","inputs":[{"name":"withdrawRecipient","type":"address","indexed":false,"internalType":"address"},{"name":"tokenAddress","type":"address","indexed":false,"internalType":"address"},{"name":"amount","type":"uint256","indexed":false,"internalType":"uint256"}],"anonymous":false},{"type":"event","name":"L2UpdatesToRemovedAcceptedIntoQueue","inputs":[{"name":"requestId","type":"uint256","indexed":false,"internalType":"uint256"},{"name":"l2UpdatesToRemove","type":"uint256[]","indexed":false,"internalType":"uint256[]"}],"anonymous":false},{"type":"event","name":"WithdrawalResolutionAcceptedIntoQueue","inputs":[{"name":"requestId","type":"uint256","indexed":false,"internalType":"uint256"},{"name":"success","type":"bool","indexed":false,"internalType":"bool"}],"anonymous":false},{"type":"event","name":"cancelAndCalculatedHash","inputs":[{"name":"cancelHash","type":"bytes32","indexed":false,"internalType":"bytes32"},{"name":"calculatedHash","type":"bytes32","indexed":false,"internalType":"bytes32"}],"anonymous":false}],"bytecode":{"object":"0x608060405234801561001057600080fd5b506000600281905560018055600381905580546001600160a01b031916331790556120cb806100406000396000f3fe608060405234801561001057600080fd5b50600436106100885760003560e01c8063a80fc9bd1161005b578063a80fc9bd146100da578063b1538706146100fd578063ca9b21ae14610112578063f26ee9d01461012557600080fd5b806347e7ef241461008d5780635740b89d146100a257806361bc221a146100b55780637fd4f845146100d1575b600080fd5b6100a061009b366004611c12565b61012e565b005b6100a06100b0366004611c3c565b6103ea565b6100be60015481565b6040519081526020015b60405180910390f35b6100be60025481565b6100ed6100e8366004611c77565b610592565b6040516100c89493929190611cd3565b610105610604565b6040516100c89190611e17565b6100ed610120366004611c77565b610659565b6100be60035481565b6001600160a01b0382166101815760405162461bcd60e51b8152602060048201526015602482015274496e76616c696420746f6b656e206164647265737360581b60448201526064015b60405180910390fd5b600081116101d15760405162461bcd60e51b815260206004820181905260248201527f416d6f756e74206d7573742062652067726561746572207468616e207a65726f6044820152606401610178565b6040516323b872dd60e01b81523360048201819052306024830152604482018390529083906001600160a01b038216906323b872dd906064016020604051808303816000875af1158015610229573d6000803e3d6000fd5b505050506040513d601f19601f8201168201806040525081019061024d9190611f02565b6102915760405162461bcd60e51b8152602060048201526015602482015274151bdad95b881d1c985b9cd9995c8819985a5b1959605a1b6044820152606401610178565b6040805160e081019091524340906000908060a0810180848152602001600160008154809291906102c190611f3a565b90915550905281526001600160a01b03808716602080840191909152908916604080840191909152606083018990526080909201859052825181015160009081526006909152208151805182549394508493839190829060ff19166001838181111561032f5761032f611c90565b021790555060209182015160019190910155828101516002830180546001600160a01b03199081166001600160a01b03938416179091556040808601516003860180549093169084161790915560608086015160048601556080958601516005909501949094558551830151815190815289831693810193909352908a16908201529081018790527fe28491c2da97a9923c92f6590a040dfc143fe636e8545356cdab0a796e1acefa910160405180910390a1505050505050565b60016103f96040830183611f53565b90501015806104145750600161040f8280611f53565b905010155b8061042e575060016104296020830183611f53565b905010155b6104845760405162461bcd60e51b815260206004820152602160248201527f4172726179206d7573742068617665206174206c6561737420312075706461746044820152606560f81b6064820152608401610178565b600061049b6104966040840184611f53565b61068e565b90506104a6826109f5565b80511561058e5760018054600091826104be83611f3a565b909155506040805180820190915290915080600081526020908101839052600083815260079091526040902081518154829060ff19166001838181111561050757610507611c90565b021790555060209182015160019091015560008281526007825260409020835161053992600290920191850190611b96565b5081516002600082825461054d9190611fa3565b90915550506040517f09b30365986269e3939307e7ca7b7b7421a8ad08ef18bb766c668d27cbc2aef9906105849083908590611fb6565b60405180910390a1505b5050565b60046020526000908152604090819020815180830190925280549091908290829060ff1660018111156105c7576105c7611c90565b60018111156105d8576105d8611c90565b815260019190910154602090910152600282015460038301546004909301549192909160ff9091169084565b61062f6040518060800160405280606081526020016060815260200160608152602001606081525090565b61065460025460016106419190611fa3565b6001805461064f9190611fd7565b610c76565b905090565b60056020526000908152604090819020815180830190925280549091908290829060ff1660018111156105c7576105c7611c90565b606060008281036106af5750506040805160008152602081019091526109ef565b6000848460008181106106c4576106c4612000565b905060a0020160000160200135905060008585905067ffffffffffffffff8111156106f1576106f1611fea565b60405190808252806020026020018201604052801561071a578160200160208202803683370190505b50905060015b858110156107cd57610733836001611fa3565b87878381811061074557610745612000565b905060a00201600001602001351461079f5760405162461bcd60e51b815260206004820152601960248201527f526571756573747320617265206e6f7420696e206f72646572000000000000006044820152606401610178565b8686828181106107b1576107b1612000565b905060a002016000016020013592508080600101915050610720565b5060005b8581101561095657368787838181106107ec576107ec612000565b905060a00201905060025481600001602001351161080a575061094e565b600061081c6080830160608401612016565b600581111561082d5761082d611c90565b03610865576040810135838661084281611f3a565b97508151811061085457610854612000565b60200260200101818152505061094c565b60036108776080830160608401612016565b600581111561088857610888611c90565b0361089d576040810135838661084281611f3a565b60056108af6080830160608401612016565b60058111156108c0576108c0611c90565b036108d5576040810135838661084281611f3a565b60026108e76080830160608401612016565b60058111156108f8576108f8611c90565b0361090d576040810135838661084281611f3a565b60405162461bcd60e51b8152602060048201526014602482015273756e6b6e6f776e2072657175657374207479706560601b6044820152606401610178565b505b6001016107d1565b5060008367ffffffffffffffff81111561097257610972611fea565b60405190808252806020026020018201604052801561099b578160200160208202803683370190505b50905060005b848110156109e8578281815181106109bb576109bb612000565b60200260200101518282815181106109d5576109d5612000565b60209081029190910101526001016109a1565b5093505050505b92915050565b600080610a0183611301565b9150915081600003610a255760405162461bcd60e51b815260040161017890612037565b600354610a33906001611fa3565b821115610a525760405162461bcd60e51b815260040161017890612037565b6003548111610a735760405162461bcd60e51b815260040161017890612037565b6000610a7f8385611437565b90506000806000805b8451811015610c6c576001858281518110610aa557610aa5612000565b60200260200101516005811115610abe57610abe611c90565b03610b2e5736610ad160208a018a611f53565b85610adb81611f3a565b9650818110610aec57610aec612000565b905060a002019050600354816000016020013511610b0a5750610c64565b610b1381611771565b60038054906000610b2383611f3a565b919050555050610c64565b6004858281518110610b4257610b42612000565b60200260200101516005811115610b5b57610b5b611c90565b03610bad5736610b6b8980611f53565b86610b7581611f3a565b9750818110610b8657610b86612000565b905060a002019050600354816000016020013511610ba45750610c64565b610b1381611a1d565b6003858281518110610bc157610bc1612000565b60200260200101516005811115610bda57610bda611c90565b03610c265736610bed60408a018a611f53565b84610bf781611f3a565b9550818110610c0857610c08612000565b905060a002019050600354816000016020013511610b135750610c64565b60405162461bcd60e51b8152602060048201526013602482015272756e6b6e6f776e20757064617465207479706560681b6044820152606401610178565b600101610a88565b5050505050505050565b610ca16040518060800160405280606081526020016060815260200160608152602001606081525090565b610ccc6040518060800160405280606081526020016060815260200160608152602001606081525090565b6000808080875b878111610d8c5760008181526006602052604090206001015415610d035784610cfb81611f3a565b955050610d7a565b60008181526007602052604090206001015415610d2c5781610d2481611f3a565b925050610d7a565b60008181526004602052604090206001015415610d555783610d4d81611f3a565b945050610d7a565b60008181526005602052604090206001015415610d7a5782610d7681611f3a565b9350505b80610d8481611f3a565b915050610cd3565b508367ffffffffffffffff811115610da657610da6611fea565b604051908082528060200260200182016040528015610e0c57816020015b6040805160e081018252600060a0820181815260c08301829052825260208083018290529282018190526060820181905260808201528252600019909201910181610dc45790505b5085528167ffffffffffffffff811115610e2857610e28611fea565b604051908082528060200260200182016040528015610e8757816020015b6040805160c08101825260006080820181815260a083018290528252602080830182905292820181905260608201528252600019909201910181610e465790505b5060208601528267ffffffffffffffff811115610ea657610ea6611fea565b604051908082528060200260200182016040528015610f0557816020015b6040805160c08101825260006080820181815260a083018290528252602080830182905292820181905260608201528252600019909201910181610ec45790505b5060408601528067ffffffffffffffff811115610f2457610f24611fea565b604051908082528060200260200182016040528015610f7e57816020015b6040805160a08101825260006060808301828152608084018390528352602083015291810191909152815260200190600190039081610f425790505b506060860152506000925082915081905080875b8781116112f457600081815260066020526040902060010154156110735760008181526006602052604090819020815160e081019092528054829060a08201908390829060ff166001811115610fea57610fea611c90565b6001811115610ffb57610ffb611c90565b81526001919091015460209182015290825260028301546001600160a01b039081169183019190915260038301541660408201526004820154606082015260059091015460809091015286518661105181611f3a565b97508151811061106357611063612000565b60200260200101819052506112e2565b6000818152600460205260409020600101541561112e5760008181526004602052604090819020815160c081019092528054829060808201908390829060ff1660018111156110c4576110c4611c90565b60018111156110d5576110d5611c90565b815260019190910154602091820152908252600283015490820152600382015460ff1615156040808301919091526004909201546060909101528701518561111c81611f3a565b96508151811061106357611063612000565b600081815260076020526040902060010154156112265760008181526007602052604090819020815160a081019092528054829060608201908390829060ff16600181111561117f5761117f611c90565b600181111561119057611190611c90565b81526020016001820154815250508152602001600282018054806020026020016040519081016040528092919081815260200182805480156111f157602002820191906000526020600020905b8154815260200190600101908083116111dd575b505050505081526020016003820154815250508660600151838061121490611f3a565b94508151811061106357611063612000565b600081815260056020526040902060020154156112dd5760008181526005602052604090819020815160c081019092528054829060808201908390829060ff16600181111561127757611277611c90565b600181111561128857611288611c90565b815260019190910154602091820152908252600283015482820152600383015460ff1615156040830152600490920154606090910152870151846112cb81611f3a565b95508151811061106357611063612000565b6112f4565b806112ec81611f3a565b915050610f92565b5093979650505050505050565b60008060001981806113138680611f53565b905011156113975761134c6113288680611f53565b600081811061133957611339612000565b905060a002016000016020013583611b6f565b915061139461135b8680611f53565b60016113678980611f53565b611372929150611fd7565b81811061138157611381612000565b905060a002016000016020013582611b87565b90505b60006113a66020870187611f53565b905011156113e2576113be6113286020870187611f53565b91506113df6113d06020870187611f53565b600161136760208a018a611f53565b90505b60006113f16040870187611f53565b9050111561142d576114096113286040870187611f53565b915061142a61141b6040870187611f53565b600161136760408a018a611f53565b90505b9094909350915050565b60606114466040830183611f53565b159050801561145e575061145a8280611f53565b1590505b801561147657506114726020830183611f53565b1590505b1561149057506040805160008152602081019091526109ef565b6000808080806114a36040880188611f53565b90506114b26020890189611f53565b90506114be8980611f53565b6114c9929150611fa3565b6114d39190611fa3565b905060008167ffffffffffffffff8111156114f0576114f0611fea565b604051908082528060200260200182016040528015611519578160200160208202803683370190505b509050885b611528838b611fa3565b8110156117645761153c60208a018a611f53565b90508710801561157457508061155560208b018b611f53565b8981811061156557611565612000565b905060a0020160000160200135145b156115dc57600182858151811061158d5761158d612000565b602002602001019060058111156115a6576115a6611c90565b908160058111156115b9576115b9611c90565b905250866115c681611f3a565b97505083806115d490611f3a565b94505061175c565b6115e68980611f53565b90508610801561161b5750806115fc8a80611f53565b8881811061160c5761160c612000565b905060a0020160000160200135145b1561167b57600482858151811061163457611634612000565b6020026020010190600581111561164d5761164d611c90565b9081600581111561166057611660611c90565b9052508561166d81611f3a565b96505083806115d490611f3a565b61168860408a018a611f53565b9050851080156116c05750806116a160408b018b611f53565b878181106116b1576116b1612000565b905060a0020160000160200135145b156117205760038285815181106116d9576116d9612000565b602002602001019060058111156116f2576116f2611c90565b9081600581111561170557611705611c90565b9052508461171281611f3a565b95505083806115d490611f3a565b60405162461bcd60e51b8152602060048201526011602482015270696e76616c696465204c3255706461746560781b6044820152606401610178565b60010161151e565b5098975050505050505050565b60006117836080830160608401612061565b6040516370a0823160e01b81523060048201529091506000906080840135906001600160a01b038416906370a0823190602401602060405180830381865afa1580156117d3573d6000803e3d6000fd5b505050506040513d601f19601f820116820180604052508101906117f7919061207c565b6040805160c0810190915291111591504340906000908060808101808481526020016001600081548092919061182c90611f3a565b9091555090528152602087810135818301528515156040808401919091526060909201859052825181015160009081526004909152208151805182549394508493839190829060ff19166001838181111561188957611889611c90565b02179055506020918201516001919091015582810151600283015560408084015160038401805460ff191691151591909117905560609093015160049092019190915582518101518251908152851515918101919091527f0c4873525770dbb64515e9d3950131f79ed8f72ff147ff1723bbe2e77e3791aa910160405180910390a18215611a16576001600160a01b03841663a9059cbb6119306060880160408901612061565b6040516001600160e01b031960e084901b1681526001600160a01b039091166004820152608088013560248201526044016020604051808303816000875af1158015611980573d6000803e3d6000fd5b505050506040513d601f19601f820116820180604052508101906119a49190611f02565b507fa92ff919b850e4909ab2261d907ef955f11bc1716733a6cbece38d163a69af8a6119d66060870160408801612061565b6119e66080880160608901612061565b604080516001600160a01b0393841681529290911660208301526080880135908201526060015b60405180910390a15b5050505050565b6000611a3160408301356060840135610c76565b9050600081604051602001611a469190611e17565b60408051601f19818403018152828252805160209091012060c08301909152915043409060009080608081018084815260200160016000815480929190611a8c90611f3a565b909155509052815260208781013581830152608088013586146040808401919091526060909201859052825181015160009081526005909152208151805182549394508493839190829060ff191660018381811115611aed57611aed611c90565b021790555060209182015160019091015582810151600283015560408084015160038401805491151560ff199092169190911790556060909301516004909201919091558201518282015191517fd16f202ac5905ff5d1851f4805ffe56d1212db32fa989881d0044b9cf0f7277692611a0d9282521515602082015260400190565b6000818310611b7e5781611b80565b825b9392505050565b6000818311611b7e5781611b80565b828054828255906000526020600020908101928215611bd1579160200282015b82811115611bd1578251825591602001919060010190611bb6565b50611bdd929150611be1565b5090565b5b80821115611bdd5760008155600101611be2565b80356001600160a01b0381168114611c0d57600080fd5b919050565b60008060408385031215611c2557600080fd5b611c2e83611bf6565b946020939093013593505050565b600060208284031215611c4e57600080fd5b813567ffffffffffffffff811115611c6557600080fd5b820160608185031215611b8057600080fd5b600060208284031215611c8957600080fd5b5035919050565b634e487b7160e01b600052602160045260246000fd5b805160028110611cc657634e487b7160e01b600052602160045260246000fd5b8252602090810151910152565b60a08101611ce18287611ca6565b60408201949094529115156060830152608090910152919050565b60008151808452602080850194506020840160005b83811015611d5a578151611d26888251611ca6565b8084015160408981019190915281015115156060808a01919091520151608088015260a09096019590820190600101611d11565b509495945050505050565b60008151808452602080850194506020840160005b83811015611d5a57815187529582019590820190600101611d7a565b600082825180855260208086019550808260051b84010181860160005b84811015611e0a57601f1986840301895281516080611dd3858351611ca6565b8582015160408281880152611dea83880183611d65565b930151606096909601959095525098840198925090830190600101611db3565b5090979650505050505050565b6000602080835260a080840185516080808588015282825180855260c0945060c089019150868401935060005b81811015611e9c578451611e59848251611ca6565b808901516001600160a01b039081166040868101919091528201511660608086019190915281015185850152840151878401529387019391850191600101611e44565b5050858901519550601f19945084888203016040890152611ebd8187611cfc565b955050505050604085015181858403016060860152611edc8382611cfc565b925050606085015181858403016080860152611ef88382611d96565b9695505050505050565b600060208284031215611f1457600080fd5b81518015158114611b8057600080fd5b634e487b7160e01b600052601160045260246000fd5b600060018201611f4c57611f4c611f24565b5060010190565b6000808335601e19843603018112611f6a57600080fd5b83018035915067ffffffffffffffff821115611f8557600080fd5b602001915060a081023603821315611f9c57600080fd5b9250929050565b808201808211156109ef576109ef611f24565b828152604060208201526000611fcf6040830184611d65565b949350505050565b818103818111156109ef576109ef611f24565b634e487b7160e01b600052604160045260246000fd5b634e487b7160e01b600052603260045260246000fd5b60006020828403121561202857600080fd5b813560068110611b8057600080fd5b60208082526010908201526f496e76616c6964204c3255706461746560801b604082015260600190565b60006020828403121561207357600080fd5b611b8082611bf6565b60006020828403121561208e57600080fd5b505191905056fea264697066735822122068a6ac56c6dcdcf9f7899a074a96f0b185299f42d5f9db4d4b7145b0449ecdfa64736f6c63430008170033","linkReferences":{}},"methodIdentifiers":{"cancelResolutions(uint256)":"ca9b21ae","counter()":"61bc221a","deposit(address,uint256)":"47e7ef24","getUpdateForL2()":"b1538706","lastProcessedUpdate_origin_l1()":"7fd4f845","lastProcessedUpdate_origin_l2()":"f26ee9d0","update_l1_from_l2((((uint8,uint256),(uint256,uint256),bytes32)[],((uint8,uint256),address,address,uint256)[],((uint8,uint256),uint256,uint8,bool)[]))":"5740b89d","withdrawalResolutions(uint256)":"a80fc9bd"},"id":24}