{"abi":[{"type":"function","name":"CLOSED","inputs":[],"outputs":[{"name":"","type":"address","internalType":"address"}],"stateMutability":"view"},{"type":"function","name":"NATIVE_TOKEN_ADDRESS","inputs":[],"outputs":[{"name":"","type":"address","internalType":"address"}],"stateMutability":"view"},{"type":"function","name":"calculate_root","inputs":[{"name":"leave_hash","type":"bytes32","internalType":"bytes32"},{"name":"leave_idx","type":"uint32","internalType":"uint32"},{"name":"proof","type":"bytes32[]","internalType":"bytes32[]"},{"name":"leaves_count","type":"uint32","internalType":"uint32"}],"outputs":[{"name":"","type":"bytes32","internalType":"bytes32"}],"stateMutability":"pure"},{"type":"function","name":"calculate_root_impl","inputs":[{"name":"level","type":"uint32","internalType":"uint32"},{"name":"pos","type":"uint32","internalType":"uint32"},{"name":"hash","type":"bytes32","internalType":"bytes32"},{"name":"proofs","type":"bytes32[]","internalType":"bytes32[]"},{"name":"proof_idx","type":"uint32","internalType":"uint32"},{"name":"max_index","type":"uint32","internalType":"uint32"}],"outputs":[{"name":"","type":"bytes32","internalType":"bytes32"}],"stateMutability":"pure"},{"type":"function","name":"cancelResolutions","inputs":[{"name":"","type":"uint256","internalType":"uint256"}],"outputs":[{"name":"requestId","type":"tuple","internalType":"struct IRolldownPrimitives.RequestId","components":[{"name":"origin","type":"uint8","internalType":"enum IRolldownPrimitives.Origin"},{"name":"id","type":"uint256","internalType":"uint256"}]},{"name":"l2RequestId","type":"uint256","internalType":"uint256"},{"name":"cancelJustified","type":"bool","internalType":"bool"},{"name":"timeStamp","type":"uint256","internalType":"uint256"}],"stateMutability":"view"},{"type":"function","name":"chain","inputs":[],"outputs":[{"name":"","type":"uint8","internalType":"enum IRolldownPrimitives.ChainId"}],"stateMutability":"view"},{"type":"function","name":"close_cancel","inputs":[{"name":"cancel","type":"tuple","internalType":"struct IRolldownPrimitives.Cancel","components":[{"name":"requestId","type":"tuple","internalType":"struct IRolldownPrimitives.RequestId","components":[{"name":"origin","type":"uint8","internalType":"enum IRolldownPrimitives.Origin"},{"name":"id","type":"uint256","internalType":"uint256"}]},{"name":"range","type":"tuple","internalType":"struct IRolldownPrimitives.Range","components":[{"name":"start","type":"uint256","internalType":"uint256"},{"name":"end","type":"uint256","internalType":"uint256"}]},{"name":"hash","type":"bytes32","internalType":"bytes32"}]},{"name":"merkle_root","type":"bytes32","internalType":"bytes32"},{"name":"proof","type":"bytes32[]","internalType":"bytes32[]"}],"outputs":[],"stateMutability":"nonpayable"},{"type":"function","name":"close_deposit_refund","inputs":[{"name":"failedDeposit","type":"tuple","internalType":"struct IRolldownPrimitives.FailedDepositResolution","components":[{"name":"requestId","type":"tuple","internalType":"struct IRolldownPrimitives.RequestId","components":[{"name":"origin","type":"uint8","internalType":"enum IRolldownPrimitives.Origin"},{"name":"id","type":"uint256","internalType":"uint256"}]},{"name":"originRequestId","type":"uint256","internalType":"uint256"},{"name":"ferry","type":"address","internalType":"address"}]},{"name":"merkle_root","type":"bytes32","internalType":"bytes32"},{"name":"proof","type":"bytes32[]","internalType":"bytes32[]"}],"outputs":[],"stateMutability":"nonpayable"},{"type":"function","name":"close_withdrawal","inputs":[{"name":"withdrawal","type":"tuple","internalType":"struct IRolldownPrimitives.Withdrawal","components":[{"name":"requestId","type":"tuple","internalType":"struct IRolldownPrimitives.RequestId","components":[{"name":"origin","type":"uint8","internalType":"enum IRolldownPrimitives.Origin"},{"name":"id","type":"uint256","internalType":"uint256"}]},{"name":"recipient","type":"address","internalType":"address"},{"name":"tokenAddress","type":"address","internalType":"address"},{"name":"amount","type":"uint256","internalType":"uint256"},{"name":"ferryTip","type":"uint256","internalType":"uint256"}]},{"name":"merkle_root","type":"bytes32","internalType":"bytes32"},{"name":"proof","type":"bytes32[]","internalType":"bytes32[]"}],"outputs":[],"stateMutability":"nonpayable"},{"type":"function","name":"counter","inputs":[],"outputs":[{"name":"","type":"uint256","internalType":"uint256"}],"stateMutability":"view"},{"type":"function","name":"deposit","inputs":[{"name":"tokenAddress","type":"address","internalType":"address"},{"name":"amount","type":"uint256","internalType":"uint256"},{"name":"ferryTip","type":"uint256","internalType":"uint256"}],"outputs":[],"stateMutability":"nonpayable"},{"type":"function","name":"deposit","inputs":[{"name":"tokenAddress","type":"address","internalType":"address"},{"name":"amount","type":"uint256","internalType":"uint256"}],"outputs":[],"stateMutability":"nonpayable"},{"type":"function","name":"deposit_erc20","inputs":[{"name":"tokenAddress","type":"address","internalType":"address"},{"name":"amount","type":"uint256","internalType":"uint256"},{"name":"ferryTip","type":"uint256","internalType":"uint256"}],"outputs":[],"stateMutability":"nonpayable"},{"type":"function","name":"deposit_erc20","inputs":[{"name":"tokenAddress","type":"address","internalType":"address"},{"name":"amount","type":"uint256","internalType":"uint256"}],"outputs":[],"stateMutability":"nonpayable"},{"type":"function","name":"deposit_native","inputs":[],"outputs":[],"stateMutability":"payable"},{"type":"function","name":"deposit_native","inputs":[{"name":"ferryTip","type":"uint256","internalType":"uint256"}],"outputs":[],"stateMutability":"payable"},{"type":"function","name":"deposits","inputs":[{"name":"","type":"uint256","internalType":"uint256"}],"outputs":[{"name":"requestId","type":"tuple","internalType":"struct IRolldownPrimitives.RequestId","components":[{"name":"origin","type":"uint8","internalType":"enum IRolldownPrimitives.Origin"},{"name":"id","type":"uint256","internalType":"uint256"}]},{"name":"depositRecipient","type":"address","internalType":"address"},{"name":"tokenAddress","type":"address","internalType":"address"},{"name":"amount","type":"uint256","internalType":"uint256"},{"name":"timeStamp","type":"uint256","internalType":"uint256"},{"name":"ferryTip","type":"uint256","internalType":"uint256"}],"stateMutability":"view"},{"type":"function","name":"ferry_withdrawal","inputs":[{"name":"withdrawal","type":"tuple","internalType":"struct IRolldownPrimitives.Withdrawal","components":[{"name":"requestId","type":"tuple","internalType":"struct IRolldownPrimitives.RequestId","components":[{"name":"origin","type":"uint8","internalType":"enum IRolldownPrimitives.Origin"},{"name":"id","type":"uint256","internalType":"uint256"}]},{"name":"recipient","type":"address","internalType":"address"},{"name":"tokenAddress","type":"address","internalType":"address"},{"name":"amount","type":"uint256","internalType":"uint256"},{"name":"ferryTip","type":"uint256","internalType":"uint256"}]}],"outputs":[],"stateMutability":"payable"},{"type":"function","name":"find_l2_batch","inputs":[{"name":"requestId","type":"uint256","internalType":"uint256"}],"outputs":[{"name":"","type":"tuple","internalType":"struct IRolldownPrimitives.Range","components":[{"name":"start","type":"uint256","internalType":"uint256"},{"name":"end","type":"uint256","internalType":"uint256"}]}],"stateMutability":"view"},{"type":"function","name":"getPendingRequests","inputs":[{"name":"start","type":"uint256","internalType":"uint256"},{"name":"end","type":"uint256","internalType":"uint256"}],"outputs":[{"name":"","type":"tuple","internalType":"struct IRolldownPrimitives.L1Update","components":[{"name":"chain","type":"uint8","internalType":"enum IRolldownPrimitives.ChainId"},{"name":"pendingDeposits","type":"tuple[]","internalType":"struct IRolldownPrimitives.Deposit[]","components":[{"name":"requestId","type":"tuple","internalType":"struct IRolldownPrimitives.RequestId","components":[{"name":"origin","type":"uint8","internalType":"enum IRolldownPrimitives.Origin"},{"name":"id","type":"uint256","internalType":"uint256"}]},{"name":"depositRecipient","type":"address","internalType":"address"},{"name":"tokenAddress","type":"address","internalType":"address"},{"name":"amount","type":"uint256","internalType":"uint256"},{"name":"timeStamp","type":"uint256","internalType":"uint256"},{"name":"ferryTip","type":"uint256","internalType":"uint256"}]},{"name":"pendingCancelResolutions","type":"tuple[]","internalType":"struct IRolldownPrimitives.CancelResolution[]","components":[{"name":"requestId","type":"tuple","internalType":"struct IRolldownPrimitives.RequestId","components":[{"name":"origin","type":"uint8","internalType":"enum IRolldownPrimitives.Origin"},{"name":"id","type":"uint256","internalType":"uint256"}]},{"name":"l2RequestId","type":"uint256","internalType":"uint256"},{"name":"cancelJustified","type":"bool","internalType":"bool"},{"name":"timeStamp","type":"uint256","internalType":"uint256"}]}]}],"stateMutability":"view"},{"type":"function","name":"getUpdateForL2","inputs":[],"outputs":[{"name":"","type":"tuple","internalType":"struct IRolldownPrimitives.L1Update","components":[{"name":"chain","type":"uint8","internalType":"enum IRolldownPrimitives.ChainId"},{"name":"pendingDeposits","type":"tuple[]","internalType":"struct IRolldownPrimitives.Deposit[]","components":[{"name":"requestId","type":"tuple","internalType":"struct IRolldownPrimitives.RequestId","components":[{"name":"origin","type":"uint8","internalType":"enum IRolldownPrimitives.Origin"},{"name":"id","type":"uint256","internalType":"uint256"}]},{"name":"depositRecipient","type":"address","internalType":"address"},{"name":"tokenAddress","type":"address","internalType":"address"},{"name":"amount","type":"uint256","internalType":"uint256"},{"name":"timeStamp","type":"uint256","internalType":"uint256"},{"name":"ferryTip","type":"uint256","internalType":"uint256"}]},{"name":"pendingCancelResolutions","type":"tuple[]","internalType":"struct IRolldownPrimitives.CancelResolution[]","components":[{"name":"requestId","type":"tuple","internalType":"struct IRolldownPrimitives.RequestId","components":[{"name":"origin","type":"uint8","internalType":"enum IRolldownPrimitives.Origin"},{"name":"id","type":"uint256","internalType":"uint256"}]},{"name":"l2RequestId","type":"uint256","internalType":"uint256"},{"name":"cancelJustified","type":"bool","internalType":"bool"},{"name":"timeStamp","type":"uint256","internalType":"uint256"}]}]}],"stateMutability":"view"},{"type":"function","name":"initialize","inputs":[{"name":"_pauserRegistry","type":"address","internalType":"contract IPauserRegistry"},{"name":"initialOwner","type":"address","internalType":"address"},{"name":"chainId","type":"uint8","internalType":"enum IRolldownPrimitives.ChainId"},{"name":"updater","type":"address","internalType":"address"}],"outputs":[],"stateMutability":"nonpayable"},{"type":"function","name":"lastProcessedUpdate_origin_l1","inputs":[],"outputs":[{"name":"","type":"uint256","internalType":"uint256"}],"stateMutability":"view"},{"type":"function","name":"lastProcessedUpdate_origin_l2","inputs":[],"outputs":[{"name":"","type":"uint256","internalType":"uint256"}],"stateMutability":"view"},{"type":"function","name":"merkleRootRange","inputs":[{"name":"","type":"bytes32","internalType":"bytes32"}],"outputs":[{"name":"start","type":"uint256","internalType":"uint256"},{"name":"end","type":"uint256","internalType":"uint256"}],"stateMutability":"view"},{"type":"function","name":"owner","inputs":[],"outputs":[{"name":"","type":"address","internalType":"address"}],"stateMutability":"view"},{"type":"function","name":"pause","inputs":[{"name":"newPausedStatus","type":"uint256","internalType":"uint256"}],"outputs":[],"stateMutability":"nonpayable"},{"type":"function","name":"pauseAll","inputs":[],"outputs":[],"stateMutability":"nonpayable"},{"type":"function","name":"paused","inputs":[{"name":"index","type":"uint8","internalType":"uint8"}],"outputs":[{"name":"","type":"bool","internalType":"bool"}],"stateMutability":"view"},{"type":"function","name":"paused","inputs":[],"outputs":[{"name":"","type":"uint256","internalType":"uint256"}],"stateMutability":"view"},{"type":"function","name":"pauserRegistry","inputs":[],"outputs":[{"name":"","type":"address","internalType":"contract IPauserRegistry"}],"stateMutability":"view"},{"type":"function","name":"processedL2Requests","inputs":[{"name":"","type":"bytes32","internalType":"bytes32"}],"outputs":[{"name":"","type":"address","internalType":"address"}],"stateMutability":"view"},{"type":"function","name":"renounceOwnership","inputs":[],"outputs":[],"stateMutability":"nonpayable"},{"type":"function","name":"setPauserRegistry","inputs":[{"name":"newPauserRegistry","type":"address","internalType":"contract IPauserRegistry"}],"outputs":[],"stateMutability":"nonpayable"},{"type":"function","name":"setUpdater","inputs":[{"name":"updater","type":"address","internalType":"address"}],"outputs":[],"stateMutability":"nonpayable"},{"type":"function","name":"transferOwnership","inputs":[{"name":"newOwner","type":"address","internalType":"address"}],"outputs":[],"stateMutability":"nonpayable"},{"type":"function","name":"unpause","inputs":[{"name":"newPausedStatus","type":"uint256","internalType":"uint256"}],"outputs":[],"stateMutability":"nonpayable"},{"type":"function","name":"update_l1_from_l2","inputs":[{"name":"merkle_root","type":"bytes32","internalType":"bytes32"},{"name":"range","type":"tuple","internalType":"struct IRolldownPrimitives.Range","components":[{"name":"start","type":"uint256","internalType":"uint256"},{"name":"end","type":"uint256","internalType":"uint256"}]}],"outputs":[],"stateMutability":"nonpayable"},{"type":"function","name":"updaterAccount","inputs":[],"outputs":[{"name":"","type":"address","internalType":"address"}],"stateMutability":"view"},{"type":"event","name":"DepositAcceptedIntoQueue","inputs":[{"name":"requestId","type":"uint256","indexed":false,"internalType":"uint256"},{"name":"depositRecipient","type":"address","indexed":false,"internalType":"address"},{"name":"tokenAddress","type":"address","indexed":false,"internalType":"address"},{"name":"amount","type":"uint256","indexed":false,"internalType":"uint256"},{"name":"ferryTip","type":"uint256","indexed":false,"internalType":"uint256"}],"anonymous":false},{"type":"event","name":"DisputeResolutionAcceptedIntoQueue","inputs":[{"name":"requestId","type":"uint256","indexed":false,"internalType":"uint256"},{"name":"cancelJustified","type":"bool","indexed":false,"internalType":"bool"}],"anonymous":false},{"type":"event","name":"ERC20TokensWithdrawn","inputs":[{"name":"sender","type":"address","indexed":false,"internalType":"address"},{"name":"token_address","type":"address","indexed":false,"internalType":"address"},{"name":"amount","type":"uint256","indexed":false,"internalType":"uint256"}],"anonymous":false},{"type":"event","name":"FailedDepositResolutionClosed","inputs":[{"name":"requestId","type":"uint256","indexed":false,"internalType":"uint256"},{"name":"originDepositId","type":"uint256","indexed":false,"internalType":"uint256"},{"name":"failedDespotiResolutionHash","type":"bytes32","indexed":false,"internalType":"bytes32"}],"anonymous":false},{"type":"event","name":"FerriedWithdrawalClosed","inputs":[{"name":"requestId","type":"uint256","indexed":false,"internalType":"uint256"},{"name":"withdrawalHash","type":"bytes32","indexed":false,"internalType":"bytes32"}],"anonymous":false},{"type":"event","name":"Initialized","inputs":[{"name":"version","type":"uint8","indexed":false,"internalType":"uint8"}],"anonymous":false},{"type":"event","name":"L2UpdateAccepted","inputs":[{"name":"root","type":"bytes32","indexed":false,"internalType":"bytes32"},{"name":"range","type":"tuple","indexed":false,"internalType":"struct IRolldownPrimitives.Range","components":[{"name":"start","type":"uint256","internalType":"uint256"},{"name":"end","type":"uint256","internalType":"uint256"}]}],"anonymous":false},{"type":"event","name":"NativeTokensWithdrawn","inputs":[{"name":"sender","type":"address","indexed":false,"internalType":"address"},{"name":"amount","type":"uint256","indexed":false,"internalType":"uint256"}],"anonymous":false},{"type":"event","name":"NewUpdaterSet","inputs":[{"name":"updater","type":"address","indexed":false,"internalType":"address"}],"anonymous":false},{"type":"event","name":"OwnershipTransferred","inputs":[{"name":"previousOwner","type":"address","indexed":true,"internalType":"address"},{"name":"newOwner","type":"address","indexed":true,"internalType":"address"}],"anonymous":false},{"type":"event","name":"Paused","inputs":[{"name":"account","type":"address","indexed":true,"internalType":"address"},{"name":"newPausedStatus","type":"uint256","indexed":false,"internalType":"uint256"}],"anonymous":false},{"type":"event","name":"PauserRegistrySet","inputs":[{"name":"pauserRegistry","type":"address","indexed":false,"internalType":"contract IPauserRegistry"},{"name":"newPauserRegistry","type":"address","indexed":false,"internalType":"contract IPauserRegistry"}],"anonymous":false},{"type":"event","name":"Unpaused","inputs":[{"name":"account","type":"address","indexed":true,"internalType":"address"},{"name":"newPausedStatus","type":"uint256","indexed":false,"internalType":"uint256"}],"anonymous":false},{"type":"event","name":"WithdrawalClosed","inputs":[{"name":"requestId","type":"uint256","indexed":false,"internalType":"uint256"},{"name":"withdrawalHash","type":"bytes32","indexed":false,"internalType":"bytes32"}],"anonymous":false},{"type":"event","name":"WithdrawalFerried","inputs":[{"name":"requestId","type":"uint256","indexed":false,"internalType":"uint256"},{"name":"amount","type":"uint256","indexed":false,"internalType":"uint256"},{"name":"recipient","type":"address","indexed":false,"internalType":"address"},{"name":"ferry","type":"address","indexed":false,"internalType":"address"},{"name":"withdrawalHash","type":"bytes32","indexed":false,"internalType":"bytes32"}],"anonymous":false}],"bytecode":{"object":"0x608060405234801561001057600080fd5b50600160d255613e2f806100256000396000f3fe6080604052600436106102305760003560e01c8063886f11951161012e578063d16544f0116100ab578063f26ee9d01161006f578063f26ee9d014610681578063f2fde38b14610697578063f9ecd01e146106b7578063fabc1cbc146106f2578063ffea632b1461071257600080fd5b8063d16544f01461032f578063de70e0b814610603578063df2ebdbb14610639578063dffbdd9f1461064e578063ef0ba5d01461066157600080fd5b8063b02c43d0116100f2578063b02c43d01461055d578063b15387061461058f578063c763e5a1146105a4578063c87c2224146105cb578063ca9b21ae146105d357600080fd5b8063886f1195146104bf5780638da5cb5b146104df578063950ac487146104fd5780639d54f4191461051d578063af26c6951461053d57600080fd5b80634bf5fec3116101bc57806361bc221a1161018057806361bc221a1461042c578063715018a61461044257806371c544611461045757806379e041f21461047c5780637fd4f845146104a957600080fd5b80634bf5fec31461034f5780634f48eedf1461036f578063595c6a67146103b85780635ac86ab7146103cd5780635c975abb1461040d57600080fd5b80630e2636a3116102035780630e2636a3146102aa5780630efe6a8b1461025757806310d67a2f146102ef578063136439dd1461030f57806347e7ef241461032f57600080fd5b806301ef69661461023557806308aba1b21461025757806308f42d40146102775780630cac57ab14610297575b600080fd5b34801561024157600080fd5b50610255610250366004613378565b610732565b005b34801561026357600080fd5b506102556102723660046133ef565b610809565b34801561028357600080fd5b50610255610292366004613424565b610866565b6102556102a5366004613474565b610ab9565b3480156102b657600080fd5b506102d273111111111111111111111111111111111111111181565b6040516001600160a01b0390911681526020015b60405180910390f35b3480156102fb57600080fd5b5061025561030a366004613490565b610f57565b34801561031b57600080fd5b5061025561032a3660046134ad565b61100a565b34801561033b57600080fd5b5061025561034a3660046134c6565b611149565b34801561035b57600080fd5b5061025561036a3660046134f2565b6111a6565b34801561037b57600080fd5b506103a361038a3660046134ad565b609d602052600090815260409020805460019091015482565b604080519283526020830191909152016102e6565b3480156103c457600080fd5b5061025561142b565b3480156103d957600080fd5b506103fd6103e8366004613536565b606654600160ff9092169190911b9081161490565b60405190151581526020016102e6565b34801561041957600080fd5b506066545b6040519081526020016102e6565b34801561043857600080fd5b5061041e60975481565b34801561044e57600080fd5b506102556114f2565b34801561046357600080fd5b50609a546102d29061010090046001600160a01b031681565b34801561048857600080fd5b5061049c610497366004613559565b611506565b6040516102e6919061362f565b3480156104b557600080fd5b5061041e60985481565b3480156104cb57600080fd5b506065546102d2906001600160a01b031681565b3480156104eb57600080fd5b506033546001600160a01b03166102d2565b34801561050957600080fd5b506102556105183660046136f2565b611920565b34801561052957600080fd5b50610255610538366004613490565b6119d7565b34801561054957600080fd5b5061041e610558366004613755565b611a5e565b34801561056957600080fd5b5061057d6105783660046134ad565b611aaf565b6040516102e6969594939291906137c4565b34801561059b57600080fd5b5061049c611b36565b3480156105b057600080fd5b50609a546105be9060ff1681565b6040516102e69190613806565b610255611b81565b3480156105df57600080fd5b506105f36105ee3660046134ad565b611bda565b6040516102e69493929190613819565b34801561060f57600080fd5b506102d261061e3660046134ad565b609e602052600090815260409020546001600160a01b031681565b34801561064557600080fd5b506102d2600181565b61025561065c3660046134ad565b611c4c565b34801561066d57600080fd5b5061041e61067c366004613842565b611ca5565b34801561068d57600080fd5b5061041e60995481565b3480156106a357600080fd5b506102556106b2366004613490565b611de1565b3480156106c357600080fd5b506106d76106d23660046134ad565b611e57565b604080518251815260209283015192810192909252016102e6565b3480156106fe57600080fd5b5061025561070d3660046134ad565b611fcb565b34801561071e57600080fd5b5061025561072d3660046138df565b612127565b6066541561075b5760405162461bcd60e51b81526004016107529061393b565b60405180910390fd5b600260d254141561077e5760405162461bcd60e51b815260040161075290613972565b600260d2556040516000906107979086906020016139ca565b6040516020818303038152906040528051906020012090506107c38560000160200135828686866122a0565b6107cc85612415565b6000908152609e6020526040902080546001600160a01b0319167311111111111111111111111111111111111111111790555050600160d2555050565b606654156108295760405162461bcd60e51b81526004016107529061393b565b600260d254141561084c5760405162461bcd60e51b815260040161075290613972565b600260d25561085c8383836125a2565b5050600160d25550565b606654156108865760405162461bcd60e51b81526004016107529061393b565b609a5461010090046001600160a01b031633146108d55760405162461bcd60e51b815260206004820152600d60248201526c2737ba103a34329037bbb732b960991b6044820152606401610752565b60995481602001351161092a5760405162461bcd60e51b815260206004820152601960248201527f557064617465206272696e6773206e6f206e65772064617461000000000000006044820152606401610752565b80356109785760405162461bcd60e51b815260206004820152601f60248201527f72616e6765206964206d7573742062652067726561746572207468616e2030006044820152606401610752565b60995461098760018335613a16565b11156109d55760405162461bcd60e51b815260206004820152601760248201527f50726576696f757320757064617465206d697373696e670000000000000000006044820152606401610752565b803560208201351015610a1a5760405162461bcd60e51b815260206004820152600d60248201526c496e76616c69642072616e676560981b6044820152606401610752565b609f8054600181019091557f0bc14066c33013fe88f66e314e4cf150b0b2d4d6451a1a51dbbd1c27cd11de28018290556000828152609d602052604090208190610a71828281358155602082013560018201555050565b505060208101356099556040517f49c158d490db9e066f01b5d4f1a094485a6598cb6c5296b4c07e46c12a1dc11c90610aad9084908490613a2d565b60405180910390a15050565b60665415610ad95760405162461bcd60e51b81526004016107529061393b565b600260d2541415610afc5760405162461bcd60e51b815260040161075290613972565b600260d255608081013560a08201351115610b295760405162461bcd60e51b815260040161075290613a4b565b6000610b3d60a08301356080840135613a16565b9050600082604051602001610b529190613a82565b60408051601f1981840301815291815281516020928301206000818152609e9093529120549091506001600160a01b031615610bc25760405162461bcd60e51b815260206004820152600f60248201526e105b1c9958591e4819995c9c9a5959608a1b6044820152606401610752565b6000818152609e6020526040902080546001600160a01b031916331790556001610bf26080850160608601613490565b6001600160a01b03161415610d885760003411610c495760405162461bcd60e51b815260206004820152601560248201527413985d1a5d99481d1bdad95b881b9bdd081cd95b9d605a1b6044820152606401610752565b813414610ccf5760405162461bcd60e51b815260206004820152604860248201527f53656e7420616d6f756e742073686f756c642065786163746c79206d6174636860448201527f207769746864726177616c2e616d6f756e74202d207769746864726177616c2e606482015267066657272795469760c41b608482015260a401610752565b610cdf6060840160408501613490565b6001600160a01b03166108fc839081150290604051600060405180830381858888f19350505050158015610d17573d6000803e3d6000fd5b507f7a9abd9eb86bdbca89cba4069a632c37d93db82e3e14ad8119a3a7812814853e602084013583610d4f6060870160408801613490565b6040805193845260208401929092526001600160a01b0316908201523360608201526080810183905260a00160405180910390a161085c565b6000610d9a6080850160608601613490565b6040516370a0823160e01b815233600482015290915083906001600160a01b038316906370a0823190602401602060405180830381865afa158015610de3573d6000803e3d6000fd5b505050506040513d601f19601f82011682018060405250810190610e079190613ade565b1015610e485760405162461bcd60e51b815260206004820152601060248201526f4e6f7420656e6f7567682066756e647360801b6044820152606401610752565b6001600160a01b0381166323b872dd33610e686060880160408901613490565b6040516001600160e01b031960e085901b1681526001600160a01b03928316600482015291166024820152604481018690526064016020604051808303816000875af1158015610ebc573d6000803e3d6000fd5b505050506040513d601f19601f82011682018060405250810190610ee09190613af7565b507f7a9abd9eb86bdbca89cba4069a632c37d93db82e3e14ad8119a3a7812814853e602085013584610f186060880160408901613490565b6040805193845260208401929092526001600160a01b0316908201523360608201526080810184905260a00160405180910390a1505050600160d25550565b606560009054906101000a90046001600160a01b03166001600160a01b031663eab66d7a6040518163ffffffff1660e01b8152600401602060405180830381865afa158015610faa573d6000803e3d6000fd5b505050506040513d601f19601f82011682018060405250810190610fce9190613b19565b6001600160a01b0316336001600160a01b031614610ffe5760405162461bcd60e51b815260040161075290613b36565b611007816127b8565b50565b60655460405163237dfb4760e11b81523360048201526001600160a01b03909116906346fbf68e90602401602060405180830381865afa158015611052573d6000803e3d6000fd5b505050506040513d601f19601f820116820180604052508101906110769190613af7565b6110925760405162461bcd60e51b815260040161075290613b80565b6066548181161461110b5760405162461bcd60e51b815260206004820152603860248201527f5061757361626c652e70617573653a20696e76616c696420617474656d70742060448201527f746f20756e70617573652066756e6374696f6e616c69747900000000000000006064820152608401610752565b606681905560405181815233907fab40a374bc51de372200a8bc981af8c9ecdc08dfdaef0bb6e09f88f3c616ef3d906020015b60405180910390a250565b606654156111695760405162461bcd60e51b81526004016107529061393b565b600260d254141561118c5760405162461bcd60e51b815260040161075290613972565b600260d25561119d828260006125a2565b5050600160d255565b606654156111c65760405162461bcd60e51b81526004016107529061393b565b600260d25414156111e95760405162461bcd60e51b815260040161075290613972565b600260d255604051611226906020808701359161120891889101613a82565b604051602081830303815290604052805190602001208585856122a0565b6000846040516020016112399190613a82565b60408051601f1981840301815291815281516020928301206000818152609e909352912080546001600160a01b03198116731111111111111111111111111111111111111111179091559091506001600160a01b0316801515806113705760016112a96080890160608a01613490565b6001600160a01b031614156112da576112d56112cb6060890160408a01613490565b88608001356128af565b611307565b6113076112ed6060890160408a01613490565b6112fd60808a0160608b01613490565b8960800135612970565b7f935f26d94be31907080aa78b3e6e2ac6d48a072af096c20268388621bbc117898760000160200135886040516020016113419190613a82565b60408051601f1981840301815282825280516020918201209383528201929092520160405180910390a161141d565b60016113826080890160608a01613490565b6001600160a01b031614156113a45761139f8288608001356128af565b6113b8565b6113b8826112fd60808a0160608b01613490565b7f2996fd546c37d74c170466ea6aa4a308e3ca2d4aa689e6e9e32994db5039cc0e8760000160200135886040516020016113f29190613a82565b60408051601f1981840301815282825280516020918201209383528201929092520160405180910390a15b5050600160d2555050505050565b60655460405163237dfb4760e11b81523360048201526001600160a01b03909116906346fbf68e90602401602060405180830381865afa158015611473573d6000803e3d6000fd5b505050506040513d601f19601f820116820180604052508101906114979190613af7565b6114b35760405162461bcd60e51b815260040161075290613b80565b600019606681905560405190815233907fab40a374bc51de372200a8bc981af8c9ecdc08dfdaef0bb6e09f88f3c616ef3d9060200160405180910390a2565b6114fa612aa5565b6115046000612aff565b565b61152b6040805160608101909152806000815260200160608152602001606081525090565b6115506040805160608101909152806000815260200160608152602001606081525090565b609a54819060ff1660018111156115695761156961357b565b9081600181111561157c5761157c61357b565b9052506000808515801561158e575084155b1561159e5782935050505061191a565b855b858111611643576000818152609c6020526040902060010154156115d057826115c881613bc8565b935050611631565b6000818152609b6020526040902060010154156115f957816115f181613bc8565b925050611631565b60405162461bcd60e51b815260206004820152600d60248201526c496e76616c69642072616e676560981b6044820152606401610752565b8061163b81613bc8565b9150506115a0565b508167ffffffffffffffff81111561165d5761165d613be3565b6040519080825280602002602001820160405280156116cb57816020015b6040805161010081018252600060c0820181815260e0830182905282526020808301829052928201819052606082018190526080820181905260a0820152825260001990920191018161167b5790505b5060208401528067ffffffffffffffff8111156116ea576116ea613be3565b60405190808252806020026020018201604052801561174957816020015b6040805160c08101825260006080820181815260a0830182905282526020808301829052928201819052606082015282526000199092019101816117085790505b506040840152506000905080855b858111611913576000818152609c602052604090206001015415611841576000818152609c602052604090819020815161010081019092528054829060c08201908390829060ff1660018111156117b0576117b061357b565b60018111156117c1576117c161357b565b81526001919091015460209182015290825260028301546001600160a01b03908116838301526003840154166040830152600483015460608301526005830154608083015260069092015460a0909101528501518461181f81613bc8565b95508151811061183157611831613bf9565b6020026020010181905250611901565b6000818152609b6020526040902060020154156118fc576000818152609b602052604090819020815160c081019092528054829060808201908390829060ff1660018111156118925761189261357b565b60018111156118a3576118a361357b565b815260019190910154602091820152908252600283015490820152600382015460ff161515604080830191909152600490920154606090910152850151836118ea81613bc8565b94508151811061183157611831613bf9565b611913565b8061190b81613bc8565b915050611757565b5091925050505b92915050565b606654156119405760405162461bcd60e51b81526004016107529061393b565b600260d25414156119635760405162461bcd60e51b815260040161075290613972565b600260d25560405160009061197c908690602001613c0f565b6040516020818303038152906040528051906020012090506119ce8560000160200135866040516020016119b09190613c0f565b604051602081830303815290604052805190602001208686866122a0565b6107cc85612b51565b6119df612aa5565b606654156119ff5760405162461bcd60e51b81526004016107529061393b565b609a8054610100600160a81b0319166101006001600160a01b038481168202929092179283905560405192041681527f1b0f2f500df596b42b73e80dbec6a1fb570f01978a586723f988a5fc54d773a19060200160405180910390a150565b600080825b63ffffffff811615611a8e57611a7a600282613c63565b9050611a87600183613c86565b9150611a63565b611aa382888a8989600061067c60018c613cae565b98975050505050505050565b609c6020526000908152604090819020815180830190925280549091908290829060ff166001811115611ae457611ae461357b565b6001811115611af557611af561357b565b815260019190910154602090910152600282015460038301546004840154600585015460069095015493946001600160a01b03938416949290931692909186565b611b5b6040805160608101909152806000815260200160608152602001606081525090565b611b7c6098546001611b6d9190613cd3565b60016097546104979190613a16565b905090565b600260d2541415611ba45760405162461bcd60e51b815260040161075290613972565b600260d25560665415611bc95760405162461bcd60e51b81526004016107529061393b565b611bd36000612c69565b600160d255565b609b6020526000908152604090819020815180830190925280549091908290829060ff166001811115611c0f57611c0f61357b565b6001811115611c2057611c2061357b565b815260019190910154602090910152600282015460038301546004909301549192909160ff9091169084565b600260d2541415611c6f5760405162461bcd60e51b815260040161075290613972565b600260d25560665415611c945760405162461bcd60e51b81526004016107529061393b565b611c9d81612c69565b50600160d255565b6000611cb2600288613ceb565b63ffffffff16611d37578163ffffffff168763ffffffff161415611cd557611d95565b85858585611ce281613d0e565b965063ffffffff16818110611cf957611cf9613bf9565b90506020020135604051602001611d1a929190918252602082015260400190565b604051602081830303815290604052805190602001209550611d95565b848484611d4381613d0e565b955063ffffffff16818110611d5a57611d5a613bf9565b9050602002013586604051602001611d7c929190918252602082015260400190565b6040516020818303038152906040528051906020012095505b8763ffffffff1660011415611dab575084611dd6565b611dd3611db960018a613cae565b611dc460028a613c63565b8888888861067c60028a613c63565b90505b979650505050505050565b611de9612aa5565b6001600160a01b038116611e4e5760405162461bcd60e51b815260206004820152602660248201527f4f776e61626c653a206e6577206f776e657220697320746865207a65726f206160448201526564647265737360d01b6064820152608401610752565b61100781612aff565b6040805180820190915260008082526020820152609954821115611eb25760405162461bcd60e51b8152602060048201526012602482015271125b9d985b1a59081c995c5d595cdd081a5960721b6044820152606401610752565b609f54611ed2575050604080518082019091526000808252602082015290565b609f54600090611ee490600190613a16565b90505b609d6000609f8381548110611efe57611efe613bf9565b90600052602060002001548152602001908152602001600020600001548310158015611f5d5750609d6000609f8381548110611f3c57611f3c613bf9565b90600052602060002001548152602001908152602001600020600101548311155b15611fb957609d6000609f8381548110611f7957611f79613bf9565b9060005260206000200154815260200190815260200160002060405180604001604052908160008201548152602001600182015481525050915050919050565b80611fc381613d32565b915050611ee7565b606560009054906101000a90046001600160a01b03166001600160a01b031663eab66d7a6040518163ffffffff1660e01b8152600401602060405180830381865afa15801561201e573d6000803e3d6000fd5b505050506040513d601f19601f820116820180604052508101906120429190613b19565b6001600160a01b0316336001600160a01b0316146120725760405162461bcd60e51b815260040161075290613b36565b6066541981196066541916146120f05760405162461bcd60e51b815260206004820152603860248201527f5061757361626c652e756e70617573653a20696e76616c696420617474656d7060448201527f7420746f2070617573652066756e6374696f6e616c69747900000000000000006064820152608401610752565b606681905560405181815233907f3582d1828e26bf56bd801502bc021ac0bc8afb57c826e4986b45593c8fad389c9060200161113e565b600054610100900460ff16158080156121475750600054600160ff909116105b806121615750303b158015612161575060005460ff166001145b6121c45760405162461bcd60e51b815260206004820152602e60248201527f496e697469616c697a61626c653a20636f6e747261637420697320616c72656160448201526d191e481a5b9a5d1a585b1a5e995960921b6064820152608401610752565b6000805460ff1916600117905580156121e7576000805461ff0019166101001790555b6121f2856000612e42565b6121fb84612aff565b6000609881905560016097819055609991909155609a8054859260ff1990911690838181111561222d5761222d61357b565b0217905550609a8054610100600160a81b0319166101006001600160a01b038516021790558015612299576000805461ff0019169055604051600181527f7f26b83ff96e1f2b6a682f133852f6798a09c465da95921460cefb3847402498906020015b60405180910390a15b5050505050565b6000838152609d60209081526040918290208251808401909352805480845260019091015491830191909152158015906122dd5750602081015115155b61231f5760405162461bcd60e51b8152602060048201526013602482015272155b9adb9bdddb881b595c9adb19481c9bdbdd606a1b6044820152606401610752565b6000858152609e60205260409020546001600160a01b0316731111111111111111111111111111111111111111141561238e5760405162461bcd60e51b8152602060048201526011602482015270105b1c9958591e481c1c9bd8d95cdcd959607a1b6044820152606401610752565b805160208201516000916123a191613a16565b6123ac906001613cd3565b82519091506000906123be9089613a16565b9050856123ce8883888887611a5e565b1461240b5760405162461bcd60e51b815260206004820152600d60248201526c24b73b30b634b210383937b7b360991b6044820152606401610752565b5050505050505050565b600060016097546124269190613a16565b6060830135111561243957506001612486565b600061244d60408401356060850135611506565b9050600081604051602001612462919061362f565b60408051601f19818403018152919052805160209091012060808501351415925050505b6040805160c081019091524290600090806080810180848152602001609760008154809291906124b590613bc8565b909155509052815260208681013581830152851515604080840191909152606090920185905282518101516000908152609b909152208151805182549394508493839190829060ff1916600183818111156125125761251261357b565b021790555060209182015160019091015582810151600283015560408084015160038401805491151560ff199092169190911790556060909301516004909201919091558201518282015191517fd16f202ac5905ff5d1851f4805ffe56d1212db32fa989881d0044b9cf0f72776926125949282521515602082015260400190565b60405180910390a150505050565b818111156125c25760405162461bcd60e51b815260040161075290613a4b565b6001600160a01b0383166126105760405162461bcd60e51b8152602060048201526015602482015274496e76616c696420746f6b656e206164647265737360581b6044820152606401610752565b600082116126305760405162461bcd60e51b815260040161075290613d49565b33836126476001600160a01b038216833087612f28565b60408051610100810190915242906000908060c08101808481526020016097600081548092919061267790613bc8565b90915550905281526001600160a01b03808716602080840191909152908a16604080840191909152606083018a90526080830186905260a090920188905282518101516000908152609c909152208151805182549394508493839190829060ff1916600183818111156126ec576126ec61357b565b021790555060209182015160019190910155828101516002830180546001600160a01b03199081166001600160a01b0393841617909155604080860151600386018054909316908416179091556060808601516004860155608080870151600587015560a096870151600690960195909555865184015182519081528a841694810194909452918c169083015281018990529081018790527f225305ecb66fa9b9b29f8dead9baea365a6c225d639dfd866e782ccb63e2f05b910160405180910390a150505050505050565b6001600160a01b0381166128465760405162461bcd60e51b815260206004820152604960248201527f5061757361626c652e5f73657450617573657252656769737472793a206e657760448201527f50617573657252656769737472792063616e6e6f7420626520746865207a65726064820152686f206164647265737360b81b608482015260a401610752565b606554604080516001600160a01b03928316815291831660208301527f6e9fcd539896fca60e8b0f01dd580233e48a6b0f7df013b89ba7f565869acdb6910160405180910390a1606580546001600160a01b0319166001600160a01b0392909216919091179055565b30318111156129005760405162461bcd60e51b815260206004820152601c60248201527f4e6f7420656e6f7567682066756e647320696e20636f6e7472616374000000006044820152606401610752565b600081116129205760405162461bcd60e51b815260040161075290613d49565b604080516001600160a01b0384168152602081018390527fe0495355c1e04c512584521854d222d239a4b782b39ac8a7e835a34f5ec7c1e1910160405180910390a161296c8282612f99565b5050565b6040516370a0823160e01b8152306004820152829082906001600160a01b038316906370a0823190602401602060405180830381865afa1580156129b8573d6000803e3d6000fd5b505050506040513d601f19601f820116820180604052508101906129dc9190613ade565b1015612a2a5760405162461bcd60e51b815260206004820152601c60248201527f4e6f7420656e6f7567682066756e647320696e20636f6e7472616374000000006044820152606401610752565b60008211612a4a5760405162461bcd60e51b815260040161075290613d49565b612a5e6001600160a01b03821685846130b7565b604080516001600160a01b038087168252851660208201529081018390527ee763f7778b8ceef7270c89b7d1df1008b0e482da39c43831417733af96fb0d90606001612594565b6033546001600160a01b031633146115045760405162461bcd60e51b815260206004820181905260248201527f4f776e61626c653a2063616c6c6572206973206e6f7420746865206f776e65726044820152606401610752565b603380546001600160a01b038381166001600160a01b0319831681179093556040519116919082907f8be0079c531659141344cd1fd0a4f28419497f9722a3daafe3b4186f6b6457e090600090a35050565b6040808201356000908152609c602052908120600281015490916001600160a01b0390911690612b876080850160608601613490565b6001600160a01b031614612ba857612ba56080840160608501613490565b90505b60038201546001600160a01b031660011415612bd157612bcc8183600401546128af565b612bf2565b60038201546004830154612bf29183916001600160a01b0390911690612970565b7f13750c731f87c15242874ce74bf4649502cc8e7c829067ce846505acdb96289d8360000160200135846040013585604051602001612c319190613c0f565b60408051601f1981840301815282825280516020918201209483528201929092529081019190915260600160405180910390a1505050565b34811115612c895760405162461bcd60e51b815260040161075290613a4b565b60003411612cd95760405162461bcd60e51b815260206004820181905260248201527f6d73672076616c7565206d7573742062652067726561746572207468617420306044820152606401610752565b6040805161010081019091523390349042906000908060c081018084815260200160976000815480929190612d0d90613bc8565b90915550905281526001600160a01b03861660208083019190915260016040808401829052606084018890526080840187905260a090930189905283518201516000908152609c9092529190208251805182549495508594929391928492839160ff1916908381811115612d8357612d8361357b565b0217905550602091820151600191820155838201516002840180546001600160a01b03199081166001600160a01b0393841617909155604080870151600387018054909316908416179091556060808701516004870155608080880151600588015560a09788015160069097019690965587518501518251908152928b16948301949094528101919091529081018690529081018790527f225305ecb66fa9b9b29f8dead9baea365a6c225d639dfd866e782ccb63e2f05b9101612290565b6065546001600160a01b0316158015612e6357506001600160a01b03821615155b612ee55760405162461bcd60e51b815260206004820152604760248201527f5061757361626c652e5f696e697469616c697a655061757365723a205f696e6960448201527f7469616c697a6550617573657228292063616e206f6e6c792062652063616c6c6064820152666564206f6e636560c81b608482015260a401610752565b606681905560405181815233907fab40a374bc51de372200a8bc981af8c9ecdc08dfdaef0bb6e09f88f3c616ef3d9060200160405180910390a261296c826127b8565b6040516001600160a01b0380851660248301528316604482015260648101829052612f939085906323b872dd60e01b906084015b60408051601f198184030181529190526020810180516001600160e01b03166001600160e01b0319909316929092179091526130e7565b50505050565b80471015612fe95760405162461bcd60e51b815260206004820152601d60248201527f416464726573733a20696e73756666696369656e742062616c616e63650000006044820152606401610752565b6000826001600160a01b03168260405160006040518083038185875af1925050503d8060008114613036576040519150601f19603f3d011682016040523d82523d6000602084013e61303b565b606091505b50509050806130b25760405162461bcd60e51b815260206004820152603a60248201527f416464726573733a20756e61626c6520746f2073656e642076616c75652c207260448201527f6563697069656e74206d617920686176652072657665727465640000000000006064820152608401610752565b505050565b6040516001600160a01b0383166024820152604481018290526130b290849063a9059cbb60e01b90606401612f5c565b600061313c826040518060400160405280602081526020017f5361666545524332303a206c6f772d6c6576656c2063616c6c206661696c6564815250856001600160a01b03166131b99092919063ffffffff16565b8051909150156130b2578080602001905181019061315a9190613af7565b6130b25760405162461bcd60e51b815260206004820152602a60248201527f5361666545524332303a204552433230206f7065726174696f6e20646964206e6044820152691bdd081cdd58d8d9595960b21b6064820152608401610752565b60606131c884846000856131d2565b90505b9392505050565b6060824710156132335760405162461bcd60e51b815260206004820152602660248201527f416464726573733a20696e73756666696369656e742062616c616e636520666f6044820152651c8818d85b1b60d21b6064820152608401610752565b6001600160a01b0385163b61328a5760405162461bcd60e51b815260206004820152601d60248201527f416464726573733a2063616c6c20746f206e6f6e2d636f6e74726163740000006044820152606401610752565b600080866001600160a01b031685876040516132a69190613daa565b60006040518083038185875af1925050503d80600081146132e3576040519150601f19603f3d011682016040523d82523d6000602084013e6132e8565b606091505b5091509150611dd6828286606083156133025750816131cb565b8251156133125782518084602001fd5b8160405162461bcd60e51b81526004016107529190613dc6565b60008083601f84011261333e57600080fd5b50813567ffffffffffffffff81111561335657600080fd5b6020830191508360208260051b850101111561337157600080fd5b9250929050565b60008060008084860360e081121561338f57600080fd5b60a081121561339d57600080fd5b5084935060a0850135925060c085013567ffffffffffffffff8111156133c257600080fd5b6133ce8782880161332c565b95989497509550505050565b6001600160a01b038116811461100757600080fd5b60008060006060848603121561340457600080fd5b833561340f816133da565b95602085013595506040909401359392505050565b600080828403606081121561343857600080fd5b833592506040601f198201121561344e57600080fd5b506020830190509250929050565b600060c0828403121561346e57600080fd5b50919050565b600060c0828403121561348657600080fd5b6131cb838361345c565b6000602082840312156134a257600080fd5b81356131cb816133da565b6000602082840312156134bf57600080fd5b5035919050565b600080604083850312156134d957600080fd5b82356134e4816133da565b946020939093013593505050565b600080600080610100858703121561350957600080fd5b613513868661345c565b935060c0850135925060e085013567ffffffffffffffff8111156133c257600080fd5b60006020828403121561354857600080fd5b813560ff811681146131cb57600080fd5b6000806040838503121561356c57600080fd5b50508035926020909101359150565b634e487b7160e01b600052602160045260246000fd5b6002811061100757634e487b7160e01b600052602160045260246000fd5b80516135ba81613591565b8252602090810151910152565b600081518084526020808501945080840160005b838110156136245781516135f08882516135af565b8084015160408981019190915281015115156060808a01919091520151608088015260a090960195908201906001016135db565b509495945050505050565b600060208083526080808401855161364681613591565b85840152858301516060604080880182905282519384905260a093928601928489019060005b818110156136c75785516136818482516135af565b808a01516001600160a01b03908116858701528582015116868501528581015189850152888101518885015287015160c08401529488019460e09092019160010161366c565b505089820151898203601f1901848b015296506136e481886135c7565b9a9950505050505050505050565b60008060008084860360c081121561370957600080fd5b608081121561371757600080fd5b508493506080850135925060a085013567ffffffffffffffff8111156133c257600080fd5b803563ffffffff8116811461375057600080fd5b919050565b60008060008060006080868803121561376d57600080fd5b8535945061377d6020870161373c565b9350604086013567ffffffffffffffff81111561379957600080fd5b6137a58882890161332c565b90945092506137b890506060870161373c565b90509295509295909350565b60e081016137d282896135af565b6001600160a01b039687166040830152949095166060860152608085019290925260a084015260c090920191909152919050565b6020810161381383613591565b91905290565b60a0810161382782876135af565b60408201949094529115156060830152608090910152919050565b600080600080600080600060c0888a03121561385d57600080fd5b6138668861373c565b96506138746020890161373c565b955060408801359450606088013567ffffffffffffffff81111561389757600080fd5b6138a38a828b0161332c565b90955093506138b690506080890161373c565b91506138c460a0890161373c565b905092959891949750929550565b6002811061100757600080fd5b600080600080608085870312156138f557600080fd5b8435613900816133da565b93506020850135613910816133da565b92506040850135613920816138d2565b91506060850135613930816133da565b939692955090935050565b6020808252601c908201527f5061757361626c653a20636f6e74726163742069732070617573656400000000604082015260600190565b6020808252601f908201527f5265656e7472616e637947756172643a207265656e7472616e742063616c6c00604082015260600190565b80356139b4816138d2565b6139bd81613591565b8252602090810135910152565b60a081016139d882846139a9565b6139f2604083016040850180358252602090810135910152565b608092830135919092015290565b634e487b7160e01b600052601160045260246000fd5b600082821015613a2857613a28613a00565b500390565b828152606081016131cb602083018480358252602090810135910152565b6020808252601c908201527f5469702065786365656473206465706f736974656420616d6f756e7400000000604082015260600190565b60c08101613a9082846139a9565b6040830135613a9e816133da565b6001600160a01b039081166040840152606084013590613abd826133da565b1660608301526080838101359083015260a092830135929091019190915290565b600060208284031215613af057600080fd5b5051919050565b600060208284031215613b0957600080fd5b815180151581146131cb57600080fd5b600060208284031215613b2b57600080fd5b81516131cb816133da565b6020808252602a908201527f6d73672e73656e646572206973206e6f74207065726d697373696f6e6564206160408201526939903ab73830bab9b2b960b11b606082015260800190565b60208082526028908201527f6d73672e73656e646572206973206e6f74207065726d697373696f6e6564206160408201526739903830bab9b2b960c11b606082015260800190565b6000600019821415613bdc57613bdc613a00565b5060010190565b634e487b7160e01b600052604160045260246000fd5b634e487b7160e01b600052603260045260246000fd5b60808101613c1d82846139a9565b604083013560408301526060830135613c35816133da565b6001600160a01b031660609290920191909152919050565b634e487b7160e01b600052601260045260246000fd5b600063ffffffff80841680613c7a57613c7a613c4d565b92169190910492915050565b600063ffffffff808316818516808303821115613ca557613ca5613a00565b01949350505050565b600063ffffffff83811690831681811015613ccb57613ccb613a00565b039392505050565b60008219821115613ce657613ce6613a00565b500190565b600063ffffffff80841680613d0257613d02613c4d565b92169190910692915050565b600063ffffffff80831681811415613d2857613d28613a00565b6001019392505050565b600081613d4157613d41613a00565b506000190190565b6020808252818101527f416d6f756e74206d7573742062652067726561746572207468616e207a65726f604082015260600190565b60005b83811015613d99578181015183820152602001613d81565b83811115612f935750506000910152565b60008251613dbc818460208701613d7e565b9190910192915050565b6020815260008251806020840152613de5816040850160208701613d7e565b601f01601f1916919091016040019291505056fea264697066735822122072c4afeff23967a92a00574189bf43418580bf466171a9fd81bda68c5204f29c64736f6c634300080c0033","linkReferences":{}},"methodIdentifiers":{"CLOSED()":"0e2636a3","NATIVE_TOKEN_ADDRESS()":"df2ebdbb","calculate_root(bytes32,uint32,bytes32[],uint32)":"af26c695","calculate_root_impl(uint32,uint32,bytes32,bytes32[],uint32,uint32)":"ef0ba5d0","cancelResolutions(uint256)":"ca9b21ae","chain()":"c763e5a1","close_cancel(((uint8,uint256),(uint256,uint256),bytes32),bytes32,bytes32[])":"01ef6966","close_deposit_refund(((uint8,uint256),uint256,address),bytes32,bytes32[])":"950ac487","close_withdrawal(((uint8,uint256),address,address,uint256,uint256),bytes32,bytes32[])":"4bf5fec3","counter()":"61bc221a","deposit(address,uint256)":"47e7ef24","deposit(address,uint256,uint256)":"0efe6a8b","deposit_erc20(address,uint256)":"d16544f0","deposit_erc20(address,uint256,uint256)":"08aba1b2","deposit_native()":"c87c2224","deposit_native(uint256)":"dffbdd9f","deposits(uint256)":"b02c43d0","ferry_withdrawal(((uint8,uint256),address,address,uint256,uint256))":"0cac57ab","find_l2_batch(uint256)":"f9ecd01e","getPendingRequests(uint256,uint256)":"79e041f2","getUpdateForL2()":"b1538706","initialize(address,address,uint8,address)":"ffea632b","lastProcessedUpdate_origin_l1()":"7fd4f845","lastProcessedUpdate_origin_l2()":"f26ee9d0","merkleRootRange(bytes32)":"4f48eedf","owner()":"8da5cb5b","pause(uint256)":"136439dd","pauseAll()":"595c6a67","paused()":"5c975abb","paused(uint8)":"5ac86ab7","pauserRegistry()":"886f1195","processedL2Requests(bytes32)":"de70e0b8","renounceOwnership()":"715018a6","setPauserRegistry(address)":"10d67a2f","setUpdater(address)":"9d54f419","transferOwnership(address)":"f2fde38b","unpause(uint256)":"fabc1cbc","update_l1_from_l2(bytes32,(uint256,uint256))":"08f42d40","updaterAccount()":"71c54461"},"id":139}