{
  "abi": [
    {
      "inputs": [],
      "stateMutability": "nonpayable",
      "type": "constructor"
    },
    {
      "anonymous": false,
      "inputs": [
        {
          "indexed": false,
          "internalType": "uint256",
          "name": "requestId",
          "type": "uint256"
        },
        {
          "indexed": false,
          "internalType": "address",
          "name": "depositRecipient",
          "type": "address"
        },
        {
          "indexed": false,
          "internalType": "address",
          "name": "tokenAddress",
          "type": "address"
        },
        {
          "indexed": false,
          "internalType": "uint256",
          "name": "amount",
          "type": "uint256"
        }
      ],
      "name": "DepositAcceptedIntoQueue",
      "type": "event"
    },
    {
      "anonymous": false,
      "inputs": [
        {
          "indexed": false,
          "internalType": "uint256",
          "name": "requestId",
          "type": "uint256"
        },
        {
          "indexed": false,
          "internalType": "uint256",
          "name": "originalRequestId",
          "type": "uint256"
        },
        {
          "indexed": false,
          "internalType": "bool",
          "name": "cancelJustified",
          "type": "bool"
        }
      ],
      "name": "DisputeResolutionAcceptedIntoQueue",
      "type": "event"
    },
    {
      "anonymous": false,
      "inputs": [
        {
          "indexed": false,
          "internalType": "address",
          "name": "withdrawRecipient",
          "type": "address"
        },
        {
          "indexed": false,
          "internalType": "address",
          "name": "tokenAddress",
          "type": "address"
        },
        {
          "indexed": false,
          "internalType": "uint256",
          "name": "amount",
          "type": "uint256"
        }
      ],
      "name": "FundsWithdrawn",
      "type": "event"
    },
    {
      "anonymous": false,
      "inputs": [
        {
          "indexed": false,
          "internalType": "uint256",
          "name": "requestId",
          "type": "uint256"
        },
        {
          "indexed": false,
          "internalType": "uint256[]",
          "name": "l2UpdatesToRemove",
          "type": "uint256[]"
        }
      ],
      "name": "L2UpdatesToRemovedAcceptedIntoQueue",
      "type": "event"
    },
    {
      "anonymous": false,
      "inputs": [
        {
          "indexed": false,
          "internalType": "uint256",
          "name": "requestId",
          "type": "uint256"
        },
        {
          "indexed": false,
          "internalType": "address",
          "name": "withdrawRecipient",
          "type": "address"
        },
        {
          "indexed": false,
          "internalType": "address",
          "name": "tokenAddress",
          "type": "address"
        },
        {
          "indexed": false,
          "internalType": "uint256",
          "name": "amount",
          "type": "uint256"
        }
      ],
      "name": "WithdrawAcceptedIntoQueue",
      "type": "event"
    },
    {
      "anonymous": false,
      "inputs": [
        {
          "indexed": false,
          "internalType": "bytes32",
          "name": "cancelHash",
          "type": "bytes32"
        },
        {
          "indexed": false,
          "internalType": "bytes32",
          "name": "calculatedHash",
          "type": "bytes32"
        }
      ],
      "name": "cancelAndCalculatedHash",
      "type": "event"
    },
    {
      "inputs": [
        {
          "internalType": "uint256",
          "name": "",
          "type": "uint256"
        }
      ],
      "name": "cancelResolutions",
      "outputs": [
        {
          "internalType": "uint256",
          "name": "l2RequestId",
          "type": "uint256"
        },
        {
          "internalType": "bool",
          "name": "cancelJustified",
          "type": "bool"
        }
      ],
      "stateMutability": "view",
      "type": "function"
    },
    {
      "inputs": [],
      "name": "counter",
      "outputs": [
        {
          "internalType": "uint256",
          "name": "",
          "type": "uint256"
        }
      ],
      "stateMutability": "view",
      "type": "function"
    },
    {
      "inputs": [
        {
          "internalType": "address",
          "name": "tokenAddress",
          "type": "address"
        },
        {
          "internalType": "uint256",
          "name": "amount",
          "type": "uint256"
        }
      ],
      "name": "deposit",
      "outputs": [],
      "stateMutability": "nonpayable",
      "type": "function"
    },
    {
      "inputs": [],
      "name": "getUpdateForL2",
      "outputs": [
        {
          "components": [
            {
              "internalType": "uint256",
              "name": "lastProccessedRequestOnL1",
              "type": "uint256"
            },
            {
              "internalType": "uint256",
              "name": "lastAcceptedRequestOnL1",
              "type": "uint256"
            },
            {
              "internalType": "uint256",
              "name": "offset",
              "type": "uint256"
            },
            {
              "internalType": "enum RollDown.PendingRequestType[]",
              "name": "order",
              "type": "uint8[]"
            },
            {
              "components": [
                {
                  "internalType": "address",
                  "name": "withdrawRecipient",
                  "type": "address"
                },
                {
                  "internalType": "address",
                  "name": "tokenAddress",
                  "type": "address"
                },
                {
                  "internalType": "uint256",
                  "name": "amount",
                  "type": "uint256"
                }
              ],
              "internalType": "struct RollDown.Withdraw[]",
              "name": "pendingWithdraws",
              "type": "tuple[]"
            },
            {
              "components": [
                {
                  "internalType": "address",
                  "name": "depositRecipient",
                  "type": "address"
                },
                {
                  "internalType": "address",
                  "name": "tokenAddress",
                  "type": "address"
                },
                {
                  "internalType": "uint256",
                  "name": "amount",
                  "type": "uint256"
                }
              ],
              "internalType": "struct RollDown.Deposit[]",
              "name": "pendingDeposits",
              "type": "tuple[]"
            },
            {
              "components": [
                {
                  "internalType": "uint256",
                  "name": "l2RequestId",
                  "type": "uint256"
                },
                {
                  "internalType": "bool",
                  "name": "cancelJustified",
                  "type": "bool"
                }
              ],
              "internalType": "struct RollDown.CancelResolution[]",
              "name": "pendingCancelResultions",
              "type": "tuple[]"
            },
            {
              "components": [
                {
                  "internalType": "uint256[]",
                  "name": "l2UpdatesToRemove",
                  "type": "uint256[]"
                }
              ],
              "internalType": "struct RollDown.L2UpdatesToRemove[]",
              "name": "pendingL2UpdatesToRemove",
              "type": "tuple[]"
            }
          ],
          "internalType": "struct RollDown.L1Update",
          "name": "",
          "type": "tuple"
        }
      ],
      "stateMutability": "view",
      "type": "function"
    },
    {
      "inputs": [],
      "name": "lastProcessedUpdate_origin_l1",
      "outputs": [
        {
          "internalType": "uint256",
          "name": "",
          "type": "uint256"
        }
      ],
      "stateMutability": "view",
      "type": "function"
    },
    {
      "inputs": [],
      "name": "lastProcessedUpdate_origin_l2",
      "outputs": [
        {
          "internalType": "uint256",
          "name": "",
          "type": "uint256"
        }
      ],
      "stateMutability": "view",
      "type": "function"
    },
    {
      "inputs": [
        {
          "components": [
            {
              "components": [
                {
                  "internalType": "bytes",
                  "name": "updater",
                  "type": "bytes"
                },
                {
                  "internalType": "bytes",
                  "name": "canceler",
                  "type": "bytes"
                },
                {
                  "internalType": "uint256",
                  "name": "lastProccessedRequestOnL1",
                  "type": "uint256"
                },
                {
                  "internalType": "uint256",
                  "name": "lastAcceptedRequestOnL1",
                  "type": "uint256"
                },
                {
                  "internalType": "bytes32",
                  "name": "hash",
                  "type": "bytes32"
                }
              ],
              "internalType": "struct RollDown.Cancel[]",
              "name": "cancles",
              "type": "tuple[]"
            },
            {
              "components": [
                {
                  "internalType": "uint256",
                  "name": "requestId",
                  "type": "uint256"
                },
                {
                  "internalType": "enum RollDown.UpdateType",
                  "name": "updateType",
                  "type": "uint8"
                },
                {
                  "internalType": "bool",
                  "name": "status",
                  "type": "bool"
                }
              ],
              "internalType": "struct RollDown.RequestResult[]",
              "name": "results",
              "type": "tuple[]"
            }
          ],
          "internalType": "struct RollDown.L2Update",
          "name": "inputArray",
          "type": "tuple"
        }
      ],
      "name": "update_l1_from_l2",
      "outputs": [],
      "stateMutability": "nonpayable",
      "type": "function"
    },
    {
      "inputs": [
        {
          "internalType": "address",
          "name": "tokenAddress",
          "type": "address"
        },
        {
          "internalType": "uint256",
          "name": "amount",
          "type": "uint256"
        }
      ],
      "name": "withdraw",
      "outputs": [],
      "stateMutability": "nonpayable",
      "type": "function"
    }
  ],
  "bytecode": {
    "object": "0x608060405234801561001057600080fd5b506000600281905560018055600381905580546001600160a01b03191633179055611817806100406000396000f3fe608060405234801561001057600080fd5b50600436106100885760003560e01c8063b15387061161005b578063b1538706146100da578063ca9b21ae146100ef578063f26ee9d01461012e578063f3fef3a31461013757600080fd5b806334b038051461008d57806347e7ef24146100a257806361bc221a146100b55780637fd4f845146100d1575b600080fd5b6100a061009b366004611333565b61014a565b005b6100a06100b0366004611375565b610619565b6100be60015481565b6040519081526020015b60405180910390f35b6100be60025481565b6100e2610863565b6040516100c8919061154b565b6101196100fd366004611607565b6004602052600090815260409020805460019091015460ff1682565b604080519283529015156020830152016100c8565b6100be60035481565b6100a0610145366004611375565b61088a565b6000546001600160a01b031633146101995760405162461bcd60e51b815260206004820152600d60248201526c2737ba103a34329037bbb732b960991b60448201526064015b60405180910390fd5b60016101a86020830183611620565b90501015806101c3575060016101be8280611670565b905010155b6102195760405162461bcd60e51b815260206004820152602160248201527f4172726179206d7573742068617665206174206c6561737420312075706461746044820152606560f81b6064820152608401610190565b6000806102296020840184611620565b905067ffffffffffffffff811115610243576102436116ba565b60405190808252806020026020018201604052801561026c578160200160208202803683370190505b509050600061027e6020850185611620565b600081811061028f5761028f6116d0565b60600291909101359150600190505b6102ab6020860186611620565b9050811015610363576102bf8260016116fc565b6102cc6020870187611620565b838181106102dc576102dc6116d0565b90506060020160000135146103335760405162461bcd60e51b815260206004820152601960248201527f526571756573747320617265206e6f7420696e206f72646572000000000000006044820152606401610190565b6103406020860186611620565b82818110610350576103506116d0565b606002919091013592505060010161029e565b5060005b6103746020860186611620565b90508110156104db573661038b6020870187611620565b8381811061039b5761039b6116d0565b90506060020190506002548160000135116103b657506104d3565b60006103c8604083016020840161170f565b60038111156103d9576103d96113ad565b0361040e57803584866103eb81611730565b9750815181106103fd576103fd6116d0565b6020026020010181815250506104d1565b6001610420604083016020840161170f565b6003811115610431576104316113ad565b0361045d57610450813561044b606084016040850161175a565b610a1b565b803584866103eb81611730565b600261046f604083016020840161170f565b6003811115610480576104806113ad565b0361049257803584866103eb81611730565b60405162461bcd60e51b8152602060048201526014602482015273756e6b6e6f776e2072657175657374207479706560601b6044820152606401610190565b505b600101610367565b5082156106135760008367ffffffffffffffff8111156104fd576104fd6116ba565b604051908082528060200260200182016040528015610526578160200160208202803683370190505b50905060005b8481101561057357838181518110610546576105466116d0565b6020026020010151828281518110610560576105606116d0565b602090810291909101015260010161052c565b506001805482916007916000918261058a83611730565b91905055815260200190815260200160002060000190805190602001906105b292919061128e565b508051600260008282546105c691906116fc565b9091555050600180547f09b30365986269e3939307e7ca7b7b7421a8ad08ef18bb766c668d27cbc2aef9916105fa91611777565b8260405161060992919061178a565b60405180910390a1505b50505050565b6001600160a01b0382166106675760405162461bcd60e51b8152602060048201526015602482015274496e76616c696420746f6b656e206164647265737360581b6044820152606401610190565b600081116106b75760405162461bcd60e51b815260206004820181905260248201527f416d6f756e74206d7573742062652067726561746572207468616e207a65726f6044820152606401610190565b6040516323b872dd60e01b815233600482018190526001600160a01b038416602483018190526044830184905290918491906323b872dd906064016020604051808303816000875af1158015610711573d6000803e3d6000fd5b505050506040513d601f19601f8201168201806040525081019061073591906117ab565b6107795760405162461bcd60e51b8152602060048201526015602482015274151bdad95b881d1c985b9cd9995c8819985a5b1959605a1b6044820152606401610190565b604080516060810182526001600160a01b03808516825286166020820152908101849052600180548291600591600091826107b383611730565b9091555081526020808201929092526040908101600020835181546001600160a01b039182166001600160a01b03199182161783559385015160018084018054929093169190951617905592015160029092019190915580547fe28491c2da97a9923c92f6590a040dfc143fe636e8545356cdab0a796e1acefa9161083791611777565b604080519182526001600160a01b03808716602084015288169082015260608101869052608001610609565b61086b6112d9565b610885600254600161087d91906116fc565b600154610c00565b905090565b6001600160a01b0382166108d85760405162461bcd60e51b8152602060048201526015602482015274496e76616c696420746f6b656e206164647265737360581b6044820152606401610190565b600081116109285760405162461bcd60e51b815260206004820181905260248201527f416d6f756e74206d7573742062652067726561746572207468616e207a65726f6044820152606401610190565b60408051606081018252338082526001600160a01b03851660208301529181018390526001805482916006916000918261096183611730565b9091555081526020808201929092526040908101600020835181546001600160a01b039182166001600160a01b03199182161783559385015160018084018054929093169190951617905592015160029092019190915580547fc764405a2acf44bf91c070359a13daa334e14c5a24f6f78b82e5b94d4863b0df916109e591611777565b604080519182526001600160a01b038086166020840152871690820152606081018590526080015b60405180910390a150505050565b8015610bfc57600082815260066020908152604091829020825160608101845281546001600160a01b03908116825260018301541692810183905260029091015481840181905292516370a0823160e01b815230600482015290929082906370a0823190602401602060405180830381865afa158015610a9f573d6000803e3d6000fd5b505050506040513d601f19601f82011682018060405250810190610ac391906117c8565b1015610b1d5760405162461bcd60e51b8152602060048201526024808201527f496e73756666696369656e742062616c616e636520696e2074686520636f6e746044820152631c9858dd60e21b6064820152608401610190565b8151604080840151905163a9059cbb60e01b81526001600160a01b0384169263a9059cbb92610b62926004016001600160a01b03929092168252602082015260400190565b6020604051808303816000875af1158015610b81573d6000803e3d6000fd5b505050506040513d601f19601f82011682018060405250810190610ba591906117ab565b50815160208084015160408086015181516001600160a01b0395861681529490921692840192909252908201527fa92ff919b850e4909ab2261d907ef955f11bc1716733a6cbece38d163a69af8a90606001610a0d565b5050565b610c086112d9565b610c106112d9565b6000808080875b878111610cd6576000818152600560205260409020546001600160a01b031615610c4d5784610c4581611730565b955050610cc4565b6000818152600660205260409020546001600160a01b031615610c7c5783610c7481611730565b945050610cc4565b60008181526007602052604090205415610ca25781610c9a81611730565b925050610cc4565b60008181526004602052604090205415610cc45782610cc081611730565b9350505b80610cce81611730565b915050610c17565b5060008183610ce586886116fc565b610cef91906116fc565b610cf991906116fc565b90508067ffffffffffffffff811115610d1457610d146116ba565b604051908082528060200260200182016040528015610d3d578160200160208202803683370190505b506060870152604086018990528367ffffffffffffffff811115610d6357610d636116ba565b604051908082528060200260200182016040528015610dae57816020015b6040805160608101825260008082526020808301829052928201528252600019909201910181610d815790505b5060808701528467ffffffffffffffff811115610dcd57610dcd6116ba565b604051908082528060200260200182016040528015610e1857816020015b6040805160608101825260008082526020808301829052928201528252600019909201910181610deb5790505b5060a08701528267ffffffffffffffff811115610e3757610e376116ba565b604051908082528060200260200182016040528015610e7c57816020015b6040805180820190915260008082526020820152815260200190600190039081610e555790505b5060c08701528167ffffffffffffffff811115610e9b57610e9b6116ba565b604051908082528060200260200182016040528015610edb57816020015b604080516020810190915260608152815260200190600190039081610eb95790505b5060e0870152600254865260018054610ef49190611777565b6020870152506000935083925082915081905080885b88811161127e576000818152600560205260409020546001600160a01b031615610ff357600087606001518380610f4090611730565b945081518110610f5257610f526116d0565b60200260200101906003811115610f6b57610f6b6113ad565b90816003811115610f7e57610f7e6113ad565b905250600081815260056020908152604091829020825160608101845281546001600160a01b03908116825260018301541692810192909252600201549181019190915260a088015187610fd181611730565b985081518110610fe357610fe36116d0565b602002602001018190525061126c565b6000818152600660205260409020546001600160a01b0316156110c55760018760600151838061102290611730565b945081518110611034576110346116d0565b6020026020010190600381111561104d5761104d6113ad565b90816003811115611060576110606113ad565b905250600081815260066020908152604091829020825160608101845281546001600160a01b0390811682526001830154169281019290925260020154918101919091526080880151866110b381611730565b975081518110610fe357610fe36116d0565b600081815260076020526040902054156111b4576003876060015183806110eb90611730565b9450815181106110fd576110fd6116d0565b60200260200101906003811115611116576111166113ad565b90816003811115611129576111296113ad565b9052506000818152600760209081526040918290208251815480840282018501855292810183815290939192849284919084018282801561118957602002820191906000526020600020905b815481526020019060010190808311611175575b5050505050815250508760e0015184806111a290611730565b955081518110610fe357610fe36116d0565b60008181526004602052604090205415611267576002876060015183806111da90611730565b9450815181106111ec576111ec6116d0565b60200260200101906003811115611205576112056113ad565b90816003811115611218576112186113ad565b9052506000818152600460209081526040918290208251808401909352805483526001015460ff1615159082015260c08801518561125581611730565b965081518110610fe357610fe36116d0565b61127e565b8061127681611730565b915050610f0a565b5094955050505050505b92915050565b8280548282559060005260206000209081019282156112c9579160200282015b828111156112c95782518255916020019190600101906112ae565b506112d592915061131e565b5090565b60405180610100016040528060008152602001600081526020016000815260200160608152602001606081526020016060815260200160608152602001606081525090565b5b808211156112d5576000815560010161131f565b60006020828403121561134557600080fd5b813567ffffffffffffffff81111561135c57600080fd5b82016040818503121561136e57600080fd5b9392505050565b6000806040838503121561138857600080fd5b82356001600160a01b038116811461139f57600080fd5b946020939093013593505050565b634e487b7160e01b600052602160045260246000fd5b6000815180845260208085019450602084016000805b8481101561141257825160048082106113ff57634e487b7160e01b845260218152602484fd5b50885296830196918301916001016113d9565b50959695505050505050565b60008151808452602080850194506020840160005b8381101561147157815180516001600160a01b0390811689528482015116848901526040908101519088015260609096019590820190600101611433565b509495945050505050565b60008151808452602080850194506020840160005b838110156114715781518051885283015115158388015260409096019590820190600101611491565b60008151808452602080850194506020840160005b83811015611471578151875295820195908201906001016114cf565b600082825180855260208086019550808260051b84010181860160005b8481101561153e57858303601f1901895281515184845261152b858501826114ba565b9985019993505090830190600101611508565b5090979650505050505050565b60208152815160208201526020820151604082015260408201516060820152600060608301516101008060808501526115886101208501836113c3565b91506080850151601f19808685030160a08701526115a6848361141e565b935060a08701519150808685030160c08701526115c3848361141e565b935060c08701519150808685030160e08701526115e0848361147c565b935060e08701519150808685030183870152506115fd83826114eb565b9695505050505050565b60006020828403121561161957600080fd5b5035919050565b6000808335601e1984360301811261163757600080fd5b83018035915067ffffffffffffffff82111561165257600080fd5b602001915060608102360382131561166957600080fd5b9250929050565b6000808335601e1984360301811261168757600080fd5b83018035915067ffffffffffffffff8211156116a257600080fd5b6020019150600581901b360382131561166957600080fd5b634e487b7160e01b600052604160045260246000fd5b634e487b7160e01b600052603260045260246000fd5b634e487b7160e01b600052601160045260246000fd5b80820180821115611288576112886116e6565b60006020828403121561172157600080fd5b81356004811061136e57600080fd5b600060018201611742576117426116e6565b5060010190565b801515811461175757600080fd5b50565b60006020828403121561176c57600080fd5b813561136e81611749565b81810381811115611288576112886116e6565b8281526040602082015260006117a360408301846114ba565b949350505050565b6000602082840312156117bd57600080fd5b815161136e81611749565b6000602082840312156117da57600080fd5b505191905056fea2646970667358221220f1374b438f74eb32eea780bb31bf5a818cfaa61ca8554b45912cfc9614adc0c464736f6c63430008160033",
    "linkReferences": {}
  },
  "methodIdentifiers": {
    "cancelResolutions(uint256)": "ca9b21ae",
    "counter()": "61bc221a",
    "deposit(address,uint256)": "47e7ef24",
    "getUpdateForL2()": "b1538706",
    "lastProcessedUpdate_origin_l1()": "7fd4f845",
    "lastProcessedUpdate_origin_l2()": "f26ee9d0",
    "update_l1_from_l2(((bytes,bytes,uint256,uint256,bytes32)[],(uint256,uint8,bool)[]))": "34b03805",
    "withdraw(address,uint256)": "f3fef3a3"
  },
  "id": 24
}