{
	"abi": [
		{
			"type": "constructor",
			"inputs": [],
			"stateMutability": "nonpayable"
		},
		{
			"type": "function",
			"name": "cancelResolutions",
			"inputs": [
				{
					"name": "",
					"type": "uint256",
					"internalType": "uint256"
				}
			],
			"outputs": [
				{
					"name": "requestId",
					"type": "tuple",
					"internalType": "struct RollDown.RequestId",
					"components": [
						{
							"name": "origin",
							"type": "uint8",
							"internalType": "enum RollDown.Origin"
						},
						{
							"name": "id",
							"type": "uint256",
							"internalType": "uint256"
						}
					]
				},
				{
					"name": "l2RequestId",
					"type": "uint256",
					"internalType": "uint256"
				},
				{
					"name": "cancelJustified",
					"type": "bool",
					"internalType": "bool"
				},
				{
					"name": "blockHash",
					"type": "bytes32",
					"internalType": "bytes32"
				}
			],
			"stateMutability": "view"
		},
		{
			"type": "function",
			"name": "counter",
			"inputs": [],
			"outputs": [
				{
					"name": "",
					"type": "uint256",
					"internalType": "uint256"
				}
			],
			"stateMutability": "view"
		},
		{
			"type": "function",
			"name": "deposit",
			"inputs": [
				{
					"name": "tokenAddress",
					"type": "address",
					"internalType": "address"
				},
				{
					"name": "amount",
					"type": "uint256",
					"internalType": "uint256"
				}
			],
			"outputs": [],
			"stateMutability": "nonpayable"
		},
		{
			"type": "function",
			"name": "getPendingRequests",
			"inputs": [
				{
					"name": "start",
					"type": "uint256",
					"internalType": "uint256"
				},
				{
					"name": "end",
					"type": "uint256",
					"internalType": "uint256"
				}
			],
			"outputs": [
				{
					"name": "",
					"type": "tuple",
					"internalType": "struct RollDown.L1Update",
					"components": [
						{
							"name": "pendingDeposits",
							"type": "tuple[]",
							"internalType": "struct RollDown.Deposit[]",
							"components": [
								{
									"name": "requestId",
									"type": "tuple",
									"internalType": "struct RollDown.RequestId",
									"components": [
										{
											"name": "origin",
											"type": "uint8",
											"internalType": "enum RollDown.Origin"
										},
										{
											"name": "id",
											"type": "uint256",
											"internalType": "uint256"
										}
									]
								},
								{
									"name": "depositRecipient",
									"type": "address",
									"internalType": "address"
								},
								{
									"name": "tokenAddress",
									"type": "address",
									"internalType": "address"
								},
								{
									"name": "amount",
									"type": "uint256",
									"internalType": "uint256"
								},
								{
									"name": "blockHash",
									"type": "bytes32",
									"internalType": "bytes32"
								}
							]
						},
						{
							"name": "pendingCancelResultions",
							"type": "tuple[]",
							"internalType": "struct RollDown.CancelResolution[]",
							"components": [
								{
									"name": "requestId",
									"type": "tuple",
									"internalType": "struct RollDown.RequestId",
									"components": [
										{
											"name": "origin",
											"type": "uint8",
											"internalType": "enum RollDown.Origin"
										},
										{
											"name": "id",
											"type": "uint256",
											"internalType": "uint256"
										}
									]
								},
								{
									"name": "l2RequestId",
									"type": "uint256",
									"internalType": "uint256"
								},
								{
									"name": "cancelJustified",
									"type": "bool",
									"internalType": "bool"
								},
								{
									"name": "blockHash",
									"type": "bytes32",
									"internalType": "bytes32"
								}
							]
						},
						{
							"name": "pendingWithdrawalResolutions",
							"type": "tuple[]",
							"internalType": "struct RollDown.WithdrawalResolution[]",
							"components": [
								{
									"name": "requestId",
									"type": "tuple",
									"internalType": "struct RollDown.RequestId",
									"components": [
										{
											"name": "origin",
											"type": "uint8",
											"internalType": "enum RollDown.Origin"
										},
										{
											"name": "id",
											"type": "uint256",
											"internalType": "uint256"
										}
									]
								},
								{
									"name": "l2RequestId",
									"type": "uint256",
									"internalType": "uint256"
								},
								{
									"name": "status",
									"type": "bool",
									"internalType": "bool"
								},
								{
									"name": "blockHash",
									"type": "bytes32",
									"internalType": "bytes32"
								}
							]
						},
						{
							"name": "pendingL2UpdatesToRemove",
							"type": "tuple[]",
							"internalType": "struct RollDown.L2UpdatesToRemove[]",
							"components": [
								{
									"name": "requestId",
									"type": "tuple",
									"internalType": "struct RollDown.RequestId",
									"components": [
										{
											"name": "origin",
											"type": "uint8",
											"internalType": "enum RollDown.Origin"
										},
										{
											"name": "id",
											"type": "uint256",
											"internalType": "uint256"
										}
									]
								},
								{
									"name": "l2UpdatesToRemove",
									"type": "uint256[]",
									"internalType": "uint256[]"
								},
								{
									"name": "blockHash",
									"type": "bytes32",
									"internalType": "bytes32"
								}
							]
						}
					]
				}
			],
			"stateMutability": "view"
		},
		{
			"type": "function",
			"name": "getUpdateForL2",
			"inputs": [],
			"outputs": [
				{
					"name": "",
					"type": "tuple",
					"internalType": "struct RollDown.L1Update",
					"components": [
						{
							"name": "pendingDeposits",
							"type": "tuple[]",
							"internalType": "struct RollDown.Deposit[]",
							"components": [
								{
									"name": "requestId",
									"type": "tuple",
									"internalType": "struct RollDown.RequestId",
									"components": [
										{
											"name": "origin",
											"type": "uint8",
											"internalType": "enum RollDown.Origin"
										},
										{
											"name": "id",
											"type": "uint256",
											"internalType": "uint256"
										}
									]
								},
								{
									"name": "depositRecipient",
									"type": "address",
									"internalType": "address"
								},
								{
									"name": "tokenAddress",
									"type": "address",
									"internalType": "address"
								},
								{
									"name": "amount",
									"type": "uint256",
									"internalType": "uint256"
								},
								{
									"name": "blockHash",
									"type": "bytes32",
									"internalType": "bytes32"
								}
							]
						},
						{
							"name": "pendingCancelResultions",
							"type": "tuple[]",
							"internalType": "struct RollDown.CancelResolution[]",
							"components": [
								{
									"name": "requestId",
									"type": "tuple",
									"internalType": "struct RollDown.RequestId",
									"components": [
										{
											"name": "origin",
											"type": "uint8",
											"internalType": "enum RollDown.Origin"
										},
										{
											"name": "id",
											"type": "uint256",
											"internalType": "uint256"
										}
									]
								},
								{
									"name": "l2RequestId",
									"type": "uint256",
									"internalType": "uint256"
								},
								{
									"name": "cancelJustified",
									"type": "bool",
									"internalType": "bool"
								},
								{
									"name": "blockHash",
									"type": "bytes32",
									"internalType": "bytes32"
								}
							]
						},
						{
							"name": "pendingWithdrawalResolutions",
							"type": "tuple[]",
							"internalType": "struct RollDown.WithdrawalResolution[]",
							"components": [
								{
									"name": "requestId",
									"type": "tuple",
									"internalType": "struct RollDown.RequestId",
									"components": [
										{
											"name": "origin",
											"type": "uint8",
											"internalType": "enum RollDown.Origin"
										},
										{
											"name": "id",
											"type": "uint256",
											"internalType": "uint256"
										}
									]
								},
								{
									"name": "l2RequestId",
									"type": "uint256",
									"internalType": "uint256"
								},
								{
									"name": "status",
									"type": "bool",
									"internalType": "bool"
								},
								{
									"name": "blockHash",
									"type": "bytes32",
									"internalType": "bytes32"
								}
							]
						},
						{
							"name": "pendingL2UpdatesToRemove",
							"type": "tuple[]",
							"internalType": "struct RollDown.L2UpdatesToRemove[]",
							"components": [
								{
									"name": "requestId",
									"type": "tuple",
									"internalType": "struct RollDown.RequestId",
									"components": [
										{
											"name": "origin",
											"type": "uint8",
											"internalType": "enum RollDown.Origin"
										},
										{
											"name": "id",
											"type": "uint256",
											"internalType": "uint256"
										}
									]
								},
								{
									"name": "l2UpdatesToRemove",
									"type": "uint256[]",
									"internalType": "uint256[]"
								},
								{
									"name": "blockHash",
									"type": "bytes32",
									"internalType": "bytes32"
								}
							]
						}
					]
				}
			],
			"stateMutability": "view"
		},
		{
			"type": "function",
			"name": "lastProcessedUpdate_origin_l1",
			"inputs": [],
			"outputs": [
				{
					"name": "",
					"type": "uint256",
					"internalType": "uint256"
				}
			],
			"stateMutability": "view"
		},
		{
			"type": "function",
			"name": "lastProcessedUpdate_origin_l2",
			"inputs": [],
			"outputs": [
				{
					"name": "",
					"type": "uint256",
					"internalType": "uint256"
				}
			],
			"stateMutability": "view"
		},
		{
			"type": "function",
			"name": "update_l1_from_l2",
			"inputs": [
				{
					"name": "inputArray",
					"type": "tuple",
					"internalType": "struct RollDown.L2Update",
					"components": [
						{
							"name": "cancels",
							"type": "tuple[]",
							"internalType": "struct RollDown.Cancel[]",
							"components": [
								{
									"name": "requestId",
									"type": "tuple",
									"internalType": "struct RollDown.RequestId",
									"components": [
										{
											"name": "origin",
											"type": "uint8",
											"internalType": "enum RollDown.Origin"
										},
										{
											"name": "id",
											"type": "uint256",
											"internalType": "uint256"
										}
									]
								},
								{
									"name": "range",
									"type": "tuple",
									"internalType": "struct RollDown.Range",
									"components": [
										{
											"name": "start",
											"type": "uint256",
											"internalType": "uint256"
										},
										{
											"name": "end",
											"type": "uint256",
											"internalType": "uint256"
										}
									]
								},
								{
									"name": "hash",
									"type": "bytes32",
									"internalType": "bytes32"
								}
							]
						},
						{
							"name": "withdrawals",
							"type": "tuple[]",
							"internalType": "struct RollDown.Withdrawal[]",
							"components": [
								{
									"name": "requestId",
									"type": "tuple",
									"internalType": "struct RollDown.RequestId",
									"components": [
										{
											"name": "origin",
											"type": "uint8",
											"internalType": "enum RollDown.Origin"
										},
										{
											"name": "id",
											"type": "uint256",
											"internalType": "uint256"
										}
									]
								},
								{
									"name": "withdrawalRecipient",
									"type": "address",
									"internalType": "address"
								},
								{
									"name": "tokenAddress",
									"type": "address",
									"internalType": "address"
								},
								{
									"name": "amount",
									"type": "uint256",
									"internalType": "uint256"
								}
							]
						},
						{
							"name": "results",
							"type": "tuple[]",
							"internalType": "struct RollDown.RequestResult[]",
							"components": [
								{
									"name": "requestId",
									"type": "tuple",
									"internalType": "struct RollDown.RequestId",
									"components": [
										{
											"name": "origin",
											"type": "uint8",
											"internalType": "enum RollDown.Origin"
										},
										{
											"name": "id",
											"type": "uint256",
											"internalType": "uint256"
										}
									]
								},
								{
									"name": "originRequestId",
									"type": "uint256",
									"internalType": "uint256"
								},
								{
									"name": "updateType",
									"type": "uint8",
									"internalType": "enum RollDown.UpdateType"
								},
								{
									"name": "status",
									"type": "bool",
									"internalType": "bool"
								}
							]
						}
					]
				}
			],
			"outputs": [],
			"stateMutability": "nonpayable"
		},
		{
			"type": "function",
			"name": "withdrawalResolutions",
			"inputs": [
				{
					"name": "",
					"type": "uint256",
					"internalType": "uint256"
				}
			],
			"outputs": [
				{
					"name": "requestId",
					"type": "tuple",
					"internalType": "struct RollDown.RequestId",
					"components": [
						{
							"name": "origin",
							"type": "uint8",
							"internalType": "enum RollDown.Origin"
						},
						{
							"name": "id",
							"type": "uint256",
							"internalType": "uint256"
						}
					]
				},
				{
					"name": "l2RequestId",
					"type": "uint256",
					"internalType": "uint256"
				},
				{
					"name": "status",
					"type": "bool",
					"internalType": "bool"
				},
				{
					"name": "blockHash",
					"type": "bytes32",
					"internalType": "bytes32"
				}
			],
			"stateMutability": "view"
		},
		{
			"type": "event",
			"name": "DepositAcceptedIntoQueue",
			"inputs": [
				{
					"name": "requestId",
					"type": "uint256",
					"indexed": false,
					"internalType": "uint256"
				},
				{
					"name": "depositRecipient",
					"type": "address",
					"indexed": false,
					"internalType": "address"
				},
				{
					"name": "tokenAddress",
					"type": "address",
					"indexed": false,
					"internalType": "address"
				},
				{
					"name": "amount",
					"type": "uint256",
					"indexed": false,
					"internalType": "uint256"
				}
			],
			"anonymous": false
		},
		{
			"type": "event",
			"name": "DisputeResolutionAcceptedIntoQueue",
			"inputs": [
				{
					"name": "requestId",
					"type": "uint256",
					"indexed": false,
					"internalType": "uint256"
				},
				{
					"name": "cancelJustified",
					"type": "bool",
					"indexed": false,
					"internalType": "bool"
				}
			],
			"anonymous": false
		},
		{
			"type": "event",
			"name": "FundsWithdrawn",
			"inputs": [
				{
					"name": "withdrawRecipient",
					"type": "address",
					"indexed": false,
					"internalType": "address"
				},
				{
					"name": "tokenAddress",
					"type": "address",
					"indexed": false,
					"internalType": "address"
				},
				{
					"name": "amount",
					"type": "uint256",
					"indexed": false,
					"internalType": "uint256"
				}
			],
			"anonymous": false
		},
		{
			"type": "event",
			"name": "L2UpdatesToRemovedAcceptedIntoQueue",
			"inputs": [
				{
					"name": "requestId",
					"type": "uint256",
					"indexed": false,
					"internalType": "uint256"
				},
				{
					"name": "l2UpdatesToRemove",
					"type": "uint256[]",
					"indexed": false,
					"internalType": "uint256[]"
				}
			],
			"anonymous": false
		},
		{
			"type": "event",
			"name": "WithdrawalResolutionAcceptedIntoQueue",
			"inputs": [
				{
					"name": "requestId",
					"type": "uint256",
					"indexed": false,
					"internalType": "uint256"
				},
				{
					"name": "success",
					"type": "bool",
					"indexed": false,
					"internalType": "bool"
				}
			],
			"anonymous": false
		},
		{
			"type": "event",
			"name": "cancelAndCalculatedHash",
			"inputs": [
				{
					"name": "cancelHash",
					"type": "bytes32",
					"indexed": false,
					"internalType": "bytes32"
				},
				{
					"name": "calculatedHash",
					"type": "bytes32",
					"indexed": false,
					"internalType": "bytes32"
				}
			],
			"anonymous": false
		}
	],
	"bytecode": {
		"object": "0x6080604052348015600f57600080fd5b506000600281905560018055600381905580546001600160a01b0319163317905561214d8061003f6000396000f3fe608060405234801561001057600080fd5b50600436106100935760003560e01c80637fd4f845116100665780637fd4f845146100fc578063a80fc9bd14610105578063b153870614610128578063ca9b21ae14610130578063f26ee9d01461014357600080fd5b806347e7ef24146100985780635740b89d146100ad57806361bc221a146100c057806379e041f2146100dc575b600080fd5b6100ab6100a6366004611c2b565b61014c565b005b6100ab6100bb366004611c55565b610408565b6100c960015481565b6040519081526020015b60405180910390f35b6100ef6100ea366004611c90565b6105b0565b6040516100d39190611e57565b6100c960025481565b610118610113366004611f42565b610c3d565b6040516100d39493929190611f5b565b6100ef610caf565b61011861013e366004611f42565b610cff565b6100c960035481565b6001600160a01b03821661019f5760405162461bcd60e51b8152602060048201526015602482015274496e76616c696420746f6b656e206164647265737360581b60448201526064015b60405180910390fd5b600081116101ef5760405162461bcd60e51b815260206004820181905260248201527f416d6f756e74206d7573742062652067726561746572207468616e207a65726f6044820152606401610196565b6040516323b872dd60e01b81523360048201819052306024830152604482018390529083906001600160a01b038216906323b872dd906064016020604051808303816000875af1158015610247573d6000803e3d6000fd5b505050506040513d601f19601f8201168201806040525081019061026b9190611f84565b6102af5760405162461bcd60e51b8152602060048201526015602482015274151bdad95b881d1c985b9cd9995c8819985a5b1959605a1b6044820152606401610196565b6040805160e081019091524340906000908060a0810180848152602001600160008154809291906102df90611fbc565b90915550905281526001600160a01b03808716602080840191909152908916604080840191909152606083018990526080909201859052825181015160009081526006909152208151805182549394508493839190829060ff19166001838181111561034d5761034d611cb2565b021790555060209182015160019190910155828101516002830180546001600160a01b03199081166001600160a01b03938416179091556040808601516003860180549093169084161790915560608086015160048601556080958601516005909501949094558551830151815190815289831693810193909352908a16908201529081018790527fe28491c2da97a9923c92f6590a040dfc143fe636e8545356cdab0a796e1acefa910160405180910390a1505050505050565b60016104176040830183611fd5565b90501015806104325750600161042d8280611fd5565b905010155b8061044c575060016104476020830183611fd5565b905010155b6104a25760405162461bcd60e51b815260206004820152602160248201527f4172726179206d7573742068617665206174206c6561737420312075706461746044820152606560f81b6064820152608401610196565b60006104b96104b46040840184611fd5565b610d34565b90506104c482611099565b8051156105ac5760018054600091826104dc83611fbc565b909155506040805180820190915290915080600081526020908101839052600083815260079091526040902081518154829060ff19166001838181111561052557610525611cb2565b021790555060209182015160019091015560008281526007825260409020835161055792600290920191850190611baf565b5081516002600082825461056b9190612025565b90915550506040517f09b30365986269e3939307e7ca7b7b7421a8ad08ef18bb766c668d27cbc2aef9906105a29083908590612038565b60405180910390a1505b5050565b6105db6040518060800160405280606081526020016060815260200160608152602001606081525090565b6106066040518060800160405280606081526020016060815260200160608152602001606081525090565b6000808080875b8781116106c6576000818152600660205260409020600101541561063d578461063581611fbc565b9550506106b4565b60008181526007602052604090206001015415610666578161065e81611fbc565b9250506106b4565b6000818152600460205260409020600101541561068f578361068781611fbc565b9450506106b4565b600081815260056020526040902060010154156106b457826106b081611fbc565b9350505b806106be81611fbc565b91505061060d565b508367ffffffffffffffff8111156106e0576106e0612059565b60405190808252806020026020018201604052801561074657816020015b6040805160e081018252600060a0820181815260c083018290528252602080830182905292820181905260608201819052608082015282526000199092019101816106fe5790505b5085528167ffffffffffffffff81111561076257610762612059565b6040519080825280602002602001820160405280156107c157816020015b6040805160c08101825260006080820181815260a0830182905282526020808301829052928201819052606082015282526000199092019101816107805790505b5060208601528267ffffffffffffffff8111156107e0576107e0612059565b60405190808252806020026020018201604052801561083f57816020015b6040805160c08101825260006080820181815260a0830182905282526020808301829052928201819052606082015282526000199092019101816107fe5790505b5060408601528067ffffffffffffffff81111561085e5761085e612059565b6040519080825280602002602001820160405280156108b857816020015b6040805160a0810182526000606080830182815260808401839052835260208301529181019190915281526020019060019003908161087c5790505b506060860152506000925082915081905080875b878111610c2e57600081815260066020526040902060010154156109ad5760008181526006602052604090819020815160e081019092528054829060a08201908390829060ff16600181111561092457610924611cb2565b600181111561093557610935611cb2565b81526001919091015460209182015290825260028301546001600160a01b039081169183019190915260038301541660408201526004820154606082015260059091015460809091015286518661098b81611fbc565b97508151811061099d5761099d61206f565b6020026020010181905250610c1c565b60008181526004602052604090206001015415610a685760008181526004602052604090819020815160c081019092528054829060808201908390829060ff1660018111156109fe576109fe611cb2565b6001811115610a0f57610a0f611cb2565b815260019190910154602091820152908252600283015490820152600382015460ff16151560408083019190915260049092015460609091015287015185610a5681611fbc565b96508151811061099d5761099d61206f565b60008181526007602052604090206001015415610b605760008181526007602052604090819020815160a081019092528054829060608201908390829060ff166001811115610ab957610ab9611cb2565b6001811115610aca57610aca611cb2565b8152602001600182015481525050815260200160028201805480602002602001604051908101604052809291908181526020018280548015610b2b57602002820191906000526020600020905b815481526020019060010190808311610b17575b5050505050815260200160038201548152505086606001518380610b4e90611fbc565b94508151811061099d5761099d61206f565b60008181526005602052604090206002015415610c175760008181526005602052604090819020815160c081019092528054829060808201908390829060ff166001811115610bb157610bb1611cb2565b6001811115610bc257610bc2611cb2565b815260019190910154602091820152908252600283015482820152600383015460ff161515604083015260049092015460609091015287015184610c0581611fbc565b95508151811061099d5761099d61206f565b610c2e565b80610c2681611fbc565b9150506108cc565b50939450505050505b92915050565b60046020526000908152604090819020815180830190925280549091908290829060ff166001811115610c7257610c72611cb2565b6001811115610c8357610c83611cb2565b815260019190910154602090910152600282015460038301546004909301549192909160ff9091169084565b610cda6040518060800160405280606081526020016060815260200160608152602001606081525090565b610cfa6002546001610cec9190612025565b600180546100ea9190612085565b905090565b60056020526000908152604090819020815180830190925280549091908290829060ff166001811115610c7257610c72611cb2565b60606000828103610d55575050604080516000815260208101909152610c37565b600084846000818110610d6a57610d6a61206f565b905060a0020160000160200135905060008585905067ffffffffffffffff811115610d9757610d97612059565b604051908082528060200260200182016040528015610dc0578160200160208202803683370190505b50905060015b85811015610e7357610dd9836001612025565b878783818110610deb57610deb61206f565b905060a002016000016020013514610e455760405162461bcd60e51b815260206004820152601960248201527f526571756573747320617265206e6f7420696e206f72646572000000000000006044820152606401610196565b868682818110610e5757610e5761206f565b905060a002016000016020013592508080600101915050610dc6565b5060005b85811015610ffc5736878783818110610e9257610e9261206f565b905060a002019050600254816000016020013511610eb05750610ff4565b6000610ec26080830160608401612098565b6005811115610ed357610ed3611cb2565b03610f0b5760408101358386610ee881611fbc565b975081518110610efa57610efa61206f565b602002602001018181525050610ff2565b6003610f1d6080830160608401612098565b6005811115610f2e57610f2e611cb2565b03610f435760408101358386610ee881611fbc565b6005610f556080830160608401612098565b6005811115610f6657610f66611cb2565b03610f7b5760408101358386610ee881611fbc565b6002610f8d6080830160608401612098565b6005811115610f9e57610f9e611cb2565b03610fb35760408101358386610ee881611fbc565b60405162461bcd60e51b8152602060048201526014602482015273756e6b6e6f776e2072657175657374207479706560601b6044820152606401610196565b505b600101610e77565b5060008367ffffffffffffffff81111561101857611018612059565b604051908082528060200260200182016040528015611041578160200160208202803683370190505b50905060005b8481101561108e578281815181106110615761106161206f565b602002602001015182828151811061107b5761107b61206f565b6020908102919091010152600101611047565b509695505050505050565b6000806110a58361131a565b91509150816000036110c95760405162461bcd60e51b8152600401610196906120b9565b6003546110d7906001612025565b8211156110f65760405162461bcd60e51b8152600401610196906120b9565b60035481116111175760405162461bcd60e51b8152600401610196906120b9565b60006111238385611450565b90506000806000805b84518110156113105760018582815181106111495761114961206f565b6020026020010151600581111561116257611162611cb2565b036111d2573661117560208a018a611fd5565b8561117f81611fbc565b96508181106111905761119061206f565b905060a0020190506003548160000160200135116111ae5750611308565b6111b78161178a565b600380549060006111c783611fbc565b919050555050611308565b60048582815181106111e6576111e661206f565b602002602001015160058111156111ff576111ff611cb2565b03611251573661120f8980611fd5565b8661121981611fbc565b975081811061122a5761122a61206f565b905060a0020190506003548160000160200135116112485750611308565b6111b781611a36565b60038582815181106112655761126561206f565b6020026020010151600581111561127e5761127e611cb2565b036112ca573661129160408a018a611fd5565b8461129b81611fbc565b95508181106112ac576112ac61206f565b905060a0020190506003548160000160200135116111b75750611308565b60405162461bcd60e51b8152602060048201526013602482015272756e6b6e6f776e20757064617465207479706560681b6044820152606401610196565b60010161112c565b5050505050505050565b600080600019818061132c8680611fd5565b905011156113b0576113656113418680611fd5565b60008181106113525761135261206f565b905060a002016000016020013583611b88565b91506113ad6113748680611fd5565b60016113808980611fd5565b61138b929150612085565b81811061139a5761139a61206f565b905060a002016000016020013582611ba0565b90505b60006113bf6020870187611fd5565b905011156113fb576113d76113416020870187611fd5565b91506113f86113e96020870187611fd5565b600161138060208a018a611fd5565b90505b600061140a6040870187611fd5565b90501115611446576114226113416040870187611fd5565b91506114436114346040870187611fd5565b600161138060408a018a611fd5565b90505b9094909350915050565b606061145f6040830183611fd5565b159050801561147757506114738280611fd5565b1590505b801561148f575061148b6020830183611fd5565b1590505b156114a95750604080516000815260208101909152610c37565b6000808080806114bc6040880188611fd5565b90506114cb6020890189611fd5565b90506114d78980611fd5565b6114e2929150612025565b6114ec9190612025565b905060008167ffffffffffffffff81111561150957611509612059565b604051908082528060200260200182016040528015611532578160200160208202803683370190505b509050885b611541838b612025565b81101561177d5761155560208a018a611fd5565b90508710801561158d57508061156e60208b018b611fd5565b8981811061157e5761157e61206f565b905060a0020160000160200135145b156115f55760018285815181106115a6576115a661206f565b602002602001019060058111156115bf576115bf611cb2565b908160058111156115d2576115d2611cb2565b905250866115df81611fbc565b97505083806115ed90611fbc565b945050611775565b6115ff8980611fd5565b9050861080156116345750806116158a80611fd5565b888181106116255761162561206f565b905060a0020160000160200135145b1561169457600482858151811061164d5761164d61206f565b6020026020010190600581111561166657611666611cb2565b9081600581111561167957611679611cb2565b9052508561168681611fbc565b96505083806115ed90611fbc565b6116a160408a018a611fd5565b9050851080156116d95750806116ba60408b018b611fd5565b878181106116ca576116ca61206f565b905060a0020160000160200135145b156117395760038285815181106116f2576116f261206f565b6020026020010190600581111561170b5761170b611cb2565b9081600581111561171e5761171e611cb2565b9052508461172b81611fbc565b95505083806115ed90611fbc565b60405162461bcd60e51b8152602060048201526011602482015270696e76616c696465204c3255706461746560781b6044820152606401610196565b600101611537565b5098975050505050505050565b600061179c60808301606084016120e3565b6040516370a0823160e01b81523060048201529091506000906080840135906001600160a01b038416906370a0823190602401602060405180830381865afa1580156117ec573d6000803e3d6000fd5b505050506040513d601f19601f8201168201806040525081019061181091906120fe565b6040805160c0810190915291111591504340906000908060808101808481526020016001600081548092919061184590611fbc565b9091555090528152602087810135818301528515156040808401919091526060909201859052825181015160009081526004909152208151805182549394508493839190829060ff1916600183818111156118a2576118a2611cb2565b02179055506020918201516001919091015582810151600283015560408084015160038401805460ff191691151591909117905560609093015160049092019190915582518101518251908152851515918101919091527f0c4873525770dbb64515e9d3950131f79ed8f72ff147ff1723bbe2e77e3791aa910160405180910390a18215611a2f576001600160a01b03841663a9059cbb61194960608801604089016120e3565b6040516001600160e01b031960e084901b1681526001600160a01b039091166004820152608088013560248201526044016020604051808303816000875af1158015611999573d6000803e3d6000fd5b505050506040513d601f19601f820116820180604052508101906119bd9190611f84565b507fa92ff919b850e4909ab2261d907ef955f11bc1716733a6cbece38d163a69af8a6119ef60608701604088016120e3565b6119ff60808801606089016120e3565b604080516001600160a01b0393841681529290911660208301526080880135908201526060015b60405180910390a15b5050505050565b6000611a4a604083013560608401356105b0565b9050600081604051602001611a5f9190611e57565b60408051601f19818403018152828252805160209091012060c08301909152915043409060009080608081018084815260200160016000815480929190611aa590611fbc565b909155509052815260208781013581830152608088013586146040808401919091526060909201859052825181015160009081526005909152208151805182549394508493839190829060ff191660018381811115611b0657611b06611cb2565b021790555060209182015160019091015582810151600283015560408084015160038401805491151560ff199092169190911790556060909301516004909201919091558201518282015191517fd16f202ac5905ff5d1851f4805ffe56d1212db32fa989881d0044b9cf0f7277692611a269282521515602082015260400190565b6000818310611b975781611b99565b825b9392505050565b6000818311611b975781611b99565b828054828255906000526020600020908101928215611bea579160200282015b82811115611bea578251825591602001919060010190611bcf565b50611bf6929150611bfa565b5090565b5b80821115611bf65760008155600101611bfb565b80356001600160a01b0381168114611c2657600080fd5b919050565b60008060408385031215611c3e57600080fd5b611c4783611c0f565b946020939093013593505050565b600060208284031215611c6757600080fd5b813567ffffffffffffffff811115611c7e57600080fd5b820160608185031215611b9957600080fd5b60008060408385031215611ca357600080fd5b50508035926020909101359150565b634e487b7160e01b600052602160045260246000fd5b805160028110611ce857634e487b7160e01b600052602160045260246000fd5b8252602090810151910152565b611d00828251611cc8565b60208101516040830152604081015115156060830152606081015160808301525050565b60008151808452602080850194506020840160005b83811015611d5f57611d4c878351611cf5565b60a0969096019590820190600101611d39565b509495945050505050565b60008151808452602080850194506020840160005b83811015611d5f57611d92878351611cf5565b60a0969096019590820190600101611d7f565b60008151808452602080850194506020840160005b83811015611d5f57815187529582019590820190600101611dba565b600082825180855260208086019550808260051b84010181860160005b84811015611e4a57601f1986840301895281516080611e13858351611cc8565b8582015160408281880152611e2a83880183611da5565b930151606096909601959095525098840198925090830190600101611df3565b5090979650505050505050565b6000602080835260a080840185516080808588015282825180855260c0945060c089019150868401935060005b81811015611edc578451611e99848251611cc8565b808901516001600160a01b039081166040868101919091528201511660608086019190915281015185850152840151878401529387019391850191600101611e84565b5050858901519550601f19945084888203016040890152611efd8187611d24565b955050505050604085015181858403016060860152611f1c8382611d6a565b925050606085015181858403016080860152611f388382611dd6565b9695505050505050565b600060208284031215611f5457600080fd5b5035919050565b60a08101611f698287611cc8565b60408201949094529115156060830152608090910152919050565b600060208284031215611f9657600080fd5b81518015158114611b9957600080fd5b634e487b7160e01b600052601160045260246000fd5b600060018201611fce57611fce611fa6565b5060010190565b6000808335601e19843603018112611fec57600080fd5b83018035915067ffffffffffffffff82111561200757600080fd5b602001915060a08102360382131561201e57600080fd5b9250929050565b80820180821115610c3757610c37611fa6565b8281526040602082015260006120516040830184611da5565b949350505050565b634e487b7160e01b600052604160045260246000fd5b634e487b7160e01b600052603260045260246000fd5b81810381811115610c3757610c37611fa6565b6000602082840312156120aa57600080fd5b813560068110611b9957600080fd5b60208082526010908201526f496e76616c6964204c3255706461746560801b604082015260600190565b6000602082840312156120f557600080fd5b611b9982611c0f565b60006020828403121561211057600080fd5b505191905056fea264697066735822122044e1c073c239f749ef16a4807772d52084e6b9c11e1cb24be8800aac2d0a9a4f64736f6c63430008190033",
		"linkReferences": {}
	},
	"methodIdentifiers": {
		"cancelResolutions(uint256)": "ca9b21ae",
		"counter()": "61bc221a",
		"deposit(address,uint256)": "47e7ef24",
		"getPendingRequests(uint256,uint256)": "79e041f2",
		"getUpdateForL2()": "b1538706",
		"lastProcessedUpdate_origin_l1()": "7fd4f845",
		"lastProcessedUpdate_origin_l2()": "f26ee9d0",
		"update_l1_from_l2((((uint8,uint256),(uint256,uint256),bytes32)[],((uint8,uint256),address,address,uint256)[],((uint8,uint256),uint256,uint8,bool)[]))": "5740b89d",
		"withdrawalResolutions(uint256)": "a80fc9bd"
	},
	"id": 24
}