{
  "abi": [
    {
      "anonymous": false,
      "inputs": [
        {
          "indexed": false,
          "internalType": "uint256",
          "name": "requestId",
          "type": "uint256"
        },
        {
          "indexed": false,
          "internalType": "address",
          "name": "depositRecipient",
          "type": "address"
        },
        {
          "indexed": false,
          "internalType": "address",
          "name": "tokenAddress",
          "type": "address"
        },
        {
          "indexed": false,
          "internalType": "uint256",
          "name": "amount",
          "type": "uint256"
        }
      ],
      "name": "DepositAcceptedIntoQueue",
      "type": "event"
    },
    {
      "anonymous": false,
      "inputs": [
        {
          "indexed": false,
          "internalType": "uint256",
          "name": "requestId",
          "type": "uint256"
        },
        {
          "indexed": false,
          "internalType": "bool",
          "name": "cancelJustified",
          "type": "bool"
        }
      ],
      "name": "DisputeResolutionAcceptedIntoQueue",
      "type": "event"
    },
    {
      "anonymous": false,
      "inputs": [
        {
          "indexed": false,
          "internalType": "address",
          "name": "sender",
          "type": "address"
        },
        {
          "indexed": false,
          "internalType": "uint256",
          "name": "amount",
          "type": "uint256"
        }
      ],
      "name": "EthWithdrawPending",
      "type": "event"
    },
    {
      "anonymous": false,
      "inputs": [
        {
          "indexed": false,
          "internalType": "address",
          "name": "depositRecipient",
          "type": "address"
        },
        {
          "indexed": false,
          "internalType": "address",
          "name": "tokenAddress",
          "type": "address"
        },
        {
          "indexed": false,
          "internalType": "uint256",
          "name": "amount",
          "type": "uint256"
        }
      ],
      "name": "FundsReturned",
      "type": "event"
    },
    {
      "anonymous": false,
      "inputs": [
        {
          "indexed": false,
          "internalType": "address",
          "name": "withdrawRecipient",
          "type": "address"
        },
        {
          "indexed": false,
          "internalType": "address",
          "name": "tokenAddress",
          "type": "address"
        },
        {
          "indexed": false,
          "internalType": "uint256",
          "name": "amount",
          "type": "uint256"
        }
      ],
      "name": "FundsWithdrawn",
      "type": "event"
    },
    {
      "anonymous": false,
      "inputs": [
        {
          "indexed": false,
          "internalType": "uint8",
          "name": "version",
          "type": "uint8"
        }
      ],
      "name": "Initialized",
      "type": "event"
    },
    {
      "anonymous": false,
      "inputs": [
        {
          "indexed": false,
          "internalType": "uint256",
          "name": "requestId",
          "type": "uint256"
        },
        {
          "indexed": false,
          "internalType": "uint256[]",
          "name": "l2UpdatesToRemove",
          "type": "uint256[]"
        }
      ],
      "name": "L2UpdatesToRemovedAcceptedIntoQueue",
      "type": "event"
    },
    {
      "anonymous": false,
      "inputs": [
        {
          "indexed": false,
          "internalType": "address",
          "name": "updater",
          "type": "address"
        }
      ],
      "name": "NewUpdaterSet",
      "type": "event"
    },
    {
      "anonymous": false,
      "inputs": [
        {
          "indexed": true,
          "internalType": "address",
          "name": "previousOwner",
          "type": "address"
        },
        {
          "indexed": true,
          "internalType": "address",
          "name": "newOwner",
          "type": "address"
        }
      ],
      "name": "OwnershipTransferred",
      "type": "event"
    },
    {
      "anonymous": false,
      "inputs": [
        {
          "indexed": true,
          "internalType": "address",
          "name": "account",
          "type": "address"
        },
        {
          "indexed": false,
          "internalType": "uint256",
          "name": "newPausedStatus",
          "type": "uint256"
        }
      ],
      "name": "Paused",
      "type": "event"
    },
    {
      "anonymous": false,
      "inputs": [
        {
          "indexed": false,
          "internalType": "contract IPauserRegistry",
          "name": "pauserRegistry",
          "type": "address"
        },
        {
          "indexed": false,
          "internalType": "contract IPauserRegistry",
          "name": "newPauserRegistry",
          "type": "address"
        }
      ],
      "name": "PauserRegistrySet",
      "type": "event"
    },
    {
      "anonymous": false,
      "inputs": [
        {
          "indexed": false,
          "internalType": "address",
          "name": "sender",
          "type": "address"
        },
        {
          "indexed": false,
          "internalType": "uint256",
          "name": "amount",
          "type": "uint256"
        }
      ],
      "name": "PendingEthWithdrawn",
      "type": "event"
    },
    {
      "anonymous": false,
      "inputs": [
        {
          "indexed": true,
          "internalType": "address",
          "name": "account",
          "type": "address"
        },
        {
          "indexed": false,
          "internalType": "uint256",
          "name": "newPausedStatus",
          "type": "uint256"
        }
      ],
      "name": "Unpaused",
      "type": "event"
    },
    {
      "anonymous": false,
      "inputs": [
        {
          "indexed": false,
          "internalType": "uint256",
          "name": "requestId",
          "type": "uint256"
        },
        {
          "indexed": false,
          "internalType": "bool",
          "name": "success",
          "type": "bool"
        }
      ],
      "name": "WithdrawalResolutionAcceptedIntoQueue",
      "type": "event"
    },
    {
      "anonymous": false,
      "inputs": [
        {
          "indexed": false,
          "internalType": "bytes32",
          "name": "cancelHash",
          "type": "bytes32"
        },
        {
          "indexed": false,
          "internalType": "bytes32",
          "name": "calculatedHash",
          "type": "bytes32"
        }
      ],
      "name": "cancelAndCalculatedHash",
      "type": "event"
    },
    {
      "inputs": [],
      "name": "ETH_TOKEN_ADDRESS",
      "outputs": [
        {
          "internalType": "address",
          "name": "",
          "type": "address"
        }
      ],
      "stateMutability": "view",
      "type": "function"
    },
    {
      "inputs": [
        {
          "internalType": "bytes32",
          "name": "leave_hash",
          "type": "bytes32"
        },
        {
          "internalType": "uint32",
          "name": "leave_idx",
          "type": "uint32"
        },
        {
          "internalType": "bytes32[]",
          "name": "proof",
          "type": "bytes32[]"
        },
        {
          "internalType": "uint32",
          "name": "leaves_count",
          "type": "uint32"
        }
      ],
      "name": "calculate_root",
      "outputs": [
        {
          "internalType": "bytes32",
          "name": "",
          "type": "bytes32"
        }
      ],
      "stateMutability": "pure",
      "type": "function"
    },
    {
      "inputs": [
        {
          "internalType": "uint32",
          "name": "level",
          "type": "uint32"
        },
        {
          "internalType": "uint32",
          "name": "pos",
          "type": "uint32"
        },
        {
          "internalType": "bytes32",
          "name": "hash",
          "type": "bytes32"
        },
        {
          "internalType": "bytes32[]",
          "name": "proofs",
          "type": "bytes32[]"
        },
        {
          "internalType": "uint32",
          "name": "proof_idx",
          "type": "uint32"
        },
        {
          "internalType": "uint32",
          "name": "max_index",
          "type": "uint32"
        }
      ],
      "name": "calculate_root_impl",
      "outputs": [
        {
          "internalType": "bytes32",
          "name": "",
          "type": "bytes32"
        }
      ],
      "stateMutability": "pure",
      "type": "function"
    },
    {
      "inputs": [
        {
          "internalType": "uint256",
          "name": "",
          "type": "uint256"
        }
      ],
      "name": "cancelResolutions",
      "outputs": [
        {
          "components": [
            {
              "internalType": "enum IRolldownPrimitives.Origin",
              "name": "origin",
              "type": "uint8"
            },
            {
              "internalType": "uint256",
              "name": "id",
              "type": "uint256"
            }
          ],
          "internalType": "struct IRolldownPrimitives.RequestId",
          "name": "requestId",
          "type": "tuple"
        },
        {
          "internalType": "uint256",
          "name": "l2RequestId",
          "type": "uint256"
        },
        {
          "internalType": "bool",
          "name": "cancelJustified",
          "type": "bool"
        },
        {
          "internalType": "uint256",
          "name": "timeStamp",
          "type": "uint256"
        }
      ],
      "stateMutability": "view",
      "type": "function"
    },
    {
      "inputs": [],
      "name": "chain",
      "outputs": [
        {
          "internalType": "enum IRolldownPrimitives.ChainId",
          "name": "",
          "type": "uint8"
        }
      ],
      "stateMutability": "view",
      "type": "function"
    },
    {
      "inputs": [
        {
          "components": [
            {
              "components": [
                {
                  "internalType": "enum IRolldownPrimitives.Origin",
                  "name": "origin",
                  "type": "uint8"
                },
                {
                  "internalType": "uint256",
                  "name": "id",
                  "type": "uint256"
                }
              ],
              "internalType": "struct IRolldownPrimitives.RequestId",
              "name": "requestId",
              "type": "tuple"
            },
            {
              "components": [
                {
                  "internalType": "uint256",
                  "name": "start",
                  "type": "uint256"
                },
                {
                  "internalType": "uint256",
                  "name": "end",
                  "type": "uint256"
                }
              ],
              "internalType": "struct IRolldownPrimitives.Range",
              "name": "range",
              "type": "tuple"
            },
            {
              "internalType": "bytes32",
              "name": "hash",
              "type": "bytes32"
            }
          ],
          "internalType": "struct IRolldownPrimitives.Cancel",
          "name": "cancel",
          "type": "tuple"
        },
        {
          "internalType": "bytes32",
          "name": "merkle_root",
          "type": "bytes32"
        },
        {
          "internalType": "bytes32[]",
          "name": "proof",
          "type": "bytes32[]"
        }
      ],
      "name": "close_cancel",
      "outputs": [],
      "stateMutability": "nonpayable",
      "type": "function"
    },
    {
      "inputs": [
        {
          "components": [
            {
              "components": [
                {
                  "internalType": "enum IRolldownPrimitives.Origin",
                  "name": "origin",
                  "type": "uint8"
                },
                {
                  "internalType": "uint256",
                  "name": "id",
                  "type": "uint256"
                }
              ],
              "internalType": "struct IRolldownPrimitives.RequestId",
              "name": "requestId",
              "type": "tuple"
            },
            {
              "internalType": "address",
              "name": "withdrawalRecipient",
              "type": "address"
            },
            {
              "internalType": "address",
              "name": "tokenAddress",
              "type": "address"
            },
            {
              "internalType": "uint256",
              "name": "amount",
              "type": "uint256"
            }
          ],
          "internalType": "struct IRolldownPrimitives.Withdrawal",
          "name": "withdrawal",
          "type": "tuple"
        },
        {
          "internalType": "bytes32",
          "name": "merkle_root",
          "type": "bytes32"
        },
        {
          "internalType": "bytes32[]",
          "name": "proof",
          "type": "bytes32[]"
        }
      ],
      "name": "close_withdrawal",
      "outputs": [],
      "stateMutability": "nonpayable",
      "type": "function"
    },
    {
      "inputs": [],
      "name": "counter",
      "outputs": [
        {
          "internalType": "uint256",
          "name": "",
          "type": "uint256"
        }
      ],
      "stateMutability": "view",
      "type": "function"
    },
    {
      "inputs": [
        {
          "internalType": "address",
          "name": "tokenAddress",
          "type": "address"
        },
        {
          "internalType": "uint256",
          "name": "amount",
          "type": "uint256"
        }
      ],
      "name": "deposit",
      "outputs": [],
      "stateMutability": "nonpayable",
      "type": "function"
    },
    {
      "inputs": [
        {
          "internalType": "address",
          "name": "tokenAddress",
          "type": "address"
        },
        {
          "internalType": "uint256",
          "name": "amount",
          "type": "uint256"
        }
      ],
      "name": "deposit_erc20",
      "outputs": [],
      "stateMutability": "nonpayable",
      "type": "function"
    },
    {
      "inputs": [],
      "name": "deposit_native",
      "outputs": [],
      "stateMutability": "payable",
      "type": "function"
    },
    {
      "inputs": [
        {
          "internalType": "uint256",
          "name": "requestId",
          "type": "uint256"
        }
      ],
      "name": "find_l2_batch",
      "outputs": [
        {
          "components": [
            {
              "internalType": "uint256",
              "name": "start",
              "type": "uint256"
            },
            {
              "internalType": "uint256",
              "name": "end",
              "type": "uint256"
            }
          ],
          "internalType": "struct IRolldownPrimitives.Range",
          "name": "",
          "type": "tuple"
        }
      ],
      "stateMutability": "view",
      "type": "function"
    },
    {
      "inputs": [
        {
          "internalType": "uint256",
          "name": "start",
          "type": "uint256"
        },
        {
          "internalType": "uint256",
          "name": "end",
          "type": "uint256"
        }
      ],
      "name": "getPendingRequests",
      "outputs": [
        {
          "components": [
            {
              "internalType": "enum IRolldownPrimitives.ChainId",
              "name": "chain",
              "type": "uint8"
            },
            {
              "components": [
                {
                  "components": [
                    {
                      "internalType": "enum IRolldownPrimitives.Origin",
                      "name": "origin",
                      "type": "uint8"
                    },
                    {
                      "internalType": "uint256",
                      "name": "id",
                      "type": "uint256"
                    }
                  ],
                  "internalType": "struct IRolldownPrimitives.RequestId",
                  "name": "requestId",
                  "type": "tuple"
                },
                {
                  "internalType": "address",
                  "name": "depositRecipient",
                  "type": "address"
                },
                {
                  "internalType": "address",
                  "name": "tokenAddress",
                  "type": "address"
                },
                {
                  "internalType": "uint256",
                  "name": "amount",
                  "type": "uint256"
                },
                {
                  "internalType": "uint256",
                  "name": "timeStamp",
                  "type": "uint256"
                }
              ],
              "internalType": "struct IRolldownPrimitives.Deposit[]",
              "name": "pendingDeposits",
              "type": "tuple[]"
            },
            {
              "components": [
                {
                  "components": [
                    {
                      "internalType": "enum IRolldownPrimitives.Origin",
                      "name": "origin",
                      "type": "uint8"
                    },
                    {
                      "internalType": "uint256",
                      "name": "id",
                      "type": "uint256"
                    }
                  ],
                  "internalType": "struct IRolldownPrimitives.RequestId",
                  "name": "requestId",
                  "type": "tuple"
                },
                {
                  "internalType": "uint256",
                  "name": "l2RequestId",
                  "type": "uint256"
                },
                {
                  "internalType": "bool",
                  "name": "cancelJustified",
                  "type": "bool"
                },
                {
                  "internalType": "uint256",
                  "name": "timeStamp",
                  "type": "uint256"
                }
              ],
              "internalType": "struct IRolldownPrimitives.CancelResolution[]",
              "name": "pendingCancelResolutions",
              "type": "tuple[]"
            },
            {
              "components": [
                {
                  "components": [
                    {
                      "internalType": "enum IRolldownPrimitives.Origin",
                      "name": "origin",
                      "type": "uint8"
                    },
                    {
                      "internalType": "uint256",
                      "name": "id",
                      "type": "uint256"
                    }
                  ],
                  "internalType": "struct IRolldownPrimitives.RequestId",
                  "name": "requestId",
                  "type": "tuple"
                },
                {
                  "internalType": "uint256",
                  "name": "l2RequestId",
                  "type": "uint256"
                },
                {
                  "internalType": "bool",
                  "name": "status",
                  "type": "bool"
                },
                {
                  "internalType": "uint256",
                  "name": "timeStamp",
                  "type": "uint256"
                }
              ],
              "internalType": "struct IRolldownPrimitives.WithdrawalResolution[]",
              "name": "pendingWithdrawalResolutions",
              "type": "tuple[]"
            },
            {
              "components": [
                {
                  "components": [
                    {
                      "internalType": "enum IRolldownPrimitives.Origin",
                      "name": "origin",
                      "type": "uint8"
                    },
                    {
                      "internalType": "uint256",
                      "name": "id",
                      "type": "uint256"
                    }
                  ],
                  "internalType": "struct IRolldownPrimitives.RequestId",
                  "name": "requestId",
                  "type": "tuple"
                },
                {
                  "internalType": "uint256[]",
                  "name": "l2UpdatesToRemove",
                  "type": "uint256[]"
                },
                {
                  "internalType": "uint256",
                  "name": "timeStamp",
                  "type": "uint256"
                }
              ],
              "internalType": "struct IRolldownPrimitives.L2UpdatesToRemove[]",
              "name": "pendingL2UpdatesToRemove",
              "type": "tuple[]"
            }
          ],
          "internalType": "struct IRolldownPrimitives.L1Update",
          "name": "",
          "type": "tuple"
        }
      ],
      "stateMutability": "view",
      "type": "function"
    },
    {
      "inputs": [],
      "name": "getUpdateForL2",
      "outputs": [
        {
          "components": [
            {
              "internalType": "enum IRolldownPrimitives.ChainId",
              "name": "chain",
              "type": "uint8"
            },
            {
              "components": [
                {
                  "components": [
                    {
                      "internalType": "enum IRolldownPrimitives.Origin",
                      "name": "origin",
                      "type": "uint8"
                    },
                    {
                      "internalType": "uint256",
                      "name": "id",
                      "type": "uint256"
                    }
                  ],
                  "internalType": "struct IRolldownPrimitives.RequestId",
                  "name": "requestId",
                  "type": "tuple"
                },
                {
                  "internalType": "address",
                  "name": "depositRecipient",
                  "type": "address"
                },
                {
                  "internalType": "address",
                  "name": "tokenAddress",
                  "type": "address"
                },
                {
                  "internalType": "uint256",
                  "name": "amount",
                  "type": "uint256"
                },
                {
                  "internalType": "uint256",
                  "name": "timeStamp",
                  "type": "uint256"
                }
              ],
              "internalType": "struct IRolldownPrimitives.Deposit[]",
              "name": "pendingDeposits",
              "type": "tuple[]"
            },
            {
              "components": [
                {
                  "components": [
                    {
                      "internalType": "enum IRolldownPrimitives.Origin",
                      "name": "origin",
                      "type": "uint8"
                    },
                    {
                      "internalType": "uint256",
                      "name": "id",
                      "type": "uint256"
                    }
                  ],
                  "internalType": "struct IRolldownPrimitives.RequestId",
                  "name": "requestId",
                  "type": "tuple"
                },
                {
                  "internalType": "uint256",
                  "name": "l2RequestId",
                  "type": "uint256"
                },
                {
                  "internalType": "bool",
                  "name": "cancelJustified",
                  "type": "bool"
                },
                {
                  "internalType": "uint256",
                  "name": "timeStamp",
                  "type": "uint256"
                }
              ],
              "internalType": "struct IRolldownPrimitives.CancelResolution[]",
              "name": "pendingCancelResolutions",
              "type": "tuple[]"
            },
            {
              "components": [
                {
                  "components": [
                    {
                      "internalType": "enum IRolldownPrimitives.Origin",
                      "name": "origin",
                      "type": "uint8"
                    },
                    {
                      "internalType": "uint256",
                      "name": "id",
                      "type": "uint256"
                    }
                  ],
                  "internalType": "struct IRolldownPrimitives.RequestId",
                  "name": "requestId",
                  "type": "tuple"
                },
                {
                  "internalType": "uint256",
                  "name": "l2RequestId",
                  "type": "uint256"
                },
                {
                  "internalType": "bool",
                  "name": "status",
                  "type": "bool"
                },
                {
                  "internalType": "uint256",
                  "name": "timeStamp",
                  "type": "uint256"
                }
              ],
              "internalType": "struct IRolldownPrimitives.WithdrawalResolution[]",
              "name": "pendingWithdrawalResolutions",
              "type": "tuple[]"
            },
            {
              "components": [
                {
                  "components": [
                    {
                      "internalType": "enum IRolldownPrimitives.Origin",
                      "name": "origin",
                      "type": "uint8"
                    },
                    {
                      "internalType": "uint256",
                      "name": "id",
                      "type": "uint256"
                    }
                  ],
                  "internalType": "struct IRolldownPrimitives.RequestId",
                  "name": "requestId",
                  "type": "tuple"
                },
                {
                  "internalType": "uint256[]",
                  "name": "l2UpdatesToRemove",
                  "type": "uint256[]"
                },
                {
                  "internalType": "uint256",
                  "name": "timeStamp",
                  "type": "uint256"
                }
              ],
              "internalType": "struct IRolldownPrimitives.L2UpdatesToRemove[]",
              "name": "pendingL2UpdatesToRemove",
              "type": "tuple[]"
            }
          ],
          "internalType": "struct IRolldownPrimitives.L1Update",
          "name": "",
          "type": "tuple"
        }
      ],
      "stateMutability": "view",
      "type": "function"
    },
    {
      "inputs": [
        {
          "internalType": "contract IPauserRegistry",
          "name": "_pauserRegistry",
          "type": "address"
        },
        {
          "internalType": "address",
          "name": "initialOwner",
          "type": "address"
        },
        {
          "internalType": "enum IRolldownPrimitives.ChainId",
          "name": "chainId",
          "type": "uint8"
        },
        {
          "internalType": "address",
          "name": "updater",
          "type": "address"
        }
      ],
      "name": "initialize",
      "outputs": [],
      "stateMutability": "nonpayable",
      "type": "function"
    },
    {
      "inputs": [],
      "name": "lastProcessedUpdate_origin_l1",
      "outputs": [
        {
          "internalType": "uint256",
          "name": "",
          "type": "uint256"
        }
      ],
      "stateMutability": "view",
      "type": "function"
    },
    {
      "inputs": [],
      "name": "lastProcessedUpdate_origin_l2",
      "outputs": [
        {
          "internalType": "uint256",
          "name": "",
          "type": "uint256"
        }
      ],
      "stateMutability": "view",
      "type": "function"
    },
    {
      "inputs": [
        {
          "internalType": "bytes32",
          "name": "",
          "type": "bytes32"
        }
      ],
      "name": "merkleRootRange",
      "outputs": [
        {
          "internalType": "uint256",
          "name": "start",
          "type": "uint256"
        },
        {
          "internalType": "uint256",
          "name": "end",
          "type": "uint256"
        }
      ],
      "stateMutability": "view",
      "type": "function"
    },
    {
      "inputs": [],
      "name": "owner",
      "outputs": [
        {
          "internalType": "address",
          "name": "",
          "type": "address"
        }
      ],
      "stateMutability": "view",
      "type": "function"
    },
    {
      "inputs": [
        {
          "internalType": "uint256",
          "name": "newPausedStatus",
          "type": "uint256"
        }
      ],
      "name": "pause",
      "outputs": [],
      "stateMutability": "nonpayable",
      "type": "function"
    },
    {
      "inputs": [],
      "name": "pauseAll",
      "outputs": [],
      "stateMutability": "nonpayable",
      "type": "function"
    },
    {
      "inputs": [
        {
          "internalType": "uint8",
          "name": "index",
          "type": "uint8"
        }
      ],
      "name": "paused",
      "outputs": [
        {
          "internalType": "bool",
          "name": "",
          "type": "bool"
        }
      ],
      "stateMutability": "view",
      "type": "function"
    },
    {
      "inputs": [],
      "name": "paused",
      "outputs": [
        {
          "internalType": "uint256",
          "name": "",
          "type": "uint256"
        }
      ],
      "stateMutability": "view",
      "type": "function"
    },
    {
      "inputs": [],
      "name": "pauserRegistry",
      "outputs": [
        {
          "internalType": "contract IPauserRegistry",
          "name": "",
          "type": "address"
        }
      ],
      "stateMutability": "view",
      "type": "function"
    },
    {
      "inputs": [
        {
          "internalType": "address",
          "name": "",
          "type": "address"
        }
      ],
      "name": "pendingEthWithdrawals",
      "outputs": [
        {
          "internalType": "uint256",
          "name": "",
          "type": "uint256"
        }
      ],
      "stateMutability": "view",
      "type": "function"
    },
    {
      "inputs": [
        {
          "internalType": "uint256",
          "name": "",
          "type": "uint256"
        }
      ],
      "name": "processedL2Requests",
      "outputs": [
        {
          "internalType": "bool",
          "name": "",
          "type": "bool"
        }
      ],
      "stateMutability": "view",
      "type": "function"
    },
    {
      "inputs": [],
      "name": "renounceOwnership",
      "outputs": [],
      "stateMutability": "nonpayable",
      "type": "function"
    },
    {
      "inputs": [
        {
          "internalType": "contract IPauserRegistry",
          "name": "newPauserRegistry",
          "type": "address"
        }
      ],
      "name": "setPauserRegistry",
      "outputs": [],
      "stateMutability": "nonpayable",
      "type": "function"
    },
    {
      "inputs": [
        {
          "internalType": "address",
          "name": "updater",
          "type": "address"
        }
      ],
      "name": "setUpdater",
      "outputs": [],
      "stateMutability": "nonpayable",
      "type": "function"
    },
    {
      "inputs": [
        {
          "internalType": "address",
          "name": "newOwner",
          "type": "address"
        }
      ],
      "name": "transferOwnership",
      "outputs": [],
      "stateMutability": "nonpayable",
      "type": "function"
    },
    {
      "inputs": [
        {
          "internalType": "uint256",
          "name": "newPausedStatus",
          "type": "uint256"
        }
      ],
      "name": "unpause",
      "outputs": [],
      "stateMutability": "nonpayable",
      "type": "function"
    },
    {
      "inputs": [
        {
          "internalType": "bytes32",
          "name": "merkle_root",
          "type": "bytes32"
        },
        {
          "components": [
            {
              "internalType": "uint256",
              "name": "start",
              "type": "uint256"
            },
            {
              "internalType": "uint256",
              "name": "end",
              "type": "uint256"
            }
          ],
          "internalType": "struct IRolldownPrimitives.Range",
          "name": "range",
          "type": "tuple"
        }
      ],
      "name": "update_l1_from_l2",
      "outputs": [],
      "stateMutability": "nonpayable",
      "type": "function"
    },
    {
      "inputs": [],
      "name": "updaterAccount",
      "outputs": [
        {
          "internalType": "address",
          "name": "",
          "type": "address"
        }
      ],
      "stateMutability": "view",
      "type": "function"
    },
    {
      "inputs": [
        {
          "internalType": "uint256",
          "name": "amount",
          "type": "uint256"
        }
      ],
      "name": "withdraw_pending_eth",
      "outputs": [],
      "stateMutability": "nonpayable",
      "type": "function"
    },
    {
      "inputs": [
        {
          "internalType": "uint256",
          "name": "",
          "type": "uint256"
        }
      ],
      "name": "withdrawalResolutions",
      "outputs": [
        {
          "components": [
            {
              "internalType": "enum IRolldownPrimitives.Origin",
              "name": "origin",
              "type": "uint8"
            },
            {
              "internalType": "uint256",
              "name": "id",
              "type": "uint256"
            }
          ],
          "internalType": "struct IRolldownPrimitives.RequestId",
          "name": "requestId",
          "type": "tuple"
        },
        {
          "internalType": "uint256",
          "name": "l2RequestId",
          "type": "uint256"
        },
        {
          "internalType": "bool",
          "name": "status",
          "type": "bool"
        },
        {
          "internalType": "uint256",
          "name": "timeStamp",
          "type": "uint256"
        }
      ],
      "stateMutability": "view",
      "type": "function"
    }
  ],
  "bytecode": {
    "object": "0x608060405234801561001057600080fd5b506137b5806100206000396000f3fe6080604052600436106102045760003560e01c80638da5cb5b11610118578063ca9b21ae116100a0578063f26ee9d01161006f578063f26ee9d01461061c578063f2fde38b14610632578063f9ecd01e14610652578063fabc1cbc1461068d578063ffea632b146106ad57600080fd5b8063ca9b21ae1461059c578063d16544f0146105bc578063dfb0b12b146105dc578063ef0ba5d0146105fc57600080fd5b8063a80fc9bd116100e7578063a80fc9bd14610508578063af26c69514610538578063b153870614610558578063c763e5a11461056d578063c87c22241461059457600080fd5b80638da5cb5b1461047a5780639d54f41914610498578063a555980b146104b8578063a7acab46146104e857600080fd5b80635ac86ab71161019b57806371c544611161016a57806371c54461146103c557806379e041f2146103ea5780637fd4f8451461041757806380bc280c1461042d578063886f11951461045a57600080fd5b80635ac86ab71461033b5780635c975abb1461037b57806361bc221a1461039a578063715018a6146103b057600080fd5b80631878d1f1116101d75780631878d1f11461028b57806347e7ef24146102bd5780634f48eedf146102dd578063595c6a671461032657600080fd5b806301ef69661461020957806308f42d401461022b57806310d67a2f1461024b578063136439dd1461026b575b600080fd5b34801561021557600080fd5b50610229610224366004612ed3565b6106cd565b005b34801561023757600080fd5b50610229610246366004612f2e565b610888565b34801561025757600080fd5b50610229610266366004612f7b565b610a51565b34801561027757600080fd5b50610229610286366004612f9f565b610b04565b34801561029757600080fd5b506102a0600181565b6040516001600160a01b0390911681526020015b60405180910390f35b3480156102c957600080fd5b506102296102d8366004612fb8565b610c43565b3480156102e957600080fd5b506103116102f8366004612f9f565b60a0602052600090815260409020805460019091015482565b604080519283526020830191909152016102b4565b34801561033257600080fd5b50610229610c71565b34801561034757600080fd5b5061036b610356366004612fe4565b606654600160ff9092169190911b9081161490565b60405190151581526020016102b4565b34801561038757600080fd5b506066545b6040519081526020016102b4565b3480156103a657600080fd5b5061038c60975481565b3480156103bc57600080fd5b50610229610d38565b3480156103d157600080fd5b50609a546102a09061010090046001600160a01b031681565b3480156103f657600080fd5b5061040a610405366004613007565b610d4c565b6040516102b4919061318c565b34801561042357600080fd5b5061038c60985481565b34801561043957600080fd5b5061038c610448366004612f7b565b609f6020526000908152604090205481565b34801561046657600080fd5b506065546102a0906001600160a01b031681565b34801561048657600080fd5b506033546001600160a01b03166102a0565b3480156104a457600080fd5b506102296104b3366004612f7b565b611417565b3480156104c457600080fd5b5061036b6104d3366004612f9f565b60a16020526000908152604090205460ff1681565b3480156104f457600080fd5b50610229610503366004612f9f565b611514565b34801561051457600080fd5b50610528610523366004612f9f565b61153e565b6040516102b4949392919061328c565b34801561054457600080fd5b5061038c6105533660046132ce565b6115b0565b34801561056457600080fd5b5061040a611601565b34801561057957600080fd5b50609a546105879060ff1681565b6040516102b4919061333d565b61022961165a565b3480156105a857600080fd5b506105286105b7366004612f9f565b611821565b3480156105c857600080fd5b506102296105d7366004612fb8565b611856565b3480156105e857600080fd5b506102296105f7366004612ed3565b611b2c565b34801561060857600080fd5b5061038c610617366004613350565b611cb8565b34801561062857600080fd5b5061038c60995481565b34801561063e57600080fd5b5061022961064d366004612f7b565b611df4565b34801561065e57600080fd5b5061067261066d366004612f9f565b611e6a565b604080518251815260209283015192810192909252016102b4565b34801561069957600080fd5b506102296106a8366004612f9f565b611fdd565b3480156106b957600080fd5b506102296106c83660046133ed565b612139565b600083815260a0602090815260409182902082518084019093528054808452600190910154918301919091521580159061070a5750602081015115155b6107515760405162461bcd60e51b8152602060048201526013602482015272155b9adb9bdddb881b595c9adb19481c9bdbdd606a1b60448201526064015b60405180910390fd5b600085604051602001610764919061346a565b60408051601f19818403018152918152815160209283012088830135600090815260a190935291205490915060ff16156107d45760405162461bcd60e51b8152602060048201526011602482015270105b1c9958591e481c1c9bd8d95cdcd959607a1b6044820152606401610748565b815160208301516000916107e7916134b2565b6107f29060016134c9565b83519091506000906108099060208a0135906134b2565b90508661081984838989876115b0565b146108565760405162461bcd60e51b815260206004820152600d60248201526c24b73b30b634b210383937b7b360991b6044820152606401610748565b61085f886122b2565b50505050602093840135600090815260a190945250506040909120805460ff1916600117905550565b606654156108a85760405162461bcd60e51b8152600401610748906134e1565b609a5461010090046001600160a01b031633146108f75760405162461bcd60e51b815260206004820152600d60248201526c2737ba103a34329037bbb732b960991b6044820152606401610748565b60995481602001351161094c5760405162461bcd60e51b815260206004820152601960248201527f557064617465206272696e6773206e6f206e65772064617461000000000000006044820152606401610748565b60995461095b600183356134b2565b11156109a95760405162461bcd60e51b815260206004820152601760248201527f50726576696f757320757064617465206d697373696e670000000000000000006044820152606401610748565b8035602082013510156109ee5760405162461bcd60e51b815260206004820152600d60248201526c496e76616c69642072616e676560981b6044820152606401610748565b60a28054600181019091557faaf4f58de99300cfadc4585755f376d5fa747d5bc561d5bd9d710de1f91bf42d01829055600082815260a0602052604090208190610a45828281358155602082013560018201555050565b50506020013560995550565b606560009054906101000a90046001600160a01b03166001600160a01b031663eab66d7a6040518163ffffffff1660e01b8152600401602060405180830381865afa158015610aa4573d6000803e3d6000fd5b505050506040513d601f19601f82011682018060405250810190610ac89190613518565b6001600160a01b0316336001600160a01b031614610af85760405162461bcd60e51b815260040161074890613535565b610b0181612404565b50565b60655460405163237dfb4760e11b81523360048201526001600160a01b03909116906346fbf68e90602401602060405180830381865afa158015610b4c573d6000803e3d6000fd5b505050506040513d601f19601f82011682018060405250810190610b70919061357f565b610b8c5760405162461bcd60e51b8152600401610748906135a1565b60665481811614610c055760405162461bcd60e51b815260206004820152603860248201527f5061757361626c652e70617573653a20696e76616c696420617474656d70742060448201527f746f20756e70617573652066756e6374696f6e616c69747900000000000000006064820152608401610748565b606681905560405181815233907fab40a374bc51de372200a8bc981af8c9ecdc08dfdaef0bb6e09f88f3c616ef3d906020015b60405180910390a250565b60665415610c635760405162461bcd60e51b8152600401610748906134e1565b610c6d8282611856565b5050565b60655460405163237dfb4760e11b81523360048201526001600160a01b03909116906346fbf68e90602401602060405180830381865afa158015610cb9573d6000803e3d6000fd5b505050506040513d601f19601f82011682018060405250810190610cdd919061357f565b610cf95760405162461bcd60e51b8152600401610748906135a1565b600019606681905560405190815233907fab40a374bc51de372200a8bc981af8c9ecdc08dfdaef0bb6e09f88f3c616ef3d9060200160405180910390a2565b610d406124fb565b610d4a6000612555565b565b610d7f6040805160a081019091528060008152602001606081526020016060815260200160608152602001606081525090565b610db26040805160a081019091528060008152602001606081526020016060815260200160608152602001606081525090565b609a54819060ff166001811115610dcb57610dcb613029565b90816001811115610dde57610dde613029565b9052506000808080875b878111610ea1576000818152609d602052604090206001015415610e185784610e10816135e9565b955050610e8f565b6000818152609e602052604090206001015415610e415781610e39816135e9565b925050610e8f565b6000818152609b602052604090206001015415610e6a5783610e62816135e9565b945050610e8f565b6000818152609c602052604090206001015415610e8f5782610e8b816135e9565b9350505b80610e99816135e9565b915050610de8565b508367ffffffffffffffff811115610ebb57610ebb613604565b604051908082528060200260200182016040528015610f2157816020015b6040805160e081018252600060a0820181815260c08301829052825260208083018290529282018190526060820181905260808201528252600019909201910181610ed95790505b5060208601528167ffffffffffffffff811115610f4057610f40613604565b604051908082528060200260200182016040528015610f9f57816020015b6040805160c08101825260006080820181815260a083018290528252602080830182905292820181905260608201528252600019909201910181610f5e5790505b5060408601528267ffffffffffffffff811115610fbe57610fbe613604565b60405190808252806020026020018201604052801561101d57816020015b6040805160c08101825260006080820181815260a083018290528252602080830182905292820181905260608201528252600019909201910181610fdc5790505b5060608601528067ffffffffffffffff81111561103c5761103c613604565b60405190808252806020026020018201604052801561109657816020015b6040805160a0810182526000606080830182815260808401839052835260208301529181019190915281526020019060019003908161105a5790505b506080860152506000925082915081905080875b87811161140a576000818152609d602052604090206001015415611189576000818152609d602052604090819020815160e081019092528054829060a08201908390829060ff16600181111561110257611102613029565b600181111561111357611113613029565b81526001919091015460209182015290825260028301546001600160a01b039081168383015260038401541660408301526004830154606083015260059092015460809091015287015186611167816135e9565b9750815181106111795761117961361a565b60200260200101819052506113f8565b6000818152609b602052604090206001015415611240576000818152609b602052604090819020815160c081019092528054829060808201908390829060ff1660018111156111da576111da613029565b60018111156111eb576111eb613029565b815260019190910154602091820152908252600283015490820152600382015460ff16151560408201526004909101546060918201528701518561122e816135e9565b9650815181106111795761117961361a565b6000818152609e602052604090206001015415611338576000818152609e602052604090819020815160a081019092528054829060608201908390829060ff16600181111561129157611291613029565b60018111156112a2576112a2613029565b815260200160018201548152505081526020016002820180548060200260200160405190810160405280929190818152602001828054801561130357602002820191906000526020600020905b8154815260200190600101908083116112ef575b5050505050815260200160038201548152505086608001518380611326906135e9565b9450815181106111795761117961361a565b6000818152609c6020526040902060020154156113f3576000818152609c602052604090819020815160c081019092528054829060808201908390829060ff16600181111561138957611389613029565b600181111561139a5761139a613029565b815260019190910154602091820152908252600283015490820152600382015460ff161515604080830191909152600490920154606090910152870151846113e1816135e9565b9550815181106111795761117961361a565b61140a565b80611402816135e9565b9150506110aa565b5093979650505050505050565b606654156114375760405162461bcd60e51b8152600401610748906134e1565b609a5461010090046001600160a01b031633146114b55760405162461bcd60e51b815260206004820152603660248201527f4f6e6c792061637469766520757064617465722063616e206d6f7665207269676044820152751a1d1cc81d1bc818481b995dc818481858d8dbdd5b9d60521b6064820152608401610748565b609a8054610100600160a81b0319166101006001600160a01b038481168202929092179283905560405192041681527f1b0f2f500df596b42b73e80dbec6a1fb570f01978a586723f988a5fc54d773a19060200160405180910390a150565b606654156115345760405162461bcd60e51b8152600401610748906134e1565b610b0181336125a7565b609b6020526000908152604090819020815180830190925280549091908290829060ff16600181111561157357611573613029565b600181111561158457611584613029565b815260019190910154602090910152600282015460038301546004909301549192909160ff9091169084565b600080825b63ffffffff8116156115e0576115cc600282613646565b90506115d9600183613669565b91506115b5565b6115f582888a8989600061061760018c613691565b98975050505050505050565b6116346040805160a081019091528060008152602001606081526020016060815260200160608152602001606081525090565b611655609854600161164691906134c9565b600160975461040591906134b2565b905090565b6066541561167a5760405162461bcd60e51b8152600401610748906134e1565b600034116116ca5760405162461bcd60e51b815260206004820181905260248201527f6d73672076616c7565206d7573742062652067726561746572207468617420306044820152606401610748565b6040805160e081019091523390349042906000908060a0810180848152602001609760008154809291906116fd906135e9565b90915550905281526001600160a01b0386166020808301919091526001604080840182905260608401889052608090930186905283518201516000908152609d9092529190208251805182549495508594929391928492839160ff191690838181111561176c5761176c613029565b0217905550602091820151600191820155838201516002840180546001600160a01b03199081166001600160a01b039384161790915560408087015160038701805490931690841617909155606080870151600487015560809687015160059096019590955586518401518151908152918a1693820193909352918201529081018590527fe28491c2da97a9923c92f6590a040dfc143fe636e8545356cdab0a796e1acefa910160405180910390a150505050565b609c6020526000908152604090819020815180830190925280549091908290829060ff16600181111561157357611573613029565b606654156118765760405162461bcd60e51b8152600401610748906134e1565b6001600160a01b0382166118c45760405162461bcd60e51b8152602060048201526015602482015274496e76616c696420746f6b656e206164647265737360581b6044820152606401610748565b600081116119145760405162461bcd60e51b815260206004820181905260248201527f416d6f756e74206d7573742062652067726561746572207468616e207a65726f6044820152606401610748565b6040516323b872dd60e01b81523360048201819052306024830152604482018390529083906001600160a01b038216906323b872dd906064016020604051808303816000875af115801561196c573d6000803e3d6000fd5b505050506040513d601f19601f82011682018060405250810190611990919061357f565b6119d45760405162461bcd60e51b8152602060048201526015602482015274151bdad95b881d1c985b9cd9995c8819985a5b1959605a1b6044820152606401610748565b6040805160e0810190915242906000908060a081018084815260200160976000815480929190611a03906135e9565b90915550905281526001600160a01b0380871660208084019190915290891660408084019190915260608301899052608090920185905282518101516000908152609d909152208151805182549394508493839190829060ff191660018381811115611a7157611a71613029565b021790555060209182015160019190910155828101516002830180546001600160a01b03199081166001600160a01b03938416179091556040808601516003860180549093169084161790915560608086015160048601556080958601516005909501949094558551830151815190815289831693810193909352908a16908201529081018790527fe28491c2da97a9923c92f6590a040dfc143fe636e8545356cdab0a796e1acefa910160405180910390a1505050505050565b600083815260a06020908152604091829020825180840190935280548084526001909101549183019190915215801590611b695750602081015115155b611bab5760405162461bcd60e51b8152602060048201526013602482015272155b9adb9bdddb881b595c9adb19481c9bdbdd606a1b6044820152606401610748565b600085604051602001611bbe91906136b6565b60408051601f19818403018152918152815160209283012088830135600090815260a190935291205490915060ff1615611c2e5760405162461bcd60e51b8152602060048201526011602482015270105b1c9958591e481c1c9bd8d95cdcd959607a1b6044820152606401610748565b81516020830151600091611c41916134b2565b611c4c9060016134c9565b8351909150600090611c629060208a01356134b2565b905086611c7284838989876115b0565b14611caf5760405162461bcd60e51b815260206004820152600d60248201526c24b73b30b634b210383937b7b360991b6044820152606401610748565b61085f8861274b565b6000611cc5600288613708565b63ffffffff16611d4a578163ffffffff168763ffffffff161415611ce857611da8565b85858585611cf58161372b565b965063ffffffff16818110611d0c57611d0c61361a565b90506020020135604051602001611d2d929190918252602082015260400190565b604051602081830303815290604052805190602001209550611da8565b848484611d568161372b565b955063ffffffff16818110611d6d57611d6d61361a565b9050602002013586604051602001611d8f929190918252602082015260400190565b6040516020818303038152906040528051906020012095505b8763ffffffff1660011415611dbe575084611de9565b611de6611dcc60018a613691565b611dd760028a613646565b8888888861061760028a613646565b90505b979650505050505050565b611dfc6124fb565b6001600160a01b038116611e615760405162461bcd60e51b815260206004820152602660248201527f4f776e61626c653a206e6577206f776e657220697320746865207a65726f206160448201526564647265737360d01b6064820152608401610748565b610b0181612555565b60408051808201909152600080825260208201526099548210611ec45760405162461bcd60e51b8152602060048201526012602482015271125b9d985b1a59081c995c5d595cdd081a5960721b6044820152606401610748565b60a254611ee4575050604080518082019091526000808252602082015290565b60a254600090611ef6906001906134b2565b90505b60a0600060a28381548110611f1057611f1061361a565b90600052602060002001548152602001908152602001600020600001548310158015611f6f575060a0600060a28381548110611f4e57611f4e61361a565b90600052602060002001548152602001908152602001600020600101548311155b15611fcb5760a0600060a28381548110611f8b57611f8b61361a565b9060005260206000200154815260200190815260200160002060405180604001604052908160008201548152602001600182015481525050915050919050565b80611fd58161374f565b915050611ef9565b606560009054906101000a90046001600160a01b03166001600160a01b031663eab66d7a6040518163ffffffff1660e01b8152600401602060405180830381865afa158015612030573d6000803e3d6000fd5b505050506040513d601f19601f820116820180604052508101906120549190613518565b6001600160a01b0316336001600160a01b0316146120845760405162461bcd60e51b815260040161074890613535565b6066541981196066541916146121025760405162461bcd60e51b815260206004820152603860248201527f5061757361626c652e756e70617573653a20696e76616c696420617474656d7060448201527f7420746f2070617573652066756e6374696f6e616c69747900000000000000006064820152608401610748565b606681905560405181815233907f3582d1828e26bf56bd801502bc021ac0bc8afb57c826e4986b45593c8fad389c90602001610c38565b600054610100900460ff16158080156121595750600054600160ff909116105b806121735750303b158015612173575060005460ff166001145b6121d65760405162461bcd60e51b815260206004820152602e60248201527f496e697469616c697a61626c653a20636f6e747261637420697320616c72656160448201526d191e481a5b9a5d1a585b1a5e995960921b6064820152608401610748565b6000805460ff1916600117905580156121f9576000805461ff0019166101001790555b61220485600061277e565b61220d84612555565b6000609881905560016097819055609991909155609a8054859260ff1990911690838181111561223f5761223f613029565b0217905550609a8054610100600160a81b0319166101006001600160a01b0385160217905580156122ab576000805461ff0019169055604051600181527f7f26b83ff96e1f2b6a682f133852f6798a09c465da95921460cefb3847402498906020015b60405180910390a15b5050505050565b60006122c660408301356060840135610d4c565b90506000816040516020016122db919061318c565b60408051601f19818403018152828252805160209091012060c083019091529150429060009080608081018084815260200160976000815480929190612320906135e9565b9091555090528152602087810135818301526080880135861415604080840191909152606090920185905282518101516000908152609c909152208151805182549394508493839190829060ff19166001838181111561238257612382613029565b021790555060209182015160019091015582810151600283015560408084015160038401805491151560ff199092169190911790556060909301516004909201919091558201518282015191517fd16f202ac5905ff5d1851f4805ffe56d1212db32fa989881d0044b9cf0f72776926122a29282521515602082015260400190565b6001600160a01b0381166124925760405162461bcd60e51b815260206004820152604960248201527f5061757361626c652e5f73657450617573657252656769737472793a206e657760448201527f50617573657252656769737472792063616e6e6f7420626520746865207a65726064820152686f206164647265737360b81b608482015260a401610748565b606554604080516001600160a01b03928316815291831660208301527f6e9fcd539896fca60e8b0f01dd580233e48a6b0f7df013b89ba7f565869acdb6910160405180910390a1606580546001600160a01b0319166001600160a01b0392909216919091179055565b6033546001600160a01b03163314610d4a5760405162461bcd60e51b815260206004820181905260248201527f4f776e61626c653a2063616c6c6572206973206e6f7420746865206f776e65726044820152606401610748565b603380546001600160a01b038381166001600160a01b0319831681179093556040519116919082907f8be0079c531659141344cd1fd0a4f28419497f9722a3daafe3b4186f6b6457e090600090a35050565b606654156125c75760405162461bcd60e51b8152600401610748906134e1565b600082116126175760405162461bcd60e51b815260206004820181905260248201527f416d6f756e74206d7573742062652067726561746572207468616e207a65726f6044820152606401610748565b6001600160a01b0381166000908152609f602052604090205482111561268a5760405162461bcd60e51b815260206004820152602260248201527f6e6f7420656e6f7567682070656e64696e6720776974686472617720616d6f756044820152611b9d60f21b6064820152608401610748565b30318211156126d25760405162461bcd60e51b81526020600482015260146024820152736e6f7420656e6f756768206574682066756e647360601b6044820152606401610748565b6001600160a01b0381166000908152609f6020526040812080548492906126fa9084906134b2565b9091555050604080516001600160a01b0383168152602081018490527f74b13e26477934df4349c96042c16ffb2ec5e0f902cdf60e4755711cd460ce99910160405180910390a1610c6d8183612864565b600161275d6080830160608401612f7b565b6001600160a01b0316141561277557610b0181612982565b610b0181612bd0565b6065546001600160a01b031615801561279f57506001600160a01b03821615155b6128215760405162461bcd60e51b815260206004820152604760248201527f5061757361626c652e5f696e697469616c697a655061757365723a205f696e6960448201527f7469616c697a6550617573657228292063616e206f6e6c792062652063616c6c6064820152666564206f6e636560c81b608482015260a401610748565b606681905560405181815233907fab40a374bc51de372200a8bc981af8c9ecdc08dfdaef0bb6e09f88f3c616ef3d9060200160405180910390a2610c6d82612404565b804710156128b45760405162461bcd60e51b815260206004820152601d60248201527f416464726573733a20696e73756666696369656e742062616c616e63650000006044820152606401610748565b6000826001600160a01b03168260405160006040518083038185875af1925050503d8060008114612901576040519150601f19603f3d011682016040523d82523d6000602084013e612906565b606091505b505090508061297d5760405162461bcd60e51b815260206004820152603a60248201527f416464726573733a20756e61626c6520746f2073656e642076616c75652c207260448201527f6563697069656e74206d617920686176652072657665727465640000000000006064820152608401610748565b505050565b608081013530311015600061299d6060840160408501612f7b565b6001600160a01b03163b15905060008280156129b65750815b6040805160c081019091529091504290600090806080810180848152602001609760008154809291906129e8906135e9565b909155509052815260208881013581830152851515604080840191909152606090920185905282518101516000908152609b909152208151805182549394508493839190829060ff191660018381811115612a4557612a45613029565b02179055506020918201516001919091015582810151600283015560408084015160038401805460ff191691151591909117905560609093015160049092019190915582518101518251908152851515918101919091527f0c4873525770dbb64515e9d3950131f79ed8f72ff147ff1723bbe2e77e3791aa910160405180910390a18215612bc8576080860135609f6000612ae660608a0160408b01612f7b565b6001600160a01b03166001600160a01b031681526020019081526020016000206000828254612b1591906134c9565b909155507fe40f985f6a88d7d060348dc647fb85bb6365eee1437a753cd67141bc3eda8fa99050612b4c6060880160408901612f7b565b609f6000612b6060608b0160408c01612f7b565b6001600160a01b03166001600160a01b0316815260200190815260200160002054604051612ba39291906001600160a01b03929092168252602082015260400190565b60405180910390a1612bc86080870135612bc36060890160408a01612f7b565b6125a7565b505050505050565b6000612be26080830160608401612f7b565b6040516370a0823160e01b81523060048201529091506000906080840135906001600160a01b038416906370a0823190602401602060405180830381865afa158015612c32573d6000803e3d6000fd5b505050506040513d601f19601f82011682018060405250810190612c569190613766565b6040805160c081019091529111159150429060009080608081018084815260200160976000815480929190612c8a906135e9565b909155509052815260208781013581830152851515604080840191909152606090920185905282518101516000908152609b909152208151805182549394508493839190829060ff191660018381811115612ce757612ce7613029565b02179055506020918201516001919091015582810151600283015560408084015160038401805460ff191691151591909117905560609093015160049092019190915582518101518251908152851515918101919091527f0c4873525770dbb64515e9d3950131f79ed8f72ff147ff1723bbe2e77e3791aa910160405180910390a182156122ab576001600160a01b03841663a9059cbb612d8e6060880160408901612f7b565b6040516001600160e01b031960e084901b1681526001600160a01b039091166004820152608088013560248201526044016020604051808303816000875af1158015612dde573d6000803e3d6000fd5b505050506040513d601f19601f82011682018060405250810190612e02919061357f565b507fa92ff919b850e4909ab2261d907ef955f11bc1716733a6cbece38d163a69af8a612e346060870160408801612f7b565b612e446080880160608901612f7b565b604080516001600160a01b0393841681529290911660208301526080880135908201526060016122a2565b600060a08284031215612e8157600080fd5b50919050565b60008083601f840112612e9957600080fd5b50813567ffffffffffffffff811115612eb157600080fd5b6020830191508360208260051b8501011115612ecc57600080fd5b9250929050565b60008060008060e08587031215612ee957600080fd5b612ef38686612e6f565b935060a0850135925060c085013567ffffffffffffffff811115612f1657600080fd5b612f2287828801612e87565b95989497509550505050565b6000808284036060811215612f4257600080fd5b833592506040601f1982011215612f5857600080fd5b506020830190509250929050565b6001600160a01b0381168114610b0157600080fd5b600060208284031215612f8d57600080fd5b8135612f9881612f66565b9392505050565b600060208284031215612fb157600080fd5b5035919050565b60008060408385031215612fcb57600080fd5b8235612fd681612f66565b946020939093013593505050565b600060208284031215612ff657600080fd5b813560ff81168114612f9857600080fd5b6000806040838503121561301a57600080fd5b50508035926020909101359150565b634e487b7160e01b600052602160045260246000fd5b60028110610b0157634e487b7160e01b600052602160045260246000fd5b80516130688161303f565b8252602090810151910152565b600081518084526020808501945080840160005b838110156130d257815161309e88825161305d565b8084015160408981019190915281015115156060808a01919091520151608088015260a09096019590820190600101613089565b509495945050505050565b600081518084526020808501808196508360051b810191508286016000805b8681101561317e578385038a528251608080870161311b88845161305d565b8289015160408981019390935280519182905260a0890192908a01918691905b8083101561315b5783518552938b0193928b01926001929092019161313b565b509390930151606098909801979097529a87019a955050918501916001016130fc565b509298975050505050505050565b6000602080835260c080840185516131a38161303f565b858401528583015160a06040808801829052825193849052918501926000929060e08901905b808510156132255785516131de83825161305d565b808901516001600160a01b039081168486015284820151166060808501919091528101516080808501919091520151848301529487019460019490940193908601906131c9565b50818a01519650601f199550858982030160608a01526132458188613075565b9650505060608801519250838786030160808801526132648584613075565b945060808801519250838786030181880152505061328283826130dd565b9695505050505050565b60a0810161329a828761305d565b60408201949094529115156060830152608090910152919050565b803563ffffffff811681146132c957600080fd5b919050565b6000806000806000608086880312156132e657600080fd5b853594506132f6602087016132b5565b9350604086013567ffffffffffffffff81111561331257600080fd5b61331e88828901612e87565b90945092506133319050606087016132b5565b90509295509295909350565b6020810161334a8361303f565b91905290565b600080600080600080600060c0888a03121561336b57600080fd5b613374886132b5565b9650613382602089016132b5565b955060408801359450606088013567ffffffffffffffff8111156133a557600080fd5b6133b18a828b01612e87565b90955093506133c49050608089016132b5565b91506133d260a089016132b5565b905092959891949750929550565b60028110610b0157600080fd5b6000806000806080858703121561340357600080fd5b843561340e81612f66565b9350602085013561341e81612f66565b9250604085013561342e816133e0565b9150606085013561343e81612f66565b939692955090935050565b8035613454816133e0565b61345d8161303f565b8252602090810135910152565b60a081016134788284613449565b60408301356040830152606083013560608301526080830135608083015292915050565b634e487b7160e01b600052601160045260246000fd5b6000828210156134c4576134c461349c565b500390565b600082198211156134dc576134dc61349c565b500190565b6020808252601c908201527f5061757361626c653a20636f6e74726163742069732070617573656400000000604082015260600190565b60006020828403121561352a57600080fd5b8151612f9881612f66565b6020808252602a908201527f6d73672e73656e646572206973206e6f74207065726d697373696f6e6564206160408201526939903ab73830bab9b2b960b11b606082015260800190565b60006020828403121561359157600080fd5b81518015158114612f9857600080fd5b60208082526028908201527f6d73672e73656e646572206973206e6f74207065726d697373696f6e6564206160408201526739903830bab9b2b960c11b606082015260800190565b60006000198214156135fd576135fd61349c565b5060010190565b634e487b7160e01b600052604160045260246000fd5b634e487b7160e01b600052603260045260246000fd5b634e487b7160e01b600052601260045260246000fd5b600063ffffffff8084168061365d5761365d613630565b92169190910492915050565b600063ffffffff8083168185168083038211156136885761368861349c565b01949350505050565b600063ffffffff838116908316818110156136ae576136ae61349c565b039392505050565b60a081016136c48284613449565b60408301356136d281612f66565b6001600160a01b0390811660408401526060840135906136f182612f66565b166060830152608092830135929091019190915290565b600063ffffffff8084168061371f5761371f613630565b92169190910692915050565b600063ffffffff808316818114156137455761374561349c565b6001019392505050565b60008161375e5761375e61349c565b506000190190565b60006020828403121561377857600080fd5b505191905056fea26469706673582212206c6023944ab80fe1e61918e8bd20f046df4cf24892a0128daf3614eeddd27dc064736f6c634300080c0033",
    "linkReferences": {}
  },
  "methodIdentifiers": {
    "ETH_TOKEN_ADDRESS()": "1878d1f1",
    "calculate_root(bytes32,uint32,bytes32[],uint32)": "af26c695",
    "calculate_root_impl(uint32,uint32,bytes32,bytes32[],uint32,uint32)": "ef0ba5d0",
    "cancelResolutions(uint256)": "ca9b21ae",
    "chain()": "c763e5a1",
    "close_cancel(((uint8,uint256),(uint256,uint256),bytes32),bytes32,bytes32[])": "01ef6966",
    "close_withdrawal(((uint8,uint256),address,address,uint256),bytes32,bytes32[])": "dfb0b12b",
    "counter()": "61bc221a",
    "deposit(address,uint256)": "47e7ef24",
    "deposit_erc20(address,uint256)": "d16544f0",
    "deposit_native()": "c87c2224",
    "find_l2_batch(uint256)": "f9ecd01e",
    "getPendingRequests(uint256,uint256)": "79e041f2",
    "getUpdateForL2()": "b1538706",
    "initialize(address,address,uint8,address)": "ffea632b",
    "lastProcessedUpdate_origin_l1()": "7fd4f845",
    "lastProcessedUpdate_origin_l2()": "f26ee9d0",
    "merkleRootRange(bytes32)": "4f48eedf",
    "owner()": "8da5cb5b",
    "pause(uint256)": "136439dd",
    "pauseAll()": "595c6a67",
    "paused()": "5c975abb",
    "paused(uint8)": "5ac86ab7",
    "pauserRegistry()": "886f1195",
    "pendingEthWithdrawals(address)": "80bc280c",
    "processedL2Requests(uint256)": "a555980b",
    "renounceOwnership()": "715018a6",
    "setPauserRegistry(address)": "10d67a2f",
    "setUpdater(address)": "9d54f419",
    "transferOwnership(address)": "f2fde38b",
    "unpause(uint256)": "fabc1cbc",
    "update_l1_from_l2(bytes32,(uint256,uint256))": "08f42d40",
    "updaterAccount()": "71c54461",
    "withdraw_pending_eth(uint256)": "a7acab46",
    "withdrawalResolutions(uint256)": "a80fc9bd"
  },
  "id": 122
}