{"abi":[{"type":"constructor","inputs":[],"stateMutability":"nonpayable"},{"type":"function","name":"cancelResolutions","inputs":[{"name":"","type":"uint256","internalType":"uint256"}],"outputs":[{"name":"l2RequestId","type":"uint256","internalType":"uint256"},{"name":"cancelJustified","type":"bool","internalType":"bool"}],"stateMutability":"view"},{"type":"function","name":"counter","inputs":[],"outputs":[{"name":"","type":"uint256","internalType":"uint256"}],"stateMutability":"view"},{"type":"function","name":"deposit","inputs":[{"name":"tokenAddress","type":"address","internalType":"address"},{"name":"amount","type":"uint256","internalType":"uint256"}],"outputs":[],"stateMutability":"nonpayable"},{"type":"function","name":"getUpdateForL2","inputs":[],"outputs":[{"name":"","type":"tuple","internalType":"struct RollDown.L1Update","components":[{"name":"lastProccessedRequestOnL1","type":"uint256","internalType":"uint256"},{"name":"lastAcceptedRequestOnL1","type":"uint256","internalType":"uint256"},{"name":"offset","type":"uint256","internalType":"uint256"},{"name":"order","type":"uint8[]","internalType":"enum RollDown.PendingRequestType[]"},{"name":"pendingDeposits","type":"tuple[]","internalType":"struct RollDown.Deposit[]","components":[{"name":"depositRecipient","type":"address","internalType":"address"},{"name":"tokenAddress","type":"address","internalType":"address"},{"name":"amount","type":"uint256","internalType":"uint256"}]},{"name":"pendingCancelResultions","type":"tuple[]","internalType":"struct RollDown.CancelResolution[]","components":[{"name":"l2RequestId","type":"uint256","internalType":"uint256"},{"name":"cancelJustified","type":"bool","internalType":"bool"}]},{"name":"pendingL2UpdatesToRemove","type":"tuple[]","internalType":"struct RollDown.L2UpdatesToRemove[]","components":[{"name":"l2UpdatesToRemove","type":"uint256[]","internalType":"uint256[]"}]}]}],"stateMutability":"view"},{"type":"function","name":"lastProcessedUpdate_origin_l1","inputs":[],"outputs":[{"name":"","type":"uint256","internalType":"uint256"}],"stateMutability":"view"},{"type":"function","name":"lastProcessedUpdate_origin_l2","inputs":[],"outputs":[{"name":"","type":"uint256","internalType":"uint256"}],"stateMutability":"view"},{"type":"function","name":"update_l1_from_l2","inputs":[{"name":"inputArray","type":"tuple","internalType":"struct RollDown.L2Update","components":[{"name":"withdraws","type":"tuple[]","internalType":"struct RollDown.Withdraw[]","components":[{"name":"requestId","type":"uint256","internalType":"uint256"},{"name":"withdrawRecipient","type":"address","internalType":"address"},{"name":"tokenAddress","type":"address","internalType":"address"},{"name":"amount","type":"uint256","internalType":"uint256"}]},{"name":"cancels","type":"tuple[]","internalType":"struct RollDown.Cancel[]","components":[{"name":"requestId","type":"uint256","internalType":"uint256"},{"name":"updater","type":"bytes","internalType":"bytes"},{"name":"canceler","type":"bytes","internalType":"bytes"},{"name":"lastProccessedRequestOnL1","type":"uint256","internalType":"uint256"},{"name":"lastAcceptedRequestOnL1","type":"uint256","internalType":"uint256"},{"name":"hash","type":"bytes32","internalType":"bytes32"}]},{"name":"results","type":"tuple[]","internalType":"struct RollDown.RequestResult[]","components":[{"name":"requestId","type":"uint256","internalType":"uint256"},{"name":"updateType","type":"uint8","internalType":"enum RollDown.UpdateType"},{"name":"status","type":"bool","internalType":"bool"}]}]}],"outputs":[],"stateMutability":"nonpayable"},{"type":"event","name":"DepositAcceptedIntoQueue","inputs":[{"name":"requestId","type":"uint256","indexed":false,"internalType":"uint256"},{"name":"depositRecipient","type":"address","indexed":false,"internalType":"address"},{"name":"tokenAddress","type":"address","indexed":false,"internalType":"address"},{"name":"amount","type":"uint256","indexed":false,"internalType":"uint256"}],"anonymous":false},{"type":"event","name":"DisputeResolutionAcceptedIntoQueue","inputs":[{"name":"requestId","type":"uint256","indexed":false,"internalType":"uint256"},{"name":"originalRequestId","type":"uint256","indexed":false,"internalType":"uint256"},{"name":"cancelJustified","type":"bool","indexed":false,"internalType":"bool"}],"anonymous":false},{"type":"event","name":"FundsWithdrawn","inputs":[{"name":"withdrawRecipient","type":"address","indexed":false,"internalType":"address"},{"name":"tokenAddress","type":"address","indexed":false,"internalType":"address"},{"name":"amount","type":"uint256","indexed":false,"internalType":"uint256"}],"anonymous":false},{"type":"event","name":"L2UpdatesToRemovedAcceptedIntoQueue","inputs":[{"name":"requestId","type":"uint256","indexed":false,"internalType":"uint256"},{"name":"l2UpdatesToRemove","type":"uint256[]","indexed":false,"internalType":"uint256[]"}],"anonymous":false},{"type":"event","name":"cancelAndCalculatedHash","inputs":[{"name":"cancelHash","type":"bytes32","indexed":false,"internalType":"bytes32"},{"name":"calculatedHash","type":"bytes32","indexed":false,"internalType":"bytes32"}],"anonymous":false},{"type":"event","name":"marker","inputs":[{"name":"message","type":"string","indexed":false,"internalType":"string"}],"anonymous":false},{"type":"event","name":"numb","inputs":[{"name":"number","type":"uint256","indexed":false,"internalType":"uint256"}],"anonymous":false}],"bytecode":{"object":"0x608060405234801561001057600080fd5b50600060028190556001805560016001607f1b0360035580546001600160a01b03191633179055611c67806100466000396000f3fe608060405234801561001057600080fd5b506004361061007d5760003560e01c80637fd4f8451161005b5780637fd4f845146100c6578063b1538706146100cf578063ca9b21ae146100e4578063f26ee9d01461012357600080fd5b806347e7ef241461008257806361bc221a146100975780636e4a32e7146100b3575b600080fd5b610095610090366004611735565b61012c565b005b6100a060015481565b6040519081526020015b60405180910390f35b6100956100c136600461175f565b610383565b6100a060025481565b6100d7610e9d565b6040516100aa91906118e4565b61010e6100f23660046119cc565b6004602052600090815260409020805460019091015460ff1682565b604080519283529015156020830152016100aa565b6100a060035481565b6001600160a01b03821661017f5760405162461bcd60e51b8152602060048201526015602482015274496e76616c696420746f6b656e206164647265737360581b60448201526064015b60405180910390fd5b600081116101cf5760405162461bcd60e51b815260206004820181905260248201527f416d6f756e74206d7573742062652067726561746572207468616e207a65726f6044820152606401610176565b6040516323b872dd60e01b81523360048201819052306024830152604482018390529083906001600160a01b038216906323b872dd906064016020604051808303816000875af1158015610227573d6000803e3d6000fd5b505050506040513d601f19601f8201168201806040525081019061024b91906119e5565b61028f5760405162461bcd60e51b8152602060048201526015602482015274151bdad95b881d1c985b9cd9995c8819985a5b1959605a1b6044820152606401610176565b604080516060810182526001600160a01b03808516825286166020820152908101849052600180548291600591600091826102c983611a1d565b9091555081526020808201929092526040908101600020835181546001600160a01b039182166001600160a01b03199182161783559385015160018084018054929093169190951617905592015160029092019190915580547fe28491c2da97a9923c92f6590a040dfc143fe636e8545356cdab0a796e1acefa9161034d91611a36565b604080519182526001600160a01b0380871660208401528816908201526060810186905260800160405180910390a15050505050565b6000546001600160a01b031633146103cd5760405162461bcd60e51b815260206004820152600d60248201526c2737ba103a34329037bbb732b960991b6044820152606401610176565b60016103dc6040830183611a49565b90501015806103fa575060016103f56020830183611a99565b905010155b806104115750600161040c8280611ae3565b905010155b6104675760405162461bcd60e51b815260206004820152602160248201527f4172726179206d7573742068617665206174206c6561737420312075706461746044820152606560f81b6064820152608401610176565b6000806104776020840184611a99565b90506104838480611ae3565b90506104926040860186611a49565b61049d929150611b2d565b6104a79190611b2d565b67ffffffffffffffff8111156104bf576104bf611b40565b6040519080825280602002602001820160405280156104e8578160200160208202803683370190505b50905060016104fa6040850185611a49565b90501061077d5760006105106040850185611a49565b600081811061052157610521611b56565b905060600201600001359050600254600161053c9190611b2d565b81111561058b5760405162461bcd60e51b815260206004820181905260248201527f5265717565737473206d697373696e67206265747765656e20757064617465736044820152606401610176565b60015b61059b6040860186611a49565b905081101561064f576105af826001611b2d565b6105bc6040870187611a49565b838181106105cc576105cc611b56565b905060600201600001351461061f5760405162461bcd60e51b81526020600482015260196024820152782932b8bab2b9ba399030b932903737ba1034b71037b93232b960391b6044820152606401610176565b61062c6040860186611a49565b8281811061063c5761063c611b56565b606002919091013592505060010161058e565b5060005b6106606040860186611a49565b905081101561077857366106776040870187611a49565b8381811061068757610687611b56565b90506060020190506002548160000135116106a25750610770565b60006106b46040830160208401611b6c565b60038111156106c5576106c56117a1565b036106fa57803584866106d781611a1d565b9750815181106106e9576106e9611b56565b60200260200101818152505061076e565b600261070c6040830160208401611b6c565b600381111561071d5761071d6117a1565b0361072f57803584866106d781611a1d565b60405162461bcd60e51b8152602060048201526014602482015273756e6b6e6f776e2072657175657374207479706560601b6044820152606401610176565b505b600101610653565b506002555b600161078c6020850185611a99565b90501015806107a7575060016107a28480611ae3565b905010155b15610d7957600060016107bd6020860186611a99565b905010610863576107d16020850185611a99565b60008181106107e2576107e2611b56565b90506020028101906107f49190611b8d565b35905060016108038580611ae3565b90501061085e57806108158580611ae3565b600081811061082657610826611b56565b90506080020160000135101561085e576108408480611ae3565b600081811061085157610851611b56565b9050608002016000013590505b61088b565b61086d8480611ae3565b600081811061087e5761087e611b56565b9050608002016000013590505b600354610899906001611b2d565b8111156108e85760405162461bcd60e51b815260206004820181905260248201527f5265717565737473206d697373696e67206265747765656e20757064617465736044820152606401610176565b600080825b836108f88880611ae3565b905061090760208a018a611a99565b610912929150611b2d565b61091c9190611b2d565b811015610d36576040518181527f7579475c78e106ac8b0a72cd7c852257ee73c8044bff1a17944df48bf7af0ace9060200160405180910390a16040518281527f7579475c78e106ac8b0a72cd7c852257ee73c8044bff1a17944df48bf7af0ace9060200160405180910390a160016109986020890189611a99565b9050101580156109d65750806109b16020890189611a99565b858181106109c1576109c1611b56565b90506020028101906109d39190611b8d565b35145b15610b66577f9382d5bf5d160856e2c1dbfbda3b6b763496e40391d4ba0462e1c397bde0e1f4604051610a239060208082526006908201526518d85b98d95b60d21b604082015260600190565b60405180910390a1610afc610a3b6020890189611a99565b85818110610a4b57610a4b611b56565b9050602002810190610a5d9190611b8d565b35610a6b60208a018a611a99565b86818110610a7b57610a7b611b56565b9050602002810190610a8d9190611b8d565b60600135610a9e60208b018b611a99565b87818110610aae57610aae611b56565b9050602002810190610ac09190611b8d565b60800135610ad160208c018c611a99565b88818110610ae157610ae1611b56565b9050602002810190610af39190611b8d565b60a00135610ec4565b610b096020880188611a99565b84818110610b1957610b19611b56565b9050602002810190610b2b9190611b8d565b358587610b3781611a1d565b985081518110610b4957610b49611b56565b602090810291909101015282610b5e81611a1d565b935050610d2e565b6001610b728880611ae3565b905010158015610ba4575080610b888880611ae3565b84818110610b9857610b98611b56565b90506080020160000135145b15610cea577f9382d5bf5d160856e2c1dbfbda3b6b763496e40391d4ba0462e1c397bde0e1f4604051610bf390602080825260089082015267776974686472617760c01b604082015260600190565b60405180910390a1610c8b610c088880611ae3565b84818110610c1857610c18611b56565b9050608002016020016020810190610c309190611bad565b610c3a8980611ae3565b85818110610c4a57610c4a611b56565b9050608002016040016020810190610c629190611bad565b610c6c8a80611ae3565b86818110610c7c57610c7c611b56565b90506080020160600135610fe7565b610c958780611ae3565b83818110610ca557610ca5611b56565b90506080020160000135858780610cbb90611a1d565b985081518110610ccd57610ccd611b56565b602090810291909101015281610ce281611a1d565b925050610d2e565b60405162461bcd60e51b81526020600482015260196024820152782932b8bab2b9ba399030b932903737ba1034b71037b93232b960391b6044820152606401610176565b6001016108ed565b50600183610d448880611ae3565b9050610d5360208a018a611a99565b610d5e929150611b2d565b610d689190611b2d565b610d729190611a36565b6003555050505b8115610e985760008267ffffffffffffffff811115610d9a57610d9a611b40565b604051908082528060200260200182016040528015610dc3578160200160208202803683370190505b50905060005b83811015610e1057828181518110610de357610de3611b56565b6020026020010151828281518110610dfd57610dfd611b56565b6020908102919091010152600101610dc9565b5060018054829160069160009182610e2783611a1d565b9190505581526020019081526020016000206000019080519060200190610e4f92919061167c565b507f09b30365986269e3939307e7ca7b7b7421a8ad08ef18bb766c668d27cbc2aef960018054610e7f9190611a36565b82604051610e8e929190611bc8565b60405180910390a1505b505050565b610ea56116c7565b610ebf6002546001610eb79190611b2d565b600154611169565b905090565b60018054906000610ed483611a1d565b919050555060006040518060400160405280600581526020016468656c6c6f60d81b8152509050600081604051602001610f0e9190611be9565b60408051808303601f190181528282528051602091820120838301835289845286811415828501818152600180546000908152600486528690208751815591519101805460ff1916911515919091179055835188815292830182905290945092917f7ed2b11bb98bfba340e605f275f4b45bd24f5fc23ac3cd7f9f6100cd1b2d7b1a910160405180910390a160015460408051918252602082018a905283151582820152517f66ad31c31fbcf76dec66f20ea9044aac0527e86cc12ac4c3eafdd02187ed09919181900360600190a15050505050505050565b6040516370a0823160e01b8152306004820152829082906001600160a01b038316906370a0823190602401602060405180830381865afa15801561102f573d6000803e3d6000fd5b505050506040513d601f19601f820116820180604052508101906110539190611c18565b10156110ad5760405162461bcd60e51b8152602060048201526024808201527f496e73756666696369656e742062616c616e636520696e2074686520636f6e746044820152631c9858dd60e21b6064820152608401610176565b60405163a9059cbb60e01b81526001600160a01b0385811660048301526024820184905282169063a9059cbb906044016020604051808303816000875af11580156110fc573d6000803e3d6000fd5b505050506040513d601f19601f8201168201806040525081019061112091906119e5565b50604080516001600160a01b038087168252851660208201529081018390527fa92ff919b850e4909ab2261d907ef955f11bc1716733a6cbece38d163a69af8a90606001610e8e565b6111716116c7565b6111796116c7565b60008080865b86811161120f576000818152600560205260409020546001600160a01b0316156111b557836111ad81611a1d565b9450506111fd565b600081815260066020526040902054156111db57816111d381611a1d565b9250506111fd565b600081815260046020526040902054156111fd57826111f981611a1d565b9350505b8061120781611a1d565b91505061117f565b5060008161121d8486611b2d565b6112279190611b2d565b90508067ffffffffffffffff81111561124257611242611b40565b60405190808252806020026020018201604052801561126b578160200160208202803683370190505b506060860152604085018890528367ffffffffffffffff81111561129157611291611b40565b6040519080825280602002602001820160405280156112dc57816020015b60408051606081018252600080825260208083018290529282015282526000199092019101816112af5790505b5060808601528267ffffffffffffffff8111156112fb576112fb611b40565b60405190808252806020026020018201604052801561134057816020015b60408051808201909152600080825260208201528152602001906001900390816113195790505b5060a08601528167ffffffffffffffff81111561135f5761135f611b40565b60405190808252806020026020018201604052801561139f57816020015b60408051602081019091526060815281526020019060019003908161137d5790505b5060c08601526002548552600180546113b89190611a36565b6020860152506000925082915081905080875b87811161166d576000818152600560205260409020546001600160a01b0316156114b45760008660600151838061140190611a1d565b94508151811061141357611413611b56565b6020026020010190600381111561142c5761142c6117a1565b9081600381111561143f5761143f6117a1565b905250600081815260056020908152604091829020825160608101845281546001600160a01b03908116825260018301541692810192909252600201549181019190915260808701518661149281611a1d565b9750815181106114a4576114a4611b56565b602002602001018190525061165b565b600081815260066020526040902054156115a3576003866060015183806114da90611a1d565b9450815181106114ec576114ec611b56565b60200260200101906003811115611505576115056117a1565b90816003811115611518576115186117a1565b9052506000818152600660209081526040918290208251815480840282018501855292810183815290939192849284919084018282801561157857602002820191906000526020600020905b815481526020019060010190808311611564575b5050505050815250508660c00151848061159190611a1d565b9550815181106114a4576114a4611b56565b60008181526004602052604090205415611656576002866060015183806115c990611a1d565b9450815181106115db576115db611b56565b602002602001019060038111156115f4576115f46117a1565b90816003811115611607576116076117a1565b9052506000818152600460209081526040918290208251808401909352805483526001015460ff1615159082015260a08701518561164481611a1d565b9650815181106114a4576114a4611b56565b61166d565b8061166581611a1d565b9150506113cb565b50939450505050505b92915050565b8280548282559060005260206000209081019282156116b7579160200282015b828111156116b757825182559160200191906001019061169c565b506116c3929150611704565b5090565b6040518060e00160405280600081526020016000815260200160008152602001606081526020016060815260200160608152602001606081525090565b5b808211156116c35760008155600101611705565b80356001600160a01b038116811461173057600080fd5b919050565b6000806040838503121561174857600080fd5b61175183611719565b946020939093013593505050565b60006020828403121561177157600080fd5b813567ffffffffffffffff81111561178857600080fd5b82016060818503121561179a57600080fd5b9392505050565b634e487b7160e01b600052602160045260246000fd5b60008151808452602080850194506020840160005b8381101561180a57815180516001600160a01b03908116895284820151168489015260409081015190880152606090960195908201906001016117cc565b509495945050505050565b60008151808452602080850194506020840160005b8381101561180a578151805188528301511515838801526040909601959082019060010161182a565b60008151808452602080850194506020840160005b8381101561180a57815187529582019590820190600101611868565b600082825180855260208086019550808260051b84010181860160005b848110156118d757858303601f190189528151518484526118c485850182611853565b99850199935050908301906001016118a1565b5090979650505050505050565b60006020808352610100830184518285015281850151604085015260408501516060850152606085015160e060808601528181518084526101208701915084830193506000925060005b81811015611967578451600480821061195457634e487b7160e01b865260218152602486fd5b508352938501939185019160010161192e565b505060808701519350601f199250828682030160a087015261198981856117b7565b9350505060a0850151818584030160c08601526119a68382611815565b92505060c0850151818584030160e08601526119c28382611884565b9695505050505050565b6000602082840312156119de57600080fd5b5035919050565b6000602082840312156119f757600080fd5b8151801515811461179a57600080fd5b634e487b7160e01b600052601160045260246000fd5b600060018201611a2f57611a2f611a07565b5060010190565b8181038181111561167657611676611a07565b6000808335601e19843603018112611a6057600080fd5b83018035915067ffffffffffffffff821115611a7b57600080fd5b6020019150606081023603821315611a9257600080fd5b9250929050565b6000808335601e19843603018112611ab057600080fd5b83018035915067ffffffffffffffff821115611acb57600080fd5b6020019150600581901b3603821315611a9257600080fd5b6000808335601e19843603018112611afa57600080fd5b83018035915067ffffffffffffffff821115611b1557600080fd5b6020019150600781901b3603821315611a9257600080fd5b8082018082111561167657611676611a07565b634e487b7160e01b600052604160045260246000fd5b634e487b7160e01b600052603260045260246000fd5b600060208284031215611b7e57600080fd5b81356004811061179a57600080fd5b6000823560be19833603018112611ba357600080fd5b9190910192915050565b600060208284031215611bbf57600080fd5b61179a82611719565b828152604060208201526000611be16040830184611853565b949350505050565b6000825160005b81811015611c0a5760208186018101518583015201611bf0565b506000920191825250919050565b600060208284031215611c2a57600080fd5b505191905056fea26469706673582212205182883d21baeacbba44a2425f1d48dfb0f7a90eb7dd54376484a298eddd094064736f6c63430008180033","linkReferences":{}},"methodIdentifiers":{"cancelResolutions(uint256)":"ca9b21ae","counter()":"61bc221a","deposit(address,uint256)":"47e7ef24","getUpdateForL2()":"b1538706","lastProcessedUpdate_origin_l1()":"7fd4f845","lastProcessedUpdate_origin_l2()":"f26ee9d0","update_l1_from_l2(((uint256,address,address,uint256)[],(uint256,bytes,bytes,uint256,uint256,bytes32)[],(uint256,uint8,bool)[]))":"6e4a32e7"},"id":24}