{"abi":[{"type":"constructor","inputs":[],"stateMutability":"nonpayable"},{"type":"function","name":"allowance","inputs":[{"name":"owner","type":"address","internalType":"address"},{"name":"spender","type":"address","internalType":"address"}],"outputs":[{"name":"","type":"uint256","internalType":"uint256"}],"stateMutability":"view"},{"type":"function","name":"approve","inputs":[{"name":"spender","type":"address","internalType":"address"},{"name":"value","type":"uint256","internalType":"uint256"}],"outputs":[{"name":"","type":"bool","internalType":"bool"}],"stateMutability":"nonpayable"},{"type":"function","name":"balanceOf","inputs":[{"name":"account","type":"address","internalType":"address"}],"outputs":[{"name":"","type":"uint256","internalType":"uint256"}],"stateMutability":"view"},{"type":"function","name":"decimals","inputs":[],"outputs":[{"name":"","type":"uint8","internalType":"uint8"}],"stateMutability":"view"},{"type":"function","name":"mint","inputs":[{"name":"recipient","type":"address","internalType":"address"}],"outputs":[],"stateMutability":"nonpayable"},{"type":"function","name":"name","inputs":[],"outputs":[{"name":"","type":"string","internalType":"string"}],"stateMutability":"view"},{"type":"function","name":"symbol","inputs":[],"outputs":[{"name":"","type":"string","internalType":"string"}],"stateMutability":"view"},{"type":"function","name":"totalSupply","inputs":[],"outputs":[{"name":"","type":"uint256","internalType":"uint256"}],"stateMutability":"view"},{"type":"function","name":"transfer","inputs":[{"name":"to","type":"address","internalType":"address"},{"name":"value","type":"uint256","internalType":"uint256"}],"outputs":[{"name":"","type":"bool","internalType":"bool"}],"stateMutability":"nonpayable"},{"type":"function","name":"transferFrom","inputs":[{"name":"from","type":"address","internalType":"address"},{"name":"to","type":"address","internalType":"address"},{"name":"value","type":"uint256","internalType":"uint256"}],"outputs":[{"name":"","type":"bool","internalType":"bool"}],"stateMutability":"nonpayable"},{"type":"event","name":"Approval","inputs":[{"name":"owner","type":"address","indexed":true,"internalType":"address"},{"name":"spender","type":"address","indexed":true,"internalType":"address"},{"name":"value","type":"uint256","indexed":false,"internalType":"uint256"}],"anonymous":false},{"type":"event","name":"Transfer","inputs":[{"name":"from","type":"address","indexed":true,"internalType":"address"},{"name":"to","type":"address","indexed":true,"internalType":"address"},{"name":"value","type":"uint256","indexed":false,"internalType":"uint256"}],"anonymous":false},{"type":"error","name":"ERC20InsufficientAllowance","inputs":[{"name":"spender","type":"address","internalType":"address"},{"name":"allowance","type":"uint256","internalType":"uint256"},{"name":"needed","type":"uint256","internalType":"uint256"}]},{"type":"error","name":"ERC20InsufficientBalance","inputs":[{"name":"sender","type":"address","internalType":"address"},{"name":"balance","type":"uint256","internalType":"uint256"},{"name":"needed","type":"uint256","internalType":"uint256"}]},{"type":"error","name":"ERC20InvalidApprover","inputs":[{"name":"approver","type":"address","internalType":"address"}]},{"type":"error","name":"ERC20InvalidReceiver","inputs":[{"name":"receiver","type":"address","internalType":"address"}]},{"type":"error","name":"ERC20InvalidSender","inputs":[{"name":"sender","type":"address","internalType":"address"}]},{"type":"error","name":"ERC20InvalidSpender","inputs":[{"name":"spender","type":"address","internalType":"address"}]}],"bytecode":{"object":"0x608060405234801561001057600080fd5b50604051806040016040528060048152602001634e616d6560e01b8152506040518060400160405280600381526020016253594d60e81b8152508160039081610059919061010f565b506004610066828261010f565b5050506101ce565b634e487b7160e01b600052604160045260246000fd5b600181811c9082168061009857607f821691505b6020821081036100b857634e487b7160e01b600052602260045260246000fd5b50919050565b601f82111561010a576000816000526020600020601f850160051c810160208610156100e75750805b601f850160051c820191505b81811015610106578281556001016100f3565b5050505b505050565b81516001600160401b038111156101285761012861006e565b61013c816101368454610084565b846100be565b602080601f83116001811461017157600084156101595750858301515b600019600386901b1c1916600185901b178555610106565b600085815260208120601f198616915b828110156101a057888601518255948401946001909101908401610181565b50858210156101be5787850151600019600388901b60f8161c191681555b5050505050600190811b01905550565b610789806101dd6000396000f3fe608060405234801561001057600080fd5b506004361061009e5760003560e01c80636a627842116100665780636a6278421461011857806370a082311461012d57806395d89b4114610156578063a9059cbb1461015e578063dd62ed3e1461017157600080fd5b806306fdde03146100a3578063095ea7b3146100c157806318160ddd146100e457806323b872dd146100f6578063313ce56714610109575b600080fd5b6100ab6101aa565b6040516100b891906105d2565b60405180910390f35b6100d46100cf36600461063d565b61023c565b60405190151581526020016100b8565b6002545b6040519081526020016100b8565b6100d4610104366004610667565b610256565b604051601281526020016100b8565b61012b6101263660046106a3565b61027a565b005b6100e861013b3660046106a3565b6001600160a01b031660009081526020819052604090205490565b6100ab610288565b6100d461016c36600461063d565b610297565b6100e861017f3660046106c5565b6001600160a01b03918216600090815260016020908152604080832093909416825291909152205490565b6060600380546101b9906106f8565b80601f01602080910402602001604051908101604052809291908181526020018280546101e5906106f8565b80156102325780601f1061020757610100808354040283529160200191610232565b820191906000526020600020905b81548152906001019060200180831161021557829003601f168201915b5050505050905090565b60003361024a8185856102a5565b60019150505b92915050565b6000336102648582856102b7565b61026f85858561033a565b506001949350505050565b610285816018610399565b50565b6060600480546101b9906106f8565b60003361024a81858561033a565b6102b283838360016103d3565b505050565b6001600160a01b038381166000908152600160209081526040808320938616835292905220546000198114610334578181101561032557604051637dc7a0d960e11b81526001600160a01b038416600482015260248101829052604481018390526064015b60405180910390fd5b610334848484840360006103d3565b50505050565b6001600160a01b03831661036457604051634b637e8f60e11b81526000600482015260240161031c565b6001600160a01b03821661038e5760405163ec442f0560e01b81526000600482015260240161031c565b6102b28383836104a8565b6001600160a01b0382166103c35760405163ec442f0560e01b81526000600482015260240161031c565b6103cf600083836104a8565b5050565b6001600160a01b0384166103fd5760405163e602df0560e01b81526000600482015260240161031c565b6001600160a01b03831661042757604051634a1406b160e11b81526000600482015260240161031c565b6001600160a01b038085166000908152600160209081526040808320938716835292905220829055801561033457826001600160a01b0316846001600160a01b03167f8c5be1e5ebec7d5bd14f71427d1e84f3dd0314c0f7b2291e5b200ac8c7c3b9258460405161049a91815260200190565b60405180910390a350505050565b6001600160a01b0383166104d35780600260008282546104c89190610732565b909155506105459050565b6001600160a01b038316600090815260208190526040902054818110156105265760405163391434e360e21b81526001600160a01b0385166004820152602481018290526044810183905260640161031c565b6001600160a01b03841660009081526020819052604090209082900390555b6001600160a01b03821661056157600280548290039055610580565b6001600160a01b03821660009081526020819052604090208054820190555b816001600160a01b0316836001600160a01b03167fddf252ad1be2c89b69c2b068fc378daa952ba7f163c4a11628f55a4df523b3ef836040516105c591815260200190565b60405180910390a3505050565b60006020808352835180602085015260005b81811015610600578581018301518582016040015282016105e4565b506000604082860101526040601f19601f8301168501019250505092915050565b80356001600160a01b038116811461063857600080fd5b919050565b6000806040838503121561065057600080fd5b61065983610621565b946020939093013593505050565b60008060006060848603121561067c57600080fd5b61068584610621565b925061069360208501610621565b9150604084013590509250925092565b6000602082840312156106b557600080fd5b6106be82610621565b9392505050565b600080604083850312156106d857600080fd5b6106e183610621565b91506106ef60208401610621565b90509250929050565b600181811c9082168061070c57607f821691505b60208210810361072c57634e487b7160e01b600052602260045260246000fd5b50919050565b8082018082111561025057634e487b7160e01b600052601160045260246000fdfea2646970667358221220944215a488d77dfe4973b667564607650b2cce32cd783ea0f25ec5def0cb202a64736f6c63430008180033","linkReferences":{}},"methodIdentifiers":{"allowance(address,address)":"dd62ed3e","approve(address,uint256)":"095ea7b3","balanceOf(address)":"70a08231","decimals()":"313ce567","mint(address)":"6a627842","name()":"06fdde03","symbol()":"95d89b41","totalSupply()":"18160ddd","transfer(address,uint256)":"a9059cbb","transferFrom(address,address,uint256)":"23b872dd"},"id":29}