{"abi":[{"type":"constructor","inputs":[],"stateMutability":"nonpayable"},{"type":"function","name":"allowance","inputs":[{"name":"owner","type":"address","internalType":"address"},{"name":"spender","type":"address","internalType":"address"}],"outputs":[{"name":"","type":"uint256","internalType":"uint256"}],"stateMutability":"view"},{"type":"function","name":"approve","inputs":[{"name":"spender","type":"address","internalType":"address"},{"name":"amount","type":"uint256","internalType":"uint256"}],"outputs":[{"name":"","type":"bool","internalType":"bool"}],"stateMutability":"nonpayable"},{"type":"function","name":"balanceOf","inputs":[{"name":"account","type":"address","internalType":"address"}],"outputs":[{"name":"","type":"uint256","internalType":"uint256"}],"stateMutability":"view"},{"type":"function","name":"decimals","inputs":[],"outputs":[{"name":"","type":"uint8","internalType":"uint8"}],"stateMutability":"view"},{"type":"function","name":"decreaseAllowance","inputs":[{"name":"spender","type":"address","internalType":"address"},{"name":"subtractedValue","type":"uint256","internalType":"uint256"}],"outputs":[{"name":"","type":"bool","internalType":"bool"}],"stateMutability":"nonpayable"},{"type":"function","name":"increaseAllowance","inputs":[{"name":"spender","type":"address","internalType":"address"},{"name":"addedValue","type":"uint256","internalType":"uint256"}],"outputs":[{"name":"","type":"bool","internalType":"bool"}],"stateMutability":"nonpayable"},{"type":"function","name":"mint","inputs":[{"name":"account","type":"address","internalType":"address"},{"name":"amount","type":"uint256","internalType":"uint256"}],"outputs":[],"stateMutability":"nonpayable"},{"type":"function","name":"name","inputs":[],"outputs":[{"name":"","type":"string","internalType":"string"}],"stateMutability":"view"},{"type":"function","name":"owner","inputs":[],"outputs":[{"name":"","type":"address","internalType":"address"}],"stateMutability":"view"},{"type":"function","name":"symbol","inputs":[],"outputs":[{"name":"","type":"string","internalType":"string"}],"stateMutability":"view"},{"type":"function","name":"totalSupply","inputs":[],"outputs":[{"name":"","type":"uint256","internalType":"uint256"}],"stateMutability":"view"},{"type":"function","name":"transfer","inputs":[{"name":"to","type":"address","internalType":"address"},{"name":"amount","type":"uint256","internalType":"uint256"}],"outputs":[{"name":"","type":"bool","internalType":"bool"}],"stateMutability":"nonpayable"},{"type":"function","name":"transferFrom","inputs":[{"name":"from","type":"address","internalType":"address"},{"name":"to","type":"address","internalType":"address"},{"name":"amount","type":"uint256","internalType":"uint256"}],"outputs":[{"name":"","type":"bool","internalType":"bool"}],"stateMutability":"nonpayable"},{"type":"event","name":"Approval","inputs":[{"name":"owner","type":"address","indexed":true,"internalType":"address"},{"name":"spender","type":"address","indexed":true,"internalType":"address"},{"name":"value","type":"uint256","indexed":false,"internalType":"uint256"}],"anonymous":false},{"type":"event","name":"Transfer","inputs":[{"name":"from","type":"address","indexed":true,"internalType":"address"},{"name":"to","type":"address","indexed":true,"internalType":"address"},{"name":"value","type":"uint256","indexed":false,"internalType":"uint256"}],"anonymous":false}],"bytecode":{"object":"0x60806040523480156200001157600080fd5b506040518060400160405280600681526020016523b0b9b82b1960d11b8152506040518060400160405280600681526020016523a0a9a82b1960d11b815250818181600390805190602001906200006a929190620001b9565b50805162000080906004906020840190620001b9565b5050600580546001600160a01b03191633908117909155620000c99150620000a6601290565b620000b390600a62000374565b620000c390633b9aca006200038c565b620000d1565b505062000406565b6001600160a01b0382166200012c5760405162461bcd60e51b815260206004820152601f60248201527f45524332303a206d696e7420746f20746865207a65726f206164647265737300604482015260640160405180910390fd5b8060026000828254620001409190620003ae565b90915550506001600160a01b038216600090815260208190526040812080548392906200016f908490620003ae565b90915550506040518181526001600160a01b038316906000907fddf252ad1be2c89b69c2b068fc378daa952ba7f163c4a11628f55a4df523b3ef9060200160405180910390a35050565b828054620001c790620003c9565b90600052602060002090601f016020900481019282620001eb576000855562000236565b82601f106200020657805160ff191683800117855562000236565b8280016001018555821562000236579182015b828111156200023657825182559160200191906001019062000219565b506200024492915062000248565b5090565b5b8082111562000244576000815560010162000249565b634e487b7160e01b600052601160045260246000fd5b600181815b80851115620002b65781600019048211156200029a576200029a6200025f565b80851615620002a857918102915b93841c93908002906200027a565b509250929050565b600082620002cf575060016200036e565b81620002de575060006200036e565b8160018114620002f75760028114620003025762000322565b60019150506200036e565b60ff8411156200031657620003166200025f565b50506001821b6200036e565b5060208310610133831016604e8410600b841016171562000347575081810a6200036e565b62000353838362000275565b80600019048211156200036a576200036a6200025f565b0290505b92915050565b60006200038560ff841683620002be565b9392505050565b6000816000190483118215151615620003a957620003a96200025f565b500290565b60008219821115620003c457620003c46200025f565b500190565b600181811c90821680620003de57607f821691505b602082108114156200040057634e487b7160e01b600052602260045260246000fd5b50919050565b610a4b80620004166000396000f3fe608060405234801561001057600080fd5b50600436106100cf5760003560e01c806340c10f191161008c57806395d89b411161006657806395d89b41146101c5578063a457c2d7146101cd578063a9059cbb146101e0578063dd62ed3e146101f357600080fd5b806340c10f191461015c57806370a08231146101715780638da5cb5b1461019a57600080fd5b806306fdde03146100d4578063095ea7b3146100f257806318160ddd1461011557806323b872dd14610127578063313ce5671461013a5780633950935114610149575b600080fd5b6100dc610206565b6040516100e99190610888565b60405180910390f35b6101056101003660046108f9565b610298565b60405190151581526020016100e9565b6002545b6040519081526020016100e9565b610105610135366004610923565b6102b0565b604051601281526020016100e9565b6101056101573660046108f9565b6102d4565b61016f61016a3660046108f9565b6102f6565b005b61011961017f36600461095f565b6001600160a01b031660009081526020819052604090205490565b6005546101ad906001600160a01b031681565b6040516001600160a01b0390911681526020016100e9565b6100dc61037a565b6101056101db3660046108f9565b610389565b6101056101ee3660046108f9565b610404565b610119610201366004610981565b610412565b606060038054610215906109b4565b80601f0160208091040260200160405190810160405280929190818152602001828054610241906109b4565b801561028e5780601f106102635761010080835404028352916020019161028e565b820191906000526020600020905b81548152906001019060200180831161027157829003601f168201915b5050505050905090565b6000336102a681858561043d565b5060019392505050565b6000336102be858285610561565b6102c98585856105db565b506001949350505050565b6000336102a68185856102e78383610412565b6102f191906109ef565b61043d565b6005546001600160a01b0316331461036c5760405162461bcd60e51b815260206004820152602e60248201527f4f6e6c79206f6e652077686f206465706c6f79656420636f6e7472616374206360448201526d616e206d696e7420746f6b656e7360901b60648201526084015b60405180910390fd5b61037682826107a9565b5050565b606060048054610215906109b4565b600033816103978286610412565b9050838110156103f75760405162461bcd60e51b815260206004820152602560248201527f45524332303a2064656372656173656420616c6c6f77616e63652062656c6f77604482015264207a65726f60d81b6064820152608401610363565b6102c9828686840361043d565b6000336102a68185856105db565b6001600160a01b03918216600090815260016020908152604080832093909416825291909152205490565b6001600160a01b03831661049f5760405162461bcd60e51b8152602060048201526024808201527f45524332303a20617070726f76652066726f6d20746865207a65726f206164646044820152637265737360e01b6064820152608401610363565b6001600160a01b0382166105005760405162461bcd60e51b815260206004820152602260248201527f45524332303a20617070726f766520746f20746865207a65726f206164647265604482015261737360f01b6064820152608401610363565b6001600160a01b0383811660008181526001602090815260408083209487168084529482529182902085905590518481527f8c5be1e5ebec7d5bd14f71427d1e84f3dd0314c0f7b2291e5b200ac8c7c3b925910160405180910390a3505050565b600061056d8484610412565b905060001981146105d557818110156105c85760405162461bcd60e51b815260206004820152601d60248201527f45524332303a20696e73756666696369656e7420616c6c6f77616e63650000006044820152606401610363565b6105d5848484840361043d565b50505050565b6001600160a01b03831661063f5760405162461bcd60e51b815260206004820152602560248201527f45524332303a207472616e736665722066726f6d20746865207a65726f206164604482015264647265737360d81b6064820152608401610363565b6001600160a01b0382166106a15760405162461bcd60e51b815260206004820152602360248201527f45524332303a207472616e7366657220746f20746865207a65726f206164647260448201526265737360e81b6064820152608401610363565b6001600160a01b038316600090815260208190526040902054818110156107195760405162461bcd60e51b815260206004820152602660248201527f45524332303a207472616e7366657220616d6f756e7420657863656564732062604482015265616c616e636560d01b6064820152608401610363565b6001600160a01b038085166000908152602081905260408082208585039055918516815290812080548492906107509084906109ef565b92505081905550826001600160a01b0316846001600160a01b03167fddf252ad1be2c89b69c2b068fc378daa952ba7f163c4a11628f55a4df523b3ef8460405161079c91815260200190565b60405180910390a36105d5565b6001600160a01b0382166107ff5760405162461bcd60e51b815260206004820152601f60248201527f45524332303a206d696e7420746f20746865207a65726f2061646472657373006044820152606401610363565b806002600082825461081191906109ef565b90915550506001600160a01b0382166000908152602081905260408120805483929061083e9084906109ef565b90915550506040518181526001600160a01b038316906000907fddf252ad1be2c89b69c2b068fc378daa952ba7f163c4a11628f55a4df523b3ef9060200160405180910390a35050565b600060208083528351808285015260005b818110156108b557858101830151858201604001528201610899565b818111156108c7576000604083870101525b50601f01601f1916929092016040019392505050565b80356001600160a01b03811681146108f457600080fd5b919050565b6000806040838503121561090c57600080fd5b610915836108dd565b946020939093013593505050565b60008060006060848603121561093857600080fd5b610941846108dd565b925061094f602085016108dd565b9150604084013590509250925092565b60006020828403121561097157600080fd5b61097a826108dd565b9392505050565b6000806040838503121561099457600080fd5b61099d836108dd565b91506109ab602084016108dd565b90509250929050565b600181811c908216806109c857607f821691505b602082108114156109e957634e487b7160e01b600052602260045260246000fd5b50919050565b60008219821115610a1057634e487b7160e01b600052601160045260246000fd5b50019056fea2646970667358221220c70255e86b8d60a1627523c73cde6e30f9b2b620cd1bef6b05e95016796a2a6a64736f6c634300080c0033","linkReferences":{}},"methodIdentifiers":{"allowance(address,address)":"dd62ed3e","approve(address,uint256)":"095ea7b3","balanceOf(address)":"70a08231","decimals()":"313ce567","decreaseAllowance(address,uint256)":"a457c2d7","increaseAllowance(address,uint256)":"39509351","mint(address,uint256)":"40c10f19","name()":"06fdde03","owner()":"8da5cb5b","symbol()":"95d89b41","totalSupply()":"18160ddd","transfer(address,uint256)":"a9059cbb","transferFrom(address,address,uint256)":"23b872dd"},"id":128}