{"abi":[{"type":"function","name":"increment","inputs":[],"outputs":[],"stateMutability":"nonpayable"},{"type":"function","name":"mat","inputs":[],"outputs":[],"stateMutability":"nonpayable"},{"type":"function","name":"number","inputs":[],"outputs":[{"name":"","type":"uint256","internalType":"uint256"}],"stateMutability":"view"},{"type":"function","name":"setNumber","inputs":[{"name":"newNumber","type":"uint256","internalType":"uint256"}],"outputs":[],"stateMutability":"nonpayable"}],"bytecode":{"object":"0x608060405234801561001057600080fd5b50610101806100206000396000f3fe6080604052348015600f57600080fd5b506004361060465760003560e01c80633fb5c1cb14604b5780638381f58a14605d578063ab0783da14605b578063d09de08a146077575b600080fd5b605b6056366004608d565b600055565b005b606560005481565b60405190815260200160405180910390f35b605b60008054908060868360a5565b9190505550565b600060208284031215609e57600080fd5b5035919050565b60006001820160c457634e487b7160e01b600052601160045260246000fd5b506001019056fea2646970667358221220f6549d1cf553dc836ac1ad1170a470b6e469a111514cc480f9b8bff51302815e64736f6c63430008180033","linkReferences":{}},"methodIdentifiers":{"increment()":"d09de08a","mat()":"ab0783da","number()":"8381f58a","setNumber(uint256)":"3fb5c1cb"},"id":25}