{
  "abi": [
    {
      "anonymous": false,
      "inputs": [
        {
          "indexed": false,
          "internalType": "uint256",
          "name": "requestId",
          "type": "uint256"
        },
        {
          "indexed": false,
          "internalType": "address",
          "name": "depositRecipient",
          "type": "address"
        },
        {
          "indexed": false,
          "internalType": "address",
          "name": "tokenAddress",
          "type": "address"
        },
        {
          "indexed": false,
          "internalType": "uint256",
          "name": "amount",
          "type": "uint256"
        },
        {
          "indexed": false,
          "internalType": "uint256",
          "name": "ferryTip",
          "type": "uint256"
        }
      ],
      "name": "DepositAcceptedIntoQueue",
      "type": "event"
    },
    {
      "anonymous": false,
      "inputs": [
        {
          "indexed": false,
          "internalType": "uint256",
          "name": "requestId",
          "type": "uint256"
        },
        {
          "indexed": false,
          "internalType": "bool",
          "name": "cancelJustified",
          "type": "bool"
        }
      ],
      "name": "DisputeResolutionAcceptedIntoQueue",
      "type": "event"
    },
    {
      "anonymous": false,
      "inputs": [
        {
          "indexed": false,
          "internalType": "address",
          "name": "sender",
          "type": "address"
        },
        {
          "indexed": false,
          "internalType": "address",
          "name": "token_address",
          "type": "address"
        },
        {
          "indexed": false,
          "internalType": "uint256",
          "name": "amount",
          "type": "uint256"
        }
      ],
      "name": "ERC20TokensWithdrawn",
      "type": "event"
    },
    {
      "anonymous": false,
      "inputs": [
        {
          "indexed": false,
          "internalType": "uint256",
          "name": "requestId",
          "type": "uint256"
        },
        {
          "indexed": false,
          "internalType": "uint256",
          "name": "originDepositId",
          "type": "uint256"
        },
        {
          "indexed": false,
          "internalType": "bytes32",
          "name": "failedDespotiResolutionHash",
          "type": "bytes32"
        }
      ],
      "name": "FailedDepositResolutionClosed",
      "type": "event"
    },
    {
      "anonymous": false,
      "inputs": [
        {
          "indexed": false,
          "internalType": "uint256",
          "name": "requestId",
          "type": "uint256"
        },
        {
          "indexed": false,
          "internalType": "bytes32",
          "name": "withdrawalHash",
          "type": "bytes32"
        }
      ],
      "name": "FerriedWithdrawalClosed",
      "type": "event"
    },
    {
      "anonymous": false,
      "inputs": [
        {
          "indexed": false,
          "internalType": "uint8",
          "name": "version",
          "type": "uint8"
        }
      ],
      "name": "Initialized",
      "type": "event"
    },
    {
      "anonymous": false,
      "inputs": [
        {
          "indexed": false,
          "internalType": "bytes32",
          "name": "root",
          "type": "bytes32"
        },
        {
          "components": [
            {
              "internalType": "uint256",
              "name": "start",
              "type": "uint256"
            },
            {
              "internalType": "uint256",
              "name": "end",
              "type": "uint256"
            }
          ],
          "indexed": false,
          "internalType": "struct IRolldownPrimitives.Range",
          "name": "range",
          "type": "tuple"
        }
      ],
      "name": "L2UpdateAccepted",
      "type": "event"
    },
    {
      "anonymous": false,
      "inputs": [
        {
          "indexed": false,
          "internalType": "address",
          "name": "sender",
          "type": "address"
        },
        {
          "indexed": false,
          "internalType": "uint256",
          "name": "amount",
          "type": "uint256"
        }
      ],
      "name": "NativeTokensWithdrawn",
      "type": "event"
    },
    {
      "anonymous": false,
      "inputs": [
        {
          "indexed": false,
          "internalType": "address",
          "name": "updater",
          "type": "address"
        }
      ],
      "name": "NewUpdaterSet",
      "type": "event"
    },
    {
      "anonymous": false,
      "inputs": [
        {
          "indexed": true,
          "internalType": "address",
          "name": "previousOwner",
          "type": "address"
        },
        {
          "indexed": true,
          "internalType": "address",
          "name": "newOwner",
          "type": "address"
        }
      ],
      "name": "OwnershipTransferred",
      "type": "event"
    },
    {
      "anonymous": false,
      "inputs": [
        {
          "indexed": true,
          "internalType": "address",
          "name": "account",
          "type": "address"
        },
        {
          "indexed": false,
          "internalType": "uint256",
          "name": "newPausedStatus",
          "type": "uint256"
        }
      ],
      "name": "Paused",
      "type": "event"
    },
    {
      "anonymous": false,
      "inputs": [
        {
          "indexed": false,
          "internalType": "contract IPauserRegistry",
          "name": "pauserRegistry",
          "type": "address"
        },
        {
          "indexed": false,
          "internalType": "contract IPauserRegistry",
          "name": "newPauserRegistry",
          "type": "address"
        }
      ],
      "name": "PauserRegistrySet",
      "type": "event"
    },
    {
      "anonymous": false,
      "inputs": [
        {
          "indexed": true,
          "internalType": "address",
          "name": "account",
          "type": "address"
        },
        {
          "indexed": false,
          "internalType": "uint256",
          "name": "newPausedStatus",
          "type": "uint256"
        }
      ],
      "name": "Unpaused",
      "type": "event"
    },
    {
      "anonymous": false,
      "inputs": [
        {
          "indexed": false,
          "internalType": "uint256",
          "name": "requestId",
          "type": "uint256"
        },
        {
          "indexed": false,
          "internalType": "bytes32",
          "name": "withdrawalHash",
          "type": "bytes32"
        }
      ],
      "name": "WithdrawalClosed",
      "type": "event"
    },
    {
      "anonymous": false,
      "inputs": [
        {
          "indexed": false,
          "internalType": "uint256",
          "name": "requestId",
          "type": "uint256"
        },
        {
          "indexed": false,
          "internalType": "uint256",
          "name": "amount",
          "type": "uint256"
        },
        {
          "indexed": false,
          "internalType": "address",
          "name": "recipient",
          "type": "address"
        },
        {
          "indexed": false,
          "internalType": "address",
          "name": "ferry",
          "type": "address"
        },
        {
          "indexed": false,
          "internalType": "bytes32",
          "name": "withdrawalHash",
          "type": "bytes32"
        }
      ],
      "name": "WithdrawalFerried",
      "type": "event"
    },
    {
      "inputs": [],
      "name": "CLOSED",
      "outputs": [
        {
          "internalType": "address",
          "name": "",
          "type": "address"
        }
      ],
      "stateMutability": "view",
      "type": "function"
    },
    {
      "inputs": [],
      "name": "NATIVE_TOKEN_ADDRESS",
      "outputs": [
        {
          "internalType": "address",
          "name": "",
          "type": "address"
        }
      ],
      "stateMutability": "view",
      "type": "function"
    },
    {
      "inputs": [
        {
          "internalType": "bytes32",
          "name": "leave_hash",
          "type": "bytes32"
        },
        {
          "internalType": "uint32",
          "name": "leave_idx",
          "type": "uint32"
        },
        {
          "internalType": "bytes32[]",
          "name": "proof",
          "type": "bytes32[]"
        },
        {
          "internalType": "uint32",
          "name": "leaves_count",
          "type": "uint32"
        }
      ],
      "name": "calculate_root",
      "outputs": [
        {
          "internalType": "bytes32",
          "name": "",
          "type": "bytes32"
        }
      ],
      "stateMutability": "pure",
      "type": "function"
    },
    {
      "inputs": [
        {
          "internalType": "uint32",
          "name": "level",
          "type": "uint32"
        },
        {
          "internalType": "uint32",
          "name": "pos",
          "type": "uint32"
        },
        {
          "internalType": "bytes32",
          "name": "hash",
          "type": "bytes32"
        },
        {
          "internalType": "bytes32[]",
          "name": "proofs",
          "type": "bytes32[]"
        },
        {
          "internalType": "uint32",
          "name": "proof_idx",
          "type": "uint32"
        },
        {
          "internalType": "uint32",
          "name": "max_index",
          "type": "uint32"
        }
      ],
      "name": "calculate_root_impl",
      "outputs": [
        {
          "internalType": "bytes32",
          "name": "",
          "type": "bytes32"
        }
      ],
      "stateMutability": "pure",
      "type": "function"
    },
    {
      "inputs": [
        {
          "internalType": "uint256",
          "name": "",
          "type": "uint256"
        }
      ],
      "name": "cancelResolutions",
      "outputs": [
        {
          "components": [
            {
              "internalType": "enum IRolldownPrimitives.Origin",
              "name": "origin",
              "type": "uint8"
            },
            {
              "internalType": "uint256",
              "name": "id",
              "type": "uint256"
            }
          ],
          "internalType": "struct IRolldownPrimitives.RequestId",
          "name": "requestId",
          "type": "tuple"
        },
        {
          "internalType": "uint256",
          "name": "l2RequestId",
          "type": "uint256"
        },
        {
          "internalType": "bool",
          "name": "cancelJustified",
          "type": "bool"
        },
        {
          "internalType": "uint256",
          "name": "timeStamp",
          "type": "uint256"
        }
      ],
      "stateMutability": "view",
      "type": "function"
    },
    {
      "inputs": [],
      "name": "chain",
      "outputs": [
        {
          "internalType": "enum IRolldownPrimitives.ChainId",
          "name": "",
          "type": "uint8"
        }
      ],
      "stateMutability": "view",
      "type": "function"
    },
    {
      "inputs": [
        {
          "components": [
            {
              "components": [
                {
                  "internalType": "enum IRolldownPrimitives.Origin",
                  "name": "origin",
                  "type": "uint8"
                },
                {
                  "internalType": "uint256",
                  "name": "id",
                  "type": "uint256"
                }
              ],
              "internalType": "struct IRolldownPrimitives.RequestId",
              "name": "requestId",
              "type": "tuple"
            },
            {
              "components": [
                {
                  "internalType": "uint256",
                  "name": "start",
                  "type": "uint256"
                },
                {
                  "internalType": "uint256",
                  "name": "end",
                  "type": "uint256"
                }
              ],
              "internalType": "struct IRolldownPrimitives.Range",
              "name": "range",
              "type": "tuple"
            },
            {
              "internalType": "bytes32",
              "name": "hash",
              "type": "bytes32"
            }
          ],
          "internalType": "struct IRolldownPrimitives.Cancel",
          "name": "cancel",
          "type": "tuple"
        },
        {
          "internalType": "bytes32",
          "name": "merkle_root",
          "type": "bytes32"
        },
        {
          "internalType": "bytes32[]",
          "name": "proof",
          "type": "bytes32[]"
        }
      ],
      "name": "close_cancel",
      "outputs": [],
      "stateMutability": "nonpayable",
      "type": "function"
    },
    {
      "inputs": [
        {
          "components": [
            {
              "components": [
                {
                  "internalType": "enum IRolldownPrimitives.Origin",
                  "name": "origin",
                  "type": "uint8"
                },
                {
                  "internalType": "uint256",
                  "name": "id",
                  "type": "uint256"
                }
              ],
              "internalType": "struct IRolldownPrimitives.RequestId",
              "name": "requestId",
              "type": "tuple"
            },
            {
              "internalType": "uint256",
              "name": "originRequestId",
              "type": "uint256"
            },
            {
              "internalType": "address",
              "name": "ferry",
              "type": "address"
            }
          ],
          "internalType": "struct IRolldownPrimitives.FailedDepositResolution",
          "name": "failedDeposit",
          "type": "tuple"
        },
        {
          "internalType": "bytes32",
          "name": "merkle_root",
          "type": "bytes32"
        },
        {
          "internalType": "bytes32[]",
          "name": "proof",
          "type": "bytes32[]"
        }
      ],
      "name": "close_deposit_refund",
      "outputs": [],
      "stateMutability": "nonpayable",
      "type": "function"
    },
    {
      "inputs": [
        {
          "components": [
            {
              "components": [
                {
                  "internalType": "enum IRolldownPrimitives.Origin",
                  "name": "origin",
                  "type": "uint8"
                },
                {
                  "internalType": "uint256",
                  "name": "id",
                  "type": "uint256"
                }
              ],
              "internalType": "struct IRolldownPrimitives.RequestId",
              "name": "requestId",
              "type": "tuple"
            },
            {
              "internalType": "address",
              "name": "recipient",
              "type": "address"
            },
            {
              "internalType": "address",
              "name": "tokenAddress",
              "type": "address"
            },
            {
              "internalType": "uint256",
              "name": "amount",
              "type": "uint256"
            },
            {
              "internalType": "uint256",
              "name": "ferryTip",
              "type": "uint256"
            }
          ],
          "internalType": "struct IRolldownPrimitives.Withdrawal",
          "name": "withdrawal",
          "type": "tuple"
        },
        {
          "internalType": "bytes32",
          "name": "merkle_root",
          "type": "bytes32"
        },
        {
          "internalType": "bytes32[]",
          "name": "proof",
          "type": "bytes32[]"
        }
      ],
      "name": "close_withdrawal",
      "outputs": [],
      "stateMutability": "nonpayable",
      "type": "function"
    },
    {
      "inputs": [],
      "name": "counter",
      "outputs": [
        {
          "internalType": "uint256",
          "name": "",
          "type": "uint256"
        }
      ],
      "stateMutability": "view",
      "type": "function"
    },
    {
      "inputs": [
        {
          "internalType": "address",
          "name": "tokenAddress",
          "type": "address"
        },
        {
          "internalType": "uint256",
          "name": "amount",
          "type": "uint256"
        },
        {
          "internalType": "uint256",
          "name": "ferryTip",
          "type": "uint256"
        }
      ],
      "name": "deposit",
      "outputs": [],
      "stateMutability": "nonpayable",
      "type": "function"
    },
    {
      "inputs": [
        {
          "internalType": "address",
          "name": "tokenAddress",
          "type": "address"
        },
        {
          "internalType": "uint256",
          "name": "amount",
          "type": "uint256"
        }
      ],
      "name": "deposit",
      "outputs": [],
      "stateMutability": "nonpayable",
      "type": "function"
    },
    {
      "inputs": [
        {
          "internalType": "address",
          "name": "tokenAddress",
          "type": "address"
        },
        {
          "internalType": "uint256",
          "name": "amount",
          "type": "uint256"
        },
        {
          "internalType": "uint256",
          "name": "ferryTip",
          "type": "uint256"
        }
      ],
      "name": "deposit_erc20",
      "outputs": [],
      "stateMutability": "nonpayable",
      "type": "function"
    },
    {
      "inputs": [
        {
          "internalType": "address",
          "name": "tokenAddress",
          "type": "address"
        },
        {
          "internalType": "uint256",
          "name": "amount",
          "type": "uint256"
        }
      ],
      "name": "deposit_erc20",
      "outputs": [],
      "stateMutability": "nonpayable",
      "type": "function"
    },
    {
      "inputs": [],
      "name": "deposit_native",
      "outputs": [],
      "stateMutability": "payable",
      "type": "function"
    },
    {
      "inputs": [
        {
          "internalType": "uint256",
          "name": "ferryTip",
          "type": "uint256"
        }
      ],
      "name": "deposit_native",
      "outputs": [],
      "stateMutability": "payable",
      "type": "function"
    },
    {
      "inputs": [
        {
          "internalType": "uint256",
          "name": "",
          "type": "uint256"
        }
      ],
      "name": "deposits",
      "outputs": [
        {
          "components": [
            {
              "internalType": "enum IRolldownPrimitives.Origin",
              "name": "origin",
              "type": "uint8"
            },
            {
              "internalType": "uint256",
              "name": "id",
              "type": "uint256"
            }
          ],
          "internalType": "struct IRolldownPrimitives.RequestId",
          "name": "requestId",
          "type": "tuple"
        },
        {
          "internalType": "address",
          "name": "depositRecipient",
          "type": "address"
        },
        {
          "internalType": "address",
          "name": "tokenAddress",
          "type": "address"
        },
        {
          "internalType": "uint256",
          "name": "amount",
          "type": "uint256"
        },
        {
          "internalType": "uint256",
          "name": "timeStamp",
          "type": "uint256"
        },
        {
          "internalType": "uint256",
          "name": "ferryTip",
          "type": "uint256"
        }
      ],
      "stateMutability": "view",
      "type": "function"
    },
    {
      "inputs": [
        {
          "components": [
            {
              "components": [
                {
                  "internalType": "enum IRolldownPrimitives.Origin",
                  "name": "origin",
                  "type": "uint8"
                },
                {
                  "internalType": "uint256",
                  "name": "id",
                  "type": "uint256"
                }
              ],
              "internalType": "struct IRolldownPrimitives.RequestId",
              "name": "requestId",
              "type": "tuple"
            },
            {
              "internalType": "address",
              "name": "recipient",
              "type": "address"
            },
            {
              "internalType": "address",
              "name": "tokenAddress",
              "type": "address"
            },
            {
              "internalType": "uint256",
              "name": "amount",
              "type": "uint256"
            },
            {
              "internalType": "uint256",
              "name": "ferryTip",
              "type": "uint256"
            }
          ],
          "internalType": "struct IRolldownPrimitives.Withdrawal",
          "name": "withdrawal",
          "type": "tuple"
        }
      ],
      "name": "ferry_withdrawal",
      "outputs": [],
      "stateMutability": "payable",
      "type": "function"
    },
    {
      "inputs": [
        {
          "internalType": "uint256",
          "name": "requestId",
          "type": "uint256"
        }
      ],
      "name": "find_l2_batch",
      "outputs": [
        {
          "components": [
            {
              "internalType": "uint256",
              "name": "start",
              "type": "uint256"
            },
            {
              "internalType": "uint256",
              "name": "end",
              "type": "uint256"
            }
          ],
          "internalType": "struct IRolldownPrimitives.Range",
          "name": "",
          "type": "tuple"
        }
      ],
      "stateMutability": "view",
      "type": "function"
    },
    {
      "inputs": [],
      "name": "getMerkleRootsLength",
      "outputs": [
        {
          "internalType": "uint256",
          "name": "",
          "type": "uint256"
        }
      ],
      "stateMutability": "view",
      "type": "function"
    },
    {
      "inputs": [
        {
          "internalType": "uint256",
          "name": "start",
          "type": "uint256"
        },
        {
          "internalType": "uint256",
          "name": "end",
          "type": "uint256"
        }
      ],
      "name": "getPendingRequests",
      "outputs": [
        {
          "components": [
            {
              "internalType": "enum IRolldownPrimitives.ChainId",
              "name": "chain",
              "type": "uint8"
            },
            {
              "components": [
                {
                  "components": [
                    {
                      "internalType": "enum IRolldownPrimitives.Origin",
                      "name": "origin",
                      "type": "uint8"
                    },
                    {
                      "internalType": "uint256",
                      "name": "id",
                      "type": "uint256"
                    }
                  ],
                  "internalType": "struct IRolldownPrimitives.RequestId",
                  "name": "requestId",
                  "type": "tuple"
                },
                {
                  "internalType": "address",
                  "name": "depositRecipient",
                  "type": "address"
                },
                {
                  "internalType": "address",
                  "name": "tokenAddress",
                  "type": "address"
                },
                {
                  "internalType": "uint256",
                  "name": "amount",
                  "type": "uint256"
                },
                {
                  "internalType": "uint256",
                  "name": "timeStamp",
                  "type": "uint256"
                },
                {
                  "internalType": "uint256",
                  "name": "ferryTip",
                  "type": "uint256"
                }
              ],
              "internalType": "struct IRolldownPrimitives.Deposit[]",
              "name": "pendingDeposits",
              "type": "tuple[]"
            },
            {
              "components": [
                {
                  "components": [
                    {
                      "internalType": "enum IRolldownPrimitives.Origin",
                      "name": "origin",
                      "type": "uint8"
                    },
                    {
                      "internalType": "uint256",
                      "name": "id",
                      "type": "uint256"
                    }
                  ],
                  "internalType": "struct IRolldownPrimitives.RequestId",
                  "name": "requestId",
                  "type": "tuple"
                },
                {
                  "internalType": "uint256",
                  "name": "l2RequestId",
                  "type": "uint256"
                },
                {
                  "internalType": "bool",
                  "name": "cancelJustified",
                  "type": "bool"
                },
                {
                  "internalType": "uint256",
                  "name": "timeStamp",
                  "type": "uint256"
                }
              ],
              "internalType": "struct IRolldownPrimitives.CancelResolution[]",
              "name": "pendingCancelResolutions",
              "type": "tuple[]"
            }
          ],
          "internalType": "struct IRolldownPrimitives.L1Update",
          "name": "",
          "type": "tuple"
        }
      ],
      "stateMutability": "view",
      "type": "function"
    },
    {
      "inputs": [],
      "name": "getUpdateForL2",
      "outputs": [
        {
          "components": [
            {
              "internalType": "enum IRolldownPrimitives.ChainId",
              "name": "chain",
              "type": "uint8"
            },
            {
              "components": [
                {
                  "components": [
                    {
                      "internalType": "enum IRolldownPrimitives.Origin",
                      "name": "origin",
                      "type": "uint8"
                    },
                    {
                      "internalType": "uint256",
                      "name": "id",
                      "type": "uint256"
                    }
                  ],
                  "internalType": "struct IRolldownPrimitives.RequestId",
                  "name": "requestId",
                  "type": "tuple"
                },
                {
                  "internalType": "address",
                  "name": "depositRecipient",
                  "type": "address"
                },
                {
                  "internalType": "address",
                  "name": "tokenAddress",
                  "type": "address"
                },
                {
                  "internalType": "uint256",
                  "name": "amount",
                  "type": "uint256"
                },
                {
                  "internalType": "uint256",
                  "name": "timeStamp",
                  "type": "uint256"
                },
                {
                  "internalType": "uint256",
                  "name": "ferryTip",
                  "type": "uint256"
                }
              ],
              "internalType": "struct IRolldownPrimitives.Deposit[]",
              "name": "pendingDeposits",
              "type": "tuple[]"
            },
            {
              "components": [
                {
                  "components": [
                    {
                      "internalType": "enum IRolldownPrimitives.Origin",
                      "name": "origin",
                      "type": "uint8"
                    },
                    {
                      "internalType": "uint256",
                      "name": "id",
                      "type": "uint256"
                    }
                  ],
                  "internalType": "struct IRolldownPrimitives.RequestId",
                  "name": "requestId",
                  "type": "tuple"
                },
                {
                  "internalType": "uint256",
                  "name": "l2RequestId",
                  "type": "uint256"
                },
                {
                  "internalType": "bool",
                  "name": "cancelJustified",
                  "type": "bool"
                },
                {
                  "internalType": "uint256",
                  "name": "timeStamp",
                  "type": "uint256"
                }
              ],
              "internalType": "struct IRolldownPrimitives.CancelResolution[]",
              "name": "pendingCancelResolutions",
              "type": "tuple[]"
            }
          ],
          "internalType": "struct IRolldownPrimitives.L1Update",
          "name": "",
          "type": "tuple"
        }
      ],
      "stateMutability": "view",
      "type": "function"
    },
    {
      "inputs": [
        {
          "internalType": "contract IPauserRegistry",
          "name": "_pauserRegistry",
          "type": "address"
        },
        {
          "internalType": "address",
          "name": "initialOwner",
          "type": "address"
        },
        {
          "internalType": "enum IRolldownPrimitives.ChainId",
          "name": "chainId",
          "type": "uint8"
        },
        {
          "internalType": "address",
          "name": "updater",
          "type": "address"
        }
      ],
      "name": "initialize",
      "outputs": [],
      "stateMutability": "nonpayable",
      "type": "function"
    },
    {
      "inputs": [],
      "name": "lastProcessedUpdate_origin_l1",
      "outputs": [
        {
          "internalType": "uint256",
          "name": "",
          "type": "uint256"
        }
      ],
      "stateMutability": "view",
      "type": "function"
    },
    {
      "inputs": [],
      "name": "lastProcessedUpdate_origin_l2",
      "outputs": [
        {
          "internalType": "uint256",
          "name": "",
          "type": "uint256"
        }
      ],
      "stateMutability": "view",
      "type": "function"
    },
    {
      "inputs": [
        {
          "internalType": "bytes32",
          "name": "",
          "type": "bytes32"
        }
      ],
      "name": "merkleRootRange",
      "outputs": [
        {
          "internalType": "uint256",
          "name": "start",
          "type": "uint256"
        },
        {
          "internalType": "uint256",
          "name": "end",
          "type": "uint256"
        }
      ],
      "stateMutability": "view",
      "type": "function"
    },
    {
      "inputs": [],
      "name": "owner",
      "outputs": [
        {
          "internalType": "address",
          "name": "",
          "type": "address"
        }
      ],
      "stateMutability": "view",
      "type": "function"
    },
    {
      "inputs": [
        {
          "internalType": "uint256",
          "name": "newPausedStatus",
          "type": "uint256"
        }
      ],
      "name": "pause",
      "outputs": [],
      "stateMutability": "nonpayable",
      "type": "function"
    },
    {
      "inputs": [],
      "name": "pauseAll",
      "outputs": [],
      "stateMutability": "nonpayable",
      "type": "function"
    },
    {
      "inputs": [
        {
          "internalType": "uint8",
          "name": "index",
          "type": "uint8"
        }
      ],
      "name": "paused",
      "outputs": [
        {
          "internalType": "bool",
          "name": "",
          "type": "bool"
        }
      ],
      "stateMutability": "view",
      "type": "function"
    },
    {
      "inputs": [],
      "name": "paused",
      "outputs": [
        {
          "internalType": "uint256",
          "name": "",
          "type": "uint256"
        }
      ],
      "stateMutability": "view",
      "type": "function"
    },
    {
      "inputs": [],
      "name": "pauserRegistry",
      "outputs": [
        {
          "internalType": "contract IPauserRegistry",
          "name": "",
          "type": "address"
        }
      ],
      "stateMutability": "view",
      "type": "function"
    },
    {
      "inputs": [
        {
          "internalType": "bytes32",
          "name": "",
          "type": "bytes32"
        }
      ],
      "name": "processedL2Requests",
      "outputs": [
        {
          "internalType": "address",
          "name": "",
          "type": "address"
        }
      ],
      "stateMutability": "view",
      "type": "function"
    },
    {
      "inputs": [],
      "name": "renounceOwnership",
      "outputs": [],
      "stateMutability": "nonpayable",
      "type": "function"
    },
    {
      "inputs": [
        {
          "internalType": "contract IPauserRegistry",
          "name": "newPauserRegistry",
          "type": "address"
        }
      ],
      "name": "setPauserRegistry",
      "outputs": [],
      "stateMutability": "nonpayable",
      "type": "function"
    },
    {
      "inputs": [
        {
          "internalType": "address",
          "name": "updater",
          "type": "address"
        }
      ],
      "name": "setUpdater",
      "outputs": [],
      "stateMutability": "nonpayable",
      "type": "function"
    },
    {
      "inputs": [
        {
          "internalType": "address",
          "name": "newOwner",
          "type": "address"
        }
      ],
      "name": "transferOwnership",
      "outputs": [],
      "stateMutability": "nonpayable",
      "type": "function"
    },
    {
      "inputs": [
        {
          "internalType": "uint256",
          "name": "newPausedStatus",
          "type": "uint256"
        }
      ],
      "name": "unpause",
      "outputs": [],
      "stateMutability": "nonpayable",
      "type": "function"
    },
    {
      "inputs": [
        {
          "internalType": "bytes32",
          "name": "merkle_root",
          "type": "bytes32"
        },
        {
          "components": [
            {
              "internalType": "uint256",
              "name": "start",
              "type": "uint256"
            },
            {
              "internalType": "uint256",
              "name": "end",
              "type": "uint256"
            }
          ],
          "internalType": "struct IRolldownPrimitives.Range",
          "name": "range",
          "type": "tuple"
        }
      ],
      "name": "update_l1_from_l2",
      "outputs": [],
      "stateMutability": "nonpayable",
      "type": "function"
    },
    {
      "inputs": [],
      "name": "updaterAccount",
      "outputs": [
        {
          "internalType": "address",
          "name": "",
          "type": "address"
        }
      ],
      "stateMutability": "view",
      "type": "function"
    }
  ],
  "bytecode": {
    "object": "0x608060405234801561001057600080fd5b50600160d255613e4f806100256000396000f3fe60806040526004361061023b5760003560e01c80638da5cb5b1161012e578063de70e0b8116100ab578063f2fde38b1161006f578063f2fde38b146106a2578063f9ecd01e146106c2578063fabc1cbc146106fd578063ff2bae861461071d578063ffea632b1461073257600080fd5b8063de70e0b81461060e578063df2ebdbb14610644578063dffbdd9f14610659578063ef0ba5d01461066c578063f26ee9d01461068c57600080fd5b8063b1538706116100f2578063b15387061461059a578063c763e5a1146105af578063c87c2224146105d6578063ca9b21ae146105de578063d16544f01461033a57600080fd5b80638da5cb5b146104ea578063950ac487146105085780639d54f41914610528578063af26c69514610548578063b02c43d01461056857600080fd5b80634f48eedf116101bc578063715018a611610180578063715018a61461044d57806371c544611461046257806379e041f2146104875780637fd4f845146104b4578063886f1195146104ca57600080fd5b80634f48eedf1461037a578063595c6a67146103c35780635ac86ab7146103d85780635c975abb1461041857806361bc221a1461043757600080fd5b80630efe6a8b116102035780630efe6a8b1461026257806310d67a2f146102fa578063136439dd1461031a57806347e7ef241461033a5780634bf5fec31461035a57600080fd5b806301ef69661461024057806308aba1b21461026257806308f42d40146102825780630cac57ab146102a25780630e2636a3146102b5575b600080fd5b34801561024c57600080fd5b5061026061025b366004613398565b610752565b005b34801561026e57600080fd5b5061026061027d36600461340f565b610829565b34801561028e57600080fd5b5061026061029d366004613444565b610886565b6102606102b0366004613494565b610ad9565b3480156102c157600080fd5b506102dd73111111111111111111111111111111111111111181565b6040516001600160a01b0390911681526020015b60405180910390f35b34801561030657600080fd5b506102606103153660046134b0565b610f77565b34801561032657600080fd5b506102606103353660046134cd565b61102a565b34801561034657600080fd5b506102606103553660046134e6565b611169565b34801561036657600080fd5b50610260610375366004613512565b6111c6565b34801561038657600080fd5b506103ae6103953660046134cd565b609d602052600090815260409020805460019091015482565b604080519283526020830191909152016102f1565b3480156103cf57600080fd5b5061026061144b565b3480156103e457600080fd5b506104086103f3366004613556565b606654600160ff9092169190911b9081161490565b60405190151581526020016102f1565b34801561042457600080fd5b506066545b6040519081526020016102f1565b34801561044357600080fd5b5061042960975481565b34801561045957600080fd5b50610260611512565b34801561046e57600080fd5b50609a546102dd9061010090046001600160a01b031681565b34801561049357600080fd5b506104a76104a2366004613579565b611526565b6040516102f1919061364f565b3480156104c057600080fd5b5061042960985481565b3480156104d657600080fd5b506065546102dd906001600160a01b031681565b3480156104f657600080fd5b506033546001600160a01b03166102dd565b34801561051457600080fd5b50610260610523366004613712565b611940565b34801561053457600080fd5b506102606105433660046134b0565b6119f7565b34801561055457600080fd5b50610429610563366004613775565b611a7e565b34801561057457600080fd5b506105886105833660046134cd565b611acf565b6040516102f1969594939291906137e4565b3480156105a657600080fd5b506104a7611b56565b3480156105bb57600080fd5b50609a546105c99060ff1681565b6040516102f19190613826565b610260611ba1565b3480156105ea57600080fd5b506105fe6105f93660046134cd565b611bfa565b6040516102f19493929190613839565b34801561061a57600080fd5b506102dd6106293660046134cd565b609e602052600090815260409020546001600160a01b031681565b34801561065057600080fd5b506102dd600181565b6102606106673660046134cd565b611c6c565b34801561067857600080fd5b50610429610687366004613862565b611cc5565b34801561069857600080fd5b5061042960995481565b3480156106ae57600080fd5b506102606106bd3660046134b0565b611e01565b3480156106ce57600080fd5b506106e26106dd3660046134cd565b611e77565b604080518251815260209283015192810192909252016102f1565b34801561070957600080fd5b506102606107183660046134cd565b611feb565b34801561072957600080fd5b50609f54610429565b34801561073e57600080fd5b5061026061074d3660046138ff565b612147565b6066541561077b5760405162461bcd60e51b81526004016107729061395b565b60405180910390fd5b600260d254141561079e5760405162461bcd60e51b815260040161077290613992565b600260d2556040516000906107b79086906020016139ea565b6040516020818303038152906040528051906020012090506107e38560000160200135828686866122c0565b6107ec85612435565b6000908152609e6020526040902080546001600160a01b0319167311111111111111111111111111111111111111111790555050600160d2555050565b606654156108495760405162461bcd60e51b81526004016107729061395b565b600260d254141561086c5760405162461bcd60e51b815260040161077290613992565b600260d25561087c8383836125c2565b5050600160d25550565b606654156108a65760405162461bcd60e51b81526004016107729061395b565b609a5461010090046001600160a01b031633146108f55760405162461bcd60e51b815260206004820152600d60248201526c2737ba103a34329037bbb732b960991b6044820152606401610772565b60995481602001351161094a5760405162461bcd60e51b815260206004820152601960248201527f557064617465206272696e6773206e6f206e65772064617461000000000000006044820152606401610772565b80356109985760405162461bcd60e51b815260206004820152601f60248201527f72616e6765206964206d7573742062652067726561746572207468616e2030006044820152606401610772565b6099546109a760018335613a36565b11156109f55760405162461bcd60e51b815260206004820152601760248201527f50726576696f757320757064617465206d697373696e670000000000000000006044820152606401610772565b803560208201351015610a3a5760405162461bcd60e51b815260206004820152600d60248201526c496e76616c69642072616e676560981b6044820152606401610772565b609f8054600181019091557f0bc14066c33013fe88f66e314e4cf150b0b2d4d6451a1a51dbbd1c27cd11de28018290556000828152609d602052604090208190610a91828281358155602082013560018201555050565b505060208101356099556040517f49c158d490db9e066f01b5d4f1a094485a6598cb6c5296b4c07e46c12a1dc11c90610acd9084908490613a4d565b60405180910390a15050565b60665415610af95760405162461bcd60e51b81526004016107729061395b565b600260d2541415610b1c5760405162461bcd60e51b815260040161077290613992565b600260d255608081013560a08201351115610b495760405162461bcd60e51b815260040161077290613a6b565b6000610b5d60a08301356080840135613a36565b9050600082604051602001610b729190613aa2565b60408051601f1981840301815291815281516020928301206000818152609e9093529120549091506001600160a01b031615610be25760405162461bcd60e51b815260206004820152600f60248201526e105b1c9958591e4819995c9c9a5959608a1b6044820152606401610772565b6000818152609e6020526040902080546001600160a01b031916331790556001610c1260808501606086016134b0565b6001600160a01b03161415610da85760003411610c695760405162461bcd60e51b815260206004820152601560248201527413985d1a5d99481d1bdad95b881b9bdd081cd95b9d605a1b6044820152606401610772565b813414610cef5760405162461bcd60e51b815260206004820152604860248201527f53656e7420616d6f756e742073686f756c642065786163746c79206d6174636860448201527f207769746864726177616c2e616d6f756e74202d207769746864726177616c2e606482015267066657272795469760c41b608482015260a401610772565b610cff60608401604085016134b0565b6001600160a01b03166108fc839081150290604051600060405180830381858888f19350505050158015610d37573d6000803e3d6000fd5b507f7a9abd9eb86bdbca89cba4069a632c37d93db82e3e14ad8119a3a7812814853e602084013583610d6f60608701604088016134b0565b6040805193845260208401929092526001600160a01b0316908201523360608201526080810183905260a00160405180910390a161087c565b6000610dba60808501606086016134b0565b6040516370a0823160e01b815233600482015290915083906001600160a01b038316906370a0823190602401602060405180830381865afa158015610e03573d6000803e3d6000fd5b505050506040513d601f19601f82011682018060405250810190610e279190613afe565b1015610e685760405162461bcd60e51b815260206004820152601060248201526f4e6f7420656e6f7567682066756e647360801b6044820152606401610772565b6001600160a01b0381166323b872dd33610e8860608801604089016134b0565b6040516001600160e01b031960e085901b1681526001600160a01b03928316600482015291166024820152604481018690526064016020604051808303816000875af1158015610edc573d6000803e3d6000fd5b505050506040513d601f19601f82011682018060405250810190610f009190613b17565b507f7a9abd9eb86bdbca89cba4069a632c37d93db82e3e14ad8119a3a7812814853e602085013584610f3860608801604089016134b0565b6040805193845260208401929092526001600160a01b0316908201523360608201526080810184905260a00160405180910390a1505050600160d25550565b606560009054906101000a90046001600160a01b03166001600160a01b031663eab66d7a6040518163ffffffff1660e01b8152600401602060405180830381865afa158015610fca573d6000803e3d6000fd5b505050506040513d601f19601f82011682018060405250810190610fee9190613b39565b6001600160a01b0316336001600160a01b03161461101e5760405162461bcd60e51b815260040161077290613b56565b611027816127d8565b50565b60655460405163237dfb4760e11b81523360048201526001600160a01b03909116906346fbf68e90602401602060405180830381865afa158015611072573d6000803e3d6000fd5b505050506040513d601f19601f820116820180604052508101906110969190613b17565b6110b25760405162461bcd60e51b815260040161077290613ba0565b6066548181161461112b5760405162461bcd60e51b815260206004820152603860248201527f5061757361626c652e70617573653a20696e76616c696420617474656d70742060448201527f746f20756e70617573652066756e6374696f6e616c69747900000000000000006064820152608401610772565b606681905560405181815233907fab40a374bc51de372200a8bc981af8c9ecdc08dfdaef0bb6e09f88f3c616ef3d906020015b60405180910390a250565b606654156111895760405162461bcd60e51b81526004016107729061395b565b600260d25414156111ac5760405162461bcd60e51b815260040161077290613992565b600260d2556111bd828260006125c2565b5050600160d255565b606654156111e65760405162461bcd60e51b81526004016107729061395b565b600260d25414156112095760405162461bcd60e51b815260040161077290613992565b600260d255604051611246906020808701359161122891889101613aa2565b604051602081830303815290604052805190602001208585856122c0565b6000846040516020016112599190613aa2565b60408051601f1981840301815291815281516020928301206000818152609e909352912080546001600160a01b03198116731111111111111111111111111111111111111111179091559091506001600160a01b0316801515806113905760016112c96080890160608a016134b0565b6001600160a01b031614156112fa576112f56112eb6060890160408a016134b0565b88608001356128cf565b611327565b61132761130d6060890160408a016134b0565b61131d60808a0160608b016134b0565b8960800135612990565b7f935f26d94be31907080aa78b3e6e2ac6d48a072af096c20268388621bbc117898760000160200135886040516020016113619190613aa2565b60408051601f1981840301815282825280516020918201209383528201929092520160405180910390a161143d565b60016113a26080890160608a016134b0565b6001600160a01b031614156113c4576113bf8288608001356128cf565b6113d8565b6113d88261131d60808a0160608b016134b0565b7f2996fd546c37d74c170466ea6aa4a308e3ca2d4aa689e6e9e32994db5039cc0e8760000160200135886040516020016114129190613aa2565b60408051601f1981840301815282825280516020918201209383528201929092520160405180910390a15b5050600160d2555050505050565b60655460405163237dfb4760e11b81523360048201526001600160a01b03909116906346fbf68e90602401602060405180830381865afa158015611493573d6000803e3d6000fd5b505050506040513d601f19601f820116820180604052508101906114b79190613b17565b6114d35760405162461bcd60e51b815260040161077290613ba0565b600019606681905560405190815233907fab40a374bc51de372200a8bc981af8c9ecdc08dfdaef0bb6e09f88f3c616ef3d9060200160405180910390a2565b61151a612ac5565b6115246000612b1f565b565b61154b6040805160608101909152806000815260200160608152602001606081525090565b6115706040805160608101909152806000815260200160608152602001606081525090565b609a54819060ff1660018111156115895761158961359b565b9081600181111561159c5761159c61359b565b905250600080851580156115ae575084155b156115be5782935050505061193a565b855b858111611663576000818152609c6020526040902060010154156115f057826115e881613be8565b935050611651565b6000818152609b602052604090206001015415611619578161161181613be8565b925050611651565b60405162461bcd60e51b815260206004820152600d60248201526c496e76616c69642072616e676560981b6044820152606401610772565b8061165b81613be8565b9150506115c0565b508167ffffffffffffffff81111561167d5761167d613c03565b6040519080825280602002602001820160405280156116eb57816020015b6040805161010081018252600060c0820181815260e0830182905282526020808301829052928201819052606082018190526080820181905260a0820152825260001990920191018161169b5790505b5060208401528067ffffffffffffffff81111561170a5761170a613c03565b60405190808252806020026020018201604052801561176957816020015b6040805160c08101825260006080820181815260a0830182905282526020808301829052928201819052606082015282526000199092019101816117285790505b506040840152506000905080855b858111611933576000818152609c602052604090206001015415611861576000818152609c602052604090819020815161010081019092528054829060c08201908390829060ff1660018111156117d0576117d061359b565b60018111156117e1576117e161359b565b81526001919091015460209182015290825260028301546001600160a01b03908116838301526003840154166040830152600483015460608301526005830154608083015260069092015460a0909101528501518461183f81613be8565b95508151811061185157611851613c19565b6020026020010181905250611921565b6000818152609b60205260409020600201541561191c576000818152609b602052604090819020815160c081019092528054829060808201908390829060ff1660018111156118b2576118b261359b565b60018111156118c3576118c361359b565b815260019190910154602091820152908252600283015490820152600382015460ff1615156040808301919091526004909201546060909101528501518361190a81613be8565b94508151811061185157611851613c19565b611933565b8061192b81613be8565b915050611777565b5091925050505b92915050565b606654156119605760405162461bcd60e51b81526004016107729061395b565b600260d25414156119835760405162461bcd60e51b815260040161077290613992565b600260d25560405160009061199c908690602001613c2f565b6040516020818303038152906040528051906020012090506119ee8560000160200135866040516020016119d09190613c2f565b604051602081830303815290604052805190602001208686866122c0565b6107ec85612b71565b6119ff612ac5565b60665415611a1f5760405162461bcd60e51b81526004016107729061395b565b609a8054610100600160a81b0319166101006001600160a01b038481168202929092179283905560405192041681527f1b0f2f500df596b42b73e80dbec6a1fb570f01978a586723f988a5fc54d773a19060200160405180910390a150565b600080825b63ffffffff811615611aae57611a9a600282613c83565b9050611aa7600183613ca6565b9150611a83565b611ac382888a8989600061068760018c613cce565b98975050505050505050565b609c6020526000908152604090819020815180830190925280549091908290829060ff166001811115611b0457611b0461359b565b6001811115611b1557611b1561359b565b815260019190910154602090910152600282015460038301546004840154600585015460069095015493946001600160a01b03938416949290931692909186565b611b7b6040805160608101909152806000815260200160608152602001606081525090565b611b9c6098546001611b8d9190613cf3565b60016097546104a29190613a36565b905090565b600260d2541415611bc45760405162461bcd60e51b815260040161077290613992565b600260d25560665415611be95760405162461bcd60e51b81526004016107729061395b565b611bf36000612c89565b600160d255565b609b6020526000908152604090819020815180830190925280549091908290829060ff166001811115611c2f57611c2f61359b565b6001811115611c4057611c4061359b565b815260019190910154602090910152600282015460038301546004909301549192909160ff9091169084565b600260d2541415611c8f5760405162461bcd60e51b815260040161077290613992565b600260d25560665415611cb45760405162461bcd60e51b81526004016107729061395b565b611cbd81612c89565b50600160d255565b6000611cd2600288613d0b565b63ffffffff16611d57578163ffffffff168763ffffffff161415611cf557611db5565b85858585611d0281613d2e565b965063ffffffff16818110611d1957611d19613c19565b90506020020135604051602001611d3a929190918252602082015260400190565b604051602081830303815290604052805190602001209550611db5565b848484611d6381613d2e565b955063ffffffff16818110611d7a57611d7a613c19565b9050602002013586604051602001611d9c929190918252602082015260400190565b6040516020818303038152906040528051906020012095505b8763ffffffff1660011415611dcb575084611df6565b611df3611dd960018a613cce565b611de460028a613c83565b8888888861068760028a613c83565b90505b979650505050505050565b611e09612ac5565b6001600160a01b038116611e6e5760405162461bcd60e51b815260206004820152602660248201527f4f776e61626c653a206e6577206f776e657220697320746865207a65726f206160448201526564647265737360d01b6064820152608401610772565b61102781612b1f565b6040805180820190915260008082526020820152609954821115611ed25760405162461bcd60e51b8152602060048201526012602482015271125b9d985b1a59081c995c5d595cdd081a5960721b6044820152606401610772565b609f54611ef2575050604080518082019091526000808252602082015290565b609f54600090611f0490600190613a36565b90505b609d6000609f8381548110611f1e57611f1e613c19565b90600052602060002001548152602001908152602001600020600001548310158015611f7d5750609d6000609f8381548110611f5c57611f5c613c19565b90600052602060002001548152602001908152602001600020600101548311155b15611fd957609d6000609f8381548110611f9957611f99613c19565b9060005260206000200154815260200190815260200160002060405180604001604052908160008201548152602001600182015481525050915050919050565b80611fe381613d52565b915050611f07565b606560009054906101000a90046001600160a01b03166001600160a01b031663eab66d7a6040518163ffffffff1660e01b8152600401602060405180830381865afa15801561203e573d6000803e3d6000fd5b505050506040513d601f19601f820116820180604052508101906120629190613b39565b6001600160a01b0316336001600160a01b0316146120925760405162461bcd60e51b815260040161077290613b56565b6066541981196066541916146121105760405162461bcd60e51b815260206004820152603860248201527f5061757361626c652e756e70617573653a20696e76616c696420617474656d7060448201527f7420746f2070617573652066756e6374696f6e616c69747900000000000000006064820152608401610772565b606681905560405181815233907f3582d1828e26bf56bd801502bc021ac0bc8afb57c826e4986b45593c8fad389c9060200161115e565b600054610100900460ff16158080156121675750600054600160ff909116105b806121815750303b158015612181575060005460ff166001145b6121e45760405162461bcd60e51b815260206004820152602e60248201527f496e697469616c697a61626c653a20636f6e747261637420697320616c72656160448201526d191e481a5b9a5d1a585b1a5e995960921b6064820152608401610772565b6000805460ff191660011790558015612207576000805461ff0019166101001790555b612212856000612e62565b61221b84612b1f565b6000609881905560016097819055609991909155609a8054859260ff1990911690838181111561224d5761224d61359b565b0217905550609a8054610100600160a81b0319166101006001600160a01b0385160217905580156122b9576000805461ff0019169055604051600181527f7f26b83ff96e1f2b6a682f133852f6798a09c465da95921460cefb3847402498906020015b60405180910390a15b5050505050565b6000838152609d60209081526040918290208251808401909352805480845260019091015491830191909152158015906122fd5750602081015115155b61233f5760405162461bcd60e51b8152602060048201526013602482015272155b9adb9bdddb881b595c9adb19481c9bdbdd606a1b6044820152606401610772565b6000858152609e60205260409020546001600160a01b031673111111111111111111111111111111111111111114156123ae5760405162461bcd60e51b8152602060048201526011602482015270105b1c9958591e481c1c9bd8d95cdcd959607a1b6044820152606401610772565b805160208201516000916123c191613a36565b6123cc906001613cf3565b82519091506000906123de9089613a36565b9050856123ee8883888887611a7e565b1461242b5760405162461bcd60e51b815260206004820152600d60248201526c24b73b30b634b210383937b7b360991b6044820152606401610772565b5050505050505050565b600060016097546124469190613a36565b60608301351115612459575060016124a6565b600061246d60408401356060850135611526565b9050600081604051602001612482919061364f565b60408051601f19818403018152919052805160209091012060808501351415925050505b6040805160c081019091524290600090806080810180848152602001609760008154809291906124d590613be8565b909155509052815260208681013581830152851515604080840191909152606090920185905282518101516000908152609b909152208151805182549394508493839190829060ff1916600183818111156125325761253261359b565b021790555060209182015160019091015582810151600283015560408084015160038401805491151560ff199092169190911790556060909301516004909201919091558201518282015191517fd16f202ac5905ff5d1851f4805ffe56d1212db32fa989881d0044b9cf0f72776926125b49282521515602082015260400190565b60405180910390a150505050565b818111156125e25760405162461bcd60e51b815260040161077290613a6b565b6001600160a01b0383166126305760405162461bcd60e51b8152602060048201526015602482015274496e76616c696420746f6b656e206164647265737360581b6044820152606401610772565b600082116126505760405162461bcd60e51b815260040161077290613d69565b33836126676001600160a01b038216833087612f48565b60408051610100810190915242906000908060c08101808481526020016097600081548092919061269790613be8565b90915550905281526001600160a01b03808716602080840191909152908a16604080840191909152606083018a90526080830186905260a090920188905282518101516000908152609c909152208151805182549394508493839190829060ff19166001838181111561270c5761270c61359b565b021790555060209182015160019190910155828101516002830180546001600160a01b03199081166001600160a01b0393841617909155604080860151600386018054909316908416179091556060808601516004860155608080870151600587015560a096870151600690960195909555865184015182519081528a841694810194909452918c169083015281018990529081018790527f225305ecb66fa9b9b29f8dead9baea365a6c225d639dfd866e782ccb63e2f05b910160405180910390a150505050505050565b6001600160a01b0381166128665760405162461bcd60e51b815260206004820152604960248201527f5061757361626c652e5f73657450617573657252656769737472793a206e657760448201527f50617573657252656769737472792063616e6e6f7420626520746865207a65726064820152686f206164647265737360b81b608482015260a401610772565b606554604080516001600160a01b03928316815291831660208301527f6e9fcd539896fca60e8b0f01dd580233e48a6b0f7df013b89ba7f565869acdb6910160405180910390a1606580546001600160a01b0319166001600160a01b0392909216919091179055565b30318111156129205760405162461bcd60e51b815260206004820152601c60248201527f4e6f7420656e6f7567682066756e647320696e20636f6e7472616374000000006044820152606401610772565b600081116129405760405162461bcd60e51b815260040161077290613d69565b604080516001600160a01b0384168152602081018390527fe0495355c1e04c512584521854d222d239a4b782b39ac8a7e835a34f5ec7c1e1910160405180910390a161298c8282612fb9565b5050565b6040516370a0823160e01b8152306004820152829082906001600160a01b038316906370a0823190602401602060405180830381865afa1580156129d8573d6000803e3d6000fd5b505050506040513d601f19601f820116820180604052508101906129fc9190613afe565b1015612a4a5760405162461bcd60e51b815260206004820152601c60248201527f4e6f7420656e6f7567682066756e647320696e20636f6e7472616374000000006044820152606401610772565b60008211612a6a5760405162461bcd60e51b815260040161077290613d69565b612a7e6001600160a01b03821685846130d7565b604080516001600160a01b038087168252851660208201529081018390527ee763f7778b8ceef7270c89b7d1df1008b0e482da39c43831417733af96fb0d906060016125b4565b6033546001600160a01b031633146115245760405162461bcd60e51b815260206004820181905260248201527f4f776e61626c653a2063616c6c6572206973206e6f7420746865206f776e65726044820152606401610772565b603380546001600160a01b038381166001600160a01b0319831681179093556040519116919082907f8be0079c531659141344cd1fd0a4f28419497f9722a3daafe3b4186f6b6457e090600090a35050565b6040808201356000908152609c602052908120600281015490916001600160a01b0390911690612ba760808501606086016134b0565b6001600160a01b031614612bc857612bc560808401606085016134b0565b90505b60038201546001600160a01b031660011415612bf157612bec8183600401546128cf565b612c12565b60038201546004830154612c129183916001600160a01b0390911690612990565b7f13750c731f87c15242874ce74bf4649502cc8e7c829067ce846505acdb96289d8360000160200135846040013585604051602001612c519190613c2f565b60408051601f1981840301815282825280516020918201209483528201929092529081019190915260600160405180910390a1505050565b34811115612ca95760405162461bcd60e51b815260040161077290613a6b565b60003411612cf95760405162461bcd60e51b815260206004820181905260248201527f6d73672076616c7565206d7573742062652067726561746572207468617420306044820152606401610772565b6040805161010081019091523390349042906000908060c081018084815260200160976000815480929190612d2d90613be8565b90915550905281526001600160a01b03861660208083019190915260016040808401829052606084018890526080840187905260a090930189905283518201516000908152609c9092529190208251805182549495508594929391928492839160ff1916908381811115612da357612da361359b565b0217905550602091820151600191820155838201516002840180546001600160a01b03199081166001600160a01b0393841617909155604080870151600387018054909316908416179091556060808701516004870155608080880151600588015560a09788015160069097019690965587518501518251908152928b16948301949094528101919091529081018690529081018790527f225305ecb66fa9b9b29f8dead9baea365a6c225d639dfd866e782ccb63e2f05b91016122b0565b6065546001600160a01b0316158015612e8357506001600160a01b03821615155b612f055760405162461bcd60e51b815260206004820152604760248201527f5061757361626c652e5f696e697469616c697a655061757365723a205f696e6960448201527f7469616c697a6550617573657228292063616e206f6e6c792062652063616c6c6064820152666564206f6e636560c81b608482015260a401610772565b606681905560405181815233907fab40a374bc51de372200a8bc981af8c9ecdc08dfdaef0bb6e09f88f3c616ef3d9060200160405180910390a261298c826127d8565b6040516001600160a01b0380851660248301528316604482015260648101829052612fb39085906323b872dd60e01b906084015b60408051601f198184030181529190526020810180516001600160e01b03166001600160e01b031990931692909217909152613107565b50505050565b804710156130095760405162461bcd60e51b815260206004820152601d60248201527f416464726573733a20696e73756666696369656e742062616c616e63650000006044820152606401610772565b6000826001600160a01b03168260405160006040518083038185875af1925050503d8060008114613056576040519150601f19603f3d011682016040523d82523d6000602084013e61305b565b606091505b50509050806130d25760405162461bcd60e51b815260206004820152603a60248201527f416464726573733a20756e61626c6520746f2073656e642076616c75652c207260448201527f6563697069656e74206d617920686176652072657665727465640000000000006064820152608401610772565b505050565b6040516001600160a01b0383166024820152604481018290526130d290849063a9059cbb60e01b90606401612f7c565b600061315c826040518060400160405280602081526020017f5361666545524332303a206c6f772d6c6576656c2063616c6c206661696c6564815250856001600160a01b03166131d99092919063ffffffff16565b8051909150156130d2578080602001905181019061317a9190613b17565b6130d25760405162461bcd60e51b815260206004820152602a60248201527f5361666545524332303a204552433230206f7065726174696f6e20646964206e6044820152691bdd081cdd58d8d9595960b21b6064820152608401610772565b60606131e884846000856131f2565b90505b9392505050565b6060824710156132535760405162461bcd60e51b815260206004820152602660248201527f416464726573733a20696e73756666696369656e742062616c616e636520666f6044820152651c8818d85b1b60d21b6064820152608401610772565b6001600160a01b0385163b6132aa5760405162461bcd60e51b815260206004820152601d60248201527f416464726573733a2063616c6c20746f206e6f6e2d636f6e74726163740000006044820152606401610772565b600080866001600160a01b031685876040516132c69190613dca565b60006040518083038185875af1925050503d8060008114613303576040519150601f19603f3d011682016040523d82523d6000602084013e613308565b606091505b5091509150611df6828286606083156133225750816131eb565b8251156133325782518084602001fd5b8160405162461bcd60e51b81526004016107729190613de6565b60008083601f84011261335e57600080fd5b50813567ffffffffffffffff81111561337657600080fd5b6020830191508360208260051b850101111561339157600080fd5b9250929050565b60008060008084860360e08112156133af57600080fd5b60a08112156133bd57600080fd5b5084935060a0850135925060c085013567ffffffffffffffff8111156133e257600080fd5b6133ee8782880161334c565b95989497509550505050565b6001600160a01b038116811461102757600080fd5b60008060006060848603121561342457600080fd5b833561342f816133fa565b95602085013595506040909401359392505050565b600080828403606081121561345857600080fd5b833592506040601f198201121561346e57600080fd5b506020830190509250929050565b600060c0828403121561348e57600080fd5b50919050565b600060c082840312156134a657600080fd5b6131eb838361347c565b6000602082840312156134c257600080fd5b81356131eb816133fa565b6000602082840312156134df57600080fd5b5035919050565b600080604083850312156134f957600080fd5b8235613504816133fa565b946020939093013593505050565b600080600080610100858703121561352957600080fd5b613533868661347c565b935060c0850135925060e085013567ffffffffffffffff8111156133e257600080fd5b60006020828403121561356857600080fd5b813560ff811681146131eb57600080fd5b6000806040838503121561358c57600080fd5b50508035926020909101359150565b634e487b7160e01b600052602160045260246000fd5b6002811061102757634e487b7160e01b600052602160045260246000fd5b80516135da816135b1565b8252602090810151910152565b600081518084526020808501945080840160005b838110156136445781516136108882516135cf565b8084015160408981019190915281015115156060808a01919091520151608088015260a090960195908201906001016135fb565b509495945050505050565b6000602080835260808084018551613666816135b1565b85840152858301516060604080880182905282519384905260a093928601928489019060005b818110156136e75785516136a18482516135cf565b808a01516001600160a01b03908116858701528582015116868501528581015189850152888101518885015287015160c08401529488019460e09092019160010161368c565b505089820151898203601f1901848b0152965061370481886135e7565b9a9950505050505050505050565b60008060008084860360c081121561372957600080fd5b608081121561373757600080fd5b508493506080850135925060a085013567ffffffffffffffff8111156133e257600080fd5b803563ffffffff8116811461377057600080fd5b919050565b60008060008060006080868803121561378d57600080fd5b8535945061379d6020870161375c565b9350604086013567ffffffffffffffff8111156137b957600080fd5b6137c58882890161334c565b90945092506137d890506060870161375c565b90509295509295909350565b60e081016137f282896135cf565b6001600160a01b039687166040830152949095166060860152608085019290925260a084015260c090920191909152919050565b60208101613833836135b1565b91905290565b60a0810161384782876135cf565b60408201949094529115156060830152608090910152919050565b600080600080600080600060c0888a03121561387d57600080fd5b6138868861375c565b96506138946020890161375c565b955060408801359450606088013567ffffffffffffffff8111156138b757600080fd5b6138c38a828b0161334c565b90955093506138d690506080890161375c565b91506138e460a0890161375c565b905092959891949750929550565b6002811061102757600080fd5b6000806000806080858703121561391557600080fd5b8435613920816133fa565b93506020850135613930816133fa565b92506040850135613940816138f2565b91506060850135613950816133fa565b939692955090935050565b6020808252601c908201527f5061757361626c653a20636f6e74726163742069732070617573656400000000604082015260600190565b6020808252601f908201527f5265656e7472616e637947756172643a207265656e7472616e742063616c6c00604082015260600190565b80356139d4816138f2565b6139dd816135b1565b8252602090810135910152565b60a081016139f882846139c9565b613a12604083016040850180358252602090810135910152565b608092830135919092015290565b634e487b7160e01b600052601160045260246000fd5b600082821015613a4857613a48613a20565b500390565b828152606081016131eb602083018480358252602090810135910152565b6020808252601c908201527f5469702065786365656473206465706f736974656420616d6f756e7400000000604082015260600190565b60c08101613ab082846139c9565b6040830135613abe816133fa565b6001600160a01b039081166040840152606084013590613add826133fa565b1660608301526080838101359083015260a092830135929091019190915290565b600060208284031215613b1057600080fd5b5051919050565b600060208284031215613b2957600080fd5b815180151581146131eb57600080fd5b600060208284031215613b4b57600080fd5b81516131eb816133fa565b6020808252602a908201527f6d73672e73656e646572206973206e6f74207065726d697373696f6e6564206160408201526939903ab73830bab9b2b960b11b606082015260800190565b60208082526028908201527f6d73672e73656e646572206973206e6f74207065726d697373696f6e6564206160408201526739903830bab9b2b960c11b606082015260800190565b6000600019821415613bfc57613bfc613a20565b5060010190565b634e487b7160e01b600052604160045260246000fd5b634e487b7160e01b600052603260045260246000fd5b60808101613c3d82846139c9565b604083013560408301526060830135613c55816133fa565b6001600160a01b031660609290920191909152919050565b634e487b7160e01b600052601260045260246000fd5b600063ffffffff80841680613c9a57613c9a613c6d565b92169190910492915050565b600063ffffffff808316818516808303821115613cc557613cc5613a20565b01949350505050565b600063ffffffff83811690831681811015613ceb57613ceb613a20565b039392505050565b60008219821115613d0657613d06613a20565b500190565b600063ffffffff80841680613d2257613d22613c6d565b92169190910692915050565b600063ffffffff80831681811415613d4857613d48613a20565b6001019392505050565b600081613d6157613d61613a20565b506000190190565b6020808252818101527f416d6f756e74206d7573742062652067726561746572207468616e207a65726f604082015260600190565b60005b83811015613db9578181015183820152602001613da1565b83811115612fb35750506000910152565b60008251613ddc818460208701613d9e565b9190910192915050565b6020815260008251806020840152613e05816040850160208701613d9e565b601f01601f1916919091016040019291505056fea26469706673582212200288de85032f2ee0fc54c8afdaeb64716780a671f202d38ffbd3022b1f831a9b64736f6c634300080c0033",
    "linkReferences": {}
  },
  "methodIdentifiers": {
    "CLOSED()": "0e2636a3",
    "NATIVE_TOKEN_ADDRESS()": "df2ebdbb",
    "calculate_root(bytes32,uint32,bytes32[],uint32)": "af26c695",
    "calculate_root_impl(uint32,uint32,bytes32,bytes32[],uint32,uint32)": "ef0ba5d0",
    "cancelResolutions(uint256)": "ca9b21ae",
    "chain()": "c763e5a1",
    "close_cancel(((uint8,uint256),(uint256,uint256),bytes32),bytes32,bytes32[])": "01ef6966",
    "close_deposit_refund(((uint8,uint256),uint256,address),bytes32,bytes32[])": "950ac487",
    "close_withdrawal(((uint8,uint256),address,address,uint256,uint256),bytes32,bytes32[])": "4bf5fec3",
    "counter()": "61bc221a",
    "deposit(address,uint256)": "47e7ef24",
    "deposit(address,uint256,uint256)": "0efe6a8b",
    "deposit_erc20(address,uint256)": "d16544f0",
    "deposit_erc20(address,uint256,uint256)": "08aba1b2",
    "deposit_native()": "c87c2224",
    "deposit_native(uint256)": "dffbdd9f",
    "deposits(uint256)": "b02c43d0",
    "ferry_withdrawal(((uint8,uint256),address,address,uint256,uint256))": "0cac57ab",
    "find_l2_batch(uint256)": "f9ecd01e",
    "getMerkleRootsLength()": "ff2bae86",
    "getPendingRequests(uint256,uint256)": "79e041f2",
    "getUpdateForL2()": "b1538706",
    "initialize(address,address,uint8,address)": "ffea632b",
    "lastProcessedUpdate_origin_l1()": "7fd4f845",
    "lastProcessedUpdate_origin_l2()": "f26ee9d0",
    "merkleRootRange(bytes32)": "4f48eedf",
    "owner()": "8da5cb5b",
    "pause(uint256)": "136439dd",
    "pauseAll()": "595c6a67",
    "paused()": "5c975abb",
    "paused(uint8)": "5ac86ab7",
    "pauserRegistry()": "886f1195",
    "processedL2Requests(bytes32)": "de70e0b8",
    "renounceOwnership()": "715018a6",
    "setPauserRegistry(address)": "10d67a2f",
    "setUpdater(address)": "9d54f419",
    "transferOwnership(address)": "f2fde38b",
    "unpause(uint256)": "fabc1cbc",
    "update_l1_from_l2(bytes32,(uint256,uint256))": "08f42d40",
    "updaterAccount()": "71c54461"
  },
  "id": 138
}