{"abi":[{"type":"receive","stateMutability":"payable"},{"type":"function","name":"CLOSED","inputs":[],"outputs":[{"name":"","type":"address","internalType":"address"}],"stateMutability":"view"},{"type":"function","name":"DEFAULT_ADMIN_ROLE","inputs":[],"outputs":[{"name":"","type":"bytes32","internalType":"bytes32"}],"stateMutability":"view"},{"type":"function","name":"NATIVE_TOKEN_ADDRESS","inputs":[],"outputs":[{"name":"","type":"address","internalType":"address"}],"stateMutability":"view"},{"type":"function","name":"UPDATER_ROLE","inputs":[],"outputs":[{"name":"","type":"bytes32","internalType":"bytes32"}],"stateMutability":"view"},{"type":"function","name":"cancelResolutions","inputs":[{"name":"","type":"uint256","internalType":"uint256"}],"outputs":[{"name":"requestId","type":"tuple","internalType":"struct IRolldownPrimitives.RequestId","components":[{"name":"origin","type":"uint8","internalType":"enum IRolldownPrimitives.Origin"},{"name":"id","type":"uint256","internalType":"uint256"}]},{"name":"l2RequestId","type":"uint256","internalType":"uint256"},{"name":"cancelJustified","type":"bool","internalType":"bool"},{"name":"timeStamp","type":"uint256","internalType":"uint256"}],"stateMutability":"view"},{"type":"function","name":"chain","inputs":[],"outputs":[{"name":"","type":"uint8","internalType":"enum IRolldownPrimitives.ChainId"}],"stateMutability":"view"},{"type":"function","name":"closeCancel","inputs":[{"name":"cancel","type":"tuple","internalType":"struct IRolldownPrimitives.Cancel","components":[{"name":"requestId","type":"tuple","internalType":"struct IRolldownPrimitives.RequestId","components":[{"name":"origin","type":"uint8","internalType":"enum IRolldownPrimitives.Origin"},{"name":"id","type":"uint256","internalType":"uint256"}]},{"name":"range","type":"tuple","internalType":"struct IRolldownPrimitives.Range","components":[{"name":"start","type":"uint256","internalType":"uint256"},{"name":"end","type":"uint256","internalType":"uint256"}]},{"name":"hash","type":"bytes32","internalType":"bytes32"}]},{"name":"merkleRoot","type":"bytes32","internalType":"bytes32"},{"name":"proof","type":"bytes32[]","internalType":"bytes32[]"}],"outputs":[],"stateMutability":"nonpayable"},{"type":"function","name":"closeDepositRefund","inputs":[{"name":"failedDeposit","type":"tuple","internalType":"struct IRolldownPrimitives.FailedDepositResolution","components":[{"name":"requestId","type":"tuple","internalType":"struct IRolldownPrimitives.RequestId","components":[{"name":"origin","type":"uint8","internalType":"enum IRolldownPrimitives.Origin"},{"name":"id","type":"uint256","internalType":"uint256"}]},{"name":"originRequestId","type":"uint256","internalType":"uint256"},{"name":"ferry","type":"address","internalType":"address"}]},{"name":"merkleRoot","type":"bytes32","internalType":"bytes32"},{"name":"proof","type":"bytes32[]","internalType":"bytes32[]"}],"outputs":[],"stateMutability":"nonpayable"},{"type":"function","name":"closeWithdrawal","inputs":[{"name":"withdrawal","type":"tuple","internalType":"struct IRolldownPrimitives.Withdrawal","components":[{"name":"requestId","type":"tuple","internalType":"struct IRolldownPrimitives.RequestId","components":[{"name":"origin","type":"uint8","internalType":"enum IRolldownPrimitives.Origin"},{"name":"id","type":"uint256","internalType":"uint256"}]},{"name":"recipient","type":"address","internalType":"address"},{"name":"tokenAddress","type":"address","internalType":"address"},{"name":"amount","type":"uint256","internalType":"uint256"},{"name":"ferryTip","type":"uint256","internalType":"uint256"}]},{"name":"merkleRoot","type":"bytes32","internalType":"bytes32"},{"name":"proof","type":"bytes32[]","internalType":"bytes32[]"}],"outputs":[],"stateMutability":"nonpayable"},{"type":"function","name":"close_cancel","inputs":[{"name":"cancel","type":"tuple","internalType":"struct IRolldownPrimitives.Cancel","components":[{"name":"requestId","type":"tuple","internalType":"struct IRolldownPrimitives.RequestId","components":[{"name":"origin","type":"uint8","internalType":"enum IRolldownPrimitives.Origin"},{"name":"id","type":"uint256","internalType":"uint256"}]},{"name":"range","type":"tuple","internalType":"struct IRolldownPrimitives.Range","components":[{"name":"start","type":"uint256","internalType":"uint256"},{"name":"end","type":"uint256","internalType":"uint256"}]},{"name":"hash","type":"bytes32","internalType":"bytes32"}]},{"name":"merkleRoot","type":"bytes32","internalType":"bytes32"},{"name":"proof","type":"bytes32[]","internalType":"bytes32[]"}],"outputs":[],"stateMutability":"nonpayable"},{"type":"function","name":"close_deposit_refund","inputs":[{"name":"failedDeposit","type":"tuple","internalType":"struct IRolldownPrimitives.FailedDepositResolution","components":[{"name":"requestId","type":"tuple","internalType":"struct IRolldownPrimitives.RequestId","components":[{"name":"origin","type":"uint8","internalType":"enum IRolldownPrimitives.Origin"},{"name":"id","type":"uint256","internalType":"uint256"}]},{"name":"originRequestId","type":"uint256","internalType":"uint256"},{"name":"ferry","type":"address","internalType":"address"}]},{"name":"merkleRoot","type":"bytes32","internalType":"bytes32"},{"name":"proof","type":"bytes32[]","internalType":"bytes32[]"}],"outputs":[],"stateMutability":"nonpayable"},{"type":"function","name":"close_withdrawal","inputs":[{"name":"withdrawal","type":"tuple","internalType":"struct IRolldownPrimitives.Withdrawal","components":[{"name":"requestId","type":"tuple","internalType":"struct IRolldownPrimitives.RequestId","components":[{"name":"origin","type":"uint8","internalType":"enum IRolldownPrimitives.Origin"},{"name":"id","type":"uint256","internalType":"uint256"}]},{"name":"recipient","type":"address","internalType":"address"},{"name":"tokenAddress","type":"address","internalType":"address"},{"name":"amount","type":"uint256","internalType":"uint256"},{"name":"ferryTip","type":"uint256","internalType":"uint256"}]},{"name":"merkleRoot","type":"bytes32","internalType":"bytes32"},{"name":"proof","type":"bytes32[]","internalType":"bytes32[]"}],"outputs":[],"stateMutability":"nonpayable"},{"type":"function","name":"counter","inputs":[],"outputs":[{"name":"","type":"uint256","internalType":"uint256"}],"stateMutability":"view"},{"type":"function","name":"deposit","inputs":[{"name":"tokenAddress","type":"address","internalType":"address"},{"name":"amount","type":"uint256","internalType":"uint256"},{"name":"ferryTip","type":"uint256","internalType":"uint256"}],"outputs":[],"stateMutability":"nonpayable"},{"type":"function","name":"deposit","inputs":[{"name":"tokenAddress","type":"address","internalType":"address"},{"name":"amount","type":"uint256","internalType":"uint256"}],"outputs":[],"stateMutability":"nonpayable"},{"type":"function","name":"depositERC20","inputs":[{"name":"tokenAddress","type":"address","internalType":"address"},{"name":"amount","type":"uint256","internalType":"uint256"},{"name":"ferryTip","type":"uint256","internalType":"uint256"}],"outputs":[],"stateMutability":"nonpayable"},{"type":"function","name":"depositERC20","inputs":[{"name":"tokenAddress","type":"address","internalType":"address"},{"name":"amount","type":"uint256","internalType":"uint256"}],"outputs":[],"stateMutability":"nonpayable"},{"type":"function","name":"depositNative","inputs":[{"name":"ferryTip","type":"uint256","internalType":"uint256"}],"outputs":[],"stateMutability":"payable"},{"type":"function","name":"depositNative","inputs":[],"outputs":[],"stateMutability":"payable"},{"type":"function","name":"deposit_erc20","inputs":[{"name":"tokenAddress","type":"address","internalType":"address"},{"name":"amount","type":"uint256","internalType":"uint256"},{"name":"ferryTip","type":"uint256","internalType":"uint256"}],"outputs":[],"stateMutability":"nonpayable"},{"type":"function","name":"deposit_erc20","inputs":[{"name":"tokenAddress","type":"address","internalType":"address"},{"name":"amount","type":"uint256","internalType":"uint256"}],"outputs":[],"stateMutability":"nonpayable"},{"type":"function","name":"deposit_native","inputs":[],"outputs":[],"stateMutability":"payable"},{"type":"function","name":"deposit_native","inputs":[{"name":"ferryTip","type":"uint256","internalType":"uint256"}],"outputs":[],"stateMutability":"payable"},{"type":"function","name":"deposits","inputs":[{"name":"","type":"uint256","internalType":"uint256"}],"outputs":[{"name":"requestId","type":"tuple","internalType":"struct IRolldownPrimitives.RequestId","components":[{"name":"origin","type":"uint8","internalType":"enum IRolldownPrimitives.Origin"},{"name":"id","type":"uint256","internalType":"uint256"}]},{"name":"depositRecipient","type":"address","internalType":"address"},{"name":"tokenAddress","type":"address","internalType":"address"},{"name":"amount","type":"uint256","internalType":"uint256"},{"name":"timeStamp","type":"uint256","internalType":"uint256"},{"name":"ferryTip","type":"uint256","internalType":"uint256"}],"stateMutability":"view"},{"type":"function","name":"ferryWithdrawal","inputs":[{"name":"withdrawal","type":"tuple","internalType":"struct IRolldownPrimitives.Withdrawal","components":[{"name":"requestId","type":"tuple","internalType":"struct IRolldownPrimitives.RequestId","components":[{"name":"origin","type":"uint8","internalType":"enum IRolldownPrimitives.Origin"},{"name":"id","type":"uint256","internalType":"uint256"}]},{"name":"recipient","type":"address","internalType":"address"},{"name":"tokenAddress","type":"address","internalType":"address"},{"name":"amount","type":"uint256","internalType":"uint256"},{"name":"ferryTip","type":"uint256","internalType":"uint256"}]}],"outputs":[],"stateMutability":"payable"},{"type":"function","name":"ferry_withdrawal","inputs":[{"name":"withdrawal","type":"tuple","internalType":"struct IRolldownPrimitives.Withdrawal","components":[{"name":"requestId","type":"tuple","internalType":"struct IRolldownPrimitives.RequestId","components":[{"name":"origin","type":"uint8","internalType":"enum IRolldownPrimitives.Origin"},{"name":"id","type":"uint256","internalType":"uint256"}]},{"name":"recipient","type":"address","internalType":"address"},{"name":"tokenAddress","type":"address","internalType":"address"},{"name":"amount","type":"uint256","internalType":"uint256"},{"name":"ferryTip","type":"uint256","internalType":"uint256"}]}],"outputs":[],"stateMutability":"payable"},{"type":"function","name":"findL2Batch","inputs":[{"name":"requestId","type":"uint256","internalType":"uint256"}],"outputs":[{"name":"","type":"bytes32","internalType":"bytes32"}],"stateMutability":"view"},{"type":"function","name":"find_l2_batch","inputs":[{"name":"requestId","type":"uint256","internalType":"uint256"}],"outputs":[{"name":"","type":"bytes32","internalType":"bytes32"}],"stateMutability":"view"},{"type":"function","name":"getMerkleRootsLength","inputs":[],"outputs":[{"name":"","type":"uint256","internalType":"uint256"}],"stateMutability":"view"},{"type":"function","name":"getPendingRequests","inputs":[{"name":"start","type":"uint256","internalType":"uint256"},{"name":"end","type":"uint256","internalType":"uint256"}],"outputs":[{"name":"","type":"tuple","internalType":"struct IRolldownPrimitives.L1Update","components":[{"name":"chain","type":"uint8","internalType":"enum IRolldownPrimitives.ChainId"},{"name":"pendingDeposits","type":"tuple[]","internalType":"struct IRolldownPrimitives.Deposit[]","components":[{"name":"requestId","type":"tuple","internalType":"struct IRolldownPrimitives.RequestId","components":[{"name":"origin","type":"uint8","internalType":"enum IRolldownPrimitives.Origin"},{"name":"id","type":"uint256","internalType":"uint256"}]},{"name":"depositRecipient","type":"address","internalType":"address"},{"name":"tokenAddress","type":"address","internalType":"address"},{"name":"amount","type":"uint256","internalType":"uint256"},{"name":"timeStamp","type":"uint256","internalType":"uint256"},{"name":"ferryTip","type":"uint256","internalType":"uint256"}]},{"name":"pendingCancelResolutions","type":"tuple[]","internalType":"struct IRolldownPrimitives.CancelResolution[]","components":[{"name":"requestId","type":"tuple","internalType":"struct IRolldownPrimitives.RequestId","components":[{"name":"origin","type":"uint8","internalType":"enum IRolldownPrimitives.Origin"},{"name":"id","type":"uint256","internalType":"uint256"}]},{"name":"l2RequestId","type":"uint256","internalType":"uint256"},{"name":"cancelJustified","type":"bool","internalType":"bool"},{"name":"timeStamp","type":"uint256","internalType":"uint256"}]}]}],"stateMutability":"view"},{"type":"function","name":"getRoleAdmin","inputs":[{"name":"role","type":"bytes32","internalType":"bytes32"}],"outputs":[{"name":"","type":"bytes32","internalType":"bytes32"}],"stateMutability":"view"},{"type":"function","name":"getUpdateForL2","inputs":[],"outputs":[{"name":"","type":"tuple","internalType":"struct IRolldownPrimitives.L1Update","components":[{"name":"chain","type":"uint8","internalType":"enum IRolldownPrimitives.ChainId"},{"name":"pendingDeposits","type":"tuple[]","internalType":"struct IRolldownPrimitives.Deposit[]","components":[{"name":"requestId","type":"tuple","internalType":"struct IRolldownPrimitives.RequestId","components":[{"name":"origin","type":"uint8","internalType":"enum IRolldownPrimitives.Origin"},{"name":"id","type":"uint256","internalType":"uint256"}]},{"name":"depositRecipient","type":"address","internalType":"address"},{"name":"tokenAddress","type":"address","internalType":"address"},{"name":"amount","type":"uint256","internalType":"uint256"},{"name":"timeStamp","type":"uint256","internalType":"uint256"},{"name":"ferryTip","type":"uint256","internalType":"uint256"}]},{"name":"pendingCancelResolutions","type":"tuple[]","internalType":"struct IRolldownPrimitives.CancelResolution[]","components":[{"name":"requestId","type":"tuple","internalType":"struct IRolldownPrimitives.RequestId","components":[{"name":"origin","type":"uint8","internalType":"enum IRolldownPrimitives.Origin"},{"name":"id","type":"uint256","internalType":"uint256"}]},{"name":"l2RequestId","type":"uint256","internalType":"uint256"},{"name":"cancelJustified","type":"bool","internalType":"bool"},{"name":"timeStamp","type":"uint256","internalType":"uint256"}]}]}],"stateMutability":"view"},{"type":"function","name":"grantRole","inputs":[{"name":"role","type":"bytes32","internalType":"bytes32"},{"name":"account","type":"address","internalType":"address"}],"outputs":[],"stateMutability":"nonpayable"},{"type":"function","name":"hasRole","inputs":[{"name":"role","type":"bytes32","internalType":"bytes32"},{"name":"account","type":"address","internalType":"address"}],"outputs":[{"name":"","type":"bool","internalType":"bool"}],"stateMutability":"view"},{"type":"function","name":"hashCancel","inputs":[{"name":"cancel","type":"tuple","internalType":"struct IRolldownPrimitives.Cancel","components":[{"name":"requestId","type":"tuple","internalType":"struct IRolldownPrimitives.RequestId","components":[{"name":"origin","type":"uint8","internalType":"enum IRolldownPrimitives.Origin"},{"name":"id","type":"uint256","internalType":"uint256"}]},{"name":"range","type":"tuple","internalType":"struct IRolldownPrimitives.Range","components":[{"name":"start","type":"uint256","internalType":"uint256"},{"name":"end","type":"uint256","internalType":"uint256"}]},{"name":"hash","type":"bytes32","internalType":"bytes32"}]}],"outputs":[{"name":"","type":"bytes32","internalType":"bytes32"}],"stateMutability":"pure"},{"type":"function","name":"hashFailedDepositResolution","inputs":[{"name":"failedDeposit","type":"tuple","internalType":"struct IRolldownPrimitives.FailedDepositResolution","components":[{"name":"requestId","type":"tuple","internalType":"struct IRolldownPrimitives.RequestId","components":[{"name":"origin","type":"uint8","internalType":"enum IRolldownPrimitives.Origin"},{"name":"id","type":"uint256","internalType":"uint256"}]},{"name":"originRequestId","type":"uint256","internalType":"uint256"},{"name":"ferry","type":"address","internalType":"address"}]}],"outputs":[{"name":"","type":"bytes32","internalType":"bytes32"}],"stateMutability":"pure"},{"type":"function","name":"hashWithdrawal","inputs":[{"name":"withdrawal","type":"tuple","internalType":"struct IRolldownPrimitives.Withdrawal","components":[{"name":"requestId","type":"tuple","internalType":"struct IRolldownPrimitives.RequestId","components":[{"name":"origin","type":"uint8","internalType":"enum IRolldownPrimitives.Origin"},{"name":"id","type":"uint256","internalType":"uint256"}]},{"name":"recipient","type":"address","internalType":"address"},{"name":"tokenAddress","type":"address","internalType":"address"},{"name":"amount","type":"uint256","internalType":"uint256"},{"name":"ferryTip","type":"uint256","internalType":"uint256"}]}],"outputs":[{"name":"","type":"bytes32","internalType":"bytes32"}],"stateMutability":"pure"},{"type":"function","name":"initialize","inputs":[{"name":"admin","type":"address","internalType":"address"},{"name":"chainId","type":"uint8","internalType":"enum IRolldownPrimitives.ChainId"},{"name":"updater","type":"address","internalType":"address"}],"outputs":[],"stateMutability":"nonpayable"},{"type":"function","name":"lastProcessedUpdate_origin_l1","inputs":[],"outputs":[{"name":"","type":"uint256","internalType":"uint256"}],"stateMutability":"view"},{"type":"function","name":"lastProcessedUpdate_origin_l2","inputs":[],"outputs":[{"name":"","type":"uint256","internalType":"uint256"}],"stateMutability":"view"},{"type":"function","name":"merkleRootRange","inputs":[{"name":"","type":"bytes32","internalType":"bytes32"}],"outputs":[{"name":"start","type":"uint256","internalType":"uint256"},{"name":"end","type":"uint256","internalType":"uint256"}],"stateMutability":"view"},{"type":"function","name":"pause","inputs":[],"outputs":[],"stateMutability":"nonpayable"},{"type":"function","name":"paused","inputs":[],"outputs":[{"name":"","type":"bool","internalType":"bool"}],"stateMutability":"view"},{"type":"function","name":"processedL2Requests","inputs":[{"name":"","type":"bytes32","internalType":"bytes32"}],"outputs":[{"name":"","type":"address","internalType":"address"}],"stateMutability":"view"},{"type":"function","name":"renounceRole","inputs":[{"name":"role","type":"bytes32","internalType":"bytes32"},{"name":"account","type":"address","internalType":"address"}],"outputs":[],"stateMutability":"nonpayable"},{"type":"function","name":"revokeRole","inputs":[{"name":"role","type":"bytes32","internalType":"bytes32"},{"name":"account","type":"address","internalType":"address"}],"outputs":[],"stateMutability":"nonpayable"},{"type":"function","name":"roots","inputs":[{"name":"","type":"uint256","internalType":"uint256"}],"outputs":[{"name":"","type":"bytes32","internalType":"bytes32"}],"stateMutability":"view"},{"type":"function","name":"setUpdater","inputs":[{"name":"updater","type":"address","internalType":"address"}],"outputs":[],"stateMutability":"nonpayable"},{"type":"function","name":"supportsInterface","inputs":[{"name":"interfaceId","type":"bytes4","internalType":"bytes4"}],"outputs":[{"name":"","type":"bool","internalType":"bool"}],"stateMutability":"view"},{"type":"function","name":"unpause","inputs":[],"outputs":[],"stateMutability":"nonpayable"},{"type":"function","name":"updateL1FromL2","inputs":[{"name":"merkleRoot","type":"bytes32","internalType":"bytes32"},{"name":"range","type":"tuple","internalType":"struct IRolldownPrimitives.Range","components":[{"name":"start","type":"uint256","internalType":"uint256"},{"name":"end","type":"uint256","internalType":"uint256"}]}],"outputs":[],"stateMutability":"nonpayable"},{"type":"function","name":"update_l1_from_l2","inputs":[{"name":"merkleRoot","type":"bytes32","internalType":"bytes32"},{"name":"range","type":"tuple","internalType":"struct IRolldownPrimitives.Range","components":[{"name":"start","type":"uint256","internalType":"uint256"},{"name":"end","type":"uint256","internalType":"uint256"}]}],"outputs":[],"stateMutability":"nonpayable"},{"type":"function","name":"updaterAccount","inputs":[],"outputs":[{"name":"","type":"address","internalType":"address"}],"stateMutability":"view"},{"type":"event","name":"DepositAcceptedIntoQueue","inputs":[{"name":"requestId","type":"uint256","indexed":true,"internalType":"uint256"},{"name":"depositRecipient","type":"address","indexed":true,"internalType":"address"},{"name":"tokenAddress","type":"address","indexed":true,"internalType":"address"},{"name":"amount","type":"uint256","indexed":false,"internalType":"uint256"},{"name":"ferryTip","type":"uint256","indexed":false,"internalType":"uint256"}],"anonymous":false},{"type":"event","name":"DisputeResolutionAcceptedIntoQueue","inputs":[{"name":"requestId","type":"uint256","indexed":true,"internalType":"uint256"},{"name":"cancelJustified","type":"bool","indexed":false,"internalType":"bool"},{"name":"cancelResolutionHash","type":"bytes32","indexed":false,"internalType":"bytes32"}],"anonymous":false},{"type":"event","name":"ERC20TokensWithdrawn","inputs":[{"name":"sender","type":"address","indexed":true,"internalType":"address"},{"name":"tokenAddress","type":"address","indexed":true,"internalType":"address"},{"name":"amount","type":"uint256","indexed":false,"internalType":"uint256"}],"anonymous":false},{"type":"event","name":"FailedDepositResolutionClosed","inputs":[{"name":"indexedrequestId","type":"uint256","indexed":false,"internalType":"uint256"},{"name":"originDepositId","type":"uint256","indexed":false,"internalType":"uint256"},{"name":"failedDespotiResolutionHash","type":"bytes32","indexed":false,"internalType":"bytes32"}],"anonymous":false},{"type":"event","name":"FerriedWithdrawalClosed","inputs":[{"name":"requestId","type":"uint256","indexed":true,"internalType":"uint256"},{"name":"withdrawalHash","type":"bytes32","indexed":false,"internalType":"bytes32"}],"anonymous":false},{"type":"event","name":"Initialized","inputs":[{"name":"version","type":"uint8","indexed":false,"internalType":"uint8"}],"anonymous":false},{"type":"event","name":"L2UpdateAccepted","inputs":[{"name":"root","type":"bytes32","indexed":false,"internalType":"bytes32"},{"name":"range","type":"tuple","indexed":false,"internalType":"struct IRolldownPrimitives.Range","components":[{"name":"start","type":"uint256","internalType":"uint256"},{"name":"end","type":"uint256","internalType":"uint256"}]}],"anonymous":false},{"type":"event","name":"NativeTokensWithdrawn","inputs":[{"name":"sender","type":"address","indexed":true,"internalType":"address"},{"name":"amount","type":"uint256","indexed":false,"internalType":"uint256"}],"anonymous":false},{"type":"event","name":"NewUpdaterSet","inputs":[{"name":"updater","type":"address","indexed":true,"internalType":"address"}],"anonymous":false},{"type":"event","name":"Paused","inputs":[{"name":"account","type":"address","indexed":false,"internalType":"address"}],"anonymous":false},{"type":"event","name":"RoleAdminChanged","inputs":[{"name":"role","type":"bytes32","indexed":true,"internalType":"bytes32"},{"name":"previousAdminRole","type":"bytes32","indexed":true,"internalType":"bytes32"},{"name":"newAdminRole","type":"bytes32","indexed":true,"internalType":"bytes32"}],"anonymous":false},{"type":"event","name":"RoleGranted","inputs":[{"name":"role","type":"bytes32","indexed":true,"internalType":"bytes32"},{"name":"account","type":"address","indexed":true,"internalType":"address"},{"name":"sender","type":"address","indexed":true,"internalType":"address"}],"anonymous":false},{"type":"event","name":"RoleRevoked","inputs":[{"name":"role","type":"bytes32","indexed":true,"internalType":"bytes32"},{"name":"account","type":"address","indexed":true,"internalType":"address"},{"name":"sender","type":"address","indexed":true,"internalType":"address"}],"anonymous":false},{"type":"event","name":"Unpaused","inputs":[{"name":"account","type":"address","indexed":false,"internalType":"address"}],"anonymous":false},{"type":"event","name":"WithdrawalClosed","inputs":[{"name":"requestId","type":"uint256","indexed":true,"internalType":"uint256"},{"name":"withdrawalHash","type":"bytes32","indexed":false,"internalType":"bytes32"}],"anonymous":false},{"type":"event","name":"WithdrawalFerried","inputs":[{"name":"indexedrequestId","type":"uint256","indexed":false,"internalType":"uint256"},{"name":"amount","type":"uint256","indexed":false,"internalType":"uint256"},{"name":"recipient","type":"address","indexed":true,"internalType":"address"},{"name":"ferry","type":"address","indexed":true,"internalType":"address"},{"name":"withdrawalHash","type":"bytes32","indexed":false,"internalType":"bytes32"}],"anonymous":false},{"type":"error","name":"FerryTipExceedsAmount","inputs":[{"name":"ferryTip","type":"uint256","internalType":"uint256"},{"name":"amount","type":"uint256","internalType":"uint256"}]},{"type":"error","name":"InvalidFerriedAmount","inputs":[{"name":"actualAmount","type":"uint256","internalType":"uint256"},{"name":"expectedAmount","type":"uint256","internalType":"uint256"}]},{"type":"error","name":"InvalidRequestId","inputs":[{"name":"requestId","type":"uint256","internalType":"uint256"}]},{"type":"error","name":"InvalidRequestProof","inputs":[{"name":"merkleRoot","type":"bytes32","internalType":"bytes32"}]},{"type":"error","name":"InvalidRequestRange","inputs":[{"name":"start","type":"uint256","internalType":"uint256"},{"name":"end","type":"uint256","internalType":"uint256"}]},{"type":"error","name":"InvalidUpdateRange","inputs":[{"name":"start","type":"uint256","internalType":"uint256"},{"name":"end","type":"uint256","internalType":"uint256"}]},{"type":"error","name":"L2RequestAlreadyProcessed","inputs":[{"name":"requestHash","type":"bytes32","internalType":"bytes32"}]},{"type":"error","name":"PreviousUpdateMissed","inputs":[{"name":"currentStartRange","type":"uint256","internalType":"uint256"},{"name":"lastProcessedUpdate","type":"uint256","internalType":"uint256"}]},{"type":"error","name":"RequestOutOfRange","inputs":[{"name":"requestId","type":"uint256","internalType":"uint256"},{"name":"start","type":"uint256","internalType":"uint256"},{"name":"end","type":"uint256","internalType":"uint256"}]},{"type":"error","name":"RequestRangeTooLarge","inputs":[{"name":"count","type":"uint256","internalType":"uint256"}]},{"type":"error","name":"UnexpectedMerkleRoot","inputs":[]},{"type":"error","name":"UpdateAlreadyApplied","inputs":[{"name":"currentEndRange","type":"uint256","internalType":"uint256"},{"name":"lastProcessedUpdate","type":"uint256","internalType":"uint256"}]},{"type":"error","name":"WithdrawalAlreadyFerried","inputs":[{"name":"withdrawalHash","type":"bytes32","internalType":"bytes32"}]},{"type":"error","name":"ZeroAdmin","inputs":[]},{"type":"error","name":"ZeroAmount","inputs":[]},{"type":"error","name":"ZeroRecipient","inputs":[]},{"type":"error","name":"ZeroRootCount","inputs":[]},{"type":"error","name":"ZeroToken","inputs":[]},{"type":"error","name":"ZeroTransferAmount","inputs":[]},{"type":"error","name":"ZeroUpdateRange","inputs":[]},{"type":"error","name":"ZeroUpdater","inputs":[]}],"bytecode":{"object":"0x608060405234801561001057600080fd5b506139af806100206000396000f3fe60806040526004361061031e5760003560e01c8063890e95ce116101ab578063ca9b21ae116100f7578063de70e0b811610095578063f26ee9d01161006f578063f26ee9d014610838578063f35f9e451461084e578063f9ecd01e146107ac578063ff2bae861461086e57600080fd5b8063de70e0b8146107ec578063df2ebdbb14610823578063dffbdd9f1461058b57600080fd5b8063d16544f0116100d1578063d16544f014610509578063d1cb26b41461032a578063d547741f146107cc578063db6b52461461075457600080fd5b8063ca9b21ae1461075c578063cc8c909f1461078c578063ce2de1bc146107ac57600080fd5b8063a217fddf11610164578063b15387061161013e578063b1538706146106f8578063c2b40ae41461070d578063c763e5a11461072d578063c87c22241461075457600080fd5b8063a217fddf14610691578063ae46db11146106a6578063b02c43d0146106c657600080fd5b8063890e95ce146106315780638e24e392146103c157806391d1485414610651578063950ac4871461047257806397feb926146105095780639d54f4191461067157600080fd5b80633f4ba83a1161026a578063608fc37a1161022357806371c54461116101fd57806371c54461146105b457806379e041f2146105d95780637fd4f845146106065780638456cb591461061c57600080fd5b8063608fc37a1461058b57806361bc221a1461059e578063676f536b146103e157600080fd5b80633f4ba83a146104d257806347e63380146104e757806347e7ef24146105095780634bf5fec3146103815780634f48eedf146105295780635c975abb1461057357600080fd5b80630e2636a3116102d7578063248a9ca3116102b1578063248a9ca31461043457806325afc76a146104725780632f2ff15d1461049257806336568abe146104b257600080fd5b80630e2636a3146103f45780630efe6a8b146103a157806321425ee0146103a157600080fd5b806301ef69661461032a57806301ffc9a71461034c57806303ed49d31461038157806308aba1b2146103a157806308f42d40146103c15780630cac57ab146103e157600080fd5b3661032557005b600080fd5b34801561033657600080fd5b5061034a610345366004613095565b610884565b005b34801561035857600080fd5b5061036c6103673660046130f0565b6108d3565b60405190151581526020015b60405180910390f35b34801561038d57600080fd5b5061034a61039c36600461312c565b61090a565b3480156103ad57600080fd5b5061034a6103bc36600461318c565b610945565b3480156103cd57600080fd5b5061034a6103dc3660046131bf565b610989565b61034a6103ef3660046131f7565b6109b8565b34801561040057600080fd5b5061041c73111111111111111111111111111111111111111181565b6040516001600160a01b039091168152602001610378565b34801561044057600080fd5b5061046461044f366004613213565b60009081526065602052604090206001015490565b604051908152602001610378565b34801561047e57600080fd5b5061034a61048d36600461323e565b6109f8565b34801561049e57600080fd5b5061034a6104ad366004613281565b610a33565b3480156104be57600080fd5b5061034a6104cd366004613281565b610a58565b3480156104de57600080fd5b5061034a610ad6565b3480156104f357600080fd5b5061046460008051602061395a83398151915281565b34801561051557600080fd5b5061034a6105243660046132ad565b610aec565b34801561053557600080fd5b5061055e610544366004613213565b610101602052600090815260409020805460019091015482565b60408051928352602083019190915201610378565b34801561057f57600080fd5b5060c95460ff1661036c565b61034a610599366004613213565b610b30565b3480156105aa57600080fd5b5061046460fb5481565b3480156105c057600080fd5b5060fe5461041c9061010090046001600160a01b031681565b3480156105e557600080fd5b506105f96105f43660046132d7565b610b41565b60405161037891906133b1565b34801561061257600080fd5b5061046460fc5481565b34801561062857600080fd5b5061034a610fe5565b34801561063d57600080fd5b5061046461064c3660046131f7565b610ff8565b34801561065d57600080fd5b5061036c61066c366004613281565b611066565b34801561067d57600080fd5b5061034a61068c366004613474565b611091565b34801561069d57600080fd5b50610464600081565b3480156106b257600080fd5b506104646106c136600461348f565b61115b565b3480156106d257600080fd5b506106e66106e1366004613213565b61118f565b604051610378969594939291906134ab565b34801561070457600080fd5b506105f9611217565b34801561071957600080fd5b50610464610728366004613213565b611262565b34801561073957600080fd5b5060fe546107479060ff1681565b60405161037891906134ed565b61034a611284565b34801561076857600080fd5b5061077c610777366004613213565b611298565b6040516103789493929190613500565b34801561079857600080fd5b506104646107a7366004613529565b61130a565b3480156107b857600080fd5b506104646107c7366004613213565b61133e565b3480156107d857600080fd5b5061034a6107e7366004613281565b611349565b3480156107f857600080fd5b5061041c610807366004613213565b610102602052600090815260409020546001600160a01b031681565b34801561082f57600080fd5b5061041c600181565b34801561084457600080fd5b5061046460fd5481565b34801561085a57600080fd5b5061034a610869366004613545565b61136e565b34801561087a57600080fd5b5061010354610464565b61088c611572565b6002609754036108b75760405162461bcd60e51b81526004016108ae9061358e565b60405180910390fd5b60026097556108c8848484846115b8565b505060016097555050565b60006001600160e01b03198216637965db0b60e01b148061090457506301ffc9a760e01b6001600160e01b03198316145b92915050565b60026097540361092c5760405162461bcd60e51b81526004016108ae9061358e565b6002609755610939611572565b6108c884848484611619565b6002609754036109675760405162461bcd60e51b81526004016108ae9061358e565b6002609755610974611572565b61097f838383611809565b5050600160975550565b610991611572565b60008051602061395a8339815191526109a9816119df565b6109b383836119e9565b505050565b6002609754036109da5760405162461bcd60e51b81526004016108ae9061358e565b60026097556109e7611572565b6109f081611b52565b506001609755565b600260975403610a1a5760405162461bcd60e51b81526004016108ae9061358e565b6002609755610a27611572565b6108c884848484611dc9565b600082815260656020526040902060010154610a4e816119df565b6109b38383611df1565b6001600160a01b0381163314610ac85760405162461bcd60e51b815260206004820152602f60248201527f416363657373436f6e74726f6c3a2063616e206f6e6c792072656e6f756e636560448201526e103937b632b9903337b91039b2b63360891b60648201526084016108ae565b610ad28282611e77565b5050565b6000610ae1816119df565b610ae9611ede565b50565b600260975403610b0e5760405162461bcd60e51b81526004016108ae9061358e565b6002609755610b1b611572565b610b2782826000611809565b50506001609755565b610b38611572565b610ae981611f30565b610b666040805160608101909152806000815260200160608152602001606081525090565b604080516060810190915260fe5460009190819060ff166002811115610b8e57610b8e6132f9565b81526020016000604051908082528060200260200182016040528015610c0357816020015b6040805161010081018252600060c0820181815260e0830182905282526020808301829052928201819052606082018190526080820181905260a08201528252600019909201910181610bb35790505b5081526020016000604051908082528060200260200182016040528015610c6a57816020015b6040805160c08101825260006080820181815260a083018290528252602080830182905292820181905260608201528252600019909201910181610c295790505b509052905083158015610c7b575082155b15610c87579050610904565b600080855b858111610d0d576000818152610100602052604090206001015415610cbb57610cb4836135f1565b9250610d05565b600081815260ff602052604090206001015415610ce257610cdb826135f1565b9150610d05565b6040516354b4960f60e11b815260048101889052602481018790526044016108ae565b600101610c8c565b508167ffffffffffffffff811115610d2757610d276135c5565b604051908082528060200260200182016040528015610d9557816020015b6040805161010081018252600060c0820181815260e0830182905282526020808301829052928201819052606082018190526080820181905260a08201528252600019909201910181610d455790505b5060208401528067ffffffffffffffff811115610db457610db46135c5565b604051908082528060200260200182016040528015610e1357816020015b6040805160c08101825260006080820181815260a083018290528252602080830182905292820181905260608201528252600019909201910181610dd25790505b506040840152506000905080855b858111610fda576000818152610100602052604090206001015415610f10576000818152610100602081905260409182902082519182019092528154909190829060c08201908390829060ff166001811115610e7f57610e7f6132f9565b6001811115610e9057610e906132f9565b81526001919091015460209182015290825260028301546001600160a01b03908116838301526003840154166040830152600483015460608301526005830154608083015260069092015460a09091015285015184610eee816135f1565b955081518110610f0057610f0061360a565b6020026020010181905250610fd2565b600081815260ff602052604090206002015415610fcd57600081815260ff6020819052604091829020825160c08101909352805490918391608083019184918391166001811115610f6357610f636132f9565b6001811115610f7457610f746132f9565b815260019190910154602091820152908252600283015490820152600382015460ff16151560408083019190915260049092015460609091015285015183610fbb816135f1565b945081518110610f0057610f0061360a565b610fda565b600101610e21565b509195945050505050565b6000610ff0816119df565b610ae96120c6565b60008060405160200161100b91906134ed565b6040516020818303038152906040528260405160200161102b9190613645565b60408051601f198184030181529082905261104992916020016136ca565b604051602081830303815290604052805190602001209050919050565b60009182526065602090815260408084206001600160a01b0393909316845291905290205460ff1690565b600061109c816119df565b6001600160a01b0382166110c65760405160016279c35d60e01b0319815260040160405180910390fd5b60fe546110f09060008051602061395a8339815191529061010090046001600160a01b0316611e77565b61110860008051602061395a83398151915283611df1565b60fe8054610100600160a81b0319166101006001600160a01b038516908102919091179091556040517f1b0f2f500df596b42b73e80dbec6a1fb570f01978a586723f988a5fc54d773a190600090a25050565b6000600260405160200161116f91906134ed565b6040516020818303038152906040528260405160200161102b91906136f9565b6101006020526000908152604090819020815180830190925280549091908290829060ff1660018111156111c5576111c56132f9565b60018111156111d6576111d66132f9565b815260019190910154602090910152600282015460038301546004840154600585015460069095015493946001600160a01b03938416949290931692909186565b61123c6040805160608101909152806000815260200160608152602001606081525090565b61125d60fc54600161124e9190613731565b600160fb546105f49190613749565b905090565b610103818154811061127357600080fd5b600091825260209091200154905081565b61128c611572565b6112966000611f30565b565b60ff6020819052600091825260409182902082518084019093528054909291839183911660018111156112cd576112cd6132f9565b60018111156112de576112de6132f9565b815260019190910154602090910152600282015460038301546004909301549192909160ff9091169084565b6000600160405160200161131e91906134ed565b6040516020818303038152906040528260405160200161102b9190613760565b600061090482612103565b600082815260656020526040902060010154611364816119df565b6109b38383611e77565b600054610100900460ff161580801561138e5750600054600160ff909116105b806113a85750303b1580156113a8575060005460ff166001145b61140b5760405162461bcd60e51b815260206004820152602e60248201527f496e697469616c697a61626c653a20636f6e747261637420697320616c72656160448201526d191e481a5b9a5d1a585b1a5e995960921b60648201526084016108ae565b6000805460ff19166001179055801561142e576000805461ff0019166101001790555b611436612226565b61143e612226565b61144661224d565b61144e61227c565b6001600160a01b03841661147557604051633944ed8760e11b815260040160405180910390fd5b611480600085611df1565b6001600160a01b0382166114aa5760405160016279c35d60e01b0319815260040160405180910390fd5b6114c260008051602061395a83398151915283611df1565b60fe8054610100600160a81b031981166101006001600160a01b038616029081178355600160fb819055600060fc81905560fd558693926001600160a81b03191660ff199092169190911790836002811115611520576115206132f9565b0217905550801561156c576000805461ff0019169055604051600181527f7f26b83ff96e1f2b6a682f133852f6798a09c465da95921460cefb3847402498906020015b60405180910390a15b50505050565b60c95460ff16156112965760405162461bcd60e51b815260206004820152601060248201526f14185d5cd8589b194e881c185d5cd95960821b60448201526064016108ae565b60006115c38561130a565b90506115d66020860135828686866122ab565b6115e0858261249c565b60009081526101026020526040902080546001600160a01b03191673111111111111111111111111111111111111111117905550505050565b600061162485610ff8565b90506116376020860135828686866122ab565b60008181526101026020526040902080546001600160a01b03198116731111111111111111111111111111111111111111179091556001600160a01b0316801561170b57600161168d6080880160608901613474565b6001600160a01b0316146116be576116b9816116af6080890160608a01613474565b8860800135612602565b6116cc565b6116cc818760800135612683565b604051828152602080880135917f2996fd546c37d74c170466ea6aa4a308e3ca2d4aa689e6e9e32994db5039cc0e910160405180910390a2505061156c565b600061171f60a08801356080890135613749565b905060016117336080890160608a01613474565b6001600160a01b0316036117775761175a6117546060890160408a01613474565b82612683565b60a08701351561177257611772338860a00135612683565b6117c8565b6117a061178a6060890160408a01613474565b61179a60808a0160608b01613474565b83612602565b60a0870135156117c8576117c8336117be60808a0160608b01613474565b8960a00135612602565b604051838152602080890135917f935f26d94be31907080aa78b3e6e2ac6d48a072af096c20268388621bbc11789910160405180910390a250505050505050565b81818160000361182c57604051631f2a200560e01b815260040160405180910390fd5b818111156118575760405163202b316960e21b815260048101829052602481018390526044016108ae565b6001600160a01b03851661187e5760405163ad1991f560e01b815260040160405180910390fd5b60006040518060c0016040528061189560006126f1565b8152602001336001600160a01b03908116825288166020808301919091526040808301899052426060840152608090920187905282518101516000908152610100909152208151805182549394508493839190829060ff191660018381811115611901576119016132f9565b0217905550602091820151600191909101558201516002820180546001600160a01b03199081166001600160a01b03938416179091556040840151600384018054909216908316179055606083015160048301556080830151600583015560a0909201516006909101558616336001600160a01b03168260000151602001517f225305ecb66fa9b9b29f8dead9baea365a6c225d639dfd866e782ccb63e2f05b88886040516119ba929190918252602082015260400190565b60405180910390a46119d76001600160a01b038716333088612746565b505050505050565b610ae981336127b1565b8035600003611a0b576040516369f1cfef60e01b815260040160405180910390fd5b602081013581351115611a3e5760405163722fc3f760e11b815281356004820152602082013560248201526044016108ae565b60fd54611a4d60018335613749565b1115611a7a5760fd54604051630650047360e51b81528235600482015260248101919091526044016108ae565b60fd54816020013511611ab15760fd546040516350a792b160e01b81526020830135600482015260248101919091526044016108ae565b6101038054600181019091557f02c297ab74aad0aede3a1895c857b1f2c71e6a203feb727bec95ac752998cb78018290556000828152610101602052604090208190611b0a828281358155602082013560018201555050565b5050602081013560fd556040517f49c158d490db9e066f01b5d4f1a094485a6598cb6c5296b4c07e46c12a1dc11c90611b469084908490613796565b60405180910390a15050565b80608001358160a0013581600003611b7d57604051631f2a200560e01b815260040160405180910390fd5b81811115611ba85760405163202b316960e21b815260048101829052602481018390526044016108ae565b6000611bba6060850160408601613474565b6001600160a01b031603611be15760405163d27b444360e01b815260040160405180910390fd5b6000611bec84610ff8565b600081815261010260205260409020549091506001600160a01b031615611c295760405163fea5945360e01b8152600481018290526024016108ae565b60008181526101026020526040812080546001600160a01b03191633179055611c5a60a08601356080870135613749565b90506001611c6e6080870160608801613474565b6001600160a01b031603611d3157803414611ca557604051634ceaf5d360e11b8152346004820152602481018290526044016108ae565b33611cb66060870160408801613474565b604080516020808a0135825281018590529081018590526001600160a01b0391909116907f7a9abd9eb86bdbca89cba4069a632c37d93db82e3e14ad8119a3a7812814853e9060600160405180910390a3611d2a81611d1b6060880160408901613474565b6001600160a01b031690612815565b5050505050565b33611d426060870160408801613474565b604080516020808a0135825281018590529081018590526001600160a01b0391909116907f7a9abd9eb86bdbca89cba4069a632c37d93db82e3e14ad8119a3a7812814853e9060600160405180910390a3611d2a33611da76060880160408901613474565b83611db860808a0160608b01613474565b6001600160a01b0316929190612746565b6000611dd48561115b565b9050611de76020860135828686866122ab565b6115e0858261292e565b611dfb8282611066565b610ad25760008281526065602090815260408083206001600160a01b03851684529091529020805460ff19166001179055611e333390565b6001600160a01b0316816001600160a01b0316837f2f8788117e7eff1d82e926ec794901d17c78024a50270940304540a733656f0d60405160405180910390a45050565b611e818282611066565b15610ad25760008281526065602090815260408083206001600160a01b0385168085529252808320805460ff1916905551339285917ff6391f5c32d9c69d2a47ea670b442974b53935d1edc7fd64eb21e047a839171b9190a45050565b611ee6612a13565b60c9805460ff191690557f5db9ee0a495bf2e6ff9c91a7834c1ba4fdd244a5e8aa4e537bd38aeae4b073aa335b6040516001600160a01b03909116815260200160405180910390a1565b348181600003611f5357604051631f2a200560e01b815260040160405180910390fd5b81811115611f7e5760405163202b316960e21b815260048101829052602481018390526044016108ae565b60006040518060c00160405280611f9560006126f1565b8152336020808301919091526001604080840182905234606085015242608085015260a0909301889052835182015160009081526101009092529190208251805182549495508594929391928492839160ff1916908381811115611ffb57611ffb6132f9565b0217905550602091820151600191820155908301516002830180546001600160a01b039283166001600160a01b0319918216179091556040850151600385018054919093169116179055606083015160048301556080830151600583015560a09092015160069091015561206c3390565b6001600160a01b03168260000151602001517f225305ecb66fa9b9b29f8dead9baea365a6c225d639dfd866e782ccb63e2f05b34886040516120b8929190918252602082015260400190565b60405180910390a450505050565b6120ce611572565b60c9805460ff191660011790557f62e78cea01bee320cd4e420270b5ea74000d11b0c9f74754ebdbfc544b05a258611f133390565b600060fd5482111561212b576040516364b4f07960e11b8152600481018390526024016108ae565b61010354600081900361215157604051635d43707560e01b815260040160405180910390fd5b805b80156121dd576000610103612169600184613749565b815481106121795761217961360a565b600091825260208083209091015480835261010182526040928390208351808501909452805480855260019091015492840192909252925086108015906121c4575080602001518611155b156121d25750949350505050565b505060001901612153565b5060405162461bcd60e51b815260206004820152601c60248201527f426174636820776974682072657175657374206e6f7420666f756e640000000060448201526064016108ae565b600054610100900460ff166112965760405162461bcd60e51b81526004016108ae906137b4565b600054610100900460ff166122745760405162461bcd60e51b81526004016108ae906137b4565b611296612a5c565b600054610100900460ff166122a35760405162461bcd60e51b81526004016108ae906137b4565b611296612a8f565b600084815261010260205260409020546001600160a01b031673111111111111111111111111111111111111111019016122fb5760405163e99711f160e01b8152600481018590526024016108ae565b600083815261010160209081526040918290208251808401909352805480845260019091015491830191909152158061233657506020810151155b15612354576040516339075ba160e21b815260040160405180910390fd5b80516020820151101561238a57805160208201516040516354b4960f60e11b8152600481019290925260248201526044016108ae565b805186108061239c5750806020015186115b156123d15780516020820151604051634d346e8960e01b815260048101899052602481019290925260448201526064016108ae565b805160208201516000916123e491613749565b6123ef906001613731565b905063ffffffff81111561241957604051632095a53d60e21b8152600481018290526024016108ae565b81516000906124289089613749565b9050600061246c8883888880806020026020016040519081016040528093929190818152602001838360200280828437600092019190915250899250612abd915050565b90508087146124915760405163f6ae8d5360e01b8152600481018890526024016108ae565b505050505050505050565b6000600160fb546124ad9190613749565b606084013511156124c057506001612508565b60006124d460408501356060860135610b41565b9050806040516020016124e791906133b1565b60405160208183030381529060405280519060200120846080013514159150505b6000604051806080016040528061251f60006126f1565b815260208681013581830152841515604080840191909152426060909301929092528251810151600090815260ff909152208151805182549394508493839190829060ff191660018381811115612578576125786132f9565b02179055506020918201516001919091015582810151600283015560408084015160038401805460ff1916911515919091179055606090930151600490920191909155828101518383015183519015158152918201869052917f9ef11353afd97d339a77732850b7c22704656558d9ba63cc7e321e0ac4c20aa9910160405180910390a250505050565b80600003612623576040516329c5442960e01b815260040160405180910390fd5b816001600160a01b0316836001600160a01b03167ee763f7778b8ceef7270c89b7d1df1008b0e482da39c43831417733af96fb0d8360405161266791815260200190565b60405180910390a36109b36001600160a01b0383168483612b0b565b806000036126a4576040516329c5442960e01b815260040160405180910390fd5b816001600160a01b03167fe0495355c1e04c512584521854d222d239a4b782b39ac8a7e835a34f5ec7c1e1826040516126df91815260200190565b60405180910390a2610ad28282612815565b60408051808201909152600080825260208201526040518060400160405280836001811115612722576127226132f9565b815260200160fb600081548092919061273a906135f1565b90915550905292915050565b6040516001600160a01b038085166024830152831660448201526064810182905261156c9085906323b872dd60e01b906084015b60408051601f198184030181529190526020810180516001600160e01b03166001600160e01b031990931692909217909152612b3b565b6127bb8282611066565b610ad2576127d3816001600160a01b03166014612c0d565b6127de836020612c0d565b6040516020016127ef9291906137ff565b60408051601f198184030181529082905262461bcd60e51b82526108ae91600401613874565b804710156128655760405162461bcd60e51b815260206004820152601d60248201527f416464726573733a20696e73756666696369656e742062616c616e636500000060448201526064016108ae565b6000826001600160a01b03168260405160006040518083038185875af1925050503d80600081146128b2576040519150601f19603f3d011682016040523d82523d6000602084013e6128b7565b606091505b50509050806109b35760405162461bcd60e51b815260206004820152603a60248201527f416464726573733a20756e61626c6520746f2073656e642076616c75652c207260448201527f6563697069656e74206d6179206861766520726576657274656400000000000060648201526084016108ae565b6040808301356000908152610100602052908120600281015490916001600160a01b03909116906129656080860160608701613474565b6001600160a01b031614612986576129836080850160608601613474565b90505b60038201546001600160a01b03166001146129c157600382015460048301546129bc9183916001600160a01b0390911690612602565b6129cf565b6129cf818360040154612683565b60408051602086810135825286830135908201529081018490527f13750c731f87c15242874ce74bf4649502cc8e7c829067ce846505acdb96289d90606001611563565b60c95460ff166112965760405162461bcd60e51b815260206004820152601460248201527314185d5cd8589b194e881b9bdd081c185d5cd95960621b60448201526064016108ae565b600054610100900460ff16612a835760405162461bcd60e51b81526004016108ae906137b4565b60c9805460ff19169055565b600054610100900460ff16612ab65760405162461bcd60e51b81526004016108ae906137b4565b6001609755565b600080825b8015612ae757612ad36002826138bd565b9050612ae0600183613731565b9150612ac2565b612b00828789886000612afb60018b613749565b612db0565b979650505050505050565b6040516001600160a01b0383166024820152604481018290526109b390849063a9059cbb60e01b9060640161277a565b6000612b90826040518060400160405280602081526020017f5361666545524332303a206c6f772d6c6576656c2063616c6c206661696c6564815250856001600160a01b0316612ec09092919063ffffffff16565b8051909150156109b35780806020019051810190612bae91906138d1565b6109b35760405162461bcd60e51b815260206004820152602a60248201527f5361666545524332303a204552433230206f7065726174696f6e20646964206e6044820152691bdd081cdd58d8d9595960b21b60648201526084016108ae565b60606000612c1c8360026138f3565b612c27906002613731565b67ffffffffffffffff811115612c3f57612c3f6135c5565b6040519080825280601f01601f191660200182016040528015612c69576020820181803683370190505b509050600360fc1b81600081518110612c8457612c8461360a565b60200101906001600160f81b031916908160001a905350600f60fb1b81600181518110612cb357612cb361360a565b60200101906001600160f81b031916908160001a9053506000612cd78460026138f3565b612ce2906001613731565b90505b6001811115612d5a576f181899199a1a9b1b9c1cb0b131b232b360811b85600f1660108110612d1657612d1661360a565b1a60f81b828281518110612d2c57612d2c61360a565b60200101906001600160f81b031916908160001a90535060049490941c93612d5381613912565b9050612ce5565b508315612da95760405162461bcd60e51b815260206004820181905260248201527f537472696e67733a20686578206c656e67746820696e73756666696369656e7460448201526064016108ae565b9392505050565b6000612dbd600287613929565b600003612e2857858214612e8157848484612dd7816135f1565b955081518110612de957612de961360a565b6020026020010151604051602001612e0b929190918252602082015260400190565b604051602081830303815290604052805190602001209450612e81565b8383612e33816135f1565b945081518110612e4557612e4561360a565b602002602001015185604051602001612e68929190918252602082015260400190565b6040516020818303038152906040528051906020012094505b86600114612eb557612eb0612e97600189613749565b612ea26002896138bd565b878787612afb6002896138bd565b612b00565b509295945050505050565b6060612ecf8484600085612ed7565b949350505050565b606082471015612f385760405162461bcd60e51b815260206004820152602660248201527f416464726573733a20696e73756666696369656e742062616c616e636520666f6044820152651c8818d85b1b60d21b60648201526084016108ae565b6001600160a01b0385163b612f8f5760405162461bcd60e51b815260206004820152601d60248201527f416464726573733a2063616c6c20746f206e6f6e2d636f6e747261637400000060448201526064016108ae565b600080866001600160a01b03168587604051612fab919061393d565b60006040518083038185875af1925050503d8060008114612fe8576040519150601f19603f3d011682016040523d82523d6000602084013e612fed565b606091505b5091509150612b0082828660608315613007575081612da9565b8251156130175782518084602001fd5b8160405162461bcd60e51b81526004016108ae9190613874565b600060a0828403121561304357600080fd5b50919050565b60008083601f84011261305b57600080fd5b50813567ffffffffffffffff81111561307357600080fd5b6020830191508360208260051b850101111561308e57600080fd5b9250929050565b60008060008060e085870312156130ab57600080fd5b6130b58686613031565b935060a0850135925060c085013567ffffffffffffffff8111156130d857600080fd5b6130e487828801613049565b95989497509550505050565b60006020828403121561310257600080fd5b81356001600160e01b031981168114612da957600080fd5b600060c0828403121561304357600080fd5b600080600080610100858703121561314357600080fd5b61314d868661311a565b935060c0850135925060e085013567ffffffffffffffff8111156130d857600080fd5b80356001600160a01b038116811461318757600080fd5b919050565b6000806000606084860312156131a157600080fd5b6131aa84613170565b95602085013595506040909401359392505050565b60008082840360608112156131d357600080fd5b833592506040601f19820112156131e957600080fd5b506020830190509250929050565b600060c0828403121561320957600080fd5b612da9838361311a565b60006020828403121561322557600080fd5b5035919050565b60006080828403121561304357600080fd5b60008060008060c0858703121561325457600080fd5b61325e868661322c565b93506080850135925060a085013567ffffffffffffffff8111156130d857600080fd5b6000806040838503121561329457600080fd5b823591506132a460208401613170565b90509250929050565b600080604083850312156132c057600080fd5b6132c983613170565b946020939093013593505050565b600080604083850312156132ea57600080fd5b50508035926020909101359150565b634e487b7160e01b600052602160045260246000fd5b60038110610ae957610ae96132f9565b6002811061332f5761332f6132f9565b9052565b61333e82825161331f565b602090810151910152565b600081518084526020808501945080840160005b838110156133a6578151613372888251613333565b8084015160408981019190915281015115156060808a01919091520151608088015260a0909601959082019060010161335d565b509495945050505050565b60006020808352608080840185516133c88161330f565b85840152858301516060604080880182905282519384905260a093928601928489019060005b81811015613449578551613403848251613333565b808a01516001600160a01b03908116858701528582015116868501528581015189850152888101518885015287015160c08401529488019460e0909201916001016133ee565b505089820151898203601f1901848b015296506134668188613349565b9a9950505050505050505050565b60006020828403121561348657600080fd5b612da982613170565b6000608082840312156134a157600080fd5b612da9838361322c565b60e081016134b98289613333565b6001600160a01b039687166040830152949095166060860152608085019290925260a084015260c090920191909152919050565b602081016134fa8361330f565b91905290565b60a0810161350e8287613333565b60408201949094529115156060830152608090910152919050565b600060a0828403121561353b57600080fd5b612da98383613031565b60008060006060848603121561355a57600080fd5b61356384613170565b925060208401356003811061357757600080fd5b915061358560408501613170565b90509250925092565b6020808252601f908201527f5265656e7472616e637947756172643a207265656e7472616e742063616c6c00604082015260600190565b634e487b7160e01b600052604160045260246000fd5b634e487b7160e01b600052601160045260246000fd5b600060018201613603576136036135db565b5060010190565b634e487b7160e01b600052603260045260246000fd5b80356002811061362f57600080fd5b613639838261331f565b50602090810135910152565b60c081016136538284613620565b61365f60408401613170565b6001600160a01b0381811660408501528061367c60608701613170565b16606085015250506080830135608083015260a083013560a083015292915050565b60005b838110156136b95781810151838201526020016136a1565b8381111561156c5750506000910152565b600083516136dc81846020880161369e565b8351908301906136f081836020880161369e565b01949350505050565b608081016137078284613620565b604083810135908301526001600160a01b0361372560608501613170565b16606083015292915050565b60008219821115613744576137446135db565b500190565b60008282101561375b5761375b6135db565b500390565b60a0810161376e8284613620565b613788604083016040850180358252602090810135910152565b608092830135919092015290565b82815260608101612da9602083018480358252602090810135910152565b6020808252602b908201527f496e697469616c697a61626c653a20636f6e7472616374206973206e6f74206960408201526a6e697469616c697a696e6760a81b606082015260800190565b7f416363657373436f6e74726f6c3a206163636f756e742000000000000000000081526000835161383781601785016020880161369e565b7001034b99036b4b9b9b4b733903937b6329607d1b601791840191820152835161386881602884016020880161369e565b01602801949350505050565b602081526000825180602084015261389381604085016020870161369e565b601f01601f19169190910160400192915050565b634e487b7160e01b600052601260045260246000fd5b6000826138cc576138cc6138a7565b500490565b6000602082840312156138e357600080fd5b81518015158114612da957600080fd5b600081600019048311821515161561390d5761390d6135db565b500290565b600081613921576139216135db565b506000190190565b600082613938576139386138a7565b500690565b6000825161394f81846020870161369e565b919091019291505056fe73e573f9566d61418a34d5de3ff49360f9c51fec37f7486551670290f6285daba2646970667358221220ce4e75bc155a0b1f17deb9f53f3cd896bfaa9076d98a5be94d0199cba8ca0bf364736f6c634300080d0033","linkReferences":{}},"methodIdentifiers":{"CLOSED()":"0e2636a3","DEFAULT_ADMIN_ROLE()":"a217fddf","NATIVE_TOKEN_ADDRESS()":"df2ebdbb","UPDATER_ROLE()":"47e63380","cancelResolutions(uint256)":"ca9b21ae","chain()":"c763e5a1","closeCancel(((uint8,uint256),(uint256,uint256),bytes32),bytes32,bytes32[])":"d1cb26b4","closeDepositRefund(((uint8,uint256),uint256,address),bytes32,bytes32[])":"25afc76a","closeWithdrawal(((uint8,uint256),address,address,uint256,uint256),bytes32,bytes32[])":"03ed49d3","close_cancel(((uint8,uint256),(uint256,uint256),bytes32),bytes32,bytes32[])":"01ef6966","close_deposit_refund(((uint8,uint256),uint256,address),bytes32,bytes32[])":"950ac487","close_withdrawal(((uint8,uint256),address,address,uint256,uint256),bytes32,bytes32[])":"4bf5fec3","counter()":"61bc221a","deposit(address,uint256)":"47e7ef24","deposit(address,uint256,uint256)":"0efe6a8b","depositERC20(address,uint256)":"97feb926","depositERC20(address,uint256,uint256)":"21425ee0","depositNative()":"db6b5246","depositNative(uint256)":"608fc37a","deposit_erc20(address,uint256)":"d16544f0","deposit_erc20(address,uint256,uint256)":"08aba1b2","deposit_native()":"c87c2224","deposit_native(uint256)":"dffbdd9f","deposits(uint256)":"b02c43d0","ferryWithdrawal(((uint8,uint256),address,address,uint256,uint256))":"676f536b","ferry_withdrawal(((uint8,uint256),address,address,uint256,uint256))":"0cac57ab","findL2Batch(uint256)":"ce2de1bc","find_l2_batch(uint256)":"f9ecd01e","getMerkleRootsLength()":"ff2bae86","getPendingRequests(uint256,uint256)":"79e041f2","getRoleAdmin(bytes32)":"248a9ca3","getUpdateForL2()":"b1538706","grantRole(bytes32,address)":"2f2ff15d","hasRole(bytes32,address)":"91d14854","hashCancel(((uint8,uint256),(uint256,uint256),bytes32))":"cc8c909f","hashFailedDepositResolution(((uint8,uint256),uint256,address))":"ae46db11","hashWithdrawal(((uint8,uint256),address,address,uint256,uint256))":"890e95ce","initialize(address,uint8,address)":"f35f9e45","lastProcessedUpdate_origin_l1()":"7fd4f845","lastProcessedUpdate_origin_l2()":"f26ee9d0","merkleRootRange(bytes32)":"4f48eedf","pause()":"8456cb59","paused()":"5c975abb","processedL2Requests(bytes32)":"de70e0b8","renounceRole(bytes32,address)":"36568abe","revokeRole(bytes32,address)":"d547741f","roots(uint256)":"c2b40ae4","setUpdater(address)":"9d54f419","supportsInterface(bytes4)":"01ffc9a7","unpause()":"3f4ba83a","updateL1FromL2(bytes32,(uint256,uint256))":"8e24e392","update_l1_from_l2(bytes32,(uint256,uint256))":"08f42d40","updaterAccount()":"71c54461"},"id":143}