{"abi":[{"type":"function","name":"CLOSED","inputs":[],"outputs":[{"name":"","type":"address","internalType":"address"}],"stateMutability":"view"},{"type":"function","name":"NATIVE_TOKEN_ADDRESS","inputs":[],"outputs":[{"name":"","type":"address","internalType":"address"}],"stateMutability":"view"},{"type":"function","name":"calculate_root","inputs":[{"name":"leave_hash","type":"bytes32","internalType":"bytes32"},{"name":"leave_idx","type":"uint32","internalType":"uint32"},{"name":"proof","type":"bytes32[]","internalType":"bytes32[]"},{"name":"leaves_count","type":"uint32","internalType":"uint32"}],"outputs":[{"name":"","type":"bytes32","internalType":"bytes32"}],"stateMutability":"pure"},{"type":"function","name":"calculate_root_impl","inputs":[{"name":"level","type":"uint32","internalType":"uint32"},{"name":"pos","type":"uint32","internalType":"uint32"},{"name":"hash","type":"bytes32","internalType":"bytes32"},{"name":"proofs","type":"bytes32[]","internalType":"bytes32[]"},{"name":"proof_idx","type":"uint32","internalType":"uint32"},{"name":"max_index","type":"uint32","internalType":"uint32"}],"outputs":[{"name":"","type":"bytes32","internalType":"bytes32"}],"stateMutability":"pure"},{"type":"function","name":"cancelResolutions","inputs":[{"name":"","type":"uint256","internalType":"uint256"}],"outputs":[{"name":"requestId","type":"tuple","internalType":"struct IRolldownPrimitives.RequestId","components":[{"name":"origin","type":"uint8","internalType":"enum IRolldownPrimitives.Origin"},{"name":"id","type":"uint256","internalType":"uint256"}]},{"name":"l2RequestId","type":"uint256","internalType":"uint256"},{"name":"cancelJustified","type":"bool","internalType":"bool"},{"name":"timeStamp","type":"uint256","internalType":"uint256"}],"stateMutability":"view"},{"type":"function","name":"chain","inputs":[],"outputs":[{"name":"","type":"uint8","internalType":"enum IRolldownPrimitives.ChainId"}],"stateMutability":"view"},{"type":"function","name":"close_cancel","inputs":[{"name":"cancel","type":"tuple","internalType":"struct IRolldownPrimitives.Cancel","components":[{"name":"requestId","type":"tuple","internalType":"struct IRolldownPrimitives.RequestId","components":[{"name":"origin","type":"uint8","internalType":"enum IRolldownPrimitives.Origin"},{"name":"id","type":"uint256","internalType":"uint256"}]},{"name":"range","type":"tuple","internalType":"struct IRolldownPrimitives.Range","components":[{"name":"start","type":"uint256","internalType":"uint256"},{"name":"end","type":"uint256","internalType":"uint256"}]},{"name":"hash","type":"bytes32","internalType":"bytes32"}]},{"name":"merkle_root","type":"bytes32","internalType":"bytes32"},{"name":"proof","type":"bytes32[]","internalType":"bytes32[]"}],"outputs":[],"stateMutability":"nonpayable"},{"type":"function","name":"close_deposit_refund","inputs":[{"name":"failedDeposit","type":"tuple","internalType":"struct IRolldownPrimitives.FailedDepositResolution","components":[{"name":"requestId","type":"tuple","internalType":"struct IRolldownPrimitives.RequestId","components":[{"name":"origin","type":"uint8","internalType":"enum IRolldownPrimitives.Origin"},{"name":"id","type":"uint256","internalType":"uint256"}]},{"name":"originRequestId","type":"uint256","internalType":"uint256"},{"name":"ferry","type":"address","internalType":"address"}]},{"name":"merkle_root","type":"bytes32","internalType":"bytes32"},{"name":"proof","type":"bytes32[]","internalType":"bytes32[]"}],"outputs":[],"stateMutability":"nonpayable"},{"type":"function","name":"close_withdrawal","inputs":[{"name":"withdrawal","type":"tuple","internalType":"struct IRolldownPrimitives.Withdrawal","components":[{"name":"requestId","type":"tuple","internalType":"struct IRolldownPrimitives.RequestId","components":[{"name":"origin","type":"uint8","internalType":"enum IRolldownPrimitives.Origin"},{"name":"id","type":"uint256","internalType":"uint256"}]},{"name":"recipient","type":"address","internalType":"address"},{"name":"tokenAddress","type":"address","internalType":"address"},{"name":"amount","type":"uint256","internalType":"uint256"},{"name":"ferryTip","type":"uint256","internalType":"uint256"}]},{"name":"merkle_root","type":"bytes32","internalType":"bytes32"},{"name":"proof","type":"bytes32[]","internalType":"bytes32[]"}],"outputs":[],"stateMutability":"nonpayable"},{"type":"function","name":"counter","inputs":[],"outputs":[{"name":"","type":"uint256","internalType":"uint256"}],"stateMutability":"view"},{"type":"function","name":"deposit","inputs":[{"name":"tokenAddress","type":"address","internalType":"address"},{"name":"amount","type":"uint256","internalType":"uint256"},{"name":"ferryTip","type":"uint256","internalType":"uint256"}],"outputs":[],"stateMutability":"nonpayable"},{"type":"function","name":"deposit","inputs":[{"name":"tokenAddress","type":"address","internalType":"address"},{"name":"amount","type":"uint256","internalType":"uint256"}],"outputs":[],"stateMutability":"nonpayable"},{"type":"function","name":"deposit_erc20","inputs":[{"name":"tokenAddress","type":"address","internalType":"address"},{"name":"amount","type":"uint256","internalType":"uint256"},{"name":"ferryTip","type":"uint256","internalType":"uint256"}],"outputs":[],"stateMutability":"nonpayable"},{"type":"function","name":"deposit_erc20","inputs":[{"name":"tokenAddress","type":"address","internalType":"address"},{"name":"amount","type":"uint256","internalType":"uint256"}],"outputs":[],"stateMutability":"nonpayable"},{"type":"function","name":"deposit_native","inputs":[],"outputs":[],"stateMutability":"payable"},{"type":"function","name":"deposit_native","inputs":[{"name":"ferryTip","type":"uint256","internalType":"uint256"}],"outputs":[],"stateMutability":"payable"},{"type":"function","name":"deposits","inputs":[{"name":"","type":"uint256","internalType":"uint256"}],"outputs":[{"name":"requestId","type":"tuple","internalType":"struct IRolldownPrimitives.RequestId","components":[{"name":"origin","type":"uint8","internalType":"enum IRolldownPrimitives.Origin"},{"name":"id","type":"uint256","internalType":"uint256"}]},{"name":"depositRecipient","type":"address","internalType":"address"},{"name":"tokenAddress","type":"address","internalType":"address"},{"name":"amount","type":"uint256","internalType":"uint256"},{"name":"timeStamp","type":"uint256","internalType":"uint256"},{"name":"ferryTip","type":"uint256","internalType":"uint256"}],"stateMutability":"view"},{"type":"function","name":"ferry_withdrawal","inputs":[{"name":"withdrawal","type":"tuple","internalType":"struct IRolldownPrimitives.Withdrawal","components":[{"name":"requestId","type":"tuple","internalType":"struct IRolldownPrimitives.RequestId","components":[{"name":"origin","type":"uint8","internalType":"enum IRolldownPrimitives.Origin"},{"name":"id","type":"uint256","internalType":"uint256"}]},{"name":"recipient","type":"address","internalType":"address"},{"name":"tokenAddress","type":"address","internalType":"address"},{"name":"amount","type":"uint256","internalType":"uint256"},{"name":"ferryTip","type":"uint256","internalType":"uint256"}]}],"outputs":[],"stateMutability":"payable"},{"type":"function","name":"find_l2_batch","inputs":[{"name":"requestId","type":"uint256","internalType":"uint256"}],"outputs":[{"name":"","type":"bytes32","internalType":"bytes32"}],"stateMutability":"view"},{"type":"function","name":"getMerkleRootsLength","inputs":[],"outputs":[{"name":"","type":"uint256","internalType":"uint256"}],"stateMutability":"view"},{"type":"function","name":"getPendingRequests","inputs":[{"name":"start","type":"uint256","internalType":"uint256"},{"name":"end","type":"uint256","internalType":"uint256"}],"outputs":[{"name":"","type":"tuple","internalType":"struct IRolldownPrimitives.L1Update","components":[{"name":"chain","type":"uint8","internalType":"enum IRolldownPrimitives.ChainId"},{"name":"pendingDeposits","type":"tuple[]","internalType":"struct IRolldownPrimitives.Deposit[]","components":[{"name":"requestId","type":"tuple","internalType":"struct IRolldownPrimitives.RequestId","components":[{"name":"origin","type":"uint8","internalType":"enum IRolldownPrimitives.Origin"},{"name":"id","type":"uint256","internalType":"uint256"}]},{"name":"depositRecipient","type":"address","internalType":"address"},{"name":"tokenAddress","type":"address","internalType":"address"},{"name":"amount","type":"uint256","internalType":"uint256"},{"name":"timeStamp","type":"uint256","internalType":"uint256"},{"name":"ferryTip","type":"uint256","internalType":"uint256"}]},{"name":"pendingCancelResolutions","type":"tuple[]","internalType":"struct IRolldownPrimitives.CancelResolution[]","components":[{"name":"requestId","type":"tuple","internalType":"struct IRolldownPrimitives.RequestId","components":[{"name":"origin","type":"uint8","internalType":"enum IRolldownPrimitives.Origin"},{"name":"id","type":"uint256","internalType":"uint256"}]},{"name":"l2RequestId","type":"uint256","internalType":"uint256"},{"name":"cancelJustified","type":"bool","internalType":"bool"},{"name":"timeStamp","type":"uint256","internalType":"uint256"}]}]}],"stateMutability":"view"},{"type":"function","name":"getUpdateForL2","inputs":[],"outputs":[{"name":"","type":"tuple","internalType":"struct IRolldownPrimitives.L1Update","components":[{"name":"chain","type":"uint8","internalType":"enum IRolldownPrimitives.ChainId"},{"name":"pendingDeposits","type":"tuple[]","internalType":"struct IRolldownPrimitives.Deposit[]","components":[{"name":"requestId","type":"tuple","internalType":"struct IRolldownPrimitives.RequestId","components":[{"name":"origin","type":"uint8","internalType":"enum IRolldownPrimitives.Origin"},{"name":"id","type":"uint256","internalType":"uint256"}]},{"name":"depositRecipient","type":"address","internalType":"address"},{"name":"tokenAddress","type":"address","internalType":"address"},{"name":"amount","type":"uint256","internalType":"uint256"},{"name":"timeStamp","type":"uint256","internalType":"uint256"},{"name":"ferryTip","type":"uint256","internalType":"uint256"}]},{"name":"pendingCancelResolutions","type":"tuple[]","internalType":"struct IRolldownPrimitives.CancelResolution[]","components":[{"name":"requestId","type":"tuple","internalType":"struct IRolldownPrimitives.RequestId","components":[{"name":"origin","type":"uint8","internalType":"enum IRolldownPrimitives.Origin"},{"name":"id","type":"uint256","internalType":"uint256"}]},{"name":"l2RequestId","type":"uint256","internalType":"uint256"},{"name":"cancelJustified","type":"bool","internalType":"bool"},{"name":"timeStamp","type":"uint256","internalType":"uint256"}]}]}],"stateMutability":"view"},{"type":"function","name":"hashCancel","inputs":[{"name":"cancel","type":"tuple","internalType":"struct IRolldownPrimitives.Cancel","components":[{"name":"requestId","type":"tuple","internalType":"struct IRolldownPrimitives.RequestId","components":[{"name":"origin","type":"uint8","internalType":"enum IRolldownPrimitives.Origin"},{"name":"id","type":"uint256","internalType":"uint256"}]},{"name":"range","type":"tuple","internalType":"struct IRolldownPrimitives.Range","components":[{"name":"start","type":"uint256","internalType":"uint256"},{"name":"end","type":"uint256","internalType":"uint256"}]},{"name":"hash","type":"bytes32","internalType":"bytes32"}]}],"outputs":[{"name":"","type":"bytes32","internalType":"bytes32"}],"stateMutability":"pure"},{"type":"function","name":"hashFailedDepositResolution","inputs":[{"name":"failedDeposit","type":"tuple","internalType":"struct IRolldownPrimitives.FailedDepositResolution","components":[{"name":"requestId","type":"tuple","internalType":"struct IRolldownPrimitives.RequestId","components":[{"name":"origin","type":"uint8","internalType":"enum IRolldownPrimitives.Origin"},{"name":"id","type":"uint256","internalType":"uint256"}]},{"name":"originRequestId","type":"uint256","internalType":"uint256"},{"name":"ferry","type":"address","internalType":"address"}]}],"outputs":[{"name":"","type":"bytes32","internalType":"bytes32"}],"stateMutability":"pure"},{"type":"function","name":"hashWithdrawal","inputs":[{"name":"withdrawal","type":"tuple","internalType":"struct IRolldownPrimitives.Withdrawal","components":[{"name":"requestId","type":"tuple","internalType":"struct IRolldownPrimitives.RequestId","components":[{"name":"origin","type":"uint8","internalType":"enum IRolldownPrimitives.Origin"},{"name":"id","type":"uint256","internalType":"uint256"}]},{"name":"recipient","type":"address","internalType":"address"},{"name":"tokenAddress","type":"address","internalType":"address"},{"name":"amount","type":"uint256","internalType":"uint256"},{"name":"ferryTip","type":"uint256","internalType":"uint256"}]}],"outputs":[{"name":"","type":"bytes32","internalType":"bytes32"}],"stateMutability":"pure"},{"type":"function","name":"initialize","inputs":[{"name":"_pauserRegistry","type":"address","internalType":"contract IPauserRegistry"},{"name":"initialOwner","type":"address","internalType":"address"},{"name":"chainId","type":"uint8","internalType":"enum IRolldownPrimitives.ChainId"},{"name":"updater","type":"address","internalType":"address"}],"outputs":[],"stateMutability":"nonpayable"},{"type":"function","name":"lastProcessedUpdate_origin_l1","inputs":[],"outputs":[{"name":"","type":"uint256","internalType":"uint256"}],"stateMutability":"view"},{"type":"function","name":"lastProcessedUpdate_origin_l2","inputs":[],"outputs":[{"name":"","type":"uint256","internalType":"uint256"}],"stateMutability":"view"},{"type":"function","name":"merkleRootRange","inputs":[{"name":"","type":"bytes32","internalType":"bytes32"}],"outputs":[{"name":"start","type":"uint256","internalType":"uint256"},{"name":"end","type":"uint256","internalType":"uint256"}],"stateMutability":"view"},{"type":"function","name":"owner","inputs":[],"outputs":[{"name":"","type":"address","internalType":"address"}],"stateMutability":"view"},{"type":"function","name":"pause","inputs":[{"name":"newPausedStatus","type":"uint256","internalType":"uint256"}],"outputs":[],"stateMutability":"nonpayable"},{"type":"function","name":"pauseAll","inputs":[],"outputs":[],"stateMutability":"nonpayable"},{"type":"function","name":"paused","inputs":[{"name":"index","type":"uint8","internalType":"uint8"}],"outputs":[{"name":"","type":"bool","internalType":"bool"}],"stateMutability":"view"},{"type":"function","name":"paused","inputs":[],"outputs":[{"name":"","type":"uint256","internalType":"uint256"}],"stateMutability":"view"},{"type":"function","name":"pauserRegistry","inputs":[],"outputs":[{"name":"","type":"address","internalType":"contract IPauserRegistry"}],"stateMutability":"view"},{"type":"function","name":"processedL2Requests","inputs":[{"name":"","type":"bytes32","internalType":"bytes32"}],"outputs":[{"name":"","type":"address","internalType":"address"}],"stateMutability":"view"},{"type":"function","name":"renounceOwnership","inputs":[],"outputs":[],"stateMutability":"nonpayable"},{"type":"function","name":"roots","inputs":[{"name":"","type":"uint256","internalType":"uint256"}],"outputs":[{"name":"","type":"bytes32","internalType":"bytes32"}],"stateMutability":"view"},{"type":"function","name":"setPauserRegistry","inputs":[{"name":"newPauserRegistry","type":"address","internalType":"contract IPauserRegistry"}],"outputs":[],"stateMutability":"nonpayable"},{"type":"function","name":"setUpdater","inputs":[{"name":"updater","type":"address","internalType":"address"}],"outputs":[],"stateMutability":"nonpayable"},{"type":"function","name":"transferOwnership","inputs":[{"name":"newOwner","type":"address","internalType":"address"}],"outputs":[],"stateMutability":"nonpayable"},{"type":"function","name":"unpause","inputs":[{"name":"newPausedStatus","type":"uint256","internalType":"uint256"}],"outputs":[],"stateMutability":"nonpayable"},{"type":"function","name":"update_l1_from_l2","inputs":[{"name":"merkle_root","type":"bytes32","internalType":"bytes32"},{"name":"range","type":"tuple","internalType":"struct IRolldownPrimitives.Range","components":[{"name":"start","type":"uint256","internalType":"uint256"},{"name":"end","type":"uint256","internalType":"uint256"}]}],"outputs":[],"stateMutability":"nonpayable"},{"type":"function","name":"updaterAccount","inputs":[],"outputs":[{"name":"","type":"address","internalType":"address"}],"stateMutability":"view"},{"type":"event","name":"DepositAcceptedIntoQueue","inputs":[{"name":"requestId","type":"uint256","indexed":false,"internalType":"uint256"},{"name":"depositRecipient","type":"address","indexed":false,"internalType":"address"},{"name":"tokenAddress","type":"address","indexed":false,"internalType":"address"},{"name":"amount","type":"uint256","indexed":false,"internalType":"uint256"},{"name":"ferryTip","type":"uint256","indexed":false,"internalType":"uint256"}],"anonymous":false},{"type":"event","name":"DisputeResolutionAcceptedIntoQueue","inputs":[{"name":"requestId","type":"uint256","indexed":false,"internalType":"uint256"},{"name":"cancelJustified","type":"bool","indexed":false,"internalType":"bool"}],"anonymous":false},{"type":"event","name":"ERC20TokensWithdrawn","inputs":[{"name":"sender","type":"address","indexed":false,"internalType":"address"},{"name":"token_address","type":"address","indexed":false,"internalType":"address"},{"name":"amount","type":"uint256","indexed":false,"internalType":"uint256"}],"anonymous":false},{"type":"event","name":"FailedDepositResolutionClosed","inputs":[{"name":"requestId","type":"uint256","indexed":false,"internalType":"uint256"},{"name":"originDepositId","type":"uint256","indexed":false,"internalType":"uint256"},{"name":"failedDespotiResolutionHash","type":"bytes32","indexed":false,"internalType":"bytes32"}],"anonymous":false},{"type":"event","name":"FerriedWithdrawalClosed","inputs":[{"name":"requestId","type":"uint256","indexed":false,"internalType":"uint256"},{"name":"withdrawalHash","type":"bytes32","indexed":false,"internalType":"bytes32"}],"anonymous":false},{"type":"event","name":"Initialized","inputs":[{"name":"version","type":"uint8","indexed":false,"internalType":"uint8"}],"anonymous":false},{"type":"event","name":"L2UpdateAccepted","inputs":[{"name":"root","type":"bytes32","indexed":false,"internalType":"bytes32"},{"name":"range","type":"tuple","indexed":false,"internalType":"struct IRolldownPrimitives.Range","components":[{"name":"start","type":"uint256","internalType":"uint256"},{"name":"end","type":"uint256","internalType":"uint256"}]}],"anonymous":false},{"type":"event","name":"NativeTokensWithdrawn","inputs":[{"name":"sender","type":"address","indexed":false,"internalType":"address"},{"name":"amount","type":"uint256","indexed":false,"internalType":"uint256"}],"anonymous":false},{"type":"event","name":"NewUpdaterSet","inputs":[{"name":"updater","type":"address","indexed":false,"internalType":"address"}],"anonymous":false},{"type":"event","name":"OwnershipTransferred","inputs":[{"name":"previousOwner","type":"address","indexed":true,"internalType":"address"},{"name":"newOwner","type":"address","indexed":true,"internalType":"address"}],"anonymous":false},{"type":"event","name":"Paused","inputs":[{"name":"account","type":"address","indexed":true,"internalType":"address"},{"name":"newPausedStatus","type":"uint256","indexed":false,"internalType":"uint256"}],"anonymous":false},{"type":"event","name":"PauserRegistrySet","inputs":[{"name":"pauserRegistry","type":"address","indexed":false,"internalType":"contract IPauserRegistry"},{"name":"newPauserRegistry","type":"address","indexed":false,"internalType":"contract IPauserRegistry"}],"anonymous":false},{"type":"event","name":"Unpaused","inputs":[{"name":"account","type":"address","indexed":true,"internalType":"address"},{"name":"newPausedStatus","type":"uint256","indexed":false,"internalType":"uint256"}],"anonymous":false},{"type":"event","name":"WithdrawalClosed","inputs":[{"name":"requestId","type":"uint256","indexed":false,"internalType":"uint256"},{"name":"withdrawalHash","type":"bytes32","indexed":false,"internalType":"bytes32"}],"anonymous":false},{"type":"event","name":"WithdrawalFerried","inputs":[{"name":"requestId","type":"uint256","indexed":false,"internalType":"uint256"},{"name":"amount","type":"uint256","indexed":false,"internalType":"uint256"},{"name":"recipient","type":"address","indexed":false,"internalType":"address"},{"name":"ferry","type":"address","indexed":false,"internalType":"address"},{"name":"withdrawalHash","type":"bytes32","indexed":false,"internalType":"bytes32"}],"anonymous":false}],"bytecode":{"object":"0x608060405234801561001057600080fd5b50600160d255613f3b806100256000396000f3fe6080604052600436106102675760003560e01c8063950ac48711610144578063d16544f0116100b6578063f26ee9d01161007a578063f26ee9d014610738578063f2fde38b1461074e578063f9ecd01e1461076e578063fabc1cbc1461078e578063ff2bae86146107ae578063ffea632b146107c357600080fd5b8063d16544f014610366578063de70e0b8146106ba578063df2ebdbb146106f0578063dffbdd9f14610705578063ef0ba5d01461071857600080fd5b8063b153870611610108578063b153870614610606578063c2b40ae41461061b578063c763e5a11461063b578063c87c222414610662578063ca9b21ae1461066a578063cc8c909f1461069a57600080fd5b8063950ac487146105545780639d54f41914610574578063ae46db1114610594578063af26c695146105b4578063b02c43d0146105d457600080fd5b8063595c6a67116101dd57806371c54461116101a157806371c544611461048e57806379e041f2146104b35780637fd4f845146104e0578063886f1195146104f6578063890e95ce146105165780638da5cb5b1461053657600080fd5b8063595c6a67146103ef5780635ac86ab7146104045780635c975abb1461044457806361bc221a14610463578063715018a61461047957600080fd5b80630efe6a8b1161022f5780630efe6a8b1461028e57806310d67a2f14610326578063136439dd1461034657806347e7ef24146103665780634bf5fec3146103865780634f48eedf146103a657600080fd5b806301ef69661461026c57806308aba1b21461028e57806308f42d40146102ae5780630cac57ab146102ce5780630e2636a3146102e1575b600080fd5b34801561027857600080fd5b5061028c610287366004613425565b6107e3565b005b34801561029a57600080fd5b5061028c6102a9366004613495565b610897565b3480156102ba57600080fd5b5061028c6102c93660046134ca565b6108f3565b61028c6102dc366004613514565b610b46565b3480156102ed57600080fd5b5061030973111111111111111111111111111111111111111181565b6040516001600160a01b0390911681526020015b60405180910390f35b34801561033257600080fd5b5061028c610341366004613530565b610f51565b34801561035257600080fd5b5061028c61036136600461354d565b611004565b34801561037257600080fd5b5061028c610381366004613566565b611143565b34801561039257600080fd5b5061028c6103a1366004613592565b61119f565b3480156103b257600080fd5b506103da6103c136600461354d565b609d602052600090815260409020805460019091015482565b6040805192835260208301919091520161031d565b3480156103fb57600080fd5b5061028c61143f565b34801561041057600080fd5b5061043461041f3660046135d6565b606654600160ff9092169190911b9081161490565b604051901515815260200161031d565b34801561045057600080fd5b506066545b60405190815260200161031d565b34801561046f57600080fd5b5061045560975481565b34801561048557600080fd5b5061028c611506565b34801561049a57600080fd5b50609a546103099061010090046001600160a01b031681565b3480156104bf57600080fd5b506104d36104ce3660046135f9565b61151a565b60405161031d91906136c1565b3480156104ec57600080fd5b5061045560985481565b34801561050257600080fd5b50606554610309906001600160a01b031681565b34801561052257600080fd5b50610455610531366004613514565b611934565b34801561054257600080fd5b506033546001600160a01b0316610309565b34801561056057600080fd5b5061028c61056f366004613796565b6119a2565b34801561058057600080fd5b5061028c61058f366004613530565b611a39565b3480156105a057600080fd5b506104556105af3660046137d9565b611ac0565b3480156105c057600080fd5b506104556105cf36600461380e565b611af4565b3480156105e057600080fd5b506105f46105ef36600461354d565b611b45565b60405161031d9695949392919061387d565b34801561061257600080fd5b506104d3611bcc565b34801561062757600080fd5b5061045561063636600461354d565b611c17565b34801561064757600080fd5b50609a546106559060ff1681565b60405161031d91906138bf565b61028c611c38565b34801561067657600080fd5b5061068a61068536600461354d565b611c90565b60405161031d94939291906138d2565b3480156106a657600080fd5b506104556106b53660046138fb565b611d02565b3480156106c657600080fd5b506103096106d536600461354d565b609e602052600090815260409020546001600160a01b031681565b3480156106fc57600080fd5b50610309600181565b61028c61071336600461354d565b611d36565b34801561072457600080fd5b50610455610733366004613917565b611d8e565b34801561074457600080fd5b5061045560995481565b34801561075a57600080fd5b5061028c610769366004613530565b611ec7565b34801561077a57600080fd5b5061045561078936600461354d565b611f3d565b34801561079a57600080fd5b5061028c6107a936600461354d565b612060565b3480156107ba57600080fd5b50609f54610455565b3480156107cf57600080fd5b5061028c6107de3660046139b4565b6121bc565b6066541561080c5760405162461bcd60e51b815260040161080390613a10565b60405180910390fd5b600260d2540361082e5760405162461bcd60e51b815260040161080390613a47565b600260d255600061083e85611d02565b9050610851602086013582868686612335565b61085a856124aa565b6000908152609e6020526040902080546001600160a01b0319167311111111111111111111111111111111111111111790555050600160d2555050565b606654156108b75760405162461bcd60e51b815260040161080390613a10565b600260d254036108d95760405162461bcd60e51b815260040161080390613a47565b600260d2556108e9838383612637565b5050600160d25550565b606654156109135760405162461bcd60e51b815260040161080390613a10565b609a5461010090046001600160a01b031633146109625760405162461bcd60e51b815260206004820152600d60248201526c2737ba103a34329037bbb732b960991b6044820152606401610803565b6099548160200135116109b75760405162461bcd60e51b815260206004820152601960248201527f557064617465206272696e6773206e6f206e65772064617461000000000000006044820152606401610803565b8035610a055760405162461bcd60e51b815260206004820152601f60248201527f72616e6765206964206d7573742062652067726561746572207468616e2030006044820152606401610803565b609954610a1460018335613a94565b1115610a625760405162461bcd60e51b815260206004820152601760248201527f50726576696f757320757064617465206d697373696e670000000000000000006044820152606401610803565b803560208201351015610aa75760405162461bcd60e51b815260206004820152600d60248201526c496e76616c69642072616e676560981b6044820152606401610803565b609f8054600181019091557f0bc14066c33013fe88f66e314e4cf150b0b2d4d6451a1a51dbbd1c27cd11de28018290556000828152609d602052604090208190610afe828281358155602082013560018201555050565b505060208101356099556040517f49c158d490db9e066f01b5d4f1a094485a6598cb6c5296b4c07e46c12a1dc11c90610b3a9084908490613aab565b60405180910390a15050565b60665415610b665760405162461bcd60e51b815260040161080390613a10565b600260d25403610b885760405162461bcd60e51b815260040161080390613a47565b600260d255608081013560a08201351115610bb55760405162461bcd60e51b815260040161080390613ac9565b6000610bc960a08301356080840135613a94565b90506000610bd683611934565b6000818152609e60205260409020549091506001600160a01b031615610c305760405162461bcd60e51b815260206004820152600f60248201526e105b1c9958591e4819995c9c9a5959608a1b6044820152606401610803565b6000818152609e6020526040902080546001600160a01b031916331790556001610c606080850160608601613530565b6001600160a01b031603610df55760003411610cb65760405162461bcd60e51b815260206004820152601560248201527413985d1a5d99481d1bdad95b881b9bdd081cd95b9d605a1b6044820152606401610803565b813414610d3c5760405162461bcd60e51b815260206004820152604860248201527f53656e7420616d6f756e742073686f756c642065786163746c79206d6174636860448201527f207769746864726177616c2e616d6f756e74202d207769746864726177616c2e606482015267066657272795469760c41b608482015260a401610803565b610d4c6060840160408501613530565b6001600160a01b03166108fc839081150290604051600060405180830381858888f19350505050158015610d84573d6000803e3d6000fd5b507f7a9abd9eb86bdbca89cba4069a632c37d93db82e3e14ad8119a3a7812814853e602084013583610dbc6060870160408801613530565b6040805193845260208401929092526001600160a01b0316908201523360608201526080810183905260a00160405180910390a16108e9565b6000610e076080850160608601613530565b6040516370a0823160e01b815233600482015290915083906001600160a01b038316906370a0823190602401602060405180830381865afa158015610e50573d6000803e3d6000fd5b505050506040513d601f19601f82011682018060405250810190610e749190613b00565b1015610eb55760405162461bcd60e51b815260206004820152601060248201526f4e6f7420656e6f7567682066756e647360801b6044820152606401610803565b610edb33610ec96060870160408801613530565b6001600160a01b03841691908661284d565b7f7a9abd9eb86bdbca89cba4069a632c37d93db82e3e14ad8119a3a7812814853e602085013584610f126060880160408901613530565b6040805193845260208401929092526001600160a01b0316908201523360608201526080810184905260a00160405180910390a1505050600160d25550565b606560009054906101000a90046001600160a01b03166001600160a01b031663eab66d7a6040518163ffffffff1660e01b8152600401602060405180830381865afa158015610fa4573d6000803e3d6000fd5b505050506040513d601f19601f82011682018060405250810190610fc89190613b19565b6001600160a01b0316336001600160a01b031614610ff85760405162461bcd60e51b815260040161080390613b36565b611001816128be565b50565b60655460405163237dfb4760e11b81523360048201526001600160a01b03909116906346fbf68e90602401602060405180830381865afa15801561104c573d6000803e3d6000fd5b505050506040513d601f19601f820116820180604052508101906110709190613b80565b61108c5760405162461bcd60e51b815260040161080390613ba2565b606654818116146111055760405162461bcd60e51b815260206004820152603860248201527f5061757361626c652e70617573653a20696e76616c696420617474656d70742060448201527f746f20756e70617573652066756e6374696f6e616c69747900000000000000006064820152608401610803565b606681905560405181815233907fab40a374bc51de372200a8bc981af8c9ecdc08dfdaef0bb6e09f88f3c616ef3d906020015b60405180910390a250565b606654156111635760405162461bcd60e51b815260040161080390613a10565b600260d254036111855760405162461bcd60e51b815260040161080390613a47565b600260d25561119682826000612637565b5050600160d255565b606654156111bf5760405162461bcd60e51b815260040161080390613a10565b600260d254036111e15760405162461bcd60e51b815260040161080390613a47565b600260d25560006111f185611934565b9050611204602086013582868686612335565b6000818152609e6020526040902080546001600160a01b03198116731111111111111111111111111111111111111111179091556001600160a01b03168015158061137b57600161125b6080890160608a01613530565b6001600160a01b0316036112b05761129361127c6060890160408a01613530565b61128e60a08a013560808b0135613a94565b6129b5565b60a0870135156112ab576112ab338860a001356129b5565b611312565b6112ea6112c36060890160408a01613530565b6112d360808a0160608b01613530565b6112e560a08b013560808c0135613a94565b612a76565b60a087013515611312576113123361130860808a0160608b01613530565b8960a00135612a76565b7f935f26d94be31907080aa78b3e6e2ac6d48a072af096c20268388621bbc1178987600001602001358860405160200161134c9190613c0b565b60408051601f1981840301815282825280516020918201209383528201929092520160405180910390a1611431565b600161138d6080890160608a01613530565b6001600160a01b0316036113ae576113a98288608001356129b5565b6113cc565b6113cc826113c260808a0160608b01613530565b8960800135612a76565b7f2996fd546c37d74c170466ea6aa4a308e3ca2d4aa689e6e9e32994db5039cc0e8760000160200135886040516020016114069190613c0b565b60408051601f1981840301815282825280516020918201209383528201929092520160405180910390a15b5050600160d2555050505050565b60655460405163237dfb4760e11b81523360048201526001600160a01b03909116906346fbf68e90602401602060405180830381865afa158015611487573d6000803e3d6000fd5b505050506040513d601f19601f820116820180604052508101906114ab9190613b80565b6114c75760405162461bcd60e51b815260040161080390613ba2565b600019606681905560405190815233907fab40a374bc51de372200a8bc981af8c9ecdc08dfdaef0bb6e09f88f3c616ef3d9060200160405180910390a2565b61150e612bab565b6115186000612c05565b565b61153f6040805160608101909152806000815260200160608152602001606081525090565b6115646040805160608101909152806000815260200160608152602001606081525090565b609a54819060ff16600181111561157d5761157d61361b565b908160018111156115905761159061361b565b905250600080851580156115a2575084155b156115b25782935050505061192e565b855b858111611657576000818152609c6020526040902060010154156115e457826115dc81613c67565b935050611645565b6000818152609b60205260409020600101541561160d578161160581613c67565b925050611645565b60405162461bcd60e51b815260206004820152600d60248201526c496e76616c69642072616e676560981b6044820152606401610803565b8061164f81613c67565b9150506115b4565b508167ffffffffffffffff81111561167157611671613c80565b6040519080825280602002602001820160405280156116df57816020015b6040805161010081018252600060c0820181815260e0830182905282526020808301829052928201819052606082018190526080820181905260a0820152825260001990920191018161168f5790505b5060208401528067ffffffffffffffff8111156116fe576116fe613c80565b60405190808252806020026020018201604052801561175d57816020015b6040805160c08101825260006080820181815260a08301829052825260208083018290529282018190526060820152825260001990920191018161171c5790505b506040840152506000905080855b858111611927576000818152609c602052604090206001015415611855576000818152609c602052604090819020815161010081019092528054829060c08201908390829060ff1660018111156117c4576117c461361b565b60018111156117d5576117d561361b565b81526001919091015460209182015290825260028301546001600160a01b03908116838301526003840154166040830152600483015460608301526005830154608083015260069092015460a0909101528501518461183381613c67565b95508151811061184557611845613c96565b6020026020010181905250611915565b6000818152609b602052604090206002015415611910576000818152609b602052604090819020815160c081019092528054829060808201908390829060ff1660018111156118a6576118a661361b565b60018111156118b7576118b761361b565b815260019190910154602091820152908252600283015490820152600382015460ff161515604080830191909152600490920154606090910152850151836118fe81613c67565b94508151811061184557611845613c96565b611927565b8061191f81613c67565b91505061176b565b5091925050505b92915050565b6000806040516020016119479190613cac565b604051602081830303815290604052826040516020016119679190613c0b565b60408051601f19818403018152908290526119859291602001613cec565b604051602081830303815290604052805190602001209050919050565b606654156119c25760405162461bcd60e51b815260040161080390613a10565b600260d254036119e45760405162461bcd60e51b815260040161080390613a47565b600260d25560006119f485611ac0565b9050611a30856000016020013586604051602001611a129190613d1b565b60405160208183030381529060405280519060200120868686612335565b61085a85612c57565b611a41612bab565b60665415611a615760405162461bcd60e51b815260040161080390613a10565b609a8054610100600160a81b0319166101006001600160a01b038481168202929092179283905560405192041681527f1b0f2f500df596b42b73e80dbec6a1fb570f01978a586723f988a5fc54d773a19060200160405180910390a150565b60006002604051602001611ad49190613cac565b604051602081830303815290604052826040516020016119679190613d1b565b600080825b63ffffffff811615611b2457611b10600282613d6f565b9050611b1d600183613d92565b9150611af9565b611b3982888a8989600061073360018c613db1565b98975050505050505050565b609c6020526000908152604090819020815180830190925280549091908290829060ff166001811115611b7a57611b7a61361b565b6001811115611b8b57611b8b61361b565b815260019190910154602090910152600282015460038301546004840154600585015460069095015493946001600160a01b03938416949290931692909186565b611bf16040805160608101909152806000815260200160608152602001606081525090565b611c126098546001611c039190613dd6565b60016097546104ce9190613a94565b905090565b609f8181548110611c2757600080fd5b600091825260209091200154905081565b600260d25403611c5a5760405162461bcd60e51b815260040161080390613a47565b600260d25560665415611c7f5760405162461bcd60e51b815260040161080390613a10565b611c896000612d6f565b600160d255565b609b6020526000908152604090819020815180830190925280549091908290829060ff166001811115611cc557611cc561361b565b6001811115611cd657611cd661361b565b815260019190910154602090910152600282015460038301546004909301549192909160ff9091169084565b60006001604051602001611d169190613cac565b604051602081830303815290604052826040516020016119679190613dee565b600260d25403611d585760405162461bcd60e51b815260040161080390613a47565b600260d25560665415611d7d5760405162461bcd60e51b815260040161080390613a10565b611d8681612d6f565b50600160d255565b6000611d9b600288613e24565b63ffffffff16600003611e1e578163ffffffff168763ffffffff160315611e7c5785858585611dc981613e47565b965063ffffffff16818110611de057611de0613c96565b90506020020135604051602001611e01929190918252602082015260400190565b604051602081830303815290604052805190602001209550611e7c565b848484611e2a81613e47565b955063ffffffff16818110611e4157611e41613c96565b9050602002013586604051602001611e63929190918252602082015260400190565b6040516020818303038152906040528051906020012095505b8763ffffffff16600103611e91575084611ebc565b611eb9611e9f60018a613db1565b611eaa60028a613d6f565b8888888861073360028a613d6f565b90505b979650505050505050565b611ecf612bab565b6001600160a01b038116611f345760405162461bcd60e51b815260206004820152602660248201527f4f776e61626c653a206e6577206f776e657220697320746865207a65726f206160448201526564647265737360d01b6064820152608401610803565b61100181612c05565b6000609954821115611f865760405162461bcd60e51b8152602060048201526012602482015271125b9d985b1a59081c995c5d595cdd081a5960721b6044820152606401610803565b609f54600003611f9857506000919050565b609f54600090611faa90600190613a94565b90505b609d6000609f8381548110611fc457611fc4613c96565b906000526020600020015481526020019081526020016000206000015483101580156120235750609d6000609f838154811061200257612002613c96565b90600052602060002001548152602001908152602001600020600101548311155b1561204e57609f818154811061203b5761203b613c96565b9060005260206000200154915050919050565b8061205881613e6a565b915050611fad565b606560009054906101000a90046001600160a01b03166001600160a01b031663eab66d7a6040518163ffffffff1660e01b8152600401602060405180830381865afa1580156120b3573d6000803e3d6000fd5b505050506040513d601f19601f820116820180604052508101906120d79190613b19565b6001600160a01b0316336001600160a01b0316146121075760405162461bcd60e51b815260040161080390613b36565b6066541981196066541916146121855760405162461bcd60e51b815260206004820152603860248201527f5061757361626c652e756e70617573653a20696e76616c696420617474656d7060448201527f7420746f2070617573652066756e6374696f6e616c69747900000000000000006064820152608401610803565b606681905560405181815233907f3582d1828e26bf56bd801502bc021ac0bc8afb57c826e4986b45593c8fad389c90602001611138565b600054610100900460ff16158080156121dc5750600054600160ff909116105b806121f65750303b1580156121f6575060005460ff166001145b6122595760405162461bcd60e51b815260206004820152602e60248201527f496e697469616c697a61626c653a20636f6e747261637420697320616c72656160448201526d191e481a5b9a5d1a585b1a5e995960921b6064820152608401610803565b6000805460ff19166001179055801561227c576000805461ff0019166101001790555b612287856000612f48565b61229084612c05565b6000609881905560016097819055609991909155609a8054859260ff199091169083818111156122c2576122c261361b565b0217905550609a8054610100600160a81b0319166101006001600160a01b03851602179055801561232e576000805461ff0019169055604051600181527f7f26b83ff96e1f2b6a682f133852f6798a09c465da95921460cefb3847402498906020015b60405180910390a15b5050505050565b6000838152609d60209081526040918290208251808401909352805480845260019091015491830191909152158015906123725750602081015115155b6123b45760405162461bcd60e51b8152602060048201526013602482015272155b9adb9bdddb881b595c9adb19481c9bdbdd606a1b6044820152606401610803565b6000858152609e60205260409020546001600160a01b031673111111111111111111111111111111111111111019016124235760405162461bcd60e51b8152602060048201526011602482015270105b1c9958591e481c1c9bd8d95cdcd959607a1b6044820152606401610803565b8051602082015160009161243691613a94565b612441906001613dd6565b82519091506000906124539089613a94565b9050856124638883888887611af4565b146124a05760405162461bcd60e51b815260206004820152600d60248201526c24b73b30b634b210383937b7b360991b6044820152606401610803565b5050505050505050565b600060016097546124bb9190613a94565b606083013511156124ce5750600161251b565b60006124e26040840135606085013561151a565b90506000816040516020016124f791906136c1565b60408051601f19818403018152919052805160209091012060808501351415925050505b6040805160c0810190915242906000908060808101808481526020016097600081548092919061254a90613c67565b909155509052815260208681013581830152851515604080840191909152606090920185905282518101516000908152609b909152208151805182549394508493839190829060ff1916600183818111156125a7576125a761361b565b021790555060209182015160019091015582810151600283015560408084015160038401805491151560ff199092169190911790556060909301516004909201919091558201518282015191517fd16f202ac5905ff5d1851f4805ffe56d1212db32fa989881d0044b9cf0f72776926126299282521515602082015260400190565b60405180910390a150505050565b818111156126575760405162461bcd60e51b815260040161080390613ac9565b6001600160a01b0383166126a55760405162461bcd60e51b8152602060048201526015602482015274496e76616c696420746f6b656e206164647265737360581b6044820152606401610803565b600082116126c55760405162461bcd60e51b815260040161080390613e81565b33836126dc6001600160a01b03821683308761284d565b60408051610100810190915242906000908060c08101808481526020016097600081548092919061270c90613c67565b90915550905281526001600160a01b03808716602080840191909152908a16604080840191909152606083018a90526080830186905260a090920188905282518101516000908152609c909152208151805182549394508493839190829060ff1916600183818111156127815761278161361b565b021790555060209182015160019190910155828101516002830180546001600160a01b03199081166001600160a01b0393841617909155604080860151600386018054909316908416179091556060808601516004860155608080870151600587015560a096870151600690960195909555865184015182519081528a841694810194909452918c169083015281018990529081018790527f225305ecb66fa9b9b29f8dead9baea365a6c225d639dfd866e782ccb63e2f05b910160405180910390a150505050505050565b6040516001600160a01b03808516602483015283166044820152606481018290526128b89085906323b872dd60e01b906084015b60408051601f198184030181529190526020810180516001600160e01b03166001600160e01b03199093169290921790915261302e565b50505050565b6001600160a01b03811661294c5760405162461bcd60e51b815260206004820152604960248201527f5061757361626c652e5f73657450617573657252656769737472793a206e657760448201527f50617573657252656769737472792063616e6e6f7420626520746865207a65726064820152686f206164647265737360b81b608482015260a401610803565b606554604080516001600160a01b03928316815291831660208301527f6e9fcd539896fca60e8b0f01dd580233e48a6b0f7df013b89ba7f565869acdb6910160405180910390a1606580546001600160a01b0319166001600160a01b0392909216919091179055565b3031811115612a065760405162461bcd60e51b815260206004820152601c60248201527f4e6f7420656e6f7567682066756e647320696e20636f6e7472616374000000006044820152606401610803565b60008111612a265760405162461bcd60e51b815260040161080390613e81565b604080516001600160a01b0384168152602081018390527fe0495355c1e04c512584521854d222d239a4b782b39ac8a7e835a34f5ec7c1e1910160405180910390a1612a728282613105565b5050565b6040516370a0823160e01b8152306004820152829082906001600160a01b038316906370a0823190602401602060405180830381865afa158015612abe573d6000803e3d6000fd5b505050506040513d601f19601f82011682018060405250810190612ae29190613b00565b1015612b305760405162461bcd60e51b815260206004820152601c60248201527f4e6f7420656e6f7567682066756e647320696e20636f6e7472616374000000006044820152606401610803565b60008211612b505760405162461bcd60e51b815260040161080390613e81565b612b646001600160a01b038216858461321e565b604080516001600160a01b038087168252851660208201529081018390527ee763f7778b8ceef7270c89b7d1df1008b0e482da39c43831417733af96fb0d90606001612629565b6033546001600160a01b031633146115185760405162461bcd60e51b815260206004820181905260248201527f4f776e61626c653a2063616c6c6572206973206e6f7420746865206f776e65726044820152606401610803565b603380546001600160a01b038381166001600160a01b0319831681179093556040519116919082907f8be0079c531659141344cd1fd0a4f28419497f9722a3daafe3b4186f6b6457e090600090a35050565b6040808201356000908152609c602052908120600281015490916001600160a01b0390911690612c8d6080850160608601613530565b6001600160a01b031614612cae57612cab6080840160608501613530565b90505b60038201546001600160a01b031660001901612cd757612cd28183600401546129b5565b612cf8565b60038201546004830154612cf89183916001600160a01b0390911690612a76565b7f13750c731f87c15242874ce74bf4649502cc8e7c829067ce846505acdb96289d8360000160200135846040013585604051602001612d379190613d1b565b60408051601f1981840301815282825280516020918201209483528201929092529081019190915260600160405180910390a1505050565b34811115612d8f5760405162461bcd60e51b815260040161080390613ac9565b60003411612ddf5760405162461bcd60e51b815260206004820181905260248201527f6d73672076616c7565206d7573742062652067726561746572207468617420306044820152606401610803565b6040805161010081019091523390349042906000908060c081018084815260200160976000815480929190612e1390613c67565b90915550905281526001600160a01b03861660208083019190915260016040808401829052606084018890526080840187905260a090930189905283518201516000908152609c9092529190208251805182549495508594929391928492839160ff1916908381811115612e8957612e8961361b565b0217905550602091820151600191820155838201516002840180546001600160a01b03199081166001600160a01b0393841617909155604080870151600387018054909316908416179091556060808701516004870155608080880151600588015560a09788015160069097019690965587518501518251908152928b16948301949094528101919091529081018690529081018790527f225305ecb66fa9b9b29f8dead9baea365a6c225d639dfd866e782ccb63e2f05b9101612325565b6065546001600160a01b0316158015612f6957506001600160a01b03821615155b612feb5760405162461bcd60e51b815260206004820152604760248201527f5061757361626c652e5f696e697469616c697a655061757365723a205f696e6960448201527f7469616c697a6550617573657228292063616e206f6e6c792062652063616c6c6064820152666564206f6e636560c81b608482015260a401610803565b606681905560405181815233907fab40a374bc51de372200a8bc981af8c9ecdc08dfdaef0bb6e09f88f3c616ef3d9060200160405180910390a2612a72826128be565b6000613083826040518060400160405280602081526020017f5361666545524332303a206c6f772d6c6576656c2063616c6c206661696c6564815250856001600160a01b031661324e9092919063ffffffff16565b80519091501561310057808060200190518101906130a19190613b80565b6131005760405162461bcd60e51b815260206004820152602a60248201527f5361666545524332303a204552433230206f7065726174696f6e20646964206e6044820152691bdd081cdd58d8d9595960b21b6064820152608401610803565b505050565b804710156131555760405162461bcd60e51b815260206004820152601d60248201527f416464726573733a20696e73756666696369656e742062616c616e63650000006044820152606401610803565b6000826001600160a01b03168260405160006040518083038185875af1925050503d80600081146131a2576040519150601f19603f3d011682016040523d82523d6000602084013e6131a7565b606091505b50509050806131005760405162461bcd60e51b815260206004820152603a60248201527f416464726573733a20756e61626c6520746f2073656e642076616c75652c207260448201527f6563697069656e74206d617920686176652072657665727465640000000000006064820152608401610803565b6040516001600160a01b03831660248201526044810182905261310090849063a9059cbb60e01b90606401612881565b606061325d8484600085613267565b90505b9392505050565b6060824710156132c85760405162461bcd60e51b815260206004820152602660248201527f416464726573733a20696e73756666696369656e742062616c616e636520666f6044820152651c8818d85b1b60d21b6064820152608401610803565b6001600160a01b0385163b61331f5760405162461bcd60e51b815260206004820152601d60248201527f416464726573733a2063616c6c20746f206e6f6e2d636f6e74726163740000006044820152606401610803565b600080866001600160a01b0316858760405161333b9190613eb6565b60006040518083038185875af1925050503d8060008114613378576040519150601f19603f3d011682016040523d82523d6000602084013e61337d565b606091505b5091509150611ebc82828660608315613397575081613260565b8251156133a75782518084602001fd5b8160405162461bcd60e51b81526004016108039190613ed2565b600060a082840312156133d357600080fd5b50919050565b60008083601f8401126133eb57600080fd5b50813567ffffffffffffffff81111561340357600080fd5b6020830191508360208260051b850101111561341e57600080fd5b9250929050565b60008060008060e0858703121561343b57600080fd5b61344586866133c1565b935060a0850135925060c085013567ffffffffffffffff81111561346857600080fd5b613474878288016133d9565b95989497509550505050565b6001600160a01b038116811461100157600080fd5b6000806000606084860312156134aa57600080fd5b83356134b581613480565b95602085013595506040909401359392505050565b60008082840360608112156134de57600080fd5b833592506040601f19820112156134f457600080fd5b506020830190509250929050565b600060c082840312156133d357600080fd5b600060c0828403121561352657600080fd5b6132608383613502565b60006020828403121561354257600080fd5b813561326081613480565b60006020828403121561355f57600080fd5b5035919050565b6000806040838503121561357957600080fd5b823561358481613480565b946020939093013593505050565b60008060008061010085870312156135a957600080fd5b6135b38686613502565b935060c0850135925060e085013567ffffffffffffffff81111561346857600080fd5b6000602082840312156135e857600080fd5b813560ff8116811461326057600080fd5b6000806040838503121561360c57600080fd5b50508035926020909101359150565b634e487b7160e01b600052602160045260246000fd5b600281106110015761100161361b565b805161364c81613631565b8252602090810151910152565b600081518084526020808501945080840160005b838110156136b6578151613682888251613641565b8084015160408981019190915281015115156060808a01919091520151608088015260a0909601959082019060010161366d565b509495945050505050565b60006020808352608080840185516136d881613631565b85840152858301516060604080880182905282519384905260a093928601928489019060005b81811015613759578551613713848251613641565b808a01516001600160a01b03908116858701528582015116868501528581015189850152888101518885015287015160c08401529488019460e0909201916001016136fe565b505089820151898203601f1901848b015296506137768188613659565b9a9950505050505050505050565b6000608082840312156133d357600080fd5b60008060008060c085870312156137ac57600080fd5b6137b68686613784565b93506080850135925060a085013567ffffffffffffffff81111561346857600080fd5b6000608082840312156137eb57600080fd5b6132608383613784565b803563ffffffff8116811461380957600080fd5b919050565b60008060008060006080868803121561382657600080fd5b85359450613836602087016137f5565b9350604086013567ffffffffffffffff81111561385257600080fd5b61385e888289016133d9565b90945092506138719050606087016137f5565b90509295509295909350565b60e0810161388b8289613641565b6001600160a01b039687166040830152949095166060860152608085019290925260a084015260c090920191909152919050565b602081016138cc83613631565b91905290565b60a081016138e08287613641565b60408201949094529115156060830152608090910152919050565b600060a0828403121561390d57600080fd5b61326083836133c1565b600080600080600080600060c0888a03121561393257600080fd5b61393b886137f5565b9650613949602089016137f5565b955060408801359450606088013567ffffffffffffffff81111561396c57600080fd5b6139788a828b016133d9565b909550935061398b9050608089016137f5565b915061399960a089016137f5565b905092959891949750929550565b6002811061100157600080fd5b600080600080608085870312156139ca57600080fd5b84356139d581613480565b935060208501356139e581613480565b925060408501356139f5816139a7565b91506060850135613a0581613480565b939692955090935050565b6020808252601c908201527f5061757361626c653a20636f6e74726163742069732070617573656400000000604082015260600190565b6020808252601f908201527f5265656e7472616e637947756172643a207265656e7472616e742063616c6c00604082015260600190565b634e487b7160e01b600052601160045260246000fd5b600082821015613aa657613aa6613a7e565b500390565b82815260608101613260602083018480358252602090810135910152565b6020808252601c908201527f5469702065786365656473206465706f736974656420616d6f756e7400000000604082015260600190565b600060208284031215613b1257600080fd5b5051919050565b600060208284031215613b2b57600080fd5b815161326081613480565b6020808252602a908201527f6d73672e73656e646572206973206e6f74207065726d697373696f6e6564206160408201526939903ab73830bab9b2b960b11b606082015260800190565b600060208284031215613b9257600080fd5b8151801515811461326057600080fd5b60208082526028908201527f6d73672e73656e646572206973206e6f74207065726d697373696f6e6564206160408201526739903830bab9b2b960c11b606082015260800190565b8035613bf5816139a7565b613bfe81613631565b8252602090810135910152565b60c08101613c198284613bea565b6040830135613c2781613480565b6001600160a01b039081166040840152606084013590613c4682613480565b1660608301526080838101359083015260a092830135929091019190915290565b600060018201613c7957613c79613a7e565b5060010190565b634e487b7160e01b600052604160045260246000fd5b634e487b7160e01b600052603260045260246000fd5b60208101600383106138cc576138cc61361b565b60005b83811015613cdb578181015183820152602001613cc3565b838111156128b85750506000910152565b60008351613cfe818460208801613cc0565b835190830190613d12818360208801613cc0565b01949350505050565b60808101613d298284613bea565b604083013560408301526060830135613d4181613480565b6001600160a01b031660609290920191909152919050565b634e487b7160e01b600052601260045260246000fd5b600063ffffffff80841680613d8657613d86613d59565b92169190910492915050565b600063ffffffff808316818516808303821115613d1257613d12613a7e565b600063ffffffff83811690831681811015613dce57613dce613a7e565b039392505050565b60008219821115613de957613de9613a7e565b500190565b60a08101613dfc8284613bea565b613e16604083016040850180358252602090810135910152565b608092830135919092015290565b600063ffffffff80841680613e3b57613e3b613d59565b92169190910692915050565b600063ffffffff808316818103613e6057613e60613a7e565b6001019392505050565b600081613e7957613e79613a7e565b506000190190565b6020808252818101527f416d6f756e74206d7573742062652067726561746572207468616e207a65726f604082015260600190565b60008251613ec8818460208701613cc0565b9190910192915050565b6020815260008251806020840152613ef1816040850160208701613cc0565b601f01601f1916919091016040019291505056fea264697066735822122093fd930ceef11e74cd527e4be9cae0245837e5475c2901d10ed8d6f3526bcbdd64736f6c634300080d0033","linkReferences":{}},"methodIdentifiers":{"CLOSED()":"0e2636a3","NATIVE_TOKEN_ADDRESS()":"df2ebdbb","calculate_root(bytes32,uint32,bytes32[],uint32)":"af26c695","calculate_root_impl(uint32,uint32,bytes32,bytes32[],uint32,uint32)":"ef0ba5d0","cancelResolutions(uint256)":"ca9b21ae","chain()":"c763e5a1","close_cancel(((uint8,uint256),(uint256,uint256),bytes32),bytes32,bytes32[])":"01ef6966","close_deposit_refund(((uint8,uint256),uint256,address),bytes32,bytes32[])":"950ac487","close_withdrawal(((uint8,uint256),address,address,uint256,uint256),bytes32,bytes32[])":"4bf5fec3","counter()":"61bc221a","deposit(address,uint256)":"47e7ef24","deposit(address,uint256,uint256)":"0efe6a8b","deposit_erc20(address,uint256)":"d16544f0","deposit_erc20(address,uint256,uint256)":"08aba1b2","deposit_native()":"c87c2224","deposit_native(uint256)":"dffbdd9f","deposits(uint256)":"b02c43d0","ferry_withdrawal(((uint8,uint256),address,address,uint256,uint256))":"0cac57ab","find_l2_batch(uint256)":"f9ecd01e","getMerkleRootsLength()":"ff2bae86","getPendingRequests(uint256,uint256)":"79e041f2","getUpdateForL2()":"b1538706","hashCancel(((uint8,uint256),(uint256,uint256),bytes32))":"cc8c909f","hashFailedDepositResolution(((uint8,uint256),uint256,address))":"ae46db11","hashWithdrawal(((uint8,uint256),address,address,uint256,uint256))":"890e95ce","initialize(address,address,uint8,address)":"ffea632b","lastProcessedUpdate_origin_l1()":"7fd4f845","lastProcessedUpdate_origin_l2()":"f26ee9d0","merkleRootRange(bytes32)":"4f48eedf","owner()":"8da5cb5b","pause(uint256)":"136439dd","pauseAll()":"595c6a67","paused()":"5c975abb","paused(uint8)":"5ac86ab7","pauserRegistry()":"886f1195","processedL2Requests(bytes32)":"de70e0b8","renounceOwnership()":"715018a6","roots(uint256)":"c2b40ae4","setPauserRegistry(address)":"10d67a2f","setUpdater(address)":"9d54f419","transferOwnership(address)":"f2fde38b","unpause(uint256)":"fabc1cbc","update_l1_from_l2(bytes32,(uint256,uint256))":"08f42d40","updaterAccount()":"71c54461"},"id":76}