{
	"abi": [
		{
			"type": "function",
			"name": "CLOSED",
			"inputs": [],
			"outputs": [
				{
					"name": "",
					"type": "address",
					"internalType": "address"
				}
			],
			"stateMutability": "view"
		},
		{
			"type": "function",
			"name": "DEFAULT_ADMIN_ROLE",
			"inputs": [],
			"outputs": [
				{
					"name": "",
					"type": "bytes32",
					"internalType": "bytes32"
				}
			],
			"stateMutability": "view"
		},
		{
			"type": "function",
			"name": "NATIVE_TOKEN_ADDRESS",
			"inputs": [],
			"outputs": [
				{
					"name": "",
					"type": "address",
					"internalType": "address"
				}
			],
			"stateMutability": "view"
		},
		{
			"type": "function",
			"name": "UPDATER_ROLE",
			"inputs": [],
			"outputs": [
				{
					"name": "",
					"type": "bytes32",
					"internalType": "bytes32"
				}
			],
			"stateMutability": "view"
		},
		{
			"type": "function",
			"name": "cancelResolutions",
			"inputs": [
				{
					"name": "",
					"type": "uint256",
					"internalType": "uint256"
				}
			],
			"outputs": [
				{
					"name": "requestId",
					"type": "tuple",
					"internalType": "struct IRolldownPrimitives.RequestId",
					"components": [
						{
							"name": "origin",
							"type": "uint8",
							"internalType": "enum IRolldownPrimitives.Origin"
						},
						{
							"name": "id",
							"type": "uint256",
							"internalType": "uint256"
						}
					]
				},
				{
					"name": "l2RequestId",
					"type": "uint256",
					"internalType": "uint256"
				},
				{
					"name": "cancelJustified",
					"type": "bool",
					"internalType": "bool"
				},
				{
					"name": "timeStamp",
					"type": "uint256",
					"internalType": "uint256"
				}
			],
			"stateMutability": "view"
		},
		{
			"type": "function",
			"name": "chain",
			"inputs": [],
			"outputs": [
				{
					"name": "",
					"type": "uint8",
					"internalType": "enum IRolldownPrimitives.ChainId"
				}
			],
			"stateMutability": "view"
		},
		{
			"type": "function",
			"name": "closeCancel",
			"inputs": [
				{
					"name": "cancel",
					"type": "tuple",
					"internalType": "struct IRolldownPrimitives.Cancel",
					"components": [
						{
							"name": "requestId",
							"type": "tuple",
							"internalType": "struct IRolldownPrimitives.RequestId",
							"components": [
								{
									"name": "origin",
									"type": "uint8",
									"internalType": "enum IRolldownPrimitives.Origin"
								},
								{
									"name": "id",
									"type": "uint256",
									"internalType": "uint256"
								}
							]
						},
						{
							"name": "range",
							"type": "tuple",
							"internalType": "struct IRolldownPrimitives.Range",
							"components": [
								{
									"name": "start",
									"type": "uint256",
									"internalType": "uint256"
								},
								{
									"name": "end",
									"type": "uint256",
									"internalType": "uint256"
								}
							]
						},
						{
							"name": "hash",
							"type": "bytes32",
							"internalType": "bytes32"
						}
					]
				},
				{
					"name": "merkleRoot",
					"type": "bytes32",
					"internalType": "bytes32"
				},
				{
					"name": "proof",
					"type": "bytes32[]",
					"internalType": "bytes32[]"
				}
			],
			"outputs": [],
			"stateMutability": "nonpayable"
		},
		{
			"type": "function",
			"name": "closeDepositRefund",
			"inputs": [
				{
					"name": "failedDeposit",
					"type": "tuple",
					"internalType": "struct IRolldownPrimitives.FailedDepositResolution",
					"components": [
						{
							"name": "requestId",
							"type": "tuple",
							"internalType": "struct IRolldownPrimitives.RequestId",
							"components": [
								{
									"name": "origin",
									"type": "uint8",
									"internalType": "enum IRolldownPrimitives.Origin"
								},
								{
									"name": "id",
									"type": "uint256",
									"internalType": "uint256"
								}
							]
						},
						{
							"name": "originRequestId",
							"type": "uint256",
							"internalType": "uint256"
						},
						{
							"name": "ferry",
							"type": "address",
							"internalType": "address"
						}
					]
				},
				{
					"name": "merkleRoot",
					"type": "bytes32",
					"internalType": "bytes32"
				},
				{
					"name": "proof",
					"type": "bytes32[]",
					"internalType": "bytes32[]"
				}
			],
			"outputs": [],
			"stateMutability": "nonpayable"
		},
		{
			"type": "function",
			"name": "closeWithdrawal",
			"inputs": [
				{
					"name": "withdrawal",
					"type": "tuple",
					"internalType": "struct IRolldownPrimitives.Withdrawal",
					"components": [
						{
							"name": "requestId",
							"type": "tuple",
							"internalType": "struct IRolldownPrimitives.RequestId",
							"components": [
								{
									"name": "origin",
									"type": "uint8",
									"internalType": "enum IRolldownPrimitives.Origin"
								},
								{
									"name": "id",
									"type": "uint256",
									"internalType": "uint256"
								}
							]
						},
						{
							"name": "recipient",
							"type": "address",
							"internalType": "address"
						},
						{
							"name": "tokenAddress",
							"type": "address",
							"internalType": "address"
						},
						{
							"name": "amount",
							"type": "uint256",
							"internalType": "uint256"
						},
						{
							"name": "ferryTip",
							"type": "uint256",
							"internalType": "uint256"
						}
					]
				},
				{
					"name": "merkleRoot",
					"type": "bytes32",
					"internalType": "bytes32"
				},
				{
					"name": "proof",
					"type": "bytes32[]",
					"internalType": "bytes32[]"
				}
			],
			"outputs": [],
			"stateMutability": "nonpayable"
		},
		{
			"type": "function",
			"name": "close_cancel",
			"inputs": [
				{
					"name": "cancel",
					"type": "tuple",
					"internalType": "struct IRolldownPrimitives.Cancel",
					"components": [
						{
							"name": "requestId",
							"type": "tuple",
							"internalType": "struct IRolldownPrimitives.RequestId",
							"components": [
								{
									"name": "origin",
									"type": "uint8",
									"internalType": "enum IRolldownPrimitives.Origin"
								},
								{
									"name": "id",
									"type": "uint256",
									"internalType": "uint256"
								}
							]
						},
						{
							"name": "range",
							"type": "tuple",
							"internalType": "struct IRolldownPrimitives.Range",
							"components": [
								{
									"name": "start",
									"type": "uint256",
									"internalType": "uint256"
								},
								{
									"name": "end",
									"type": "uint256",
									"internalType": "uint256"
								}
							]
						},
						{
							"name": "hash",
							"type": "bytes32",
							"internalType": "bytes32"
						}
					]
				},
				{
					"name": "merkleRoot",
					"type": "bytes32",
					"internalType": "bytes32"
				},
				{
					"name": "proof",
					"type": "bytes32[]",
					"internalType": "bytes32[]"
				}
			],
			"outputs": [],
			"stateMutability": "nonpayable"
		},
		{
			"type": "function",
			"name": "close_deposit_refund",
			"inputs": [
				{
					"name": "failedDeposit",
					"type": "tuple",
					"internalType": "struct IRolldownPrimitives.FailedDepositResolution",
					"components": [
						{
							"name": "requestId",
							"type": "tuple",
							"internalType": "struct IRolldownPrimitives.RequestId",
							"components": [
								{
									"name": "origin",
									"type": "uint8",
									"internalType": "enum IRolldownPrimitives.Origin"
								},
								{
									"name": "id",
									"type": "uint256",
									"internalType": "uint256"
								}
							]
						},
						{
							"name": "originRequestId",
							"type": "uint256",
							"internalType": "uint256"
						},
						{
							"name": "ferry",
							"type": "address",
							"internalType": "address"
						}
					]
				},
				{
					"name": "merkleRoot",
					"type": "bytes32",
					"internalType": "bytes32"
				},
				{
					"name": "proof",
					"type": "bytes32[]",
					"internalType": "bytes32[]"
				}
			],
			"outputs": [],
			"stateMutability": "nonpayable"
		},
		{
			"type": "function",
			"name": "close_withdrawal",
			"inputs": [
				{
					"name": "withdrawal",
					"type": "tuple",
					"internalType": "struct IRolldownPrimitives.Withdrawal",
					"components": [
						{
							"name": "requestId",
							"type": "tuple",
							"internalType": "struct IRolldownPrimitives.RequestId",
							"components": [
								{
									"name": "origin",
									"type": "uint8",
									"internalType": "enum IRolldownPrimitives.Origin"
								},
								{
									"name": "id",
									"type": "uint256",
									"internalType": "uint256"
								}
							]
						},
						{
							"name": "recipient",
							"type": "address",
							"internalType": "address"
						},
						{
							"name": "tokenAddress",
							"type": "address",
							"internalType": "address"
						},
						{
							"name": "amount",
							"type": "uint256",
							"internalType": "uint256"
						},
						{
							"name": "ferryTip",
							"type": "uint256",
							"internalType": "uint256"
						}
					]
				},
				{
					"name": "merkleRoot",
					"type": "bytes32",
					"internalType": "bytes32"
				},
				{
					"name": "proof",
					"type": "bytes32[]",
					"internalType": "bytes32[]"
				}
			],
			"outputs": [],
			"stateMutability": "nonpayable"
		},
		{
			"type": "function",
			"name": "counter",
			"inputs": [],
			"outputs": [
				{
					"name": "",
					"type": "uint256",
					"internalType": "uint256"
				}
			],
			"stateMutability": "view"
		},
		{
			"type": "function",
			"name": "deposit",
			"inputs": [
				{
					"name": "tokenAddress",
					"type": "address",
					"internalType": "address"
				},
				{
					"name": "amount",
					"type": "uint256",
					"internalType": "uint256"
				},
				{
					"name": "ferryTip",
					"type": "uint256",
					"internalType": "uint256"
				}
			],
			"outputs": [],
			"stateMutability": "nonpayable"
		},
		{
			"type": "function",
			"name": "deposit",
			"inputs": [
				{
					"name": "tokenAddress",
					"type": "address",
					"internalType": "address"
				},
				{
					"name": "amount",
					"type": "uint256",
					"internalType": "uint256"
				}
			],
			"outputs": [],
			"stateMutability": "nonpayable"
		},
		{
			"type": "function",
			"name": "depositERC20",
			"inputs": [
				{
					"name": "tokenAddress",
					"type": "address",
					"internalType": "address"
				},
				{
					"name": "amount",
					"type": "uint256",
					"internalType": "uint256"
				},
				{
					"name": "ferryTip",
					"type": "uint256",
					"internalType": "uint256"
				}
			],
			"outputs": [],
			"stateMutability": "nonpayable"
		},
		{
			"type": "function",
			"name": "depositERC20",
			"inputs": [
				{
					"name": "tokenAddress",
					"type": "address",
					"internalType": "address"
				},
				{
					"name": "amount",
					"type": "uint256",
					"internalType": "uint256"
				}
			],
			"outputs": [],
			"stateMutability": "nonpayable"
		},
		{
			"type": "function",
			"name": "depositNative",
			"inputs": [
				{
					"name": "ferryTip",
					"type": "uint256",
					"internalType": "uint256"
				}
			],
			"outputs": [],
			"stateMutability": "payable"
		},
		{
			"type": "function",
			"name": "depositNative",
			"inputs": [],
			"outputs": [],
			"stateMutability": "payable"
		},
		{
			"type": "function",
			"name": "deposit_erc20",
			"inputs": [
				{
					"name": "tokenAddress",
					"type": "address",
					"internalType": "address"
				},
				{
					"name": "amount",
					"type": "uint256",
					"internalType": "uint256"
				},
				{
					"name": "ferryTip",
					"type": "uint256",
					"internalType": "uint256"
				}
			],
			"outputs": [],
			"stateMutability": "nonpayable"
		},
		{
			"type": "function",
			"name": "deposit_erc20",
			"inputs": [
				{
					"name": "tokenAddress",
					"type": "address",
					"internalType": "address"
				},
				{
					"name": "amount",
					"type": "uint256",
					"internalType": "uint256"
				}
			],
			"outputs": [],
			"stateMutability": "nonpayable"
		},
		{
			"type": "function",
			"name": "deposit_native",
			"inputs": [],
			"outputs": [],
			"stateMutability": "payable"
		},
		{
			"type": "function",
			"name": "deposit_native",
			"inputs": [
				{
					"name": "ferryTip",
					"type": "uint256",
					"internalType": "uint256"
				}
			],
			"outputs": [],
			"stateMutability": "payable"
		},
		{
			"type": "function",
			"name": "deposits",
			"inputs": [
				{
					"name": "",
					"type": "uint256",
					"internalType": "uint256"
				}
			],
			"outputs": [
				{
					"name": "requestId",
					"type": "tuple",
					"internalType": "struct IRolldownPrimitives.RequestId",
					"components": [
						{
							"name": "origin",
							"type": "uint8",
							"internalType": "enum IRolldownPrimitives.Origin"
						},
						{
							"name": "id",
							"type": "uint256",
							"internalType": "uint256"
						}
					]
				},
				{
					"name": "depositRecipient",
					"type": "address",
					"internalType": "address"
				},
				{
					"name": "tokenAddress",
					"type": "address",
					"internalType": "address"
				},
				{
					"name": "amount",
					"type": "uint256",
					"internalType": "uint256"
				},
				{
					"name": "timeStamp",
					"type": "uint256",
					"internalType": "uint256"
				},
				{
					"name": "ferryTip",
					"type": "uint256",
					"internalType": "uint256"
				}
			],
			"stateMutability": "view"
		},
		{
			"type": "function",
			"name": "ferryWithdrawal",
			"inputs": [
				{
					"name": "withdrawal",
					"type": "tuple",
					"internalType": "struct IRolldownPrimitives.Withdrawal",
					"components": [
						{
							"name": "requestId",
							"type": "tuple",
							"internalType": "struct IRolldownPrimitives.RequestId",
							"components": [
								{
									"name": "origin",
									"type": "uint8",
									"internalType": "enum IRolldownPrimitives.Origin"
								},
								{
									"name": "id",
									"type": "uint256",
									"internalType": "uint256"
								}
							]
						},
						{
							"name": "recipient",
							"type": "address",
							"internalType": "address"
						},
						{
							"name": "tokenAddress",
							"type": "address",
							"internalType": "address"
						},
						{
							"name": "amount",
							"type": "uint256",
							"internalType": "uint256"
						},
						{
							"name": "ferryTip",
							"type": "uint256",
							"internalType": "uint256"
						}
					]
				}
			],
			"outputs": [],
			"stateMutability": "payable"
		},
		{
			"type": "function",
			"name": "ferry_withdrawal",
			"inputs": [
				{
					"name": "withdrawal",
					"type": "tuple",
					"internalType": "struct IRolldownPrimitives.Withdrawal",
					"components": [
						{
							"name": "requestId",
							"type": "tuple",
							"internalType": "struct IRolldownPrimitives.RequestId",
							"components": [
								{
									"name": "origin",
									"type": "uint8",
									"internalType": "enum IRolldownPrimitives.Origin"
								},
								{
									"name": "id",
									"type": "uint256",
									"internalType": "uint256"
								}
							]
						},
						{
							"name": "recipient",
							"type": "address",
							"internalType": "address"
						},
						{
							"name": "tokenAddress",
							"type": "address",
							"internalType": "address"
						},
						{
							"name": "amount",
							"type": "uint256",
							"internalType": "uint256"
						},
						{
							"name": "ferryTip",
							"type": "uint256",
							"internalType": "uint256"
						}
					]
				}
			],
			"outputs": [],
			"stateMutability": "payable"
		},
		{
			"type": "function",
			"name": "findL2Batch",
			"inputs": [
				{
					"name": "requestId",
					"type": "uint256",
					"internalType": "uint256"
				}
			],
			"outputs": [
				{
					"name": "",
					"type": "bytes32",
					"internalType": "bytes32"
				}
			],
			"stateMutability": "view"
		},
		{
			"type": "function",
			"name": "find_l2_batch",
			"inputs": [
				{
					"name": "requestId",
					"type": "uint256",
					"internalType": "uint256"
				}
			],
			"outputs": [
				{
					"name": "",
					"type": "bytes32",
					"internalType": "bytes32"
				}
			],
			"stateMutability": "view"
		},
		{
			"type": "function",
			"name": "getMerkleRootsLength",
			"inputs": [],
			"outputs": [
				{
					"name": "",
					"type": "uint256",
					"internalType": "uint256"
				}
			],
			"stateMutability": "view"
		},
		{
			"type": "function",
			"name": "getPendingRequests",
			"inputs": [
				{
					"name": "start",
					"type": "uint256",
					"internalType": "uint256"
				},
				{
					"name": "end",
					"type": "uint256",
					"internalType": "uint256"
				}
			],
			"outputs": [
				{
					"name": "",
					"type": "tuple",
					"internalType": "struct IRolldownPrimitives.L1Update",
					"components": [
						{
							"name": "chain",
							"type": "uint8",
							"internalType": "enum IRolldownPrimitives.ChainId"
						},
						{
							"name": "pendingDeposits",
							"type": "tuple[]",
							"internalType": "struct IRolldownPrimitives.Deposit[]",
							"components": [
								{
									"name": "requestId",
									"type": "tuple",
									"internalType": "struct IRolldownPrimitives.RequestId",
									"components": [
										{
											"name": "origin",
											"type": "uint8",
											"internalType": "enum IRolldownPrimitives.Origin"
										},
										{
											"name": "id",
											"type": "uint256",
											"internalType": "uint256"
										}
									]
								},
								{
									"name": "depositRecipient",
									"type": "address",
									"internalType": "address"
								},
								{
									"name": "tokenAddress",
									"type": "address",
									"internalType": "address"
								},
								{
									"name": "amount",
									"type": "uint256",
									"internalType": "uint256"
								},
								{
									"name": "timeStamp",
									"type": "uint256",
									"internalType": "uint256"
								},
								{
									"name": "ferryTip",
									"type": "uint256",
									"internalType": "uint256"
								}
							]
						},
						{
							"name": "pendingCancelResolutions",
							"type": "tuple[]",
							"internalType": "struct IRolldownPrimitives.CancelResolution[]",
							"components": [
								{
									"name": "requestId",
									"type": "tuple",
									"internalType": "struct IRolldownPrimitives.RequestId",
									"components": [
										{
											"name": "origin",
											"type": "uint8",
											"internalType": "enum IRolldownPrimitives.Origin"
										},
										{
											"name": "id",
											"type": "uint256",
											"internalType": "uint256"
										}
									]
								},
								{
									"name": "l2RequestId",
									"type": "uint256",
									"internalType": "uint256"
								},
								{
									"name": "cancelJustified",
									"type": "bool",
									"internalType": "bool"
								},
								{
									"name": "timeStamp",
									"type": "uint256",
									"internalType": "uint256"
								}
							]
						}
					]
				}
			],
			"stateMutability": "view"
		},
		{
			"type": "function",
			"name": "getRoleAdmin",
			"inputs": [
				{
					"name": "role",
					"type": "bytes32",
					"internalType": "bytes32"
				}
			],
			"outputs": [
				{
					"name": "",
					"type": "bytes32",
					"internalType": "bytes32"
				}
			],
			"stateMutability": "view"
		},
		{
			"type": "function",
			"name": "getUpdateForL2",
			"inputs": [],
			"outputs": [
				{
					"name": "",
					"type": "tuple",
					"internalType": "struct IRolldownPrimitives.L1Update",
					"components": [
						{
							"name": "chain",
							"type": "uint8",
							"internalType": "enum IRolldownPrimitives.ChainId"
						},
						{
							"name": "pendingDeposits",
							"type": "tuple[]",
							"internalType": "struct IRolldownPrimitives.Deposit[]",
							"components": [
								{
									"name": "requestId",
									"type": "tuple",
									"internalType": "struct IRolldownPrimitives.RequestId",
									"components": [
										{
											"name": "origin",
											"type": "uint8",
											"internalType": "enum IRolldownPrimitives.Origin"
										},
										{
											"name": "id",
											"type": "uint256",
											"internalType": "uint256"
										}
									]
								},
								{
									"name": "depositRecipient",
									"type": "address",
									"internalType": "address"
								},
								{
									"name": "tokenAddress",
									"type": "address",
									"internalType": "address"
								},
								{
									"name": "amount",
									"type": "uint256",
									"internalType": "uint256"
								},
								{
									"name": "timeStamp",
									"type": "uint256",
									"internalType": "uint256"
								},
								{
									"name": "ferryTip",
									"type": "uint256",
									"internalType": "uint256"
								}
							]
						},
						{
							"name": "pendingCancelResolutions",
							"type": "tuple[]",
							"internalType": "struct IRolldownPrimitives.CancelResolution[]",
							"components": [
								{
									"name": "requestId",
									"type": "tuple",
									"internalType": "struct IRolldownPrimitives.RequestId",
									"components": [
										{
											"name": "origin",
											"type": "uint8",
											"internalType": "enum IRolldownPrimitives.Origin"
										},
										{
											"name": "id",
											"type": "uint256",
											"internalType": "uint256"
										}
									]
								},
								{
									"name": "l2RequestId",
									"type": "uint256",
									"internalType": "uint256"
								},
								{
									"name": "cancelJustified",
									"type": "bool",
									"internalType": "bool"
								},
								{
									"name": "timeStamp",
									"type": "uint256",
									"internalType": "uint256"
								}
							]
						}
					]
				}
			],
			"stateMutability": "view"
		},
		{
			"type": "function",
			"name": "grantRole",
			"inputs": [
				{
					"name": "role",
					"type": "bytes32",
					"internalType": "bytes32"
				},
				{
					"name": "account",
					"type": "address",
					"internalType": "address"
				}
			],
			"outputs": [],
			"stateMutability": "nonpayable"
		},
		{
			"type": "function",
			"name": "hasRole",
			"inputs": [
				{
					"name": "role",
					"type": "bytes32",
					"internalType": "bytes32"
				},
				{
					"name": "account",
					"type": "address",
					"internalType": "address"
				}
			],
			"outputs": [
				{
					"name": "",
					"type": "bool",
					"internalType": "bool"
				}
			],
			"stateMutability": "view"
		},
		{
			"type": "function",
			"name": "hashCancel",
			"inputs": [
				{
					"name": "cancel",
					"type": "tuple",
					"internalType": "struct IRolldownPrimitives.Cancel",
					"components": [
						{
							"name": "requestId",
							"type": "tuple",
							"internalType": "struct IRolldownPrimitives.RequestId",
							"components": [
								{
									"name": "origin",
									"type": "uint8",
									"internalType": "enum IRolldownPrimitives.Origin"
								},
								{
									"name": "id",
									"type": "uint256",
									"internalType": "uint256"
								}
							]
						},
						{
							"name": "range",
							"type": "tuple",
							"internalType": "struct IRolldownPrimitives.Range",
							"components": [
								{
									"name": "start",
									"type": "uint256",
									"internalType": "uint256"
								},
								{
									"name": "end",
									"type": "uint256",
									"internalType": "uint256"
								}
							]
						},
						{
							"name": "hash",
							"type": "bytes32",
							"internalType": "bytes32"
						}
					]
				}
			],
			"outputs": [
				{
					"name": "",
					"type": "bytes32",
					"internalType": "bytes32"
				}
			],
			"stateMutability": "pure"
		},
		{
			"type": "function",
			"name": "hashFailedDepositResolution",
			"inputs": [
				{
					"name": "failedDeposit",
					"type": "tuple",
					"internalType": "struct IRolldownPrimitives.FailedDepositResolution",
					"components": [
						{
							"name": "requestId",
							"type": "tuple",
							"internalType": "struct IRolldownPrimitives.RequestId",
							"components": [
								{
									"name": "origin",
									"type": "uint8",
									"internalType": "enum IRolldownPrimitives.Origin"
								},
								{
									"name": "id",
									"type": "uint256",
									"internalType": "uint256"
								}
							]
						},
						{
							"name": "originRequestId",
							"type": "uint256",
							"internalType": "uint256"
						},
						{
							"name": "ferry",
							"type": "address",
							"internalType": "address"
						}
					]
				}
			],
			"outputs": [
				{
					"name": "",
					"type": "bytes32",
					"internalType": "bytes32"
				}
			],
			"stateMutability": "pure"
		},
		{
			"type": "function",
			"name": "hashWithdrawal",
			"inputs": [
				{
					"name": "withdrawal",
					"type": "tuple",
					"internalType": "struct IRolldownPrimitives.Withdrawal",
					"components": [
						{
							"name": "requestId",
							"type": "tuple",
							"internalType": "struct IRolldownPrimitives.RequestId",
							"components": [
								{
									"name": "origin",
									"type": "uint8",
									"internalType": "enum IRolldownPrimitives.Origin"
								},
								{
									"name": "id",
									"type": "uint256",
									"internalType": "uint256"
								}
							]
						},
						{
							"name": "recipient",
							"type": "address",
							"internalType": "address"
						},
						{
							"name": "tokenAddress",
							"type": "address",
							"internalType": "address"
						},
						{
							"name": "amount",
							"type": "uint256",
							"internalType": "uint256"
						},
						{
							"name": "ferryTip",
							"type": "uint256",
							"internalType": "uint256"
						}
					]
				}
			],
			"outputs": [
				{
					"name": "",
					"type": "bytes32",
					"internalType": "bytes32"
				}
			],
			"stateMutability": "pure"
		},
		{
			"type": "function",
			"name": "initialize",
			"inputs": [
				{
					"name": "admin",
					"type": "address",
					"internalType": "address"
				},
				{
					"name": "chainId",
					"type": "uint8",
					"internalType": "enum IRolldownPrimitives.ChainId"
				},
				{
					"name": "updater",
					"type": "address",
					"internalType": "address"
				}
			],
			"outputs": [],
			"stateMutability": "nonpayable"
		},
		{
			"type": "function",
			"name": "lastProcessedUpdate_origin_l1",
			"inputs": [],
			"outputs": [
				{
					"name": "",
					"type": "uint256",
					"internalType": "uint256"
				}
			],
			"stateMutability": "view"
		},
		{
			"type": "function",
			"name": "lastProcessedUpdate_origin_l2",
			"inputs": [],
			"outputs": [
				{
					"name": "",
					"type": "uint256",
					"internalType": "uint256"
				}
			],
			"stateMutability": "view"
		},
		{
			"type": "function",
			"name": "merkleRootRange",
			"inputs": [
				{
					"name": "",
					"type": "bytes32",
					"internalType": "bytes32"
				}
			],
			"outputs": [
				{
					"name": "start",
					"type": "uint256",
					"internalType": "uint256"
				},
				{
					"name": "end",
					"type": "uint256",
					"internalType": "uint256"
				}
			],
			"stateMutability": "view"
		},
		{
			"type": "function",
			"name": "pause",
			"inputs": [],
			"outputs": [],
			"stateMutability": "nonpayable"
		},
		{
			"type": "function",
			"name": "paused",
			"inputs": [],
			"outputs": [
				{
					"name": "",
					"type": "bool",
					"internalType": "bool"
				}
			],
			"stateMutability": "view"
		},
		{
			"type": "function",
			"name": "processedL2Requests",
			"inputs": [
				{
					"name": "",
					"type": "bytes32",
					"internalType": "bytes32"
				}
			],
			"outputs": [
				{
					"name": "",
					"type": "address",
					"internalType": "address"
				}
			],
			"stateMutability": "view"
		},
		{
			"type": "function",
			"name": "renounceRole",
			"inputs": [
				{
					"name": "role",
					"type": "bytes32",
					"internalType": "bytes32"
				},
				{
					"name": "account",
					"type": "address",
					"internalType": "address"
				}
			],
			"outputs": [],
			"stateMutability": "nonpayable"
		},
		{
			"type": "function",
			"name": "revokeRole",
			"inputs": [
				{
					"name": "role",
					"type": "bytes32",
					"internalType": "bytes32"
				},
				{
					"name": "account",
					"type": "address",
					"internalType": "address"
				}
			],
			"outputs": [],
			"stateMutability": "nonpayable"
		},
		{
			"type": "function",
			"name": "roots",
			"inputs": [
				{
					"name": "",
					"type": "uint256",
					"internalType": "uint256"
				}
			],
			"outputs": [
				{
					"name": "",
					"type": "bytes32",
					"internalType": "bytes32"
				}
			],
			"stateMutability": "view"
		},
		{
			"type": "function",
			"name": "setUpdater",
			"inputs": [
				{
					"name": "updater",
					"type": "address",
					"internalType": "address"
				}
			],
			"outputs": [],
			"stateMutability": "nonpayable"
		},
		{
			"type": "function",
			"name": "supportsInterface",
			"inputs": [
				{
					"name": "interfaceId",
					"type": "bytes4",
					"internalType": "bytes4"
				}
			],
			"outputs": [
				{
					"name": "",
					"type": "bool",
					"internalType": "bool"
				}
			],
			"stateMutability": "view"
		},
		{
			"type": "function",
			"name": "unpause",
			"inputs": [],
			"outputs": [],
			"stateMutability": "nonpayable"
		},
		{
			"type": "function",
			"name": "updateL1FromL2",
			"inputs": [
				{
					"name": "merkleRoot",
					"type": "bytes32",
					"internalType": "bytes32"
				},
				{
					"name": "range",
					"type": "tuple",
					"internalType": "struct IRolldownPrimitives.Range",
					"components": [
						{
							"name": "start",
							"type": "uint256",
							"internalType": "uint256"
						},
						{
							"name": "end",
							"type": "uint256",
							"internalType": "uint256"
						}
					]
				}
			],
			"outputs": [],
			"stateMutability": "nonpayable"
		},
		{
			"type": "function",
			"name": "update_l1_from_l2",
			"inputs": [
				{
					"name": "merkleRoot",
					"type": "bytes32",
					"internalType": "bytes32"
				},
				{
					"name": "range",
					"type": "tuple",
					"internalType": "struct IRolldownPrimitives.Range",
					"components": [
						{
							"name": "start",
							"type": "uint256",
							"internalType": "uint256"
						},
						{
							"name": "end",
							"type": "uint256",
							"internalType": "uint256"
						}
					]
				}
			],
			"outputs": [],
			"stateMutability": "nonpayable"
		},
		{
			"type": "function",
			"name": "updaterAccount",
			"inputs": [],
			"outputs": [
				{
					"name": "",
					"type": "address",
					"internalType": "address"
				}
			],
			"stateMutability": "view"
		},
		{
			"type": "event",
			"name": "DepositAcceptedIntoQueue",
			"inputs": [
				{
					"name": "requestId",
					"type": "uint256",
					"indexed": true,
					"internalType": "uint256"
				},
				{
					"name": "depositRecipient",
					"type": "address",
					"indexed": true,
					"internalType": "address"
				},
				{
					"name": "tokenAddress",
					"type": "address",
					"indexed": true,
					"internalType": "address"
				},
				{
					"name": "amount",
					"type": "uint256",
					"indexed": false,
					"internalType": "uint256"
				},
				{
					"name": "ferryTip",
					"type": "uint256",
					"indexed": false,
					"internalType": "uint256"
				}
			],
			"anonymous": false
		},
		{
			"type": "event",
			"name": "DisputeResolutionAcceptedIntoQueue",
			"inputs": [
				{
					"name": "requestId",
					"type": "uint256",
					"indexed": true,
					"internalType": "uint256"
				},
				{
					"name": "cancelJustified",
					"type": "bool",
					"indexed": false,
					"internalType": "bool"
				},
				{
					"name": "cancelResolutionHash",
					"type": "bytes32",
					"indexed": false,
					"internalType": "bytes32"
				}
			],
			"anonymous": false
		},
		{
			"type": "event",
			"name": "ERC20TokensWithdrawn",
			"inputs": [
				{
					"name": "sender",
					"type": "address",
					"indexed": true,
					"internalType": "address"
				},
				{
					"name": "tokenAddress",
					"type": "address",
					"indexed": true,
					"internalType": "address"
				},
				{
					"name": "amount",
					"type": "uint256",
					"indexed": false,
					"internalType": "uint256"
				}
			],
			"anonymous": false
		},
		{
			"type": "event",
			"name": "FailedDepositResolutionClosed",
			"inputs": [
				{
					"name": "indexedrequestId",
					"type": "uint256",
					"indexed": false,
					"internalType": "uint256"
				},
				{
					"name": "originDepositId",
					"type": "uint256",
					"indexed": false,
					"internalType": "uint256"
				},
				{
					"name": "failedDespotiResolutionHash",
					"type": "bytes32",
					"indexed": false,
					"internalType": "bytes32"
				}
			],
			"anonymous": false
		},
		{
			"type": "event",
			"name": "FerriedWithdrawalClosed",
			"inputs": [
				{
					"name": "requestId",
					"type": "uint256",
					"indexed": true,
					"internalType": "uint256"
				},
				{
					"name": "withdrawalHash",
					"type": "bytes32",
					"indexed": false,
					"internalType": "bytes32"
				}
			],
			"anonymous": false
		},
		{
			"type": "event",
			"name": "Initialized",
			"inputs": [
				{
					"name": "version",
					"type": "uint8",
					"indexed": false,
					"internalType": "uint8"
				}
			],
			"anonymous": false
		},
		{
			"type": "event",
			"name": "L2UpdateAccepted",
			"inputs": [
				{
					"name": "root",
					"type": "bytes32",
					"indexed": false,
					"internalType": "bytes32"
				},
				{
					"name": "range",
					"type": "tuple",
					"indexed": false,
					"internalType": "struct IRolldownPrimitives.Range",
					"components": [
						{
							"name": "start",
							"type": "uint256",
							"internalType": "uint256"
						},
						{
							"name": "end",
							"type": "uint256",
							"internalType": "uint256"
						}
					]
				}
			],
			"anonymous": false
		},
		{
			"type": "event",
			"name": "NativeTokensWithdrawn",
			"inputs": [
				{
					"name": "sender",
					"type": "address",
					"indexed": true,
					"internalType": "address"
				},
				{
					"name": "amount",
					"type": "uint256",
					"indexed": false,
					"internalType": "uint256"
				}
			],
			"anonymous": false
		},
		{
			"type": "event",
			"name": "NewUpdaterSet",
			"inputs": [
				{
					"name": "updater",
					"type": "address",
					"indexed": true,
					"internalType": "address"
				}
			],
			"anonymous": false
		},
		{
			"type": "event",
			"name": "Paused",
			"inputs": [
				{
					"name": "account",
					"type": "address",
					"indexed": false,
					"internalType": "address"
				}
			],
			"anonymous": false
		},
		{
			"type": "event",
			"name": "RoleAdminChanged",
			"inputs": [
				{
					"name": "role",
					"type": "bytes32",
					"indexed": true,
					"internalType": "bytes32"
				},
				{
					"name": "previousAdminRole",
					"type": "bytes32",
					"indexed": true,
					"internalType": "bytes32"
				},
				{
					"name": "newAdminRole",
					"type": "bytes32",
					"indexed": true,
					"internalType": "bytes32"
				}
			],
			"anonymous": false
		},
		{
			"type": "event",
			"name": "RoleGranted",
			"inputs": [
				{
					"name": "role",
					"type": "bytes32",
					"indexed": true,
					"internalType": "bytes32"
				},
				{
					"name": "account",
					"type": "address",
					"indexed": true,
					"internalType": "address"
				},
				{
					"name": "sender",
					"type": "address",
					"indexed": true,
					"internalType": "address"
				}
			],
			"anonymous": false
		},
		{
			"type": "event",
			"name": "RoleRevoked",
			"inputs": [
				{
					"name": "role",
					"type": "bytes32",
					"indexed": true,
					"internalType": "bytes32"
				},
				{
					"name": "account",
					"type": "address",
					"indexed": true,
					"internalType": "address"
				},
				{
					"name": "sender",
					"type": "address",
					"indexed": true,
					"internalType": "address"
				}
			],
			"anonymous": false
		},
		{
			"type": "event",
			"name": "Unpaused",
			"inputs": [
				{
					"name": "account",
					"type": "address",
					"indexed": false,
					"internalType": "address"
				}
			],
			"anonymous": false
		},
		{
			"type": "event",
			"name": "WithdrawalClosed",
			"inputs": [
				{
					"name": "requestId",
					"type": "uint256",
					"indexed": true,
					"internalType": "uint256"
				},
				{
					"name": "withdrawalHash",
					"type": "bytes32",
					"indexed": false,
					"internalType": "bytes32"
				}
			],
			"anonymous": false
		},
		{
			"type": "event",
			"name": "WithdrawalFerried",
			"inputs": [
				{
					"name": "indexedrequestId",
					"type": "uint256",
					"indexed": false,
					"internalType": "uint256"
				},
				{
					"name": "amount",
					"type": "uint256",
					"indexed": false,
					"internalType": "uint256"
				},
				{
					"name": "recipient",
					"type": "address",
					"indexed": true,
					"internalType": "address"
				},
				{
					"name": "ferry",
					"type": "address",
					"indexed": true,
					"internalType": "address"
				},
				{
					"name": "withdrawalHash",
					"type": "bytes32",
					"indexed": false,
					"internalType": "bytes32"
				}
			],
			"anonymous": false
		},
		{
			"type": "error",
			"name": "FerryTipExceedsAmount",
			"inputs": [
				{
					"name": "ferryTip",
					"type": "uint256",
					"internalType": "uint256"
				},
				{
					"name": "amount",
					"type": "uint256",
					"internalType": "uint256"
				}
			]
		},
		{
			"type": "error",
			"name": "InvalidFerriedAmount",
			"inputs": [
				{
					"name": "actualAmount",
					"type": "uint256",
					"internalType": "uint256"
				},
				{
					"name": "expectedAmount",
					"type": "uint256",
					"internalType": "uint256"
				}
			]
		},
		{
			"type": "error",
			"name": "InvalidRequestId",
			"inputs": [
				{
					"name": "requestId",
					"type": "uint256",
					"internalType": "uint256"
				}
			]
		},
		{
			"type": "error",
			"name": "InvalidRequestProof",
			"inputs": [
				{
					"name": "merkleRoot",
					"type": "bytes32",
					"internalType": "bytes32"
				}
			]
		},
		{
			"type": "error",
			"name": "InvalidRequestRange",
			"inputs": [
				{
					"name": "start",
					"type": "uint256",
					"internalType": "uint256"
				},
				{
					"name": "end",
					"type": "uint256",
					"internalType": "uint256"
				}
			]
		},
		{
			"type": "error",
			"name": "InvalidUpdateRange",
			"inputs": [
				{
					"name": "start",
					"type": "uint256",
					"internalType": "uint256"
				},
				{
					"name": "end",
					"type": "uint256",
					"internalType": "uint256"
				}
			]
		},
		{
			"type": "error",
			"name": "L2RequestAlreadyProcessed",
			"inputs": [
				{
					"name": "requestHash",
					"type": "bytes32",
					"internalType": "bytes32"
				}
			]
		},
		{
			"type": "error",
			"name": "PreviousUpdateMissed",
			"inputs": [
				{
					"name": "currentStartRange",
					"type": "uint256",
					"internalType": "uint256"
				},
				{
					"name": "lastProcessedUpdate",
					"type": "uint256",
					"internalType": "uint256"
				}
			]
		},
		{
			"type": "error",
			"name": "RequestOutOfRange",
			"inputs": [
				{
					"name": "requestId",
					"type": "uint256",
					"internalType": "uint256"
				},
				{
					"name": "start",
					"type": "uint256",
					"internalType": "uint256"
				},
				{
					"name": "end",
					"type": "uint256",
					"internalType": "uint256"
				}
			]
		},
		{
			"type": "error",
			"name": "RequestRangeTooLarge",
			"inputs": [
				{
					"name": "count",
					"type": "uint256",
					"internalType": "uint256"
				}
			]
		},
		{
			"type": "error",
			"name": "UnexpectedMerkleRoot",
			"inputs": []
		},
		{
			"type": "error",
			"name": "UpdateAlreadyApplied",
			"inputs": [
				{
					"name": "currentEndRange",
					"type": "uint256",
					"internalType": "uint256"
				},
				{
					"name": "lastProcessedUpdate",
					"type": "uint256",
					"internalType": "uint256"
				}
			]
		},
		{
			"type": "error",
			"name": "WithdrawalAlreadyFerried",
			"inputs": [
				{
					"name": "withdrawalHash",
					"type": "bytes32",
					"internalType": "bytes32"
				}
			]
		},
		{
			"type": "error",
			"name": "ZeroAdmin",
			"inputs": []
		},
		{
			"type": "error",
			"name": "ZeroAmount",
			"inputs": []
		},
		{
			"type": "error",
			"name": "ZeroRecipient",
			"inputs": []
		},
		{
			"type": "error",
			"name": "ZeroRootCount",
			"inputs": []
		},
		{
			"type": "error",
			"name": "ZeroToken",
			"inputs": []
		},
		{
			"type": "error",
			"name": "ZeroTransferAmount",
			"inputs": []
		},
		{
			"type": "error",
			"name": "ZeroUpdateRange",
			"inputs": []
		},
		{
			"type": "error",
			"name": "ZeroUpdater",
			"inputs": []
		}
	],
	"bytecode": {
		"object": "0x608060405234801561001057600080fd5b506139bf806100206000396000f3fe60806040526004361061031a5760003560e01c8063890e95ce116101ab578063ca9b21ae116100f7578063de70e0b811610095578063f26ee9d01161006f578063f26ee9d01461082d578063f35f9e4514610843578063f9ecd01e146107a1578063ff2bae861461086357600080fd5b8063de70e0b8146107e1578063df2ebdbb14610818578063dffbdd9f1461058057600080fd5b8063d16544f0116100d1578063d16544f0146104fe578063d1cb26b41461031f578063d547741f146107c1578063db6b52461461074957600080fd5b8063ca9b21ae14610751578063cc8c909f14610781578063ce2de1bc146107a157600080fd5b8063a217fddf11610164578063b15387061161013e578063b1538706146106ed578063c2b40ae414610702578063c763e5a114610722578063c87c22241461074957600080fd5b8063a217fddf14610686578063ae46db111461069b578063b02c43d0146106bb57600080fd5b8063890e95ce146106265780638e24e392146103b657806391d1485414610646578063950ac4871461046757806397feb926146104fe5780639d54f4191461066657600080fd5b80633f4ba83a1161026a578063608fc37a1161022357806371c54461116101fd57806371c54461146105a957806379e041f2146105ce5780637fd4f845146105fb5780638456cb591461061157600080fd5b8063608fc37a1461058057806361bc221a14610593578063676f536b146103d657600080fd5b80633f4ba83a146104c757806347e63380146104dc57806347e7ef24146104fe5780634bf5fec3146103765780634f48eedf1461051e5780635c975abb1461056857600080fd5b80630e2636a3116102d7578063248a9ca3116102b1578063248a9ca31461042957806325afc76a146104675780632f2ff15d1461048757806336568abe146104a757600080fd5b80630e2636a3146103e95780630efe6a8b1461039657806321425ee01461039657600080fd5b806301ef69661461031f57806301ffc9a71461034157806303ed49d31461037657806308aba1b21461039657806308f42d40146103b65780630cac57ab146103d6575b600080fd5b34801561032b57600080fd5b5061033f61033a36600461309e565b610879565b005b34801561034d57600080fd5b5061036161035c3660046130f9565b6108c8565b60405190151581526020015b60405180910390f35b34801561038257600080fd5b5061033f610391366004613135565b6108ff565b3480156103a257600080fd5b5061033f6103b1366004613195565b61093a565b3480156103c257600080fd5b5061033f6103d13660046131c8565b61097e565b61033f6103e4366004613200565b6109ad565b3480156103f557600080fd5b5061041173111111111111111111111111111111111111111181565b6040516001600160a01b03909116815260200161036d565b34801561043557600080fd5b5061045961044436600461321c565b60009081526065602052604090206001015490565b60405190815260200161036d565b34801561047357600080fd5b5061033f610482366004613247565b6109ed565b34801561049357600080fd5b5061033f6104a236600461328a565b610a28565b3480156104b357600080fd5b5061033f6104c236600461328a565b610a4d565b3480156104d357600080fd5b5061033f610acb565b3480156104e857600080fd5b5061045960008051602061396a83398151915281565b34801561050a57600080fd5b5061033f6105193660046132b6565b610ae1565b34801561052a57600080fd5b5061055361053936600461321c565b610101602052600090815260409020805460019091015482565b6040805192835260208301919091520161036d565b34801561057457600080fd5b5060c95460ff16610361565b61033f61058e36600461321c565b610b25565b34801561059f57600080fd5b5061045960fb5481565b3480156105b557600080fd5b5060fe546104119061010090046001600160a01b031681565b3480156105da57600080fd5b506105ee6105e93660046132e0565b610b36565b60405161036d91906133a8565b34801561060757600080fd5b5061045960fc5481565b34801561061d57600080fd5b5061033f610fef565b34801561063257600080fd5b50610459610641366004613200565b611002565b34801561065257600080fd5b5061036161066136600461328a565b611070565b34801561067257600080fd5b5061033f61068136600461346b565b61109b565b34801561069257600080fd5b50610459600081565b3480156106a757600080fd5b506104596106b6366004613486565b611165565b3480156106c757600080fd5b506106db6106d636600461321c565b611199565b60405161036d969594939291906134a2565b3480156106f957600080fd5b506105ee611221565b34801561070e57600080fd5b5061045961071d36600461321c565b61126c565b34801561072e57600080fd5b5060fe5461073c9060ff1681565b60405161036d91906134e4565b61033f61128e565b34801561075d57600080fd5b5061077161076c36600461321c565b6112a2565b60405161036d94939291906134f7565b34801561078d57600080fd5b5061045961079c366004613520565b611314565b3480156107ad57600080fd5b506104596107bc36600461321c565b611348565b3480156107cd57600080fd5b5061033f6107dc36600461328a565b611353565b3480156107ed57600080fd5b506104116107fc36600461321c565b610102602052600090815260409020546001600160a01b031681565b34801561082457600080fd5b50610411600181565b34801561083957600080fd5b5061045960fd5481565b34801561084f57600080fd5b5061033f61085e366004613549565b611378565b34801561086f57600080fd5b5061010354610459565b61088161157b565b6002609754036108ac5760405162461bcd60e51b81526004016108a39061358e565b60405180910390fd5b60026097556108bd848484846115c1565b505060016097555050565b60006001600160e01b03198216637965db0b60e01b14806108f957506301ffc9a760e01b6001600160e01b03198316145b92915050565b6002609754036109215760405162461bcd60e51b81526004016108a39061358e565b600260975561092e61157b565b6108bd84848484611622565b60026097540361095c5760405162461bcd60e51b81526004016108a39061358e565b600260975561096961157b565b610974838383611812565b5050600160975550565b61098661157b565b60008051602061396a83398151915261099e816119e8565b6109a883836119f2565b505050565b6002609754036109cf5760405162461bcd60e51b81526004016108a39061358e565b60026097556109dc61157b565b6109e581611b5b565b506001609755565b600260975403610a0f5760405162461bcd60e51b81526004016108a39061358e565b6002609755610a1c61157b565b6108bd84848484611dd2565b600082815260656020526040902060010154610a43816119e8565b6109a88383611dfa565b6001600160a01b0381163314610abd5760405162461bcd60e51b815260206004820152602f60248201527f416363657373436f6e74726f6c3a2063616e206f6e6c792072656e6f756e636560448201526e103937b632b9903337b91039b2b63360891b60648201526084016108a3565b610ac78282611e80565b5050565b6000610ad6816119e8565b610ade611ee7565b50565b600260975403610b035760405162461bcd60e51b81526004016108a39061358e565b6002609755610b1061157b565b610b1c82826000611812565b50506001609755565b610b2d61157b565b610ade81611f39565b610b5b6040805160608101909152806000815260200160608152602001606081525090565b604080516060810190915260fe5460009190819060ff166001811115610b8357610b83613302565b81526020016000604051908082528060200260200182016040528015610bf857816020015b6040805161010081018252600060c0820181815260e0830182905282526020808301829052928201819052606082018190526080820181905260a08201528252600019909201910181610ba85790505b5081526020016000604051908082528060200260200182016040528015610c5f57816020015b6040805160c08101825260006080820181815260a083018290528252602080830182905292820181905260608201528252600019909201910181610c1e5790505b509052905083158015610c70575082155b15610c7c5790506108f9565b600080855b858111610d17576000818152610100602052604090206001015415610cb057610ca9836135f1565b9250610d0f565b600081815260ff602052604090206001015415610cd757610cd0826135f1565b9150610d0f565b60405162461bcd60e51b815260206004820152600d60248201526c496e76616c69642072616e676560981b60448201526064016108a3565b600101610c81565b508167ffffffffffffffff811115610d3157610d316135c5565b604051908082528060200260200182016040528015610d9f57816020015b6040805161010081018252600060c0820181815260e0830182905282526020808301829052928201819052606082018190526080820181905260a08201528252600019909201910181610d4f5790505b5060208401528067ffffffffffffffff811115610dbe57610dbe6135c5565b604051908082528060200260200182016040528015610e1d57816020015b6040805160c08101825260006080820181815260a083018290528252602080830182905292820181905260608201528252600019909201910181610ddc5790505b506040840152506000905080855b858111610fe4576000818152610100602052604090206001015415610f1a576000818152610100602081905260409182902082519182019092528154909190829060c08201908390829060ff166001811115610e8957610e89613302565b6001811115610e9a57610e9a613302565b81526001919091015460209182015290825260028301546001600160a01b03908116838301526003840154166040830152600483015460608301526005830154608083015260069092015460a09091015285015184610ef8816135f1565b955081518110610f0a57610f0a61360a565b6020026020010181905250610fdc565b600081815260ff602052604090206002015415610fd757600081815260ff6020819052604091829020825160c08101909352805490918391608083019184918391166001811115610f6d57610f6d613302565b6001811115610f7e57610f7e613302565b815260019190910154602091820152908252600283015490820152600382015460ff16151560408083019190915260049092015460609091015285015183610fc5816135f1565b945081518110610f0a57610f0a61360a565b610fe4565b600101610e2b565b509195945050505050565b6000610ffa816119e8565b610ade6120cf565b6000806040516020016110159190613620565b604051602081830303815290604052826040516020016110359190613655565b60408051601f198184030181529082905261105392916020016136da565b604051602081830303815290604052805190602001209050919050565b60009182526065602090815260408084206001600160a01b0393909316845291905290205460ff1690565b60006110a6816119e8565b6001600160a01b0382166110d05760405160016279c35d60e01b0319815260040160405180910390fd5b60fe546110fa9060008051602061396a8339815191529061010090046001600160a01b0316611e80565b61111260008051602061396a83398151915283611dfa565b60fe8054610100600160a81b0319166101006001600160a01b038516908102919091179091556040517f1b0f2f500df596b42b73e80dbec6a1fb570f01978a586723f988a5fc54d773a190600090a25050565b600060026040516020016111799190613620565b604051602081830303815290604052826040516020016110359190613709565b6101006020526000908152604090819020815180830190925280549091908290829060ff1660018111156111cf576111cf613302565b60018111156111e0576111e0613302565b815260019190910154602090910152600282015460038301546004840154600585015460069095015493946001600160a01b03938416949290931692909186565b6112466040805160608101909152806000815260200160608152602001606081525090565b61126760fc5460016112589190613741565b600160fb546105e99190613759565b905090565b610103818154811061127d57600080fd5b600091825260209091200154905081565b61129661157b565b6112a06000611f39565b565b60ff6020819052600091825260409182902082518084019093528054909291839183911660018111156112d7576112d7613302565b60018111156112e8576112e8613302565b815260019190910154602090910152600282015460038301546004909301549192909160ff9091169084565b600060016040516020016113289190613620565b604051602081830303815290604052826040516020016110359190613770565b60006108f98261210c565b60008281526065602052604090206001015461136e816119e8565b6109a88383611e80565b600054610100900460ff16158080156113985750600054600160ff909116105b806113b25750303b1580156113b2575060005460ff166001145b6114155760405162461bcd60e51b815260206004820152602e60248201527f496e697469616c697a61626c653a20636f6e747261637420697320616c72656160448201526d191e481a5b9a5d1a585b1a5e995960921b60648201526084016108a3565b6000805460ff191660011790558015611438576000805461ff0019166101001790555b61144061222f565b61144861222f565b611450612256565b611458612285565b6001600160a01b03841661147f57604051633944ed8760e11b815260040160405180910390fd5b61148a600085611dfa565b6001600160a01b0382166114b45760405160016279c35d60e01b0319815260040160405180910390fd5b6114cc60008051602061396a83398151915283611dfa565b60fe8054610100600160a81b031981166101006001600160a01b038616029081178355600160fb819055600060fc81905560fd558693926001600160a81b03191660ff199092169190911790838181111561152957611529613302565b02179055508015611575576000805461ff0019169055604051600181527f7f26b83ff96e1f2b6a682f133852f6798a09c465da95921460cefb3847402498906020015b60405180910390a15b50505050565b60c95460ff16156112a05760405162461bcd60e51b815260206004820152601060248201526f14185d5cd8589b194e881c185d5cd95960821b60448201526064016108a3565b60006115cc85611314565b90506115df6020860135828686866122b4565b6115e985826124a5565b60009081526101026020526040902080546001600160a01b03191673111111111111111111111111111111111111111117905550505050565b600061162d85611002565b90506116406020860135828686866122b4565b60008181526101026020526040902080546001600160a01b03198116731111111111111111111111111111111111111111179091556001600160a01b03168015611714576001611696608088016060890161346b565b6001600160a01b0316146116c7576116c2816116b86080890160608a0161346b565b886080013561260b565b6116d5565b6116d581876080013561268c565b604051828152602080880135917f2996fd546c37d74c170466ea6aa4a308e3ca2d4aa689e6e9e32994db5039cc0e910160405180910390a25050611575565b600061172860a08801356080890135613759565b9050600161173c6080890160608a0161346b565b6001600160a01b0316036117805761176361175d6060890160408a0161346b565b8261268c565b60a08701351561177b5761177b338860a0013561268c565b6117d1565b6117a96117936060890160408a0161346b565b6117a360808a0160608b0161346b565b8361260b565b60a0870135156117d1576117d1336117c760808a0160608b0161346b565b8960a0013561260b565b604051838152602080890135917f935f26d94be31907080aa78b3e6e2ac6d48a072af096c20268388621bbc11789910160405180910390a250505050505050565b81818160000361183557604051631f2a200560e01b815260040160405180910390fd5b818111156118605760405163202b316960e21b815260048101829052602481018390526044016108a3565b6001600160a01b0385166118875760405163ad1991f560e01b815260040160405180910390fd5b60006040518060c0016040528061189e60006126fa565b8152602001336001600160a01b03908116825288166020808301919091526040808301899052426060840152608090920187905282518101516000908152610100909152208151805182549394508493839190829060ff19166001838181111561190a5761190a613302565b0217905550602091820151600191909101558201516002820180546001600160a01b03199081166001600160a01b03938416179091556040840151600384018054909216908316179055606083015160048301556080830151600583015560a0909201516006909101558616336001600160a01b03168260000151602001517f225305ecb66fa9b9b29f8dead9baea365a6c225d639dfd866e782ccb63e2f05b88886040516119c3929190918252602082015260400190565b60405180910390a46119e06001600160a01b03871633308861274f565b505050505050565b610ade81336127ba565b8035600003611a14576040516369f1cfef60e01b815260040160405180910390fd5b602081013581351115611a475760405163722fc3f760e11b815281356004820152602082013560248201526044016108a3565b60fd54611a5660018335613759565b1115611a835760fd54604051630650047360e51b81528235600482015260248101919091526044016108a3565b60fd54816020013511611aba5760fd546040516350a792b160e01b81526020830135600482015260248101919091526044016108a3565b6101038054600181019091557f02c297ab74aad0aede3a1895c857b1f2c71e6a203feb727bec95ac752998cb78018290556000828152610101602052604090208190611b13828281358155602082013560018201555050565b5050602081013560fd556040517f49c158d490db9e066f01b5d4f1a094485a6598cb6c5296b4c07e46c12a1dc11c90611b4f90849084906137a6565b60405180910390a15050565b80608001358160a0013581600003611b8657604051631f2a200560e01b815260040160405180910390fd5b81811115611bb15760405163202b316960e21b815260048101829052602481018390526044016108a3565b6000611bc3606085016040860161346b565b6001600160a01b031603611bea5760405163d27b444360e01b815260040160405180910390fd5b6000611bf584611002565b600081815261010260205260409020549091506001600160a01b031615611c325760405163fea5945360e01b8152600481018290526024016108a3565b60008181526101026020526040812080546001600160a01b03191633179055611c6360a08601356080870135613759565b90506001611c77608087016060880161346b565b6001600160a01b031603611d3a57803414611cae57604051634ceaf5d360e11b8152346004820152602481018290526044016108a3565b33611cbf606087016040880161346b565b604080516020808a0135825281018590529081018590526001600160a01b0391909116907f7a9abd9eb86bdbca89cba4069a632c37d93db82e3e14ad8119a3a7812814853e9060600160405180910390a3611d3381611d24606088016040890161346b565b6001600160a01b03169061281e565b5050505050565b33611d4b606087016040880161346b565b604080516020808a0135825281018590529081018590526001600160a01b0391909116907f7a9abd9eb86bdbca89cba4069a632c37d93db82e3e14ad8119a3a7812814853e9060600160405180910390a3611d3333611db0606088016040890161346b565b83611dc160808a0160608b0161346b565b6001600160a01b031692919061274f565b6000611ddd85611165565b9050611df06020860135828686866122b4565b6115e98582612937565b611e048282611070565b610ac75760008281526065602090815260408083206001600160a01b03851684529091529020805460ff19166001179055611e3c3390565b6001600160a01b0316816001600160a01b0316837f2f8788117e7eff1d82e926ec794901d17c78024a50270940304540a733656f0d60405160405180910390a45050565b611e8a8282611070565b15610ac75760008281526065602090815260408083206001600160a01b0385168085529252808320805460ff1916905551339285917ff6391f5c32d9c69d2a47ea670b442974b53935d1edc7fd64eb21e047a839171b9190a45050565b611eef612a1c565b60c9805460ff191690557f5db9ee0a495bf2e6ff9c91a7834c1ba4fdd244a5e8aa4e537bd38aeae4b073aa335b6040516001600160a01b03909116815260200160405180910390a1565b348181600003611f5c57604051631f2a200560e01b815260040160405180910390fd5b81811115611f875760405163202b316960e21b815260048101829052602481018390526044016108a3565b60006040518060c00160405280611f9e60006126fa565b8152336020808301919091526001604080840182905234606085015242608085015260a0909301889052835182015160009081526101009092529190208251805182549495508594929391928492839160ff191690838181111561200457612004613302565b0217905550602091820151600191820155908301516002830180546001600160a01b039283166001600160a01b0319918216179091556040850151600385018054919093169116179055606083015160048301556080830151600583015560a0909201516006909101556120753390565b6001600160a01b03168260000151602001517f225305ecb66fa9b9b29f8dead9baea365a6c225d639dfd866e782ccb63e2f05b34886040516120c1929190918252602082015260400190565b60405180910390a450505050565b6120d761157b565b60c9805460ff191660011790557f62e78cea01bee320cd4e420270b5ea74000d11b0c9f74754ebdbfc544b05a258611f1c3390565b600060fd54821115612134576040516364b4f07960e11b8152600481018390526024016108a3565b61010354600081900361215a57604051635d43707560e01b815260040160405180910390fd5b805b80156121e6576000610103612172600184613759565b815481106121825761218261360a565b600091825260208083209091015480835261010182526040928390208351808501909452805480855260019091015492840192909252925086108015906121cd575080602001518611155b156121db5750949350505050565b50506000190161215c565b5060405162461bcd60e51b815260206004820152601c60248201527f426174636820776974682072657175657374206e6f7420666f756e640000000060448201526064016108a3565b600054610100900460ff166112a05760405162461bcd60e51b81526004016108a3906137c4565b600054610100900460ff1661227d5760405162461bcd60e51b81526004016108a3906137c4565b6112a0612a65565b600054610100900460ff166122ac5760405162461bcd60e51b81526004016108a3906137c4565b6112a0612a98565b600084815261010260205260409020546001600160a01b031673111111111111111111111111111111111111111019016123045760405163e99711f160e01b8152600481018590526024016108a3565b600083815261010160209081526040918290208251808401909352805480845260019091015491830191909152158061233f57506020810151155b1561235d576040516339075ba160e21b815260040160405180910390fd5b80516020820151101561239357805160208201516040516354b4960f60e11b8152600481019290925260248201526044016108a3565b80518610806123a55750806020015186115b156123da5780516020820151604051634d346e8960e01b815260048101899052602481019290925260448201526064016108a3565b805160208201516000916123ed91613759565b6123f8906001613741565b905063ffffffff81111561242257604051632095a53d60e21b8152600481018290526024016108a3565b81516000906124319089613759565b905060006124758883888880806020026020016040519081016040528093929190818152602001838360200280828437600092019190915250899250612ac6915050565b905080871461249a5760405163f6ae8d5360e01b8152600481018890526024016108a3565b505050505050505050565b6000600160fb546124b69190613759565b606084013511156124c957506001612511565b60006124dd60408501356060860135610b36565b9050806040516020016124f091906133a8565b60405160208183030381529060405280519060200120846080013514159150505b6000604051806080016040528061252860006126fa565b815260208681013581830152841515604080840191909152426060909301929092528251810151600090815260ff909152208151805182549394508493839190829060ff19166001838181111561258157612581613302565b02179055506020918201516001919091015582810151600283015560408084015160038401805460ff1916911515919091179055606090930151600490920191909155828101518383015183519015158152918201869052917f9ef11353afd97d339a77732850b7c22704656558d9ba63cc7e321e0ac4c20aa9910160405180910390a250505050565b8060000361262c576040516329c5442960e01b815260040160405180910390fd5b816001600160a01b0316836001600160a01b03167ee763f7778b8ceef7270c89b7d1df1008b0e482da39c43831417733af96fb0d8360405161267091815260200190565b60405180910390a36109a86001600160a01b0383168483612b14565b806000036126ad576040516329c5442960e01b815260040160405180910390fd5b816001600160a01b03167fe0495355c1e04c512584521854d222d239a4b782b39ac8a7e835a34f5ec7c1e1826040516126e891815260200190565b60405180910390a2610ac7828261281e565b6040805180820190915260008082526020820152604051806040016040528083600181111561272b5761272b613302565b815260200160fb6000815480929190612743906135f1565b90915550905292915050565b6040516001600160a01b03808516602483015283166044820152606481018290526115759085906323b872dd60e01b906084015b60408051601f198184030181529190526020810180516001600160e01b03166001600160e01b031990931692909217909152612b44565b6127c48282611070565b610ac7576127dc816001600160a01b03166014612c16565b6127e7836020612c16565b6040516020016127f892919061380f565b60408051601f198184030181529082905262461bcd60e51b82526108a391600401613884565b8047101561286e5760405162461bcd60e51b815260206004820152601d60248201527f416464726573733a20696e73756666696369656e742062616c616e636500000060448201526064016108a3565b6000826001600160a01b03168260405160006040518083038185875af1925050503d80600081146128bb576040519150601f19603f3d011682016040523d82523d6000602084013e6128c0565b606091505b50509050806109a85760405162461bcd60e51b815260206004820152603a60248201527f416464726573733a20756e61626c6520746f2073656e642076616c75652c207260448201527f6563697069656e74206d6179206861766520726576657274656400000000000060648201526084016108a3565b6040808301356000908152610100602052908120600281015490916001600160a01b039091169061296e608086016060870161346b565b6001600160a01b03161461298f5761298c608085016060860161346b565b90505b60038201546001600160a01b03166001146129ca57600382015460048301546129c59183916001600160a01b039091169061260b565b6129d8565b6129d881836004015461268c565b60408051602086810135825286830135908201529081018490527f13750c731f87c15242874ce74bf4649502cc8e7c829067ce846505acdb96289d9060600161156c565b60c95460ff166112a05760405162461bcd60e51b815260206004820152601460248201527314185d5cd8589b194e881b9bdd081c185d5cd95960621b60448201526064016108a3565b600054610100900460ff16612a8c5760405162461bcd60e51b81526004016108a3906137c4565b60c9805460ff19169055565b600054610100900460ff16612abf5760405162461bcd60e51b81526004016108a3906137c4565b6001609755565b600080825b8015612af057612adc6002826138cd565b9050612ae9600183613741565b9150612acb565b612b09828789886000612b0460018b613759565b612db9565b979650505050505050565b6040516001600160a01b0383166024820152604481018290526109a890849063a9059cbb60e01b90606401612783565b6000612b99826040518060400160405280602081526020017f5361666545524332303a206c6f772d6c6576656c2063616c6c206661696c6564815250856001600160a01b0316612ec99092919063ffffffff16565b8051909150156109a85780806020019051810190612bb791906138e1565b6109a85760405162461bcd60e51b815260206004820152602a60248201527f5361666545524332303a204552433230206f7065726174696f6e20646964206e6044820152691bdd081cdd58d8d9595960b21b60648201526084016108a3565b60606000612c25836002613903565b612c30906002613741565b67ffffffffffffffff811115612c4857612c486135c5565b6040519080825280601f01601f191660200182016040528015612c72576020820181803683370190505b509050600360fc1b81600081518110612c8d57612c8d61360a565b60200101906001600160f81b031916908160001a905350600f60fb1b81600181518110612cbc57612cbc61360a565b60200101906001600160f81b031916908160001a9053506000612ce0846002613903565b612ceb906001613741565b90505b6001811115612d63576f181899199a1a9b1b9c1cb0b131b232b360811b85600f1660108110612d1f57612d1f61360a565b1a60f81b828281518110612d3557612d3561360a565b60200101906001600160f81b031916908160001a90535060049490941c93612d5c81613922565b9050612cee565b508315612db25760405162461bcd60e51b815260206004820181905260248201527f537472696e67733a20686578206c656e67746820696e73756666696369656e7460448201526064016108a3565b9392505050565b6000612dc6600287613939565b600003612e3157858214612e8a57848484612de0816135f1565b955081518110612df257612df261360a565b6020026020010151604051602001612e14929190918252602082015260400190565b604051602081830303815290604052805190602001209450612e8a565b8383612e3c816135f1565b945081518110612e4e57612e4e61360a565b602002602001015185604051602001612e71929190918252602082015260400190565b6040516020818303038152906040528051906020012094505b86600114612ebe57612eb9612ea0600189613759565b612eab6002896138cd565b878787612b046002896138cd565b612b09565b509295945050505050565b6060612ed88484600085612ee0565b949350505050565b606082471015612f415760405162461bcd60e51b815260206004820152602660248201527f416464726573733a20696e73756666696369656e742062616c616e636520666f6044820152651c8818d85b1b60d21b60648201526084016108a3565b6001600160a01b0385163b612f985760405162461bcd60e51b815260206004820152601d60248201527f416464726573733a2063616c6c20746f206e6f6e2d636f6e747261637400000060448201526064016108a3565b600080866001600160a01b03168587604051612fb4919061394d565b60006040518083038185875af1925050503d8060008114612ff1576040519150601f19603f3d011682016040523d82523d6000602084013e612ff6565b606091505b5091509150612b0982828660608315613010575081612db2565b8251156130205782518084602001fd5b8160405162461bcd60e51b81526004016108a39190613884565b600060a0828403121561304c57600080fd5b50919050565b60008083601f84011261306457600080fd5b50813567ffffffffffffffff81111561307c57600080fd5b6020830191508360208260051b850101111561309757600080fd5b9250929050565b60008060008060e085870312156130b457600080fd5b6130be868661303a565b935060a0850135925060c085013567ffffffffffffffff8111156130e157600080fd5b6130ed87828801613052565b95989497509550505050565b60006020828403121561310b57600080fd5b81356001600160e01b031981168114612db257600080fd5b600060c0828403121561304c57600080fd5b600080600080610100858703121561314c57600080fd5b6131568686613123565b935060c0850135925060e085013567ffffffffffffffff8111156130e157600080fd5b80356001600160a01b038116811461319057600080fd5b919050565b6000806000606084860312156131aa57600080fd5b6131b384613179565b95602085013595506040909401359392505050565b60008082840360608112156131dc57600080fd5b833592506040601f19820112156131f257600080fd5b506020830190509250929050565b600060c0828403121561321257600080fd5b612db28383613123565b60006020828403121561322e57600080fd5b5035919050565b60006080828403121561304c57600080fd5b60008060008060c0858703121561325d57600080fd5b6132678686613235565b93506080850135925060a085013567ffffffffffffffff8111156130e157600080fd5b6000806040838503121561329d57600080fd5b823591506132ad60208401613179565b90509250929050565b600080604083850312156132c957600080fd5b6132d283613179565b946020939093013593505050565b600080604083850312156132f357600080fd5b50508035926020909101359150565b634e487b7160e01b600052602160045260246000fd5b60028110610ade57610ade613302565b805161333381613318565b8252602090810151910152565b600081518084526020808501945080840160005b8381101561339d578151613369888251613328565b8084015160408981019190915281015115156060808a01919091520151608088015260a09096019590820190600101613354565b509495945050505050565b60006020808352608080840185516133bf81613318565b85840152858301516060604080880182905282519384905260a093928601928489019060005b818110156134405785516133fa848251613328565b808a01516001600160a01b03908116858701528582015116868501528581015189850152888101518885015287015160c08401529488019460e0909201916001016133e5565b505089820151898203601f1901848b0152965061345d8188613340565b9a9950505050505050505050565b60006020828403121561347d57600080fd5b612db282613179565b60006080828403121561349857600080fd5b612db28383613235565b60e081016134b08289613328565b6001600160a01b039687166040830152949095166060860152608085019290925260a084015260c090920191909152919050565b602081016134f183613318565b91905290565b60a081016135058287613328565b60408201949094529115156060830152608090910152919050565b600060a0828403121561353257600080fd5b612db2838361303a565b60028110610ade57600080fd5b60008060006060848603121561355e57600080fd5b61356784613179565b925060208401356135778161353c565b915061358560408501613179565b90509250925092565b6020808252601f908201527f5265656e7472616e637947756172643a207265656e7472616e742063616c6c00604082015260600190565b634e487b7160e01b600052604160045260246000fd5b634e487b7160e01b600052601160045260246000fd5b600060018201613603576136036135db565b5060010190565b634e487b7160e01b600052603260045260246000fd5b60208101600383106134f1576134f1613302565b803561363f8161353c565b61364881613318565b8252602090810135910152565b60c081016136638284613634565b61366f60408401613179565b6001600160a01b0381811660408501528061368c60608701613179565b16606085015250506080830135608083015260a083013560a083015292915050565b60005b838110156136c95781810151838201526020016136b1565b838111156115755750506000910152565b600083516136ec8184602088016136ae565b8351908301906137008183602088016136ae565b01949350505050565b608081016137178284613634565b604083810135908301526001600160a01b0361373560608501613179565b16606083015292915050565b60008219821115613754576137546135db565b500190565b60008282101561376b5761376b6135db565b500390565b60a0810161377e8284613634565b613798604083016040850180358252602090810135910152565b608092830135919092015290565b82815260608101612db2602083018480358252602090810135910152565b6020808252602b908201527f496e697469616c697a61626c653a20636f6e7472616374206973206e6f74206960408201526a6e697469616c697a696e6760a81b606082015260800190565b7f416363657373436f6e74726f6c3a206163636f756e74200000000000000000008152600083516138478160178501602088016136ae565b7001034b99036b4b9b9b4b733903937b6329607d1b60179184019182015283516138788160288401602088016136ae565b01602801949350505050565b60208152600082518060208401526138a38160408501602087016136ae565b601f01601f19169190910160400192915050565b634e487b7160e01b600052601260045260246000fd5b6000826138dc576138dc6138b7565b500490565b6000602082840312156138f357600080fd5b81518015158114612db257600080fd5b600081600019048311821515161561391d5761391d6135db565b500290565b600081613931576139316135db565b506000190190565b600082613948576139486138b7565b500690565b6000825161395f8184602087016136ae565b919091019291505056fe73e573f9566d61418a34d5de3ff49360f9c51fec37f7486551670290f6285daba2646970667358221220f64589f6350d46e511fd0fb86ce710223a953d64d3534be44faa39acde37970664736f6c634300080d0033",
		"linkReferences": {}
	},
	"methodIdentifiers": {
		"CLOSED()": "0e2636a3",
		"DEFAULT_ADMIN_ROLE()": "a217fddf",
		"NATIVE_TOKEN_ADDRESS()": "df2ebdbb",
		"UPDATER_ROLE()": "47e63380",
		"cancelResolutions(uint256)": "ca9b21ae",
		"chain()": "c763e5a1",
		"closeCancel(((uint8,uint256),(uint256,uint256),bytes32),bytes32,bytes32[])": "d1cb26b4",
		"closeDepositRefund(((uint8,uint256),uint256,address),bytes32,bytes32[])": "25afc76a",
		"closeWithdrawal(((uint8,uint256),address,address,uint256,uint256),bytes32,bytes32[])": "03ed49d3",
		"close_cancel(((uint8,uint256),(uint256,uint256),bytes32),bytes32,bytes32[])": "01ef6966",
		"close_deposit_refund(((uint8,uint256),uint256,address),bytes32,bytes32[])": "950ac487",
		"close_withdrawal(((uint8,uint256),address,address,uint256,uint256),bytes32,bytes32[])": "4bf5fec3",
		"counter()": "61bc221a",
		"deposit(address,uint256)": "47e7ef24",
		"deposit(address,uint256,uint256)": "0efe6a8b",
		"depositERC20(address,uint256)": "97feb926",
		"depositERC20(address,uint256,uint256)": "21425ee0",
		"depositNative()": "db6b5246",
		"depositNative(uint256)": "608fc37a",
		"deposit_erc20(address,uint256)": "d16544f0",
		"deposit_erc20(address,uint256,uint256)": "08aba1b2",
		"deposit_native()": "c87c2224",
		"deposit_native(uint256)": "dffbdd9f",
		"deposits(uint256)": "b02c43d0",
		"ferryWithdrawal(((uint8,uint256),address,address,uint256,uint256))": "676f536b",
		"ferry_withdrawal(((uint8,uint256),address,address,uint256,uint256))": "0cac57ab",
		"findL2Batch(uint256)": "ce2de1bc",
		"find_l2_batch(uint256)": "f9ecd01e",
		"getMerkleRootsLength()": "ff2bae86",
		"getPendingRequests(uint256,uint256)": "79e041f2",
		"getRoleAdmin(bytes32)": "248a9ca3",
		"getUpdateForL2()": "b1538706",
		"grantRole(bytes32,address)": "2f2ff15d",
		"hasRole(bytes32,address)": "91d14854",
		"hashCancel(((uint8,uint256),(uint256,uint256),bytes32))": "cc8c909f",
		"hashFailedDepositResolution(((uint8,uint256),uint256,address))": "ae46db11",
		"hashWithdrawal(((uint8,uint256),address,address,uint256,uint256))": "890e95ce",
		"initialize(address,uint8,address)": "f35f9e45",
		"lastProcessedUpdate_origin_l1()": "7fd4f845",
		"lastProcessedUpdate_origin_l2()": "f26ee9d0",
		"merkleRootRange(bytes32)": "4f48eedf",
		"pause()": "8456cb59",
		"paused()": "5c975abb",
		"processedL2Requests(bytes32)": "de70e0b8",
		"renounceRole(bytes32,address)": "36568abe",
		"revokeRole(bytes32,address)": "d547741f",
		"roots(uint256)": "c2b40ae4",
		"setUpdater(address)": "9d54f419",
		"supportsInterface(bytes4)": "01ffc9a7",
		"unpause()": "3f4ba83a",
		"updateL1FromL2(bytes32,(uint256,uint256))": "8e24e392",
		"update_l1_from_l2(bytes32,(uint256,uint256))": "08f42d40",
		"updaterAccount()": "71c54461"
	},
	"id": 82
}