{
  "abi": [
    {
      "inputs": [
        {
          "internalType": "contract IRegistryCoordinator",
          "name": "_registryCoordinator",
          "type": "address"
        },
        {
          "internalType": "uint32",
          "name": "_taskResponseWindowBlock",
          "type": "uint32"
        }
      ],
      "stateMutability": "nonpayable",
      "type": "constructor"
    },
    {
      "anonymous": false,
      "inputs": [
        {
          "indexed": false,
          "internalType": "uint8",
          "name": "version",
          "type": "uint8"
        }
      ],
      "name": "Initialized",
      "type": "event"
    },
    {
      "anonymous": false,
      "inputs": [
        {
          "indexed": true,
          "internalType": "uint32",
          "name": "taskIndex",
          "type": "uint32"
        },
        {
          "components": [
            {
              "internalType": "uint256",
              "name": "blockNumber",
              "type": "uint256"
            },
            {
              "internalType": "uint32",
              "name": "taskCreatedBlock",
              "type": "uint32"
            },
            {
              "internalType": "bytes",
              "name": "quorumNumbers",
              "type": "bytes"
            },
            {
              "internalType": "uint32",
              "name": "quorumThresholdPercentage",
              "type": "uint32"
            }
          ],
          "indexed": false,
          "internalType": "struct IFinalizerTaskManager.Task",
          "name": "task",
          "type": "tuple"
        }
      ],
      "name": "NewTaskCreated",
      "type": "event"
    },
    {
      "anonymous": false,
      "inputs": [
        {
          "indexed": true,
          "internalType": "address",
          "name": "previousOwner",
          "type": "address"
        },
        {
          "indexed": true,
          "internalType": "address",
          "name": "newOwner",
          "type": "address"
        }
      ],
      "name": "OwnershipTransferred",
      "type": "event"
    },
    {
      "anonymous": false,
      "inputs": [
        {
          "indexed": true,
          "internalType": "address",
          "name": "account",
          "type": "address"
        },
        {
          "indexed": false,
          "internalType": "uint256",
          "name": "newPausedStatus",
          "type": "uint256"
        }
      ],
      "name": "Paused",
      "type": "event"
    },
    {
      "anonymous": false,
      "inputs": [
        {
          "indexed": false,
          "internalType": "contract IPauserRegistry",
          "name": "pauserRegistry",
          "type": "address"
        },
        {
          "indexed": false,
          "internalType": "contract IPauserRegistry",
          "name": "newPauserRegistry",
          "type": "address"
        }
      ],
      "name": "PauserRegistrySet",
      "type": "event"
    },
    {
      "anonymous": false,
      "inputs": [
        {
          "indexed": false,
          "internalType": "bool",
          "name": "value",
          "type": "bool"
        }
      ],
      "name": "StaleStakesForbiddenUpdate",
      "type": "event"
    },
    {
      "anonymous": false,
      "inputs": [
        {
          "indexed": true,
          "internalType": "uint32",
          "name": "taskIndex",
          "type": "uint32"
        },
        {
          "indexed": true,
          "internalType": "bytes32",
          "name": "blockHash",
          "type": "bytes32"
        }
      ],
      "name": "TaskCompleted",
      "type": "event"
    },
    {
      "anonymous": false,
      "inputs": [
        {
          "components": [
            {
              "internalType": "uint32",
              "name": "referenceTaskIndex",
              "type": "uint32"
            },
            {
              "internalType": "bytes32",
              "name": "blockHash",
              "type": "bytes32"
            },
            {
              "internalType": "bytes32",
              "name": "storageProofHash",
              "type": "bytes32"
            },
            {
              "internalType": "bytes32",
              "name": "pendingStateHash",
              "type": "bytes32"
            }
          ],
          "indexed": false,
          "internalType": "struct IFinalizerTaskManager.TaskResponse",
          "name": "taskResponse",
          "type": "tuple"
        },
        {
          "components": [
            {
              "internalType": "uint32",
              "name": "taskResponsedBlock",
              "type": "uint32"
            },
            {
              "internalType": "bytes32",
              "name": "hashOfNonSigners",
              "type": "bytes32"
            },
            {
              "internalType": "uint96[]",
              "name": "quroumStakeTotals",
              "type": "uint96[]"
            },
            {
              "internalType": "uint96[]",
              "name": "quroumStakeSigned",
              "type": "uint96[]"
            }
          ],
          "indexed": false,
          "internalType": "struct IFinalizerTaskManager.TaskResponseMetadata",
          "name": "taskResponseMetadata",
          "type": "tuple"
        }
      ],
      "name": "TaskResponded",
      "type": "event"
    },
    {
      "anonymous": false,
      "inputs": [
        {
          "indexed": true,
          "internalType": "address",
          "name": "account",
          "type": "address"
        },
        {
          "indexed": false,
          "internalType": "uint256",
          "name": "newPausedStatus",
          "type": "uint256"
        }
      ],
      "name": "Unpaused",
      "type": "event"
    },
    {
      "inputs": [],
      "name": "aggregator",
      "outputs": [
        {
          "internalType": "address",
          "name": "",
          "type": "address"
        }
      ],
      "stateMutability": "view",
      "type": "function"
    },
    {
      "inputs": [
        {
          "internalType": "uint32",
          "name": "",
          "type": "uint32"
        }
      ],
      "name": "allTaskHashes",
      "outputs": [
        {
          "internalType": "bytes32",
          "name": "",
          "type": "bytes32"
        }
      ],
      "stateMutability": "view",
      "type": "function"
    },
    {
      "inputs": [
        {
          "internalType": "uint32",
          "name": "",
          "type": "uint32"
        }
      ],
      "name": "allTaskResponses",
      "outputs": [
        {
          "internalType": "bytes32",
          "name": "",
          "type": "bytes32"
        }
      ],
      "stateMutability": "view",
      "type": "function"
    },
    {
      "inputs": [],
      "name": "blsApkRegistry",
      "outputs": [
        {
          "internalType": "contract IBLSApkRegistry",
          "name": "",
          "type": "address"
        }
      ],
      "stateMutability": "view",
      "type": "function"
    },
    {
      "inputs": [
        {
          "internalType": "bytes32",
          "name": "msgHash",
          "type": "bytes32"
        },
        {
          "internalType": "bytes",
          "name": "quorumNumbers",
          "type": "bytes"
        },
        {
          "internalType": "uint32",
          "name": "referenceBlockNumber",
          "type": "uint32"
        },
        {
          "components": [
            {
              "internalType": "uint32[]",
              "name": "nonSignerQuorumBitmapIndices",
              "type": "uint32[]"
            },
            {
              "components": [
                {
                  "internalType": "uint256",
                  "name": "X",
                  "type": "uint256"
                },
                {
                  "internalType": "uint256",
                  "name": "Y",
                  "type": "uint256"
                }
              ],
              "internalType": "struct BN254.G1Point[]",
              "name": "nonSignerPubkeys",
              "type": "tuple[]"
            },
            {
              "components": [
                {
                  "internalType": "uint256",
                  "name": "X",
                  "type": "uint256"
                },
                {
                  "internalType": "uint256",
                  "name": "Y",
                  "type": "uint256"
                }
              ],
              "internalType": "struct BN254.G1Point[]",
              "name": "quorumApks",
              "type": "tuple[]"
            },
            {
              "components": [
                {
                  "internalType": "uint256[2]",
                  "name": "X",
                  "type": "uint256[2]"
                },
                {
                  "internalType": "uint256[2]",
                  "name": "Y",
                  "type": "uint256[2]"
                }
              ],
              "internalType": "struct BN254.G2Point",
              "name": "apkG2",
              "type": "tuple"
            },
            {
              "components": [
                {
                  "internalType": "uint256",
                  "name": "X",
                  "type": "uint256"
                },
                {
                  "internalType": "uint256",
                  "name": "Y",
                  "type": "uint256"
                }
              ],
              "internalType": "struct BN254.G1Point",
              "name": "sigma",
              "type": "tuple"
            },
            {
              "internalType": "uint32[]",
              "name": "quorumApkIndices",
              "type": "uint32[]"
            },
            {
              "internalType": "uint32[]",
              "name": "totalStakeIndices",
              "type": "uint32[]"
            },
            {
              "internalType": "uint32[][]",
              "name": "nonSignerStakeIndices",
              "type": "uint32[][]"
            }
          ],
          "internalType": "struct IBLSSignatureChecker.NonSignerStakesAndSignature",
          "name": "params",
          "type": "tuple"
        }
      ],
      "name": "checkSignatures",
      "outputs": [
        {
          "components": [
            {
              "internalType": "uint96[]",
              "name": "signedStakeForQuorum",
              "type": "uint96[]"
            },
            {
              "internalType": "uint96[]",
              "name": "totalStakeForQuorum",
              "type": "uint96[]"
            }
          ],
          "internalType": "struct IBLSSignatureChecker.QuorumStakeTotals",
          "name": "",
          "type": "tuple"
        },
        {
          "internalType": "bytes32",
          "name": "",
          "type": "bytes32"
        }
      ],
      "stateMutability": "view",
      "type": "function"
    },
    {
      "inputs": [
        {
          "internalType": "uint256",
          "name": "blockNumber",
          "type": "uint256"
        },
        {
          "internalType": "uint32",
          "name": "quorumThresholdPercentage",
          "type": "uint32"
        },
        {
          "internalType": "bytes",
          "name": "quorumNumbers",
          "type": "bytes"
        }
      ],
      "name": "createNewTask",
      "outputs": [],
      "stateMutability": "nonpayable",
      "type": "function"
    },
    {
      "inputs": [],
      "name": "delegation",
      "outputs": [
        {
          "internalType": "contract IDelegationManager",
          "name": "",
          "type": "address"
        }
      ],
      "stateMutability": "view",
      "type": "function"
    },
    {
      "inputs": [],
      "name": "generator",
      "outputs": [
        {
          "internalType": "address",
          "name": "",
          "type": "address"
        }
      ],
      "stateMutability": "view",
      "type": "function"
    },
    {
      "inputs": [
        {
          "internalType": "contract IRegistryCoordinator",
          "name": "registryCoordinator",
          "type": "address"
        },
        {
          "internalType": "uint32",
          "name": "referenceBlockNumber",
          "type": "uint32"
        },
        {
          "internalType": "bytes",
          "name": "quorumNumbers",
          "type": "bytes"
        },
        {
          "internalType": "bytes32[]",
          "name": "nonSignerOperatorIds",
          "type": "bytes32[]"
        }
      ],
      "name": "getCheckSignaturesIndices",
      "outputs": [
        {
          "components": [
            {
              "internalType": "uint32[]",
              "name": "nonSignerQuorumBitmapIndices",
              "type": "uint32[]"
            },
            {
              "internalType": "uint32[]",
              "name": "quorumApkIndices",
              "type": "uint32[]"
            },
            {
              "internalType": "uint32[]",
              "name": "totalStakeIndices",
              "type": "uint32[]"
            },
            {
              "internalType": "uint32[][]",
              "name": "nonSignerStakeIndices",
              "type": "uint32[][]"
            }
          ],
          "internalType": "struct OperatorStateRetriever.CheckSignaturesIndices",
          "name": "",
          "type": "tuple"
        }
      ],
      "stateMutability": "view",
      "type": "function"
    },
    {
      "inputs": [],
      "name": "getLatestPendingStateHash",
      "outputs": [
        {
          "internalType": "bytes32",
          "name": "",
          "type": "bytes32"
        }
      ],
      "stateMutability": "view",
      "type": "function"
    },
    {
      "inputs": [
        {
          "internalType": "contract IRegistryCoordinator",
          "name": "registryCoordinator",
          "type": "address"
        },
        {
          "internalType": "bytes",
          "name": "quorumNumbers",
          "type": "bytes"
        },
        {
          "internalType": "uint32",
          "name": "blockNumber",
          "type": "uint32"
        }
      ],
      "name": "getOperatorState",
      "outputs": [
        {
          "components": [
            {
              "internalType": "address",
              "name": "operator",
              "type": "address"
            },
            {
              "internalType": "bytes32",
              "name": "operatorId",
              "type": "bytes32"
            },
            {
              "internalType": "uint96",
              "name": "stake",
              "type": "uint96"
            }
          ],
          "internalType": "struct OperatorStateRetriever.Operator[][]",
          "name": "",
          "type": "tuple[][]"
        }
      ],
      "stateMutability": "view",
      "type": "function"
    },
    {
      "inputs": [
        {
          "internalType": "contract IRegistryCoordinator",
          "name": "registryCoordinator",
          "type": "address"
        },
        {
          "internalType": "bytes32",
          "name": "operatorId",
          "type": "bytes32"
        },
        {
          "internalType": "uint32",
          "name": "blockNumber",
          "type": "uint32"
        }
      ],
      "name": "getOperatorState",
      "outputs": [
        {
          "internalType": "uint256",
          "name": "",
          "type": "uint256"
        },
        {
          "components": [
            {
              "internalType": "address",
              "name": "operator",
              "type": "address"
            },
            {
              "internalType": "bytes32",
              "name": "operatorId",
              "type": "bytes32"
            },
            {
              "internalType": "uint96",
              "name": "stake",
              "type": "uint96"
            }
          ],
          "internalType": "struct OperatorStateRetriever.Operator[][]",
          "name": "",
          "type": "tuple[][]"
        }
      ],
      "stateMutability": "view",
      "type": "function"
    },
    {
      "inputs": [
        {
          "internalType": "contract IRegistryCoordinator",
          "name": "registryCoordinator",
          "type": "address"
        },
        {
          "internalType": "bytes32[]",
          "name": "operatorIds",
          "type": "bytes32[]"
        },
        {
          "internalType": "uint32",
          "name": "blockNumber",
          "type": "uint32"
        }
      ],
      "name": "getQuorumBitmapsAtBlockNumber",
      "outputs": [
        {
          "internalType": "uint256[]",
          "name": "",
          "type": "uint256[]"
        }
      ],
      "stateMutability": "view",
      "type": "function"
    },
    {
      "inputs": [],
      "name": "getTaskResponseWindowBlock",
      "outputs": [
        {
          "internalType": "uint32",
          "name": "",
          "type": "uint32"
        }
      ],
      "stateMutability": "view",
      "type": "function"
    },
    {
      "inputs": [
        {
          "internalType": "contract IPauserRegistry",
          "name": "_pauserRegistry",
          "type": "address"
        },
        {
          "internalType": "address",
          "name": "initialOwner",
          "type": "address"
        },
        {
          "internalType": "address",
          "name": "_aggregator",
          "type": "address"
        },
        {
          "internalType": "address",
          "name": "_generator",
          "type": "address"
        }
      ],
      "name": "initialize",
      "outputs": [],
      "stateMutability": "nonpayable",
      "type": "function"
    },
    {
      "inputs": [],
      "name": "latestTaskNum",
      "outputs": [
        {
          "internalType": "uint32",
          "name": "",
          "type": "uint32"
        }
      ],
      "stateMutability": "view",
      "type": "function"
    },
    {
      "inputs": [],
      "name": "owner",
      "outputs": [
        {
          "internalType": "address",
          "name": "",
          "type": "address"
        }
      ],
      "stateMutability": "view",
      "type": "function"
    },
    {
      "inputs": [
        {
          "internalType": "uint256",
          "name": "newPausedStatus",
          "type": "uint256"
        }
      ],
      "name": "pause",
      "outputs": [],
      "stateMutability": "nonpayable",
      "type": "function"
    },
    {
      "inputs": [],
      "name": "pauseAll",
      "outputs": [],
      "stateMutability": "nonpayable",
      "type": "function"
    },
    {
      "inputs": [
        {
          "internalType": "uint8",
          "name": "index",
          "type": "uint8"
        }
      ],
      "name": "paused",
      "outputs": [
        {
          "internalType": "bool",
          "name": "",
          "type": "bool"
        }
      ],
      "stateMutability": "view",
      "type": "function"
    },
    {
      "inputs": [],
      "name": "paused",
      "outputs": [
        {
          "internalType": "uint256",
          "name": "",
          "type": "uint256"
        }
      ],
      "stateMutability": "view",
      "type": "function"
    },
    {
      "inputs": [],
      "name": "pauserRegistry",
      "outputs": [
        {
          "internalType": "contract IPauserRegistry",
          "name": "",
          "type": "address"
        }
      ],
      "stateMutability": "view",
      "type": "function"
    },
    {
      "inputs": [],
      "name": "registryCoordinator",
      "outputs": [
        {
          "internalType": "contract IRegistryCoordinator",
          "name": "",
          "type": "address"
        }
      ],
      "stateMutability": "view",
      "type": "function"
    },
    {
      "inputs": [],
      "name": "renounceOwnership",
      "outputs": [],
      "stateMutability": "nonpayable",
      "type": "function"
    },
    {
      "inputs": [
        {
          "components": [
            {
              "internalType": "uint256",
              "name": "blockNumber",
              "type": "uint256"
            },
            {
              "internalType": "uint32",
              "name": "taskCreatedBlock",
              "type": "uint32"
            },
            {
              "internalType": "bytes",
              "name": "quorumNumbers",
              "type": "bytes"
            },
            {
              "internalType": "uint32",
              "name": "quorumThresholdPercentage",
              "type": "uint32"
            }
          ],
          "internalType": "struct IFinalizerTaskManager.Task",
          "name": "task",
          "type": "tuple"
        },
        {
          "components": [
            {
              "internalType": "uint32",
              "name": "referenceTaskIndex",
              "type": "uint32"
            },
            {
              "internalType": "bytes32",
              "name": "blockHash",
              "type": "bytes32"
            },
            {
              "internalType": "bytes32",
              "name": "storageProofHash",
              "type": "bytes32"
            },
            {
              "internalType": "bytes32",
              "name": "pendingStateHash",
              "type": "bytes32"
            }
          ],
          "internalType": "struct IFinalizerTaskManager.TaskResponse",
          "name": "taskResponse",
          "type": "tuple"
        },
        {
          "components": [
            {
              "internalType": "uint32[]",
              "name": "nonSignerQuorumBitmapIndices",
              "type": "uint32[]"
            },
            {
              "components": [
                {
                  "internalType": "uint256",
                  "name": "X",
                  "type": "uint256"
                },
                {
                  "internalType": "uint256",
                  "name": "Y",
                  "type": "uint256"
                }
              ],
              "internalType": "struct BN254.G1Point[]",
              "name": "nonSignerPubkeys",
              "type": "tuple[]"
            },
            {
              "components": [
                {
                  "internalType": "uint256",
                  "name": "X",
                  "type": "uint256"
                },
                {
                  "internalType": "uint256",
                  "name": "Y",
                  "type": "uint256"
                }
              ],
              "internalType": "struct BN254.G1Point[]",
              "name": "quorumApks",
              "type": "tuple[]"
            },
            {
              "components": [
                {
                  "internalType": "uint256[2]",
                  "name": "X",
                  "type": "uint256[2]"
                },
                {
                  "internalType": "uint256[2]",
                  "name": "Y",
                  "type": "uint256[2]"
                }
              ],
              "internalType": "struct BN254.G2Point",
              "name": "apkG2",
              "type": "tuple"
            },
            {
              "components": [
                {
                  "internalType": "uint256",
                  "name": "X",
                  "type": "uint256"
                },
                {
                  "internalType": "uint256",
                  "name": "Y",
                  "type": "uint256"
                }
              ],
              "internalType": "struct BN254.G1Point",
              "name": "sigma",
              "type": "tuple"
            },
            {
              "internalType": "uint32[]",
              "name": "quorumApkIndices",
              "type": "uint32[]"
            },
            {
              "internalType": "uint32[]",
              "name": "totalStakeIndices",
              "type": "uint32[]"
            },
            {
              "internalType": "uint32[][]",
              "name": "nonSignerStakeIndices",
              "type": "uint32[][]"
            }
          ],
          "internalType": "struct IBLSSignatureChecker.NonSignerStakesAndSignature",
          "name": "nonSignerStakesAndSignature",
          "type": "tuple"
        }
      ],
      "name": "respondToTask",
      "outputs": [],
      "stateMutability": "nonpayable",
      "type": "function"
    },
    {
      "inputs": [
        {
          "internalType": "contract IPauserRegistry",
          "name": "newPauserRegistry",
          "type": "address"
        }
      ],
      "name": "setPauserRegistry",
      "outputs": [],
      "stateMutability": "nonpayable",
      "type": "function"
    },
    {
      "inputs": [
        {
          "internalType": "bool",
          "name": "value",
          "type": "bool"
        }
      ],
      "name": "setStaleStakesForbidden",
      "outputs": [],
      "stateMutability": "nonpayable",
      "type": "function"
    },
    {
      "inputs": [],
      "name": "stakeRegistry",
      "outputs": [
        {
          "internalType": "contract IStakeRegistry",
          "name": "",
          "type": "address"
        }
      ],
      "stateMutability": "view",
      "type": "function"
    },
    {
      "inputs": [],
      "name": "staleStakesForbidden",
      "outputs": [
        {
          "internalType": "bool",
          "name": "",
          "type": "bool"
        }
      ],
      "stateMutability": "view",
      "type": "function"
    },
    {
      "inputs": [],
      "name": "taskNumber",
      "outputs": [
        {
          "internalType": "uint32",
          "name": "",
          "type": "uint32"
        }
      ],
      "stateMutability": "view",
      "type": "function"
    },
    {
      "inputs": [
        {
          "internalType": "address",
          "name": "newOwner",
          "type": "address"
        }
      ],
      "name": "transferOwnership",
      "outputs": [],
      "stateMutability": "nonpayable",
      "type": "function"
    },
    {
      "inputs": [
        {
          "internalType": "bytes32",
          "name": "msgHash",
          "type": "bytes32"
        },
        {
          "components": [
            {
              "internalType": "uint256",
              "name": "X",
              "type": "uint256"
            },
            {
              "internalType": "uint256",
              "name": "Y",
              "type": "uint256"
            }
          ],
          "internalType": "struct BN254.G1Point",
          "name": "apk",
          "type": "tuple"
        },
        {
          "components": [
            {
              "internalType": "uint256[2]",
              "name": "X",
              "type": "uint256[2]"
            },
            {
              "internalType": "uint256[2]",
              "name": "Y",
              "type": "uint256[2]"
            }
          ],
          "internalType": "struct BN254.G2Point",
          "name": "apkG2",
          "type": "tuple"
        },
        {
          "components": [
            {
              "internalType": "uint256",
              "name": "X",
              "type": "uint256"
            },
            {
              "internalType": "uint256",
              "name": "Y",
              "type": "uint256"
            }
          ],
          "internalType": "struct BN254.G1Point",
          "name": "sigma",
          "type": "tuple"
        }
      ],
      "name": "trySignatureAndApkVerification",
      "outputs": [
        {
          "internalType": "bool",
          "name": "pairingSuccessful",
          "type": "bool"
        },
        {
          "internalType": "bool",
          "name": "siganatureIsValid",
          "type": "bool"
        }
      ],
      "stateMutability": "view",
      "type": "function"
    },
    {
      "inputs": [
        {
          "internalType": "uint256",
          "name": "newPausedStatus",
          "type": "uint256"
        }
      ],
      "name": "unpause",
      "outputs": [],
      "stateMutability": "nonpayable",
      "type": "function"
    }
  ],
  "bytecode": {
    "object": "0x6101206040523480156200001257600080fd5b50604051620057d1380380620057d18339810160408190526200003591620001f7565b81806001600160a01b03166080816001600160a01b031681525050806001600160a01b031663683048356040518163ffffffff1660e01b8152600401602060405180830381865afa1580156200008f573d6000803e3d6000fd5b505050506040513d601f19601f82011682018060405250810190620000b591906200023e565b6001600160a01b031660a0816001600160a01b031681525050806001600160a01b0316635df459466040518163ffffffff1660e01b8152600401602060405180830381865afa1580156200010d573d6000803e3d6000fd5b505050506040513d601f19601f820116820180604052508101906200013391906200023e565b6001600160a01b031660c0816001600160a01b03168152505060a0516001600160a01b031663df5cf7236040518163ffffffff1660e01b8152600401602060405180830381865afa1580156200018d573d6000803e3d6000fd5b505050506040513d601f19601f82011682018060405250810190620001b391906200023e565b6001600160a01b031660e052506097805460ff1916600117905563ffffffff16610100525062000265565b6001600160a01b0381168114620001f457600080fd5b50565b600080604083850312156200020b57600080fd5b82516200021881620001de565b602084015190925063ffffffff811681146200023357600080fd5b809150509250929050565b6000602082840312156200025157600080fd5b81516200025e81620001de565b9392505050565b60805160a05160c05160e051610100516154e8620002e96000396000818161051e0152612cfd0152600081816104d4015261213601526000818161038f01526123190152600081816103b6015281816124ef01526126b10152600081816103f001528181610d8501528181611e0101528181611f9901526121d301526154e86000f3fe608060405234801561001057600080fd5b50600436106101fb5760003560e01c80636b92787e1161011a5780638da5cb5b116100ad578063e4e3ad771161007c578063e4e3ad77146104f6578063f2fde38b14610509578063f5c9899d1461051c578063f8c8765e14610542578063fabc1cbc1461055557600080fd5b80638da5cb5b14610490578063b98d0908146104a1578063cefdc1d4146104ae578063df5cf723146104cf57600080fd5b806372d18e8d116100e957806372d18e8d1461043b5780637afa1eed1461045a578063886f11951461046d5780638b00ce7c1461048057600080fd5b80636b92787e146103d85780636d14a987146103eb5780636efb463614610412578063715018a61461043357600080fd5b8063416c7e5e116101925780635c155662116101615780635c155662146103625780635c975abb146103825780635df459461461038a57806368304835146103b157600080fd5b8063416c7e5e146102f45780634f739f7414610307578063595c6a67146103275780635ac86ab71461032f57600080fd5b8063245a7bfc116101ce578063245a7bfc146102695780632cb223d5146102945780632d89f6fc146102b45780633563b0d1146102d457600080fd5b80630373408d1461020057806310d67a2f14610217578063136439dd1461022c578063171f1d5b1461023f575b600080fd5b60ce545b6040519081526020015b60405180910390f35b61022a610225366004614084565b610568565b005b61022a61023a3660046140a1565b610624565b61025261024d36600461421f565b610763565b60408051921515835290151560208301520161020e565b60cc5461027c906001600160a01b031681565b6040516001600160a01b03909116815260200161020e565b6102046102a236600461428d565b60cb6020526000908152604090205481565b6102046102c236600461428d565b60ca6020526000908152604090205481565b6102e76102e23660046142aa565b6108ed565b60405161020e9190614405565b61022a61030236600461442d565b610d83565b61031a610315366004614492565b610ef8565b60405161020e9190614596565b61022a61161e565b61035261033d366004614660565b606654600160ff9092169190911b9081161490565b604051901515815260200161020e565b6103756103703660046146a0565b6116e5565b60405161020e9190614751565b606654610204565b61027c7f000000000000000000000000000000000000000000000000000000000000000081565b61027c7f000000000000000000000000000000000000000000000000000000000000000081565b61022a6103e6366004614795565b6118ad565b61027c7f000000000000000000000000000000000000000000000000000000000000000081565b610425610420366004614a6c565b611a4e565b60405161020e929190614b2c565b61022a612966565b60c95463ffffffff165b60405163ffffffff909116815260200161020e565b60cd5461027c906001600160a01b031681565b60655461027c906001600160a01b031681565b60c9546104459063ffffffff1681565b6033546001600160a01b031661027c565b6097546103529060ff1681565b6104c16104bc366004614b75565b61297a565b60405161020e929190614bb7565b61027c7f000000000000000000000000000000000000000000000000000000000000000081565b61022a610504366004614bf0565b612b0c565b61022a610517366004614084565b612f86565b7f0000000000000000000000000000000000000000000000000000000000000000610445565b61022a610550366004614c64565b612ffc565b61022a6105633660046140a1565b61314d565b606560009054906101000a90046001600160a01b03166001600160a01b031663eab66d7a6040518163ffffffff1660e01b8152600401602060405180830381865afa1580156105bb573d6000803e3d6000fd5b505050506040513d601f19601f820116820180604052508101906105df9190614cc0565b6001600160a01b0316336001600160a01b0316146106185760405162461bcd60e51b815260040161060f90614cdd565b60405180910390fd5b610621816132a9565b50565b60655460405163237dfb4760e11b81523360048201526001600160a01b03909116906346fbf68e90602401602060405180830381865afa15801561066c573d6000803e3d6000fd5b505050506040513d601f19601f820116820180604052508101906106909190614d27565b6106ac5760405162461bcd60e51b815260040161060f90614d44565b606654818116146107255760405162461bcd60e51b815260206004820152603860248201527f5061757361626c652e70617573653a20696e76616c696420617474656d70742060448201527f746f20756e70617573652066756e6374696f6e616c6974790000000000000000606482015260840161060f565b606681905560405181815233907fab40a374bc51de372200a8bc981af8c9ecdc08dfdaef0bb6e09f88f3c616ef3d906020015b60405180910390a250565b60008060007f30644e72e131a029b85045b68181585d2833e84879b9709143e1f593f0000001878760000151886020015188600001516000600281106107ab576107ab614d8c565b60200201518951600160200201518a602001516000600281106107d0576107d0614d8c565b60200201518b602001516001600281106107ec576107ec614d8c565b602090810291909101518c518d8301516040516108499a99989796959401988952602089019790975260408801959095526060870193909352608086019190915260a085015260c084015260e08301526101008201526101200190565b6040516020818303038152906040528051906020012060001c61086c9190614da2565b90506108df61088561087e88846133a0565b8690613437565b61088d6134cb565b6108d56108c6856108c0604080518082018252600080825260209182015281518083019092526001825260029082015290565b906133a0565b6108cf8c61358b565b90613437565b886201d4c061361b565b909890975095505050505050565b60606000846001600160a01b031663683048356040518163ffffffff1660e01b8152600401602060405180830381865afa15801561092f573d6000803e3d6000fd5b505050506040513d601f19601f820116820180604052508101906109539190614cc0565b90506000856001600160a01b0316639e9923c26040518163ffffffff1660e01b8152600401602060405180830381865afa158015610995573d6000803e3d6000fd5b505050506040513d601f19601f820116820180604052508101906109b99190614cc0565b90506000866001600160a01b0316635df459466040518163ffffffff1660e01b8152600401602060405180830381865afa1580156109fb573d6000803e3d6000fd5b505050506040513d601f19601f82011682018060405250810190610a1f9190614cc0565b9050600086516001600160401b03811115610a3c57610a3c6140ba565b604051908082528060200260200182016040528015610a6f57816020015b6060815260200190600190039081610a5a5790505b50905060005b8751811015610d77576000888281518110610a9257610a92614d8c565b0160200151604051638902624560e01b815260f89190911c6004820181905263ffffffff8a16602483015291506000906001600160a01b03871690638902624590604401600060405180830381865afa158015610af3573d6000803e3d6000fd5b505050506040513d6000823e601f3d908101601f19168201604052610b1b9190810190614dc4565b905080516001600160401b03811115610b3657610b366140ba565b604051908082528060200260200182016040528015610b8157816020015b6040805160608101825260008082526020808301829052928201528252600019909201910181610b545790505b50848481518110610b9457610b94614d8c565b602002602001018190525060005b8151811015610d61576040518060600160405280876001600160a01b03166347b314e8858581518110610bd757610bd7614d8c565b60200260200101516040518263ffffffff1660e01b8152600401610bfd91815260200190565b602060405180830381865afa158015610c1a573d6000803e3d6000fd5b505050506040513d601f19601f82011682018060405250810190610c3e9190614cc0565b6001600160a01b03168152602001838381518110610c5e57610c5e614d8c565b60200260200101518152602001896001600160a01b031663fa28c627858581518110610c8c57610c8c614d8c565b60209081029190910101516040516001600160e01b031960e084901b168152600481019190915260ff8816602482015263ffffffff8f166044820152606401602060405180830381865afa158015610ce8573d6000803e3d6000fd5b505050506040513d601f19601f82011682018060405250810190610d0c9190614e54565b6001600160601b0316815250858581518110610d2a57610d2a614d8c565b60200260200101518281518110610d4357610d43614d8c565b60200260200101819052508080610d5990614e93565b915050610ba2565b5050508080610d6f90614e93565b915050610a75565b50979650505050505050565b7f00000000000000000000000000000000000000000000000000000000000000006001600160a01b0316638da5cb5b6040518163ffffffff1660e01b8152600401602060405180830381865afa158015610de1573d6000803e3d6000fd5b505050506040513d601f19601f82011682018060405250810190610e059190614cc0565b6001600160a01b0316336001600160a01b031614610eb15760405162461bcd60e51b815260206004820152605c60248201527f424c535369676e6174757265436865636b65722e6f6e6c79436f6f7264696e6160448201527f746f724f776e65723a2063616c6c6572206973206e6f7420746865206f776e6560648201527f72206f6620746865207265676973747279436f6f7264696e61746f7200000000608482015260a40161060f565b6097805460ff19168215159081179091556040519081527f40e4ed880a29e0f6ddce307457fb75cddf4feef7d3ecb0301bfdf4976a0e2dfc9060200160405180910390a150565b610f236040518060800160405280606081526020016060815260200160608152602001606081525090565b6000876001600160a01b031663683048356040518163ffffffff1660e01b8152600401602060405180830381865afa158015610f63573d6000803e3d6000fd5b505050506040513d601f19601f82011682018060405250810190610f879190614cc0565b9050610fb46040518060800160405280606081526020016060815260200160608152602001606081525090565b6040516361c8a12f60e11b81526001600160a01b038a169063c391425e90610fe4908b9089908990600401614eae565b600060405180830381865afa158015611001573d6000803e3d6000fd5b505050506040513d6000823e601f3d908101601f191682016040526110299190810190614ef8565b81526040516340e03a8160e11b81526001600160a01b038316906381c075029061105b908b908b908b90600401614faf565b600060405180830381865afa158015611078573d6000803e3d6000fd5b505050506040513d6000823e601f3d908101601f191682016040526110a09190810190614ef8565b6040820152856001600160401b038111156110bd576110bd6140ba565b6040519080825280602002602001820160405280156110f057816020015b60608152602001906001900390816110db5790505b50606082015260005b60ff811687111561152f576000856001600160401b0381111561111e5761111e6140ba565b604051908082528060200260200182016040528015611147578160200160208202803683370190505b5083606001518360ff168151811061116157611161614d8c565b602002602001018190525060005b8681101561142f5760008c6001600160a01b03166304ec63518a8a8581811061119a5761119a614d8c565b905060200201358e886000015186815181106111b8576111b8614d8c565b60200260200101516040518463ffffffff1660e01b81526004016111f59392919092835263ffffffff918216602084015216604082015260600190565b602060405180830381865afa158015611212573d6000803e3d6000fd5b505050506040513d601f19601f820116820180604052508101906112369190614fd8565b90506001600160c01b0381166112da5760405162461bcd60e51b815260206004820152605c60248201527f4f70657261746f7253746174655265747269657665722e676574436865636b5360448201527f69676e617475726573496e64696365733a206f70657261746f72206d7573742060648201527f6265207265676973746572656420617420626c6f636b6e756d62657200000000608482015260a40161060f565b8a8a8560ff168181106112ef576112ef614d8c565b6001600160c01b03841692013560f81c9190911c60019081161415905061141c57856001600160a01b031663dd9846b98a8a8581811061133157611331614d8c565b905060200201358d8d8860ff1681811061134d5761134d614d8c565b6040516001600160e01b031960e087901b1681526004810194909452919091013560f81c60248301525063ffffffff8f166044820152606401602060405180830381865afa1580156113a3573d6000803e3d6000fd5b505050506040513d601f19601f820116820180604052508101906113c79190615001565b85606001518560ff16815181106113e0576113e0614d8c565b602002602001015184815181106113f9576113f9614d8c565b63ffffffff909216602092830291909101909101528261141881614e93565b9350505b508061142781614e93565b91505061116f565b506000816001600160401b0381111561144a5761144a6140ba565b604051908082528060200260200182016040528015611473578160200160208202803683370190505b50905060005b828110156114f45784606001518460ff168151811061149a5761149a614d8c565b602002602001015181815181106114b3576114b3614d8c565b60200260200101518282815181106114cd576114cd614d8c565b63ffffffff90921660209283029190910190910152806114ec81614e93565b915050611479565b508084606001518460ff168151811061150f5761150f614d8c565b6020026020010181905250505080806115279061501e565b9150506110f9565b506000896001600160a01b0316635df459466040518163ffffffff1660e01b8152600401602060405180830381865afa158015611570573d6000803e3d6000fd5b505050506040513d601f19601f820116820180604052508101906115949190614cc0565b60405163354952a360e21b81529091506001600160a01b0382169063d5254a8c906115c7908b908b908e9060040161503e565b600060405180830381865afa1580156115e4573d6000803e3d6000fd5b505050506040513d6000823e601f3d908101601f1916820160405261160c9190810190614ef8565b60208301525098975050505050505050565b60655460405163237dfb4760e11b81523360048201526001600160a01b03909116906346fbf68e90602401602060405180830381865afa158015611666573d6000803e3d6000fd5b505050506040513d601f19601f8201168201806040525081019061168a9190614d27565b6116a65760405162461bcd60e51b815260040161060f90614d44565b600019606681905560405190815233907fab40a374bc51de372200a8bc981af8c9ecdc08dfdaef0bb6e09f88f3c616ef3d9060200160405180910390a2565b60606000846001600160a01b031663c391425e84866040518363ffffffff1660e01b8152600401611717929190615068565b600060405180830381865afa158015611734573d6000803e3d6000fd5b505050506040513d6000823e601f3d908101601f1916820160405261175c9190810190614ef8565b9050600084516001600160401b03811115611779576117796140ba565b6040519080825280602002602001820160405280156117a2578160200160208202803683370190505b50905060005b85518110156118a357866001600160a01b03166304ec63518783815181106117d2576117d2614d8c565b6020026020010151878685815181106117ed576117ed614d8c565b60200260200101516040518463ffffffff1660e01b815260040161182a9392919092835263ffffffff918216602084015216604082015260600190565b602060405180830381865afa158015611847573d6000803e3d6000fd5b505050506040513d601f19601f8201168201806040525081019061186b9190614fd8565b6001600160c01b031682828151811061188657611886614d8c565b60209081029190910101528061189b81614e93565b9150506117a8565b5095945050505050565b60cd546001600160a01b031633146119115760405162461bcd60e51b815260206004820152602160248201527f5461736b2067656e657261746f72206d757374206265207468652063616c6c656044820152603960f91b606482015260840161060f565b611948604051806080016040528060008152602001600063ffffffff16815260200160608152602001600063ffffffff1681525090565b84815263ffffffff438116602080840191909152908516606083015260408051601f8501839004830281018301909152838152908490849081908401838280828437600092019190915250505050604080830191909152516119ae9082906020016150bc565b60408051601f19818403018152828252805160209182012060c9805463ffffffff908116600090815260ca90945293909220555416907f1695b8d06ec800b4615e745cfb5bd00c1f2875615d42925c3b5afa543bb24c4890611a119084906150bc565b60405180910390a260c954611a2d9063ffffffff166001615147565b60c9805463ffffffff191663ffffffff929092169190911790555050505050565b6040805180820190915260608082526020820152600084611ac55760405162461bcd60e51b8152602060048201526037602482015260008051602061549383398151915260448201527f7265733a20656d7074792071756f72756d20696e707574000000000000000000606482015260840161060f565b60408301515185148015611add575060a08301515185145b8015611aed575060c08301515185145b8015611afd575060e08301515185145b611b675760405162461bcd60e51b8152602060048201526041602482015260008051602061549383398151915260448201527f7265733a20696e7075742071756f72756d206c656e677468206d69736d6174636064820152600d60fb1b608482015260a40161060f565b82515160208401515114611bdf5760405162461bcd60e51b815260206004820152604460248201819052600080516020615493833981519152908201527f7265733a20696e707574206e6f6e7369676e6572206c656e677468206d69736d6064820152630c2e8c6d60e31b608482015260a40161060f565b4363ffffffff168463ffffffff1610611c4e5760405162461bcd60e51b815260206004820152603c602482015260008051602061549383398151915260448201527f7265733a20696e76616c6964207265666572656e636520626c6f636b00000000606482015260840161060f565b6040805180820182526000808252602080830191909152825180840190935260608084529083015290866001600160401b03811115611c8f57611c8f6140ba565b604051908082528060200260200182016040528015611cb8578160200160208202803683370190505b506020820152866001600160401b03811115611cd657611cd66140ba565b604051908082528060200260200182016040528015611cff578160200160208202803683370190505b50815260408051808201909152606080825260208201528560200151516001600160401b03811115611d3357611d336140ba565b604051908082528060200260200182016040528015611d5c578160200160208202803683370190505b5081526020860151516001600160401b03811115611d7c57611d7c6140ba565b604051908082528060200260200182016040528015611da5578160200160208202803683370190505b5081602001819052506000611e778a8a8080601f0160208091040260200160405190810160405280939291908181526020018383808284376000920191909152505060408051639aa1653d60e01b815290516001600160a01b037f0000000000000000000000000000000000000000000000000000000000000000169350639aa1653d925060048083019260209291908290030181865afa158015611e4e573d6000803e3d6000fd5b505050506040513d601f19601f82011682018060405250810190611e72919061516f565b61383f565b905060005b87602001515181101561211257611ec188602001518281518110611ea257611ea2614d8c565b6020026020010151805160009081526020918201519091526040902090565b83602001518281518110611ed757611ed7614d8c565b60209081029190910101528015611f97576020830151611ef860018361518c565b81518110611f0857611f08614d8c565b602002602001015160001c83602001518281518110611f2957611f29614d8c565b602002602001015160001c11611f97576040805162461bcd60e51b815260206004820152602481019190915260008051602061549383398151915260448201527f7265733a206e6f6e5369676e65725075626b657973206e6f7420736f72746564606482015260840161060f565b7f00000000000000000000000000000000000000000000000000000000000000006001600160a01b03166304ec635184602001518381518110611fdc57611fdc614d8c565b60200260200101518b8b600001518581518110611ffb57611ffb614d8c565b60200260200101516040518463ffffffff1660e01b81526004016120389392919092835263ffffffff918216602084015216604082015260600190565b602060405180830381865afa158015612055573d6000803e3d6000fd5b505050506040513d601f19601f820116820180604052508101906120799190614fd8565b6001600160c01b03168360000151828151811061209857612098614d8c565b6020026020010181815250506120fe61087e6120d284866000015185815181106120c4576120c4614d8c565b6020026020010151166138d2565b8a6020015184815181106120e8576120e8614d8c565b60200260200101516138fd90919063ffffffff16565b94508061210a81614e93565b915050611e7c565b505061211d836139e1565b60975490935060ff166000816121345760006121b6565b7f00000000000000000000000000000000000000000000000000000000000000006001600160a01b031663c448feb86040518163ffffffff1660e01b8152600401602060405180830381865afa158015612192573d6000803e3d6000fd5b505050506040513d601f19601f820116820180604052508101906121b691906151a3565b905060005b8a811015612835578215612317578963ffffffff16827f00000000000000000000000000000000000000000000000000000000000000006001600160a01b031663249a0c428f8f8681811061221257612212614d8c565b60405160e085901b6001600160e01b031916815292013560f81c600483015250602401602060405180830381865afa158015612252573d6000803e3d6000fd5b505050506040513d601f19601f8201168201806040525081019061227691906151a3565b61228091906151bc565b10156123175760405162461bcd60e51b8152602060048201526066602482015260008051602061549383398151915260448201527f7265733a205374616b6552656769737472792075706461746573206d7573742060648201527f62652077697468696e207769746864726177616c44656c6179426c6f636b732060848201526577696e646f7760d01b60a482015260c40161060f565b7f00000000000000000000000000000000000000000000000000000000000000006001600160a01b03166368bccaac8d8d8481811061235857612358614d8c565b9050013560f81c60f81b60f81c8c8c60a00151858151811061237c5761237c614d8c565b60209081029190910101516040516001600160e01b031960e086901b16815260ff909316600484015263ffffffff9182166024840152166044820152606401602060405180830381865afa1580156123d8573d6000803e3d6000fd5b505050506040513d601f19601f820116820180604052508101906123fc91906151d4565b6001600160401b03191661241f8a604001518381518110611ea257611ea2614d8c565b67ffffffffffffffff1916146124bb5760405162461bcd60e51b8152602060048201526061602482015260008051602061549383398151915260448201527f7265733a2071756f72756d41706b206861736820696e2073746f72616765206460648201527f6f6573206e6f74206d617463682070726f76696465642071756f72756d2061706084820152606b60f81b60a482015260c40161060f565b6124eb896040015182815181106124d4576124d4614d8c565b60200260200101518761343790919063ffffffff16565b95507f00000000000000000000000000000000000000000000000000000000000000006001600160a01b031663c8294c568d8d8481811061252e5761252e614d8c565b9050013560f81c60f81b60f81c8c8c60c00151858151811061255257612552614d8c565b60209081029190910101516040516001600160e01b031960e086901b16815260ff909316600484015263ffffffff9182166024840152166044820152606401602060405180830381865afa1580156125ae573d6000803e3d6000fd5b505050506040513d601f19601f820116820180604052508101906125d29190614e54565b856020015182815181106125e8576125e8614d8c565b6001600160601b0390921660209283029190910182015285015180518290811061261457612614614d8c565b60200260200101518560000151828151811061263257612632614d8c565b60200260200101906001600160601b031690816001600160601b0316815250506000805b8a6020015151811015612820576126aa8660000151828151811061267c5761267c614d8c565b60200260200101518f8f8681811061269657612696614d8c565b600192013560f81c9290921c811614919050565b1561280e577f00000000000000000000000000000000000000000000000000000000000000006001600160a01b031663f2be94ae8f8f868181106126f0576126f0614d8c565b9050013560f81c60f81b60f81c8e8960200151858151811061271457612714614d8c565b60200260200101518f60e00151888151811061273257612732614d8c565b6020026020010151878151811061274b5761274b614d8c565b60209081029190910101516040516001600160e01b031960e087901b16815260ff909416600485015263ffffffff92831660248501526044840191909152166064820152608401602060405180830381865afa1580156127af573d6000803e3d6000fd5b505050506040513d601f19601f820116820180604052508101906127d39190614e54565b87518051859081106127e7576127e7614d8c565b602002602001018181516127fb91906151ff565b6001600160601b03169052506001909101905b8061281881614e93565b915050612656565b5050808061282d90614e93565b9150506121bb565b50505060008061284f8c868a606001518b60800151610763565b91509150816128c05760405162461bcd60e51b8152602060048201526043602482015260008051602061549383398151915260448201527f7265733a2070616972696e6720707265636f6d70696c652063616c6c206661696064820152621b195960ea1b608482015260a40161060f565b806129215760405162461bcd60e51b8152602060048201526039602482015260008051602061549383398151915260448201527f7265733a207369676e617475726520697320696e76616c696400000000000000606482015260840161060f565b5050600087826020015160405160200161293c929190615227565b60408051808303601f190181529190528051602090910120929b929a509198505050505050505050565b61296e613a7c565b6129786000613ad6565b565b60408051600180825281830190925260009160609183916020808301908036833701905050905084816000815181106129b5576129b5614d8c565b60209081029190910101526040516361c8a12f60e11b81526000906001600160a01b0388169063c391425e906129f19088908690600401615068565b600060405180830381865afa158015612a0e573d6000803e3d6000fd5b505050506040513d6000823e601f3d908101601f19168201604052612a369190810190614ef8565b600081518110612a4857612a48614d8c565b60209081029190910101516040516304ec635160e01b81526004810188905263ffffffff87811660248301529091166044820181905291506000906001600160a01b038916906304ec635190606401602060405180830381865afa158015612ab4573d6000803e3d6000fd5b505050506040513d601f19601f82011682018060405250810190612ad89190614fd8565b6001600160c01b031690506000612aee82613b28565b905081612afc8a838a6108ed565b9550955050505050935093915050565b60cc546001600160a01b03163314612b665760405162461bcd60e51b815260206004820152601d60248201527f41676772656761746f72206d757374206265207468652063616c6c6572000000604482015260640161060f565b6000612b78604085016020860161428d565b9050366000612b8a604087018761526f565b90925090506000612ba1608088016060890161428d565b905060ca6000612bb4602089018961428d565b63ffffffff1663ffffffff1681526020019081526020016000205487604051602001612be091906152b5565b6040516020818303038152906040528051906020012014612c695760405162461bcd60e51b815260206004820152603d60248201527f737570706c696564207461736b20646f6573206e6f74206d617463682074686560448201527f206f6e65207265636f7264656420696e2074686520636f6e7472616374000000606482015260840161060f565b600060cb81612c7b60208a018a61428d565b63ffffffff1663ffffffff1681526020019081526020016000205414612cf85760405162461bcd60e51b815260206004820152602c60248201527f41676772656761746f722068617320616c726561647920726573706f6e64656460448201526b20746f20746865207461736b60a01b606482015260840161060f565b612d227f000000000000000000000000000000000000000000000000000000000000000085615147565b63ffffffff164363ffffffff161115612d935760405162461bcd60e51b815260206004820152602d60248201527f41676772656761746f722068617320726573706f6e64656420746f207468652060448201526c7461736b20746f6f206c61746560981b606482015260840161060f565b600086604051602001612da69190615388565b604051602081830303815290604052805190602001209050600080612dce8387878a8c611a4e565b6040805160808101825263ffffffff43168152602080820184905280850151828401528451606083015291519395509193509091612e10918c91849101615396565b6040516020818303038152906040528051906020012060cb60008c6000016020810190612e3d919061428d565b63ffffffff1663ffffffff168152602001908152602001600020819055507fb6b77f791d125b1522410ab3adf6a5ea133c836a193ce67ed29c129ca1d8f5c08a82604051612e8c929190615396565b60405180910390a160005b86811015612f2d578560ff1684602001518281518110612eb957612eb9614d8c565b6020026020010151612ecb9190615402565b6001600160601b0316606485600001518381518110612eec57612eec614d8c565b60200260200101516001600160601b0316612f079190615431565b1015612f1b57505050505050505050505050565b80612f2581614e93565b915050612e97565b5060608a013560ce5560208a01803590612f47908c61428d565b63ffffffff167f8378be8a33cf3a493910a16e275cd96af4f048c5eb1a2c2962d4066e697fea8060405160405180910390a35050505050505050505050565b612f8e613a7c565b6001600160a01b038116612ff35760405162461bcd60e51b815260206004820152602660248201527f4f776e61626c653a206e6577206f776e657220697320746865207a65726f206160448201526564647265737360d01b606482015260840161060f565b61062181613ad6565b600054610100900460ff161580801561301c5750600054600160ff909116105b806130365750303b158015613036575060005460ff166001145b6130995760405162461bcd60e51b815260206004820152602e60248201527f496e697469616c697a61626c653a20636f6e747261637420697320616c72656160448201526d191e481a5b9a5d1a585b1a5e995960921b606482015260840161060f565b6000805460ff1916600117905580156130bc576000805461ff0019166101001790555b6130c7856000613bf4565b6130d084613ad6565b60cc80546001600160a01b038086166001600160a01b03199283161790925560cd8054928516929091169190911790558015613146576000805461ff0019169055604051600181527f7f26b83ff96e1f2b6a682f133852f6798a09c465da95921460cefb38474024989060200160405180910390a15b5050505050565b606560009054906101000a90046001600160a01b03166001600160a01b031663eab66d7a6040518163ffffffff1660e01b8152600401602060405180830381865afa1580156131a0573d6000803e3d6000fd5b505050506040513d601f19601f820116820180604052508101906131c49190614cc0565b6001600160a01b0316336001600160a01b0316146131f45760405162461bcd60e51b815260040161060f90614cdd565b6066541981196066541916146132725760405162461bcd60e51b815260206004820152603860248201527f5061757361626c652e756e70617573653a20696e76616c696420617474656d7060448201527f7420746f2070617573652066756e6374696f6e616c6974790000000000000000606482015260840161060f565b606681905560405181815233907f3582d1828e26bf56bd801502bc021ac0bc8afb57c826e4986b45593c8fad389c90602001610758565b6001600160a01b0381166133375760405162461bcd60e51b815260206004820152604960248201527f5061757361626c652e5f73657450617573657252656769737472793a206e657760448201527f50617573657252656769737472792063616e6e6f7420626520746865207a65726064820152686f206164647265737360b81b608482015260a40161060f565b606554604080516001600160a01b03928316815291831660208301527f6e9fcd539896fca60e8b0f01dd580233e48a6b0f7df013b89ba7f565869acdb6910160405180910390a1606580546001600160a01b0319166001600160a01b0392909216919091179055565b60408051808201909152600080825260208201526133bc613f95565b835181526020808501519082015260408082018490526000908360608460076107d05a03fa90508080156133ef576133f1565bfe5b508061342f5760405162461bcd60e51b815260206004820152600d60248201526c1958cb5b5d5b0b59985a5b1959609a1b604482015260640161060f565b505092915050565b6040805180820190915260008082526020820152613453613fb3565b835181526020808501518183015283516040808401919091529084015160608301526000908360808460066107d05a03fa90508080156133ef57508061342f5760405162461bcd60e51b815260206004820152600d60248201526c1958cb5859190b59985a5b1959609a1b604482015260640161060f565b6134d3613fd1565b50604080516080810182527f198e9393920d483a7260bfb731fb5d25f1aa493335a9e71297e485b7aef312c28183019081527f1800deef121f1e76426a00665e5c4479674322d4f75edadd46debd5cd992f6ed6060830152815281518083019092527f275dc4a288d1afb3cbb1ac09187524c7db36395df7be3b99e673b13a075a65ec82527f1d9befcd05a5323e6da4d435f3b617cdb3af83285c2df711ef39c01571827f9d60208381019190915281019190915290565b6040805180820190915260008082526020820152600080806135bb60008051602061547383398151915286614da2565b90505b6135c781613cde565b9093509150600080516020615473833981519152828309831415613601576040805180820190915290815260208101919091529392505050565b6000805160206154738339815191526001820890506135be565b60408051808201825286815260208082018690528251808401909352868352820184905260009182919061364d613ff6565b60005b6002811015613812576000613666826006615431565b905084826002811061367a5761367a614d8c565b6020020151518361368c8360006151bc565b600c811061369c5761369c614d8c565b60200201528482600281106136b3576136b3614d8c565b602002015160200151838260016136ca91906151bc565b600c81106136da576136da614d8c565b60200201528382600281106136f1576136f1614d8c565b60200201515151836137048360026151bc565b600c811061371457613714614d8c565b602002015283826002811061372b5761372b614d8c565b60200201515160016020020151836137448360036151bc565b600c811061375457613754614d8c565b602002015283826002811061376b5761376b614d8c565b60200201516020015160006002811061378657613786614d8c565b6020020151836137978360046151bc565b600c81106137a7576137a7614d8c565b60200201528382600281106137be576137be614d8c565b6020020151602001516001600281106137d9576137d9614d8c565b6020020151836137ea8360056151bc565b600c81106137fa576137fa614d8c565b6020020152508061380a81614e93565b915050613650565b5061381b614015565b60006020826101808560088cfa9151919c9115159b50909950505050505050505050565b60008061384b84613d60565b9050808360ff166001901b116138c95760405162461bcd60e51b815260206004820152603f60248201527f4269746d61705574696c732e6f72646572656442797465734172726179546f4260448201527f69746d61703a206269746d61702065786365656473206d61782076616c756500606482015260840161060f565b90505b92915050565b6000805b82156138cc576138e760018461518c565b90921691806138f581615450565b9150506138d6565b60408051808201909152600080825260208201526102008261ffff16106139595760405162461bcd60e51b815260206004820152601060248201526f7363616c61722d746f6f2d6c6172676560801b604482015260640161060f565b8161ffff166001141561396d5750816138cc565b6040805180820190915260008082526020820181905284906001905b8161ffff168661ffff16106139d657600161ffff871660ff83161c811614156139b9576139b68484613437565b93505b6139c38384613437565b92506201fffe600192831b169101613989565b509195945050505050565b60408051808201909152600080825260208201528151158015613a0657506020820151155b15613a24575050604080518082019091526000808252602082015290565b6040518060400160405280836000015181526020016000805160206154738339815191528460200151613a579190614da2565b613a6f9060008051602061547383398151915261518c565b905292915050565b919050565b6033546001600160a01b031633146129785760405162461bcd60e51b815260206004820181905260248201527f4f776e61626c653a2063616c6c6572206973206e6f7420746865206f776e6572604482015260640161060f565b603380546001600160a01b038381166001600160a01b0319831681179093556040519116919082907f8be0079c531659141344cd1fd0a4f28419497f9722a3daafe3b4186f6b6457e090600090a35050565b6060600080613b36846138d2565b61ffff166001600160401b03811115613b5157613b516140ba565b6040519080825280601f01601f191660200182016040528015613b7b576020820181803683370190505b5090506000805b825182108015613b93575061010081105b15613bea576001811b935085841615613bda578060f81b838381518110613bbc57613bbc614d8c565b60200101906001600160f81b031916908160001a9053508160010191505b613be381614e93565b9050613b82565b5090949350505050565b6065546001600160a01b0316158015613c1557506001600160a01b03821615155b613c975760405162461bcd60e51b815260206004820152604760248201527f5061757361626c652e5f696e697469616c697a655061757365723a205f696e6960448201527f7469616c697a6550617573657228292063616e206f6e6c792062652063616c6c6064820152666564206f6e636560c81b608482015260a40161060f565b606681905560405181815233907fab40a374bc51de372200a8bc981af8c9ecdc08dfdaef0bb6e09f88f3c616ef3d9060200160405180910390a2613cda826132a9565b5050565b60008080600080516020615473833981519152600360008051602061547383398151915286600080516020615473833981519152888909090890506000613d54827f0c19139cb84c680a6e14116da060561765e05aa45a1c72a34f082305b61f3f52600080516020615473833981519152613eed565b91959194509092505050565b600061010082511115613de95760405162461bcd60e51b8152602060048201526044602482018190527f4269746d61705574696c732e6f72646572656442797465734172726179546f42908201527f69746d61703a206f7264657265644279746573417272617920697320746f6f206064820152636c6f6e6760e01b608482015260a40161060f565b8151613df757506000919050565b60008083600081518110613e0d57613e0d614d8c565b0160200151600160f89190911c81901b92505b8451811015613ee457848181518110613e3b57613e3b614d8c565b0160200151600160f89190911c1b9150828211613ed05760405162461bcd60e51b815260206004820152604760248201527f4269746d61705574696c732e6f72646572656442797465734172726179546f4260448201527f69746d61703a206f72646572656442797465734172726179206973206e6f74206064820152661bdc99195c995960ca1b608482015260a40161060f565b91811791613edd81614e93565b9050613e20565b50909392505050565b600080613ef8614015565b613f00614033565b602080825281810181905260408201819052606082018890526080820187905260a082018690528260c08360056107d05a03fa92508280156133ef575082613f8a5760405162461bcd60e51b815260206004820152601a60248201527f424e3235342e6578704d6f643a2063616c6c206661696c757265000000000000604482015260640161060f565b505195945050505050565b60405180606001604052806003906020820280368337509192915050565b60405180608001604052806004906020820280368337509192915050565b6040518060400160405280613fe4614051565b8152602001613ff1614051565b905290565b604051806101800160405280600c906020820280368337509192915050565b60405180602001604052806001906020820280368337509192915050565b6040518060c001604052806006906020820280368337509192915050565b60405180604001604052806002906020820280368337509192915050565b6001600160a01b038116811461062157600080fd5b60006020828403121561409657600080fd5b81356138c98161406f565b6000602082840312156140b357600080fd5b5035919050565b634e487b7160e01b600052604160045260246000fd5b604080519081016001600160401b03811182821017156140f2576140f26140ba565b60405290565b60405161010081016001600160401b03811182821017156140f2576140f26140ba565b604051601f8201601f191681016001600160401b0381118282101715614143576141436140ba565b604052919050565b60006040828403121561415d57600080fd5b6141656140d0565b9050813581526020820135602082015292915050565b600082601f83011261418c57600080fd5b604051604081018181106001600160401b03821117156141ae576141ae6140ba565b80604052508060408401858111156141c557600080fd5b845b818110156139d65780358352602092830192016141c7565b6000608082840312156141f157600080fd5b6141f96140d0565b9050614205838361417b565b8152614214836040840161417b565b602082015292915050565b600080600080610120858703121561423657600080fd5b84359350614247866020870161414b565b925061425686606087016141df565b91506142658660e0870161414b565b905092959194509250565b63ffffffff8116811461062157600080fd5b8035613a7781614270565b60006020828403121561429f57600080fd5b81356138c981614270565b6000806000606084860312156142bf57600080fd5b83356142ca8161406f565b92506020848101356001600160401b03808211156142e757600080fd5b818701915087601f8301126142fb57600080fd5b81358181111561430d5761430d6140ba565b61431f601f8201601f1916850161411b565b9150808252888482850101111561433557600080fd5b808484018584013760008482840101525080945050505061435860408501614282565b90509250925092565b600081518084526020808501808196508360051b810191508286016000805b868110156143f7578385038a52825180518087529087019087870190845b818110156143e257835180516001600160a01b031684528a8101518b8501526040908101516001600160601b0316908401529289019260609092019160010161439e565b50509a87019a95505091850191600101614380565b509298975050505050505050565b6020815260006144186020830184614361565b9392505050565b801515811461062157600080fd5b60006020828403121561443f57600080fd5b81356138c98161441f565b60008083601f84011261445c57600080fd5b5081356001600160401b0381111561447357600080fd5b60208301915083602082850101111561448b57600080fd5b9250929050565b600080600080600080608087890312156144ab57600080fd5b86356144b68161406f565b955060208701356144c681614270565b945060408701356001600160401b03808211156144e257600080fd5b6144ee8a838b0161444a565b9096509450606089013591508082111561450757600080fd5b818901915089601f83011261451b57600080fd5b81358181111561452a57600080fd5b8a60208260051b850101111561453f57600080fd5b6020830194508093505050509295509295509295565b600081518084526020808501945080840160005b8381101561458b57815163ffffffff1687529582019590820190600101614569565b509495945050505050565b6000602080835283516080828501526145b260a0850182614555565b905081850151601f19808684030160408701526145cf8383614555565b925060408701519150808684030160608701526145ec8383614555565b60608801518782038301608089015280518083529194508501925084840190600581901b8501860160005b828110156146435784878303018452614631828751614555565b95880195938801939150600101614617565b509998505050505050505050565b60ff8116811461062157600080fd5b60006020828403121561467257600080fd5b81356138c981614651565b60006001600160401b03821115614696576146966140ba565b5060051b60200190565b6000806000606084860312156146b557600080fd5b83356146c08161406f565b92506020848101356001600160401b038111156146dc57600080fd5b8501601f810187136146ed57600080fd5b80356147006146fb8261467d565b61411b565b81815260059190911b8201830190838101908983111561471f57600080fd5b928401925b8284101561473d57833582529284019290840190614724565b809650505050505061435860408501614282565b6020808252825182820181905260009190848201906040850190845b818110156147895783518352928401929184019160010161476d565b50909695505050505050565b600080600080606085870312156147ab57600080fd5b8435935060208501356147bd81614270565b925060408501356001600160401b038111156147d857600080fd5b6147e48782880161444a565b95989497509550505050565b600082601f83011261480157600080fd5b813560206148116146fb8361467d565b82815260059290921b8401810191818101908684111561483057600080fd5b8286015b8481101561485457803561484781614270565b8352918301918301614834565b509695505050505050565b600082601f83011261487057600080fd5b813560206148806146fb8361467d565b82815260069290921b8401810191818101908684111561489f57600080fd5b8286015b84811015614854576148b5888261414b565b8352918301916040016148a3565b600082601f8301126148d457600080fd5b813560206148e46146fb8361467d565b82815260059290921b8401810191818101908684111561490357600080fd5b8286015b848110156148545780356001600160401b038111156149265760008081fd5b6149348986838b01016147f0565b845250918301918301614907565b6000610180828403121561495557600080fd5b61495d6140f8565b905081356001600160401b038082111561497657600080fd5b614982858386016147f0565b8352602084013591508082111561499857600080fd5b6149a48583860161485f565b602084015260408401359150808211156149bd57600080fd5b6149c98583860161485f565b60408401526149db85606086016141df565b60608401526149ed8560e0860161414b565b6080840152610120840135915080821115614a0757600080fd5b614a13858386016147f0565b60a0840152610140840135915080821115614a2d57600080fd5b614a39858386016147f0565b60c0840152610160840135915080821115614a5357600080fd5b50614a60848285016148c3565b60e08301525092915050565b600080600080600060808688031215614a8457600080fd5b8535945060208601356001600160401b0380821115614aa257600080fd5b614aae89838a0161444a565b909650945060408801359150614ac382614270565b90925060608701359080821115614ad957600080fd5b50614ae688828901614942565b9150509295509295909350565b600081518084526020808501945080840160005b8381101561458b5781516001600160601b031687529582019590820190600101614b07565b6040815260008351604080840152614b476080840182614af3565b90506020850151603f19848303016060850152614b648282614af3565b925050508260208301529392505050565b600080600060608486031215614b8a57600080fd5b8335614b958161406f565b9250602084013591506040840135614bac81614270565b809150509250925092565b828152604060208201526000614bd06040830184614361565b949350505050565b600060808284031215614bea57600080fd5b50919050565b600080600060c08486031215614c0557600080fd5b83356001600160401b0380821115614c1c57600080fd5b614c2887838801614bd8565b9450614c378760208801614bd8565b935060a0860135915080821115614c4d57600080fd5b50614c5a86828701614942565b9150509250925092565b60008060008060808587031215614c7a57600080fd5b8435614c858161406f565b93506020850135614c958161406f565b92506040850135614ca58161406f565b91506060850135614cb58161406f565b939692955090935050565b600060208284031215614cd257600080fd5b81516138c98161406f565b6020808252602a908201527f6d73672e73656e646572206973206e6f74207065726d697373696f6e6564206160408201526939903ab73830bab9b2b960b11b606082015260800190565b600060208284031215614d3957600080fd5b81516138c98161441f565b60208082526028908201527f6d73672e73656e646572206973206e6f74207065726d697373696f6e6564206160408201526739903830bab9b2b960c11b606082015260800190565b634e487b7160e01b600052603260045260246000fd5b600082614dbf57634e487b7160e01b600052601260045260246000fd5b500690565b60006020808385031215614dd757600080fd5b82516001600160401b03811115614ded57600080fd5b8301601f81018513614dfe57600080fd5b8051614e0c6146fb8261467d565b81815260059190911b82018301908381019087831115614e2b57600080fd5b928401925b82841015614e4957835182529284019290840190614e30565b979650505050505050565b600060208284031215614e6657600080fd5b81516001600160601b03811681146138c957600080fd5b634e487b7160e01b600052601160045260246000fd5b6000600019821415614ea757614ea7614e7d565b5060010190565b63ffffffff84168152604060208201819052810182905260006001600160fb1b03831115614edb57600080fd5b8260051b8085606085013760009201606001918252509392505050565b60006020808385031215614f0b57600080fd5b82516001600160401b03811115614f2157600080fd5b8301601f81018513614f3257600080fd5b8051614f406146fb8261467d565b81815260059190911b82018301908381019087831115614f5f57600080fd5b928401925b82841015614e49578351614f7781614270565b82529284019290840190614f64565b81835281816020850137506000828201602090810191909152601f909101601f19169091010190565b63ffffffff84168152604060208201526000614fcf604083018486614f86565b95945050505050565b600060208284031215614fea57600080fd5b81516001600160c01b03811681146138c957600080fd5b60006020828403121561501357600080fd5b81516138c981614270565b600060ff821660ff81141561503557615035614e7d565b60010192915050565b604081526000615052604083018587614f86565b905063ffffffff83166020830152949350505050565b60006040820163ffffffff851683526020604081850152818551808452606086019150828701935060005b818110156150af57845183529383019391830191600101615093565b5090979650505050505050565b6000602080835283518184015263ffffffff8185015116604084015260408401516080606085015280518060a086015260005b8181101561510b5782810184015186820160c0015283016150ef565b8181111561511d57600060c083880101525b50606086015163ffffffff811660808701529250601f01601f19169390930160c001949350505050565b600063ffffffff80831681851680830382111561516657615166614e7d565b01949350505050565b60006020828403121561518157600080fd5b81516138c981614651565b60008282101561519e5761519e614e7d565b500390565b6000602082840312156151b557600080fd5b5051919050565b600082198211156151cf576151cf614e7d565b500190565b6000602082840312156151e657600080fd5b815167ffffffffffffffff19811681146138c957600080fd5b60006001600160601b038381169083168181101561521f5761521f614e7d565b039392505050565b63ffffffff60e01b8360e01b1681526000600482018351602080860160005b8381101561526257815185529382019390820190600101615246565b5092979650505050505050565b6000808335601e1984360301811261528657600080fd5b8301803591506001600160401b038211156152a057600080fd5b60200191503681900382131561448b57600080fd5b6020815281356020820152600060208301356152d081614270565b63ffffffff81166040840152506040830135601e198436030181126152f457600080fd5b830180356001600160401b0381111561530c57600080fd5b80360385131561531b57600080fd5b6080606085015261533360a085018260208501614f86565b91505061534260608501614282565b63ffffffff81166080850152509392505050565b803561536181614270565b63ffffffff1682526020818101359083015260408082013590830152606090810135910152565b608081016138cc8284615356565b6153a08184615356565b60a0608082015263ffffffff82511660a0820152602082015160c082015260006040830151608060e08401526153da610120840182614af3565b90506060840151609f19848303016101008501526153f88282614af3565b9695505050505050565b60006001600160601b038083168185168183048111821515161561542857615428614e7d565b02949350505050565b600081600019048311821515161561544b5761544b614e7d565b500290565b600061ffff8083168181141561546857615468614e7d565b600101939250505056fe30644e72e131a029b85045b68181585d97816a916871ca8d3c208c16d87cfd47424c535369676e6174757265436865636b65722e636865636b5369676e617475a2646970667358221220b10039e976d5dde5e4b407e25e093bd764578137a60f9e3ee7e47f00266cce2b64736f6c634300080c0033",
    "linkReferences": {}
  },
  "methodIdentifiers": {
    "aggregator()": "245a7bfc",
    "allTaskHashes(uint32)": "2d89f6fc",
    "allTaskResponses(uint32)": "2cb223d5",
    "blsApkRegistry()": "5df45946",
    "checkSignatures(bytes32,bytes,uint32,(uint32[],(uint256,uint256)[],(uint256,uint256)[],(uint256[2],uint256[2]),(uint256,uint256),uint32[],uint32[],uint32[][]))": "6efb4636",
    "createNewTask(uint256,uint32,bytes)": "6b92787e",
    "delegation()": "df5cf723",
    "generator()": "7afa1eed",
    "getCheckSignaturesIndices(address,uint32,bytes,bytes32[])": "4f739f74",
    "getLatestPendingStateHash()": "0373408d",
    "getOperatorState(address,bytes,uint32)": "3563b0d1",
    "getOperatorState(address,bytes32,uint32)": "cefdc1d4",
    "getQuorumBitmapsAtBlockNumber(address,bytes32[],uint32)": "5c155662",
    "getTaskResponseWindowBlock()": "f5c9899d",
    "initialize(address,address,address,address)": "f8c8765e",
    "latestTaskNum()": "8b00ce7c",
    "owner()": "8da5cb5b",
    "pause(uint256)": "136439dd",
    "pauseAll()": "595c6a67",
    "paused()": "5c975abb",
    "paused(uint8)": "5ac86ab7",
    "pauserRegistry()": "886f1195",
    "registryCoordinator()": "6d14a987",
    "renounceOwnership()": "715018a6",
    "respondToTask((uint256,uint32,bytes,uint32),(uint32,bytes32,bytes32,bytes32),(uint32[],(uint256,uint256)[],(uint256,uint256)[],(uint256[2],uint256[2]),(uint256,uint256),uint32[],uint32[],uint32[][]))": "e4e3ad77",
    "setPauserRegistry(address)": "10d67a2f",
    "setStaleStakesForbidden(bool)": "416c7e5e",
    "stakeRegistry()": "68304835",
    "staleStakesForbidden()": "b98d0908",
    "taskNumber()": "72d18e8d",
    "transferOwnership(address)": "f2fde38b",
    "trySignatureAndApkVerification(bytes32,(uint256,uint256),(uint256[2],uint256[2]),(uint256,uint256))": "171f1d5b",
    "unpause(uint256)": "fabc1cbc"
  },
  "id": 125
}