{"abi":[{"type":"constructor","inputs":[{"name":"_serviceManager","type":"address","internalType":"contract IServiceManager"},{"name":"_stakeRegistry","type":"address","internalType":"contract IStakeRegistry"},{"name":"_blsApkRegistry","type":"address","internalType":"contract IBLSApkRegistry"},{"name":"_indexRegistry","type":"address","internalType":"contract IIndexRegistry"}],"stateMutability":"nonpayable"},{"type":"function","name":"OPERATOR_CHURN_APPROVAL_TYPEHASH","inputs":[],"outputs":[{"name":"","type":"bytes32","internalType":"bytes32"}],"stateMutability":"view"},{"type":"function","name":"PUBKEY_REGISTRATION_TYPEHASH","inputs":[],"outputs":[{"name":"","type":"bytes32","internalType":"bytes32"}],"stateMutability":"view"},{"type":"function","name":"blsApkRegistry","inputs":[],"outputs":[{"name":"","type":"address","internalType":"contract IBLSApkRegistry"}],"stateMutability":"view"},{"type":"function","name":"calculateOperatorChurnApprovalDigestHash","inputs":[{"name":"registeringOperator","type":"address","internalType":"address"},{"name":"registeringOperatorId","type":"bytes32","internalType":"bytes32"},{"name":"operatorKickParams","type":"tuple[]","internalType":"struct IRegistryCoordinator.OperatorKickParam[]","components":[{"name":"quorumNumber","type":"uint8","internalType":"uint8"},{"name":"operator","type":"address","internalType":"address"}]},{"name":"salt","type":"bytes32","internalType":"bytes32"},{"name":"expiry","type":"uint256","internalType":"uint256"}],"outputs":[{"name":"","type":"bytes32","internalType":"bytes32"}],"stateMutability":"view"},{"type":"function","name":"churnApprover","inputs":[],"outputs":[{"name":"","type":"address","internalType":"address"}],"stateMutability":"view"},{"type":"function","name":"createQuorum","inputs":[{"name":"operatorSetParams","type":"tuple","internalType":"struct IRegistryCoordinator.OperatorSetParam","components":[{"name":"maxOperatorCount","type":"uint32","internalType":"uint32"},{"name":"kickBIPsOfOperatorStake","type":"uint16","internalType":"uint16"},{"name":"kickBIPsOfTotalStake","type":"uint16","internalType":"uint16"}]},{"name":"minimumStake","type":"uint96","internalType":"uint96"},{"name":"strategyParams","type":"tuple[]","internalType":"struct IStakeRegistry.StrategyParams[]","components":[{"name":"strategy","type":"address","internalType":"contract IStrategy"},{"name":"multiplier","type":"uint96","internalType":"uint96"}]}],"outputs":[],"stateMutability":"nonpayable"},{"type":"function","name":"deregisterOperator","inputs":[{"name":"quorumNumbers","type":"bytes","internalType":"bytes"}],"outputs":[],"stateMutability":"nonpayable"},{"type":"function","name":"ejectOperator","inputs":[{"name":"operator","type":"address","internalType":"address"},{"name":"quorumNumbers","type":"bytes","internalType":"bytes"}],"outputs":[],"stateMutability":"nonpayable"},{"type":"function","name":"ejector","inputs":[],"outputs":[{"name":"","type":"address","internalType":"address"}],"stateMutability":"view"},{"type":"function","name":"getCurrentQuorumBitmap","inputs":[{"name":"operatorId","type":"bytes32","internalType":"bytes32"}],"outputs":[{"name":"","type":"uint192","internalType":"uint192"}],"stateMutability":"view"},{"type":"function","name":"getOperator","inputs":[{"name":"operator","type":"address","internalType":"address"}],"outputs":[{"name":"","type":"tuple","internalType":"struct IRegistryCoordinator.OperatorInfo","components":[{"name":"operatorId","type":"bytes32","internalType":"bytes32"},{"name":"status","type":"uint8","internalType":"enum IRegistryCoordinator.OperatorStatus"}]}],"stateMutability":"view"},{"type":"function","name":"getOperatorFromId","inputs":[{"name":"operatorId","type":"bytes32","internalType":"bytes32"}],"outputs":[{"name":"","type":"address","internalType":"address"}],"stateMutability":"view"},{"type":"function","name":"getOperatorId","inputs":[{"name":"operator","type":"address","internalType":"address"}],"outputs":[{"name":"","type":"bytes32","internalType":"bytes32"}],"stateMutability":"view"},{"type":"function","name":"getOperatorSetParams","inputs":[{"name":"quorumNumber","type":"uint8","internalType":"uint8"}],"outputs":[{"name":"","type":"tuple","internalType":"struct IRegistryCoordinator.OperatorSetParam","components":[{"name":"maxOperatorCount","type":"uint32","internalType":"uint32"},{"name":"kickBIPsOfOperatorStake","type":"uint16","internalType":"uint16"},{"name":"kickBIPsOfTotalStake","type":"uint16","internalType":"uint16"}]}],"stateMutability":"view"},{"type":"function","name":"getOperatorStatus","inputs":[{"name":"operator","type":"address","internalType":"address"}],"outputs":[{"name":"","type":"uint8","internalType":"enum IRegistryCoordinator.OperatorStatus"}],"stateMutability":"view"},{"type":"function","name":"getQuorumBitmapAtBlockNumberByIndex","inputs":[{"name":"operatorId","type":"bytes32","internalType":"bytes32"},{"name":"blockNumber","type":"uint32","internalType":"uint32"},{"name":"index","type":"uint256","internalType":"uint256"}],"outputs":[{"name":"","type":"uint192","internalType":"uint192"}],"stateMutability":"view"},{"type":"function","name":"getQuorumBitmapHistoryLength","inputs":[{"name":"operatorId","type":"bytes32","internalType":"bytes32"}],"outputs":[{"name":"","type":"uint256","internalType":"uint256"}],"stateMutability":"view"},{"type":"function","name":"getQuorumBitmapIndicesAtBlockNumber","inputs":[{"name":"blockNumber","type":"uint32","internalType":"uint32"},{"name":"operatorIds","type":"bytes32[]","internalType":"bytes32[]"}],"outputs":[{"name":"","type":"uint32[]","internalType":"uint32[]"}],"stateMutability":"view"},{"type":"function","name":"getQuorumBitmapUpdateByIndex","inputs":[{"name":"operatorId","type":"bytes32","internalType":"bytes32"},{"name":"index","type":"uint256","internalType":"uint256"}],"outputs":[{"name":"","type":"tuple","internalType":"struct IRegistryCoordinator.QuorumBitmapUpdate","components":[{"name":"updateBlockNumber","type":"uint32","internalType":"uint32"},{"name":"nextUpdateBlockNumber","type":"uint32","internalType":"uint32"},{"name":"quorumBitmap","type":"uint192","internalType":"uint192"}]}],"stateMutability":"view"},{"type":"function","name":"indexRegistry","inputs":[],"outputs":[{"name":"","type":"address","internalType":"contract IIndexRegistry"}],"stateMutability":"view"},{"type":"function","name":"initialize","inputs":[{"name":"_initialOwner","type":"address","internalType":"address"},{"name":"_churnApprover","type":"address","internalType":"address"},{"name":"_ejector","type":"address","internalType":"address"},{"name":"_pauserRegistry","type":"address","internalType":"contract IPauserRegistry"},{"name":"_initialPausedStatus","type":"uint256","internalType":"uint256"},{"name":"_operatorSetParams","type":"tuple[]","internalType":"struct IRegistryCoordinator.OperatorSetParam[]","components":[{"name":"maxOperatorCount","type":"uint32","internalType":"uint32"},{"name":"kickBIPsOfOperatorStake","type":"uint16","internalType":"uint16"},{"name":"kickBIPsOfTotalStake","type":"uint16","internalType":"uint16"}]},{"name":"_minimumStakes","type":"uint96[]","internalType":"uint96[]"},{"name":"_strategyParams","type":"tuple[][]","internalType":"struct IStakeRegistry.StrategyParams[][]","components":[{"name":"strategy","type":"address","internalType":"contract IStrategy"},{"name":"multiplier","type":"uint96","internalType":"uint96"}]}],"outputs":[],"stateMutability":"nonpayable"},{"type":"function","name":"isChurnApproverSaltUsed","inputs":[{"name":"","type":"bytes32","internalType":"bytes32"}],"outputs":[{"name":"","type":"bool","internalType":"bool"}],"stateMutability":"view"},{"type":"function","name":"numRegistries","inputs":[],"outputs":[{"name":"","type":"uint256","internalType":"uint256"}],"stateMutability":"view"},{"type":"function","name":"owner","inputs":[],"outputs":[{"name":"","type":"address","internalType":"address"}],"stateMutability":"view"},{"type":"function","name":"pause","inputs":[{"name":"newPausedStatus","type":"uint256","internalType":"uint256"}],"outputs":[],"stateMutability":"nonpayable"},{"type":"function","name":"pauseAll","inputs":[],"outputs":[],"stateMutability":"nonpayable"},{"type":"function","name":"paused","inputs":[{"name":"index","type":"uint8","internalType":"uint8"}],"outputs":[{"name":"","type":"bool","internalType":"bool"}],"stateMutability":"view"},{"type":"function","name":"paused","inputs":[],"outputs":[{"name":"","type":"uint256","internalType":"uint256"}],"stateMutability":"view"},{"type":"function","name":"pauserRegistry","inputs":[],"outputs":[{"name":"","type":"address","internalType":"contract IPauserRegistry"}],"stateMutability":"view"},{"type":"function","name":"pubkeyRegistrationMessageHash","inputs":[{"name":"operator","type":"address","internalType":"address"}],"outputs":[{"name":"","type":"tuple","internalType":"struct BN254.G1Point","components":[{"name":"X","type":"uint256","internalType":"uint256"},{"name":"Y","type":"uint256","internalType":"uint256"}]}],"stateMutability":"view"},{"type":"function","name":"quorumCount","inputs":[],"outputs":[{"name":"","type":"uint8","internalType":"uint8"}],"stateMutability":"view"},{"type":"function","name":"quorumUpdateBlockNumber","inputs":[{"name":"","type":"uint8","internalType":"uint8"}],"outputs":[{"name":"","type":"uint256","internalType":"uint256"}],"stateMutability":"view"},{"type":"function","name":"registerOperator","inputs":[{"name":"quorumNumbers","type":"bytes","internalType":"bytes"},{"name":"socket","type":"string","internalType":"string"},{"name":"params","type":"tuple","internalType":"struct IBLSApkRegistry.PubkeyRegistrationParams","components":[{"name":"pubkeyRegistrationSignature","type":"tuple","internalType":"struct BN254.G1Point","components":[{"name":"X","type":"uint256","internalType":"uint256"},{"name":"Y","type":"uint256","internalType":"uint256"}]},{"name":"pubkeyG1","type":"tuple","internalType":"struct BN254.G1Point","components":[{"name":"X","type":"uint256","internalType":"uint256"},{"name":"Y","type":"uint256","internalType":"uint256"}]},{"name":"pubkeyG2","type":"tuple","internalType":"struct BN254.G2Point","components":[{"name":"X","type":"uint256[2]","internalType":"uint256[2]"},{"name":"Y","type":"uint256[2]","internalType":"uint256[2]"}]}]},{"name":"operatorSignature","type":"tuple","internalType":"struct ISignatureUtils.SignatureWithSaltAndExpiry","components":[{"name":"signature","type":"bytes","internalType":"bytes"},{"name":"salt","type":"bytes32","internalType":"bytes32"},{"name":"expiry","type":"uint256","internalType":"uint256"}]}],"outputs":[],"stateMutability":"nonpayable"},{"type":"function","name":"registerOperatorWithChurn","inputs":[{"name":"quorumNumbers","type":"bytes","internalType":"bytes"},{"name":"socket","type":"string","internalType":"string"},{"name":"params","type":"tuple","internalType":"struct IBLSApkRegistry.PubkeyRegistrationParams","components":[{"name":"pubkeyRegistrationSignature","type":"tuple","internalType":"struct BN254.G1Point","components":[{"name":"X","type":"uint256","internalType":"uint256"},{"name":"Y","type":"uint256","internalType":"uint256"}]},{"name":"pubkeyG1","type":"tuple","internalType":"struct BN254.G1Point","components":[{"name":"X","type":"uint256","internalType":"uint256"},{"name":"Y","type":"uint256","internalType":"uint256"}]},{"name":"pubkeyG2","type":"tuple","internalType":"struct BN254.G2Point","components":[{"name":"X","type":"uint256[2]","internalType":"uint256[2]"},{"name":"Y","type":"uint256[2]","internalType":"uint256[2]"}]}]},{"name":"operatorKickParams","type":"tuple[]","internalType":"struct IRegistryCoordinator.OperatorKickParam[]","components":[{"name":"quorumNumber","type":"uint8","internalType":"uint8"},{"name":"operator","type":"address","internalType":"address"}]},{"name":"churnApproverSignature","type":"tuple","internalType":"struct ISignatureUtils.SignatureWithSaltAndExpiry","components":[{"name":"signature","type":"bytes","internalType":"bytes"},{"name":"salt","type":"bytes32","internalType":"bytes32"},{"name":"expiry","type":"uint256","internalType":"uint256"}]},{"name":"operatorSignature","type":"tuple","internalType":"struct ISignatureUtils.SignatureWithSaltAndExpiry","components":[{"name":"signature","type":"bytes","internalType":"bytes"},{"name":"salt","type":"bytes32","internalType":"bytes32"},{"name":"expiry","type":"uint256","internalType":"uint256"}]}],"outputs":[],"stateMutability":"nonpayable"},{"type":"function","name":"registries","inputs":[{"name":"","type":"uint256","internalType":"uint256"}],"outputs":[{"name":"","type":"address","internalType":"address"}],"stateMutability":"view"},{"type":"function","name":"renounceOwnership","inputs":[],"outputs":[],"stateMutability":"nonpayable"},{"type":"function","name":"serviceManager","inputs":[],"outputs":[{"name":"","type":"address","internalType":"contract IServiceManager"}],"stateMutability":"view"},{"type":"function","name":"setChurnApprover","inputs":[{"name":"_churnApprover","type":"address","internalType":"address"}],"outputs":[],"stateMutability":"nonpayable"},{"type":"function","name":"setEjector","inputs":[{"name":"_ejector","type":"address","internalType":"address"}],"outputs":[],"stateMutability":"nonpayable"},{"type":"function","name":"setOperatorSetParams","inputs":[{"name":"quorumNumber","type":"uint8","internalType":"uint8"},{"name":"operatorSetParams","type":"tuple","internalType":"struct IRegistryCoordinator.OperatorSetParam","components":[{"name":"maxOperatorCount","type":"uint32","internalType":"uint32"},{"name":"kickBIPsOfOperatorStake","type":"uint16","internalType":"uint16"},{"name":"kickBIPsOfTotalStake","type":"uint16","internalType":"uint16"}]}],"outputs":[],"stateMutability":"nonpayable"},{"type":"function","name":"setPauserRegistry","inputs":[{"name":"newPauserRegistry","type":"address","internalType":"contract IPauserRegistry"}],"outputs":[],"stateMutability":"nonpayable"},{"type":"function","name":"stakeRegistry","inputs":[],"outputs":[{"name":"","type":"address","internalType":"contract IStakeRegistry"}],"stateMutability":"view"},{"type":"function","name":"transferOwnership","inputs":[{"name":"newOwner","type":"address","internalType":"address"}],"outputs":[],"stateMutability":"nonpayable"},{"type":"function","name":"unpause","inputs":[{"name":"newPausedStatus","type":"uint256","internalType":"uint256"}],"outputs":[],"stateMutability":"nonpayable"},{"type":"function","name":"updateOperators","inputs":[{"name":"operators","type":"address[]","internalType":"address[]"}],"outputs":[],"stateMutability":"nonpayable"},{"type":"function","name":"updateOperatorsForQuorum","inputs":[{"name":"operatorsPerQuorum","type":"address[][]","internalType":"address[][]"},{"name":"quorumNumbers","type":"bytes","internalType":"bytes"}],"outputs":[],"stateMutability":"nonpayable"},{"type":"function","name":"updateSocket","inputs":[{"name":"socket","type":"string","internalType":"string"}],"outputs":[],"stateMutability":"nonpayable"},{"type":"event","name":"ChurnApproverUpdated","inputs":[{"name":"prevChurnApprover","type":"address","indexed":false,"internalType":"address"},{"name":"newChurnApprover","type":"address","indexed":false,"internalType":"address"}],"anonymous":false},{"type":"event","name":"EjectorUpdated","inputs":[{"name":"prevEjector","type":"address","indexed":false,"internalType":"address"},{"name":"newEjector","type":"address","indexed":false,"internalType":"address"}],"anonymous":false},{"type":"event","name":"Initialized","inputs":[{"name":"version","type":"uint8","indexed":false,"internalType":"uint8"}],"anonymous":false},{"type":"event","name":"OperatorDeregistered","inputs":[{"name":"operator","type":"address","indexed":true,"internalType":"address"},{"name":"operatorId","type":"bytes32","indexed":true,"internalType":"bytes32"}],"anonymous":false},{"type":"event","name":"OperatorRegistered","inputs":[{"name":"operator","type":"address","indexed":true,"internalType":"address"},{"name":"operatorId","type":"bytes32","indexed":true,"internalType":"bytes32"}],"anonymous":false},{"type":"event","name":"OperatorSetParamsUpdated","inputs":[{"name":"quorumNumber","type":"uint8","indexed":true,"internalType":"uint8"},{"name":"operatorSetParams","type":"tuple","indexed":false,"internalType":"struct IRegistryCoordinator.OperatorSetParam","components":[{"name":"maxOperatorCount","type":"uint32","internalType":"uint32"},{"name":"kickBIPsOfOperatorStake","type":"uint16","internalType":"uint16"},{"name":"kickBIPsOfTotalStake","type":"uint16","internalType":"uint16"}]}],"anonymous":false},{"type":"event","name":"OperatorSocketUpdate","inputs":[{"name":"operatorId","type":"bytes32","indexed":true,"internalType":"bytes32"},{"name":"socket","type":"string","indexed":false,"internalType":"string"}],"anonymous":false},{"type":"event","name":"OwnershipTransferred","inputs":[{"name":"previousOwner","type":"address","indexed":true,"internalType":"address"},{"name":"newOwner","type":"address","indexed":true,"internalType":"address"}],"anonymous":false},{"type":"event","name":"Paused","inputs":[{"name":"account","type":"address","indexed":true,"internalType":"address"},{"name":"newPausedStatus","type":"uint256","indexed":false,"internalType":"uint256"}],"anonymous":false},{"type":"event","name":"PauserRegistrySet","inputs":[{"name":"pauserRegistry","type":"address","indexed":false,"internalType":"contract IPauserRegistry"},{"name":"newPauserRegistry","type":"address","indexed":false,"internalType":"contract IPauserRegistry"}],"anonymous":false},{"type":"event","name":"QuorumBlockNumberUpdated","inputs":[{"name":"quorumNumber","type":"uint8","indexed":true,"internalType":"uint8"},{"name":"blocknumber","type":"uint256","indexed":false,"internalType":"uint256"}],"anonymous":false},{"type":"event","name":"Unpaused","inputs":[{"name":"account","type":"address","indexed":true,"internalType":"address"},{"name":"newPausedStatus","type":"uint256","indexed":false,"internalType":"uint256"}],"anonymous":false}],"bytecode":{"object":"0x6101c06040523480156200001257600080fd5b506040516200633638038062006336833981016040819052620000359162000254565b604080518082018252601681527f4156535265676973747279436f6f7264696e61746f720000000000000000000060208083019182528351808501909452600684526576302e302e3160d01b908401528151902060e08190527f6bda7e3f385e48841048390444cced5cc795af87758af67622e5f4f0882c4a996101008190524660a05287938793879387939192917f8b73c3c69bb8fe3d512ecc4cf759cc79239f7b179b0ffacaa9a75d522b39400f620001358184846040805160208101859052908101839052606081018290524660808201523060a082015260009060c0016040516020818303038152906040528051906020012090509392505050565b6080523060c05261012052505050506001600160a01b039384166101405291831661018052821661016052166101a0526200016f62000179565b50505050620002bc565b600054610100900460ff1615620001e65760405162461bcd60e51b815260206004820152602760248201527f496e697469616c697a61626c653a20636f6e747261637420697320696e697469604482015266616c697a696e6760c81b606482015260840160405180910390fd5b60005460ff908116101562000239576000805460ff191660ff9081179091556040519081527f7f26b83ff96e1f2b6a682f133852f6798a09c465da95921460cefb38474024989060200160405180910390a15b565b6001600160a01b03811681146200025157600080fd5b50565b600080600080608085870312156200026b57600080fd5b845162000278816200023b565b60208601519094506200028b816200023b565b60408601519093506200029e816200023b565b6060860151909250620002b1816200023b565b939692955090935050565b60805160a05160c05160e05161010051610120516101405161016051610180516101a051615f72620003c4600039600081816106370152818161118c0152818161209401528181612e5f015281816136e90152613cc101526000818161057c0152818161201f015281816124c701528181612ddf01528181613640015281816138960152613c4001526000818161054201528181610eae0152818161205d01528181612d6101528181612f4701528181612fbd015281816135c00152613d3d01526000818161048601528181612cb7015261350801526000613f4401526000613f9301526000613f6e01526000613ec701526000613ef101526000613f1b0152615f726000f3fe608060405234801561001057600080fd5b50600436106102945760003560e01c80635df45946116101675780639feab859116100ce578063d75b4c8811610087578063d75b4c88146106f5578063dd8283f314610708578063e65797ad1461071b578063f2fde38b146107be578063fabc1cbc146107d1578063fd39105a146107e457600080fd5b80639feab85914610659578063a50857bf14610680578063c391425e14610693578063ca0de882146106b3578063ca4f2d97146106da578063d72d8dd6146106ed57600080fd5b8063871ef04911610120578063871ef049146105cc578063886f1195146105df5780638da5cb5b146105f85780639aa1653d146106005780639b5d177b1461061f5780639e9923c21461063257600080fd5b80635df459461461053d5780636347c9001461056457806368304835146105775780636e3b17db1461059e578063715018a6146105b157806384ca5213146105b957600080fd5b806328f61b311161020b5780635140a548116101c45780635140a548146104c85780635865c60c146104db578063595c6a67146104fb5780635ac86ab7146105035780635b0b829f146105225780635c975abb1461053557600080fd5b806328f61b3114610435578063296bb0641461044857806329d1e0c31461045b5780632cdd1e861461046e5780633998fdd3146104815780633c2a7f4c146104a857600080fd5b806310d67a2f1161025d57806310d67a2f1461034a57806313542a4e1461035d578063136439dd146103865780631478851f146103995780631eb812da146103cc578063249a0c421461041557600080fd5b8062cf2ab51461029957806303fd3492146102ae57806304ec6351146102e1578063054310e61461030c5780630cf4b76714610337575b600080fd5b6102ac6102a7366004614a44565b610820565b005b6102ce6102bc366004614a85565b60009081526098602052604090205490565b6040519081526020015b60405180910390f35b6102f46102ef366004614ab0565b610936565b6040516001600160c01b0390911681526020016102d8565b609d5461031f906001600160a01b031681565b6040516001600160a01b0390911681526020016102d8565b6102ac610345366004614bcf565b610b2c565b6102ac610358366004614c44565b610c14565b6102ce61036b366004614c44565b6001600160a01b031660009081526099602052604090205490565b6102ac610394366004614a85565b610cc7565b6103bc6103a7366004614a85565b609a6020526000908152604090205460ff1681565b60405190151581526020016102d8565b6103df6103da366004614c61565b610e04565b60408051825163ffffffff908116825260208085015190911690820152918101516001600160c01b0316908201526060016102d8565b6102ce610423366004614c94565b609b6020526000908152604090205481565b609e5461031f906001600160a01b031681565b61031f610456366004614a85565b610e95565b6102ac610469366004614c44565b610f21565b6102ac61047c366004614c44565b610f32565b61031f7f000000000000000000000000000000000000000000000000000000000000000081565b6104bb6104b6366004614c44565b610f43565b6040516102d89190614caf565b6102ac6104d6366004614d07565b610fc2565b6104ee6104e9366004614c44565b61154c565b6040516102d89190614daa565b6102ac6115c0565b6103bc610511366004614c94565b6001805460ff9092161b9081161490565b6102ac610530366004614e2f565b61168c565b6001546102ce565b61031f7f000000000000000000000000000000000000000000000000000000000000000081565b61031f610572366004614a85565b611723565b61031f7f000000000000000000000000000000000000000000000000000000000000000081565b6102ac6105ac366004614e63565b61174d565b6102ac61180d565b6102ce6105c7366004614f1a565b611821565b6102f46105da366004614a85565b61186b565b60005461031f906201000090046001600160a01b031681565b61031f611876565b60965461060d9060ff1681565b60405160ff90911681526020016102d8565b6102ac61062d3660046150b3565b61188f565b61031f7f000000000000000000000000000000000000000000000000000000000000000081565b6102ce7f2bd82124057f0913bc3b772ce7b83e8057c1ad1f3510fc83778be20f10ec5de681565b6102ac61068e3660046151ac565b611bc7565b6106a66106a1366004615254565b611d4b565b6040516102d891906152f9565b6102ce7f3bfe5390d1688d2e056e0ee4b68c5419f42d9bd0c792f01acb83886714adeb5681565b6102ac6106e8366004615343565b611e04565b609c546102ce565b6102ac610703366004615429565b611e6b565b6102ac6107163660046155dc565b611e7e565b61078a610729366004614c94565b60408051606080820183526000808352602080840182905292840181905260ff9490941684526097825292829020825193840183525463ffffffff8116845261ffff600160201b8204811692850192909252600160301b9004169082015290565b60408051825163ffffffff16815260208084015161ffff9081169183019190915292820151909216908201526060016102d8565b6102ac6107cc366004614c44565b612182565b6102ac6107df366004614a85565b6121f8565b6108136107f2366004614c44565b6001600160a01b031660009081526099602052604090206001015460ff1690565b6040516102d891906156b0565b600154600290600490811614156108525760405162461bcd60e51b8152600401610849906156be565b60405180910390fd5b60005b82811015610930576000848483818110610871576108716156f5565b90506020020160208101906108869190614c44565b6001600160a01b03811660009081526099602090815260408083208151808301909252805482526001810154949550929390929183019060ff1660028111156108d1576108d1614d72565b60028111156108e2576108e2614d72565b905250805190915060006108f582612354565b9050600061090b826001600160c01b03166123bd565b9050610918858583612489565b5050505050808061092890615721565b915050610855565b50505050565b6000838152609860205260408120805482919084908110610959576109596156f5565b600091825260209182902060408051606081018252929091015463ffffffff808216808552600160201b8304821695850195909552600160401b9091046001600160c01b03169183019190915290925085161015610a535760405162461bcd60e51b815260206004820152606560248201527f5265676973747279436f6f7264696e61746f722e67657451756f72756d42697460448201527f6d61704174426c6f636b4e756d6265724279496e6465783a2071756f72756d4260648201527f69746d61705570646174652069732066726f6d20616674657220626c6f636b4e6084820152643ab6b132b960d91b60a482015260c401610849565b602081015163ffffffff161580610a795750806020015163ffffffff168463ffffffff16105b610b205760405162461bcd60e51b815260206004820152606660248201527f5265676973747279436f6f7264696e61746f722e67657451756f72756d42697460448201527f6d61704174426c6f636b4e756d6265724279496e6465783a2071756f72756d4260648201527f69746d61705570646174652069732066726f6d206265666f726520626c6f636b608482015265273ab6b132b960d11b60a482015260c401610849565b60400151949350505050565b60013360009081526099602052604090206001015460ff166002811115610b5557610b55614d72565b14610bc85760405162461bcd60e51b815260206004820152603c60248201527f5265676973747279436f6f7264696e61746f722e757064617465536f636b657460448201527f3a206f70657261746f72206973206e6f742072656769737465726564000000006064820152608401610849565b33600090815260996020526040908190205490517fec2963ab21c1e50e1e582aa542af2e4bf7bf38e6e1403c27b42e1c5d6e621eaa90610c09908490615789565b60405180910390a250565b600060029054906101000a90046001600160a01b03166001600160a01b031663eab66d7a6040518163ffffffff1660e01b8152600401602060405180830381865afa158015610c67573d6000803e3d6000fd5b505050506040513d601f19601f82011682018060405250810190610c8b919061579c565b6001600160a01b0316336001600160a01b031614610cbb5760405162461bcd60e51b8152600401610849906157b9565b610cc481612576565b50565b60005460405163237dfb4760e11b8152336004820152620100009091046001600160a01b0316906346fbf68e90602401602060405180830381865afa158015610d14573d6000803e3d6000fd5b505050506040513d601f19601f82011682018060405250810190610d389190615803565b610d545760405162461bcd60e51b815260040161084990615825565b60015481811614610dcd5760405162461bcd60e51b815260206004820152603860248201527f5061757361626c652e70617573653a20696e76616c696420617474656d70742060448201527f746f20756e70617573652066756e6374696f6e616c69747900000000000000006064820152608401610849565b600181905560405181815233907fab40a374bc51de372200a8bc981af8c9ecdc08dfdaef0bb6e09f88f3c616ef3d90602001610c09565b60408051606081018252600080825260208201819052918101919091526000838152609860205260409020805483908110610e4157610e416156f5565b600091825260209182902060408051606081018252919092015463ffffffff8082168352600160201b820416938201939093526001600160c01b03600160401b909304929092169082015290505b92915050565b6040516308f6629d60e31b8152600481018290526000907f00000000000000000000000000000000000000000000000000000000000000006001600160a01b0316906347b314e890602401602060405180830381865afa158015610efd573d6000803e3d6000fd5b505050506040513d601f19601f82011682018060405250810190610e8f919061579c565b610f2961267b565b610cc4816126da565b610f3a61267b565b610cc481612743565b6040805180820190915260008082526020820152610e8f610fbd7f2bd82124057f0913bc3b772ce7b83e8057c1ad1f3510fc83778be20f10ec5de684604051602001610fa29291909182526001600160a01b0316602082015260400190565b604051602081830303815290604052805190602001206127ac565b6127fa565b60015460029060049081161415610feb5760405162461bcd60e51b8152600401610849906156be565b600061103384848080601f0160208091040260200160405190810160405280939291908181526020018383808284376000920191909152505060965460ff16915061288a9050565b905061103e81612943565b6110ae5760405162461bcd60e51b81526020600482015260476024820152600080516020615ebd83398151915260448201527f6f7273466f7251756f72756d3a20736f6d652071756f72756d7320646f206e6f6064820152661d08195e1a5cdd60ca1b608482015260a401610849565b84831461111d5760405162461bcd60e51b81526020600482015260436024820152600080516020615ebd83398151915260448201527f6f7273466f7251756f72756d3a20696e707574206c656e677468206d69736d616064820152620e8c6d60eb1b608482015260a401610849565b60005b8381101561154357600085858381811061113c5761113c6156f5565b919091013560f81c9150369050600089898581811061115d5761115d6156f5565b905060200281019061116f919061586d565b6040516379a0849160e11b815260ff8616600482015291935091507f00000000000000000000000000000000000000000000000000000000000000006001600160a01b03169063f341092290602401602060405180830381865afa1580156111db573d6000803e3d6000fd5b505050506040513d601f19601f820116820180604052508101906111ff91906158b6565b63ffffffff16811461129b5760405162461bcd60e51b81526020600482015260656024820152600080516020615ebd83398151915260448201527f6f7273466f7251756f72756d3a206e756d626572206f6620757064617465642060648201527f6f70657261746f727320646f6573206e6f74206d617463682071756f72756d206084820152641d1bdd185b60da1b60a482015260c401610849565b6000805b828110156114e25760008484838181106112bb576112bb6156f5565b90506020020160208101906112d09190614c44565b6001600160a01b03811660009081526099602090815260408083208151808301909252805482526001810154949550929390929183019060ff16600281111561131b5761131b614d72565b600281111561132c5761132c614d72565b9052508051909150600061133f82612354565b905060016001600160c01b03821660ff8b161c8116146113c35760405162461bcd60e51b815260206004820152604460248201819052600080516020615ebd833981519152908201527f6f7273466f7251756f72756d3a206f70657261746f72206e6f7420696e2071756064820152636f72756d60e01b608482015260a401610849565b856001600160a01b0316846001600160a01b03161161146e5760405162461bcd60e51b81526020600482015260676024820152600080516020615ebd83398151915260448201527f6f7273466f7251756f72756d3a206f70657261746f7273206172726179206d7560648201527f737420626520736f7274656420696e20617363656e64696e6720616464726573608482015266399037b93232b960c91b60a482015260c401610849565b506114cc83838f8f8d908e600161148591906158d3565b92611492939291906158eb565b8080601f01602080910402602001604051908101604052809392919081815260200183838082843760009201919091525061248992505050565b509092506114db905081615721565b905061129f565b5060ff84166000818152609b6020908152604091829020439081905591519182527f46077d55330763f16269fd75e5761663f4192d2791747c0189b16ad31db07db4910160405180910390a2505050508061153c90615721565b9050611120565b50505050505050565b60408051808201909152600080825260208201526001600160a01b0382166000908152609960209081526040918290208251808401909352805483526001810154909183019060ff1660028111156115a6576115a6614d72565b60028111156115b7576115b7614d72565b90525092915050565b60005460405163237dfb4760e11b8152336004820152620100009091046001600160a01b0316906346fbf68e90602401602060405180830381865afa15801561160d573d6000803e3d6000fd5b505050506040513d601f19601f820116820180604052508101906116319190615803565b61164d5760405162461bcd60e51b815260040161084990615825565b600019600181905560405190815233907fab40a374bc51de372200a8bc981af8c9ecdc08dfdaef0bb6e09f88f3c616ef3d9060200160405180910390a2565b61169461267b565b609654829060ff908116908216106117145760405162461bcd60e51b815260206004820152603760248201527f5265676973747279436f6f7264696e61746f722e71756f72756d45786973747360448201527f3a2071756f72756d20646f6573206e6f742065786973740000000000000000006064820152608401610849565b61171e8383612976565b505050565b609c818154811061173357600080fd5b6000918252602090912001546001600160a01b0316905081565b609e546001600160a01b031633146117cd5760405162461bcd60e51b815260206004820152603a60248201527f5265676973747279436f6f7264696e61746f722e6f6e6c79456a6563746f723a60448201527f2063616c6c6572206973206e6f742074686520656a6563746f720000000000006064820152608401610849565b61171e8383838080601f016020809104026020016040519081016040528093929190818152602001838380828437600092019190915250612a2392505050565b61181561267b565b61181f6000612ed3565b565b60006118617f3bfe5390d1688d2e056e0ee4b68c5419f42d9bd0c792f01acb83886714adeb568787878787604051602001610fa296959493929190615915565b9695505050505050565b6000610e8f82612354565b600061188a6064546001600160a01b031690565b905090565b6001805460009190811614156118b75760405162461bcd60e51b8152600401610849906156be565b83891461193a5760405162461bcd60e51b8152602060048201526044602482018190527f5265676973747279436f6f7264696e61746f722e72656769737465724f706572908201527f61746f7257697468436875726e3a20696e707574206c656e677468206d69736d6064820152630c2e8c6d60e31b608482015260a401610849565b60006119463388612f25565b90506119a633828888808060200260200160405190810160405280939291908181526020016000905b8282101561199b5761198c6040830286013681900381019061599a565b8152602001906001019061196f565b505050505087613056565b60006119ed33838e8e8e8e8080601f0160208091040260200160405190810160405280939291908181526020018383808284376000920191909152508c92506131e3915050565b905060005b8b811015611bb8576000609760008f8f85818110611a1257611a126156f5565b919091013560f81c82525060208082019290925260409081016000208151606081018352905463ffffffff811680835261ffff600160201b8304811695840195909552600160301b90910490931691810191909152845180519193509084908110611a7f57611a7f6156f5565b602002602001015163ffffffff161115611ba557611b208e8e84818110611aa857611aa86156f5565b9050013560f81c60f81b60f81c84604001518481518110611acb57611acb6156f5565b60200260200101513386602001518681518110611aea57611aea6156f5565b60200260200101518d8d88818110611b0457611b046156f5565b905060400201803603810190611b1a919061599a565b86613777565b611ba5898984818110611b3557611b356156f5565b9050604002016020016020810190611b4d9190614c44565b8f8f8590866001611b5e91906158d3565b92611b6b939291906158eb565b8080601f016020809104026020016040519081016040528093929190818152602001838380828437600092019190915250612a2392505050565b5080611bb081615721565b9150506119f2565b50505050505050505050505050565b600180546000919081161415611bef5760405162461bcd60e51b8152600401610849906156be565b6000611bfb3385612f25565b90506000611c4433838b8b8b8b8080601f0160208091040260200160405190810160405280939291908181526020018383808284376000920191909152508c92506131e3915050565b51905060005b88811015611d3f5760008a8a83818110611c6657611c666156f5565b919091013560f81c600081815260976020526040902054855191935063ffffffff169150849084908110611c9c57611c9c6156f5565b602002602001015163ffffffff161115611d2c5760405162461bcd60e51b8152602060048201526044602482018190527f5265676973747279436f6f7264696e61746f722e72656769737465724f706572908201527f61746f723a206f70657261746f7220636f756e742065786365656473206d6178606482015263696d756d60e01b608482015260a401610849565b5080611d3781615721565b915050611c4a565b50505050505050505050565b6060600082516001600160401b03811115611d6857611d68614ae8565b604051908082528060200260200182016040528015611d91578160200160208202803683370190505b50905060005b8351811015611dfc57611dc385858381518110611db657611db66156f5565b6020026020010151613a4c565b828281518110611dd557611dd56156f5565b63ffffffff9092166020928302919091019091015280611df481615721565b915050611d97565b509392505050565b6001805460029081161415611e2b5760405162461bcd60e51b8152600401610849906156be565b61171e3384848080601f016020809104026020016040519081016040528093929190818152602001838380828437600092019190915250612a2392505050565b611e7361267b565b61171e838383613b88565b600054610100900460ff1615808015611e9e5750600054600160ff909116105b80611eb85750303b158015611eb8575060005460ff166001145b611f1b5760405162461bcd60e51b815260206004820152602e60248201527f496e697469616c697a61626c653a20636f6e747261637420697320616c72656160448201526d191e481a5b9a5d1a585b1a5e995960921b6064820152608401610849565b6000805460ff191660011790558015611f3e576000805461ff0019166101001790555b82518451148015611f50575081518351145b611fba5760405162461bcd60e51b815260206004820152603560248201527f5265676973747279436f6f7264696e61746f722e696e697469616c697a653a206044820152740d2dce0eae840d8cadccee8d040dad2e6dac2e8c6d605b1b6064820152608401610849565b611fc389612ed3565b611fcd8686613d9f565b611fd6886126da565b611fdf87612743565b609c80546001818101835560008381527faf85b9071dfafeac1409d3f1d19bafc9bc7c37974cde8df0ee6168f0086e539c92830180546001600160a01b037f000000000000000000000000000000000000000000000000000000000000000081166001600160a01b03199283161790925585548085018755850180547f0000000000000000000000000000000000000000000000000000000000000000841690831617905585549384019095559190920180547f000000000000000000000000000000000000000000000000000000000000000090921691909316179091555b84518110156121305761211e8582815181106120dd576120dd6156f5565b60200260200101518583815181106120f7576120f76156f5565b6020026020010151858481518110612111576121116156f5565b6020026020010151613b88565b8061212881615721565b9150506120bf565b508015612177576000805461ff0019169055604051600181527f7f26b83ff96e1f2b6a682f133852f6798a09c465da95921460cefb38474024989060200160405180910390a15b505050505050505050565b61218a61267b565b6001600160a01b0381166121ef5760405162461bcd60e51b815260206004820152602660248201527f4f776e61626c653a206e6577206f776e657220697320746865207a65726f206160448201526564647265737360d01b6064820152608401610849565b610cc481612ed3565b600060029054906101000a90046001600160a01b03166001600160a01b031663eab66d7a6040518163ffffffff1660e01b8152600401602060405180830381865afa15801561224b573d6000803e3d6000fd5b505050506040513d601f19601f8201168201806040525081019061226f919061579c565b6001600160a01b0316336001600160a01b03161461229f5760405162461bcd60e51b8152600401610849906157b9565b60015419811960015419161461231d5760405162461bcd60e51b815260206004820152603860248201527f5061757361626c652e756e70617573653a20696e76616c696420617474656d7060448201527f7420746f2070617573652066756e6374696f6e616c69747900000000000000006064820152608401610849565b600181905560405181815233907f3582d1828e26bf56bd801502bc021ac0bc8afb57c826e4986b45593c8fad389c90602001610c09565b600081815260986020526040812054806123715750600092915050565b600083815260986020526040902061238a6001836159b6565b8154811061239a5761239a6156f5565b600091825260209091200154600160401b90046001600160c01b03169392505050565b60606000806123cb84613e8f565b61ffff166001600160401b038111156123e6576123e6614ae8565b6040519080825280601f01601f191660200182016040528015612410576020820181803683370190505b5090506000805b825182108015612428575061010081105b1561247f576001811b93508584161561246f578060f81b838381518110612451576124516156f5565b60200101906001600160f81b031916908160001a9053508160010191505b61247881615721565b9050612417565b5090949350505050565b6001826020015160028111156124a1576124a1614d72565b146124ab57505050565b81516040516333567f7f60e11b81526000906001600160a01b037f000000000000000000000000000000000000000000000000000000000000000016906366acfefe90612500908890869088906004016159cd565b6020604051808303816000875af115801561251f573d6000803e3d6000fd5b505050506040513d601f19601f8201168201806040525081019061254391906159fd565b90506001600160c01b0381161561256f5761256f8561256a836001600160c01b03166123bd565b612a23565b5050505050565b6001600160a01b0381166126045760405162461bcd60e51b815260206004820152604960248201527f5061757361626c652e5f73657450617573657252656769737472793a206e657760448201527f50617573657252656769737472792063616e6e6f7420626520746865207a65726064820152686f206164647265737360b81b608482015260a401610849565b600054604080516001600160a01b03620100009093048316815291831660208301527f6e9fcd539896fca60e8b0f01dd580233e48a6b0f7df013b89ba7f565869acdb6910160405180910390a1600080546001600160a01b03909216620100000262010000600160b01b0319909216919091179055565b33612684611876565b6001600160a01b03161461181f5760405162461bcd60e51b815260206004820181905260248201527f4f776e61626c653a2063616c6c6572206973206e6f7420746865206f776e65726044820152606401610849565b609d54604080516001600160a01b03928316815291831660208301527f315457d8a8fe60f04af17c16e2f5a5e1db612b31648e58030360759ef8f3528c910160405180910390a1609d80546001600160a01b0319166001600160a01b0392909216919091179055565b609e54604080516001600160a01b03928316815291831660208301527f8f30ab09f43a6c157d7fce7e0a13c003042c1c95e8a72e7a146a21c0caa24dc9910160405180910390a1609e80546001600160a01b0319166001600160a01b0392909216919091179055565b6000610e8f6127b9613eba565b8360405161190160f01b6020820152602281018390526042810182905260009060620160405160208183030381529060405280519060200120905092915050565b60408051808201909152600080825260208201526000808061282a600080516020615efd83398151915286615a3c565b90505b61283681613fe1565b9093509150600080516020615efd833981519152828309831415612870576040805180820190915290815260208101919091529392505050565b600080516020615efd83398151915260018208905061282d565b60008061289684614063565b9050801561293c578260ff1684600186516128b191906159b6565b815181106128c1576128c16156f5565b016020015160f81c1061293c5760405162461bcd60e51b815260206004820152603f60248201527f4269746d61705574696c732e6f72646572656442797465734172726179546f4260448201527f69746d61703a206269746d61702065786365656473206d61782076616c7565006064820152608401610849565b9392505050565b609654600090819061295d9060019060ff1681901b6159b6565b905061293c6001600160c01b0384811690831681161490565b60ff8216600081815260976020908152604091829020845181548684018051888701805163ffffffff90951665ffffffffffff199094168417600160201b61ffff938416021767ffff0000000000001916600160301b95831695909502949094179094558551918252518316938101939093525116918101919091527f3ee6fe8d54610244c3e9d3c066ae4aee997884aa28f10616ae821925401318ac9060600160405180910390a25050565b6001600160a01b0382166000908152609960205260409020805460018083015460ff166002811115612a5757612a57614d72565b14612ac45760405162461bcd60e51b81526020600482015260436024820152600080516020615f1d83398151915260448201527f70657261746f723a206f70657261746f72206973206e6f7420726567697374656064820152621c995960ea1b608482015260a401610849565b609654600090612ad890859060ff1661288a565b90506000612ae583612354565b90506001600160c01b038216612b515760405162461bcd60e51b815260206004820152603b6024820152600080516020615f1d83398151915260448201527f70657261746f723a206269746d61702063616e6e6f74206265203000000000006064820152608401610849565b612b5a82612943565b612bc55760405162461bcd60e51b81526020600482015260426024820152600080516020615f1d83398151915260448201527f70657261746f723a20736f6d652071756f72756d7320646f206e6f74206578696064820152611cdd60f21b608482015260a401610849565b612bdc6001600160c01b0383811690831681161490565b612c625760405162461bcd60e51b81526020600482015260596024820152600080516020615f1d83398151915260448201527f70657261746f723a206f70657261746f72206973206e6f74207265676973746560648201527f72656420666f72207370656369666965642071756f72756d7300000000000000608482015260a401610849565b6001600160c01b0382811619821616612c7b84826141f0565b6001600160c01b038116612d4a5760018501805460ff191660021790556040516351b27a6d60e11b81526001600160a01b0388811660048301527f0000000000000000000000000000000000000000000000000000000000000000169063a364f4da90602401600060405180830381600087803b158015612cfb57600080fd5b505af1158015612d0f573d6000803e3d6000fd5b50506040518692506001600160a01b038a1691507f396fdcb180cb0fea26928113fb0fd1c3549863f9cd563e6a184f1d578116c8e490600090a35b60405163f4e24fe560e01b81526001600160a01b037f0000000000000000000000000000000000000000000000000000000000000000169063f4e24fe590612d98908a908a90600401615a50565b600060405180830381600087803b158015612db257600080fd5b505af1158015612dc6573d6000803e3d6000fd5b505060405163bd29b8cd60e01b81526001600160a01b037f000000000000000000000000000000000000000000000000000000000000000016925063bd29b8cd9150612e189087908a90600401615a74565b600060405180830381600087803b158015612e3257600080fd5b505af1158015612e46573d6000803e3d6000fd5b505060405163bd29b8cd60e01b81526001600160a01b037f000000000000000000000000000000000000000000000000000000000000000016925063bd29b8cd9150612e989087908a90600401615a74565b600060405180830381600087803b158015612eb257600080fd5b505af1158015612ec6573d6000803e3d6000fd5b5050505050505050505050565b606480546001600160a01b038381166001600160a01b0319831681179093556040519116919082907f8be0079c531659141344cd1fd0a4f28419497f9722a3daafe3b4186f6b6457e090600090a35050565b6040516309aa152760e11b81526001600160a01b0383811660048301526000917f0000000000000000000000000000000000000000000000000000000000000000909116906313542a4e90602401602060405180830381865afa158015612f90573d6000803e3d6000fd5b505050506040513d601f19601f82011682018060405250810190612fb49190615a8d565b905080610e8f577f00000000000000000000000000000000000000000000000000000000000000006001600160a01b031663bf79ce588484612ff587610f43565b6040518463ffffffff1660e01b815260040161301393929190615aa6565b6020604051808303816000875af1158015613032573d6000803e3d6000fd5b505050506040513d601f19601f8201168201806040525081019061293c9190615a8d565b6020808201516000908152609a909152604090205460ff16156130fc5760405162461bcd60e51b815260206004820152605260248201527f5265676973747279436f6f7264696e61746f722e5f766572696679436875726e60448201527f417070726f7665725369676e61747572653a20636875726e417070726f766572606482015271081cd85b1d08185b1c9958591e481d5cd95960721b608482015260a401610849565b42816040015110156131915760405162461bcd60e51b815260206004820152605260248201527f5265676973747279436f6f7264696e61746f722e5f766572696679436875726e60448201527f417070726f7665725369676e61747572653a20636875726e417070726f766572606482015271081cda59db985d1d5c9948195e1c1a5c995960721b608482015260a401610849565b602080820180516000908152609a909252604091829020805460ff19166001179055609d54905191830151610930926001600160a01b03909216916131dc9188918891889190611821565b83516143b0565b61320760405180606001604052806060815260200160608152602001606081525090565b600061324f86868080601f0160208091040260200160405190810160405280939291908181526020018383808284376000920191909152505060965460ff16915061288a9050565b9050600061325c88612354565b90506001600160c01b0382166132da5760405162461bcd60e51b815260206004820152603960248201527f5265676973747279436f6f7264696e61746f722e5f72656769737465724f706560448201527f7261746f723a206269746d61702063616e6e6f742062652030000000000000006064820152608401610849565b6132e382612943565b613357576040805162461bcd60e51b81526020600482015260248101919091527f5265676973747279436f6f7264696e61746f722e5f72656769737465724f706560448201527f7261746f723a20736f6d652071756f72756d7320646f206e6f742065786973746064820152608401610849565b8082166001600160c01b03161561340d5760405162461bcd60e51b815260206004820152606860248201527f5265676973747279436f6f7264696e61746f722e5f72656769737465724f706560448201527f7261746f723a206f70657261746f7220616c726561647920726567697374657260648201527f656420666f7220736f6d652071756f72756d73206265696e672072656769737460848201526732b932b2103337b960c11b60a482015260c401610849565b6001600160c01b038181169083161761342689826141f0565b887fec2963ab21c1e50e1e582aa542af2e4bf7bf38e6e1403c27b42e1c5d6e621eaa876040516134569190615789565b60405180910390a260016001600160a01b038b1660009081526099602052604090206001015460ff16600281111561349057613490614d72565b146135a9576040805180820182528a8152600160208083018281526001600160a01b038f166000908152609990925293902082518155925183820180549394939192909160ff1916908360028111156134eb576134eb614d72565b021790555050604051639926ee7d60e01b81526001600160a01b037f0000000000000000000000000000000000000000000000000000000000000000169150639926ee7d90613540908d908990600401615b25565b600060405180830381600087803b15801561355a57600080fd5b505af115801561356e573d6000803e3d6000fd5b50506040518b92506001600160a01b038d1691507fe8e68cef1c3a761ed7be7e8463a375f27f7bc335e51824223cacce636ec5c3fe90600090a35b604051631fd93ca960e11b81526001600160a01b037f00000000000000000000000000000000000000000000000000000000000000001690633fb27952906135f9908d908c908c90600401615b99565b600060405180830381600087803b15801561361357600080fd5b505af1158015613627573d6000803e3d6000fd5b5050604051632550477760e01b81526001600160a01b037f00000000000000000000000000000000000000000000000000000000000000001692506325504777915061367d908d908d908d908d90600401615bbe565b6000604051808303816000875af115801561369c573d6000803e3d6000fd5b505050506040513d6000823e601f3d908101601f191682016040526136c49190810190615c4a565b60408087019190915260208601919091525162bff04d60e01b81526001600160a01b037f0000000000000000000000000000000000000000000000000000000000000000169062bff04d90613721908c908c908c90600401615cad565b6000604051808303816000875af1158015613740573d6000803e3d6000fd5b505050506040513d6000823e601f3d908101601f191682016040526137689190810190615cc7565b84525050509695505050505050565b6020808301516001600160a01b0380821660008181526099909452604090932054919290871614156137f75760405162461bcd60e51b81526020600482015260356024820152600080516020615edd83398151915260448201527439371d1031b0b73737ba1031b43ab9371039b2b63360591b6064820152608401610849565b8760ff16846000015160ff16146138745760405162461bcd60e51b81526020600482015260476024820152600080516020615edd83398151915260448201527f726e3a2071756f72756d4e756d626572206e6f74207468652073616d65206173606482015266081cda59db995960ca1b608482015260a401610849565b604051635401ed2760e01b81526004810182905260ff891660248201526000907f00000000000000000000000000000000000000000000000000000000000000006001600160a01b031690635401ed2790604401602060405180830381865afa1580156138e5573d6000803e3d6000fd5b505050506040513d601f19601f820116820180604052508101906139099190615d60565b9050613915818561456a565b6001600160601b0316866001600160601b0316116139a85760405162461bcd60e51b81526020600482015260566024820152600080516020615edd83398151915260448201527f726e3a20696e636f6d696e67206f70657261746f722068617320696e7375666660648201527534b1b4b2b73a1039ba30b5b2903337b91031b43ab93760511b608482015260a401610849565b6139b2888561458e565b6001600160601b0316816001600160601b0316106121775760405162461bcd60e51b815260206004820152605c6024820152600080516020615edd83398151915260448201527f726e3a2063616e6e6f74206b69636b206f70657261746f722077697468206d6f60648201527f7265207468616e206b69636b424950734f66546f74616c5374616b6500000000608482015260a401610849565b600081815260986020526040812054815b81811015613ade576001613a7182846159b6565b613a7b91906159b6565b92508463ffffffff16609860008681526020019081526020016000208463ffffffff1681548110613aae57613aae6156f5565b60009182526020909120015463ffffffff1611613acc575050610e8f565b80613ad681615721565b915050613a5d565b5060405162461bcd60e51b815260206004820152606c60248201527f5265676973747279436f6f7264696e61746f722e67657451756f72756d42697460448201527f6d6170496e6465784174426c6f636b4e756d6265723a206e6f206269746d617060648201527f2075706461746520666f756e6420666f72206f70657261746f7249642061742060848201526b313637b1b590373ab6b132b960a11b60a482015260c401610849565b60965460ff1660c08110613bfc5760405162461bcd60e51b815260206004820152603560248201527f5265676973747279436f6f7264696e61746f722e63726561746551756f72756d6044820152740e881b585e081c5d5bdc9d5b5cc81c995858da1959605a1b6064820152608401610849565b613c07816001615d7d565b6096805460ff191660ff9290921691909117905580613c268186612976565b60405160016296b58960e01b031981526001600160a01b037f0000000000000000000000000000000000000000000000000000000000000000169063ff694a7790613c7990849088908890600401615da2565b600060405180830381600087803b158015613c9357600080fd5b505af1158015613ca7573d6000803e3d6000fd5b505060405163136ca0f960e11b815260ff841660048201527f00000000000000000000000000000000000000000000000000000000000000006001600160a01b031692506326d941f29150602401600060405180830381600087803b158015613d0f57600080fd5b505af1158015613d23573d6000803e3d6000fd5b505060405163136ca0f960e11b815260ff841660048201527f00000000000000000000000000000000000000000000000000000000000000006001600160a01b031692506326d941f29150602401600060405180830381600087803b158015613d8b57600080fd5b505af1158015612177573d6000803e3d6000fd5b6000546201000090046001600160a01b0316158015613dc657506001600160a01b03821615155b613e485760405162461bcd60e51b815260206004820152604760248201527f5061757361626c652e5f696e697469616c697a655061757365723a205f696e6960448201527f7469616c697a6550617573657228292063616e206f6e6c792062652063616c6c6064820152666564206f6e636560c81b608482015260a401610849565b600181905560405181815233907fab40a374bc51de372200a8bc981af8c9ecdc08dfdaef0bb6e09f88f3c616ef3d9060200160405180910390a2613e8b82612576565b5050565b6000805b8215610e8f57613ea46001846159b6565b9092169180613eb281615e1b565b915050613e93565b6000306001600160a01b037f000000000000000000000000000000000000000000000000000000000000000016148015613f1357507f000000000000000000000000000000000000000000000000000000000000000046145b15613f3d57507f000000000000000000000000000000000000000000000000000000000000000090565b50604080517f00000000000000000000000000000000000000000000000000000000000000006020808301919091527f0000000000000000000000000000000000000000000000000000000000000000828401527f000000000000000000000000000000000000000000000000000000000000000060608301524660808301523060a0808401919091528351808403909101815260c0909201909252805191012090565b60008080600080516020615efd8339815191526003600080516020615efd83398151915286600080516020615efd833981519152888909090890506000614057827f0c19139cb84c680a6e14116da060561765e05aa45a1c72a34f082305b61f3f52600080516020615efd8339815191526145a8565b91959194509092505050565b6000610100825111156140ec5760405162461bcd60e51b8152602060048201526044602482018190527f4269746d61705574696c732e6f72646572656442797465734172726179546f42908201527f69746d61703a206f7264657265644279746573417272617920697320746f6f206064820152636c6f6e6760e01b608482015260a401610849565b81516140fa57506000919050565b60008083600081518110614110576141106156f5565b0160200151600160f89190911c81901b92505b84518110156141e75784818151811061413e5761413e6156f5565b0160200151600160f89190911c1b91508282116141d35760405162461bcd60e51b815260206004820152604760248201527f4269746d61705574696c732e6f72646572656442797465734172726179546f4260448201527f69746d61703a206f72646572656442797465734172726179206973206e6f74206064820152661bdc99195c995960ca1b608482015260a401610849565b918117916141e081615721565b9050614123565b50909392505050565b60008281526098602052604090205480614295576000838152609860209081526040808320815160608101835263ffffffff43811682528185018681526001600160c01b03808a16958401958652845460018101865594885295909620915191909201805495519351909416600160401b026001600160401b03938316600160201b0267ffffffffffffffff1990961691909216179390931716919091179055505050565b60008381526098602052604081206142ae6001846159b6565b815481106142be576142be6156f5565b600091825260209091200180549091504363ffffffff908116911614156143025780546001600160401b0316600160401b6001600160c01b03851602178155610930565b805463ffffffff438116600160201b81810267ffffffff0000000019909416939093178455600087815260986020908152604080832081516060810183529485528483018481526001600160c01b03808c1693870193845282546001810184559286529390942094519401805493519151909216600160401b026001600160401b0391861690960267ffffffffffffffff199093169390941692909217179190911691909117905550505050565b6001600160a01b0383163b156144ca57604051630b135d3f60e11b808252906001600160a01b03851690631626ba7e906143f09086908690600401615a74565b602060405180830381865afa15801561440d573d6000803e3d6000fd5b505050506040513d601f19601f820116820180604052508101906144319190615e3d565b6001600160e01b0319161461171e5760405162461bcd60e51b815260206004820152605360248201527f454950313237315369676e61747572655574696c732e636865636b5369676e6160448201527f747572655f454950313237313a2045524331323731207369676e6174757265206064820152721d995c9a599a58d85d1a5bdb8819985a5b1959606a1b608482015260a401610849565b826001600160a01b03166144de8383614657565b6001600160a01b03161461171e5760405162461bcd60e51b815260206004820152604760248201527f454950313237315369676e61747572655574696c732e636865636b5369676e6160448201527f747572655f454950313237313a207369676e6174757265206e6f742066726f6d6064820152661039b4b3b732b960c91b608482015260a401610849565b6020810151600090612710906145849061ffff1685615e67565b61293c9190615e96565b6040810151600090612710906145849061ffff1685615e67565b6000806145b36149c4565b6145bb6149e2565b602080825281810181905260408201819052606082018890526080820187905260a082018690528260c08360056107d05a03fa92508280156145fc576145fe565bfe5b508261464c5760405162461bcd60e51b815260206004820152601a60248201527f424e3235342e6578704d6f643a2063616c6c206661696c7572650000000000006044820152606401610849565b505195945050505050565b60008060006146668585614673565b91509150611dfc816146e3565b6000808251604114156146aa5760208301516040840151606085015160001a61469e8782858561489e565b945094505050506146dc565b8251604014156146d457602083015160408401516146c986838361498b565b9350935050506146dc565b506000905060025b9250929050565b60008160048111156146f7576146f7614d72565b14156147005750565b600181600481111561471457614714614d72565b14156147625760405162461bcd60e51b815260206004820152601860248201527f45434453413a20696e76616c6964207369676e617475726500000000000000006044820152606401610849565b600281600481111561477657614776614d72565b14156147c45760405162461bcd60e51b815260206004820152601f60248201527f45434453413a20696e76616c6964207369676e6174757265206c656e677468006044820152606401610849565b60038160048111156147d8576147d8614d72565b14156148315760405162461bcd60e51b815260206004820152602260248201527f45434453413a20696e76616c6964207369676e6174757265202773272076616c604482015261756560f01b6064820152608401610849565b600481600481111561484557614845614d72565b1415610cc45760405162461bcd60e51b815260206004820152602260248201527f45434453413a20696e76616c6964207369676e6174757265202776272076616c604482015261756560f01b6064820152608401610849565b6000807f7fffffffffffffffffffffffffffffff5d576e7357a4501ddfe92f46681b20a08311156148d55750600090506003614982565b8460ff16601b141580156148ed57508460ff16601c14155b156148fe5750600090506004614982565b6040805160008082526020820180845289905260ff881692820192909252606081018690526080810185905260019060a0016020604051602081039080840390855afa158015614952573d6000803e3d6000fd5b5050604051601f1901519150506001600160a01b03811661497b57600060019250925050614982565b9150600090505b94509492505050565b6000806001600160ff1b038316816149a860ff86901c601b6158d3565b90506149b68782888561489e565b935093505050935093915050565b60405180602001604052806001906020820280368337509192915050565b6040518060c001604052806006906020820280368337509192915050565b60008083601f840112614a1257600080fd5b5081356001600160401b03811115614a2957600080fd5b6020830191508360208260051b85010111156146dc57600080fd5b60008060208385031215614a5757600080fd5b82356001600160401b03811115614a6d57600080fd5b614a7985828601614a00565b90969095509350505050565b600060208284031215614a9757600080fd5b5035919050565b63ffffffff81168114610cc457600080fd5b600080600060608486031215614ac557600080fd5b833592506020840135614ad781614a9e565b929592945050506040919091013590565b634e487b7160e01b600052604160045260246000fd5b604051606081016001600160401b0381118282101715614b2057614b20614ae8565b60405290565b604080519081016001600160401b0381118282101715614b2057614b20614ae8565b604051601f8201601f191681016001600160401b0381118282101715614b7057614b70614ae8565b604052919050565b60006001600160401b03831115614b9157614b91614ae8565b614ba4601f8401601f1916602001614b48565b9050828152838383011115614bb857600080fd5b828260208301376000602084830101529392505050565b600060208284031215614be157600080fd5b81356001600160401b03811115614bf757600080fd5b8201601f81018413614c0857600080fd5b614c1784823560208401614b78565b949350505050565b6001600160a01b0381168114610cc457600080fd5b8035614c3f81614c1f565b919050565b600060208284031215614c5657600080fd5b813561293c81614c1f565b60008060408385031215614c7457600080fd5b50508035926020909101359150565b803560ff81168114614c3f57600080fd5b600060208284031215614ca657600080fd5b61293c82614c83565b815181526020808301519082015260408101610e8f565b60008083601f840112614cd857600080fd5b5081356001600160401b03811115614cef57600080fd5b6020830191508360208285010111156146dc57600080fd5b60008060008060408587031215614d1d57600080fd5b84356001600160401b0380821115614d3457600080fd5b614d4088838901614a00565b90965094506020870135915080821115614d5957600080fd5b50614d6687828801614cc6565b95989497509550505050565b634e487b7160e01b600052602160045260246000fd5b60038110614da657634e487b7160e01b600052602160045260246000fd5b9052565b815181526020808301516040830191614dc590840182614d88565b5092915050565b803561ffff81168114614c3f57600080fd5b600060608284031215614df057600080fd5b614df8614afe565b90508135614e0581614a9e565b8152614e1360208301614dcc565b6020820152614e2460408301614dcc565b604082015292915050565b60008060808385031215614e4257600080fd5b614e4b83614c83565b9150614e5a8460208501614dde565b90509250929050565b600080600060408486031215614e7857600080fd5b8335614e8381614c1f565b925060208401356001600160401b03811115614e9e57600080fd5b614eaa86828701614cc6565b9497909650939450505050565b60006001600160401b03821115614ed057614ed0614ae8565b5060051b60200190565b600060408284031215614eec57600080fd5b614ef4614b26565b9050614eff82614c83565b81526020820135614f0f81614c1f565b602082015292915050565b600080600080600060a08688031215614f3257600080fd5b8535614f3d81614c1f565b945060208681013594506040808801356001600160401b03811115614f6157600080fd5b8801601f81018a13614f7257600080fd5b8035614f85614f8082614eb7565b614b48565b81815260069190911b8201840190848101908c831115614fa457600080fd5b928501925b82841015614fca57614fbb8d85614eda565b82529284019290850190614fa9565b999c989b5098996060810135995060800135979650505050505050565b60006101008284031215614ffa57600080fd5b50919050565b60008083601f84011261501257600080fd5b5081356001600160401b0381111561502957600080fd5b6020830191508360208260061b85010111156146dc57600080fd5b60006060828403121561505657600080fd5b61505e614afe565b905081356001600160401b0381111561507657600080fd5b8201601f8101841361508757600080fd5b61509684823560208401614b78565b825250602082013560208201526040820135604082015292915050565b60008060008060008060008060006101a08a8c0312156150d257600080fd5b89356001600160401b03808211156150e957600080fd5b6150f58d838e01614cc6565b909b50995060208c013591508082111561510e57600080fd5b61511a8d838e01614cc6565b909950975087915061512f8d60408e01614fe7565b96506101408c013591508082111561514657600080fd5b6151528d838e01615000565b90965094506101608c013591508082111561516c57600080fd5b6151788d838e01615044565b93506101808c013591508082111561518f57600080fd5b5061519c8c828d01615044565b9150509295985092959850929598565b60008060008060008061016087890312156151c657600080fd5b86356001600160401b03808211156151dd57600080fd5b6151e98a838b01614cc6565b9098509650602089013591508082111561520257600080fd5b61520e8a838b01614cc6565b90965094508491506152238a60408b01614fe7565b935061014089013591508082111561523a57600080fd5b5061524789828a01615044565b9150509295509295509295565b6000806040838503121561526757600080fd5b823561527281614a9e565b91506020838101356001600160401b0381111561528e57600080fd5b8401601f8101861361529f57600080fd5b80356152ad614f8082614eb7565b81815260059190911b820183019083810190888311156152cc57600080fd5b928401925b828410156152ea578335825292840192908401906152d1565b80955050505050509250929050565b6020808252825182820181905260009190848201906040850190845b8181101561533757835163ffffffff1683529284019291840191600101615315565b50909695505050505050565b6000806020838503121561535657600080fd5b82356001600160401b0381111561536c57600080fd5b614a7985828601614cc6565b6001600160601b0381168114610cc457600080fd5b600082601f83011261539e57600080fd5b813560206153ae614f8083614eb7565b82815260069290921b840181019181810190868411156153cd57600080fd5b8286015b8481101561541e57604081890312156153ea5760008081fd5b6153f2614b26565b81356153fd81614c1f565b81528185013561540c81615378565b818601528352918301916040016153d1565b509695505050505050565b600080600060a0848603121561543e57600080fd5b6154488585614dde565b9250606084013561545881615378565b915060808401356001600160401b0381111561547357600080fd5b61547f8682870161538d565b9150509250925092565b600082601f83011261549a57600080fd5b813560206154aa614f8083614eb7565b828152606092830285018201928282019190878511156154c957600080fd5b8387015b858110156154ec576154df8982614dde565b84529284019281016154cd565b5090979650505050505050565b600082601f83011261550a57600080fd5b8135602061551a614f8083614eb7565b82815260059290921b8401810191818101908684111561553957600080fd5b8286015b8481101561541e57803561555081615378565b835291830191830161553d565b600082601f83011261556e57600080fd5b8135602061557e614f8083614eb7565b82815260059290921b8401810191818101908684111561559d57600080fd5b8286015b8481101561541e5780356001600160401b038111156155c05760008081fd5b6155ce8986838b010161538d565b8452509183019183016155a1565b600080600080600080600080610100898b0312156155f957600080fd5b61560289614c34565b975061561060208a01614c34565b965061561e60408a01614c34565b955061562c60608a01614c34565b94506080890135935060a08901356001600160401b038082111561564f57600080fd5b61565b8c838d01615489565b945060c08b013591508082111561567157600080fd5b61567d8c838d016154f9565b935060e08b013591508082111561569357600080fd5b506156a08b828c0161555d565b9150509295985092959890939650565b60208101610e8f8284614d88565b60208082526019908201527f5061757361626c653a20696e6465782069732070617573656400000000000000604082015260600190565b634e487b7160e01b600052603260045260246000fd5b634e487b7160e01b600052601160045260246000fd5b60006000198214156157355761573561570b565b5060010190565b6000815180845260005b8181101561576257602081850181015186830182015201615746565b81811115615774576000602083870101525b50601f01601f19169290920160200192915050565b60208152600061293c602083018461573c565b6000602082840312156157ae57600080fd5b815161293c81614c1f565b6020808252602a908201527f6d73672e73656e646572206973206e6f74207065726d697373696f6e6564206160408201526939903ab73830bab9b2b960b11b606082015260800190565b60006020828403121561581557600080fd5b8151801515811461293c57600080fd5b60208082526028908201527f6d73672e73656e646572206973206e6f74207065726d697373696f6e6564206160408201526739903830bab9b2b960c11b606082015260800190565b6000808335601e1984360301811261588457600080fd5b8301803591506001600160401b0382111561589e57600080fd5b6020019150600581901b36038213156146dc57600080fd5b6000602082840312156158c857600080fd5b815161293c81614a9e565b600082198211156158e6576158e661570b565b500190565b600080858511156158fb57600080fd5b8386111561590857600080fd5b5050820193919092039150565b600060c08201888352602060018060a01b03808a16828601526040898187015260c0606087015283895180865260e088019150848b01955060005b8181101561597a578651805160ff1684528601518516868401529585019591830191600101615950565b505060808701989098525050505060a09091019190915250949350505050565b6000604082840312156159ac57600080fd5b61293c8383614eda565b6000828210156159c8576159c861570b565b500390565b60018060a01b03841681528260208201526060604082015260006159f4606083018461573c565b95945050505050565b600060208284031215615a0f57600080fd5b81516001600160c01b038116811461293c57600080fd5b634e487b7160e01b600052601260045260246000fd5b600082615a4b57615a4b615a26565b500690565b6001600160a01b0383168152604060208201819052600090614c179083018461573c565b828152604060208201526000614c17604083018461573c565b600060208284031215615a9f57600080fd5b5051919050565b6001600160a01b03841681526101608101615ace602083018580358252602090810135910152565b615ae8606083016040860180358252602090810135910152565b60406080850160a084013760e0820160008152604060c0860182375060006101208301908152835190526020909201516101409091015292915050565b60018060a01b0383168152604060208201526000825160606040840152615b4f60a084018261573c565b90506020840151606084015260408401516080840152809150509392505050565b81835281816020850137506000828201602090810191909152601f909101601f19169091010190565b6001600160a01b03841681526040602082018190526000906159f49083018486615b70565b60018060a01b0385168152836020820152606060408201526000611861606083018486615b70565b600082601f830112615bf757600080fd5b81516020615c07614f8083614eb7565b82815260059290921b84018101918181019086841115615c2657600080fd5b8286015b8481101561541e578051615c3d81615378565b8352918301918301615c2a565b60008060408385031215615c5d57600080fd5b82516001600160401b0380821115615c7457600080fd5b615c8086838701615be6565b93506020850151915080821115615c9657600080fd5b50615ca385828601615be6565b9150509250929050565b8381526040602082015260006159f4604083018486615b70565b60006020808385031215615cda57600080fd5b82516001600160401b03811115615cf057600080fd5b8301601f81018513615d0157600080fd5b8051615d0f614f8082614eb7565b81815260059190911b82018301908381019087831115615d2e57600080fd5b928401925b82841015615d55578351615d4681614a9e565b82529284019290840190615d33565b979650505050505050565b600060208284031215615d7257600080fd5b815161293c81615378565b600060ff821660ff84168060ff03821115615d9a57615d9a61570b565b019392505050565b60006060820160ff8616835260206001600160601b03808716828601526040606081870152838751808652608088019150848901955060005b81811015615e0b57865180516001600160a01b031684528601518516868401529585019591830191600101615ddb565b50909a9950505050505050505050565b600061ffff80831681811415615e3357615e3361570b565b6001019392505050565b600060208284031215615e4f57600080fd5b81516001600160e01b03198116811461293c57600080fd5b60006001600160601b0380831681851681830481118215151615615e8d57615e8d61570b565b02949350505050565b60006001600160601b0380841680615eb057615eb0615a26565b9216919091049291505056fe5265676973747279436f6f7264696e61746f722e7570646174654f70657261745265676973747279436f6f7264696e61746f722e5f76616c696461746543687530644e72e131a029b85045b68181585d97816a916871ca8d3c208c16d87cfd475265676973747279436f6f7264696e61746f722e5f646572656769737465724fa26469706673582212209c2aa33903117e441e8e399924b8fe9d5bfbf78de657440622f2792ccb20e25864736f6c634300080c0033","linkReferences":{}},"methodIdentifiers":{"OPERATOR_CHURN_APPROVAL_TYPEHASH()":"ca0de882","PUBKEY_REGISTRATION_TYPEHASH()":"9feab859","blsApkRegistry()":"5df45946","calculateOperatorChurnApprovalDigestHash(address,bytes32,(uint8,address)[],bytes32,uint256)":"84ca5213","churnApprover()":"054310e6","createQuorum((uint32,uint16,uint16),uint96,(address,uint96)[])":"d75b4c88","deregisterOperator(bytes)":"ca4f2d97","ejectOperator(address,bytes)":"6e3b17db","ejector()":"28f61b31","getCurrentQuorumBitmap(bytes32)":"871ef049","getOperator(address)":"5865c60c","getOperatorFromId(bytes32)":"296bb064","getOperatorId(address)":"13542a4e","getOperatorSetParams(uint8)":"e65797ad","getOperatorStatus(address)":"fd39105a","getQuorumBitmapAtBlockNumberByIndex(bytes32,uint32,uint256)":"04ec6351","getQuorumBitmapHistoryLength(bytes32)":"03fd3492","getQuorumBitmapIndicesAtBlockNumber(uint32,bytes32[])":"c391425e","getQuorumBitmapUpdateByIndex(bytes32,uint256)":"1eb812da","indexRegistry()":"9e9923c2","initialize(address,address,address,address,uint256,(uint32,uint16,uint16)[],uint96[],(address,uint96)[][])":"dd8283f3","isChurnApproverSaltUsed(bytes32)":"1478851f","numRegistries()":"d72d8dd6","owner()":"8da5cb5b","pause(uint256)":"136439dd","pauseAll()":"595c6a67","paused()":"5c975abb","paused(uint8)":"5ac86ab7","pauserRegistry()":"886f1195","pubkeyRegistrationMessageHash(address)":"3c2a7f4c","quorumCount()":"9aa1653d","quorumUpdateBlockNumber(uint8)":"249a0c42","registerOperator(bytes,string,((uint256,uint256),(uint256,uint256),(uint256[2],uint256[2])),(bytes,bytes32,uint256))":"a50857bf","registerOperatorWithChurn(bytes,string,((uint256,uint256),(uint256,uint256),(uint256[2],uint256[2])),(uint8,address)[],(bytes,bytes32,uint256),(bytes,bytes32,uint256))":"9b5d177b","registries(uint256)":"6347c900","renounceOwnership()":"715018a6","serviceManager()":"3998fdd3","setChurnApprover(address)":"29d1e0c3","setEjector(address)":"2cdd1e86","setOperatorSetParams(uint8,(uint32,uint16,uint16))":"5b0b829f","setPauserRegistry(address)":"10d67a2f","stakeRegistry()":"68304835","transferOwnership(address)":"f2fde38b","unpause(uint256)":"fabc1cbc","updateOperators(address[])":"00cf2ab5","updateOperatorsForQuorum(address[][],bytes)":"5140a548","updateSocket(string)":"0cf4b767"},"id":76}