{"abi":[{"type":"constructor","inputs":[{"name":"tokenAddress","type":"address","internalType":"address"}],"stateMutability":"payable"},{"type":"function","name":"getBalance","inputs":[],"outputs":[{"name":"","type":"uint256","internalType":"uint256"}],"stateMutability":"view"},{"type":"function","name":"lockTime","inputs":[],"outputs":[{"name":"","type":"uint256","internalType":"uint256"}],"stateMutability":"view"},{"type":"function","name":"maxUsageCount","inputs":[],"outputs":[{"name":"","type":"uint256","internalType":"uint256"}],"stateMutability":"view"},{"type":"function","name":"owner","inputs":[],"outputs":[{"name":"","type":"address","internalType":"address"}],"stateMutability":"view"},{"type":"function","name":"renounceOwnership","inputs":[],"outputs":[],"stateMutability":"nonpayable"},{"type":"function","name":"requestTokens","inputs":[],"outputs":[],"stateMutability":"nonpayable"},{"type":"function","name":"setLockTime","inputs":[{"name":"amount","type":"uint256","internalType":"uint256"}],"outputs":[],"stateMutability":"nonpayable"},{"type":"function","name":"setWithdrawalAmount","inputs":[{"name":"amount","type":"uint256","internalType":"uint256"}],"outputs":[],"stateMutability":"nonpayable"},{"type":"function","name":"token","inputs":[],"outputs":[{"name":"","type":"address","internalType":"contract IERC20"}],"stateMutability":"view"},{"type":"function","name":"transferOwnership","inputs":[{"name":"newOwner","type":"address","internalType":"address"}],"outputs":[],"stateMutability":"nonpayable"},{"type":"function","name":"withdraw","inputs":[],"outputs":[],"stateMutability":"nonpayable"},{"type":"function","name":"withdrawalAmount","inputs":[],"outputs":[{"name":"","type":"uint256","internalType":"uint256"}],"stateMutability":"view"},{"type":"event","name":"Deposit","inputs":[{"name":"from","type":"address","indexed":true,"internalType":"address"},{"name":"amount","type":"uint256","indexed":true,"internalType":"uint256"}],"anonymous":false},{"type":"event","name":"OwnershipTransferred","inputs":[{"name":"previousOwner","type":"address","indexed":true,"internalType":"address"},{"name":"newOwner","type":"address","indexed":true,"internalType":"address"}],"anonymous":false},{"type":"event","name":"Withdrawal","inputs":[{"name":"to","type":"address","indexed":true,"internalType":"address"},{"name":"amount","type":"uint256","indexed":true,"internalType":"uint256"}],"anonymous":false}],"bytecode":{"object":"0x6080604052678ac7230489e80000600255603c60035560405161091c38038061091c833981016040819052610033916100b1565b61003c33610061565b600180546001600160a01b0319166001600160a01b03929092169190911790556100e1565b600080546001600160a01b038381166001600160a01b0319831681178455604051919092169283917f8be0079c531659141344cd1fd0a4f28419497f9722a3daafe3b4186f6b6457e09190a35050565b6000602082840312156100c357600080fd5b81516001600160a01b03811681146100da57600080fd5b9392505050565b61082c806100f06000396000f3fe608060405234801561001057600080fd5b50600436106100b45760003560e01c80638da5cb5b116100715780638da5cb5b1461010a5780639969e1941461012f578063ae04d45d14610137578063e6e268f41461014a578063f2fde38b14610153578063fc0c546a1461016657600080fd5b80630d668087146100b957806312065fe0146100d5578063168ee33a146100dd578063359cf2b7146100f25780633ccfd60b146100fa578063715018a614610102575b600080fd5b6100c260035481565b6040519081526020015b60405180910390f35b6100c2610179565b6100f06100eb366004610725565b6101eb565b005b6100f061020b565b6100f0610492565b6100f06105d8565b6000546001600160a01b03165b6040516001600160a01b0390911681526020016100cc565b6100c2600381565b6100f0610145366004610725565b6105ec565b6100c260025481565b6100f061016136600461073e565b610605565b600154610117906001600160a01b031681565b6001546040516370a0823160e01b81523060048201526000916001600160a01b0316906370a0823190602401602060405180830381865afa1580156101c2573d6000803e3d6000fd5b505050506040513d601f19601f820116820180604052508101906101e6919061076e565b905090565b6101f361067b565b61020581670de0b6b3a764000061079d565b60025550565b6002546001546040516370a0823160e01b81523060048201526001600160a01b03909116906370a0823190602401602060405180830381865afa158015610256573d6000803e3d6000fd5b505050506040513d601f19601f8201168201806040525081019061027a919061076e565b10156102eb5760405162461bcd60e51b815260206004820152603560248201527f496e73756666696369656e742062616c616e636520696e2066617563657420666044820152741bdc881dda5d1a191c985dd85b081c995c5d595cdd605a1b60648201526084015b60405180910390fd5b3360009081526004602052604090205442101561037b5760405162461bcd60e51b815260206004820152604260248201527f496e73756666696369656e742074696d6520656c61707365642073696e63652060448201527f6c617374207769746864726177616c202d2074727920616761696e206c617465606482015261391760f11b608482015260a4016102e2565b336000908152600560205260409020546003116103f65760405162461bcd60e51b815260206004820152603360248201527f416464726573732068617320616c726561647920757365642074686520666175604482015272636574206d6178696d756d20332074696d657360681b60648201526084016102e2565b60035461040390426107bc565b3360008181526004602081905260409182902093909355600154600254915163a9059cbb60e01b81529384019290925260248301526001600160a01b03169063a9059cbb906044015b6020604051808303816000875af115801561046b573d6000803e3d6000fd5b505050506040513d601f19601f8201168201806040525081019061048f91906107d4565b50565b61049a61067b565b6001546040516370a0823160e01b81523060048201526001600160a01b03909116906370a0823190602401602060405180830381865afa1580156104e2573d6000803e3d6000fd5b505050506040513d601f19601f82011682018060405250810190610506919061076e565b60405133907f7fcf532c15f0a6db0bd6d0e038bea71d30d808c7d98cb3bf7268a95bf5081b6590600090a36001546040516370a0823160e01b81523060048201526001600160a01b039091169063a9059cbb90339083906370a0823190602401602060405180830381865afa158015610583573d6000803e3d6000fd5b505050506040513d601f19601f820116820180604052508101906105a7919061076e565b6040516001600160e01b031960e085901b1681526001600160a01b039092166004830152602482015260440161044c565b6105e061067b565b6105ea60006106d5565b565b6105f461067b565b6105ff81603c61079d565b60035550565b61060d61067b565b6001600160a01b0381166106725760405162461bcd60e51b815260206004820152602660248201527f4f776e61626c653a206e6577206f776e657220697320746865207a65726f206160448201526564647265737360d01b60648201526084016102e2565b61048f816106d5565b6000546001600160a01b031633146105ea5760405162461bcd60e51b815260206004820181905260248201527f4f776e61626c653a2063616c6c6572206973206e6f7420746865206f776e657260448201526064016102e2565b600080546001600160a01b038381166001600160a01b0319831681178455604051919092169283917f8be0079c531659141344cd1fd0a4f28419497f9722a3daafe3b4186f6b6457e09190a35050565b60006020828403121561073757600080fd5b5035919050565b60006020828403121561075057600080fd5b81356001600160a01b038116811461076757600080fd5b9392505050565b60006020828403121561078057600080fd5b5051919050565b634e487b7160e01b600052601160045260246000fd5b60008160001904831182151516156107b7576107b7610787565b500290565b600082198211156107cf576107cf610787565b500190565b6000602082840312156107e657600080fd5b8151801515811461076757600080fdfea26469706673582212204d6eb1d3d91011afa51aa85cf101436530325af9184146bb65d2f392cd7ab1f064736f6c634300080c0033","linkReferences":{}},"methodIdentifiers":{"getBalance()":"12065fe0","lockTime()":"0d668087","maxUsageCount()":"9969e194","owner()":"8da5cb5b","renounceOwnership()":"715018a6","requestTokens()":"359cf2b7","setLockTime(uint256)":"ae04d45d","setWithdrawalAmount(uint256)":"168ee33a","token()":"fc0c546a","transferOwnership(address)":"f2fde38b","withdraw()":"3ccfd60b","withdrawalAmount()":"e6e268f4"},"id":21}