{"abi":[{"type":"function","name":"CLOSED","inputs":[],"outputs":[{"name":"","type":"address","internalType":"address"}],"stateMutability":"view"},{"type":"function","name":"DEFAULT_ADMIN_ROLE","inputs":[],"outputs":[{"name":"","type":"bytes32","internalType":"bytes32"}],"stateMutability":"view"},{"type":"function","name":"NATIVE_TOKEN_ADDRESS","inputs":[],"outputs":[{"name":"","type":"address","internalType":"address"}],"stateMutability":"view"},{"type":"function","name":"UPDATER_ROLE","inputs":[],"outputs":[{"name":"","type":"bytes32","internalType":"bytes32"}],"stateMutability":"view"},{"type":"function","name":"cancelResolutions","inputs":[{"name":"","type":"uint256","internalType":"uint256"}],"outputs":[{"name":"requestId","type":"tuple","internalType":"struct IRolldownPrimitives.RequestId","components":[{"name":"origin","type":"uint8","internalType":"enum IRolldownPrimitives.Origin"},{"name":"id","type":"uint256","internalType":"uint256"}]},{"name":"l2RequestId","type":"uint256","internalType":"uint256"},{"name":"cancelJustified","type":"bool","internalType":"bool"},{"name":"timeStamp","type":"uint256","internalType":"uint256"}],"stateMutability":"view"},{"type":"function","name":"chain","inputs":[],"outputs":[{"name":"","type":"uint8","internalType":"enum IRolldownPrimitives.ChainId"}],"stateMutability":"view"},{"type":"function","name":"closeCancel","inputs":[{"name":"cancel","type":"tuple","internalType":"struct IRolldownPrimitives.Cancel","components":[{"name":"requestId","type":"tuple","internalType":"struct IRolldownPrimitives.RequestId","components":[{"name":"origin","type":"uint8","internalType":"enum IRolldownPrimitives.Origin"},{"name":"id","type":"uint256","internalType":"uint256"}]},{"name":"range","type":"tuple","internalType":"struct IRolldownPrimitives.Range","components":[{"name":"start","type":"uint256","internalType":"uint256"},{"name":"end","type":"uint256","internalType":"uint256"}]},{"name":"hash","type":"bytes32","internalType":"bytes32"}]},{"name":"merkleRoot","type":"bytes32","internalType":"bytes32"},{"name":"proof","type":"bytes32[]","internalType":"bytes32[]"}],"outputs":[],"stateMutability":"nonpayable"},{"type":"function","name":"closeDepositRefund","inputs":[{"name":"failedDeposit","type":"tuple","internalType":"struct IRolldownPrimitives.FailedDepositResolution","components":[{"name":"requestId","type":"tuple","internalType":"struct IRolldownPrimitives.RequestId","components":[{"name":"origin","type":"uint8","internalType":"enum IRolldownPrimitives.Origin"},{"name":"id","type":"uint256","internalType":"uint256"}]},{"name":"originRequestId","type":"uint256","internalType":"uint256"},{"name":"ferry","type":"address","internalType":"address"}]},{"name":"merkleRoot","type":"bytes32","internalType":"bytes32"},{"name":"proof","type":"bytes32[]","internalType":"bytes32[]"}],"outputs":[],"stateMutability":"nonpayable"},{"type":"function","name":"closeWithdrawal","inputs":[{"name":"withdrawal","type":"tuple","internalType":"struct IRolldownPrimitives.Withdrawal","components":[{"name":"requestId","type":"tuple","internalType":"struct IRolldownPrimitives.RequestId","components":[{"name":"origin","type":"uint8","internalType":"enum IRolldownPrimitives.Origin"},{"name":"id","type":"uint256","internalType":"uint256"}]},{"name":"recipient","type":"address","internalType":"address"},{"name":"tokenAddress","type":"address","internalType":"address"},{"name":"amount","type":"uint256","internalType":"uint256"},{"name":"ferryTip","type":"uint256","internalType":"uint256"}]},{"name":"merkleRoot","type":"bytes32","internalType":"bytes32"},{"name":"proof","type":"bytes32[]","internalType":"bytes32[]"}],"outputs":[],"stateMutability":"nonpayable"},{"type":"function","name":"close_cancel","inputs":[{"name":"cancel","type":"tuple","internalType":"struct IRolldownPrimitives.Cancel","components":[{"name":"requestId","type":"tuple","internalType":"struct IRolldownPrimitives.RequestId","components":[{"name":"origin","type":"uint8","internalType":"enum IRolldownPrimitives.Origin"},{"name":"id","type":"uint256","internalType":"uint256"}]},{"name":"range","type":"tuple","internalType":"struct IRolldownPrimitives.Range","components":[{"name":"start","type":"uint256","internalType":"uint256"},{"name":"end","type":"uint256","internalType":"uint256"}]},{"name":"hash","type":"bytes32","internalType":"bytes32"}]},{"name":"merkleRoot","type":"bytes32","internalType":"bytes32"},{"name":"proof","type":"bytes32[]","internalType":"bytes32[]"}],"outputs":[],"stateMutability":"nonpayable"},{"type":"function","name":"close_deposit_refund","inputs":[{"name":"failedDeposit","type":"tuple","internalType":"struct IRolldownPrimitives.FailedDepositResolution","components":[{"name":"requestId","type":"tuple","internalType":"struct IRolldownPrimitives.RequestId","components":[{"name":"origin","type":"uint8","internalType":"enum IRolldownPrimitives.Origin"},{"name":"id","type":"uint256","internalType":"uint256"}]},{"name":"originRequestId","type":"uint256","internalType":"uint256"},{"name":"ferry","type":"address","internalType":"address"}]},{"name":"merkleRoot","type":"bytes32","internalType":"bytes32"},{"name":"proof","type":"bytes32[]","internalType":"bytes32[]"}],"outputs":[],"stateMutability":"nonpayable"},{"type":"function","name":"close_withdrawal","inputs":[{"name":"withdrawal","type":"tuple","internalType":"struct IRolldownPrimitives.Withdrawal","components":[{"name":"requestId","type":"tuple","internalType":"struct IRolldownPrimitives.RequestId","components":[{"name":"origin","type":"uint8","internalType":"enum IRolldownPrimitives.Origin"},{"name":"id","type":"uint256","internalType":"uint256"}]},{"name":"recipient","type":"address","internalType":"address"},{"name":"tokenAddress","type":"address","internalType":"address"},{"name":"amount","type":"uint256","internalType":"uint256"},{"name":"ferryTip","type":"uint256","internalType":"uint256"}]},{"name":"merkleRoot","type":"bytes32","internalType":"bytes32"},{"name":"proof","type":"bytes32[]","internalType":"bytes32[]"}],"outputs":[],"stateMutability":"nonpayable"},{"type":"function","name":"counter","inputs":[],"outputs":[{"name":"","type":"uint256","internalType":"uint256"}],"stateMutability":"view"},{"type":"function","name":"deposit","inputs":[{"name":"tokenAddress","type":"address","internalType":"address"},{"name":"amount","type":"uint256","internalType":"uint256"},{"name":"ferryTip","type":"uint256","internalType":"uint256"}],"outputs":[],"stateMutability":"nonpayable"},{"type":"function","name":"deposit","inputs":[{"name":"tokenAddress","type":"address","internalType":"address"},{"name":"amount","type":"uint256","internalType":"uint256"}],"outputs":[],"stateMutability":"nonpayable"},{"type":"function","name":"depositERC20","inputs":[{"name":"tokenAddress","type":"address","internalType":"address"},{"name":"amount","type":"uint256","internalType":"uint256"},{"name":"ferryTip","type":"uint256","internalType":"uint256"}],"outputs":[],"stateMutability":"nonpayable"},{"type":"function","name":"depositERC20","inputs":[{"name":"tokenAddress","type":"address","internalType":"address"},{"name":"amount","type":"uint256","internalType":"uint256"}],"outputs":[],"stateMutability":"nonpayable"},{"type":"function","name":"depositNative","inputs":[{"name":"ferryTip","type":"uint256","internalType":"uint256"}],"outputs":[],"stateMutability":"payable"},{"type":"function","name":"depositNative","inputs":[],"outputs":[],"stateMutability":"payable"},{"type":"function","name":"deposit_erc20","inputs":[{"name":"tokenAddress","type":"address","internalType":"address"},{"name":"amount","type":"uint256","internalType":"uint256"},{"name":"ferryTip","type":"uint256","internalType":"uint256"}],"outputs":[],"stateMutability":"nonpayable"},{"type":"function","name":"deposit_erc20","inputs":[{"name":"tokenAddress","type":"address","internalType":"address"},{"name":"amount","type":"uint256","internalType":"uint256"}],"outputs":[],"stateMutability":"nonpayable"},{"type":"function","name":"deposit_native","inputs":[],"outputs":[],"stateMutability":"payable"},{"type":"function","name":"deposit_native","inputs":[{"name":"ferryTip","type":"uint256","internalType":"uint256"}],"outputs":[],"stateMutability":"payable"},{"type":"function","name":"deposits","inputs":[{"name":"","type":"uint256","internalType":"uint256"}],"outputs":[{"name":"requestId","type":"tuple","internalType":"struct IRolldownPrimitives.RequestId","components":[{"name":"origin","type":"uint8","internalType":"enum IRolldownPrimitives.Origin"},{"name":"id","type":"uint256","internalType":"uint256"}]},{"name":"depositRecipient","type":"address","internalType":"address"},{"name":"tokenAddress","type":"address","internalType":"address"},{"name":"amount","type":"uint256","internalType":"uint256"},{"name":"timeStamp","type":"uint256","internalType":"uint256"},{"name":"ferryTip","type":"uint256","internalType":"uint256"}],"stateMutability":"view"},{"type":"function","name":"ferryWithdrawal","inputs":[{"name":"withdrawal","type":"tuple","internalType":"struct IRolldownPrimitives.Withdrawal","components":[{"name":"requestId","type":"tuple","internalType":"struct IRolldownPrimitives.RequestId","components":[{"name":"origin","type":"uint8","internalType":"enum IRolldownPrimitives.Origin"},{"name":"id","type":"uint256","internalType":"uint256"}]},{"name":"recipient","type":"address","internalType":"address"},{"name":"tokenAddress","type":"address","internalType":"address"},{"name":"amount","type":"uint256","internalType":"uint256"},{"name":"ferryTip","type":"uint256","internalType":"uint256"}]}],"outputs":[],"stateMutability":"payable"},{"type":"function","name":"ferry_withdrawal","inputs":[{"name":"withdrawal","type":"tuple","internalType":"struct IRolldownPrimitives.Withdrawal","components":[{"name":"requestId","type":"tuple","internalType":"struct IRolldownPrimitives.RequestId","components":[{"name":"origin","type":"uint8","internalType":"enum IRolldownPrimitives.Origin"},{"name":"id","type":"uint256","internalType":"uint256"}]},{"name":"recipient","type":"address","internalType":"address"},{"name":"tokenAddress","type":"address","internalType":"address"},{"name":"amount","type":"uint256","internalType":"uint256"},{"name":"ferryTip","type":"uint256","internalType":"uint256"}]}],"outputs":[],"stateMutability":"payable"},{"type":"function","name":"findL2Batch","inputs":[{"name":"requestId","type":"uint256","internalType":"uint256"}],"outputs":[{"name":"","type":"bytes32","internalType":"bytes32"}],"stateMutability":"view"},{"type":"function","name":"find_l2_batch","inputs":[{"name":"requestId","type":"uint256","internalType":"uint256"}],"outputs":[{"name":"","type":"bytes32","internalType":"bytes32"}],"stateMutability":"view"},{"type":"function","name":"getMerkleRootsLength","inputs":[],"outputs":[{"name":"","type":"uint256","internalType":"uint256"}],"stateMutability":"view"},{"type":"function","name":"getPendingRequests","inputs":[{"name":"start","type":"uint256","internalType":"uint256"},{"name":"end","type":"uint256","internalType":"uint256"}],"outputs":[{"name":"","type":"tuple","internalType":"struct IRolldownPrimitives.L1Update","components":[{"name":"chain","type":"uint8","internalType":"enum IRolldownPrimitives.ChainId"},{"name":"pendingDeposits","type":"tuple[]","internalType":"struct IRolldownPrimitives.Deposit[]","components":[{"name":"requestId","type":"tuple","internalType":"struct IRolldownPrimitives.RequestId","components":[{"name":"origin","type":"uint8","internalType":"enum IRolldownPrimitives.Origin"},{"name":"id","type":"uint256","internalType":"uint256"}]},{"name":"depositRecipient","type":"address","internalType":"address"},{"name":"tokenAddress","type":"address","internalType":"address"},{"name":"amount","type":"uint256","internalType":"uint256"},{"name":"timeStamp","type":"uint256","internalType":"uint256"},{"name":"ferryTip","type":"uint256","internalType":"uint256"}]},{"name":"pendingCancelResolutions","type":"tuple[]","internalType":"struct IRolldownPrimitives.CancelResolution[]","components":[{"name":"requestId","type":"tuple","internalType":"struct IRolldownPrimitives.RequestId","components":[{"name":"origin","type":"uint8","internalType":"enum IRolldownPrimitives.Origin"},{"name":"id","type":"uint256","internalType":"uint256"}]},{"name":"l2RequestId","type":"uint256","internalType":"uint256"},{"name":"cancelJustified","type":"bool","internalType":"bool"},{"name":"timeStamp","type":"uint256","internalType":"uint256"}]}]}],"stateMutability":"view"},{"type":"function","name":"getRoleAdmin","inputs":[{"name":"role","type":"bytes32","internalType":"bytes32"}],"outputs":[{"name":"","type":"bytes32","internalType":"bytes32"}],"stateMutability":"view"},{"type":"function","name":"getUpdateForL2","inputs":[],"outputs":[{"name":"","type":"tuple","internalType":"struct IRolldownPrimitives.L1Update","components":[{"name":"chain","type":"uint8","internalType":"enum IRolldownPrimitives.ChainId"},{"name":"pendingDeposits","type":"tuple[]","internalType":"struct IRolldownPrimitives.Deposit[]","components":[{"name":"requestId","type":"tuple","internalType":"struct IRolldownPrimitives.RequestId","components":[{"name":"origin","type":"uint8","internalType":"enum IRolldownPrimitives.Origin"},{"name":"id","type":"uint256","internalType":"uint256"}]},{"name":"depositRecipient","type":"address","internalType":"address"},{"name":"tokenAddress","type":"address","internalType":"address"},{"name":"amount","type":"uint256","internalType":"uint256"},{"name":"timeStamp","type":"uint256","internalType":"uint256"},{"name":"ferryTip","type":"uint256","internalType":"uint256"}]},{"name":"pendingCancelResolutions","type":"tuple[]","internalType":"struct IRolldownPrimitives.CancelResolution[]","components":[{"name":"requestId","type":"tuple","internalType":"struct IRolldownPrimitives.RequestId","components":[{"name":"origin","type":"uint8","internalType":"enum IRolldownPrimitives.Origin"},{"name":"id","type":"uint256","internalType":"uint256"}]},{"name":"l2RequestId","type":"uint256","internalType":"uint256"},{"name":"cancelJustified","type":"bool","internalType":"bool"},{"name":"timeStamp","type":"uint256","internalType":"uint256"}]}]}],"stateMutability":"view"},{"type":"function","name":"grantRole","inputs":[{"name":"role","type":"bytes32","internalType":"bytes32"},{"name":"account","type":"address","internalType":"address"}],"outputs":[],"stateMutability":"nonpayable"},{"type":"function","name":"hasRole","inputs":[{"name":"role","type":"bytes32","internalType":"bytes32"},{"name":"account","type":"address","internalType":"address"}],"outputs":[{"name":"","type":"bool","internalType":"bool"}],"stateMutability":"view"},{"type":"function","name":"hashCancel","inputs":[{"name":"cancel","type":"tuple","internalType":"struct IRolldownPrimitives.Cancel","components":[{"name":"requestId","type":"tuple","internalType":"struct IRolldownPrimitives.RequestId","components":[{"name":"origin","type":"uint8","internalType":"enum IRolldownPrimitives.Origin"},{"name":"id","type":"uint256","internalType":"uint256"}]},{"name":"range","type":"tuple","internalType":"struct IRolldownPrimitives.Range","components":[{"name":"start","type":"uint256","internalType":"uint256"},{"name":"end","type":"uint256","internalType":"uint256"}]},{"name":"hash","type":"bytes32","internalType":"bytes32"}]}],"outputs":[{"name":"","type":"bytes32","internalType":"bytes32"}],"stateMutability":"pure"},{"type":"function","name":"hashFailedDepositResolution","inputs":[{"name":"failedDeposit","type":"tuple","internalType":"struct IRolldownPrimitives.FailedDepositResolution","components":[{"name":"requestId","type":"tuple","internalType":"struct IRolldownPrimitives.RequestId","components":[{"name":"origin","type":"uint8","internalType":"enum IRolldownPrimitives.Origin"},{"name":"id","type":"uint256","internalType":"uint256"}]},{"name":"originRequestId","type":"uint256","internalType":"uint256"},{"name":"ferry","type":"address","internalType":"address"}]}],"outputs":[{"name":"","type":"bytes32","internalType":"bytes32"}],"stateMutability":"pure"},{"type":"function","name":"hashWithdrawal","inputs":[{"name":"withdrawal","type":"tuple","internalType":"struct IRolldownPrimitives.Withdrawal","components":[{"name":"requestId","type":"tuple","internalType":"struct IRolldownPrimitives.RequestId","components":[{"name":"origin","type":"uint8","internalType":"enum IRolldownPrimitives.Origin"},{"name":"id","type":"uint256","internalType":"uint256"}]},{"name":"recipient","type":"address","internalType":"address"},{"name":"tokenAddress","type":"address","internalType":"address"},{"name":"amount","type":"uint256","internalType":"uint256"},{"name":"ferryTip","type":"uint256","internalType":"uint256"}]}],"outputs":[{"name":"","type":"bytes32","internalType":"bytes32"}],"stateMutability":"pure"},{"type":"function","name":"initialize","inputs":[{"name":"pauserRegistry","type":"address","internalType":"contract IPauserRegistry"},{"name":"admin","type":"address","internalType":"address"},{"name":"chainId","type":"uint8","internalType":"enum IRolldownPrimitives.ChainId"},{"name":"updater","type":"address","internalType":"address"}],"outputs":[],"stateMutability":"nonpayable"},{"type":"function","name":"lastProcessedUpdate_origin_l1","inputs":[],"outputs":[{"name":"","type":"uint256","internalType":"uint256"}],"stateMutability":"view"},{"type":"function","name":"lastProcessedUpdate_origin_l2","inputs":[],"outputs":[{"name":"","type":"uint256","internalType":"uint256"}],"stateMutability":"view"},{"type":"function","name":"merkleRootRange","inputs":[{"name":"","type":"bytes32","internalType":"bytes32"}],"outputs":[{"name":"start","type":"uint256","internalType":"uint256"},{"name":"end","type":"uint256","internalType":"uint256"}],"stateMutability":"view"},{"type":"function","name":"pause","inputs":[{"name":"newPausedStatus","type":"uint256","internalType":"uint256"}],"outputs":[],"stateMutability":"nonpayable"},{"type":"function","name":"pauseAll","inputs":[],"outputs":[],"stateMutability":"nonpayable"},{"type":"function","name":"paused","inputs":[{"name":"index","type":"uint8","internalType":"uint8"}],"outputs":[{"name":"","type":"bool","internalType":"bool"}],"stateMutability":"view"},{"type":"function","name":"paused","inputs":[],"outputs":[{"name":"","type":"uint256","internalType":"uint256"}],"stateMutability":"view"},{"type":"function","name":"pauserRegistry","inputs":[],"outputs":[{"name":"","type":"address","internalType":"contract IPauserRegistry"}],"stateMutability":"view"},{"type":"function","name":"processedL2Requests","inputs":[{"name":"","type":"bytes32","internalType":"bytes32"}],"outputs":[{"name":"","type":"address","internalType":"address"}],"stateMutability":"view"},{"type":"function","name":"renounceRole","inputs":[{"name":"role","type":"bytes32","internalType":"bytes32"},{"name":"account","type":"address","internalType":"address"}],"outputs":[],"stateMutability":"nonpayable"},{"type":"function","name":"revokeRole","inputs":[{"name":"role","type":"bytes32","internalType":"bytes32"},{"name":"account","type":"address","internalType":"address"}],"outputs":[],"stateMutability":"nonpayable"},{"type":"function","name":"roots","inputs":[{"name":"","type":"uint256","internalType":"uint256"}],"outputs":[{"name":"","type":"bytes32","internalType":"bytes32"}],"stateMutability":"view"},{"type":"function","name":"setPauserRegistry","inputs":[{"name":"newPauserRegistry","type":"address","internalType":"contract IPauserRegistry"}],"outputs":[],"stateMutability":"nonpayable"},{"type":"function","name":"setUpdater","inputs":[{"name":"updater","type":"address","internalType":"address"}],"outputs":[],"stateMutability":"nonpayable"},{"type":"function","name":"supportsInterface","inputs":[{"name":"interfaceId","type":"bytes4","internalType":"bytes4"}],"outputs":[{"name":"","type":"bool","internalType":"bool"}],"stateMutability":"view"},{"type":"function","name":"unpause","inputs":[{"name":"newPausedStatus","type":"uint256","internalType":"uint256"}],"outputs":[],"stateMutability":"nonpayable"},{"type":"function","name":"updateL1FromL2","inputs":[{"name":"merkleRoot","type":"bytes32","internalType":"bytes32"},{"name":"range","type":"tuple","internalType":"struct IRolldownPrimitives.Range","components":[{"name":"start","type":"uint256","internalType":"uint256"},{"name":"end","type":"uint256","internalType":"uint256"}]}],"outputs":[],"stateMutability":"nonpayable"},{"type":"function","name":"update_l1_from_l2","inputs":[{"name":"merkleRoot","type":"bytes32","internalType":"bytes32"},{"name":"range","type":"tuple","internalType":"struct IRolldownPrimitives.Range","components":[{"name":"start","type":"uint256","internalType":"uint256"},{"name":"end","type":"uint256","internalType":"uint256"}]}],"outputs":[],"stateMutability":"nonpayable"},{"type":"function","name":"updaterAccount","inputs":[],"outputs":[{"name":"","type":"address","internalType":"address"}],"stateMutability":"view"},{"type":"event","name":"DepositAcceptedIntoQueue","inputs":[{"name":"requestId","type":"uint256","indexed":true,"internalType":"uint256"},{"name":"depositRecipient","type":"address","indexed":true,"internalType":"address"},{"name":"tokenAddress","type":"address","indexed":true,"internalType":"address"},{"name":"amount","type":"uint256","indexed":false,"internalType":"uint256"},{"name":"ferryTip","type":"uint256","indexed":false,"internalType":"uint256"}],"anonymous":false},{"type":"event","name":"DisputeResolutionAcceptedIntoQueue","inputs":[{"name":"requestId","type":"uint256","indexed":true,"internalType":"uint256"},{"name":"cancelJustified","type":"bool","indexed":false,"internalType":"bool"},{"name":"cancelResolutionHash","type":"bytes32","indexed":false,"internalType":"bytes32"}],"anonymous":false},{"type":"event","name":"ERC20TokensWithdrawn","inputs":[{"name":"sender","type":"address","indexed":true,"internalType":"address"},{"name":"tokenAddress","type":"address","indexed":true,"internalType":"address"},{"name":"amount","type":"uint256","indexed":false,"internalType":"uint256"}],"anonymous":false},{"type":"event","name":"FailedDepositResolutionClosed","inputs":[{"name":"indexedrequestId","type":"uint256","indexed":false,"internalType":"uint256"},{"name":"originDepositId","type":"uint256","indexed":false,"internalType":"uint256"},{"name":"failedDespotiResolutionHash","type":"bytes32","indexed":false,"internalType":"bytes32"}],"anonymous":false},{"type":"event","name":"FerriedWithdrawalClosed","inputs":[{"name":"requestId","type":"uint256","indexed":true,"internalType":"uint256"},{"name":"withdrawalHash","type":"bytes32","indexed":false,"internalType":"bytes32"}],"anonymous":false},{"type":"event","name":"Initialized","inputs":[{"name":"version","type":"uint8","indexed":false,"internalType":"uint8"}],"anonymous":false},{"type":"event","name":"L2UpdateAccepted","inputs":[{"name":"root","type":"bytes32","indexed":false,"internalType":"bytes32"},{"name":"range","type":"tuple","indexed":false,"internalType":"struct IRolldownPrimitives.Range","components":[{"name":"start","type":"uint256","internalType":"uint256"},{"name":"end","type":"uint256","internalType":"uint256"}]}],"anonymous":false},{"type":"event","name":"NativeTokensWithdrawn","inputs":[{"name":"sender","type":"address","indexed":true,"internalType":"address"},{"name":"amount","type":"uint256","indexed":false,"internalType":"uint256"}],"anonymous":false},{"type":"event","name":"NewUpdaterSet","inputs":[{"name":"updater","type":"address","indexed":true,"internalType":"address"}],"anonymous":false},{"type":"event","name":"Paused","inputs":[{"name":"account","type":"address","indexed":true,"internalType":"address"},{"name":"newPausedStatus","type":"uint256","indexed":false,"internalType":"uint256"}],"anonymous":false},{"type":"event","name":"PauserRegistrySet","inputs":[{"name":"pauserRegistry","type":"address","indexed":false,"internalType":"contract IPauserRegistry"},{"name":"newPauserRegistry","type":"address","indexed":false,"internalType":"contract IPauserRegistry"}],"anonymous":false},{"type":"event","name":"RoleAdminChanged","inputs":[{"name":"role","type":"bytes32","indexed":true,"internalType":"bytes32"},{"name":"previousAdminRole","type":"bytes32","indexed":true,"internalType":"bytes32"},{"name":"newAdminRole","type":"bytes32","indexed":true,"internalType":"bytes32"}],"anonymous":false},{"type":"event","name":"RoleGranted","inputs":[{"name":"role","type":"bytes32","indexed":true,"internalType":"bytes32"},{"name":"account","type":"address","indexed":true,"internalType":"address"},{"name":"sender","type":"address","indexed":true,"internalType":"address"}],"anonymous":false},{"type":"event","name":"RoleRevoked","inputs":[{"name":"role","type":"bytes32","indexed":true,"internalType":"bytes32"},{"name":"account","type":"address","indexed":true,"internalType":"address"},{"name":"sender","type":"address","indexed":true,"internalType":"address"}],"anonymous":false},{"type":"event","name":"Unpaused","inputs":[{"name":"account","type":"address","indexed":true,"internalType":"address"},{"name":"newPausedStatus","type":"uint256","indexed":false,"internalType":"uint256"}],"anonymous":false},{"type":"event","name":"WithdrawalClosed","inputs":[{"name":"requestId","type":"uint256","indexed":true,"internalType":"uint256"},{"name":"withdrawalHash","type":"bytes32","indexed":false,"internalType":"bytes32"}],"anonymous":false},{"type":"event","name":"WithdrawalFerried","inputs":[{"name":"indexedrequestId","type":"uint256","indexed":false,"internalType":"uint256"},{"name":"amount","type":"uint256","indexed":false,"internalType":"uint256"},{"name":"recipient","type":"address","indexed":true,"internalType":"address"},{"name":"ferry","type":"address","indexed":true,"internalType":"address"},{"name":"withdrawalHash","type":"bytes32","indexed":false,"internalType":"bytes32"}],"anonymous":false},{"type":"error","name":"FerryTipExceedsAmount","inputs":[{"name":"ferryTip","type":"uint256","internalType":"uint256"},{"name":"amount","type":"uint256","internalType":"uint256"}]},{"type":"error","name":"InvalidFerriedAmount","inputs":[{"name":"actualAmount","type":"uint256","internalType":"uint256"},{"name":"expectedAmount","type":"uint256","internalType":"uint256"}]},{"type":"error","name":"InvalidRequestId","inputs":[{"name":"requestId","type":"uint256","internalType":"uint256"}]},{"type":"error","name":"InvalidRequestProof","inputs":[{"name":"merkleRoot","type":"bytes32","internalType":"bytes32"}]},{"type":"error","name":"InvalidRequestRange","inputs":[{"name":"start","type":"uint256","internalType":"uint256"},{"name":"end","type":"uint256","internalType":"uint256"}]},{"type":"error","name":"InvalidUpdateRange","inputs":[{"name":"start","type":"uint256","internalType":"uint256"},{"name":"end","type":"uint256","internalType":"uint256"}]},{"type":"error","name":"L2RequestAlreadyProcessed","inputs":[{"name":"requestHash","type":"bytes32","internalType":"bytes32"}]},{"type":"error","name":"PreviousUpdateMissed","inputs":[{"name":"currentStartRange","type":"uint256","internalType":"uint256"},{"name":"lastProcessedUpdate","type":"uint256","internalType":"uint256"}]},{"type":"error","name":"RequestOutOfRange","inputs":[{"name":"requestId","type":"uint256","internalType":"uint256"},{"name":"start","type":"uint256","internalType":"uint256"},{"name":"end","type":"uint256","internalType":"uint256"}]},{"type":"error","name":"RequestRangeTooLarge","inputs":[{"name":"count","type":"uint256","internalType":"uint256"}]},{"type":"error","name":"UnexpectedMerkleRoot","inputs":[]},{"type":"error","name":"UpdateAlreadyApplied","inputs":[{"name":"currentEndRange","type":"uint256","internalType":"uint256"},{"name":"lastProcessedUpdate","type":"uint256","internalType":"uint256"}]},{"type":"error","name":"WithdrawalAlreadyFerried","inputs":[{"name":"withdrawalHash","type":"bytes32","internalType":"bytes32"}]},{"type":"error","name":"ZeroAdmin","inputs":[]},{"type":"error","name":"ZeroAmount","inputs":[]},{"type":"error","name":"ZeroRootCount","inputs":[]},{"type":"error","name":"ZeroToken","inputs":[]},{"type":"error","name":"ZeroTransferAmount","inputs":[]},{"type":"error","name":"ZeroUpdateRange","inputs":[]},{"type":"error","name":"ZeroUpdater","inputs":[]}],"bytecode":{"object":"0x608060405234801561001057600080fd5b506140b9806100206000396000f3fe6080604052600436106103765760003560e01c8063886f1195116101d1578063ca9b21ae11610102578063de70e0b8116100a0578063f9ecd01e1161006f578063f9ecd01e14610875578063fabc1cbc14610917578063ff2bae8614610937578063ffea632b1461094d57600080fd5b8063de70e0b8146108b5578063df2ebdbb146108ec578063dffbdd9f14610649578063f26ee9d01461090157600080fd5b8063d16544f0116100dc578063d16544f014610585578063d1cb26b41461037b578063d547741f14610895578063db6b52461461081d57600080fd5b8063ca9b21ae14610825578063cc8c909f14610855578063ce2de1bc1461087557600080fd5b8063a217fddf1161016f578063b153870611610149578063b1538706146107c1578063c2b40ae4146107d6578063c763e5a1146107f6578063c87c22241461081d57600080fd5b8063a217fddf1461075a578063ae46db111461076f578063b02c43d01461078f57600080fd5b806391d14854116101ab57806391d148541461071a578063950ac4871461050357806397feb926146105855780639d54f4191461073a57600080fd5b8063886f1195146106da578063890e95ce146106fa5780638e24e3921461041257600080fd5b806336568abe116102ab5780635c975abb11610249578063676f536b11610223578063676f536b1461043257806371c544611461067257806379e041f2146106975780637fd4f845146106c457600080fd5b80635c975abb14610634578063608fc37a1461064957806361bc221a1461065c57600080fd5b80634bf5fec3116102855780634bf5fec3146103d25780634f48eedf146105a5578063595c6a67146105ef5780635ac86ab71461060457600080fd5b806336568abe1461054357806347e633801461056357806347e7ef241461058557600080fd5b80630efe6a8b1161031857806321425ee0116102f257806321425ee0146103f2578063248a9ca3146104c557806325afc76a146105035780632f2ff15d1461052357600080fd5b80630efe6a8b146103f257806310d67a2f14610485578063136439dd146104a557600080fd5b806308aba1b21161035457806308aba1b2146103f257806308f42d40146104125780630cac57ab146104325780630e2636a31461044557600080fd5b806301ef69661461037b57806301ffc9a71461039d57806303ed49d3146103d2575b600080fd5b34801561038757600080fd5b5061039b610396366004613673565b61096d565b005b3480156103a957600080fd5b506103bd6103b83660046136ce565b6109d4565b60405190151581526020015b60405180910390f35b3480156103de57600080fd5b5061039b6103ed36600461370a565b610a0b565b3480156103fe57600080fd5b5061039b61040d366004613763565b610a5e565b34801561041e57600080fd5b5061039b61042d366004613798565b610aba565b61039b6104403660046137d0565b610b01565b34801561045157600080fd5b5061046d73111111111111111111111111111111111111111181565b6040516001600160a01b0390911681526020016103c9565b34801561049157600080fd5b5061039b6104a03660046137ec565b610b59565b3480156104b157600080fd5b5061039b6104c0366004613809565b610c0c565b3480156104d157600080fd5b506104f56104e0366004613809565b60009081526065602052604090206001015490565b6040519081526020016103c9565b34801561050f57600080fd5b5061039b61051e366004613834565b610d4b565b34801561052f57600080fd5b5061039b61053e366004613877565b610d9e565b34801561054f57600080fd5b5061039b61055e366004613877565b610dc3565b34801561056f57600080fd5b506104f560008051602061406483398151915281565b34801561059157600080fd5b5061039b6105a03660046138a7565b610e41565b3480156105b157600080fd5b506105da6105c0366004613809565b610101602052600090815260409020805460019091015482565b604080519283526020830191909152016103c9565b3480156105fb57600080fd5b5061039b610e9d565b34801561061057600080fd5b506103bd61061f3660046138d3565b60ca54600160ff9092169190911b9081161490565b34801561064057600080fd5b5060ca546104f5565b61039b610657366004613809565b610f64565b34801561066857600080fd5b506104f560fb5481565b34801561067e57600080fd5b5060fe5461046d9061010090046001600160a01b031681565b3480156106a357600080fd5b506106b76106b23660046138f6565b610f8d565b6040516103c991906139d0565b3480156106d057600080fd5b506104f560fc5481565b3480156106e657600080fd5b5060c95461046d906001600160a01b031681565b34801561070657600080fd5b506104f56107153660046137d0565b611446565b34801561072657600080fd5b506103bd610735366004613877565b6114b4565b34801561074657600080fd5b5061039b6107553660046137ec565b6114df565b34801561076657600080fd5b506104f5600081565b34801561077b57600080fd5b506104f561078a366004613a93565b6115a9565b34801561079b57600080fd5b506107af6107aa366004613809565b6115dd565b6040516103c996959493929190613aaf565b3480156107cd57600080fd5b506106b7611665565b3480156107e257600080fd5b506104f56107f1366004613809565b6116b0565b34801561080257600080fd5b5060fe546108109060ff1681565b6040516103c99190613af1565b61039b6116d2565b34801561083157600080fd5b50610845610840366004613809565b6116fe565b6040516103c99493929190613b04565b34801561086157600080fd5b506104f5610870366004613b2d565b611770565b34801561088157600080fd5b506104f5610890366004613809565b6117a4565b3480156108a157600080fd5b5061039b6108b0366004613877565b6117af565b3480156108c157600080fd5b5061046d6108d0366004613809565b610102602052600090815260409020546001600160a01b031681565b3480156108f857600080fd5b5061046d600181565b34801561090d57600080fd5b506104f560fd5481565b34801561092357600080fd5b5061039b610932366004613809565b6117d4565b34801561094357600080fd5b50610103546104f5565b34801561095957600080fd5b5061039b610968366004613b49565b611930565b60ca54156109965760405162461bcd60e51b815260040161098d90613ba9565b60405180910390fd5b6002609754036109b85760405162461bcd60e51b815260040161098d90613be0565b60026097556109c984848484611b29565b505060016097555050565b60006001600160e01b03198216637965db0b60e01b1480610a0557506301ffc9a760e01b6001600160e01b03198316145b92915050565b600260975403610a2d5760405162461bcd60e51b815260040161098d90613be0565b600260975560ca5415610a525760405162461bcd60e51b815260040161098d90613ba9565b6109c984848484611b8a565b600260975403610a805760405162461bcd60e51b815260040161098d90613be0565b600260975560ca5415610aa55760405162461bcd60e51b815260040161098d90613ba9565b610ab0838383611d7b565b5050600160975550565b60ca5415610ada5760405162461bcd60e51b815260040161098d90613ba9565b600080516020614064833981519152610af281611f51565b610afc8383611f5b565b505050565b600260975403610b235760405162461bcd60e51b815260040161098d90613be0565b600260975560ca5415610b485760405162461bcd60e51b815260040161098d90613ba9565b610b51816120c4565b506001609755565b60c960009054906101000a90046001600160a01b03166001600160a01b031663eab66d7a6040518163ffffffff1660e01b8152600401602060405180830381865afa158015610bac573d6000803e3d6000fd5b505050506040513d601f19601f82011682018060405250810190610bd09190613c17565b6001600160a01b0316336001600160a01b031614610c005760405162461bcd60e51b815260040161098d90613c34565b610c09816122fb565b50565b60c95460405163237dfb4760e11b81523360048201526001600160a01b03909116906346fbf68e90602401602060405180830381865afa158015610c54573d6000803e3d6000fd5b505050506040513d601f19601f82011682018060405250810190610c789190613c7e565b610c945760405162461bcd60e51b815260040161098d90613ca0565b60ca5481811614610d0d5760405162461bcd60e51b815260206004820152603860248201527f5061757361626c652e70617573653a20696e76616c696420617474656d70742060448201527f746f20756e70617573652066756e6374696f6e616c6974790000000000000000606482015260840161098d565b60ca81905560405181815233907fab40a374bc51de372200a8bc981af8c9ecdc08dfdaef0bb6e09f88f3c616ef3d906020015b60405180910390a250565b600260975403610d6d5760405162461bcd60e51b815260040161098d90613be0565b600260975560ca5415610d925760405162461bcd60e51b815260040161098d90613ba9565b6109c9848484846123f2565b600082815260656020526040902060010154610db981611f51565b610afc838361241a565b6001600160a01b0381163314610e335760405162461bcd60e51b815260206004820152602f60248201527f416363657373436f6e74726f6c3a2063616e206f6e6c792072656e6f756e636560448201526e103937b632b9903337b91039b2b63360891b606482015260840161098d565b610e3d82826124a0565b5050565b600260975403610e635760405162461bcd60e51b815260040161098d90613be0565b600260975560ca5415610e885760405162461bcd60e51b815260040161098d90613ba9565b610e9482826000611d7b565b50506001609755565b60c95460405163237dfb4760e11b81523360048201526001600160a01b03909116906346fbf68e90602401602060405180830381865afa158015610ee5573d6000803e3d6000fd5b505050506040513d601f19601f82011682018060405250810190610f099190613c7e565b610f255760405162461bcd60e51b815260040161098d90613ca0565b60001960ca81905560405190815233907fab40a374bc51de372200a8bc981af8c9ecdc08dfdaef0bb6e09f88f3c616ef3d9060200160405180910390a2565b60ca5415610f845760405162461bcd60e51b815260040161098d90613ba9565b610c0981612507565b610fb26040805160608101909152806000815260200160608152602001606081525090565b604080516060810190915260fe5460009190819060ff166002811115610fda57610fda613918565b8152602001600060405190808252806020026020018201604052801561104f57816020015b6040805161010081018252600060c0820181815260e0830182905282526020808301829052928201819052606082018190526080820181905260a08201528252600019909201910181610fff5790505b50815260200160006040519080825280602002602001820160405280156110b657816020015b6040805160c08101825260006080820181815260a0830182905282526020808301829052928201819052606082015282526000199092019101816110755790505b5090529050831580156110c7575082155b156110d3579050610a05565b600080855b85811161116e5760008181526101006020526040902060010154156111075761110083613d14565b9250611166565b600081815260ff60205260409020600101541561112e5761112782613d14565b9150611166565b60405162461bcd60e51b815260206004820152600d60248201526c496e76616c69642072616e676560981b604482015260640161098d565b6001016110d8565b508167ffffffffffffffff81111561118857611188613ce8565b6040519080825280602002602001820160405280156111f657816020015b6040805161010081018252600060c0820181815260e0830182905282526020808301829052928201819052606082018190526080820181905260a082015282526000199092019101816111a65790505b5060208401528067ffffffffffffffff81111561121557611215613ce8565b60405190808252806020026020018201604052801561127457816020015b6040805160c08101825260006080820181815260a0830182905282526020808301829052928201819052606082015282526000199092019101816112335790505b506040840152506000905080855b85811161143b576000818152610100602052604090206001015415611371576000818152610100602081905260409182902082519182019092528154909190829060c08201908390829060ff1660018111156112e0576112e0613918565b60018111156112f1576112f1613918565b81526001919091015460209182015290825260028301546001600160a01b03908116838301526003840154166040830152600483015460608301526005830154608083015260069092015460a0909101528501518461134f81613d14565b95508151811061136157611361613d2d565b6020026020010181905250611433565b600081815260ff60205260409020600201541561142e57600081815260ff6020819052604091829020825160c081019093528054909183916080830191849183911660018111156113c4576113c4613918565b60018111156113d5576113d5613918565b815260019190910154602091820152908252600283015490820152600382015460ff1615156040808301919091526004909201546060909101528501518361141c81613d14565b94508151811061136157611361613d2d565b61143b565b600101611282565b509195945050505050565b6000806040516020016114599190613af1565b604051602081830303815290604052826040516020016114799190613d68565b60408051601f19818403018152908290526114979291602001613df0565b604051602081830303815290604052805190602001209050919050565b60009182526065602090815260408084206001600160a01b0393909316845291905290205460ff1690565b60006114ea81611f51565b6001600160a01b0382166115145760405160016279c35d60e01b0319815260040160405180910390fd5b60fe5461153e906000805160206140648339815191529061010090046001600160a01b03166124a0565b6115566000805160206140648339815191528361241a565b60fe8054610100600160a81b0319166101006001600160a01b038516908102919091179091556040517f1b0f2f500df596b42b73e80dbec6a1fb570f01978a586723f988a5fc54d773a190600090a25050565b600060026040516020016115bd9190613af1565b604051602081830303815290604052826040516020016114799190613e1f565b6101006020526000908152604090819020815180830190925280549091908290829060ff16600181111561161357611613613918565b600181111561162457611624613918565b815260019190910154602090910152600282015460038301546004840154600585015460069095015493946001600160a01b03938416949290931692909186565b61168a6040805160608101909152806000815260200160608152602001606081525090565b6116ab60fc54600161169c9190613e5d565b600160fb546106b29190613e75565b905090565b61010381815481106116c157600080fd5b600091825260209091200154905081565b60ca54156116f25760405162461bcd60e51b815260040161098d90613ba9565b6116fc6000612507565b565b60ff60208190526000918252604091829020825180840190935280549092918391839116600181111561173357611733613918565b600181111561174457611744613918565b815260019190910154602090910152600282015460038301546004909301549192909160ff9091169084565b600060016040516020016117849190613af1565b604051602081830303815290604052826040516020016114799190613e8c565b6000610a058261269d565b6000828152606560205260409020600101546117ca81611f51565b610afc83836124a0565b60c960009054906101000a90046001600160a01b03166001600160a01b031663eab66d7a6040518163ffffffff1660e01b8152600401602060405180830381865afa158015611827573d6000803e3d6000fd5b505050506040513d601f19601f8201168201806040525081019061184b9190613c17565b6001600160a01b0316336001600160a01b03161461187b5760405162461bcd60e51b815260040161098d90613c34565b60ca5419811960ca541916146118f95760405162461bcd60e51b815260206004820152603860248201527f5061757361626c652e756e70617573653a20696e76616c696420617474656d7060448201527f7420746f2070617573652066756e6374696f6e616c6974790000000000000000606482015260840161098d565b60ca81905560405181815233907f3582d1828e26bf56bd801502bc021ac0bc8afb57c826e4986b45593c8fad389c90602001610d40565b600054610100900460ff16158080156119505750600054600160ff909116105b8061196a5750303b15801561196a575060005460ff166001145b6119cd5760405162461bcd60e51b815260206004820152602e60248201527f496e697469616c697a61626c653a20636f6e747261637420697320616c72656160448201526d191e481a5b9a5d1a585b1a5e995960921b606482015260840161098d565b6000805460ff1916600117905580156119f0576000805461ff0019166101001790555b6119f86127c0565b611a006127c0565b611a086127e7565b6001600160a01b038416611a2f57604051633944ed8760e11b815260040160405180910390fd5b611a3a60008561241a565b6001600160a01b038216611a645760405160016279c35d60e01b0319815260040160405180910390fd5b611a7c6000805160206140648339815191528361241a565b60fe8054610100600160a81b0319166101006001600160a01b03851602179055611aa7856000612816565b600160fb819055600060fc81905560fd5560fe8054859260ff1990911690836002811115611ad757611ad7613918565b02179055508015611b22576000805461ff0019169055604051600181527f7f26b83ff96e1f2b6a682f133852f6798a09c465da95921460cefb38474024989060200160405180910390a15b5050505050565b6000611b3485611770565b9050611b476020860135828686866128fc565b611b518582612aed565b60009081526101026020526040902080546001600160a01b03191673111111111111111111111111111111111111111117905550505050565b6000611b9585611446565b9050611ba86020860135828686866128fc565b60008181526101026020526040902080546001600160a01b03198116731111111111111111111111111111111111111111179091556001600160a01b03168015611c7c576001611bfe60808801606089016137ec565b6001600160a01b031614611c2f57611c2a81611c206080890160608a016137ec565b8860800135612c53565b611c3d565b611c3d818760800135612cd4565b604051828152602080880135917f2996fd546c37d74c170466ea6aa4a308e3ca2d4aa689e6e9e32994db5039cc0e910160405180910390a25050611d75565b6000611c9060a08801356080890135613e75565b90506001611ca46080890160608a016137ec565b6001600160a01b031603611ce857611ccb611cc56060890160408a016137ec565b82612cd4565b60a087013515611ce357611ce3338860a00135612cd4565b611d39565b611d11611cfb6060890160408a016137ec565b611d0b60808a0160608b016137ec565b83612c53565b60a087013515611d3957611d3933611d2f60808a0160608b016137ec565b8960a00135612c53565b604051838152602080890135917f935f26d94be31907080aa78b3e6e2ac6d48a072af096c20268388621bbc11789910160405180910390a25050505b50505050565b818181600003611d9e57604051631f2a200560e01b815260040160405180910390fd5b81811115611dc95760405163202b316960e21b8152600481018290526024810183905260440161098d565b6001600160a01b038516611df05760405163ad1991f560e01b815260040160405180910390fd5b60006040518060c00160405280611e076000612d42565b8152602001336001600160a01b03908116825288166020808301919091526040808301899052426060840152608090920187905282518101516000908152610100909152208151805182549394508493839190829060ff191660018381811115611e7357611e73613918565b0217905550602091820151600191909101558201516002820180546001600160a01b03199081166001600160a01b03938416179091556040840151600384018054909216908316179055606083015160048301556080830151600583015560a0909201516006909101558616336001600160a01b03168260000151602001517f225305ecb66fa9b9b29f8dead9baea365a6c225d639dfd866e782ccb63e2f05b8888604051611f2c929190918252602082015260400190565b60405180910390a4611f496001600160a01b038716333088612d97565b505050505050565b610c098133612e02565b8035600003611f7d576040516369f1cfef60e01b815260040160405180910390fd5b602081013581351115611fb05760405163722fc3f760e11b8152813560048201526020820135602482015260440161098d565b60fd54611fbf60018335613e75565b1115611fec5760fd54604051630650047360e51b815282356004820152602481019190915260440161098d565b60fd548160200135116120235760fd546040516350a792b160e01b815260208301356004820152602481019190915260440161098d565b6101038054600181019091557f02c297ab74aad0aede3a1895c857b1f2c71e6a203feb727bec95ac752998cb7801829055600082815261010160205260409020819061207c828281358155602082013560018201555050565b5050602081013560fd556040517f49c158d490db9e066f01b5d4f1a094485a6598cb6c5296b4c07e46c12a1dc11c906120b89084908490613ec2565b60405180910390a15050565b80608001358160a00135816000036120ef57604051631f2a200560e01b815260040160405180910390fd5b8181111561211a5760405163202b316960e21b8152600481018290526024810183905260440161098d565b600061212584611446565b600081815261010260205260409020549091506001600160a01b0316156121625760405163fea5945360e01b81526004810182905260240161098d565b60008181526101026020526040812080546001600160a01b0319163317905561219360a08601356080870135613e75565b905060016121a760808701606088016137ec565b6001600160a01b031603612263578034146121de57604051634ceaf5d360e11b81523460048201526024810182905260440161098d565b336121ef60608701604088016137ec565b604080516020808a0135825281018590529081018590526001600160a01b0391909116907f7a9abd9eb86bdbca89cba4069a632c37d93db82e3e14ad8119a3a7812814853e9060600160405180910390a3611b228161225460608801604089016137ec565b6001600160a01b031690612e66565b3361227460608701604088016137ec565b604080516020808a0135825281018590529081018590526001600160a01b0391909116907f7a9abd9eb86bdbca89cba4069a632c37d93db82e3e14ad8119a3a7812814853e9060600160405180910390a3611b22336122d960608801604089016137ec565b836122ea60808a0160608b016137ec565b6001600160a01b0316929190612d97565b6001600160a01b0381166123895760405162461bcd60e51b815260206004820152604960248201527f5061757361626c652e5f73657450617573657252656769737472793a206e657760448201527f50617573657252656769737472792063616e6e6f7420626520746865207a65726064820152686f206164647265737360b81b608482015260a40161098d565b60c954604080516001600160a01b03928316815291831660208301527f6e9fcd539896fca60e8b0f01dd580233e48a6b0f7df013b89ba7f565869acdb6910160405180910390a160c980546001600160a01b0319166001600160a01b0392909216919091179055565b60006123fd856115a9565b90506124106020860135828686866128fc565b611b518582612f7f565b61242482826114b4565b610e3d5760008281526065602090815260408083206001600160a01b03851684529091529020805460ff1916600117905561245c3390565b6001600160a01b0316816001600160a01b0316837f2f8788117e7eff1d82e926ec794901d17c78024a50270940304540a733656f0d60405160405180910390a45050565b6124aa82826114b4565b15610e3d5760008281526065602090815260408083206001600160a01b0385168085529252808320805460ff1916905551339285917ff6391f5c32d9c69d2a47ea670b442974b53935d1edc7fd64eb21e047a839171b9190a45050565b34818160000361252a57604051631f2a200560e01b815260040160405180910390fd5b818111156125555760405163202b316960e21b8152600481018290526024810183905260440161098d565b60006040518060c0016040528061256c6000612d42565b8152336020808301919091526001604080840182905234606085015242608085015260a0909301889052835182015160009081526101009092529190208251805182549495508594929391928492839160ff19169083818111156125d2576125d2613918565b0217905550602091820151600191820155908301516002830180546001600160a01b039283166001600160a01b0319918216179091556040850151600385018054919093169116179055606083015160048301556080830151600583015560a0909201516006909101556126433390565b6001600160a01b03168260000151602001517f225305ecb66fa9b9b29f8dead9baea365a6c225d639dfd866e782ccb63e2f05b348860405161268f929190918252602082015260400190565b60405180910390a450505050565b600060fd548211156126c5576040516364b4f07960e11b81526004810183905260240161098d565b6101035460008190036126eb57604051635d43707560e01b815260040160405180910390fd5b805b8015612777576000610103612703600184613e75565b8154811061271357612713613d2d565b6000918252602080832090910154808352610101825260409283902083518085019094528054808552600190910154928401929092529250861080159061275e575080602001518611155b1561276c5750949350505050565b5050600019016126ed565b5060405162461bcd60e51b815260206004820152601c60248201527f426174636820776974682072657175657374206e6f7420666f756e6400000000604482015260640161098d565b600054610100900460ff166116fc5760405162461bcd60e51b815260040161098d90613ee0565b600054610100900460ff1661280e5760405162461bcd60e51b815260040161098d90613ee0565b6116fc61306d565b60c9546001600160a01b031615801561283757506001600160a01b03821615155b6128b95760405162461bcd60e51b815260206004820152604760248201527f5061757361626c652e5f696e697469616c697a655061757365723a205f696e6960448201527f7469616c697a6550617573657228292063616e206f6e6c792062652063616c6c6064820152666564206f6e636560c81b608482015260a40161098d565b60ca81905560405181815233907fab40a374bc51de372200a8bc981af8c9ecdc08dfdaef0bb6e09f88f3c616ef3d9060200160405180910390a2610e3d826122fb565b600084815261010260205260409020546001600160a01b0316731111111111111111111111111111111111111110190161294c5760405163e99711f160e01b81526004810185905260240161098d565b600083815261010160209081526040918290208251808401909352805480845260019091015491830191909152158061298757506020810151155b156129a5576040516339075ba160e21b815260040160405180910390fd5b8051602082015110156129db57805160208201516040516354b4960f60e11b81526004810192909252602482015260440161098d565b80518610806129ed5750806020015186115b15612a225780516020820151604051634d346e8960e01b8152600481018990526024810192909252604482015260640161098d565b80516020820151600091612a3591613e75565b612a40906001613e5d565b905063ffffffff811115612a6a57604051632095a53d60e21b81526004810182905260240161098d565b8151600090612a799089613e75565b90506000612abd888388888080602002602001604051908101604052809392919081815260200183836020028082843760009201919091525089925061309b915050565b9050808714612ae25760405163f6ae8d5360e01b81526004810188905260240161098d565b505050505050505050565b6000600160fb54612afe9190613e75565b60608401351115612b1157506001612b59565b6000612b2560408501356060860135610f8d565b905080604051602001612b3891906139d0565b60405160208183030381529060405280519060200120846080013514159150505b60006040518060800160405280612b706000612d42565b815260208681013581830152841515604080840191909152426060909301929092528251810151600090815260ff909152208151805182549394508493839190829060ff191660018381811115612bc957612bc9613918565b02179055506020918201516001919091015582810151600283015560408084015160038401805460ff1916911515919091179055606090930151600490920191909155828101518383015183519015158152918201869052917f9ef11353afd97d339a77732850b7c22704656558d9ba63cc7e321e0ac4c20aa9910160405180910390a250505050565b80600003612c74576040516329c5442960e01b815260040160405180910390fd5b816001600160a01b0316836001600160a01b03167ee763f7778b8ceef7270c89b7d1df1008b0e482da39c43831417733af96fb0d83604051612cb891815260200190565b60405180910390a3610afc6001600160a01b03831684836130e9565b80600003612cf5576040516329c5442960e01b815260040160405180910390fd5b816001600160a01b03167fe0495355c1e04c512584521854d222d239a4b782b39ac8a7e835a34f5ec7c1e182604051612d3091815260200190565b60405180910390a2610e3d8282612e66565b60408051808201909152600080825260208201526040518060400160405280836001811115612d7357612d73613918565b815260200160fb6000815480929190612d8b90613d14565b90915550905292915050565b6040516001600160a01b0380851660248301528316604482015260648101829052611d759085906323b872dd60e01b906084015b60408051601f198184030181529190526020810180516001600160e01b03166001600160e01b031990931692909217909152613119565b612e0c82826114b4565b610e3d57612e24816001600160a01b031660146131eb565b612e2f8360206131eb565b604051602001612e40929190613f2b565b60408051601f198184030181529082905262461bcd60e51b825261098d91600401613fa0565b80471015612eb65760405162461bcd60e51b815260206004820152601d60248201527f416464726573733a20696e73756666696369656e742062616c616e6365000000604482015260640161098d565b6000826001600160a01b03168260405160006040518083038185875af1925050503d8060008114612f03576040519150601f19603f3d011682016040523d82523d6000602084013e612f08565b606091505b5050905080610afc5760405162461bcd60e51b815260206004820152603a60248201527f416464726573733a20756e61626c6520746f2073656e642076616c75652c207260448201527f6563697069656e74206d61792068617665207265766572746564000000000000606482015260840161098d565b6040808301356000908152610100602052908120600281015490916001600160a01b0390911690612fb660808601606087016137ec565b6001600160a01b031614612fd757612fd460808501606086016137ec565b90505b60038201546001600160a01b0316600114613012576003820154600483015461300d9183916001600160a01b0390911690612c53565b613020565b613020818360040154612cd4565b60408051602086810135825286830135908201529081018490527f13750c731f87c15242874ce74bf4649502cc8e7c829067ce846505acdb96289d9060600160405180910390a150505050565b600054610100900460ff166130945760405162461bcd60e51b815260040161098d90613ee0565b6001609755565b600080825b80156130c5576130b1600282613fe9565b90506130be600183613e5d565b91506130a0565b6130de8287898860006130d960018b613e75565b61338e565b979650505050505050565b6040516001600160a01b038316602482015260448101829052610afc90849063a9059cbb60e01b90606401612dcb565b600061316e826040518060400160405280602081526020017f5361666545524332303a206c6f772d6c6576656c2063616c6c206661696c6564815250856001600160a01b031661349e9092919063ffffffff16565b805190915015610afc578080602001905181019061318c9190613c7e565b610afc5760405162461bcd60e51b815260206004820152602a60248201527f5361666545524332303a204552433230206f7065726174696f6e20646964206e6044820152691bdd081cdd58d8d9595960b21b606482015260840161098d565b606060006131fa836002613ffd565b613205906002613e5d565b67ffffffffffffffff81111561321d5761321d613ce8565b6040519080825280601f01601f191660200182016040528015613247576020820181803683370190505b509050600360fc1b8160008151811061326257613262613d2d565b60200101906001600160f81b031916908160001a905350600f60fb1b8160018151811061329157613291613d2d565b60200101906001600160f81b031916908160001a90535060006132b5846002613ffd565b6132c0906001613e5d565b90505b6001811115613338576f181899199a1a9b1b9c1cb0b131b232b360811b85600f16601081106132f4576132f4613d2d565b1a60f81b82828151811061330a5761330a613d2d565b60200101906001600160f81b031916908160001a90535060049490941c936133318161401c565b90506132c3565b5083156133875760405162461bcd60e51b815260206004820181905260248201527f537472696e67733a20686578206c656e67746820696e73756666696369656e74604482015260640161098d565b9392505050565b600061339b600287614033565b6000036134065785821461345f578484846133b581613d14565b9550815181106133c7576133c7613d2d565b60200260200101516040516020016133e9929190918252602082015260400190565b60405160208183030381529060405280519060200120945061345f565b838361341181613d14565b94508151811061342357613423613d2d565b602002602001015185604051602001613446929190918252602082015260400190565b6040516020818303038152906040528051906020012094505b866001146134935761348e613475600189613e75565b613480600289613fe9565b8787876130d9600289613fe9565b6130de565b509295945050505050565b60606134ad84846000856134b5565b949350505050565b6060824710156135165760405162461bcd60e51b815260206004820152602660248201527f416464726573733a20696e73756666696369656e742062616c616e636520666f6044820152651c8818d85b1b60d21b606482015260840161098d565b6001600160a01b0385163b61356d5760405162461bcd60e51b815260206004820152601d60248201527f416464726573733a2063616c6c20746f206e6f6e2d636f6e7472616374000000604482015260640161098d565b600080866001600160a01b031685876040516135899190614047565b60006040518083038185875af1925050503d80600081146135c6576040519150601f19603f3d011682016040523d82523d6000602084013e6135cb565b606091505b50915091506130de828286606083156135e5575081613387565b8251156135f55782518084602001fd5b8160405162461bcd60e51b815260040161098d9190613fa0565b600060a0828403121561362157600080fd5b50919050565b60008083601f84011261363957600080fd5b50813567ffffffffffffffff81111561365157600080fd5b6020830191508360208260051b850101111561366c57600080fd5b9250929050565b60008060008060e0858703121561368957600080fd5b613693868661360f565b935060a0850135925060c085013567ffffffffffffffff8111156136b657600080fd5b6136c287828801613627565b95989497509550505050565b6000602082840312156136e057600080fd5b81356001600160e01b03198116811461338757600080fd5b600060c0828403121561362157600080fd5b600080600080610100858703121561372157600080fd5b61372b86866136f8565b935060c0850135925060e085013567ffffffffffffffff8111156136b657600080fd5b6001600160a01b0381168114610c0957600080fd5b60008060006060848603121561377857600080fd5b83356137838161374e565b95602085013595506040909401359392505050565b60008082840360608112156137ac57600080fd5b833592506040601f19820112156137c257600080fd5b506020830190509250929050565b600060c082840312156137e257600080fd5b61338783836136f8565b6000602082840312156137fe57600080fd5b81356133878161374e565b60006020828403121561381b57600080fd5b5035919050565b60006080828403121561362157600080fd5b60008060008060c0858703121561384a57600080fd5b6138548686613822565b93506080850135925060a085013567ffffffffffffffff8111156136b657600080fd5b6000806040838503121561388a57600080fd5b82359150602083013561389c8161374e565b809150509250929050565b600080604083850312156138ba57600080fd5b82356138c58161374e565b946020939093013593505050565b6000602082840312156138e557600080fd5b813560ff8116811461338757600080fd5b6000806040838503121561390957600080fd5b50508035926020909101359150565b634e487b7160e01b600052602160045260246000fd5b60038110610c0957610c09613918565b6002811061394e5761394e613918565b9052565b61395d82825161393e565b602090810151910152565b600081518084526020808501945080840160005b838110156139c5578151613991888251613952565b8084015160408981019190915281015115156060808a01919091520151608088015260a0909601959082019060010161397c565b509495945050505050565b60006020808352608080840185516139e78161392e565b85840152858301516060604080880182905282519384905260a093928601928489019060005b81811015613a68578551613a22848251613952565b808a01516001600160a01b03908116858701528582015116868501528581015189850152888101518885015287015160c08401529488019460e090920191600101613a0d565b505089820151898203601f1901848b01529650613a858188613968565b9a9950505050505050505050565b600060808284031215613aa557600080fd5b6133878383613822565b60e08101613abd8289613952565b6001600160a01b039687166040830152949095166060860152608085019290925260a084015260c090920191909152919050565b60208101613afe8361392e565b91905290565b60a08101613b128287613952565b60408201949094529115156060830152608090910152919050565b600060a08284031215613b3f57600080fd5b613387838361360f565b60008060008060808587031215613b5f57600080fd5b8435613b6a8161374e565b93506020850135613b7a8161374e565b9250604085013560038110613b8e57600080fd5b91506060850135613b9e8161374e565b939692955090935050565b6020808252601c908201527f5061757361626c653a20636f6e74726163742069732070617573656400000000604082015260600190565b6020808252601f908201527f5265656e7472616e637947756172643a207265656e7472616e742063616c6c00604082015260600190565b600060208284031215613c2957600080fd5b81516133878161374e565b6020808252602a908201527f6d73672e73656e646572206973206e6f74207065726d697373696f6e6564206160408201526939903ab73830bab9b2b960b11b606082015260800190565b600060208284031215613c9057600080fd5b8151801515811461338757600080fd5b60208082526028908201527f6d73672e73656e646572206973206e6f74207065726d697373696f6e6564206160408201526739903830bab9b2b960c11b606082015260800190565b634e487b7160e01b600052604160045260246000fd5b634e487b7160e01b600052601160045260246000fd5b600060018201613d2657613d26613cfe565b5060010190565b634e487b7160e01b600052603260045260246000fd5b803560028110613d5257600080fd5b613d5c838261393e565b50602090810135910152565b60c08101613d768284613d43565b6040830135613d848161374e565b6001600160a01b039081166040840152606084013590613da38261374e565b1660608301526080838101359083015260a092830135929091019190915290565b60005b83811015613ddf578181015183820152602001613dc7565b83811115611d755750506000910152565b60008351613e02818460208801613dc4565b835190830190613e16818360208801613dc4565b01949350505050565b60808101613e2d8284613d43565b604083013560408301526060830135613e458161374e565b6001600160a01b031660609290920191909152919050565b60008219821115613e7057613e70613cfe565b500190565b600082821015613e8757613e87613cfe565b500390565b60a08101613e9a8284613d43565b613eb4604083016040850180358252602090810135910152565b608092830135919092015290565b82815260608101613387602083018480358252602090810135910152565b6020808252602b908201527f496e697469616c697a61626c653a20636f6e7472616374206973206e6f74206960408201526a6e697469616c697a696e6760a81b606082015260800190565b7f416363657373436f6e74726f6c3a206163636f756e7420000000000000000000815260008351613f63816017850160208801613dc4565b7001034b99036b4b9b9b4b733903937b6329607d1b6017918401918201528351613f94816028840160208801613dc4565b01602801949350505050565b6020815260008251806020840152613fbf816040850160208701613dc4565b601f01601f19169190910160400192915050565b634e487b7160e01b600052601260045260246000fd5b600082613ff857613ff8613fd3565b500490565b600081600019048311821515161561401757614017613cfe565b500290565b60008161402b5761402b613cfe565b506000190190565b60008261404257614042613fd3565b500690565b60008251614059818460208701613dc4565b919091019291505056fe73e573f9566d61418a34d5de3ff49360f9c51fec37f7486551670290f6285daba264697066735822122090d3b18b62e1af5d8fbdc6702b073f9179075a53ca0f3a9c5f9cb560b5f08f2c64736f6c634300080d0033","linkReferences":{}},"methodIdentifiers":{"CLOSED()":"0e2636a3","DEFAULT_ADMIN_ROLE()":"a217fddf","NATIVE_TOKEN_ADDRESS()":"df2ebdbb","UPDATER_ROLE()":"47e63380","cancelResolutions(uint256)":"ca9b21ae","chain()":"c763e5a1","closeCancel(((uint8,uint256),(uint256,uint256),bytes32),bytes32,bytes32[])":"d1cb26b4","closeDepositRefund(((uint8,uint256),uint256,address),bytes32,bytes32[])":"25afc76a","closeWithdrawal(((uint8,uint256),address,address,uint256,uint256),bytes32,bytes32[])":"03ed49d3","close_cancel(((uint8,uint256),(uint256,uint256),bytes32),bytes32,bytes32[])":"01ef6966","close_deposit_refund(((uint8,uint256),uint256,address),bytes32,bytes32[])":"950ac487","close_withdrawal(((uint8,uint256),address,address,uint256,uint256),bytes32,bytes32[])":"4bf5fec3","counter()":"61bc221a","deposit(address,uint256)":"47e7ef24","deposit(address,uint256,uint256)":"0efe6a8b","depositERC20(address,uint256)":"97feb926","depositERC20(address,uint256,uint256)":"21425ee0","depositNative()":"db6b5246","depositNative(uint256)":"608fc37a","deposit_erc20(address,uint256)":"d16544f0","deposit_erc20(address,uint256,uint256)":"08aba1b2","deposit_native()":"c87c2224","deposit_native(uint256)":"dffbdd9f","deposits(uint256)":"b02c43d0","ferryWithdrawal(((uint8,uint256),address,address,uint256,uint256))":"676f536b","ferry_withdrawal(((uint8,uint256),address,address,uint256,uint256))":"0cac57ab","findL2Batch(uint256)":"ce2de1bc","find_l2_batch(uint256)":"f9ecd01e","getMerkleRootsLength()":"ff2bae86","getPendingRequests(uint256,uint256)":"79e041f2","getRoleAdmin(bytes32)":"248a9ca3","getUpdateForL2()":"b1538706","grantRole(bytes32,address)":"2f2ff15d","hasRole(bytes32,address)":"91d14854","hashCancel(((uint8,uint256),(uint256,uint256),bytes32))":"cc8c909f","hashFailedDepositResolution(((uint8,uint256),uint256,address))":"ae46db11","hashWithdrawal(((uint8,uint256),address,address,uint256,uint256))":"890e95ce","initialize(address,address,uint8,address)":"ffea632b","lastProcessedUpdate_origin_l1()":"7fd4f845","lastProcessedUpdate_origin_l2()":"f26ee9d0","merkleRootRange(bytes32)":"4f48eedf","pause(uint256)":"136439dd","pauseAll()":"595c6a67","paused()":"5c975abb","paused(uint8)":"5ac86ab7","pauserRegistry()":"886f1195","processedL2Requests(bytes32)":"de70e0b8","renounceRole(bytes32,address)":"36568abe","revokeRole(bytes32,address)":"d547741f","roots(uint256)":"c2b40ae4","setPauserRegistry(address)":"10d67a2f","setUpdater(address)":"9d54f419","supportsInterface(bytes4)":"01ffc9a7","unpause(uint256)":"fabc1cbc","updateL1FromL2(bytes32,(uint256,uint256))":"8e24e392","update_l1_from_l2(bytes32,(uint256,uint256))":"08f42d40","updaterAccount()":"71c54461"},"id":144}