{"abi":[{"type":"receive","stateMutability":"payable"},{"type":"function","name":"CLOSED","inputs":[],"outputs":[{"name":"","type":"address","internalType":"address"}],"stateMutability":"view"},{"type":"function","name":"DEFAULT_ADMIN_ROLE","inputs":[],"outputs":[{"name":"","type":"bytes32","internalType":"bytes32"}],"stateMutability":"view"},{"type":"function","name":"NATIVE_TOKEN_ADDRESS","inputs":[],"outputs":[{"name":"","type":"address","internalType":"address"}],"stateMutability":"view"},{"type":"function","name":"UPDATER_ROLE","inputs":[],"outputs":[{"name":"","type":"bytes32","internalType":"bytes32"}],"stateMutability":"view"},{"type":"function","name":"cancelResolutions","inputs":[{"name":"","type":"uint256","internalType":"uint256"}],"outputs":[{"name":"requestId","type":"tuple","internalType":"struct IRolldownPrimitives.RequestId","components":[{"name":"origin","type":"uint8","internalType":"enum IRolldownPrimitives.Origin"},{"name":"id","type":"uint256","internalType":"uint256"}]},{"name":"l2RequestId","type":"uint256","internalType":"uint256"},{"name":"cancelJustified","type":"bool","internalType":"bool"},{"name":"timeStamp","type":"uint256","internalType":"uint256"}],"stateMutability":"view"},{"type":"function","name":"chain","inputs":[],"outputs":[{"name":"","type":"uint8","internalType":"uint8"}],"stateMutability":"view"},{"type":"function","name":"closeCancel","inputs":[{"name":"cancel","type":"tuple","internalType":"struct IRolldownPrimitives.Cancel","components":[{"name":"requestId","type":"tuple","internalType":"struct IRolldownPrimitives.RequestId","components":[{"name":"origin","type":"uint8","internalType":"enum IRolldownPrimitives.Origin"},{"name":"id","type":"uint256","internalType":"uint256"}]},{"name":"range","type":"tuple","internalType":"struct IRolldownPrimitives.Range","components":[{"name":"start","type":"uint256","internalType":"uint256"},{"name":"end","type":"uint256","internalType":"uint256"}]},{"name":"hash","type":"bytes32","internalType":"bytes32"}]},{"name":"merkleRoot","type":"bytes32","internalType":"bytes32"},{"name":"proof","type":"bytes32[]","internalType":"bytes32[]"}],"outputs":[],"stateMutability":"nonpayable"},{"type":"function","name":"closeDepositRefund","inputs":[{"name":"failedDeposit","type":"tuple","internalType":"struct IRolldownPrimitives.FailedDepositResolution","components":[{"name":"requestId","type":"tuple","internalType":"struct IRolldownPrimitives.RequestId","components":[{"name":"origin","type":"uint8","internalType":"enum IRolldownPrimitives.Origin"},{"name":"id","type":"uint256","internalType":"uint256"}]},{"name":"originRequestId","type":"uint256","internalType":"uint256"},{"name":"ferry","type":"address","internalType":"address"}]},{"name":"merkleRoot","type":"bytes32","internalType":"bytes32"},{"name":"proof","type":"bytes32[]","internalType":"bytes32[]"}],"outputs":[],"stateMutability":"nonpayable"},{"type":"function","name":"closeWithdrawal","inputs":[{"name":"withdrawal","type":"tuple","internalType":"struct IRolldownPrimitives.Withdrawal","components":[{"name":"requestId","type":"tuple","internalType":"struct IRolldownPrimitives.RequestId","components":[{"name":"origin","type":"uint8","internalType":"enum IRolldownPrimitives.Origin"},{"name":"id","type":"uint256","internalType":"uint256"}]},{"name":"recipient","type":"address","internalType":"address"},{"name":"tokenAddress","type":"address","internalType":"address"},{"name":"amount","type":"uint256","internalType":"uint256"},{"name":"ferryTip","type":"uint256","internalType":"uint256"}]},{"name":"merkleRoot","type":"bytes32","internalType":"bytes32"},{"name":"proof","type":"bytes32[]","internalType":"bytes32[]"}],"outputs":[],"stateMutability":"nonpayable"},{"type":"function","name":"close_cancel","inputs":[{"name":"cancel","type":"tuple","internalType":"struct IRolldownPrimitives.Cancel","components":[{"name":"requestId","type":"tuple","internalType":"struct IRolldownPrimitives.RequestId","components":[{"name":"origin","type":"uint8","internalType":"enum IRolldownPrimitives.Origin"},{"name":"id","type":"uint256","internalType":"uint256"}]},{"name":"range","type":"tuple","internalType":"struct IRolldownPrimitives.Range","components":[{"name":"start","type":"uint256","internalType":"uint256"},{"name":"end","type":"uint256","internalType":"uint256"}]},{"name":"hash","type":"bytes32","internalType":"bytes32"}]},{"name":"merkleRoot","type":"bytes32","internalType":"bytes32"},{"name":"proof","type":"bytes32[]","internalType":"bytes32[]"}],"outputs":[],"stateMutability":"nonpayable"},{"type":"function","name":"close_deposit_refund","inputs":[{"name":"failedDeposit","type":"tuple","internalType":"struct IRolldownPrimitives.FailedDepositResolution","components":[{"name":"requestId","type":"tuple","internalType":"struct IRolldownPrimitives.RequestId","components":[{"name":"origin","type":"uint8","internalType":"enum IRolldownPrimitives.Origin"},{"name":"id","type":"uint256","internalType":"uint256"}]},{"name":"originRequestId","type":"uint256","internalType":"uint256"},{"name":"ferry","type":"address","internalType":"address"}]},{"name":"merkleRoot","type":"bytes32","internalType":"bytes32"},{"name":"proof","type":"bytes32[]","internalType":"bytes32[]"}],"outputs":[],"stateMutability":"nonpayable"},{"type":"function","name":"close_withdrawal","inputs":[{"name":"withdrawal","type":"tuple","internalType":"struct IRolldownPrimitives.Withdrawal","components":[{"name":"requestId","type":"tuple","internalType":"struct IRolldownPrimitives.RequestId","components":[{"name":"origin","type":"uint8","internalType":"enum IRolldownPrimitives.Origin"},{"name":"id","type":"uint256","internalType":"uint256"}]},{"name":"recipient","type":"address","internalType":"address"},{"name":"tokenAddress","type":"address","internalType":"address"},{"name":"amount","type":"uint256","internalType":"uint256"},{"name":"ferryTip","type":"uint256","internalType":"uint256"}]},{"name":"merkleRoot","type":"bytes32","internalType":"bytes32"},{"name":"proof","type":"bytes32[]","internalType":"bytes32[]"}],"outputs":[],"stateMutability":"nonpayable"},{"type":"function","name":"counter","inputs":[],"outputs":[{"name":"","type":"uint256","internalType":"uint256"}],"stateMutability":"view"},{"type":"function","name":"deposit","inputs":[{"name":"tokenAddress","type":"address","internalType":"address"},{"name":"amount","type":"uint256","internalType":"uint256"},{"name":"ferryTip","type":"uint256","internalType":"uint256"}],"outputs":[],"stateMutability":"nonpayable"},{"type":"function","name":"deposit","inputs":[{"name":"tokenAddress","type":"address","internalType":"address"},{"name":"amount","type":"uint256","internalType":"uint256"}],"outputs":[],"stateMutability":"nonpayable"},{"type":"function","name":"depositERC20","inputs":[{"name":"tokenAddress","type":"address","internalType":"address"},{"name":"amount","type":"uint256","internalType":"uint256"},{"name":"ferryTip","type":"uint256","internalType":"uint256"}],"outputs":[],"stateMutability":"nonpayable"},{"type":"function","name":"depositERC20","inputs":[{"name":"tokenAddress","type":"address","internalType":"address"},{"name":"amount","type":"uint256","internalType":"uint256"}],"outputs":[],"stateMutability":"nonpayable"},{"type":"function","name":"depositNative","inputs":[{"name":"ferryTip","type":"uint256","internalType":"uint256"}],"outputs":[],"stateMutability":"payable"},{"type":"function","name":"depositNative","inputs":[],"outputs":[],"stateMutability":"payable"},{"type":"function","name":"deposit_erc20","inputs":[{"name":"tokenAddress","type":"address","internalType":"address"},{"name":"amount","type":"uint256","internalType":"uint256"},{"name":"ferryTip","type":"uint256","internalType":"uint256"}],"outputs":[],"stateMutability":"nonpayable"},{"type":"function","name":"deposit_erc20","inputs":[{"name":"tokenAddress","type":"address","internalType":"address"},{"name":"amount","type":"uint256","internalType":"uint256"}],"outputs":[],"stateMutability":"nonpayable"},{"type":"function","name":"deposit_native","inputs":[],"outputs":[],"stateMutability":"payable"},{"type":"function","name":"deposit_native","inputs":[{"name":"ferryTip","type":"uint256","internalType":"uint256"}],"outputs":[],"stateMutability":"payable"},{"type":"function","name":"deposits","inputs":[{"name":"","type":"uint256","internalType":"uint256"}],"outputs":[{"name":"requestId","type":"tuple","internalType":"struct IRolldownPrimitives.RequestId","components":[{"name":"origin","type":"uint8","internalType":"enum IRolldownPrimitives.Origin"},{"name":"id","type":"uint256","internalType":"uint256"}]},{"name":"depositRecipient","type":"address","internalType":"address"},{"name":"tokenAddress","type":"address","internalType":"address"},{"name":"amount","type":"uint256","internalType":"uint256"},{"name":"timeStamp","type":"uint256","internalType":"uint256"},{"name":"ferryTip","type":"uint256","internalType":"uint256"}],"stateMutability":"view"},{"type":"function","name":"ferryWithdrawal","inputs":[{"name":"withdrawal","type":"tuple","internalType":"struct IRolldownPrimitives.Withdrawal","components":[{"name":"requestId","type":"tuple","internalType":"struct IRolldownPrimitives.RequestId","components":[{"name":"origin","type":"uint8","internalType":"enum IRolldownPrimitives.Origin"},{"name":"id","type":"uint256","internalType":"uint256"}]},{"name":"recipient","type":"address","internalType":"address"},{"name":"tokenAddress","type":"address","internalType":"address"},{"name":"amount","type":"uint256","internalType":"uint256"},{"name":"ferryTip","type":"uint256","internalType":"uint256"}]}],"outputs":[],"stateMutability":"payable"},{"type":"function","name":"ferry_withdrawal","inputs":[{"name":"withdrawal","type":"tuple","internalType":"struct IRolldownPrimitives.Withdrawal","components":[{"name":"requestId","type":"tuple","internalType":"struct IRolldownPrimitives.RequestId","components":[{"name":"origin","type":"uint8","internalType":"enum IRolldownPrimitives.Origin"},{"name":"id","type":"uint256","internalType":"uint256"}]},{"name":"recipient","type":"address","internalType":"address"},{"name":"tokenAddress","type":"address","internalType":"address"},{"name":"amount","type":"uint256","internalType":"uint256"},{"name":"ferryTip","type":"uint256","internalType":"uint256"}]}],"outputs":[],"stateMutability":"payable"},{"type":"function","name":"findL2Batch","inputs":[{"name":"requestId","type":"uint256","internalType":"uint256"}],"outputs":[{"name":"","type":"bytes32","internalType":"bytes32"}],"stateMutability":"view"},{"type":"function","name":"find_l2_batch","inputs":[{"name":"requestId","type":"uint256","internalType":"uint256"}],"outputs":[{"name":"","type":"bytes32","internalType":"bytes32"}],"stateMutability":"view"},{"type":"function","name":"getMerkleRootsLength","inputs":[],"outputs":[{"name":"","type":"uint256","internalType":"uint256"}],"stateMutability":"view"},{"type":"function","name":"getPendingRequests","inputs":[{"name":"start","type":"uint256","internalType":"uint256"},{"name":"end","type":"uint256","internalType":"uint256"}],"outputs":[{"name":"","type":"tuple","internalType":"struct IRolldownPrimitives.L1Update","components":[{"name":"chain","type":"uint256","internalType":"uint256"},{"name":"pendingDeposits","type":"tuple[]","internalType":"struct IRolldownPrimitives.Deposit[]","components":[{"name":"requestId","type":"tuple","internalType":"struct IRolldownPrimitives.RequestId","components":[{"name":"origin","type":"uint8","internalType":"enum IRolldownPrimitives.Origin"},{"name":"id","type":"uint256","internalType":"uint256"}]},{"name":"depositRecipient","type":"address","internalType":"address"},{"name":"tokenAddress","type":"address","internalType":"address"},{"name":"amount","type":"uint256","internalType":"uint256"},{"name":"timeStamp","type":"uint256","internalType":"uint256"},{"name":"ferryTip","type":"uint256","internalType":"uint256"}]},{"name":"pendingCancelResolutions","type":"tuple[]","internalType":"struct IRolldownPrimitives.CancelResolution[]","components":[{"name":"requestId","type":"tuple","internalType":"struct IRolldownPrimitives.RequestId","components":[{"name":"origin","type":"uint8","internalType":"enum IRolldownPrimitives.Origin"},{"name":"id","type":"uint256","internalType":"uint256"}]},{"name":"l2RequestId","type":"uint256","internalType":"uint256"},{"name":"cancelJustified","type":"bool","internalType":"bool"},{"name":"timeStamp","type":"uint256","internalType":"uint256"}]}]}],"stateMutability":"view"},{"type":"function","name":"getRoleAdmin","inputs":[{"name":"role","type":"bytes32","internalType":"bytes32"}],"outputs":[{"name":"","type":"bytes32","internalType":"bytes32"}],"stateMutability":"view"},{"type":"function","name":"getUpdateForL2","inputs":[],"outputs":[{"name":"","type":"tuple","internalType":"struct IRolldownPrimitives.L1Update","components":[{"name":"chain","type":"uint256","internalType":"uint256"},{"name":"pendingDeposits","type":"tuple[]","internalType":"struct IRolldownPrimitives.Deposit[]","components":[{"name":"requestId","type":"tuple","internalType":"struct IRolldownPrimitives.RequestId","components":[{"name":"origin","type":"uint8","internalType":"enum IRolldownPrimitives.Origin"},{"name":"id","type":"uint256","internalType":"uint256"}]},{"name":"depositRecipient","type":"address","internalType":"address"},{"name":"tokenAddress","type":"address","internalType":"address"},{"name":"amount","type":"uint256","internalType":"uint256"},{"name":"timeStamp","type":"uint256","internalType":"uint256"},{"name":"ferryTip","type":"uint256","internalType":"uint256"}]},{"name":"pendingCancelResolutions","type":"tuple[]","internalType":"struct IRolldownPrimitives.CancelResolution[]","components":[{"name":"requestId","type":"tuple","internalType":"struct IRolldownPrimitives.RequestId","components":[{"name":"origin","type":"uint8","internalType":"enum IRolldownPrimitives.Origin"},{"name":"id","type":"uint256","internalType":"uint256"}]},{"name":"l2RequestId","type":"uint256","internalType":"uint256"},{"name":"cancelJustified","type":"bool","internalType":"bool"},{"name":"timeStamp","type":"uint256","internalType":"uint256"}]}]}],"stateMutability":"view"},{"type":"function","name":"grantRole","inputs":[{"name":"role","type":"bytes32","internalType":"bytes32"},{"name":"account","type":"address","internalType":"address"}],"outputs":[],"stateMutability":"nonpayable"},{"type":"function","name":"hasRole","inputs":[{"name":"role","type":"bytes32","internalType":"bytes32"},{"name":"account","type":"address","internalType":"address"}],"outputs":[{"name":"","type":"bool","internalType":"bool"}],"stateMutability":"view"},{"type":"function","name":"hashCancel","inputs":[{"name":"cancel","type":"tuple","internalType":"struct IRolldownPrimitives.Cancel","components":[{"name":"requestId","type":"tuple","internalType":"struct IRolldownPrimitives.RequestId","components":[{"name":"origin","type":"uint8","internalType":"enum IRolldownPrimitives.Origin"},{"name":"id","type":"uint256","internalType":"uint256"}]},{"name":"range","type":"tuple","internalType":"struct IRolldownPrimitives.Range","components":[{"name":"start","type":"uint256","internalType":"uint256"},{"name":"end","type":"uint256","internalType":"uint256"}]},{"name":"hash","type":"bytes32","internalType":"bytes32"}]}],"outputs":[{"name":"","type":"bytes32","internalType":"bytes32"}],"stateMutability":"pure"},{"type":"function","name":"hashFailedDepositResolution","inputs":[{"name":"failedDeposit","type":"tuple","internalType":"struct IRolldownPrimitives.FailedDepositResolution","components":[{"name":"requestId","type":"tuple","internalType":"struct IRolldownPrimitives.RequestId","components":[{"name":"origin","type":"uint8","internalType":"enum IRolldownPrimitives.Origin"},{"name":"id","type":"uint256","internalType":"uint256"}]},{"name":"originRequestId","type":"uint256","internalType":"uint256"},{"name":"ferry","type":"address","internalType":"address"}]}],"outputs":[{"name":"","type":"bytes32","internalType":"bytes32"}],"stateMutability":"pure"},{"type":"function","name":"hashWithdrawal","inputs":[{"name":"withdrawal","type":"tuple","internalType":"struct IRolldownPrimitives.Withdrawal","components":[{"name":"requestId","type":"tuple","internalType":"struct IRolldownPrimitives.RequestId","components":[{"name":"origin","type":"uint8","internalType":"enum IRolldownPrimitives.Origin"},{"name":"id","type":"uint256","internalType":"uint256"}]},{"name":"recipient","type":"address","internalType":"address"},{"name":"tokenAddress","type":"address","internalType":"address"},{"name":"amount","type":"uint256","internalType":"uint256"},{"name":"ferryTip","type":"uint256","internalType":"uint256"}]}],"outputs":[{"name":"","type":"bytes32","internalType":"bytes32"}],"stateMutability":"pure"},{"type":"function","name":"initialize","inputs":[{"name":"admin","type":"address","internalType":"address"},{"name":"updater","type":"address","internalType":"address"}],"outputs":[],"stateMutability":"nonpayable"},{"type":"function","name":"lastProcessedUpdate_origin_l1","inputs":[],"outputs":[{"name":"","type":"uint256","internalType":"uint256"}],"stateMutability":"view"},{"type":"function","name":"lastProcessedUpdate_origin_l2","inputs":[],"outputs":[{"name":"","type":"uint256","internalType":"uint256"}],"stateMutability":"view"},{"type":"function","name":"merkleRootRange","inputs":[{"name":"","type":"bytes32","internalType":"bytes32"}],"outputs":[{"name":"start","type":"uint256","internalType":"uint256"},{"name":"end","type":"uint256","internalType":"uint256"}],"stateMutability":"view"},{"type":"function","name":"pause","inputs":[],"outputs":[],"stateMutability":"nonpayable"},{"type":"function","name":"paused","inputs":[],"outputs":[{"name":"","type":"bool","internalType":"bool"}],"stateMutability":"view"},{"type":"function","name":"processedL2Requests","inputs":[{"name":"","type":"bytes32","internalType":"bytes32"}],"outputs":[{"name":"","type":"address","internalType":"address"}],"stateMutability":"view"},{"type":"function","name":"renounceRole","inputs":[{"name":"role","type":"bytes32","internalType":"bytes32"},{"name":"account","type":"address","internalType":"address"}],"outputs":[],"stateMutability":"nonpayable"},{"type":"function","name":"revokeRole","inputs":[{"name":"role","type":"bytes32","internalType":"bytes32"},{"name":"account","type":"address","internalType":"address"}],"outputs":[],"stateMutability":"nonpayable"},{"type":"function","name":"roots","inputs":[{"name":"","type":"uint256","internalType":"uint256"}],"outputs":[{"name":"","type":"bytes32","internalType":"bytes32"}],"stateMutability":"view"},{"type":"function","name":"setUpdater","inputs":[{"name":"updater","type":"address","internalType":"address"}],"outputs":[],"stateMutability":"nonpayable"},{"type":"function","name":"supportsInterface","inputs":[{"name":"interfaceId","type":"bytes4","internalType":"bytes4"}],"outputs":[{"name":"","type":"bool","internalType":"bool"}],"stateMutability":"view"},{"type":"function","name":"unpause","inputs":[],"outputs":[],"stateMutability":"nonpayable"},{"type":"function","name":"updateL1FromL2","inputs":[{"name":"merkleRoot","type":"bytes32","internalType":"bytes32"},{"name":"range","type":"tuple","internalType":"struct IRolldownPrimitives.Range","components":[{"name":"start","type":"uint256","internalType":"uint256"},{"name":"end","type":"uint256","internalType":"uint256"}]}],"outputs":[],"stateMutability":"nonpayable"},{"type":"function","name":"update_l1_from_l2","inputs":[{"name":"merkleRoot","type":"bytes32","internalType":"bytes32"},{"name":"range","type":"tuple","internalType":"struct IRolldownPrimitives.Range","components":[{"name":"start","type":"uint256","internalType":"uint256"},{"name":"end","type":"uint256","internalType":"uint256"}]}],"outputs":[],"stateMutability":"nonpayable"},{"type":"function","name":"updaterAccount","inputs":[],"outputs":[{"name":"","type":"address","internalType":"address"}],"stateMutability":"view"},{"type":"event","name":"DepositAcceptedIntoQueue","inputs":[{"name":"requestId","type":"uint256","indexed":true,"internalType":"uint256"},{"name":"depositRecipient","type":"address","indexed":true,"internalType":"address"},{"name":"tokenAddress","type":"address","indexed":true,"internalType":"address"},{"name":"amount","type":"uint256","indexed":false,"internalType":"uint256"},{"name":"ferryTip","type":"uint256","indexed":false,"internalType":"uint256"}],"anonymous":false},{"type":"event","name":"DisputeResolutionAcceptedIntoQueue","inputs":[{"name":"requestId","type":"uint256","indexed":true,"internalType":"uint256"},{"name":"cancelJustified","type":"bool","indexed":false,"internalType":"bool"},{"name":"cancelResolutionHash","type":"bytes32","indexed":false,"internalType":"bytes32"}],"anonymous":false},{"type":"event","name":"ERC20TokensWithdrawn","inputs":[{"name":"sender","type":"address","indexed":true,"internalType":"address"},{"name":"tokenAddress","type":"address","indexed":true,"internalType":"address"},{"name":"amount","type":"uint256","indexed":false,"internalType":"uint256"}],"anonymous":false},{"type":"event","name":"FailedDepositResolutionClosed","inputs":[{"name":"indexedrequestId","type":"uint256","indexed":false,"internalType":"uint256"},{"name":"originDepositId","type":"uint256","indexed":false,"internalType":"uint256"},{"name":"failedDespotiResolutionHash","type":"bytes32","indexed":false,"internalType":"bytes32"}],"anonymous":false},{"type":"event","name":"FerriedWithdrawalClosed","inputs":[{"name":"requestId","type":"uint256","indexed":true,"internalType":"uint256"},{"name":"withdrawalHash","type":"bytes32","indexed":false,"internalType":"bytes32"}],"anonymous":false},{"type":"event","name":"Initialized","inputs":[{"name":"version","type":"uint8","indexed":false,"internalType":"uint8"}],"anonymous":false},{"type":"event","name":"L2UpdateAccepted","inputs":[{"name":"root","type":"bytes32","indexed":false,"internalType":"bytes32"},{"name":"range","type":"tuple","indexed":false,"internalType":"struct IRolldownPrimitives.Range","components":[{"name":"start","type":"uint256","internalType":"uint256"},{"name":"end","type":"uint256","internalType":"uint256"}]}],"anonymous":false},{"type":"event","name":"NativeTokensWithdrawn","inputs":[{"name":"sender","type":"address","indexed":true,"internalType":"address"},{"name":"amount","type":"uint256","indexed":false,"internalType":"uint256"}],"anonymous":false},{"type":"event","name":"NewUpdaterSet","inputs":[{"name":"updater","type":"address","indexed":true,"internalType":"address"}],"anonymous":false},{"type":"event","name":"Paused","inputs":[{"name":"account","type":"address","indexed":false,"internalType":"address"}],"anonymous":false},{"type":"event","name":"RoleAdminChanged","inputs":[{"name":"role","type":"bytes32","indexed":true,"internalType":"bytes32"},{"name":"previousAdminRole","type":"bytes32","indexed":true,"internalType":"bytes32"},{"name":"newAdminRole","type":"bytes32","indexed":true,"internalType":"bytes32"}],"anonymous":false},{"type":"event","name":"RoleGranted","inputs":[{"name":"role","type":"bytes32","indexed":true,"internalType":"bytes32"},{"name":"account","type":"address","indexed":true,"internalType":"address"},{"name":"sender","type":"address","indexed":true,"internalType":"address"}],"anonymous":false},{"type":"event","name":"RoleRevoked","inputs":[{"name":"role","type":"bytes32","indexed":true,"internalType":"bytes32"},{"name":"account","type":"address","indexed":true,"internalType":"address"},{"name":"sender","type":"address","indexed":true,"internalType":"address"}],"anonymous":false},{"type":"event","name":"Unpaused","inputs":[{"name":"account","type":"address","indexed":false,"internalType":"address"}],"anonymous":false},{"type":"event","name":"WithdrawalClosed","inputs":[{"name":"requestId","type":"uint256","indexed":true,"internalType":"uint256"},{"name":"withdrawalHash","type":"bytes32","indexed":false,"internalType":"bytes32"}],"anonymous":false},{"type":"event","name":"WithdrawalFerried","inputs":[{"name":"indexedrequestId","type":"uint256","indexed":false,"internalType":"uint256"},{"name":"amount","type":"uint256","indexed":false,"internalType":"uint256"},{"name":"recipient","type":"address","indexed":true,"internalType":"address"},{"name":"ferry","type":"address","indexed":true,"internalType":"address"},{"name":"withdrawalHash","type":"bytes32","indexed":false,"internalType":"bytes32"}],"anonymous":false},{"type":"error","name":"BatchNotFound","inputs":[]},{"type":"error","name":"FerryTipExceedsAmount","inputs":[{"name":"ferryTip","type":"uint256","internalType":"uint256"},{"name":"amount","type":"uint256","internalType":"uint256"}]},{"type":"error","name":"InvalidFerriedAmount","inputs":[{"name":"actualAmount","type":"uint256","internalType":"uint256"},{"name":"expectedAmount","type":"uint256","internalType":"uint256"}]},{"type":"error","name":"InvalidRequestId","inputs":[{"name":"requestId","type":"uint256","internalType":"uint256"}]},{"type":"error","name":"InvalidRequestProof","inputs":[{"name":"merkleRoot","type":"bytes32","internalType":"bytes32"}]},{"type":"error","name":"InvalidRequestRange","inputs":[{"name":"start","type":"uint256","internalType":"uint256"},{"name":"end","type":"uint256","internalType":"uint256"}]},{"type":"error","name":"InvalidUpdateRange","inputs":[{"name":"start","type":"uint256","internalType":"uint256"},{"name":"end","type":"uint256","internalType":"uint256"}]},{"type":"error","name":"L2RequestAlreadyProcessed","inputs":[{"name":"requestHash","type":"bytes32","internalType":"bytes32"}]},{"type":"error","name":"PreviousUpdateMissed","inputs":[{"name":"currentStartRange","type":"uint256","internalType":"uint256"},{"name":"lastProcessedUpdate","type":"uint256","internalType":"uint256"}]},{"type":"error","name":"RequestOutOfRange","inputs":[{"name":"requestId","type":"uint256","internalType":"uint256"},{"name":"start","type":"uint256","internalType":"uint256"},{"name":"end","type":"uint256","internalType":"uint256"}]},{"type":"error","name":"RequestRangeTooLarge","inputs":[{"name":"count","type":"uint256","internalType":"uint256"}]},{"type":"error","name":"UnexpectedMerkleRoot","inputs":[]},{"type":"error","name":"UpdateAlreadyApplied","inputs":[{"name":"currentEndRange","type":"uint256","internalType":"uint256"},{"name":"lastProcessedUpdate","type":"uint256","internalType":"uint256"}]},{"type":"error","name":"WithdrawalAlreadyFerried","inputs":[{"name":"withdrawalHash","type":"bytes32","internalType":"bytes32"}]},{"type":"error","name":"ZeroAdmin","inputs":[]},{"type":"error","name":"ZeroAmount","inputs":[]},{"type":"error","name":"ZeroRecipient","inputs":[]},{"type":"error","name":"ZeroToken","inputs":[]},{"type":"error","name":"ZeroTransferAmount","inputs":[]},{"type":"error","name":"ZeroUpdateRange","inputs":[]},{"type":"error","name":"ZeroUpdater","inputs":[]}],"bytecode":{"object":"0x608060405234801561001057600080fd5b5061390b806100206000396000f3fe60806040526004361061031e5760003560e01c80638456cb59116101ab578063c87c2224116100f7578063db6b524611610095578063dffbdd9f1161006f578063dffbdd9f146105ab578063f26ee9d01461085d578063f9ecd01e146107d1578063ff2bae861461087357600080fd5b8063db6b524614610779578063de70e0b814610811578063df2ebdbb1461084857600080fd5b8063ce2de1bc116100d1578063ce2de1bc146107d1578063d16544f014610509578063d1cb26b41461032a578063d547741f146107f157600080fd5b8063c87c222414610779578063ca9b21ae14610781578063cc8c909f146107b157600080fd5b80639d54f41911610164578063b02c43d01161013e578063b02c43d0146106e6578063b153870614610718578063c2b40ae41461072d578063c763e5a11461074d57600080fd5b80639d54f41914610691578063a217fddf146106b1578063ae46db11146106c657600080fd5b80638456cb591461063c578063890e95ce146106515780638e24e392146103c157806391d1485414610671578063950ac4871461047257806397feb9261461050957600080fd5b80633f4ba83a1161026a5780635c975abb11610223578063676f536b116101fd578063676f536b146103e157806371c54461146105d457806379e041f2146105f95780637fd4f8451461062657600080fd5b80635c975abb14610593578063608fc37a146105ab57806361bc221a146105be57600080fd5b80633f4ba83a146104d257806347e63380146104e757806347e7ef2414610509578063485cc955146105295780634bf5fec3146103815780634f48eedf1461054957600080fd5b80630e2636a3116102d7578063248a9ca3116102b1578063248a9ca31461043457806325afc76a146104725780632f2ff15d1461049257806336568abe146104b257600080fd5b80630e2636a3146103f45780630efe6a8b146103a157806321425ee0146103a157600080fd5b806301ef69661461032a57806301ffc9a71461034c57806303ed49d31461038157806308aba1b2146103a157806308f42d40146103c15780630cac57ab146103e157600080fd5b3661032557005b600080fd5b34801561033657600080fd5b5061034a610345366004613020565b610889565b005b34801561035857600080fd5b5061036c61036736600461307b565b6108d8565b60405190151581526020015b60405180910390f35b34801561038d57600080fd5b5061034a61039c3660046130b7565b61090f565b3480156103ad57600080fd5b5061034a6103bc366004613117565b61094a565b3480156103cd57600080fd5b5061034a6103dc36600461314a565b61098e565b61034a6103ef366004613182565b6109bd565b34801561040057600080fd5b5061041c73111111111111111111111111111111111111111181565b6040516001600160a01b039091168152602001610378565b34801561044057600080fd5b5061046461044f36600461319e565b60009081526065602052604090206001015490565b604051908152602001610378565b34801561047e57600080fd5b5061034a61048d3660046131c9565b6109fd565b34801561049e57600080fd5b5061034a6104ad36600461320c565b610a38565b3480156104be57600080fd5b5061034a6104cd36600461320c565b610a5d565b3480156104de57600080fd5b5061034a610adb565b3480156104f357600080fd5b506104646000805160206138b683398151915281565b34801561051557600080fd5b5061034a610524366004613238565b610af1565b34801561053557600080fd5b5061034a610544366004613262565b610b35565b34801561055557600080fd5b5061057e61056436600461319e565b610101602052600090815260409020805460019091015482565b60408051928352602083019190915201610378565b34801561059f57600080fd5b5060c95460ff1661036c565b61034a6105b936600461319e565b610d02565b3480156105ca57600080fd5b5061046460fb5481565b3480156105e057600080fd5b5060fe5461041c9061010090046001600160a01b031681565b34801561060557600080fd5b5061061961061436600461328c565b610d13565b6040516103789190613356565b34801561063257600080fd5b5061046460fc5481565b34801561064857600080fd5b5061034a61118f565b34801561065d57600080fd5b5061046461066c366004613182565b6111a2565b34801561067d57600080fd5b5061036c61068c36600461320c565b611210565b34801561069d57600080fd5b5061034a6106ac366004613412565b61123b565b3480156106bd57600080fd5b50610464600081565b3480156106d257600080fd5b506104646106e136600461342d565b611305565b3480156106f257600080fd5b5061070661070136600461319e565b611339565b60405161037896959493929190613449565b34801561072457600080fd5b506106196113c1565b34801561073957600080fd5b5061046461074836600461319e565b61140b565b34801561075957600080fd5b5060fe546107679060ff1681565b60405160ff9091168152602001610378565b61034a61142d565b34801561078d57600080fd5b506107a161079c36600461319e565b611441565b604051610378949392919061348b565b3480156107bd57600080fd5b506104646107cc3660046134b4565b6114b3565b3480156107dd57600080fd5b506104646107ec36600461319e565b6114e7565b3480156107fd57600080fd5b5061034a61080c36600461320c565b6114f2565b34801561081d57600080fd5b5061041c61082c36600461319e565b610102602052600090815260409020546001600160a01b031681565b34801561085457600080fd5b5061041c600181565b34801561086957600080fd5b5061046460fd5481565b34801561087f57600080fd5b5061010354610464565b610891611517565b6002609754036108bc5760405162461bcd60e51b81526004016108b3906134d0565b60405180910390fd5b60026097556108cd8484848461155d565b505060016097555050565b60006001600160e01b03198216637965db0b60e01b148061090957506301ffc9a760e01b6001600160e01b03198316145b92915050565b6002609754036109315760405162461bcd60e51b81526004016108b3906134d0565b600260975561093e611517565b6108cd848484846115be565b60026097540361096c5760405162461bcd60e51b81526004016108b3906134d0565b6002609755610979611517565b6109848383836117af565b5050600160975550565b610996611517565b6000805160206138b68339815191526109ae81611982565b6109b8838361198c565b505050565b6002609754036109df5760405162461bcd60e51b81526004016108b3906134d0565b60026097556109ec611517565b6109f581611af5565b506001609755565b600260975403610a1f5760405162461bcd60e51b81526004016108b3906134d0565b6002609755610a2c611517565b6108cd84848484611d6c565b600082815260656020526040902060010154610a5381611982565b6109b88383611d94565b6001600160a01b0381163314610acd5760405162461bcd60e51b815260206004820152602f60248201527f416363657373436f6e74726f6c3a2063616e206f6e6c792072656e6f756e636560448201526e103937b632b9903337b91039b2b63360891b60648201526084016108b3565b610ad78282611e1a565b5050565b6000610ae681611982565b610aee611e81565b50565b600260975403610b135760405162461bcd60e51b81526004016108b3906134d0565b6002609755610b20611517565b610b2c828260006117af565b50506001609755565b600054610100900460ff1615808015610b555750600054600160ff909116105b80610b6f5750303b158015610b6f575060005460ff166001145b610bd25760405162461bcd60e51b815260206004820152602e60248201527f496e697469616c697a61626c653a20636f6e747261637420697320616c72656160448201526d191e481a5b9a5d1a585b1a5e995960921b60648201526084016108b3565b6000805460ff191660011790558015610bf5576000805461ff0019166101001790555b610bfd611ed3565b610c05611ed3565b610c0d611efa565b610c15611f29565b6001600160a01b038316610c3c57604051633944ed8760e11b815260040160405180910390fd5b610c47600084611d94565b6001600160a01b038216610c715760405160016279c35d60e01b0319815260040160405180910390fd5b610c896000805160206138b683398151915283611d94565b60fe8054610100600160a81b0319166101006001600160a01b03851602179055600160fb55600060fc81905560fd5580156109b8576000805461ff0019169055604051600181527f7f26b83ff96e1f2b6a682f133852f6798a09c465da95921460cefb38474024989060200160405180910390a1505050565b610d0a611517565b610aee81611f58565b610d3760405180606001604052806000815260200160608152602001606081525090565b604080516060810182524681528151600080825260208281019094529282019083610dad565b6040805161010081018252600060c0820181815260e0830182905282526020808301829052928201819052606082018190526080820181905260a08201528252600019909201910181610d5d5790505b5081526020016000604051908082528060200260200182016040528015610e1457816020015b6040805160c08101825260006080820181815260a083018290528252602080830182905292820181905260608201528252600019909201910181610dd35790505b509052905083158015610e25575082155b15610e31579050610909565b600080855b858111610eb7576000818152610100602052604090206001015415610e6557610e5e83613533565b9250610eaf565b600081815260ff602052604090206001015415610e8c57610e8582613533565b9150610eaf565b6040516354b4960f60e11b815260048101889052602481018790526044016108b3565b600101610e36565b508167ffffffffffffffff811115610ed157610ed1613507565b604051908082528060200260200182016040528015610f3f57816020015b6040805161010081018252600060c0820181815260e0830182905282526020808301829052928201819052606082018190526080820181905260a08201528252600019909201910181610eef5790505b5060208401528067ffffffffffffffff811115610f5e57610f5e613507565b604051908082528060200260200182016040528015610fbd57816020015b6040805160c08101825260006080820181815260a083018290528252602080830182905292820181905260608201528252600019909201910181610f7c5790505b506040840152506000905080855b8581116111845760008181526101006020526040902060010154156110ba576000818152610100602081905260409182902082519182019092528154909190829060c08201908390829060ff166001811115611029576110296132ae565b600181111561103a5761103a6132ae565b81526001919091015460209182015290825260028301546001600160a01b03908116838301526003840154166040830152600483015460608301526005830154608083015260069092015460a0909101528501518461109881613533565b9550815181106110aa576110aa61354c565b602002602001018190525061117c565b600081815260ff60205260409020600201541561117757600081815260ff6020819052604091829020825160c0810190935280549091839160808301918491839116600181111561110d5761110d6132ae565b600181111561111e5761111e6132ae565b815260019190910154602091820152908252600283015490820152600382015460ff1615156040808301919091526004909201546060909101528501518361116581613533565b9450815181106110aa576110aa61354c565b611184565b600101610fcb565b509195945050505050565b600061119a81611982565b610aee6120ee565b6000806040516020016111b59190613562565b604051602081830303815290604052826040516020016111d591906135a1565b60408051601f19818403018152908290526111f39291602001613626565b604051602081830303815290604052805190602001209050919050565b60009182526065602090815260408084206001600160a01b0393909316845291905290205460ff1690565b600061124681611982565b6001600160a01b0382166112705760405160016279c35d60e01b0319815260040160405180910390fd5b60fe5461129a906000805160206138b68339815191529061010090046001600160a01b0316611e1a565b6112b26000805160206138b683398151915283611d94565b60fe8054610100600160a81b0319166101006001600160a01b038516908102919091179091556040517f1b0f2f500df596b42b73e80dbec6a1fb570f01978a586723f988a5fc54d773a190600090a25050565b600060026040516020016113199190613562565b604051602081830303815290604052826040516020016111d59190613655565b6101006020526000908152604090819020815180830190925280549091908290829060ff16600181111561136f5761136f6132ae565b6001811115611380576113806132ae565b815260019190910154602090910152600282015460038301546004840154600585015460069095015493946001600160a01b03938416949290931692909186565b6113e560405180606001604052806000815260200160608152602001606081525090565b61140660fc5460016113f7919061368d565b600160fb5461061491906136a5565b905090565b610103818154811061141c57600080fd5b600091825260209091200154905081565b611435611517565b61143f6000611f58565b565b60ff602081905260009182526040918290208251808401909352805490929183918391166001811115611476576114766132ae565b6001811115611487576114876132ae565b815260019190910154602090910152600282015460038301546004909301549192909160ff9091169084565b600060016040516020016114c79190613562565b604051602081830303815290604052826040516020016111d591906136bc565b60006109098261212b565b60008281526065602052604090206001015461150d81611982565b6109b88383611e1a565b60c95460ff161561143f5760405162461bcd60e51b815260206004820152601060248201526f14185d5cd8589b194e881c185d5cd95960821b60448201526064016108b3565b6000611568856114b3565b905061157b60208601358286868661222d565b611585858261241e565b60009081526101026020526040902080546001600160a01b03191673111111111111111111111111111111111111111117905550505050565b60006115c9856111a2565b90506115dc60208601358286868661222d565b60008181526101026020526040902080546001600160a01b03198116731111111111111111111111111111111111111111179091556001600160a01b031680156116b05760016116326080880160608901613412565b6001600160a01b0316146116635761165e816116546080890160608a01613412565b8860800135612584565b611671565b611671818760800135612605565b604051828152602080880135917f2996fd546c37d74c170466ea6aa4a308e3ca2d4aa689e6e9e32994db5039cc0e910160405180910390a250506117a9565b60006116c460a088013560808901356136a5565b905060016116d86080890160608a01613412565b6001600160a01b03160361171c576116ff6116f96060890160408a01613412565b82612605565b60a08701351561171757611717338860a00135612605565b61176d565b61174561172f6060890160408a01613412565b61173f60808a0160608b01613412565b83612584565b60a08701351561176d5761176d3361176360808a0160608b01613412565b8960a00135612584565b604051838152602080890135917f935f26d94be31907080aa78b3e6e2ac6d48a072af096c20268388621bbc11789910160405180910390a25050505b50505050565b8181816000036117d257604051631f2a200560e01b815260040160405180910390fd5b818111156117fd5760405163202b316960e21b815260048101829052602481018390526044016108b3565b6001600160a01b0385166118245760405163ad1991f560e01b815260040160405180910390fd5b600033905060006040518060c001604052806118406000612673565b81526001600160a01b03808516602080840191909152908a16604080840191909152606083018a905242608084015260a090920188905282518101516000908152610100909152208151805182549394508493839190829060ff1916600183818111156118af576118af6132ae565b021790555060209182015160019190910155828101516002830180546001600160a01b03199081166001600160a01b039384161790915560408086015160038601805490931690841617909155606085015160048501556080850151600585015560a090940151600690930192909255835181015183518a81529182018990528a8316939286169290917f225305ecb66fa9b9b29f8dead9baea365a6c225d639dfd866e782ccb63e2f05b910160405180910390a46119796001600160a01b0388168330896126c8565b50505050505050565b610aee8133612733565b80356000036119ae576040516369f1cfef60e01b815260040160405180910390fd5b6020810135813511156119e15760405163722fc3f760e11b815281356004820152602082013560248201526044016108b3565b60fd546119f0600183356136a5565b1115611a1d5760fd54604051630650047360e51b81528235600482015260248101919091526044016108b3565b60fd54816020013511611a545760fd546040516350a792b160e01b81526020830135600482015260248101919091526044016108b3565b6101038054600181019091557f02c297ab74aad0aede3a1895c857b1f2c71e6a203feb727bec95ac752998cb78018290556000828152610101602052604090208190611aad828281358155602082013560018201555050565b5050602081013560fd556040517f49c158d490db9e066f01b5d4f1a094485a6598cb6c5296b4c07e46c12a1dc11c90611ae990849084906136f2565b60405180910390a15050565b80608001358160a0013581600003611b2057604051631f2a200560e01b815260040160405180910390fd5b81811115611b4b5760405163202b316960e21b815260048101829052602481018390526044016108b3565b6000611b5d6060850160408601613412565b6001600160a01b031603611b845760405163d27b444360e01b815260040160405180910390fd5b6000611b8f846111a2565b600081815261010260205260409020549091506001600160a01b031615611bcc5760405163fea5945360e01b8152600481018290526024016108b3565b60008181526101026020526040812080546001600160a01b03191633179055611bfd60a086013560808701356136a5565b90506001611c116080870160608801613412565b6001600160a01b031603611cd457803414611c4857604051634ceaf5d360e11b8152346004820152602481018290526044016108b3565b33611c596060870160408801613412565b604080516020808a0135825281018590529081018590526001600160a01b0391909116907f7a9abd9eb86bdbca89cba4069a632c37d93db82e3e14ad8119a3a7812814853e9060600160405180910390a3611ccd81611cbe6060880160408901613412565b6001600160a01b031690612797565b5050505050565b33611ce56060870160408801613412565b604080516020808a0135825281018590529081018590526001600160a01b0391909116907f7a9abd9eb86bdbca89cba4069a632c37d93db82e3e14ad8119a3a7812814853e9060600160405180910390a3611ccd33611d4a6060880160408901613412565b83611d5b60808a0160608b01613412565b6001600160a01b03169291906126c8565b6000611d7785611305565b9050611d8a60208601358286868661222d565b61158585826128b0565b611d9e8282611210565b610ad75760008281526065602090815260408083206001600160a01b03851684529091529020805460ff19166001179055611dd63390565b6001600160a01b0316816001600160a01b0316837f2f8788117e7eff1d82e926ec794901d17c78024a50270940304540a733656f0d60405160405180910390a45050565b611e248282611210565b15610ad75760008281526065602090815260408083206001600160a01b0385168085529252808320805460ff1916905551339285917ff6391f5c32d9c69d2a47ea670b442974b53935d1edc7fd64eb21e047a839171b9190a45050565b611e8961299e565b60c9805460ff191690557f5db9ee0a495bf2e6ff9c91a7834c1ba4fdd244a5e8aa4e537bd38aeae4b073aa335b6040516001600160a01b03909116815260200160405180910390a1565b600054610100900460ff1661143f5760405162461bcd60e51b81526004016108b390613710565b600054610100900460ff16611f215760405162461bcd60e51b81526004016108b390613710565b61143f6129e7565b600054610100900460ff16611f505760405162461bcd60e51b81526004016108b390613710565b61143f612a1a565b348181600003611f7b57604051631f2a200560e01b815260040160405180910390fd5b81811115611fa65760405163202b316960e21b815260048101829052602481018390526044016108b3565b60006040518060c00160405280611fbd6000612673565b8152336020808301919091526001604080840182905234606085015242608085015260a0909301889052835182015160009081526101009092529190208251805182549495508594929391928492839160ff1916908381811115612023576120236132ae565b0217905550602091820151600191820155908301516002830180546001600160a01b039283166001600160a01b0319918216179091556040850151600385018054919093169116179055606083015160048301556080830151600583015560a0909201516006909101556120943390565b6001600160a01b03168260000151602001517f225305ecb66fa9b9b29f8dead9baea365a6c225d639dfd866e782ccb63e2f05b34886040516120e0929190918252602082015260400190565b60405180910390a450505050565b6120f6611517565b60c9805460ff191660011790557f62e78cea01bee320cd4e420270b5ea74000d11b0c9f74754ebdbfc544b05a258611eb63390565b600060fd54821115612153576040516364b4f07960e11b8152600481018390526024016108b3565b610103546000905b80821015612214576000600261217184846136a5565b61217b9190613771565b612185908461368d565b90506000610103828154811061219d5761219d61354c565b60009182526020808320909101548083526101018252604092839020835180850190945280548085526001909101549284019290925292508710156121e45782935061220c565b8060200151871115612202576121fb83600161368d565b945061220c565b5095945050505050565b50505061215b565b604051632785786f60e21b815260040160405180910390fd5b600084815261010260205260409020546001600160a01b0316731111111111111111111111111111111111111110190161227d5760405163e99711f160e01b8152600481018590526024016108b3565b60008381526101016020908152604091829020825180840190935280548084526001909101549183019190915215806122b857506020810151155b156122d6576040516339075ba160e21b815260040160405180910390fd5b80516020820151101561230c57805160208201516040516354b4960f60e11b8152600481019290925260248201526044016108b3565b805186108061231e5750806020015186115b156123535780516020820151604051634d346e8960e01b815260048101899052602481019290925260448201526064016108b3565b80516020820151600091612366916136a5565b61237190600161368d565b905063ffffffff81111561239b57604051632095a53d60e21b8152600481018290526024016108b3565b81516000906123aa90896136a5565b905060006123ee8883888880806020026020016040519081016040528093929190818152602001838360200280828437600092019190915250899250612a48915050565b90508087146124135760405163f6ae8d5360e01b8152600481018890526024016108b3565b505050505050505050565b6000600160fb5461242f91906136a5565b606084013511156124425750600161248a565b600061245660408501356060860135610d13565b9050806040516020016124699190613356565b60405160208183030381529060405280519060200120846080013514159150505b600060405180608001604052806124a16000612673565b815260208681013581830152841515604080840191909152426060909301929092528251810151600090815260ff909152208151805182549394508493839190829060ff1916600183818111156124fa576124fa6132ae565b02179055506020918201516001919091015582810151600283015560408084015160038401805460ff1916911515919091179055606090930151600490920191909155828101518383015183519015158152918201869052917f9ef11353afd97d339a77732850b7c22704656558d9ba63cc7e321e0ac4c20aa9910160405180910390a250505050565b806000036125a5576040516329c5442960e01b815260040160405180910390fd5b816001600160a01b0316836001600160a01b03167ee763f7778b8ceef7270c89b7d1df1008b0e482da39c43831417733af96fb0d836040516125e991815260200190565b60405180910390a36109b86001600160a01b0383168483612a96565b80600003612626576040516329c5442960e01b815260040160405180910390fd5b816001600160a01b03167fe0495355c1e04c512584521854d222d239a4b782b39ac8a7e835a34f5ec7c1e18260405161266191815260200190565b60405180910390a2610ad78282612797565b604080518082019091526000808252602082015260405180604001604052808360018111156126a4576126a46132ae565b815260200160fb60008154809291906126bc90613533565b90915550905292915050565b6040516001600160a01b03808516602483015283166044820152606481018290526117a99085906323b872dd60e01b906084015b60408051601f198184030181529190526020810180516001600160e01b03166001600160e01b031990931692909217909152612ac6565b61273d8282611210565b610ad757612755816001600160a01b03166014612b98565b612760836020612b98565b604051602001612771929190613785565b60408051601f198184030181529082905262461bcd60e51b82526108b3916004016137fa565b804710156127e75760405162461bcd60e51b815260206004820152601d60248201527f416464726573733a20696e73756666696369656e742062616c616e636500000060448201526064016108b3565b6000826001600160a01b03168260405160006040518083038185875af1925050503d8060008114612834576040519150601f19603f3d011682016040523d82523d6000602084013e612839565b606091505b50509050806109b85760405162461bcd60e51b815260206004820152603a60248201527f416464726573733a20756e61626c6520746f2073656e642076616c75652c207260448201527f6563697069656e74206d6179206861766520726576657274656400000000000060648201526084016108b3565b6040808301356000908152610100602052908120600281015490916001600160a01b03909116906128e76080860160608701613412565b6001600160a01b031614612908576129056080850160608601613412565b90505b60038201546001600160a01b0316600114612943576003820154600483015461293e9183916001600160a01b0390911690612584565b612951565b612951818360040154612605565b60408051602086810135825286830135908201529081018490527f13750c731f87c15242874ce74bf4649502cc8e7c829067ce846505acdb96289d9060600160405180910390a150505050565b60c95460ff1661143f5760405162461bcd60e51b815260206004820152601460248201527314185d5cd8589b194e881b9bdd081c185d5cd95960621b60448201526064016108b3565b600054610100900460ff16612a0e5760405162461bcd60e51b81526004016108b390613710565b60c9805460ff19169055565b600054610100900460ff16612a415760405162461bcd60e51b81526004016108b390613710565b6001609755565b600080825b8015612a7257612a5e600282613771565b9050612a6b60018361368d565b9150612a4d565b612a8b828789886000612a8660018b6136a5565b612d3b565b979650505050505050565b6040516001600160a01b0383166024820152604481018290526109b890849063a9059cbb60e01b906064016126fc565b6000612b1b826040518060400160405280602081526020017f5361666545524332303a206c6f772d6c6576656c2063616c6c206661696c6564815250856001600160a01b0316612e4b9092919063ffffffff16565b8051909150156109b85780806020019051810190612b39919061382d565b6109b85760405162461bcd60e51b815260206004820152602a60248201527f5361666545524332303a204552433230206f7065726174696f6e20646964206e6044820152691bdd081cdd58d8d9595960b21b60648201526084016108b3565b60606000612ba783600261384f565b612bb290600261368d565b67ffffffffffffffff811115612bca57612bca613507565b6040519080825280601f01601f191660200182016040528015612bf4576020820181803683370190505b509050600360fc1b81600081518110612c0f57612c0f61354c565b60200101906001600160f81b031916908160001a905350600f60fb1b81600181518110612c3e57612c3e61354c565b60200101906001600160f81b031916908160001a9053506000612c6284600261384f565b612c6d90600161368d565b90505b6001811115612ce5576f181899199a1a9b1b9c1cb0b131b232b360811b85600f1660108110612ca157612ca161354c565b1a60f81b828281518110612cb757612cb761354c565b60200101906001600160f81b031916908160001a90535060049490941c93612cde8161386e565b9050612c70565b508315612d345760405162461bcd60e51b815260206004820181905260248201527f537472696e67733a20686578206c656e67746820696e73756666696369656e7460448201526064016108b3565b9392505050565b6000612d48600287613885565b600003612db357858214612e0c57848484612d6281613533565b955081518110612d7457612d7461354c565b6020026020010151604051602001612d96929190918252602082015260400190565b604051602081830303815290604052805190602001209450612e0c565b8383612dbe81613533565b945081518110612dd057612dd061354c565b602002602001015185604051602001612df3929190918252602082015260400190565b6040516020818303038152906040528051906020012094505b86600114612e4057612e3b612e226001896136a5565b612e2d600289613771565b878787612a86600289613771565b612a8b565b509295945050505050565b6060612e5a8484600085612e62565b949350505050565b606082471015612ec35760405162461bcd60e51b815260206004820152602660248201527f416464726573733a20696e73756666696369656e742062616c616e636520666f6044820152651c8818d85b1b60d21b60648201526084016108b3565b6001600160a01b0385163b612f1a5760405162461bcd60e51b815260206004820152601d60248201527f416464726573733a2063616c6c20746f206e6f6e2d636f6e747261637400000060448201526064016108b3565b600080866001600160a01b03168587604051612f369190613899565b60006040518083038185875af1925050503d8060008114612f73576040519150601f19603f3d011682016040523d82523d6000602084013e612f78565b606091505b5091509150612a8b82828660608315612f92575081612d34565b825115612fa25782518084602001fd5b8160405162461bcd60e51b81526004016108b391906137fa565b600060a08284031215612fce57600080fd5b50919050565b60008083601f840112612fe657600080fd5b50813567ffffffffffffffff811115612ffe57600080fd5b6020830191508360208260051b850101111561301957600080fd5b9250929050565b60008060008060e0858703121561303657600080fd5b6130408686612fbc565b935060a0850135925060c085013567ffffffffffffffff81111561306357600080fd5b61306f87828801612fd4565b95989497509550505050565b60006020828403121561308d57600080fd5b81356001600160e01b031981168114612d3457600080fd5b600060c08284031215612fce57600080fd5b60008060008061010085870312156130ce57600080fd5b6130d886866130a5565b935060c0850135925060e085013567ffffffffffffffff81111561306357600080fd5b80356001600160a01b038116811461311257600080fd5b919050565b60008060006060848603121561312c57600080fd5b613135846130fb565b95602085013595506040909401359392505050565b600080828403606081121561315e57600080fd5b833592506040601f198201121561317457600080fd5b506020830190509250929050565b600060c0828403121561319457600080fd5b612d3483836130a5565b6000602082840312156131b057600080fd5b5035919050565b600060808284031215612fce57600080fd5b60008060008060c085870312156131df57600080fd5b6131e986866131b7565b93506080850135925060a085013567ffffffffffffffff81111561306357600080fd5b6000806040838503121561321f57600080fd5b8235915061322f602084016130fb565b90509250929050565b6000806040838503121561324b57600080fd5b613254836130fb565b946020939093013593505050565b6000806040838503121561327557600080fd5b61327e836130fb565b915061322f602084016130fb565b6000806040838503121561329f57600080fd5b50508035926020909101359150565b634e487b7160e01b600052602160045260246000fd5b600281106132d4576132d46132ae565b9052565b6132e38282516132c4565b602090810151910152565b600081518084526020808501945080840160005b8381101561334b5781516133178882516132d8565b8084015160408981019190915281015115156060808a01919091520151608088015260a09096019590820190600101613302565b509495945050505050565b6000602080835260808084018551838601528286015160606040818189015283835180865260a09550858a019150878501945060005b818110156133e75785516133a18482516132d8565b808a01516001600160a01b03908116858701528582015116868501528581015189850152888101518885015287015160c08401529488019460e09092019160010161338c565b505089820151898203601f1901848b0152965061340481886132ee565b9a9950505050505050505050565b60006020828403121561342457600080fd5b612d34826130fb565b60006080828403121561343f57600080fd5b612d3483836131b7565b60e0810161345782896132d8565b6001600160a01b039687166040830152949095166060860152608085019290925260a084015260c090920191909152919050565b60a0810161349982876132d8565b60408201949094529115156060830152608090910152919050565b600060a082840312156134c657600080fd5b612d348383612fbc565b6020808252601f908201527f5265656e7472616e637947756172643a207265656e7472616e742063616c6c00604082015260600190565b634e487b7160e01b600052604160045260246000fd5b634e487b7160e01b600052601160045260246000fd5b6000600182016135455761354561351d565b5060010190565b634e487b7160e01b600052603260045260246000fd5b6020810160038310613576576135766132ae565b91905290565b80356002811061358b57600080fd5b61359583826132c4565b50602090810135910152565b60c081016135af828461357c565b6135bb604084016130fb565b6001600160a01b038181166040850152806135d8606087016130fb565b16606085015250506080830135608083015260a083013560a083015292915050565b60005b838110156136155781810151838201526020016135fd565b838111156117a95750506000910152565b600083516136388184602088016135fa565b83519083019061364c8183602088016135fa565b01949350505050565b60808101613663828461357c565b604083810135908301526001600160a01b03613681606085016130fb565b16606083015292915050565b600082198211156136a0576136a061351d565b500190565b6000828210156136b7576136b761351d565b500390565b60a081016136ca828461357c565b6136e4604083016040850180358252602090810135910152565b608092830135919092015290565b82815260608101612d34602083018480358252602090810135910152565b6020808252602b908201527f496e697469616c697a61626c653a20636f6e7472616374206973206e6f74206960408201526a6e697469616c697a696e6760a81b606082015260800190565b634e487b7160e01b600052601260045260246000fd5b6000826137805761378061375b565b500490565b7f416363657373436f6e74726f6c3a206163636f756e74200000000000000000008152600083516137bd8160178501602088016135fa565b7001034b99036b4b9b9b4b733903937b6329607d1b60179184019182015283516137ee8160288401602088016135fa565b01602801949350505050565b60208152600082518060208401526138198160408501602087016135fa565b601f01601f19169190910160400192915050565b60006020828403121561383f57600080fd5b81518015158114612d3457600080fd5b60008160001904831182151516156138695761386961351d565b500290565b60008161387d5761387d61351d565b506000190190565b6000826138945761389461375b565b500690565b600082516138ab8184602087016135fa565b919091019291505056fe73e573f9566d61418a34d5de3ff49360f9c51fec37f7486551670290f6285daba2646970667358221220906b9a7753f4f97b5863da1e688f9ad1e3fd42050dd8d77e01b2e3ff6d0722a664736f6c634300080d0033","linkReferences":{}},"methodIdentifiers":{"CLOSED()":"0e2636a3","DEFAULT_ADMIN_ROLE()":"a217fddf","NATIVE_TOKEN_ADDRESS()":"df2ebdbb","UPDATER_ROLE()":"47e63380","cancelResolutions(uint256)":"ca9b21ae","chain()":"c763e5a1","closeCancel(((uint8,uint256),(uint256,uint256),bytes32),bytes32,bytes32[])":"d1cb26b4","closeDepositRefund(((uint8,uint256),uint256,address),bytes32,bytes32[])":"25afc76a","closeWithdrawal(((uint8,uint256),address,address,uint256,uint256),bytes32,bytes32[])":"03ed49d3","close_cancel(((uint8,uint256),(uint256,uint256),bytes32),bytes32,bytes32[])":"01ef6966","close_deposit_refund(((uint8,uint256),uint256,address),bytes32,bytes32[])":"950ac487","close_withdrawal(((uint8,uint256),address,address,uint256,uint256),bytes32,bytes32[])":"4bf5fec3","counter()":"61bc221a","deposit(address,uint256)":"47e7ef24","deposit(address,uint256,uint256)":"0efe6a8b","depositERC20(address,uint256)":"97feb926","depositERC20(address,uint256,uint256)":"21425ee0","depositNative()":"db6b5246","depositNative(uint256)":"608fc37a","deposit_erc20(address,uint256)":"d16544f0","deposit_erc20(address,uint256,uint256)":"08aba1b2","deposit_native()":"c87c2224","deposit_native(uint256)":"dffbdd9f","deposits(uint256)":"b02c43d0","ferryWithdrawal(((uint8,uint256),address,address,uint256,uint256))":"676f536b","ferry_withdrawal(((uint8,uint256),address,address,uint256,uint256))":"0cac57ab","findL2Batch(uint256)":"ce2de1bc","find_l2_batch(uint256)":"f9ecd01e","getMerkleRootsLength()":"ff2bae86","getPendingRequests(uint256,uint256)":"79e041f2","getRoleAdmin(bytes32)":"248a9ca3","getUpdateForL2()":"b1538706","grantRole(bytes32,address)":"2f2ff15d","hasRole(bytes32,address)":"91d14854","hashCancel(((uint8,uint256),(uint256,uint256),bytes32))":"cc8c909f","hashFailedDepositResolution(((uint8,uint256),uint256,address))":"ae46db11","hashWithdrawal(((uint8,uint256),address,address,uint256,uint256))":"890e95ce","initialize(address,address)":"485cc955","lastProcessedUpdate_origin_l1()":"7fd4f845","lastProcessedUpdate_origin_l2()":"f26ee9d0","merkleRootRange(bytes32)":"4f48eedf","pause()":"8456cb59","paused()":"5c975abb","processedL2Requests(bytes32)":"de70e0b8","renounceRole(bytes32,address)":"36568abe","revokeRole(bytes32,address)":"d547741f","roots(uint256)":"c2b40ae4","setUpdater(address)":"9d54f419","supportsInterface(bytes4)":"01ffc9a7","unpause()":"3f4ba83a","updateL1FromL2(bytes32,(uint256,uint256))":"8e24e392","update_l1_from_l2(bytes32,(uint256,uint256))":"08f42d40","updaterAccount()":"71c54461"},"id":148}