{
  "abi": [
    {
      "anonymous": false,
      "inputs": [
        {
          "indexed": false,
          "internalType": "uint256",
          "name": "requestId",
          "type": "uint256"
        },
        {
          "indexed": false,
          "internalType": "address",
          "name": "depositRecipient",
          "type": "address"
        },
        {
          "indexed": false,
          "internalType": "address",
          "name": "tokenAddress",
          "type": "address"
        },
        {
          "indexed": false,
          "internalType": "uint256",
          "name": "amount",
          "type": "uint256"
        },
        {
          "indexed": false,
          "internalType": "uint256",
          "name": "ferryTip",
          "type": "uint256"
        }
      ],
      "name": "DepositAcceptedIntoQueue",
      "type": "event"
    },
    {
      "anonymous": false,
      "inputs": [
        {
          "indexed": false,
          "internalType": "uint256",
          "name": "requestId",
          "type": "uint256"
        },
        {
          "indexed": false,
          "internalType": "bool",
          "name": "cancelJustified",
          "type": "bool"
        }
      ],
      "name": "DisputeResolutionAcceptedIntoQueue",
      "type": "event"
    },
    {
      "anonymous": false,
      "inputs": [
        {
          "indexed": false,
          "internalType": "address",
          "name": "sender",
          "type": "address"
        },
        {
          "indexed": false,
          "internalType": "address",
          "name": "token_address",
          "type": "address"
        },
        {
          "indexed": false,
          "internalType": "uint256",
          "name": "amount",
          "type": "uint256"
        }
      ],
      "name": "ERC20TokensWithdrawn",
      "type": "event"
    },
    {
      "anonymous": false,
      "inputs": [
        {
          "indexed": false,
          "internalType": "uint256",
          "name": "requestId",
          "type": "uint256"
        },
        {
          "indexed": false,
          "internalType": "uint256",
          "name": "originDepositId",
          "type": "uint256"
        },
        {
          "indexed": false,
          "internalType": "bytes32",
          "name": "failedDespotiResolutionHash",
          "type": "bytes32"
        }
      ],
      "name": "FailedDepositResolutionClosed",
      "type": "event"
    },
    {
      "anonymous": false,
      "inputs": [
        {
          "indexed": false,
          "internalType": "uint256",
          "name": "requestId",
          "type": "uint256"
        },
        {
          "indexed": false,
          "internalType": "bytes32",
          "name": "withdrawalHash",
          "type": "bytes32"
        }
      ],
      "name": "FerriedWithdrawalClosed",
      "type": "event"
    },
    {
      "anonymous": false,
      "inputs": [
        {
          "indexed": false,
          "internalType": "uint8",
          "name": "version",
          "type": "uint8"
        }
      ],
      "name": "Initialized",
      "type": "event"
    },
    {
      "anonymous": false,
      "inputs": [
        {
          "indexed": false,
          "internalType": "bytes32",
          "name": "root",
          "type": "bytes32"
        },
        {
          "components": [
            {
              "internalType": "uint256",
              "name": "start",
              "type": "uint256"
            },
            {
              "internalType": "uint256",
              "name": "end",
              "type": "uint256"
            }
          ],
          "indexed": false,
          "internalType": "struct IRolldownPrimitives.Range",
          "name": "range",
          "type": "tuple"
        }
      ],
      "name": "L2UpdateAccepted",
      "type": "event"
    },
    {
      "anonymous": false,
      "inputs": [
        {
          "indexed": false,
          "internalType": "address",
          "name": "sender",
          "type": "address"
        },
        {
          "indexed": false,
          "internalType": "uint256",
          "name": "amount",
          "type": "uint256"
        }
      ],
      "name": "NativeTokensWithdrawn",
      "type": "event"
    },
    {
      "anonymous": false,
      "inputs": [
        {
          "indexed": false,
          "internalType": "address",
          "name": "updater",
          "type": "address"
        }
      ],
      "name": "NewUpdaterSet",
      "type": "event"
    },
    {
      "anonymous": false,
      "inputs": [
        {
          "indexed": true,
          "internalType": "address",
          "name": "previousOwner",
          "type": "address"
        },
        {
          "indexed": true,
          "internalType": "address",
          "name": "newOwner",
          "type": "address"
        }
      ],
      "name": "OwnershipTransferred",
      "type": "event"
    },
    {
      "anonymous": false,
      "inputs": [
        {
          "indexed": true,
          "internalType": "address",
          "name": "account",
          "type": "address"
        },
        {
          "indexed": false,
          "internalType": "uint256",
          "name": "newPausedStatus",
          "type": "uint256"
        }
      ],
      "name": "Paused",
      "type": "event"
    },
    {
      "anonymous": false,
      "inputs": [
        {
          "indexed": false,
          "internalType": "contract IPauserRegistry",
          "name": "pauserRegistry",
          "type": "address"
        },
        {
          "indexed": false,
          "internalType": "contract IPauserRegistry",
          "name": "newPauserRegistry",
          "type": "address"
        }
      ],
      "name": "PauserRegistrySet",
      "type": "event"
    },
    {
      "anonymous": false,
      "inputs": [
        {
          "indexed": true,
          "internalType": "address",
          "name": "account",
          "type": "address"
        },
        {
          "indexed": false,
          "internalType": "uint256",
          "name": "newPausedStatus",
          "type": "uint256"
        }
      ],
      "name": "Unpaused",
      "type": "event"
    },
    {
      "anonymous": false,
      "inputs": [
        {
          "indexed": false,
          "internalType": "uint256",
          "name": "requestId",
          "type": "uint256"
        },
        {
          "indexed": false,
          "internalType": "bytes32",
          "name": "withdrawalHash",
          "type": "bytes32"
        }
      ],
      "name": "WithdrawalClosed",
      "type": "event"
    },
    {
      "anonymous": false,
      "inputs": [
        {
          "indexed": false,
          "internalType": "uint256",
          "name": "requestId",
          "type": "uint256"
        },
        {
          "indexed": false,
          "internalType": "uint256",
          "name": "amount",
          "type": "uint256"
        },
        {
          "indexed": false,
          "internalType": "address",
          "name": "recipient",
          "type": "address"
        },
        {
          "indexed": false,
          "internalType": "address",
          "name": "ferry",
          "type": "address"
        },
        {
          "indexed": false,
          "internalType": "bytes32",
          "name": "withdrawalHash",
          "type": "bytes32"
        }
      ],
      "name": "WithdrawalFerried",
      "type": "event"
    },
    {
      "inputs": [],
      "name": "CLOSED",
      "outputs": [
        {
          "internalType": "address",
          "name": "",
          "type": "address"
        }
      ],
      "stateMutability": "view",
      "type": "function"
    },
    {
      "inputs": [],
      "name": "NATIVE_TOKEN_ADDRESS",
      "outputs": [
        {
          "internalType": "address",
          "name": "",
          "type": "address"
        }
      ],
      "stateMutability": "view",
      "type": "function"
    },
    {
      "inputs": [
        {
          "internalType": "bytes32",
          "name": "leave_hash",
          "type": "bytes32"
        },
        {
          "internalType": "uint32",
          "name": "leave_idx",
          "type": "uint32"
        },
        {
          "internalType": "bytes32[]",
          "name": "proof",
          "type": "bytes32[]"
        },
        {
          "internalType": "uint32",
          "name": "leaves_count",
          "type": "uint32"
        }
      ],
      "name": "calculate_root",
      "outputs": [
        {
          "internalType": "bytes32",
          "name": "",
          "type": "bytes32"
        }
      ],
      "stateMutability": "pure",
      "type": "function"
    },
    {
      "inputs": [
        {
          "internalType": "uint32",
          "name": "level",
          "type": "uint32"
        },
        {
          "internalType": "uint32",
          "name": "pos",
          "type": "uint32"
        },
        {
          "internalType": "bytes32",
          "name": "hash",
          "type": "bytes32"
        },
        {
          "internalType": "bytes32[]",
          "name": "proofs",
          "type": "bytes32[]"
        },
        {
          "internalType": "uint32",
          "name": "proof_idx",
          "type": "uint32"
        },
        {
          "internalType": "uint32",
          "name": "max_index",
          "type": "uint32"
        }
      ],
      "name": "calculate_root_impl",
      "outputs": [
        {
          "internalType": "bytes32",
          "name": "",
          "type": "bytes32"
        }
      ],
      "stateMutability": "pure",
      "type": "function"
    },
    {
      "inputs": [
        {
          "internalType": "uint256",
          "name": "",
          "type": "uint256"
        }
      ],
      "name": "cancelResolutions",
      "outputs": [
        {
          "components": [
            {
              "internalType": "enum IRolldownPrimitives.Origin",
              "name": "origin",
              "type": "uint8"
            },
            {
              "internalType": "uint256",
              "name": "id",
              "type": "uint256"
            }
          ],
          "internalType": "struct IRolldownPrimitives.RequestId",
          "name": "requestId",
          "type": "tuple"
        },
        {
          "internalType": "uint256",
          "name": "l2RequestId",
          "type": "uint256"
        },
        {
          "internalType": "bool",
          "name": "cancelJustified",
          "type": "bool"
        },
        {
          "internalType": "uint256",
          "name": "timeStamp",
          "type": "uint256"
        }
      ],
      "stateMutability": "view",
      "type": "function"
    },
    {
      "inputs": [],
      "name": "chain",
      "outputs": [
        {
          "internalType": "enum IRolldownPrimitives.ChainId",
          "name": "",
          "type": "uint8"
        }
      ],
      "stateMutability": "view",
      "type": "function"
    },
    {
      "inputs": [
        {
          "components": [
            {
              "components": [
                {
                  "internalType": "enum IRolldownPrimitives.Origin",
                  "name": "origin",
                  "type": "uint8"
                },
                {
                  "internalType": "uint256",
                  "name": "id",
                  "type": "uint256"
                }
              ],
              "internalType": "struct IRolldownPrimitives.RequestId",
              "name": "requestId",
              "type": "tuple"
            },
            {
              "components": [
                {
                  "internalType": "uint256",
                  "name": "start",
                  "type": "uint256"
                },
                {
                  "internalType": "uint256",
                  "name": "end",
                  "type": "uint256"
                }
              ],
              "internalType": "struct IRolldownPrimitives.Range",
              "name": "range",
              "type": "tuple"
            },
            {
              "internalType": "bytes32",
              "name": "hash",
              "type": "bytes32"
            }
          ],
          "internalType": "struct IRolldownPrimitives.Cancel",
          "name": "cancel",
          "type": "tuple"
        },
        {
          "internalType": "bytes32",
          "name": "merkle_root",
          "type": "bytes32"
        },
        {
          "internalType": "bytes32[]",
          "name": "proof",
          "type": "bytes32[]"
        }
      ],
      "name": "close_cancel",
      "outputs": [],
      "stateMutability": "nonpayable",
      "type": "function"
    },
    {
      "inputs": [
        {
          "components": [
            {
              "components": [
                {
                  "internalType": "enum IRolldownPrimitives.Origin",
                  "name": "origin",
                  "type": "uint8"
                },
                {
                  "internalType": "uint256",
                  "name": "id",
                  "type": "uint256"
                }
              ],
              "internalType": "struct IRolldownPrimitives.RequestId",
              "name": "requestId",
              "type": "tuple"
            },
            {
              "internalType": "uint256",
              "name": "originRequestId",
              "type": "uint256"
            },
            {
              "internalType": "address",
              "name": "ferry",
              "type": "address"
            }
          ],
          "internalType": "struct IRolldownPrimitives.FailedDepositResolution",
          "name": "failedDeposit",
          "type": "tuple"
        },
        {
          "internalType": "bytes32",
          "name": "merkle_root",
          "type": "bytes32"
        },
        {
          "internalType": "bytes32[]",
          "name": "proof",
          "type": "bytes32[]"
        }
      ],
      "name": "close_deposit_refund",
      "outputs": [],
      "stateMutability": "nonpayable",
      "type": "function"
    },
    {
      "inputs": [
        {
          "components": [
            {
              "components": [
                {
                  "internalType": "enum IRolldownPrimitives.Origin",
                  "name": "origin",
                  "type": "uint8"
                },
                {
                  "internalType": "uint256",
                  "name": "id",
                  "type": "uint256"
                }
              ],
              "internalType": "struct IRolldownPrimitives.RequestId",
              "name": "requestId",
              "type": "tuple"
            },
            {
              "internalType": "address",
              "name": "recipient",
              "type": "address"
            },
            {
              "internalType": "address",
              "name": "tokenAddress",
              "type": "address"
            },
            {
              "internalType": "uint256",
              "name": "amount",
              "type": "uint256"
            },
            {
              "internalType": "uint256",
              "name": "ferryTip",
              "type": "uint256"
            }
          ],
          "internalType": "struct IRolldownPrimitives.Withdrawal",
          "name": "withdrawal",
          "type": "tuple"
        },
        {
          "internalType": "bytes32",
          "name": "merkle_root",
          "type": "bytes32"
        },
        {
          "internalType": "bytes32[]",
          "name": "proof",
          "type": "bytes32[]"
        }
      ],
      "name": "close_withdrawal",
      "outputs": [],
      "stateMutability": "nonpayable",
      "type": "function"
    },
    {
      "inputs": [],
      "name": "counter",
      "outputs": [
        {
          "internalType": "uint256",
          "name": "",
          "type": "uint256"
        }
      ],
      "stateMutability": "view",
      "type": "function"
    },
    {
      "inputs": [
        {
          "internalType": "address",
          "name": "tokenAddress",
          "type": "address"
        },
        {
          "internalType": "uint256",
          "name": "amount",
          "type": "uint256"
        },
        {
          "internalType": "uint256",
          "name": "ferryTip",
          "type": "uint256"
        }
      ],
      "name": "deposit",
      "outputs": [],
      "stateMutability": "nonpayable",
      "type": "function"
    },
    {
      "inputs": [
        {
          "internalType": "address",
          "name": "tokenAddress",
          "type": "address"
        },
        {
          "internalType": "uint256",
          "name": "amount",
          "type": "uint256"
        }
      ],
      "name": "deposit",
      "outputs": [],
      "stateMutability": "nonpayable",
      "type": "function"
    },
    {
      "inputs": [
        {
          "internalType": "address",
          "name": "tokenAddress",
          "type": "address"
        },
        {
          "internalType": "uint256",
          "name": "amount",
          "type": "uint256"
        },
        {
          "internalType": "uint256",
          "name": "ferryTip",
          "type": "uint256"
        }
      ],
      "name": "deposit_erc20",
      "outputs": [],
      "stateMutability": "nonpayable",
      "type": "function"
    },
    {
      "inputs": [
        {
          "internalType": "address",
          "name": "tokenAddress",
          "type": "address"
        },
        {
          "internalType": "uint256",
          "name": "amount",
          "type": "uint256"
        }
      ],
      "name": "deposit_erc20",
      "outputs": [],
      "stateMutability": "nonpayable",
      "type": "function"
    },
    {
      "inputs": [],
      "name": "deposit_native",
      "outputs": [],
      "stateMutability": "payable",
      "type": "function"
    },
    {
      "inputs": [
        {
          "internalType": "uint256",
          "name": "ferryTip",
          "type": "uint256"
        }
      ],
      "name": "deposit_native",
      "outputs": [],
      "stateMutability": "payable",
      "type": "function"
    },
    {
      "inputs": [
        {
          "internalType": "uint256",
          "name": "",
          "type": "uint256"
        }
      ],
      "name": "deposits",
      "outputs": [
        {
          "components": [
            {
              "internalType": "enum IRolldownPrimitives.Origin",
              "name": "origin",
              "type": "uint8"
            },
            {
              "internalType": "uint256",
              "name": "id",
              "type": "uint256"
            }
          ],
          "internalType": "struct IRolldownPrimitives.RequestId",
          "name": "requestId",
          "type": "tuple"
        },
        {
          "internalType": "address",
          "name": "depositRecipient",
          "type": "address"
        },
        {
          "internalType": "address",
          "name": "tokenAddress",
          "type": "address"
        },
        {
          "internalType": "uint256",
          "name": "amount",
          "type": "uint256"
        },
        {
          "internalType": "uint256",
          "name": "timeStamp",
          "type": "uint256"
        },
        {
          "internalType": "uint256",
          "name": "ferryTip",
          "type": "uint256"
        }
      ],
      "stateMutability": "view",
      "type": "function"
    },
    {
      "inputs": [
        {
          "components": [
            {
              "components": [
                {
                  "internalType": "enum IRolldownPrimitives.Origin",
                  "name": "origin",
                  "type": "uint8"
                },
                {
                  "internalType": "uint256",
                  "name": "id",
                  "type": "uint256"
                }
              ],
              "internalType": "struct IRolldownPrimitives.RequestId",
              "name": "requestId",
              "type": "tuple"
            },
            {
              "internalType": "address",
              "name": "recipient",
              "type": "address"
            },
            {
              "internalType": "address",
              "name": "tokenAddress",
              "type": "address"
            },
            {
              "internalType": "uint256",
              "name": "amount",
              "type": "uint256"
            },
            {
              "internalType": "uint256",
              "name": "ferryTip",
              "type": "uint256"
            }
          ],
          "internalType": "struct IRolldownPrimitives.Withdrawal",
          "name": "withdrawal",
          "type": "tuple"
        }
      ],
      "name": "ferry_withdrawal",
      "outputs": [],
      "stateMutability": "payable",
      "type": "function"
    },
    {
      "inputs": [
        {
          "internalType": "uint256",
          "name": "requestId",
          "type": "uint256"
        }
      ],
      "name": "find_l2_batch",
      "outputs": [
        {
          "components": [
            {
              "internalType": "uint256",
              "name": "start",
              "type": "uint256"
            },
            {
              "internalType": "uint256",
              "name": "end",
              "type": "uint256"
            }
          ],
          "internalType": "struct IRolldownPrimitives.Range",
          "name": "",
          "type": "tuple"
        }
      ],
      "stateMutability": "view",
      "type": "function"
    },
    {
      "inputs": [
        {
          "internalType": "uint256",
          "name": "start",
          "type": "uint256"
        },
        {
          "internalType": "uint256",
          "name": "end",
          "type": "uint256"
        }
      ],
      "name": "getPendingRequests",
      "outputs": [
        {
          "components": [
            {
              "internalType": "enum IRolldownPrimitives.ChainId",
              "name": "chain",
              "type": "uint8"
            },
            {
              "components": [
                {
                  "components": [
                    {
                      "internalType": "enum IRolldownPrimitives.Origin",
                      "name": "origin",
                      "type": "uint8"
                    },
                    {
                      "internalType": "uint256",
                      "name": "id",
                      "type": "uint256"
                    }
                  ],
                  "internalType": "struct IRolldownPrimitives.RequestId",
                  "name": "requestId",
                  "type": "tuple"
                },
                {
                  "internalType": "address",
                  "name": "depositRecipient",
                  "type": "address"
                },
                {
                  "internalType": "address",
                  "name": "tokenAddress",
                  "type": "address"
                },
                {
                  "internalType": "uint256",
                  "name": "amount",
                  "type": "uint256"
                },
                {
                  "internalType": "uint256",
                  "name": "timeStamp",
                  "type": "uint256"
                },
                {
                  "internalType": "uint256",
                  "name": "ferryTip",
                  "type": "uint256"
                }
              ],
              "internalType": "struct IRolldownPrimitives.Deposit[]",
              "name": "pendingDeposits",
              "type": "tuple[]"
            },
            {
              "components": [
                {
                  "components": [
                    {
                      "internalType": "enum IRolldownPrimitives.Origin",
                      "name": "origin",
                      "type": "uint8"
                    },
                    {
                      "internalType": "uint256",
                      "name": "id",
                      "type": "uint256"
                    }
                  ],
                  "internalType": "struct IRolldownPrimitives.RequestId",
                  "name": "requestId",
                  "type": "tuple"
                },
                {
                  "internalType": "uint256",
                  "name": "l2RequestId",
                  "type": "uint256"
                },
                {
                  "internalType": "bool",
                  "name": "cancelJustified",
                  "type": "bool"
                },
                {
                  "internalType": "uint256",
                  "name": "timeStamp",
                  "type": "uint256"
                }
              ],
              "internalType": "struct IRolldownPrimitives.CancelResolution[]",
              "name": "pendingCancelResolutions",
              "type": "tuple[]"
            }
          ],
          "internalType": "struct IRolldownPrimitives.L1Update",
          "name": "",
          "type": "tuple"
        }
      ],
      "stateMutability": "view",
      "type": "function"
    },
    {
      "inputs": [],
      "name": "getUpdateForL2",
      "outputs": [
        {
          "components": [
            {
              "internalType": "enum IRolldownPrimitives.ChainId",
              "name": "chain",
              "type": "uint8"
            },
            {
              "components": [
                {
                  "components": [
                    {
                      "internalType": "enum IRolldownPrimitives.Origin",
                      "name": "origin",
                      "type": "uint8"
                    },
                    {
                      "internalType": "uint256",
                      "name": "id",
                      "type": "uint256"
                    }
                  ],
                  "internalType": "struct IRolldownPrimitives.RequestId",
                  "name": "requestId",
                  "type": "tuple"
                },
                {
                  "internalType": "address",
                  "name": "depositRecipient",
                  "type": "address"
                },
                {
                  "internalType": "address",
                  "name": "tokenAddress",
                  "type": "address"
                },
                {
                  "internalType": "uint256",
                  "name": "amount",
                  "type": "uint256"
                },
                {
                  "internalType": "uint256",
                  "name": "timeStamp",
                  "type": "uint256"
                },
                {
                  "internalType": "uint256",
                  "name": "ferryTip",
                  "type": "uint256"
                }
              ],
              "internalType": "struct IRolldownPrimitives.Deposit[]",
              "name": "pendingDeposits",
              "type": "tuple[]"
            },
            {
              "components": [
                {
                  "components": [
                    {
                      "internalType": "enum IRolldownPrimitives.Origin",
                      "name": "origin",
                      "type": "uint8"
                    },
                    {
                      "internalType": "uint256",
                      "name": "id",
                      "type": "uint256"
                    }
                  ],
                  "internalType": "struct IRolldownPrimitives.RequestId",
                  "name": "requestId",
                  "type": "tuple"
                },
                {
                  "internalType": "uint256",
                  "name": "l2RequestId",
                  "type": "uint256"
                },
                {
                  "internalType": "bool",
                  "name": "cancelJustified",
                  "type": "bool"
                },
                {
                  "internalType": "uint256",
                  "name": "timeStamp",
                  "type": "uint256"
                }
              ],
              "internalType": "struct IRolldownPrimitives.CancelResolution[]",
              "name": "pendingCancelResolutions",
              "type": "tuple[]"
            }
          ],
          "internalType": "struct IRolldownPrimitives.L1Update",
          "name": "",
          "type": "tuple"
        }
      ],
      "stateMutability": "view",
      "type": "function"
    },
    {
      "inputs": [
        {
          "internalType": "contract IPauserRegistry",
          "name": "_pauserRegistry",
          "type": "address"
        },
        {
          "internalType": "address",
          "name": "initialOwner",
          "type": "address"
        },
        {
          "internalType": "enum IRolldownPrimitives.ChainId",
          "name": "chainId",
          "type": "uint8"
        },
        {
          "internalType": "address",
          "name": "updater",
          "type": "address"
        }
      ],
      "name": "initialize",
      "outputs": [],
      "stateMutability": "nonpayable",
      "type": "function"
    },
    {
      "inputs": [],
      "name": "lastProcessedUpdate_origin_l1",
      "outputs": [
        {
          "internalType": "uint256",
          "name": "",
          "type": "uint256"
        }
      ],
      "stateMutability": "view",
      "type": "function"
    },
    {
      "inputs": [],
      "name": "lastProcessedUpdate_origin_l2",
      "outputs": [
        {
          "internalType": "uint256",
          "name": "",
          "type": "uint256"
        }
      ],
      "stateMutability": "view",
      "type": "function"
    },
    {
      "inputs": [
        {
          "internalType": "bytes32",
          "name": "",
          "type": "bytes32"
        }
      ],
      "name": "merkleRootRange",
      "outputs": [
        {
          "internalType": "uint256",
          "name": "start",
          "type": "uint256"
        },
        {
          "internalType": "uint256",
          "name": "end",
          "type": "uint256"
        }
      ],
      "stateMutability": "view",
      "type": "function"
    },
    {
      "inputs": [],
      "name": "owner",
      "outputs": [
        {
          "internalType": "address",
          "name": "",
          "type": "address"
        }
      ],
      "stateMutability": "view",
      "type": "function"
    },
    {
      "inputs": [
        {
          "internalType": "uint256",
          "name": "newPausedStatus",
          "type": "uint256"
        }
      ],
      "name": "pause",
      "outputs": [],
      "stateMutability": "nonpayable",
      "type": "function"
    },
    {
      "inputs": [],
      "name": "pauseAll",
      "outputs": [],
      "stateMutability": "nonpayable",
      "type": "function"
    },
    {
      "inputs": [
        {
          "internalType": "uint8",
          "name": "index",
          "type": "uint8"
        }
      ],
      "name": "paused",
      "outputs": [
        {
          "internalType": "bool",
          "name": "",
          "type": "bool"
        }
      ],
      "stateMutability": "view",
      "type": "function"
    },
    {
      "inputs": [],
      "name": "paused",
      "outputs": [
        {
          "internalType": "uint256",
          "name": "",
          "type": "uint256"
        }
      ],
      "stateMutability": "view",
      "type": "function"
    },
    {
      "inputs": [],
      "name": "pauserRegistry",
      "outputs": [
        {
          "internalType": "contract IPauserRegistry",
          "name": "",
          "type": "address"
        }
      ],
      "stateMutability": "view",
      "type": "function"
    },
    {
      "inputs": [
        {
          "internalType": "bytes32",
          "name": "",
          "type": "bytes32"
        }
      ],
      "name": "processedL2Requests",
      "outputs": [
        {
          "internalType": "address",
          "name": "",
          "type": "address"
        }
      ],
      "stateMutability": "view",
      "type": "function"
    },
    {
      "inputs": [],
      "name": "renounceOwnership",
      "outputs": [],
      "stateMutability": "nonpayable",
      "type": "function"
    },
    {
      "inputs": [
        {
          "internalType": "contract IPauserRegistry",
          "name": "newPauserRegistry",
          "type": "address"
        }
      ],
      "name": "setPauserRegistry",
      "outputs": [],
      "stateMutability": "nonpayable",
      "type": "function"
    },
    {
      "inputs": [
        {
          "internalType": "address",
          "name": "updater",
          "type": "address"
        }
      ],
      "name": "setUpdater",
      "outputs": [],
      "stateMutability": "nonpayable",
      "type": "function"
    },
    {
      "inputs": [
        {
          "internalType": "address",
          "name": "newOwner",
          "type": "address"
        }
      ],
      "name": "transferOwnership",
      "outputs": [],
      "stateMutability": "nonpayable",
      "type": "function"
    },
    {
      "inputs": [
        {
          "internalType": "uint256",
          "name": "newPausedStatus",
          "type": "uint256"
        }
      ],
      "name": "unpause",
      "outputs": [],
      "stateMutability": "nonpayable",
      "type": "function"
    },
    {
      "inputs": [
        {
          "internalType": "bytes32",
          "name": "merkle_root",
          "type": "bytes32"
        },
        {
          "components": [
            {
              "internalType": "uint256",
              "name": "start",
              "type": "uint256"
            },
            {
              "internalType": "uint256",
              "name": "end",
              "type": "uint256"
            }
          ],
          "internalType": "struct IRolldownPrimitives.Range",
          "name": "range",
          "type": "tuple"
        }
      ],
      "name": "update_l1_from_l2",
      "outputs": [],
      "stateMutability": "nonpayable",
      "type": "function"
    },
    {
      "inputs": [],
      "name": "updaterAccount",
      "outputs": [
        {
          "internalType": "address",
          "name": "",
          "type": "address"
        }
      ],
      "stateMutability": "view",
      "type": "function"
    }
  ],
  "bytecode": {
    "object": "0x608060405234801561001057600080fd5b50600160d255613e55806100256000396000f3fe6080604052600436106102305760003560e01c8063886f11951161012e578063d16544f0116100ab578063f26ee9d01161006f578063f26ee9d014610681578063f2fde38b14610697578063f9ecd01e146106b7578063fabc1cbc146106f2578063ffea632b1461071257600080fd5b8063d16544f01461032f578063de70e0b814610603578063df2ebdbb14610639578063dffbdd9f1461064e578063ef0ba5d01461066157600080fd5b8063b02c43d0116100f2578063b02c43d01461055d578063b15387061461058f578063c763e5a1146105a4578063c87c2224146105cb578063ca9b21ae146105d357600080fd5b8063886f1195146104bf5780638da5cb5b146104df578063950ac487146104fd5780639d54f4191461051d578063af26c6951461053d57600080fd5b80634bf5fec3116101bc57806361bc221a1161018057806361bc221a1461042c578063715018a61461044257806371c544611461045757806379e041f21461047c5780637fd4f845146104a957600080fd5b80634bf5fec31461034f5780634f48eedf1461036f578063595c6a67146103b85780635ac86ab7146103cd5780635c975abb1461040d57600080fd5b80630e2636a3116102035780630e2636a3146102aa5780630efe6a8b1461025757806310d67a2f146102ef578063136439dd1461030f57806347e7ef241461032f57600080fd5b806301ef69661461023557806308aba1b21461025757806308f42d40146102775780630cac57ab14610297575b600080fd5b34801561024157600080fd5b5061025561025036600461339e565b610732565b005b34801561026357600080fd5b50610255610272366004613415565b610809565b34801561028357600080fd5b5061025561029236600461344a565b610866565b6102556102a536600461349a565b610ab9565b3480156102b657600080fd5b506102d273111111111111111111111111111111111111111181565b6040516001600160a01b0390911681526020015b60405180910390f35b3480156102fb57600080fd5b5061025561030a3660046134b6565b610f57565b34801561031b57600080fd5b5061025561032a3660046134d3565b61100a565b34801561033b57600080fd5b5061025561034a3660046134ec565b611149565b34801561035b57600080fd5b5061025561036a366004613518565b6111a6565b34801561037b57600080fd5b506103a361038a3660046134d3565b609d602052600090815260409020805460019091015482565b604080519283526020830191909152016102e6565b3480156103c457600080fd5b5061025561142b565b3480156103d957600080fd5b506103fd6103e836600461355c565b606654600160ff9092169190911b9081161490565b60405190151581526020016102e6565b34801561041957600080fd5b506066545b6040519081526020016102e6565b34801561043857600080fd5b5061041e60975481565b34801561044e57600080fd5b506102556114f2565b34801561046357600080fd5b50609a546102d29061010090046001600160a01b031681565b34801561048857600080fd5b5061049c61049736600461357f565b611506565b6040516102e69190613655565b3480156104b557600080fd5b5061041e60985481565b3480156104cb57600080fd5b506065546102d2906001600160a01b031681565b3480156104eb57600080fd5b506033546001600160a01b03166102d2565b34801561050957600080fd5b50610255610518366004613718565b611902565b34801561052957600080fd5b506102556105383660046134b6565b6119b9565b34801561054957600080fd5b5061041e61055836600461377b565b611ab6565b34801561056957600080fd5b5061057d6105783660046134d3565b611b07565b6040516102e6969594939291906137ea565b34801561059b57600080fd5b5061049c611b8e565b3480156105b057600080fd5b50609a546105be9060ff1681565b6040516102e6919061382c565b610255611bd9565b3480156105df57600080fd5b506105f36105ee3660046134d3565b611c32565b6040516102e6949392919061383f565b34801561060f57600080fd5b506102d261061e3660046134d3565b609e602052600090815260409020546001600160a01b031681565b34801561064557600080fd5b506102d2600181565b61025561065c3660046134d3565b611ca4565b34801561066d57600080fd5b5061041e61067c366004613868565b611cfd565b34801561068d57600080fd5b5061041e60995481565b3480156106a357600080fd5b506102556106b23660046134b6565b611e39565b3480156106c357600080fd5b506106d76106d23660046134d3565b611eaf565b604080518251815260209283015192810192909252016102e6565b3480156106fe57600080fd5b5061025561070d3660046134d3565b612023565b34801561071e57600080fd5b5061025561072d366004613905565b61217f565b6066541561075b5760405162461bcd60e51b815260040161075290613961565b60405180910390fd5b600260d254141561077e5760405162461bcd60e51b815260040161075290613998565b600260d2556040516000906107979086906020016139f0565b6040516020818303038152906040528051906020012090506107c38560000160200135828686866122f8565b6107cc8561246d565b6000908152609e6020526040902080546001600160a01b0319167311111111111111111111111111111111111111111790555050600160d2555050565b606654156108295760405162461bcd60e51b815260040161075290613961565b600260d254141561084c5760405162461bcd60e51b815260040161075290613998565b600260d25561085c8383836125bf565b5050600160d25550565b606654156108865760405162461bcd60e51b815260040161075290613961565b609a5461010090046001600160a01b031633146108d55760405162461bcd60e51b815260206004820152600d60248201526c2737ba103a34329037bbb732b960991b6044820152606401610752565b60995481602001351161092a5760405162461bcd60e51b815260206004820152601960248201527f557064617465206272696e6773206e6f206e65772064617461000000000000006044820152606401610752565b80356109785760405162461bcd60e51b815260206004820152601f60248201527f72616e6765206964206d7573742062652067726561746572207468616e2030006044820152606401610752565b60995461098760018335613a3c565b11156109d55760405162461bcd60e51b815260206004820152601760248201527f50726576696f757320757064617465206d697373696e670000000000000000006044820152606401610752565b803560208201351015610a1a5760405162461bcd60e51b815260206004820152600d60248201526c496e76616c69642072616e676560981b6044820152606401610752565b609f8054600181019091557f0bc14066c33013fe88f66e314e4cf150b0b2d4d6451a1a51dbbd1c27cd11de28018290556000828152609d602052604090208190610a71828281358155602082013560018201555050565b505060208101356099556040517f49c158d490db9e066f01b5d4f1a094485a6598cb6c5296b4c07e46c12a1dc11c90610aad9084908490613a53565b60405180910390a15050565b60665415610ad95760405162461bcd60e51b815260040161075290613961565b600260d2541415610afc5760405162461bcd60e51b815260040161075290613998565b600260d255608081013560a08201351115610b295760405162461bcd60e51b815260040161075290613a71565b6000610b3d60a08301356080840135613a3c565b9050600082604051602001610b529190613aa8565b60408051601f1981840301815291815281516020928301206000818152609e9093529120549091506001600160a01b031615610bc25760405162461bcd60e51b815260206004820152600f60248201526e105b1c9958591e4819995c9c9a5959608a1b6044820152606401610752565b6000818152609e6020526040902080546001600160a01b031916331790556001610bf260808501606086016134b6565b6001600160a01b03161415610d885760003411610c495760405162461bcd60e51b815260206004820152601560248201527413985d1a5d99481d1bdad95b881b9bdd081cd95b9d605a1b6044820152606401610752565b813414610ccf5760405162461bcd60e51b815260206004820152604860248201527f53656e7420616d6f756e742073686f756c642065786163746c79206d6174636860448201527f207769746864726177616c2e616d6f756e74202d207769746864726177616c2e606482015267066657272795469760c41b608482015260a401610752565b610cdf60608401604085016134b6565b6001600160a01b03166108fc839081150290604051600060405180830381858888f19350505050158015610d17573d6000803e3d6000fd5b507f7a9abd9eb86bdbca89cba4069a632c37d93db82e3e14ad8119a3a7812814853e602084013583610d4f60608701604088016134b6565b6040805193845260208401929092526001600160a01b0316908201523360608201526080810183905260a00160405180910390a161085c565b6000610d9a60808501606086016134b6565b6040516370a0823160e01b815233600482015290915083906001600160a01b038316906370a0823190602401602060405180830381865afa158015610de3573d6000803e3d6000fd5b505050506040513d601f19601f82011682018060405250810190610e079190613b04565b1015610e485760405162461bcd60e51b815260206004820152601060248201526f4e6f7420656e6f7567682066756e647360801b6044820152606401610752565b6001600160a01b0381166323b872dd33610e6860608801604089016134b6565b6040516001600160e01b031960e085901b1681526001600160a01b03928316600482015291166024820152604481018690526064016020604051808303816000875af1158015610ebc573d6000803e3d6000fd5b505050506040513d601f19601f82011682018060405250810190610ee09190613b1d565b507f7a9abd9eb86bdbca89cba4069a632c37d93db82e3e14ad8119a3a7812814853e602085013584610f1860608801604089016134b6565b6040805193845260208401929092526001600160a01b0316908201523360608201526080810184905260a00160405180910390a1505050600160d25550565b606560009054906101000a90046001600160a01b03166001600160a01b031663eab66d7a6040518163ffffffff1660e01b8152600401602060405180830381865afa158015610faa573d6000803e3d6000fd5b505050506040513d601f19601f82011682018060405250810190610fce9190613b3f565b6001600160a01b0316336001600160a01b031614610ffe5760405162461bcd60e51b815260040161075290613b5c565b611007816127d5565b50565b60655460405163237dfb4760e11b81523360048201526001600160a01b03909116906346fbf68e90602401602060405180830381865afa158015611052573d6000803e3d6000fd5b505050506040513d601f19601f820116820180604052508101906110769190613b1d565b6110925760405162461bcd60e51b815260040161075290613ba6565b6066548181161461110b5760405162461bcd60e51b815260206004820152603860248201527f5061757361626c652e70617573653a20696e76616c696420617474656d70742060448201527f746f20756e70617573652066756e6374696f6e616c69747900000000000000006064820152608401610752565b606681905560405181815233907fab40a374bc51de372200a8bc981af8c9ecdc08dfdaef0bb6e09f88f3c616ef3d906020015b60405180910390a250565b606654156111695760405162461bcd60e51b815260040161075290613961565b600260d254141561118c5760405162461bcd60e51b815260040161075290613998565b600260d25561119d828260006125bf565b5050600160d255565b606654156111c65760405162461bcd60e51b815260040161075290613961565b600260d25414156111e95760405162461bcd60e51b815260040161075290613998565b600260d255604051611226906020808701359161120891889101613aa8565b604051602081830303815290604052805190602001208585856122f8565b6000846040516020016112399190613aa8565b60408051601f1981840301815291815281516020928301206000818152609e909352912080546001600160a01b03198116731111111111111111111111111111111111111111179091559091506001600160a01b0316801515806113705760016112a96080890160608a016134b6565b6001600160a01b031614156112da576112d56112cb6060890160408a016134b6565b88608001356128cc565b611307565b6113076112ed6060890160408a016134b6565b6112fd60808a0160608b016134b6565b896080013561298d565b7f935f26d94be31907080aa78b3e6e2ac6d48a072af096c20268388621bbc117898760000160200135886040516020016113419190613aa8565b60408051601f1981840301815282825280516020918201209383528201929092520160405180910390a161141d565b60016113826080890160608a016134b6565b6001600160a01b031614156113a45761139f8288608001356128cc565b6113b8565b6113b8826112fd60808a0160608b016134b6565b7f2996fd546c37d74c170466ea6aa4a308e3ca2d4aa689e6e9e32994db5039cc0e8760000160200135886040516020016113f29190613aa8565b60408051601f1981840301815282825280516020918201209383528201929092520160405180910390a15b5050600160d2555050505050565b60655460405163237dfb4760e11b81523360048201526001600160a01b03909116906346fbf68e90602401602060405180830381865afa158015611473573d6000803e3d6000fd5b505050506040513d601f19601f820116820180604052508101906114979190613b1d565b6114b35760405162461bcd60e51b815260040161075290613ba6565b600019606681905560405190815233907fab40a374bc51de372200a8bc981af8c9ecdc08dfdaef0bb6e09f88f3c616ef3d9060200160405180910390a2565b6114fa612acb565b6115046000612b25565b565b61152b6040805160608101909152806000815260200160608152602001606081525090565b6115506040805160608101909152806000815260200160608152602001606081525090565b609a54819060ff166001811115611569576115696135a1565b9081600181111561157c5761157c6135a1565b905250600080855b858111611627576000818152609c6020526040902060010154156115b457826115ac81613bee565b935050611615565b6000818152609b6020526040902060010154156115dd57816115d581613bee565b925050611615565b60405162461bcd60e51b815260206004820152600d60248201526c496e76616c69642072616e676560981b6044820152606401610752565b8061161f81613bee565b915050611584565b508167ffffffffffffffff81111561164157611641613c09565b6040519080825280602002602001820160405280156116af57816020015b6040805161010081018252600060c0820181815260e0830182905282526020808301829052928201819052606082018190526080820181905260a0820152825260001990920191018161165f5790505b5060208401528067ffffffffffffffff8111156116ce576116ce613c09565b60405190808252806020026020018201604052801561172d57816020015b6040805160c08101825260006080820181815260a0830182905282526020808301829052928201819052606082015282526000199092019101816116ec5790505b506040840152506000905080855b8581116118f7576000818152609c602052604090206001015415611825576000818152609c602052604090819020815161010081019092528054829060c08201908390829060ff166001811115611794576117946135a1565b60018111156117a5576117a56135a1565b81526001919091015460209182015290825260028301546001600160a01b03908116838301526003840154166040830152600483015460608301526005830154608083015260069092015460a0909101528501518461180381613bee565b95508151811061181557611815613c1f565b60200260200101819052506118e5565b6000818152609b6020526040902060020154156118e0576000818152609b602052604090819020815160c081019092528054829060808201908390829060ff166001811115611876576118766135a1565b6001811115611887576118876135a1565b815260019190910154602091820152908252600283015490820152600382015460ff161515604080830191909152600490920154606090910152850151836118ce81613bee565b94508151811061181557611815613c1f565b6118f7565b806118ef81613bee565b91505061173b565b509195945050505050565b606654156119225760405162461bcd60e51b815260040161075290613961565b600260d25414156119455760405162461bcd60e51b815260040161075290613998565b600260d25560405160009061195e908690602001613c35565b6040516020818303038152906040528051906020012090506119b08560000160200135866040516020016119929190613c35565b604051602081830303815290604052805190602001208686866122f8565b6107cc85612b77565b606654156119d95760405162461bcd60e51b815260040161075290613961565b609a5461010090046001600160a01b03163314611a575760405162461bcd60e51b815260206004820152603660248201527f4f6e6c792061637469766520757064617465722063616e206d6f7665207269676044820152751a1d1cc81d1bc818481b995dc818481858d8dbdd5b9d60521b6064820152608401610752565b609a8054610100600160a81b0319166101006001600160a01b038481168202929092179283905560405192041681527f1b0f2f500df596b42b73e80dbec6a1fb570f01978a586723f988a5fc54d773a19060200160405180910390a150565b600080825b63ffffffff811615611ae657611ad2600282613c89565b9050611adf600183613cac565b9150611abb565b611afb82888a8989600061067c60018c613cd4565b98975050505050505050565b609c6020526000908152604090819020815180830190925280549091908290829060ff166001811115611b3c57611b3c6135a1565b6001811115611b4d57611b4d6135a1565b815260019190910154602090910152600282015460038301546004840154600585015460069095015493946001600160a01b03938416949290931692909186565b611bb36040805160608101909152806000815260200160608152602001606081525090565b611bd46098546001611bc59190613cf9565b60016097546104979190613a3c565b905090565b600260d2541415611bfc5760405162461bcd60e51b815260040161075290613998565b600260d25560665415611c215760405162461bcd60e51b815260040161075290613961565b611c2b6000612c8f565b600160d255565b609b6020526000908152604090819020815180830190925280549091908290829060ff166001811115611c6757611c676135a1565b6001811115611c7857611c786135a1565b815260019190910154602090910152600282015460038301546004909301549192909160ff9091169084565b600260d2541415611cc75760405162461bcd60e51b815260040161075290613998565b600260d25560665415611cec5760405162461bcd60e51b815260040161075290613961565b611cf581612c8f565b50600160d255565b6000611d0a600288613d11565b63ffffffff16611d8f578163ffffffff168763ffffffff161415611d2d57611ded565b85858585611d3a81613d34565b965063ffffffff16818110611d5157611d51613c1f565b90506020020135604051602001611d72929190918252602082015260400190565b604051602081830303815290604052805190602001209550611ded565b848484611d9b81613d34565b955063ffffffff16818110611db257611db2613c1f565b9050602002013586604051602001611dd4929190918252602082015260400190565b6040516020818303038152906040528051906020012095505b8763ffffffff1660011415611e03575084611e2e565b611e2b611e1160018a613cd4565b611e1c60028a613c89565b8888888861067c60028a613c89565b90505b979650505050505050565b611e41612acb565b6001600160a01b038116611ea65760405162461bcd60e51b815260206004820152602660248201527f4f776e61626c653a206e6577206f776e657220697320746865207a65726f206160448201526564647265737360d01b6064820152608401610752565b61100781612b25565b6040805180820190915260008082526020820152609954821115611f0a5760405162461bcd60e51b8152602060048201526012602482015271125b9d985b1a59081c995c5d595cdd081a5960721b6044820152606401610752565b609f54611f2a575050604080518082019091526000808252602082015290565b609f54600090611f3c90600190613a3c565b90505b609d6000609f8381548110611f5657611f56613c1f565b90600052602060002001548152602001908152602001600020600001548310158015611fb55750609d6000609f8381548110611f9457611f94613c1f565b90600052602060002001548152602001908152602001600020600101548311155b1561201157609d6000609f8381548110611fd157611fd1613c1f565b9060005260206000200154815260200190815260200160002060405180604001604052908160008201548152602001600182015481525050915050919050565b8061201b81613d58565b915050611f3f565b606560009054906101000a90046001600160a01b03166001600160a01b031663eab66d7a6040518163ffffffff1660e01b8152600401602060405180830381865afa158015612076573d6000803e3d6000fd5b505050506040513d601f19601f8201168201806040525081019061209a9190613b3f565b6001600160a01b0316336001600160a01b0316146120ca5760405162461bcd60e51b815260040161075290613b5c565b6066541981196066541916146121485760405162461bcd60e51b815260206004820152603860248201527f5061757361626c652e756e70617573653a20696e76616c696420617474656d7060448201527f7420746f2070617573652066756e6374696f6e616c69747900000000000000006064820152608401610752565b606681905560405181815233907f3582d1828e26bf56bd801502bc021ac0bc8afb57c826e4986b45593c8fad389c9060200161113e565b600054610100900460ff161580801561219f5750600054600160ff909116105b806121b95750303b1580156121b9575060005460ff166001145b61221c5760405162461bcd60e51b815260206004820152602e60248201527f496e697469616c697a61626c653a20636f6e747261637420697320616c72656160448201526d191e481a5b9a5d1a585b1a5e995960921b6064820152608401610752565b6000805460ff19166001179055801561223f576000805461ff0019166101001790555b61224a856000612e68565b61225384612b25565b6000609881905560016097819055609991909155609a8054859260ff19909116908381811115612285576122856135a1565b0217905550609a8054610100600160a81b0319166101006001600160a01b0385160217905580156122f1576000805461ff0019169055604051600181527f7f26b83ff96e1f2b6a682f133852f6798a09c465da95921460cefb3847402498906020015b60405180910390a15b5050505050565b6000838152609d60209081526040918290208251808401909352805480845260019091015491830191909152158015906123355750602081015115155b6123775760405162461bcd60e51b8152602060048201526013602482015272155b9adb9bdddb881b595c9adb19481c9bdbdd606a1b6044820152606401610752565b6000858152609e60205260409020546001600160a01b031673111111111111111111111111111111111111111114156123e65760405162461bcd60e51b8152602060048201526011602482015270105b1c9958591e481c1c9bd8d95cdcd959607a1b6044820152606401610752565b805160208201516000916123f991613a3c565b612404906001613cf9565b82519091506000906124169089613a3c565b9050856124268883888887611ab6565b146124635760405162461bcd60e51b815260206004820152600d60248201526c24b73b30b634b210383937b7b360991b6044820152606401610752565b5050505050505050565b600061248160408301356060840135611506565b90506000816040516020016124969190613655565b60408051601f19818403018152828252805160209091012060c0830190915291504290600090806080810180848152602001609760008154809291906124db90613bee565b9091555090528152602087810135818301526080880135861415604080840191909152606090920185905282518101516000908152609b909152208151805182549394508493839190829060ff19166001838181111561253d5761253d6135a1565b021790555060209182015160019091015582810151600283015560408084015160038401805491151560ff199092169190911790556060909301516004909201919091558201518282015191517fd16f202ac5905ff5d1851f4805ffe56d1212db32fa989881d0044b9cf0f72776926122e89282521515602082015260400190565b818111156125df5760405162461bcd60e51b815260040161075290613a71565b6001600160a01b03831661262d5760405162461bcd60e51b8152602060048201526015602482015274496e76616c696420746f6b656e206164647265737360581b6044820152606401610752565b6000821161264d5760405162461bcd60e51b815260040161075290613d6f565b33836126646001600160a01b038216833087612f4e565b60408051610100810190915242906000908060c08101808481526020016097600081548092919061269490613bee565b90915550905281526001600160a01b03808716602080840191909152908a16604080840191909152606083018a90526080830186905260a090920188905282518101516000908152609c909152208151805182549394508493839190829060ff191660018381811115612709576127096135a1565b021790555060209182015160019190910155828101516002830180546001600160a01b03199081166001600160a01b0393841617909155604080860151600386018054909316908416179091556060808601516004860155608080870151600587015560a096870151600690960195909555865184015182519081528a841694810194909452918c169083015281018990529081018790527f225305ecb66fa9b9b29f8dead9baea365a6c225d639dfd866e782ccb63e2f05b910160405180910390a150505050505050565b6001600160a01b0381166128635760405162461bcd60e51b815260206004820152604960248201527f5061757361626c652e5f73657450617573657252656769737472793a206e657760448201527f50617573657252656769737472792063616e6e6f7420626520746865207a65726064820152686f206164647265737360b81b608482015260a401610752565b606554604080516001600160a01b03928316815291831660208301527f6e9fcd539896fca60e8b0f01dd580233e48a6b0f7df013b89ba7f565869acdb6910160405180910390a1606580546001600160a01b0319166001600160a01b0392909216919091179055565b303181111561291d5760405162461bcd60e51b815260206004820152601c60248201527f4e6f7420656e6f7567682066756e647320696e20636f6e7472616374000000006044820152606401610752565b6000811161293d5760405162461bcd60e51b815260040161075290613d6f565b604080516001600160a01b0384168152602081018390527fe0495355c1e04c512584521854d222d239a4b782b39ac8a7e835a34f5ec7c1e1910160405180910390a16129898282612fbf565b5050565b6040516370a0823160e01b8152306004820152829082906001600160a01b038316906370a0823190602401602060405180830381865afa1580156129d5573d6000803e3d6000fd5b505050506040513d601f19601f820116820180604052508101906129f99190613b04565b1015612a475760405162461bcd60e51b815260206004820152601c60248201527f4e6f7420656e6f7567682066756e647320696e20636f6e7472616374000000006044820152606401610752565b60008211612a675760405162461bcd60e51b815260040161075290613d6f565b612a7b6001600160a01b03821685846130dd565b604080516001600160a01b038087168252851660208201529081018390527ee763f7778b8ceef7270c89b7d1df1008b0e482da39c43831417733af96fb0d9060600160405180910390a150505050565b6033546001600160a01b031633146115045760405162461bcd60e51b815260206004820181905260248201527f4f776e61626c653a2063616c6c6572206973206e6f7420746865206f776e65726044820152606401610752565b603380546001600160a01b038381166001600160a01b0319831681179093556040519116919082907f8be0079c531659141344cd1fd0a4f28419497f9722a3daafe3b4186f6b6457e090600090a35050565b6040808201356000908152609c602052908120600281015490916001600160a01b0390911690612bad60808501606086016134b6565b6001600160a01b031614612bce57612bcb60808401606085016134b6565b90505b60038201546001600160a01b031660011415612bf757612bf28183600401546128cc565b612c18565b60038201546004830154612c189183916001600160a01b039091169061298d565b7f13750c731f87c15242874ce74bf4649502cc8e7c829067ce846505acdb96289d8360000160200135846040013585604051602001612c579190613c35565b60408051601f1981840301815282825280516020918201209483528201929092529081019190915260600160405180910390a1505050565b34811115612caf5760405162461bcd60e51b815260040161075290613a71565b60003411612cff5760405162461bcd60e51b815260206004820181905260248201527f6d73672076616c7565206d7573742062652067726561746572207468617420306044820152606401610752565b6040805161010081019091523390349042906000908060c081018084815260200160976000815480929190612d3390613bee565b90915550905281526001600160a01b03861660208083019190915260016040808401829052606084018890526080840187905260a090930189905283518201516000908152609c9092529190208251805182549495508594929391928492839160ff1916908381811115612da957612da96135a1565b0217905550602091820151600191820155838201516002840180546001600160a01b03199081166001600160a01b0393841617909155604080870151600387018054909316908416179091556060808701516004870155608080880151600588015560a09788015160069097019690965587518501518251908152928b16948301949094528101919091529081018690529081018790527f225305ecb66fa9b9b29f8dead9baea365a6c225d639dfd866e782ccb63e2f05b91016122e8565b6065546001600160a01b0316158015612e8957506001600160a01b03821615155b612f0b5760405162461bcd60e51b815260206004820152604760248201527f5061757361626c652e5f696e697469616c697a655061757365723a205f696e6960448201527f7469616c697a6550617573657228292063616e206f6e6c792062652063616c6c6064820152666564206f6e636560c81b608482015260a401610752565b606681905560405181815233907fab40a374bc51de372200a8bc981af8c9ecdc08dfdaef0bb6e09f88f3c616ef3d9060200160405180910390a2612989826127d5565b6040516001600160a01b0380851660248301528316604482015260648101829052612fb99085906323b872dd60e01b906084015b60408051601f198184030181529190526020810180516001600160e01b03166001600160e01b03199093169290921790915261310d565b50505050565b8047101561300f5760405162461bcd60e51b815260206004820152601d60248201527f416464726573733a20696e73756666696369656e742062616c616e63650000006044820152606401610752565b6000826001600160a01b03168260405160006040518083038185875af1925050503d806000811461305c576040519150601f19603f3d011682016040523d82523d6000602084013e613061565b606091505b50509050806130d85760405162461bcd60e51b815260206004820152603a60248201527f416464726573733a20756e61626c6520746f2073656e642076616c75652c207260448201527f6563697069656e74206d617920686176652072657665727465640000000000006064820152608401610752565b505050565b6040516001600160a01b0383166024820152604481018290526130d890849063a9059cbb60e01b90606401612f82565b6000613162826040518060400160405280602081526020017f5361666545524332303a206c6f772d6c6576656c2063616c6c206661696c6564815250856001600160a01b03166131df9092919063ffffffff16565b8051909150156130d857808060200190518101906131809190613b1d565b6130d85760405162461bcd60e51b815260206004820152602a60248201527f5361666545524332303a204552433230206f7065726174696f6e20646964206e6044820152691bdd081cdd58d8d9595960b21b6064820152608401610752565b60606131ee84846000856131f8565b90505b9392505050565b6060824710156132595760405162461bcd60e51b815260206004820152602660248201527f416464726573733a20696e73756666696369656e742062616c616e636520666f6044820152651c8818d85b1b60d21b6064820152608401610752565b6001600160a01b0385163b6132b05760405162461bcd60e51b815260206004820152601d60248201527f416464726573733a2063616c6c20746f206e6f6e2d636f6e74726163740000006044820152606401610752565b600080866001600160a01b031685876040516132cc9190613dd0565b60006040518083038185875af1925050503d8060008114613309576040519150601f19603f3d011682016040523d82523d6000602084013e61330e565b606091505b5091509150611e2e828286606083156133285750816131f1565b8251156133385782518084602001fd5b8160405162461bcd60e51b81526004016107529190613dec565b60008083601f84011261336457600080fd5b50813567ffffffffffffffff81111561337c57600080fd5b6020830191508360208260051b850101111561339757600080fd5b9250929050565b60008060008084860360e08112156133b557600080fd5b60a08112156133c357600080fd5b5084935060a0850135925060c085013567ffffffffffffffff8111156133e857600080fd5b6133f487828801613352565b95989497509550505050565b6001600160a01b038116811461100757600080fd5b60008060006060848603121561342a57600080fd5b833561343581613400565b95602085013595506040909401359392505050565b600080828403606081121561345e57600080fd5b833592506040601f198201121561347457600080fd5b506020830190509250929050565b600060c0828403121561349457600080fd5b50919050565b600060c082840312156134ac57600080fd5b6131f18383613482565b6000602082840312156134c857600080fd5b81356131f181613400565b6000602082840312156134e557600080fd5b5035919050565b600080604083850312156134ff57600080fd5b823561350a81613400565b946020939093013593505050565b600080600080610100858703121561352f57600080fd5b6135398686613482565b935060c0850135925060e085013567ffffffffffffffff8111156133e857600080fd5b60006020828403121561356e57600080fd5b813560ff811681146131f157600080fd5b6000806040838503121561359257600080fd5b50508035926020909101359150565b634e487b7160e01b600052602160045260246000fd5b6002811061100757634e487b7160e01b600052602160045260246000fd5b80516135e0816135b7565b8252602090810151910152565b600081518084526020808501945080840160005b8381101561364a5781516136168882516135d5565b8084015160408981019190915281015115156060808a01919091520151608088015260a09096019590820190600101613601565b509495945050505050565b600060208083526080808401855161366c816135b7565b85840152858301516060604080880182905282519384905260a093928601928489019060005b818110156136ed5785516136a78482516135d5565b808a01516001600160a01b03908116858701528582015116868501528581015189850152888101518885015287015160c08401529488019460e090920191600101613692565b505089820151898203601f1901848b0152965061370a81886135ed565b9a9950505050505050505050565b60008060008084860360c081121561372f57600080fd5b608081121561373d57600080fd5b508493506080850135925060a085013567ffffffffffffffff8111156133e857600080fd5b803563ffffffff8116811461377657600080fd5b919050565b60008060008060006080868803121561379357600080fd5b853594506137a360208701613762565b9350604086013567ffffffffffffffff8111156137bf57600080fd5b6137cb88828901613352565b90945092506137de905060608701613762565b90509295509295909350565b60e081016137f882896135d5565b6001600160a01b039687166040830152949095166060860152608085019290925260a084015260c090920191909152919050565b60208101613839836135b7565b91905290565b60a0810161384d82876135d5565b60408201949094529115156060830152608090910152919050565b600080600080600080600060c0888a03121561388357600080fd5b61388c88613762565b965061389a60208901613762565b955060408801359450606088013567ffffffffffffffff8111156138bd57600080fd5b6138c98a828b01613352565b90955093506138dc905060808901613762565b91506138ea60a08901613762565b905092959891949750929550565b6002811061100757600080fd5b6000806000806080858703121561391b57600080fd5b843561392681613400565b9350602085013561393681613400565b92506040850135613946816138f8565b9150606085013561395681613400565b939692955090935050565b6020808252601c908201527f5061757361626c653a20636f6e74726163742069732070617573656400000000604082015260600190565b6020808252601f908201527f5265656e7472616e637947756172643a207265656e7472616e742063616c6c00604082015260600190565b80356139da816138f8565b6139e3816135b7565b8252602090810135910152565b60a081016139fe82846139cf565b613a18604083016040850180358252602090810135910152565b608092830135919092015290565b634e487b7160e01b600052601160045260246000fd5b600082821015613a4e57613a4e613a26565b500390565b828152606081016131f1602083018480358252602090810135910152565b6020808252601c908201527f5469702065786365656473206465706f736974656420616d6f756e7400000000604082015260600190565b60c08101613ab682846139cf565b6040830135613ac481613400565b6001600160a01b039081166040840152606084013590613ae382613400565b1660608301526080838101359083015260a092830135929091019190915290565b600060208284031215613b1657600080fd5b5051919050565b600060208284031215613b2f57600080fd5b815180151581146131f157600080fd5b600060208284031215613b5157600080fd5b81516131f181613400565b6020808252602a908201527f6d73672e73656e646572206973206e6f74207065726d697373696f6e6564206160408201526939903ab73830bab9b2b960b11b606082015260800190565b60208082526028908201527f6d73672e73656e646572206973206e6f74207065726d697373696f6e6564206160408201526739903830bab9b2b960c11b606082015260800190565b6000600019821415613c0257613c02613a26565b5060010190565b634e487b7160e01b600052604160045260246000fd5b634e487b7160e01b600052603260045260246000fd5b60808101613c4382846139cf565b604083013560408301526060830135613c5b81613400565b6001600160a01b031660609290920191909152919050565b634e487b7160e01b600052601260045260246000fd5b600063ffffffff80841680613ca057613ca0613c73565b92169190910492915050565b600063ffffffff808316818516808303821115613ccb57613ccb613a26565b01949350505050565b600063ffffffff83811690831681811015613cf157613cf1613a26565b039392505050565b60008219821115613d0c57613d0c613a26565b500190565b600063ffffffff80841680613d2857613d28613c73565b92169190910692915050565b600063ffffffff80831681811415613d4e57613d4e613a26565b6001019392505050565b600081613d6757613d67613a26565b506000190190565b6020808252818101527f416d6f756e74206d7573742062652067726561746572207468616e207a65726f604082015260600190565b60005b83811015613dbf578181015183820152602001613da7565b83811115612fb95750506000910152565b60008251613de2818460208701613da4565b9190910192915050565b6020815260008251806020840152613e0b816040850160208701613da4565b601f01601f1916919091016040019291505056fea2646970667358221220ace6bcb52098775b38915171bcaf8ed39f17459d1eb84b82c80f5aa5c171b52a64736f6c634300080c0033",
    "linkReferences": {}
  },
  "methodIdentifiers": {
    "CLOSED()": "0e2636a3",
    "NATIVE_TOKEN_ADDRESS()": "df2ebdbb",
    "calculate_root(bytes32,uint32,bytes32[],uint32)": "af26c695",
    "calculate_root_impl(uint32,uint32,bytes32,bytes32[],uint32,uint32)": "ef0ba5d0",
    "cancelResolutions(uint256)": "ca9b21ae",
    "chain()": "c763e5a1",
    "close_cancel(((uint8,uint256),(uint256,uint256),bytes32),bytes32,bytes32[])": "01ef6966",
    "close_deposit_refund(((uint8,uint256),uint256,address),bytes32,bytes32[])": "950ac487",
    "close_withdrawal(((uint8,uint256),address,address,uint256,uint256),bytes32,bytes32[])": "4bf5fec3",
    "counter()": "61bc221a",
    "deposit(address,uint256)": "47e7ef24",
    "deposit(address,uint256,uint256)": "0efe6a8b",
    "deposit_erc20(address,uint256)": "d16544f0",
    "deposit_erc20(address,uint256,uint256)": "08aba1b2",
    "deposit_native()": "c87c2224",
    "deposit_native(uint256)": "dffbdd9f",
    "deposits(uint256)": "b02c43d0",
    "ferry_withdrawal(((uint8,uint256),address,address,uint256,uint256))": "0cac57ab",
    "find_l2_batch(uint256)": "f9ecd01e",
    "getPendingRequests(uint256,uint256)": "79e041f2",
    "getUpdateForL2()": "b1538706",
    "initialize(address,address,uint8,address)": "ffea632b",
    "lastProcessedUpdate_origin_l1()": "7fd4f845",
    "lastProcessedUpdate_origin_l2()": "f26ee9d0",
    "merkleRootRange(bytes32)": "4f48eedf",
    "owner()": "8da5cb5b",
    "pause(uint256)": "136439dd",
    "pauseAll()": "595c6a67",
    "paused()": "5c975abb",
    "paused(uint8)": "5ac86ab7",
    "pauserRegistry()": "886f1195",
    "processedL2Requests(bytes32)": "de70e0b8",
    "renounceOwnership()": "715018a6",
    "setPauserRegistry(address)": "10d67a2f",
    "setUpdater(address)": "9d54f419",
    "transferOwnership(address)": "f2fde38b",
    "unpause(uint256)": "fabc1cbc",
    "update_l1_from_l2(bytes32,(uint256,uint256))": "08f42d40",
    "updaterAccount()": "71c54461"
  },
  "id": 129
}