{"abi":[{"type":"constructor","inputs":[{"name":"_registryCoordinator","type":"address","internalType":"contract IRegistryCoordinator"},{"name":"_taskResponseWindowBlock","type":"uint32","internalType":"uint32"}],"stateMutability":"nonpayable"},{"type":"function","name":"aggregator","inputs":[],"outputs":[{"name":"","type":"address","internalType":"address"}],"stateMutability":"view"},{"type":"function","name":"allTaskHashes","inputs":[{"name":"","type":"uint32","internalType":"uint32"}],"outputs":[{"name":"","type":"bytes32","internalType":"bytes32"}],"stateMutability":"view"},{"type":"function","name":"allTaskResponses","inputs":[{"name":"","type":"uint32","internalType":"uint32"}],"outputs":[{"name":"","type":"bytes32","internalType":"bytes32"}],"stateMutability":"view"},{"type":"function","name":"blsApkRegistry","inputs":[],"outputs":[{"name":"","type":"address","internalType":"contract IBLSApkRegistry"}],"stateMutability":"view"},{"type":"function","name":"checkSignatures","inputs":[{"name":"msgHash","type":"bytes32","internalType":"bytes32"},{"name":"quorumNumbers","type":"bytes","internalType":"bytes"},{"name":"referenceBlockNumber","type":"uint32","internalType":"uint32"},{"name":"params","type":"tuple","internalType":"struct IBLSSignatureChecker.NonSignerStakesAndSignature","components":[{"name":"nonSignerQuorumBitmapIndices","type":"uint32[]","internalType":"uint32[]"},{"name":"nonSignerPubkeys","type":"tuple[]","internalType":"struct BN254.G1Point[]","components":[{"name":"X","type":"uint256","internalType":"uint256"},{"name":"Y","type":"uint256","internalType":"uint256"}]},{"name":"quorumApks","type":"tuple[]","internalType":"struct BN254.G1Point[]","components":[{"name":"X","type":"uint256","internalType":"uint256"},{"name":"Y","type":"uint256","internalType":"uint256"}]},{"name":"apkG2","type":"tuple","internalType":"struct BN254.G2Point","components":[{"name":"X","type":"uint256[2]","internalType":"uint256[2]"},{"name":"Y","type":"uint256[2]","internalType":"uint256[2]"}]},{"name":"sigma","type":"tuple","internalType":"struct BN254.G1Point","components":[{"name":"X","type":"uint256","internalType":"uint256"},{"name":"Y","type":"uint256","internalType":"uint256"}]},{"name":"quorumApkIndices","type":"uint32[]","internalType":"uint32[]"},{"name":"totalStakeIndices","type":"uint32[]","internalType":"uint32[]"},{"name":"nonSignerStakeIndices","type":"uint32[][]","internalType":"uint32[][]"}]}],"outputs":[{"name":"","type":"tuple","internalType":"struct IBLSSignatureChecker.QuorumStakeTotals","components":[{"name":"signedStakeForQuorum","type":"uint96[]","internalType":"uint96[]"},{"name":"totalStakeForQuorum","type":"uint96[]","internalType":"uint96[]"}]},{"name":"","type":"bytes32","internalType":"bytes32"}],"stateMutability":"view"},{"type":"function","name":"createNewTask","inputs":[{"name":"blockNumber","type":"uint256","internalType":"uint256"},{"name":"quorumThresholdPercentage","type":"uint32","internalType":"uint32"},{"name":"quorumNumbers","type":"bytes","internalType":"bytes"}],"outputs":[],"stateMutability":"nonpayable"},{"type":"function","name":"delegation","inputs":[],"outputs":[{"name":"","type":"address","internalType":"contract IDelegationManager"}],"stateMutability":"view"},{"type":"function","name":"generator","inputs":[],"outputs":[{"name":"","type":"address","internalType":"address"}],"stateMutability":"view"},{"type":"function","name":"getCheckSignaturesIndices","inputs":[{"name":"registryCoordinator","type":"address","internalType":"contract IRegistryCoordinator"},{"name":"referenceBlockNumber","type":"uint32","internalType":"uint32"},{"name":"quorumNumbers","type":"bytes","internalType":"bytes"},{"name":"nonSignerOperatorIds","type":"bytes32[]","internalType":"bytes32[]"}],"outputs":[{"name":"","type":"tuple","internalType":"struct OperatorStateRetriever.CheckSignaturesIndices","components":[{"name":"nonSignerQuorumBitmapIndices","type":"uint32[]","internalType":"uint32[]"},{"name":"quorumApkIndices","type":"uint32[]","internalType":"uint32[]"},{"name":"totalStakeIndices","type":"uint32[]","internalType":"uint32[]"},{"name":"nonSignerStakeIndices","type":"uint32[][]","internalType":"uint32[][]"}]}],"stateMutability":"view"},{"type":"function","name":"getLatestPendingStateHash","inputs":[],"outputs":[{"name":"","type":"bytes32","internalType":"bytes32"}],"stateMutability":"view"},{"type":"function","name":"getOperatorState","inputs":[{"name":"registryCoordinator","type":"address","internalType":"contract IRegistryCoordinator"},{"name":"quorumNumbers","type":"bytes","internalType":"bytes"},{"name":"blockNumber","type":"uint32","internalType":"uint32"}],"outputs":[{"name":"","type":"tuple[][]","internalType":"struct OperatorStateRetriever.Operator[][]","components":[{"name":"operator","type":"address","internalType":"address"},{"name":"operatorId","type":"bytes32","internalType":"bytes32"},{"name":"stake","type":"uint96","internalType":"uint96"}]}],"stateMutability":"view"},{"type":"function","name":"getOperatorState","inputs":[{"name":"registryCoordinator","type":"address","internalType":"contract IRegistryCoordinator"},{"name":"operatorId","type":"bytes32","internalType":"bytes32"},{"name":"blockNumber","type":"uint32","internalType":"uint32"}],"outputs":[{"name":"","type":"uint256","internalType":"uint256"},{"name":"","type":"tuple[][]","internalType":"struct OperatorStateRetriever.Operator[][]","components":[{"name":"operator","type":"address","internalType":"address"},{"name":"operatorId","type":"bytes32","internalType":"bytes32"},{"name":"stake","type":"uint96","internalType":"uint96"}]}],"stateMutability":"view"},{"type":"function","name":"getQuorumBitmapsAtBlockNumber","inputs":[{"name":"registryCoordinator","type":"address","internalType":"contract IRegistryCoordinator"},{"name":"operatorIds","type":"bytes32[]","internalType":"bytes32[]"},{"name":"blockNumber","type":"uint32","internalType":"uint32"}],"outputs":[{"name":"","type":"uint256[]","internalType":"uint256[]"}],"stateMutability":"view"},{"type":"function","name":"getTaskResponseWindowBlock","inputs":[],"outputs":[{"name":"","type":"uint32","internalType":"uint32"}],"stateMutability":"view"},{"type":"function","name":"indexToTaskStatus","inputs":[{"name":"","type":"uint32","internalType":"uint32"}],"outputs":[{"name":"","type":"uint8","internalType":"enum FinalizerTaskManager.TaskStatus"}],"stateMutability":"view"},{"type":"function","name":"initialize","inputs":[{"name":"_pauserRegistry","type":"address","internalType":"contract IPauserRegistry"},{"name":"initialOwner","type":"address","internalType":"address"},{"name":"_aggregator","type":"address","internalType":"address"},{"name":"_generator","type":"address","internalType":"address"}],"outputs":[],"stateMutability":"nonpayable"},{"type":"function","name":"latestTaskNum","inputs":[],"outputs":[{"name":"","type":"uint32","internalType":"uint32"}],"stateMutability":"view"},{"type":"function","name":"owner","inputs":[],"outputs":[{"name":"","type":"address","internalType":"address"}],"stateMutability":"view"},{"type":"function","name":"pause","inputs":[{"name":"newPausedStatus","type":"uint256","internalType":"uint256"}],"outputs":[],"stateMutability":"nonpayable"},{"type":"function","name":"pauseAll","inputs":[],"outputs":[],"stateMutability":"nonpayable"},{"type":"function","name":"paused","inputs":[{"name":"index","type":"uint8","internalType":"uint8"}],"outputs":[{"name":"","type":"bool","internalType":"bool"}],"stateMutability":"view"},{"type":"function","name":"paused","inputs":[],"outputs":[{"name":"","type":"uint256","internalType":"uint256"}],"stateMutability":"view"},{"type":"function","name":"pauserRegistry","inputs":[],"outputs":[{"name":"","type":"address","internalType":"contract IPauserRegistry"}],"stateMutability":"view"},{"type":"function","name":"registryCoordinator","inputs":[],"outputs":[{"name":"","type":"address","internalType":"contract IRegistryCoordinator"}],"stateMutability":"view"},{"type":"function","name":"renounceOwnership","inputs":[],"outputs":[],"stateMutability":"nonpayable"},{"type":"function","name":"respondToTask","inputs":[{"name":"task","type":"tuple","internalType":"struct IFinalizerTaskManager.Task","components":[{"name":"blockNumber","type":"uint256","internalType":"uint256"},{"name":"taskCreatedBlock","type":"uint32","internalType":"uint32"},{"name":"lastCompletedTaskCreatedBlock","type":"uint32","internalType":"uint32"},{"name":"quorumNumbers","type":"bytes","internalType":"bytes"},{"name":"quorumThresholdPercentage","type":"uint32","internalType":"uint32"},{"name":"lastCompletedTaskQuorumNumbers","type":"bytes","internalType":"bytes"},{"name":"lastCompletedTaskQuorumThresholdPercentage","type":"uint32","internalType":"uint32"}]},{"name":"taskResponse","type":"tuple","internalType":"struct IFinalizerTaskManager.TaskResponse","components":[{"name":"referenceTaskIndex","type":"uint32","internalType":"uint32"},{"name":"referenceTask","type":"tuple","internalType":"struct IFinalizerTaskManager.Task","components":[{"name":"blockNumber","type":"uint256","internalType":"uint256"},{"name":"taskCreatedBlock","type":"uint32","internalType":"uint32"},{"name":"lastCompletedTaskCreatedBlock","type":"uint32","internalType":"uint32"},{"name":"quorumNumbers","type":"bytes","internalType":"bytes"},{"name":"quorumThresholdPercentage","type":"uint32","internalType":"uint32"},{"name":"lastCompletedTaskQuorumNumbers","type":"bytes","internalType":"bytes"},{"name":"lastCompletedTaskQuorumThresholdPercentage","type":"uint32","internalType":"uint32"}]},{"name":"operatorsStateInfo","type":"tuple","internalType":"struct IFinalizerTaskManager.OperatorStateInfo","components":[{"name":"operatorsStateChanged","type":"bool","internalType":"bool"},{"name":"operatorsStateProvided","type":"bool","internalType":"bool"},{"name":"quorumsRemoved","type":"uint8[]","internalType":"uint8[]"},{"name":"quorumsAdded","type":"tuple[]","internalType":"struct IGaspMultiRollupServicePrimitives.QuorumsAdded[]","components":[{"name":"quorumNumber","type":"uint8","internalType":"uint8"},{"name":"quorumStake","type":"uint96","internalType":"uint96"},{"name":"quorumApk","type":"tuple","internalType":"struct BN254.G1Point","components":[{"name":"X","type":"uint256","internalType":"uint256"},{"name":"Y","type":"uint256","internalType":"uint256"}]}]},{"name":"quorumsStakeUpdate","type":"tuple[]","internalType":"struct IGaspMultiRollupServicePrimitives.QuorumsStakeUpdate[]","components":[{"name":"quorumNumber","type":"uint8","internalType":"uint8"},{"name":"quorumStake","type":"uint96","internalType":"uint96"}]},{"name":"quorumsApkUpdate","type":"tuple[]","internalType":"struct IGaspMultiRollupServicePrimitives.QuorumsApkUpdate[]","components":[{"name":"quorumNumber","type":"uint8","internalType":"uint8"},{"name":"quorumApk","type":"tuple","internalType":"struct BN254.G1Point","components":[{"name":"X","type":"uint256","internalType":"uint256"},{"name":"Y","type":"uint256","internalType":"uint256"}]}]},{"name":"OperatorsRemoved","type":"bytes32[]","internalType":"bytes32[]"},{"name":"operatorsAdded","type":"tuple[]","internalType":"struct IGaspMultiRollupServicePrimitives.OperatorsAdded[]","components":[{"name":"operatorId","type":"bytes32","internalType":"bytes32"},{"name":"quorumForStakes","type":"uint8[]","internalType":"uint8[]"},{"name":"quorumStakes","type":"uint96[]","internalType":"uint96[]"},{"name":"quorumCount","type":"uint8","internalType":"uint8"}]},{"name":"operatorsStakeUpdate","type":"tuple[]","internalType":"struct IGaspMultiRollupServicePrimitives.OperatorsStakeUpdate[]","components":[{"name":"operatorId","type":"bytes32","internalType":"bytes32"},{"name":"quorumForStakes","type":"uint8[]","internalType":"uint8[]"},{"name":"quorumStakes","type":"uint96[]","internalType":"uint96[]"}]},{"name":"operatorsQuorumCountUpdate","type":"tuple[]","internalType":"struct IGaspMultiRollupServicePrimitives.OperatorsQuorumCountUpdate[]","components":[{"name":"operatorId","type":"bytes32","internalType":"bytes32"},{"name":"quorumCount","type":"uint8","internalType":"uint8"}]}]},{"name":"blockHash","type":"bytes32","internalType":"bytes32"},{"name":"storageProofHash","type":"bytes32","internalType":"bytes32"},{"name":"pendingStateHash","type":"bytes32","internalType":"bytes32"}]},{"name":"nonSignerStakesAndSignature","type":"tuple","internalType":"struct IBLSSignatureChecker.NonSignerStakesAndSignature","components":[{"name":"nonSignerQuorumBitmapIndices","type":"uint32[]","internalType":"uint32[]"},{"name":"nonSignerPubkeys","type":"tuple[]","internalType":"struct BN254.G1Point[]","components":[{"name":"X","type":"uint256","internalType":"uint256"},{"name":"Y","type":"uint256","internalType":"uint256"}]},{"name":"quorumApks","type":"tuple[]","internalType":"struct BN254.G1Point[]","components":[{"name":"X","type":"uint256","internalType":"uint256"},{"name":"Y","type":"uint256","internalType":"uint256"}]},{"name":"apkG2","type":"tuple","internalType":"struct BN254.G2Point","components":[{"name":"X","type":"uint256[2]","internalType":"uint256[2]"},{"name":"Y","type":"uint256[2]","internalType":"uint256[2]"}]},{"name":"sigma","type":"tuple","internalType":"struct BN254.G1Point","components":[{"name":"X","type":"uint256","internalType":"uint256"},{"name":"Y","type":"uint256","internalType":"uint256"}]},{"name":"quorumApkIndices","type":"uint32[]","internalType":"uint32[]"},{"name":"totalStakeIndices","type":"uint32[]","internalType":"uint32[]"},{"name":"nonSignerStakeIndices","type":"uint32[][]","internalType":"uint32[][]"}]}],"outputs":[],"stateMutability":"nonpayable"},{"type":"function","name":"setPauserRegistry","inputs":[{"name":"newPauserRegistry","type":"address","internalType":"contract IPauserRegistry"}],"outputs":[],"stateMutability":"nonpayable"},{"type":"function","name":"setStaleStakesForbidden","inputs":[{"name":"value","type":"bool","internalType":"bool"}],"outputs":[],"stateMutability":"nonpayable"},{"type":"function","name":"stakeRegistry","inputs":[],"outputs":[{"name":"","type":"address","internalType":"contract IStakeRegistry"}],"stateMutability":"view"},{"type":"function","name":"staleStakesForbidden","inputs":[],"outputs":[{"name":"","type":"bool","internalType":"bool"}],"stateMutability":"view"},{"type":"function","name":"taskNumber","inputs":[],"outputs":[{"name":"","type":"uint32","internalType":"uint32"}],"stateMutability":"view"},{"type":"function","name":"transferOwnership","inputs":[{"name":"newOwner","type":"address","internalType":"address"}],"outputs":[],"stateMutability":"nonpayable"},{"type":"function","name":"trySignatureAndApkVerification","inputs":[{"name":"msgHash","type":"bytes32","internalType":"bytes32"},{"name":"apk","type":"tuple","internalType":"struct BN254.G1Point","components":[{"name":"X","type":"uint256","internalType":"uint256"},{"name":"Y","type":"uint256","internalType":"uint256"}]},{"name":"apkG2","type":"tuple","internalType":"struct BN254.G2Point","components":[{"name":"X","type":"uint256[2]","internalType":"uint256[2]"},{"name":"Y","type":"uint256[2]","internalType":"uint256[2]"}]},{"name":"sigma","type":"tuple","internalType":"struct BN254.G1Point","components":[{"name":"X","type":"uint256","internalType":"uint256"},{"name":"Y","type":"uint256","internalType":"uint256"}]}],"outputs":[{"name":"pairingSuccessful","type":"bool","internalType":"bool"},{"name":"siganatureIsValid","type":"bool","internalType":"bool"}],"stateMutability":"view"},{"type":"function","name":"unpause","inputs":[{"name":"newPausedStatus","type":"uint256","internalType":"uint256"}],"outputs":[],"stateMutability":"nonpayable"},{"type":"event","name":"Initialized","inputs":[{"name":"version","type":"uint8","indexed":false,"internalType":"uint8"}],"anonymous":false},{"type":"event","name":"NewTaskCreated","inputs":[{"name":"taskIndex","type":"uint32","indexed":true,"internalType":"uint32"},{"name":"task","type":"tuple","indexed":false,"internalType":"struct IFinalizerTaskManager.Task","components":[{"name":"blockNumber","type":"uint256","internalType":"uint256"},{"name":"taskCreatedBlock","type":"uint32","internalType":"uint32"},{"name":"lastCompletedTaskCreatedBlock","type":"uint32","internalType":"uint32"},{"name":"quorumNumbers","type":"bytes","internalType":"bytes"},{"name":"quorumThresholdPercentage","type":"uint32","internalType":"uint32"},{"name":"lastCompletedTaskQuorumNumbers","type":"bytes","internalType":"bytes"},{"name":"lastCompletedTaskQuorumThresholdPercentage","type":"uint32","internalType":"uint32"}]}],"anonymous":false},{"type":"event","name":"OwnershipTransferred","inputs":[{"name":"previousOwner","type":"address","indexed":true,"internalType":"address"},{"name":"newOwner","type":"address","indexed":true,"internalType":"address"}],"anonymous":false},{"type":"event","name":"Paused","inputs":[{"name":"account","type":"address","indexed":true,"internalType":"address"},{"name":"newPausedStatus","type":"uint256","indexed":false,"internalType":"uint256"}],"anonymous":false},{"type":"event","name":"PauserRegistrySet","inputs":[{"name":"pauserRegistry","type":"address","indexed":false,"internalType":"contract IPauserRegistry"},{"name":"newPauserRegistry","type":"address","indexed":false,"internalType":"contract IPauserRegistry"}],"anonymous":false},{"type":"event","name":"StaleStakesForbiddenUpdate","inputs":[{"name":"value","type":"bool","indexed":false,"internalType":"bool"}],"anonymous":false},{"type":"event","name":"TaskCompleted","inputs":[{"name":"taskIndex","type":"uint32","indexed":true,"internalType":"uint32"},{"name":"blockHash","type":"bytes32","indexed":true,"internalType":"bytes32"}],"anonymous":false},{"type":"event","name":"TaskResponded","inputs":[{"name":"taskResponse","type":"tuple","indexed":false,"internalType":"struct IFinalizerTaskManager.TaskResponse","components":[{"name":"referenceTaskIndex","type":"uint32","internalType":"uint32"},{"name":"referenceTask","type":"tuple","internalType":"struct IFinalizerTaskManager.Task","components":[{"name":"blockNumber","type":"uint256","internalType":"uint256"},{"name":"taskCreatedBlock","type":"uint32","internalType":"uint32"},{"name":"lastCompletedTaskCreatedBlock","type":"uint32","internalType":"uint32"},{"name":"quorumNumbers","type":"bytes","internalType":"bytes"},{"name":"quorumThresholdPercentage","type":"uint32","internalType":"uint32"},{"name":"lastCompletedTaskQuorumNumbers","type":"bytes","internalType":"bytes"},{"name":"lastCompletedTaskQuorumThresholdPercentage","type":"uint32","internalType":"uint32"}]},{"name":"operatorsStateInfo","type":"tuple","internalType":"struct IFinalizerTaskManager.OperatorStateInfo","components":[{"name":"operatorsStateChanged","type":"bool","internalType":"bool"},{"name":"operatorsStateProvided","type":"bool","internalType":"bool"},{"name":"quorumsRemoved","type":"uint8[]","internalType":"uint8[]"},{"name":"quorumsAdded","type":"tuple[]","internalType":"struct IGaspMultiRollupServicePrimitives.QuorumsAdded[]","components":[{"name":"quorumNumber","type":"uint8","internalType":"uint8"},{"name":"quorumStake","type":"uint96","internalType":"uint96"},{"name":"quorumApk","type":"tuple","internalType":"struct BN254.G1Point","components":[{"name":"X","type":"uint256","internalType":"uint256"},{"name":"Y","type":"uint256","internalType":"uint256"}]}]},{"name":"quorumsStakeUpdate","type":"tuple[]","internalType":"struct IGaspMultiRollupServicePrimitives.QuorumsStakeUpdate[]","components":[{"name":"quorumNumber","type":"uint8","internalType":"uint8"},{"name":"quorumStake","type":"uint96","internalType":"uint96"}]},{"name":"quorumsApkUpdate","type":"tuple[]","internalType":"struct IGaspMultiRollupServicePrimitives.QuorumsApkUpdate[]","components":[{"name":"quorumNumber","type":"uint8","internalType":"uint8"},{"name":"quorumApk","type":"tuple","internalType":"struct BN254.G1Point","components":[{"name":"X","type":"uint256","internalType":"uint256"},{"name":"Y","type":"uint256","internalType":"uint256"}]}]},{"name":"OperatorsRemoved","type":"bytes32[]","internalType":"bytes32[]"},{"name":"operatorsAdded","type":"tuple[]","internalType":"struct IGaspMultiRollupServicePrimitives.OperatorsAdded[]","components":[{"name":"operatorId","type":"bytes32","internalType":"bytes32"},{"name":"quorumForStakes","type":"uint8[]","internalType":"uint8[]"},{"name":"quorumStakes","type":"uint96[]","internalType":"uint96[]"},{"name":"quorumCount","type":"uint8","internalType":"uint8"}]},{"name":"operatorsStakeUpdate","type":"tuple[]","internalType":"struct IGaspMultiRollupServicePrimitives.OperatorsStakeUpdate[]","components":[{"name":"operatorId","type":"bytes32","internalType":"bytes32"},{"name":"quorumForStakes","type":"uint8[]","internalType":"uint8[]"},{"name":"quorumStakes","type":"uint96[]","internalType":"uint96[]"}]},{"name":"operatorsQuorumCountUpdate","type":"tuple[]","internalType":"struct IGaspMultiRollupServicePrimitives.OperatorsQuorumCountUpdate[]","components":[{"name":"operatorId","type":"bytes32","internalType":"bytes32"},{"name":"quorumCount","type":"uint8","internalType":"uint8"}]}]},{"name":"blockHash","type":"bytes32","internalType":"bytes32"},{"name":"storageProofHash","type":"bytes32","internalType":"bytes32"},{"name":"pendingStateHash","type":"bytes32","internalType":"bytes32"}]},{"name":"taskResponseMetadata","type":"tuple","indexed":false,"internalType":"struct IFinalizerTaskManager.TaskResponseMetadata","components":[{"name":"taskResponsedBlock","type":"uint32","internalType":"uint32"},{"name":"hashOfNonSigners","type":"bytes32","internalType":"bytes32"},{"name":"quroumStakeTotals","type":"uint96[]","internalType":"uint96[]"},{"name":"quroumStakeSigned","type":"uint96[]","internalType":"uint96[]"}]}],"anonymous":false},{"type":"event","name":"Unpaused","inputs":[{"name":"account","type":"address","indexed":true,"internalType":"address"},{"name":"newPausedStatus","type":"uint256","indexed":false,"internalType":"uint256"}],"anonymous":false}],"bytecode":{"object":"0x6101206040523480156200001257600080fd5b50604051620062c9380380620062c98339810160408190526200003591620001f7565b81806001600160a01b03166080816001600160a01b031681525050806001600160a01b031663683048356040518163ffffffff1660e01b8152600401602060405180830381865afa1580156200008f573d6000803e3d6000fd5b505050506040513d601f19601f82011682018060405250810190620000b591906200023e565b6001600160a01b031660a0816001600160a01b031681525050806001600160a01b0316635df459466040518163ffffffff1660e01b8152600401602060405180830381865afa1580156200010d573d6000803e3d6000fd5b505050506040513d601f19601f820116820180604052508101906200013391906200023e565b6001600160a01b031660c0816001600160a01b03168152505060a0516001600160a01b031663df5cf7236040518163ffffffff1660e01b8152600401602060405180830381865afa1580156200018d573d6000803e3d6000fd5b505050506040513d601f19601f82011682018060405250810190620001b391906200023e565b6001600160a01b031660e052506097805460ff1916600117905563ffffffff16610100525062000265565b6001600160a01b0381168114620001f457600080fd5b50565b600080604083850312156200020b57600080fd5b82516200021881620001de565b602084015190925063ffffffff811681146200023357600080fd5b809150509250929050565b6000602082840312156200025157600080fd5b81516200025e81620001de565b9392505050565b60805160a05160c05160e05161010051615fe0620002e9600039600081816105610152610b2701526000818161052a015261283c0152600081816103b50152612a1f0152600081816103dc01528181612bf50152612db7015260008181610416015281816112f8015281816125070152818161269f01526128d90152615fe06000f3fe608060405234801561001057600080fd5b50600436106102065760003560e01c80636b92787e1161011a5780638da5cb5b116100ad578063df5cf7231161007c578063df5cf72314610525578063f2fde38b1461054c578063f5c9899d1461055f578063f8c8765e14610585578063fabc1cbc1461059857600080fd5b80638da5cb5b146104b657806399dba0c4146104c7578063b98d0908146104f7578063cefdc1d41461050457600080fd5b806372d18e8d116100e957806372d18e8d146104615780637afa1eed14610480578063886f1195146104935780638b00ce7c146104a657600080fd5b80636b92787e146103fe5780636d14a987146104115780636efb463614610438578063715018a61461045957600080fd5b80633563b0d11161019d5780635ac86ab71161016c5780635ac86ab7146103555780635c155662146103885780635c975abb146103a85780635df45946146103b057806368304835146103d757600080fd5b80633563b0d1146102fa578063416c7e5e1461031a5780634f739f741461032d578063595c6a671461034d57600080fd5b8063245a7bfc116101d9578063245a7bfc1461027457806327fd8f16146102a75780632cb223d5146102ba5780632d89f6fc146102da57600080fd5b80630373408d1461020b57806310d67a2f14610222578063136439dd14610237578063171f1d5b1461024a575b600080fd5b60d1545b6040519081526020015b60405180910390f35b6102356102303660046143be565b6105ab565b005b6102356102453660046143db565b610667565b61025d610258366004614559565b6107a6565b604080519215158352901515602083015201610219565b60cf5461028f9064010000000090046001600160a01b031681565b6040516001600160a01b039091168152602001610219565b6102356102b536600461486b565b610930565b61020f6102c8366004614902565b60cb6020526000908152604090205481565b61020f6102e8366004614902565b60ca6020526000908152604090205481565b61030d61030836600461491f565b610e60565b6040516102199190614a7a565b610235610328366004614aad565b6112f6565b61034061033b366004614b12565b61146b565b6040516102199190614c16565b610235611b91565b610378610363366004614ce0565b606654600160ff9092169190911b9081161490565b6040519015158152602001610219565b61039b610396366004614cfd565b611c58565b6040516102199190614da9565b60665461020f565b61028f7f000000000000000000000000000000000000000000000000000000000000000081565b61028f7f000000000000000000000000000000000000000000000000000000000000000081565b61023561040c366004614ded565b611e20565b61028f7f000000000000000000000000000000000000000000000000000000000000000081565b61044b610446366004614e48565b612154565b604051610219929190614f08565b61023561306c565b60c95463ffffffff165b60405163ffffffff9091168152602001610219565b60d05461028f906001600160a01b031681565b60655461028f906001600160a01b031681565b60c95461046b9063ffffffff1681565b6033546001600160a01b031661028f565b6104ea6104d5366004614902565b60cc6020526000908152604090205460ff1681565b6040516102199190614f67565b6097546103789060ff1681565b610517610512366004614f8f565b613080565b604051610219929190614fd1565b61028f7f000000000000000000000000000000000000000000000000000000000000000081565b61023561055a3660046143be565b613212565b7f000000000000000000000000000000000000000000000000000000000000000061046b565b610235610593366004614ff2565b613288565b6102356105a63660046143db565b6133ee565b606560009054906101000a90046001600160a01b03166001600160a01b031663eab66d7a6040518163ffffffff1660e01b8152600401602060405180830381865afa1580156105fe573d6000803e3d6000fd5b505050506040513d601f19601f82011682018060405250810190610622919061504e565b6001600160a01b0316336001600160a01b03161461065b5760405162461bcd60e51b81526004016106529061506b565b60405180910390fd5b6106648161354a565b50565b60655460405163237dfb4760e11b81523360048201526001600160a01b03909116906346fbf68e90602401602060405180830381865afa1580156106af573d6000803e3d6000fd5b505050506040513d601f19601f820116820180604052508101906106d391906150b5565b6106ef5760405162461bcd60e51b8152600401610652906150d2565b606654818116146107685760405162461bcd60e51b815260206004820152603860248201527f5061757361626c652e70617573653a20696e76616c696420617474656d70742060448201527f746f20756e70617573652066756e6374696f6e616c69747900000000000000006064820152608401610652565b606681905560405181815233907fab40a374bc51de372200a8bc981af8c9ecdc08dfdaef0bb6e09f88f3c616ef3d906020015b60405180910390a250565b60008060007f30644e72e131a029b85045b68181585d2833e84879b9709143e1f593f0000001878760000151886020015188600001516000600281106107ee576107ee61511a565b60200201518951600160200201518a602001516000600281106108135761081361511a565b60200201518b6020015160016002811061082f5761082f61511a565b602090810291909101518c518d83015160405161088c9a99989796959401988952602089019790975260408801959095526060870193909352608086019190915260a085015260c084015260e08301526101008201526101200190565b6040516020818303038152906040528051906020012060001c6108af9190615130565b90506109226108c86108c18884613641565b86906136d8565b6108d061376c565b61091861090985610903604080518082018252600080825260209182015281518083019092526001825260029082015290565b90613641565b6109128c61382c565b906136d8565b886201d4c06138bc565b909890975095505050505050565b60cf5464010000000090046001600160a01b0316331461097a5760405162461bcd60e51b8152602060048201526005602482015264041757468360dc1b6044820152606401610652565b600061098c6040850160208601614902565b905036600061099e6060870187615152565b909250905060006109b560a0880160808901614902565b905060ca60006109c86020890189614902565b63ffffffff1663ffffffff16815260200190815260200160002054876040516020016109f491906152be565b6040516020818303038152906040528051906020012014610a7d5760405162461bcd60e51b815260206004820152603d60248201527f737570706c696564207461736b20646f6573206e6f74206d617463682074686560448201527f206f6e65207265636f7264656420696e2074686520636f6e74726163740000006064820152608401610652565b600160cc6000610a9060208a018a614902565b63ffffffff16815260208101919091526040016000205460ff166003811115610abb57610abb614f51565b14610ad85760405162461bcd60e51b8152600401610652906152d1565b600060cb81610aea60208a018a614902565b63ffffffff1663ffffffff1681526020019081526020016000205414610b225760405162461bcd60e51b8152600401610652906152d1565b610b4c7f000000000000000000000000000000000000000000000000000000000000000085615333565b63ffffffff164363ffffffff161115610bbd5760405162461bcd60e51b815260206004820152602d60248201527f41676772656761746f722068617320726573706f6e64656420746f207468652060448201526c7461736b20746f6f206c61746560981b6064820152608401610652565b600086604051602001610bd091906159d6565b604051602081830303815290604052805190602001209050600080610bf88387878a8c612154565b6040805160808101825263ffffffff43168152602080820184905280850151828401528451606083015291519395509193509091610c3a918c918491016159e9565b6040516020818303038152906040528051906020012060cb60008c6000016020810190610c679190614902565b63ffffffff1663ffffffff168152602001908152602001600020819055507fd5809e06b9bf8dcbbb702bc9cf6a6f7d5d74f65e20d3cfa3c9dba681b14335078a82604051610cb69291906159e9565b60405180910390a160005b86811015610d57578560ff1684602001518281518110610ce357610ce361511a565b6020026020010151610cf59190615a4a565b6001600160601b0316606485600001518381518110610d1657610d1661511a565b60200260200101516001600160601b0316610d319190615a79565b1015610d4557505050505050505050505050565b80610d4f81615a98565b915050610cc1565b5060a08a013560d155600360cc6000610d7360208e018e614902565b63ffffffff16815260208101919091526040016000205460ff166003811115610d9e57610d9e614f51565b50610db1905060408c0160208d01614902565b60cd805463ffffffff191663ffffffff92909216919091179055610dd860608c018c615152565b610de49160ce91614236565b50610df560a08c0160808d01614902565b60cf805463ffffffff191663ffffffff9290921691909117905560608a0135610e2160208c018c614902565b63ffffffff167f8378be8a33cf3a493910a16e275cd96af4f048c5eb1a2c2962d4066e697fea8060405160405180910390a35050505050505050505050565b60606000846001600160a01b031663683048356040518163ffffffff1660e01b8152600401602060405180830381865afa158015610ea2573d6000803e3d6000fd5b505050506040513d601f19601f82011682018060405250810190610ec6919061504e565b90506000856001600160a01b0316639e9923c26040518163ffffffff1660e01b8152600401602060405180830381865afa158015610f08573d6000803e3d6000fd5b505050506040513d601f19601f82011682018060405250810190610f2c919061504e565b90506000866001600160a01b0316635df459466040518163ffffffff1660e01b8152600401602060405180830381865afa158015610f6e573d6000803e3d6000fd5b505050506040513d601f19601f82011682018060405250810190610f92919061504e565b9050600086516001600160401b03811115610faf57610faf6143f4565b604051908082528060200260200182016040528015610fe257816020015b6060815260200190600190039081610fcd5790505b50905060005b87518110156112ea5760008882815181106110055761100561511a565b0160200151604051638902624560e01b815260f89190911c6004820181905263ffffffff8a16602483015291506000906001600160a01b03871690638902624590604401600060405180830381865afa158015611066573d6000803e3d6000fd5b505050506040513d6000823e601f3d908101601f1916820160405261108e9190810190615ab3565b905080516001600160401b038111156110a9576110a96143f4565b6040519080825280602002602001820160405280156110f457816020015b60408051606081018252600080825260208083018290529282015282526000199092019101816110c75790505b508484815181106111075761110761511a565b602002602001018190525060005b81518110156112d4576040518060600160405280876001600160a01b03166347b314e885858151811061114a5761114a61511a565b60200260200101516040518263ffffffff1660e01b815260040161117091815260200190565b602060405180830381865afa15801561118d573d6000803e3d6000fd5b505050506040513d601f19601f820116820180604052508101906111b1919061504e565b6001600160a01b031681526020018383815181106111d1576111d161511a565b60200260200101518152602001896001600160a01b031663fa28c6278585815181106111ff576111ff61511a565b60209081029190910101516040516001600160e01b031960e084901b168152600481019190915260ff8816602482015263ffffffff8f166044820152606401602060405180830381865afa15801561125b573d6000803e3d6000fd5b505050506040513d601f19601f8201168201806040525081019061127f9190615b38565b6001600160601b031681525085858151811061129d5761129d61511a565b602002602001015182815181106112b6576112b661511a565b602002602001018190525080806112cc90615a98565b915050611115565b50505080806112e290615a98565b915050610fe8565b50979650505050505050565b7f00000000000000000000000000000000000000000000000000000000000000006001600160a01b0316638da5cb5b6040518163ffffffff1660e01b8152600401602060405180830381865afa158015611354573d6000803e3d6000fd5b505050506040513d601f19601f82011682018060405250810190611378919061504e565b6001600160a01b0316336001600160a01b0316146114245760405162461bcd60e51b815260206004820152605c60248201527f424c535369676e6174757265436865636b65722e6f6e6c79436f6f7264696e6160448201527f746f724f776e65723a2063616c6c6572206973206e6f7420746865206f776e6560648201527f72206f6620746865207265676973747279436f6f7264696e61746f7200000000608482015260a401610652565b6097805460ff19168215159081179091556040519081527f40e4ed880a29e0f6ddce307457fb75cddf4feef7d3ecb0301bfdf4976a0e2dfc9060200160405180910390a150565b6114966040518060800160405280606081526020016060815260200160608152602001606081525090565b6000876001600160a01b031663683048356040518163ffffffff1660e01b8152600401602060405180830381865afa1580156114d6573d6000803e3d6000fd5b505050506040513d601f19601f820116820180604052508101906114fa919061504e565b90506115276040518060800160405280606081526020016060815260200160608152602001606081525090565b6040516361c8a12f60e11b81526001600160a01b038a169063c391425e90611557908b9089908990600401615b55565b600060405180830381865afa158015611574573d6000803e3d6000fd5b505050506040513d6000823e601f3d908101601f1916820160405261159c9190810190615b7e565b81526040516340e03a8160e11b81526001600160a01b038316906381c07502906115ce908b908b908b90600401615c0c565b600060405180830381865afa1580156115eb573d6000803e3d6000fd5b505050506040513d6000823e601f3d908101601f191682016040526116139190810190615b7e565b6040820152856001600160401b03811115611630576116306143f4565b60405190808252806020026020018201604052801561166357816020015b606081526020019060019003908161164e5790505b50606082015260005b60ff8116871115611aa2576000856001600160401b03811115611691576116916143f4565b6040519080825280602002602001820160405280156116ba578160200160208202803683370190505b5083606001518360ff16815181106116d4576116d461511a565b602002602001018190525060005b868110156119a25760008c6001600160a01b03166304ec63518a8a8581811061170d5761170d61511a565b905060200201358e8860000151868151811061172b5761172b61511a565b60200260200101516040518463ffffffff1660e01b81526004016117689392919092835263ffffffff918216602084015216604082015260600190565b602060405180830381865afa158015611785573d6000803e3d6000fd5b505050506040513d601f19601f820116820180604052508101906117a99190615c2c565b90506001600160c01b03811661184d5760405162461bcd60e51b815260206004820152605c60248201527f4f70657261746f7253746174655265747269657665722e676574436865636b5360448201527f69676e617475726573496e64696365733a206f70657261746f72206d7573742060648201527f6265207265676973746572656420617420626c6f636b6e756d62657200000000608482015260a401610652565b8a8a8560ff168181106118625761186261511a565b6001600160c01b03841692013560f81c9190911c60019081161415905061198f57856001600160a01b031663dd9846b98a8a858181106118a4576118a461511a565b905060200201358d8d8860ff168181106118c0576118c061511a565b6040516001600160e01b031960e087901b1681526004810194909452919091013560f81c60248301525063ffffffff8f166044820152606401602060405180830381865afa158015611916573d6000803e3d6000fd5b505050506040513d601f19601f8201168201806040525081019061193a9190615c55565b85606001518560ff16815181106119535761195361511a565b6020026020010151848151811061196c5761196c61511a565b63ffffffff909216602092830291909101909101528261198b81615a98565b9350505b508061199a81615a98565b9150506116e2565b506000816001600160401b038111156119bd576119bd6143f4565b6040519080825280602002602001820160405280156119e6578160200160208202803683370190505b50905060005b82811015611a675784606001518460ff1681518110611a0d57611a0d61511a565b60200260200101518181518110611a2657611a2661511a565b6020026020010151828281518110611a4057611a4061511a565b63ffffffff9092166020928302919091019091015280611a5f81615a98565b9150506119ec565b508084606001518460ff1681518110611a8257611a8261511a565b602002602001018190525050508080611a9a90615c72565b91505061166c565b506000896001600160a01b0316635df459466040518163ffffffff1660e01b8152600401602060405180830381865afa158015611ae3573d6000803e3d6000fd5b505050506040513d601f19601f82011682018060405250810190611b07919061504e565b60405163354952a360e21b81529091506001600160a01b0382169063d5254a8c90611b3a908b908b908e90600401615c92565b600060405180830381865afa158015611b57573d6000803e3d6000fd5b505050506040513d6000823e601f3d908101601f19168201604052611b7f9190810190615b7e565b60208301525098975050505050505050565b60655460405163237dfb4760e11b81523360048201526001600160a01b03909116906346fbf68e90602401602060405180830381865afa158015611bd9573d6000803e3d6000fd5b505050506040513d601f19601f82011682018060405250810190611bfd91906150b5565b611c195760405162461bcd60e51b8152600401610652906150d2565b600019606681905560405190815233907fab40a374bc51de372200a8bc981af8c9ecdc08dfdaef0bb6e09f88f3c616ef3d9060200160405180910390a2565b60606000846001600160a01b031663c391425e84866040518363ffffffff1660e01b8152600401611c8a929190615cbc565b600060405180830381865afa158015611ca7573d6000803e3d6000fd5b505050506040513d6000823e601f3d908101601f19168201604052611ccf9190810190615b7e565b9050600084516001600160401b03811115611cec57611cec6143f4565b604051908082528060200260200182016040528015611d15578160200160208202803683370190505b50905060005b8551811015611e1657866001600160a01b03166304ec6351878381518110611d4557611d4561511a565b602002602001015187868581518110611d6057611d6061511a565b60200260200101516040518463ffffffff1660e01b8152600401611d9d9392919092835263ffffffff918216602084015216604082015260600190565b602060405180830381865afa158015611dba573d6000803e3d6000fd5b505050506040513d601f19601f82011682018060405250810190611dde9190615c2c565b6001600160c01b0316828281518110611df957611df961511a565b602090810291909101015280611e0e81615a98565b915050611d1b565b5095945050505050565b60d0546001600160a01b03163314611e625760405162461bcd60e51b8152602060048201526005602482015264417574683160d81b6044820152606401610652565b60cd5463ffffffff164314801590611e7957504315155b611eeb5760405162461bcd60e51b815260206004820152603960248201527f43616e2774206372656174652061207461736b20696e207468652073616d652060448201527f626c6f636b206173206120636f6d706c65746564207461736b000000000000006064820152608401610652565b6040805160e0810182526000818301819052606080830181905260a083015260c082015285815263ffffffff43811660208084019190915290861660808301528251601f85018290048202810182019093528383529091908490849081908401838280828437600092019190915250505050606082015260cd5463ffffffff16604082015260ce8054611f7d90615d10565b80601f0160208091040260200160405190810160405280929190818152602001828054611fa990615d10565b8015611ff65780601f10611fcb57610100808354040283529160200191611ff6565b820191906000526020600020905b815481529060010190602001808311611fd957829003601f168201915b505050505060a082015260cf5463ffffffff90811660c083015260c95416156120885760c9546000906120319060019063ffffffff16615d4b565b9050600163ffffffff8216600090815260cc602052604090205460ff16600381111561205f5761205f614f51565b14156120865763ffffffff8116600090815260cc60205260409020805460ff191660021790555b505b806040516020016120999190615dbd565b60408051808303601f19018152828252805160209182012060c9805463ffffffff908116600090815260ca85528581209390935581548116835260cc909352929020805460ff19166001179055905416907f933fbdf390ba7173f9bf83f5459edf1ae41ae5edbde6c8f9b374d979d30900be90612117908490615dbd565b60405180910390a260c9546121339063ffffffff166001615333565b60c9805463ffffffff191663ffffffff929092169190911790555050505050565b60408051808201909152606080825260208201526000846121cb5760405162461bcd60e51b81526020600482015260376024820152600080516020615f8b83398151915260448201527f7265733a20656d7074792071756f72756d20696e7075740000000000000000006064820152608401610652565b604083015151851480156121e3575060a08301515185145b80156121f3575060c08301515185145b8015612203575060e08301515185145b61226d5760405162461bcd60e51b81526020600482015260416024820152600080516020615f8b83398151915260448201527f7265733a20696e7075742071756f72756d206c656e677468206d69736d6174636064820152600d60fb1b608482015260a401610652565b825151602084015151146122e55760405162461bcd60e51b815260206004820152604460248201819052600080516020615f8b833981519152908201527f7265733a20696e707574206e6f6e7369676e6572206c656e677468206d69736d6064820152630c2e8c6d60e31b608482015260a401610652565b4363ffffffff168463ffffffff16106123545760405162461bcd60e51b815260206004820152603c6024820152600080516020615f8b83398151915260448201527f7265733a20696e76616c6964207265666572656e636520626c6f636b000000006064820152608401610652565b6040805180820182526000808252602080830191909152825180840190935260608084529083015290866001600160401b03811115612395576123956143f4565b6040519080825280602002602001820160405280156123be578160200160208202803683370190505b506020820152866001600160401b038111156123dc576123dc6143f4565b604051908082528060200260200182016040528015612405578160200160208202803683370190505b50815260408051808201909152606080825260208201528560200151516001600160401b03811115612439576124396143f4565b604051908082528060200260200182016040528015612462578160200160208202803683370190505b5081526020860151516001600160401b03811115612482576124826143f4565b6040519080825280602002602001820160405280156124ab578160200160208202803683370190505b508160200181905250600061257d8a8a8080601f0160208091040260200160405190810160405280939291908181526020018383808284376000920191909152505060408051639aa1653d60e01b815290516001600160a01b037f0000000000000000000000000000000000000000000000000000000000000000169350639aa1653d925060048083019260209291908290030181865afa158015612554573d6000803e3d6000fd5b505050506040513d601f19601f820116820180604052508101906125789190615e50565b613ae0565b905060005b876020015151811015612818576125c7886020015182815181106125a8576125a861511a565b6020026020010151805160009081526020918201519091526040902090565b836020015182815181106125dd576125dd61511a565b6020908102919091010152801561269d5760208301516125fe600183615e6d565b8151811061260e5761260e61511a565b602002602001015160001c8360200151828151811061262f5761262f61511a565b602002602001015160001c1161269d576040805162461bcd60e51b8152602060048201526024810191909152600080516020615f8b83398151915260448201527f7265733a206e6f6e5369676e65725075626b657973206e6f7420736f727465646064820152608401610652565b7f00000000000000000000000000000000000000000000000000000000000000006001600160a01b03166304ec6351846020015183815181106126e2576126e261511a565b60200260200101518b8b6000015185815181106127015761270161511a565b60200260200101516040518463ffffffff1660e01b815260040161273e9392919092835263ffffffff918216602084015216604082015260600190565b602060405180830381865afa15801561275b573d6000803e3d6000fd5b505050506040513d601f19601f8201168201806040525081019061277f9190615c2c565b6001600160c01b03168360000151828151811061279e5761279e61511a565b6020026020010181815250506128046108c16127d884866000015185815181106127ca576127ca61511a565b602002602001015116613b73565b8a6020015184815181106127ee576127ee61511a565b6020026020010151613b9e90919063ffffffff16565b94508061281081615a98565b915050612582565b505061282383613c82565b60975490935060ff1660008161283a5760006128bc565b7f00000000000000000000000000000000000000000000000000000000000000006001600160a01b031663c448feb86040518163ffffffff1660e01b8152600401602060405180830381865afa158015612898573d6000803e3d6000fd5b505050506040513d601f19601f820116820180604052508101906128bc9190615e84565b905060005b8a811015612f3b578215612a1d578963ffffffff16827f00000000000000000000000000000000000000000000000000000000000000006001600160a01b031663249a0c428f8f868181106129185761291861511a565b60405160e085901b6001600160e01b031916815292013560f81c600483015250602401602060405180830381865afa158015612958573d6000803e3d6000fd5b505050506040513d601f19601f8201168201806040525081019061297c9190615e84565b6129869190615e9d565b1015612a1d5760405162461bcd60e51b81526020600482015260666024820152600080516020615f8b83398151915260448201527f7265733a205374616b6552656769737472792075706461746573206d7573742060648201527f62652077697468696e207769746864726177616c44656c6179426c6f636b732060848201526577696e646f7760d01b60a482015260c401610652565b7f00000000000000000000000000000000000000000000000000000000000000006001600160a01b03166368bccaac8d8d84818110612a5e57612a5e61511a565b9050013560f81c60f81b60f81c8c8c60a001518581518110612a8257612a8261511a565b60209081029190910101516040516001600160e01b031960e086901b16815260ff909316600484015263ffffffff9182166024840152166044820152606401602060405180830381865afa158015612ade573d6000803e3d6000fd5b505050506040513d601f19601f82011682018060405250810190612b029190615eb5565b6001600160401b031916612b258a6040015183815181106125a8576125a861511a565b67ffffffffffffffff191614612bc15760405162461bcd60e51b81526020600482015260616024820152600080516020615f8b83398151915260448201527f7265733a2071756f72756d41706b206861736820696e2073746f72616765206460648201527f6f6573206e6f74206d617463682070726f76696465642071756f72756d2061706084820152606b60f81b60a482015260c401610652565b612bf189604001518281518110612bda57612bda61511a565b6020026020010151876136d890919063ffffffff16565b95507f00000000000000000000000000000000000000000000000000000000000000006001600160a01b031663c8294c568d8d84818110612c3457612c3461511a565b9050013560f81c60f81b60f81c8c8c60c001518581518110612c5857612c5861511a565b60209081029190910101516040516001600160e01b031960e086901b16815260ff909316600484015263ffffffff9182166024840152166044820152606401602060405180830381865afa158015612cb4573d6000803e3d6000fd5b505050506040513d601f19601f82011682018060405250810190612cd89190615b38565b85602001518281518110612cee57612cee61511a565b6001600160601b03909216602092830291909101820152850151805182908110612d1a57612d1a61511a565b602002602001015185600001518281518110612d3857612d3861511a565b60200260200101906001600160601b031690816001600160601b0316815250506000805b8a6020015151811015612f2657612db086600001518281518110612d8257612d8261511a565b60200260200101518f8f86818110612d9c57612d9c61511a565b600192013560f81c9290921c811614919050565b15612f14577f00000000000000000000000000000000000000000000000000000000000000006001600160a01b031663f2be94ae8f8f86818110612df657612df661511a565b9050013560f81c60f81b60f81c8e89602001518581518110612e1a57612e1a61511a565b60200260200101518f60e001518881518110612e3857612e3861511a565b60200260200101518781518110612e5157612e5161511a565b60209081029190910101516040516001600160e01b031960e087901b16815260ff909416600485015263ffffffff92831660248501526044840191909152166064820152608401602060405180830381865afa158015612eb5573d6000803e3d6000fd5b505050506040513d601f19601f82011682018060405250810190612ed99190615b38565b8751805185908110612eed57612eed61511a565b60200260200101818151612f019190615ee0565b6001600160601b03169052506001909101905b80612f1e81615a98565b915050612d5c565b50508080612f3390615a98565b9150506128c1565b505050600080612f558c868a606001518b608001516107a6565b9150915081612fc65760405162461bcd60e51b81526020600482015260436024820152600080516020615f8b83398151915260448201527f7265733a2070616972696e6720707265636f6d70696c652063616c6c206661696064820152621b195960ea1b608482015260a401610652565b806130275760405162461bcd60e51b81526020600482015260396024820152600080516020615f8b83398151915260448201527f7265733a207369676e617475726520697320696e76616c6964000000000000006064820152608401610652565b50506000878260200151604051602001613042929190615f00565b60408051808303601f190181529190528051602090910120929b929a509198505050505050505050565b613074613d1d565b61307e6000613d77565b565b60408051600180825281830190925260009160609183916020808301908036833701905050905084816000815181106130bb576130bb61511a565b60209081029190910101526040516361c8a12f60e11b81526000906001600160a01b0388169063c391425e906130f79088908690600401615cbc565b600060405180830381865afa158015613114573d6000803e3d6000fd5b505050506040513d6000823e601f3d908101601f1916820160405261313c9190810190615b7e565b60008151811061314e5761314e61511a565b60209081029190910101516040516304ec635160e01b81526004810188905263ffffffff87811660248301529091166044820181905291506000906001600160a01b038916906304ec635190606401602060405180830381865afa1580156131ba573d6000803e3d6000fd5b505050506040513d601f19601f820116820180604052508101906131de9190615c2c565b6001600160c01b0316905060006131f482613dc9565b9050816132028a838a610e60565b9550955050505050935093915050565b61321a613d1d565b6001600160a01b03811661327f5760405162461bcd60e51b815260206004820152602660248201527f4f776e61626c653a206e6577206f776e657220697320746865207a65726f206160448201526564647265737360d01b6064820152608401610652565b61066481613d77565b600054610100900460ff16158080156132a85750600054600160ff909116105b806132c25750303b1580156132c2575060005460ff166001145b6133255760405162461bcd60e51b815260206004820152602e60248201527f496e697469616c697a61626c653a20636f6e747261637420697320616c72656160448201526d191e481a5b9a5d1a585b1a5e995960921b6064820152608401610652565b6000805460ff191660011790558015613348576000805461ff0019166101001790555b613353856000613e95565b61335c84613d77565b60cf8054640100000000600160c01b0319166401000000006001600160a01b03868116919091029190911790915560d080546001600160a01b03191691841691909117905580156133e7576000805461ff0019169055604051600181527f7f26b83ff96e1f2b6a682f133852f6798a09c465da95921460cefb38474024989060200160405180910390a15b5050505050565b606560009054906101000a90046001600160a01b03166001600160a01b031663eab66d7a6040518163ffffffff1660e01b8152600401602060405180830381865afa158015613441573d6000803e3d6000fd5b505050506040513d601f19601f82011682018060405250810190613465919061504e565b6001600160a01b0316336001600160a01b0316146134955760405162461bcd60e51b81526004016106529061506b565b6066541981196066541916146135135760405162461bcd60e51b815260206004820152603860248201527f5061757361626c652e756e70617573653a20696e76616c696420617474656d7060448201527f7420746f2070617573652066756e6374696f6e616c69747900000000000000006064820152608401610652565b606681905560405181815233907f3582d1828e26bf56bd801502bc021ac0bc8afb57c826e4986b45593c8fad389c9060200161079b565b6001600160a01b0381166135d85760405162461bcd60e51b815260206004820152604960248201527f5061757361626c652e5f73657450617573657252656769737472793a206e657760448201527f50617573657252656769737472792063616e6e6f7420626520746865207a65726064820152686f206164647265737360b81b608482015260a401610652565b606554604080516001600160a01b03928316815291831660208301527f6e9fcd539896fca60e8b0f01dd580233e48a6b0f7df013b89ba7f565869acdb6910160405180910390a1606580546001600160a01b0319166001600160a01b0392909216919091179055565b604080518082019091526000808252602082015261365d6142ba565b835181526020808501519082015260408082018490526000908360608460076107d05a03fa905080801561369057613692565bfe5b50806136d05760405162461bcd60e51b815260206004820152600d60248201526c1958cb5b5d5b0b59985a5b1959609a1b6044820152606401610652565b505092915050565b60408051808201909152600080825260208201526136f46142d8565b835181526020808501518183015283516040808401919091529084015160608301526000908360808460066107d05a03fa90508080156136905750806136d05760405162461bcd60e51b815260206004820152600d60248201526c1958cb5859190b59985a5b1959609a1b6044820152606401610652565b6137746142f6565b50604080516080810182527f198e9393920d483a7260bfb731fb5d25f1aa493335a9e71297e485b7aef312c28183019081527f1800deef121f1e76426a00665e5c4479674322d4f75edadd46debd5cd992f6ed6060830152815281518083019092527f275dc4a288d1afb3cbb1ac09187524c7db36395df7be3b99e673b13a075a65ec82527f1d9befcd05a5323e6da4d435f3b617cdb3af83285c2df711ef39c01571827f9d60208381019190915281019190915290565b60408051808201909152600080825260208201526000808061385c600080516020615f6b83398151915286615130565b90505b61386881613f7f565b9093509150600080516020615f6b8339815191528283098314156138a2576040805180820190915290815260208101919091529392505050565b600080516020615f6b83398151915260018208905061385f565b6040805180820182528681526020808201869052825180840190935286835282018490526000918291906138ee61431b565b60005b6002811015613ab3576000613907826006615a79565b905084826002811061391b5761391b61511a565b6020020151518361392d836000615e9d565b600c811061393d5761393d61511a565b60200201528482600281106139545761395461511a565b6020020151602001518382600161396b9190615e9d565b600c811061397b5761397b61511a565b60200201528382600281106139925761399261511a565b60200201515151836139a5836002615e9d565b600c81106139b5576139b561511a565b60200201528382600281106139cc576139cc61511a565b60200201515160016020020151836139e5836003615e9d565b600c81106139f5576139f561511a565b6020020152838260028110613a0c57613a0c61511a565b602002015160200151600060028110613a2757613a2761511a565b602002015183613a38836004615e9d565b600c8110613a4857613a4861511a565b6020020152838260028110613a5f57613a5f61511a565b602002015160200151600160028110613a7a57613a7a61511a565b602002015183613a8b836005615e9d565b600c8110613a9b57613a9b61511a565b60200201525080613aab81615a98565b9150506138f1565b50613abc61433a565b60006020826101808560088cfa9151919c9115159b50909950505050505050505050565b600080613aec84614001565b9050808360ff166001901b11613b6a5760405162461bcd60e51b815260206004820152603f60248201527f4269746d61705574696c732e6f72646572656442797465734172726179546f4260448201527f69746d61703a206269746d61702065786365656473206d61782076616c7565006064820152608401610652565b90505b92915050565b6000805b8215613b6d57613b88600184615e6d565b9092169180613b9681615f48565b915050613b77565b60408051808201909152600080825260208201526102008261ffff1610613bfa5760405162461bcd60e51b815260206004820152601060248201526f7363616c61722d746f6f2d6c6172676560801b6044820152606401610652565b8161ffff1660011415613c0e575081613b6d565b6040805180820190915260008082526020820181905284906001905b8161ffff168661ffff1610613c7757600161ffff871660ff83161c81161415613c5a57613c5784846136d8565b93505b613c6483846136d8565b92506201fffe600192831b169101613c2a565b509195945050505050565b60408051808201909152600080825260208201528151158015613ca757506020820151155b15613cc5575050604080518082019091526000808252602082015290565b604051806040016040528083600001518152602001600080516020615f6b8339815191528460200151613cf89190615130565b613d1090600080516020615f6b833981519152615e6d565b905292915050565b919050565b6033546001600160a01b0316331461307e5760405162461bcd60e51b815260206004820181905260248201527f4f776e61626c653a2063616c6c6572206973206e6f7420746865206f776e65726044820152606401610652565b603380546001600160a01b038381166001600160a01b0319831681179093556040519116919082907f8be0079c531659141344cd1fd0a4f28419497f9722a3daafe3b4186f6b6457e090600090a35050565b6060600080613dd784613b73565b61ffff166001600160401b03811115613df257613df26143f4565b6040519080825280601f01601f191660200182016040528015613e1c576020820181803683370190505b5090506000805b825182108015613e34575061010081105b15613e8b576001811b935085841615613e7b578060f81b838381518110613e5d57613e5d61511a565b60200101906001600160f81b031916908160001a9053508160010191505b613e8481615a98565b9050613e23565b5090949350505050565b6065546001600160a01b0316158015613eb657506001600160a01b03821615155b613f385760405162461bcd60e51b815260206004820152604760248201527f5061757361626c652e5f696e697469616c697a655061757365723a205f696e6960448201527f7469616c697a6550617573657228292063616e206f6e6c792062652063616c6c6064820152666564206f6e636560c81b608482015260a401610652565b606681905560405181815233907fab40a374bc51de372200a8bc981af8c9ecdc08dfdaef0bb6e09f88f3c616ef3d9060200160405180910390a2613f7b8261354a565b5050565b60008080600080516020615f6b8339815191526003600080516020615f6b83398151915286600080516020615f6b833981519152888909090890506000613ff5827f0c19139cb84c680a6e14116da060561765e05aa45a1c72a34f082305b61f3f52600080516020615f6b83398151915261418e565b91959194509092505050565b60006101008251111561408a5760405162461bcd60e51b8152602060048201526044602482018190527f4269746d61705574696c732e6f72646572656442797465734172726179546f42908201527f69746d61703a206f7264657265644279746573417272617920697320746f6f206064820152636c6f6e6760e01b608482015260a401610652565b815161409857506000919050565b600080836000815181106140ae576140ae61511a565b0160200151600160f89190911c81901b92505b8451811015614185578481815181106140dc576140dc61511a565b0160200151600160f89190911c1b91508282116141715760405162461bcd60e51b815260206004820152604760248201527f4269746d61705574696c732e6f72646572656442797465734172726179546f4260448201527f69746d61703a206f72646572656442797465734172726179206973206e6f74206064820152661bdc99195c995960ca1b608482015260a401610652565b9181179161417e81615a98565b90506140c1565b50909392505050565b60008061419961433a565b6141a1614358565b602080825281810181905260408201819052606082018890526080820187905260a082018690528260c08360056107d05a03fa925082801561369057508261422b5760405162461bcd60e51b815260206004820152601a60248201527f424e3235342e6578704d6f643a2063616c6c206661696c7572650000000000006044820152606401610652565b505195945050505050565b82805461424290615d10565b90600052602060002090601f01602090048101928261426457600085556142aa565b82601f1061427d5782800160ff198235161785556142aa565b828001600101855582156142aa579182015b828111156142aa57823582559160200191906001019061428f565b506142b6929150614376565b5090565b60405180606001604052806003906020820280368337509192915050565b60405180608001604052806004906020820280368337509192915050565b604051806040016040528061430961438b565b815260200161431661438b565b905290565b604051806101800160405280600c906020820280368337509192915050565b60405180602001604052806001906020820280368337509192915050565b6040518060c001604052806006906020820280368337509192915050565b5b808211156142b65760008155600101614377565b60405180604001604052806002906020820280368337509192915050565b6001600160a01b038116811461066457600080fd5b6000602082840312156143d057600080fd5b8135613b6a816143a9565b6000602082840312156143ed57600080fd5b5035919050565b634e487b7160e01b600052604160045260246000fd5b604080519081016001600160401b038111828210171561442c5761442c6143f4565b60405290565b60405161010081016001600160401b038111828210171561442c5761442c6143f4565b604051601f8201601f191681016001600160401b038111828210171561447d5761447d6143f4565b604052919050565b60006040828403121561449757600080fd5b61449f61440a565b9050813581526020820135602082015292915050565b600082601f8301126144c657600080fd5b604051604081018181106001600160401b03821117156144e8576144e86143f4565b80604052508060408401858111156144ff57600080fd5b845b81811015613c77578035835260209283019201614501565b60006080828403121561452b57600080fd5b61453361440a565b905061453f83836144b5565b815261454e83604084016144b5565b602082015292915050565b600080600080610120858703121561457057600080fd5b843593506145818660208701614485565b92506145908660608701614519565b915061459f8660e08701614485565b905092959194509250565b60006001600160401b038211156145c3576145c36143f4565b5060051b60200190565b63ffffffff8116811461066457600080fd5b8035613d18816145cd565b600082601f8301126145fb57600080fd5b8135602061461061460b836145aa565b614455565b82815260059290921b8401810191818101908684111561462f57600080fd5b8286015b84811015614653578035614646816145cd565b8352918301918301614633565b509695505050505050565b600082601f83011261466f57600080fd5b8135602061467f61460b836145aa565b82815260069290921b8401810191818101908684111561469e57600080fd5b8286015b84811015614653576146b48882614485565b8352918301916040016146a2565b600082601f8301126146d357600080fd5b813560206146e361460b836145aa565b82815260059290921b8401810191818101908684111561470257600080fd5b8286015b848110156146535780356001600160401b038111156147255760008081fd5b6147338986838b01016145ea565b845250918301918301614706565b6000610180828403121561475457600080fd5b61475c614432565b905081356001600160401b038082111561477557600080fd5b614781858386016145ea565b8352602084013591508082111561479757600080fd5b6147a38583860161465e565b602084015260408401359150808211156147bc57600080fd5b6147c88583860161465e565b60408401526147da8560608601614519565b60608401526147ec8560e08601614485565b608084015261012084013591508082111561480657600080fd5b614812858386016145ea565b60a084015261014084013591508082111561482c57600080fd5b614838858386016145ea565b60c084015261016084013591508082111561485257600080fd5b5061485f848285016146c2565b60e08301525092915050565b60008060006060848603121561488057600080fd5b83356001600160401b038082111561489757600080fd5b9085019060e082880312156148ab57600080fd5b909350602085013590808211156148c157600080fd5b9085019060c082880312156148d557600080fd5b909250604085013590808211156148eb57600080fd5b506148f886828701614741565b9150509250925092565b60006020828403121561491457600080fd5b8135613b6a816145cd565b60008060006060848603121561493457600080fd5b833561493f816143a9565b92506020848101356001600160401b038082111561495c57600080fd5b818701915087601f83011261497057600080fd5b813581811115614982576149826143f4565b614994601f8201601f19168501614455565b915080825288848285010111156149aa57600080fd5b80848401858401376000848284010152508094505050506149cd604085016145df565b90509250925092565b600081518084526020808501808196508360051b810191508286016000805b86811015614a6c578385038a52825180518087529087019087870190845b81811015614a5757835180516001600160a01b031684528a8101518b8501526040908101516001600160601b03169084015292890192606090920191600101614a13565b50509a87019a955050918501916001016149f5565b509298975050505050505050565b602081526000614a8d60208301846149d6565b9392505050565b801515811461066457600080fd5b8035613d1881614a94565b600060208284031215614abf57600080fd5b8135613b6a81614a94565b60008083601f840112614adc57600080fd5b5081356001600160401b03811115614af357600080fd5b602083019150836020828501011115614b0b57600080fd5b9250929050565b60008060008060008060808789031215614b2b57600080fd5b8635614b36816143a9565b95506020870135614b46816145cd565b945060408701356001600160401b0380821115614b6257600080fd5b614b6e8a838b01614aca565b90965094506060890135915080821115614b8757600080fd5b818901915089601f830112614b9b57600080fd5b813581811115614baa57600080fd5b8a60208260051b8501011115614bbf57600080fd5b6020830194508093505050509295509295509295565b600081518084526020808501945080840160005b83811015614c0b57815163ffffffff1687529582019590820190600101614be9565b509495945050505050565b600060208083528351608082850152614c3260a0850182614bd5565b905081850151601f1980868403016040870152614c4f8383614bd5565b92506040870151915080868403016060870152614c6c8383614bd5565b60608801518782038301608089015280518083529194508501925084840190600581901b8501860160005b82811015614cc35784878303018452614cb1828751614bd5565b95880195938801939150600101614c97565b509998505050505050505050565b60ff8116811461066457600080fd5b600060208284031215614cf257600080fd5b8135613b6a81614cd1565b600080600060608486031215614d1257600080fd5b8335614d1d816143a9565b92506020848101356001600160401b03811115614d3957600080fd5b8501601f81018713614d4a57600080fd5b8035614d5861460b826145aa565b81815260059190911b82018301908381019089831115614d7757600080fd5b928401925b82841015614d9557833582529284019290840190614d7c565b80965050505050506149cd604085016145df565b6020808252825182820181905260009190848201906040850190845b81811015614de157835183529284019291840191600101614dc5565b50909695505050505050565b60008060008060608587031215614e0357600080fd5b843593506020850135614e15816145cd565b925060408501356001600160401b03811115614e3057600080fd5b614e3c87828801614aca565b95989497509550505050565b600080600080600060808688031215614e6057600080fd5b8535945060208601356001600160401b0380821115614e7e57600080fd5b614e8a89838a01614aca565b909650945060408801359150614e9f826145cd565b90925060608701359080821115614eb557600080fd5b50614ec288828901614741565b9150509295509295909350565b600081518084526020808501945080840160005b83811015614c0b5781516001600160601b031687529582019590820190600101614ee3565b6040815260008351604080840152614f236080840182614ecf565b90506020850151603f19848303016060850152614f408282614ecf565b925050508260208301529392505050565b634e487b7160e01b600052602160045260246000fd5b6020810160048310614f8957634e487b7160e01b600052602160045260246000fd5b91905290565b600080600060608486031215614fa457600080fd5b8335614faf816143a9565b9250602084013591506040840135614fc6816145cd565b809150509250925092565b828152604060208201526000614fea60408301846149d6565b949350505050565b6000806000806080858703121561500857600080fd5b8435615013816143a9565b93506020850135615023816143a9565b92506040850135615033816143a9565b91506060850135615043816143a9565b939692955090935050565b60006020828403121561506057600080fd5b8151613b6a816143a9565b6020808252602a908201527f6d73672e73656e646572206973206e6f74207065726d697373696f6e6564206160408201526939903ab73830bab9b2b960b11b606082015260800190565b6000602082840312156150c757600080fd5b8151613b6a81614a94565b60208082526028908201527f6d73672e73656e646572206973206e6f74207065726d697373696f6e6564206160408201526739903830bab9b2b960c11b606082015260800190565b634e487b7160e01b600052603260045260246000fd5b60008261514d57634e487b7160e01b600052601260045260246000fd5b500690565b6000808335601e1984360301811261516957600080fd5b8301803591506001600160401b0382111561518357600080fd5b602001915036819003821315614b0b57600080fd5b6000808335601e198436030181126151af57600080fd5b83016020810192503590506001600160401b038111156151ce57600080fd5b803603831315614b0b57600080fd5b81835281816020850137506000828201602090810191909152601f909101601f19169091010190565b803582526000602082013561521a816145cd565b63ffffffff9081166020850152604083013590615236826145cd565b808216604086015261524b6060850185615198565b925060e0606087015261526260e0870184836151dd565b9250506080840135615273816145cd565b8116608086015261528760a0850185615198565b86840360a088015261529a8482846151dd565b9350505060c08401356152ac816145cd565b1660c094909401939093525090919050565b602081526000614a8d6020830184615206565b6020808252602c908201527f41676772656761746f722068617320616c726561647920726573706f6e64656460408201526b20746f20746865207461736b60a01b606082015260800190565b634e487b7160e01b600052601160045260246000fd5b600063ffffffff8083168185168083038211156153525761535261531d565b01949350505050565b6000808335601e1984360301811261537257600080fd5b83016020810192503590506001600160401b0381111561539157600080fd5b8060051b3603831315614b0b57600080fd5b8183526000602080850194508260005b85811015614c0b5781356153c681614cd1565b60ff16875295820195908201906001016153b3565b6000808335601e198436030181126153f257600080fd5b83016020810192503590506001600160401b0381111561541157600080fd5b8060071b3603831315614b0b57600080fd5b6001600160601b038116811461066457600080fd5b8183526000602080850194508260005b85811015614c0b57813561545b81614cd1565b60ff1687528183013561546d81615423565b6001600160601b031687840152604082810135908801526060808301359088015260809687019690910190600101615448565b6000808335601e198436030181126154b757600080fd5b83016020810192503590506001600160401b038111156154d657600080fd5b8060061b3603831315614b0b57600080fd5b8183526000602080850194508260005b85811015614c0b57813561550b81614cd1565b60ff1687528183013561551d81615423565b6001600160601b03168784015260409687019691909101906001016154f8565b6000808335601e1984360301811261555457600080fd5b83016020810192503590506001600160401b0381111561557357600080fd5b606081023603831315614b0b57600080fd5b8183526000602080850194508260005b85811015614c0b5781356155a881614cd1565b60ff1687526155c583880183850180358252602090810135910152565b6060968701969190910190600101615595565b81835260006001600160fb1b038311156155f157600080fd5b8260051b8083602087013760009401602001938452509192915050565b8183526000602080850194508260005b85811015614c0b57813561563181615423565b6001600160601b03168752958201959082019060010161561e565b81835260006020808501808196508560051b81019150846000805b88811015614a6c578385038a528235607e19893603018112615687578283fd5b880180358652608061569b8883018361535b565b828a8a01526156ad838a0182846153a3565b9250505060406156bf8184018461535b565b898403838b01526156d184828461560e565b935050505060608083013592506156e783614cd1565b60ff9290921696909101959095529885019891850191600101615667565b81835260006020808501808196508560051b81019150846000805b88811015614a6c578385038a528235605e19893603018112615740578283fd5b88018035865260606157548883018361535b565b828a8a0152615766838a0182846153a3565b9250505060406157788184018461535b565b9350888303828a015261578c83858361560e565b9d8a019d98505050938701935050600101615720565b8183526000602080850194508260005b85811015614c0b5781358752828201356157cb81614cd1565b60ff168784015260409687019691909101906001016157b2565b60006101406157fd846157f785614aa2565b15159052565b61580960208401614aa2565b1515602085015261581d604084018461535b565b82604087015261583083870182846153a3565b9250505061584160608401846153db565b8583036060870152615854838284615438565b9250505061586560808401846154a0565b85830360808701526158788382846154e8565b9250505061588960a084018461553d565b85830360a087015261589c838284615585565b925050506158ad60c084018461535b565b85830360c08701526158c08382846155d8565b925050506158d160e084018461535b565b85830360e08701526158e483828461564c565b925050506101006158f78185018561535b565b86840383880152615909848284615705565b935050505061012061591d818501856154a0565b8684038388015261592f8482846157a2565b979650505050505050565b60008135615947816145cd565b63ffffffff16835260208201353683900360de198101821261596857600080fd5b60c0602086015261597e60c08601858401615206565b9150604084013561013e198201811261599657600080fd5b85830360408701526159aa838683016157e5565b92505050606083013560608501526080830135608085015260a083013560a08501528091505092915050565b602081526000614a8d602083018461593a565b6040815260006159fc604083018561593a565b828103602084015263ffffffff845116815260208401516020820152604084015160806040830152615a316080830182614ecf565b90506060850151828203606084015261592f8282614ecf565b60006001600160601b0380831681851681830481118215151615615a7057615a7061531d565b02949350505050565b6000816000190483118215151615615a9357615a9361531d565b500290565b6000600019821415615aac57615aac61531d565b5060010190565b60006020808385031215615ac657600080fd5b82516001600160401b03811115615adc57600080fd5b8301601f81018513615aed57600080fd5b8051615afb61460b826145aa565b81815260059190911b82018301908381019087831115615b1a57600080fd5b928401925b8284101561592f57835182529284019290840190615b1f565b600060208284031215615b4a57600080fd5b8151613b6a81615423565b63ffffffff84168152604060208201526000615b756040830184866155d8565b95945050505050565b60006020808385031215615b9157600080fd5b82516001600160401b03811115615ba757600080fd5b8301601f81018513615bb857600080fd5b8051615bc661460b826145aa565b81815260059190911b82018301908381019087831115615be557600080fd5b928401925b8284101561592f578351615bfd816145cd565b82529284019290840190615bea565b63ffffffff84168152604060208201526000615b756040830184866151dd565b600060208284031215615c3e57600080fd5b81516001600160c01b0381168114613b6a57600080fd5b600060208284031215615c6757600080fd5b8151613b6a816145cd565b600060ff821660ff811415615c8957615c8961531d565b60010192915050565b604081526000615ca66040830185876151dd565b905063ffffffff83166020830152949350505050565b60006040820163ffffffff851683526020604081850152818551808452606086019150828701935060005b81811015615d0357845183529383019391830191600101615ce7565b5090979650505050505050565b600181811c90821680615d2457607f821691505b60208210811415615d4557634e487b7160e01b600052602260045260246000fd5b50919050565b600063ffffffff83811690831681811015615d6857615d6861531d565b039392505050565b6000815180845260005b81811015615d9657602081850181015186830182015201615d7a565b81811115615da8576000602083870101525b50601f01601f19169290920160200192915050565b60208152815160208201526000602083015163ffffffff80821660408501528060408601511660608501526060850151915060e06080850152615e04610100850183615d70565b91508060808601511660a08501525060a0840151601f198483030160c0850152615e2e8282615d70565b91505060c0840151615e4860e085018263ffffffff169052565b509392505050565b600060208284031215615e6257600080fd5b8151613b6a81614cd1565b600082821015615e7f57615e7f61531d565b500390565b600060208284031215615e9657600080fd5b5051919050565b60008219821115615eb057615eb061531d565b500190565b600060208284031215615ec757600080fd5b815167ffffffffffffffff1981168114613b6a57600080fd5b60006001600160601b0383811690831681811015615d6857615d6861531d565b63ffffffff60e01b8360e01b1681526000600482018351602080860160005b83811015615f3b57815185529382019390820190600101615f1f565b5092979650505050505050565b600061ffff80831681811415615f6057615f6061531d565b600101939250505056fe30644e72e131a029b85045b68181585d97816a916871ca8d3c208c16d87cfd47424c535369676e6174757265436865636b65722e636865636b5369676e617475a26469706673582212203ae51f3a4b36e9f39796359882cb4bf558e57b2b4136f3e67bb10f5d5bd04d7464736f6c634300080c0033","linkReferences":{}},"methodIdentifiers":{"aggregator()":"245a7bfc","allTaskHashes(uint32)":"2d89f6fc","allTaskResponses(uint32)":"2cb223d5","blsApkRegistry()":"5df45946","checkSignatures(bytes32,bytes,uint32,(uint32[],(uint256,uint256)[],(uint256,uint256)[],(uint256[2],uint256[2]),(uint256,uint256),uint32[],uint32[],uint32[][]))":"6efb4636","createNewTask(uint256,uint32,bytes)":"6b92787e","delegation()":"df5cf723","generator()":"7afa1eed","getCheckSignaturesIndices(address,uint32,bytes,bytes32[])":"4f739f74","getLatestPendingStateHash()":"0373408d","getOperatorState(address,bytes,uint32)":"3563b0d1","getOperatorState(address,bytes32,uint32)":"cefdc1d4","getQuorumBitmapsAtBlockNumber(address,bytes32[],uint32)":"5c155662","getTaskResponseWindowBlock()":"f5c9899d","indexToTaskStatus(uint32)":"99dba0c4","initialize(address,address,address,address)":"f8c8765e","latestTaskNum()":"8b00ce7c","owner()":"8da5cb5b","pause(uint256)":"136439dd","pauseAll()":"595c6a67","paused()":"5c975abb","paused(uint8)":"5ac86ab7","pauserRegistry()":"886f1195","registryCoordinator()":"6d14a987","renounceOwnership()":"715018a6","respondToTask((uint256,uint32,uint32,bytes,uint32,bytes,uint32),(uint32,(uint256,uint32,uint32,bytes,uint32,bytes,uint32),(bool,bool,uint8[],(uint8,uint96,(uint256,uint256))[],(uint8,uint96)[],(uint8,(uint256,uint256))[],bytes32[],(bytes32,uint8[],uint96[],uint8)[],(bytes32,uint8[],uint96[])[],(bytes32,uint8)[]),bytes32,bytes32,bytes32),(uint32[],(uint256,uint256)[],(uint256,uint256)[],(uint256[2],uint256[2]),(uint256,uint256),uint32[],uint32[],uint32[][]))":"27fd8f16","setPauserRegistry(address)":"10d67a2f","setStaleStakesForbidden(bool)":"416c7e5e","stakeRegistry()":"68304835","staleStakesForbidden()":"b98d0908","taskNumber()":"72d18e8d","transferOwnership(address)":"f2fde38b","trySignatureAndApkVerification(bytes32,(uint256,uint256),(uint256[2],uint256[2]),(uint256,uint256))":"171f1d5b","unpause(uint256)":"fabc1cbc"},"id":125}