{"abi":[{"type":"constructor","inputs":[{"name":"_registryCoordinator","type":"address","internalType":"contract IRegistryCoordinator"},{"name":"_taskResponseWindowBlock","type":"uint32","internalType":"uint32"}],"stateMutability":"nonpayable"},{"type":"function","name":"aggregator","inputs":[],"outputs":[{"name":"","type":"address","internalType":"address"}],"stateMutability":"view"},{"type":"function","name":"allTaskHashes","inputs":[{"name":"","type":"uint32","internalType":"uint32"}],"outputs":[{"name":"","type":"bytes32","internalType":"bytes32"}],"stateMutability":"view"},{"type":"function","name":"allTaskResponses","inputs":[{"name":"","type":"uint32","internalType":"uint32"}],"outputs":[{"name":"","type":"bytes32","internalType":"bytes32"}],"stateMutability":"view"},{"type":"function","name":"blsApkRegistry","inputs":[],"outputs":[{"name":"","type":"address","internalType":"contract IBLSApkRegistry"}],"stateMutability":"view"},{"type":"function","name":"checkSignatures","inputs":[{"name":"msgHash","type":"bytes32","internalType":"bytes32"},{"name":"quorumNumbers","type":"bytes","internalType":"bytes"},{"name":"referenceBlockNumber","type":"uint32","internalType":"uint32"},{"name":"params","type":"tuple","internalType":"struct IBLSSignatureChecker.NonSignerStakesAndSignature","components":[{"name":"nonSignerQuorumBitmapIndices","type":"uint32[]","internalType":"uint32[]"},{"name":"nonSignerPubkeys","type":"tuple[]","internalType":"struct BN254.G1Point[]","components":[{"name":"X","type":"uint256","internalType":"uint256"},{"name":"Y","type":"uint256","internalType":"uint256"}]},{"name":"quorumApks","type":"tuple[]","internalType":"struct BN254.G1Point[]","components":[{"name":"X","type":"uint256","internalType":"uint256"},{"name":"Y","type":"uint256","internalType":"uint256"}]},{"name":"apkG2","type":"tuple","internalType":"struct BN254.G2Point","components":[{"name":"X","type":"uint256[2]","internalType":"uint256[2]"},{"name":"Y","type":"uint256[2]","internalType":"uint256[2]"}]},{"name":"sigma","type":"tuple","internalType":"struct BN254.G1Point","components":[{"name":"X","type":"uint256","internalType":"uint256"},{"name":"Y","type":"uint256","internalType":"uint256"}]},{"name":"quorumApkIndices","type":"uint32[]","internalType":"uint32[]"},{"name":"totalStakeIndices","type":"uint32[]","internalType":"uint32[]"},{"name":"nonSignerStakeIndices","type":"uint32[][]","internalType":"uint32[][]"}]}],"outputs":[{"name":"","type":"tuple","internalType":"struct IBLSSignatureChecker.QuorumStakeTotals","components":[{"name":"signedStakeForQuorum","type":"uint96[]","internalType":"uint96[]"},{"name":"totalStakeForQuorum","type":"uint96[]","internalType":"uint96[]"}]},{"name":"","type":"bytes32","internalType":"bytes32"}],"stateMutability":"view"},{"type":"function","name":"createNewTask","inputs":[{"name":"blockNumber","type":"uint256","internalType":"uint256"},{"name":"quorumThresholdPercentage","type":"uint32","internalType":"uint32"},{"name":"quorumNumbers","type":"bytes","internalType":"bytes"}],"outputs":[],"stateMutability":"nonpayable"},{"type":"function","name":"delegation","inputs":[],"outputs":[{"name":"","type":"address","internalType":"contract IDelegationManager"}],"stateMutability":"view"},{"type":"function","name":"dummyForOperatorStateInfoType","inputs":[{"name":"_operatorStateInfo","type":"tuple","internalType":"struct IGaspMultiRollupServicePrimitives.OperatorStateInfo","components":[{"name":"operatorsStateChanged","type":"bool","internalType":"bool"},{"name":"quorumsRemoved","type":"uint8[]","internalType":"uint8[]"},{"name":"quorumsAdded","type":"tuple[]","internalType":"struct IGaspMultiRollupServicePrimitives.QuorumsAdded[]","components":[{"name":"quorumNumber","type":"uint8","internalType":"uint8"},{"name":"quorumStake","type":"uint96","internalType":"uint96"},{"name":"quorumApk","type":"tuple","internalType":"struct BN254.G1Point","components":[{"name":"X","type":"uint256","internalType":"uint256"},{"name":"Y","type":"uint256","internalType":"uint256"}]}]},{"name":"quorumsStakeUpdate","type":"tuple[]","internalType":"struct IGaspMultiRollupServicePrimitives.QuorumsStakeUpdate[]","components":[{"name":"quorumNumber","type":"uint8","internalType":"uint8"},{"name":"quorumStake","type":"uint96","internalType":"uint96"}]},{"name":"quorumsApkUpdate","type":"tuple[]","internalType":"struct IGaspMultiRollupServicePrimitives.QuorumsApkUpdate[]","components":[{"name":"quorumNumber","type":"uint8","internalType":"uint8"},{"name":"quorumApk","type":"tuple","internalType":"struct BN254.G1Point","components":[{"name":"X","type":"uint256","internalType":"uint256"},{"name":"Y","type":"uint256","internalType":"uint256"}]}]},{"name":"operatorsRemoved","type":"bytes32[]","internalType":"bytes32[]"},{"name":"operatorsAdded","type":"tuple[]","internalType":"struct IGaspMultiRollupServicePrimitives.OperatorsAdded[]","components":[{"name":"operatorId","type":"bytes32","internalType":"bytes32"},{"name":"quorumForStakes","type":"uint8[]","internalType":"uint8[]"},{"name":"quorumStakes","type":"uint96[]","internalType":"uint96[]"},{"name":"quorumCount","type":"uint8","internalType":"uint8"}]},{"name":"operatorsStakeUpdate","type":"tuple[]","internalType":"struct IGaspMultiRollupServicePrimitives.OperatorsStakeUpdate[]","components":[{"name":"operatorId","type":"bytes32","internalType":"bytes32"},{"name":"quorumForStakes","type":"uint8[]","internalType":"uint8[]"},{"name":"quorumStakes","type":"uint96[]","internalType":"uint96[]"}]},{"name":"operatorsQuorumCountUpdate","type":"tuple[]","internalType":"struct IGaspMultiRollupServicePrimitives.OperatorsQuorumCountUpdate[]","components":[{"name":"operatorId","type":"bytes32","internalType":"bytes32"},{"name":"quorumCount","type":"uint8","internalType":"uint8"}]}]}],"outputs":[],"stateMutability":"view"},{"type":"function","name":"generator","inputs":[],"outputs":[{"name":"","type":"address","internalType":"address"}],"stateMutability":"view"},{"type":"function","name":"getCheckSignaturesIndices","inputs":[{"name":"registryCoordinator","type":"address","internalType":"contract IRegistryCoordinator"},{"name":"referenceBlockNumber","type":"uint32","internalType":"uint32"},{"name":"quorumNumbers","type":"bytes","internalType":"bytes"},{"name":"nonSignerOperatorIds","type":"bytes32[]","internalType":"bytes32[]"}],"outputs":[{"name":"","type":"tuple","internalType":"struct OperatorStateRetriever.CheckSignaturesIndices","components":[{"name":"nonSignerQuorumBitmapIndices","type":"uint32[]","internalType":"uint32[]"},{"name":"quorumApkIndices","type":"uint32[]","internalType":"uint32[]"},{"name":"totalStakeIndices","type":"uint32[]","internalType":"uint32[]"},{"name":"nonSignerStakeIndices","type":"uint32[][]","internalType":"uint32[][]"}]}],"stateMutability":"view"},{"type":"function","name":"getLatestPendingStateHash","inputs":[],"outputs":[{"name":"","type":"bytes32","internalType":"bytes32"}],"stateMutability":"view"},{"type":"function","name":"getOperatorState","inputs":[{"name":"registryCoordinator","type":"address","internalType":"contract IRegistryCoordinator"},{"name":"quorumNumbers","type":"bytes","internalType":"bytes"},{"name":"blockNumber","type":"uint32","internalType":"uint32"}],"outputs":[{"name":"","type":"tuple[][]","internalType":"struct OperatorStateRetriever.Operator[][]","components":[{"name":"operator","type":"address","internalType":"address"},{"name":"operatorId","type":"bytes32","internalType":"bytes32"},{"name":"stake","type":"uint96","internalType":"uint96"}]}],"stateMutability":"view"},{"type":"function","name":"getOperatorState","inputs":[{"name":"registryCoordinator","type":"address","internalType":"contract IRegistryCoordinator"},{"name":"operatorId","type":"bytes32","internalType":"bytes32"},{"name":"blockNumber","type":"uint32","internalType":"uint32"}],"outputs":[{"name":"","type":"uint256","internalType":"uint256"},{"name":"","type":"tuple[][]","internalType":"struct OperatorStateRetriever.Operator[][]","components":[{"name":"operator","type":"address","internalType":"address"},{"name":"operatorId","type":"bytes32","internalType":"bytes32"},{"name":"stake","type":"uint96","internalType":"uint96"}]}],"stateMutability":"view"},{"type":"function","name":"getQuorumBitmapsAtBlockNumber","inputs":[{"name":"registryCoordinator","type":"address","internalType":"contract IRegistryCoordinator"},{"name":"operatorIds","type":"bytes32[]","internalType":"bytes32[]"},{"name":"blockNumber","type":"uint32","internalType":"uint32"}],"outputs":[{"name":"","type":"uint256[]","internalType":"uint256[]"}],"stateMutability":"view"},{"type":"function","name":"getTaskResponseWindowBlock","inputs":[],"outputs":[{"name":"","type":"uint32","internalType":"uint32"}],"stateMutability":"view"},{"type":"function","name":"indexToTaskStatus","inputs":[{"name":"","type":"uint32","internalType":"uint32"}],"outputs":[{"name":"","type":"uint8","internalType":"enum FinalizerTaskManager.TaskStatus"}],"stateMutability":"view"},{"type":"function","name":"initialize","inputs":[{"name":"_pauserRegistry","type":"address","internalType":"contract IPauserRegistry"},{"name":"initialOwner","type":"address","internalType":"address"},{"name":"_aggregator","type":"address","internalType":"address"},{"name":"_generator","type":"address","internalType":"address"}],"outputs":[],"stateMutability":"nonpayable"},{"type":"function","name":"lastCompletedTaskCreatedBlock","inputs":[],"outputs":[{"name":"","type":"uint32","internalType":"uint32"}],"stateMutability":"view"},{"type":"function","name":"lastCompletedTaskNum","inputs":[],"outputs":[{"name":"","type":"uint32","internalType":"uint32"}],"stateMutability":"view"},{"type":"function","name":"lastCompletedTaskQuorumNumbers","inputs":[],"outputs":[{"name":"","type":"bytes","internalType":"bytes"}],"stateMutability":"view"},{"type":"function","name":"lastCompletedTaskQuorumThresholdPercentage","inputs":[],"outputs":[{"name":"","type":"uint32","internalType":"uint32"}],"stateMutability":"view"},{"type":"function","name":"latestPendingStateHash","inputs":[],"outputs":[{"name":"","type":"bytes32","internalType":"bytes32"}],"stateMutability":"view"},{"type":"function","name":"latestTaskNum","inputs":[],"outputs":[{"name":"","type":"uint32","internalType":"uint32"}],"stateMutability":"view"},{"type":"function","name":"owner","inputs":[],"outputs":[{"name":"","type":"address","internalType":"address"}],"stateMutability":"view"},{"type":"function","name":"pause","inputs":[{"name":"newPausedStatus","type":"uint256","internalType":"uint256"}],"outputs":[],"stateMutability":"nonpayable"},{"type":"function","name":"pauseAll","inputs":[],"outputs":[],"stateMutability":"nonpayable"},{"type":"function","name":"paused","inputs":[{"name":"index","type":"uint8","internalType":"uint8"}],"outputs":[{"name":"","type":"bool","internalType":"bool"}],"stateMutability":"view"},{"type":"function","name":"paused","inputs":[],"outputs":[{"name":"","type":"uint256","internalType":"uint256"}],"stateMutability":"view"},{"type":"function","name":"pauserRegistry","inputs":[],"outputs":[{"name":"","type":"address","internalType":"contract IPauserRegistry"}],"stateMutability":"view"},{"type":"function","name":"registryCoordinator","inputs":[],"outputs":[{"name":"","type":"address","internalType":"contract IRegistryCoordinator"}],"stateMutability":"view"},{"type":"function","name":"renounceOwnership","inputs":[],"outputs":[],"stateMutability":"nonpayable"},{"type":"function","name":"respondToTask","inputs":[{"name":"task","type":"tuple","internalType":"struct IFinalizerTaskManager.Task","components":[{"name":"taskNum","type":"uint32","internalType":"uint32"},{"name":"blockNumber","type":"uint256","internalType":"uint256"},{"name":"taskCreatedBlock","type":"uint32","internalType":"uint32"},{"name":"lastCompletedTaskCreatedBlock","type":"uint32","internalType":"uint32"},{"name":"quorumNumbers","type":"bytes","internalType":"bytes"},{"name":"quorumThresholdPercentage","type":"uint32","internalType":"uint32"},{"name":"lastCompletedTaskQuorumNumbers","type":"bytes","internalType":"bytes"},{"name":"lastCompletedTaskQuorumThresholdPercentage","type":"uint32","internalType":"uint32"}]},{"name":"taskResponse","type":"tuple","internalType":"struct IFinalizerTaskManager.TaskResponse","components":[{"name":"referenceTaskIndex","type":"uint32","internalType":"uint32"},{"name":"referenceTaskHash","type":"bytes32","internalType":"bytes32"},{"name":"operatorsStateInfoHash","type":"bytes32","internalType":"bytes32"},{"name":"blockHash","type":"bytes32","internalType":"bytes32"},{"name":"storageProofHash","type":"bytes32","internalType":"bytes32"},{"name":"pendingStateHash","type":"bytes32","internalType":"bytes32"}]},{"name":"nonSignerStakesAndSignature","type":"tuple","internalType":"struct IBLSSignatureChecker.NonSignerStakesAndSignature","components":[{"name":"nonSignerQuorumBitmapIndices","type":"uint32[]","internalType":"uint32[]"},{"name":"nonSignerPubkeys","type":"tuple[]","internalType":"struct BN254.G1Point[]","components":[{"name":"X","type":"uint256","internalType":"uint256"},{"name":"Y","type":"uint256","internalType":"uint256"}]},{"name":"quorumApks","type":"tuple[]","internalType":"struct BN254.G1Point[]","components":[{"name":"X","type":"uint256","internalType":"uint256"},{"name":"Y","type":"uint256","internalType":"uint256"}]},{"name":"apkG2","type":"tuple","internalType":"struct BN254.G2Point","components":[{"name":"X","type":"uint256[2]","internalType":"uint256[2]"},{"name":"Y","type":"uint256[2]","internalType":"uint256[2]"}]},{"name":"sigma","type":"tuple","internalType":"struct BN254.G1Point","components":[{"name":"X","type":"uint256","internalType":"uint256"},{"name":"Y","type":"uint256","internalType":"uint256"}]},{"name":"quorumApkIndices","type":"uint32[]","internalType":"uint32[]"},{"name":"totalStakeIndices","type":"uint32[]","internalType":"uint32[]"},{"name":"nonSignerStakeIndices","type":"uint32[][]","internalType":"uint32[][]"}]},{"name":"NonSignerStakesAndSignatureForOldState","type":"tuple","internalType":"struct IGaspMultiRollupServicePrimitives.NonSignerStakesAndSignatureForOldState","components":[{"name":"nonSignerG1PubkeysForOldState","type":"tuple[]","internalType":"struct BN254.G1Point[]","components":[{"name":"X","type":"uint256","internalType":"uint256"},{"name":"Y","type":"uint256","internalType":"uint256"}]},{"name":"apkG2ForOldState","type":"tuple","internalType":"struct BN254.G2Point","components":[{"name":"X","type":"uint256[2]","internalType":"uint256[2]"},{"name":"Y","type":"uint256[2]","internalType":"uint256[2]"}]},{"name":"sigmaForOldState","type":"tuple","internalType":"struct BN254.G1Point","components":[{"name":"X","type":"uint256","internalType":"uint256"},{"name":"Y","type":"uint256","internalType":"uint256"}]}]}],"outputs":[],"stateMutability":"nonpayable"},{"type":"function","name":"setPauserRegistry","inputs":[{"name":"newPauserRegistry","type":"address","internalType":"contract IPauserRegistry"}],"outputs":[],"stateMutability":"nonpayable"},{"type":"function","name":"setStaleStakesForbidden","inputs":[{"name":"value","type":"bool","internalType":"bool"}],"outputs":[],"stateMutability":"nonpayable"},{"type":"function","name":"stakeRegistry","inputs":[],"outputs":[{"name":"","type":"address","internalType":"contract IStakeRegistry"}],"stateMutability":"view"},{"type":"function","name":"staleStakesForbidden","inputs":[],"outputs":[{"name":"","type":"bool","internalType":"bool"}],"stateMutability":"view"},{"type":"function","name":"taskNumber","inputs":[],"outputs":[{"name":"","type":"uint32","internalType":"uint32"}],"stateMutability":"view"},{"type":"function","name":"transferOwnership","inputs":[{"name":"newOwner","type":"address","internalType":"address"}],"outputs":[],"stateMutability":"nonpayable"},{"type":"function","name":"trySignatureAndApkVerification","inputs":[{"name":"msgHash","type":"bytes32","internalType":"bytes32"},{"name":"apk","type":"tuple","internalType":"struct BN254.G1Point","components":[{"name":"X","type":"uint256","internalType":"uint256"},{"name":"Y","type":"uint256","internalType":"uint256"}]},{"name":"apkG2","type":"tuple","internalType":"struct BN254.G2Point","components":[{"name":"X","type":"uint256[2]","internalType":"uint256[2]"},{"name":"Y","type":"uint256[2]","internalType":"uint256[2]"}]},{"name":"sigma","type":"tuple","internalType":"struct BN254.G1Point","components":[{"name":"X","type":"uint256","internalType":"uint256"},{"name":"Y","type":"uint256","internalType":"uint256"}]}],"outputs":[{"name":"pairingSuccessful","type":"bool","internalType":"bool"},{"name":"siganatureIsValid","type":"bool","internalType":"bool"}],"stateMutability":"view"},{"type":"function","name":"unpause","inputs":[{"name":"newPausedStatus","type":"uint256","internalType":"uint256"}],"outputs":[],"stateMutability":"nonpayable"},{"type":"event","name":"Initialized","inputs":[{"name":"version","type":"uint8","indexed":false,"internalType":"uint8"}],"anonymous":false},{"type":"event","name":"NewTaskCreated","inputs":[{"name":"taskIndex","type":"uint32","indexed":true,"internalType":"uint32"},{"name":"task","type":"tuple","indexed":false,"internalType":"struct IFinalizerTaskManager.Task","components":[{"name":"taskNum","type":"uint32","internalType":"uint32"},{"name":"blockNumber","type":"uint256","internalType":"uint256"},{"name":"taskCreatedBlock","type":"uint32","internalType":"uint32"},{"name":"lastCompletedTaskCreatedBlock","type":"uint32","internalType":"uint32"},{"name":"quorumNumbers","type":"bytes","internalType":"bytes"},{"name":"quorumThresholdPercentage","type":"uint32","internalType":"uint32"},{"name":"lastCompletedTaskQuorumNumbers","type":"bytes","internalType":"bytes"},{"name":"lastCompletedTaskQuorumThresholdPercentage","type":"uint32","internalType":"uint32"}]}],"anonymous":false},{"type":"event","name":"OwnershipTransferred","inputs":[{"name":"previousOwner","type":"address","indexed":true,"internalType":"address"},{"name":"newOwner","type":"address","indexed":true,"internalType":"address"}],"anonymous":false},{"type":"event","name":"Paused","inputs":[{"name":"account","type":"address","indexed":true,"internalType":"address"},{"name":"newPausedStatus","type":"uint256","indexed":false,"internalType":"uint256"}],"anonymous":false},{"type":"event","name":"PauserRegistrySet","inputs":[{"name":"pauserRegistry","type":"address","indexed":false,"internalType":"contract IPauserRegistry"},{"name":"newPauserRegistry","type":"address","indexed":false,"internalType":"contract IPauserRegistry"}],"anonymous":false},{"type":"event","name":"StaleStakesForbiddenUpdate","inputs":[{"name":"value","type":"bool","indexed":false,"internalType":"bool"}],"anonymous":false},{"type":"event","name":"TaskCompleted","inputs":[{"name":"taskIndex","type":"uint32","indexed":true,"internalType":"uint32"},{"name":"blockHash","type":"bytes32","indexed":true,"internalType":"bytes32"},{"name":"taskResponse","type":"tuple","indexed":false,"internalType":"struct IFinalizerTaskManager.TaskResponse","components":[{"name":"referenceTaskIndex","type":"uint32","internalType":"uint32"},{"name":"referenceTaskHash","type":"bytes32","internalType":"bytes32"},{"name":"operatorsStateInfoHash","type":"bytes32","internalType":"bytes32"},{"name":"blockHash","type":"bytes32","internalType":"bytes32"},{"name":"storageProofHash","type":"bytes32","internalType":"bytes32"},{"name":"pendingStateHash","type":"bytes32","internalType":"bytes32"}]}],"anonymous":false},{"type":"event","name":"TaskResponded","inputs":[{"name":"taskIndex","type":"uint32","indexed":true,"internalType":"uint32"},{"name":"taskResponse","type":"tuple","indexed":false,"internalType":"struct IFinalizerTaskManager.TaskResponse","components":[{"name":"referenceTaskIndex","type":"uint32","internalType":"uint32"},{"name":"referenceTaskHash","type":"bytes32","internalType":"bytes32"},{"name":"operatorsStateInfoHash","type":"bytes32","internalType":"bytes32"},{"name":"blockHash","type":"bytes32","internalType":"bytes32"},{"name":"storageProofHash","type":"bytes32","internalType":"bytes32"},{"name":"pendingStateHash","type":"bytes32","internalType":"bytes32"}]},{"name":"taskResponseMetadata","type":"tuple","indexed":false,"internalType":"struct IFinalizerTaskManager.TaskResponseMetadata","components":[{"name":"taskResponsedBlock","type":"uint32","internalType":"uint32"},{"name":"hashOfNonSigners","type":"bytes32","internalType":"bytes32"},{"name":"quroumStakeTotals","type":"uint96[]","internalType":"uint96[]"},{"name":"quroumStakeSigned","type":"uint96[]","internalType":"uint96[]"}]}],"anonymous":false},{"type":"event","name":"Unpaused","inputs":[{"name":"account","type":"address","indexed":true,"internalType":"address"},{"name":"newPausedStatus","type":"uint256","indexed":false,"internalType":"uint256"}],"anonymous":false}],"bytecode":{"object":"0x6101206040523480156200001257600080fd5b5060405162005f7a38038062005f7a8339810160408190526200003591620001f7565b81806001600160a01b03166080816001600160a01b031681525050806001600160a01b031663683048356040518163ffffffff1660e01b8152600401602060405180830381865afa1580156200008f573d6000803e3d6000fd5b505050506040513d601f19601f82011682018060405250810190620000b591906200023e565b6001600160a01b031660a0816001600160a01b031681525050806001600160a01b0316635df459466040518163ffffffff1660e01b8152600401602060405180830381865afa1580156200010d573d6000803e3d6000fd5b505050506040513d601f19601f820116820180604052508101906200013391906200023e565b6001600160a01b031660c0816001600160a01b03168152505060a0516001600160a01b031663df5cf7236040518163ffffffff1660e01b8152600401602060405180830381865afa1580156200018d573d6000803e3d6000fd5b505050506040513d601f19601f82011682018060405250810190620001b391906200023e565b6001600160a01b031660e052506097805460ff1916600117905563ffffffff16610100525062000265565b6001600160a01b0381168114620001f457600080fd5b50565b600080604083850312156200020b57600080fd5b82516200021881620001de565b602084015190925063ffffffff811681146200023357600080fd5b809150509250929050565b6000602082840312156200025157600080fd5b81516200025e81620001de565b9392505050565b60805160a05160c05160e05161010051615c91620002e96000396000818161060c0152612e950152600081816105d5015261245b01526000818161044e015261263e0152600081816104850152818161281401526129d60152600081816104bf01528181610efe01528181612126015281816122be01526124f80152615c916000f3fe608060405234801561001057600080fd5b50600436106102485760003560e01c806366e4a1ca1161013b5780638da5cb5b116100b8578063df5cf7231161007c578063df5cf723146105d0578063f2fde38b146105f7578063f5c9899d1461060a578063f8c8765e14610630578063fabc1cbc1461064357600080fd5b80638da5cb5b1461054e57806399dba0c41461055f578063acfa13541461058f578063b98d0908146105a2578063cefdc1d4146105af57600080fd5b8063715018a6116100ff578063715018a61461050257806372d18e8d1461050a5780637afa1eed14610518578063886f11951461052b5780638b00ce7c1461053e57600080fd5b806366e4a1ca1461047057806368304835146104805780636b92787e146104a75780636d14a987146104ba5780636efb4636146104e157600080fd5b8063416c7e5e116101c9578063595c6a671161018d578063595c6a67146103e65780635ac86ab7146103ee5780635c155662146104215780635c975abb146104415780635df459461461044957600080fd5b8063416c7e5e1461038957806344d6ef391461039c5780634ae6b203146103ac5780634f739f74146103b557806354d127de146103d557600080fd5b80631ce7b2e5116102105780631ce7b2e5146102cb578063245a7bfc146102f75780632cb223d5146103295780632d89f6fc146103495780633563b0d11461036957600080fd5b80630373408d1461024d5780630e8e77c41461026457806310d67a2f14610279578063136439dd1461028e578063171f1d5b146102a1575b600080fd5b60d1545b6040519081526020015b60405180910390f35b61026c610656565b60405161025b9190614592565b61028c6102873660046145c1565b6106e4565b005b61028c61029c3660046145de565b61079d565b6102b46102af36600461475c565b6108dc565b60408051921515835290151560208301520161025b565b60cd546102e290600160201b900463ffffffff1681565b60405163ffffffff909116815260200161025b565b60cf5461031190600160201b90046001600160a01b031681565b6040516001600160a01b03909116815260200161025b565b6102516103373660046147ca565b60cb6020526000908152604090205481565b6102516103573660046147ca565b60ca6020526000908152604090205481565b61037c6103773660046147e7565b610a66565b60405161025b9190614945565b61028c610397366004614966565b610efc565b60cf546102e29063ffffffff1681565b61025160d15481565b6103c86103c33660046149cb565b611071565b60405161025b9190614acf565b61028c6103e3366004614b8a565b50565b61028c611797565b6104116103fc366004614bd4565b606654600160ff9092169190911b9081161490565b604051901515815260200161025b565b61043461042f366004614c14565b61185e565b60405161025b9190614cc5565b606654610251565b6103117f000000000000000000000000000000000000000000000000000000000000000081565b60cd546102e29063ffffffff1681565b6103117f000000000000000000000000000000000000000000000000000000000000000081565b61028c6104b5366004614d09565b611a26565b6103117f000000000000000000000000000000000000000000000000000000000000000081565b6104f46104ef366004614fe0565b611d73565b60405161025b9291906150a0565b61028c612c8b565b60c95463ffffffff166102e2565b60d054610311906001600160a01b031681565b606554610311906001600160a01b031681565b60c9546102e29063ffffffff1681565b6033546001600160a01b0316610311565b61058261056d3660046147ca565b60cc6020526000908152604090205460ff1681565b60405161025b91906150ff565b61028c61059d366004615127565b612c9f565b6097546104119060ff1681565b6105c26105bd36600461523f565b61321d565b60405161025b929190615281565b6103117f000000000000000000000000000000000000000000000000000000000000000081565b61028c6106053660046145c1565b6133af565b7f00000000000000000000000000000000000000000000000000000000000000006102e2565b61028c61063e3660046152a2565b613425565b61028c6106513660046145de565b61358a565b60ce8054610663906152fe565b80601f016020809104026020016040519081016040528092919081815260200182805461068f906152fe565b80156106dc5780601f106106b1576101008083540402835291602001916106dc565b820191906000526020600020905b8154815290600101906020018083116106bf57829003601f168201915b505050505081565b606560009054906101000a90046001600160a01b03166001600160a01b031663eab66d7a6040518163ffffffff1660e01b8152600401602060405180830381865afa158015610737573d6000803e3d6000fd5b505050506040513d601f19601f8201168201806040525081019061075b9190615339565b6001600160a01b0316336001600160a01b0316146107945760405162461bcd60e51b815260040161078b90615356565b60405180910390fd5b6103e3816136e6565b60655460405163237dfb4760e11b81523360048201526001600160a01b03909116906346fbf68e90602401602060405180830381865afa1580156107e5573d6000803e3d6000fd5b505050506040513d601f19601f8201168201806040525081019061080991906153a0565b6108255760405162461bcd60e51b815260040161078b906153bd565b6066548181161461089e5760405162461bcd60e51b815260206004820152603860248201527f5061757361626c652e70617573653a20696e76616c696420617474656d70742060448201527f746f20756e70617573652066756e6374696f6e616c6974790000000000000000606482015260840161078b565b606681905560405181815233907fab40a374bc51de372200a8bc981af8c9ecdc08dfdaef0bb6e09f88f3c616ef3d906020015b60405180910390a250565b60008060007f30644e72e131a029b85045b68181585d2833e84879b9709143e1f593f00000018787600001518860200151886000015160006002811061092457610924615405565b60200201518951600160200201518a6020015160006002811061094957610949615405565b60200201518b6020015160016002811061096557610965615405565b602090810291909101518c518d8301516040516109c29a99989796959401988952602089019790975260408801959095526060870193909352608086019190915260a085015260c084015260e08301526101008201526101200190565b6040516020818303038152906040528051906020012060001c6109e5919061541b565b9050610a586109fe6109f788846137dd565b8690613874565b610a06613908565b610a4e610a3f85610a39604080518082018252600080825260209182015281518083019092526001825260029082015290565b906137dd565b610a488c6139c8565b90613874565b886201d4c0613a58565b909890975095505050505050565b60606000846001600160a01b031663683048356040518163ffffffff1660e01b8152600401602060405180830381865afa158015610aa8573d6000803e3d6000fd5b505050506040513d601f19601f82011682018060405250810190610acc9190615339565b90506000856001600160a01b0316639e9923c26040518163ffffffff1660e01b8152600401602060405180830381865afa158015610b0e573d6000803e3d6000fd5b505050506040513d601f19601f82011682018060405250810190610b329190615339565b90506000866001600160a01b0316635df459466040518163ffffffff1660e01b8152600401602060405180830381865afa158015610b74573d6000803e3d6000fd5b505050506040513d601f19601f82011682018060405250810190610b989190615339565b9050600086516001600160401b03811115610bb557610bb56145f7565b604051908082528060200260200182016040528015610be857816020015b6060815260200190600190039081610bd35790505b50905060005b8751811015610ef0576000888281518110610c0b57610c0b615405565b0160200151604051638902624560e01b815260f89190911c6004820181905263ffffffff8a16602483015291506000906001600160a01b03871690638902624590604401600060405180830381865afa158015610c6c573d6000803e3d6000fd5b505050506040513d6000823e601f3d908101601f19168201604052610c94919081019061543d565b905080516001600160401b03811115610caf57610caf6145f7565b604051908082528060200260200182016040528015610cfa57816020015b6040805160608101825260008082526020808301829052928201528252600019909201910181610ccd5790505b50848481518110610d0d57610d0d615405565b602002602001018190525060005b8151811015610eda576040518060600160405280876001600160a01b03166347b314e8858581518110610d5057610d50615405565b60200260200101516040518263ffffffff1660e01b8152600401610d7691815260200190565b602060405180830381865afa158015610d93573d6000803e3d6000fd5b505050506040513d601f19601f82011682018060405250810190610db79190615339565b6001600160a01b03168152602001838381518110610dd757610dd7615405565b60200260200101518152602001896001600160a01b031663fa28c627858581518110610e0557610e05615405565b60209081029190910101516040516001600160e01b031960e084901b168152600481019190915260ff8816602482015263ffffffff8f166044820152606401602060405180830381865afa158015610e61573d6000803e3d6000fd5b505050506040513d601f19601f82011682018060405250810190610e8591906154cd565b6001600160601b0316815250858581518110610ea357610ea3615405565b60200260200101518281518110610ebc57610ebc615405565b60200260200101819052508080610ed29061550c565b915050610d1b565b5050508080610ee89061550c565b915050610bee565b50979650505050505050565b7f00000000000000000000000000000000000000000000000000000000000000006001600160a01b0316638da5cb5b6040518163ffffffff1660e01b8152600401602060405180830381865afa158015610f5a573d6000803e3d6000fd5b505050506040513d601f19601f82011682018060405250810190610f7e9190615339565b6001600160a01b0316336001600160a01b03161461102a5760405162461bcd60e51b815260206004820152605c60248201527f424c535369676e6174757265436865636b65722e6f6e6c79436f6f7264696e6160448201527f746f724f776e65723a2063616c6c6572206973206e6f7420746865206f776e6560648201527f72206f6620746865207265676973747279436f6f7264696e61746f7200000000608482015260a40161078b565b6097805460ff19168215159081179091556040519081527f40e4ed880a29e0f6ddce307457fb75cddf4feef7d3ecb0301bfdf4976a0e2dfc9060200160405180910390a150565b61109c6040518060800160405280606081526020016060815260200160608152602001606081525090565b6000876001600160a01b031663683048356040518163ffffffff1660e01b8152600401602060405180830381865afa1580156110dc573d6000803e3d6000fd5b505050506040513d601f19601f820116820180604052508101906111009190615339565b905061112d6040518060800160405280606081526020016060815260200160608152602001606081525090565b6040516361c8a12f60e11b81526001600160a01b038a169063c391425e9061115d908b9089908990600401615527565b600060405180830381865afa15801561117a573d6000803e3d6000fd5b505050506040513d6000823e601f3d908101601f191682016040526111a29190810190615571565b81526040516340e03a8160e11b81526001600160a01b038316906381c07502906111d4908b908b908b90600401615628565b600060405180830381865afa1580156111f1573d6000803e3d6000fd5b505050506040513d6000823e601f3d908101601f191682016040526112199190810190615571565b6040820152856001600160401b03811115611236576112366145f7565b60405190808252806020026020018201604052801561126957816020015b60608152602001906001900390816112545790505b50606082015260005b60ff81168711156116a8576000856001600160401b03811115611297576112976145f7565b6040519080825280602002602001820160405280156112c0578160200160208202803683370190505b5083606001518360ff16815181106112da576112da615405565b602002602001018190525060005b868110156115a85760008c6001600160a01b03166304ec63518a8a8581811061131357611313615405565b905060200201358e8860000151868151811061133157611331615405565b60200260200101516040518463ffffffff1660e01b815260040161136e9392919092835263ffffffff918216602084015216604082015260600190565b602060405180830381865afa15801561138b573d6000803e3d6000fd5b505050506040513d601f19601f820116820180604052508101906113af9190615651565b90506001600160c01b0381166114535760405162461bcd60e51b815260206004820152605c60248201527f4f70657261746f7253746174655265747269657665722e676574436865636b5360448201527f69676e617475726573496e64696365733a206f70657261746f72206d7573742060648201527f6265207265676973746572656420617420626c6f636b6e756d62657200000000608482015260a40161078b565b8a8a8560ff1681811061146857611468615405565b6001600160c01b03841692013560f81c9190911c60019081161415905061159557856001600160a01b031663dd9846b98a8a858181106114aa576114aa615405565b905060200201358d8d8860ff168181106114c6576114c6615405565b6040516001600160e01b031960e087901b1681526004810194909452919091013560f81c60248301525063ffffffff8f166044820152606401602060405180830381865afa15801561151c573d6000803e3d6000fd5b505050506040513d601f19601f82011682018060405250810190611540919061567a565b85606001518560ff168151811061155957611559615405565b6020026020010151848151811061157257611572615405565b63ffffffff90921660209283029190910190910152826115918161550c565b9350505b50806115a08161550c565b9150506112e8565b506000816001600160401b038111156115c3576115c36145f7565b6040519080825280602002602001820160405280156115ec578160200160208202803683370190505b50905060005b8281101561166d5784606001518460ff168151811061161357611613615405565b6020026020010151818151811061162c5761162c615405565b602002602001015182828151811061164657611646615405565b63ffffffff90921660209283029190910190910152806116658161550c565b9150506115f2565b508084606001518460ff168151811061168857611688615405565b6020026020010181905250505080806116a090615697565b915050611272565b506000896001600160a01b0316635df459466040518163ffffffff1660e01b8152600401602060405180830381865afa1580156116e9573d6000803e3d6000fd5b505050506040513d601f19601f8201168201806040525081019061170d9190615339565b60405163354952a360e21b81529091506001600160a01b0382169063d5254a8c90611740908b908b908e906004016156b7565b600060405180830381865afa15801561175d573d6000803e3d6000fd5b505050506040513d6000823e601f3d908101601f191682016040526117859190810190615571565b60208301525098975050505050505050565b60655460405163237dfb4760e11b81523360048201526001600160a01b03909116906346fbf68e90602401602060405180830381865afa1580156117df573d6000803e3d6000fd5b505050506040513d601f19601f8201168201806040525081019061180391906153a0565b61181f5760405162461bcd60e51b815260040161078b906153bd565b600019606681905560405190815233907fab40a374bc51de372200a8bc981af8c9ecdc08dfdaef0bb6e09f88f3c616ef3d9060200160405180910390a2565b60606000846001600160a01b031663c391425e84866040518363ffffffff1660e01b81526004016118909291906156e1565b600060405180830381865afa1580156118ad573d6000803e3d6000fd5b505050506040513d6000823e601f3d908101601f191682016040526118d59190810190615571565b9050600084516001600160401b038111156118f2576118f26145f7565b60405190808252806020026020018201604052801561191b578160200160208202803683370190505b50905060005b8551811015611a1c57866001600160a01b03166304ec635187838151811061194b5761194b615405565b60200260200101518786858151811061196657611966615405565b60200260200101516040518463ffffffff1660e01b81526004016119a39392919092835263ffffffff918216602084015216604082015260600190565b602060405180830381865afa1580156119c0573d6000803e3d6000fd5b505050506040513d601f19601f820116820180604052508101906119e49190615651565b6001600160c01b03168282815181106119ff576119ff615405565b602090810291909101015280611a148161550c565b915050611921565b5095945050505050565b60d0546001600160a01b03163314611a685760405162461bcd60e51b8152602060048201526005602482015264417574683160d81b604482015260640161078b565b60cd5463ffffffff600160201b909104164314801590611a8757504315155b611af95760405162461bcd60e51b815260206004820152603960248201527f43616e2774206372656174652061207461736b20696e207468652073616d652060448201527f626c6f636b206173206120636f6d706c65746564207461736b00000000000000606482015260840161078b565b6040805161010081018252600060608083018290526080830181905260c083015260e082015260c95463ffffffff908116825260208083018890524382168385015290861660a08301528251601f85018290048202810182019093528383529091908490849081908401838280828437600092019190915250505050608082015260cd54600160201b900463ffffffff16606082015260ce8054611b9c906152fe565b80601f0160208091040260200160405190810160405280929190818152602001828054611bc8906152fe565b8015611c155780601f10611bea57610100808354040283529160200191611c15565b820191906000526020600020905b815481529060010190602001808311611bf857829003601f168201915b505050505060c082015260cf5463ffffffff90811660e083015260c9541615611ca75760c954600090611c509060019063ffffffff16615735565b9050600163ffffffff8216600090815260cc602052604090205460ff166003811115611c7e57611c7e6150e9565b1415611ca55763ffffffff8116600090815260cc60205260409020805460ff191660021790555b505b80604051602001611cb8919061575a565b60408051808303601f19018152828252805160209182012060c9805463ffffffff908116600090815260ca85528581209390935581548116835260cc909352929020805460ff19166001179055905416907f840101e40ed68f9364ac588df45a8f81d45874b1c10a496d0a2129be9134639d90611d3690849061575a565b60405180910390a260c954611d529063ffffffff16600161580b565b60c9805463ffffffff191663ffffffff929092169190911790555050505050565b6040805180820190915260608082526020820152600084611dea5760405162461bcd60e51b81526020600482015260376024820152600080516020615c3c83398151915260448201527f7265733a20656d7074792071756f72756d20696e707574000000000000000000606482015260840161078b565b60408301515185148015611e02575060a08301515185145b8015611e12575060c08301515185145b8015611e22575060e08301515185145b611e8c5760405162461bcd60e51b81526020600482015260416024820152600080516020615c3c83398151915260448201527f7265733a20696e7075742071756f72756d206c656e677468206d69736d6174636064820152600d60fb1b608482015260a40161078b565b82515160208401515114611f045760405162461bcd60e51b815260206004820152604460248201819052600080516020615c3c833981519152908201527f7265733a20696e707574206e6f6e7369676e6572206c656e677468206d69736d6064820152630c2e8c6d60e31b608482015260a40161078b565b4363ffffffff168463ffffffff1610611f735760405162461bcd60e51b815260206004820152603c6024820152600080516020615c3c83398151915260448201527f7265733a20696e76616c6964207265666572656e636520626c6f636b00000000606482015260840161078b565b6040805180820182526000808252602080830191909152825180840190935260608084529083015290866001600160401b03811115611fb457611fb46145f7565b604051908082528060200260200182016040528015611fdd578160200160208202803683370190505b506020820152866001600160401b03811115611ffb57611ffb6145f7565b604051908082528060200260200182016040528015612024578160200160208202803683370190505b50815260408051808201909152606080825260208201528560200151516001600160401b03811115612058576120586145f7565b604051908082528060200260200182016040528015612081578160200160208202803683370190505b5081526020860151516001600160401b038111156120a1576120a16145f7565b6040519080825280602002602001820160405280156120ca578160200160208202803683370190505b508160200181905250600061219c8a8a8080601f0160208091040260200160405190810160405280939291908181526020018383808284376000920191909152505060408051639aa1653d60e01b815290516001600160a01b037f0000000000000000000000000000000000000000000000000000000000000000169350639aa1653d925060048083019260209291908290030181865afa158015612173573d6000803e3d6000fd5b505050506040513d601f19601f820116820180604052508101906121979190615833565b613c7c565b905060005b876020015151811015612437576121e6886020015182815181106121c7576121c7615405565b6020026020010151805160009081526020918201519091526040902090565b836020015182815181106121fc576121fc615405565b602090810291909101015280156122bc57602083015161221d600183615850565b8151811061222d5761222d615405565b602002602001015160001c8360200151828151811061224e5761224e615405565b602002602001015160001c116122bc576040805162461bcd60e51b8152602060048201526024810191909152600080516020615c3c83398151915260448201527f7265733a206e6f6e5369676e65725075626b657973206e6f7420736f72746564606482015260840161078b565b7f00000000000000000000000000000000000000000000000000000000000000006001600160a01b03166304ec63518460200151838151811061230157612301615405565b60200260200101518b8b60000151858151811061232057612320615405565b60200260200101516040518463ffffffff1660e01b815260040161235d9392919092835263ffffffff918216602084015216604082015260600190565b602060405180830381865afa15801561237a573d6000803e3d6000fd5b505050506040513d601f19601f8201168201806040525081019061239e9190615651565b6001600160c01b0316836000015182815181106123bd576123bd615405565b6020026020010181815250506124236109f76123f784866000015185815181106123e9576123e9615405565b602002602001015116613d0f565b8a60200151848151811061240d5761240d615405565b6020026020010151613d3a90919063ffffffff16565b94508061242f8161550c565b9150506121a1565b505061244283613e1e565b60975490935060ff166000816124595760006124db565b7f00000000000000000000000000000000000000000000000000000000000000006001600160a01b031663c448feb86040518163ffffffff1660e01b8152600401602060405180830381865afa1580156124b7573d6000803e3d6000fd5b505050506040513d601f19601f820116820180604052508101906124db9190615867565b905060005b8a811015612b5a57821561263c578963ffffffff16827f00000000000000000000000000000000000000000000000000000000000000006001600160a01b031663249a0c428f8f8681811061253757612537615405565b60405160e085901b6001600160e01b031916815292013560f81c600483015250602401602060405180830381865afa158015612577573d6000803e3d6000fd5b505050506040513d601f19601f8201168201806040525081019061259b9190615867565b6125a59190615880565b101561263c5760405162461bcd60e51b81526020600482015260666024820152600080516020615c3c83398151915260448201527f7265733a205374616b6552656769737472792075706461746573206d7573742060648201527f62652077697468696e207769746864726177616c44656c6179426c6f636b732060848201526577696e646f7760d01b60a482015260c40161078b565b7f00000000000000000000000000000000000000000000000000000000000000006001600160a01b03166368bccaac8d8d8481811061267d5761267d615405565b9050013560f81c60f81b60f81c8c8c60a0015185815181106126a1576126a1615405565b60209081029190910101516040516001600160e01b031960e086901b16815260ff909316600484015263ffffffff9182166024840152166044820152606401602060405180830381865afa1580156126fd573d6000803e3d6000fd5b505050506040513d601f19601f820116820180604052508101906127219190615898565b6001600160401b0319166127448a6040015183815181106121c7576121c7615405565b67ffffffffffffffff1916146127e05760405162461bcd60e51b81526020600482015260616024820152600080516020615c3c83398151915260448201527f7265733a2071756f72756d41706b206861736820696e2073746f72616765206460648201527f6f6573206e6f74206d617463682070726f76696465642071756f72756d2061706084820152606b60f81b60a482015260c40161078b565b612810896040015182815181106127f9576127f9615405565b60200260200101518761387490919063ffffffff16565b95507f00000000000000000000000000000000000000000000000000000000000000006001600160a01b031663c8294c568d8d8481811061285357612853615405565b9050013560f81c60f81b60f81c8c8c60c00151858151811061287757612877615405565b60209081029190910101516040516001600160e01b031960e086901b16815260ff909316600484015263ffffffff9182166024840152166044820152606401602060405180830381865afa1580156128d3573d6000803e3d6000fd5b505050506040513d601f19601f820116820180604052508101906128f791906154cd565b8560200151828151811061290d5761290d615405565b6001600160601b0390921660209283029190910182015285015180518290811061293957612939615405565b60200260200101518560000151828151811061295757612957615405565b60200260200101906001600160601b031690816001600160601b0316815250506000805b8a6020015151811015612b45576129cf866000015182815181106129a1576129a1615405565b60200260200101518f8f868181106129bb576129bb615405565b600192013560f81c9290921c811614919050565b15612b33577f00000000000000000000000000000000000000000000000000000000000000006001600160a01b031663f2be94ae8f8f86818110612a1557612a15615405565b9050013560f81c60f81b60f81c8e89602001518581518110612a3957612a39615405565b60200260200101518f60e001518881518110612a5757612a57615405565b60200260200101518781518110612a7057612a70615405565b60209081029190910101516040516001600160e01b031960e087901b16815260ff909416600485015263ffffffff92831660248501526044840191909152166064820152608401602060405180830381865afa158015612ad4573d6000803e3d6000fd5b505050506040513d601f19601f82011682018060405250810190612af891906154cd565b8751805185908110612b0c57612b0c615405565b60200260200101818151612b2091906158c3565b6001600160601b03169052506001909101905b80612b3d8161550c565b91505061297b565b50508080612b529061550c565b9150506124e0565b505050600080612b748c868a606001518b608001516108dc565b9150915081612be55760405162461bcd60e51b81526020600482015260436024820152600080516020615c3c83398151915260448201527f7265733a2070616972696e6720707265636f6d70696c652063616c6c206661696064820152621b195960ea1b608482015260a40161078b565b80612c465760405162461bcd60e51b81526020600482015260396024820152600080516020615c3c83398151915260448201527f7265733a207369676e617475726520697320696e76616c696400000000000000606482015260840161078b565b50506000878260200151604051602001612c619291906158e3565b60408051808303601f190181529190528051602090910120929b929a509198505050505050505050565b612c93613eb9565b612c9d6000613f13565b565b60cf54600160201b90046001600160a01b03163314612ce85760405162461bcd60e51b8152602060048201526005602482015264041757468360dc1b604482015260640161078b565b6000612cfa60608601604087016147ca565b9050366000612d0c608088018861592b565b90925090506000612d2360c0890160a08a016147ca565b905060ca6000612d3660208a018a6147ca565b63ffffffff1663ffffffff1681526020019081526020016000205488604051602001612d6291906159b6565b6040516020818303038152906040528051906020012014612deb5760405162461bcd60e51b815260206004820152603d60248201527f737570706c696564207461736b20646f6573206e6f74206d617463682074686560448201527f206f6e65207265636f7264656420696e2074686520636f6e7472616374000000606482015260840161078b565b600160cc6000612dfe60208b018b6147ca565b63ffffffff16815260208101919091526040016000205460ff166003811115612e2957612e296150e9565b14612e465760405162461bcd60e51b815260040161078b90615a98565b600060cb81612e5860208b018b6147ca565b63ffffffff1663ffffffff1681526020019081526020016000205414612e905760405162461bcd60e51b815260040161078b90615a98565b612eba7f00000000000000000000000000000000000000000000000000000000000000008561580b565b63ffffffff164363ffffffff161115612f2b5760405162461bcd60e51b815260206004820152602d60248201527f41676772656761746f722068617320726573706f6e64656420746f207468652060448201526c7461736b20746f6f206c61746560981b606482015260840161078b565b600087604051602001612f3e9190615b2f565b604051602081830303815290604052805190602001209050600080612f668387878a8d611d73565b6040805160808101825263ffffffff43168152602080820184905280850151828401528451606083015291519395509193509091612fa8918d91849101615b3d565b6040516020818303038152906040528051906020012060cb60008d6000016020810190612fd591906147ca565b63ffffffff16815260208082019290925260400160002091909155612ffc908d018d6147ca565b63ffffffff167f82573b6e06a270f942a7da9b7d171ae407fc5035f31cdfd878fca0cb9ab67aab8c83604051613033929190615b3d565b60405180910390a260005b868110156130d4578560ff168460200151828151811061306057613060615405565b60200260200101516130729190615bab565b6001600160601b031660648560000151838151811061309357613093615405565b60200260200101516001600160601b03166130ae9190615bda565b10156130c257505050505050505050613217565b806130cc8161550c565b91505061303e565b5060a08b013560d155600360cc60006130f060208f018f6147ca565b63ffffffff16815260208101919091526040016000205460ff16600381111561311b5761311b6150e9565b5061312e905060608d0160408e016147ca565b60cd805463ffffffff92909216600160201b0267ffffffff000000001990921691909117905561316160808d018d61592b565b61316d9160ce916143d2565b5061317e60c08d0160a08e016147ca565b60cf805463ffffffff191663ffffffff929092169190911790556131a560208d018d6147ca565b60cd805463ffffffff191663ffffffff9290921691909117905560608b01356131d160208d018d6147ca565b63ffffffff167fa542f3ed04fe85128599f401843ad798fac7379b7d0bb01ee0657f6d29d1cf6f8d6040516132069190615b2f565b60405180910390a350505050505050505b50505050565b604080516001808252818301909252600091606091839160208083019080368337019050509050848160008151811061325857613258615405565b60209081029190910101526040516361c8a12f60e11b81526000906001600160a01b0388169063c391425e9061329490889086906004016156e1565b600060405180830381865afa1580156132b1573d6000803e3d6000fd5b505050506040513d6000823e601f3d908101601f191682016040526132d99190810190615571565b6000815181106132eb576132eb615405565b60209081029190910101516040516304ec635160e01b81526004810188905263ffffffff87811660248301529091166044820181905291506000906001600160a01b038916906304ec635190606401602060405180830381865afa158015613357573d6000803e3d6000fd5b505050506040513d601f19601f8201168201806040525081019061337b9190615651565b6001600160c01b03169050600061339182613f65565b90508161339f8a838a610a66565b9550955050505050935093915050565b6133b7613eb9565b6001600160a01b03811661341c5760405162461bcd60e51b815260206004820152602660248201527f4f776e61626c653a206e6577206f776e657220697320746865207a65726f206160448201526564647265737360d01b606482015260840161078b565b6103e381613f13565b600054610100900460ff16158080156134455750600054600160ff909116105b8061345f5750303b15801561345f575060005460ff166001145b6134c25760405162461bcd60e51b815260206004820152602e60248201527f496e697469616c697a61626c653a20636f6e747261637420697320616c72656160448201526d191e481a5b9a5d1a585b1a5e995960921b606482015260840161078b565b6000805460ff1916600117905580156134e5576000805461ff0019166101001790555b6134f0856000614031565b6134f984613f13565b60cf8054640100000000600160c01b031916600160201b6001600160a01b03868116919091029190911790915560d080546001600160a01b0319169184169190911790558015613583576000805461ff0019169055604051600181527f7f26b83ff96e1f2b6a682f133852f6798a09c465da95921460cefb38474024989060200160405180910390a15b5050505050565b606560009054906101000a90046001600160a01b03166001600160a01b031663eab66d7a6040518163ffffffff1660e01b8152600401602060405180830381865afa1580156135dd573d6000803e3d6000fd5b505050506040513d601f19601f820116820180604052508101906136019190615339565b6001600160a01b0316336001600160a01b0316146136315760405162461bcd60e51b815260040161078b90615356565b6066541981196066541916146136af5760405162461bcd60e51b815260206004820152603860248201527f5061757361626c652e756e70617573653a20696e76616c696420617474656d7060448201527f7420746f2070617573652066756e6374696f6e616c6974790000000000000000606482015260840161078b565b606681905560405181815233907f3582d1828e26bf56bd801502bc021ac0bc8afb57c826e4986b45593c8fad389c906020016108d1565b6001600160a01b0381166137745760405162461bcd60e51b815260206004820152604960248201527f5061757361626c652e5f73657450617573657252656769737472793a206e657760448201527f50617573657252656769737472792063616e6e6f7420626520746865207a65726064820152686f206164647265737360b81b608482015260a40161078b565b606554604080516001600160a01b03928316815291831660208301527f6e9fcd539896fca60e8b0f01dd580233e48a6b0f7df013b89ba7f565869acdb6910160405180910390a1606580546001600160a01b0319166001600160a01b0392909216919091179055565b60408051808201909152600080825260208201526137f9614456565b835181526020808501519082015260408082018490526000908360608460076107d05a03fa905080801561382c5761382e565bfe5b508061386c5760405162461bcd60e51b815260206004820152600d60248201526c1958cb5b5d5b0b59985a5b1959609a1b604482015260640161078b565b505092915050565b6040805180820190915260008082526020820152613890614474565b835181526020808501518183015283516040808401919091529084015160608301526000908360808460066107d05a03fa905080801561382c57508061386c5760405162461bcd60e51b815260206004820152600d60248201526c1958cb5859190b59985a5b1959609a1b604482015260640161078b565b613910614492565b50604080516080810182527f198e9393920d483a7260bfb731fb5d25f1aa493335a9e71297e485b7aef312c28183019081527f1800deef121f1e76426a00665e5c4479674322d4f75edadd46debd5cd992f6ed6060830152815281518083019092527f275dc4a288d1afb3cbb1ac09187524c7db36395df7be3b99e673b13a075a65ec82527f1d9befcd05a5323e6da4d435f3b617cdb3af83285c2df711ef39c01571827f9d60208381019190915281019190915290565b6040805180820190915260008082526020820152600080806139f8600080516020615c1c8339815191528661541b565b90505b613a048161411b565b9093509150600080516020615c1c833981519152828309831415613a3e576040805180820190915290815260208101919091529392505050565b600080516020615c1c8339815191526001820890506139fb565b604080518082018252868152602080820186905282518084019093528683528201849052600091829190613a8a6144b7565b60005b6002811015613c4f576000613aa3826006615bda565b9050848260028110613ab757613ab7615405565b60200201515183613ac9836000615880565b600c8110613ad957613ad9615405565b6020020152848260028110613af057613af0615405565b60200201516020015183826001613b079190615880565b600c8110613b1757613b17615405565b6020020152838260028110613b2e57613b2e615405565b6020020151515183613b41836002615880565b600c8110613b5157613b51615405565b6020020152838260028110613b6857613b68615405565b6020020151516001602002015183613b81836003615880565b600c8110613b9157613b91615405565b6020020152838260028110613ba857613ba8615405565b602002015160200151600060028110613bc357613bc3615405565b602002015183613bd4836004615880565b600c8110613be457613be4615405565b6020020152838260028110613bfb57613bfb615405565b602002015160200151600160028110613c1657613c16615405565b602002015183613c27836005615880565b600c8110613c3757613c37615405565b60200201525080613c478161550c565b915050613a8d565b50613c586144d6565b60006020826101808560088cfa9151919c9115159b50909950505050505050505050565b600080613c888461419d565b9050808360ff166001901b11613d065760405162461bcd60e51b815260206004820152603f60248201527f4269746d61705574696c732e6f72646572656442797465734172726179546f4260448201527f69746d61703a206269746d61702065786365656473206d61782076616c756500606482015260840161078b565b90505b92915050565b6000805b8215613d0957613d24600184615850565b9092169180613d3281615bf9565b915050613d13565b60408051808201909152600080825260208201526102008261ffff1610613d965760405162461bcd60e51b815260206004820152601060248201526f7363616c61722d746f6f2d6c6172676560801b604482015260640161078b565b8161ffff1660011415613daa575081613d09565b6040805180820190915260008082526020820181905284906001905b8161ffff168661ffff1610613e1357600161ffff871660ff83161c81161415613df657613df38484613874565b93505b613e008384613874565b92506201fffe600192831b169101613dc6565b509195945050505050565b60408051808201909152600080825260208201528151158015613e4357506020820151155b15613e61575050604080518082019091526000808252602082015290565b604051806040016040528083600001518152602001600080516020615c1c8339815191528460200151613e94919061541b565b613eac90600080516020615c1c833981519152615850565b905292915050565b919050565b6033546001600160a01b03163314612c9d5760405162461bcd60e51b815260206004820181905260248201527f4f776e61626c653a2063616c6c6572206973206e6f7420746865206f776e6572604482015260640161078b565b603380546001600160a01b038381166001600160a01b0319831681179093556040519116919082907f8be0079c531659141344cd1fd0a4f28419497f9722a3daafe3b4186f6b6457e090600090a35050565b6060600080613f7384613d0f565b61ffff166001600160401b03811115613f8e57613f8e6145f7565b6040519080825280601f01601f191660200182016040528015613fb8576020820181803683370190505b5090506000805b825182108015613fd0575061010081105b15614027576001811b935085841615614017578060f81b838381518110613ff957613ff9615405565b60200101906001600160f81b031916908160001a9053508160010191505b6140208161550c565b9050613fbf565b5090949350505050565b6065546001600160a01b031615801561405257506001600160a01b03821615155b6140d45760405162461bcd60e51b815260206004820152604760248201527f5061757361626c652e5f696e697469616c697a655061757365723a205f696e6960448201527f7469616c697a6550617573657228292063616e206f6e6c792062652063616c6c6064820152666564206f6e636560c81b608482015260a40161078b565b606681905560405181815233907fab40a374bc51de372200a8bc981af8c9ecdc08dfdaef0bb6e09f88f3c616ef3d9060200160405180910390a2614117826136e6565b5050565b60008080600080516020615c1c8339815191526003600080516020615c1c83398151915286600080516020615c1c833981519152888909090890506000614191827f0c19139cb84c680a6e14116da060561765e05aa45a1c72a34f082305b61f3f52600080516020615c1c83398151915261432a565b91959194509092505050565b6000610100825111156142265760405162461bcd60e51b8152602060048201526044602482018190527f4269746d61705574696c732e6f72646572656442797465734172726179546f42908201527f69746d61703a206f7264657265644279746573417272617920697320746f6f206064820152636c6f6e6760e01b608482015260a40161078b565b815161423457506000919050565b6000808360008151811061424a5761424a615405565b0160200151600160f89190911c81901b92505b84518110156143215784818151811061427857614278615405565b0160200151600160f89190911c1b915082821161430d5760405162461bcd60e51b815260206004820152604760248201527f4269746d61705574696c732e6f72646572656442797465734172726179546f4260448201527f69746d61703a206f72646572656442797465734172726179206973206e6f74206064820152661bdc99195c995960ca1b608482015260a40161078b565b9181179161431a8161550c565b905061425d565b50909392505050565b6000806143356144d6565b61433d6144f4565b602080825281810181905260408201819052606082018890526080820187905260a082018690528260c08360056107d05a03fa925082801561382c5750826143c75760405162461bcd60e51b815260206004820152601a60248201527f424e3235342e6578704d6f643a2063616c6c206661696c757265000000000000604482015260640161078b565b505195945050505050565b8280546143de906152fe565b90600052602060002090601f0160209004810192826144005760008555614446565b82601f106144195782800160ff19823516178555614446565b82800160010185558215614446579182015b8281111561444657823582559160200191906001019061442b565b50614452929150614512565b5090565b60405180606001604052806003906020820280368337509192915050565b60405180608001604052806004906020820280368337509192915050565b60405180604001604052806144a5614527565b81526020016144b2614527565b905290565b604051806101800160405280600c906020820280368337509192915050565b60405180602001604052806001906020820280368337509192915050565b6040518060c001604052806006906020820280368337509192915050565b5b808211156144525760008155600101614513565b60405180604001604052806002906020820280368337509192915050565b6000815180845260005b8181101561456b5760208185018101518683018201520161454f565b8181111561457d576000602083870101525b50601f01601f19169290920160200192915050565b6020815260006145a56020830184614545565b9392505050565b6001600160a01b03811681146103e357600080fd5b6000602082840312156145d357600080fd5b8135613d06816145ac565b6000602082840312156145f057600080fd5b5035919050565b634e487b7160e01b600052604160045260246000fd5b604080519081016001600160401b038111828210171561462f5761462f6145f7565b60405290565b60405161010081016001600160401b038111828210171561462f5761462f6145f7565b604051601f8201601f191681016001600160401b0381118282101715614680576146806145f7565b604052919050565b60006040828403121561469a57600080fd5b6146a261460d565b9050813581526020820135602082015292915050565b600082601f8301126146c957600080fd5b604051604081018181106001600160401b03821117156146eb576146eb6145f7565b806040525080604084018581111561470257600080fd5b845b81811015613e13578035835260209283019201614704565b60006080828403121561472e57600080fd5b61473661460d565b905061474283836146b8565b815261475183604084016146b8565b602082015292915050565b600080600080610120858703121561477357600080fd5b843593506147848660208701614688565b9250614793866060870161471c565b91506147a28660e08701614688565b905092959194509250565b63ffffffff811681146103e357600080fd5b8035613eb4816147ad565b6000602082840312156147dc57600080fd5b8135613d06816147ad565b6000806000606084860312156147fc57600080fd5b8335614807816145ac565b92506020848101356001600160401b038082111561482457600080fd5b818701915087601f83011261483857600080fd5b81358181111561484a5761484a6145f7565b61485c601f8201601f19168501614658565b9150808252888482850101111561487257600080fd5b8084840185840137600084828401015250809450505050614895604085016147bf565b90509250925092565b600082825180855260208086019550808260051b8401018186016000805b8581101561493757868403601f19018a52825180518086529086019086860190845b8181101561492257835180516001600160a01b03168452898101518a8501526040908101516001600160601b031690840152928801926060909201916001016148de565b50509a86019a945050918401916001016148bc565b509198975050505050505050565b6020815260006145a5602083018461489e565b80151581146103e357600080fd5b60006020828403121561497857600080fd5b8135613d0681614958565b60008083601f84011261499557600080fd5b5081356001600160401b038111156149ac57600080fd5b6020830191508360208285010111156149c457600080fd5b9250929050565b600080600080600080608087890312156149e457600080fd5b86356149ef816145ac565b955060208701356149ff816147ad565b945060408701356001600160401b0380821115614a1b57600080fd5b614a278a838b01614983565b90965094506060890135915080821115614a4057600080fd5b818901915089601f830112614a5457600080fd5b813581811115614a6357600080fd5b8a60208260051b8501011115614a7857600080fd5b6020830194508093505050509295509295509295565b600081518084526020808501945080840160005b83811015614ac457815163ffffffff1687529582019590820190600101614aa2565b509495945050505050565b600060208083528351608082850152614aeb60a0850182614a8e565b905081850151601f1980868403016040870152614b088383614a8e565b92506040870151915080868403016060870152614b258383614a8e565b60608801518782038301608089015280518083529194508501925084840190600581901b8501860160005b82811015614b7c5784878303018452614b6a828751614a8e565b95880195938801939150600101614b50565b509998505050505050505050565b600060208284031215614b9c57600080fd5b81356001600160401b03811115614bb257600080fd5b82016101208185031215613d0657600080fd5b60ff811681146103e357600080fd5b600060208284031215614be657600080fd5b8135613d0681614bc5565b60006001600160401b03821115614c0a57614c0a6145f7565b5060051b60200190565b600080600060608486031215614c2957600080fd5b8335614c34816145ac565b92506020848101356001600160401b03811115614c5057600080fd5b8501601f81018713614c6157600080fd5b8035614c74614c6f82614bf1565b614658565b81815260059190911b82018301908381019089831115614c9357600080fd5b928401925b82841015614cb157833582529284019290840190614c98565b8096505050505050614895604085016147bf565b6020808252825182820181905260009190848201906040850190845b81811015614cfd57835183529284019291840191600101614ce1565b50909695505050505050565b60008060008060608587031215614d1f57600080fd5b843593506020850135614d31816147ad565b925060408501356001600160401b03811115614d4c57600080fd5b614d5887828801614983565b95989497509550505050565b600082601f830112614d7557600080fd5b81356020614d85614c6f83614bf1565b82815260059290921b84018101918181019086841115614da457600080fd5b8286015b84811015614dc8578035614dbb816147ad565b8352918301918301614da8565b509695505050505050565b600082601f830112614de457600080fd5b81356020614df4614c6f83614bf1565b82815260069290921b84018101918181019086841115614e1357600080fd5b8286015b84811015614dc857614e298882614688565b835291830191604001614e17565b600082601f830112614e4857600080fd5b81356020614e58614c6f83614bf1565b82815260059290921b84018101918181019086841115614e7757600080fd5b8286015b84811015614dc85780356001600160401b03811115614e9a5760008081fd5b614ea88986838b0101614d64565b845250918301918301614e7b565b60006101808284031215614ec957600080fd5b614ed1614635565b905081356001600160401b0380821115614eea57600080fd5b614ef685838601614d64565b83526020840135915080821115614f0c57600080fd5b614f1885838601614dd3565b60208401526040840135915080821115614f3157600080fd5b614f3d85838601614dd3565b6040840152614f4f856060860161471c565b6060840152614f618560e08601614688565b6080840152610120840135915080821115614f7b57600080fd5b614f8785838601614d64565b60a0840152610140840135915080821115614fa157600080fd5b614fad85838601614d64565b60c0840152610160840135915080821115614fc757600080fd5b50614fd484828501614e37565b60e08301525092915050565b600080600080600060808688031215614ff857600080fd5b8535945060208601356001600160401b038082111561501657600080fd5b61502289838a01614983565b909650945060408801359150615037826147ad565b9092506060870135908082111561504d57600080fd5b5061505a88828901614eb6565b9150509295509295909350565b600081518084526020808501945080840160005b83811015614ac45781516001600160601b03168752958201959082019060010161507b565b60408152600083516040808401526150bb6080840182615067565b90506020850151603f198483030160608501526150d88282615067565b925050508260208301529392505050565b634e487b7160e01b600052602160045260246000fd5b602081016004831061512157634e487b7160e01b600052602160045260246000fd5b91905290565b60008060008084860361012081121561513f57600080fd5b85356001600160401b038082111561515657600080fd5b818801915061010080838b03121561516d57600080fd5b82975060c0601f198501121561518257600080fd5b60208901965060e089013593508184111561519c57600080fd5b6151a88a858b01614eb6565b95508801359250808311156151bc57600080fd5b9187019160e0838a0312156151d057600080fd5b60405191506060820182811082821117156151ed576151ed6145f7565b6040528235818111156151ff57600080fd5b61520b8a828601614dd3565b8352505061521c886020840161471c565b602082015261522e8860a08401614688565b604082015294979396509194505050565b60008060006060848603121561525457600080fd5b833561525f816145ac565b9250602084013591506040840135615276816147ad565b809150509250925092565b82815260406020820152600061529a604083018461489e565b949350505050565b600080600080608085870312156152b857600080fd5b84356152c3816145ac565b935060208501356152d3816145ac565b925060408501356152e3816145ac565b915060608501356152f3816145ac565b939692955090935050565b600181811c9082168061531257607f821691505b6020821081141561533357634e487b7160e01b600052602260045260246000fd5b50919050565b60006020828403121561534b57600080fd5b8151613d06816145ac565b6020808252602a908201527f6d73672e73656e646572206973206e6f74207065726d697373696f6e6564206160408201526939903ab73830bab9b2b960b11b606082015260800190565b6000602082840312156153b257600080fd5b8151613d0681614958565b60208082526028908201527f6d73672e73656e646572206973206e6f74207065726d697373696f6e6564206160408201526739903830bab9b2b960c11b606082015260800190565b634e487b7160e01b600052603260045260246000fd5b60008261543857634e487b7160e01b600052601260045260246000fd5b500690565b6000602080838503121561545057600080fd5b82516001600160401b0381111561546657600080fd5b8301601f8101851361547757600080fd5b8051615485614c6f82614bf1565b81815260059190911b820183019083810190878311156154a457600080fd5b928401925b828410156154c2578351825292840192908401906154a9565b979650505050505050565b6000602082840312156154df57600080fd5b81516001600160601b0381168114613d0657600080fd5b634e487b7160e01b600052601160045260246000fd5b6000600019821415615520576155206154f6565b5060010190565b63ffffffff84168152604060208201819052810182905260006001600160fb1b0383111561555457600080fd5b8260051b8085606085013760009201606001918252509392505050565b6000602080838503121561558457600080fd5b82516001600160401b0381111561559a57600080fd5b8301601f810185136155ab57600080fd5b80516155b9614c6f82614bf1565b81815260059190911b820183019083810190878311156155d857600080fd5b928401925b828410156154c25783516155f0816147ad565b825292840192908401906155dd565b81835281816020850137506000828201602090810191909152601f909101601f19169091010190565b63ffffffff841681526040602082015260006156486040830184866155ff565b95945050505050565b60006020828403121561566357600080fd5b81516001600160c01b0381168114613d0657600080fd5b60006020828403121561568c57600080fd5b8151613d06816147ad565b600060ff821660ff8114156156ae576156ae6154f6565b60010192915050565b6040815260006156cb6040830185876155ff565b905063ffffffff83166020830152949350505050565b60006040820163ffffffff851683526020604081850152818551808452606086019150828701935060005b818110156157285784518352938301939183019160010161570c565b5090979650505050505050565b600063ffffffff83811690831681811015615752576157526154f6565b039392505050565b6020815263ffffffff8251166020820152602082015160408201526000604083015161578e606084018263ffffffff169052565b50606083015163ffffffff811660808401525060808301516101008060a08501526157bd610120850183614545565b915060a08501516157d660c086018263ffffffff169052565b5060c0850151848303601f190160e08601526157f28382614545565b92505060e08501516140278286018263ffffffff169052565b600063ffffffff80831681851680830382111561582a5761582a6154f6565b01949350505050565b60006020828403121561584557600080fd5b8151613d0681614bc5565b600082821015615862576158626154f6565b500390565b60006020828403121561587957600080fd5b5051919050565b60008219821115615893576158936154f6565b500190565b6000602082840312156158aa57600080fd5b815167ffffffffffffffff1981168114613d0657600080fd5b60006001600160601b0383811690831681811015615752576157526154f6565b63ffffffff60e01b8360e01b1681526000600482018351602080860160005b8381101561591e57815185529382019390820190600101615902565b5092979650505050505050565b6000808335601e1984360301811261594257600080fd5b8301803591506001600160401b0382111561595c57600080fd5b6020019150368190038213156149c457600080fd5b6000808335601e1984360301811261598857600080fd5b83016020810192503590506001600160401b038111156159a757600080fd5b8036038313156149c457600080fd5b60208152600082356159c7816147ad565b63ffffffff8116602084015250602083013560408301526159ea604084016147bf565b63ffffffff8116606084015250615a03606084016147bf565b63ffffffff8116608084015250615a1d6080840184615971565b6101008060a0860152615a35610120860183856155ff565b9250615a4360a087016147bf565b63ffffffff811660c08701529150615a5e60c0870187615971565b868503601f190160e08801529250615a778484836155ff565b935050615a8660e087016147bf565b63ffffffff8116868301529150614027565b6020808252602c908201527f41676772656761746f722068617320616c726561647920726573706f6e64656460408201526b20746f20746865207461736b60a01b606082015260800190565b8035615aef816147ad565b63ffffffff81168352506020810135602083015260408101356040830152606081013560608301526080810135608083015260a081013560a08301525050565b60c08101613d098284615ae4565b615b478184615ae4565b60e060c082015263ffffffff82511660e08201526020820151610100820152600060408301516080610120840152615b83610160840182615067565b9050606084015160df1984830301610140850152615ba18282615067565b9695505050505050565b60006001600160601b0380831681851681830481118215151615615bd157615bd16154f6565b02949350505050565b6000816000190483118215151615615bf457615bf46154f6565b500290565b600061ffff80831681811415615c1157615c116154f6565b600101939250505056fe30644e72e131a029b85045b68181585d97816a916871ca8d3c208c16d87cfd47424c535369676e6174757265436865636b65722e636865636b5369676e617475a264697066735822122055c9c7f06b945172bbae37bd55e91eece936d81adffcd04bbc28b5b8354d517b64736f6c634300080c0033","linkReferences":{}},"methodIdentifiers":{"aggregator()":"245a7bfc","allTaskHashes(uint32)":"2d89f6fc","allTaskResponses(uint32)":"2cb223d5","blsApkRegistry()":"5df45946","checkSignatures(bytes32,bytes,uint32,(uint32[],(uint256,uint256)[],(uint256,uint256)[],(uint256[2],uint256[2]),(uint256,uint256),uint32[],uint32[],uint32[][]))":"6efb4636","createNewTask(uint256,uint32,bytes)":"6b92787e","delegation()":"df5cf723","dummyForOperatorStateInfoType((bool,uint8[],(uint8,uint96,(uint256,uint256))[],(uint8,uint96)[],(uint8,(uint256,uint256))[],bytes32[],(bytes32,uint8[],uint96[],uint8)[],(bytes32,uint8[],uint96[])[],(bytes32,uint8)[]))":"54d127de","generator()":"7afa1eed","getCheckSignaturesIndices(address,uint32,bytes,bytes32[])":"4f739f74","getLatestPendingStateHash()":"0373408d","getOperatorState(address,bytes,uint32)":"3563b0d1","getOperatorState(address,bytes32,uint32)":"cefdc1d4","getQuorumBitmapsAtBlockNumber(address,bytes32[],uint32)":"5c155662","getTaskResponseWindowBlock()":"f5c9899d","indexToTaskStatus(uint32)":"99dba0c4","initialize(address,address,address,address)":"f8c8765e","lastCompletedTaskCreatedBlock()":"1ce7b2e5","lastCompletedTaskNum()":"66e4a1ca","lastCompletedTaskQuorumNumbers()":"0e8e77c4","lastCompletedTaskQuorumThresholdPercentage()":"44d6ef39","latestPendingStateHash()":"4ae6b203","latestTaskNum()":"8b00ce7c","owner()":"8da5cb5b","pause(uint256)":"136439dd","pauseAll()":"595c6a67","paused()":"5c975abb","paused(uint8)":"5ac86ab7","pauserRegistry()":"886f1195","registryCoordinator()":"6d14a987","renounceOwnership()":"715018a6","respondToTask((uint32,uint256,uint32,uint32,bytes,uint32,bytes,uint32),(uint32,bytes32,bytes32,bytes32,bytes32,bytes32),(uint32[],(uint256,uint256)[],(uint256,uint256)[],(uint256[2],uint256[2]),(uint256,uint256),uint32[],uint32[],uint32[][]),((uint256,uint256)[],(uint256[2],uint256[2]),(uint256,uint256)))":"acfa1354","setPauserRegistry(address)":"10d67a2f","setStaleStakesForbidden(bool)":"416c7e5e","stakeRegistry()":"68304835","staleStakesForbidden()":"b98d0908","taskNumber()":"72d18e8d","transferOwnership(address)":"f2fde38b","trySignatureAndApkVerification(bytes32,(uint256,uint256),(uint256[2],uint256[2]),(uint256,uint256))":"171f1d5b","unpause(uint256)":"fabc1cbc"},"id":125}