{"abi":[{"type":"function","name":"THRESHOLD_DENOMINATOR","inputs":[],"outputs":[{"name":"","type":"uint256","internalType":"uint256"}],"stateMutability":"view"},{"type":"function","name":"aggregator","inputs":[],"outputs":[{"name":"","type":"address","internalType":"address"}],"stateMutability":"view"},{"type":"function","name":"allTaskHashes","inputs":[{"name":"","type":"uint8","internalType":"enum FinalizerTaskManager.TaskType"},{"name":"","type":"uint32","internalType":"uint32"}],"outputs":[{"name":"","type":"bytes32","internalType":"bytes32"}],"stateMutability":"view"},{"type":"function","name":"allTaskResponses","inputs":[{"name":"","type":"uint8","internalType":"enum FinalizerTaskManager.TaskType"},{"name":"","type":"uint32","internalType":"uint32"}],"outputs":[{"name":"","type":"bytes32","internalType":"bytes32"}],"stateMutability":"view"},{"type":"function","name":"allowNonRootInit","inputs":[],"outputs":[{"name":"","type":"bool","internalType":"bool"}],"stateMutability":"view"},{"type":"function","name":"blsApkRegistry","inputs":[],"outputs":[{"name":"","type":"address","internalType":"contract IBLSApkRegistry"}],"stateMutability":"view"},{"type":"function","name":"blsSignatureChecker","inputs":[],"outputs":[{"name":"","type":"address","internalType":"contract BLSSignatureChecker"}],"stateMutability":"view"},{"type":"function","name":"checkSignatures","inputs":[{"name":"msgHash","type":"bytes32","internalType":"bytes32"},{"name":"quorumNumbers","type":"bytes","internalType":"bytes"},{"name":"referenceBlockNumber","type":"uint32","internalType":"uint32"},{"name":"nonSignerStakesAndSignature","type":"tuple","internalType":"struct IBLSSignatureChecker.NonSignerStakesAndSignature","components":[{"name":"nonSignerQuorumBitmapIndices","type":"uint32[]","internalType":"uint32[]"},{"name":"nonSignerPubkeys","type":"tuple[]","internalType":"struct BN254.G1Point[]","components":[{"name":"X","type":"uint256","internalType":"uint256"},{"name":"Y","type":"uint256","internalType":"uint256"}]},{"name":"quorumApks","type":"tuple[]","internalType":"struct BN254.G1Point[]","components":[{"name":"X","type":"uint256","internalType":"uint256"},{"name":"Y","type":"uint256","internalType":"uint256"}]},{"name":"apkG2","type":"tuple","internalType":"struct BN254.G2Point","components":[{"name":"X","type":"uint256[2]","internalType":"uint256[2]"},{"name":"Y","type":"uint256[2]","internalType":"uint256[2]"}]},{"name":"sigma","type":"tuple","internalType":"struct BN254.G1Point","components":[{"name":"X","type":"uint256","internalType":"uint256"},{"name":"Y","type":"uint256","internalType":"uint256"}]},{"name":"quorumApkIndices","type":"uint32[]","internalType":"uint32[]"},{"name":"totalStakeIndices","type":"uint32[]","internalType":"uint32[]"},{"name":"nonSignerStakeIndices","type":"uint32[][]","internalType":"uint32[][]"}]}],"outputs":[{"name":"","type":"tuple","internalType":"struct IBLSSignatureChecker.QuorumStakeTotals","components":[{"name":"signedStakeForQuorum","type":"uint96[]","internalType":"uint96[]"},{"name":"totalStakeForQuorum","type":"uint96[]","internalType":"uint96[]"}]},{"name":"","type":"bytes32","internalType":"bytes32"}],"stateMutability":"view"},{"type":"function","name":"createNewOpTask","inputs":[{"name":"quorumThresholdPercentage","type":"uint32","internalType":"uint32"},{"name":"quorumNumbers","type":"bytes","internalType":"bytes"}],"outputs":[],"stateMutability":"nonpayable"},{"type":"function","name":"createNewRdTask","inputs":[{"name":"blockNumber","type":"uint256","internalType":"uint256"}],"outputs":[],"stateMutability":"nonpayable"},{"type":"function","name":"delegation","inputs":[],"outputs":[{"name":"","type":"address","internalType":"contract IDelegationManager"}],"stateMutability":"view"},{"type":"function","name":"dummyForOperatorStateInfoType","inputs":[{"name":"_operatorStateInfo","type":"tuple","internalType":"struct IGaspMultiRollupServicePrimitives.OperatorStateInfo","components":[{"name":"operatorsStateChanged","type":"bool","internalType":"bool"},{"name":"quorumsRemoved","type":"uint8[]","internalType":"uint8[]"},{"name":"quorumsAdded","type":"tuple[]","internalType":"struct IGaspMultiRollupServicePrimitives.QuorumsAdded[]","components":[{"name":"quorumNumber","type":"uint8","internalType":"uint8"},{"name":"quorumStake","type":"uint96","internalType":"uint96"},{"name":"quorumApk","type":"tuple","internalType":"struct BN254.G1Point","components":[{"name":"X","type":"uint256","internalType":"uint256"},{"name":"Y","type":"uint256","internalType":"uint256"}]}]},{"name":"quorumsStakeUpdate","type":"tuple[]","internalType":"struct IGaspMultiRollupServicePrimitives.QuorumsStakeUpdate[]","components":[{"name":"quorumNumber","type":"uint8","internalType":"uint8"},{"name":"quorumStake","type":"uint96","internalType":"uint96"}]},{"name":"quorumsApkUpdate","type":"tuple[]","internalType":"struct IGaspMultiRollupServicePrimitives.QuorumsApkUpdate[]","components":[{"name":"quorumNumber","type":"uint8","internalType":"uint8"},{"name":"quorumApk","type":"tuple","internalType":"struct BN254.G1Point","components":[{"name":"X","type":"uint256","internalType":"uint256"},{"name":"Y","type":"uint256","internalType":"uint256"}]}]},{"name":"operatorsRemoved","type":"bytes32[]","internalType":"bytes32[]"},{"name":"operatorsAdded","type":"tuple[]","internalType":"struct IGaspMultiRollupServicePrimitives.OperatorsAdded[]","components":[{"name":"operatorId","type":"bytes32","internalType":"bytes32"},{"name":"quorumForStakes","type":"uint8[]","internalType":"uint8[]"},{"name":"quorumStakes","type":"uint96[]","internalType":"uint96[]"},{"name":"quorumCount","type":"uint8","internalType":"uint8"}]},{"name":"operatorsStakeUpdate","type":"tuple[]","internalType":"struct IGaspMultiRollupServicePrimitives.OperatorsStakeUpdate[]","components":[{"name":"operatorId","type":"bytes32","internalType":"bytes32"},{"name":"quorumForStakes","type":"uint8[]","internalType":"uint8[]"},{"name":"quorumStakes","type":"uint96[]","internalType":"uint96[]"}]},{"name":"operatorsQuorumCountUpdate","type":"tuple[]","internalType":"struct IGaspMultiRollupServicePrimitives.OperatorsQuorumCountUpdate[]","components":[{"name":"operatorId","type":"bytes32","internalType":"bytes32"},{"name":"quorumCount","type":"uint8","internalType":"uint8"}]}]}],"outputs":[],"stateMutability":"view"},{"type":"function","name":"dummyForQuorumStakeTotalsType","inputs":[{"name":"_quorumStakeTotals","type":"tuple","internalType":"struct IBLSSignatureChecker.QuorumStakeTotals","components":[{"name":"signedStakeForQuorum","type":"uint96[]","internalType":"uint96[]"},{"name":"totalStakeForQuorum","type":"uint96[]","internalType":"uint96[]"}]}],"outputs":[],"stateMutability":"view"},{"type":"function","name":"generator","inputs":[],"outputs":[{"name":"","type":"address","internalType":"address"}],"stateMutability":"view"},{"type":"function","name":"getCheckSignaturesIndices","inputs":[{"name":"registryCoordinator","type":"address","internalType":"contract IRegistryCoordinator"},{"name":"referenceBlockNumber","type":"uint32","internalType":"uint32"},{"name":"quorumNumbers","type":"bytes","internalType":"bytes"},{"name":"nonSignerOperatorIds","type":"bytes32[]","internalType":"bytes32[]"}],"outputs":[{"name":"","type":"tuple","internalType":"struct OperatorStateRetriever.CheckSignaturesIndices","components":[{"name":"nonSignerQuorumBitmapIndices","type":"uint32[]","internalType":"uint32[]"},{"name":"quorumApkIndices","type":"uint32[]","internalType":"uint32[]"},{"name":"totalStakeIndices","type":"uint32[]","internalType":"uint32[]"},{"name":"nonSignerStakeIndices","type":"uint32[][]","internalType":"uint32[][]"}]}],"stateMutability":"view"},{"type":"function","name":"getOperatorState","inputs":[{"name":"registryCoordinator","type":"address","internalType":"contract IRegistryCoordinator"},{"name":"quorumNumbers","type":"bytes","internalType":"bytes"},{"name":"blockNumber","type":"uint32","internalType":"uint32"}],"outputs":[{"name":"","type":"tuple[][]","internalType":"struct OperatorStateRetriever.Operator[][]","components":[{"name":"operator","type":"address","internalType":"address"},{"name":"operatorId","type":"bytes32","internalType":"bytes32"},{"name":"stake","type":"uint96","internalType":"uint96"}]}],"stateMutability":"view"},{"type":"function","name":"getOperatorState","inputs":[{"name":"registryCoordinator","type":"address","internalType":"contract IRegistryCoordinator"},{"name":"operatorId","type":"bytes32","internalType":"bytes32"},{"name":"blockNumber","type":"uint32","internalType":"uint32"}],"outputs":[{"name":"","type":"uint256","internalType":"uint256"},{"name":"","type":"tuple[][]","internalType":"struct OperatorStateRetriever.Operator[][]","components":[{"name":"operator","type":"address","internalType":"address"},{"name":"operatorId","type":"bytes32","internalType":"bytes32"},{"name":"stake","type":"uint96","internalType":"uint96"}]}],"stateMutability":"view"},{"type":"function","name":"getQuorumBitmapsAtBlockNumber","inputs":[{"name":"registryCoordinator","type":"address","internalType":"contract IRegistryCoordinator"},{"name":"operatorIds","type":"bytes32[]","internalType":"bytes32[]"},{"name":"blockNumber","type":"uint32","internalType":"uint32"}],"outputs":[{"name":"","type":"uint256[]","internalType":"uint256[]"}],"stateMutability":"view"},{"type":"function","name":"idToTaskStatus","inputs":[{"name":"","type":"uint8","internalType":"enum FinalizerTaskManager.TaskType"},{"name":"","type":"uint32","internalType":"uint32"}],"outputs":[{"name":"","type":"uint8","internalType":"enum FinalizerTaskManager.TaskStatus"}],"stateMutability":"view"},{"type":"function","name":"initialize","inputs":[{"name":"_pauserRegistry","type":"address","internalType":"contract IPauserRegistry"},{"name":"initialOwner","type":"address","internalType":"address"},{"name":"_aggregator","type":"address","internalType":"address"},{"name":"_generator","type":"address","internalType":"address"},{"name":"_allowNonRootInit","type":"bool","internalType":"bool"},{"name":"_blsSignatureCheckerAddress","type":"address","internalType":"address"},{"name":"_taskResponseWindowBlock","type":"uint32","internalType":"uint32"}],"outputs":[],"stateMutability":"nonpayable"},{"type":"function","name":"lastCompletedOpTaskCreatedBlock","inputs":[],"outputs":[{"name":"","type":"uint32","internalType":"uint32"}],"stateMutability":"view"},{"type":"function","name":"lastCompletedOpTaskNum","inputs":[],"outputs":[{"name":"","type":"uint32","internalType":"uint32"}],"stateMutability":"view"},{"type":"function","name":"lastCompletedOpTaskQuorumNumbers","inputs":[],"outputs":[{"name":"","type":"bytes","internalType":"bytes"}],"stateMutability":"view"},{"type":"function","name":"lastCompletedOpTaskQuorumThresholdPercentage","inputs":[],"outputs":[{"name":"","type":"uint32","internalType":"uint32"}],"stateMutability":"view"},{"type":"function","name":"latestOpTaskNum","inputs":[],"outputs":[{"name":"","type":"uint32","internalType":"uint32"}],"stateMutability":"view"},{"type":"function","name":"latestPendingStateHash","inputs":[],"outputs":[{"name":"","type":"bytes32","internalType":"bytes32"}],"stateMutability":"view"},{"type":"function","name":"latestRdTaskNum","inputs":[],"outputs":[{"name":"","type":"uint32","internalType":"uint32"}],"stateMutability":"view"},{"type":"function","name":"operatorsStateInfoHash","inputs":[],"outputs":[{"name":"","type":"bytes32","internalType":"bytes32"}],"stateMutability":"view"},{"type":"function","name":"owner","inputs":[],"outputs":[{"name":"","type":"address","internalType":"address"}],"stateMutability":"view"},{"type":"function","name":"pause","inputs":[{"name":"newPausedStatus","type":"uint256","internalType":"uint256"}],"outputs":[],"stateMutability":"nonpayable"},{"type":"function","name":"pauseAll","inputs":[],"outputs":[],"stateMutability":"nonpayable"},{"type":"function","name":"paused","inputs":[{"name":"index","type":"uint8","internalType":"uint8"}],"outputs":[{"name":"","type":"bool","internalType":"bool"}],"stateMutability":"view"},{"type":"function","name":"paused","inputs":[],"outputs":[{"name":"","type":"uint256","internalType":"uint256"}],"stateMutability":"view"},{"type":"function","name":"pauserRegistry","inputs":[],"outputs":[{"name":"","type":"address","internalType":"contract IPauserRegistry"}],"stateMutability":"view"},{"type":"function","name":"registryCoordinator","inputs":[],"outputs":[{"name":"","type":"address","internalType":"contract IRegistryCoordinator"}],"stateMutability":"view"},{"type":"function","name":"renounceOwnership","inputs":[],"outputs":[],"stateMutability":"nonpayable"},{"type":"function","name":"respondToOpTask","inputs":[{"name":"task","type":"tuple","internalType":"struct IFinalizerTaskManager.OpTask","components":[{"name":"taskNum","type":"uint32","internalType":"uint32"},{"name":"taskCreatedBlock","type":"uint32","internalType":"uint32"},{"name":"lastCompletedOpTaskCreatedBlock","type":"uint32","internalType":"uint32"},{"name":"quorumNumbers","type":"bytes","internalType":"bytes"},{"name":"quorumThresholdPercentage","type":"uint32","internalType":"uint32"},{"name":"lastCompletedOpTaskQuorumNumbers","type":"bytes","internalType":"bytes"},{"name":"lastCompletedOpTaskQuorumThresholdPercentage","type":"uint32","internalType":"uint32"}]},{"name":"taskResponse","type":"tuple","internalType":"struct IFinalizerTaskManager.OpTaskResponse","components":[{"name":"referenceTaskIndex","type":"uint32","internalType":"uint32"},{"name":"referenceTaskHash","type":"bytes32","internalType":"bytes32"},{"name":"operatorsStateInfoHash","type":"bytes32","internalType":"bytes32"}]},{"name":"nonSignerStakesAndSignature","type":"tuple","internalType":"struct IBLSSignatureChecker.NonSignerStakesAndSignature","components":[{"name":"nonSignerQuorumBitmapIndices","type":"uint32[]","internalType":"uint32[]"},{"name":"nonSignerPubkeys","type":"tuple[]","internalType":"struct BN254.G1Point[]","components":[{"name":"X","type":"uint256","internalType":"uint256"},{"name":"Y","type":"uint256","internalType":"uint256"}]},{"name":"quorumApks","type":"tuple[]","internalType":"struct BN254.G1Point[]","components":[{"name":"X","type":"uint256","internalType":"uint256"},{"name":"Y","type":"uint256","internalType":"uint256"}]},{"name":"apkG2","type":"tuple","internalType":"struct BN254.G2Point","components":[{"name":"X","type":"uint256[2]","internalType":"uint256[2]"},{"name":"Y","type":"uint256[2]","internalType":"uint256[2]"}]},{"name":"sigma","type":"tuple","internalType":"struct BN254.G1Point","components":[{"name":"X","type":"uint256","internalType":"uint256"},{"name":"Y","type":"uint256","internalType":"uint256"}]},{"name":"quorumApkIndices","type":"uint32[]","internalType":"uint32[]"},{"name":"totalStakeIndices","type":"uint32[]","internalType":"uint32[]"},{"name":"nonSignerStakeIndices","type":"uint32[][]","internalType":"uint32[][]"}]}],"outputs":[],"stateMutability":"nonpayable"},{"type":"function","name":"respondToRdTask","inputs":[{"name":"task","type":"tuple","internalType":"struct IFinalizerTaskManager.RdTask","components":[{"name":"taskNum","type":"uint32","internalType":"uint32"},{"name":"blockNumber","type":"uint256","internalType":"uint256"},{"name":"taskCreatedBlock","type":"uint32","internalType":"uint32"},{"name":"lastCompletedOpTaskCreatedBlock","type":"uint32","internalType":"uint32"},{"name":"lastCompletedOpTaskQuorumNumbers","type":"bytes","internalType":"bytes"},{"name":"lastCompletedOpTaskQuorumThresholdPercentage","type":"uint32","internalType":"uint32"}]},{"name":"taskResponse","type":"tuple","internalType":"struct IFinalizerTaskManager.RdTaskResponse","components":[{"name":"referenceTaskIndex","type":"uint32","internalType":"uint32"},{"name":"referenceTaskHash","type":"bytes32","internalType":"bytes32"},{"name":"blockHash","type":"bytes32","internalType":"bytes32"},{"name":"storageProofHash","type":"bytes32","internalType":"bytes32"},{"name":"pendingStateHash","type":"bytes32","internalType":"bytes32"}]},{"name":"nonSignerStakesAndSignature","type":"tuple","internalType":"struct IBLSSignatureChecker.NonSignerStakesAndSignature","components":[{"name":"nonSignerQuorumBitmapIndices","type":"uint32[]","internalType":"uint32[]"},{"name":"nonSignerPubkeys","type":"tuple[]","internalType":"struct BN254.G1Point[]","components":[{"name":"X","type":"uint256","internalType":"uint256"},{"name":"Y","type":"uint256","internalType":"uint256"}]},{"name":"quorumApks","type":"tuple[]","internalType":"struct BN254.G1Point[]","components":[{"name":"X","type":"uint256","internalType":"uint256"},{"name":"Y","type":"uint256","internalType":"uint256"}]},{"name":"apkG2","type":"tuple","internalType":"struct BN254.G2Point","components":[{"name":"X","type":"uint256[2]","internalType":"uint256[2]"},{"name":"Y","type":"uint256[2]","internalType":"uint256[2]"}]},{"name":"sigma","type":"tuple","internalType":"struct BN254.G1Point","components":[{"name":"X","type":"uint256","internalType":"uint256"},{"name":"Y","type":"uint256","internalType":"uint256"}]},{"name":"quorumApkIndices","type":"uint32[]","internalType":"uint32[]"},{"name":"totalStakeIndices","type":"uint32[]","internalType":"uint32[]"},{"name":"nonSignerStakeIndices","type":"uint32[][]","internalType":"uint32[][]"}]}],"outputs":[],"stateMutability":"nonpayable"},{"type":"function","name":"setPauserRegistry","inputs":[{"name":"newPauserRegistry","type":"address","internalType":"contract IPauserRegistry"}],"outputs":[],"stateMutability":"nonpayable"},{"type":"function","name":"stakeRegistry","inputs":[],"outputs":[{"name":"","type":"address","internalType":"contract IStakeRegistry"}],"stateMutability":"view"},{"type":"function","name":"taskResponseWindowBlock","inputs":[],"outputs":[{"name":"","type":"uint32","internalType":"uint32"}],"stateMutability":"view"},{"type":"function","name":"transferOwnership","inputs":[{"name":"newOwner","type":"address","internalType":"address"}],"outputs":[],"stateMutability":"nonpayable"},{"type":"function","name":"unpause","inputs":[{"name":"newPausedStatus","type":"uint256","internalType":"uint256"}],"outputs":[],"stateMutability":"nonpayable"},{"type":"function","name":"updateBlsSignatureCheckerAddress","inputs":[{"name":"_blsSignatureCheckerAddress","type":"address","internalType":"address"}],"outputs":[],"stateMutability":"nonpayable"},{"type":"event","name":"BLSSignatureCheckerAddressUpdated","inputs":[{"name":"blsSignatureCheckerAddress","type":"address","indexed":false,"internalType":"address"}],"anonymous":false},{"type":"event","name":"Initialized","inputs":[{"name":"version","type":"uint8","indexed":false,"internalType":"uint8"}],"anonymous":false},{"type":"event","name":"NewOpTaskCreated","inputs":[{"name":"taskIndex","type":"uint32","indexed":true,"internalType":"uint32"},{"name":"task","type":"tuple","indexed":false,"internalType":"struct IFinalizerTaskManager.OpTask","components":[{"name":"taskNum","type":"uint32","internalType":"uint32"},{"name":"taskCreatedBlock","type":"uint32","internalType":"uint32"},{"name":"lastCompletedOpTaskCreatedBlock","type":"uint32","internalType":"uint32"},{"name":"quorumNumbers","type":"bytes","internalType":"bytes"},{"name":"quorumThresholdPercentage","type":"uint32","internalType":"uint32"},{"name":"lastCompletedOpTaskQuorumNumbers","type":"bytes","internalType":"bytes"},{"name":"lastCompletedOpTaskQuorumThresholdPercentage","type":"uint32","internalType":"uint32"}]}],"anonymous":false},{"type":"event","name":"NewRdTaskCreated","inputs":[{"name":"taskIndex","type":"uint32","indexed":true,"internalType":"uint32"},{"name":"task","type":"tuple","indexed":false,"internalType":"struct IFinalizerTaskManager.RdTask","components":[{"name":"taskNum","type":"uint32","internalType":"uint32"},{"name":"blockNumber","type":"uint256","internalType":"uint256"},{"name":"taskCreatedBlock","type":"uint32","internalType":"uint32"},{"name":"lastCompletedOpTaskCreatedBlock","type":"uint32","internalType":"uint32"},{"name":"lastCompletedOpTaskQuorumNumbers","type":"bytes","internalType":"bytes"},{"name":"lastCompletedOpTaskQuorumThresholdPercentage","type":"uint32","internalType":"uint32"}]}],"anonymous":false},{"type":"event","name":"OpTaskCompleted","inputs":[{"name":"taskIndex","type":"uint32","indexed":true,"internalType":"uint32"},{"name":"taskResponse","type":"tuple","indexed":false,"internalType":"struct IFinalizerTaskManager.OpTaskResponse","components":[{"name":"referenceTaskIndex","type":"uint32","internalType":"uint32"},{"name":"referenceTaskHash","type":"bytes32","internalType":"bytes32"},{"name":"operatorsStateInfoHash","type":"bytes32","internalType":"bytes32"}]}],"anonymous":false},{"type":"event","name":"OpTaskResponded","inputs":[{"name":"taskIndex","type":"uint32","indexed":true,"internalType":"uint32"},{"name":"taskResponse","type":"tuple","indexed":false,"internalType":"struct IFinalizerTaskManager.OpTaskResponse","components":[{"name":"referenceTaskIndex","type":"uint32","internalType":"uint32"},{"name":"referenceTaskHash","type":"bytes32","internalType":"bytes32"},{"name":"operatorsStateInfoHash","type":"bytes32","internalType":"bytes32"}]},{"name":"taskResponseMetadata","type":"tuple","indexed":false,"internalType":"struct IFinalizerTaskManager.TaskResponseMetadata","components":[{"name":"taskResponsedBlock","type":"uint32","internalType":"uint32"},{"name":"hashOfNonSigners","type":"bytes32","internalType":"bytes32"},{"name":"quroumStakeTotals","type":"uint96[]","internalType":"uint96[]"},{"name":"quroumStakeSigned","type":"uint96[]","internalType":"uint96[]"}]}],"anonymous":false},{"type":"event","name":"OwnershipTransferred","inputs":[{"name":"previousOwner","type":"address","indexed":true,"internalType":"address"},{"name":"newOwner","type":"address","indexed":true,"internalType":"address"}],"anonymous":false},{"type":"event","name":"Paused","inputs":[{"name":"account","type":"address","indexed":true,"internalType":"address"},{"name":"newPausedStatus","type":"uint256","indexed":false,"internalType":"uint256"}],"anonymous":false},{"type":"event","name":"PauserRegistrySet","inputs":[{"name":"pauserRegistry","type":"address","indexed":false,"internalType":"contract IPauserRegistry"},{"name":"newPauserRegistry","type":"address","indexed":false,"internalType":"contract IPauserRegistry"}],"anonymous":false},{"type":"event","name":"RdTaskCompleted","inputs":[{"name":"taskIndex","type":"uint32","indexed":true,"internalType":"uint32"},{"name":"blockHash","type":"bytes32","indexed":true,"internalType":"bytes32"},{"name":"taskResponse","type":"tuple","indexed":false,"internalType":"struct IFinalizerTaskManager.RdTaskResponse","components":[{"name":"referenceTaskIndex","type":"uint32","internalType":"uint32"},{"name":"referenceTaskHash","type":"bytes32","internalType":"bytes32"},{"name":"blockHash","type":"bytes32","internalType":"bytes32"},{"name":"storageProofHash","type":"bytes32","internalType":"bytes32"},{"name":"pendingStateHash","type":"bytes32","internalType":"bytes32"}]}],"anonymous":false},{"type":"event","name":"RdTaskResponded","inputs":[{"name":"taskIndex","type":"uint32","indexed":true,"internalType":"uint32"},{"name":"taskResponse","type":"tuple","indexed":false,"internalType":"struct IFinalizerTaskManager.RdTaskResponse","components":[{"name":"referenceTaskIndex","type":"uint32","internalType":"uint32"},{"name":"referenceTaskHash","type":"bytes32","internalType":"bytes32"},{"name":"blockHash","type":"bytes32","internalType":"bytes32"},{"name":"storageProofHash","type":"bytes32","internalType":"bytes32"},{"name":"pendingStateHash","type":"bytes32","internalType":"bytes32"}]},{"name":"taskResponseMetadata","type":"tuple","indexed":false,"internalType":"struct IFinalizerTaskManager.TaskResponseMetadata","components":[{"name":"taskResponsedBlock","type":"uint32","internalType":"uint32"},{"name":"hashOfNonSigners","type":"bytes32","internalType":"bytes32"},{"name":"quroumStakeTotals","type":"uint96[]","internalType":"uint96[]"},{"name":"quroumStakeSigned","type":"uint96[]","internalType":"uint96[]"}]}],"anonymous":false},{"type":"event","name":"StaleStakesForbiddenUpdate","inputs":[{"name":"value","type":"bool","indexed":false,"internalType":"bool"}],"anonymous":false},{"type":"event","name":"Unpaused","inputs":[{"name":"account","type":"address","indexed":true,"internalType":"address"},{"name":"newPausedStatus","type":"uint256","indexed":false,"internalType":"uint256"}],"anonymous":false}],"bytecode":{"object":"0x608060405234801561001057600080fd5b50615178806100206000396000f3fe608060405234801561001057600080fd5b50600436106102745760003560e01c8063683048351161015157806398120901116100c3578063cefdc1d411610087578063cefdc1d4146105eb578063df5cf7231461060c578063e70c262314610614578063ef02445814610624578063f2fde38b1461062c578063fabc1cbc1461063f57600080fd5b8063981209011461056a578063a69563a91461057d578063adfcb04814610594578063b3ea184e1461059d578063bf2315ed146105b057600080fd5b8063723114ab11610115578063723114ab146104f95780637afa1eed1461050c5780637afdd54b1461051f578063886f1195146105365780638da5cb5b146105495780638fc8729a1461055a57600080fd5b806368304835146104ad5780636d14a987146104b55780636e125ff4146104bd5780636efb4636146104d0578063715018a6146104f157600080fd5b806345265b7a116101ea57806354d127de116101ae57806354d127de14610444578063595c6a67146104525780635ac86ab71461045a5780635c1556621461047d5780635c975abb1461049d5780635df45946146104a557600080fd5b806345265b7a146103e05780634ae6b203146103f15780634f739f74146103fa578063516a72271461041a578063537a29291461042d57600080fd5b80631ac272971161023c5780631ac272971461030f5780631c178e9c1461033a578063245a7bfc146103655780632830e8f91461037f5780633563b0d11461039457806341789d57146103b457600080fd5b806305c6b663146102795780630ee0fdbd1461028e57806310d67a2f146102b0578063136439dd146102c357806313f815ed146102d6575b600080fd5b61028c610287366004613aba565b610652565b005b60a15461029b9060ff1681565b60405190151581526020015b60405180910390f35b61028c6102be366004613b57565b610c20565b61028c6102d1366004613b7b565b610cd0565b6103016102e4366004613b94565b609860209081526000928352604080842090915290825290205481565b6040519081526020016102a7565b61030161031d366004613b94565b609960209081526000928352604080842090915290825290205481565b60975461034d906001600160a01b031681565b6040516001600160a01b0390911681526020016102a7565b609d5461034d90600160201b90046001600160a01b031681565b610387610e0f565b6040516102a79190613c1e565b6103a76103a2366004613c31565b610e9d565b6040516102a79190613d8c565b6097546103cb90600160c01b900463ffffffff1681565b60405163ffffffff90911681526020016102a7565b61028c6103ee366004613d9f565b50565b610301609f5481565b61040d610408366004613e21565b611333565b6040516102a79190613f7a565b61028c610428366004613ff8565b611a59565b609b546103cb90600160201b900463ffffffff1681565b61028c6103ee366004614068565b61028c612169565b61029b6104683660046140a3565b606654600160ff9092169190911b9081161490565b61049061048b3660046140c6565b612230565b6040516102a79190614172565b606654610301565b61034d6123f8565b61034d61246b565b61034d6124b5565b61028c6104cb3660046141b6565b6124ff565b6104e36104de36600461420a565b6128e6565b6040516102a79291906142ca565b61028c612986565b61028c610507366004613b57565b61299a565b609e5461034d906001600160a01b031681565b6097546103cb90600160e01b900463ffffffff1681565b60655461034d906001600160a01b031681565b6033546001600160a01b031661034d565b609b546103cb9063ffffffff1681565b61028c610578366004614321565b6129f6565b6097546103cb90600160a01b900463ffffffff1681565b61030160a05481565b61028c6105ab366004613b7b565b612b90565b6105de6105be366004613b94565b609a60209081526000928352604080842090915290825290205460ff1681565b6040516102a791906143cd565b6105fe6105f93660046143f5565b612ed2565b6040516102a7929190614437565b61034d613064565b609d546103cb9063ffffffff1681565b610301606481565b61028c61063a366004613b57565b6130ae565b61028c61064d366004613b7b565b613124565b609d54600160201b90046001600160a01b0316331461068c5760405162461bcd60e51b815260040161068390614458565b60405180910390fd5b600061069e6080850160608601614477565b905060006106b26060860160408701614477565b90503660006106c46080880188614494565b909250905060006106db60c0890160a08a01614477565b60016000908152609860209081529192507fe66b7f18a15fed257e722ee4e0b46d479842712099771fae6234a4975b3be6fa9161071a908a018a614477565b63ffffffff1663ffffffff16815260200190815260200160002054886040516020016107469190614548565b60405160208183030381529060405280519060200120146107795760405162461bcd60e51b8152600401610683906145e6565b60016000818152609a602090815260008051602061510383398151915291906107a4908b018b614477565b63ffffffff16815260208101919091526040016000205460ff1660048111156107cf576107cf6143b7565b146107ec5760405162461bcd60e51b815260040161068390614643565b60016000908152609960209081527fbb86fbc034f4e382929974bcd8419ed626b0ea647f962d89ba2fb6bd28785ab990829061082a908b018b614477565b63ffffffff1663ffffffff16815260200190815260200160002054146108625760405162461bcd60e51b815260040161068390614643565b60975461087c90600160a01b900463ffffffff16856146a5565b63ffffffff164363ffffffff1611156108a75760405162461bcd60e51b8152600401610683906146cd565b6000876040516020016108ba9190614756565b604051602081830303815290604052805190602001209050600080609760009054906101000a90046001600160a01b03166001600160a01b0316636efb46368488888c8e6040518663ffffffff1660e01b815260040161091e9594939291906147ee565b600060405180830381865afa15801561093b573d6000803e3d6000fd5b505050506040513d6000823e601f3d908101601f191682016040526109639190810190614965565b6040805160808101825263ffffffff431681526020808201849052808501518284015284516060830152915193955091935090916109a5918d91849101614a49565b60408051601f198184030181529190528051602091820120600160009081526099835290917fbb86fbc034f4e382929974bcd8419ed626b0ea647f962d89ba2fb6bd28785ab991906109f9908f018f614477565b63ffffffff1681526020810191909152604001600020556003609a6000600180811115610a2857610a286143b7565b815260200190815260200160002060008d6000016020810190610a4b9190614477565b63ffffffff16815260208101919091526040016000205460ff166004811115610a7657610a766143b7565b50610a86905060208d018d614477565b63ffffffff167f07ba8d7c4209c14e6d2ed5fd4542e9d8f47e1af3da0cbd9c50e2d0d3e87dfff08c83604051610abd929190614a49565b60405180910390a260005b86811015610b5f578560ff1684602001518281518110610aea57610aea614a69565b6020026020010151610afc9190614a7f565b6001600160601b0316606485600001518381518110610b1d57610b1d614a69565b60200260200101516001600160601b0316610b389190614aae565b1015610b4d5750505050505050505050505050565b80610b5781614acd565b915050610ac8565b5060808b0135609f5560016000908152609a602090815260049160008051602061510383398151915291610b95908f018f614477565b63ffffffff16815260208101919091526040016000205460ff166004811115610bc057610bc06143b7565b505060408b0135610bd460208d018d614477565b63ffffffff167f02046773dfd0e022ab6bf68cb07d73f080f87a4b82f7a4fccfe7d919d6c4ecb48d604051610c099190614756565b60405180910390a35050505050505050505b505050565b606560009054906101000a90046001600160a01b03166001600160a01b031663eab66d7a6040518163ffffffff1660e01b8152600401602060405180830381865afa158015610c73573d6000803e3d6000fd5b505050506040513d601f19601f82011682018060405250810190610c979190614ae8565b6001600160a01b0316336001600160a01b031614610cc75760405162461bcd60e51b815260040161068390614b05565b6103ee81613280565b60655460405163237dfb4760e11b81523360048201526001600160a01b03909116906346fbf68e90602401602060405180830381865afa158015610d18573d6000803e3d6000fd5b505050506040513d601f19601f82011682018060405250810190610d3c9190614b4f565b610d585760405162461bcd60e51b815260040161068390614b6c565b60665481811614610dd15760405162461bcd60e51b815260206004820152603860248201527f5061757361626c652e70617573653a20696e76616c696420617474656d70742060448201527f746f20756e70617573652066756e6374696f6e616c69747900000000000000006064820152608401610683565b606681905560405181815233907fab40a374bc51de372200a8bc981af8c9ecdc08dfdaef0bb6e09f88f3c616ef3d906020015b60405180910390a250565b609c8054610e1c90614bb4565b80601f0160208091040260200160405190810160405280929190818152602001828054610e4890614bb4565b8015610e955780601f10610e6a57610100808354040283529160200191610e95565b820191906000526020600020905b815481529060010190602001808311610e7857829003601f168201915b505050505081565b60606000846001600160a01b031663683048356040518163ffffffff1660e01b8152600401602060405180830381865afa158015610edf573d6000803e3d6000fd5b505050506040513d601f19601f82011682018060405250810190610f039190614ae8565b90506000856001600160a01b0316639e9923c26040518163ffffffff1660e01b8152600401602060405180830381865afa158015610f45573d6000803e3d6000fd5b505050506040513d601f19601f82011682018060405250810190610f699190614ae8565b90506000866001600160a01b0316635df459466040518163ffffffff1660e01b8152600401602060405180830381865afa158015610fab573d6000803e3d6000fd5b505050506040513d601f19601f82011682018060405250810190610fcf9190614ae8565b9050600086516001600160401b03811115610fec57610fec6136a3565b60405190808252806020026020018201604052801561101f57816020015b606081526020019060019003908161100a5790505b50905060005b875181101561132757600088828151811061104257611042614a69565b0160200151604051638902624560e01b815260f89190911c6004820181905263ffffffff8a16602483015291506000906001600160a01b03871690638902624590604401600060405180830381865afa1580156110a3573d6000803e3d6000fd5b505050506040513d6000823e601f3d908101601f191682016040526110cb9190810190614bef565b905080516001600160401b038111156110e6576110e66136a3565b60405190808252806020026020018201604052801561113157816020015b60408051606081018252600080825260208083018290529282015282526000199092019101816111045790505b5084848151811061114457611144614a69565b602002602001018190525060005b8151811015611311576040518060600160405280876001600160a01b03166347b314e885858151811061118757611187614a69565b60200260200101516040518263ffffffff1660e01b81526004016111ad91815260200190565b602060405180830381865afa1580156111ca573d6000803e3d6000fd5b505050506040513d601f19601f820116820180604052508101906111ee9190614ae8565b6001600160a01b0316815260200183838151811061120e5761120e614a69565b60200260200101518152602001896001600160a01b031663fa28c62785858151811061123c5761123c614a69565b60209081029190910101516040516001600160e01b031960e084901b168152600481019190915260ff8816602482015263ffffffff8f166044820152606401602060405180830381865afa158015611298573d6000803e3d6000fd5b505050506040513d601f19601f820116820180604052508101906112bc9190614c7f565b6001600160601b03168152508585815181106112da576112da614a69565b602002602001015182815181106112f3576112f3614a69565b6020026020010181905250808061130990614acd565b915050611152565b505050808061131f90614acd565b915050611025565b50979650505050505050565b61135e6040518060800160405280606081526020016060815260200160608152602001606081525090565b6000876001600160a01b031663683048356040518163ffffffff1660e01b8152600401602060405180830381865afa15801561139e573d6000803e3d6000fd5b505050506040513d601f19601f820116820180604052508101906113c29190614ae8565b90506113ef6040518060800160405280606081526020016060815260200160608152602001606081525090565b6040516361c8a12f60e11b81526001600160a01b038a169063c391425e9061141f908b9089908990600401614c9a565b600060405180830381865afa15801561143c573d6000803e3d6000fd5b505050506040513d6000823e601f3d908101601f191682016040526114649190810190614ce4565b81526040516340e03a8160e11b81526001600160a01b038316906381c0750290611496908b908b908b90600401614d72565b600060405180830381865afa1580156114b3573d6000803e3d6000fd5b505050506040513d6000823e601f3d908101601f191682016040526114db9190810190614ce4565b6040820152856001600160401b038111156114f8576114f86136a3565b60405190808252806020026020018201604052801561152b57816020015b60608152602001906001900390816115165790505b50606082015260005b60ff811687111561196a576000856001600160401b03811115611559576115596136a3565b604051908082528060200260200182016040528015611582578160200160208202803683370190505b5083606001518360ff168151811061159c5761159c614a69565b602002602001018190525060005b8681101561186a5760008c6001600160a01b03166304ec63518a8a858181106115d5576115d5614a69565b905060200201358e886000015186815181106115f3576115f3614a69565b60200260200101516040518463ffffffff1660e01b81526004016116309392919092835263ffffffff918216602084015216604082015260600190565b602060405180830381865afa15801561164d573d6000803e3d6000fd5b505050506040513d601f19601f820116820180604052508101906116719190614d92565b90506001600160c01b0381166117155760405162461bcd60e51b815260206004820152605c60248201527f4f70657261746f7253746174655265747269657665722e676574436865636b5360448201527f69676e617475726573496e64696365733a206f70657261746f72206d7573742060648201527f6265207265676973746572656420617420626c6f636b6e756d62657200000000608482015260a401610683565b8a8a8560ff1681811061172a5761172a614a69565b6001600160c01b03841692013560f81c9190911c60019081161415905061185757856001600160a01b031663dd9846b98a8a8581811061176c5761176c614a69565b905060200201358d8d8860ff1681811061178857611788614a69565b6040516001600160e01b031960e087901b1681526004810194909452919091013560f81c60248301525063ffffffff8f166044820152606401602060405180830381865afa1580156117de573d6000803e3d6000fd5b505050506040513d601f19601f820116820180604052508101906118029190614dbb565b85606001518560ff168151811061181b5761181b614a69565b6020026020010151848151811061183457611834614a69565b63ffffffff909216602092830291909101909101528261185381614acd565b9350505b508061186281614acd565b9150506115aa565b506000816001600160401b03811115611885576118856136a3565b6040519080825280602002602001820160405280156118ae578160200160208202803683370190505b50905060005b8281101561192f5784606001518460ff16815181106118d5576118d5614a69565b602002602001015181815181106118ee576118ee614a69565b602002602001015182828151811061190857611908614a69565b63ffffffff909216602092830291909101909101528061192781614acd565b9150506118b4565b508084606001518460ff168151811061194a5761194a614a69565b60200260200101819052505050808061196290614dd8565b915050611534565b506000896001600160a01b0316635df459466040518163ffffffff1660e01b8152600401602060405180830381865afa1580156119ab573d6000803e3d6000fd5b505050506040513d601f19601f820116820180604052508101906119cf9190614ae8565b60405163354952a360e21b81529091506001600160a01b0382169063d5254a8c90611a02908b908b908e90600401614df8565b600060405180830381865afa158015611a1f573d6000803e3d6000fd5b505050506040513d6000823e601f3d908101601f19168201604052611a479190810190614ce4565b60208301525098975050505050505050565b6000611a686020840184614477565b90506000611a7c6060860160408701614477565b905063ffffffff8216611b0c5760a15460ff1615611aca57609d54600160201b90046001600160a01b03163314611ac55760405162461bcd60e51b815260040161068390614458565b611b3d565b6033546001600160a01b03163314611ac55760405162461bcd60e51b815260206004820152600560248201526420baba341960d91b6044820152606401610683565b609d54600160201b90046001600160a01b03163314611b3d5760405162461bcd60e51b815260040161068390614458565b6000611b4f6040870160208801614477565b9050366000611b6160a0890189614494565b90925090506000611b7860e08a0160c08b01614477565b6000808052609860209081529192507fddaeee8e61001dbcfaf4f92c6943552c392a86665d734d3c1905d7b3c23b1b1e91611bb5908b018b614477565b63ffffffff1663ffffffff1681526020019081526020016000205489604051602001611be19190614e22565b6040516020818303038152906040528051906020012014611c145760405162461bcd60e51b8152600401610683906145e6565b6000808052609a602090815260019160008051602061512383398151915291611c3f908c018c614477565b63ffffffff16815260208101919091526040016000205460ff166004811115611c6a57611c6a6143b7565b14611c875760405162461bcd60e51b815260040161068390614643565b6000808052609960209081527f235d629dc802037ded8c61cb27fb29e40fa01b299719d8f991ffe20bdcc59f4f908290611cc3908c018c614477565b63ffffffff1663ffffffff1681526020019081526020016000205414611cfb5760405162461bcd60e51b815260040161068390614643565b609754611d1590600160a01b900463ffffffff16856146a5565b63ffffffff164363ffffffff161115611d405760405162461bcd60e51b8152600401610683906146cd565b600088604051602001611d539190614f24565b60408051601f1981840301815282825280516020918201208383019092526060808452908301529150600063ffffffff891615611e1e57609760009054906101000a90046001600160a01b03166001600160a01b0316636efb46368488888c8f6040518663ffffffff1660e01b8152600401611dd39594939291906147ee565b600060405180830381865afa158015611df0573d6000803e3d6000fd5b505050506040513d6000823e601f3d908101601f19168201604052611e189190810190614965565b90925090505b6040805160808101825263ffffffff43168152602080820184905284810151828401528451606083015291519091611e5a918e91849101614f32565b60408051808303601f1901815291905280516020909101206099600080815260200190815260200160002060008e6000016020810190611e9a9190614477565b63ffffffff1681526020810191909152604001600020556003609a6000806001811115611ec957611ec96143b7565b815260200190815260200160002060008e6000016020810190611eec9190614477565b63ffffffff16815260208101919091526040016000205460ff166004811115611f1757611f176143b7565b50611f27905060208e018e614477565b63ffffffff167f47adacb0b6bbd726ae39ac6c006cca1c2006c9aedaa882dcba7c4804db7c41ce8d83604051611f5e929190614f32565b60405180910390a263ffffffff8a161561200f5760005b8681101561200d578560ff1684602001518281518110611f9757611f97614a69565b6020026020010151611fa99190614a7f565b6001600160601b0316606485600001518381518110611fca57611fca614a69565b60200260200101516001600160601b0316611fe59190614aae565b1015611ffb575050505050505050505050505050565b8061200581614acd565b915050611f75565b505b60408c013560a0556004609a600080815260200190815260200160002060008e60000160208101906120419190614477565b63ffffffff16815260208101919091526040016000205460ff16600481111561206c5761206c6143b7565b5061207f905060408e0160208f01614477565b609b805463ffffffff92909216600160201b0267ffffffff00000000199092169190911790556120b260608e018e614494565b6120be91609c9161360a565b506120cf60a08e0160808f01614477565b609d805463ffffffff191663ffffffff929092169190911790556120f660208e018e614477565b609b805463ffffffff191663ffffffff9290921691909117905561211d60208d018d614477565b63ffffffff167fff2908483d74b6b70053dd473260acf1b09e0ba0781bf94100bb8277581749de8d6040516121529190614f24565b60405180910390a250505050505050505050505050565b60655460405163237dfb4760e11b81523360048201526001600160a01b03909116906346fbf68e90602401602060405180830381865afa1580156121b1573d6000803e3d6000fd5b505050506040513d601f19601f820116820180604052508101906121d59190614b4f565b6121f15760405162461bcd60e51b815260040161068390614b6c565b600019606681905560405190815233907fab40a374bc51de372200a8bc981af8c9ecdc08dfdaef0bb6e09f88f3c616ef3d9060200160405180910390a2565b60606000846001600160a01b031663c391425e84866040518363ffffffff1660e01b8152600401612262929190614f52565b600060405180830381865afa15801561227f573d6000803e3d6000fd5b505050506040513d6000823e601f3d908101601f191682016040526122a79190810190614ce4565b9050600084516001600160401b038111156122c4576122c46136a3565b6040519080825280602002602001820160405280156122ed578160200160208202803683370190505b50905060005b85518110156123ee57866001600160a01b03166304ec635187838151811061231d5761231d614a69565b60200260200101518786858151811061233857612338614a69565b60200260200101516040518463ffffffff1660e01b81526004016123759392919092835263ffffffff918216602084015216604082015260600190565b602060405180830381865afa158015612392573d6000803e3d6000fd5b505050506040513d601f19601f820116820180604052508101906123b69190614d92565b6001600160c01b03168282815181106123d1576123d1614a69565b6020908102919091010152806123e681614acd565b9150506122f3565b5095945050505050565b60975460408051632efa2ca360e11b815290516000926001600160a01b031691635df459469160048083019260209291908290030181865afa158015612442573d6000803e3d6000fd5b505050506040513d601f19601f820116820180604052508101906124669190614ae8565b905090565b60975460408051636830483560e01b815290516000926001600160a01b03169163683048359160048083019260209291908290030181865afa158015612442573d6000803e3d6000fd5b60975460408051636d14a98760e01b815290516000926001600160a01b031691636d14a9879160048083019260209291908290030181865afa158015612442573d6000803e3d6000fd5b609e546001600160a01b031633146125415760405162461bcd60e51b8152602060048201526005602482015264417574683160d81b6044820152606401610683565b609b5463ffffffff600160201b90910416431480159061256057504315155b6125d25760405162461bcd60e51b815260206004820152603960248201527f43616e2774206372656174652061207461736b20696e207468652073616d652060448201527f626c6f636b206173206120636f6d706c65746564207461736b000000000000006064820152608401610683565b6040805160e0810182526000818301819052606080830181905260a083015260c0820152609754600160c01b900463ffffffff908116825243811660208084019190915290861660808301528251601f850182900482028101820190935283835290919084908490819084018382808284376000920191909152505050506060820152609b54600160201b900463ffffffff1661267a5763ffffffff43166040820152612690565b609b54600160201b900463ffffffff1660408201525b609c805461269d90614bb4565b80601f01602080910402602001604051908101604052809291908181526020018280546126c990614bb4565b80156127165780601f106126eb57610100808354040283529160200191612716565b820191906000526020600020905b8154815290600101906020018083116126f957829003601f168201915b505050505060a0820152609d5463ffffffff90811660c0830152609754600160c01b900416156127d25760975460009061275f90600190600160c01b900463ffffffff16614fa6565b63ffffffff81166000908152600080516020615123833981519152602052604090205490915060019060ff16600481111561279c5761279c6143b7565b14156127d05763ffffffff8116600090815260008051602061512383398151915260205260409020805460ff191660021790555b505b806040516020016127e39190614fcb565b60408051808303601f19018152828252805160209182012060978054600160c01b9081900463ffffffff90811660009081527fddaeee8e61001dbcfaf4f92c6943552c392a86665d734d3c1905d7b3c23b1b1e86528681209490945582548290048116845260008051602061512383398151915290945293909120805460ff19166001179055549190910416907ffaf4b2054479d0f83e909b73cde2a6cb18ec2a93ba8ad5a62329001c86b1f3ea9061289d908490614fcb565b60405180910390a26097546128c090600160c01b900463ffffffff1660016146a5565b609760186101000a81548163ffffffff021916908363ffffffff16021790555050505050565b604080518082019091526060808252602082015260975460405163377da31b60e11b81526000916001600160a01b031690636efb463690612933908a908a908a908a908a906004016147ee565b600060405180830381865afa158015612950573d6000803e3d6000fd5b505050506040513d6000823e601f3d908101601f191682016040526129789190810190614965565b915091509550959350505050565b61298e613377565b61299860006133d1565b565b6129a2613377565b609780546001600160a01b0319166001600160a01b0383169081179091556040519081527f901a654dc830c94e8a12c9a3bc0a92ac11b5cf28046ca8d190691cdaf52090169060200160405180910390a150565b600054610100900460ff1615808015612a165750600054600160ff909116105b80612a305750303b158015612a30575060005460ff166001145b612a935760405162461bcd60e51b815260206004820152602e60248201527f496e697469616c697a61626c653a20636f6e747261637420697320616c72656160448201526d191e481a5b9a5d1a585b1a5e995960921b6064820152608401610683565b6000805460ff191660011790558015612ab6576000805461ff0019166101001790555b612ac1886000613423565b612aca876133d1565b609d8054640100000000600160c01b031916600160201b6001600160a01b038981169190910291909117909155609e80546001600160a01b03191687831617905560a1805460ff1916861515179055609780549185166001600160c01b031990921691909117600160a01b63ffffffff8516021790558015612b86576000805461ff0019169055604051600181527f7f26b83ff96e1f2b6a682f133852f6798a09c465da95921460cefb38474024989060200160405180910390a15b5050505050505050565b609e546001600160a01b03163314612bd25760405162461bcd60e51b8152602060048201526005602482015264417574683160d81b6044820152606401610683565b609b54600160201b900463ffffffff1615801590612bef57504315155b612c2d5760405162461bcd60e51b815260206004820152600f60248201526e13dc0814dd185d19481d5b9a5b9a5d608a1b6044820152606401610683565b6040805160c08101825260006060808301919091526080820152609754600160e01b900463ffffffff90811682526020820184905243811692820192909252609d5490911660a0820152609c8054612c8490614bb4565b80601f0160208091040260200160405190810160405280929190818152602001828054612cb090614bb4565b8015612cfd5780601f10612cd257610100808354040283529160200191612cfd565b820191906000526020600020905b815481529060010190602001808311612ce057829003601f168201915b50505050506080820152609b54600160201b900463ffffffff9081166060830152609754600160e01b90041615612dc057609754600090612d4d90600190600160e01b900463ffffffff16614fa6565b63ffffffff81166000908152600080516020615103833981519152602052604090205490915060019060ff166004811115612d8a57612d8a6143b7565b1415612dbe5763ffffffff8116600090815260008051602061510383398151915260205260409020805460ff191660021790555b505b80604051602001612dd19190615061565b60408051808303601f19018152828252805160209182012060978054600160e01b9081900463ffffffff90811660009081527fe66b7f18a15fed257e722ee4e0b46d479842712099771fae6234a4975b3be6fa86528681209490945582548290048116845260008051602061510383398151915290945293909120805460ff19166001179055549190910416907f161faa5d92f6bf0262139c57c87ca6cc60e5b3c9c3341dc175cec97a2516cc7d90612e8b908490615061565b60405180910390a2609754612eae90600160e01b900463ffffffff1660016146a5565b6097601c6101000a81548163ffffffff021916908363ffffffff1602179055505050565b6040805160018082528183019092526000916060918391602080830190803683370190505090508481600081518110612f0d57612f0d614a69565b60209081029190910101526040516361c8a12f60e11b81526000906001600160a01b0388169063c391425e90612f499088908690600401614f52565b600060405180830381865afa158015612f66573d6000803e3d6000fd5b505050506040513d6000823e601f3d908101601f19168201604052612f8e9190810190614ce4565b600081518110612fa057612fa0614a69565b60209081029190910101516040516304ec635160e01b81526004810188905263ffffffff87811660248301529091166044820181905291506000906001600160a01b038916906304ec635190606401602060405180830381865afa15801561300c573d6000803e3d6000fd5b505050506040513d601f19601f820116820180604052508101906130309190614d92565b6001600160c01b0316905060006130468261350d565b9050816130548a838a610e9d565b9550955050505050935093915050565b6097546040805163df5cf72360e01b815290516000926001600160a01b03169163df5cf7239160048083019260209291908290030181865afa158015612442573d6000803e3d6000fd5b6130b6613377565b6001600160a01b03811661311b5760405162461bcd60e51b815260206004820152602660248201527f4f776e61626c653a206e6577206f776e657220697320746865207a65726f206160448201526564647265737360d01b6064820152608401610683565b6103ee816133d1565b606560009054906101000a90046001600160a01b03166001600160a01b031663eab66d7a6040518163ffffffff1660e01b8152600401602060405180830381865afa158015613177573d6000803e3d6000fd5b505050506040513d601f19601f8201168201806040525081019061319b9190614ae8565b6001600160a01b0316336001600160a01b0316146131cb5760405162461bcd60e51b815260040161068390614b05565b6066541981196066541916146132495760405162461bcd60e51b815260206004820152603860248201527f5061757361626c652e756e70617573653a20696e76616c696420617474656d7060448201527f7420746f2070617573652066756e6374696f6e616c69747900000000000000006064820152608401610683565b606681905560405181815233907f3582d1828e26bf56bd801502bc021ac0bc8afb57c826e4986b45593c8fad389c90602001610e04565b6001600160a01b03811661330e5760405162461bcd60e51b815260206004820152604960248201527f5061757361626c652e5f73657450617573657252656769737472793a206e657760448201527f50617573657252656769737472792063616e6e6f7420626520746865207a65726064820152686f206164647265737360b81b608482015260a401610683565b606554604080516001600160a01b03928316815291831660208301527f6e9fcd539896fca60e8b0f01dd580233e48a6b0f7df013b89ba7f565869acdb6910160405180910390a1606580546001600160a01b0319166001600160a01b0392909216919091179055565b6033546001600160a01b031633146129985760405162461bcd60e51b815260206004820181905260248201527f4f776e61626c653a2063616c6c6572206973206e6f7420746865206f776e65726044820152606401610683565b603380546001600160a01b038381166001600160a01b0319831681179093556040519116919082907f8be0079c531659141344cd1fd0a4f28419497f9722a3daafe3b4186f6b6457e090600090a35050565b6065546001600160a01b031615801561344457506001600160a01b03821615155b6134c65760405162461bcd60e51b815260206004820152604760248201527f5061757361626c652e5f696e697469616c697a655061757365723a205f696e6960448201527f7469616c697a6550617573657228292063616e206f6e6c792062652063616c6c6064820152666564206f6e636560c81b608482015260a401610683565b606681905560405181815233907fab40a374bc51de372200a8bc981af8c9ecdc08dfdaef0bb6e09f88f3c616ef3d9060200160405180910390a261350982613280565b5050565b606060008061351b846135d9565b61ffff166001600160401b03811115613536576135366136a3565b6040519080825280601f01601f191660200182016040528015613560576020820181803683370190505b5090506000805b825182108015613578575061010081105b156135cf576001811b9350858416156135bf578060f81b8383815181106135a1576135a1614a69565b60200101906001600160f81b031916908160001a9053508160010191505b6135c881614acd565b9050613567565b5090949350505050565b6000805b8215613604576135ee6001846150c9565b90921691806135fc816150e0565b9150506135dd565b92915050565b82805461361690614bb4565b90600052602060002090601f016020900481019282613638576000855561367e565b82601f106136515782800160ff1982351617855561367e565b8280016001018555821561367e579182015b8281111561367e578235825591602001919060010190613663565b5061368a92915061368e565b5090565b5b8082111561368a576000815560010161368f565b634e487b7160e01b600052604160045260246000fd5b604080519081016001600160401b03811182821017156136db576136db6136a3565b60405290565b60405161010081016001600160401b03811182821017156136db576136db6136a3565b604051601f8201601f191681016001600160401b038111828210171561372c5761372c6136a3565b604052919050565b60006001600160401b0382111561374d5761374d6136a3565b5060051b60200190565b63ffffffff811681146103ee57600080fd5b803561377481613757565b919050565b600082601f83011261378a57600080fd5b8135602061379f61379a83613734565b613704565b82815260059290921b840181019181810190868411156137be57600080fd5b8286015b848110156137e25780356137d581613757565b83529183019183016137c2565b509695505050505050565b6000604082840312156137ff57600080fd5b6138076136b9565b9050813581526020820135602082015292915050565b600082601f83011261382e57600080fd5b8135602061383e61379a83613734565b82815260069290921b8401810191818101908684111561385d57600080fd5b8286015b848110156137e25761387388826137ed565b835291830191604001613861565b600082601f83011261389257600080fd5b61389a6136b9565b8060408401858111156138ac57600080fd5b845b818110156138c65780358452602093840193016138ae565b509095945050505050565b6000608082840312156138e357600080fd5b6138eb6136b9565b90506138f78383613881565b81526139068360408401613881565b602082015292915050565b600082601f83011261392257600080fd5b8135602061393261379a83613734565b82815260059290921b8401810191818101908684111561395157600080fd5b8286015b848110156137e25780356001600160401b038111156139745760008081fd5b6139828986838b0101613779565b845250918301918301613955565b600061018082840312156139a357600080fd5b6139ab6136e1565b905081356001600160401b03808211156139c457600080fd5b6139d085838601613779565b835260208401359150808211156139e657600080fd5b6139f28583860161381d565b60208401526040840135915080821115613a0b57600080fd5b613a178583860161381d565b6040840152613a2985606086016138d1565b6060840152613a3b8560e086016137ed565b6080840152610120840135915080821115613a5557600080fd5b613a6185838601613779565b60a0840152610140840135915080821115613a7b57600080fd5b613a8785838601613779565b60c0840152610160840135915080821115613aa157600080fd5b50613aae84828501613911565b60e08301525092915050565b600080600083850360e0811215613ad057600080fd5b84356001600160401b0380821115613ae757600080fd5b9086019060c08289031215613afb57600080fd5b81955060a0601f1984011215613b1057600080fd5b60208701945060c0870135925080831115613b2a57600080fd5b5050613b3886828701613990565b9150509250925092565b6001600160a01b03811681146103ee57600080fd5b600060208284031215613b6957600080fd5b8135613b7481613b42565b9392505050565b600060208284031215613b8d57600080fd5b5035919050565b60008060408385031215613ba757600080fd5b823560028110613bb657600080fd5b91506020830135613bc681613757565b809150509250929050565b6000815180845260005b81811015613bf757602081850181015186830182015201613bdb565b81811115613c09576000602083870101525b50601f01601f19169290920160200192915050565b602081526000613b746020830184613bd1565b600080600060608486031215613c4657600080fd5b8335613c5181613b42565b92506020848101356001600160401b0380821115613c6e57600080fd5b818701915087601f830112613c8257600080fd5b813581811115613c9457613c946136a3565b613ca6601f8201601f19168501613704565b91508082528884828501011115613cbc57600080fd5b8084840185840137600084828401015250809450505050613cdf60408501613769565b90509250925092565b600081518084526020808501808196508360051b810191508286016000805b86811015613d7e578385038a52825180518087529087019087870190845b81811015613d6957835180516001600160a01b031684528a8101518b8501526040908101516001600160601b03169084015292890192606090920191600101613d25565b50509a87019a95505091850191600101613d07565b509298975050505050505050565b602081526000613b746020830184613ce8565b600060208284031215613db157600080fd5b81356001600160401b03811115613dc757600080fd5b820160408185031215613b7457600080fd5b60008083601f840112613deb57600080fd5b5081356001600160401b03811115613e0257600080fd5b602083019150836020828501011115613e1a57600080fd5b9250929050565b60008060008060008060808789031215613e3a57600080fd5b8635613e4581613b42565b95506020870135613e5581613757565b945060408701356001600160401b0380821115613e7157600080fd5b613e7d8a838b01613dd9565b90965094506060890135915080821115613e9657600080fd5b818901915089601f830112613eaa57600080fd5b813581811115613eb957600080fd5b8a60208260051b8501011115613ece57600080fd5b6020830194508093505050509295509295509295565b600081518084526020808501945080840160005b83811015613f1a57815163ffffffff1687529582019590820190600101613ef8565b509495945050505050565b600081518084526020808501808196508360051b8101915082860160005b85811015613f6d578284038952613f5b848351613ee4565b98850198935090840190600101613f43565b5091979650505050505050565b602081526000825160806020840152613f9660a0840182613ee4565b90506020840151601f1980858403016040860152613fb48383613ee4565b92506040860151915080858403016060860152613fd18383613ee4565b9250606086015191508085840301608086015250613fef8282613f25565b95945050505050565b600080600083850360a081121561400e57600080fd5b84356001600160401b038082111561402557600080fd5b9086019060e0828903121561403957600080fd5b8195506060601f198401121561404e57600080fd5b6020870194506080870135925080831115613b2a57600080fd5b60006020828403121561407a57600080fd5b81356001600160401b0381111561409057600080fd5b82016101208185031215613b7457600080fd5b6000602082840312156140b557600080fd5b813560ff81168114613b7457600080fd5b6000806000606084860312156140db57600080fd5b83356140e681613b42565b92506020848101356001600160401b0381111561410257600080fd5b8501601f8101871361411357600080fd5b803561412161379a82613734565b81815260059190911b8201830190838101908983111561414057600080fd5b928401925b8284101561415e57833582529284019290840190614145565b8096505050505050613cdf60408501613769565b6020808252825182820181905260009190848201906040850190845b818110156141aa5783518352928401929184019160010161418e565b50909695505050505050565b6000806000604084860312156141cb57600080fd5b83356141d681613757565b925060208401356001600160401b038111156141f157600080fd5b6141fd86828701613dd9565b9497909650939450505050565b60008060008060006080868803121561422257600080fd5b8535945060208601356001600160401b038082111561424057600080fd5b61424c89838a01613dd9565b90965094506040880135915061426182613757565b9092506060870135908082111561427757600080fd5b5061428488828901613990565b9150509295509295909350565b600081518084526020808501945080840160005b83811015613f1a5781516001600160601b0316875295820195908201906001016142a5565b60408152600083516040808401526142e56080840182614291565b90506020850151603f198483030160608501526143028282614291565b925050508260208301529392505050565b80151581146103ee57600080fd5b600080600080600080600060e0888a03121561433c57600080fd5b873561434781613b42565b9650602088013561435781613b42565b9550604088013561436781613b42565b9450606088013561437781613b42565b9350608088013561438781614313565b925060a088013561439781613b42565b915060c08801356143a781613757565b8091505092959891949750929550565b634e487b7160e01b600052602160045260246000fd5b60208101600583106143ef57634e487b7160e01b600052602160045260246000fd5b91905290565b60008060006060848603121561440a57600080fd5b833561441581613b42565b925060208401359150604084013561442c81613757565b809150509250925092565b8281526040602082015260006144506040830184613ce8565b949350505050565b602080825260059082015264041757468360dc1b604082015260600190565b60006020828403121561448957600080fd5b8135613b7481613757565b6000808335601e198436030181126144ab57600080fd5b8301803591506001600160401b038211156144c557600080fd5b602001915036819003821315613e1a57600080fd5b6000808335601e198436030181126144f157600080fd5b83016020810192503590506001600160401b0381111561451057600080fd5b803603831315613e1a57600080fd5b81835281816020850137506000828201602090810191909152601f909101601f19169091010190565b602081526000823561455981613757565b63ffffffff8082166020850152602085013560408501526040850135915061458082613757565b80821660608501526060850135915061459882613757565b80821660808501526145ad60808601866144da565b925060c060a08601526145c460e08601848361451f565b92505060a08501356145d581613757565b1660c0939093019290925250919050565b6020808252603d908201527f737570706c696564207461736b20646f6573206e6f74206d617463682074686560408201527f206f6e65207265636f7264656420696e2074686520636f6e7472616374000000606082015260800190565b6020808252602c908201527f41676772656761746f722068617320616c726561647920726573706f6e64656460408201526b20746f20746865207461736b60a01b606082015260800190565b634e487b7160e01b600052601160045260246000fd5b600063ffffffff8083168185168083038211156146c4576146c461468f565b01949350505050565b6020808252602d908201527f41676772656761746f722068617320726573706f6e64656420746f207468652060408201526c7461736b20746f6f206c61746560981b606082015260800190565b803561472581613757565b63ffffffff168252602081810135908301526040808201359083015260608082013590830152608090810135910152565b60a08101613604828461471a565b600081518084526020808501945080840160005b83811015613f1a5761479587835180518252602090810151910152565b6040969096019590820190600101614778565b8060005b60028110156147cb5781518452602093840193909101906001016147ac565b50505050565b6147dc8282516147a8565b6020810151610c1b60408401826147a8565b85815260806020820152600061480860808301868861451f565b63ffffffff851660408401528281036060840152610180845181835261483082840182613ee4565b9150506020850151828203602084015261484a8282614764565b915050604085015182820360408401526148648282614764565b915050606085015161487960608401826147d1565b506080850151805160e08401526020015161010083015260a08501518282036101208401526148a88282613ee4565b91505060c08501518282036101408401526148c38282613ee4565b91505060e08501518282036101608401526148de8282613f25565b9a9950505050505050505050565b80516001600160601b038116811461377457600080fd5b600082601f83011261491457600080fd5b8151602061492461379a83613734565b82815260059290921b8401810191818101908684111561494357600080fd5b8286015b848110156137e257614958816148ec565b8352918301918301614947565b6000806040838503121561497857600080fd5b82516001600160401b038082111561498f57600080fd5b90840190604082870312156149a357600080fd5b6149ab6136b9565b8251828111156149ba57600080fd5b6149c688828601614903565b8252506020830151828111156149db57600080fd5b6149e788828601614903565b602083015250809450505050602083015190509250929050565b63ffffffff8151168252602081015160208301526000604082015160806040850152614a306080850182614291565b905060608301518482036060860152613fef8282614291565b614a53818461471a565b60c060a0820152600061445060c0830184614a01565b634e487b7160e01b600052603260045260246000fd5b60006001600160601b0380831681851681830481118215151615614aa557614aa561468f565b02949350505050565b6000816000190483118215151615614ac857614ac861468f565b500290565b6000600019821415614ae157614ae161468f565b5060010190565b600060208284031215614afa57600080fd5b8151613b7481613b42565b6020808252602a908201527f6d73672e73656e646572206973206e6f74207065726d697373696f6e6564206160408201526939903ab73830bab9b2b960b11b606082015260800190565b600060208284031215614b6157600080fd5b8151613b7481614313565b60208082526028908201527f6d73672e73656e646572206973206e6f74207065726d697373696f6e6564206160408201526739903830bab9b2b960c11b606082015260800190565b600181811c90821680614bc857607f821691505b60208210811415614be957634e487b7160e01b600052602260045260246000fd5b50919050565b60006020808385031215614c0257600080fd5b82516001600160401b03811115614c1857600080fd5b8301601f81018513614c2957600080fd5b8051614c3761379a82613734565b81815260059190911b82018301908381019087831115614c5657600080fd5b928401925b82841015614c7457835182529284019290840190614c5b565b979650505050505050565b600060208284031215614c9157600080fd5b613b74826148ec565b63ffffffff84168152604060208201819052810182905260006001600160fb1b03831115614cc757600080fd5b8260051b8085606085013760009201606001918252509392505050565b60006020808385031215614cf757600080fd5b82516001600160401b03811115614d0d57600080fd5b8301601f81018513614d1e57600080fd5b8051614d2c61379a82613734565b81815260059190911b82018301908381019087831115614d4b57600080fd5b928401925b82841015614c74578351614d6381613757565b82529284019290840190614d50565b63ffffffff84168152604060208201526000613fef60408301848661451f565b600060208284031215614da457600080fd5b81516001600160c01b0381168114613b7457600080fd5b600060208284031215614dcd57600080fd5b8151613b7481613757565b600060ff821660ff811415614def57614def61468f565b60010192915050565b604081526000614e0c60408301858761451f565b905063ffffffff83166020830152949350505050565b6020815260008235614e3381613757565b63ffffffff81166020840152506020830135614e4e81613757565b63ffffffff8116604084015250614e6760408401613769565b63ffffffff8116606084015250614e8160608401846144da565b60e06080850152614e976101008501828461451f565b915050614ea660808501613769565b63ffffffff811660a085015250614ec060a08501856144da565b848303601f190160c0860152614ed783828461451f565b92505050614ee760c08501613769565b63ffffffff811660e08501525b509392505050565b8035614f0781613757565b63ffffffff16825260208181013590830152604090810135910152565b606081016136048284614efc565b614f3c8184614efc565b6080606082015260006144506080830184614a01565b60006040820163ffffffff851683526020604081850152818551808452606086019150828701935060005b81811015614f9957845183529383019391830191600101614f7d565b5090979650505050505050565b600063ffffffff83811690831681811015614fc357614fc361468f565b039392505050565b60208152600063ffffffff80845116602084015280602085015116604084015280604085015116606084015250606083015160e06080840152615012610100840182613bd1565b9050608084015161502b60a085018263ffffffff169052565b5060a0840151838203601f190160c08501526150478282613bd1565b91505060c0840151614ef460e085018263ffffffff169052565b60208152600063ffffffff80845116602084015260208401516040840152806040850151166060840152806060850151166080840152608084015160c060a08501526150b060e0850182613bd1565b90508160a08601511660c0850152809250505092915050565b6000828210156150db576150db61468f565b500390565b600061ffff808316818114156150f8576150f861468f565b600101939250505056fe5b542b52981c4f2fa9965514d5bb7f37f1b7bc0902a6a4dc6b04dc05be85586bbe6620bd3346e5d7f8387fbec0981aa0d6289d22efa7c935f9ef6841bf2a98c7a26469706673582212203ba8ff47f5994d6708813c947a5479e11032e071e516f84ae20664a16816345a64736f6c634300080c0033","linkReferences":{}},"methodIdentifiers":{"THRESHOLD_DENOMINATOR()":"ef024458","aggregator()":"245a7bfc","allTaskHashes(uint8,uint32)":"13f815ed","allTaskResponses(uint8,uint32)":"1ac27297","allowNonRootInit()":"0ee0fdbd","blsApkRegistry()":"5df45946","blsSignatureChecker()":"1c178e9c","checkSignatures(bytes32,bytes,uint32,(uint32[],(uint256,uint256)[],(uint256,uint256)[],(uint256[2],uint256[2]),(uint256,uint256),uint32[],uint32[],uint32[][]))":"6efb4636","createNewOpTask(uint32,bytes)":"6e125ff4","createNewRdTask(uint256)":"b3ea184e","delegation()":"df5cf723","dummyForOperatorStateInfoType((bool,uint8[],(uint8,uint96,(uint256,uint256))[],(uint8,uint96)[],(uint8,(uint256,uint256))[],bytes32[],(bytes32,uint8[],uint96[],uint8)[],(bytes32,uint8[],uint96[])[],(bytes32,uint8)[]))":"54d127de","dummyForQuorumStakeTotalsType((uint96[],uint96[]))":"45265b7a","generator()":"7afa1eed","getCheckSignaturesIndices(address,uint32,bytes,bytes32[])":"4f739f74","getOperatorState(address,bytes,uint32)":"3563b0d1","getOperatorState(address,bytes32,uint32)":"cefdc1d4","getQuorumBitmapsAtBlockNumber(address,bytes32[],uint32)":"5c155662","idToTaskStatus(uint8,uint32)":"bf2315ed","initialize(address,address,address,address,bool,address,uint32)":"98120901","lastCompletedOpTaskCreatedBlock()":"537a2929","lastCompletedOpTaskNum()":"8fc8729a","lastCompletedOpTaskQuorumNumbers()":"2830e8f9","lastCompletedOpTaskQuorumThresholdPercentage()":"e70c2623","latestOpTaskNum()":"41789d57","latestPendingStateHash()":"4ae6b203","latestRdTaskNum()":"7afdd54b","operatorsStateInfoHash()":"adfcb048","owner()":"8da5cb5b","pause(uint256)":"136439dd","pauseAll()":"595c6a67","paused()":"5c975abb","paused(uint8)":"5ac86ab7","pauserRegistry()":"886f1195","registryCoordinator()":"6d14a987","renounceOwnership()":"715018a6","respondToOpTask((uint32,uint32,uint32,bytes,uint32,bytes,uint32),(uint32,bytes32,bytes32),(uint32[],(uint256,uint256)[],(uint256,uint256)[],(uint256[2],uint256[2]),(uint256,uint256),uint32[],uint32[],uint32[][]))":"516a7227","respondToRdTask((uint32,uint256,uint32,uint32,bytes,uint32),(uint32,bytes32,bytes32,bytes32,bytes32),(uint32[],(uint256,uint256)[],(uint256,uint256)[],(uint256[2],uint256[2]),(uint256,uint256),uint32[],uint32[],uint32[][]))":"05c6b663","setPauserRegistry(address)":"10d67a2f","stakeRegistry()":"68304835","taskResponseWindowBlock()":"a69563a9","transferOwnership(address)":"f2fde38b","unpause(uint256)":"fabc1cbc","updateBlsSignatureCheckerAddress(address)":"723114ab"},"id":118}