{"abi":[{"type":"function","name":"THRESHOLD_DENOMINATOR","inputs":[],"outputs":[{"name":"","type":"uint256","internalType":"uint256"}],"stateMutability":"view"},{"type":"function","name":"aggregator","inputs":[],"outputs":[{"name":"","type":"address","internalType":"address"}],"stateMutability":"view"},{"type":"function","name":"allTaskHashes","inputs":[{"name":"","type":"uint8","internalType":"enum IFinalizerTaskManager.TaskType"},{"name":"","type":"uint32","internalType":"uint32"}],"outputs":[{"name":"","type":"bytes32","internalType":"bytes32"}],"stateMutability":"view"},{"type":"function","name":"allTaskResponses","inputs":[{"name":"","type":"uint8","internalType":"enum IFinalizerTaskManager.TaskType"},{"name":"","type":"uint32","internalType":"uint32"}],"outputs":[{"name":"","type":"bytes32","internalType":"bytes32"}],"stateMutability":"view"},{"type":"function","name":"allowNonRootInit","inputs":[],"outputs":[{"name":"","type":"bool","internalType":"bool"}],"stateMutability":"view"},{"type":"function","name":"blsApkRegistry","inputs":[],"outputs":[{"name":"","type":"address","internalType":"contract IBLSApkRegistry"}],"stateMutability":"view"},{"type":"function","name":"blsSignatureChecker","inputs":[],"outputs":[{"name":"","type":"address","internalType":"contract BLSSignatureChecker"}],"stateMutability":"view"},{"type":"function","name":"chainRdBatchNonce","inputs":[{"name":"","type":"uint8","internalType":"enum IRolldownPrimitives.ChainId"}],"outputs":[{"name":"","type":"uint32","internalType":"uint32"}],"stateMutability":"view"},{"type":"function","name":"checkSignatures","inputs":[{"name":"msgHash","type":"bytes32","internalType":"bytes32"},{"name":"quorumNumbers","type":"bytes","internalType":"bytes"},{"name":"referenceBlockNumber","type":"uint32","internalType":"uint32"},{"name":"nonSignerStakesAndSignature","type":"tuple","internalType":"struct IBLSSignatureChecker.NonSignerStakesAndSignature","components":[{"name":"nonSignerQuorumBitmapIndices","type":"uint32[]","internalType":"uint32[]"},{"name":"nonSignerPubkeys","type":"tuple[]","internalType":"struct BN254.G1Point[]","components":[{"name":"X","type":"uint256","internalType":"uint256"},{"name":"Y","type":"uint256","internalType":"uint256"}]},{"name":"quorumApks","type":"tuple[]","internalType":"struct BN254.G1Point[]","components":[{"name":"X","type":"uint256","internalType":"uint256"},{"name":"Y","type":"uint256","internalType":"uint256"}]},{"name":"apkG2","type":"tuple","internalType":"struct BN254.G2Point","components":[{"name":"X","type":"uint256[2]","internalType":"uint256[2]"},{"name":"Y","type":"uint256[2]","internalType":"uint256[2]"}]},{"name":"sigma","type":"tuple","internalType":"struct BN254.G1Point","components":[{"name":"X","type":"uint256","internalType":"uint256"},{"name":"Y","type":"uint256","internalType":"uint256"}]},{"name":"quorumApkIndices","type":"uint32[]","internalType":"uint32[]"},{"name":"totalStakeIndices","type":"uint32[]","internalType":"uint32[]"},{"name":"nonSignerStakeIndices","type":"uint32[][]","internalType":"uint32[][]"}]}],"outputs":[{"name":"","type":"tuple","internalType":"struct IBLSSignatureChecker.QuorumStakeTotals","components":[{"name":"signedStakeForQuorum","type":"uint96[]","internalType":"uint96[]"},{"name":"totalStakeForQuorum","type":"uint96[]","internalType":"uint96[]"}]},{"name":"","type":"bytes32","internalType":"bytes32"}],"stateMutability":"view"},{"type":"function","name":"createNewOpTask","inputs":[{"name":"quorumThresholdPercentage","type":"uint32","internalType":"uint32"},{"name":"quorumNumbers","type":"bytes","internalType":"bytes"}],"outputs":[],"stateMutability":"nonpayable"},{"type":"function","name":"createNewRdTask","inputs":[{"name":"chainId","type":"uint8","internalType":"enum IRolldownPrimitives.ChainId"},{"name":"batchId","type":"uint32","internalType":"uint32"}],"outputs":[],"stateMutability":"nonpayable"},{"type":"function","name":"delegation","inputs":[],"outputs":[{"name":"","type":"address","internalType":"contract IDelegationManager"}],"stateMutability":"view"},{"type":"function","name":"dummyForOperatorStateInfoType","inputs":[{"name":"_operatorStateInfo","type":"tuple","internalType":"struct IGaspMultiRollupServicePrimitives.OperatorStateInfo","components":[{"name":"operatorsStateChanged","type":"bool","internalType":"bool"},{"name":"quorumsRemoved","type":"uint8[]","internalType":"uint8[]"},{"name":"quorumsAdded","type":"tuple[]","internalType":"struct IGaspMultiRollupServicePrimitives.QuorumsAdded[]","components":[{"name":"quorumNumber","type":"uint8","internalType":"uint8"},{"name":"quorumStake","type":"uint96","internalType":"uint96"},{"name":"quorumApk","type":"tuple","internalType":"struct BN254.G1Point","components":[{"name":"X","type":"uint256","internalType":"uint256"},{"name":"Y","type":"uint256","internalType":"uint256"}]}]},{"name":"quorumsStakeUpdate","type":"tuple[]","internalType":"struct IGaspMultiRollupServicePrimitives.QuorumsStakeUpdate[]","components":[{"name":"quorumNumber","type":"uint8","internalType":"uint8"},{"name":"quorumStake","type":"uint96","internalType":"uint96"}]},{"name":"quorumsApkUpdate","type":"tuple[]","internalType":"struct IGaspMultiRollupServicePrimitives.QuorumsApkUpdate[]","components":[{"name":"quorumNumber","type":"uint8","internalType":"uint8"},{"name":"quorumApk","type":"tuple","internalType":"struct BN254.G1Point","components":[{"name":"X","type":"uint256","internalType":"uint256"},{"name":"Y","type":"uint256","internalType":"uint256"}]}]},{"name":"operatorsRemoved","type":"bytes32[]","internalType":"bytes32[]"},{"name":"operatorsAdded","type":"tuple[]","internalType":"struct IGaspMultiRollupServicePrimitives.OperatorsAdded[]","components":[{"name":"operatorId","type":"bytes32","internalType":"bytes32"},{"name":"quorumForStakes","type":"uint8[]","internalType":"uint8[]"},{"name":"quorumStakes","type":"uint96[]","internalType":"uint96[]"},{"name":"quorumCount","type":"uint8","internalType":"uint8"}]},{"name":"operatorsStakeUpdate","type":"tuple[]","internalType":"struct IGaspMultiRollupServicePrimitives.OperatorsStakeUpdate[]","components":[{"name":"operatorId","type":"bytes32","internalType":"bytes32"},{"name":"quorumForStakes","type":"uint8[]","internalType":"uint8[]"},{"name":"quorumStakes","type":"uint96[]","internalType":"uint96[]"}]},{"name":"operatorsQuorumCountUpdate","type":"tuple[]","internalType":"struct IGaspMultiRollupServicePrimitives.OperatorsQuorumCountUpdate[]","components":[{"name":"operatorId","type":"bytes32","internalType":"bytes32"},{"name":"quorumCount","type":"uint8","internalType":"uint8"}]}]}],"outputs":[],"stateMutability":"view"},{"type":"function","name":"dummyForQuorumStakeTotalsType","inputs":[{"name":"_quorumStakeTotals","type":"tuple","internalType":"struct IBLSSignatureChecker.QuorumStakeTotals","components":[{"name":"signedStakeForQuorum","type":"uint96[]","internalType":"uint96[]"},{"name":"totalStakeForQuorum","type":"uint96[]","internalType":"uint96[]"}]}],"outputs":[],"stateMutability":"view"},{"type":"function","name":"forceCancelPendingTasks","inputs":[],"outputs":[],"stateMutability":"nonpayable"},{"type":"function","name":"forceCreateNewOpTask","inputs":[{"name":"quorumThresholdPercentage","type":"uint32","internalType":"uint32"},{"name":"quorumNumbers","type":"bytes","internalType":"bytes"}],"outputs":[],"stateMutability":"nonpayable"},{"type":"function","name":"forceRespondToOpTask","inputs":[{"name":"task","type":"tuple","internalType":"struct IFinalizerTaskManager.OpTask","components":[{"name":"taskNum","type":"uint32","internalType":"uint32"},{"name":"taskCreatedBlock","type":"uint32","internalType":"uint32"},{"name":"lastCompletedOpTaskCreatedBlock","type":"uint32","internalType":"uint32"},{"name":"quorumNumbers","type":"bytes","internalType":"bytes"},{"name":"quorumThresholdPercentage","type":"uint32","internalType":"uint32"},{"name":"lastCompletedOpTaskQuorumNumbers","type":"bytes","internalType":"bytes"},{"name":"lastCompletedOpTaskQuorumThresholdPercentage","type":"uint32","internalType":"uint32"}]},{"name":"taskResponse","type":"tuple","internalType":"struct IFinalizerTaskManager.OpTaskResponse","components":[{"name":"referenceTaskIndex","type":"uint32","internalType":"uint32"},{"name":"referenceTaskHash","type":"bytes32","internalType":"bytes32"},{"name":"operatorsStateInfoHash","type":"bytes32","internalType":"bytes32"}]}],"outputs":[],"stateMutability":"nonpayable"},{"type":"function","name":"generator","inputs":[],"outputs":[{"name":"","type":"address","internalType":"address"}],"stateMutability":"view"},{"type":"function","name":"getCheckSignaturesIndices","inputs":[{"name":"registryCoordinator","type":"address","internalType":"contract IRegistryCoordinator"},{"name":"referenceBlockNumber","type":"uint32","internalType":"uint32"},{"name":"quorumNumbers","type":"bytes","internalType":"bytes"},{"name":"nonSignerOperatorIds","type":"bytes32[]","internalType":"bytes32[]"}],"outputs":[{"name":"","type":"tuple","internalType":"struct OperatorStateRetriever.CheckSignaturesIndices","components":[{"name":"nonSignerQuorumBitmapIndices","type":"uint32[]","internalType":"uint32[]"},{"name":"quorumApkIndices","type":"uint32[]","internalType":"uint32[]"},{"name":"totalStakeIndices","type":"uint32[]","internalType":"uint32[]"},{"name":"nonSignerStakeIndices","type":"uint32[][]","internalType":"uint32[][]"}]}],"stateMutability":"view"},{"type":"function","name":"getOperatorState","inputs":[{"name":"registryCoordinator","type":"address","internalType":"contract IRegistryCoordinator"},{"name":"quorumNumbers","type":"bytes","internalType":"bytes"},{"name":"blockNumber","type":"uint32","internalType":"uint32"}],"outputs":[{"name":"","type":"tuple[][]","internalType":"struct OperatorStateRetriever.Operator[][]","components":[{"name":"operator","type":"address","internalType":"address"},{"name":"operatorId","type":"bytes32","internalType":"bytes32"},{"name":"stake","type":"uint96","internalType":"uint96"}]}],"stateMutability":"view"},{"type":"function","name":"getOperatorState","inputs":[{"name":"registryCoordinator","type":"address","internalType":"contract IRegistryCoordinator"},{"name":"operatorId","type":"bytes32","internalType":"bytes32"},{"name":"blockNumber","type":"uint32","internalType":"uint32"}],"outputs":[{"name":"","type":"uint256","internalType":"uint256"},{"name":"","type":"tuple[][]","internalType":"struct OperatorStateRetriever.Operator[][]","components":[{"name":"operator","type":"address","internalType":"address"},{"name":"operatorId","type":"bytes32","internalType":"bytes32"},{"name":"stake","type":"uint96","internalType":"uint96"}]}],"stateMutability":"view"},{"type":"function","name":"getQuorumBitmapsAtBlockNumber","inputs":[{"name":"registryCoordinator","type":"address","internalType":"contract IRegistryCoordinator"},{"name":"operatorIds","type":"bytes32[]","internalType":"bytes32[]"},{"name":"blockNumber","type":"uint32","internalType":"uint32"}],"outputs":[{"name":"","type":"uint256[]","internalType":"uint256[]"}],"stateMutability":"view"},{"type":"function","name":"idToTaskStatus","inputs":[{"name":"","type":"uint8","internalType":"enum IFinalizerTaskManager.TaskType"},{"name":"","type":"uint32","internalType":"uint32"}],"outputs":[{"name":"","type":"uint8","internalType":"enum IFinalizerTaskManager.TaskStatus"}],"stateMutability":"view"},{"type":"function","name":"initialize","inputs":[{"name":"_pauserRegistry","type":"address","internalType":"contract IPauserRegistry"},{"name":"initialOwner","type":"address","internalType":"address"},{"name":"_aggregator","type":"address","internalType":"address"},{"name":"_generator","type":"address","internalType":"address"},{"name":"_allowNonRootInit","type":"bool","internalType":"bool"},{"name":"_blsSignatureCheckerAddress","type":"address","internalType":"address"},{"name":"_taskResponseWindowBlock","type":"uint32","internalType":"uint32"},{"name":"_operatorStateRetrieverExtended","type":"address","internalType":"address"},{"name":"_rolldown","type":"address","internalType":"contract IRolldown"}],"outputs":[],"stateMutability":"nonpayable"},{"type":"function","name":"isTaskPending","inputs":[],"outputs":[{"name":"","type":"bool","internalType":"bool"}],"stateMutability":"view"},{"type":"function","name":"lastCompletedOpTaskCreatedBlock","inputs":[],"outputs":[{"name":"","type":"uint32","internalType":"uint32"}],"stateMutability":"view"},{"type":"function","name":"lastCompletedOpTaskNum","inputs":[],"outputs":[{"name":"","type":"uint32","internalType":"uint32"}],"stateMutability":"view"},{"type":"function","name":"lastCompletedOpTaskQuorumNumbers","inputs":[],"outputs":[{"name":"","type":"bytes","internalType":"bytes"}],"stateMutability":"view"},{"type":"function","name":"lastCompletedOpTaskQuorumThresholdPercentage","inputs":[],"outputs":[{"name":"","type":"uint32","internalType":"uint32"}],"stateMutability":"view"},{"type":"function","name":"lastOpTaskCreatedBlock","inputs":[],"outputs":[{"name":"","type":"uint32","internalType":"uint32"}],"stateMutability":"view"},{"type":"function","name":"lastRdTaskCreatedBlock","inputs":[],"outputs":[{"name":"","type":"uint32","internalType":"uint32"}],"stateMutability":"view"},{"type":"function","name":"latestOpTaskNum","inputs":[],"outputs":[{"name":"","type":"uint32","internalType":"uint32"}],"stateMutability":"view"},{"type":"function","name":"latestRdTaskNum","inputs":[],"outputs":[{"name":"","type":"uint32","internalType":"uint32"}],"stateMutability":"view"},{"type":"function","name":"operatorStateRetrieverExtended","inputs":[],"outputs":[{"name":"","type":"address","internalType":"address"}],"stateMutability":"view"},{"type":"function","name":"operatorsStateInfoHash","inputs":[],"outputs":[{"name":"","type":"bytes32","internalType":"bytes32"}],"stateMutability":"view"},{"type":"function","name":"owner","inputs":[],"outputs":[{"name":"","type":"address","internalType":"address"}],"stateMutability":"view"},{"type":"function","name":"pause","inputs":[{"name":"newPausedStatus","type":"uint256","internalType":"uint256"}],"outputs":[],"stateMutability":"nonpayable"},{"type":"function","name":"pauseAll","inputs":[],"outputs":[],"stateMutability":"nonpayable"},{"type":"function","name":"pauseTrackingOpState","inputs":[],"outputs":[],"stateMutability":"nonpayable"},{"type":"function","name":"paused","inputs":[{"name":"index","type":"uint8","internalType":"uint8"}],"outputs":[{"name":"","type":"bool","internalType":"bool"}],"stateMutability":"view"},{"type":"function","name":"paused","inputs":[],"outputs":[{"name":"","type":"uint256","internalType":"uint256"}],"stateMutability":"view"},{"type":"function","name":"pauserRegistry","inputs":[],"outputs":[{"name":"","type":"address","internalType":"contract IPauserRegistry"}],"stateMutability":"view"},{"type":"function","name":"registryCoordinator","inputs":[],"outputs":[{"name":"","type":"address","internalType":"contract IRegistryCoordinator"}],"stateMutability":"view"},{"type":"function","name":"renounceOwnership","inputs":[],"outputs":[],"stateMutability":"nonpayable"},{"type":"function","name":"respondToOpTask","inputs":[{"name":"task","type":"tuple","internalType":"struct IFinalizerTaskManager.OpTask","components":[{"name":"taskNum","type":"uint32","internalType":"uint32"},{"name":"taskCreatedBlock","type":"uint32","internalType":"uint32"},{"name":"lastCompletedOpTaskCreatedBlock","type":"uint32","internalType":"uint32"},{"name":"quorumNumbers","type":"bytes","internalType":"bytes"},{"name":"quorumThresholdPercentage","type":"uint32","internalType":"uint32"},{"name":"lastCompletedOpTaskQuorumNumbers","type":"bytes","internalType":"bytes"},{"name":"lastCompletedOpTaskQuorumThresholdPercentage","type":"uint32","internalType":"uint32"}]},{"name":"taskResponse","type":"tuple","internalType":"struct IFinalizerTaskManager.OpTaskResponse","components":[{"name":"referenceTaskIndex","type":"uint32","internalType":"uint32"},{"name":"referenceTaskHash","type":"bytes32","internalType":"bytes32"},{"name":"operatorsStateInfoHash","type":"bytes32","internalType":"bytes32"}]},{"name":"nonSignerStakesAndSignature","type":"tuple","internalType":"struct IBLSSignatureChecker.NonSignerStakesAndSignature","components":[{"name":"nonSignerQuorumBitmapIndices","type":"uint32[]","internalType":"uint32[]"},{"name":"nonSignerPubkeys","type":"tuple[]","internalType":"struct BN254.G1Point[]","components":[{"name":"X","type":"uint256","internalType":"uint256"},{"name":"Y","type":"uint256","internalType":"uint256"}]},{"name":"quorumApks","type":"tuple[]","internalType":"struct BN254.G1Point[]","components":[{"name":"X","type":"uint256","internalType":"uint256"},{"name":"Y","type":"uint256","internalType":"uint256"}]},{"name":"apkG2","type":"tuple","internalType":"struct BN254.G2Point","components":[{"name":"X","type":"uint256[2]","internalType":"uint256[2]"},{"name":"Y","type":"uint256[2]","internalType":"uint256[2]"}]},{"name":"sigma","type":"tuple","internalType":"struct BN254.G1Point","components":[{"name":"X","type":"uint256","internalType":"uint256"},{"name":"Y","type":"uint256","internalType":"uint256"}]},{"name":"quorumApkIndices","type":"uint32[]","internalType":"uint32[]"},{"name":"totalStakeIndices","type":"uint32[]","internalType":"uint32[]"},{"name":"nonSignerStakeIndices","type":"uint32[][]","internalType":"uint32[][]"}]}],"outputs":[],"stateMutability":"nonpayable"},{"type":"function","name":"respondToRdTask","inputs":[{"name":"task","type":"tuple","internalType":"struct IFinalizerTaskManager.RdTask","components":[{"name":"taskNum","type":"uint32","internalType":"uint32"},{"name":"chainId","type":"uint8","internalType":"enum IRolldownPrimitives.ChainId"},{"name":"batchId","type":"uint32","internalType":"uint32"},{"name":"taskCreatedBlock","type":"uint32","internalType":"uint32"},{"name":"lastCompletedOpTaskCreatedBlock","type":"uint32","internalType":"uint32"},{"name":"lastCompletedOpTaskQuorumNumbers","type":"bytes","internalType":"bytes"},{"name":"lastCompletedOpTaskQuorumThresholdPercentage","type":"uint32","internalType":"uint32"}]},{"name":"taskResponse","type":"tuple","internalType":"struct IFinalizerTaskManager.RdTaskResponse","components":[{"name":"referenceTaskIndex","type":"uint32","internalType":"uint32"},{"name":"referenceTaskHash","type":"bytes32","internalType":"bytes32"},{"name":"chainId","type":"uint8","internalType":"enum IRolldownPrimitives.ChainId"},{"name":"batchId","type":"uint32","internalType":"uint32"},{"name":"rdUpdate","type":"bytes32","internalType":"bytes32"},{"name":"rangeStart","type":"uint256","internalType":"uint256"},{"name":"rangeEnd","type":"uint256","internalType":"uint256"},{"name":"updater","type":"address","internalType":"address"}]},{"name":"nonSignerStakesAndSignature","type":"tuple","internalType":"struct IBLSSignatureChecker.NonSignerStakesAndSignature","components":[{"name":"nonSignerQuorumBitmapIndices","type":"uint32[]","internalType":"uint32[]"},{"name":"nonSignerPubkeys","type":"tuple[]","internalType":"struct BN254.G1Point[]","components":[{"name":"X","type":"uint256","internalType":"uint256"},{"name":"Y","type":"uint256","internalType":"uint256"}]},{"name":"quorumApks","type":"tuple[]","internalType":"struct BN254.G1Point[]","components":[{"name":"X","type":"uint256","internalType":"uint256"},{"name":"Y","type":"uint256","internalType":"uint256"}]},{"name":"apkG2","type":"tuple","internalType":"struct BN254.G2Point","components":[{"name":"X","type":"uint256[2]","internalType":"uint256[2]"},{"name":"Y","type":"uint256[2]","internalType":"uint256[2]"}]},{"name":"sigma","type":"tuple","internalType":"struct BN254.G1Point","components":[{"name":"X","type":"uint256","internalType":"uint256"},{"name":"Y","type":"uint256","internalType":"uint256"}]},{"name":"quorumApkIndices","type":"uint32[]","internalType":"uint32[]"},{"name":"totalStakeIndices","type":"uint32[]","internalType":"uint32[]"},{"name":"nonSignerStakeIndices","type":"uint32[][]","internalType":"uint32[][]"}]}],"outputs":[],"stateMutability":"nonpayable"},{"type":"function","name":"resumeTrackingQuorums","inputs":[{"name":"resetTrackedQuorums","type":"bool","internalType":"bool"}],"outputs":[],"stateMutability":"nonpayable"},{"type":"function","name":"rolldown","inputs":[],"outputs":[{"name":"","type":"address","internalType":"contract IRolldown"}],"stateMutability":"view"},{"type":"function","name":"setPauserRegistry","inputs":[{"name":"newPauserRegistry","type":"address","internalType":"contract IPauserRegistry"}],"outputs":[],"stateMutability":"nonpayable"},{"type":"function","name":"setRolldown","inputs":[{"name":"_rolldown","type":"address","internalType":"contract IRolldown"}],"outputs":[],"stateMutability":"nonpayable"},{"type":"function","name":"stakeRegistry","inputs":[],"outputs":[{"name":"","type":"address","internalType":"contract IStakeRegistry"}],"stateMutability":"view"},{"type":"function","name":"taskResponseWindowBlock","inputs":[],"outputs":[{"name":"","type":"uint32","internalType":"uint32"}],"stateMutability":"view"},{"type":"function","name":"transferOwnership","inputs":[{"name":"newOwner","type":"address","internalType":"address"}],"outputs":[],"stateMutability":"nonpayable"},{"type":"function","name":"unpause","inputs":[{"name":"newPausedStatus","type":"uint256","internalType":"uint256"}],"outputs":[],"stateMutability":"nonpayable"},{"type":"function","name":"updateBlsSignatureCheckerAddress","inputs":[{"name":"_blsSignatureCheckerAddress","type":"address","internalType":"address"}],"outputs":[],"stateMutability":"nonpayable"},{"type":"event","name":"BLSSignatureCheckerAddressUpdated","inputs":[{"name":"blsSignatureCheckerAddress","type":"address","indexed":false,"internalType":"address"}],"anonymous":false},{"type":"event","name":"Initialized","inputs":[{"name":"version","type":"uint8","indexed":false,"internalType":"uint8"}],"anonymous":false},{"type":"event","name":"NewOpTaskCreated","inputs":[{"name":"taskIndex","type":"uint32","indexed":true,"internalType":"uint32"},{"name":"task","type":"tuple","indexed":false,"internalType":"struct IFinalizerTaskManager.OpTask","components":[{"name":"taskNum","type":"uint32","internalType":"uint32"},{"name":"taskCreatedBlock","type":"uint32","internalType":"uint32"},{"name":"lastCompletedOpTaskCreatedBlock","type":"uint32","internalType":"uint32"},{"name":"quorumNumbers","type":"bytes","internalType":"bytes"},{"name":"quorumThresholdPercentage","type":"uint32","internalType":"uint32"},{"name":"lastCompletedOpTaskQuorumNumbers","type":"bytes","internalType":"bytes"},{"name":"lastCompletedOpTaskQuorumThresholdPercentage","type":"uint32","internalType":"uint32"}]}],"anonymous":false},{"type":"event","name":"NewOpTaskForceCreated","inputs":[],"anonymous":false},{"type":"event","name":"NewRdTaskCreated","inputs":[{"name":"taskIndex","type":"uint32","indexed":true,"internalType":"uint32"},{"name":"task","type":"tuple","indexed":false,"internalType":"struct IFinalizerTaskManager.RdTask","components":[{"name":"taskNum","type":"uint32","internalType":"uint32"},{"name":"chainId","type":"uint8","internalType":"enum IRolldownPrimitives.ChainId"},{"name":"batchId","type":"uint32","internalType":"uint32"},{"name":"taskCreatedBlock","type":"uint32","internalType":"uint32"},{"name":"lastCompletedOpTaskCreatedBlock","type":"uint32","internalType":"uint32"},{"name":"lastCompletedOpTaskQuorumNumbers","type":"bytes","internalType":"bytes"},{"name":"lastCompletedOpTaskQuorumThresholdPercentage","type":"uint32","internalType":"uint32"}]}],"anonymous":false},{"type":"event","name":"OpTaskCancelled","inputs":[{"name":"taskIndex","type":"uint32","indexed":true,"internalType":"uint32"}],"anonymous":false},{"type":"event","name":"OpTaskCompleted","inputs":[{"name":"taskIndex","type":"uint32","indexed":true,"internalType":"uint32"},{"name":"taskResponse","type":"tuple","indexed":false,"internalType":"struct IFinalizerTaskManager.OpTaskResponse","components":[{"name":"referenceTaskIndex","type":"uint32","internalType":"uint32"},{"name":"referenceTaskHash","type":"bytes32","internalType":"bytes32"},{"name":"operatorsStateInfoHash","type":"bytes32","internalType":"bytes32"}]}],"anonymous":false},{"type":"event","name":"OpTaskForceCompleted","inputs":[{"name":"taskIndex","type":"uint32","indexed":true,"internalType":"uint32"},{"name":"taskResponse","type":"tuple","indexed":false,"internalType":"struct IFinalizerTaskManager.OpTaskResponse","components":[{"name":"referenceTaskIndex","type":"uint32","internalType":"uint32"},{"name":"referenceTaskHash","type":"bytes32","internalType":"bytes32"},{"name":"operatorsStateInfoHash","type":"bytes32","internalType":"bytes32"}]}],"anonymous":false},{"type":"event","name":"OpTaskResponded","inputs":[{"name":"taskIndex","type":"uint32","indexed":true,"internalType":"uint32"},{"name":"taskResponse","type":"tuple","indexed":false,"internalType":"struct IFinalizerTaskManager.OpTaskResponse","components":[{"name":"referenceTaskIndex","type":"uint32","internalType":"uint32"},{"name":"referenceTaskHash","type":"bytes32","internalType":"bytes32"},{"name":"operatorsStateInfoHash","type":"bytes32","internalType":"bytes32"}]},{"name":"taskResponseMetadata","type":"tuple","indexed":false,"internalType":"struct IFinalizerTaskManager.TaskResponseMetadata","components":[{"name":"taskResponsedBlock","type":"uint32","internalType":"uint32"},{"name":"hashOfNonSigners","type":"bytes32","internalType":"bytes32"},{"name":"quroumStakeTotals","type":"uint96[]","internalType":"uint96[]"},{"name":"quroumStakeSigned","type":"uint96[]","internalType":"uint96[]"}]}],"anonymous":false},{"type":"event","name":"OwnershipTransferred","inputs":[{"name":"previousOwner","type":"address","indexed":true,"internalType":"address"},{"name":"newOwner","type":"address","indexed":true,"internalType":"address"}],"anonymous":false},{"type":"event","name":"PauseTrackingOpState","inputs":[],"anonymous":false},{"type":"event","name":"Paused","inputs":[{"name":"account","type":"address","indexed":true,"internalType":"address"},{"name":"newPausedStatus","type":"uint256","indexed":false,"internalType":"uint256"}],"anonymous":false},{"type":"event","name":"PauserRegistrySet","inputs":[{"name":"pauserRegistry","type":"address","indexed":false,"internalType":"contract IPauserRegistry"},{"name":"newPauserRegistry","type":"address","indexed":false,"internalType":"contract IPauserRegistry"}],"anonymous":false},{"type":"event","name":"RdTaskCancelled","inputs":[{"name":"taskIndex","type":"uint32","indexed":true,"internalType":"uint32"}],"anonymous":false},{"type":"event","name":"RdTaskCompleted","inputs":[{"name":"taskIndex","type":"uint32","indexed":true,"internalType":"uint32"},{"name":"taskResponse","type":"tuple","indexed":false,"internalType":"struct IFinalizerTaskManager.RdTaskResponse","components":[{"name":"referenceTaskIndex","type":"uint32","internalType":"uint32"},{"name":"referenceTaskHash","type":"bytes32","internalType":"bytes32"},{"name":"chainId","type":"uint8","internalType":"enum IRolldownPrimitives.ChainId"},{"name":"batchId","type":"uint32","internalType":"uint32"},{"name":"rdUpdate","type":"bytes32","internalType":"bytes32"},{"name":"rangeStart","type":"uint256","internalType":"uint256"},{"name":"rangeEnd","type":"uint256","internalType":"uint256"},{"name":"updater","type":"address","internalType":"address"}]}],"anonymous":false},{"type":"event","name":"RdTaskResponded","inputs":[{"name":"taskIndex","type":"uint32","indexed":true,"internalType":"uint32"},{"name":"taskResponse","type":"tuple","indexed":false,"internalType":"struct IFinalizerTaskManager.RdTaskResponse","components":[{"name":"referenceTaskIndex","type":"uint32","internalType":"uint32"},{"name":"referenceTaskHash","type":"bytes32","internalType":"bytes32"},{"name":"chainId","type":"uint8","internalType":"enum IRolldownPrimitives.ChainId"},{"name":"batchId","type":"uint32","internalType":"uint32"},{"name":"rdUpdate","type":"bytes32","internalType":"bytes32"},{"name":"rangeStart","type":"uint256","internalType":"uint256"},{"name":"rangeEnd","type":"uint256","internalType":"uint256"},{"name":"updater","type":"address","internalType":"address"}]},{"name":"taskResponseMetadata","type":"tuple","indexed":false,"internalType":"struct IFinalizerTaskManager.TaskResponseMetadata","components":[{"name":"taskResponsedBlock","type":"uint32","internalType":"uint32"},{"name":"hashOfNonSigners","type":"bytes32","internalType":"bytes32"},{"name":"quroumStakeTotals","type":"uint96[]","internalType":"uint96[]"},{"name":"quroumStakeSigned","type":"uint96[]","internalType":"uint96[]"}]}],"anonymous":false},{"type":"event","name":"ResumeTrackingOpState","inputs":[{"name":"resetTrackedQuorums","type":"bool","indexed":false,"internalType":"bool"}],"anonymous":false},{"type":"event","name":"RolldownTargetUpdated","inputs":[{"name":"rolldownAddress","type":"address","indexed":false,"internalType":"address"}],"anonymous":false},{"type":"event","name":"StaleStakesForbiddenUpdate","inputs":[{"name":"value","type":"bool","indexed":false,"internalType":"bool"}],"anonymous":false},{"type":"event","name":"Unpaused","inputs":[{"name":"account","type":"address","indexed":true,"internalType":"address"},{"name":"newPausedStatus","type":"uint256","indexed":false,"internalType":"uint256"}],"anonymous":false}],"bytecode":{"object":"0x608060405234801561001057600080fd5b50615ef780620000216000396000f3fe608060405234801561001057600080fd5b506004361061035d5760003560e01c80636d14a987116101d3578063930390d911610104578063e70c2623116100a2578063f2fde38b1161007c578063f2fde38b146107d2578063f5640cf8146107e5578063fabc1cbc146107f8578063fdc15de81461080b57600080fd5b8063e70c2623146107a7578063e72ddf10146107b7578063ef024458146107ca57600080fd5b8063bf2315ed116100de578063bf2315ed14610730578063cefdc1d41461076b578063de4348381461078c578063df5cf7231461079f57600080fd5b8063930390d9146106ea578063a69563a914610710578063adfcb0481461072757600080fd5b80637afa1eed11610171578063886f11951161014b578063886f1195146106975780638c82af5e146106aa5780638da5cb5b146106c25780638fc8729a146106d357600080fd5b80637afa1eed1461065a5780637afdd54b1461066d5780638380acbd1461068457600080fd5b80636f254819116101ad5780636f25481914610624578063715018a614610637578063723114ab1461063f57806379badf731461065257600080fd5b80636d14a987146105e85780636e125ff4146105f05780636efb46361461060357600080fd5b806341789d57116102ad578063595c6a671161024b5780635c975abb116102255780635c975abb146105c85780635df45946146105d057806360202fc0146105d857806368304835146105e057600080fd5b8063595c6a671461057d5780635ac86ab7146105855780635c155662146105a857600080fd5b80634f739f74116102875780634f739f7414610525578063516a722714610545578063537a29291461055857806354d127de1461056f57600080fd5b806341789d57146104d857806345265b7a146105045780634d7a71161461051557600080fd5b80631ac272971161031a5780632830e8f9116102f45780632830e8f91461047c5780633563b0d11461049157806336f78ed8146104b15780633d9fb00c146104c557600080fd5b80631ac272971461040b5780631c178e9c14610436578063245a7bfc1461046157600080fd5b806301a3f013146103625780630ee0fdbd1461037757806310d67a2f14610399578063136439dd146103ac57806313f815ed146103bf578063191aac7a146103f8575b600080fd5b61037561037036600461432c565b61081e565b005b60a3546103849060ff1681565b60405190151581526020015b60405180910390f35b6103756103a736600461438f565b610d03565b6103756103ba3660046143ac565b610db3565b6103ea6103cd3660046143f4565b609960209081526000928352604080842090915290825290205481565b604051908152602001610390565b61037561040636600461443b565b610ef2565b6103ea6104193660046143f4565b609a60209081526000928352604080842090915290825290205481565b609754610449906001600160a01b031681565b6040516001600160a01b039091168152602001610390565b609e546104499064010000000090046001600160a01b031681565b610484610f33565b60405161039091906144a5565b6104a461049f366004614549565b610fc1565b60405161039091906146a4565b60a05461038490600160a01b900460ff1681565b60a054610449906001600160a01b031681565b6098546104ef90600160c01b900463ffffffff1681565b60405163ffffffff9091168152602001610390565b6103756105123660046146b7565b50565b609c546104ef9063ffffffff1681565b610538610533366004614739565b611459565b6040516103909190614892565b610375610553366004614c74565b611b7f565b609c546104ef90600160601b900463ffffffff1681565b610375610512366004614ce8565b61037561224a565b610384610593366004614d23565b606654600160ff9092169190911b9081161490565b6105bb6105b6366004614d46565b612311565b6040516103909190614df2565b6066546103ea565b6104496124d9565b61037561254c565b61044961258c565b6104496125d6565b6103756105fe366004614e36565b612620565b610616610611366004614e8a565b6126c3565b604051610390929190614f4a565b6103756106323660046143f4565b612763565b610375612ab8565b61037561064d36600461438f565b612aca565b610375612b20565b609f54610449906001600160a01b031681565b6098546104ef90600160e01b900463ffffffff1681565b609854610449906001600160a01b031681565b606554610449906001600160a01b031681565b609c546104ef90640100000000900463ffffffff1681565b6033546001600160a01b0316610449565b609c546104ef90600160401b900463ffffffff1681565b6104ef6106f8366004614f93565b60a16020526000908152604090205463ffffffff1681565b6098546104ef90600160a01b900463ffffffff1681565b6103ea60a25481565b61075e61073e3660046143f4565b609b60209081526000928352604080842090915290825290205460ff1681565b6040516103909190614fc6565b61077e610779366004614fe0565b612b53565b604051610390929190615022565b61037561079a366004615043565b612ce5565b610449612e9e565b609e546104ef9063ffffffff1681565b6103756107c53660046150ff565b612ee8565b6103ea606481565b6103756107e036600461438f565b61370a565b6103756107f3366004614e36565b613780565b6103756108063660046143ac565b6137db565b61037561081936600461438f565b613937565b6108266139dd565b60006108356020830183615177565b905060006108496060850160408601615177565b9050600061085d6040860160208701615177565b905036600061086f60a0880188615194565b9092509050600061088660e0890160c08a01615177565b60a054909150600160a01b900460ff1615156001146108c05760405162461bcd60e51b81526004016108b7906151da565b60405180910390fd5b6000808052609960209081527f235d629dc802037ded8c61cb27fb29e40fa01b299719d8f991ffe20bdcc59f4f91906108fb908a018a615177565b63ffffffff1663ffffffff16815260200190815260200160002054886040516020016109279190615271565b604051602081830303815290604052805190602001201461095a5760405162461bcd60e51b81526004016108b79061534b565b6000808052609b6020908152600191600080516020615e8283398151915291610985908b018b615177565b63ffffffff16815260208101919091526040016000205460ff1660048111156109b0576109b0614fb0565b146109cd5760405162461bcd60e51b81526004016108b790615372565b6000808052609a60209081527fbe6620bd3346e5d7f8387fbec0981aa0d6289d22efa7c935f9ef6841bf2a98c7908290610a09908b018b615177565b63ffffffff1663ffffffff1681526020019081526020016000205414610a415760405162461bcd60e51b81526004016108b79061539a565b609854610a5b90600160a01b900463ffffffff16856153d4565b63ffffffff164363ffffffff161115610a865760405162461bcd60e51b81526004016108b7906153fc565b60408051808201909152606080825260208201526040805160808101825263ffffffff431681526000602080830182905284810151838501528451606084015292519092610ad8918c9184910161548e565b60408051601f1981840301815291905280516020918201206000808052609a835290917fbe6620bd3346e5d7f8387fbec0981aa0d6289d22efa7c935f9ef6841bf2a98c79190610b2a908e018e615177565b63ffffffff16815260208082019290925260409081016000908120939093558c013560a255818052609b8152600491600080516020615e8283398151915291610b75908e018e615177565b63ffffffff1681526020810191909152604001600020805460ff19166001836004811115610ba557610ba5614fb0565b0217905550610bba60408c0160208d01615177565b609c805463ffffffff92909216600160601b0263ffffffff60601b19909216919091179055610bec60608c018c615194565b610bf891609d91614269565b50610c0960a08c0160808d01615177565b609e805463ffffffff191663ffffffff92909216919091179055610c3060208c018c615177565b609c805463ffffffff92909216600160401b0263ffffffff60401b1990921691909117905560a0805460ff60a01b19169055610c6f60208b018b615177565b63ffffffff167fff2908483d74b6b70053dd473260acf1b09e0ba0781bf94100bb8277581749de8b604051610ca491906154ae565b60405180910390a2610cb960208b018b615177565b63ffffffff167fdf22f3558e4841b63d77179546b3eae63e4e343bbe752746b093162bc526be4c8b604051610cee91906154ae565b60405180910390a25050505050505050505050565b606560009054906101000a90046001600160a01b03166001600160a01b031663eab66d7a6040518163ffffffff1660e01b8152600401602060405180830381865afa158015610d56573d6000803e3d6000fd5b505050506040513d601f19601f82011682018060405250810190610d7a91906154bc565b6001600160a01b0316336001600160a01b031614610daa5760405162461bcd60e51b81526004016108b7906154d9565b61051281613a37565b60655460405163237dfb4760e11b81523360048201526001600160a01b03909116906346fbf68e90602401602060405180830381865afa158015610dfb573d6000803e3d6000fd5b505050506040513d601f19601f82011682018060405250810190610e1f9190615523565b610e3b5760405162461bcd60e51b81526004016108b790615540565b60665481811614610eb45760405162461bcd60e51b815260206004820152603860248201527f5061757361626c652e70617573653a20696e76616c696420617474656d70742060448201527f746f20756e70617573652066756e6374696f6e616c697479000000000000000060648201526084016108b7565b606681905560405181815233907fab40a374bc51de372200a8bc981af8c9ecdc08dfdaef0bb6e09f88f3c616ef3d906020015b60405180910390a250565b610efa6139dd565b60405181151581527f6af4ae1f481aff20ce571abd65375b67b22359883a823d1ddf4bd8f2879ff7ba906020015b60405180910390a150565b609d8054610f4090615588565b80601f0160208091040260200160405190810160405280929190818152602001828054610f6c90615588565b8015610fb95780601f10610f8e57610100808354040283529160200191610fb9565b820191906000526020600020905b815481529060010190602001808311610f9c57829003601f168201915b505050505081565b60606000846001600160a01b031663683048356040518163ffffffff1660e01b8152600401602060405180830381865afa158015611003573d6000803e3d6000fd5b505050506040513d601f19601f8201168201806040525081019061102791906154bc565b90506000856001600160a01b0316639e9923c26040518163ffffffff1660e01b8152600401602060405180830381865afa158015611069573d6000803e3d6000fd5b505050506040513d601f19601f8201168201806040525081019061108d91906154bc565b90506000866001600160a01b0316635df459466040518163ffffffff1660e01b8152600401602060405180830381865afa1580156110cf573d6000803e3d6000fd5b505050506040513d601f19601f820116820180604052508101906110f391906154bc565b9050600086516001600160401b03811115611110576111106144b8565b60405190808252806020026020018201604052801561114357816020015b606081526020019060019003908161112e5790505b50905060005b875181101561144b576000888281518110611166576111666155bd565b0160200151604051638902624560e01b815260f89190911c6004820181905263ffffffff8a16602483015291506000906001600160a01b03871690638902624590604401600060405180830381865afa1580156111c7573d6000803e3d6000fd5b505050506040513d6000823e601f3d908101601f191682016040526111ef91908101906155d3565b905080516001600160401b0381111561120a5761120a6144b8565b60405190808252806020026020018201604052801561125557816020015b60408051606081018252600080825260208083018290529282015282526000199092019101816112285790505b50848481518110611268576112686155bd565b602002602001018190525060005b8151811015611435576040518060600160405280876001600160a01b03166347b314e88585815181106112ab576112ab6155bd565b60200260200101516040518263ffffffff1660e01b81526004016112d191815260200190565b602060405180830381865afa1580156112ee573d6000803e3d6000fd5b505050506040513d601f19601f8201168201806040525081019061131291906154bc565b6001600160a01b03168152602001838381518110611332576113326155bd565b60200260200101518152602001896001600160a01b031663fa28c627858581518110611360576113606155bd565b60209081029190910101516040516001600160e01b031960e084901b168152600481019190915260ff8816602482015263ffffffff8f166044820152606401602060405180830381865afa1580156113bc573d6000803e3d6000fd5b505050506040513d601f19601f820116820180604052508101906113e0919061567a565b6001600160601b03168152508585815181106113fe576113fe6155bd565b60200260200101518281518110611417576114176155bd565b6020026020010181905250808061142d90615695565b915050611276565b505050808061144390615695565b915050611149565b5093505050505b9392505050565b6114846040518060800160405280606081526020016060815260200160608152602001606081525090565b6000876001600160a01b031663683048356040518163ffffffff1660e01b8152600401602060405180830381865afa1580156114c4573d6000803e3d6000fd5b505050506040513d601f19601f820116820180604052508101906114e891906154bc565b90506115156040518060800160405280606081526020016060815260200160608152602001606081525090565b6040516361c8a12f60e11b81526001600160a01b038a169063c391425e90611545908b90899089906004016156b0565b600060405180830381865afa158015611562573d6000803e3d6000fd5b505050506040513d6000823e601f3d908101601f1916820160405261158a91908101906156fa565b81526040516340e03a8160e11b81526001600160a01b038316906381c07502906115bc908b908b908b90600401615788565b600060405180830381865afa1580156115d9573d6000803e3d6000fd5b505050506040513d6000823e601f3d908101601f1916820160405261160191908101906156fa565b6040820152856001600160401b0381111561161e5761161e6144b8565b60405190808252806020026020018201604052801561165157816020015b606081526020019060019003908161163c5790505b50606082015260005b60ff8116871115611a90576000856001600160401b0381111561167f5761167f6144b8565b6040519080825280602002602001820160405280156116a8578160200160208202803683370190505b5083606001518360ff16815181106116c2576116c26155bd565b602002602001018190525060005b868110156119905760008c6001600160a01b03166304ec63518a8a858181106116fb576116fb6155bd565b905060200201358e88600001518681518110611719576117196155bd565b60200260200101516040518463ffffffff1660e01b81526004016117569392919092835263ffffffff918216602084015216604082015260600190565b602060405180830381865afa158015611773573d6000803e3d6000fd5b505050506040513d601f19601f8201168201806040525081019061179791906157a8565b90506001600160c01b03811661183b5760405162461bcd60e51b815260206004820152605c60248201527f4f70657261746f7253746174655265747269657665722e676574436865636b5360448201527f69676e617475726573496e64696365733a206f70657261746f72206d7573742060648201527f6265207265676973746572656420617420626c6f636b6e756d62657200000000608482015260a4016108b7565b8a8a8560ff16818110611850576118506155bd565b6001600160c01b03841692013560f81c9190911c60019081161415905061197d57856001600160a01b031663dd9846b98a8a85818110611892576118926155bd565b905060200201358d8d8860ff168181106118ae576118ae6155bd565b6040516001600160e01b031960e087901b1681526004810194909452919091013560f81c60248301525063ffffffff8f166044820152606401602060405180830381865afa158015611904573d6000803e3d6000fd5b505050506040513d601f19601f8201168201806040525081019061192891906157d1565b85606001518560ff1681518110611941576119416155bd565b6020026020010151848151811061195a5761195a6155bd565b63ffffffff909216602092830291909101909101528261197981615695565b9350505b508061198881615695565b9150506116d0565b506000816001600160401b038111156119ab576119ab6144b8565b6040519080825280602002602001820160405280156119d4578160200160208202803683370190505b50905060005b82811015611a555784606001518460ff16815181106119fb576119fb6155bd565b60200260200101518181518110611a1457611a146155bd565b6020026020010151828281518110611a2e57611a2e6155bd565b63ffffffff9092166020928302919091019091015280611a4d81615695565b9150506119da565b508084606001518460ff1681518110611a7057611a706155bd565b602002602001018190525050508080611a88906157ee565b91505061165a565b506000896001600160a01b0316635df459466040518163ffffffff1660e01b8152600401602060405180830381865afa158015611ad1573d6000803e3d6000fd5b505050506040513d601f19601f82011682018060405250810190611af591906154bc565b60405163354952a360e21b81529091506001600160a01b0382169063d5254a8c90611b28908b908b908e9060040161580e565b600060405180830381865afa158015611b45573d6000803e3d6000fd5b505050506040513d6000823e601f3d908101601f19168201604052611b6d91908101906156fa565b60208301525098975050505050505050565b609c54600160601b900463ffffffff16156000611ba26060860160408701615177565b9050811580611bb3575060a35460ff165b611bef5760405162461bcd60e51b815260206004820152600d60248201526c1d5cd9481c9bdbdd081a5b9a5d609a1b60448201526064016108b7565b6000611c016040870160208801615177565b9050366000611c1360a0890189615194565b90925090506000611c2a60e08a0160c08b01615177565b60a054909150600160a01b900460ff161515600114611c5b5760405162461bcd60e51b81526004016108b7906151da565b6000808052609960209081527f235d629dc802037ded8c61cb27fb29e40fa01b299719d8f991ffe20bdcc59f4f9190611c96908b018b615177565b63ffffffff1663ffffffff1681526020019081526020016000205489604051602001611cc29190615271565b6040516020818303038152906040528051906020012014611cf55760405162461bcd60e51b81526004016108b79061534b565b6000808052609b6020908152600191600080516020615e8283398151915291611d20908c018c615177565b63ffffffff16815260208101919091526040016000205460ff166004811115611d4b57611d4b614fb0565b14611d685760405162461bcd60e51b81526004016108b790615372565b6000808052609a60209081527fbe6620bd3346e5d7f8387fbec0981aa0d6289d22efa7c935f9ef6841bf2a98c7908290611da4908c018c615177565b63ffffffff1663ffffffff1681526020019081526020016000205414611ddc5760405162461bcd60e51b81526004016108b79061539a565b609854611df690600160a01b900463ffffffff16856153d4565b63ffffffff164363ffffffff161115611e215760405162461bcd60e51b81526004016108b7906153fc565b600088604051602001611e3491906154ae565b60408051601f19818403018152828252805160209182012083830190925260608084529083015291506000609760009054906101000a90046001600160a01b03166001600160a01b0316636efb46368488888c8f6040518663ffffffff1660e01b8152600401611ea89594939291906158c2565b600060405180830381865afa158015611ec5573d6000803e3d6000fd5b505050506040513d6000823e601f3d908101601f19168201604052611eed9190810190615a22565b6040805160808101825263ffffffff43168152602080820184905280850151828401528451606083015291519395509193509091611f2f918e9184910161548e565b60408051808303601f190181529190528051602090910120609a600080815260200190815260200160002060008e6000016020810190611f6f9190615177565b63ffffffff1681526020810191909152604001600090812091909155600390609b9080815260200190815260200160002060008e6000016020810190611fb59190615177565b63ffffffff1681526020810191909152604001600020805460ff19166001836004811115611fe557611fe5614fb0565b0217905550611ff760208e018e615177565b63ffffffff167f47adacb0b6bbd726ae39ac6c006cca1c2006c9aedaa882dcba7c4804db7c41ce8d8360405161202e92919061548e565b60405180910390a260a0805460ff60a01b1916905560005b868110156120de578560ff1684602001518281518110612068576120686155bd565b602002602001015161207a9190615abe565b6001600160601b031660648560000151838151811061209b5761209b6155bd565b60200260200101516001600160601b03166120b69190615aed565b10156120cc575050505050505050505050505050565b806120d681615695565b915050612046565b5060408c013560a2556004609b600080815260200190815260200160002060008e60000160208101906121119190615177565b63ffffffff1681526020810191909152604001600020805460ff1916600183600481111561214157612141614fb0565b021790555061215660408e0160208f01615177565b609c805463ffffffff92909216600160601b0263ffffffff60601b1990921691909117905561218860608e018e615194565b61219491609d91614269565b506121a560a08e0160808f01615177565b609e805463ffffffff191663ffffffff929092169190911790556121cc60208e018e615177565b609c805463ffffffff92909216600160401b0263ffffffff60401b199092169190911790556121fe60208d018d615177565b63ffffffff167fff2908483d74b6b70053dd473260acf1b09e0ba0781bf94100bb8277581749de8d60405161223391906154ae565b60405180910390a250505050505050505050505050565b60655460405163237dfb4760e11b81523360048201526001600160a01b03909116906346fbf68e90602401602060405180830381865afa158015612292573d6000803e3d6000fd5b505050506040513d601f19601f820116820180604052508101906122b69190615523565b6122d25760405162461bcd60e51b81526004016108b790615540565b600019606681905560405190815233907fab40a374bc51de372200a8bc981af8c9ecdc08dfdaef0bb6e09f88f3c616ef3d9060200160405180910390a2565b60606000846001600160a01b031663c391425e84866040518363ffffffff1660e01b8152600401612343929190615b0c565b600060405180830381865afa158015612360573d6000803e3d6000fd5b505050506040513d6000823e601f3d908101601f1916820160405261238891908101906156fa565b9050600084516001600160401b038111156123a5576123a56144b8565b6040519080825280602002602001820160405280156123ce578160200160208202803683370190505b50905060005b85518110156124cf57866001600160a01b03166304ec63518783815181106123fe576123fe6155bd565b602002602001015187868581518110612419576124196155bd565b60200260200101516040518463ffffffff1660e01b81526004016124569392919092835263ffffffff918216602084015216604082015260600190565b602060405180830381865afa158015612473573d6000803e3d6000fd5b505050506040513d601f19601f8201168201806040525081019061249791906157a8565b6001600160c01b03168282815181106124b2576124b26155bd565b6020908102919091010152806124c781615695565b9150506123d4565b5095945050505050565b60975460408051632efa2ca360e11b815290516000926001600160a01b031691635df459469160048083019260209291908290030181865afa158015612523573d6000803e3d6000fd5b505050506040513d601f19601f8201168201806040525081019061254791906154bc565b905090565b6125546139dd565b60a054600160a01b900460ff1615156001146125825760405162461bcd60e51b81526004016108b7906151da565b61258a613b2e565b565b60975460408051636830483560e01b815290516000926001600160a01b03169163683048359160048083019260209291908290030181865afa158015612523573d6000803e3d6000fd5b60975460408051636d14a98760e01b815290516000926001600160a01b031691636d14a9879160048083019260209291908290030181865afa158015612523573d6000803e3d6000fd5b609f546001600160a01b031633146126625760405162461bcd60e51b8152602060048201526005602482015264417574683160d81b60448201526064016108b7565b60a054600160a01b900460ff16156126b35760405162461bcd60e51b81526020600482015260146024820152735461736b20616c72656164792070656e64696e6760601b60448201526064016108b7565b6126be838383613cd7565b505050565b604080518082019091526060808252602082015260975460405163377da31b60e11b81526000916001600160a01b031690636efb463690612710908a908a908a908a908a906004016158c2565b600060405180830381865afa15801561272d573d6000803e3d6000fd5b505050506040513d6000823e601f3d908101601f191682016040526127559190810190615a22565b915091509550959350505050565b609f546001600160a01b031633146127a55760405162461bcd60e51b8152602060048201526005602482015264417574683160d81b60448201526064016108b7565b60a054600160a01b900460ff16156127f65760405162461bcd60e51b81526020600482015260146024820152735461736b20616c72656164792070656e64696e6760601b60448201526064016108b7565b609c54600160601b900463ffffffff161580159061281357504315155b6128515760405162461bcd60e51b815260206004820152600f60248201526e13dc0814dd185d19481d5b9a5b9a5d608a1b60448201526064016108b7565b609854600160e01b900463ffffffff166128a16040805160e08101909152600080825260208201908152600060208201819052604082018190526060808301829052608083015260a09091015290565b63ffffffff82168152602081018460018111156128c0576128c0614fb0565b908160018111156128d3576128d3614fb0565b90525063ffffffff80841660408301524381166060830152609e541660c0820152609d805461290190615588565b80601f016020809104026020016040519081016040528092919081815260200182805461292d90615588565b801561297a5780601f1061294f5761010080835404028352916020019161297a565b820191906000526020600020905b81548152906001019060200180831161295d57829003601f168201915b505050505060a0820152609c54600160601b900463ffffffff1660808201526040516129aa908290602001615b74565b60408051808303601f19018152828252805160209182012063ffffffff86811660008181527fbb86fbc034f4e382929974bcd8419ed626b0ea647f962d89ba2fb6bd28785ab9855285812093909355600080516020615ea28339815191529093529290208054600160ff19909116179055609c8054439093166401000000000267ffffffff00000000199093169290921790915560a0805460ff60a01b1916600160a01b179055907f584637a8f9d0f91a80c9f709b2b09d7db1d770fc7294e20d9d2495c378586cd290612a7f908490615b74565b60405180910390a2612a928260016153d4565b6098601c6101000a81548163ffffffff021916908363ffffffff16021790555050505050565b612ac06139dd565b61258a6000614030565b612ad26139dd565b609780546001600160a01b0319166001600160a01b0383169081179091556040519081527f901a654dc830c94e8a12c9a3bc0a92ac11b5cf28046ca8d190691cdaf520901690602001610f28565b612b286139dd565b6040517f4d60154266b2ea0c8f091d257eac5abc941c46cb54d0c3069a830f6339fe1da190600090a1565b6040805160018082528183019092526000916060918391602080830190803683370190505090508481600081518110612b8e57612b8e6155bd565b60209081029190910101526040516361c8a12f60e11b81526000906001600160a01b0388169063c391425e90612bca9088908690600401615b0c565b600060405180830381865afa158015612be7573d6000803e3d6000fd5b505050506040513d6000823e601f3d908101601f19168201604052612c0f91908101906156fa565b600081518110612c2157612c216155bd565b60209081029190910101516040516304ec635160e01b81526004810188905263ffffffff87811660248301529091166044820181905291506000906001600160a01b038916906304ec635190606401602060405180830381865afa158015612c8d573d6000803e3d6000fd5b505050506040513d601f19601f82011682018060405250810190612cb191906157a8565b6001600160c01b031690506000612cc782614082565b905081612cd58a838a610fc1565b9550955050505050935093915050565b600054610100900460ff1615808015612d055750600054600160ff909116105b80612d1f5750303b158015612d1f575060005460ff166001145b612d825760405162461bcd60e51b815260206004820152602e60248201527f496e697469616c697a61626c653a20636f6e747261637420697320616c72656160448201526d191e481a5b9a5d1a585b1a5e995960921b60648201526084016108b7565b6000805460ff191660011790558015612da5576000805461ff0019166101001790555b612db08a600061414e565b612db989614030565b609e8054640100000000600160c01b0319166401000000006001600160a01b038b81169190910291909117909155609f80546001600160a01b03199081168a84161790915560a3805460ff1916891515179055609780548216888416179055609880548684166001600160c01b031990911617600160a01b63ffffffff89160217905560a080549091169184169190911790558015612e92576000805461ff0019169055604051600181527f7f26b83ff96e1f2b6a682f133852f6798a09c465da95921460cefb38474024989060200160405180910390a15b50505050505050505050565b6097546040805163df5cf72360e01b815290516000926001600160a01b03169163df5cf7239160048083019260209291908290030181865afa158015612523573d6000803e3d6000fd5b609e5464010000000090046001600160a01b03163314612f325760405162461bcd60e51b8152602060048201526005602482015264041757468360dc1b60448201526064016108b7565b6000612f4460a0850160808601615177565b90506000612f586080860160608701615177565b9050366000612f6a60a0880188615194565b90925090506000612f8160e0890160c08a01615177565b905060a16000612f9760608a0160408b01614f93565b6001811115612fa857612fa8614fb0565b6001811115612fb957612fb9614fb0565b815260208101919091526040016000205463ffffffff16158061303c575060a16000612feb60608a0160408b01614f93565b6001811115612ffc57612ffc614fb0565b600181111561300d5761300d614fb0565b815260208101919091526040016000205463ffffffff166130346080890160608a01615177565b63ffffffff16145b6130885760405162461bcd60e51b815260206004820152601a60248201527f636861696e526442617463684e6f6e6365206d69736d6174636800000000000060448201526064016108b7565b60a054600160a01b900460ff1615156001146130b65760405162461bcd60e51b81526004016108b7906151da565b60016000908152609960209081527fbb86fbc034f4e382929974bcd8419ed626b0ea647f962d89ba2fb6bd28785ab991906130f3908a018a615177565b63ffffffff1663ffffffff168152602001908152602001600020548860405160200161311f9190615bf2565b60405160208183030381529060405280519060200120146131525760405162461bcd60e51b81526004016108b79061534b565b60016000818152609b6020908152600080516020615ea2833981519152919061317d908b018b615177565b63ffffffff16815260208101919091526040016000205460ff1660048111156131a8576131a8614fb0565b146131c55760405162461bcd60e51b81526004016108b790615372565b60016000908152609a60209081527f5b542b52981c4f2fa9965514d5bb7f37f1b7bc0902a6a4dc6b04dc05be85586b908290613203908b018b615177565b63ffffffff1663ffffffff168152602001908152602001600020541461323b5760405162461bcd60e51b81526004016108b79061539a565b60985461325590600160a01b900463ffffffff16856153d4565b63ffffffff164363ffffffff1611156132805760405162461bcd60e51b81526004016108b7906153fc565b6000876040516020016132939190615d3e565b604051602081830303815290604052805190602001209050600080609760009054906101000a90046001600160a01b03166001600160a01b0316636efb46368488888c8e6040518663ffffffff1660e01b81526004016132f79594939291906158c2565b600060405180830381865afa158015613314573d6000803e3d6000fd5b505050506040513d6000823e601f3d908101601f1916820160405261333c9190810190615a22565b6040805160808101825263ffffffff4316815260208082018490528085015182840152845160608301529151939550919350909161337e918d91849101615d4d565b60408051601f19818403018152919052805160209182012060016000908152609a835290917f5b542b52981c4f2fa9965514d5bb7f37f1b7bc0902a6a4dc6b04dc05be85586b91906133d2908f018f615177565b63ffffffff16815260208082019290925260400160009081209290925560018252609b8152600391600080516020615ea283398151915291613416908f018f615177565b63ffffffff1681526020810191909152604001600020805460ff1916600183600481111561344657613446614fb0565b021790555061345860208d018d615177565b63ffffffff167f82e5c8e9447510b867d248c892385ba34fa6c2d4c4c26ff6868499ae4027f2c68c8360405161348f929190615d4d565b60405180910390a260a0805460ff60a01b1916905560005b8681101561353e578560ff16846020015182815181106134c9576134c96155bd565b60200260200101516134db9190615abe565b6001600160601b03166064856000015183815181106134fc576134fc6155bd565b60200260200101516001600160601b03166135179190615aed565b101561352c5750505050505050505050505050565b8061353681615695565b9150506134a7565b5060016000908152609b6020908152600491600080516020615ea28339815191529161356c908f018f615177565b63ffffffff1681526020810191909152604001600020805460ff1916600183600481111561359c5761359c614fb0565b021790555060408051808201909152600080825260208201528b60a001358160000181815250508b60c0013581602001818152505060a060009054906101000a90046001600160a01b03166001600160a01b03166308f42d408d60800135836040518363ffffffff1660e01b8152600401613618929190615d6f565b600060405180830381600087803b15801561363257600080fd5b505af1158015613646573d6000803e3d6000fd5b5061365b9250505060808d0160608e01615177565b6136669060016153d4565b60a160008e604001602081019061367d9190614f93565b600181111561368e5761368e614fb0565b600181111561369f5761369f614fb0565b8152602080820192909252604001600020805463ffffffff191663ffffffff93909316929092179091556136d5908d018d615177565b63ffffffff167f1797ca59e06ea4a0efe10ac0fb51b58c8acf5cfedbc15fae51c10021dcb906e68d6040516122339190615d3e565b6137126139dd565b6001600160a01b0381166137775760405162461bcd60e51b815260206004820152602660248201527f4f776e61626c653a206e6577206f776e657220697320746865207a65726f206160448201526564647265737360d01b60648201526084016108b7565b61051281614030565b6137886139dd565b60a054600160a01b900460ff16156137a2576137a2613b2e565b6137ad838383613cd7565b6040517f4ee987e5f1be19cabfb1a243e5c423889f060f33266753953ff0cf9db89966ab90600090a1505050565b606560009054906101000a90046001600160a01b03166001600160a01b031663eab66d7a6040518163ffffffff1660e01b8152600401602060405180830381865afa15801561382e573d6000803e3d6000fd5b505050506040513d601f19601f8201168201806040525081019061385291906154bc565b6001600160a01b0316336001600160a01b0316146138825760405162461bcd60e51b81526004016108b7906154d9565b6066541981196066541916146139005760405162461bcd60e51b815260206004820152603860248201527f5061757361626c652e756e70617573653a20696e76616c696420617474656d7060448201527f7420746f2070617573652066756e6374696f6e616c697479000000000000000060648201526084016108b7565b606681905560405181815233907f3582d1828e26bf56bd801502bc021ac0bc8afb57c826e4986b45593c8fad389c90602001610ee7565b606654156139875760405162461bcd60e51b815260206004820152601c60248201527f5061757361626c653a20636f6e7472616374206973207061757365640000000060448201526064016108b7565b61398f6139dd565b60a080546001600160a01b0319166001600160a01b0383169081179091556040519081527f2f20cf1bda67739044c5bf577353970c3dbc183b2c7274d1e8584a102692326790602001610f28565b6033546001600160a01b0316331461258a5760405162461bcd60e51b815260206004820181905260248201527f4f776e61626c653a2063616c6c6572206973206e6f7420746865206f776e657260448201526064016108b7565b6001600160a01b038116613ac55760405162461bcd60e51b815260206004820152604960248201527f5061757361626c652e5f73657450617573657252656769737472793a206e657760448201527f50617573657252656769737472792063616e6e6f7420626520746865207a65726064820152686f206164647265737360b81b608482015260a4016108b7565b606554604080516001600160a01b03928316815291831660208301527f6e9fcd539896fca60e8b0f01dd580233e48a6b0f7df013b89ba7f565869acdb6910160405180910390a1606580546001600160a01b0319166001600160a01b0392909216919091179055565b609854600160c01b900463ffffffff1615613bfb57609854600090613b6290600190600160c01b900463ffffffff16615d8d565b63ffffffff81166000908152600080516020615e82833981519152602052604090205490915060019060ff166004811115613b9f57613b9f614fb0565b1415613bf95763ffffffff81166000818152600080516020615e828339815191526020526040808220805460ff19166002179055517fd6a4e0ff9f3a053708757c7a124abee31ced61f43f17e6e1cf11943ec59e60719190a25b505b609854600160e01b900463ffffffff1615613cc857609854600090613c2f90600190600160e01b900463ffffffff16615d8d565b63ffffffff81166000908152600080516020615ea2833981519152602052604090205490915060019060ff166004811115613c6c57613c6c614fb0565b1415613cc65763ffffffff81166000818152600080516020615ea28339815191526020526040808220805460ff19166002179055517f0bf46bfca6e2137d35b893c295add8c33bcfbffafdef93252cb51aed7538ba0c9190a25b505b60a0805460ff60a01b19169055565b609c5463ffffffff600160601b909104164314801590613cf657504315155b613d535760405162461bcd60e51b815260206004820152602860248201527f43616e277420696e206c617374436f6d706c657465644f705461736b43726561604482015267746564426c6f636b60c01b60648201526084016108b7565b6040805160e0810182526000818301819052606080830181905260a083015260c0820152609854600160c01b900463ffffffff908116825243811660208084019190915290861660808301528251601f850182900482028101820190935283835290919084908490819084018382808284376000920191909152505050506060820152609c54600160601b900463ffffffff16613e425763ffffffff431660408083019190915280516020601f850181900481028201810190925283815290849084908190840183828082843760009201919091525050505060a082015263ffffffff841660c0820152613ef6565b609c54600160601b900463ffffffff166040820152609d8054613e6490615588565b80601f0160208091040260200160405190810160405280929190818152602001828054613e9090615588565b8015613edd5780601f10613eb257610100808354040283529160200191613edd565b820191906000526020600020905b815481529060010190602001808311613ec057829003601f168201915b505050505060a0820152609e5463ffffffff1660c08201525b80604051602001613f079190615db2565b60408051808303601f19018152828252805160209182012060988054600160c01b9081900463ffffffff90811660009081527f235d629dc802037ded8c61cb27fb29e40fa01b299719d8f991ffe20bdcc59f4f865286812094909455825482900481168452600080516020615e8283398151915290945293909120805460ff19166001179055609c805463ffffffff191643841617905560a08054600160a01b60ff60a01b19909116179055549190910416907ffaf4b2054479d0f83e909b73cde2a6cb18ec2a93ba8ad5a62329001c86b1f3ea90613fe7908490615db2565b60405180910390a260985461400a90600160c01b900463ffffffff1660016153d4565b609860186101000a81548163ffffffff021916908363ffffffff16021790555050505050565b603380546001600160a01b038381166001600160a01b0319831681179093556040519116919082907f8be0079c531659141344cd1fd0a4f28419497f9722a3daafe3b4186f6b6457e090600090a35050565b606060008061409084614238565b61ffff166001600160401b038111156140ab576140ab6144b8565b6040519080825280601f01601f1916602001820160405280156140d5576020820181803683370190505b5090506000805b8251821080156140ed575061010081105b15614144576001811b935085841615614134578060f81b838381518110614116576141166155bd565b60200101906001600160f81b031916908160001a9053508160010191505b61413d81615695565b90506140dc565b5090949350505050565b6065546001600160a01b031615801561416f57506001600160a01b03821615155b6141f15760405162461bcd60e51b815260206004820152604760248201527f5061757361626c652e5f696e697469616c697a655061757365723a205f696e6960448201527f7469616c697a6550617573657228292063616e206f6e6c792062652063616c6c6064820152666564206f6e636560c81b608482015260a4016108b7565b606681905560405181815233907fab40a374bc51de372200a8bc981af8c9ecdc08dfdaef0bb6e09f88f3c616ef3d9060200160405180910390a261423482613a37565b5050565b6000805b82156142635761424d600184615e48565b909216918061425b81615e5f565b91505061423c565b92915050565b82805461427590615588565b90600052602060002090601f01602090048101928261429757600085556142dd565b82601f106142b05782800160ff198235161785556142dd565b828001600101855582156142dd579182015b828111156142dd5782358255916020019190600101906142c2565b506142e99291506142ed565b5090565b5b808211156142e957600081556001016142ee565b600060e0828403121561431457600080fd5b50919050565b60006060828403121561431457600080fd5b6000806080838503121561433f57600080fd5b82356001600160401b0381111561435557600080fd5b61436185828601614302565b925050614371846020850161431a565b90509250929050565b6001600160a01b038116811461051257600080fd5b6000602082840312156143a157600080fd5b81356114528161437a565b6000602082840312156143be57600080fd5b5035919050565b6002811061051257600080fd5b63ffffffff8116811461051257600080fd5b80356143ef816143d2565b919050565b6000806040838503121561440757600080fd5b8235614412816143c5565b91506020830135614422816143d2565b809150509250929050565b801515811461051257600080fd5b60006020828403121561444d57600080fd5b81356114528161442d565b6000815180845260005b8181101561447e57602081850181015186830182015201614462565b81811115614490576000602083870101525b50601f01601f19169290920160200192915050565b6020815260006114526020830184614458565b634e487b7160e01b600052604160045260246000fd5b604080519081016001600160401b03811182821017156144f0576144f06144b8565b60405290565b60405161010081016001600160401b03811182821017156144f0576144f06144b8565b604051601f8201601f191681016001600160401b0381118282101715614541576145416144b8565b604052919050565b60008060006060848603121561455e57600080fd5b83356145698161437a565b92506020848101356001600160401b038082111561458657600080fd5b818701915087601f83011261459a57600080fd5b8135818111156145ac576145ac6144b8565b6145be601f8201601f19168501614519565b915080825288848285010111156145d457600080fd5b80848401858401376000848284010152508094505050506145f7604085016143e4565b90509250925092565b600081518084526020808501808196508360051b810191508286016000805b86811015614696578385038a52825180518087529087019087870190845b8181101561468157835180516001600160a01b031684528a8101518b8501526040908101516001600160601b0316908401529289019260609092019160010161463d565b50509a87019a9550509185019160010161461f565b509298975050505050505050565b6020815260006114526020830184614600565b6000602082840312156146c957600080fd5b81356001600160401b038111156146df57600080fd5b82016040818503121561145257600080fd5b60008083601f84011261470357600080fd5b5081356001600160401b0381111561471a57600080fd5b60208301915083602082850101111561473257600080fd5b9250929050565b6000806000806000806080878903121561475257600080fd5b863561475d8161437a565b9550602087013561476d816143d2565b945060408701356001600160401b038082111561478957600080fd5b6147958a838b016146f1565b909650945060608901359150808211156147ae57600080fd5b818901915089601f8301126147c257600080fd5b8135818111156147d157600080fd5b8a60208260051b85010111156147e657600080fd5b6020830194508093505050509295509295509295565b600081518084526020808501945080840160005b8381101561483257815163ffffffff1687529582019590820190600101614810565b509495945050505050565b600081518084526020808501808196508360051b8101915082860160005b858110156148855782840389526148738483516147fc565b9885019893509084019060010161485b565b5091979650505050505050565b6020815260008251608060208401526148ae60a08401826147fc565b90506020840151601f19808584030160408601526148cc83836147fc565b925060408601519150808584030160608601526148e983836147fc565b9250606086015191508085840301608086015250614907828261483d565b95945050505050565b60006001600160401b03821115614929576149296144b8565b5060051b60200190565b600082601f83011261494457600080fd5b8135602061495961495483614910565b614519565b82815260059290921b8401810191818101908684111561497857600080fd5b8286015b8481101561499c57803561498f816143d2565b835291830191830161497c565b509695505050505050565b6000604082840312156149b957600080fd5b6149c16144ce565b9050813581526020820135602082015292915050565b600082601f8301126149e857600080fd5b813560206149f861495483614910565b82815260069290921b84018101918181019086841115614a1757600080fd5b8286015b8481101561499c57614a2d88826149a7565b835291830191604001614a1b565b600082601f830112614a4c57600080fd5b614a546144ce565b806040840185811115614a6657600080fd5b845b81811015614a80578035845260209384019301614a68565b509095945050505050565b600060808284031215614a9d57600080fd5b614aa56144ce565b9050614ab18383614a3b565b8152614ac08360408401614a3b565b602082015292915050565b600082601f830112614adc57600080fd5b81356020614aec61495483614910565b82815260059290921b84018101918181019086841115614b0b57600080fd5b8286015b8481101561499c5780356001600160401b03811115614b2e5760008081fd5b614b3c8986838b0101614933565b845250918301918301614b0f565b60006101808284031215614b5d57600080fd5b614b656144f6565b905081356001600160401b0380821115614b7e57600080fd5b614b8a85838601614933565b83526020840135915080821115614ba057600080fd5b614bac858386016149d7565b60208401526040840135915080821115614bc557600080fd5b614bd1858386016149d7565b6040840152614be38560608601614a8b565b6060840152614bf58560e086016149a7565b6080840152610120840135915080821115614c0f57600080fd5b614c1b85838601614933565b60a0840152610140840135915080821115614c3557600080fd5b614c4185838601614933565b60c0840152610160840135915080821115614c5b57600080fd5b50614c6884828501614acb565b60e08301525092915050565b600080600060a08486031215614c8957600080fd5b83356001600160401b0380821115614ca057600080fd5b614cac87838801614302565b9450614cbb876020880161431a565b93506080860135915080821115614cd157600080fd5b50614cde86828701614b4a565b9150509250925092565b600060208284031215614cfa57600080fd5b81356001600160401b03811115614d1057600080fd5b8201610120818503121561145257600080fd5b600060208284031215614d3557600080fd5b813560ff8116811461145257600080fd5b600080600060608486031215614d5b57600080fd5b8335614d668161437a565b92506020848101356001600160401b03811115614d8257600080fd5b8501601f81018713614d9357600080fd5b8035614da161495482614910565b81815260059190911b82018301908381019089831115614dc057600080fd5b928401925b82841015614dde57833582529284019290840190614dc5565b80965050505050506145f7604085016143e4565b6020808252825182820181905260009190848201906040850190845b81811015614e2a57835183529284019291840191600101614e0e565b50909695505050505050565b600080600060408486031215614e4b57600080fd5b8335614e56816143d2565b925060208401356001600160401b03811115614e7157600080fd5b614e7d868287016146f1565b9497909650939450505050565b600080600080600060808688031215614ea257600080fd5b8535945060208601356001600160401b0380821115614ec057600080fd5b614ecc89838a016146f1565b909650945060408801359150614ee1826143d2565b90925060608701359080821115614ef757600080fd5b50614f0488828901614b4a565b9150509295509295909350565b600081518084526020808501945080840160005b838110156148325781516001600160601b031687529582019590820190600101614f25565b6040815260008351604080840152614f656080840182614f11565b90506020850151603f19848303016060850152614f828282614f11565b925050508260208301529392505050565b600060208284031215614fa557600080fd5b8135611452816143c5565b634e487b7160e01b600052602160045260246000fd5b6020810160058310614fda57614fda614fb0565b91905290565b600080600060608486031215614ff557600080fd5b83356150008161437a565b9250602084013591506040840135615017816143d2565b809150509250925092565b82815260406020820152600061503b6040830184614600565b949350505050565b60008060008060008060008060006101208a8c03121561506257600080fd5b893561506d8161437a565b985060208a013561507d8161437a565b975060408a013561508d8161437a565b965060608a013561509d8161437a565b955060808a01356150ad8161442d565b945060a08a01356150bd8161437a565b935060c08a01356150cd816143d2565b925060e08a01356150dd8161437a565b91506101008a01356150ee8161437a565b809150509295985092959850929598565b600080600083850361014081121561511657600080fd5b84356001600160401b038082111561512d57600080fd5b61513988838901614302565b9550610100601f198401121561514e57600080fd5b60208701945061012087013592508083111561516957600080fd5b5050614cde86828701614b4a565b60006020828403121561518957600080fd5b8135611452816143d2565b6000808335601e198436030181126151ab57600080fd5b8301803591506001600160401b038211156151c557600080fd5b60200191503681900382131561473257600080fd5b6020808252600f908201526e4e6f207461736b2070656e64696e6760881b604082015260600190565b6000808335601e1984360301811261521a57600080fd5b83016020810192503590506001600160401b0381111561523957600080fd5b80360383131561473257600080fd5b81835281816020850137506000828201602090810191909152601f909101601f19169091010190565b6020815260008235615282816143d2565b63ffffffff8116602084015250602083013561529d816143d2565b63ffffffff81166040840152506152b6604084016143e4565b63ffffffff81166060840152506152d06060840184615203565b60e060808501526152e661010085018284615248565b9150506152f5608085016143e4565b63ffffffff811660a08501525061530f60a0850185615203565b848303601f190160c0860152615326838284615248565b9250505061533660c085016143e4565b63ffffffff811660e08501525b509392505050565b6020808252600d908201526c0a8c2e6d640dad2e6dac2e8c6d609b1b604082015260600190565b6020808252600e908201526d4e6f7420496e697420737461746560901b604082015260600190565b6020808252600a90820152690416c72647920526573760b41b604082015260600190565b634e487b7160e01b600052601160045260246000fd5b600063ffffffff8083168185168083038211156153f3576153f36153be565b01949350505050565b602080825260089082015267546f6f206c61746560c01b604082015260600190565b8035615429816143d2565b63ffffffff16825260208181013590830152604090810135910152565b63ffffffff81511682526020810151602083015260006040820151608060408501526154756080850182614f11565b9050606083015184820360608601526149078282614f11565b615498818461541e565b60806060820152600061503b6080830184615446565b60608101614263828461541e565b6000602082840312156154ce57600080fd5b81516114528161437a565b6020808252602a908201527f6d73672e73656e646572206973206e6f74207065726d697373696f6e6564206160408201526939903ab73830bab9b2b960b11b606082015260800190565b60006020828403121561553557600080fd5b81516114528161442d565b60208082526028908201527f6d73672e73656e646572206973206e6f74207065726d697373696f6e6564206160408201526739903830bab9b2b960c11b606082015260800190565b600181811c9082168061559c57607f821691505b6020821081141561431457634e487b7160e01b600052602260045260246000fd5b634e487b7160e01b600052603260045260246000fd5b600060208083850312156155e657600080fd5b82516001600160401b038111156155fc57600080fd5b8301601f8101851361560d57600080fd5b805161561b61495482614910565b81815260059190911b8201830190838101908783111561563a57600080fd5b928401925b828410156156585783518252928401929084019061563f565b979650505050505050565b80516001600160601b03811681146143ef57600080fd5b60006020828403121561568c57600080fd5b61145282615663565b60006000198214156156a9576156a96153be565b5060010190565b63ffffffff84168152604060208201819052810182905260006001600160fb1b038311156156dd57600080fd5b8260051b8085606085013760009201606001918252509392505050565b6000602080838503121561570d57600080fd5b82516001600160401b0381111561572357600080fd5b8301601f8101851361573457600080fd5b805161574261495482614910565b81815260059190911b8201830190838101908783111561576157600080fd5b928401925b82841015615658578351615779816143d2565b82529284019290840190615766565b63ffffffff84168152604060208201526000614907604083018486615248565b6000602082840312156157ba57600080fd5b81516001600160c01b038116811461145257600080fd5b6000602082840312156157e357600080fd5b8151611452816143d2565b600060ff821660ff811415615805576158056153be565b60010192915050565b604081526000615822604083018587615248565b905063ffffffff83166020830152949350505050565b600081518084526020808501945080840160005b838110156148325761586987835180518252602090810151910152565b604096909601959082019060010161584c565b8060005b600281101561589f578151845260209384019390910190600101615880565b50505050565b6158b082825161587c565b60208101516126be604084018261587c565b8581526080602082015260006158dc608083018688615248565b63ffffffff8516604084015282810360608401526101808451818352615904828401826147fc565b9150506020850151828203602084015261591e8282615838565b915050604085015182820360408401526159388282615838565b915050606085015161594d60608401826158a5565b506080850151805160e08401526020015161010083015260a085015182820361012084015261597c82826147fc565b91505060c085015182820361014084015261599782826147fc565b91505060e08501518282036101608401526159b2828261483d565b9a9950505050505050505050565b600082601f8301126159d157600080fd5b815160206159e161495483614910565b82815260059290921b84018101918181019086841115615a0057600080fd5b8286015b8481101561499c57615a1581615663565b8352918301918301615a04565b60008060408385031215615a3557600080fd5b82516001600160401b0380821115615a4c57600080fd5b9084019060408287031215615a6057600080fd5b615a686144ce565b825182811115615a7757600080fd5b615a83888286016159c0565b825250602083015182811115615a9857600080fd5b615aa4888286016159c0565b602083015250809450505050602083015190509250929050565b60006001600160601b0380831681851681830481118215151615615ae457615ae46153be565b02949350505050565b6000816000190483118215151615615b0757615b076153be565b500290565b60006040820163ffffffff851683526020604081850152818551808452606086019150828701935060005b81811015615b5357845183529383019391830191600101615b37565b5090979650505050505050565b60028110615b7057615b70614fb0565b9052565b60208152600063ffffffff8084511660208401526020840151615b9a6040850182615b60565b508060408501511660608401528060608501511660808401528060808501511660a084015260a084015160e060c0850152615bd9610100850182614458565b90508160c08601511660e0850152809250505092915050565b6020815260008235615c03816143d2565b63ffffffff808216602085015260208501359150615c20826143c5565b615c2d6040850183615b60565b60408501359150615c3d826143d2565b808216606085015260608501359150615c55826143d2565b80821660808501525050615c6b608084016143e4565b63ffffffff811660a084015250615c8560a0840184615203565b60e060c0850152615c9b61010085018284615248565b91505061533660c085016143e4565b8035615cb5816143d2565b63ffffffff80821684526020830135602085015260408301359150615cd9826143c5565b615ce66040850183615b60565b60608301359150615cf6826143d2565b1660608301526080818101359083015260a0808201359083015260c0808201359083015260e0810135615d288161437a565b6001600160a01b031660e0929092019190915250565b61010081016142638284615caa565b6000610120615d5c8386615caa565b8061010084015261490781840185615446565b82815260608101611452602083018480518252602090810151910152565b600063ffffffff83811690831681811015615daa57615daa6153be565b039392505050565b60208152600063ffffffff80845116602084015280602085015116604084015280604085015116606084015250606083015160e06080840152615df9610100840182614458565b90506080840151615e1260a085018263ffffffff169052565b5060a0840151838203601f190160c0850152615e2e8282614458565b91505060c084015161534360e085018263ffffffff169052565b600082821015615e5a57615e5a6153be565b500390565b600061ffff80831681811415615e7757615e776153be565b600101939250505056fe10afac9233b4ccc54d6404ffc1cf3b47515a2b8edbf675d15eddce05a027dcbd298c800d0881dd208d705ebc03eb18189f38118259f27dd43b4c60d61c607e87a264697066735822122069bd9b1334bb6bc815983181a204d26dcbfe87746972b53e59f529d6c438f2d064736f6c634300080c0033","linkReferences":{}},"methodIdentifiers":{"THRESHOLD_DENOMINATOR()":"ef024458","aggregator()":"245a7bfc","allTaskHashes(uint8,uint32)":"13f815ed","allTaskResponses(uint8,uint32)":"1ac27297","allowNonRootInit()":"0ee0fdbd","blsApkRegistry()":"5df45946","blsSignatureChecker()":"1c178e9c","chainRdBatchNonce(uint8)":"930390d9","checkSignatures(bytes32,bytes,uint32,(uint32[],(uint256,uint256)[],(uint256,uint256)[],(uint256[2],uint256[2]),(uint256,uint256),uint32[],uint32[],uint32[][]))":"6efb4636","createNewOpTask(uint32,bytes)":"6e125ff4","createNewRdTask(uint8,uint32)":"6f254819","delegation()":"df5cf723","dummyForOperatorStateInfoType((bool,uint8[],(uint8,uint96,(uint256,uint256))[],(uint8,uint96)[],(uint8,(uint256,uint256))[],bytes32[],(bytes32,uint8[],uint96[],uint8)[],(bytes32,uint8[],uint96[])[],(bytes32,uint8)[]))":"54d127de","dummyForQuorumStakeTotalsType((uint96[],uint96[]))":"45265b7a","forceCancelPendingTasks()":"60202fc0","forceCreateNewOpTask(uint32,bytes)":"f5640cf8","forceRespondToOpTask((uint32,uint32,uint32,bytes,uint32,bytes,uint32),(uint32,bytes32,bytes32))":"01a3f013","generator()":"7afa1eed","getCheckSignaturesIndices(address,uint32,bytes,bytes32[])":"4f739f74","getOperatorState(address,bytes,uint32)":"3563b0d1","getOperatorState(address,bytes32,uint32)":"cefdc1d4","getQuorumBitmapsAtBlockNumber(address,bytes32[],uint32)":"5c155662","idToTaskStatus(uint8,uint32)":"bf2315ed","initialize(address,address,address,address,bool,address,uint32,address,address)":"de434838","isTaskPending()":"36f78ed8","lastCompletedOpTaskCreatedBlock()":"537a2929","lastCompletedOpTaskNum()":"8fc8729a","lastCompletedOpTaskQuorumNumbers()":"2830e8f9","lastCompletedOpTaskQuorumThresholdPercentage()":"e70c2623","lastOpTaskCreatedBlock()":"4d7a7116","lastRdTaskCreatedBlock()":"8c82af5e","latestOpTaskNum()":"41789d57","latestRdTaskNum()":"7afdd54b","operatorStateRetrieverExtended()":"8380acbd","operatorsStateInfoHash()":"adfcb048","owner()":"8da5cb5b","pause(uint256)":"136439dd","pauseAll()":"595c6a67","pauseTrackingOpState()":"79badf73","paused()":"5c975abb","paused(uint8)":"5ac86ab7","pauserRegistry()":"886f1195","registryCoordinator()":"6d14a987","renounceOwnership()":"715018a6","respondToOpTask((uint32,uint32,uint32,bytes,uint32,bytes,uint32),(uint32,bytes32,bytes32),(uint32[],(uint256,uint256)[],(uint256,uint256)[],(uint256[2],uint256[2]),(uint256,uint256),uint32[],uint32[],uint32[][]))":"516a7227","respondToRdTask((uint32,uint8,uint32,uint32,uint32,bytes,uint32),(uint32,bytes32,uint8,uint32,bytes32,uint256,uint256,address),(uint32[],(uint256,uint256)[],(uint256,uint256)[],(uint256[2],uint256[2]),(uint256,uint256),uint32[],uint32[],uint32[][]))":"e72ddf10","resumeTrackingQuorums(bool)":"191aac7a","rolldown()":"3d9fb00c","setPauserRegistry(address)":"10d67a2f","setRolldown(address)":"fdc15de8","stakeRegistry()":"68304835","taskResponseWindowBlock()":"a69563a9","transferOwnership(address)":"f2fde38b","unpause(uint256)":"fabc1cbc","updateBlsSignatureCheckerAddress(address)":"723114ab"},"id":118}