{"abi":[{"type":"constructor","inputs":[{"name":"_registryCoordinator","type":"address","internalType":"contract IRegistryCoordinator"},{"name":"_taskResponseWindowBlock","type":"uint32","internalType":"uint32"}],"stateMutability":"nonpayable"},{"type":"function","name":"aggregator","inputs":[],"outputs":[{"name":"","type":"address","internalType":"address"}],"stateMutability":"view"},{"type":"function","name":"allTaskHashes","inputs":[{"name":"","type":"uint32","internalType":"uint32"}],"outputs":[{"name":"","type":"bytes32","internalType":"bytes32"}],"stateMutability":"view"},{"type":"function","name":"allTaskResponses","inputs":[{"name":"","type":"uint32","internalType":"uint32"}],"outputs":[{"name":"","type":"bytes32","internalType":"bytes32"}],"stateMutability":"view"},{"type":"function","name":"blsApkRegistry","inputs":[],"outputs":[{"name":"","type":"address","internalType":"contract IBLSApkRegistry"}],"stateMutability":"view"},{"type":"function","name":"checkSignatures","inputs":[{"name":"msgHash","type":"bytes32","internalType":"bytes32"},{"name":"quorumNumbers","type":"bytes","internalType":"bytes"},{"name":"referenceBlockNumber","type":"uint32","internalType":"uint32"},{"name":"params","type":"tuple","internalType":"struct IBLSSignatureChecker.NonSignerStakesAndSignature","components":[{"name":"nonSignerQuorumBitmapIndices","type":"uint32[]","internalType":"uint32[]"},{"name":"nonSignerPubkeys","type":"tuple[]","internalType":"struct BN254.G1Point[]","components":[{"name":"X","type":"uint256","internalType":"uint256"},{"name":"Y","type":"uint256","internalType":"uint256"}]},{"name":"quorumApks","type":"tuple[]","internalType":"struct BN254.G1Point[]","components":[{"name":"X","type":"uint256","internalType":"uint256"},{"name":"Y","type":"uint256","internalType":"uint256"}]},{"name":"apkG2","type":"tuple","internalType":"struct BN254.G2Point","components":[{"name":"X","type":"uint256[2]","internalType":"uint256[2]"},{"name":"Y","type":"uint256[2]","internalType":"uint256[2]"}]},{"name":"sigma","type":"tuple","internalType":"struct BN254.G1Point","components":[{"name":"X","type":"uint256","internalType":"uint256"},{"name":"Y","type":"uint256","internalType":"uint256"}]},{"name":"quorumApkIndices","type":"uint32[]","internalType":"uint32[]"},{"name":"totalStakeIndices","type":"uint32[]","internalType":"uint32[]"},{"name":"nonSignerStakeIndices","type":"uint32[][]","internalType":"uint32[][]"}]}],"outputs":[{"name":"","type":"tuple","internalType":"struct IBLSSignatureChecker.QuorumStakeTotals","components":[{"name":"signedStakeForQuorum","type":"uint96[]","internalType":"uint96[]"},{"name":"totalStakeForQuorum","type":"uint96[]","internalType":"uint96[]"}]},{"name":"","type":"bytes32","internalType":"bytes32"}],"stateMutability":"view"},{"type":"function","name":"createNewTask","inputs":[{"name":"blockNumber","type":"uint256","internalType":"uint256"},{"name":"quorumThresholdPercentage","type":"uint32","internalType":"uint32"},{"name":"quorumNumbers","type":"bytes","internalType":"bytes"}],"outputs":[],"stateMutability":"nonpayable"},{"type":"function","name":"delegation","inputs":[],"outputs":[{"name":"","type":"address","internalType":"contract IDelegationManager"}],"stateMutability":"view"},{"type":"function","name":"generator","inputs":[],"outputs":[{"name":"","type":"address","internalType":"address"}],"stateMutability":"view"},{"type":"function","name":"getCheckSignaturesIndices","inputs":[{"name":"registryCoordinator","type":"address","internalType":"contract IRegistryCoordinator"},{"name":"referenceBlockNumber","type":"uint32","internalType":"uint32"},{"name":"quorumNumbers","type":"bytes","internalType":"bytes"},{"name":"nonSignerOperatorIds","type":"bytes32[]","internalType":"bytes32[]"}],"outputs":[{"name":"","type":"tuple","internalType":"struct OperatorStateRetriever.CheckSignaturesIndices","components":[{"name":"nonSignerQuorumBitmapIndices","type":"uint32[]","internalType":"uint32[]"},{"name":"quorumApkIndices","type":"uint32[]","internalType":"uint32[]"},{"name":"totalStakeIndices","type":"uint32[]","internalType":"uint32[]"},{"name":"nonSignerStakeIndices","type":"uint32[][]","internalType":"uint32[][]"}]}],"stateMutability":"view"},{"type":"function","name":"getLatestPendingStateHash","inputs":[],"outputs":[{"name":"","type":"bytes32","internalType":"bytes32"}],"stateMutability":"view"},{"type":"function","name":"getOperatorState","inputs":[{"name":"registryCoordinator","type":"address","internalType":"contract IRegistryCoordinator"},{"name":"quorumNumbers","type":"bytes","internalType":"bytes"},{"name":"blockNumber","type":"uint32","internalType":"uint32"}],"outputs":[{"name":"","type":"tuple[][]","internalType":"struct OperatorStateRetriever.Operator[][]","components":[{"name":"operator","type":"address","internalType":"address"},{"name":"operatorId","type":"bytes32","internalType":"bytes32"},{"name":"stake","type":"uint96","internalType":"uint96"}]}],"stateMutability":"view"},{"type":"function","name":"getOperatorState","inputs":[{"name":"registryCoordinator","type":"address","internalType":"contract IRegistryCoordinator"},{"name":"operatorId","type":"bytes32","internalType":"bytes32"},{"name":"blockNumber","type":"uint32","internalType":"uint32"}],"outputs":[{"name":"","type":"uint256","internalType":"uint256"},{"name":"","type":"tuple[][]","internalType":"struct OperatorStateRetriever.Operator[][]","components":[{"name":"operator","type":"address","internalType":"address"},{"name":"operatorId","type":"bytes32","internalType":"bytes32"},{"name":"stake","type":"uint96","internalType":"uint96"}]}],"stateMutability":"view"},{"type":"function","name":"getQuorumBitmapsAtBlockNumber","inputs":[{"name":"registryCoordinator","type":"address","internalType":"contract IRegistryCoordinator"},{"name":"operatorIds","type":"bytes32[]","internalType":"bytes32[]"},{"name":"blockNumber","type":"uint32","internalType":"uint32"}],"outputs":[{"name":"","type":"uint256[]","internalType":"uint256[]"}],"stateMutability":"view"},{"type":"function","name":"getTaskResponseWindowBlock","inputs":[],"outputs":[{"name":"","type":"uint32","internalType":"uint32"}],"stateMutability":"view"},{"type":"function","name":"indexToTaskStatus","inputs":[{"name":"","type":"uint32","internalType":"uint32"}],"outputs":[{"name":"","type":"uint8","internalType":"enum FinalizerTaskManager.TaskStatus"}],"stateMutability":"view"},{"type":"function","name":"initialize","inputs":[{"name":"_pauserRegistry","type":"address","internalType":"contract IPauserRegistry"},{"name":"initialOwner","type":"address","internalType":"address"},{"name":"_aggregator","type":"address","internalType":"address"},{"name":"_generator","type":"address","internalType":"address"}],"outputs":[],"stateMutability":"nonpayable"},{"type":"function","name":"latestTaskNum","inputs":[],"outputs":[{"name":"","type":"uint32","internalType":"uint32"}],"stateMutability":"view"},{"type":"function","name":"owner","inputs":[],"outputs":[{"name":"","type":"address","internalType":"address"}],"stateMutability":"view"},{"type":"function","name":"pause","inputs":[{"name":"newPausedStatus","type":"uint256","internalType":"uint256"}],"outputs":[],"stateMutability":"nonpayable"},{"type":"function","name":"pauseAll","inputs":[],"outputs":[],"stateMutability":"nonpayable"},{"type":"function","name":"paused","inputs":[{"name":"index","type":"uint8","internalType":"uint8"}],"outputs":[{"name":"","type":"bool","internalType":"bool"}],"stateMutability":"view"},{"type":"function","name":"paused","inputs":[],"outputs":[{"name":"","type":"uint256","internalType":"uint256"}],"stateMutability":"view"},{"type":"function","name":"pauserRegistry","inputs":[],"outputs":[{"name":"","type":"address","internalType":"contract IPauserRegistry"}],"stateMutability":"view"},{"type":"function","name":"registryCoordinator","inputs":[],"outputs":[{"name":"","type":"address","internalType":"contract IRegistryCoordinator"}],"stateMutability":"view"},{"type":"function","name":"renounceOwnership","inputs":[],"outputs":[],"stateMutability":"nonpayable"},{"type":"function","name":"respondToTask","inputs":[{"name":"task","type":"tuple","internalType":"struct IFinalizerTaskManager.Task","components":[{"name":"blockNumber","type":"uint256","internalType":"uint256"},{"name":"taskCreatedBlock","type":"uint32","internalType":"uint32"},{"name":"lastCompletedTaskCreatedBlock","type":"uint32","internalType":"uint32"},{"name":"quorumNumbers","type":"bytes","internalType":"bytes"},{"name":"quorumThresholdPercentage","type":"uint32","internalType":"uint32"}]},{"name":"taskResponse","type":"tuple","internalType":"struct IFinalizerTaskManager.TaskResponse","components":[{"name":"referenceTaskIndex","type":"uint32","internalType":"uint32"},{"name":"operatorsStateHash","type":"bytes32","internalType":"bytes32"},{"name":"blockHash","type":"bytes32","internalType":"bytes32"},{"name":"storageProofHash","type":"bytes32","internalType":"bytes32"},{"name":"pendingStateHash","type":"bytes32","internalType":"bytes32"}]},{"name":"nonSignerStakesAndSignature","type":"tuple","internalType":"struct IBLSSignatureChecker.NonSignerStakesAndSignature","components":[{"name":"nonSignerQuorumBitmapIndices","type":"uint32[]","internalType":"uint32[]"},{"name":"nonSignerPubkeys","type":"tuple[]","internalType":"struct BN254.G1Point[]","components":[{"name":"X","type":"uint256","internalType":"uint256"},{"name":"Y","type":"uint256","internalType":"uint256"}]},{"name":"quorumApks","type":"tuple[]","internalType":"struct BN254.G1Point[]","components":[{"name":"X","type":"uint256","internalType":"uint256"},{"name":"Y","type":"uint256","internalType":"uint256"}]},{"name":"apkG2","type":"tuple","internalType":"struct BN254.G2Point","components":[{"name":"X","type":"uint256[2]","internalType":"uint256[2]"},{"name":"Y","type":"uint256[2]","internalType":"uint256[2]"}]},{"name":"sigma","type":"tuple","internalType":"struct BN254.G1Point","components":[{"name":"X","type":"uint256","internalType":"uint256"},{"name":"Y","type":"uint256","internalType":"uint256"}]},{"name":"quorumApkIndices","type":"uint32[]","internalType":"uint32[]"},{"name":"totalStakeIndices","type":"uint32[]","internalType":"uint32[]"},{"name":"nonSignerStakeIndices","type":"uint32[][]","internalType":"uint32[][]"}]}],"outputs":[],"stateMutability":"nonpayable"},{"type":"function","name":"setPauserRegistry","inputs":[{"name":"newPauserRegistry","type":"address","internalType":"contract IPauserRegistry"}],"outputs":[],"stateMutability":"nonpayable"},{"type":"function","name":"setStaleStakesForbidden","inputs":[{"name":"value","type":"bool","internalType":"bool"}],"outputs":[],"stateMutability":"nonpayable"},{"type":"function","name":"stakeRegistry","inputs":[],"outputs":[{"name":"","type":"address","internalType":"contract IStakeRegistry"}],"stateMutability":"view"},{"type":"function","name":"staleStakesForbidden","inputs":[],"outputs":[{"name":"","type":"bool","internalType":"bool"}],"stateMutability":"view"},{"type":"function","name":"taskNumber","inputs":[],"outputs":[{"name":"","type":"uint32","internalType":"uint32"}],"stateMutability":"view"},{"type":"function","name":"transferOwnership","inputs":[{"name":"newOwner","type":"address","internalType":"address"}],"outputs":[],"stateMutability":"nonpayable"},{"type":"function","name":"trySignatureAndApkVerification","inputs":[{"name":"msgHash","type":"bytes32","internalType":"bytes32"},{"name":"apk","type":"tuple","internalType":"struct BN254.G1Point","components":[{"name":"X","type":"uint256","internalType":"uint256"},{"name":"Y","type":"uint256","internalType":"uint256"}]},{"name":"apkG2","type":"tuple","internalType":"struct BN254.G2Point","components":[{"name":"X","type":"uint256[2]","internalType":"uint256[2]"},{"name":"Y","type":"uint256[2]","internalType":"uint256[2]"}]},{"name":"sigma","type":"tuple","internalType":"struct BN254.G1Point","components":[{"name":"X","type":"uint256","internalType":"uint256"},{"name":"Y","type":"uint256","internalType":"uint256"}]}],"outputs":[{"name":"pairingSuccessful","type":"bool","internalType":"bool"},{"name":"siganatureIsValid","type":"bool","internalType":"bool"}],"stateMutability":"view"},{"type":"function","name":"unpause","inputs":[{"name":"newPausedStatus","type":"uint256","internalType":"uint256"}],"outputs":[],"stateMutability":"nonpayable"},{"type":"event","name":"Initialized","inputs":[{"name":"version","type":"uint8","indexed":false,"internalType":"uint8"}],"anonymous":false},{"type":"event","name":"NewTaskCreated","inputs":[{"name":"taskIndex","type":"uint32","indexed":true,"internalType":"uint32"},{"name":"task","type":"tuple","indexed":false,"internalType":"struct IFinalizerTaskManager.Task","components":[{"name":"blockNumber","type":"uint256","internalType":"uint256"},{"name":"taskCreatedBlock","type":"uint32","internalType":"uint32"},{"name":"lastCompletedTaskCreatedBlock","type":"uint32","internalType":"uint32"},{"name":"quorumNumbers","type":"bytes","internalType":"bytes"},{"name":"quorumThresholdPercentage","type":"uint32","internalType":"uint32"}]}],"anonymous":false},{"type":"event","name":"OwnershipTransferred","inputs":[{"name":"previousOwner","type":"address","indexed":true,"internalType":"address"},{"name":"newOwner","type":"address","indexed":true,"internalType":"address"}],"anonymous":false},{"type":"event","name":"Paused","inputs":[{"name":"account","type":"address","indexed":true,"internalType":"address"},{"name":"newPausedStatus","type":"uint256","indexed":false,"internalType":"uint256"}],"anonymous":false},{"type":"event","name":"PauserRegistrySet","inputs":[{"name":"pauserRegistry","type":"address","indexed":false,"internalType":"contract IPauserRegistry"},{"name":"newPauserRegistry","type":"address","indexed":false,"internalType":"contract IPauserRegistry"}],"anonymous":false},{"type":"event","name":"StaleStakesForbiddenUpdate","inputs":[{"name":"value","type":"bool","indexed":false,"internalType":"bool"}],"anonymous":false},{"type":"event","name":"TaskCompleted","inputs":[{"name":"taskIndex","type":"uint32","indexed":true,"internalType":"uint32"},{"name":"blockHash","type":"bytes32","indexed":true,"internalType":"bytes32"}],"anonymous":false},{"type":"event","name":"TaskResponded","inputs":[{"name":"taskResponse","type":"tuple","indexed":false,"internalType":"struct IFinalizerTaskManager.TaskResponse","components":[{"name":"referenceTaskIndex","type":"uint32","internalType":"uint32"},{"name":"operatorsStateHash","type":"bytes32","internalType":"bytes32"},{"name":"blockHash","type":"bytes32","internalType":"bytes32"},{"name":"storageProofHash","type":"bytes32","internalType":"bytes32"},{"name":"pendingStateHash","type":"bytes32","internalType":"bytes32"}]},{"name":"taskResponseMetadata","type":"tuple","indexed":false,"internalType":"struct IFinalizerTaskManager.TaskResponseMetadata","components":[{"name":"taskResponsedBlock","type":"uint32","internalType":"uint32"},{"name":"hashOfNonSigners","type":"bytes32","internalType":"bytes32"},{"name":"quroumStakeTotals","type":"uint96[]","internalType":"uint96[]"},{"name":"quroumStakeSigned","type":"uint96[]","internalType":"uint96[]"}]}],"anonymous":false},{"type":"event","name":"Unpaused","inputs":[{"name":"account","type":"address","indexed":true,"internalType":"address"},{"name":"newPausedStatus","type":"uint256","indexed":false,"internalType":"uint256"}],"anonymous":false}],"bytecode":{"object":"0x6101206040523480156200001257600080fd5b5060405162005a0f38038062005a0f8339810160408190526200003591620001f7565b81806001600160a01b03166080816001600160a01b031681525050806001600160a01b031663683048356040518163ffffffff1660e01b8152600401602060405180830381865afa1580156200008f573d6000803e3d6000fd5b505050506040513d601f19601f82011682018060405250810190620000b591906200023e565b6001600160a01b031660a0816001600160a01b031681525050806001600160a01b0316635df459466040518163ffffffff1660e01b8152600401602060405180830381865afa1580156200010d573d6000803e3d6000fd5b505050506040513d601f19601f820116820180604052508101906200013391906200023e565b6001600160a01b031660c0816001600160a01b03168152505060a0516001600160a01b031663df5cf7236040518163ffffffff1660e01b8152600401602060405180830381865afa1580156200018d573d6000803e3d6000fd5b505050506040513d601f19601f82011682018060405250810190620001b391906200023e565b6001600160a01b031660e052506097805460ff1916600117905563ffffffff16610100525062000265565b6001600160a01b0381168114620001f457600080fd5b50565b600080604083850312156200020b57600080fd5b82516200021881620001de565b602084015190925063ffffffff811681146200023357600080fd5b809150509250929050565b6000602082840312156200025157600080fd5b81516200025e81620001de565b9392505050565b60805160a05160c05160e05161010051615726620002e9600039600081816105600152610b3d01526000818161052901526126fb0152600081816103b401526128de0152600081816103db01528181612ab40152612c76015260008181610415015281816112ca015281816123c60152818161255e015261279801526157266000f3fe608060405234801561001057600080fd5b50600436106102065760003560e01c80636b92787e1161011a5780638da5cb5b116100ad578063df5cf7231161007c578063df5cf72314610524578063f2fde38b1461054b578063f5c9899d1461055e578063f8c8765e14610584578063fabc1cbc1461059757600080fd5b80638da5cb5b146104b557806399dba0c4146104c6578063b98d0908146104f6578063cefdc1d41461050357600080fd5b806372d18e8d116100e957806372d18e8d146104605780637afa1eed1461047f578063886f1195146104925780638b00ce7c146104a557600080fd5b80636b92787e146103fd5780636d14a987146104105780636efb463614610437578063715018a61461045857600080fd5b80633563b0d11161019d5780635ac86ab71161016c5780635ac86ab7146103545780635c155662146103875780635c975abb146103a75780635df45946146103af57806368304835146103d657600080fd5b80633563b0d1146102f9578063416c7e5e146103195780634f739f741461032c578063595c6a671461034c57600080fd5b8063245a7bfc116101d9578063245a7bfc146102745780632cb223d5146102a65780632d89f6fc146102c6578063309b2eb9146102e657600080fd5b80630373408d1461020b57806310d67a2f14610222578063136439dd14610237578063171f1d5b1461024a575b600080fd5b60cf545b6040519081526020015b60405180910390f35b6102356102303660046141e7565b6105aa565b005b610235610245366004614204565b610666565b61025d610258366004614382565b6107a5565b604080519215158352901515602083015201610219565b60cd5461028e90600160401b90046001600160a01b031681565b6040516001600160a01b039091168152602001610219565b61020f6102b43660046143f0565b60cb6020526000908152604090205481565b61020f6102d43660046143f0565b60ca6020526000908152604090205481565b6102356102f43660046146c9565b61092f565b61030c61030736600461473d565b610e32565b6040516102199190614898565b6102356103273660046148c0565b6112c8565b61033f61033a366004614925565b61143d565b6040516102199190614a29565b610235611b63565b610377610362366004614af3565b606654600160ff9092169190911b9081161490565b6040519015158152602001610219565b61039a610395366004614b10565b611c2a565b6040516102199190614bbc565b60665461020f565b61028e7f000000000000000000000000000000000000000000000000000000000000000081565b61028e7f000000000000000000000000000000000000000000000000000000000000000081565b61023561040b366004614c00565b611df2565b61028e7f000000000000000000000000000000000000000000000000000000000000000081565b61044a610445366004614c5b565b612013565b604051610219929190614d1b565b610235612f2b565b60c95463ffffffff165b60405163ffffffff9091168152602001610219565b60ce5461028e906001600160a01b031681565b60655461028e906001600160a01b031681565b60c95461046a9063ffffffff1681565b6033546001600160a01b031661028e565b6104e96104d43660046143f0565b60cc6020526000908152604090205460ff1681565b6040516102199190614d7a565b6097546103779060ff1681565b610516610511366004614da2565b612f3f565b604051610219929190614de4565b61028e7f000000000000000000000000000000000000000000000000000000000000000081565b6102356105593660046141e7565b6130d1565b7f000000000000000000000000000000000000000000000000000000000000000061046a565b610235610592366004614e05565b613147565b6102356105a5366004614204565b6132b0565b606560009054906101000a90046001600160a01b03166001600160a01b031663eab66d7a6040518163ffffffff1660e01b8152600401602060405180830381865afa1580156105fd573d6000803e3d6000fd5b505050506040513d601f19601f820116820180604052508101906106219190614e61565b6001600160a01b0316336001600160a01b03161461065a5760405162461bcd60e51b815260040161065190614e7e565b60405180910390fd5b6106638161340c565b50565b60655460405163237dfb4760e11b81523360048201526001600160a01b03909116906346fbf68e90602401602060405180830381865afa1580156106ae573d6000803e3d6000fd5b505050506040513d601f19601f820116820180604052508101906106d29190614ec8565b6106ee5760405162461bcd60e51b815260040161065190614ee5565b606654818116146107675760405162461bcd60e51b815260206004820152603860248201527f5061757361626c652e70617573653a20696e76616c696420617474656d70742060448201527f746f20756e70617573652066756e6374696f6e616c69747900000000000000006064820152608401610651565b606681905560405181815233907fab40a374bc51de372200a8bc981af8c9ecdc08dfdaef0bb6e09f88f3c616ef3d906020015b60405180910390a250565b60008060007f30644e72e131a029b85045b68181585d2833e84879b9709143e1f593f0000001878760000151886020015188600001516000600281106107ed576107ed614f2d565b60200201518951600160200201518a6020015160006002811061081257610812614f2d565b60200201518b6020015160016002811061082e5761082e614f2d565b602090810291909101518c518d83015160405161088b9a99989796959401988952602089019790975260408801959095526060870193909352608086019190915260a085015260c084015260e08301526101008201526101200190565b6040516020818303038152906040528051906020012060001c6108ae9190614f43565b90506109216108c76108c08884613503565b869061359a565b6108cf61362e565b61091761090885610902604080518082018252600080825260209182015281518083019092526001825260029082015290565b90613503565b6109118c6136ee565b9061359a565b886201d4c061377e565b909890975095505050505050565b60cd54600160401b90046001600160a01b031633146109905760405162461bcd60e51b815260206004820152601d60248201527f41676772656761746f72206d757374206265207468652063616c6c65720000006044820152606401610651565b60006109a260408501602086016143f0565b90503660006109b46060870187614f65565b909250905060006109cb60a08801608089016143f0565b905060ca60006109de60208901896143f0565b63ffffffff1663ffffffff1681526020019081526020016000205487604051602001610a0a9190614fd4565b6040516020818303038152906040528051906020012014610a935760405162461bcd60e51b815260206004820152603d60248201527f737570706c696564207461736b20646f6573206e6f74206d617463682074686560448201527f206f6e65207265636f7264656420696e2074686520636f6e74726163740000006064820152608401610651565b600160cc6000610aa660208a018a6143f0565b63ffffffff16815260208101919091526040016000205460ff166003811115610ad157610ad1614d64565b14610aee5760405162461bcd60e51b81526004016106519061508e565b600060cb81610b0060208a018a6143f0565b63ffffffff1663ffffffff1681526020019081526020016000205414610b385760405162461bcd60e51b81526004016106519061508e565b610b627f0000000000000000000000000000000000000000000000000000000000000000856150f0565b63ffffffff164363ffffffff161115610bd35760405162461bcd60e51b815260206004820152602d60248201527f41676772656761746f722068617320726573706f6e64656420746f207468652060448201526c7461736b20746f6f206c61746560981b6064820152608401610651565b600086604051602001610be69190615154565b604051602081830303815290604052805190602001209050600080610c0e8387878a8c612013565b6040805160808101825263ffffffff43168152602080820184905280850151828401528451606083015291519395509193509091610c50918c91849101615162565b6040516020818303038152906040528051906020012060cb60008c6000016020810190610c7d91906143f0565b63ffffffff1663ffffffff168152602001908152602001600020819055507f52ad3b2384e77fc71d0ea5aedf537f70f4c3b317168f6ff673b10403cebff0308a82604051610ccc929190615162565b60405180910390a160005b86811015610d6d578560ff1684602001518281518110610cf957610cf9614f2d565b6020026020010151610d0b91906151cf565b6001600160601b0316606485600001518381518110610d2c57610d2c614f2d565b60200260200101516001600160601b0316610d4791906151fe565b1015610d5b57505050505050505050505050565b80610d658161521d565b915050610cd7565b5060808a013560cf55600360cc6000610d8960208e018e6143f0565b63ffffffff16815260208101919091526040016000205460ff166003811115610db457610db4614d64565b50610dc7905060408c0160208d016143f0565b60cd805463ffffffff191663ffffffff9290921691909117905560408a0135610df360208c018c6143f0565b63ffffffff167f8378be8a33cf3a493910a16e275cd96af4f048c5eb1a2c2962d4066e697fea8060405160405180910390a35050505050505050505050565b60606000846001600160a01b031663683048356040518163ffffffff1660e01b8152600401602060405180830381865afa158015610e74573d6000803e3d6000fd5b505050506040513d601f19601f82011682018060405250810190610e989190614e61565b90506000856001600160a01b0316639e9923c26040518163ffffffff1660e01b8152600401602060405180830381865afa158015610eda573d6000803e3d6000fd5b505050506040513d601f19601f82011682018060405250810190610efe9190614e61565b90506000866001600160a01b0316635df459466040518163ffffffff1660e01b8152600401602060405180830381865afa158015610f40573d6000803e3d6000fd5b505050506040513d601f19601f82011682018060405250810190610f649190614e61565b9050600086516001600160401b03811115610f8157610f8161421d565b604051908082528060200260200182016040528015610fb457816020015b6060815260200190600190039081610f9f5790505b50905060005b87518110156112bc576000888281518110610fd757610fd7614f2d565b0160200151604051638902624560e01b815260f89190911c6004820181905263ffffffff8a16602483015291506000906001600160a01b03871690638902624590604401600060405180830381865afa158015611038573d6000803e3d6000fd5b505050506040513d6000823e601f3d908101601f191682016040526110609190810190615238565b905080516001600160401b0381111561107b5761107b61421d565b6040519080825280602002602001820160405280156110c657816020015b60408051606081018252600080825260208083018290529282015282526000199092019101816110995790505b508484815181106110d9576110d9614f2d565b602002602001018190525060005b81518110156112a6576040518060600160405280876001600160a01b03166347b314e885858151811061111c5761111c614f2d565b60200260200101516040518263ffffffff1660e01b815260040161114291815260200190565b602060405180830381865afa15801561115f573d6000803e3d6000fd5b505050506040513d601f19601f820116820180604052508101906111839190614e61565b6001600160a01b031681526020018383815181106111a3576111a3614f2d565b60200260200101518152602001896001600160a01b031663fa28c6278585815181106111d1576111d1614f2d565b60209081029190910101516040516001600160e01b031960e084901b168152600481019190915260ff8816602482015263ffffffff8f166044820152606401602060405180830381865afa15801561122d573d6000803e3d6000fd5b505050506040513d601f19601f8201168201806040525081019061125191906152c8565b6001600160601b031681525085858151811061126f5761126f614f2d565b6020026020010151828151811061128857611288614f2d565b6020026020010181905250808061129e9061521d565b9150506110e7565b50505080806112b49061521d565b915050610fba565b50979650505050505050565b7f00000000000000000000000000000000000000000000000000000000000000006001600160a01b0316638da5cb5b6040518163ffffffff1660e01b8152600401602060405180830381865afa158015611326573d6000803e3d6000fd5b505050506040513d601f19601f8201168201806040525081019061134a9190614e61565b6001600160a01b0316336001600160a01b0316146113f65760405162461bcd60e51b815260206004820152605c60248201527f424c535369676e6174757265436865636b65722e6f6e6c79436f6f7264696e6160448201527f746f724f776e65723a2063616c6c6572206973206e6f7420746865206f776e6560648201527f72206f6620746865207265676973747279436f6f7264696e61746f7200000000608482015260a401610651565b6097805460ff19168215159081179091556040519081527f40e4ed880a29e0f6ddce307457fb75cddf4feef7d3ecb0301bfdf4976a0e2dfc9060200160405180910390a150565b6114686040518060800160405280606081526020016060815260200160608152602001606081525090565b6000876001600160a01b031663683048356040518163ffffffff1660e01b8152600401602060405180830381865afa1580156114a8573d6000803e3d6000fd5b505050506040513d601f19601f820116820180604052508101906114cc9190614e61565b90506114f96040518060800160405280606081526020016060815260200160608152602001606081525090565b6040516361c8a12f60e11b81526001600160a01b038a169063c391425e90611529908b90899089906004016152f1565b600060405180830381865afa158015611546573d6000803e3d6000fd5b505050506040513d6000823e601f3d908101601f1916820160405261156e919081019061533b565b81526040516340e03a8160e11b81526001600160a01b038316906381c07502906115a0908b908b908b906004016153c9565b600060405180830381865afa1580156115bd573d6000803e3d6000fd5b505050506040513d6000823e601f3d908101601f191682016040526115e5919081019061533b565b6040820152856001600160401b038111156116025761160261421d565b60405190808252806020026020018201604052801561163557816020015b60608152602001906001900390816116205790505b50606082015260005b60ff8116871115611a74576000856001600160401b038111156116635761166361421d565b60405190808252806020026020018201604052801561168c578160200160208202803683370190505b5083606001518360ff16815181106116a6576116a6614f2d565b602002602001018190525060005b868110156119745760008c6001600160a01b03166304ec63518a8a858181106116df576116df614f2d565b905060200201358e886000015186815181106116fd576116fd614f2d565b60200260200101516040518463ffffffff1660e01b815260040161173a9392919092835263ffffffff918216602084015216604082015260600190565b602060405180830381865afa158015611757573d6000803e3d6000fd5b505050506040513d601f19601f8201168201806040525081019061177b91906153f2565b90506001600160c01b03811661181f5760405162461bcd60e51b815260206004820152605c60248201527f4f70657261746f7253746174655265747269657665722e676574436865636b5360448201527f69676e617475726573496e64696365733a206f70657261746f72206d7573742060648201527f6265207265676973746572656420617420626c6f636b6e756d62657200000000608482015260a401610651565b8a8a8560ff1681811061183457611834614f2d565b6001600160c01b03841692013560f81c9190911c60019081161415905061196157856001600160a01b031663dd9846b98a8a8581811061187657611876614f2d565b905060200201358d8d8860ff1681811061189257611892614f2d565b6040516001600160e01b031960e087901b1681526004810194909452919091013560f81c60248301525063ffffffff8f166044820152606401602060405180830381865afa1580156118e8573d6000803e3d6000fd5b505050506040513d601f19601f8201168201806040525081019061190c919061541b565b85606001518560ff168151811061192557611925614f2d565b6020026020010151848151811061193e5761193e614f2d565b63ffffffff909216602092830291909101909101528261195d8161521d565b9350505b508061196c8161521d565b9150506116b4565b506000816001600160401b0381111561198f5761198f61421d565b6040519080825280602002602001820160405280156119b8578160200160208202803683370190505b50905060005b82811015611a395784606001518460ff16815181106119df576119df614f2d565b602002602001015181815181106119f8576119f8614f2d565b6020026020010151828281518110611a1257611a12614f2d565b63ffffffff9092166020928302919091019091015280611a318161521d565b9150506119be565b508084606001518460ff1681518110611a5457611a54614f2d565b602002602001018190525050508080611a6c90615438565b91505061163e565b506000896001600160a01b0316635df459466040518163ffffffff1660e01b8152600401602060405180830381865afa158015611ab5573d6000803e3d6000fd5b505050506040513d601f19601f82011682018060405250810190611ad99190614e61565b60405163354952a360e21b81529091506001600160a01b0382169063d5254a8c90611b0c908b908b908e90600401615458565b600060405180830381865afa158015611b29573d6000803e3d6000fd5b505050506040513d6000823e601f3d908101601f19168201604052611b51919081019061533b565b60208301525098975050505050505050565b60655460405163237dfb4760e11b81523360048201526001600160a01b03909116906346fbf68e90602401602060405180830381865afa158015611bab573d6000803e3d6000fd5b505050506040513d601f19601f82011682018060405250810190611bcf9190614ec8565b611beb5760405162461bcd60e51b815260040161065190614ee5565b600019606681905560405190815233907fab40a374bc51de372200a8bc981af8c9ecdc08dfdaef0bb6e09f88f3c616ef3d9060200160405180910390a2565b60606000846001600160a01b031663c391425e84866040518363ffffffff1660e01b8152600401611c5c929190615482565b600060405180830381865afa158015611c79573d6000803e3d6000fd5b505050506040513d6000823e601f3d908101601f19168201604052611ca1919081019061533b565b9050600084516001600160401b03811115611cbe57611cbe61421d565b604051908082528060200260200182016040528015611ce7578160200160208202803683370190505b50905060005b8551811015611de857866001600160a01b03166304ec6351878381518110611d1757611d17614f2d565b602002602001015187868581518110611d3257611d32614f2d565b60200260200101516040518463ffffffff1660e01b8152600401611d6f9392919092835263ffffffff918216602084015216604082015260600190565b602060405180830381865afa158015611d8c573d6000803e3d6000fd5b505050506040513d601f19601f82011682018060405250810190611db091906153f2565b6001600160c01b0316828281518110611dcb57611dcb614f2d565b602090810291909101015280611de08161521d565b915050611ced565b5095945050505050565b60ce546001600160a01b03163314611e565760405162461bcd60e51b815260206004820152602160248201527f5461736b2067656e657261746f72206d757374206265207468652063616c6c656044820152603960f91b6064820152608401610651565b6040805160a08101825260008183015260608082015285815263ffffffff43811660208084019190915290861660808301528251601f85018290048202810182019093528383529091908490849081908401838280828437600092019190915250505050606082015260cd5463ffffffff908116604083015260c9541615611f475760c954600090611ef09060019063ffffffff166154d6565b9050600163ffffffff8216600090815260cc602052604090205460ff166003811115611f1e57611f1e614d64565b1415611f455763ffffffff8116600090815260cc60205260409020805460ff191660021790555b505b80604051602001611f5891906154fb565b60408051808303601f19018152828252805160209182012060c9805463ffffffff908116600090815260ca85528581209390935581548116835260cc909352929020805460ff19166001179055905416907f34ce723e2f4d2d1588d0eebde944906a29a10a74630169301ab5156abd7ece4d90611fd69084906154fb565b60405180910390a260c954611ff29063ffffffff1660016150f0565b60c9805463ffffffff191663ffffffff929092169190911790555050505050565b604080518082019091526060808252602082015260008461208a5760405162461bcd60e51b815260206004820152603760248201526000805160206156d183398151915260448201527f7265733a20656d7074792071756f72756d20696e7075740000000000000000006064820152608401610651565b604083015151851480156120a2575060a08301515185145b80156120b2575060c08301515185145b80156120c2575060e08301515185145b61212c5760405162461bcd60e51b815260206004820152604160248201526000805160206156d183398151915260448201527f7265733a20696e7075742071756f72756d206c656e677468206d69736d6174636064820152600d60fb1b608482015260a401610651565b825151602084015151146121a45760405162461bcd60e51b8152602060048201526044602482018190526000805160206156d1833981519152908201527f7265733a20696e707574206e6f6e7369676e6572206c656e677468206d69736d6064820152630c2e8c6d60e31b608482015260a401610651565b4363ffffffff168463ffffffff16106122135760405162461bcd60e51b815260206004820152603c60248201526000805160206156d183398151915260448201527f7265733a20696e76616c6964207265666572656e636520626c6f636b000000006064820152608401610651565b6040805180820182526000808252602080830191909152825180840190935260608084529083015290866001600160401b038111156122545761225461421d565b60405190808252806020026020018201604052801561227d578160200160208202803683370190505b506020820152866001600160401b0381111561229b5761229b61421d565b6040519080825280602002602001820160405280156122c4578160200160208202803683370190505b50815260408051808201909152606080825260208201528560200151516001600160401b038111156122f8576122f861421d565b604051908082528060200260200182016040528015612321578160200160208202803683370190505b5081526020860151516001600160401b038111156123415761234161421d565b60405190808252806020026020018201604052801561236a578160200160208202803683370190505b508160200181905250600061243c8a8a8080601f0160208091040260200160405190810160405280939291908181526020018383808284376000920191909152505060408051639aa1653d60e01b815290516001600160a01b037f0000000000000000000000000000000000000000000000000000000000000000169350639aa1653d925060048083019260209291908290030181865afa158015612413573d6000803e3d6000fd5b505050506040513d601f19601f820116820180604052508101906124379190615596565b6139a2565b905060005b8760200151518110156126d7576124868860200151828151811061246757612467614f2d565b6020026020010151805160009081526020918201519091526040902090565b8360200151828151811061249c5761249c614f2d565b6020908102919091010152801561255c5760208301516124bd6001836155b3565b815181106124cd576124cd614f2d565b602002602001015160001c836020015182815181106124ee576124ee614f2d565b602002602001015160001c1161255c576040805162461bcd60e51b81526020600482015260248101919091526000805160206156d183398151915260448201527f7265733a206e6f6e5369676e65725075626b657973206e6f7420736f727465646064820152608401610651565b7f00000000000000000000000000000000000000000000000000000000000000006001600160a01b03166304ec6351846020015183815181106125a1576125a1614f2d565b60200260200101518b8b6000015185815181106125c0576125c0614f2d565b60200260200101516040518463ffffffff1660e01b81526004016125fd9392919092835263ffffffff918216602084015216604082015260600190565b602060405180830381865afa15801561261a573d6000803e3d6000fd5b505050506040513d601f19601f8201168201806040525081019061263e91906153f2565b6001600160c01b03168360000151828151811061265d5761265d614f2d565b6020026020010181815250506126c36108c0612697848660000151858151811061268957612689614f2d565b602002602001015116613a35565b8a6020015184815181106126ad576126ad614f2d565b6020026020010151613a6090919063ffffffff16565b9450806126cf8161521d565b915050612441565b50506126e283613b44565b60975490935060ff166000816126f957600061277b565b7f00000000000000000000000000000000000000000000000000000000000000006001600160a01b031663c448feb86040518163ffffffff1660e01b8152600401602060405180830381865afa158015612757573d6000803e3d6000fd5b505050506040513d601f19601f8201168201806040525081019061277b91906155ca565b905060005b8a811015612dfa5782156128dc578963ffffffff16827f00000000000000000000000000000000000000000000000000000000000000006001600160a01b031663249a0c428f8f868181106127d7576127d7614f2d565b60405160e085901b6001600160e01b031916815292013560f81c600483015250602401602060405180830381865afa158015612817573d6000803e3d6000fd5b505050506040513d601f19601f8201168201806040525081019061283b91906155ca565b61284591906155e3565b10156128dc5760405162461bcd60e51b815260206004820152606660248201526000805160206156d183398151915260448201527f7265733a205374616b6552656769737472792075706461746573206d7573742060648201527f62652077697468696e207769746864726177616c44656c6179426c6f636b732060848201526577696e646f7760d01b60a482015260c401610651565b7f00000000000000000000000000000000000000000000000000000000000000006001600160a01b03166368bccaac8d8d8481811061291d5761291d614f2d565b9050013560f81c60f81b60f81c8c8c60a00151858151811061294157612941614f2d565b60209081029190910101516040516001600160e01b031960e086901b16815260ff909316600484015263ffffffff9182166024840152166044820152606401602060405180830381865afa15801561299d573d6000803e3d6000fd5b505050506040513d601f19601f820116820180604052508101906129c191906155fb565b6001600160401b0319166129e48a60400151838151811061246757612467614f2d565b67ffffffffffffffff191614612a805760405162461bcd60e51b815260206004820152606160248201526000805160206156d183398151915260448201527f7265733a2071756f72756d41706b206861736820696e2073746f72616765206460648201527f6f6573206e6f74206d617463682070726f76696465642071756f72756d2061706084820152606b60f81b60a482015260c401610651565b612ab089604001518281518110612a9957612a99614f2d565b60200260200101518761359a90919063ffffffff16565b95507f00000000000000000000000000000000000000000000000000000000000000006001600160a01b031663c8294c568d8d84818110612af357612af3614f2d565b9050013560f81c60f81b60f81c8c8c60c001518581518110612b1757612b17614f2d565b60209081029190910101516040516001600160e01b031960e086901b16815260ff909316600484015263ffffffff9182166024840152166044820152606401602060405180830381865afa158015612b73573d6000803e3d6000fd5b505050506040513d601f19601f82011682018060405250810190612b9791906152c8565b85602001518281518110612bad57612bad614f2d565b6001600160601b03909216602092830291909101820152850151805182908110612bd957612bd9614f2d565b602002602001015185600001518281518110612bf757612bf7614f2d565b60200260200101906001600160601b031690816001600160601b0316815250506000805b8a6020015151811015612de557612c6f86600001518281518110612c4157612c41614f2d565b60200260200101518f8f86818110612c5b57612c5b614f2d565b600192013560f81c9290921c811614919050565b15612dd3577f00000000000000000000000000000000000000000000000000000000000000006001600160a01b031663f2be94ae8f8f86818110612cb557612cb5614f2d565b9050013560f81c60f81b60f81c8e89602001518581518110612cd957612cd9614f2d565b60200260200101518f60e001518881518110612cf757612cf7614f2d565b60200260200101518781518110612d1057612d10614f2d565b60209081029190910101516040516001600160e01b031960e087901b16815260ff909416600485015263ffffffff92831660248501526044840191909152166064820152608401602060405180830381865afa158015612d74573d6000803e3d6000fd5b505050506040513d601f19601f82011682018060405250810190612d9891906152c8565b8751805185908110612dac57612dac614f2d565b60200260200101818151612dc09190615626565b6001600160601b03169052506001909101905b80612ddd8161521d565b915050612c1b565b50508080612df29061521d565b915050612780565b505050600080612e148c868a606001518b608001516107a5565b9150915081612e855760405162461bcd60e51b815260206004820152604360248201526000805160206156d183398151915260448201527f7265733a2070616972696e6720707265636f6d70696c652063616c6c206661696064820152621b195960ea1b608482015260a401610651565b80612ee65760405162461bcd60e51b815260206004820152603960248201526000805160206156d183398151915260448201527f7265733a207369676e617475726520697320696e76616c6964000000000000006064820152608401610651565b50506000878260200151604051602001612f01929190615646565b60408051808303601f190181529190528051602090910120929b929a509198505050505050505050565b612f33613bdf565b612f3d6000613c39565b565b6040805160018082528183019092526000916060918391602080830190803683370190505090508481600081518110612f7a57612f7a614f2d565b60209081029190910101526040516361c8a12f60e11b81526000906001600160a01b0388169063c391425e90612fb69088908690600401615482565b600060405180830381865afa158015612fd3573d6000803e3d6000fd5b505050506040513d6000823e601f3d908101601f19168201604052612ffb919081019061533b565b60008151811061300d5761300d614f2d565b60209081029190910101516040516304ec635160e01b81526004810188905263ffffffff87811660248301529091166044820181905291506000906001600160a01b038916906304ec635190606401602060405180830381865afa158015613079573d6000803e3d6000fd5b505050506040513d601f19601f8201168201806040525081019061309d91906153f2565b6001600160c01b0316905060006130b382613c8b565b9050816130c18a838a610e32565b9550955050505050935093915050565b6130d9613bdf565b6001600160a01b03811661313e5760405162461bcd60e51b815260206004820152602660248201527f4f776e61626c653a206e6577206f776e657220697320746865207a65726f206160448201526564647265737360d01b6064820152608401610651565b61066381613c39565b600054610100900460ff16158080156131675750600054600160ff909116105b806131815750303b158015613181575060005460ff166001145b6131e45760405162461bcd60e51b815260206004820152602e60248201527f496e697469616c697a61626c653a20636f6e747261637420697320616c72656160448201526d191e481a5b9a5d1a585b1a5e995960921b6064820152608401610651565b6000805460ff191660011790558015613207576000805461ff0019166101001790555b613212856000613d57565b61321b84613c39565b60cd805468010000000000000000600160e01b031916600160401b6001600160a01b03868116919091029190911790915560ce80546001600160a01b03191691841691909117905580156132a9576000805461ff0019169055604051600181527f7f26b83ff96e1f2b6a682f133852f6798a09c465da95921460cefb38474024989060200160405180910390a15b5050505050565b606560009054906101000a90046001600160a01b03166001600160a01b031663eab66d7a6040518163ffffffff1660e01b8152600401602060405180830381865afa158015613303573d6000803e3d6000fd5b505050506040513d601f19601f820116820180604052508101906133279190614e61565b6001600160a01b0316336001600160a01b0316146133575760405162461bcd60e51b815260040161065190614e7e565b6066541981196066541916146133d55760405162461bcd60e51b815260206004820152603860248201527f5061757361626c652e756e70617573653a20696e76616c696420617474656d7060448201527f7420746f2070617573652066756e6374696f6e616c69747900000000000000006064820152608401610651565b606681905560405181815233907f3582d1828e26bf56bd801502bc021ac0bc8afb57c826e4986b45593c8fad389c9060200161079a565b6001600160a01b03811661349a5760405162461bcd60e51b815260206004820152604960248201527f5061757361626c652e5f73657450617573657252656769737472793a206e657760448201527f50617573657252656769737472792063616e6e6f7420626520746865207a65726064820152686f206164647265737360b81b608482015260a401610651565b606554604080516001600160a01b03928316815291831660208301527f6e9fcd539896fca60e8b0f01dd580233e48a6b0f7df013b89ba7f565869acdb6910160405180910390a1606580546001600160a01b0319166001600160a01b0392909216919091179055565b604080518082019091526000808252602082015261351f6140f8565b835181526020808501519082015260408082018490526000908360608460076107d05a03fa905080801561355257613554565bfe5b50806135925760405162461bcd60e51b815260206004820152600d60248201526c1958cb5b5d5b0b59985a5b1959609a1b6044820152606401610651565b505092915050565b60408051808201909152600080825260208201526135b6614116565b835181526020808501518183015283516040808401919091529084015160608301526000908360808460066107d05a03fa90508080156135525750806135925760405162461bcd60e51b815260206004820152600d60248201526c1958cb5859190b59985a5b1959609a1b6044820152606401610651565b613636614134565b50604080516080810182527f198e9393920d483a7260bfb731fb5d25f1aa493335a9e71297e485b7aef312c28183019081527f1800deef121f1e76426a00665e5c4479674322d4f75edadd46debd5cd992f6ed6060830152815281518083019092527f275dc4a288d1afb3cbb1ac09187524c7db36395df7be3b99e673b13a075a65ec82527f1d9befcd05a5323e6da4d435f3b617cdb3af83285c2df711ef39c01571827f9d60208381019190915281019190915290565b60408051808201909152600080825260208201526000808061371e6000805160206156b183398151915286614f43565b90505b61372a81613e41565b90935091506000805160206156b1833981519152828309831415613764576040805180820190915290815260208101919091529392505050565b6000805160206156b1833981519152600182089050613721565b6040805180820182528681526020808201869052825180840190935286835282018490526000918291906137b0614159565b60005b60028110156139755760006137c98260066151fe565b90508482600281106137dd576137dd614f2d565b602002015151836137ef8360006155e3565b600c81106137ff576137ff614f2d565b602002015284826002811061381657613816614f2d565b6020020151602001518382600161382d91906155e3565b600c811061383d5761383d614f2d565b602002015283826002811061385457613854614f2d565b60200201515151836138678360026155e3565b600c811061387757613877614f2d565b602002015283826002811061388e5761388e614f2d565b60200201515160016020020151836138a78360036155e3565b600c81106138b7576138b7614f2d565b60200201528382600281106138ce576138ce614f2d565b6020020151602001516000600281106138e9576138e9614f2d565b6020020151836138fa8360046155e3565b600c811061390a5761390a614f2d565b602002015283826002811061392157613921614f2d565b60200201516020015160016002811061393c5761393c614f2d565b60200201518361394d8360056155e3565b600c811061395d5761395d614f2d565b6020020152508061396d8161521d565b9150506137b3565b5061397e614178565b60006020826101808560088cfa9151919c9115159b50909950505050505050505050565b6000806139ae84613ec3565b9050808360ff166001901b11613a2c5760405162461bcd60e51b815260206004820152603f60248201527f4269746d61705574696c732e6f72646572656442797465734172726179546f4260448201527f69746d61703a206269746d61702065786365656473206d61782076616c7565006064820152608401610651565b90505b92915050565b6000805b8215613a2f57613a4a6001846155b3565b9092169180613a588161568e565b915050613a39565b60408051808201909152600080825260208201526102008261ffff1610613abc5760405162461bcd60e51b815260206004820152601060248201526f7363616c61722d746f6f2d6c6172676560801b6044820152606401610651565b8161ffff1660011415613ad0575081613a2f565b6040805180820190915260008082526020820181905284906001905b8161ffff168661ffff1610613b3957600161ffff871660ff83161c81161415613b1c57613b19848461359a565b93505b613b26838461359a565b92506201fffe600192831b169101613aec565b509195945050505050565b60408051808201909152600080825260208201528151158015613b6957506020820151155b15613b87575050604080518082019091526000808252602082015290565b6040518060400160405280836000015181526020016000805160206156b18339815191528460200151613bba9190614f43565b613bd2906000805160206156b18339815191526155b3565b905292915050565b919050565b6033546001600160a01b03163314612f3d5760405162461bcd60e51b815260206004820181905260248201527f4f776e61626c653a2063616c6c6572206973206e6f7420746865206f776e65726044820152606401610651565b603380546001600160a01b038381166001600160a01b0319831681179093556040519116919082907f8be0079c531659141344cd1fd0a4f28419497f9722a3daafe3b4186f6b6457e090600090a35050565b6060600080613c9984613a35565b61ffff166001600160401b03811115613cb457613cb461421d565b6040519080825280601f01601f191660200182016040528015613cde576020820181803683370190505b5090506000805b825182108015613cf6575061010081105b15613d4d576001811b935085841615613d3d578060f81b838381518110613d1f57613d1f614f2d565b60200101906001600160f81b031916908160001a9053508160010191505b613d468161521d565b9050613ce5565b5090949350505050565b6065546001600160a01b0316158015613d7857506001600160a01b03821615155b613dfa5760405162461bcd60e51b815260206004820152604760248201527f5061757361626c652e5f696e697469616c697a655061757365723a205f696e6960448201527f7469616c697a6550617573657228292063616e206f6e6c792062652063616c6c6064820152666564206f6e636560c81b608482015260a401610651565b606681905560405181815233907fab40a374bc51de372200a8bc981af8c9ecdc08dfdaef0bb6e09f88f3c616ef3d9060200160405180910390a2613e3d8261340c565b5050565b600080806000805160206156b183398151915260036000805160206156b1833981519152866000805160206156b1833981519152888909090890506000613eb7827f0c19139cb84c680a6e14116da060561765e05aa45a1c72a34f082305b61f3f526000805160206156b1833981519152614050565b91959194509092505050565b600061010082511115613f4c5760405162461bcd60e51b8152602060048201526044602482018190527f4269746d61705574696c732e6f72646572656442797465734172726179546f42908201527f69746d61703a206f7264657265644279746573417272617920697320746f6f206064820152636c6f6e6760e01b608482015260a401610651565b8151613f5a57506000919050565b60008083600081518110613f7057613f70614f2d565b0160200151600160f89190911c81901b92505b845181101561404757848181518110613f9e57613f9e614f2d565b0160200151600160f89190911c1b91508282116140335760405162461bcd60e51b815260206004820152604760248201527f4269746d61705574696c732e6f72646572656442797465734172726179546f4260448201527f69746d61703a206f72646572656442797465734172726179206973206e6f74206064820152661bdc99195c995960ca1b608482015260a401610651565b918117916140408161521d565b9050613f83565b50909392505050565b60008061405b614178565b614063614196565b602080825281810181905260408201819052606082018890526080820187905260a082018690528260c08360056107d05a03fa92508280156135525750826140ed5760405162461bcd60e51b815260206004820152601a60248201527f424e3235342e6578704d6f643a2063616c6c206661696c7572650000000000006044820152606401610651565b505195945050505050565b60405180606001604052806003906020820280368337509192915050565b60405180608001604052806004906020820280368337509192915050565b60405180604001604052806141476141b4565b81526020016141546141b4565b905290565b604051806101800160405280600c906020820280368337509192915050565b60405180602001604052806001906020820280368337509192915050565b6040518060c001604052806006906020820280368337509192915050565b60405180604001604052806002906020820280368337509192915050565b6001600160a01b038116811461066357600080fd5b6000602082840312156141f957600080fd5b8135613a2c816141d2565b60006020828403121561421657600080fd5b5035919050565b634e487b7160e01b600052604160045260246000fd5b604080519081016001600160401b03811182821017156142555761425561421d565b60405290565b60405161010081016001600160401b03811182821017156142555761425561421d565b604051601f8201601f191681016001600160401b03811182821017156142a6576142a661421d565b604052919050565b6000604082840312156142c057600080fd5b6142c8614233565b9050813581526020820135602082015292915050565b600082601f8301126142ef57600080fd5b604051604081018181106001600160401b03821117156143115761431161421d565b806040525080604084018581111561432857600080fd5b845b81811015613b3957803583526020928301920161432a565b60006080828403121561435457600080fd5b61435c614233565b905061436883836142de565b815261437783604084016142de565b602082015292915050565b600080600080610120858703121561439957600080fd5b843593506143aa86602087016142ae565b92506143b98660608701614342565b91506143c88660e087016142ae565b905092959194509250565b63ffffffff8116811461066357600080fd5b8035613bda816143d3565b60006020828403121561440257600080fd5b8135613a2c816143d3565b600060a0828403121561441f57600080fd5b50919050565b60006001600160401b0382111561443e5761443e61421d565b5060051b60200190565b600082601f83011261445957600080fd5b8135602061446e61446983614425565b61427e565b82815260059290921b8401810191818101908684111561448d57600080fd5b8286015b848110156144b15780356144a4816143d3565b8352918301918301614491565b509695505050505050565b600082601f8301126144cd57600080fd5b813560206144dd61446983614425565b82815260069290921b840181019181810190868411156144fc57600080fd5b8286015b848110156144b15761451288826142ae565b835291830191604001614500565b600082601f83011261453157600080fd5b8135602061454161446983614425565b82815260059290921b8401810191818101908684111561456057600080fd5b8286015b848110156144b15780356001600160401b038111156145835760008081fd5b6145918986838b0101614448565b845250918301918301614564565b600061018082840312156145b257600080fd5b6145ba61425b565b905081356001600160401b03808211156145d357600080fd5b6145df85838601614448565b835260208401359150808211156145f557600080fd5b614601858386016144bc565b6020840152604084013591508082111561461a57600080fd5b614626858386016144bc565b60408401526146388560608601614342565b606084015261464a8560e086016142ae565b608084015261012084013591508082111561466457600080fd5b61467085838601614448565b60a084015261014084013591508082111561468a57600080fd5b61469685838601614448565b60c08401526101608401359150808211156146b057600080fd5b506146bd84828501614520565b60e08301525092915050565b600080600060e084860312156146de57600080fd5b83356001600160401b03808211156146f557600080fd5b6147018783880161440d565b9450614710876020880161440d565b935060c086013591508082111561472657600080fd5b506147338682870161459f565b9150509250925092565b60008060006060848603121561475257600080fd5b833561475d816141d2565b92506020848101356001600160401b038082111561477a57600080fd5b818701915087601f83011261478e57600080fd5b8135818111156147a0576147a061421d565b6147b2601f8201601f1916850161427e565b915080825288848285010111156147c857600080fd5b80848401858401376000848284010152508094505050506147eb604085016143e5565b90509250925092565b600081518084526020808501808196508360051b810191508286016000805b8681101561488a578385038a52825180518087529087019087870190845b8181101561487557835180516001600160a01b031684528a8101518b8501526040908101516001600160601b03169084015292890192606090920191600101614831565b50509a87019a95505091850191600101614813565b509298975050505050505050565b6020815260006148ab60208301846147f4565b9392505050565b801515811461066357600080fd5b6000602082840312156148d257600080fd5b8135613a2c816148b2565b60008083601f8401126148ef57600080fd5b5081356001600160401b0381111561490657600080fd5b60208301915083602082850101111561491e57600080fd5b9250929050565b6000806000806000806080878903121561493e57600080fd5b8635614949816141d2565b95506020870135614959816143d3565b945060408701356001600160401b038082111561497557600080fd5b6149818a838b016148dd565b9096509450606089013591508082111561499a57600080fd5b818901915089601f8301126149ae57600080fd5b8135818111156149bd57600080fd5b8a60208260051b85010111156149d257600080fd5b6020830194508093505050509295509295509295565b600081518084526020808501945080840160005b83811015614a1e57815163ffffffff16875295820195908201906001016149fc565b509495945050505050565b600060208083528351608082850152614a4560a08501826149e8565b905081850151601f1980868403016040870152614a6283836149e8565b92506040870151915080868403016060870152614a7f83836149e8565b60608801518782038301608089015280518083529194508501925084840190600581901b8501860160005b82811015614ad65784878303018452614ac48287516149e8565b95880195938801939150600101614aaa565b509998505050505050505050565b60ff8116811461066357600080fd5b600060208284031215614b0557600080fd5b8135613a2c81614ae4565b600080600060608486031215614b2557600080fd5b8335614b30816141d2565b92506020848101356001600160401b03811115614b4c57600080fd5b8501601f81018713614b5d57600080fd5b8035614b6b61446982614425565b81815260059190911b82018301908381019089831115614b8a57600080fd5b928401925b82841015614ba857833582529284019290840190614b8f565b80965050505050506147eb604085016143e5565b6020808252825182820181905260009190848201906040850190845b81811015614bf457835183529284019291840191600101614bd8565b50909695505050505050565b60008060008060608587031215614c1657600080fd5b843593506020850135614c28816143d3565b925060408501356001600160401b03811115614c4357600080fd5b614c4f878288016148dd565b95989497509550505050565b600080600080600060808688031215614c7357600080fd5b8535945060208601356001600160401b0380821115614c9157600080fd5b614c9d89838a016148dd565b909650945060408801359150614cb2826143d3565b90925060608701359080821115614cc857600080fd5b50614cd58882890161459f565b9150509295509295909350565b600081518084526020808501945080840160005b83811015614a1e5781516001600160601b031687529582019590820190600101614cf6565b6040815260008351604080840152614d366080840182614ce2565b90506020850151603f19848303016060850152614d538282614ce2565b925050508260208301529392505050565b634e487b7160e01b600052602160045260246000fd5b6020810160048310614d9c57634e487b7160e01b600052602160045260246000fd5b91905290565b600080600060608486031215614db757600080fd5b8335614dc2816141d2565b9250602084013591506040840135614dd9816143d3565b809150509250925092565b828152604060208201526000614dfd60408301846147f4565b949350505050565b60008060008060808587031215614e1b57600080fd5b8435614e26816141d2565b93506020850135614e36816141d2565b92506040850135614e46816141d2565b91506060850135614e56816141d2565b939692955090935050565b600060208284031215614e7357600080fd5b8151613a2c816141d2565b6020808252602a908201527f6d73672e73656e646572206973206e6f74207065726d697373696f6e6564206160408201526939903ab73830bab9b2b960b11b606082015260800190565b600060208284031215614eda57600080fd5b8151613a2c816148b2565b60208082526028908201527f6d73672e73656e646572206973206e6f74207065726d697373696f6e6564206160408201526739903830bab9b2b960c11b606082015260800190565b634e487b7160e01b600052603260045260246000fd5b600082614f6057634e487b7160e01b600052601260045260246000fd5b500690565b6000808335601e19843603018112614f7c57600080fd5b8301803591506001600160401b03821115614f9657600080fd5b60200191503681900382131561491e57600080fd5b81835281816020850137506000828201602090810191909152601f909101601f19169091010190565b602081528135602082015260006020830135614fef816143d3565b63ffffffff80821660408501526040850135915061500c826143d3565b1660608381019190915283013536849003601e1901811261502c57600080fd5b830180356001600160401b0381111561504457600080fd5b80360385131561505357600080fd5b60a0608085015261506b60c085018260208501614fab565b91505061507a608085016143e5565b63ffffffff811660a0850152509392505050565b6020808252602c908201527f41676772656761746f722068617320616c726561647920726573706f6e64656460408201526b20746f20746865207461736b60a01b606082015260800190565b634e487b7160e01b600052601160045260246000fd5b600063ffffffff80831681851680830382111561510f5761510f6150da565b01949350505050565b8035615123816143d3565b63ffffffff168252602081810135908301526040808201359083015260608082013590830152608090810135910152565b60a08101613a2f8284615118565b61516c8184615118565b60c060a082015263ffffffff82511660c0820152602082015160e08201526000604083015160806101008401526151a7610140840182614ce2565b9050606084015160bf19848303016101208501526151c58282614ce2565b9695505050505050565b60006001600160601b03808316818516818304811182151516156151f5576151f56150da565b02949350505050565b6000816000190483118215151615615218576152186150da565b500290565b6000600019821415615231576152316150da565b5060010190565b6000602080838503121561524b57600080fd5b82516001600160401b0381111561526157600080fd5b8301601f8101851361527257600080fd5b805161528061446982614425565b81815260059190911b8201830190838101908783111561529f57600080fd5b928401925b828410156152bd578351825292840192908401906152a4565b979650505050505050565b6000602082840312156152da57600080fd5b81516001600160601b0381168114613a2c57600080fd5b63ffffffff84168152604060208201819052810182905260006001600160fb1b0383111561531e57600080fd5b8260051b8085606085013760009201606001918252509392505050565b6000602080838503121561534e57600080fd5b82516001600160401b0381111561536457600080fd5b8301601f8101851361537557600080fd5b805161538361446982614425565b81815260059190911b820183019083810190878311156153a257600080fd5b928401925b828410156152bd5783516153ba816143d3565b825292840192908401906153a7565b63ffffffff841681526040602082015260006153e9604083018486614fab565b95945050505050565b60006020828403121561540457600080fd5b81516001600160c01b0381168114613a2c57600080fd5b60006020828403121561542d57600080fd5b8151613a2c816143d3565b600060ff821660ff81141561544f5761544f6150da565b60010192915050565b60408152600061546c604083018587614fab565b905063ffffffff83166020830152949350505050565b60006040820163ffffffff851683526020604081850152818551808452606086019150828701935060005b818110156154c9578451835293830193918301916001016154ad565b5090979650505050505050565b600063ffffffff838116908316818110156154f3576154f36150da565b039392505050565b600060208083528351818401528084015163ffffffff80821660408601528060408701511660608601525050606084015160a0608085015280518060c086015260005b8181101561555a5782810184015186820160e00152830161553e565b8181111561556c57600060e083880101525b50608086015163ffffffff811660a08701529250601f01601f19169390930160e001949350505050565b6000602082840312156155a857600080fd5b8151613a2c81614ae4565b6000828210156155c5576155c56150da565b500390565b6000602082840312156155dc57600080fd5b5051919050565b600082198211156155f6576155f66150da565b500190565b60006020828403121561560d57600080fd5b815167ffffffffffffffff1981168114613a2c57600080fd5b60006001600160601b03838116908316818110156154f3576154f36150da565b63ffffffff60e01b8360e01b1681526000600482018351602080860160005b8381101561568157815185529382019390820190600101615665565b5092979650505050505050565b600061ffff808316818114156156a6576156a66150da565b600101939250505056fe30644e72e131a029b85045b68181585d97816a916871ca8d3c208c16d87cfd47424c535369676e6174757265436865636b65722e636865636b5369676e617475a264697066735822122044904918d360f244d1af62f4b460c09431a5ba9f435144cda41a3c883c88227b64736f6c634300080c0033","linkReferences":{}},"methodIdentifiers":{"aggregator()":"245a7bfc","allTaskHashes(uint32)":"2d89f6fc","allTaskResponses(uint32)":"2cb223d5","blsApkRegistry()":"5df45946","checkSignatures(bytes32,bytes,uint32,(uint32[],(uint256,uint256)[],(uint256,uint256)[],(uint256[2],uint256[2]),(uint256,uint256),uint32[],uint32[],uint32[][]))":"6efb4636","createNewTask(uint256,uint32,bytes)":"6b92787e","delegation()":"df5cf723","generator()":"7afa1eed","getCheckSignaturesIndices(address,uint32,bytes,bytes32[])":"4f739f74","getLatestPendingStateHash()":"0373408d","getOperatorState(address,bytes,uint32)":"3563b0d1","getOperatorState(address,bytes32,uint32)":"cefdc1d4","getQuorumBitmapsAtBlockNumber(address,bytes32[],uint32)":"5c155662","getTaskResponseWindowBlock()":"f5c9899d","indexToTaskStatus(uint32)":"99dba0c4","initialize(address,address,address,address)":"f8c8765e","latestTaskNum()":"8b00ce7c","owner()":"8da5cb5b","pause(uint256)":"136439dd","pauseAll()":"595c6a67","paused()":"5c975abb","paused(uint8)":"5ac86ab7","pauserRegistry()":"886f1195","registryCoordinator()":"6d14a987","renounceOwnership()":"715018a6","respondToTask((uint256,uint32,uint32,bytes,uint32),(uint32,bytes32,bytes32,bytes32,bytes32),(uint32[],(uint256,uint256)[],(uint256,uint256)[],(uint256[2],uint256[2]),(uint256,uint256),uint32[],uint32[],uint32[][]))":"309b2eb9","setPauserRegistry(address)":"10d67a2f","setStaleStakesForbidden(bool)":"416c7e5e","stakeRegistry()":"68304835","staleStakesForbidden()":"b98d0908","taskNumber()":"72d18e8d","transferOwnership(address)":"f2fde38b","trySignatureAndApkVerification(bytes32,(uint256,uint256),(uint256[2],uint256[2]),(uint256,uint256))":"171f1d5b","unpause(uint256)":"fabc1cbc"},"id":125}