{
	"abi": [
		{
			"inputs": [
				{
					"internalType": "contract IRegistryCoordinator",
					"name": "_registryCoordinator",
					"type": "address"
				},
				{
					"internalType": "uint32",
					"name": "_taskResponseWindowBlock",
					"type": "uint32"
				}
			],
			"stateMutability": "nonpayable",
			"type": "constructor"
		},
		{
			"anonymous": false,
			"inputs": [
				{
					"indexed": false,
					"internalType": "uint8",
					"name": "version",
					"type": "uint8"
				}
			],
			"name": "Initialized",
			"type": "event"
		},
		{
			"anonymous": false,
			"inputs": [
				{
					"indexed": true,
					"internalType": "uint32",
					"name": "taskIndex",
					"type": "uint32"
				},
				{
					"components": [
						{
							"internalType": "uint256",
							"name": "blockNumber",
							"type": "uint256"
						},
						{
							"internalType": "uint32",
							"name": "taskCreatedBlock",
							"type": "uint32"
						},
						{
							"internalType": "bytes",
							"name": "quorumNumbers",
							"type": "bytes"
						},
						{
							"internalType": "uint32",
							"name": "quorumThresholdPercentage",
							"type": "uint32"
						}
					],
					"indexed": false,
					"internalType": "struct IFinalizerTaskManager.Task",
					"name": "task",
					"type": "tuple"
				}
			],
			"name": "NewTaskCreated",
			"type": "event"
		},
		{
			"anonymous": false,
			"inputs": [
				{
					"indexed": true,
					"internalType": "address",
					"name": "previousOwner",
					"type": "address"
				},
				{
					"indexed": true,
					"internalType": "address",
					"name": "newOwner",
					"type": "address"
				}
			],
			"name": "OwnershipTransferred",
			"type": "event"
		},
		{
			"anonymous": false,
			"inputs": [
				{
					"indexed": true,
					"internalType": "address",
					"name": "account",
					"type": "address"
				},
				{
					"indexed": false,
					"internalType": "uint256",
					"name": "newPausedStatus",
					"type": "uint256"
				}
			],
			"name": "Paused",
			"type": "event"
		},
		{
			"anonymous": false,
			"inputs": [
				{
					"indexed": false,
					"internalType": "contract IPauserRegistry",
					"name": "pauserRegistry",
					"type": "address"
				},
				{
					"indexed": false,
					"internalType": "contract IPauserRegistry",
					"name": "newPauserRegistry",
					"type": "address"
				}
			],
			"name": "PauserRegistrySet",
			"type": "event"
		},
		{
			"anonymous": false,
			"inputs": [
				{
					"indexed": false,
					"internalType": "bool",
					"name": "value",
					"type": "bool"
				}
			],
			"name": "StaleStakesForbiddenUpdate",
			"type": "event"
		},
		{
			"anonymous": false,
			"inputs": [
				{
					"indexed": true,
					"internalType": "uint32",
					"name": "taskIndex",
					"type": "uint32"
				},
				{
					"indexed": true,
					"internalType": "bytes32",
					"name": "blockHash",
					"type": "bytes32"
				}
			],
			"name": "TaskCompleted",
			"type": "event"
		},
		{
			"anonymous": false,
			"inputs": [
				{
					"components": [
						{
							"internalType": "uint32",
							"name": "referenceTaskIndex",
							"type": "uint32"
						},
						{
							"internalType": "bytes32",
							"name": "blockHash",
							"type": "bytes32"
						},
						{
							"internalType": "bytes32",
							"name": "storageProofHash",
							"type": "bytes32"
						}
					],
					"indexed": false,
					"internalType": "struct IFinalizerTaskManager.TaskResponse",
					"name": "taskResponse",
					"type": "tuple"
				},
				{
					"components": [
						{
							"internalType": "uint32",
							"name": "taskResponsedBlock",
							"type": "uint32"
						},
						{
							"internalType": "bytes32",
							"name": "hashOfNonSigners",
							"type": "bytes32"
						},
						{
							"internalType": "uint96[]",
							"name": "quroumStakeTotals",
							"type": "uint96[]"
						},
						{
							"internalType": "uint96[]",
							"name": "quroumStakeSigned",
							"type": "uint96[]"
						}
					],
					"indexed": false,
					"internalType": "struct IFinalizerTaskManager.TaskResponseMetadata",
					"name": "taskResponseMetadata",
					"type": "tuple"
				}
			],
			"name": "TaskResponded",
			"type": "event"
		},
		{
			"anonymous": false,
			"inputs": [
				{
					"indexed": true,
					"internalType": "address",
					"name": "account",
					"type": "address"
				},
				{
					"indexed": false,
					"internalType": "uint256",
					"name": "newPausedStatus",
					"type": "uint256"
				}
			],
			"name": "Unpaused",
			"type": "event"
		},
		{
			"inputs": [],
			"name": "aggregator",
			"outputs": [
				{
					"internalType": "address",
					"name": "",
					"type": "address"
				}
			],
			"stateMutability": "view",
			"type": "function"
		},
		{
			"inputs": [
				{
					"internalType": "uint32",
					"name": "",
					"type": "uint32"
				}
			],
			"name": "allTaskHashes",
			"outputs": [
				{
					"internalType": "bytes32",
					"name": "",
					"type": "bytes32"
				}
			],
			"stateMutability": "view",
			"type": "function"
		},
		{
			"inputs": [
				{
					"internalType": "uint32",
					"name": "",
					"type": "uint32"
				}
			],
			"name": "allTaskResponses",
			"outputs": [
				{
					"internalType": "bytes32",
					"name": "",
					"type": "bytes32"
				}
			],
			"stateMutability": "view",
			"type": "function"
		},
		{
			"inputs": [],
			"name": "blsApkRegistry",
			"outputs": [
				{
					"internalType": "contract IBLSApkRegistry",
					"name": "",
					"type": "address"
				}
			],
			"stateMutability": "view",
			"type": "function"
		},
		{
			"inputs": [
				{
					"internalType": "bytes32",
					"name": "msgHash",
					"type": "bytes32"
				},
				{
					"internalType": "bytes",
					"name": "quorumNumbers",
					"type": "bytes"
				},
				{
					"internalType": "uint32",
					"name": "referenceBlockNumber",
					"type": "uint32"
				},
				{
					"components": [
						{
							"internalType": "uint32[]",
							"name": "nonSignerQuorumBitmapIndices",
							"type": "uint32[]"
						},
						{
							"components": [
								{
									"internalType": "uint256",
									"name": "X",
									"type": "uint256"
								},
								{
									"internalType": "uint256",
									"name": "Y",
									"type": "uint256"
								}
							],
							"internalType": "struct BN254.G1Point[]",
							"name": "nonSignerPubkeys",
							"type": "tuple[]"
						},
						{
							"components": [
								{
									"internalType": "uint256",
									"name": "X",
									"type": "uint256"
								},
								{
									"internalType": "uint256",
									"name": "Y",
									"type": "uint256"
								}
							],
							"internalType": "struct BN254.G1Point[]",
							"name": "quorumApks",
							"type": "tuple[]"
						},
						{
							"components": [
								{
									"internalType": "uint256[2]",
									"name": "X",
									"type": "uint256[2]"
								},
								{
									"internalType": "uint256[2]",
									"name": "Y",
									"type": "uint256[2]"
								}
							],
							"internalType": "struct BN254.G2Point",
							"name": "apkG2",
							"type": "tuple"
						},
						{
							"components": [
								{
									"internalType": "uint256",
									"name": "X",
									"type": "uint256"
								},
								{
									"internalType": "uint256",
									"name": "Y",
									"type": "uint256"
								}
							],
							"internalType": "struct BN254.G1Point",
							"name": "sigma",
							"type": "tuple"
						},
						{
							"internalType": "uint32[]",
							"name": "quorumApkIndices",
							"type": "uint32[]"
						},
						{
							"internalType": "uint32[]",
							"name": "totalStakeIndices",
							"type": "uint32[]"
						},
						{
							"internalType": "uint32[][]",
							"name": "nonSignerStakeIndices",
							"type": "uint32[][]"
						}
					],
					"internalType": "struct IBLSSignatureChecker.NonSignerStakesAndSignature",
					"name": "params",
					"type": "tuple"
				}
			],
			"name": "checkSignatures",
			"outputs": [
				{
					"components": [
						{
							"internalType": "uint96[]",
							"name": "signedStakeForQuorum",
							"type": "uint96[]"
						},
						{
							"internalType": "uint96[]",
							"name": "totalStakeForQuorum",
							"type": "uint96[]"
						}
					],
					"internalType": "struct IBLSSignatureChecker.QuorumStakeTotals",
					"name": "",
					"type": "tuple"
				},
				{
					"internalType": "bytes32",
					"name": "",
					"type": "bytes32"
				}
			],
			"stateMutability": "view",
			"type": "function"
		},
		{
			"inputs": [
				{
					"internalType": "uint256",
					"name": "blockNumber",
					"type": "uint256"
				},
				{
					"internalType": "uint32",
					"name": "quorumThresholdPercentage",
					"type": "uint32"
				},
				{
					"internalType": "bytes",
					"name": "quorumNumbers",
					"type": "bytes"
				}
			],
			"name": "createNewTask",
			"outputs": [],
			"stateMutability": "nonpayable",
			"type": "function"
		},
		{
			"inputs": [],
			"name": "delegation",
			"outputs": [
				{
					"internalType": "contract IDelegationManager",
					"name": "",
					"type": "address"
				}
			],
			"stateMutability": "view",
			"type": "function"
		},
		{
			"inputs": [],
			"name": "generator",
			"outputs": [
				{
					"internalType": "address",
					"name": "",
					"type": "address"
				}
			],
			"stateMutability": "view",
			"type": "function"
		},
		{
			"inputs": [
				{
					"internalType": "contract IRegistryCoordinator",
					"name": "registryCoordinator",
					"type": "address"
				},
				{
					"internalType": "uint32",
					"name": "referenceBlockNumber",
					"type": "uint32"
				},
				{
					"internalType": "bytes",
					"name": "quorumNumbers",
					"type": "bytes"
				},
				{
					"internalType": "bytes32[]",
					"name": "nonSignerOperatorIds",
					"type": "bytes32[]"
				}
			],
			"name": "getCheckSignaturesIndices",
			"outputs": [
				{
					"components": [
						{
							"internalType": "uint32[]",
							"name": "nonSignerQuorumBitmapIndices",
							"type": "uint32[]"
						},
						{
							"internalType": "uint32[]",
							"name": "quorumApkIndices",
							"type": "uint32[]"
						},
						{
							"internalType": "uint32[]",
							"name": "totalStakeIndices",
							"type": "uint32[]"
						},
						{
							"internalType": "uint32[][]",
							"name": "nonSignerStakeIndices",
							"type": "uint32[][]"
						}
					],
					"internalType": "struct OperatorStateRetriever.CheckSignaturesIndices",
					"name": "",
					"type": "tuple"
				}
			],
			"stateMutability": "view",
			"type": "function"
		},
		{
			"inputs": [
				{
					"internalType": "contract IRegistryCoordinator",
					"name": "registryCoordinator",
					"type": "address"
				},
				{
					"internalType": "bytes",
					"name": "quorumNumbers",
					"type": "bytes"
				},
				{
					"internalType": "uint32",
					"name": "blockNumber",
					"type": "uint32"
				}
			],
			"name": "getOperatorState",
			"outputs": [
				{
					"components": [
						{
							"internalType": "address",
							"name": "operator",
							"type": "address"
						},
						{
							"internalType": "bytes32",
							"name": "operatorId",
							"type": "bytes32"
						},
						{
							"internalType": "uint96",
							"name": "stake",
							"type": "uint96"
						}
					],
					"internalType": "struct OperatorStateRetriever.Operator[][]",
					"name": "",
					"type": "tuple[][]"
				}
			],
			"stateMutability": "view",
			"type": "function"
		},
		{
			"inputs": [
				{
					"internalType": "contract IRegistryCoordinator",
					"name": "registryCoordinator",
					"type": "address"
				},
				{
					"internalType": "bytes32",
					"name": "operatorId",
					"type": "bytes32"
				},
				{
					"internalType": "uint32",
					"name": "blockNumber",
					"type": "uint32"
				}
			],
			"name": "getOperatorState",
			"outputs": [
				{
					"internalType": "uint256",
					"name": "",
					"type": "uint256"
				},
				{
					"components": [
						{
							"internalType": "address",
							"name": "operator",
							"type": "address"
						},
						{
							"internalType": "bytes32",
							"name": "operatorId",
							"type": "bytes32"
						},
						{
							"internalType": "uint96",
							"name": "stake",
							"type": "uint96"
						}
					],
					"internalType": "struct OperatorStateRetriever.Operator[][]",
					"name": "",
					"type": "tuple[][]"
				}
			],
			"stateMutability": "view",
			"type": "function"
		},
		{
			"inputs": [],
			"name": "getTaskResponseWindowBlock",
			"outputs": [
				{
					"internalType": "uint32",
					"name": "",
					"type": "uint32"
				}
			],
			"stateMutability": "view",
			"type": "function"
		},
		{
			"inputs": [
				{
					"internalType": "contract IPauserRegistry",
					"name": "_pauserRegistry",
					"type": "address"
				},
				{
					"internalType": "address",
					"name": "initialOwner",
					"type": "address"
				},
				{
					"internalType": "address",
					"name": "_aggregator",
					"type": "address"
				},
				{
					"internalType": "address",
					"name": "_generator",
					"type": "address"
				}
			],
			"name": "initialize",
			"outputs": [],
			"stateMutability": "nonpayable",
			"type": "function"
		},
		{
			"inputs": [],
			"name": "latestTaskNum",
			"outputs": [
				{
					"internalType": "uint32",
					"name": "",
					"type": "uint32"
				}
			],
			"stateMutability": "view",
			"type": "function"
		},
		{
			"inputs": [],
			"name": "owner",
			"outputs": [
				{
					"internalType": "address",
					"name": "",
					"type": "address"
				}
			],
			"stateMutability": "view",
			"type": "function"
		},
		{
			"inputs": [
				{
					"internalType": "uint256",
					"name": "newPausedStatus",
					"type": "uint256"
				}
			],
			"name": "pause",
			"outputs": [],
			"stateMutability": "nonpayable",
			"type": "function"
		},
		{
			"inputs": [],
			"name": "pauseAll",
			"outputs": [],
			"stateMutability": "nonpayable",
			"type": "function"
		},
		{
			"inputs": [
				{
					"internalType": "uint8",
					"name": "index",
					"type": "uint8"
				}
			],
			"name": "paused",
			"outputs": [
				{
					"internalType": "bool",
					"name": "",
					"type": "bool"
				}
			],
			"stateMutability": "view",
			"type": "function"
		},
		{
			"inputs": [],
			"name": "paused",
			"outputs": [
				{
					"internalType": "uint256",
					"name": "",
					"type": "uint256"
				}
			],
			"stateMutability": "view",
			"type": "function"
		},
		{
			"inputs": [],
			"name": "pauserRegistry",
			"outputs": [
				{
					"internalType": "contract IPauserRegistry",
					"name": "",
					"type": "address"
				}
			],
			"stateMutability": "view",
			"type": "function"
		},
		{
			"inputs": [],
			"name": "registryCoordinator",
			"outputs": [
				{
					"internalType": "contract IRegistryCoordinator",
					"name": "",
					"type": "address"
				}
			],
			"stateMutability": "view",
			"type": "function"
		},
		{
			"inputs": [],
			"name": "renounceOwnership",
			"outputs": [],
			"stateMutability": "nonpayable",
			"type": "function"
		},
		{
			"inputs": [
				{
					"components": [
						{
							"internalType": "uint256",
							"name": "blockNumber",
							"type": "uint256"
						},
						{
							"internalType": "uint32",
							"name": "taskCreatedBlock",
							"type": "uint32"
						},
						{
							"internalType": "bytes",
							"name": "quorumNumbers",
							"type": "bytes"
						},
						{
							"internalType": "uint32",
							"name": "quorumThresholdPercentage",
							"type": "uint32"
						}
					],
					"internalType": "struct IFinalizerTaskManager.Task",
					"name": "task",
					"type": "tuple"
				},
				{
					"components": [
						{
							"internalType": "uint32",
							"name": "referenceTaskIndex",
							"type": "uint32"
						},
						{
							"internalType": "bytes32",
							"name": "blockHash",
							"type": "bytes32"
						},
						{
							"internalType": "bytes32",
							"name": "storageProofHash",
							"type": "bytes32"
						}
					],
					"internalType": "struct IFinalizerTaskManager.TaskResponse",
					"name": "taskResponse",
					"type": "tuple"
				},
				{
					"components": [
						{
							"internalType": "uint32[]",
							"name": "nonSignerQuorumBitmapIndices",
							"type": "uint32[]"
						},
						{
							"components": [
								{
									"internalType": "uint256",
									"name": "X",
									"type": "uint256"
								},
								{
									"internalType": "uint256",
									"name": "Y",
									"type": "uint256"
								}
							],
							"internalType": "struct BN254.G1Point[]",
							"name": "nonSignerPubkeys",
							"type": "tuple[]"
						},
						{
							"components": [
								{
									"internalType": "uint256",
									"name": "X",
									"type": "uint256"
								},
								{
									"internalType": "uint256",
									"name": "Y",
									"type": "uint256"
								}
							],
							"internalType": "struct BN254.G1Point[]",
							"name": "quorumApks",
							"type": "tuple[]"
						},
						{
							"components": [
								{
									"internalType": "uint256[2]",
									"name": "X",
									"type": "uint256[2]"
								},
								{
									"internalType": "uint256[2]",
									"name": "Y",
									"type": "uint256[2]"
								}
							],
							"internalType": "struct BN254.G2Point",
							"name": "apkG2",
							"type": "tuple"
						},
						{
							"components": [
								{
									"internalType": "uint256",
									"name": "X",
									"type": "uint256"
								},
								{
									"internalType": "uint256",
									"name": "Y",
									"type": "uint256"
								}
							],
							"internalType": "struct BN254.G1Point",
							"name": "sigma",
							"type": "tuple"
						},
						{
							"internalType": "uint32[]",
							"name": "quorumApkIndices",
							"type": "uint32[]"
						},
						{
							"internalType": "uint32[]",
							"name": "totalStakeIndices",
							"type": "uint32[]"
						},
						{
							"internalType": "uint32[][]",
							"name": "nonSignerStakeIndices",
							"type": "uint32[][]"
						}
					],
					"internalType": "struct IBLSSignatureChecker.NonSignerStakesAndSignature",
					"name": "nonSignerStakesAndSignature",
					"type": "tuple"
				}
			],
			"name": "respondToTask",
			"outputs": [],
			"stateMutability": "nonpayable",
			"type": "function"
		},
		{
			"inputs": [
				{
					"internalType": "contract IPauserRegistry",
					"name": "newPauserRegistry",
					"type": "address"
				}
			],
			"name": "setPauserRegistry",
			"outputs": [],
			"stateMutability": "nonpayable",
			"type": "function"
		},
		{
			"inputs": [
				{
					"internalType": "bool",
					"name": "value",
					"type": "bool"
				}
			],
			"name": "setStaleStakesForbidden",
			"outputs": [],
			"stateMutability": "nonpayable",
			"type": "function"
		},
		{
			"inputs": [],
			"name": "stakeRegistry",
			"outputs": [
				{
					"internalType": "contract IStakeRegistry",
					"name": "",
					"type": "address"
				}
			],
			"stateMutability": "view",
			"type": "function"
		},
		{
			"inputs": [],
			"name": "staleStakesForbidden",
			"outputs": [
				{
					"internalType": "bool",
					"name": "",
					"type": "bool"
				}
			],
			"stateMutability": "view",
			"type": "function"
		},
		{
			"inputs": [],
			"name": "taskNumber",
			"outputs": [
				{
					"internalType": "uint32",
					"name": "",
					"type": "uint32"
				}
			],
			"stateMutability": "view",
			"type": "function"
		},
		{
			"inputs": [
				{
					"internalType": "address",
					"name": "newOwner",
					"type": "address"
				}
			],
			"name": "transferOwnership",
			"outputs": [],
			"stateMutability": "nonpayable",
			"type": "function"
		},
		{
			"inputs": [
				{
					"internalType": "bytes32",
					"name": "msgHash",
					"type": "bytes32"
				},
				{
					"components": [
						{
							"internalType": "uint256",
							"name": "X",
							"type": "uint256"
						},
						{
							"internalType": "uint256",
							"name": "Y",
							"type": "uint256"
						}
					],
					"internalType": "struct BN254.G1Point",
					"name": "apk",
					"type": "tuple"
				},
				{
					"components": [
						{
							"internalType": "uint256[2]",
							"name": "X",
							"type": "uint256[2]"
						},
						{
							"internalType": "uint256[2]",
							"name": "Y",
							"type": "uint256[2]"
						}
					],
					"internalType": "struct BN254.G2Point",
					"name": "apkG2",
					"type": "tuple"
				},
				{
					"components": [
						{
							"internalType": "uint256",
							"name": "X",
							"type": "uint256"
						},
						{
							"internalType": "uint256",
							"name": "Y",
							"type": "uint256"
						}
					],
					"internalType": "struct BN254.G1Point",
					"name": "sigma",
					"type": "tuple"
				}
			],
			"name": "trySignatureAndApkVerification",
			"outputs": [
				{
					"internalType": "bool",
					"name": "pairingSuccessful",
					"type": "bool"
				},
				{
					"internalType": "bool",
					"name": "siganatureIsValid",
					"type": "bool"
				}
			],
			"stateMutability": "view",
			"type": "function"
		},
		{
			"inputs": [
				{
					"internalType": "uint256",
					"name": "newPausedStatus",
					"type": "uint256"
				}
			],
			"name": "unpause",
			"outputs": [],
			"stateMutability": "nonpayable",
			"type": "function"
		}
	],
	"bytecode": {
		"object": "0x6101206040523480156200001257600080fd5b50604051620054ed380380620054ed8339810160408190526200003591620001f7565b81806001600160a01b03166080816001600160a01b031681525050806001600160a01b031663683048356040518163ffffffff1660e01b8152600401602060405180830381865afa1580156200008f573d6000803e3d6000fd5b505050506040513d601f19601f82011682018060405250810190620000b591906200023e565b6001600160a01b031660a0816001600160a01b031681525050806001600160a01b0316635df459466040518163ffffffff1660e01b8152600401602060405180830381865afa1580156200010d573d6000803e3d6000fd5b505050506040513d601f19601f820116820180604052508101906200013391906200023e565b6001600160a01b031660c0816001600160a01b03168152505060a0516001600160a01b031663df5cf7236040518163ffffffff1660e01b8152600401602060405180830381865afa1580156200018d573d6000803e3d6000fd5b505050506040513d601f19601f82011682018060405250810190620001b391906200023e565b6001600160a01b031660e052506097805460ff1916600117905563ffffffff16610100525062000265565b6001600160a01b0381168114620001f457600080fd5b50565b600080604083850312156200020b57600080fd5b82516200021881620001de565b602084015190925063ffffffff811681146200023357600080fd5b809150509250929050565b6000602082840312156200025157600080fd5b81516200025e81620001de565b9392505050565b60805160a05160c05160e05161010051615204620002e9600039600081816104e401526107240152600081816104ad01526123a3015260008181610368015261258601526000818161038f0152818161275c015261291e0152600081816103c9015281816111b90152818161206e01528181612206015261244001526152046000f3fe608060405234801561001057600080fd5b50600436106101e55760003560e01c80636b92787e1161010f5780638da5cb5b116100a2578063f2fde38b11610071578063f2fde38b146104cf578063f5c9899d146104e2578063f8c8765e14610508578063fabc1cbc1461051b57600080fd5b80638da5cb5b14610469578063b98d09081461047a578063cefdc1d414610487578063df5cf723146104a857600080fd5b806372d18e8d116100de57806372d18e8d146104145780637afa1eed14610433578063886f1195146104465780638b00ce7c1461045957600080fd5b80636b92787e146103b15780636d14a987146103c45780636efb4636146103eb578063715018a61461040c57600080fd5b80633563b0d1116101875780635ac86ab7116101565780635ac86ab7146103285780635c975abb1461035b5780635df4594614610363578063683048351461038a57600080fd5b80633563b0d1146102cd578063416c7e5e146102ed5780634f739f7414610300578063595c6a671461032057600080fd5b8063171f1d5b116101c3578063171f1d5b14610225578063245a7bfc146102545780632cb223d51461027f5780632d89f6fc146102ad57600080fd5b806303739ced146101ea57806310d67a2f146101ff578063136439dd14610212575b600080fd5b6101fd6101f83660046142b0565b61052e565b005b6101fd61020d36600461434d565b6109a5565b6101fd61022036600461436a565b610a58565b610238610233366004614383565b610b97565b6040805192151583529015156020830152015b60405180910390f35b60cc54610267906001600160a01b031681565b6040516001600160a01b03909116815260200161024b565b61029f61028d3660046143d4565b60cb6020526000908152604090205481565b60405190815260200161024b565b61029f6102bb3660046143d4565b60ca6020526000908152604090205481565b6102e06102db3660046143f1565b610d21565b60405161024b919061454c565b6101fd6102fb366004614574565b6111b7565b61031361030e3660046145d9565b61132c565b60405161024b91906146dd565b6101fd611a52565b61034b6103363660046147a7565b606654600160ff9092169190911b9081161490565b604051901515815260200161024b565b60665461029f565b6102677f000000000000000000000000000000000000000000000000000000000000000081565b6102677f000000000000000000000000000000000000000000000000000000000000000081565b6101fd6103bf3660046147c4565b611b19565b6102677f000000000000000000000000000000000000000000000000000000000000000081565b6103fe6103f936600461481f565b611cba565b60405161024b9291906148df565b6101fd612bd3565b60c95463ffffffff165b60405163ffffffff909116815260200161024b565b60cd54610267906001600160a01b031681565b606554610267906001600160a01b031681565b60c95461041e9063ffffffff1681565b6033546001600160a01b0316610267565b60975461034b9060ff1681565b61049a610495366004614928565b612be7565b60405161024b92919061496a565b6102677f000000000000000000000000000000000000000000000000000000000000000081565b6101fd6104dd36600461434d565b612d79565b7f000000000000000000000000000000000000000000000000000000000000000061041e565b6101fd61051636600461498b565b612def565b6101fd61052936600461436a565b612f40565b60cc546001600160a01b0316331461058d5760405162461bcd60e51b815260206004820152601d60248201527f41676772656761746f72206d757374206265207468652063616c6c657200000060448201526064015b60405180910390fd5b600061059f60408501602086016143d4565b90503660006105b160408701876149e7565b909250905060006105c860808801606089016143d4565b905060ca60006105db60208901896143d4565b63ffffffff1663ffffffff16815260200190815260200160002054876040516020016106079190614a56565b60405160208183030381529060405280519060200120146106905760405162461bcd60e51b815260206004820152603d60248201527f737570706c696564207461736b20646f6573206e6f74206d617463682074686560448201527f206f6e65207265636f7264656420696e2074686520636f6e74726163740000006064820152608401610584565b600060cb816106a260208a018a6143d4565b63ffffffff1663ffffffff168152602001908152602001600020541461071f5760405162461bcd60e51b815260206004820152602c60248201527f41676772656761746f722068617320616c726561647920726573706f6e64656460448201526b20746f20746865207461736b60a01b6064820152608401610584565b6107497f000000000000000000000000000000000000000000000000000000000000000085614b0d565b63ffffffff164363ffffffff1611156107ba5760405162461bcd60e51b815260206004820152602d60248201527f41676772656761746f722068617320726573706f6e64656420746f207468652060448201526c7461736b20746f6f206c61746560981b6064820152608401610584565b6000866040516020016107cd9190614b5d565b6040516020818303038152906040528051906020012090506000806107f58387878a8c611cba565b6040805160808101825263ffffffff43168152602080820184905280850151828401528451606083015291519395509193509091610837918c91849101614b6b565b6040516020818303038152906040528051906020012060cb60008c600001602081019061086491906143d4565b63ffffffff1663ffffffff168152602001908152602001600020819055507faa796d05d7434c9b5a6893172ada8af01bb60ba8488ce2272bfa24f3c0692b658a826040516108b3929190614b6b565b60405180910390a160005b86811015610954578560ff16846020015182815181106108e0576108e0614bd6565b60200260200101516108f29190614bec565b6001600160601b031660648560000151838151811061091357610913614bd6565b60200260200101516001600160601b031661092e9190614c1b565b101561094257505050505050505050505050565b8061094c81614c3a565b9150506108be565b5060208a01803590610966908c6143d4565b63ffffffff167f8378be8a33cf3a493910a16e275cd96af4f048c5eb1a2c2962d4066e697fea8060405160405180910390a35050505050505050505050565b606560009054906101000a90046001600160a01b03166001600160a01b031663eab66d7a6040518163ffffffff1660e01b8152600401602060405180830381865afa1580156109f8573d6000803e3d6000fd5b505050506040513d601f19601f82011682018060405250810190610a1c9190614c55565b6001600160a01b0316336001600160a01b031614610a4c5760405162461bcd60e51b815260040161058490614c72565b610a558161309c565b50565b60655460405163237dfb4760e11b81523360048201526001600160a01b03909116906346fbf68e90602401602060405180830381865afa158015610aa0573d6000803e3d6000fd5b505050506040513d601f19601f82011682018060405250810190610ac49190614cbc565b610ae05760405162461bcd60e51b815260040161058490614cd9565b60665481811614610b595760405162461bcd60e51b815260206004820152603860248201527f5061757361626c652e70617573653a20696e76616c696420617474656d70742060448201527f746f20756e70617573652066756e6374696f6e616c69747900000000000000006064820152608401610584565b606681905560405181815233907fab40a374bc51de372200a8bc981af8c9ecdc08dfdaef0bb6e09f88f3c616ef3d906020015b60405180910390a250565b60008060007f30644e72e131a029b85045b68181585d2833e84879b9709143e1f593f000000187876000015188602001518860000151600060028110610bdf57610bdf614bd6565b60200201518951600160200201518a60200151600060028110610c0457610c04614bd6565b60200201518b60200151600160028110610c2057610c20614bd6565b602090810291909101518c518d830151604051610c7d9a99989796959401988952602089019790975260408801959095526060870193909352608086019190915260a085015260c084015260e08301526101008201526101200190565b6040516020818303038152906040528051906020012060001c610ca09190614d21565b9050610d13610cb9610cb28884613193565b869061322a565b610cc16132be565b610d09610cfa85610cf4604080518082018252600080825260209182015281518083019092526001825260029082015290565b90613193565b610d038c61337e565b9061322a565b886201d4c061340e565b909890975095505050505050565b60606000846001600160a01b031663683048356040518163ffffffff1660e01b8152600401602060405180830381865afa158015610d63573d6000803e3d6000fd5b505050506040513d601f19601f82011682018060405250810190610d879190614c55565b90506000856001600160a01b0316639e9923c26040518163ffffffff1660e01b8152600401602060405180830381865afa158015610dc9573d6000803e3d6000fd5b505050506040513d601f19601f82011682018060405250810190610ded9190614c55565b90506000866001600160a01b0316635df459466040518163ffffffff1660e01b8152600401602060405180830381865afa158015610e2f573d6000803e3d6000fd5b505050506040513d601f19601f82011682018060405250810190610e539190614c55565b9050600086516001600160401b03811115610e7057610e70613e8a565b604051908082528060200260200182016040528015610ea357816020015b6060815260200190600190039081610e8e5790505b50905060005b87518110156111ab576000888281518110610ec657610ec6614bd6565b0160200151604051638902624560e01b815260f89190911c6004820181905263ffffffff8a16602483015291506000906001600160a01b03871690638902624590604401600060405180830381865afa158015610f27573d6000803e3d6000fd5b505050506040513d6000823e601f3d908101601f19168201604052610f4f9190810190614d43565b905080516001600160401b03811115610f6a57610f6a613e8a565b604051908082528060200260200182016040528015610fb557816020015b6040805160608101825260008082526020808301829052928201528252600019909201910181610f885790505b50848481518110610fc857610fc8614bd6565b602002602001018190525060005b8151811015611195576040518060600160405280876001600160a01b03166347b314e885858151811061100b5761100b614bd6565b60200260200101516040518263ffffffff1660e01b815260040161103191815260200190565b602060405180830381865afa15801561104e573d6000803e3d6000fd5b505050506040513d601f19601f820116820180604052508101906110729190614c55565b6001600160a01b0316815260200183838151811061109257611092614bd6565b60200260200101518152602001896001600160a01b031663fa28c6278585815181106110c0576110c0614bd6565b60209081029190910101516040516001600160e01b031960e084901b168152600481019190915260ff8816602482015263ffffffff8f166044820152606401602060405180830381865afa15801561111c573d6000803e3d6000fd5b505050506040513d601f19601f820116820180604052508101906111409190614dd3565b6001600160601b031681525085858151811061115e5761115e614bd6565b6020026020010151828151811061117757611177614bd6565b6020026020010181905250808061118d90614c3a565b915050610fd6565b50505080806111a390614c3a565b915050610ea9565b50979650505050505050565b7f00000000000000000000000000000000000000000000000000000000000000006001600160a01b0316638da5cb5b6040518163ffffffff1660e01b8152600401602060405180830381865afa158015611215573d6000803e3d6000fd5b505050506040513d601f19601f820116820180604052508101906112399190614c55565b6001600160a01b0316336001600160a01b0316146112e55760405162461bcd60e51b815260206004820152605c60248201527f424c535369676e6174757265436865636b65722e6f6e6c79436f6f7264696e6160448201527f746f724f776e65723a2063616c6c6572206973206e6f7420746865206f776e6560648201527f72206f6620746865207265676973747279436f6f7264696e61746f7200000000608482015260a401610584565b6097805460ff19168215159081179091556040519081527f40e4ed880a29e0f6ddce307457fb75cddf4feef7d3ecb0301bfdf4976a0e2dfc9060200160405180910390a150565b6113576040518060800160405280606081526020016060815260200160608152602001606081525090565b6000876001600160a01b031663683048356040518163ffffffff1660e01b8152600401602060405180830381865afa158015611397573d6000803e3d6000fd5b505050506040513d601f19601f820116820180604052508101906113bb9190614c55565b90506113e86040518060800160405280606081526020016060815260200160608152602001606081525090565b6040516361c8a12f60e11b81526001600160a01b038a169063c391425e90611418908b9089908990600401614dfc565b600060405180830381865afa158015611435573d6000803e3d6000fd5b505050506040513d6000823e601f3d908101601f1916820160405261145d9190810190614e46565b81526040516340e03a8160e11b81526001600160a01b038316906381c075029061148f908b908b908b90600401614ed4565b600060405180830381865afa1580156114ac573d6000803e3d6000fd5b505050506040513d6000823e601f3d908101601f191682016040526114d49190810190614e46565b6040820152856001600160401b038111156114f1576114f1613e8a565b60405190808252806020026020018201604052801561152457816020015b606081526020019060019003908161150f5790505b50606082015260005b60ff8116871115611963576000856001600160401b0381111561155257611552613e8a565b60405190808252806020026020018201604052801561157b578160200160208202803683370190505b5083606001518360ff168151811061159557611595614bd6565b602002602001018190525060005b868110156118635760008c6001600160a01b03166304ec63518a8a858181106115ce576115ce614bd6565b905060200201358e886000015186815181106115ec576115ec614bd6565b60200260200101516040518463ffffffff1660e01b81526004016116299392919092835263ffffffff918216602084015216604082015260600190565b602060405180830381865afa158015611646573d6000803e3d6000fd5b505050506040513d601f19601f8201168201806040525081019061166a9190614efd565b90506001600160c01b03811661170e5760405162461bcd60e51b815260206004820152605c60248201527f4f70657261746f7253746174655265747269657665722e676574436865636b5360448201527f69676e617475726573496e64696365733a206f70657261746f72206d7573742060648201527f6265207265676973746572656420617420626c6f636b6e756d62657200000000608482015260a401610584565b8a8a8560ff1681811061172357611723614bd6565b6001600160c01b03841692013560f81c9190911c60019081161415905061185057856001600160a01b031663dd9846b98a8a8581811061176557611765614bd6565b905060200201358d8d8860ff1681811061178157611781614bd6565b6040516001600160e01b031960e087901b1681526004810194909452919091013560f81c60248301525063ffffffff8f166044820152606401602060405180830381865afa1580156117d7573d6000803e3d6000fd5b505050506040513d601f19601f820116820180604052508101906117fb9190614f26565b85606001518560ff168151811061181457611814614bd6565b6020026020010151848151811061182d5761182d614bd6565b63ffffffff909216602092830291909101909101528261184c81614c3a565b9350505b508061185b81614c3a565b9150506115a3565b506000816001600160401b0381111561187e5761187e613e8a565b6040519080825280602002602001820160405280156118a7578160200160208202803683370190505b50905060005b828110156119285784606001518460ff16815181106118ce576118ce614bd6565b602002602001015181815181106118e7576118e7614bd6565b602002602001015182828151811061190157611901614bd6565b63ffffffff909216602092830291909101909101528061192081614c3a565b9150506118ad565b508084606001518460ff168151811061194357611943614bd6565b60200260200101819052505050808061195b90614f43565b91505061152d565b506000896001600160a01b0316635df459466040518163ffffffff1660e01b8152600401602060405180830381865afa1580156119a4573d6000803e3d6000fd5b505050506040513d601f19601f820116820180604052508101906119c89190614c55565b60405163354952a360e21b81529091506001600160a01b0382169063d5254a8c906119fb908b908b908e90600401614f63565b600060405180830381865afa158015611a18573d6000803e3d6000fd5b505050506040513d6000823e601f3d908101601f19168201604052611a409190810190614e46565b60208301525098975050505050505050565b60655460405163237dfb4760e11b81523360048201526001600160a01b03909116906346fbf68e90602401602060405180830381865afa158015611a9a573d6000803e3d6000fd5b505050506040513d601f19601f82011682018060405250810190611abe9190614cbc565b611ada5760405162461bcd60e51b815260040161058490614cd9565b600019606681905560405190815233907fab40a374bc51de372200a8bc981af8c9ecdc08dfdaef0bb6e09f88f3c616ef3d9060200160405180910390a2565b60cd546001600160a01b03163314611b7d5760405162461bcd60e51b815260206004820152602160248201527f5461736b2067656e657261746f72206d757374206265207468652063616c6c656044820152603960f91b6064820152608401610584565b611bb4604051806080016040528060008152602001600063ffffffff16815260200160608152602001600063ffffffff1681525090565b84815263ffffffff438116602080840191909152908516606083015260408051601f850183900483028101830190915283815290849084908190840183828082843760009201919091525050505060408083019190915251611c1a908290602001614f8d565b60408051601f19818403018152828252805160209182012060c9805463ffffffff908116600090815260ca90945293909220555416907f1695b8d06ec800b4615e745cfb5bd00c1f2875615d42925c3b5afa543bb24c4890611c7d908490614f8d565b60405180910390a260c954611c999063ffffffff166001614b0d565b60c9805463ffffffff191663ffffffff929092169190911790555050505050565b6040805180820190915260608082526020820152600084611d315760405162461bcd60e51b815260206004820152603760248201526000805160206151af83398151915260448201527f7265733a20656d7074792071756f72756d20696e7075740000000000000000006064820152608401610584565b60408301515185148015611d49575060a08301515185145b8015611d59575060c08301515185145b8015611d69575060e08301515185145b611dd35760405162461bcd60e51b815260206004820152604160248201526000805160206151af83398151915260448201527f7265733a20696e7075742071756f72756d206c656e677468206d69736d6174636064820152600d60fb1b608482015260a401610584565b82515160208401515114611e4b5760405162461bcd60e51b8152602060048201526044602482018190526000805160206151af833981519152908201527f7265733a20696e707574206e6f6e7369676e6572206c656e677468206d69736d6064820152630c2e8c6d60e31b608482015260a401610584565b4363ffffffff168463ffffffff161115611ebb5760405162461bcd60e51b815260206004820152603c60248201526000805160206151af83398151915260448201527f7265733a20696e76616c6964207265666572656e636520626c6f636b000000006064820152608401610584565b6040805180820182526000808252602080830191909152825180840190935260608084529083015290866001600160401b03811115611efc57611efc613e8a565b604051908082528060200260200182016040528015611f25578160200160208202803683370190505b506020820152866001600160401b03811115611f4357611f43613e8a565b604051908082528060200260200182016040528015611f6c578160200160208202803683370190505b50815260408051808201909152606080825260208201528560200151516001600160401b03811115611fa057611fa0613e8a565b604051908082528060200260200182016040528015611fc9578160200160208202803683370190505b5081526020860151516001600160401b03811115611fe957611fe9613e8a565b604051908082528060200260200182016040528015612012578160200160208202803683370190505b50816020018190525060006120e48a8a8080601f0160208091040260200160405190810160405280939291908181526020018383808284376000920191909152505060408051639aa1653d60e01b815290516001600160a01b037f0000000000000000000000000000000000000000000000000000000000000000169350639aa1653d925060048083019260209291908290030181865afa1580156120bb573d6000803e3d6000fd5b505050506040513d601f19601f820116820180604052508101906120df9190615018565b613632565b905060005b87602001515181101561237f5761212e8860200151828151811061210f5761210f614bd6565b6020026020010151805160009081526020918201519091526040902090565b8360200151828151811061214457612144614bd6565b60209081029190910101528015612204576020830151612165600183615035565b8151811061217557612175614bd6565b602002602001015160001c8360200151828151811061219657612196614bd6565b602002602001015160001c11612204576040805162461bcd60e51b81526020600482015260248101919091526000805160206151af83398151915260448201527f7265733a206e6f6e5369676e65725075626b657973206e6f7420736f727465646064820152608401610584565b7f00000000000000000000000000000000000000000000000000000000000000006001600160a01b03166304ec63518460200151838151811061224957612249614bd6565b60200260200101518b8b60000151858151811061226857612268614bd6565b60200260200101516040518463ffffffff1660e01b81526004016122a59392919092835263ffffffff918216602084015216604082015260600190565b602060405180830381865afa1580156122c2573d6000803e3d6000fd5b505050506040513d601f19601f820116820180604052508101906122e69190614efd565b6001600160c01b03168360000151828151811061230557612305614bd6565b60200260200101818152505061236b610cb261233f848660000151858151811061233157612331614bd6565b6020026020010151166136ed565b8a60200151848151811061235557612355614bd6565b602002602001015161371890919063ffffffff16565b94508061237781614c3a565b9150506120e9565b505061238a836137fc565b60975490935060ff166000816123a1576000612423565b7f00000000000000000000000000000000000000000000000000000000000000006001600160a01b031663c448feb86040518163ffffffff1660e01b8152600401602060405180830381865afa1580156123ff573d6000803e3d6000fd5b505050506040513d601f19601f82011682018060405250810190612423919061504c565b905060005b8a811015612aa2578215612584578963ffffffff16827f00000000000000000000000000000000000000000000000000000000000000006001600160a01b031663249a0c428f8f8681811061247f5761247f614bd6565b60405160e085901b6001600160e01b031916815292013560f81c600483015250602401602060405180830381865afa1580156124bf573d6000803e3d6000fd5b505050506040513d601f19601f820116820180604052508101906124e3919061504c565b6124ed9190615065565b10156125845760405162461bcd60e51b815260206004820152606660248201526000805160206151af83398151915260448201527f7265733a205374616b6552656769737472792075706461746573206d7573742060648201527f62652077697468696e207769746864726177616c44656c6179426c6f636b732060848201526577696e646f7760d01b60a482015260c401610584565b7f00000000000000000000000000000000000000000000000000000000000000006001600160a01b03166368bccaac8d8d848181106125c5576125c5614bd6565b9050013560f81c60f81b60f81c8c8c60a0015185815181106125e9576125e9614bd6565b60209081029190910101516040516001600160e01b031960e086901b16815260ff909316600484015263ffffffff9182166024840152166044820152606401602060405180830381865afa158015612645573d6000803e3d6000fd5b505050506040513d601f19601f82011682018060405250810190612669919061507d565b6001600160401b03191661268c8a60400151838151811061210f5761210f614bd6565b67ffffffffffffffff1916146127285760405162461bcd60e51b815260206004820152606160248201526000805160206151af83398151915260448201527f7265733a2071756f72756d41706b206861736820696e2073746f72616765206460648201527f6f6573206e6f74206d617463682070726f76696465642071756f72756d2061706084820152606b60f81b60a482015260c401610584565b6127588960400151828151811061274157612741614bd6565b60200260200101518761322a90919063ffffffff16565b95507f00000000000000000000000000000000000000000000000000000000000000006001600160a01b031663c8294c568d8d8481811061279b5761279b614bd6565b9050013560f81c60f81b60f81c8c8c60c0015185815181106127bf576127bf614bd6565b60209081029190910101516040516001600160e01b031960e086901b16815260ff909316600484015263ffffffff9182166024840152166044820152606401602060405180830381865afa15801561281b573d6000803e3d6000fd5b505050506040513d601f19601f8201168201806040525081019061283f9190614dd3565b8560200151828151811061285557612855614bd6565b6001600160601b0390921660209283029190910182015285015180518290811061288157612881614bd6565b60200260200101518560000151828151811061289f5761289f614bd6565b60200260200101906001600160601b031690816001600160601b0316815250506000805b8a6020015151811015612a8d57612917866000015182815181106128e9576128e9614bd6565b60200260200101518f8f8681811061290357612903614bd6565b600192013560f81c9290921c811614919050565b15612a7b577f00000000000000000000000000000000000000000000000000000000000000006001600160a01b031663f2be94ae8f8f8681811061295d5761295d614bd6565b9050013560f81c60f81b60f81c8e8960200151858151811061298157612981614bd6565b60200260200101518f60e00151888151811061299f5761299f614bd6565b602002602001015187815181106129b8576129b8614bd6565b60209081029190910101516040516001600160e01b031960e087901b16815260ff909416600485015263ffffffff92831660248501526044840191909152166064820152608401602060405180830381865afa158015612a1c573d6000803e3d6000fd5b505050506040513d601f19601f82011682018060405250810190612a409190614dd3565b8751805185908110612a5457612a54614bd6565b60200260200101818151612a6891906150a8565b6001600160601b03169052506001909101905b80612a8581614c3a565b9150506128c3565b50508080612a9a90614c3a565b915050612428565b505050600080612abc8c868a606001518b60800151610b97565b9150915081612b2d5760405162461bcd60e51b815260206004820152604360248201526000805160206151af83398151915260448201527f7265733a2070616972696e6720707265636f6d70696c652063616c6c206661696064820152621b195960ea1b608482015260a401610584565b80612b8e5760405162461bcd60e51b815260206004820152603960248201526000805160206151af83398151915260448201527f7265733a207369676e617475726520697320696e76616c6964000000000000006064820152608401610584565b50506000878260200151604051602001612ba99291906150d0565b60408051808303601f190181529190528051602090910120929b929a509198505050505050505050565b612bdb613897565b612be560006138f1565b565b6040805160018082528183019092526000916060918391602080830190803683370190505090508481600081518110612c2257612c22614bd6565b60209081029190910101526040516361c8a12f60e11b81526000906001600160a01b0388169063c391425e90612c5e9088908690600401615118565b600060405180830381865afa158015612c7b573d6000803e3d6000fd5b505050506040513d6000823e601f3d908101601f19168201604052612ca39190810190614e46565b600081518110612cb557612cb5614bd6565b60209081029190910101516040516304ec635160e01b81526004810188905263ffffffff87811660248301529091166044820181905291506000906001600160a01b038916906304ec635190606401602060405180830381865afa158015612d21573d6000803e3d6000fd5b505050506040513d601f19601f82011682018060405250810190612d459190614efd565b6001600160c01b031690506000612d5b82613943565b905081612d698a838a610d21565b9550955050505050935093915050565b612d81613897565b6001600160a01b038116612de65760405162461bcd60e51b815260206004820152602660248201527f4f776e61626c653a206e6577206f776e657220697320746865207a65726f206160448201526564647265737360d01b6064820152608401610584565b610a55816138f1565b600054610100900460ff1615808015612e0f5750600054600160ff909116105b80612e295750303b158015612e29575060005460ff166001145b612e8c5760405162461bcd60e51b815260206004820152602e60248201527f496e697469616c697a61626c653a20636f6e747261637420697320616c72656160448201526d191e481a5b9a5d1a585b1a5e995960921b6064820152608401610584565b6000805460ff191660011790558015612eaf576000805461ff0019166101001790555b612eba856000613a0f565b612ec3846138f1565b60cc80546001600160a01b038086166001600160a01b03199283161790925560cd8054928516929091169190911790558015612f39576000805461ff0019169055604051600181527f7f26b83ff96e1f2b6a682f133852f6798a09c465da95921460cefb38474024989060200160405180910390a15b5050505050565b606560009054906101000a90046001600160a01b03166001600160a01b031663eab66d7a6040518163ffffffff1660e01b8152600401602060405180830381865afa158015612f93573d6000803e3d6000fd5b505050506040513d601f19601f82011682018060405250810190612fb79190614c55565b6001600160a01b0316336001600160a01b031614612fe75760405162461bcd60e51b815260040161058490614c72565b6066541981196066541916146130655760405162461bcd60e51b815260206004820152603860248201527f5061757361626c652e756e70617573653a20696e76616c696420617474656d7060448201527f7420746f2070617573652066756e6374696f6e616c69747900000000000000006064820152608401610584565b606681905560405181815233907f3582d1828e26bf56bd801502bc021ac0bc8afb57c826e4986b45593c8fad389c90602001610b8c565b6001600160a01b03811661312a5760405162461bcd60e51b815260206004820152604960248201527f5061757361626c652e5f73657450617573657252656769737472793a206e657760448201527f50617573657252656769737472792063616e6e6f7420626520746865207a65726064820152686f206164647265737360b81b608482015260a401610584565b606554604080516001600160a01b03928316815291831660208301527f6e9fcd539896fca60e8b0f01dd580233e48a6b0f7df013b89ba7f565869acdb6910160405180910390a1606580546001600160a01b0319166001600160a01b0392909216919091179055565b60408051808201909152600080825260208201526131af613db0565b835181526020808501519082015260408082018490526000908360608460076107d05a03fa90508080156131e2576131e4565bfe5b50806132225760405162461bcd60e51b815260206004820152600d60248201526c1958cb5b5d5b0b59985a5b1959609a1b6044820152606401610584565b505092915050565b6040805180820190915260008082526020820152613246613dce565b835181526020808501518183015283516040808401919091529084015160608301526000908360808460066107d05a03fa90508080156131e25750806132225760405162461bcd60e51b815260206004820152600d60248201526c1958cb5859190b59985a5b1959609a1b6044820152606401610584565b6132c6613dec565b50604080516080810182527f198e9393920d483a7260bfb731fb5d25f1aa493335a9e71297e485b7aef312c28183019081527f1800deef121f1e76426a00665e5c4479674322d4f75edadd46debd5cd992f6ed6060830152815281518083019092527f275dc4a288d1afb3cbb1ac09187524c7db36395df7be3b99e673b13a075a65ec82527f1d9befcd05a5323e6da4d435f3b617cdb3af83285c2df711ef39c01571827f9d60208381019190915281019190915290565b6040805180820190915260008082526020820152600080806133ae60008051602061518f83398151915286614d21565b90505b6133ba81613af9565b909350915060008051602061518f8339815191528283098314156133f4576040805180820190915290815260208101919091529392505050565b60008051602061518f8339815191526001820890506133b1565b604080518082018252868152602080820186905282518084019093528683528201849052600091829190613440613e11565b60005b6002811015613605576000613459826006614c1b565b905084826002811061346d5761346d614bd6565b6020020151518361347f836000615065565b600c811061348f5761348f614bd6565b60200201528482600281106134a6576134a6614bd6565b602002015160200151838260016134bd9190615065565b600c81106134cd576134cd614bd6565b60200201528382600281106134e4576134e4614bd6565b60200201515151836134f7836002615065565b600c811061350757613507614bd6565b602002015283826002811061351e5761351e614bd6565b6020020151516001602002015183613537836003615065565b600c811061354757613547614bd6565b602002015283826002811061355e5761355e614bd6565b60200201516020015160006002811061357957613579614bd6565b60200201518361358a836004615065565b600c811061359a5761359a614bd6565b60200201528382600281106135b1576135b1614bd6565b6020020151602001516001600281106135cc576135cc614bd6565b6020020151836135dd836005615065565b600c81106135ed576135ed614bd6565b602002015250806135fd81614c3a565b915050613443565b5061360e613e30565b60006020826101808560088cfa9151919c9115159b50909950505050505050505050565b60008061363e84613b7b565b905080156136e4578260ff1684600186516136599190615035565b8151811061366957613669614bd6565b016020015160f81c106136e45760405162461bcd60e51b815260206004820152603f60248201527f4269746d61705574696c732e6f72646572656442797465734172726179546f4260448201527f69746d61703a206269746d61702065786365656473206d61782076616c7565006064820152608401610584565b90505b92915050565b6000805b82156136e757613702600184615035565b90921691806137108161516c565b9150506136f1565b60408051808201909152600080825260208201526102008261ffff16106137745760405162461bcd60e51b815260206004820152601060248201526f7363616c61722d746f6f2d6c6172676560801b6044820152606401610584565b8161ffff16600114156137885750816136e7565b6040805180820190915260008082526020820181905284906001905b8161ffff168661ffff16106137f157600161ffff871660ff83161c811614156137d4576137d1848461322a565b93505b6137de838461322a565b92506201fffe600192831b1691016137a4565b509195945050505050565b6040805180820190915260008082526020820152815115801561382157506020820151155b1561383f575050604080518082019091526000808252602082015290565b60405180604001604052808360000151815260200160008051602061518f83398151915284602001516138729190614d21565b61388a9060008051602061518f833981519152615035565b905292915050565b919050565b6033546001600160a01b03163314612be55760405162461bcd60e51b815260206004820181905260248201527f4f776e61626c653a2063616c6c6572206973206e6f7420746865206f776e65726044820152606401610584565b603380546001600160a01b038381166001600160a01b0319831681179093556040519116919082907f8be0079c531659141344cd1fd0a4f28419497f9722a3daafe3b4186f6b6457e090600090a35050565b6060600080613951846136ed565b61ffff166001600160401b0381111561396c5761396c613e8a565b6040519080825280601f01601f191660200182016040528015613996576020820181803683370190505b5090506000805b8251821080156139ae575061010081105b15613a05576001811b9350858416156139f5578060f81b8383815181106139d7576139d7614bd6565b60200101906001600160f81b031916908160001a9053508160010191505b6139fe81614c3a565b905061399d565b5090949350505050565b6065546001600160a01b0316158015613a3057506001600160a01b03821615155b613ab25760405162461bcd60e51b815260206004820152604760248201527f5061757361626c652e5f696e697469616c697a655061757365723a205f696e6960448201527f7469616c697a6550617573657228292063616e206f6e6c792062652063616c6c6064820152666564206f6e636560c81b608482015260a401610584565b606681905560405181815233907fab40a374bc51de372200a8bc981af8c9ecdc08dfdaef0bb6e09f88f3c616ef3d9060200160405180910390a2613af58261309c565b5050565b6000808060008051602061518f833981519152600360008051602061518f8339815191528660008051602061518f833981519152888909090890506000613b6f827f0c19139cb84c680a6e14116da060561765e05aa45a1c72a34f082305b61f3f5260008051602061518f833981519152613d08565b91959194509092505050565b600061010082511115613c045760405162461bcd60e51b8152602060048201526044602482018190527f4269746d61705574696c732e6f72646572656442797465734172726179546f42908201527f69746d61703a206f7264657265644279746573417272617920697320746f6f206064820152636c6f6e6760e01b608482015260a401610584565b8151613c1257506000919050565b60008083600081518110613c2857613c28614bd6565b0160200151600160f89190911c81901b92505b8451811015613cff57848181518110613c5657613c56614bd6565b0160200151600160f89190911c1b9150828211613ceb5760405162461bcd60e51b815260206004820152604760248201527f4269746d61705574696c732e6f72646572656442797465734172726179546f4260448201527f69746d61703a206f72646572656442797465734172726179206973206e6f74206064820152661bdc99195c995960ca1b608482015260a401610584565b91811791613cf881614c3a565b9050613c3b565b50909392505050565b600080613d13613e30565b613d1b613e4e565b602080825281810181905260408201819052606082018890526080820187905260a082018690528260c08360056107d05a03fa92508280156131e2575082613da55760405162461bcd60e51b815260206004820152601a60248201527f424e3235342e6578704d6f643a2063616c6c206661696c7572650000000000006044820152606401610584565b505195945050505050565b60405180606001604052806003906020820280368337509192915050565b60405180608001604052806004906020820280368337509192915050565b6040518060400160405280613dff613e6c565b8152602001613e0c613e6c565b905290565b604051806101800160405280600c906020820280368337509192915050565b60405180602001604052806001906020820280368337509192915050565b6040518060c001604052806006906020820280368337509192915050565b60405180604001604052806002906020820280368337509192915050565b634e487b7160e01b600052604160045260246000fd5b604080519081016001600160401b0381118282101715613ec257613ec2613e8a565b60405290565b60405161010081016001600160401b0381118282101715613ec257613ec2613e8a565b604051601f8201601f191681016001600160401b0381118282101715613f1357613f13613e8a565b604052919050565b60006001600160401b03821115613f3457613f34613e8a565b5060051b60200190565b63ffffffff81168114610a5557600080fd5b803561389281613f3e565b600082601f830112613f6c57600080fd5b81356020613f81613f7c83613f1b565b613eeb565b82815260059290921b84018101918181019086841115613fa057600080fd5b8286015b84811015613fc4578035613fb781613f3e565b8352918301918301613fa4565b509695505050505050565b600060408284031215613fe157600080fd5b613fe9613ea0565b9050813581526020820135602082015292915050565b600082601f83011261401057600080fd5b81356020614020613f7c83613f1b565b82815260069290921b8401810191818101908684111561403f57600080fd5b8286015b84811015613fc4576140558882613fcf565b835291830191604001614043565b600082601f83011261407457600080fd5b604051604081018181106001600160401b038211171561409657614096613e8a565b80604052508060408401858111156140ad57600080fd5b845b818110156137f15780358352602092830192016140af565b6000608082840312156140d957600080fd5b6140e1613ea0565b90506140ed8383614063565b81526140fc8360408401614063565b602082015292915050565b600082601f83011261411857600080fd5b81356020614128613f7c83613f1b565b82815260059290921b8401810191818101908684111561414757600080fd5b8286015b84811015613fc45780356001600160401b0381111561416a5760008081fd5b6141788986838b0101613f5b565b84525091830191830161414b565b6000610180828403121561419957600080fd5b6141a1613ec8565b905081356001600160401b03808211156141ba57600080fd5b6141c685838601613f5b565b835260208401359150808211156141dc57600080fd5b6141e885838601613fff565b6020840152604084013591508082111561420157600080fd5b61420d85838601613fff565b604084015261421f85606086016140c7565b60608401526142318560e08601613fcf565b608084015261012084013591508082111561424b57600080fd5b61425785838601613f5b565b60a084015261014084013591508082111561427157600080fd5b61427d85838601613f5b565b60c084015261016084013591508082111561429757600080fd5b506142a484828501614107565b60e08301525092915050565b600080600083850360a08112156142c657600080fd5b84356001600160401b03808211156142dd57600080fd5b90860190608082890312156142f157600080fd5b8195506060601f198401121561430657600080fd5b602087019450608087013592508083111561432057600080fd5b505061432e86828701614186565b9150509250925092565b6001600160a01b0381168114610a5557600080fd5b60006020828403121561435f57600080fd5b81356136e481614338565b60006020828403121561437c57600080fd5b5035919050565b600080600080610120858703121561439a57600080fd5b843593506143ab8660208701613fcf565b92506143ba86606087016140c7565b91506143c98660e08701613fcf565b905092959194509250565b6000602082840312156143e657600080fd5b81356136e481613f3e565b60008060006060848603121561440657600080fd5b833561441181614338565b92506020848101356001600160401b038082111561442e57600080fd5b818701915087601f83011261444257600080fd5b81358181111561445457614454613e8a565b614466601f8201601f19168501613eeb565b9150808252888482850101111561447c57600080fd5b808484018584013760008482840101525080945050505061449f60408501613f50565b90509250925092565b600081518084526020808501808196508360051b810191508286016000805b8681101561453e578385038a52825180518087529087019087870190845b8181101561452957835180516001600160a01b031684528a8101518b8501526040908101516001600160601b031690840152928901926060909201916001016144e5565b50509a87019a955050918501916001016144c7565b509298975050505050505050565b60208152600061455f60208301846144a8565b9392505050565b8015158114610a5557600080fd5b60006020828403121561458657600080fd5b81356136e481614566565b60008083601f8401126145a357600080fd5b5081356001600160401b038111156145ba57600080fd5b6020830191508360208285010111156145d257600080fd5b9250929050565b600080600080600080608087890312156145f257600080fd5b86356145fd81614338565b9550602087013561460d81613f3e565b945060408701356001600160401b038082111561462957600080fd5b6146358a838b01614591565b9096509450606089013591508082111561464e57600080fd5b818901915089601f83011261466257600080fd5b81358181111561467157600080fd5b8a60208260051b850101111561468657600080fd5b6020830194508093505050509295509295509295565b600081518084526020808501945080840160005b838110156146d257815163ffffffff16875295820195908201906001016146b0565b509495945050505050565b6000602080835283516080828501526146f960a085018261469c565b905081850151601f1980868403016040870152614716838361469c565b92506040870151915080868403016060870152614733838361469c565b60608801518782038301608089015280518083529194508501925084840190600581901b8501860160005b8281101561478a578487830301845261477882875161469c565b9588019593880193915060010161475e565b509998505050505050505050565b60ff81168114610a5557600080fd5b6000602082840312156147b957600080fd5b81356136e481614798565b600080600080606085870312156147da57600080fd5b8435935060208501356147ec81613f3e565b925060408501356001600160401b0381111561480757600080fd5b61481387828801614591565b95989497509550505050565b60008060008060006080868803121561483757600080fd5b8535945060208601356001600160401b038082111561485557600080fd5b61486189838a01614591565b90965094506040880135915061487682613f3e565b9092506060870135908082111561488c57600080fd5b5061489988828901614186565b9150509295509295909350565b600081518084526020808501945080840160005b838110156146d25781516001600160601b0316875295820195908201906001016148ba565b60408152600083516040808401526148fa60808401826148a6565b90506020850151603f1984830301606085015261491782826148a6565b925050508260208301529392505050565b60008060006060848603121561493d57600080fd5b833561494881614338565b925060208401359150604084013561495f81613f3e565b809150509250925092565b82815260406020820152600061498360408301846144a8565b949350505050565b600080600080608085870312156149a157600080fd5b84356149ac81614338565b935060208501356149bc81614338565b925060408501356149cc81614338565b915060608501356149dc81614338565b939692955090935050565b6000808335601e198436030181126149fe57600080fd5b8301803591506001600160401b03821115614a1857600080fd5b6020019150368190038213156145d257600080fd5b81835281816020850137506000828201602090810191909152601f909101601f19169091010190565b602081528135602082015260006020830135614a7181613f3e565b63ffffffff81166040840152506040830135601e19843603018112614a9557600080fd5b830180356001600160401b03811115614aad57600080fd5b803603851315614abc57600080fd5b60806060850152614ad460a085018260208501614a2d565b915050614ae360608501613f50565b63ffffffff81166080850152509392505050565b634e487b7160e01b600052601160045260246000fd5b600063ffffffff808316818516808303821115614b2c57614b2c614af7565b01949350505050565b8035614b4081613f3e565b63ffffffff16825260208181013590830152604090810135910152565b606081016136e78284614b35565b614b758184614b35565b6080606082015263ffffffff8251166080820152602082015160a082015260006040830151608060c0840152614baf6101008401826148a6565b90506060840151607f198483030160e0850152614bcc82826148a6565b9695505050505050565b634e487b7160e01b600052603260045260246000fd5b60006001600160601b0380831681851681830481118215151615614c1257614c12614af7565b02949350505050565b6000816000190483118215151615614c3557614c35614af7565b500290565b6000600019821415614c4e57614c4e614af7565b5060010190565b600060208284031215614c6757600080fd5b81516136e481614338565b6020808252602a908201527f6d73672e73656e646572206973206e6f74207065726d697373696f6e6564206160408201526939903ab73830bab9b2b960b11b606082015260800190565b600060208284031215614cce57600080fd5b81516136e481614566565b60208082526028908201527f6d73672e73656e646572206973206e6f74207065726d697373696f6e6564206160408201526739903830bab9b2b960c11b606082015260800190565b600082614d3e57634e487b7160e01b600052601260045260246000fd5b500690565b60006020808385031215614d5657600080fd5b82516001600160401b03811115614d6c57600080fd5b8301601f81018513614d7d57600080fd5b8051614d8b613f7c82613f1b565b81815260059190911b82018301908381019087831115614daa57600080fd5b928401925b82841015614dc857835182529284019290840190614daf565b979650505050505050565b600060208284031215614de557600080fd5b81516001600160601b03811681146136e457600080fd5b63ffffffff84168152604060208201819052810182905260006001600160fb1b03831115614e2957600080fd5b8260051b8085606085013760009201606001918252509392505050565b60006020808385031215614e5957600080fd5b82516001600160401b03811115614e6f57600080fd5b8301601f81018513614e8057600080fd5b8051614e8e613f7c82613f1b565b81815260059190911b82018301908381019087831115614ead57600080fd5b928401925b82841015614dc8578351614ec581613f3e565b82529284019290840190614eb2565b63ffffffff84168152604060208201526000614ef4604083018486614a2d565b95945050505050565b600060208284031215614f0f57600080fd5b81516001600160c01b03811681146136e457600080fd5b600060208284031215614f3857600080fd5b81516136e481613f3e565b600060ff821660ff811415614f5a57614f5a614af7565b60010192915050565b604081526000614f77604083018587614a2d565b905063ffffffff83166020830152949350505050565b6000602080835283518184015263ffffffff8185015116604084015260408401516080606085015280518060a086015260005b81811015614fdc5782810184015186820160c001528301614fc0565b81811115614fee57600060c083880101525b50606086015163ffffffff811660808701529250601f01601f19169390930160c001949350505050565b60006020828403121561502a57600080fd5b81516136e481614798565b60008282101561504757615047614af7565b500390565b60006020828403121561505e57600080fd5b5051919050565b6000821982111561507857615078614af7565b500190565b60006020828403121561508f57600080fd5b815167ffffffffffffffff19811681146136e457600080fd5b60006001600160601b03838116908316818110156150c8576150c8614af7565b039392505050565b63ffffffff60e01b8360e01b1681526000600482018351602080860160005b8381101561510b578151855293820193908201906001016150ef565b5092979650505050505050565b60006040820163ffffffff851683526020604081850152818551808452606086019150828701935060005b8181101561515f57845183529383019391830191600101615143565b5090979650505050505050565b600061ffff8083168181141561518457615184614af7565b600101939250505056fe30644e72e131a029b85045b68181585d97816a916871ca8d3c208c16d87cfd47424c535369676e6174757265436865636b65722e636865636b5369676e617475a2646970667358221220242f2a1f48a0cd3238d807ab88e1a1d433e2a4591ec76f173eb87c6d24872c7b64736f6c634300080c0033",
		"linkReferences": {}
	},
	"methodIdentifiers": {
		"aggregator()": "245a7bfc",
		"allTaskHashes(uint32)": "2d89f6fc",
		"allTaskResponses(uint32)": "2cb223d5",
		"blsApkRegistry()": "5df45946",
		"checkSignatures(bytes32,bytes,uint32,(uint32[],(uint256,uint256)[],(uint256,uint256)[],(uint256[2],uint256[2]),(uint256,uint256),uint32[],uint32[],uint32[][]))": "6efb4636",
		"createNewTask(uint256,uint32,bytes)": "6b92787e",
		"delegation()": "df5cf723",
		"generator()": "7afa1eed",
		"getCheckSignaturesIndices(address,uint32,bytes,bytes32[])": "4f739f74",
		"getOperatorState(address,bytes,uint32)": "3563b0d1",
		"getOperatorState(address,bytes32,uint32)": "cefdc1d4",
		"getTaskResponseWindowBlock()": "f5c9899d",
		"initialize(address,address,address,address)": "f8c8765e",
		"latestTaskNum()": "8b00ce7c",
		"owner()": "8da5cb5b",
		"pause(uint256)": "136439dd",
		"pauseAll()": "595c6a67",
		"paused()": "5c975abb",
		"paused(uint8)": "5ac86ab7",
		"pauserRegistry()": "886f1195",
		"registryCoordinator()": "6d14a987",
		"renounceOwnership()": "715018a6",
		"respondToTask((uint256,uint32,bytes,uint32),(uint32,bytes32,bytes32),(uint32[],(uint256,uint256)[],(uint256,uint256)[],(uint256[2],uint256[2]),(uint256,uint256),uint32[],uint32[],uint32[][]))": "03739ced",
		"setPauserRegistry(address)": "10d67a2f",
		"setStaleStakesForbidden(bool)": "416c7e5e",
		"stakeRegistry()": "68304835",
		"staleStakesForbidden()": "b98d0908",
		"taskNumber()": "72d18e8d",
		"transferOwnership(address)": "f2fde38b",
		"trySignatureAndApkVerification(bytes32,(uint256,uint256),(uint256[2],uint256[2]),(uint256,uint256))": "171f1d5b",
		"unpause(uint256)": "fabc1cbc"
	},
	"id": 124
}