{"abi":[{"type":"function","name":"THRESHOLD_DENOMINATOR","inputs":[],"outputs":[{"name":"","type":"uint256","internalType":"uint256"}],"stateMutability":"view"},{"type":"function","name":"aggregator","inputs":[],"outputs":[{"name":"","type":"address","internalType":"address"}],"stateMutability":"view"},{"type":"function","name":"allTaskHashes","inputs":[{"name":"","type":"uint8","internalType":"enum FinalizerTaskManager.TaskType"},{"name":"","type":"uint32","internalType":"uint32"}],"outputs":[{"name":"","type":"bytes32","internalType":"bytes32"}],"stateMutability":"view"},{"type":"function","name":"allTaskResponses","inputs":[{"name":"","type":"uint8","internalType":"enum FinalizerTaskManager.TaskType"},{"name":"","type":"uint32","internalType":"uint32"}],"outputs":[{"name":"","type":"bytes32","internalType":"bytes32"}],"stateMutability":"view"},{"type":"function","name":"allowNonRootInit","inputs":[],"outputs":[{"name":"","type":"bool","internalType":"bool"}],"stateMutability":"view"},{"type":"function","name":"blsApkRegistry","inputs":[],"outputs":[{"name":"","type":"address","internalType":"contract IBLSApkRegistry"}],"stateMutability":"view"},{"type":"function","name":"blsSignatureChecker","inputs":[],"outputs":[{"name":"","type":"address","internalType":"contract BLSSignatureChecker"}],"stateMutability":"view"},{"type":"function","name":"checkSignatures","inputs":[{"name":"msgHash","type":"bytes32","internalType":"bytes32"},{"name":"quorumNumbers","type":"bytes","internalType":"bytes"},{"name":"referenceBlockNumber","type":"uint32","internalType":"uint32"},{"name":"nonSignerStakesAndSignature","type":"tuple","internalType":"struct IBLSSignatureChecker.NonSignerStakesAndSignature","components":[{"name":"nonSignerQuorumBitmapIndices","type":"uint32[]","internalType":"uint32[]"},{"name":"nonSignerPubkeys","type":"tuple[]","internalType":"struct BN254.G1Point[]","components":[{"name":"X","type":"uint256","internalType":"uint256"},{"name":"Y","type":"uint256","internalType":"uint256"}]},{"name":"quorumApks","type":"tuple[]","internalType":"struct BN254.G1Point[]","components":[{"name":"X","type":"uint256","internalType":"uint256"},{"name":"Y","type":"uint256","internalType":"uint256"}]},{"name":"apkG2","type":"tuple","internalType":"struct BN254.G2Point","components":[{"name":"X","type":"uint256[2]","internalType":"uint256[2]"},{"name":"Y","type":"uint256[2]","internalType":"uint256[2]"}]},{"name":"sigma","type":"tuple","internalType":"struct BN254.G1Point","components":[{"name":"X","type":"uint256","internalType":"uint256"},{"name":"Y","type":"uint256","internalType":"uint256"}]},{"name":"quorumApkIndices","type":"uint32[]","internalType":"uint32[]"},{"name":"totalStakeIndices","type":"uint32[]","internalType":"uint32[]"},{"name":"nonSignerStakeIndices","type":"uint32[][]","internalType":"uint32[][]"}]}],"outputs":[{"name":"","type":"tuple","internalType":"struct IBLSSignatureChecker.QuorumStakeTotals","components":[{"name":"signedStakeForQuorum","type":"uint96[]","internalType":"uint96[]"},{"name":"totalStakeForQuorum","type":"uint96[]","internalType":"uint96[]"}]},{"name":"","type":"bytes32","internalType":"bytes32"}],"stateMutability":"view"},{"type":"function","name":"createNewOpTask","inputs":[{"name":"quorumThresholdPercentage","type":"uint32","internalType":"uint32"},{"name":"quorumNumbers","type":"bytes","internalType":"bytes"}],"outputs":[],"stateMutability":"nonpayable"},{"type":"function","name":"createNewRdTask","inputs":[{"name":"blockNumber","type":"uint256","internalType":"uint256"}],"outputs":[],"stateMutability":"nonpayable"},{"type":"function","name":"delegation","inputs":[],"outputs":[{"name":"","type":"address","internalType":"contract IDelegationManager"}],"stateMutability":"view"},{"type":"function","name":"dummyForOperatorStateInfoType","inputs":[{"name":"_operatorStateInfo","type":"tuple","internalType":"struct IGaspMultiRollupServicePrimitives.OperatorStateInfo","components":[{"name":"operatorsStateChanged","type":"bool","internalType":"bool"},{"name":"quorumsRemoved","type":"uint8[]","internalType":"uint8[]"},{"name":"quorumsAdded","type":"tuple[]","internalType":"struct IGaspMultiRollupServicePrimitives.QuorumsAdded[]","components":[{"name":"quorumNumber","type":"uint8","internalType":"uint8"},{"name":"quorumStake","type":"uint96","internalType":"uint96"},{"name":"quorumApk","type":"tuple","internalType":"struct BN254.G1Point","components":[{"name":"X","type":"uint256","internalType":"uint256"},{"name":"Y","type":"uint256","internalType":"uint256"}]}]},{"name":"quorumsStakeUpdate","type":"tuple[]","internalType":"struct IGaspMultiRollupServicePrimitives.QuorumsStakeUpdate[]","components":[{"name":"quorumNumber","type":"uint8","internalType":"uint8"},{"name":"quorumStake","type":"uint96","internalType":"uint96"}]},{"name":"quorumsApkUpdate","type":"tuple[]","internalType":"struct IGaspMultiRollupServicePrimitives.QuorumsApkUpdate[]","components":[{"name":"quorumNumber","type":"uint8","internalType":"uint8"},{"name":"quorumApk","type":"tuple","internalType":"struct BN254.G1Point","components":[{"name":"X","type":"uint256","internalType":"uint256"},{"name":"Y","type":"uint256","internalType":"uint256"}]}]},{"name":"operatorsRemoved","type":"bytes32[]","internalType":"bytes32[]"},{"name":"operatorsAdded","type":"tuple[]","internalType":"struct IGaspMultiRollupServicePrimitives.OperatorsAdded[]","components":[{"name":"operatorId","type":"bytes32","internalType":"bytes32"},{"name":"quorumForStakes","type":"uint8[]","internalType":"uint8[]"},{"name":"quorumStakes","type":"uint96[]","internalType":"uint96[]"},{"name":"quorumCount","type":"uint8","internalType":"uint8"}]},{"name":"operatorsStakeUpdate","type":"tuple[]","internalType":"struct IGaspMultiRollupServicePrimitives.OperatorsStakeUpdate[]","components":[{"name":"operatorId","type":"bytes32","internalType":"bytes32"},{"name":"quorumForStakes","type":"uint8[]","internalType":"uint8[]"},{"name":"quorumStakes","type":"uint96[]","internalType":"uint96[]"}]},{"name":"operatorsQuorumCountUpdate","type":"tuple[]","internalType":"struct IGaspMultiRollupServicePrimitives.OperatorsQuorumCountUpdate[]","components":[{"name":"operatorId","type":"bytes32","internalType":"bytes32"},{"name":"quorumCount","type":"uint8","internalType":"uint8"}]}]}],"outputs":[],"stateMutability":"view"},{"type":"function","name":"dummyForQuorumStakeTotalsType","inputs":[{"name":"_quorumStakeTotals","type":"tuple","internalType":"struct IBLSSignatureChecker.QuorumStakeTotals","components":[{"name":"signedStakeForQuorum","type":"uint96[]","internalType":"uint96[]"},{"name":"totalStakeForQuorum","type":"uint96[]","internalType":"uint96[]"}]}],"outputs":[],"stateMutability":"view"},{"type":"function","name":"forceCreateNewOpTask","inputs":[{"name":"quorumThresholdPercentage","type":"uint32","internalType":"uint32"},{"name":"quorumNumbers","type":"bytes","internalType":"bytes"}],"outputs":[],"stateMutability":"nonpayable"},{"type":"function","name":"forceRespondToOpTask","inputs":[{"name":"task","type":"tuple","internalType":"struct IFinalizerTaskManager.OpTask","components":[{"name":"taskNum","type":"uint32","internalType":"uint32"},{"name":"taskCreatedBlock","type":"uint32","internalType":"uint32"},{"name":"lastCompletedOpTaskCreatedBlock","type":"uint32","internalType":"uint32"},{"name":"quorumNumbers","type":"bytes","internalType":"bytes"},{"name":"quorumThresholdPercentage","type":"uint32","internalType":"uint32"},{"name":"lastCompletedOpTaskQuorumNumbers","type":"bytes","internalType":"bytes"},{"name":"lastCompletedOpTaskQuorumThresholdPercentage","type":"uint32","internalType":"uint32"}]},{"name":"taskResponse","type":"tuple","internalType":"struct IFinalizerTaskManager.OpTaskResponse","components":[{"name":"referenceTaskIndex","type":"uint32","internalType":"uint32"},{"name":"referenceTaskHash","type":"bytes32","internalType":"bytes32"},{"name":"operatorsStateInfoHash","type":"bytes32","internalType":"bytes32"}]}],"outputs":[],"stateMutability":"nonpayable"},{"type":"function","name":"generator","inputs":[],"outputs":[{"name":"","type":"address","internalType":"address"}],"stateMutability":"view"},{"type":"function","name":"getCheckSignaturesIndices","inputs":[{"name":"registryCoordinator","type":"address","internalType":"contract IRegistryCoordinator"},{"name":"referenceBlockNumber","type":"uint32","internalType":"uint32"},{"name":"quorumNumbers","type":"bytes","internalType":"bytes"},{"name":"nonSignerOperatorIds","type":"bytes32[]","internalType":"bytes32[]"}],"outputs":[{"name":"","type":"tuple","internalType":"struct OperatorStateRetriever.CheckSignaturesIndices","components":[{"name":"nonSignerQuorumBitmapIndices","type":"uint32[]","internalType":"uint32[]"},{"name":"quorumApkIndices","type":"uint32[]","internalType":"uint32[]"},{"name":"totalStakeIndices","type":"uint32[]","internalType":"uint32[]"},{"name":"nonSignerStakeIndices","type":"uint32[][]","internalType":"uint32[][]"}]}],"stateMutability":"view"},{"type":"function","name":"getOperatorState","inputs":[{"name":"registryCoordinator","type":"address","internalType":"contract IRegistryCoordinator"},{"name":"quorumNumbers","type":"bytes","internalType":"bytes"},{"name":"blockNumber","type":"uint32","internalType":"uint32"}],"outputs":[{"name":"","type":"tuple[][]","internalType":"struct OperatorStateRetriever.Operator[][]","components":[{"name":"operator","type":"address","internalType":"address"},{"name":"operatorId","type":"bytes32","internalType":"bytes32"},{"name":"stake","type":"uint96","internalType":"uint96"}]}],"stateMutability":"view"},{"type":"function","name":"getOperatorState","inputs":[{"name":"registryCoordinator","type":"address","internalType":"contract IRegistryCoordinator"},{"name":"operatorId","type":"bytes32","internalType":"bytes32"},{"name":"blockNumber","type":"uint32","internalType":"uint32"}],"outputs":[{"name":"","type":"uint256","internalType":"uint256"},{"name":"","type":"tuple[][]","internalType":"struct OperatorStateRetriever.Operator[][]","components":[{"name":"operator","type":"address","internalType":"address"},{"name":"operatorId","type":"bytes32","internalType":"bytes32"},{"name":"stake","type":"uint96","internalType":"uint96"}]}],"stateMutability":"view"},{"type":"function","name":"getQuorumBitmapsAtBlockNumber","inputs":[{"name":"registryCoordinator","type":"address","internalType":"contract IRegistryCoordinator"},{"name":"operatorIds","type":"bytes32[]","internalType":"bytes32[]"},{"name":"blockNumber","type":"uint32","internalType":"uint32"}],"outputs":[{"name":"","type":"uint256[]","internalType":"uint256[]"}],"stateMutability":"view"},{"type":"function","name":"idToTaskStatus","inputs":[{"name":"","type":"uint8","internalType":"enum FinalizerTaskManager.TaskType"},{"name":"","type":"uint32","internalType":"uint32"}],"outputs":[{"name":"","type":"uint8","internalType":"enum FinalizerTaskManager.TaskStatus"}],"stateMutability":"view"},{"type":"function","name":"initialize","inputs":[{"name":"_pauserRegistry","type":"address","internalType":"contract IPauserRegistry"},{"name":"initialOwner","type":"address","internalType":"address"},{"name":"_aggregator","type":"address","internalType":"address"},{"name":"_generator","type":"address","internalType":"address"},{"name":"_allowNonRootInit","type":"bool","internalType":"bool"},{"name":"_blsSignatureCheckerAddress","type":"address","internalType":"address"},{"name":"_taskResponseWindowBlock","type":"uint32","internalType":"uint32"}],"outputs":[],"stateMutability":"nonpayable"},{"type":"function","name":"lastCompletedOpTaskCreatedBlock","inputs":[],"outputs":[{"name":"","type":"uint32","internalType":"uint32"}],"stateMutability":"view"},{"type":"function","name":"lastCompletedOpTaskNum","inputs":[],"outputs":[{"name":"","type":"uint32","internalType":"uint32"}],"stateMutability":"view"},{"type":"function","name":"lastCompletedOpTaskQuorumNumbers","inputs":[],"outputs":[{"name":"","type":"bytes","internalType":"bytes"}],"stateMutability":"view"},{"type":"function","name":"lastCompletedOpTaskQuorumThresholdPercentage","inputs":[],"outputs":[{"name":"","type":"uint32","internalType":"uint32"}],"stateMutability":"view"},{"type":"function","name":"latestOpTaskNum","inputs":[],"outputs":[{"name":"","type":"uint32","internalType":"uint32"}],"stateMutability":"view"},{"type":"function","name":"latestPendingStateHash","inputs":[],"outputs":[{"name":"","type":"bytes32","internalType":"bytes32"}],"stateMutability":"view"},{"type":"function","name":"latestRdTaskNum","inputs":[],"outputs":[{"name":"","type":"uint32","internalType":"uint32"}],"stateMutability":"view"},{"type":"function","name":"operatorsStateInfoHash","inputs":[],"outputs":[{"name":"","type":"bytes32","internalType":"bytes32"}],"stateMutability":"view"},{"type":"function","name":"owner","inputs":[],"outputs":[{"name":"","type":"address","internalType":"address"}],"stateMutability":"view"},{"type":"function","name":"pause","inputs":[{"name":"newPausedStatus","type":"uint256","internalType":"uint256"}],"outputs":[],"stateMutability":"nonpayable"},{"type":"function","name":"pauseAll","inputs":[],"outputs":[],"stateMutability":"nonpayable"},{"type":"function","name":"paused","inputs":[{"name":"index","type":"uint8","internalType":"uint8"}],"outputs":[{"name":"","type":"bool","internalType":"bool"}],"stateMutability":"view"},{"type":"function","name":"paused","inputs":[],"outputs":[{"name":"","type":"uint256","internalType":"uint256"}],"stateMutability":"view"},{"type":"function","name":"pauserRegistry","inputs":[],"outputs":[{"name":"","type":"address","internalType":"contract IPauserRegistry"}],"stateMutability":"view"},{"type":"function","name":"registryCoordinator","inputs":[],"outputs":[{"name":"","type":"address","internalType":"contract IRegistryCoordinator"}],"stateMutability":"view"},{"type":"function","name":"renounceOwnership","inputs":[],"outputs":[],"stateMutability":"nonpayable"},{"type":"function","name":"respondToOpTask","inputs":[{"name":"task","type":"tuple","internalType":"struct IFinalizerTaskManager.OpTask","components":[{"name":"taskNum","type":"uint32","internalType":"uint32"},{"name":"taskCreatedBlock","type":"uint32","internalType":"uint32"},{"name":"lastCompletedOpTaskCreatedBlock","type":"uint32","internalType":"uint32"},{"name":"quorumNumbers","type":"bytes","internalType":"bytes"},{"name":"quorumThresholdPercentage","type":"uint32","internalType":"uint32"},{"name":"lastCompletedOpTaskQuorumNumbers","type":"bytes","internalType":"bytes"},{"name":"lastCompletedOpTaskQuorumThresholdPercentage","type":"uint32","internalType":"uint32"}]},{"name":"taskResponse","type":"tuple","internalType":"struct IFinalizerTaskManager.OpTaskResponse","components":[{"name":"referenceTaskIndex","type":"uint32","internalType":"uint32"},{"name":"referenceTaskHash","type":"bytes32","internalType":"bytes32"},{"name":"operatorsStateInfoHash","type":"bytes32","internalType":"bytes32"}]},{"name":"nonSignerStakesAndSignature","type":"tuple","internalType":"struct IBLSSignatureChecker.NonSignerStakesAndSignature","components":[{"name":"nonSignerQuorumBitmapIndices","type":"uint32[]","internalType":"uint32[]"},{"name":"nonSignerPubkeys","type":"tuple[]","internalType":"struct BN254.G1Point[]","components":[{"name":"X","type":"uint256","internalType":"uint256"},{"name":"Y","type":"uint256","internalType":"uint256"}]},{"name":"quorumApks","type":"tuple[]","internalType":"struct BN254.G1Point[]","components":[{"name":"X","type":"uint256","internalType":"uint256"},{"name":"Y","type":"uint256","internalType":"uint256"}]},{"name":"apkG2","type":"tuple","internalType":"struct BN254.G2Point","components":[{"name":"X","type":"uint256[2]","internalType":"uint256[2]"},{"name":"Y","type":"uint256[2]","internalType":"uint256[2]"}]},{"name":"sigma","type":"tuple","internalType":"struct BN254.G1Point","components":[{"name":"X","type":"uint256","internalType":"uint256"},{"name":"Y","type":"uint256","internalType":"uint256"}]},{"name":"quorumApkIndices","type":"uint32[]","internalType":"uint32[]"},{"name":"totalStakeIndices","type":"uint32[]","internalType":"uint32[]"},{"name":"nonSignerStakeIndices","type":"uint32[][]","internalType":"uint32[][]"}]}],"outputs":[],"stateMutability":"nonpayable"},{"type":"function","name":"respondToRdTask","inputs":[{"name":"task","type":"tuple","internalType":"struct IFinalizerTaskManager.RdTask","components":[{"name":"taskNum","type":"uint32","internalType":"uint32"},{"name":"blockNumber","type":"uint256","internalType":"uint256"},{"name":"taskCreatedBlock","type":"uint32","internalType":"uint32"},{"name":"lastCompletedOpTaskCreatedBlock","type":"uint32","internalType":"uint32"},{"name":"lastCompletedOpTaskQuorumNumbers","type":"bytes","internalType":"bytes"},{"name":"lastCompletedOpTaskQuorumThresholdPercentage","type":"uint32","internalType":"uint32"}]},{"name":"taskResponse","type":"tuple","internalType":"struct IFinalizerTaskManager.RdTaskResponse","components":[{"name":"referenceTaskIndex","type":"uint32","internalType":"uint32"},{"name":"referenceTaskHash","type":"bytes32","internalType":"bytes32"},{"name":"blockHash","type":"bytes32","internalType":"bytes32"},{"name":"storageProofHash","type":"bytes32","internalType":"bytes32"},{"name":"pendingStateHash","type":"bytes32","internalType":"bytes32"}]},{"name":"nonSignerStakesAndSignature","type":"tuple","internalType":"struct IBLSSignatureChecker.NonSignerStakesAndSignature","components":[{"name":"nonSignerQuorumBitmapIndices","type":"uint32[]","internalType":"uint32[]"},{"name":"nonSignerPubkeys","type":"tuple[]","internalType":"struct BN254.G1Point[]","components":[{"name":"X","type":"uint256","internalType":"uint256"},{"name":"Y","type":"uint256","internalType":"uint256"}]},{"name":"quorumApks","type":"tuple[]","internalType":"struct BN254.G1Point[]","components":[{"name":"X","type":"uint256","internalType":"uint256"},{"name":"Y","type":"uint256","internalType":"uint256"}]},{"name":"apkG2","type":"tuple","internalType":"struct BN254.G2Point","components":[{"name":"X","type":"uint256[2]","internalType":"uint256[2]"},{"name":"Y","type":"uint256[2]","internalType":"uint256[2]"}]},{"name":"sigma","type":"tuple","internalType":"struct BN254.G1Point","components":[{"name":"X","type":"uint256","internalType":"uint256"},{"name":"Y","type":"uint256","internalType":"uint256"}]},{"name":"quorumApkIndices","type":"uint32[]","internalType":"uint32[]"},{"name":"totalStakeIndices","type":"uint32[]","internalType":"uint32[]"},{"name":"nonSignerStakeIndices","type":"uint32[][]","internalType":"uint32[][]"}]}],"outputs":[],"stateMutability":"nonpayable"},{"type":"function","name":"setPauserRegistry","inputs":[{"name":"newPauserRegistry","type":"address","internalType":"contract IPauserRegistry"}],"outputs":[],"stateMutability":"nonpayable"},{"type":"function","name":"stakeRegistry","inputs":[],"outputs":[{"name":"","type":"address","internalType":"contract IStakeRegistry"}],"stateMutability":"view"},{"type":"function","name":"taskResponseWindowBlock","inputs":[],"outputs":[{"name":"","type":"uint32","internalType":"uint32"}],"stateMutability":"view"},{"type":"function","name":"transferOwnership","inputs":[{"name":"newOwner","type":"address","internalType":"address"}],"outputs":[],"stateMutability":"nonpayable"},{"type":"function","name":"unpause","inputs":[{"name":"newPausedStatus","type":"uint256","internalType":"uint256"}],"outputs":[],"stateMutability":"nonpayable"},{"type":"function","name":"updateBlsSignatureCheckerAddress","inputs":[{"name":"_blsSignatureCheckerAddress","type":"address","internalType":"address"}],"outputs":[],"stateMutability":"nonpayable"},{"type":"event","name":"BLSSignatureCheckerAddressUpdated","inputs":[{"name":"blsSignatureCheckerAddress","type":"address","indexed":false,"internalType":"address"}],"anonymous":false},{"type":"event","name":"Initialized","inputs":[{"name":"version","type":"uint8","indexed":false,"internalType":"uint8"}],"anonymous":false},{"type":"event","name":"NewOpTaskCreated","inputs":[{"name":"taskIndex","type":"uint32","indexed":true,"internalType":"uint32"},{"name":"task","type":"tuple","indexed":false,"internalType":"struct IFinalizerTaskManager.OpTask","components":[{"name":"taskNum","type":"uint32","internalType":"uint32"},{"name":"taskCreatedBlock","type":"uint32","internalType":"uint32"},{"name":"lastCompletedOpTaskCreatedBlock","type":"uint32","internalType":"uint32"},{"name":"quorumNumbers","type":"bytes","internalType":"bytes"},{"name":"quorumThresholdPercentage","type":"uint32","internalType":"uint32"},{"name":"lastCompletedOpTaskQuorumNumbers","type":"bytes","internalType":"bytes"},{"name":"lastCompletedOpTaskQuorumThresholdPercentage","type":"uint32","internalType":"uint32"}]}],"anonymous":false},{"type":"event","name":"NewOpTaskForceCreated","inputs":[{"name":"taskIndex","type":"uint32","indexed":true,"internalType":"uint32"},{"name":"task","type":"tuple","indexed":false,"internalType":"struct IFinalizerTaskManager.OpTask","components":[{"name":"taskNum","type":"uint32","internalType":"uint32"},{"name":"taskCreatedBlock","type":"uint32","internalType":"uint32"},{"name":"lastCompletedOpTaskCreatedBlock","type":"uint32","internalType":"uint32"},{"name":"quorumNumbers","type":"bytes","internalType":"bytes"},{"name":"quorumThresholdPercentage","type":"uint32","internalType":"uint32"},{"name":"lastCompletedOpTaskQuorumNumbers","type":"bytes","internalType":"bytes"},{"name":"lastCompletedOpTaskQuorumThresholdPercentage","type":"uint32","internalType":"uint32"}]}],"anonymous":false},{"type":"event","name":"NewRdTaskCreated","inputs":[{"name":"taskIndex","type":"uint32","indexed":true,"internalType":"uint32"},{"name":"task","type":"tuple","indexed":false,"internalType":"struct IFinalizerTaskManager.RdTask","components":[{"name":"taskNum","type":"uint32","internalType":"uint32"},{"name":"blockNumber","type":"uint256","internalType":"uint256"},{"name":"taskCreatedBlock","type":"uint32","internalType":"uint32"},{"name":"lastCompletedOpTaskCreatedBlock","type":"uint32","internalType":"uint32"},{"name":"lastCompletedOpTaskQuorumNumbers","type":"bytes","internalType":"bytes"},{"name":"lastCompletedOpTaskQuorumThresholdPercentage","type":"uint32","internalType":"uint32"}]}],"anonymous":false},{"type":"event","name":"OpTaskCompleted","inputs":[{"name":"taskIndex","type":"uint32","indexed":true,"internalType":"uint32"},{"name":"taskResponse","type":"tuple","indexed":false,"internalType":"struct IFinalizerTaskManager.OpTaskResponse","components":[{"name":"referenceTaskIndex","type":"uint32","internalType":"uint32"},{"name":"referenceTaskHash","type":"bytes32","internalType":"bytes32"},{"name":"operatorsStateInfoHash","type":"bytes32","internalType":"bytes32"}]}],"anonymous":false},{"type":"event","name":"OpTaskForceCompleted","inputs":[{"name":"taskIndex","type":"uint32","indexed":true,"internalType":"uint32"},{"name":"taskResponse","type":"tuple","indexed":false,"internalType":"struct IFinalizerTaskManager.OpTaskResponse","components":[{"name":"referenceTaskIndex","type":"uint32","internalType":"uint32"},{"name":"referenceTaskHash","type":"bytes32","internalType":"bytes32"},{"name":"operatorsStateInfoHash","type":"bytes32","internalType":"bytes32"}]}],"anonymous":false},{"type":"event","name":"OpTaskResponded","inputs":[{"name":"taskIndex","type":"uint32","indexed":true,"internalType":"uint32"},{"name":"taskResponse","type":"tuple","indexed":false,"internalType":"struct IFinalizerTaskManager.OpTaskResponse","components":[{"name":"referenceTaskIndex","type":"uint32","internalType":"uint32"},{"name":"referenceTaskHash","type":"bytes32","internalType":"bytes32"},{"name":"operatorsStateInfoHash","type":"bytes32","internalType":"bytes32"}]},{"name":"taskResponseMetadata","type":"tuple","indexed":false,"internalType":"struct IFinalizerTaskManager.TaskResponseMetadata","components":[{"name":"taskResponsedBlock","type":"uint32","internalType":"uint32"},{"name":"hashOfNonSigners","type":"bytes32","internalType":"bytes32"},{"name":"quroumStakeTotals","type":"uint96[]","internalType":"uint96[]"},{"name":"quroumStakeSigned","type":"uint96[]","internalType":"uint96[]"}]}],"anonymous":false},{"type":"event","name":"OwnershipTransferred","inputs":[{"name":"previousOwner","type":"address","indexed":true,"internalType":"address"},{"name":"newOwner","type":"address","indexed":true,"internalType":"address"}],"anonymous":false},{"type":"event","name":"Paused","inputs":[{"name":"account","type":"address","indexed":true,"internalType":"address"},{"name":"newPausedStatus","type":"uint256","indexed":false,"internalType":"uint256"}],"anonymous":false},{"type":"event","name":"PauserRegistrySet","inputs":[{"name":"pauserRegistry","type":"address","indexed":false,"internalType":"contract IPauserRegistry"},{"name":"newPauserRegistry","type":"address","indexed":false,"internalType":"contract IPauserRegistry"}],"anonymous":false},{"type":"event","name":"RdTaskCompleted","inputs":[{"name":"taskIndex","type":"uint32","indexed":true,"internalType":"uint32"},{"name":"blockHash","type":"bytes32","indexed":true,"internalType":"bytes32"},{"name":"taskResponse","type":"tuple","indexed":false,"internalType":"struct IFinalizerTaskManager.RdTaskResponse","components":[{"name":"referenceTaskIndex","type":"uint32","internalType":"uint32"},{"name":"referenceTaskHash","type":"bytes32","internalType":"bytes32"},{"name":"blockHash","type":"bytes32","internalType":"bytes32"},{"name":"storageProofHash","type":"bytes32","internalType":"bytes32"},{"name":"pendingStateHash","type":"bytes32","internalType":"bytes32"}]}],"anonymous":false},{"type":"event","name":"RdTaskResponded","inputs":[{"name":"taskIndex","type":"uint32","indexed":true,"internalType":"uint32"},{"name":"taskResponse","type":"tuple","indexed":false,"internalType":"struct IFinalizerTaskManager.RdTaskResponse","components":[{"name":"referenceTaskIndex","type":"uint32","internalType":"uint32"},{"name":"referenceTaskHash","type":"bytes32","internalType":"bytes32"},{"name":"blockHash","type":"bytes32","internalType":"bytes32"},{"name":"storageProofHash","type":"bytes32","internalType":"bytes32"},{"name":"pendingStateHash","type":"bytes32","internalType":"bytes32"}]},{"name":"taskResponseMetadata","type":"tuple","indexed":false,"internalType":"struct IFinalizerTaskManager.TaskResponseMetadata","components":[{"name":"taskResponsedBlock","type":"uint32","internalType":"uint32"},{"name":"hashOfNonSigners","type":"bytes32","internalType":"bytes32"},{"name":"quroumStakeTotals","type":"uint96[]","internalType":"uint96[]"},{"name":"quroumStakeSigned","type":"uint96[]","internalType":"uint96[]"}]}],"anonymous":false},{"type":"event","name":"StaleStakesForbiddenUpdate","inputs":[{"name":"value","type":"bool","indexed":false,"internalType":"bool"}],"anonymous":false},{"type":"event","name":"Unpaused","inputs":[{"name":"account","type":"address","indexed":true,"internalType":"address"},{"name":"newPausedStatus","type":"uint256","indexed":false,"internalType":"uint256"}],"anonymous":false}],"bytecode":{"object":"0x608060405234801561001057600080fd5b506159db80620000216000396000f3fe608060405234801561001057600080fd5b506004361061028a5760003560e01c8063683048351161015c57806398120901116100ce578063df5cf72311610087578063df5cf72314610635578063e70c26231461063d578063ef0244581461064d578063f2fde38b14610655578063f5640cf814610668578063fabc1cbc1461067b57600080fd5b80639812090114610593578063a69563a9146105a6578063adfcb048146105bd578063b3ea184e146105c6578063bf2315ed146105d9578063cefdc1d41461061457600080fd5b8063723114ab11610120578063723114ab146105225780637afa1eed146105355780637afdd54b14610548578063886f11951461055f5780638da5cb5b146105725780638fc8729a1461058357600080fd5b806368304835146104d65780636d14a987146104de5780636e125ff4146104e65780636efb4636146104f9578063715018a61461051a57600080fd5b806341789d571161020057806354d127de116101b957806354d127de1461046d578063595c6a671461047b5780635ac86ab7146104835780635c155662146104a65780635c975abb146104c65780635df45946146104ce57600080fd5b806341789d57146103dd57806345265b7a146104095780634ae6b2031461041a5780634f739f7414610423578063516a722714610443578063537a29291461045657600080fd5b806313f815ed1161025257806313f815ed146102ff5780631ac27297146103385780631c178e9c14610363578063245a7bfc1461038e5780632830e8f9146103a85780633563b0d1146103bd57600080fd5b806301a3f0131461028f57806305c6b663146102a45780630ee0fdbd146102b757806310d67a2f146102d9578063136439dd146102ec575b600080fd5b6102a261029d366004613e47565b61068e565b005b6102a26102b23660046142ac565b610b14565b60a1546102c49060ff1681565b60405190151581526020015b60405180910390f35b6102a26102e7366004614349565b6110d9565b6102a26102fa36600461436d565b611189565b61032a61030d366004614386565b609860209081526000928352604080842090915290825290205481565b6040519081526020016102d0565b61032a610346366004614386565b609960209081526000928352604080842090915290825290205481565b609754610376906001600160a01b031681565b6040516001600160a01b0390911681526020016102d0565b609d5461037690600160201b90046001600160a01b031681565b6103b06112c8565b6040516102d09190614410565b6103d06103cb366004614423565b611356565b6040516102d0919061457e565b6097546103f490600160c01b900463ffffffff1681565b60405163ffffffff90911681526020016102d0565b6102a2610417366004614591565b50565b61032a609f5481565b610436610431366004614613565b6117ec565b6040516102d0919061476c565b6102a26104513660046147ea565b611f12565b609b546103f490600160201b900463ffffffff1681565b6102a2610417366004614854565b6102a26125ff565b6102c461049136600461488f565b606654600160ff9092169190911b9081161490565b6104b96104b43660046148b2565b6126c6565b6040516102d0919061495e565b60665461032a565b61037661288e565b610376612901565b61037661294b565b6102a26104f43660046149a2565b612995565b61050c6105073660046149f6565b612d14565b6040516102d0929190614ab6565b6102a2612db4565b6102a2610530366004614349565b612dc8565b609e54610376906001600160a01b031681565b6097546103f490600160e01b900463ffffffff1681565b606554610376906001600160a01b031681565b6033546001600160a01b0316610376565b609b546103f49063ffffffff1681565b6102a26105a1366004614b0d565b612e24565b6097546103f490600160a01b900463ffffffff1681565b61032a60a05481565b6102a26105d436600461436d565b612fbe565b6106076105e7366004614386565b609a60209081526000928352604080842090915290825290205460ff1681565b6040516102d09190614bb9565b610627610622366004614be1565b613300565b6040516102d0929190614c23565b610376613492565b609d546103f49063ffffffff1681565b61032a606481565b6102a2610663366004614349565b6134dc565b6102a26106763660046149a2565b613552565b6102a261068936600461436d565b61389e565b6106966139fa565b60006106a56020830183614c44565b905060006106b96060850160408601614c44565b905060006106cd6040860160208701614c44565b90503660006106df60a0880188614c61565b909250905060006106f660e0890160c08a01614c44565b60008080526098602090815291925060008051602061596683398151915291610721908a018a614c44565b63ffffffff1663ffffffff168152602001908152602001600020548860405160200161074d9190614d15565b60405160208183030381529060405280519060200120146107895760405162461bcd60e51b815260040161078090614def565b60405180910390fd5b6000808052609a6020908152600191600080516020615986833981519152916107b4908b018b614c44565b63ffffffff16815260208101919091526040016000205460ff1660048111156107df576107df614ba3565b146107fc5760405162461bcd60e51b815260040161078090614e4c565b6000808052609960209081527f235d629dc802037ded8c61cb27fb29e40fa01b299719d8f991ffe20bdcc59f4f908290610838908b018b614c44565b63ffffffff1663ffffffff16815260200190815260200160002054146108705760405162461bcd60e51b815260040161078090614e4c565b60975461088a90600160a01b900463ffffffff1685614eae565b63ffffffff164363ffffffff1611156108b55760405162461bcd60e51b815260040161078090614ed6565b60408051808201909152606080825260208201526040805160808101825263ffffffff431681526000602080830182905284810151838501528451606084015292519092610907918c91849101614f93565b60408051601f19818403018152919052805160209182012060008080526099835290917f235d629dc802037ded8c61cb27fb29e40fa01b299719d8f991ffe20bdcc59f4f9190610959908e018e614c44565b63ffffffff16815260208082019290925260409081016000908120939093558c013560a055818052609a8152600491600080516020615986833981519152916109a4908e018e614c44565b63ffffffff16815260208101919091526040016000205460ff1660048111156109cf576109cf614ba3565b506109e2905060408c0160208d01614c44565b609b805463ffffffff92909216600160201b0267ffffffff0000000019909216919091179055610a1560608c018c614c61565b610a2191609c91613d84565b50610a3260a08c0160808d01614c44565b609d805463ffffffff191663ffffffff92909216919091179055610a5960208c018c614c44565b609b805463ffffffff191663ffffffff92909216919091179055610a8060208b018b614c44565b63ffffffff167fff2908483d74b6b70053dd473260acf1b09e0ba0781bf94100bb8277581749de8b604051610ab59190614fb3565b60405180910390a2610aca60208b018b614c44565b63ffffffff167fdf22f3558e4841b63d77179546b3eae63e4e343bbe752746b093162bc526be4c8b604051610aff9190614fb3565b60405180910390a25050505050505050505050565b609d54600160201b90046001600160a01b03163314610b455760405162461bcd60e51b815260040161078090614fc1565b6000610b576080850160608601614c44565b90506000610b6b6060860160408701614c44565b9050366000610b7d6080880188614c61565b90925090506000610b9460c0890160a08a01614c44565b60016000908152609860209081529192507fe66b7f18a15fed257e722ee4e0b46d479842712099771fae6234a4975b3be6fa91610bd3908a018a614c44565b63ffffffff1663ffffffff1681526020019081526020016000205488604051602001610bff9190614fe0565b6040516020818303038152906040528051906020012014610c325760405162461bcd60e51b815260040161078090614def565b60016000818152609a60209081526000805160206159468339815191529190610c5d908b018b614c44565b63ffffffff16815260208101919091526040016000205460ff166004811115610c8857610c88614ba3565b14610ca55760405162461bcd60e51b815260040161078090614e4c565b60016000908152609960209081527fbb86fbc034f4e382929974bcd8419ed626b0ea647f962d89ba2fb6bd28785ab9908290610ce3908b018b614c44565b63ffffffff1663ffffffff1681526020019081526020016000205414610d1b5760405162461bcd60e51b815260040161078090614e4c565b609754610d3590600160a01b900463ffffffff1685614eae565b63ffffffff164363ffffffff161115610d605760405162461bcd60e51b815260040161078090614ed6565b600087604051602001610d7391906150ba565b604051602081830303815290604052805190602001209050600080609760009054906101000a90046001600160a01b03166001600160a01b0316636efb46368488888c8e6040518663ffffffff1660e01b8152600401610dd7959493929190615152565b600060405180830381865afa158015610df4573d6000803e3d6000fd5b505050506040513d6000823e601f3d908101601f19168201604052610e1c91908101906152c9565b6040805160808101825263ffffffff43168152602080820184905280850151828401528451606083015291519395509193509091610e5e918d91849101615365565b60408051601f198184030181529190528051602091820120600160009081526099835290917fbb86fbc034f4e382929974bcd8419ed626b0ea647f962d89ba2fb6bd28785ab99190610eb2908f018f614c44565b63ffffffff1681526020810191909152604001600020556003609a6000600180811115610ee157610ee1614ba3565b815260200190815260200160002060008d6000016020810190610f049190614c44565b63ffffffff16815260208101919091526040016000205460ff166004811115610f2f57610f2f614ba3565b50610f3f905060208d018d614c44565b63ffffffff167f07ba8d7c4209c14e6d2ed5fd4542e9d8f47e1af3da0cbd9c50e2d0d3e87dfff08c83604051610f76929190615365565b60405180910390a260005b86811015611018578560ff1684602001518281518110610fa357610fa3615385565b6020026020010151610fb5919061539b565b6001600160601b0316606485600001518381518110610fd657610fd6615385565b60200260200101516001600160601b0316610ff191906153ca565b10156110065750505050505050505050505050565b80611010816153e9565b915050610f81565b5060808b0135609f5560016000908152609a60209081526004916000805160206159468339815191529161104e908f018f614c44565b63ffffffff16815260208101919091526040016000205460ff16600481111561107957611079614ba3565b505060408b013561108d60208d018d614c44565b63ffffffff167f02046773dfd0e022ab6bf68cb07d73f080f87a4b82f7a4fccfe7d919d6c4ecb48d6040516110c291906150ba565b60405180910390a35050505050505050505b505050565b606560009054906101000a90046001600160a01b03166001600160a01b031663eab66d7a6040518163ffffffff1660e01b8152600401602060405180830381865afa15801561112c573d6000803e3d6000fd5b505050506040513d601f19601f820116820180604052508101906111509190615404565b6001600160a01b0316336001600160a01b0316146111805760405162461bcd60e51b815260040161078090615421565b61041781613a54565b60655460405163237dfb4760e11b81523360048201526001600160a01b03909116906346fbf68e90602401602060405180830381865afa1580156111d1573d6000803e3d6000fd5b505050506040513d601f19601f820116820180604052508101906111f5919061546b565b6112115760405162461bcd60e51b815260040161078090615488565b6066548181161461128a5760405162461bcd60e51b815260206004820152603860248201527f5061757361626c652e70617573653a20696e76616c696420617474656d70742060448201527f746f20756e70617573652066756e6374696f6e616c69747900000000000000006064820152608401610780565b606681905560405181815233907fab40a374bc51de372200a8bc981af8c9ecdc08dfdaef0bb6e09f88f3c616ef3d906020015b60405180910390a250565b609c80546112d5906154d0565b80601f0160208091040260200160405190810160405280929190818152602001828054611301906154d0565b801561134e5780601f106113235761010080835404028352916020019161134e565b820191906000526020600020905b81548152906001019060200180831161133157829003601f168201915b505050505081565b60606000846001600160a01b031663683048356040518163ffffffff1660e01b8152600401602060405180830381865afa158015611398573d6000803e3d6000fd5b505050506040513d601f19601f820116820180604052508101906113bc9190615404565b90506000856001600160a01b0316639e9923c26040518163ffffffff1660e01b8152600401602060405180830381865afa1580156113fe573d6000803e3d6000fd5b505050506040513d601f19601f820116820180604052508101906114229190615404565b90506000866001600160a01b0316635df459466040518163ffffffff1660e01b8152600401602060405180830381865afa158015611464573d6000803e3d6000fd5b505050506040513d601f19601f820116820180604052508101906114889190615404565b9050600086516001600160401b038111156114a5576114a5613e95565b6040519080825280602002602001820160405280156114d857816020015b60608152602001906001900390816114c35790505b50905060005b87518110156117e05760008882815181106114fb576114fb615385565b0160200151604051638902624560e01b815260f89190911c6004820181905263ffffffff8a16602483015291506000906001600160a01b03871690638902624590604401600060405180830381865afa15801561155c573d6000803e3d6000fd5b505050506040513d6000823e601f3d908101601f191682016040526115849190810190615505565b905080516001600160401b0381111561159f5761159f613e95565b6040519080825280602002602001820160405280156115ea57816020015b60408051606081018252600080825260208083018290529282015282526000199092019101816115bd5790505b508484815181106115fd576115fd615385565b602002602001018190525060005b81518110156117ca576040518060600160405280876001600160a01b03166347b314e885858151811061164057611640615385565b60200260200101516040518263ffffffff1660e01b815260040161166691815260200190565b602060405180830381865afa158015611683573d6000803e3d6000fd5b505050506040513d601f19601f820116820180604052508101906116a79190615404565b6001600160a01b031681526020018383815181106116c7576116c7615385565b60200260200101518152602001896001600160a01b031663fa28c6278585815181106116f5576116f5615385565b60209081029190910101516040516001600160e01b031960e084901b168152600481019190915260ff8816602482015263ffffffff8f166044820152606401602060405180830381865afa158015611751573d6000803e3d6000fd5b505050506040513d601f19601f820116820180604052508101906117759190615595565b6001600160601b031681525085858151811061179357611793615385565b602002602001015182815181106117ac576117ac615385565b602002602001018190525080806117c2906153e9565b91505061160b565b50505080806117d8906153e9565b9150506114de565b50979650505050505050565b6118176040518060800160405280606081526020016060815260200160608152602001606081525090565b6000876001600160a01b031663683048356040518163ffffffff1660e01b8152600401602060405180830381865afa158015611857573d6000803e3d6000fd5b505050506040513d601f19601f8201168201806040525081019061187b9190615404565b90506118a86040518060800160405280606081526020016060815260200160608152602001606081525090565b6040516361c8a12f60e11b81526001600160a01b038a169063c391425e906118d8908b90899089906004016155b0565b600060405180830381865afa1580156118f5573d6000803e3d6000fd5b505050506040513d6000823e601f3d908101601f1916820160405261191d91908101906155fa565b81526040516340e03a8160e11b81526001600160a01b038316906381c075029061194f908b908b908b90600401615688565b600060405180830381865afa15801561196c573d6000803e3d6000fd5b505050506040513d6000823e601f3d908101601f1916820160405261199491908101906155fa565b6040820152856001600160401b038111156119b1576119b1613e95565b6040519080825280602002602001820160405280156119e457816020015b60608152602001906001900390816119cf5790505b50606082015260005b60ff8116871115611e23576000856001600160401b03811115611a1257611a12613e95565b604051908082528060200260200182016040528015611a3b578160200160208202803683370190505b5083606001518360ff1681518110611a5557611a55615385565b602002602001018190525060005b86811015611d235760008c6001600160a01b03166304ec63518a8a85818110611a8e57611a8e615385565b905060200201358e88600001518681518110611aac57611aac615385565b60200260200101516040518463ffffffff1660e01b8152600401611ae99392919092835263ffffffff918216602084015216604082015260600190565b602060405180830381865afa158015611b06573d6000803e3d6000fd5b505050506040513d601f19601f82011682018060405250810190611b2a91906156a8565b90506001600160c01b038116611bce5760405162461bcd60e51b815260206004820152605c60248201527f4f70657261746f7253746174655265747269657665722e676574436865636b5360448201527f69676e617475726573496e64696365733a206f70657261746f72206d7573742060648201527f6265207265676973746572656420617420626c6f636b6e756d62657200000000608482015260a401610780565b8a8a8560ff16818110611be357611be3615385565b6001600160c01b03841692013560f81c9190911c600190811614159050611d1057856001600160a01b031663dd9846b98a8a85818110611c2557611c25615385565b905060200201358d8d8860ff16818110611c4157611c41615385565b6040516001600160e01b031960e087901b1681526004810194909452919091013560f81c60248301525063ffffffff8f166044820152606401602060405180830381865afa158015611c97573d6000803e3d6000fd5b505050506040513d601f19601f82011682018060405250810190611cbb91906156d1565b85606001518560ff1681518110611cd457611cd4615385565b60200260200101518481518110611ced57611ced615385565b63ffffffff9092166020928302919091019091015282611d0c816153e9565b9350505b5080611d1b816153e9565b915050611a63565b506000816001600160401b03811115611d3e57611d3e613e95565b604051908082528060200260200182016040528015611d67578160200160208202803683370190505b50905060005b82811015611de85784606001518460ff1681518110611d8e57611d8e615385565b60200260200101518181518110611da757611da7615385565b6020026020010151828281518110611dc157611dc1615385565b63ffffffff9092166020928302919091019091015280611de0816153e9565b915050611d6d565b508084606001518460ff1681518110611e0357611e03615385565b602002602001018190525050508080611e1b906156ee565b9150506119ed565b506000896001600160a01b0316635df459466040518163ffffffff1660e01b8152600401602060405180830381865afa158015611e64573d6000803e3d6000fd5b505050506040513d601f19601f82011682018060405250810190611e889190615404565b60405163354952a360e21b81529091506001600160a01b0382169063d5254a8c90611ebb908b908b908e9060040161570e565b600060405180830381865afa158015611ed8573d6000803e3d6000fd5b505050506040513d6000823e601f3d908101601f19168201604052611f0091908101906155fa565b60208301525098975050505050505050565b609b54600160201b900463ffffffff16156000611f356060860160408701614c44565b90508115611fc05760a15460ff1615611f7e57609d54600160201b90046001600160a01b03163314611f795760405162461bcd60e51b815260040161078090614fc1565b611ff1565b6033546001600160a01b03163314611f795760405162461bcd60e51b815260206004820152600560248201526420baba341960d91b6044820152606401610780565b609d54600160201b90046001600160a01b03163314611ff15760405162461bcd60e51b815260040161078090614fc1565b60006120036040870160208801614c44565b905036600061201560a0890189614c61565b9092509050600061202c60e08a0160c08b01614c44565b60008080526098602090815291925060008051602061596683398151915291612057908b018b614c44565b63ffffffff1663ffffffff16815260200190815260200160002054896040516020016120839190614d15565b60405160208183030381529060405280519060200120146120b65760405162461bcd60e51b815260040161078090614def565b6000808052609a6020908152600191600080516020615986833981519152916120e1908c018c614c44565b63ffffffff16815260208101919091526040016000205460ff16600481111561210c5761210c614ba3565b146121295760405162461bcd60e51b815260040161078090614e4c565b6000808052609960209081527f235d629dc802037ded8c61cb27fb29e40fa01b299719d8f991ffe20bdcc59f4f908290612165908c018c614c44565b63ffffffff1663ffffffff168152602001908152602001600020541461219d5760405162461bcd60e51b815260040161078090614e4c565b6097546121b790600160a01b900463ffffffff1685614eae565b63ffffffff164363ffffffff1611156121e25760405162461bcd60e51b815260040161078090614ed6565b6000886040516020016121f59190614fb3565b60408051601f1981840301815282825280516020918201208383019092526060808452908301529150600088156122ba57609760009054906101000a90046001600160a01b03166001600160a01b0316636efb46368488888c8f6040518663ffffffff1660e01b815260040161226f959493929190615152565b600060405180830381865afa15801561228c573d6000803e3d6000fd5b505050506040513d6000823e601f3d908101601f191682016040526122b491908101906152c9565b90925090505b6040805160808101825263ffffffff431681526020808201849052848101518284015284516060830152915190916122f6918e91849101614f93565b60408051808303601f1901815291905280516020909101206099600080815260200190815260200160002060008e60000160208101906123369190614c44565b63ffffffff1681526020810191909152604001600020556003609a600080600181111561236557612365614ba3565b815260200190815260200160002060008e60000160208101906123889190614c44565b63ffffffff16815260208101919091526040016000205460ff1660048111156123b3576123b3614ba3565b506123c3905060208e018e614c44565b63ffffffff167f47adacb0b6bbd726ae39ac6c006cca1c2006c9aedaa882dcba7c4804db7c41ce8d836040516123fa929190614f93565b60405180910390a289156124a55760005b868110156124a3578560ff168460200151828151811061242d5761242d615385565b602002602001015161243f919061539b565b6001600160601b031660648560000151838151811061246057612460615385565b60200260200101516001600160601b031661247b91906153ca565b1015612491575050505050505050505050505050565b8061249b816153e9565b91505061240b565b505b60408c013560a0556004609a600080815260200190815260200160002060008e60000160208101906124d79190614c44565b63ffffffff16815260208101919091526040016000205460ff16600481111561250257612502614ba3565b50612515905060408e0160208f01614c44565b609b805463ffffffff92909216600160201b0267ffffffff000000001990921691909117905561254860608e018e614c61565b61255491609c91613d84565b5061256560a08e0160808f01614c44565b609d805463ffffffff191663ffffffff9290921691909117905561258c60208e018e614c44565b609b805463ffffffff191663ffffffff929092169190911790556125b360208d018d614c44565b63ffffffff167fff2908483d74b6b70053dd473260acf1b09e0ba0781bf94100bb8277581749de8d6040516125e89190614fb3565b60405180910390a250505050505050505050505050565b60655460405163237dfb4760e11b81523360048201526001600160a01b03909116906346fbf68e90602401602060405180830381865afa158015612647573d6000803e3d6000fd5b505050506040513d601f19601f8201168201806040525081019061266b919061546b565b6126875760405162461bcd60e51b815260040161078090615488565b600019606681905560405190815233907fab40a374bc51de372200a8bc981af8c9ecdc08dfdaef0bb6e09f88f3c616ef3d9060200160405180910390a2565b60606000846001600160a01b031663c391425e84866040518363ffffffff1660e01b81526004016126f8929190615738565b600060405180830381865afa158015612715573d6000803e3d6000fd5b505050506040513d6000823e601f3d908101601f1916820160405261273d91908101906155fa565b9050600084516001600160401b0381111561275a5761275a613e95565b604051908082528060200260200182016040528015612783578160200160208202803683370190505b50905060005b855181101561288457866001600160a01b03166304ec63518783815181106127b3576127b3615385565b6020026020010151878685815181106127ce576127ce615385565b60200260200101516040518463ffffffff1660e01b815260040161280b9392919092835263ffffffff918216602084015216604082015260600190565b602060405180830381865afa158015612828573d6000803e3d6000fd5b505050506040513d601f19601f8201168201806040525081019061284c91906156a8565b6001600160c01b031682828151811061286757612867615385565b60209081029190910101528061287c816153e9565b915050612789565b5095945050505050565b60975460408051632efa2ca360e11b815290516000926001600160a01b031691635df459469160048083019260209291908290030181865afa1580156128d8573d6000803e3d6000fd5b505050506040513d601f19601f820116820180604052508101906128fc9190615404565b905090565b60975460408051636830483560e01b815290516000926001600160a01b03169163683048359160048083019260209291908290030181865afa1580156128d8573d6000803e3d6000fd5b60975460408051636d14a98760e01b815290516000926001600160a01b031691636d14a9879160048083019260209291908290030181865afa1580156128d8573d6000803e3d6000fd5b609e546001600160a01b031633146129d75760405162461bcd60e51b8152602060048201526005602482015264417574683160d81b6044820152606401610780565b609b5463ffffffff600160201b9091041643148015906129f657504315155b612a125760405162461bcd60e51b81526004016107809061578c565b6040805160e0810182526000818301819052606080830181905260a083015260c0820152609754600160c01b900463ffffffff908116825243811660208084019190915290861660808301528251601f850182900482028101820190935283835290919084908490819084018382808284376000920191909152505050506060820152609b54600160201b900463ffffffff16612aba5763ffffffff43166040820152612ad0565b609b54600160201b900463ffffffff1660408201525b609c8054612add906154d0565b80601f0160208091040260200160405190810160405280929190818152602001828054612b09906154d0565b8015612b565780601f10612b2b57610100808354040283529160200191612b56565b820191906000526020600020905b815481529060010190602001808311612b3957829003601f168201915b505050505060a0820152609d5463ffffffff90811660c0830152609754600160c01b90041615612c1257609754600090612b9f90600190600160c01b900463ffffffff166157e9565b63ffffffff81166000908152600080516020615986833981519152602052604090205490915060019060ff166004811115612bdc57612bdc614ba3565b1415612c105763ffffffff8116600090815260008051602061598683398151915260205260409020805460ff191660021790555b505b80604051602001612c23919061580e565b60408051808303601f19018152828252805160209182012060978054600160c01b9081900463ffffffff908116600090815260008051602061596683398151915286528681209490945582548290048116845260008051602061598683398151915290945293909120805460ff19166001179055549190910416907ffaf4b2054479d0f83e909b73cde2a6cb18ec2a93ba8ad5a62329001c86b1f3ea90612ccb90849061580e565b60405180910390a2609754612cee90600160c01b900463ffffffff166001614eae565b609760186101000a81548163ffffffff021916908363ffffffff16021790555050505050565b604080518082019091526060808252602082015260975460405163377da31b60e11b81526000916001600160a01b031690636efb463690612d61908a908a908a908a908a90600401615152565b600060405180830381865afa158015612d7e573d6000803e3d6000fd5b505050506040513d6000823e601f3d908101601f19168201604052612da691908101906152c9565b915091509550959350505050565b612dbc6139fa565b612dc66000613b4b565b565b612dd06139fa565b609780546001600160a01b0319166001600160a01b0383169081179091556040519081527f901a654dc830c94e8a12c9a3bc0a92ac11b5cf28046ca8d190691cdaf52090169060200160405180910390a150565b600054610100900460ff1615808015612e445750600054600160ff909116105b80612e5e5750303b158015612e5e575060005460ff166001145b612ec15760405162461bcd60e51b815260206004820152602e60248201527f496e697469616c697a61626c653a20636f6e747261637420697320616c72656160448201526d191e481a5b9a5d1a585b1a5e995960921b6064820152608401610780565b6000805460ff191660011790558015612ee4576000805461ff0019166101001790555b612eef886000613b9d565b612ef887613b4b565b609d8054640100000000600160c01b031916600160201b6001600160a01b038981169190910291909117909155609e80546001600160a01b03191687831617905560a1805460ff1916861515179055609780549185166001600160c01b031990921691909117600160a01b63ffffffff8516021790558015612fb4576000805461ff0019169055604051600181527f7f26b83ff96e1f2b6a682f133852f6798a09c465da95921460cefb38474024989060200160405180910390a15b5050505050505050565b609e546001600160a01b031633146130005760405162461bcd60e51b8152602060048201526005602482015264417574683160d81b6044820152606401610780565b609b54600160201b900463ffffffff161580159061301d57504315155b61305b5760405162461bcd60e51b815260206004820152600f60248201526e13dc0814dd185d19481d5b9a5b9a5d608a1b6044820152606401610780565b6040805160c08101825260006060808301919091526080820152609754600160e01b900463ffffffff90811682526020820184905243811692820192909252609d5490911660a0820152609c80546130b2906154d0565b80601f01602080910402602001604051908101604052809291908181526020018280546130de906154d0565b801561312b5780601f106131005761010080835404028352916020019161312b565b820191906000526020600020905b81548152906001019060200180831161310e57829003601f168201915b50505050506080820152609b54600160201b900463ffffffff9081166060830152609754600160e01b900416156131ee5760975460009061317b90600190600160e01b900463ffffffff166157e9565b63ffffffff81166000908152600080516020615946833981519152602052604090205490915060019060ff1660048111156131b8576131b8614ba3565b14156131ec5763ffffffff8116600090815260008051602061594683398151915260205260409020805460ff191660021790555b505b806040516020016131ff91906158a4565b60408051808303601f19018152828252805160209182012060978054600160e01b9081900463ffffffff90811660009081527fe66b7f18a15fed257e722ee4e0b46d479842712099771fae6234a4975b3be6fa86528681209490945582548290048116845260008051602061594683398151915290945293909120805460ff19166001179055549190910416907f161faa5d92f6bf0262139c57c87ca6cc60e5b3c9c3341dc175cec97a2516cc7d906132b99084906158a4565b60405180910390a26097546132dc90600160e01b900463ffffffff166001614eae565b6097601c6101000a81548163ffffffff021916908363ffffffff1602179055505050565b604080516001808252818301909252600091606091839160208083019080368337019050509050848160008151811061333b5761333b615385565b60209081029190910101526040516361c8a12f60e11b81526000906001600160a01b0388169063c391425e906133779088908690600401615738565b600060405180830381865afa158015613394573d6000803e3d6000fd5b505050506040513d6000823e601f3d908101601f191682016040526133bc91908101906155fa565b6000815181106133ce576133ce615385565b60209081029190910101516040516304ec635160e01b81526004810188905263ffffffff87811660248301529091166044820181905291506000906001600160a01b038916906304ec635190606401602060405180830381865afa15801561343a573d6000803e3d6000fd5b505050506040513d601f19601f8201168201806040525081019061345e91906156a8565b6001600160c01b03169050600061347482613c87565b9050816134828a838a611356565b9550955050505050935093915050565b6097546040805163df5cf72360e01b815290516000926001600160a01b03169163df5cf7239160048083019260209291908290030181865afa1580156128d8573d6000803e3d6000fd5b6134e46139fa565b6001600160a01b0381166135495760405162461bcd60e51b815260206004820152602660248201527f4f776e61626c653a206e6577206f776e657220697320746865207a65726f206160448201526564647265737360d01b6064820152608401610780565b61041781613b4b565b61355a6139fa565b609b5463ffffffff600160201b90910416431480159061357957504315155b6135955760405162461bcd60e51b81526004016107809061578c565b6040805160e0810182526000818301819052606080830181905260a083015260c0820152609754600160c01b900463ffffffff908116825243811660208084019190915290861660808301528251601f850182900482028101820190935283835290919084908490819084018382808284376000920191909152505050506060820152609b54600160201b900463ffffffff1661363d5763ffffffff43166040820152613653565b609b54600160201b900463ffffffff1660408201525b609c8054613660906154d0565b80601f016020809104026020016040519081016040528092919081815260200182805461368c906154d0565b80156136d95780601f106136ae576101008083540402835291602001916136d9565b820191906000526020600020905b8154815290600101906020018083116136bc57829003601f168201915b505050505060a0820152609d5463ffffffff90811660c0830152609754600160c01b900416156137955760975460009061372290600190600160c01b900463ffffffff166157e9565b63ffffffff81166000908152600080516020615986833981519152602052604090205490915060019060ff16600481111561375f5761375f614ba3565b14156137935763ffffffff8116600090815260008051602061598683398151915260205260409020805460ff191660021790555b505b806040516020016137a6919061580e565b60408051808303601f19018152828252805160209182012060978054600160c01b9081900463ffffffff908116600090815260008051602061596683398151915286528681209490945582548290048116845260008051602061598683398151915290945293909120805460ff19166001179055549190910416907ffaf4b2054479d0f83e909b73cde2a6cb18ec2a93ba8ad5a62329001c86b1f3ea9061384e90849061580e565b60405180910390a2609760189054906101000a900463ffffffff1663ffffffff167fdc5ba3b66ec6491b585b3f13698ed711aa829071f43300d6ede6dba67e28d75f82604051612ccb919061580e565b606560009054906101000a90046001600160a01b03166001600160a01b031663eab66d7a6040518163ffffffff1660e01b8152600401602060405180830381865afa1580156138f1573d6000803e3d6000fd5b505050506040513d601f19601f820116820180604052508101906139159190615404565b6001600160a01b0316336001600160a01b0316146139455760405162461bcd60e51b815260040161078090615421565b6066541981196066541916146139c35760405162461bcd60e51b815260206004820152603860248201527f5061757361626c652e756e70617573653a20696e76616c696420617474656d7060448201527f7420746f2070617573652066756e6374696f6e616c69747900000000000000006064820152608401610780565b606681905560405181815233907f3582d1828e26bf56bd801502bc021ac0bc8afb57c826e4986b45593c8fad389c906020016112bd565b6033546001600160a01b03163314612dc65760405162461bcd60e51b815260206004820181905260248201527f4f776e61626c653a2063616c6c6572206973206e6f7420746865206f776e65726044820152606401610780565b6001600160a01b038116613ae25760405162461bcd60e51b815260206004820152604960248201527f5061757361626c652e5f73657450617573657252656769737472793a206e657760448201527f50617573657252656769737472792063616e6e6f7420626520746865207a65726064820152686f206164647265737360b81b608482015260a401610780565b606554604080516001600160a01b03928316815291831660208301527f6e9fcd539896fca60e8b0f01dd580233e48a6b0f7df013b89ba7f565869acdb6910160405180910390a1606580546001600160a01b0319166001600160a01b0392909216919091179055565b603380546001600160a01b038381166001600160a01b0319831681179093556040519116919082907f8be0079c531659141344cd1fd0a4f28419497f9722a3daafe3b4186f6b6457e090600090a35050565b6065546001600160a01b0316158015613bbe57506001600160a01b03821615155b613c405760405162461bcd60e51b815260206004820152604760248201527f5061757361626c652e5f696e697469616c697a655061757365723a205f696e6960448201527f7469616c697a6550617573657228292063616e206f6e6c792062652063616c6c6064820152666564206f6e636560c81b608482015260a401610780565b606681905560405181815233907fab40a374bc51de372200a8bc981af8c9ecdc08dfdaef0bb6e09f88f3c616ef3d9060200160405180910390a2613c8382613a54565b5050565b6060600080613c9584613d53565b61ffff166001600160401b03811115613cb057613cb0613e95565b6040519080825280601f01601f191660200182016040528015613cda576020820181803683370190505b5090506000805b825182108015613cf2575061010081105b15613d49576001811b935085841615613d39578060f81b838381518110613d1b57613d1b615385565b60200101906001600160f81b031916908160001a9053508160010191505b613d42816153e9565b9050613ce1565b5090949350505050565b6000805b8215613d7e57613d6860018461590c565b9092169180613d7681615923565b915050613d57565b92915050565b828054613d90906154d0565b90600052602060002090601f016020900481019282613db25760008555613df8565b82601f10613dcb5782800160ff19823516178555613df8565b82800160010185558215613df8579182015b82811115613df8578235825591602001919060010190613ddd565b50613e04929150613e08565b5090565b5b80821115613e045760008155600101613e09565b600060e08284031215613e2f57600080fd5b50919050565b600060608284031215613e2f57600080fd5b60008060808385031215613e5a57600080fd5b82356001600160401b03811115613e7057600080fd5b613e7c85828601613e1d565b925050613e8c8460208501613e35565b90509250929050565b634e487b7160e01b600052604160045260246000fd5b604080519081016001600160401b0381118282101715613ecd57613ecd613e95565b60405290565b60405161010081016001600160401b0381118282101715613ecd57613ecd613e95565b604051601f8201601f191681016001600160401b0381118282101715613f1e57613f1e613e95565b604052919050565b60006001600160401b03821115613f3f57613f3f613e95565b5060051b60200190565b63ffffffff8116811461041757600080fd5b8035613f6681613f49565b919050565b600082601f830112613f7c57600080fd5b81356020613f91613f8c83613f26565b613ef6565b82815260059290921b84018101918181019086841115613fb057600080fd5b8286015b84811015613fd4578035613fc781613f49565b8352918301918301613fb4565b509695505050505050565b600060408284031215613ff157600080fd5b613ff9613eab565b9050813581526020820135602082015292915050565b600082601f83011261402057600080fd5b81356020614030613f8c83613f26565b82815260069290921b8401810191818101908684111561404f57600080fd5b8286015b84811015613fd4576140658882613fdf565b835291830191604001614053565b600082601f83011261408457600080fd5b61408c613eab565b80604084018581111561409e57600080fd5b845b818110156140b85780358452602093840193016140a0565b509095945050505050565b6000608082840312156140d557600080fd5b6140dd613eab565b90506140e98383614073565b81526140f88360408401614073565b602082015292915050565b600082601f83011261411457600080fd5b81356020614124613f8c83613f26565b82815260059290921b8401810191818101908684111561414357600080fd5b8286015b84811015613fd45780356001600160401b038111156141665760008081fd5b6141748986838b0101613f6b565b845250918301918301614147565b6000610180828403121561419557600080fd5b61419d613ed3565b905081356001600160401b03808211156141b657600080fd5b6141c285838601613f6b565b835260208401359150808211156141d857600080fd5b6141e48583860161400f565b602084015260408401359150808211156141fd57600080fd5b6142098583860161400f565b604084015261421b85606086016140c3565b606084015261422d8560e08601613fdf565b608084015261012084013591508082111561424757600080fd5b61425385838601613f6b565b60a084015261014084013591508082111561426d57600080fd5b61427985838601613f6b565b60c084015261016084013591508082111561429357600080fd5b506142a084828501614103565b60e08301525092915050565b600080600083850360e08112156142c257600080fd5b84356001600160401b03808211156142d957600080fd5b9086019060c082890312156142ed57600080fd5b81955060a0601f198401121561430257600080fd5b60208701945060c087013592508083111561431c57600080fd5b505061432a86828701614182565b9150509250925092565b6001600160a01b038116811461041757600080fd5b60006020828403121561435b57600080fd5b813561436681614334565b9392505050565b60006020828403121561437f57600080fd5b5035919050565b6000806040838503121561439957600080fd5b8235600281106143a857600080fd5b915060208301356143b881613f49565b809150509250929050565b6000815180845260005b818110156143e9576020818501810151868301820152016143cd565b818111156143fb576000602083870101525b50601f01601f19169290920160200192915050565b60208152600061436660208301846143c3565b60008060006060848603121561443857600080fd5b833561444381614334565b92506020848101356001600160401b038082111561446057600080fd5b818701915087601f83011261447457600080fd5b81358181111561448657614486613e95565b614498601f8201601f19168501613ef6565b915080825288848285010111156144ae57600080fd5b80848401858401376000848284010152508094505050506144d160408501613f5b565b90509250925092565b600081518084526020808501808196508360051b810191508286016000805b86811015614570578385038a52825180518087529087019087870190845b8181101561455b57835180516001600160a01b031684528a8101518b8501526040908101516001600160601b03169084015292890192606090920191600101614517565b50509a87019a955050918501916001016144f9565b509298975050505050505050565b60208152600061436660208301846144da565b6000602082840312156145a357600080fd5b81356001600160401b038111156145b957600080fd5b82016040818503121561436657600080fd5b60008083601f8401126145dd57600080fd5b5081356001600160401b038111156145f457600080fd5b60208301915083602082850101111561460c57600080fd5b9250929050565b6000806000806000806080878903121561462c57600080fd5b863561463781614334565b9550602087013561464781613f49565b945060408701356001600160401b038082111561466357600080fd5b61466f8a838b016145cb565b9096509450606089013591508082111561468857600080fd5b818901915089601f83011261469c57600080fd5b8135818111156146ab57600080fd5b8a60208260051b85010111156146c057600080fd5b6020830194508093505050509295509295509295565b600081518084526020808501945080840160005b8381101561470c57815163ffffffff16875295820195908201906001016146ea565b509495945050505050565b600081518084526020808501808196508360051b8101915082860160005b8581101561475f57828403895261474d8483516146d6565b98850198935090840190600101614735565b5091979650505050505050565b60208152600082516080602084015261478860a08401826146d6565b90506020840151601f19808584030160408601526147a683836146d6565b925060408601519150808584030160608601526147c383836146d6565b92506060860151915080858403016080860152506147e18282614717565b95945050505050565b600080600060a084860312156147ff57600080fd5b83356001600160401b038082111561481657600080fd5b61482287838801613e1d565b94506148318760208801613e35565b9350608086013591508082111561484757600080fd5b5061432a86828701614182565b60006020828403121561486657600080fd5b81356001600160401b0381111561487c57600080fd5b8201610120818503121561436657600080fd5b6000602082840312156148a157600080fd5b813560ff8116811461436657600080fd5b6000806000606084860312156148c757600080fd5b83356148d281614334565b92506020848101356001600160401b038111156148ee57600080fd5b8501601f810187136148ff57600080fd5b803561490d613f8c82613f26565b81815260059190911b8201830190838101908983111561492c57600080fd5b928401925b8284101561494a57833582529284019290840190614931565b80965050505050506144d160408501613f5b565b6020808252825182820181905260009190848201906040850190845b818110156149965783518352928401929184019160010161497a565b50909695505050505050565b6000806000604084860312156149b757600080fd5b83356149c281613f49565b925060208401356001600160401b038111156149dd57600080fd5b6149e9868287016145cb565b9497909650939450505050565b600080600080600060808688031215614a0e57600080fd5b8535945060208601356001600160401b0380821115614a2c57600080fd5b614a3889838a016145cb565b909650945060408801359150614a4d82613f49565b90925060608701359080821115614a6357600080fd5b50614a7088828901614182565b9150509295509295909350565b600081518084526020808501945080840160005b8381101561470c5781516001600160601b031687529582019590820190600101614a91565b6040815260008351604080840152614ad16080840182614a7d565b90506020850151603f19848303016060850152614aee8282614a7d565b925050508260208301529392505050565b801515811461041757600080fd5b600080600080600080600060e0888a031215614b2857600080fd5b8735614b3381614334565b96506020880135614b4381614334565b95506040880135614b5381614334565b94506060880135614b6381614334565b93506080880135614b7381614aff565b925060a0880135614b8381614334565b915060c0880135614b9381613f49565b8091505092959891949750929550565b634e487b7160e01b600052602160045260246000fd5b6020810160058310614bdb57634e487b7160e01b600052602160045260246000fd5b91905290565b600080600060608486031215614bf657600080fd5b8335614c0181614334565b9250602084013591506040840135614c1881613f49565b809150509250925092565b828152604060208201526000614c3c60408301846144da565b949350505050565b600060208284031215614c5657600080fd5b813561436681613f49565b6000808335601e19843603018112614c7857600080fd5b8301803591506001600160401b03821115614c9257600080fd5b60200191503681900382131561460c57600080fd5b6000808335601e19843603018112614cbe57600080fd5b83016020810192503590506001600160401b03811115614cdd57600080fd5b80360383131561460c57600080fd5b81835281816020850137506000828201602090810191909152601f909101601f19169091010190565b6020815260008235614d2681613f49565b63ffffffff81166020840152506020830135614d4181613f49565b63ffffffff8116604084015250614d5a60408401613f5b565b63ffffffff8116606084015250614d746060840184614ca7565b60e06080850152614d8a61010085018284614cec565b915050614d9960808501613f5b565b63ffffffff811660a085015250614db360a0850185614ca7565b848303601f190160c0860152614dca838284614cec565b92505050614dda60c08501613f5b565b63ffffffff811660e08501525b509392505050565b6020808252603d908201527f737570706c696564207461736b20646f6573206e6f74206d617463682074686560408201527f206f6e65207265636f7264656420696e2074686520636f6e7472616374000000606082015260800190565b6020808252602c908201527f41676772656761746f722068617320616c726561647920726573706f6e64656460408201526b20746f20746865207461736b60a01b606082015260800190565b634e487b7160e01b600052601160045260246000fd5b600063ffffffff808316818516808303821115614ecd57614ecd614e98565b01949350505050565b6020808252602d908201527f41676772656761746f722068617320726573706f6e64656420746f207468652060408201526c7461736b20746f6f206c61746560981b606082015260800190565b8035614f2e81613f49565b63ffffffff16825260208181013590830152604090810135910152565b63ffffffff8151168252602081015160208301526000604082015160806040850152614f7a6080850182614a7d565b9050606083015184820360608601526147e18282614a7d565b614f9d8184614f23565b608060608201526000614c3c6080830184614f4b565b60608101613d7e8284614f23565b602080825260059082015264041757468360dc1b604082015260600190565b6020815260008235614ff181613f49565b63ffffffff8082166020850152602085013560408501526040850135915061501882613f49565b80821660608501526060850135915061503082613f49565b80821660808501526150456080860186614ca7565b925060c060a086015261505c60e086018483614cec565b92505060a085013561506d81613f49565b1660c0939093019290925250919050565b803561508981613f49565b63ffffffff168252602081810135908301526040808201359083015260608082013590830152608090810135910152565b60a08101613d7e828461507e565b600081518084526020808501945080840160005b8381101561470c576150f987835180518252602090810151910152565b60409690960195908201906001016150dc565b8060005b600281101561512f578151845260209384019390910190600101615110565b50505050565b61514082825161510c565b60208101516110d4604084018261510c565b85815260806020820152600061516c608083018688614cec565b63ffffffff8516604084015282810360608401526101808451818352615194828401826146d6565b915050602085015182820360208401526151ae82826150c8565b915050604085015182820360408401526151c882826150c8565b91505060608501516151dd6060840182615135565b506080850151805160e08401526020015161010083015260a085015182820361012084015261520c82826146d6565b91505060c085015182820361014084015261522782826146d6565b91505060e08501518282036101608401526152428282614717565b9a9950505050505050505050565b80516001600160601b0381168114613f6657600080fd5b600082601f83011261527857600080fd5b81516020615288613f8c83613f26565b82815260059290921b840181019181810190868411156152a757600080fd5b8286015b84811015613fd4576152bc81615250565b83529183019183016152ab565b600080604083850312156152dc57600080fd5b82516001600160401b03808211156152f357600080fd5b908401906040828703121561530757600080fd5b61530f613eab565b82518281111561531e57600080fd5b61532a88828601615267565b82525060208301518281111561533f57600080fd5b61534b88828601615267565b602083015250809450505050602083015190509250929050565b61536f818461507e565b60c060a08201526000614c3c60c0830184614f4b565b634e487b7160e01b600052603260045260246000fd5b60006001600160601b03808316818516818304811182151516156153c1576153c1614e98565b02949350505050565b60008160001904831182151516156153e4576153e4614e98565b500290565b60006000198214156153fd576153fd614e98565b5060010190565b60006020828403121561541657600080fd5b815161436681614334565b6020808252602a908201527f6d73672e73656e646572206973206e6f74207065726d697373696f6e6564206160408201526939903ab73830bab9b2b960b11b606082015260800190565b60006020828403121561547d57600080fd5b815161436681614aff565b60208082526028908201527f6d73672e73656e646572206973206e6f74207065726d697373696f6e6564206160408201526739903830bab9b2b960c11b606082015260800190565b600181811c908216806154e457607f821691505b60208210811415613e2f57634e487b7160e01b600052602260045260246000fd5b6000602080838503121561551857600080fd5b82516001600160401b0381111561552e57600080fd5b8301601f8101851361553f57600080fd5b805161554d613f8c82613f26565b81815260059190911b8201830190838101908783111561556c57600080fd5b928401925b8284101561558a57835182529284019290840190615571565b979650505050505050565b6000602082840312156155a757600080fd5b61436682615250565b63ffffffff84168152604060208201819052810182905260006001600160fb1b038311156155dd57600080fd5b8260051b8085606085013760009201606001918252509392505050565b6000602080838503121561560d57600080fd5b82516001600160401b0381111561562357600080fd5b8301601f8101851361563457600080fd5b8051615642613f8c82613f26565b81815260059190911b8201830190838101908783111561566157600080fd5b928401925b8284101561558a57835161567981613f49565b82529284019290840190615666565b63ffffffff841681526040602082015260006147e1604083018486614cec565b6000602082840312156156ba57600080fd5b81516001600160c01b038116811461436657600080fd5b6000602082840312156156e357600080fd5b815161436681613f49565b600060ff821660ff81141561570557615705614e98565b60010192915050565b604081526000615722604083018587614cec565b905063ffffffff83166020830152949350505050565b60006040820163ffffffff851683526020604081850152818551808452606086019150828701935060005b8181101561577f57845183529383019391830191600101615763565b5090979650505050505050565b60208082526039908201527f43616e2774206372656174652061207461736b20696e207468652073616d652060408201527f626c6f636b206173206120636f6d706c65746564207461736b00000000000000606082015260800190565b600063ffffffff8381169083168181101561580657615806614e98565b039392505050565b60208152600063ffffffff80845116602084015280602085015116604084015280604085015116606084015250606083015160e060808401526158556101008401826143c3565b9050608084015161586e60a085018263ffffffff169052565b5060a0840151838203601f190160c085015261588a82826143c3565b91505060c0840151614de760e085018263ffffffff169052565b60208152600063ffffffff80845116602084015260208401516040840152806040850151166060840152806060850151166080840152608084015160c060a08501526158f360e08501826143c3565b90508160a08601511660c0850152809250505092915050565b60008282101561591e5761591e614e98565b500390565b600061ffff8083168181141561593b5761593b614e98565b600101939250505056fe5b542b52981c4f2fa9965514d5bb7f37f1b7bc0902a6a4dc6b04dc05be85586bddaeee8e61001dbcfaf4f92c6943552c392a86665d734d3c1905d7b3c23b1b1ebe6620bd3346e5d7f8387fbec0981aa0d6289d22efa7c935f9ef6841bf2a98c7a26469706673582212208b2c2da0975fedde21d1f2e63bf24d82a7168abab65dbd5f5b7211d3296d43bf64736f6c634300080c0033","linkReferences":{}},"methodIdentifiers":{"THRESHOLD_DENOMINATOR()":"ef024458","aggregator()":"245a7bfc","allTaskHashes(uint8,uint32)":"13f815ed","allTaskResponses(uint8,uint32)":"1ac27297","allowNonRootInit()":"0ee0fdbd","blsApkRegistry()":"5df45946","blsSignatureChecker()":"1c178e9c","checkSignatures(bytes32,bytes,uint32,(uint32[],(uint256,uint256)[],(uint256,uint256)[],(uint256[2],uint256[2]),(uint256,uint256),uint32[],uint32[],uint32[][]))":"6efb4636","createNewOpTask(uint32,bytes)":"6e125ff4","createNewRdTask(uint256)":"b3ea184e","delegation()":"df5cf723","dummyForOperatorStateInfoType((bool,uint8[],(uint8,uint96,(uint256,uint256))[],(uint8,uint96)[],(uint8,(uint256,uint256))[],bytes32[],(bytes32,uint8[],uint96[],uint8)[],(bytes32,uint8[],uint96[])[],(bytes32,uint8)[]))":"54d127de","dummyForQuorumStakeTotalsType((uint96[],uint96[]))":"45265b7a","forceCreateNewOpTask(uint32,bytes)":"f5640cf8","forceRespondToOpTask((uint32,uint32,uint32,bytes,uint32,bytes,uint32),(uint32,bytes32,bytes32))":"01a3f013","generator()":"7afa1eed","getCheckSignaturesIndices(address,uint32,bytes,bytes32[])":"4f739f74","getOperatorState(address,bytes,uint32)":"3563b0d1","getOperatorState(address,bytes32,uint32)":"cefdc1d4","getQuorumBitmapsAtBlockNumber(address,bytes32[],uint32)":"5c155662","idToTaskStatus(uint8,uint32)":"bf2315ed","initialize(address,address,address,address,bool,address,uint32)":"98120901","lastCompletedOpTaskCreatedBlock()":"537a2929","lastCompletedOpTaskNum()":"8fc8729a","lastCompletedOpTaskQuorumNumbers()":"2830e8f9","lastCompletedOpTaskQuorumThresholdPercentage()":"e70c2623","latestOpTaskNum()":"41789d57","latestPendingStateHash()":"4ae6b203","latestRdTaskNum()":"7afdd54b","operatorsStateInfoHash()":"adfcb048","owner()":"8da5cb5b","pause(uint256)":"136439dd","pauseAll()":"595c6a67","paused()":"5c975abb","paused(uint8)":"5ac86ab7","pauserRegistry()":"886f1195","registryCoordinator()":"6d14a987","renounceOwnership()":"715018a6","respondToOpTask((uint32,uint32,uint32,bytes,uint32,bytes,uint32),(uint32,bytes32,bytes32),(uint32[],(uint256,uint256)[],(uint256,uint256)[],(uint256[2],uint256[2]),(uint256,uint256),uint32[],uint32[],uint32[][]))":"516a7227","respondToRdTask((uint32,uint256,uint32,uint32,bytes,uint32),(uint32,bytes32,bytes32,bytes32,bytes32),(uint32[],(uint256,uint256)[],(uint256,uint256)[],(uint256[2],uint256[2]),(uint256,uint256),uint32[],uint32[],uint32[][]))":"05c6b663","setPauserRegistry(address)":"10d67a2f","stakeRegistry()":"68304835","taskResponseWindowBlock()":"a69563a9","transferOwnership(address)":"f2fde38b","unpause(uint256)":"fabc1cbc","updateBlsSignatureCheckerAddress(address)":"723114ab"},"id":118}