{"abi":[{"type":"function","name":"THRESHOLD_DENOMINATOR","inputs":[],"outputs":[{"name":"","type":"uint256","internalType":"uint256"}],"stateMutability":"view"},{"type":"function","name":"aggregator","inputs":[],"outputs":[{"name":"","type":"address","internalType":"address"}],"stateMutability":"view"},{"type":"function","name":"allTaskHashes","inputs":[{"name":"","type":"uint8","internalType":"enum IFinalizerTaskManager.TaskType"},{"name":"","type":"uint32","internalType":"uint32"}],"outputs":[{"name":"","type":"bytes32","internalType":"bytes32"}],"stateMutability":"view"},{"type":"function","name":"allTaskResponses","inputs":[{"name":"","type":"uint8","internalType":"enum IFinalizerTaskManager.TaskType"},{"name":"","type":"uint32","internalType":"uint32"}],"outputs":[{"name":"","type":"bytes32","internalType":"bytes32"}],"stateMutability":"view"},{"type":"function","name":"allowNonRootInit","inputs":[],"outputs":[{"name":"","type":"bool","internalType":"bool"}],"stateMutability":"view"},{"type":"function","name":"blsApkRegistry","inputs":[],"outputs":[{"name":"","type":"address","internalType":"contract IBLSApkRegistry"}],"stateMutability":"view"},{"type":"function","name":"blsSignatureChecker","inputs":[],"outputs":[{"name":"","type":"address","internalType":"contract BLSSignatureChecker"}],"stateMutability":"view"},{"type":"function","name":"chainRdBatchNonce","inputs":[{"name":"","type":"uint8","internalType":"enum IRolldownPrimitives.ChainId"}],"outputs":[{"name":"","type":"uint32","internalType":"uint32"}],"stateMutability":"view"},{"type":"function","name":"checkSignatures","inputs":[{"name":"msgHash","type":"bytes32","internalType":"bytes32"},{"name":"quorumNumbers","type":"bytes","internalType":"bytes"},{"name":"referenceBlockNumber","type":"uint32","internalType":"uint32"},{"name":"nonSignerStakesAndSignature","type":"tuple","internalType":"struct IBLSSignatureChecker.NonSignerStakesAndSignature","components":[{"name":"nonSignerQuorumBitmapIndices","type":"uint32[]","internalType":"uint32[]"},{"name":"nonSignerPubkeys","type":"tuple[]","internalType":"struct BN254.G1Point[]","components":[{"name":"X","type":"uint256","internalType":"uint256"},{"name":"Y","type":"uint256","internalType":"uint256"}]},{"name":"quorumApks","type":"tuple[]","internalType":"struct BN254.G1Point[]","components":[{"name":"X","type":"uint256","internalType":"uint256"},{"name":"Y","type":"uint256","internalType":"uint256"}]},{"name":"apkG2","type":"tuple","internalType":"struct BN254.G2Point","components":[{"name":"X","type":"uint256[2]","internalType":"uint256[2]"},{"name":"Y","type":"uint256[2]","internalType":"uint256[2]"}]},{"name":"sigma","type":"tuple","internalType":"struct BN254.G1Point","components":[{"name":"X","type":"uint256","internalType":"uint256"},{"name":"Y","type":"uint256","internalType":"uint256"}]},{"name":"quorumApkIndices","type":"uint32[]","internalType":"uint32[]"},{"name":"totalStakeIndices","type":"uint32[]","internalType":"uint32[]"},{"name":"nonSignerStakeIndices","type":"uint32[][]","internalType":"uint32[][]"}]}],"outputs":[{"name":"","type":"tuple","internalType":"struct IBLSSignatureChecker.QuorumStakeTotals","components":[{"name":"signedStakeForQuorum","type":"uint96[]","internalType":"uint96[]"},{"name":"totalStakeForQuorum","type":"uint96[]","internalType":"uint96[]"}]},{"name":"","type":"bytes32","internalType":"bytes32"}],"stateMutability":"view"},{"type":"function","name":"createNewOpTask","inputs":[{"name":"quorumThresholdPercentage","type":"uint32","internalType":"uint32"},{"name":"quorumNumbers","type":"bytes","internalType":"bytes"}],"outputs":[],"stateMutability":"nonpayable"},{"type":"function","name":"createNewRdTask","inputs":[{"name":"chainId","type":"uint8","internalType":"enum IRolldownPrimitives.ChainId"},{"name":"batchId","type":"uint32","internalType":"uint32"}],"outputs":[],"stateMutability":"nonpayable"},{"type":"function","name":"delegation","inputs":[],"outputs":[{"name":"","type":"address","internalType":"contract IDelegationManager"}],"stateMutability":"view"},{"type":"function","name":"dummyForOperatorStateInfoType","inputs":[{"name":"_operatorStateInfo","type":"tuple","internalType":"struct IGaspMultiRollupServicePrimitives.OperatorStateInfo","components":[{"name":"operatorsStateChanged","type":"bool","internalType":"bool"},{"name":"quorumsRemoved","type":"uint8[]","internalType":"uint8[]"},{"name":"quorumsAdded","type":"tuple[]","internalType":"struct IGaspMultiRollupServicePrimitives.QuorumsAdded[]","components":[{"name":"quorumNumber","type":"uint8","internalType":"uint8"},{"name":"quorumStake","type":"uint96","internalType":"uint96"},{"name":"quorumApk","type":"tuple","internalType":"struct BN254.G1Point","components":[{"name":"X","type":"uint256","internalType":"uint256"},{"name":"Y","type":"uint256","internalType":"uint256"}]}]},{"name":"quorumsStakeUpdate","type":"tuple[]","internalType":"struct IGaspMultiRollupServicePrimitives.QuorumsStakeUpdate[]","components":[{"name":"quorumNumber","type":"uint8","internalType":"uint8"},{"name":"quorumStake","type":"uint96","internalType":"uint96"}]},{"name":"quorumsApkUpdate","type":"tuple[]","internalType":"struct IGaspMultiRollupServicePrimitives.QuorumsApkUpdate[]","components":[{"name":"quorumNumber","type":"uint8","internalType":"uint8"},{"name":"quorumApk","type":"tuple","internalType":"struct BN254.G1Point","components":[{"name":"X","type":"uint256","internalType":"uint256"},{"name":"Y","type":"uint256","internalType":"uint256"}]}]},{"name":"operatorsRemoved","type":"bytes32[]","internalType":"bytes32[]"},{"name":"operatorsAdded","type":"tuple[]","internalType":"struct IGaspMultiRollupServicePrimitives.OperatorsAdded[]","components":[{"name":"operatorId","type":"bytes32","internalType":"bytes32"},{"name":"quorumForStakes","type":"uint8[]","internalType":"uint8[]"},{"name":"quorumStakes","type":"uint96[]","internalType":"uint96[]"},{"name":"quorumCount","type":"uint8","internalType":"uint8"}]},{"name":"operatorsStakeUpdate","type":"tuple[]","internalType":"struct IGaspMultiRollupServicePrimitives.OperatorsStakeUpdate[]","components":[{"name":"operatorId","type":"bytes32","internalType":"bytes32"},{"name":"quorumForStakes","type":"uint8[]","internalType":"uint8[]"},{"name":"quorumStakes","type":"uint96[]","internalType":"uint96[]"}]},{"name":"operatorsQuorumCountUpdate","type":"tuple[]","internalType":"struct IGaspMultiRollupServicePrimitives.OperatorsQuorumCountUpdate[]","components":[{"name":"operatorId","type":"bytes32","internalType":"bytes32"},{"name":"quorumCount","type":"uint8","internalType":"uint8"}]}]}],"outputs":[],"stateMutability":"view"},{"type":"function","name":"dummyForQuorumStakeTotalsType","inputs":[{"name":"_quorumStakeTotals","type":"tuple","internalType":"struct IBLSSignatureChecker.QuorumStakeTotals","components":[{"name":"signedStakeForQuorum","type":"uint96[]","internalType":"uint96[]"},{"name":"totalStakeForQuorum","type":"uint96[]","internalType":"uint96[]"}]}],"outputs":[],"stateMutability":"view"},{"type":"function","name":"forceCancelPendingTasks","inputs":[],"outputs":[],"stateMutability":"nonpayable"},{"type":"function","name":"forceCreateNewOpTask","inputs":[{"name":"quorumThresholdPercentage","type":"uint32","internalType":"uint32"},{"name":"quorumNumbers","type":"bytes","internalType":"bytes"}],"outputs":[],"stateMutability":"nonpayable"},{"type":"function","name":"forceRespondToOpTask","inputs":[{"name":"task","type":"tuple","internalType":"struct IFinalizerTaskManager.OpTask","components":[{"name":"taskNum","type":"uint32","internalType":"uint32"},{"name":"taskCreatedBlock","type":"uint32","internalType":"uint32"},{"name":"lastCompletedOpTaskCreatedBlock","type":"uint32","internalType":"uint32"},{"name":"quorumNumbers","type":"bytes","internalType":"bytes"},{"name":"quorumThresholdPercentage","type":"uint32","internalType":"uint32"},{"name":"lastCompletedOpTaskQuorumNumbers","type":"bytes","internalType":"bytes"},{"name":"lastCompletedOpTaskQuorumThresholdPercentage","type":"uint32","internalType":"uint32"}]},{"name":"taskResponse","type":"tuple","internalType":"struct IFinalizerTaskManager.OpTaskResponse","components":[{"name":"referenceTaskIndex","type":"uint32","internalType":"uint32"},{"name":"referenceTaskHash","type":"bytes32","internalType":"bytes32"},{"name":"operatorsStateInfoHash","type":"bytes32","internalType":"bytes32"}]}],"outputs":[],"stateMutability":"nonpayable"},{"type":"function","name":"generator","inputs":[],"outputs":[{"name":"","type":"address","internalType":"address"}],"stateMutability":"view"},{"type":"function","name":"getBatchOperatorFromId","inputs":[{"name":"registryCoordinator","type":"address","internalType":"contract IRegistryCoordinator"},{"name":"operatorIds","type":"bytes32[]","internalType":"bytes32[]"}],"outputs":[{"name":"operators","type":"address[]","internalType":"address[]"}],"stateMutability":"view"},{"type":"function","name":"getBatchOperatorId","inputs":[{"name":"registryCoordinator","type":"address","internalType":"contract IRegistryCoordinator"},{"name":"operators","type":"address[]","internalType":"address[]"}],"outputs":[{"name":"operatorIds","type":"bytes32[]","internalType":"bytes32[]"}],"stateMutability":"view"},{"type":"function","name":"getCheckSignaturesIndices","inputs":[{"name":"registryCoordinator","type":"address","internalType":"contract IRegistryCoordinator"},{"name":"referenceBlockNumber","type":"uint32","internalType":"uint32"},{"name":"quorumNumbers","type":"bytes","internalType":"bytes"},{"name":"nonSignerOperatorIds","type":"bytes32[]","internalType":"bytes32[]"}],"outputs":[{"name":"","type":"tuple","internalType":"struct OperatorStateRetriever.CheckSignaturesIndices","components":[{"name":"nonSignerQuorumBitmapIndices","type":"uint32[]","internalType":"uint32[]"},{"name":"quorumApkIndices","type":"uint32[]","internalType":"uint32[]"},{"name":"totalStakeIndices","type":"uint32[]","internalType":"uint32[]"},{"name":"nonSignerStakeIndices","type":"uint32[][]","internalType":"uint32[][]"}]}],"stateMutability":"view"},{"type":"function","name":"getOperatorState","inputs":[{"name":"registryCoordinator","type":"address","internalType":"contract IRegistryCoordinator"},{"name":"quorumNumbers","type":"bytes","internalType":"bytes"},{"name":"blockNumber","type":"uint32","internalType":"uint32"}],"outputs":[{"name":"","type":"tuple[][]","internalType":"struct OperatorStateRetriever.Operator[][]","components":[{"name":"operator","type":"address","internalType":"address"},{"name":"operatorId","type":"bytes32","internalType":"bytes32"},{"name":"stake","type":"uint96","internalType":"uint96"}]}],"stateMutability":"view"},{"type":"function","name":"getOperatorState","inputs":[{"name":"registryCoordinator","type":"address","internalType":"contract IRegistryCoordinator"},{"name":"operatorId","type":"bytes32","internalType":"bytes32"},{"name":"blockNumber","type":"uint32","internalType":"uint32"}],"outputs":[{"name":"","type":"uint256","internalType":"uint256"},{"name":"","type":"tuple[][]","internalType":"struct OperatorStateRetriever.Operator[][]","components":[{"name":"operator","type":"address","internalType":"address"},{"name":"operatorId","type":"bytes32","internalType":"bytes32"},{"name":"stake","type":"uint96","internalType":"uint96"}]}],"stateMutability":"view"},{"type":"function","name":"getQuorumBitmapsAtBlockNumber","inputs":[{"name":"registryCoordinator","type":"address","internalType":"contract IRegistryCoordinator"},{"name":"operatorIds","type":"bytes32[]","internalType":"bytes32[]"},{"name":"blockNumber","type":"uint32","internalType":"uint32"}],"outputs":[{"name":"","type":"uint256[]","internalType":"uint256[]"}],"stateMutability":"view"},{"type":"function","name":"idToTaskStatus","inputs":[{"name":"","type":"uint8","internalType":"enum IFinalizerTaskManager.TaskType"},{"name":"","type":"uint32","internalType":"uint32"}],"outputs":[{"name":"","type":"uint8","internalType":"enum IFinalizerTaskManager.TaskStatus"}],"stateMutability":"view"},{"type":"function","name":"initialize","inputs":[{"name":"_pauserRegistry","type":"address","internalType":"contract IPauserRegistry"},{"name":"initialOwner","type":"address","internalType":"address"},{"name":"_aggregator","type":"address","internalType":"address"},{"name":"_generator","type":"address","internalType":"address"},{"name":"_allowNonRootInit","type":"bool","internalType":"bool"},{"name":"_blsSignatureCheckerAddress","type":"address","internalType":"address"},{"name":"_taskResponseWindowBlock","type":"uint32","internalType":"uint32"},{"name":"_operatorStateRetrieverExtended","type":"address","internalType":"address"},{"name":"_rolldown","type":"address","internalType":"contract IRolldown"}],"outputs":[],"stateMutability":"nonpayable"},{"type":"function","name":"isTaskPending","inputs":[],"outputs":[{"name":"","type":"bool","internalType":"bool"}],"stateMutability":"view"},{"type":"function","name":"lastCompletedOpTaskCreatedBlock","inputs":[],"outputs":[{"name":"","type":"uint32","internalType":"uint32"}],"stateMutability":"view"},{"type":"function","name":"lastCompletedOpTaskNum","inputs":[],"outputs":[{"name":"","type":"uint32","internalType":"uint32"}],"stateMutability":"view"},{"type":"function","name":"lastCompletedOpTaskQuorumNumbers","inputs":[],"outputs":[{"name":"","type":"bytes","internalType":"bytes"}],"stateMutability":"view"},{"type":"function","name":"lastCompletedOpTaskQuorumThresholdPercentage","inputs":[],"outputs":[{"name":"","type":"uint32","internalType":"uint32"}],"stateMutability":"view"},{"type":"function","name":"lastOpTaskCreatedBlock","inputs":[],"outputs":[{"name":"","type":"uint32","internalType":"uint32"}],"stateMutability":"view"},{"type":"function","name":"lastRdTaskCreatedBlock","inputs":[],"outputs":[{"name":"","type":"uint32","internalType":"uint32"}],"stateMutability":"view"},{"type":"function","name":"latestOpTaskNum","inputs":[],"outputs":[{"name":"","type":"uint32","internalType":"uint32"}],"stateMutability":"view"},{"type":"function","name":"latestRdTaskNum","inputs":[],"outputs":[{"name":"","type":"uint32","internalType":"uint32"}],"stateMutability":"view"},{"type":"function","name":"operatorStateRetrieverExtended","inputs":[],"outputs":[{"name":"","type":"address","internalType":"address"}],"stateMutability":"view"},{"type":"function","name":"operatorsStateInfoHash","inputs":[],"outputs":[{"name":"","type":"bytes32","internalType":"bytes32"}],"stateMutability":"view"},{"type":"function","name":"owner","inputs":[],"outputs":[{"name":"","type":"address","internalType":"address"}],"stateMutability":"view"},{"type":"function","name":"pause","inputs":[{"name":"newPausedStatus","type":"uint256","internalType":"uint256"}],"outputs":[],"stateMutability":"nonpayable"},{"type":"function","name":"pauseAll","inputs":[],"outputs":[],"stateMutability":"nonpayable"},{"type":"function","name":"pauseTrackingOpState","inputs":[],"outputs":[],"stateMutability":"nonpayable"},{"type":"function","name":"paused","inputs":[{"name":"index","type":"uint8","internalType":"uint8"}],"outputs":[{"name":"","type":"bool","internalType":"bool"}],"stateMutability":"view"},{"type":"function","name":"paused","inputs":[],"outputs":[{"name":"","type":"uint256","internalType":"uint256"}],"stateMutability":"view"},{"type":"function","name":"pauserRegistry","inputs":[],"outputs":[{"name":"","type":"address","internalType":"contract IPauserRegistry"}],"stateMutability":"view"},{"type":"function","name":"registryCoordinator","inputs":[],"outputs":[{"name":"","type":"address","internalType":"contract IRegistryCoordinator"}],"stateMutability":"view"},{"type":"function","name":"renounceOwnership","inputs":[],"outputs":[],"stateMutability":"nonpayable"},{"type":"function","name":"respondToOpTask","inputs":[{"name":"task","type":"tuple","internalType":"struct IFinalizerTaskManager.OpTask","components":[{"name":"taskNum","type":"uint32","internalType":"uint32"},{"name":"taskCreatedBlock","type":"uint32","internalType":"uint32"},{"name":"lastCompletedOpTaskCreatedBlock","type":"uint32","internalType":"uint32"},{"name":"quorumNumbers","type":"bytes","internalType":"bytes"},{"name":"quorumThresholdPercentage","type":"uint32","internalType":"uint32"},{"name":"lastCompletedOpTaskQuorumNumbers","type":"bytes","internalType":"bytes"},{"name":"lastCompletedOpTaskQuorumThresholdPercentage","type":"uint32","internalType":"uint32"}]},{"name":"taskResponse","type":"tuple","internalType":"struct IFinalizerTaskManager.OpTaskResponse","components":[{"name":"referenceTaskIndex","type":"uint32","internalType":"uint32"},{"name":"referenceTaskHash","type":"bytes32","internalType":"bytes32"},{"name":"operatorsStateInfoHash","type":"bytes32","internalType":"bytes32"}]},{"name":"nonSignerStakesAndSignature","type":"tuple","internalType":"struct IBLSSignatureChecker.NonSignerStakesAndSignature","components":[{"name":"nonSignerQuorumBitmapIndices","type":"uint32[]","internalType":"uint32[]"},{"name":"nonSignerPubkeys","type":"tuple[]","internalType":"struct BN254.G1Point[]","components":[{"name":"X","type":"uint256","internalType":"uint256"},{"name":"Y","type":"uint256","internalType":"uint256"}]},{"name":"quorumApks","type":"tuple[]","internalType":"struct BN254.G1Point[]","components":[{"name":"X","type":"uint256","internalType":"uint256"},{"name":"Y","type":"uint256","internalType":"uint256"}]},{"name":"apkG2","type":"tuple","internalType":"struct BN254.G2Point","components":[{"name":"X","type":"uint256[2]","internalType":"uint256[2]"},{"name":"Y","type":"uint256[2]","internalType":"uint256[2]"}]},{"name":"sigma","type":"tuple","internalType":"struct BN254.G1Point","components":[{"name":"X","type":"uint256","internalType":"uint256"},{"name":"Y","type":"uint256","internalType":"uint256"}]},{"name":"quorumApkIndices","type":"uint32[]","internalType":"uint32[]"},{"name":"totalStakeIndices","type":"uint32[]","internalType":"uint32[]"},{"name":"nonSignerStakeIndices","type":"uint32[][]","internalType":"uint32[][]"}]}],"outputs":[],"stateMutability":"nonpayable"},{"type":"function","name":"respondToRdTask","inputs":[{"name":"task","type":"tuple","internalType":"struct IFinalizerTaskManager.RdTask","components":[{"name":"taskNum","type":"uint32","internalType":"uint32"},{"name":"chainId","type":"uint8","internalType":"enum IRolldownPrimitives.ChainId"},{"name":"batchId","type":"uint32","internalType":"uint32"},{"name":"taskCreatedBlock","type":"uint32","internalType":"uint32"},{"name":"lastCompletedOpTaskCreatedBlock","type":"uint32","internalType":"uint32"},{"name":"lastCompletedOpTaskQuorumNumbers","type":"bytes","internalType":"bytes"},{"name":"lastCompletedOpTaskQuorumThresholdPercentage","type":"uint32","internalType":"uint32"}]},{"name":"taskResponse","type":"tuple","internalType":"struct IFinalizerTaskManager.RdTaskResponse","components":[{"name":"referenceTaskIndex","type":"uint32","internalType":"uint32"},{"name":"referenceTaskHash","type":"bytes32","internalType":"bytes32"},{"name":"chainId","type":"uint8","internalType":"enum IRolldownPrimitives.ChainId"},{"name":"batchId","type":"uint32","internalType":"uint32"},{"name":"rdUpdate","type":"bytes32","internalType":"bytes32"},{"name":"rangeStart","type":"uint256","internalType":"uint256"},{"name":"rangeEnd","type":"uint256","internalType":"uint256"},{"name":"updater","type":"address","internalType":"address"}]},{"name":"nonSignerStakesAndSignature","type":"tuple","internalType":"struct IBLSSignatureChecker.NonSignerStakesAndSignature","components":[{"name":"nonSignerQuorumBitmapIndices","type":"uint32[]","internalType":"uint32[]"},{"name":"nonSignerPubkeys","type":"tuple[]","internalType":"struct BN254.G1Point[]","components":[{"name":"X","type":"uint256","internalType":"uint256"},{"name":"Y","type":"uint256","internalType":"uint256"}]},{"name":"quorumApks","type":"tuple[]","internalType":"struct BN254.G1Point[]","components":[{"name":"X","type":"uint256","internalType":"uint256"},{"name":"Y","type":"uint256","internalType":"uint256"}]},{"name":"apkG2","type":"tuple","internalType":"struct BN254.G2Point","components":[{"name":"X","type":"uint256[2]","internalType":"uint256[2]"},{"name":"Y","type":"uint256[2]","internalType":"uint256[2]"}]},{"name":"sigma","type":"tuple","internalType":"struct BN254.G1Point","components":[{"name":"X","type":"uint256","internalType":"uint256"},{"name":"Y","type":"uint256","internalType":"uint256"}]},{"name":"quorumApkIndices","type":"uint32[]","internalType":"uint32[]"},{"name":"totalStakeIndices","type":"uint32[]","internalType":"uint32[]"},{"name":"nonSignerStakeIndices","type":"uint32[][]","internalType":"uint32[][]"}]}],"outputs":[],"stateMutability":"nonpayable"},{"type":"function","name":"resumeTrackingQuorums","inputs":[{"name":"resetTrackedQuorums","type":"bool","internalType":"bool"}],"outputs":[],"stateMutability":"nonpayable"},{"type":"function","name":"rolldown","inputs":[],"outputs":[{"name":"","type":"address","internalType":"contract IRolldown"}],"stateMutability":"view"},{"type":"function","name":"setPauserRegistry","inputs":[{"name":"newPauserRegistry","type":"address","internalType":"contract IPauserRegistry"}],"outputs":[],"stateMutability":"nonpayable"},{"type":"function","name":"setRolldown","inputs":[{"name":"_rolldown","type":"address","internalType":"contract IRolldown"}],"outputs":[],"stateMutability":"nonpayable"},{"type":"function","name":"stakeRegistry","inputs":[],"outputs":[{"name":"","type":"address","internalType":"contract IStakeRegistry"}],"stateMutability":"view"},{"type":"function","name":"taskResponseWindowBlock","inputs":[],"outputs":[{"name":"","type":"uint32","internalType":"uint32"}],"stateMutability":"view"},{"type":"function","name":"transferOwnership","inputs":[{"name":"newOwner","type":"address","internalType":"address"}],"outputs":[],"stateMutability":"nonpayable"},{"type":"function","name":"unpause","inputs":[{"name":"newPausedStatus","type":"uint256","internalType":"uint256"}],"outputs":[],"stateMutability":"nonpayable"},{"type":"function","name":"updateBlsSignatureCheckerAddress","inputs":[{"name":"_blsSignatureCheckerAddress","type":"address","internalType":"address"}],"outputs":[],"stateMutability":"nonpayable"},{"type":"function","name":"validateTaskResponse","inputs":[{"name":"taskHash","type":"bytes32","internalType":"bytes32"},{"name":"taskType","type":"uint8","internalType":"enum IFinalizerTaskManager.TaskType"},{"name":"referenceTaskIndex","type":"uint32","internalType":"uint32"},{"name":"taskCreatedBlock","type":"uint32","internalType":"uint32"}],"outputs":[],"stateMutability":"view"},{"type":"event","name":"BLSSignatureCheckerAddressUpdated","inputs":[{"name":"blsSignatureCheckerAddress","type":"address","indexed":false,"internalType":"address"}],"anonymous":false},{"type":"event","name":"Initialized","inputs":[{"name":"version","type":"uint8","indexed":false,"internalType":"uint8"}],"anonymous":false},{"type":"event","name":"NewOpTaskCreated","inputs":[{"name":"taskIndex","type":"uint32","indexed":true,"internalType":"uint32"},{"name":"task","type":"tuple","indexed":false,"internalType":"struct IFinalizerTaskManager.OpTask","components":[{"name":"taskNum","type":"uint32","internalType":"uint32"},{"name":"taskCreatedBlock","type":"uint32","internalType":"uint32"},{"name":"lastCompletedOpTaskCreatedBlock","type":"uint32","internalType":"uint32"},{"name":"quorumNumbers","type":"bytes","internalType":"bytes"},{"name":"quorumThresholdPercentage","type":"uint32","internalType":"uint32"},{"name":"lastCompletedOpTaskQuorumNumbers","type":"bytes","internalType":"bytes"},{"name":"lastCompletedOpTaskQuorumThresholdPercentage","type":"uint32","internalType":"uint32"}]}],"anonymous":false},{"type":"event","name":"NewOpTaskForceCreated","inputs":[],"anonymous":false},{"type":"event","name":"NewRdTaskCreated","inputs":[{"name":"taskIndex","type":"uint32","indexed":true,"internalType":"uint32"},{"name":"task","type":"tuple","indexed":false,"internalType":"struct IFinalizerTaskManager.RdTask","components":[{"name":"taskNum","type":"uint32","internalType":"uint32"},{"name":"chainId","type":"uint8","internalType":"enum IRolldownPrimitives.ChainId"},{"name":"batchId","type":"uint32","internalType":"uint32"},{"name":"taskCreatedBlock","type":"uint32","internalType":"uint32"},{"name":"lastCompletedOpTaskCreatedBlock","type":"uint32","internalType":"uint32"},{"name":"lastCompletedOpTaskQuorumNumbers","type":"bytes","internalType":"bytes"},{"name":"lastCompletedOpTaskQuorumThresholdPercentage","type":"uint32","internalType":"uint32"}]}],"anonymous":false},{"type":"event","name":"OpTaskCancelled","inputs":[{"name":"taskIndex","type":"uint32","indexed":true,"internalType":"uint32"}],"anonymous":false},{"type":"event","name":"OpTaskCompleted","inputs":[{"name":"taskIndex","type":"uint32","indexed":true,"internalType":"uint32"},{"name":"taskResponse","type":"tuple","indexed":false,"internalType":"struct IFinalizerTaskManager.OpTaskResponse","components":[{"name":"referenceTaskIndex","type":"uint32","internalType":"uint32"},{"name":"referenceTaskHash","type":"bytes32","internalType":"bytes32"},{"name":"operatorsStateInfoHash","type":"bytes32","internalType":"bytes32"}]}],"anonymous":false},{"type":"event","name":"OpTaskForceCompleted","inputs":[{"name":"taskIndex","type":"uint32","indexed":true,"internalType":"uint32"},{"name":"taskResponse","type":"tuple","indexed":false,"internalType":"struct IFinalizerTaskManager.OpTaskResponse","components":[{"name":"referenceTaskIndex","type":"uint32","internalType":"uint32"},{"name":"referenceTaskHash","type":"bytes32","internalType":"bytes32"},{"name":"operatorsStateInfoHash","type":"bytes32","internalType":"bytes32"}]}],"anonymous":false},{"type":"event","name":"OpTaskResponded","inputs":[{"name":"taskIndex","type":"uint32","indexed":true,"internalType":"uint32"},{"name":"taskResponse","type":"tuple","indexed":false,"internalType":"struct IFinalizerTaskManager.OpTaskResponse","components":[{"name":"referenceTaskIndex","type":"uint32","internalType":"uint32"},{"name":"referenceTaskHash","type":"bytes32","internalType":"bytes32"},{"name":"operatorsStateInfoHash","type":"bytes32","internalType":"bytes32"}]},{"name":"taskResponseMetadata","type":"tuple","indexed":false,"internalType":"struct IFinalizerTaskManager.TaskResponseMetadata","components":[{"name":"taskResponsedBlock","type":"uint32","internalType":"uint32"},{"name":"hashOfNonSigners","type":"bytes32","internalType":"bytes32"},{"name":"quroumStakeTotals","type":"uint96[]","internalType":"uint96[]"},{"name":"quroumStakeSigned","type":"uint96[]","internalType":"uint96[]"}]}],"anonymous":false},{"type":"event","name":"OwnershipTransferred","inputs":[{"name":"previousOwner","type":"address","indexed":true,"internalType":"address"},{"name":"newOwner","type":"address","indexed":true,"internalType":"address"}],"anonymous":false},{"type":"event","name":"PauseTrackingOpState","inputs":[],"anonymous":false},{"type":"event","name":"Paused","inputs":[{"name":"account","type":"address","indexed":true,"internalType":"address"},{"name":"newPausedStatus","type":"uint256","indexed":false,"internalType":"uint256"}],"anonymous":false},{"type":"event","name":"PauserRegistrySet","inputs":[{"name":"pauserRegistry","type":"address","indexed":false,"internalType":"contract IPauserRegistry"},{"name":"newPauserRegistry","type":"address","indexed":false,"internalType":"contract IPauserRegistry"}],"anonymous":false},{"type":"event","name":"RdTaskCancelled","inputs":[{"name":"taskIndex","type":"uint32","indexed":true,"internalType":"uint32"}],"anonymous":false},{"type":"event","name":"RdTaskCompleted","inputs":[{"name":"taskIndex","type":"uint32","indexed":true,"internalType":"uint32"},{"name":"taskResponse","type":"tuple","indexed":false,"internalType":"struct IFinalizerTaskManager.RdTaskResponse","components":[{"name":"referenceTaskIndex","type":"uint32","internalType":"uint32"},{"name":"referenceTaskHash","type":"bytes32","internalType":"bytes32"},{"name":"chainId","type":"uint8","internalType":"enum IRolldownPrimitives.ChainId"},{"name":"batchId","type":"uint32","internalType":"uint32"},{"name":"rdUpdate","type":"bytes32","internalType":"bytes32"},{"name":"rangeStart","type":"uint256","internalType":"uint256"},{"name":"rangeEnd","type":"uint256","internalType":"uint256"},{"name":"updater","type":"address","internalType":"address"}]}],"anonymous":false},{"type":"event","name":"RdTaskResponded","inputs":[{"name":"taskIndex","type":"uint32","indexed":true,"internalType":"uint32"},{"name":"taskResponse","type":"tuple","indexed":false,"internalType":"struct IFinalizerTaskManager.RdTaskResponse","components":[{"name":"referenceTaskIndex","type":"uint32","internalType":"uint32"},{"name":"referenceTaskHash","type":"bytes32","internalType":"bytes32"},{"name":"chainId","type":"uint8","internalType":"enum IRolldownPrimitives.ChainId"},{"name":"batchId","type":"uint32","internalType":"uint32"},{"name":"rdUpdate","type":"bytes32","internalType":"bytes32"},{"name":"rangeStart","type":"uint256","internalType":"uint256"},{"name":"rangeEnd","type":"uint256","internalType":"uint256"},{"name":"updater","type":"address","internalType":"address"}]},{"name":"taskResponseMetadata","type":"tuple","indexed":false,"internalType":"struct IFinalizerTaskManager.TaskResponseMetadata","components":[{"name":"taskResponsedBlock","type":"uint32","internalType":"uint32"},{"name":"hashOfNonSigners","type":"bytes32","internalType":"bytes32"},{"name":"quroumStakeTotals","type":"uint96[]","internalType":"uint96[]"},{"name":"quroumStakeSigned","type":"uint96[]","internalType":"uint96[]"}]}],"anonymous":false},{"type":"event","name":"ResumeTrackingOpState","inputs":[{"name":"resetTrackedQuorums","type":"bool","indexed":false,"internalType":"bool"}],"anonymous":false},{"type":"event","name":"RolldownTargetUpdated","inputs":[{"name":"rolldownAddress","type":"address","indexed":false,"internalType":"address"}],"anonymous":false},{"type":"event","name":"StaleStakesForbiddenUpdate","inputs":[{"name":"value","type":"bool","indexed":false,"internalType":"bool"}],"anonymous":false},{"type":"event","name":"Unpaused","inputs":[{"name":"account","type":"address","indexed":true,"internalType":"address"},{"name":"newPausedStatus","type":"uint256","indexed":false,"internalType":"uint256"}],"anonymous":false}],"bytecode":{"object":"0x608060405234801561001057600080fd5b50615f8180620000216000396000f3fe608060405234801561001057600080fd5b506004361061038e5760003560e01c806368304835116101de5780638fc8729a1161010f578063df5cf723116100ad578063f2fde38b1161007c578063f2fde38b14610856578063f5640cf814610869578063fabc1cbc1461087c578063fdc15de81461088f57600080fd5b8063df5cf72314610823578063e70c26231461082b578063e72ddf101461083b578063ef0244581461084e57600080fd5b8063adfcb048116100e9578063adfcb048146107ab578063bf2315ed146107b4578063cefdc1d4146107ef578063de4348381461081057600080fd5b80638fc8729a14610757578063930390d91461076e578063a69563a91461079457600080fd5b806379badf731161017c5780638380acbd116101565780638380acbd14610708578063886f11951461071b5780638c82af5e1461072e5780638da5cb5b1461074657600080fd5b806379badf73146106d65780637afa1eed146106de5780637afdd54b146106f157600080fd5b80636efb4636116101b85780636efb4636146106875780636f254819146106a8578063715018a6146106bb578063723114ab146106c357600080fd5b806368304835146106645780636d14a9871461066c5780636e125ff41461067457600080fd5b80633d9fb00c116102c3578063537a2929116102615780635c155662116102305780635c1556621461062c5780635c975abb1461064c5780635df459461461065457806360202fc01461065c57600080fd5b8063537a2929146105dc57806354d127de146105f3578063595c6a67146106015780635ac86ab71461060957600080fd5b80634d2b57fe1161029d5780634d2b57fe146105795780634d7a7116146105995780634f739f74146105a9578063516a7227146105c957600080fd5b80633d9fb00c1461052957806341789d571461053c57806345265b7a1461056857600080fd5b80631c178e9c1161033057806331b36bd91161030a57806331b36bd9146104c25780633563b0d1146104e257806336f78ed81461050257806337d347d11461051657600080fd5b80631c178e9c14610467578063245a7bfc146104925780632830e8f9146104ad57600080fd5b8063136439dd1161036c578063136439dd146103dd57806313f815ed146103f0578063191aac7a146104295780631ac272971461043c57600080fd5b806301a3f013146103935780630ee0fdbd146103a857806310d67a2f146103ca575b600080fd5b6103a66103a13660046142bb565b6108a2565b005b60a3546103b59060ff1681565b60405190151581526020015b60405180910390f35b6103a66103d836600461431e565b610b6d565b6103a66103eb36600461433b565b610c26565b61041b6103fe366004614383565b609960209081526000928352604080842090915290825290205481565b6040519081526020016103c1565b6103a66104373660046143ca565b610d65565b61041b61044a366004614383565b609a60209081526000928352604080842090915290825290205481565b60975461047a906001600160a01b031681565b6040516001600160a01b0390911681526020016103c1565b609e5461047a9064010000000090046001600160a01b031681565b6104b5610da6565b6040516103c19190614434565b6104d56104d03660046144fb565b610e34565b6040516103c191906145e9565b6104f56104f03660046145fc565b610f50565b6040516103c19190614757565b60a0546103b590600160a01b900460ff1681565b6103a661052436600461476a565b6113e8565b60a05461047a906001600160a01b031681565b60985461055390600160c01b900463ffffffff1681565b60405163ffffffff90911681526020016103c1565b6103a66105763660046147bd565b50565b61058c61058736600461485d565b61165c565b6040516103c191906148ac565b609c546105539063ffffffff1681565b6105bc6105b7366004614941565b611771565b6040516103c19190614a8f565b6103a66105d7366004614e3e565b611e97565b609c5461055390600160601b900463ffffffff1681565b6103a6610576366004614eb2565b6103a66123ac565b6103b5610617366004614eed565b606654600160ff9092169190911b9081161490565b61063f61063a366004614f10565b612473565b6040516103c19190614f73565b60665461041b565b61047a61263b565b6103a66126ae565b61047a612710565b61047a61275a565b6103a6610682366004614fab565b6127a4565b61069a610695366004614fff565b612847565b6040516103c19291906150bf565b6103a66106b6366004614383565b6128e7565b6103a6612bf8565b6103a66106d136600461431e565b612c0a565b6103a6612c60565b609f5461047a906001600160a01b031681565b60985461055390600160e01b900463ffffffff1681565b60985461047a906001600160a01b031681565b60655461047a906001600160a01b031681565b609c5461055390640100000000900463ffffffff1681565b6033546001600160a01b031661047a565b609c5461055390600160401b900463ffffffff1681565b61055361077c366004615108565b60a16020526000908152604090205463ffffffff1681565b60985461055390600160a01b900463ffffffff1681565b61041b60a25481565b6107e26107c2366004614383565b609b60209081526000928352604080842090915290825290205460ff1681565b6040516103c1919061513b565b6108026107fd366004615155565b612c93565b6040516103c192919061518c565b6103a661081e3660046151ad565b612e25565b61047a612fde565b609e546105539063ffffffff1681565b6103a6610849366004615269565b613028565b61041b606481565b6103a661086436600461431e565b613699565b6103a6610877366004614fab565b61370f565b6103a661088a36600461433b565b61376a565b6103a661089d36600461431e565b6138c6565b6108aa61396c565b6108f6826040516020016108be919061534f565b60408051601f198184030181529190528051602091820120906000906108e690850185615429565b6105246040870160208801615429565b60408051808201909152606080825260208201526040805160808101825263ffffffff4316815260006020808301829052848101518385015284516060840152925190926109489186918491016154b6565b60408051601f1981840301815291905280516020918201206000808052609a835290917fbe6620bd3346e5d7f8387fbec0981aa0d6289d22efa7c935f9ef6841bf2a98c7919061099a90880188615429565b63ffffffff168152602080820192909252604090810160009081209390935586013560a255818052609b8152600491600080516020615f0c833981519152916109e590880188615429565b63ffffffff1681526020810191909152604001600020805460ff19166001836004811115610a1557610a15615125565b0217905550610a2a6040860160208701615429565b609c805463ffffffff92909216600160601b0263ffffffff60601b19909216919091179055610a5c60608601866154d6565b610a6891609d916141f8565b50610a7960a0860160808701615429565b609e805463ffffffff191663ffffffff92909216919091179055610aa06020860186615429565b609c805463ffffffff92909216600160401b0263ffffffff60401b1990921691909117905560a0805460ff60a01b19169055610adf6020850185615429565b63ffffffff167fff2908483d74b6b70053dd473260acf1b09e0ba0781bf94100bb8277581749de85604051610b14919061551c565b60405180910390a2610b296020850185615429565b63ffffffff167fdf22f3558e4841b63d77179546b3eae63e4e343bbe752746b093162bc526be4c85604051610b5e919061551c565b60405180910390a25050505050565b606560009054906101000a90046001600160a01b03166001600160a01b031663eab66d7a6040518163ffffffff1660e01b8152600401602060405180830381865afa158015610bc0573d6000803e3d6000fd5b505050506040513d601f19601f82011682018060405250810190610be4919061552a565b6001600160a01b0316336001600160a01b031614610c1d5760405162461bcd60e51b8152600401610c1490615547565b60405180910390fd5b610576816139c6565b60655460405163237dfb4760e11b81523360048201526001600160a01b03909116906346fbf68e90602401602060405180830381865afa158015610c6e573d6000803e3d6000fd5b505050506040513d601f19601f82011682018060405250810190610c929190615591565b610cae5760405162461bcd60e51b8152600401610c14906155ae565b60665481811614610d275760405162461bcd60e51b815260206004820152603860248201527f5061757361626c652e70617573653a20696e76616c696420617474656d70742060448201527f746f20756e70617573652066756e6374696f6e616c69747900000000000000006064820152608401610c14565b606681905560405181815233907fab40a374bc51de372200a8bc981af8c9ecdc08dfdaef0bb6e09f88f3c616ef3d906020015b60405180910390a250565b610d6d61396c565b60405181151581527f6af4ae1f481aff20ce571abd65375b67b22359883a823d1ddf4bd8f2879ff7ba906020015b60405180910390a150565b609d8054610db3906155f6565b80601f0160208091040260200160405190810160405280929190818152602001828054610ddf906155f6565b8015610e2c5780601f10610e0157610100808354040283529160200191610e2c565b820191906000526020600020905b815481529060010190602001808311610e0f57829003601f168201915b505050505081565b606081516001600160401b03811115610e4f57610e4f614447565b604051908082528060200260200182016040528015610e78578160200160208202803683370190505b50905060005b8251811015610f4957836001600160a01b03166313542a4e848381518110610ea857610ea861562b565b60200260200101516040518263ffffffff1660e01b8152600401610edb91906001600160a01b0391909116815260200190565b602060405180830381865afa158015610ef8573d6000803e3d6000fd5b505050506040513d601f19601f82011682018060405250810190610f1c9190615641565b828281518110610f2e57610f2e61562b565b6020908102919091010152610f4281615670565b9050610e7e565b5092915050565b60606000846001600160a01b031663683048356040518163ffffffff1660e01b8152600401602060405180830381865afa158015610f92573d6000803e3d6000fd5b505050506040513d601f19601f82011682018060405250810190610fb6919061552a565b90506000856001600160a01b0316639e9923c26040518163ffffffff1660e01b8152600401602060405180830381865afa158015610ff8573d6000803e3d6000fd5b505050506040513d601f19601f8201168201806040525081019061101c919061552a565b90506000866001600160a01b0316635df459466040518163ffffffff1660e01b8152600401602060405180830381865afa15801561105e573d6000803e3d6000fd5b505050506040513d601f19601f82011682018060405250810190611082919061552a565b9050600086516001600160401b0381111561109f5761109f614447565b6040519080825280602002602001820160405280156110d257816020015b60608152602001906001900390816110bd5790505b50905060005b87518110156113da5760008882815181106110f5576110f561562b565b0160200151604051638902624560e01b815260f89190911c6004820181905263ffffffff8a16602483015291506000906001600160a01b03871690638902624590604401600060405180830381865afa158015611156573d6000803e3d6000fd5b505050506040513d6000823e601f3d908101601f1916820160405261117e919081019061568b565b905080516001600160401b0381111561119957611199614447565b6040519080825280602002602001820160405280156111e457816020015b60408051606081018252600080825260208083018290529282015282526000199092019101816111b75790505b508484815181106111f7576111f761562b565b602002602001018190525060005b81518110156113c4576040518060600160405280876001600160a01b03166347b314e885858151811061123a5761123a61562b565b60200260200101516040518263ffffffff1660e01b815260040161126091815260200190565b602060405180830381865afa15801561127d573d6000803e3d6000fd5b505050506040513d601f19601f820116820180604052508101906112a1919061552a565b6001600160a01b031681526020018383815181106112c1576112c161562b565b60200260200101518152602001896001600160a01b031663fa28c6278585815181106112ef576112ef61562b565b60209081029190910101516040516001600160e01b031960e084901b168152600481019190915260ff8816602482015263ffffffff8f166044820152606401602060405180830381865afa15801561134b573d6000803e3d6000fd5b505050506040513d601f19601f8201168201806040525081019061136f9190615732565b6001600160601b031681525085858151811061138d5761138d61562b565b602002602001015182815181106113a6576113a661562b565b602002602001018190525080806113bc90615670565b915050611205565b50505080806113d290615670565b9150506110d8565b5093505050505b9392505050565b60a054600160a01b900460ff1615156001146114385760405162461bcd60e51b815260206004820152600f60248201526e4e6f207461736b2070656e64696e6760881b6044820152606401610c14565b6099600084600181111561144e5761144e615125565b600181111561145f5761145f615125565b815260200190815260200160002060008363ffffffff1663ffffffff1681526020019081526020016000205484146114c95760405162461bcd60e51b815260206004820152600d60248201526c0a8c2e6d640dad2e6dac2e8c6d609b1b6044820152606401610c14565b6001609b60008560018111156114e1576114e1615125565b60018111156114f2576114f2615125565b81526020808201929092526040908101600090812063ffffffff8716825290925290205460ff16600481111561152a5761152a615125565b146115685760405162461bcd60e51b815260206004820152600e60248201526d4e6f7420496e697420737461746560901b6044820152606401610c14565b6000609a8185600181111561157f5761157f615125565b600181111561159057611590615125565b815260200190815260200160002060008463ffffffff1663ffffffff16815260200190815260200160002054146115f65760405162461bcd60e51b815260206004820152600a6024820152690416c72647920526573760b41b6044820152606401610c14565b60985461161090600160a01b900463ffffffff168261574d565b63ffffffff164363ffffffff1611156116565760405162461bcd60e51b8152602060048201526008602482015267546f6f206c61746560c01b6044820152606401610c14565b50505050565b606081516001600160401b0381111561167757611677614447565b6040519080825280602002602001820160405280156116a0578160200160208202803683370190505b50905060005b8251811015610f4957836001600160a01b031663296bb0648483815181106116d0576116d061562b565b60200260200101516040518263ffffffff1660e01b81526004016116f691815260200190565b602060405180830381865afa158015611713573d6000803e3d6000fd5b505050506040513d601f19601f82011682018060405250810190611737919061552a565b8282815181106117495761174961562b565b6001600160a01b039092166020928302919091019091015261176a81615670565b90506116a6565b61179c6040518060800160405280606081526020016060815260200160608152602001606081525090565b6000876001600160a01b031663683048356040518163ffffffff1660e01b8152600401602060405180830381865afa1580156117dc573d6000803e3d6000fd5b505050506040513d601f19601f82011682018060405250810190611800919061552a565b905061182d6040518060800160405280606081526020016060815260200160608152602001606081525090565b6040516361c8a12f60e11b81526001600160a01b038a169063c391425e9061185d908b9089908990600401615775565b600060405180830381865afa15801561187a573d6000803e3d6000fd5b505050506040513d6000823e601f3d908101601f191682016040526118a291908101906157bf565b81526040516340e03a8160e11b81526001600160a01b038316906381c07502906118d4908b908b908b9060040161584d565b600060405180830381865afa1580156118f1573d6000803e3d6000fd5b505050506040513d6000823e601f3d908101601f1916820160405261191991908101906157bf565b6040820152856001600160401b0381111561193657611936614447565b60405190808252806020026020018201604052801561196957816020015b60608152602001906001900390816119545790505b50606082015260005b60ff8116871115611da8576000856001600160401b0381111561199757611997614447565b6040519080825280602002602001820160405280156119c0578160200160208202803683370190505b5083606001518360ff16815181106119da576119da61562b565b602002602001018190525060005b86811015611ca85760008c6001600160a01b03166304ec63518a8a85818110611a1357611a1361562b565b905060200201358e88600001518681518110611a3157611a3161562b565b60200260200101516040518463ffffffff1660e01b8152600401611a6e9392919092835263ffffffff918216602084015216604082015260600190565b602060405180830381865afa158015611a8b573d6000803e3d6000fd5b505050506040513d601f19601f82011682018060405250810190611aaf919061586d565b90506001600160c01b038116611b535760405162461bcd60e51b815260206004820152605c60248201527f4f70657261746f7253746174655265747269657665722e676574436865636b5360448201527f69676e617475726573496e64696365733a206f70657261746f72206d7573742060648201527f6265207265676973746572656420617420626c6f636b6e756d62657200000000608482015260a401610c14565b8a8a8560ff16818110611b6857611b6861562b565b6001600160c01b03841692013560f81c9190911c600190811614159050611c9557856001600160a01b031663dd9846b98a8a85818110611baa57611baa61562b565b905060200201358d8d8860ff16818110611bc657611bc661562b565b6040516001600160e01b031960e087901b1681526004810194909452919091013560f81c60248301525063ffffffff8f166044820152606401602060405180830381865afa158015611c1c573d6000803e3d6000fd5b505050506040513d601f19601f82011682018060405250810190611c409190615896565b85606001518560ff1681518110611c5957611c5961562b565b60200260200101518481518110611c7257611c7261562b565b63ffffffff9092166020928302919091019091015282611c9181615670565b9350505b5080611ca081615670565b9150506119e8565b506000816001600160401b03811115611cc357611cc3614447565b604051908082528060200260200182016040528015611cec578160200160208202803683370190505b50905060005b82811015611d6d5784606001518460ff1681518110611d1357611d1361562b565b60200260200101518181518110611d2c57611d2c61562b565b6020026020010151828281518110611d4657611d4661562b565b63ffffffff9092166020928302919091019091015280611d6581615670565b915050611cf2565b508084606001518460ff1681518110611d8857611d8861562b565b602002602001018190525050508080611da0906158b3565b915050611972565b506000896001600160a01b0316635df459466040518163ffffffff1660e01b8152600401602060405180830381865afa158015611de9573d6000803e3d6000fd5b505050506040513d601f19601f82011682018060405250810190611e0d919061552a565b60405163354952a360e21b81529091506001600160a01b0382169063d5254a8c90611e40908b908b908e906004016158d3565b600060405180830381865afa158015611e5d573d6000803e3d6000fd5b505050506040513d6000823e601f3d908101601f19168201604052611e8591908101906157bf565b60208301525098975050505050505050565b609c54600160601b900463ffffffff16151580611eb6575060a35460ff165b611ef25760405162461bcd60e51b815260206004820152600d60248201526c1d5cd9481c9bdbdd081a5b9a5d609a1b6044820152606401610c14565b366000611f0260a08601866154d6565b90925090506000611f1960e0870160c08801615429565b9050611f6786604051602001611f2f919061534f565b60408051601f19818403018152919052805160209182012090600090611f5790890189615429565b61052460408b0160208c01615429565b600085604051602001611f7a919061551c565b60408051601f19818403018152828252805160209182012083830190925260608084529083015291506000609760009054906101000a90046001600160a01b03166001600160a01b0316636efb46368488888d6040016020810190611fdf9190615429565b8c6040518663ffffffff1660e01b8152600401612000959493929190615981565b600060405180830381865afa15801561201d573d6000803e3d6000fd5b505050506040513d6000823e601f3d908101601f191682016040526120459190810190615ae1565b6040805160808101825263ffffffff43168152602080820184905280850151828401528451606083015291519395509193509091612087918b918491016154b6565b60408051601f1981840301815291905280516020918201206000808052609a835290917fbe6620bd3346e5d7f8387fbec0981aa0d6289d22efa7c935f9ef6841bf2a98c791906120d9908d018d615429565b63ffffffff168152602080820192909252604001600090812092909255818052609b8152600391600080516020615f0c8339815191529161211c908d018d615429565b63ffffffff1681526020810191909152604001600020805460ff1916600183600481111561214c5761214c615125565b021790555060a0805460ff60a01b1916905561216b60208b018b615429565b63ffffffff167f47adacb0b6bbd726ae39ac6c006cca1c2006c9aedaa882dcba7c4804db7c41ce8a836040516121a29291906154b6565b60405180910390a260005b86811015612242578560ff16846020015182815181106121cf576121cf61562b565b60200260200101516121e19190615b7d565b6001600160601b03166064856000015183815181106122025761220261562b565b60200260200101516001600160601b031661221d9190615bac565b1015612230575050505050505050505050565b8061223a81615670565b9150506121ad565b50604089013560a2556000808052609b6020908152600491600080516020615f0c83398151915291612276908d018d615429565b63ffffffff1681526020810191909152604001600020805460ff191660018360048111156122a6576122a6615125565b02179055506122bb60408b0160208c01615429565b609c805463ffffffff92909216600160601b0263ffffffff60601b199092169190911790556122ed60608b018b6154d6565b6122f991609d916141f8565b5061230a60a08b0160808c01615429565b609e805463ffffffff191663ffffffff9290921691909117905561233160208b018b615429565b609c805463ffffffff92909216600160401b0263ffffffff60401b1990921691909117905561236360208a018a615429565b63ffffffff167fff2908483d74b6b70053dd473260acf1b09e0ba0781bf94100bb8277581749de8a604051612398919061551c565b60405180910390a250505050505050505050565b60655460405163237dfb4760e11b81523360048201526001600160a01b03909116906346fbf68e90602401602060405180830381865afa1580156123f4573d6000803e3d6000fd5b505050506040513d601f19601f820116820180604052508101906124189190615591565b6124345760405162461bcd60e51b8152600401610c14906155ae565b600019606681905560405190815233907fab40a374bc51de372200a8bc981af8c9ecdc08dfdaef0bb6e09f88f3c616ef3d9060200160405180910390a2565b60606000846001600160a01b031663c391425e84866040518363ffffffff1660e01b81526004016124a5929190615bcb565b600060405180830381865afa1580156124c2573d6000803e3d6000fd5b505050506040513d6000823e601f3d908101601f191682016040526124ea91908101906157bf565b9050600084516001600160401b0381111561250757612507614447565b604051908082528060200260200182016040528015612530578160200160208202803683370190505b50905060005b855181101561263157866001600160a01b03166304ec63518783815181106125605761256061562b565b60200260200101518786858151811061257b5761257b61562b565b60200260200101516040518463ffffffff1660e01b81526004016125b89392919092835263ffffffff918216602084015216604082015260600190565b602060405180830381865afa1580156125d5573d6000803e3d6000fd5b505050506040513d601f19601f820116820180604052508101906125f9919061586d565b6001600160c01b03168282815181106126145761261461562b565b60209081029190910101528061262981615670565b915050612536565b5095945050505050565b60975460408051632efa2ca360e11b815290516000926001600160a01b031691635df459469160048083019260209291908290030181865afa158015612685573d6000803e3d6000fd5b505050506040513d601f19601f820116820180604052508101906126a9919061552a565b905090565b6126b661396c565b60a054600160a01b900460ff1615156001146127065760405162461bcd60e51b815260206004820152600f60248201526e4e6f207461736b2070656e64696e6760881b6044820152606401610c14565b61270e613abd565b565b60975460408051636830483560e01b815290516000926001600160a01b03169163683048359160048083019260209291908290030181865afa158015612685573d6000803e3d6000fd5b60975460408051636d14a98760e01b815290516000926001600160a01b031691636d14a9879160048083019260209291908290030181865afa158015612685573d6000803e3d6000fd5b609f546001600160a01b031633146127e65760405162461bcd60e51b8152602060048201526005602482015264417574683160d81b6044820152606401610c14565b60a054600160a01b900460ff16156128375760405162461bcd60e51b81526020600482015260146024820152735461736b20616c72656164792070656e64696e6760601b6044820152606401610c14565b612842838383613c66565b505050565b604080518082019091526060808252602082015260975460405163377da31b60e11b81526000916001600160a01b031690636efb463690612894908a908a908a908a908a90600401615981565b600060405180830381865afa1580156128b1573d6000803e3d6000fd5b505050506040513d6000823e601f3d908101601f191682016040526128d99190810190615ae1565b915091509550959350505050565b609f546001600160a01b031633146129295760405162461bcd60e51b8152602060048201526005602482015264417574683160d81b6044820152606401610c14565b60a054600160a01b900460ff161561297a5760405162461bcd60e51b81526020600482015260146024820152735461736b20616c72656164792070656e64696e6760601b6044820152606401610c14565b609c54600160601b900463ffffffff161580159061299757504315155b6129d55760405162461bcd60e51b815260206004820152600f60248201526e13dc0814dd185d19481d5b9a5b9a5d608a1b6044820152606401610c14565b6098546040805160e08101909152600160e01b90910463ffffffff168082529060009060208101856001811115612a0e57612a0e615125565b815263ffffffff80861660208301524381166040830152609c54600160601b9004166060820152609d8054608090920191612a48906155f6565b80601f0160208091040260200160405190810160405280929190818152602001828054612a74906155f6565b8015612ac15780601f10612a9657610100808354040283529160200191612ac1565b820191906000526020600020905b815481529060010190602001808311612aa457829003601f168201915b5050509183525050609e5463ffffffff16602091820152604051919250612aea91839101615bfe565b60408051808303601f19018152828252805160209182012063ffffffff86811660008181527fbb86fbc034f4e382929974bcd8419ed626b0ea647f962d89ba2fb6bd28785ab9855285812093909355600080516020615f2c8339815191529093529290208054600160ff19909116179055609c8054439093166401000000000267ffffffff00000000199093169290921790915560a0805460ff60a01b1916600160a01b179055907f584637a8f9d0f91a80c9f709b2b09d7db1d770fc7294e20d9d2495c378586cd290612bbf908490615bfe565b60405180910390a2612bd282600161574d565b6098601c6101000a81548163ffffffff021916908363ffffffff16021790555050505050565b612c0061396c565b61270e6000613fbf565b612c1261396c565b609780546001600160a01b0319166001600160a01b0383169081179091556040519081527f901a654dc830c94e8a12c9a3bc0a92ac11b5cf28046ca8d190691cdaf520901690602001610d9b565b612c6861396c565b6040517f4d60154266b2ea0c8f091d257eac5abc941c46cb54d0c3069a830f6339fe1da190600090a1565b6040805160018082528183019092526000916060918391602080830190803683370190505090508481600081518110612cce57612cce61562b565b60209081029190910101526040516361c8a12f60e11b81526000906001600160a01b0388169063c391425e90612d0a9088908690600401615bcb565b600060405180830381865afa158015612d27573d6000803e3d6000fd5b505050506040513d6000823e601f3d908101601f19168201604052612d4f91908101906157bf565b600081518110612d6157612d6161562b565b60209081029190910101516040516304ec635160e01b81526004810188905263ffffffff87811660248301529091166044820181905291506000906001600160a01b038916906304ec635190606401602060405180830381865afa158015612dcd573d6000803e3d6000fd5b505050506040513d601f19601f82011682018060405250810190612df1919061586d565b6001600160c01b031690506000612e0782614011565b905081612e158a838a610f50565b9550955050505050935093915050565b600054610100900460ff1615808015612e455750600054600160ff909116105b80612e5f5750303b158015612e5f575060005460ff166001145b612ec25760405162461bcd60e51b815260206004820152602e60248201527f496e697469616c697a61626c653a20636f6e747261637420697320616c72656160448201526d191e481a5b9a5d1a585b1a5e995960921b6064820152608401610c14565b6000805460ff191660011790558015612ee5576000805461ff0019166101001790555b612ef08a60006140dd565b612ef989613fbf565b609e8054640100000000600160c01b0319166401000000006001600160a01b038b81169190910291909117909155609f80546001600160a01b03199081168a84161790915560a3805460ff1916891515179055609780548216888416179055609880548684166001600160c01b031990911617600160a01b63ffffffff89160217905560a080549091169184169190911790558015612fd2576000805461ff0019169055604051600181527f7f26b83ff96e1f2b6a682f133852f6798a09c465da95921460cefb38474024989060200160405180910390a15b50505050505050505050565b6097546040805163df5cf72360e01b815290516000926001600160a01b03169163df5cf7239160048083019260209291908290030181865afa158015612685573d6000803e3d6000fd5b609e5464010000000090046001600160a01b031633146130725760405162461bcd60e51b8152602060048201526005602482015264041757468360dc1b6044820152606401610c14565b36600061308260a08601866154d6565b9092509050600061309960e0870160c08801615429565b905060a160006130af6060880160408901615108565b60018111156130c0576130c0615125565b60018111156130d1576130d1615125565b815260208101919091526040016000205463ffffffff161580613154575060a160006131036060880160408901615108565b600181111561311457613114615125565b600181111561312557613125615125565b815260208101919091526040016000205463ffffffff1661314c6080870160608801615429565b63ffffffff16145b6131a05760405162461bcd60e51b815260206004820152601a60248201527f636861696e526442617463684e6f6e6365206d69736d617463680000000000006044820152606401610c14565b6131ec866040516020016131b49190615c7c565b60408051601f198184030181529190528051602091820120906001906131dc90890189615429565b61052460808b0160608c01615429565b6000856040516020016131ff9190615dc8565b604051602081830303815290604052805190602001209050600080609760009054906101000a90046001600160a01b03166001600160a01b0316636efb46368488888d60800160208101906132549190615429565b8c6040518663ffffffff1660e01b8152600401613275959493929190615981565b600060405180830381865afa158015613292573d6000803e3d6000fd5b505050506040513d6000823e601f3d908101601f191682016040526132ba9190810190615ae1565b6040805160808101825263ffffffff431681526020808201849052808501518284015284516060830152915193955091935090916132fc918b91849101615dd7565b60408051601f19818403018152919052805160209182012060016000908152609a835290917f5b542b52981c4f2fa9965514d5bb7f37f1b7bc0902a6a4dc6b04dc05be85586b9190613350908d018d615429565b63ffffffff16815260208082019290925260400160009081209290925560018252609b8152600391600080516020615f2c83398151915291613394908d018d615429565b63ffffffff1681526020810191909152604001600020805460ff191660018360048111156133c4576133c4615125565b021790555060a0805460ff60a01b191690556133e360208b018b615429565b63ffffffff167f82e5c8e9447510b867d248c892385ba34fa6c2d4c4c26ff6868499ae4027f2c68a8360405161341a929190615dd7565b60405180910390a260005b868110156134ba578560ff16846020015182815181106134475761344761562b565b60200260200101516134599190615b7d565b6001600160601b031660648560000151838151811061347a5761347a61562b565b60200260200101516001600160601b03166134959190615bac565b10156134a8575050505050505050505050565b806134b281615670565b915050613425565b5060016000908152609b6020908152600491600080516020615f2c833981519152916134e8908d018d615429565b63ffffffff1681526020810191909152604001600020805460ff1916600183600481111561351857613518615125565b021790555060008061353060608c0160408d01615108565b600181111561354157613541615125565b14156135c85760408051808201825260a08c810135825260c08d013560208301525491516223d0b560e61b815290916001600160a01b0316906308f42d40906135949060808f0135908590600401615df9565b600060405180830381600087803b1580156135ae57600080fd5b505af11580156135c2573d6000803e3d6000fd5b50505050505b6135d860808b0160608c01615429565b6135e390600161574d565b60a160006135f760608e0160408f01615108565b600181111561360857613608615125565b600181111561361957613619615125565b8152602080820192909252604001600020805463ffffffff191663ffffffff939093169290921790915561364f908b018b615429565b63ffffffff167f1797ca59e06ea4a0efe10ac0fb51b58c8acf5cfedbc15fae51c10021dcb906e68b6040516136849190615dc8565b60405180910390a25050505050505050505050565b6136a161396c565b6001600160a01b0381166137065760405162461bcd60e51b815260206004820152602660248201527f4f776e61626c653a206e6577206f776e657220697320746865207a65726f206160448201526564647265737360d01b6064820152608401610c14565b61057681613fbf565b61371761396c565b60a054600160a01b900460ff161561373157613731613abd565b61373c838383613c66565b6040517f4ee987e5f1be19cabfb1a243e5c423889f060f33266753953ff0cf9db89966ab90600090a1505050565b606560009054906101000a90046001600160a01b03166001600160a01b031663eab66d7a6040518163ffffffff1660e01b8152600401602060405180830381865afa1580156137bd573d6000803e3d6000fd5b505050506040513d601f19601f820116820180604052508101906137e1919061552a565b6001600160a01b0316336001600160a01b0316146138115760405162461bcd60e51b8152600401610c1490615547565b60665419811960665419161461388f5760405162461bcd60e51b815260206004820152603860248201527f5061757361626c652e756e70617573653a20696e76616c696420617474656d7060448201527f7420746f2070617573652066756e6374696f6e616c69747900000000000000006064820152608401610c14565b606681905560405181815233907f3582d1828e26bf56bd801502bc021ac0bc8afb57c826e4986b45593c8fad389c90602001610d5a565b606654156139165760405162461bcd60e51b815260206004820152601c60248201527f5061757361626c653a20636f6e747261637420697320706175736564000000006044820152606401610c14565b61391e61396c565b60a080546001600160a01b0319166001600160a01b0383169081179091556040519081527f2f20cf1bda67739044c5bf577353970c3dbc183b2c7274d1e8584a102692326790602001610d9b565b6033546001600160a01b0316331461270e5760405162461bcd60e51b815260206004820181905260248201527f4f776e61626c653a2063616c6c6572206973206e6f7420746865206f776e65726044820152606401610c14565b6001600160a01b038116613a545760405162461bcd60e51b815260206004820152604960248201527f5061757361626c652e5f73657450617573657252656769737472793a206e657760448201527f50617573657252656769737472792063616e6e6f7420626520746865207a65726064820152686f206164647265737360b81b608482015260a401610c14565b606554604080516001600160a01b03928316815291831660208301527f6e9fcd539896fca60e8b0f01dd580233e48a6b0f7df013b89ba7f565869acdb6910160405180910390a1606580546001600160a01b0319166001600160a01b0392909216919091179055565b609854600160c01b900463ffffffff1615613b8a57609854600090613af190600190600160c01b900463ffffffff16615e17565b63ffffffff81166000908152600080516020615f0c833981519152602052604090205490915060019060ff166004811115613b2e57613b2e615125565b1415613b885763ffffffff81166000818152600080516020615f0c8339815191526020526040808220805460ff19166002179055517fd6a4e0ff9f3a053708757c7a124abee31ced61f43f17e6e1cf11943ec59e60719190a25b505b609854600160e01b900463ffffffff1615613c5757609854600090613bbe90600190600160e01b900463ffffffff16615e17565b63ffffffff81166000908152600080516020615f2c833981519152602052604090205490915060019060ff166004811115613bfb57613bfb615125565b1415613c555763ffffffff81166000818152600080516020615f2c8339815191526020526040808220805460ff19166002179055517f0bf46bfca6e2137d35b893c295add8c33bcfbffafdef93252cb51aed7538ba0c9190a25b505b60a0805460ff60a01b19169055565b609c5463ffffffff600160601b909104164314801590613c8557504315155b613ce25760405162461bcd60e51b815260206004820152602860248201527f43616e277420696e206c617374436f6d706c657465644f705461736b43726561604482015267746564426c6f636b60c01b6064820152608401610c14565b6040805160e0810182526000818301819052606080830181905260a083015260c0820152609854600160c01b900463ffffffff908116825243811660208084019190915290861660808301528251601f850182900482028101820190935283835290919084908490819084018382808284376000920191909152505050506060820152609c54600160601b900463ffffffff16613dd15763ffffffff431660408083019190915280516020601f850181900481028201810190925283815290849084908190840183828082843760009201919091525050505060a082015263ffffffff841660c0820152613e85565b609c54600160601b900463ffffffff166040820152609d8054613df3906155f6565b80601f0160208091040260200160405190810160405280929190818152602001828054613e1f906155f6565b8015613e6c5780601f10613e4157610100808354040283529160200191613e6c565b820191906000526020600020905b815481529060010190602001808311613e4f57829003601f168201915b505050505060a0820152609e5463ffffffff1660c08201525b80604051602001613e969190615e3c565b60408051808303601f19018152828252805160209182012060988054600160c01b9081900463ffffffff90811660009081527f235d629dc802037ded8c61cb27fb29e40fa01b299719d8f991ffe20bdcc59f4f865286812094909455825482900481168452600080516020615f0c83398151915290945293909120805460ff19166001179055609c805463ffffffff191643841617905560a08054600160a01b60ff60a01b19909116179055549190910416907ffaf4b2054479d0f83e909b73cde2a6cb18ec2a93ba8ad5a62329001c86b1f3ea90613f76908490615e3c565b60405180910390a2609854613f9990600160c01b900463ffffffff16600161574d565b609860186101000a81548163ffffffff021916908363ffffffff16021790555050505050565b603380546001600160a01b038381166001600160a01b0319831681179093556040519116919082907f8be0079c531659141344cd1fd0a4f28419497f9722a3daafe3b4186f6b6457e090600090a35050565b606060008061401f846141c7565b61ffff166001600160401b0381111561403a5761403a614447565b6040519080825280601f01601f191660200182016040528015614064576020820181803683370190505b5090506000805b82518210801561407c575061010081105b156140d3576001811b9350858416156140c3578060f81b8383815181106140a5576140a561562b565b60200101906001600160f81b031916908160001a9053508160010191505b6140cc81615670565b905061406b565b5090949350505050565b6065546001600160a01b03161580156140fe57506001600160a01b03821615155b6141805760405162461bcd60e51b815260206004820152604760248201527f5061757361626c652e5f696e697469616c697a655061757365723a205f696e6960448201527f7469616c697a6550617573657228292063616e206f6e6c792062652063616c6c6064820152666564206f6e636560c81b608482015260a401610c14565b606681905560405181815233907fab40a374bc51de372200a8bc981af8c9ecdc08dfdaef0bb6e09f88f3c616ef3d9060200160405180910390a26141c3826139c6565b5050565b6000805b82156141f2576141dc600184615ed2565b90921691806141ea81615ee9565b9150506141cb565b92915050565b828054614204906155f6565b90600052602060002090601f016020900481019282614226576000855561426c565b82601f1061423f5782800160ff1982351617855561426c565b8280016001018555821561426c579182015b8281111561426c578235825591602001919060010190614251565b5061427892915061427c565b5090565b5b80821115614278576000815560010161427d565b600060e082840312156142a357600080fd5b50919050565b6000606082840312156142a357600080fd5b600080608083850312156142ce57600080fd5b82356001600160401b038111156142e457600080fd5b6142f085828601614291565b92505061430084602085016142a9565b90509250929050565b6001600160a01b038116811461057657600080fd5b60006020828403121561433057600080fd5b81356113e181614309565b60006020828403121561434d57600080fd5b5035919050565b6002811061057657600080fd5b63ffffffff8116811461057657600080fd5b803561437e81614361565b919050565b6000806040838503121561439657600080fd5b82356143a181614354565b915060208301356143b181614361565b809150509250929050565b801515811461057657600080fd5b6000602082840312156143dc57600080fd5b81356113e1816143bc565b6000815180845260005b8181101561440d576020818501810151868301820152016143f1565b8181111561441f576000602083870101525b50601f01601f19169290920160200192915050565b6020815260006113e160208301846143e7565b634e487b7160e01b600052604160045260246000fd5b604080519081016001600160401b038111828210171561447f5761447f614447565b60405290565b60405161010081016001600160401b038111828210171561447f5761447f614447565b604051601f8201601f191681016001600160401b03811182821017156144d0576144d0614447565b604052919050565b60006001600160401b038211156144f1576144f1614447565b5060051b60200190565b6000806040838503121561450e57600080fd5b823561451981614309565b91506020838101356001600160401b0381111561453557600080fd5b8401601f8101861361454657600080fd5b8035614559614554826144d8565b6144a8565b81815260059190911b8201830190838101908883111561457857600080fd5b928401925b8284101561459f57833561459081614309565b8252928401929084019061457d565b80955050505050509250929050565b600081518084526020808501945080840160005b838110156145de578151875295820195908201906001016145c2565b509495945050505050565b6020815260006113e160208301846145ae565b60008060006060848603121561461157600080fd5b833561461c81614309565b92506020848101356001600160401b038082111561463957600080fd5b818701915087601f83011261464d57600080fd5b81358181111561465f5761465f614447565b614671601f8201601f191685016144a8565b9150808252888482850101111561468757600080fd5b80848401858401376000848284010152508094505050506146aa60408501614373565b90509250925092565b600081518084526020808501808196508360051b810191508286016000805b86811015614749578385038a52825180518087529087019087870190845b8181101561473457835180516001600160a01b031684528a8101518b8501526040908101516001600160601b031690840152928901926060909201916001016146f0565b50509a87019a955050918501916001016146d2565b509298975050505050505050565b6020815260006113e160208301846146b3565b6000806000806080858703121561478057600080fd5b84359350602085013561479281614354565b925060408501356147a281614361565b915060608501356147b281614361565b939692955090935050565b6000602082840312156147cf57600080fd5b81356001600160401b038111156147e557600080fd5b8201604081850312156113e157600080fd5b600082601f83011261480857600080fd5b81356020614818614554836144d8565b82815260059290921b8401810191818101908684111561483757600080fd5b8286015b84811015614852578035835291830191830161483b565b509695505050505050565b6000806040838503121561487057600080fd5b823561487b81614309565b915060208301356001600160401b0381111561489657600080fd5b6148a2858286016147f7565b9150509250929050565b6020808252825182820181905260009190848201906040850190845b818110156148ed5783516001600160a01b0316835292840192918401916001016148c8565b50909695505050505050565b60008083601f84011261490b57600080fd5b5081356001600160401b0381111561492257600080fd5b60208301915083602082850101111561493a57600080fd5b9250929050565b6000806000806000806080878903121561495a57600080fd5b863561496581614309565b9550602087013561497581614361565b945060408701356001600160401b038082111561499157600080fd5b61499d8a838b016148f9565b909650945060608901359150808211156149b657600080fd5b818901915089601f8301126149ca57600080fd5b8135818111156149d957600080fd5b8a60208260051b85010111156149ee57600080fd5b6020830194508093505050509295509295509295565b600081518084526020808501945080840160005b838110156145de57815163ffffffff1687529582019590820190600101614a18565b600081518084526020808501808196508360051b8101915082860160005b85811015614a82578284038952614a70848351614a04565b98850198935090840190600101614a58565b5091979650505050505050565b602081526000825160806020840152614aab60a0840182614a04565b90506020840151601f1980858403016040860152614ac98383614a04565b92506040860151915080858403016060860152614ae68383614a04565b9250606086015191508085840301608086015250614b048282614a3a565b95945050505050565b600082601f830112614b1e57600080fd5b81356020614b2e614554836144d8565b82815260059290921b84018101918181019086841115614b4d57600080fd5b8286015b84811015614852578035614b6481614361565b8352918301918301614b51565b600060408284031215614b8357600080fd5b614b8b61445d565b9050813581526020820135602082015292915050565b600082601f830112614bb257600080fd5b81356020614bc2614554836144d8565b82815260069290921b84018101918181019086841115614be157600080fd5b8286015b8481101561485257614bf78882614b71565b835291830191604001614be5565b600082601f830112614c1657600080fd5b614c1e61445d565b806040840185811115614c3057600080fd5b845b81811015614c4a578035845260209384019301614c32565b509095945050505050565b600060808284031215614c6757600080fd5b614c6f61445d565b9050614c7b8383614c05565b8152614c8a8360408401614c05565b602082015292915050565b600082601f830112614ca657600080fd5b81356020614cb6614554836144d8565b82815260059290921b84018101918181019086841115614cd557600080fd5b8286015b848110156148525780356001600160401b03811115614cf85760008081fd5b614d068986838b0101614b0d565b845250918301918301614cd9565b60006101808284031215614d2757600080fd5b614d2f614485565b905081356001600160401b0380821115614d4857600080fd5b614d5485838601614b0d565b83526020840135915080821115614d6a57600080fd5b614d7685838601614ba1565b60208401526040840135915080821115614d8f57600080fd5b614d9b85838601614ba1565b6040840152614dad8560608601614c55565b6060840152614dbf8560e08601614b71565b6080840152610120840135915080821115614dd957600080fd5b614de585838601614b0d565b60a0840152610140840135915080821115614dff57600080fd5b614e0b85838601614b0d565b60c0840152610160840135915080821115614e2557600080fd5b50614e3284828501614c95565b60e08301525092915050565b600080600060a08486031215614e5357600080fd5b83356001600160401b0380821115614e6a57600080fd5b614e7687838801614291565b9450614e8587602088016142a9565b93506080860135915080821115614e9b57600080fd5b50614ea886828701614d14565b9150509250925092565b600060208284031215614ec457600080fd5b81356001600160401b03811115614eda57600080fd5b820161012081850312156113e157600080fd5b600060208284031215614eff57600080fd5b813560ff811681146113e157600080fd5b600080600060608486031215614f2557600080fd5b8335614f3081614309565b925060208401356001600160401b03811115614f4b57600080fd5b614f57868287016147f7565b9250506040840135614f6881614361565b809150509250925092565b6020808252825182820181905260009190848201906040850190845b818110156148ed57835183529284019291840191600101614f8f565b600080600060408486031215614fc057600080fd5b8335614fcb81614361565b925060208401356001600160401b03811115614fe657600080fd5b614ff2868287016148f9565b9497909650939450505050565b60008060008060006080868803121561501757600080fd5b8535945060208601356001600160401b038082111561503557600080fd5b61504189838a016148f9565b90965094506040880135915061505682614361565b9092506060870135908082111561506c57600080fd5b5061507988828901614d14565b9150509295509295909350565b600081518084526020808501945080840160005b838110156145de5781516001600160601b03168752958201959082019060010161509a565b60408152600083516040808401526150da6080840182615086565b90506020850151603f198483030160608501526150f78282615086565b925050508260208301529392505050565b60006020828403121561511a57600080fd5b81356113e181614354565b634e487b7160e01b600052602160045260246000fd5b602081016005831061514f5761514f615125565b91905290565b60008060006060848603121561516a57600080fd5b833561517581614309565b9250602084013591506040840135614f6881614361565b8281526040602082015260006151a560408301846146b3565b949350505050565b60008060008060008060008060006101208a8c0312156151cc57600080fd5b89356151d781614309565b985060208a01356151e781614309565b975060408a01356151f781614309565b965060608a013561520781614309565b955060808a0135615217816143bc565b945060a08a013561522781614309565b935060c08a013561523781614361565b925060e08a013561524781614309565b91506101008a013561525881614309565b809150509295985092959850929598565b600080600083850361014081121561528057600080fd5b84356001600160401b038082111561529757600080fd5b6152a388838901614291565b9550610100601f19840112156152b857600080fd5b6020870194506101208701359250808311156152d357600080fd5b5050614ea886828701614d14565b6000808335601e198436030181126152f857600080fd5b83016020810192503590506001600160401b0381111561531757600080fd5b80360383131561493a57600080fd5b81835281816020850137506000828201602090810191909152601f909101601f19169091010190565b602081526000823561536081614361565b63ffffffff8116602084015250602083013561537b81614361565b63ffffffff811660408401525061539460408401614373565b63ffffffff81166060840152506153ae60608401846152e1565b60e060808501526153c461010085018284615326565b9150506153d360808501614373565b63ffffffff811660a0850152506153ed60a08501856152e1565b848303601f190160c0860152615404838284615326565b9250505061541460c08501614373565b63ffffffff811660e08501525b509392505050565b60006020828403121561543b57600080fd5b81356113e181614361565b803561545181614361565b63ffffffff16825260208181013590830152604090810135910152565b63ffffffff815116825260208101516020830152600060408201516080604085015261549d6080850182615086565b905060608301518482036060860152614b048282615086565b6154c08184615446565b6080606082015260006151a5608083018461546e565b6000808335601e198436030181126154ed57600080fd5b8301803591506001600160401b0382111561550757600080fd5b60200191503681900382131561493a57600080fd5b606081016141f28284615446565b60006020828403121561553c57600080fd5b81516113e181614309565b6020808252602a908201527f6d73672e73656e646572206973206e6f74207065726d697373696f6e6564206160408201526939903ab73830bab9b2b960b11b606082015260800190565b6000602082840312156155a357600080fd5b81516113e1816143bc565b60208082526028908201527f6d73672e73656e646572206973206e6f74207065726d697373696f6e6564206160408201526739903830bab9b2b960c11b606082015260800190565b600181811c9082168061560a57607f821691505b602082108114156142a357634e487b7160e01b600052602260045260246000fd5b634e487b7160e01b600052603260045260246000fd5b60006020828403121561565357600080fd5b5051919050565b634e487b7160e01b600052601160045260246000fd5b60006000198214156156845761568461565a565b5060010190565b6000602080838503121561569e57600080fd5b82516001600160401b038111156156b457600080fd5b8301601f810185136156c557600080fd5b80516156d3614554826144d8565b81815260059190911b820183019083810190878311156156f257600080fd5b928401925b82841015615710578351825292840192908401906156f7565b979650505050505050565b80516001600160601b038116811461437e57600080fd5b60006020828403121561574457600080fd5b6113e18261571b565b600063ffffffff80831681851680830382111561576c5761576c61565a565b01949350505050565b63ffffffff84168152604060208201819052810182905260006001600160fb1b038311156157a257600080fd5b8260051b8085606085013760009201606001918252509392505050565b600060208083850312156157d257600080fd5b82516001600160401b038111156157e857600080fd5b8301601f810185136157f957600080fd5b8051615807614554826144d8565b81815260059190911b8201830190838101908783111561582657600080fd5b928401925b8284101561571057835161583e81614361565b8252928401929084019061582b565b63ffffffff84168152604060208201526000614b04604083018486615326565b60006020828403121561587f57600080fd5b81516001600160c01b03811681146113e157600080fd5b6000602082840312156158a857600080fd5b81516113e181614361565b600060ff821660ff8114156158ca576158ca61565a565b60010192915050565b6040815260006158e7604083018587615326565b905063ffffffff83166020830152949350505050565b600081518084526020808501945080840160005b838110156145de5761592e87835180518252602090810151910152565b6040969096019590820190600101615911565b8060005b6002811015611656578151845260209384019390910190600101615945565b61596f828251615941565b60208101516128426040840182615941565b85815260806020820152600061599b608083018688615326565b63ffffffff85166040840152828103606084015261018084518183526159c382840182614a04565b915050602085015182820360208401526159dd82826158fd565b915050604085015182820360408401526159f782826158fd565b9150506060850151615a0c6060840182615964565b506080850151805160e08401526020015161010083015260a0850151828203610120840152615a3b8282614a04565b91505060c0850151828203610140840152615a568282614a04565b91505060e0850151828203610160840152615a718282614a3a565b9a9950505050505050505050565b600082601f830112615a9057600080fd5b81516020615aa0614554836144d8565b82815260059290921b84018101918181019086841115615abf57600080fd5b8286015b8481101561485257615ad48161571b565b8352918301918301615ac3565b60008060408385031215615af457600080fd5b82516001600160401b0380821115615b0b57600080fd5b9084019060408287031215615b1f57600080fd5b615b2761445d565b825182811115615b3657600080fd5b615b4288828601615a7f565b825250602083015182811115615b5757600080fd5b615b6388828601615a7f565b602083015250809450505050602083015190509250929050565b60006001600160601b0380831681851681830481118215151615615ba357615ba361565a565b02949350505050565b6000816000190483118215151615615bc657615bc661565a565b500290565b63ffffffff831681526040602082015260006151a560408301846145ae565b60028110615bfa57615bfa615125565b9052565b60208152600063ffffffff8084511660208401526020840151615c246040850182615bea565b508060408501511660608401528060608501511660808401528060808501511660a084015260a084015160e060c0850152615c636101008501826143e7565b90508160c08601511660e0850152809250505092915050565b6020815260008235615c8d81614361565b63ffffffff808216602085015260208501359150615caa82614354565b615cb76040850183615bea565b60408501359150615cc782614361565b808216606085015260608501359150615cdf82614361565b80821660808501525050615cf560808401614373565b63ffffffff811660a084015250615d0f60a08401846152e1565b60e060c0850152615d2561010085018284615326565b91505061541460c08501614373565b8035615d3f81614361565b63ffffffff80821684526020830135602085015260408301359150615d6382614354565b615d706040850183615bea565b60608301359150615d8082614361565b1660608301526080818101359083015260a0808201359083015260c0808201359083015260e0810135615db281614309565b6001600160a01b031660e0929092019190915250565b61010081016141f28284615d34565b6000610120615de68386615d34565b80610100840152614b048184018561546e565b828152606081016113e1602083018480518252602090810151910152565b600063ffffffff83811690831681811015615e3457615e3461565a565b039392505050565b60208152600063ffffffff80845116602084015280602085015116604084015280604085015116606084015250606083015160e06080840152615e836101008401826143e7565b90506080840151615e9c60a085018263ffffffff169052565b5060a0840151838203601f190160c0850152615eb882826143e7565b91505060c084015161542160e085018263ffffffff169052565b600082821015615ee457615ee461565a565b500390565b600061ffff80831681811415615f0157615f0161565a565b600101939250505056fe10afac9233b4ccc54d6404ffc1cf3b47515a2b8edbf675d15eddce05a027dcbd298c800d0881dd208d705ebc03eb18189f38118259f27dd43b4c60d61c607e87a2646970667358221220dc13f0119a227ac5b6a9e548a3519d14a7b25d107638bdfbb28bef9c40acd24164736f6c634300080c0033","linkReferences":{}},"methodIdentifiers":{"THRESHOLD_DENOMINATOR()":"ef024458","aggregator()":"245a7bfc","allTaskHashes(uint8,uint32)":"13f815ed","allTaskResponses(uint8,uint32)":"1ac27297","allowNonRootInit()":"0ee0fdbd","blsApkRegistry()":"5df45946","blsSignatureChecker()":"1c178e9c","chainRdBatchNonce(uint8)":"930390d9","checkSignatures(bytes32,bytes,uint32,(uint32[],(uint256,uint256)[],(uint256,uint256)[],(uint256[2],uint256[2]),(uint256,uint256),uint32[],uint32[],uint32[][]))":"6efb4636","createNewOpTask(uint32,bytes)":"6e125ff4","createNewRdTask(uint8,uint32)":"6f254819","delegation()":"df5cf723","dummyForOperatorStateInfoType((bool,uint8[],(uint8,uint96,(uint256,uint256))[],(uint8,uint96)[],(uint8,(uint256,uint256))[],bytes32[],(bytes32,uint8[],uint96[],uint8)[],(bytes32,uint8[],uint96[])[],(bytes32,uint8)[]))":"54d127de","dummyForQuorumStakeTotalsType((uint96[],uint96[]))":"45265b7a","forceCancelPendingTasks()":"60202fc0","forceCreateNewOpTask(uint32,bytes)":"f5640cf8","forceRespondToOpTask((uint32,uint32,uint32,bytes,uint32,bytes,uint32),(uint32,bytes32,bytes32))":"01a3f013","generator()":"7afa1eed","getBatchOperatorFromId(address,bytes32[])":"4d2b57fe","getBatchOperatorId(address,address[])":"31b36bd9","getCheckSignaturesIndices(address,uint32,bytes,bytes32[])":"4f739f74","getOperatorState(address,bytes,uint32)":"3563b0d1","getOperatorState(address,bytes32,uint32)":"cefdc1d4","getQuorumBitmapsAtBlockNumber(address,bytes32[],uint32)":"5c155662","idToTaskStatus(uint8,uint32)":"bf2315ed","initialize(address,address,address,address,bool,address,uint32,address,address)":"de434838","isTaskPending()":"36f78ed8","lastCompletedOpTaskCreatedBlock()":"537a2929","lastCompletedOpTaskNum()":"8fc8729a","lastCompletedOpTaskQuorumNumbers()":"2830e8f9","lastCompletedOpTaskQuorumThresholdPercentage()":"e70c2623","lastOpTaskCreatedBlock()":"4d7a7116","lastRdTaskCreatedBlock()":"8c82af5e","latestOpTaskNum()":"41789d57","latestRdTaskNum()":"7afdd54b","operatorStateRetrieverExtended()":"8380acbd","operatorsStateInfoHash()":"adfcb048","owner()":"8da5cb5b","pause(uint256)":"136439dd","pauseAll()":"595c6a67","pauseTrackingOpState()":"79badf73","paused()":"5c975abb","paused(uint8)":"5ac86ab7","pauserRegistry()":"886f1195","registryCoordinator()":"6d14a987","renounceOwnership()":"715018a6","respondToOpTask((uint32,uint32,uint32,bytes,uint32,bytes,uint32),(uint32,bytes32,bytes32),(uint32[],(uint256,uint256)[],(uint256,uint256)[],(uint256[2],uint256[2]),(uint256,uint256),uint32[],uint32[],uint32[][]))":"516a7227","respondToRdTask((uint32,uint8,uint32,uint32,uint32,bytes,uint32),(uint32,bytes32,uint8,uint32,bytes32,uint256,uint256,address),(uint32[],(uint256,uint256)[],(uint256,uint256)[],(uint256[2],uint256[2]),(uint256,uint256),uint32[],uint32[],uint32[][]))":"e72ddf10","resumeTrackingQuorums(bool)":"191aac7a","rolldown()":"3d9fb00c","setPauserRegistry(address)":"10d67a2f","setRolldown(address)":"fdc15de8","stakeRegistry()":"68304835","taskResponseWindowBlock()":"a69563a9","transferOwnership(address)":"f2fde38b","unpause(uint256)":"fabc1cbc","updateBlsSignatureCheckerAddress(address)":"723114ab","validateTaskResponse(bytes32,uint8,uint32,uint32)":"37d347d1"},"id":128}