{"abi":[{"type":"function","name":"THRESHOLD_DENOMINATOR","inputs":[],"outputs":[{"name":"","type":"uint256","internalType":"uint256"}],"stateMutability":"view"},{"type":"function","name":"aggregator","inputs":[],"outputs":[{"name":"","type":"address","internalType":"address"}],"stateMutability":"view"},{"type":"function","name":"allTaskHashes","inputs":[{"name":"","type":"uint8","internalType":"enum FinalizerTaskManager.TaskType"},{"name":"","type":"uint32","internalType":"uint32"}],"outputs":[{"name":"","type":"bytes32","internalType":"bytes32"}],"stateMutability":"view"},{"type":"function","name":"allTaskResponses","inputs":[{"name":"","type":"uint8","internalType":"enum FinalizerTaskManager.TaskType"},{"name":"","type":"uint32","internalType":"uint32"}],"outputs":[{"name":"","type":"bytes32","internalType":"bytes32"}],"stateMutability":"view"},{"type":"function","name":"allowNonRootInit","inputs":[],"outputs":[{"name":"","type":"bool","internalType":"bool"}],"stateMutability":"view"},{"type":"function","name":"blsApkRegistry","inputs":[],"outputs":[{"name":"","type":"address","internalType":"contract IBLSApkRegistry"}],"stateMutability":"view"},{"type":"function","name":"blsSignatureChecker","inputs":[],"outputs":[{"name":"","type":"address","internalType":"contract BLSSignatureChecker"}],"stateMutability":"view"},{"type":"function","name":"checkSignatures","inputs":[{"name":"msgHash","type":"bytes32","internalType":"bytes32"},{"name":"quorumNumbers","type":"bytes","internalType":"bytes"},{"name":"referenceBlockNumber","type":"uint32","internalType":"uint32"},{"name":"nonSignerStakesAndSignature","type":"tuple","internalType":"struct IBLSSignatureChecker.NonSignerStakesAndSignature","components":[{"name":"nonSignerQuorumBitmapIndices","type":"uint32[]","internalType":"uint32[]"},{"name":"nonSignerPubkeys","type":"tuple[]","internalType":"struct BN254.G1Point[]","components":[{"name":"X","type":"uint256","internalType":"uint256"},{"name":"Y","type":"uint256","internalType":"uint256"}]},{"name":"quorumApks","type":"tuple[]","internalType":"struct BN254.G1Point[]","components":[{"name":"X","type":"uint256","internalType":"uint256"},{"name":"Y","type":"uint256","internalType":"uint256"}]},{"name":"apkG2","type":"tuple","internalType":"struct BN254.G2Point","components":[{"name":"X","type":"uint256[2]","internalType":"uint256[2]"},{"name":"Y","type":"uint256[2]","internalType":"uint256[2]"}]},{"name":"sigma","type":"tuple","internalType":"struct BN254.G1Point","components":[{"name":"X","type":"uint256","internalType":"uint256"},{"name":"Y","type":"uint256","internalType":"uint256"}]},{"name":"quorumApkIndices","type":"uint32[]","internalType":"uint32[]"},{"name":"totalStakeIndices","type":"uint32[]","internalType":"uint32[]"},{"name":"nonSignerStakeIndices","type":"uint32[][]","internalType":"uint32[][]"}]}],"outputs":[{"name":"","type":"tuple","internalType":"struct IBLSSignatureChecker.QuorumStakeTotals","components":[{"name":"signedStakeForQuorum","type":"uint96[]","internalType":"uint96[]"},{"name":"totalStakeForQuorum","type":"uint96[]","internalType":"uint96[]"}]},{"name":"","type":"bytes32","internalType":"bytes32"}],"stateMutability":"view"},{"type":"function","name":"createNewOpTask","inputs":[{"name":"quorumThresholdPercentage","type":"uint32","internalType":"uint32"},{"name":"quorumNumbers","type":"bytes","internalType":"bytes"}],"outputs":[],"stateMutability":"nonpayable"},{"type":"function","name":"createNewRdTask","inputs":[{"name":"blockNumber","type":"uint256","internalType":"uint256"}],"outputs":[],"stateMutability":"nonpayable"},{"type":"function","name":"delegation","inputs":[],"outputs":[{"name":"","type":"address","internalType":"contract IDelegationManager"}],"stateMutability":"view"},{"type":"function","name":"dummyForOperatorStateInfoType","inputs":[{"name":"_operatorStateInfo","type":"tuple","internalType":"struct IGaspMultiRollupServicePrimitives.OperatorStateInfo","components":[{"name":"operatorsStateChanged","type":"bool","internalType":"bool"},{"name":"quorumsRemoved","type":"uint8[]","internalType":"uint8[]"},{"name":"quorumsAdded","type":"tuple[]","internalType":"struct IGaspMultiRollupServicePrimitives.QuorumsAdded[]","components":[{"name":"quorumNumber","type":"uint8","internalType":"uint8"},{"name":"quorumStake","type":"uint96","internalType":"uint96"},{"name":"quorumApk","type":"tuple","internalType":"struct BN254.G1Point","components":[{"name":"X","type":"uint256","internalType":"uint256"},{"name":"Y","type":"uint256","internalType":"uint256"}]}]},{"name":"quorumsStakeUpdate","type":"tuple[]","internalType":"struct IGaspMultiRollupServicePrimitives.QuorumsStakeUpdate[]","components":[{"name":"quorumNumber","type":"uint8","internalType":"uint8"},{"name":"quorumStake","type":"uint96","internalType":"uint96"}]},{"name":"quorumsApkUpdate","type":"tuple[]","internalType":"struct IGaspMultiRollupServicePrimitives.QuorumsApkUpdate[]","components":[{"name":"quorumNumber","type":"uint8","internalType":"uint8"},{"name":"quorumApk","type":"tuple","internalType":"struct BN254.G1Point","components":[{"name":"X","type":"uint256","internalType":"uint256"},{"name":"Y","type":"uint256","internalType":"uint256"}]}]},{"name":"operatorsRemoved","type":"bytes32[]","internalType":"bytes32[]"},{"name":"operatorsAdded","type":"tuple[]","internalType":"struct IGaspMultiRollupServicePrimitives.OperatorsAdded[]","components":[{"name":"operatorId","type":"bytes32","internalType":"bytes32"},{"name":"quorumForStakes","type":"uint8[]","internalType":"uint8[]"},{"name":"quorumStakes","type":"uint96[]","internalType":"uint96[]"},{"name":"quorumCount","type":"uint8","internalType":"uint8"}]},{"name":"operatorsStakeUpdate","type":"tuple[]","internalType":"struct IGaspMultiRollupServicePrimitives.OperatorsStakeUpdate[]","components":[{"name":"operatorId","type":"bytes32","internalType":"bytes32"},{"name":"quorumForStakes","type":"uint8[]","internalType":"uint8[]"},{"name":"quorumStakes","type":"uint96[]","internalType":"uint96[]"}]},{"name":"operatorsQuorumCountUpdate","type":"tuple[]","internalType":"struct IGaspMultiRollupServicePrimitives.OperatorsQuorumCountUpdate[]","components":[{"name":"operatorId","type":"bytes32","internalType":"bytes32"},{"name":"quorumCount","type":"uint8","internalType":"uint8"}]}]}],"outputs":[],"stateMutability":"view"},{"type":"function","name":"dummyForQuorumStakeTotalsType","inputs":[{"name":"_quorumStakeTotals","type":"tuple","internalType":"struct IBLSSignatureChecker.QuorumStakeTotals","components":[{"name":"signedStakeForQuorum","type":"uint96[]","internalType":"uint96[]"},{"name":"totalStakeForQuorum","type":"uint96[]","internalType":"uint96[]"}]}],"outputs":[],"stateMutability":"view"},{"type":"function","name":"forceCreateNewOpTask","inputs":[{"name":"quorumThresholdPercentage","type":"uint32","internalType":"uint32"},{"name":"quorumNumbers","type":"bytes","internalType":"bytes"}],"outputs":[],"stateMutability":"nonpayable"},{"type":"function","name":"forceRespondToOpTask","inputs":[{"name":"task","type":"tuple","internalType":"struct IFinalizerTaskManager.OpTask","components":[{"name":"taskNum","type":"uint32","internalType":"uint32"},{"name":"taskCreatedBlock","type":"uint32","internalType":"uint32"},{"name":"lastCompletedOpTaskCreatedBlock","type":"uint32","internalType":"uint32"},{"name":"quorumNumbers","type":"bytes","internalType":"bytes"},{"name":"quorumThresholdPercentage","type":"uint32","internalType":"uint32"},{"name":"lastCompletedOpTaskQuorumNumbers","type":"bytes","internalType":"bytes"},{"name":"lastCompletedOpTaskQuorumThresholdPercentage","type":"uint32","internalType":"uint32"}]},{"name":"taskResponse","type":"tuple","internalType":"struct IFinalizerTaskManager.OpTaskResponse","components":[{"name":"referenceTaskIndex","type":"uint32","internalType":"uint32"},{"name":"referenceTaskHash","type":"bytes32","internalType":"bytes32"},{"name":"operatorsStateInfoHash","type":"bytes32","internalType":"bytes32"}]}],"outputs":[],"stateMutability":"nonpayable"},{"type":"function","name":"generator","inputs":[],"outputs":[{"name":"","type":"address","internalType":"address"}],"stateMutability":"view"},{"type":"function","name":"getCheckSignaturesIndices","inputs":[{"name":"registryCoordinator","type":"address","internalType":"contract IRegistryCoordinator"},{"name":"referenceBlockNumber","type":"uint32","internalType":"uint32"},{"name":"quorumNumbers","type":"bytes","internalType":"bytes"},{"name":"nonSignerOperatorIds","type":"bytes32[]","internalType":"bytes32[]"}],"outputs":[{"name":"","type":"tuple","internalType":"struct OperatorStateRetriever.CheckSignaturesIndices","components":[{"name":"nonSignerQuorumBitmapIndices","type":"uint32[]","internalType":"uint32[]"},{"name":"quorumApkIndices","type":"uint32[]","internalType":"uint32[]"},{"name":"totalStakeIndices","type":"uint32[]","internalType":"uint32[]"},{"name":"nonSignerStakeIndices","type":"uint32[][]","internalType":"uint32[][]"}]}],"stateMutability":"view"},{"type":"function","name":"getOperatorState","inputs":[{"name":"registryCoordinator","type":"address","internalType":"contract IRegistryCoordinator"},{"name":"quorumNumbers","type":"bytes","internalType":"bytes"},{"name":"blockNumber","type":"uint32","internalType":"uint32"}],"outputs":[{"name":"","type":"tuple[][]","internalType":"struct OperatorStateRetriever.Operator[][]","components":[{"name":"operator","type":"address","internalType":"address"},{"name":"operatorId","type":"bytes32","internalType":"bytes32"},{"name":"stake","type":"uint96","internalType":"uint96"}]}],"stateMutability":"view"},{"type":"function","name":"getOperatorState","inputs":[{"name":"registryCoordinator","type":"address","internalType":"contract IRegistryCoordinator"},{"name":"operatorId","type":"bytes32","internalType":"bytes32"},{"name":"blockNumber","type":"uint32","internalType":"uint32"}],"outputs":[{"name":"","type":"uint256","internalType":"uint256"},{"name":"","type":"tuple[][]","internalType":"struct OperatorStateRetriever.Operator[][]","components":[{"name":"operator","type":"address","internalType":"address"},{"name":"operatorId","type":"bytes32","internalType":"bytes32"},{"name":"stake","type":"uint96","internalType":"uint96"}]}],"stateMutability":"view"},{"type":"function","name":"getQuorumBitmapsAtBlockNumber","inputs":[{"name":"registryCoordinator","type":"address","internalType":"contract IRegistryCoordinator"},{"name":"operatorIds","type":"bytes32[]","internalType":"bytes32[]"},{"name":"blockNumber","type":"uint32","internalType":"uint32"}],"outputs":[{"name":"","type":"uint256[]","internalType":"uint256[]"}],"stateMutability":"view"},{"type":"function","name":"idToTaskStatus","inputs":[{"name":"","type":"uint8","internalType":"enum FinalizerTaskManager.TaskType"},{"name":"","type":"uint32","internalType":"uint32"}],"outputs":[{"name":"","type":"uint8","internalType":"enum FinalizerTaskManager.TaskStatus"}],"stateMutability":"view"},{"type":"function","name":"initialize","inputs":[{"name":"_pauserRegistry","type":"address","internalType":"contract IPauserRegistry"},{"name":"initialOwner","type":"address","internalType":"address"},{"name":"_aggregator","type":"address","internalType":"address"},{"name":"_generator","type":"address","internalType":"address"},{"name":"_allowNonRootInit","type":"bool","internalType":"bool"},{"name":"_blsSignatureCheckerAddress","type":"address","internalType":"address"},{"name":"_taskResponseWindowBlock","type":"uint32","internalType":"uint32"},{"name":"_minOpTaskResponseWindowBlock","type":"uint32","internalType":"uint32"},{"name":"_operatorStateRetrieverExtended","type":"address","internalType":"address"}],"outputs":[],"stateMutability":"nonpayable"},{"type":"function","name":"lastCompletedOpTaskCreatedBlock","inputs":[],"outputs":[{"name":"","type":"uint32","internalType":"uint32"}],"stateMutability":"view"},{"type":"function","name":"lastCompletedOpTaskNum","inputs":[],"outputs":[{"name":"","type":"uint32","internalType":"uint32"}],"stateMutability":"view"},{"type":"function","name":"lastCompletedOpTaskQuorumNumbers","inputs":[],"outputs":[{"name":"","type":"bytes","internalType":"bytes"}],"stateMutability":"view"},{"type":"function","name":"lastCompletedOpTaskQuorumThresholdPercentage","inputs":[],"outputs":[{"name":"","type":"uint32","internalType":"uint32"}],"stateMutability":"view"},{"type":"function","name":"lastOpTaskCreatedBlock","inputs":[],"outputs":[{"name":"","type":"uint32","internalType":"uint32"}],"stateMutability":"view"},{"type":"function","name":"latestOpTaskNum","inputs":[],"outputs":[{"name":"","type":"uint32","internalType":"uint32"}],"stateMutability":"view"},{"type":"function","name":"latestPendingStateHash","inputs":[],"outputs":[{"name":"","type":"bytes32","internalType":"bytes32"}],"stateMutability":"view"},{"type":"function","name":"latestRdTaskNum","inputs":[],"outputs":[{"name":"","type":"uint32","internalType":"uint32"}],"stateMutability":"view"},{"type":"function","name":"minOpTaskResponseWindowBlock","inputs":[],"outputs":[{"name":"","type":"uint32","internalType":"uint32"}],"stateMutability":"view"},{"type":"function","name":"operatorStateRetrieverExtended","inputs":[],"outputs":[{"name":"","type":"address","internalType":"address"}],"stateMutability":"view"},{"type":"function","name":"operatorsStateInfoHash","inputs":[],"outputs":[{"name":"","type":"bytes32","internalType":"bytes32"}],"stateMutability":"view"},{"type":"function","name":"owner","inputs":[],"outputs":[{"name":"","type":"address","internalType":"address"}],"stateMutability":"view"},{"type":"function","name":"pause","inputs":[{"name":"newPausedStatus","type":"uint256","internalType":"uint256"}],"outputs":[],"stateMutability":"nonpayable"},{"type":"function","name":"pauseAll","inputs":[],"outputs":[],"stateMutability":"nonpayable"},{"type":"function","name":"pauseTrackingOpState","inputs":[],"outputs":[],"stateMutability":"nonpayable"},{"type":"function","name":"paused","inputs":[{"name":"index","type":"uint8","internalType":"uint8"}],"outputs":[{"name":"","type":"bool","internalType":"bool"}],"stateMutability":"view"},{"type":"function","name":"paused","inputs":[],"outputs":[{"name":"","type":"uint256","internalType":"uint256"}],"stateMutability":"view"},{"type":"function","name":"pauserRegistry","inputs":[],"outputs":[{"name":"","type":"address","internalType":"contract IPauserRegistry"}],"stateMutability":"view"},{"type":"function","name":"registryCoordinator","inputs":[],"outputs":[{"name":"","type":"address","internalType":"contract IRegistryCoordinator"}],"stateMutability":"view"},{"type":"function","name":"renounceOwnership","inputs":[],"outputs":[],"stateMutability":"nonpayable"},{"type":"function","name":"respondToOpTask","inputs":[{"name":"task","type":"tuple","internalType":"struct IFinalizerTaskManager.OpTask","components":[{"name":"taskNum","type":"uint32","internalType":"uint32"},{"name":"taskCreatedBlock","type":"uint32","internalType":"uint32"},{"name":"lastCompletedOpTaskCreatedBlock","type":"uint32","internalType":"uint32"},{"name":"quorumNumbers","type":"bytes","internalType":"bytes"},{"name":"quorumThresholdPercentage","type":"uint32","internalType":"uint32"},{"name":"lastCompletedOpTaskQuorumNumbers","type":"bytes","internalType":"bytes"},{"name":"lastCompletedOpTaskQuorumThresholdPercentage","type":"uint32","internalType":"uint32"}]},{"name":"taskResponse","type":"tuple","internalType":"struct IFinalizerTaskManager.OpTaskResponse","components":[{"name":"referenceTaskIndex","type":"uint32","internalType":"uint32"},{"name":"referenceTaskHash","type":"bytes32","internalType":"bytes32"},{"name":"operatorsStateInfoHash","type":"bytes32","internalType":"bytes32"}]},{"name":"nonSignerStakesAndSignature","type":"tuple","internalType":"struct IBLSSignatureChecker.NonSignerStakesAndSignature","components":[{"name":"nonSignerQuorumBitmapIndices","type":"uint32[]","internalType":"uint32[]"},{"name":"nonSignerPubkeys","type":"tuple[]","internalType":"struct BN254.G1Point[]","components":[{"name":"X","type":"uint256","internalType":"uint256"},{"name":"Y","type":"uint256","internalType":"uint256"}]},{"name":"quorumApks","type":"tuple[]","internalType":"struct BN254.G1Point[]","components":[{"name":"X","type":"uint256","internalType":"uint256"},{"name":"Y","type":"uint256","internalType":"uint256"}]},{"name":"apkG2","type":"tuple","internalType":"struct BN254.G2Point","components":[{"name":"X","type":"uint256[2]","internalType":"uint256[2]"},{"name":"Y","type":"uint256[2]","internalType":"uint256[2]"}]},{"name":"sigma","type":"tuple","internalType":"struct BN254.G1Point","components":[{"name":"X","type":"uint256","internalType":"uint256"},{"name":"Y","type":"uint256","internalType":"uint256"}]},{"name":"quorumApkIndices","type":"uint32[]","internalType":"uint32[]"},{"name":"totalStakeIndices","type":"uint32[]","internalType":"uint32[]"},{"name":"nonSignerStakeIndices","type":"uint32[][]","internalType":"uint32[][]"}]}],"outputs":[],"stateMutability":"nonpayable"},{"type":"function","name":"respondToRdTask","inputs":[{"name":"task","type":"tuple","internalType":"struct IFinalizerTaskManager.RdTask","components":[{"name":"taskNum","type":"uint32","internalType":"uint32"},{"name":"blockNumber","type":"uint256","internalType":"uint256"},{"name":"taskCreatedBlock","type":"uint32","internalType":"uint32"},{"name":"lastCompletedOpTaskCreatedBlock","type":"uint32","internalType":"uint32"},{"name":"lastCompletedOpTaskQuorumNumbers","type":"bytes","internalType":"bytes"},{"name":"lastCompletedOpTaskQuorumThresholdPercentage","type":"uint32","internalType":"uint32"}]},{"name":"taskResponse","type":"tuple","internalType":"struct IFinalizerTaskManager.RdTaskResponse","components":[{"name":"referenceTaskIndex","type":"uint32","internalType":"uint32"},{"name":"referenceTaskHash","type":"bytes32","internalType":"bytes32"},{"name":"blockHash","type":"bytes32","internalType":"bytes32"},{"name":"storageProofHash","type":"bytes32","internalType":"bytes32"},{"name":"pendingStateHash","type":"bytes32","internalType":"bytes32"}]},{"name":"nonSignerStakesAndSignature","type":"tuple","internalType":"struct IBLSSignatureChecker.NonSignerStakesAndSignature","components":[{"name":"nonSignerQuorumBitmapIndices","type":"uint32[]","internalType":"uint32[]"},{"name":"nonSignerPubkeys","type":"tuple[]","internalType":"struct BN254.G1Point[]","components":[{"name":"X","type":"uint256","internalType":"uint256"},{"name":"Y","type":"uint256","internalType":"uint256"}]},{"name":"quorumApks","type":"tuple[]","internalType":"struct BN254.G1Point[]","components":[{"name":"X","type":"uint256","internalType":"uint256"},{"name":"Y","type":"uint256","internalType":"uint256"}]},{"name":"apkG2","type":"tuple","internalType":"struct BN254.G2Point","components":[{"name":"X","type":"uint256[2]","internalType":"uint256[2]"},{"name":"Y","type":"uint256[2]","internalType":"uint256[2]"}]},{"name":"sigma","type":"tuple","internalType":"struct BN254.G1Point","components":[{"name":"X","type":"uint256","internalType":"uint256"},{"name":"Y","type":"uint256","internalType":"uint256"}]},{"name":"quorumApkIndices","type":"uint32[]","internalType":"uint32[]"},{"name":"totalStakeIndices","type":"uint32[]","internalType":"uint32[]"},{"name":"nonSignerStakeIndices","type":"uint32[][]","internalType":"uint32[][]"}]}],"outputs":[],"stateMutability":"nonpayable"},{"type":"function","name":"resumeTrackingQuorums","inputs":[{"name":"resetTrackedQuorums","type":"bool","internalType":"bool"}],"outputs":[],"stateMutability":"nonpayable"},{"type":"function","name":"setPauserRegistry","inputs":[{"name":"newPauserRegistry","type":"address","internalType":"contract IPauserRegistry"}],"outputs":[],"stateMutability":"nonpayable"},{"type":"function","name":"stakeRegistry","inputs":[],"outputs":[{"name":"","type":"address","internalType":"contract IStakeRegistry"}],"stateMutability":"view"},{"type":"function","name":"taskResponseWindowBlock","inputs":[],"outputs":[{"name":"","type":"uint32","internalType":"uint32"}],"stateMutability":"view"},{"type":"function","name":"transferOwnership","inputs":[{"name":"newOwner","type":"address","internalType":"address"}],"outputs":[],"stateMutability":"nonpayable"},{"type":"function","name":"unpause","inputs":[{"name":"newPausedStatus","type":"uint256","internalType":"uint256"}],"outputs":[],"stateMutability":"nonpayable"},{"type":"function","name":"updateBlsSignatureCheckerAddress","inputs":[{"name":"_blsSignatureCheckerAddress","type":"address","internalType":"address"}],"outputs":[],"stateMutability":"nonpayable"},{"type":"event","name":"BLSSignatureCheckerAddressUpdated","inputs":[{"name":"blsSignatureCheckerAddress","type":"address","indexed":false,"internalType":"address"}],"anonymous":false},{"type":"event","name":"Initialized","inputs":[{"name":"version","type":"uint8","indexed":false,"internalType":"uint8"}],"anonymous":false},{"type":"event","name":"NewOpTaskCreated","inputs":[{"name":"taskIndex","type":"uint32","indexed":true,"internalType":"uint32"},{"name":"task","type":"tuple","indexed":false,"internalType":"struct IFinalizerTaskManager.OpTask","components":[{"name":"taskNum","type":"uint32","internalType":"uint32"},{"name":"taskCreatedBlock","type":"uint32","internalType":"uint32"},{"name":"lastCompletedOpTaskCreatedBlock","type":"uint32","internalType":"uint32"},{"name":"quorumNumbers","type":"bytes","internalType":"bytes"},{"name":"quorumThresholdPercentage","type":"uint32","internalType":"uint32"},{"name":"lastCompletedOpTaskQuorumNumbers","type":"bytes","internalType":"bytes"},{"name":"lastCompletedOpTaskQuorumThresholdPercentage","type":"uint32","internalType":"uint32"}]}],"anonymous":false},{"type":"event","name":"NewOpTaskForceCreated","inputs":[{"name":"taskIndex","type":"uint32","indexed":true,"internalType":"uint32"},{"name":"task","type":"tuple","indexed":false,"internalType":"struct IFinalizerTaskManager.OpTask","components":[{"name":"taskNum","type":"uint32","internalType":"uint32"},{"name":"taskCreatedBlock","type":"uint32","internalType":"uint32"},{"name":"lastCompletedOpTaskCreatedBlock","type":"uint32","internalType":"uint32"},{"name":"quorumNumbers","type":"bytes","internalType":"bytes"},{"name":"quorumThresholdPercentage","type":"uint32","internalType":"uint32"},{"name":"lastCompletedOpTaskQuorumNumbers","type":"bytes","internalType":"bytes"},{"name":"lastCompletedOpTaskQuorumThresholdPercentage","type":"uint32","internalType":"uint32"}]}],"anonymous":false},{"type":"event","name":"NewRdTaskCreated","inputs":[{"name":"taskIndex","type":"uint32","indexed":true,"internalType":"uint32"},{"name":"task","type":"tuple","indexed":false,"internalType":"struct IFinalizerTaskManager.RdTask","components":[{"name":"taskNum","type":"uint32","internalType":"uint32"},{"name":"blockNumber","type":"uint256","internalType":"uint256"},{"name":"taskCreatedBlock","type":"uint32","internalType":"uint32"},{"name":"lastCompletedOpTaskCreatedBlock","type":"uint32","internalType":"uint32"},{"name":"lastCompletedOpTaskQuorumNumbers","type":"bytes","internalType":"bytes"},{"name":"lastCompletedOpTaskQuorumThresholdPercentage","type":"uint32","internalType":"uint32"}]}],"anonymous":false},{"type":"event","name":"OpTaskCancelled","inputs":[{"name":"taskIndex","type":"uint32","indexed":true,"internalType":"uint32"}],"anonymous":false},{"type":"event","name":"OpTaskCompleted","inputs":[{"name":"taskIndex","type":"uint32","indexed":true,"internalType":"uint32"},{"name":"taskResponse","type":"tuple","indexed":false,"internalType":"struct IFinalizerTaskManager.OpTaskResponse","components":[{"name":"referenceTaskIndex","type":"uint32","internalType":"uint32"},{"name":"referenceTaskHash","type":"bytes32","internalType":"bytes32"},{"name":"operatorsStateInfoHash","type":"bytes32","internalType":"bytes32"}]}],"anonymous":false},{"type":"event","name":"OpTaskForceCompleted","inputs":[{"name":"taskIndex","type":"uint32","indexed":true,"internalType":"uint32"},{"name":"taskResponse","type":"tuple","indexed":false,"internalType":"struct IFinalizerTaskManager.OpTaskResponse","components":[{"name":"referenceTaskIndex","type":"uint32","internalType":"uint32"},{"name":"referenceTaskHash","type":"bytes32","internalType":"bytes32"},{"name":"operatorsStateInfoHash","type":"bytes32","internalType":"bytes32"}]}],"anonymous":false},{"type":"event","name":"OpTaskResponded","inputs":[{"name":"taskIndex","type":"uint32","indexed":true,"internalType":"uint32"},{"name":"taskResponse","type":"tuple","indexed":false,"internalType":"struct IFinalizerTaskManager.OpTaskResponse","components":[{"name":"referenceTaskIndex","type":"uint32","internalType":"uint32"},{"name":"referenceTaskHash","type":"bytes32","internalType":"bytes32"},{"name":"operatorsStateInfoHash","type":"bytes32","internalType":"bytes32"}]},{"name":"taskResponseMetadata","type":"tuple","indexed":false,"internalType":"struct IFinalizerTaskManager.TaskResponseMetadata","components":[{"name":"taskResponsedBlock","type":"uint32","internalType":"uint32"},{"name":"hashOfNonSigners","type":"bytes32","internalType":"bytes32"},{"name":"quroumStakeTotals","type":"uint96[]","internalType":"uint96[]"},{"name":"quroumStakeSigned","type":"uint96[]","internalType":"uint96[]"}]}],"anonymous":false},{"type":"event","name":"OwnershipTransferred","inputs":[{"name":"previousOwner","type":"address","indexed":true,"internalType":"address"},{"name":"newOwner","type":"address","indexed":true,"internalType":"address"}],"anonymous":false},{"type":"event","name":"PauseTrackingOpState","inputs":[],"anonymous":false},{"type":"event","name":"Paused","inputs":[{"name":"account","type":"address","indexed":true,"internalType":"address"},{"name":"newPausedStatus","type":"uint256","indexed":false,"internalType":"uint256"}],"anonymous":false},{"type":"event","name":"PauserRegistrySet","inputs":[{"name":"pauserRegistry","type":"address","indexed":false,"internalType":"contract IPauserRegistry"},{"name":"newPauserRegistry","type":"address","indexed":false,"internalType":"contract IPauserRegistry"}],"anonymous":false},{"type":"event","name":"RdTaskCancelled","inputs":[{"name":"taskIndex","type":"uint32","indexed":true,"internalType":"uint32"}],"anonymous":false},{"type":"event","name":"RdTaskCompleted","inputs":[{"name":"taskIndex","type":"uint32","indexed":true,"internalType":"uint32"},{"name":"blockHash","type":"bytes32","indexed":true,"internalType":"bytes32"},{"name":"taskResponse","type":"tuple","indexed":false,"internalType":"struct IFinalizerTaskManager.RdTaskResponse","components":[{"name":"referenceTaskIndex","type":"uint32","internalType":"uint32"},{"name":"referenceTaskHash","type":"bytes32","internalType":"bytes32"},{"name":"blockHash","type":"bytes32","internalType":"bytes32"},{"name":"storageProofHash","type":"bytes32","internalType":"bytes32"},{"name":"pendingStateHash","type":"bytes32","internalType":"bytes32"}]}],"anonymous":false},{"type":"event","name":"RdTaskResponded","inputs":[{"name":"taskIndex","type":"uint32","indexed":true,"internalType":"uint32"},{"name":"taskResponse","type":"tuple","indexed":false,"internalType":"struct IFinalizerTaskManager.RdTaskResponse","components":[{"name":"referenceTaskIndex","type":"uint32","internalType":"uint32"},{"name":"referenceTaskHash","type":"bytes32","internalType":"bytes32"},{"name":"blockHash","type":"bytes32","internalType":"bytes32"},{"name":"storageProofHash","type":"bytes32","internalType":"bytes32"},{"name":"pendingStateHash","type":"bytes32","internalType":"bytes32"}]},{"name":"taskResponseMetadata","type":"tuple","indexed":false,"internalType":"struct IFinalizerTaskManager.TaskResponseMetadata","components":[{"name":"taskResponsedBlock","type":"uint32","internalType":"uint32"},{"name":"hashOfNonSigners","type":"bytes32","internalType":"bytes32"},{"name":"quroumStakeTotals","type":"uint96[]","internalType":"uint96[]"},{"name":"quroumStakeSigned","type":"uint96[]","internalType":"uint96[]"}]}],"anonymous":false},{"type":"event","name":"ResumeTrackingOpState","inputs":[{"name":"resetTrackedQuorums","type":"bool","indexed":false,"internalType":"bool"}],"anonymous":false},{"type":"event","name":"StaleStakesForbiddenUpdate","inputs":[{"name":"value","type":"bool","indexed":false,"internalType":"bool"}],"anonymous":false},{"type":"event","name":"Unpaused","inputs":[{"name":"account","type":"address","indexed":true,"internalType":"address"},{"name":"newPausedStatus","type":"uint256","indexed":false,"internalType":"uint256"}],"anonymous":false}],"bytecode":{"object":"0x608060405234801561001057600080fd5b50615e4f80620000216000396000f3fe608060405234801561001057600080fd5b50600436106102f15760003560e01c80635df459461161019d5780638fc8729a116100e9578063cefdc1d4116100a2578063ef0244581161007c578063ef02445814610709578063f2fde38b14610711578063f5640cf814610724578063fabc1cbc1461073757600080fd5b8063cefdc1d4146106d0578063df5cf723146106f1578063e70c2623146106f957600080fd5b80638fc8729a14610634578063a69563a91461064b578063adfcb04814610662578063b3ea184e1461066b578063bf2315ed1461067e578063c987de8e146106b957600080fd5b8063723114ab116101565780637afdd54b116101305780637afdd54b146105ed5780638380acbd146105fd578063886f1195146106105780638da5cb5b1461062357600080fd5b8063723114ab146105bf57806379badf73146105d25780637afa1eed146105da57600080fd5b80635df459461461056b57806368304835146105735780636d14a9871461057b5780636e125ff4146105835780636efb463614610596578063715018a6146105b757600080fd5b80633563b0d11161025c578063516a722711610215578063595c6a67116101ef578063595c6a67146105185780635ac86ab7146105205780635c155662146105435780635c975abb1461056357600080fd5b8063516a7227146104e0578063537a2929146104f357806354d127de1461050a57600080fd5b80633563b0d11461044a57806341789d571461046a57806345265b7a146104965780634ae6b203146104a75780634d7a7116146104b05780634f739f74146104c057600080fd5b8063191aac7a116102ae578063191aac7a1461039f5780631ac27297146103b25780631c178e9c146103dd578063245a7bfc146104085780632830e8f9146104225780632d4713db1461043757600080fd5b806301a3f013146102f657806305c6b6631461030b5780630ee0fdbd1461031e57806310d67a2f14610340578063136439dd1461035357806313f815ed14610366575b600080fd5b610309610304366004614278565b61074a565b005b6103096103193660046146dd565b610bdb565b60a35461032b9060ff1681565b60405190151581526020015b60405180910390f35b61030961034e36600461477a565b6111a0565b61030961036136600461479e565b611250565b6103916103743660046147b7565b609a60209081526000928352604080842090915290825290205481565b604051908152602001610337565b6103096103ad366004614802565b61138f565b6103916103c03660046147b7565b609b60209081526000928352604080842090915290825290205481565b6097546103f0906001600160a01b031681565b6040516001600160a01b039091168152602001610337565b609f546103f090600160201b90046001600160a01b031681565b61042a6113d0565b604051610337919061486c565b61030961044536600461487f565b61145e565b61045d61045836600461493b565b611628565b6040516103379190614a96565b60985461048190600160e01b900463ffffffff1681565b60405163ffffffff9091168152602001610337565b6103096104a4366004614aa9565b50565b61039160a15481565b609d546104819063ffffffff1681565b6104d36104ce366004614b2b565b611abe565b6040516103379190614c84565b6103096104ee366004614d02565b6121e4565b609d5461048190600160401b900463ffffffff1681565b6103096104a4366004614d6c565b6103096128dc565b61032b61052e366004614da7565b606654600160ff9092169190911b9081161490565b610556610551366004614dca565b6129a3565b6040516103379190614e76565b606654610391565b6103f0612b6b565b6103f0612bde565b6103f0612c28565b610309610591366004614eba565b612c72565b6105a96105a4366004614f0e565b6130e6565b604051610337929190614fce565b610309613186565b6103096105cd36600461477a565b61319a565b6103096131f0565b60a0546103f0906001600160a01b031681565b6099546104819063ffffffff1681565b6098546103f0906001600160a01b031681565b6065546103f0906001600160a01b031681565b6033546001600160a01b03166103f0565b609d5461048190600160201b900463ffffffff1681565b60985461048190600160a01b900463ffffffff1681565b61039160a25481565b61030961067936600461479e565b613223565b6106ac61068c3660046147b7565b609c60209081526000928352604080842090915290825290205460ff1681565b604051610337919061502d565b60985461048190600160c01b900463ffffffff1681565b6106e36106de366004615055565b61363c565b604051610337929190615097565b6103f06137ce565b609f546104819063ffffffff1681565b610391606481565b61030961071f36600461477a565b613818565b610309610732366004614eba565b61388e565b61030961074536600461479e565b613ccf565b610752613e2b565b600061076160208301836150b8565b9050600061077560608501604086016150b8565b9050600061078960408601602087016150b8565b905036600061079b60a08801886150d5565b909250905060006107b260e0890160c08a016150b8565b6000808052609a6020908152919250600080516020615dda833981519152916107dd908a018a6150b8565b63ffffffff1663ffffffff16815260200190815260200160002054886040516020016108099190615189565b60405160208183030381529060405280519060200120146108455760405162461bcd60e51b815260040161083c90615263565b60405180910390fd5b6000808052609c6020908152600191600080516020615dfa83398151915291610870908b018b6150b8565b63ffffffff16815260208101919091526040016000205460ff16600481111561089b5761089b615017565b146108b85760405162461bcd60e51b815260040161083c906152c0565b6000808052609b60209081527f10afac9233b4ccc54d6404ffc1cf3b47515a2b8edbf675d15eddce05a027dcbd9082906108f4908b018b6150b8565b63ffffffff1663ffffffff168152602001908152602001600020541461092c5760405162461bcd60e51b815260040161083c906152c0565b60985461094690600160a01b900463ffffffff1685615322565b63ffffffff164363ffffffff1611156109715760405162461bcd60e51b815260040161083c9061534a565b60408051808201909152606080825260208201526040805160808101825263ffffffff4316815260006020808301829052848101518385015284516060840152925190926109c3918c91849101615407565b60408051601f1981840301815291905280516020918201206000808052609b835290917f10afac9233b4ccc54d6404ffc1cf3b47515a2b8edbf675d15eddce05a027dcbd9190610a15908e018e6150b8565b63ffffffff16815260208082019290925260409081016000908120939093558c013560a255818052609c8152600491600080516020615dfa83398151915291610a60908e018e6150b8565b63ffffffff16815260208101919091526040016000205460ff166004811115610a8b57610a8b615017565b50610a9e905060408c0160208d016150b8565b609d805463ffffffff92909216600160401b0263ffffffff60401b19909216919091179055610ad060608c018c6150d5565b610adc91609e916141b5565b50610aed60a08c0160808d016150b8565b609f805463ffffffff191663ffffffff92909216919091179055610b1460208c018c6150b8565b609d805463ffffffff92909216600160201b0267ffffffff0000000019909216919091179055610b4760208b018b6150b8565b63ffffffff167fff2908483d74b6b70053dd473260acf1b09e0ba0781bf94100bb8277581749de8b604051610b7c9190615427565b60405180910390a2610b9160208b018b6150b8565b63ffffffff167fdf22f3558e4841b63d77179546b3eae63e4e343bbe752746b093162bc526be4c8b604051610bc69190615427565b60405180910390a25050505050505050505050565b609f54600160201b90046001600160a01b03163314610c0c5760405162461bcd60e51b815260040161083c90615435565b6000610c1e60808501606086016150b8565b90506000610c3260608601604087016150b8565b9050366000610c4460808801886150d5565b90925090506000610c5b60c0890160a08a016150b8565b60016000908152609a60209081529192507f5b542b52981c4f2fa9965514d5bb7f37f1b7bc0902a6a4dc6b04dc05be85586b91610c9a908a018a6150b8565b63ffffffff1663ffffffff1681526020019081526020016000205488604051602001610cc69190615454565b6040516020818303038152906040528051906020012014610cf95760405162461bcd60e51b815260040161083c90615263565b60016000818152609c6020908152600080516020615dba8339815191529190610d24908b018b6150b8565b63ffffffff16815260208101919091526040016000205460ff166004811115610d4f57610d4f615017565b14610d6c5760405162461bcd60e51b815260040161083c906152c0565b60016000908152609b60209081527f298c800d0881dd208d705ebc03eb18189f38118259f27dd43b4c60d61c607e87908290610daa908b018b6150b8565b63ffffffff1663ffffffff1681526020019081526020016000205414610de25760405162461bcd60e51b815260040161083c906152c0565b609854610dfc90600160a01b900463ffffffff1685615322565b63ffffffff164363ffffffff161115610e275760405162461bcd60e51b815260040161083c9061534a565b600087604051602001610e3a919061552e565b604051602081830303815290604052805190602001209050600080609760009054906101000a90046001600160a01b03166001600160a01b0316636efb46368488888c8e6040518663ffffffff1660e01b8152600401610e9e9594939291906155c6565b600060405180830381865afa158015610ebb573d6000803e3d6000fd5b505050506040513d6000823e601f3d908101601f19168201604052610ee3919081019061573d565b6040805160808101825263ffffffff43168152602080820184905280850151828401528451606083015291519395509193509091610f25918d918491016157d9565b60408051601f19818403018152919052805160209182012060016000908152609b835290917f298c800d0881dd208d705ebc03eb18189f38118259f27dd43b4c60d61c607e879190610f79908f018f6150b8565b63ffffffff1681526020810191909152604001600020556003609c6000600180811115610fa857610fa8615017565b815260200190815260200160002060008d6000016020810190610fcb91906150b8565b63ffffffff16815260208101919091526040016000205460ff166004811115610ff657610ff6615017565b50611006905060208d018d6150b8565b63ffffffff167f07ba8d7c4209c14e6d2ed5fd4542e9d8f47e1af3da0cbd9c50e2d0d3e87dfff08c8360405161103d9291906157d9565b60405180910390a260005b868110156110df578560ff168460200151828151811061106a5761106a6157f9565b602002602001015161107c919061580f565b6001600160601b031660648560000151838151811061109d5761109d6157f9565b60200260200101516001600160601b03166110b8919061583e565b10156110cd5750505050505050505050505050565b806110d78161585d565b915050611048565b5060808b013560a15560016000908152609c6020908152600491600080516020615dba83398151915291611115908f018f6150b8565b63ffffffff16815260208101919091526040016000205460ff16600481111561114057611140615017565b505060408b013561115460208d018d6150b8565b63ffffffff167f02046773dfd0e022ab6bf68cb07d73f080f87a4b82f7a4fccfe7d919d6c4ecb48d604051611189919061552e565b60405180910390a35050505050505050505b505050565b606560009054906101000a90046001600160a01b03166001600160a01b031663eab66d7a6040518163ffffffff1660e01b8152600401602060405180830381865afa1580156111f3573d6000803e3d6000fd5b505050506040513d601f19601f820116820180604052508101906112179190615878565b6001600160a01b0316336001600160a01b0316146112475760405162461bcd60e51b815260040161083c90615895565b6104a481613e85565b60655460405163237dfb4760e11b81523360048201526001600160a01b03909116906346fbf68e90602401602060405180830381865afa158015611298573d6000803e3d6000fd5b505050506040513d601f19601f820116820180604052508101906112bc91906158df565b6112d85760405162461bcd60e51b815260040161083c906158fc565b606654818116146113515760405162461bcd60e51b815260206004820152603860248201527f5061757361626c652e70617573653a20696e76616c696420617474656d70742060448201527f746f20756e70617573652066756e6374696f6e616c6974790000000000000000606482015260840161083c565b606681905560405181815233907fab40a374bc51de372200a8bc981af8c9ecdc08dfdaef0bb6e09f88f3c616ef3d906020015b60405180910390a250565b611397613e2b565b60405181151581527f6af4ae1f481aff20ce571abd65375b67b22359883a823d1ddf4bd8f2879ff7ba906020015b60405180910390a150565b609e80546113dd90615944565b80601f016020809104026020016040519081016040528092919081815260200182805461140990615944565b80156114565780601f1061142b57610100808354040283529160200191611456565b820191906000526020600020905b81548152906001019060200180831161143957829003601f168201915b505050505081565b600054610100900460ff161580801561147e5750600054600160ff909116105b806114985750303b158015611498575060005460ff166001145b6114fb5760405162461bcd60e51b815260206004820152602e60248201527f496e697469616c697a61626c653a20636f6e747261637420697320616c72656160448201526d191e481a5b9a5d1a585b1a5e995960921b606482015260840161083c565b6000805460ff19166001179055801561151e576000805461ff0019166101001790555b6115298a6000613f7c565b61153289614066565b609f80546001600160a01b03808b16600160201b02640100000000600160c01b03199092169190911790915560a080548983166001600160a01b03199182161790915560a3805489151560ff199091161790556097805488841692169190911790556098805463ffffffff868116600160c01b0263ffffffff60c01b19918916600160a01b026001600160c01b0319909316948716949094179190911716919091179055801561161c576000805461ff0019169055604051600181527f7f26b83ff96e1f2b6a682f133852f6798a09c465da95921460cefb38474024989060200160405180910390a15b50505050505050505050565b60606000846001600160a01b031663683048356040518163ffffffff1660e01b8152600401602060405180830381865afa15801561166a573d6000803e3d6000fd5b505050506040513d601f19601f8201168201806040525081019061168e9190615878565b90506000856001600160a01b0316639e9923c26040518163ffffffff1660e01b8152600401602060405180830381865afa1580156116d0573d6000803e3d6000fd5b505050506040513d601f19601f820116820180604052508101906116f49190615878565b90506000866001600160a01b0316635df459466040518163ffffffff1660e01b8152600401602060405180830381865afa158015611736573d6000803e3d6000fd5b505050506040513d601f19601f8201168201806040525081019061175a9190615878565b9050600086516001600160401b03811115611777576117776142c6565b6040519080825280602002602001820160405280156117aa57816020015b60608152602001906001900390816117955790505b50905060005b8751811015611ab25760008882815181106117cd576117cd6157f9565b0160200151604051638902624560e01b815260f89190911c6004820181905263ffffffff8a16602483015291506000906001600160a01b03871690638902624590604401600060405180830381865afa15801561182e573d6000803e3d6000fd5b505050506040513d6000823e601f3d908101601f191682016040526118569190810190615979565b905080516001600160401b03811115611871576118716142c6565b6040519080825280602002602001820160405280156118bc57816020015b604080516060810182526000808252602080830182905292820152825260001990920191018161188f5790505b508484815181106118cf576118cf6157f9565b602002602001018190525060005b8151811015611a9c576040518060600160405280876001600160a01b03166347b314e8858581518110611912576119126157f9565b60200260200101516040518263ffffffff1660e01b815260040161193891815260200190565b602060405180830381865afa158015611955573d6000803e3d6000fd5b505050506040513d601f19601f820116820180604052508101906119799190615878565b6001600160a01b03168152602001838381518110611999576119996157f9565b60200260200101518152602001896001600160a01b031663fa28c6278585815181106119c7576119c76157f9565b60209081029190910101516040516001600160e01b031960e084901b168152600481019190915260ff8816602482015263ffffffff8f166044820152606401602060405180830381865afa158015611a23573d6000803e3d6000fd5b505050506040513d601f19601f82011682018060405250810190611a479190615a09565b6001600160601b0316815250858581518110611a6557611a656157f9565b60200260200101518281518110611a7e57611a7e6157f9565b60200260200101819052508080611a949061585d565b9150506118dd565b5050508080611aaa9061585d565b9150506117b0565b50979650505050505050565b611ae96040518060800160405280606081526020016060815260200160608152602001606081525090565b6000876001600160a01b031663683048356040518163ffffffff1660e01b8152600401602060405180830381865afa158015611b29573d6000803e3d6000fd5b505050506040513d601f19601f82011682018060405250810190611b4d9190615878565b9050611b7a6040518060800160405280606081526020016060815260200160608152602001606081525090565b6040516361c8a12f60e11b81526001600160a01b038a169063c391425e90611baa908b9089908990600401615a24565b600060405180830381865afa158015611bc7573d6000803e3d6000fd5b505050506040513d6000823e601f3d908101601f19168201604052611bef9190810190615a6e565b81526040516340e03a8160e11b81526001600160a01b038316906381c0750290611c21908b908b908b90600401615afc565b600060405180830381865afa158015611c3e573d6000803e3d6000fd5b505050506040513d6000823e601f3d908101601f19168201604052611c669190810190615a6e565b6040820152856001600160401b03811115611c8357611c836142c6565b604051908082528060200260200182016040528015611cb657816020015b6060815260200190600190039081611ca15790505b50606082015260005b60ff81168711156120f5576000856001600160401b03811115611ce457611ce46142c6565b604051908082528060200260200182016040528015611d0d578160200160208202803683370190505b5083606001518360ff1681518110611d2757611d276157f9565b602002602001018190525060005b86811015611ff55760008c6001600160a01b03166304ec63518a8a85818110611d6057611d606157f9565b905060200201358e88600001518681518110611d7e57611d7e6157f9565b60200260200101516040518463ffffffff1660e01b8152600401611dbb9392919092835263ffffffff918216602084015216604082015260600190565b602060405180830381865afa158015611dd8573d6000803e3d6000fd5b505050506040513d601f19601f82011682018060405250810190611dfc9190615b1c565b90506001600160c01b038116611ea05760405162461bcd60e51b815260206004820152605c60248201527f4f70657261746f7253746174655265747269657665722e676574436865636b5360448201527f69676e617475726573496e64696365733a206f70657261746f72206d7573742060648201527f6265207265676973746572656420617420626c6f636b6e756d62657200000000608482015260a40161083c565b8a8a8560ff16818110611eb557611eb56157f9565b6001600160c01b03841692013560f81c9190911c600190811614159050611fe257856001600160a01b031663dd9846b98a8a85818110611ef757611ef76157f9565b905060200201358d8d8860ff16818110611f1357611f136157f9565b6040516001600160e01b031960e087901b1681526004810194909452919091013560f81c60248301525063ffffffff8f166044820152606401602060405180830381865afa158015611f69573d6000803e3d6000fd5b505050506040513d601f19601f82011682018060405250810190611f8d9190615b45565b85606001518560ff1681518110611fa657611fa66157f9565b60200260200101518481518110611fbf57611fbf6157f9565b63ffffffff9092166020928302919091019091015282611fde8161585d565b9350505b5080611fed8161585d565b915050611d35565b506000816001600160401b03811115612010576120106142c6565b604051908082528060200260200182016040528015612039578160200160208202803683370190505b50905060005b828110156120ba5784606001518460ff1681518110612060576120606157f9565b60200260200101518181518110612079576120796157f9565b6020026020010151828281518110612093576120936157f9565b63ffffffff90921660209283029190910190910152806120b28161585d565b91505061203f565b508084606001518460ff16815181106120d5576120d56157f9565b6020026020010181905250505080806120ed90615b62565b915050611cbf565b506000896001600160a01b0316635df459466040518163ffffffff1660e01b8152600401602060405180830381865afa158015612136573d6000803e3d6000fd5b505050506040513d601f19601f8201168201806040525081019061215a9190615878565b60405163354952a360e21b81529091506001600160a01b0382169063d5254a8c9061218d908b908b908e90600401615b82565b600060405180830381865afa1580156121aa573d6000803e3d6000fd5b505050506040513d6000823e601f3d908101601f191682016040526121d29190810190615a6e565b60208301525098975050505050505050565b609d54600160401b900463ffffffff1615600061220760608601604087016150b8565b905081156122925760a35460ff161561225057609f54600160201b90046001600160a01b0316331461224b5760405162461bcd60e51b815260040161083c90615435565b6122c3565b6033546001600160a01b0316331461224b5760405162461bcd60e51b815260206004820152600560248201526420baba341960d91b604482015260640161083c565b609f54600160201b90046001600160a01b031633146122c35760405162461bcd60e51b815260040161083c90615435565b60006122d560408701602088016150b8565b90503660006122e760a08901896150d5565b909250905060006122fe60e08a0160c08b016150b8565b6000808052609a6020908152919250600080516020615dda83398151915291612329908b018b6150b8565b63ffffffff1663ffffffff16815260200190815260200160002054896040516020016123559190615189565b60405160208183030381529060405280519060200120146123885760405162461bcd60e51b815260040161083c90615263565b6000808052609c6020908152600191600080516020615dfa833981519152916123b3908c018c6150b8565b63ffffffff16815260208101919091526040016000205460ff1660048111156123de576123de615017565b146123fb5760405162461bcd60e51b815260040161083c906152c0565b6000808052609b60209081527f10afac9233b4ccc54d6404ffc1cf3b47515a2b8edbf675d15eddce05a027dcbd908290612437908c018c6150b8565b63ffffffff1663ffffffff168152602001908152602001600020541461246f5760405162461bcd60e51b815260040161083c906152c0565b60985461248990600160a01b900463ffffffff1685615322565b63ffffffff164363ffffffff1611156124b45760405162461bcd60e51b815260040161083c9061534a565b6000886040516020016124c79190615427565b60408051601f19818403018152828252805160209182012083830190925260608084529083015291506000881561258c57609760009054906101000a90046001600160a01b03166001600160a01b0316636efb46368488888c8f6040518663ffffffff1660e01b81526004016125419594939291906155c6565b600060405180830381865afa15801561255e573d6000803e3d6000fd5b505050506040513d6000823e601f3d908101601f19168201604052612586919081019061573d565b90925090505b6040805160808101825263ffffffff431681526020808201849052848101518284015284516060830152915190916125c8918e91849101615407565b60408051808303601f190181529190528051602090910120609b600080815260200190815260200160002060008e600001602081019061260891906150b8565b63ffffffff1681526020810191909152604001600020556003609c600080600181111561263757612637615017565b815260200190815260200160002060008e600001602081019061265a91906150b8565b63ffffffff16815260208101919091526040016000205460ff16600481111561268557612685615017565b50612695905060208e018e6150b8565b63ffffffff167f47adacb0b6bbd726ae39ac6c006cca1c2006c9aedaa882dcba7c4804db7c41ce8d836040516126cc929190615407565b60405180910390a289156127775760005b86811015612775578560ff16846020015182815181106126ff576126ff6157f9565b6020026020010151612711919061580f565b6001600160601b0316606485600001518381518110612732576127326157f9565b60200260200101516001600160601b031661274d919061583e565b1015612763575050505050505050505050505050565b8061276d8161585d565b9150506126dd565b505b60408c013560a2556004609c600080815260200190815260200160002060008e60000160208101906127a991906150b8565b63ffffffff16815260208101919091526040016000205460ff1660048111156127d4576127d4615017565b506127e7905060408e0160208f016150b8565b609d805463ffffffff92909216600160401b0263ffffffff60401b1990921691909117905561281960608e018e6150d5565b61282591609e916141b5565b5061283660a08e0160808f016150b8565b609f805463ffffffff191663ffffffff9290921691909117905561285d60208e018e6150b8565b609d805463ffffffff92909216600160201b0267ffffffff000000001990921691909117905561289060208d018d6150b8565b63ffffffff167fff2908483d74b6b70053dd473260acf1b09e0ba0781bf94100bb8277581749de8d6040516128c59190615427565b60405180910390a250505050505050505050505050565b60655460405163237dfb4760e11b81523360048201526001600160a01b03909116906346fbf68e90602401602060405180830381865afa158015612924573d6000803e3d6000fd5b505050506040513d601f19601f8201168201806040525081019061294891906158df565b6129645760405162461bcd60e51b815260040161083c906158fc565b600019606681905560405190815233907fab40a374bc51de372200a8bc981af8c9ecdc08dfdaef0bb6e09f88f3c616ef3d9060200160405180910390a2565b60606000846001600160a01b031663c391425e84866040518363ffffffff1660e01b81526004016129d5929190615bac565b600060405180830381865afa1580156129f2573d6000803e3d6000fd5b505050506040513d6000823e601f3d908101601f19168201604052612a1a9190810190615a6e565b9050600084516001600160401b03811115612a3757612a376142c6565b604051908082528060200260200182016040528015612a60578160200160208202803683370190505b50905060005b8551811015612b6157866001600160a01b03166304ec6351878381518110612a9057612a906157f9565b602002602001015187868581518110612aab57612aab6157f9565b60200260200101516040518463ffffffff1660e01b8152600401612ae89392919092835263ffffffff918216602084015216604082015260600190565b602060405180830381865afa158015612b05573d6000803e3d6000fd5b505050506040513d601f19601f82011682018060405250810190612b299190615b1c565b6001600160c01b0316828281518110612b4457612b446157f9565b602090810291909101015280612b598161585d565b915050612a66565b5095945050505050565b60975460408051632efa2ca360e11b815290516000926001600160a01b031691635df459469160048083019260209291908290030181865afa158015612bb5573d6000803e3d6000fd5b505050506040513d601f19601f82011682018060405250810190612bd99190615878565b905090565b60975460408051636830483560e01b815290516000926001600160a01b03169163683048359160048083019260209291908290030181865afa158015612bb5573d6000803e3d6000fd5b60975460408051636d14a98760e01b815290516000926001600160a01b031691636d14a9879160048083019260209291908290030181865afa158015612bb5573d6000803e3d6000fd5b60a0546001600160a01b03163314612cb45760405162461bcd60e51b8152602060048201526005602482015264417574683160d81b604482015260640161083c565b609d5463ffffffff600160401b909104164314801590612cd357504315155b612cef5760405162461bcd60e51b815260040161083c90615c00565b6040805160e0810182526000818301819052606080830181905260a083015260c0820152609854600160e01b900463ffffffff908116825243811660208084019190915290861660808301528251601f850182900482028101820190935283835290919084908490819084018382808284376000920191909152505050506060820152609d54600160401b900463ffffffff16612dde5763ffffffff431660408083019190915280516020601f850181900481028201810190925283815290849084908190840183828082843760009201919091525050505060a082015263ffffffff841660c0820152612e92565b609d54600160401b900463ffffffff166040820152609e8054612e0090615944565b80601f0160208091040260200160405190810160405280929190818152602001828054612e2c90615944565b8015612e795780601f10612e4e57610100808354040283529160200191612e79565b820191906000526020600020905b815481529060010190602001808311612e5c57829003601f168201915b505050505060a0820152609f5463ffffffff1660c08201525b609854600160e01b900463ffffffff1615612f3957609854600090612ec690600190600160e01b900463ffffffff16615c5d565b63ffffffff81166000908152600080516020615dfa833981519152602052604090205490915060019060ff166004811115612f0357612f03615017565b1415612f375763ffffffff81166000908152600080516020615dfa83398151915260205260409020805460ff191660021790555b505b60995463ffffffff1615612fd257609954600090612f5f9060019063ffffffff16615c5d565b63ffffffff81166000908152600080516020615dba833981519152602052604090205490915060019060ff166004811115612f9c57612f9c615017565b1415612fd05763ffffffff81166000908152600080516020615dba83398151915260205260409020805460ff191660021790555b505b80604051602001612fe39190615c82565b60408051601f1981840301815282825280516020918201206098805463ffffffff600160e01b9182900481166000908152600080516020615dda833981519152865286812094909455825482900481168452600080516020615dfa833981519152909452939091208054600160ff19909116179055609d805463ffffffff1916438416179055549190910416907ffaf4b2054479d0f83e909b73cde2a6cb18ec2a93ba8ad5a62329001c86b1f3ea9061309d908490615c82565b60405180910390a26098546130c090600160e01b900463ffffffff166001615322565b6098601c6101000a81548163ffffffff021916908363ffffffff16021790555050505050565b604080518082019091526060808252602082015260975460405163377da31b60e11b81526000916001600160a01b031690636efb463690613133908a908a908a908a908a906004016155c6565b600060405180830381865afa158015613150573d6000803e3d6000fd5b505050506040513d6000823e601f3d908101601f19168201604052613178919081019061573d565b915091509550959350505050565b61318e613e2b565b6131986000614066565b565b6131a2613e2b565b609780546001600160a01b0319166001600160a01b0383169081179091556040519081527f901a654dc830c94e8a12c9a3bc0a92ac11b5cf28046ca8d190691cdaf5209016906020016113c5565b6131f8613e2b565b6040517f4d60154266b2ea0c8f091d257eac5abc941c46cb54d0c3069a830f6339fe1da190600090a1565b60a0546001600160a01b031633146132655760405162461bcd60e51b8152602060048201526005602482015264417574683160d81b604482015260640161083c565b609d54600160401b900463ffffffff161580159061328257504315155b6132c05760405162461bcd60e51b815260206004820152600f60248201526e13dc0814dd185d19481d5b9a5b9a5d608a1b604482015260640161083c565b6099546098546040805160c0810182526000606080830191909152608082015263ffffffff9384168082526020820186905243851692820192909252609f54841660a0820152609e80549294600160e01b90940490931692909161332390615944565b80601f016020809104026020016040519081016040528092919081815260200182805461334f90615944565b801561339c5780601f106133715761010080835404028352916020019161339c565b820191906000526020600020905b81548152906001019060200180831161337f57829003601f168201915b50505050506080820152609d54600160401b900463ffffffff90811660608301528316156134445760006133d1600185615c5d565b63ffffffff81166000908152600080516020615dba833981519152602052604090205490915060019060ff16600481111561340e5761340e615017565b14156134425763ffffffff81166000908152600080516020615dba83398151915260205260409020805460ff191660021790555b505b63ffffffff82161561355b57600061345d600184615c5d565b63ffffffff81166000908152600080516020615dfa833981519152602052604090205490915060019060ff16600481111561349a5761349a615017565b141561355957609854609d546134c09163ffffffff600160c01b90910481169116615322565b63ffffffff164363ffffffff16111561352b5760405162461bcd60e51b815260206004820152602760248201527f52645461736b2063616e2774207965742063616e63656c2074686520696e6974604482015266204f705461736b60c81b606482015260840161083c565b63ffffffff81166000908152600080516020615dfa83398151915260205260409020805460ff191660021790555b505b8060405160200161356c9190615d18565b60408051601f19818403018152828252805160209182012063ffffffff871660008181527f5b542b52981c4f2fa9965514d5bb7f37f1b7bc0902a6a4dc6b04dc05be85586b845284812092909255600080516020615dba83398151915290925291909120805460ff19166001179055907f161faa5d92f6bf0262139c57c87ca6cc60e5b3c9c3341dc175cec97a2516cc7d90613609908490615d18565b60405180910390a261361c836001615322565b6099805463ffffffff191663ffffffff9290921691909117905550505050565b6040805160018082528183019092526000916060918391602080830190803683370190505090508481600081518110613677576136776157f9565b60209081029190910101526040516361c8a12f60e11b81526000906001600160a01b0388169063c391425e906136b39088908690600401615bac565b600060405180830381865afa1580156136d0573d6000803e3d6000fd5b505050506040513d6000823e601f3d908101601f191682016040526136f89190810190615a6e565b60008151811061370a5761370a6157f9565b60209081029190910101516040516304ec635160e01b81526004810188905263ffffffff87811660248301529091166044820181905291506000906001600160a01b038916906304ec635190606401602060405180830381865afa158015613776573d6000803e3d6000fd5b505050506040513d601f19601f8201168201806040525081019061379a9190615b1c565b6001600160c01b0316905060006137b0826140b8565b9050816137be8a838a611628565b9550955050505050935093915050565b6097546040805163df5cf72360e01b815290516000926001600160a01b03169163df5cf7239160048083019260209291908290030181865afa158015612bb5573d6000803e3d6000fd5b613820613e2b565b6001600160a01b0381166138855760405162461bcd60e51b815260206004820152602660248201527f4f776e61626c653a206e6577206f776e657220697320746865207a65726f206160448201526564647265737360d01b606482015260840161083c565b6104a481614066565b613896613e2b565b609d5463ffffffff600160401b9091041643148015906138b557504315155b6138d15760405162461bcd60e51b815260040161083c90615c00565b6040805160e0810182526000818301819052606080830181905260a083015260c0820152609854600160e01b900463ffffffff908116825243811660208084019190915290861660808301528251601f850182900482028101820190935283835290919084908490819084018382808284376000920191909152505050506060820152609d54600160401b900463ffffffff166139c05763ffffffff431660408083019190915280516020601f850181900481028201810190925283815290849084908190840183828082843760009201919091525050505060a082015263ffffffff841660c0820152613a74565b609d54600160401b900463ffffffff166040820152609e80546139e290615944565b80601f0160208091040260200160405190810160405280929190818152602001828054613a0e90615944565b8015613a5b5780601f10613a3057610100808354040283529160200191613a5b565b820191906000526020600020905b815481529060010190602001808311613a3e57829003601f168201915b505050505060a0820152609f5463ffffffff1660c08201525b609854600160e01b900463ffffffff1615613b1b57609854600090613aa890600190600160e01b900463ffffffff16615c5d565b63ffffffff81166000908152600080516020615dfa833981519152602052604090205490915060019060ff166004811115613ae557613ae5615017565b1415613b195763ffffffff81166000908152600080516020615dfa83398151915260205260409020805460ff191660021790555b505b60995463ffffffff1615613bb457609954600090613b419060019063ffffffff16615c5d565b63ffffffff81166000908152600080516020615dba833981519152602052604090205490915060019060ff166004811115613b7e57613b7e615017565b1415613bb25763ffffffff81166000908152600080516020615dba83398151915260205260409020805460ff191660021790555b505b80604051602001613bc59190615c82565b60408051601f1981840301815282825280516020918201206098805463ffffffff600160e01b9182900481166000908152600080516020615dda833981519152865286812094909455825482900481168452600080516020615dfa833981519152909452939091208054600160ff19909116179055609d805463ffffffff1916438416179055549190910416907ffaf4b2054479d0f83e909b73cde2a6cb18ec2a93ba8ad5a62329001c86b1f3ea90613c7f908490615c82565b60405180910390a26098601c9054906101000a900463ffffffff1663ffffffff167fdc5ba3b66ec6491b585b3f13698ed711aa829071f43300d6ede6dba67e28d75f8260405161309d9190615c82565b606560009054906101000a90046001600160a01b03166001600160a01b031663eab66d7a6040518163ffffffff1660e01b8152600401602060405180830381865afa158015613d22573d6000803e3d6000fd5b505050506040513d601f19601f82011682018060405250810190613d469190615878565b6001600160a01b0316336001600160a01b031614613d765760405162461bcd60e51b815260040161083c90615895565b606654198119606654191614613df45760405162461bcd60e51b815260206004820152603860248201527f5061757361626c652e756e70617573653a20696e76616c696420617474656d7060448201527f7420746f2070617573652066756e6374696f6e616c6974790000000000000000606482015260840161083c565b606681905560405181815233907f3582d1828e26bf56bd801502bc021ac0bc8afb57c826e4986b45593c8fad389c90602001611384565b6033546001600160a01b031633146131985760405162461bcd60e51b815260206004820181905260248201527f4f776e61626c653a2063616c6c6572206973206e6f7420746865206f776e6572604482015260640161083c565b6001600160a01b038116613f135760405162461bcd60e51b815260206004820152604960248201527f5061757361626c652e5f73657450617573657252656769737472793a206e657760448201527f50617573657252656769737472792063616e6e6f7420626520746865207a65726064820152686f206164647265737360b81b608482015260a40161083c565b606554604080516001600160a01b03928316815291831660208301527f6e9fcd539896fca60e8b0f01dd580233e48a6b0f7df013b89ba7f565869acdb6910160405180910390a1606580546001600160a01b0319166001600160a01b0392909216919091179055565b6065546001600160a01b0316158015613f9d57506001600160a01b03821615155b61401f5760405162461bcd60e51b815260206004820152604760248201527f5061757361626c652e5f696e697469616c697a655061757365723a205f696e6960448201527f7469616c697a6550617573657228292063616e206f6e6c792062652063616c6c6064820152666564206f6e636560c81b608482015260a40161083c565b606681905560405181815233907fab40a374bc51de372200a8bc981af8c9ecdc08dfdaef0bb6e09f88f3c616ef3d9060200160405180910390a261406282613e85565b5050565b603380546001600160a01b038381166001600160a01b0319831681179093556040519116919082907f8be0079c531659141344cd1fd0a4f28419497f9722a3daafe3b4186f6b6457e090600090a35050565b60606000806140c684614184565b61ffff166001600160401b038111156140e1576140e16142c6565b6040519080825280601f01601f19166020018201604052801561410b576020820181803683370190505b5090506000805b825182108015614123575061010081105b1561417a576001811b93508584161561416a578060f81b83838151811061414c5761414c6157f9565b60200101906001600160f81b031916908160001a9053508160010191505b6141738161585d565b9050614112565b5090949350505050565b6000805b82156141af57614199600184615d80565b90921691806141a781615d97565b915050614188565b92915050565b8280546141c190615944565b90600052602060002090601f0160209004810192826141e35760008555614229565b82601f106141fc5782800160ff19823516178555614229565b82800160010185558215614229579182015b8281111561422957823582559160200191906001019061420e565b50614235929150614239565b5090565b5b80821115614235576000815560010161423a565b600060e0828403121561426057600080fd5b50919050565b60006060828403121561426057600080fd5b6000806080838503121561428b57600080fd5b82356001600160401b038111156142a157600080fd5b6142ad8582860161424e565b9250506142bd8460208501614266565b90509250929050565b634e487b7160e01b600052604160045260246000fd5b604080519081016001600160401b03811182821017156142fe576142fe6142c6565b60405290565b60405161010081016001600160401b03811182821017156142fe576142fe6142c6565b604051601f8201601f191681016001600160401b038111828210171561434f5761434f6142c6565b604052919050565b60006001600160401b03821115614370576143706142c6565b5060051b60200190565b63ffffffff811681146104a457600080fd5b80356143978161437a565b919050565b600082601f8301126143ad57600080fd5b813560206143c26143bd83614357565b614327565b82815260059290921b840181019181810190868411156143e157600080fd5b8286015b848110156144055780356143f88161437a565b83529183019183016143e5565b509695505050505050565b60006040828403121561442257600080fd5b61442a6142dc565b9050813581526020820135602082015292915050565b600082601f83011261445157600080fd5b813560206144616143bd83614357565b82815260069290921b8401810191818101908684111561448057600080fd5b8286015b84811015614405576144968882614410565b835291830191604001614484565b600082601f8301126144b557600080fd5b6144bd6142dc565b8060408401858111156144cf57600080fd5b845b818110156144e95780358452602093840193016144d1565b509095945050505050565b60006080828403121561450657600080fd5b61450e6142dc565b905061451a83836144a4565b815261452983604084016144a4565b602082015292915050565b600082601f83011261454557600080fd5b813560206145556143bd83614357565b82815260059290921b8401810191818101908684111561457457600080fd5b8286015b848110156144055780356001600160401b038111156145975760008081fd5b6145a58986838b010161439c565b845250918301918301614578565b600061018082840312156145c657600080fd5b6145ce614304565b905081356001600160401b03808211156145e757600080fd5b6145f38583860161439c565b8352602084013591508082111561460957600080fd5b61461585838601614440565b6020840152604084013591508082111561462e57600080fd5b61463a85838601614440565b604084015261464c85606086016144f4565b606084015261465e8560e08601614410565b608084015261012084013591508082111561467857600080fd5b6146848583860161439c565b60a084015261014084013591508082111561469e57600080fd5b6146aa8583860161439c565b60c08401526101608401359150808211156146c457600080fd5b506146d184828501614534565b60e08301525092915050565b600080600083850360e08112156146f357600080fd5b84356001600160401b038082111561470a57600080fd5b9086019060c0828903121561471e57600080fd5b81955060a0601f198401121561473357600080fd5b60208701945060c087013592508083111561474d57600080fd5b505061475b868287016145b3565b9150509250925092565b6001600160a01b03811681146104a457600080fd5b60006020828403121561478c57600080fd5b813561479781614765565b9392505050565b6000602082840312156147b057600080fd5b5035919050565b600080604083850312156147ca57600080fd5b8235600281106147d957600080fd5b915060208301356147e98161437a565b809150509250929050565b80151581146104a457600080fd5b60006020828403121561481457600080fd5b8135614797816147f4565b6000815180845260005b8181101561484557602081850181015186830182015201614829565b81811115614857576000602083870101525b50601f01601f19169290920160200192915050565b602081526000614797602083018461481f565b60008060008060008060008060006101208a8c03121561489e57600080fd5b89356148a981614765565b985060208a01356148b981614765565b975060408a01356148c981614765565b965060608a01356148d981614765565b955060808a01356148e9816147f4565b945060a08a01356148f981614765565b935060c08a01356149098161437a565b925060e08a01356149198161437a565b91506101008a013561492a81614765565b809150509295985092959850929598565b60008060006060848603121561495057600080fd5b833561495b81614765565b92506020848101356001600160401b038082111561497857600080fd5b818701915087601f83011261498c57600080fd5b81358181111561499e5761499e6142c6565b6149b0601f8201601f19168501614327565b915080825288848285010111156149c657600080fd5b80848401858401376000848284010152508094505050506149e96040850161438c565b90509250925092565b600081518084526020808501808196508360051b810191508286016000805b86811015614a88578385038a52825180518087529087019087870190845b81811015614a7357835180516001600160a01b031684528a8101518b8501526040908101516001600160601b03169084015292890192606090920191600101614a2f565b50509a87019a95505091850191600101614a11565b509298975050505050505050565b60208152600061479760208301846149f2565b600060208284031215614abb57600080fd5b81356001600160401b03811115614ad157600080fd5b82016040818503121561479757600080fd5b60008083601f840112614af557600080fd5b5081356001600160401b03811115614b0c57600080fd5b602083019150836020828501011115614b2457600080fd5b9250929050565b60008060008060008060808789031215614b4457600080fd5b8635614b4f81614765565b95506020870135614b5f8161437a565b945060408701356001600160401b0380821115614b7b57600080fd5b614b878a838b01614ae3565b90965094506060890135915080821115614ba057600080fd5b818901915089601f830112614bb457600080fd5b813581811115614bc357600080fd5b8a60208260051b8501011115614bd857600080fd5b6020830194508093505050509295509295509295565b600081518084526020808501945080840160005b83811015614c2457815163ffffffff1687529582019590820190600101614c02565b509495945050505050565b600081518084526020808501808196508360051b8101915082860160005b85811015614c77578284038952614c65848351614bee565b98850198935090840190600101614c4d565b5091979650505050505050565b602081526000825160806020840152614ca060a0840182614bee565b90506020840151601f1980858403016040860152614cbe8383614bee565b92506040860151915080858403016060860152614cdb8383614bee565b9250606086015191508085840301608086015250614cf98282614c2f565b95945050505050565b600080600060a08486031215614d1757600080fd5b83356001600160401b0380821115614d2e57600080fd5b614d3a8783880161424e565b9450614d498760208801614266565b93506080860135915080821115614d5f57600080fd5b5061475b868287016145b3565b600060208284031215614d7e57600080fd5b81356001600160401b03811115614d9457600080fd5b8201610120818503121561479757600080fd5b600060208284031215614db957600080fd5b813560ff8116811461479757600080fd5b600080600060608486031215614ddf57600080fd5b8335614dea81614765565b92506020848101356001600160401b03811115614e0657600080fd5b8501601f81018713614e1757600080fd5b8035614e256143bd82614357565b81815260059190911b82018301908381019089831115614e4457600080fd5b928401925b82841015614e6257833582529284019290840190614e49565b80965050505050506149e96040850161438c565b6020808252825182820181905260009190848201906040850190845b81811015614eae57835183529284019291840191600101614e92565b50909695505050505050565b600080600060408486031215614ecf57600080fd5b8335614eda8161437a565b925060208401356001600160401b03811115614ef557600080fd5b614f0186828701614ae3565b9497909650939450505050565b600080600080600060808688031215614f2657600080fd5b8535945060208601356001600160401b0380821115614f4457600080fd5b614f5089838a01614ae3565b909650945060408801359150614f658261437a565b90925060608701359080821115614f7b57600080fd5b50614f88888289016145b3565b9150509295509295909350565b600081518084526020808501945080840160005b83811015614c245781516001600160601b031687529582019590820190600101614fa9565b6040815260008351604080840152614fe96080840182614f95565b90506020850151603f198483030160608501526150068282614f95565b925050508260208301529392505050565b634e487b7160e01b600052602160045260246000fd5b602081016005831061504f57634e487b7160e01b600052602160045260246000fd5b91905290565b60008060006060848603121561506a57600080fd5b833561507581614765565b925060208401359150604084013561508c8161437a565b809150509250925092565b8281526040602082015260006150b060408301846149f2565b949350505050565b6000602082840312156150ca57600080fd5b81356147978161437a565b6000808335601e198436030181126150ec57600080fd5b8301803591506001600160401b0382111561510657600080fd5b602001915036819003821315614b2457600080fd5b6000808335601e1984360301811261513257600080fd5b83016020810192503590506001600160401b0381111561515157600080fd5b803603831315614b2457600080fd5b81835281816020850137506000828201602090810191909152601f909101601f19169091010190565b602081526000823561519a8161437a565b63ffffffff811660208401525060208301356151b58161437a565b63ffffffff81166040840152506151ce6040840161438c565b63ffffffff81166060840152506151e8606084018461511b565b60e060808501526151fe61010085018284615160565b91505061520d6080850161438c565b63ffffffff811660a08501525061522760a085018561511b565b848303601f190160c086015261523e838284615160565b9250505061524e60c0850161438c565b63ffffffff811660e08501525b509392505050565b6020808252603d908201527f737570706c696564207461736b20646f6573206e6f74206d617463682074686560408201527f206f6e65207265636f7264656420696e2074686520636f6e7472616374000000606082015260800190565b6020808252602c908201527f41676772656761746f722068617320616c726561647920726573706f6e64656460408201526b20746f20746865207461736b60a01b606082015260800190565b634e487b7160e01b600052601160045260246000fd5b600063ffffffff8083168185168083038211156153415761534161530c565b01949350505050565b6020808252602d908201527f41676772656761746f722068617320726573706f6e64656420746f207468652060408201526c7461736b20746f6f206c61746560981b606082015260800190565b80356153a28161437a565b63ffffffff16825260208181013590830152604090810135910152565b63ffffffff81511682526020810151602083015260006040820151608060408501526153ee6080850182614f95565b905060608301518482036060860152614cf98282614f95565b6154118184615397565b6080606082015260006150b060808301846153bf565b606081016141af8284615397565b602080825260059082015264041757468360dc1b604082015260600190565b60208152600082356154658161437a565b63ffffffff8082166020850152602085013560408501526040850135915061548c8261437a565b8082166060850152606085013591506154a48261437a565b80821660808501526154b9608086018661511b565b925060c060a08601526154d060e086018483615160565b92505060a08501356154e18161437a565b1660c0939093019290925250919050565b80356154fd8161437a565b63ffffffff168252602081810135908301526040808201359083015260608082013590830152608090810135910152565b60a081016141af82846154f2565b600081518084526020808501945080840160005b83811015614c245761556d87835180518252602090810151910152565b6040969096019590820190600101615550565b8060005b60028110156155a3578151845260209384019390910190600101615584565b50505050565b6155b4828251615580565b602081015161119b6040840182615580565b8581526080602082015260006155e0608083018688615160565b63ffffffff851660408401528281036060840152610180845181835261560882840182614bee565b91505060208501518282036020840152615622828261553c565b9150506040850151828203604084015261563c828261553c565b915050606085015161565160608401826155a9565b506080850151805160e08401526020015161010083015260a08501518282036101208401526156808282614bee565b91505060c085015182820361014084015261569b8282614bee565b91505060e08501518282036101608401526156b68282614c2f565b9a9950505050505050505050565b80516001600160601b038116811461439757600080fd5b600082601f8301126156ec57600080fd5b815160206156fc6143bd83614357565b82815260059290921b8401810191818101908684111561571b57600080fd5b8286015b8481101561440557615730816156c4565b835291830191830161571f565b6000806040838503121561575057600080fd5b82516001600160401b038082111561576757600080fd5b908401906040828703121561577b57600080fd5b6157836142dc565b82518281111561579257600080fd5b61579e888286016156db565b8252506020830151828111156157b357600080fd5b6157bf888286016156db565b602083015250809450505050602083015190509250929050565b6157e381846154f2565b60c060a082015260006150b060c08301846153bf565b634e487b7160e01b600052603260045260246000fd5b60006001600160601b03808316818516818304811182151516156158355761583561530c565b02949350505050565b60008160001904831182151516156158585761585861530c565b500290565b60006000198214156158715761587161530c565b5060010190565b60006020828403121561588a57600080fd5b815161479781614765565b6020808252602a908201527f6d73672e73656e646572206973206e6f74207065726d697373696f6e6564206160408201526939903ab73830bab9b2b960b11b606082015260800190565b6000602082840312156158f157600080fd5b8151614797816147f4565b60208082526028908201527f6d73672e73656e646572206973206e6f74207065726d697373696f6e6564206160408201526739903830bab9b2b960c11b606082015260800190565b600181811c9082168061595857607f821691505b6020821081141561426057634e487b7160e01b600052602260045260246000fd5b6000602080838503121561598c57600080fd5b82516001600160401b038111156159a257600080fd5b8301601f810185136159b357600080fd5b80516159c16143bd82614357565b81815260059190911b820183019083810190878311156159e057600080fd5b928401925b828410156159fe578351825292840192908401906159e5565b979650505050505050565b600060208284031215615a1b57600080fd5b614797826156c4565b63ffffffff84168152604060208201819052810182905260006001600160fb1b03831115615a5157600080fd5b8260051b8085606085013760009201606001918252509392505050565b60006020808385031215615a8157600080fd5b82516001600160401b03811115615a9757600080fd5b8301601f81018513615aa857600080fd5b8051615ab66143bd82614357565b81815260059190911b82018301908381019087831115615ad557600080fd5b928401925b828410156159fe578351615aed8161437a565b82529284019290840190615ada565b63ffffffff84168152604060208201526000614cf9604083018486615160565b600060208284031215615b2e57600080fd5b81516001600160c01b038116811461479757600080fd5b600060208284031215615b5757600080fd5b81516147978161437a565b600060ff821660ff811415615b7957615b7961530c565b60010192915050565b604081526000615b96604083018587615160565b905063ffffffff83166020830152949350505050565b60006040820163ffffffff851683526020604081850152818551808452606086019150828701935060005b81811015615bf357845183529383019391830191600101615bd7565b5090979650505050505050565b60208082526039908201527f43616e2774206372656174652061207461736b20696e207468652073616d652060408201527f626c6f636b206173206120636f6d706c65746564207461736b00000000000000606082015260800190565b600063ffffffff83811690831681811015615c7a57615c7a61530c565b039392505050565b60208152600063ffffffff80845116602084015280602085015116604084015280604085015116606084015250606083015160e06080840152615cc961010084018261481f565b90506080840151615ce260a085018263ffffffff169052565b5060a0840151838203601f190160c0850152615cfe828261481f565b91505060c084015161525b60e085018263ffffffff169052565b60208152600063ffffffff80845116602084015260208401516040840152806040850151166060840152806060850151166080840152608084015160c060a0850152615d6760e085018261481f565b90508160a08601511660c0850152809250505092915050565b600082821015615d9257615d9261530c565b500390565b600061ffff80831681811415615daf57615daf61530c565b600101939250505056fe759fbb3c7535ea6cd791a268d7e54d5bf43408007315741bf51b70650b77f6a5be6620bd3346e5d7f8387fbec0981aa0d6289d22efa7c935f9ef6841bf2a98c721d5695aeb71770b4b420e85352fe1a012fa06ae92de02f7ee513765e0afa023a2646970667358221220c668c9908719426bfa52d6a8cc9b54638c90e96c2d886585876d70b30948052b64736f6c634300080c0033","linkReferences":{}},"methodIdentifiers":{"THRESHOLD_DENOMINATOR()":"ef024458","aggregator()":"245a7bfc","allTaskHashes(uint8,uint32)":"13f815ed","allTaskResponses(uint8,uint32)":"1ac27297","allowNonRootInit()":"0ee0fdbd","blsApkRegistry()":"5df45946","blsSignatureChecker()":"1c178e9c","checkSignatures(bytes32,bytes,uint32,(uint32[],(uint256,uint256)[],(uint256,uint256)[],(uint256[2],uint256[2]),(uint256,uint256),uint32[],uint32[],uint32[][]))":"6efb4636","createNewOpTask(uint32,bytes)":"6e125ff4","createNewRdTask(uint256)":"b3ea184e","delegation()":"df5cf723","dummyForOperatorStateInfoType((bool,uint8[],(uint8,uint96,(uint256,uint256))[],(uint8,uint96)[],(uint8,(uint256,uint256))[],bytes32[],(bytes32,uint8[],uint96[],uint8)[],(bytes32,uint8[],uint96[])[],(bytes32,uint8)[]))":"54d127de","dummyForQuorumStakeTotalsType((uint96[],uint96[]))":"45265b7a","forceCreateNewOpTask(uint32,bytes)":"f5640cf8","forceRespondToOpTask((uint32,uint32,uint32,bytes,uint32,bytes,uint32),(uint32,bytes32,bytes32))":"01a3f013","generator()":"7afa1eed","getCheckSignaturesIndices(address,uint32,bytes,bytes32[])":"4f739f74","getOperatorState(address,bytes,uint32)":"3563b0d1","getOperatorState(address,bytes32,uint32)":"cefdc1d4","getQuorumBitmapsAtBlockNumber(address,bytes32[],uint32)":"5c155662","idToTaskStatus(uint8,uint32)":"bf2315ed","initialize(address,address,address,address,bool,address,uint32,uint32,address)":"2d4713db","lastCompletedOpTaskCreatedBlock()":"537a2929","lastCompletedOpTaskNum()":"8fc8729a","lastCompletedOpTaskQuorumNumbers()":"2830e8f9","lastCompletedOpTaskQuorumThresholdPercentage()":"e70c2623","lastOpTaskCreatedBlock()":"4d7a7116","latestOpTaskNum()":"41789d57","latestPendingStateHash()":"4ae6b203","latestRdTaskNum()":"7afdd54b","minOpTaskResponseWindowBlock()":"c987de8e","operatorStateRetrieverExtended()":"8380acbd","operatorsStateInfoHash()":"adfcb048","owner()":"8da5cb5b","pause(uint256)":"136439dd","pauseAll()":"595c6a67","pauseTrackingOpState()":"79badf73","paused()":"5c975abb","paused(uint8)":"5ac86ab7","pauserRegistry()":"886f1195","registryCoordinator()":"6d14a987","renounceOwnership()":"715018a6","respondToOpTask((uint32,uint32,uint32,bytes,uint32,bytes,uint32),(uint32,bytes32,bytes32),(uint32[],(uint256,uint256)[],(uint256,uint256)[],(uint256[2],uint256[2]),(uint256,uint256),uint32[],uint32[],uint32[][]))":"516a7227","respondToRdTask((uint32,uint256,uint32,uint32,bytes,uint32),(uint32,bytes32,bytes32,bytes32,bytes32),(uint32[],(uint256,uint256)[],(uint256,uint256)[],(uint256[2],uint256[2]),(uint256,uint256),uint32[],uint32[],uint32[][]))":"05c6b663","resumeTrackingQuorums(bool)":"191aac7a","setPauserRegistry(address)":"10d67a2f","stakeRegistry()":"68304835","taskResponseWindowBlock()":"a69563a9","transferOwnership(address)":"f2fde38b","unpause(uint256)":"fabc1cbc","updateBlsSignatureCheckerAddress(address)":"723114ab"},"id":118}