{"abi":[{"type":"constructor","inputs":[{"name":"_registryCoordinator","type":"address","internalType":"contract IRegistryCoordinator"},{"name":"_taskResponseWindowBlock","type":"uint32","internalType":"uint32"}],"stateMutability":"nonpayable"},{"type":"function","name":"aggregator","inputs":[],"outputs":[{"name":"","type":"address","internalType":"address"}],"stateMutability":"view"},{"type":"function","name":"allTaskHashes","inputs":[{"name":"","type":"uint32","internalType":"uint32"}],"outputs":[{"name":"","type":"bytes32","internalType":"bytes32"}],"stateMutability":"view"},{"type":"function","name":"allTaskResponses","inputs":[{"name":"","type":"uint32","internalType":"uint32"}],"outputs":[{"name":"","type":"bytes32","internalType":"bytes32"}],"stateMutability":"view"},{"type":"function","name":"blsApkRegistry","inputs":[],"outputs":[{"name":"","type":"address","internalType":"contract IBLSApkRegistry"}],"stateMutability":"view"},{"type":"function","name":"checkSignatures","inputs":[{"name":"msgHash","type":"bytes32","internalType":"bytes32"},{"name":"quorumNumbers","type":"bytes","internalType":"bytes"},{"name":"referenceBlockNumber","type":"uint32","internalType":"uint32"},{"name":"params","type":"tuple","internalType":"struct IBLSSignatureChecker.NonSignerStakesAndSignature","components":[{"name":"nonSignerQuorumBitmapIndices","type":"uint32[]","internalType":"uint32[]"},{"name":"nonSignerPubkeys","type":"tuple[]","internalType":"struct BN254.G1Point[]","components":[{"name":"X","type":"uint256","internalType":"uint256"},{"name":"Y","type":"uint256","internalType":"uint256"}]},{"name":"quorumApks","type":"tuple[]","internalType":"struct BN254.G1Point[]","components":[{"name":"X","type":"uint256","internalType":"uint256"},{"name":"Y","type":"uint256","internalType":"uint256"}]},{"name":"apkG2","type":"tuple","internalType":"struct BN254.G2Point","components":[{"name":"X","type":"uint256[2]","internalType":"uint256[2]"},{"name":"Y","type":"uint256[2]","internalType":"uint256[2]"}]},{"name":"sigma","type":"tuple","internalType":"struct BN254.G1Point","components":[{"name":"X","type":"uint256","internalType":"uint256"},{"name":"Y","type":"uint256","internalType":"uint256"}]},{"name":"quorumApkIndices","type":"uint32[]","internalType":"uint32[]"},{"name":"totalStakeIndices","type":"uint32[]","internalType":"uint32[]"},{"name":"nonSignerStakeIndices","type":"uint32[][]","internalType":"uint32[][]"}]}],"outputs":[{"name":"","type":"tuple","internalType":"struct IBLSSignatureChecker.QuorumStakeTotals","components":[{"name":"signedStakeForQuorum","type":"uint96[]","internalType":"uint96[]"},{"name":"totalStakeForQuorum","type":"uint96[]","internalType":"uint96[]"}]},{"name":"","type":"bytes32","internalType":"bytes32"}],"stateMutability":"view"},{"type":"function","name":"createNewTask","inputs":[{"name":"blockNumber","type":"uint256","internalType":"uint256"},{"name":"quorumThresholdPercentage","type":"uint32","internalType":"uint32"},{"name":"quorumNumbers","type":"bytes","internalType":"bytes"}],"outputs":[],"stateMutability":"nonpayable"},{"type":"function","name":"delegation","inputs":[],"outputs":[{"name":"","type":"address","internalType":"contract IDelegationManager"}],"stateMutability":"view"},{"type":"function","name":"dummyForOperatorStateInfoType","inputs":[{"name":"_operatorStateInfo","type":"tuple","internalType":"struct IFinalizerTaskManager.OperatorStateInfo","components":[{"name":"operatorsStateChanged","type":"bool","internalType":"bool"},{"name":"operatorsStateProvided","type":"bool","internalType":"bool"},{"name":"quorumsRemoved","type":"uint8[]","internalType":"uint8[]"},{"name":"quorumsAdded","type":"tuple[]","internalType":"struct IGaspMultiRollupServicePrimitives.QuorumsAdded[]","components":[{"name":"quorumNumber","type":"uint8","internalType":"uint8"},{"name":"quorumStake","type":"uint96","internalType":"uint96"},{"name":"quorumApk","type":"tuple","internalType":"struct BN254.G1Point","components":[{"name":"X","type":"uint256","internalType":"uint256"},{"name":"Y","type":"uint256","internalType":"uint256"}]}]},{"name":"quorumsStakeUpdate","type":"tuple[]","internalType":"struct IGaspMultiRollupServicePrimitives.QuorumsStakeUpdate[]","components":[{"name":"quorumNumber","type":"uint8","internalType":"uint8"},{"name":"quorumStake","type":"uint96","internalType":"uint96"}]},{"name":"quorumsApkUpdate","type":"tuple[]","internalType":"struct IGaspMultiRollupServicePrimitives.QuorumsApkUpdate[]","components":[{"name":"quorumNumber","type":"uint8","internalType":"uint8"},{"name":"quorumApk","type":"tuple","internalType":"struct BN254.G1Point","components":[{"name":"X","type":"uint256","internalType":"uint256"},{"name":"Y","type":"uint256","internalType":"uint256"}]}]},{"name":"OperatorsRemoved","type":"bytes32[]","internalType":"bytes32[]"},{"name":"operatorsAdded","type":"tuple[]","internalType":"struct IGaspMultiRollupServicePrimitives.OperatorsAdded[]","components":[{"name":"operatorId","type":"bytes32","internalType":"bytes32"},{"name":"quorumForStakes","type":"uint8[]","internalType":"uint8[]"},{"name":"quorumStakes","type":"uint96[]","internalType":"uint96[]"},{"name":"quorumCount","type":"uint8","internalType":"uint8"}]},{"name":"operatorsStakeUpdate","type":"tuple[]","internalType":"struct IGaspMultiRollupServicePrimitives.OperatorsStakeUpdate[]","components":[{"name":"operatorId","type":"bytes32","internalType":"bytes32"},{"name":"quorumForStakes","type":"uint8[]","internalType":"uint8[]"},{"name":"quorumStakes","type":"uint96[]","internalType":"uint96[]"}]},{"name":"operatorsQuorumCountUpdate","type":"tuple[]","internalType":"struct IGaspMultiRollupServicePrimitives.OperatorsQuorumCountUpdate[]","components":[{"name":"operatorId","type":"bytes32","internalType":"bytes32"},{"name":"quorumCount","type":"uint8","internalType":"uint8"}]}]}],"outputs":[],"stateMutability":"view"},{"type":"function","name":"generator","inputs":[],"outputs":[{"name":"","type":"address","internalType":"address"}],"stateMutability":"view"},{"type":"function","name":"getCheckSignaturesIndices","inputs":[{"name":"registryCoordinator","type":"address","internalType":"contract IRegistryCoordinator"},{"name":"referenceBlockNumber","type":"uint32","internalType":"uint32"},{"name":"quorumNumbers","type":"bytes","internalType":"bytes"},{"name":"nonSignerOperatorIds","type":"bytes32[]","internalType":"bytes32[]"}],"outputs":[{"name":"","type":"tuple","internalType":"struct OperatorStateRetriever.CheckSignaturesIndices","components":[{"name":"nonSignerQuorumBitmapIndices","type":"uint32[]","internalType":"uint32[]"},{"name":"quorumApkIndices","type":"uint32[]","internalType":"uint32[]"},{"name":"totalStakeIndices","type":"uint32[]","internalType":"uint32[]"},{"name":"nonSignerStakeIndices","type":"uint32[][]","internalType":"uint32[][]"}]}],"stateMutability":"view"},{"type":"function","name":"getLatestPendingStateHash","inputs":[],"outputs":[{"name":"","type":"bytes32","internalType":"bytes32"}],"stateMutability":"view"},{"type":"function","name":"getOperatorState","inputs":[{"name":"registryCoordinator","type":"address","internalType":"contract IRegistryCoordinator"},{"name":"quorumNumbers","type":"bytes","internalType":"bytes"},{"name":"blockNumber","type":"uint32","internalType":"uint32"}],"outputs":[{"name":"","type":"tuple[][]","internalType":"struct OperatorStateRetriever.Operator[][]","components":[{"name":"operator","type":"address","internalType":"address"},{"name":"operatorId","type":"bytes32","internalType":"bytes32"},{"name":"stake","type":"uint96","internalType":"uint96"}]}],"stateMutability":"view"},{"type":"function","name":"getOperatorState","inputs":[{"name":"registryCoordinator","type":"address","internalType":"contract IRegistryCoordinator"},{"name":"operatorId","type":"bytes32","internalType":"bytes32"},{"name":"blockNumber","type":"uint32","internalType":"uint32"}],"outputs":[{"name":"","type":"uint256","internalType":"uint256"},{"name":"","type":"tuple[][]","internalType":"struct OperatorStateRetriever.Operator[][]","components":[{"name":"operator","type":"address","internalType":"address"},{"name":"operatorId","type":"bytes32","internalType":"bytes32"},{"name":"stake","type":"uint96","internalType":"uint96"}]}],"stateMutability":"view"},{"type":"function","name":"getQuorumBitmapsAtBlockNumber","inputs":[{"name":"registryCoordinator","type":"address","internalType":"contract IRegistryCoordinator"},{"name":"operatorIds","type":"bytes32[]","internalType":"bytes32[]"},{"name":"blockNumber","type":"uint32","internalType":"uint32"}],"outputs":[{"name":"","type":"uint256[]","internalType":"uint256[]"}],"stateMutability":"view"},{"type":"function","name":"getTaskResponseWindowBlock","inputs":[],"outputs":[{"name":"","type":"uint32","internalType":"uint32"}],"stateMutability":"view"},{"type":"function","name":"indexToTaskStatus","inputs":[{"name":"","type":"uint32","internalType":"uint32"}],"outputs":[{"name":"","type":"uint8","internalType":"enum FinalizerTaskManager.TaskStatus"}],"stateMutability":"view"},{"type":"function","name":"initialize","inputs":[{"name":"_pauserRegistry","type":"address","internalType":"contract IPauserRegistry"},{"name":"initialOwner","type":"address","internalType":"address"},{"name":"_aggregator","type":"address","internalType":"address"},{"name":"_generator","type":"address","internalType":"address"}],"outputs":[],"stateMutability":"nonpayable"},{"type":"function","name":"latestTaskNum","inputs":[],"outputs":[{"name":"","type":"uint32","internalType":"uint32"}],"stateMutability":"view"},{"type":"function","name":"owner","inputs":[],"outputs":[{"name":"","type":"address","internalType":"address"}],"stateMutability":"view"},{"type":"function","name":"pause","inputs":[{"name":"newPausedStatus","type":"uint256","internalType":"uint256"}],"outputs":[],"stateMutability":"nonpayable"},{"type":"function","name":"pauseAll","inputs":[],"outputs":[],"stateMutability":"nonpayable"},{"type":"function","name":"paused","inputs":[{"name":"index","type":"uint8","internalType":"uint8"}],"outputs":[{"name":"","type":"bool","internalType":"bool"}],"stateMutability":"view"},{"type":"function","name":"paused","inputs":[],"outputs":[{"name":"","type":"uint256","internalType":"uint256"}],"stateMutability":"view"},{"type":"function","name":"pauserRegistry","inputs":[],"outputs":[{"name":"","type":"address","internalType":"contract IPauserRegistry"}],"stateMutability":"view"},{"type":"function","name":"registryCoordinator","inputs":[],"outputs":[{"name":"","type":"address","internalType":"contract IRegistryCoordinator"}],"stateMutability":"view"},{"type":"function","name":"renounceOwnership","inputs":[],"outputs":[],"stateMutability":"nonpayable"},{"type":"function","name":"respondToTask","inputs":[{"name":"task","type":"tuple","internalType":"struct IFinalizerTaskManager.Task","components":[{"name":"blockNumber","type":"uint256","internalType":"uint256"},{"name":"taskCreatedBlock","type":"uint32","internalType":"uint32"},{"name":"lastCompletedTaskCreatedBlock","type":"uint32","internalType":"uint32"},{"name":"quorumNumbers","type":"bytes","internalType":"bytes"},{"name":"quorumThresholdPercentage","type":"uint32","internalType":"uint32"},{"name":"lastCompletedTaskQuorumNumbers","type":"bytes","internalType":"bytes"},{"name":"lastCompletedTaskQuorumThresholdPercentage","type":"uint32","internalType":"uint32"}]},{"name":"taskResponse","type":"tuple","internalType":"struct IFinalizerTaskManager.TaskResponse","components":[{"name":"referenceTaskIndex","type":"uint32","internalType":"uint32"},{"name":"referenceTaskHash","type":"bytes32","internalType":"bytes32"},{"name":"operatorsStateInfoHash","type":"bytes32","internalType":"bytes32"},{"name":"blockHash","type":"bytes32","internalType":"bytes32"},{"name":"storageProofHash","type":"bytes32","internalType":"bytes32"},{"name":"pendingStateHash","type":"bytes32","internalType":"bytes32"}]},{"name":"nonSignerStakesAndSignature","type":"tuple","internalType":"struct IBLSSignatureChecker.NonSignerStakesAndSignature","components":[{"name":"nonSignerQuorumBitmapIndices","type":"uint32[]","internalType":"uint32[]"},{"name":"nonSignerPubkeys","type":"tuple[]","internalType":"struct BN254.G1Point[]","components":[{"name":"X","type":"uint256","internalType":"uint256"},{"name":"Y","type":"uint256","internalType":"uint256"}]},{"name":"quorumApks","type":"tuple[]","internalType":"struct BN254.G1Point[]","components":[{"name":"X","type":"uint256","internalType":"uint256"},{"name":"Y","type":"uint256","internalType":"uint256"}]},{"name":"apkG2","type":"tuple","internalType":"struct BN254.G2Point","components":[{"name":"X","type":"uint256[2]","internalType":"uint256[2]"},{"name":"Y","type":"uint256[2]","internalType":"uint256[2]"}]},{"name":"sigma","type":"tuple","internalType":"struct BN254.G1Point","components":[{"name":"X","type":"uint256","internalType":"uint256"},{"name":"Y","type":"uint256","internalType":"uint256"}]},{"name":"quorumApkIndices","type":"uint32[]","internalType":"uint32[]"},{"name":"totalStakeIndices","type":"uint32[]","internalType":"uint32[]"},{"name":"nonSignerStakeIndices","type":"uint32[][]","internalType":"uint32[][]"}]},{"name":"NonSignerStakesAndSignatureForOldState","type":"tuple","internalType":"struct IGaspMultiRollupServicePrimitives.NonSignerStakesAndSignatureForOldState","components":[{"name":"nonSignerPubkeysIndicesforOperatorIdsRemovedForOldState","type":"uint32[]","internalType":"uint32[]"},{"name":"nonSignerPubkeysAddedForOldState","type":"tuple[]","internalType":"struct BN254.G1Point[]","components":[{"name":"X","type":"uint256","internalType":"uint256"},{"name":"Y","type":"uint256","internalType":"uint256"}]},{"name":"apkG2forOldState","type":"tuple","internalType":"struct BN254.G2Point","components":[{"name":"X","type":"uint256[2]","internalType":"uint256[2]"},{"name":"Y","type":"uint256[2]","internalType":"uint256[2]"}]},{"name":"sigmaforOldSate","type":"tuple","internalType":"struct BN254.G1Point","components":[{"name":"X","type":"uint256","internalType":"uint256"},{"name":"Y","type":"uint256","internalType":"uint256"}]}]}],"outputs":[],"stateMutability":"nonpayable"},{"type":"function","name":"setPauserRegistry","inputs":[{"name":"newPauserRegistry","type":"address","internalType":"contract IPauserRegistry"}],"outputs":[],"stateMutability":"nonpayable"},{"type":"function","name":"setStaleStakesForbidden","inputs":[{"name":"value","type":"bool","internalType":"bool"}],"outputs":[],"stateMutability":"nonpayable"},{"type":"function","name":"stakeRegistry","inputs":[],"outputs":[{"name":"","type":"address","internalType":"contract IStakeRegistry"}],"stateMutability":"view"},{"type":"function","name":"staleStakesForbidden","inputs":[],"outputs":[{"name":"","type":"bool","internalType":"bool"}],"stateMutability":"view"},{"type":"function","name":"taskNumber","inputs":[],"outputs":[{"name":"","type":"uint32","internalType":"uint32"}],"stateMutability":"view"},{"type":"function","name":"transferOwnership","inputs":[{"name":"newOwner","type":"address","internalType":"address"}],"outputs":[],"stateMutability":"nonpayable"},{"type":"function","name":"trySignatureAndApkVerification","inputs":[{"name":"msgHash","type":"bytes32","internalType":"bytes32"},{"name":"apk","type":"tuple","internalType":"struct BN254.G1Point","components":[{"name":"X","type":"uint256","internalType":"uint256"},{"name":"Y","type":"uint256","internalType":"uint256"}]},{"name":"apkG2","type":"tuple","internalType":"struct BN254.G2Point","components":[{"name":"X","type":"uint256[2]","internalType":"uint256[2]"},{"name":"Y","type":"uint256[2]","internalType":"uint256[2]"}]},{"name":"sigma","type":"tuple","internalType":"struct BN254.G1Point","components":[{"name":"X","type":"uint256","internalType":"uint256"},{"name":"Y","type":"uint256","internalType":"uint256"}]}],"outputs":[{"name":"pairingSuccessful","type":"bool","internalType":"bool"},{"name":"siganatureIsValid","type":"bool","internalType":"bool"}],"stateMutability":"view"},{"type":"function","name":"unpause","inputs":[{"name":"newPausedStatus","type":"uint256","internalType":"uint256"}],"outputs":[],"stateMutability":"nonpayable"},{"type":"event","name":"Initialized","inputs":[{"name":"version","type":"uint8","indexed":false,"internalType":"uint8"}],"anonymous":false},{"type":"event","name":"NewTaskCreated","inputs":[{"name":"taskIndex","type":"uint32","indexed":true,"internalType":"uint32"},{"name":"task","type":"tuple","indexed":false,"internalType":"struct IFinalizerTaskManager.Task","components":[{"name":"blockNumber","type":"uint256","internalType":"uint256"},{"name":"taskCreatedBlock","type":"uint32","internalType":"uint32"},{"name":"lastCompletedTaskCreatedBlock","type":"uint32","internalType":"uint32"},{"name":"quorumNumbers","type":"bytes","internalType":"bytes"},{"name":"quorumThresholdPercentage","type":"uint32","internalType":"uint32"},{"name":"lastCompletedTaskQuorumNumbers","type":"bytes","internalType":"bytes"},{"name":"lastCompletedTaskQuorumThresholdPercentage","type":"uint32","internalType":"uint32"}]}],"anonymous":false},{"type":"event","name":"OwnershipTransferred","inputs":[{"name":"previousOwner","type":"address","indexed":true,"internalType":"address"},{"name":"newOwner","type":"address","indexed":true,"internalType":"address"}],"anonymous":false},{"type":"event","name":"Paused","inputs":[{"name":"account","type":"address","indexed":true,"internalType":"address"},{"name":"newPausedStatus","type":"uint256","indexed":false,"internalType":"uint256"}],"anonymous":false},{"type":"event","name":"PauserRegistrySet","inputs":[{"name":"pauserRegistry","type":"address","indexed":false,"internalType":"contract IPauserRegistry"},{"name":"newPauserRegistry","type":"address","indexed":false,"internalType":"contract IPauserRegistry"}],"anonymous":false},{"type":"event","name":"StaleStakesForbiddenUpdate","inputs":[{"name":"value","type":"bool","indexed":false,"internalType":"bool"}],"anonymous":false},{"type":"event","name":"TaskCompleted","inputs":[{"name":"taskIndex","type":"uint32","indexed":true,"internalType":"uint32"},{"name":"blockHash","type":"bytes32","indexed":true,"internalType":"bytes32"}],"anonymous":false},{"type":"event","name":"TaskResponded","inputs":[{"name":"taskResponse","type":"tuple","indexed":false,"internalType":"struct IFinalizerTaskManager.TaskResponse","components":[{"name":"referenceTaskIndex","type":"uint32","internalType":"uint32"},{"name":"referenceTaskHash","type":"bytes32","internalType":"bytes32"},{"name":"operatorsStateInfoHash","type":"bytes32","internalType":"bytes32"},{"name":"blockHash","type":"bytes32","internalType":"bytes32"},{"name":"storageProofHash","type":"bytes32","internalType":"bytes32"},{"name":"pendingStateHash","type":"bytes32","internalType":"bytes32"}]},{"name":"taskResponseMetadata","type":"tuple","indexed":false,"internalType":"struct IFinalizerTaskManager.TaskResponseMetadata","components":[{"name":"taskResponsedBlock","type":"uint32","internalType":"uint32"},{"name":"hashOfNonSigners","type":"bytes32","internalType":"bytes32"},{"name":"quroumStakeTotals","type":"uint96[]","internalType":"uint96[]"},{"name":"quroumStakeSigned","type":"uint96[]","internalType":"uint96[]"}]}],"anonymous":false},{"type":"event","name":"Unpaused","inputs":[{"name":"account","type":"address","indexed":true,"internalType":"address"},{"name":"newPausedStatus","type":"uint256","indexed":false,"internalType":"uint256"}],"anonymous":false}],"bytecode":{"object":"0x6101206040523480156200001257600080fd5b5060405162005dd138038062005dd18339810160408190526200003591620001f7565b81806001600160a01b03166080816001600160a01b031681525050806001600160a01b031663683048356040518163ffffffff1660e01b8152600401602060405180830381865afa1580156200008f573d6000803e3d6000fd5b505050506040513d601f19601f82011682018060405250810190620000b591906200023e565b6001600160a01b031660a0816001600160a01b031681525050806001600160a01b0316635df459466040518163ffffffff1660e01b8152600401602060405180830381865afa1580156200010d573d6000803e3d6000fd5b505050506040513d601f19601f820116820180604052508101906200013391906200023e565b6001600160a01b031660c0816001600160a01b03168152505060a0516001600160a01b031663df5cf7236040518163ffffffff1660e01b8152600401602060405180830381865afa1580156200018d573d6000803e3d6000fd5b505050506040513d601f19601f82011682018060405250810190620001b391906200023e565b6001600160a01b031660e052506097805460ff1916600117905563ffffffff16610100525062000265565b6001600160a01b0381168114620001f457600080fd5b50565b600080604083850312156200020b57600080fd5b82516200021881620001de565b602084015190925063ffffffff811681146200023357600080fd5b809150509250929050565b6000602082840312156200025157600080fd5b81516200025e81620001de565b9392505050565b60805160a05160c05160e05161010051615ae8620002e96000396000818161056a015261322a01526000818161053301526123250152600081816103ad01526125080152600081816103d4015281816126de01526128a001526000818161040e01528181610de101528181611ff00152818161218801526123c20152615ae86000f3fe608060405234801561001057600080fd5b50600436106102115760003560e01c80636d14a98711610125578063b98d0908116100ad578063f2fde38b1161007c578063f2fde38b14610555578063f5c9899d14610568578063f8c8765e1461058e578063fabc1cbc146105a1578063ff5ca919146105b457600080fd5b8063b98d0908146104ef578063c3af8313146104fc578063cefdc1d41461050d578063df5cf7231461052e57600080fd5b80637afa1eed116100f45780637afa1eed14610478578063886f11951461048b5780638b00ce7c1461049e5780638da5cb5b146104ae57806399dba0c4146104bf57600080fd5b80636d14a987146104095780636efb463614610430578063715018a61461045157806372d18e8d1461045957600080fd5b8063416c7e5e116101a85780635c155662116101775780635c155662146103805780635c975abb146103a05780635df45946146103a857806368304835146103cf5780636b92787e146103f657600080fd5b8063416c7e5e146103125780634f739f7414610325578063595c6a67146103455780635ac86ab71461034d57600080fd5b8063245a7bfc116101e4578063245a7bfc1461027f5780632cb223d5146102b25780632d89f6fc146102d25780633563b0d1146102f257600080fd5b80630373408d1461021657806310d67a2f1461022d578063136439dd14610242578063171f1d5b14610255575b600080fd5b60d1545b6040519081526020015b60405180910390f35b61024061023b3660046143d9565b6105c7565b005b6102406102503660046143f6565b610680565b610268610263366004614574565b6107bf565b604080519215158352901515602083015201610224565b60cf5461029a9064010000000090046001600160a01b031681565b6040516001600160a01b039091168152602001610224565b61021a6102c03660046145e2565b60cb6020526000908152604090205481565b61021a6102e03660046145e2565b60ca6020526000908152604090205481565b6103056103003660046145ff565b610949565b604051610224919061475a565b610240610320366004614782565b610ddf565b6103386103333660046147e7565b610f54565b60405161022491906148eb565b61024061167a565b61037061035b3660046149b5565b606654600160ff9092169190911b9081161490565b6040519015158152602001610224565b61039361038e3660046149f5565b611741565b6040516102249190614aa6565b60665461021a565b61029a7f000000000000000000000000000000000000000000000000000000000000000081565b61029a7f000000000000000000000000000000000000000000000000000000000000000081565b610240610404366004614aea565b611909565b61029a7f000000000000000000000000000000000000000000000000000000000000000081565b61044361043e366004614dc1565b611c3d565b604051610224929190614e81565b610240612b55565b60c95463ffffffff165b60405163ffffffff9091168152602001610224565b60d05461029a906001600160a01b031681565b60655461029a906001600160a01b031681565b60c9546104639063ffffffff1681565b6033546001600160a01b031661029a565b6104e26104cd3660046145e2565b60cc6020526000908152604090205460ff1681565b6040516102249190614ee0565b6097546103709060ff1681565b61024061050a366004614f08565b50565b61052061051b366004614f43565b612b69565b604051610224929190614f85565b61029a7f000000000000000000000000000000000000000000000000000000000000000081565b6102406105633660046143d9565b612cfb565b7f0000000000000000000000000000000000000000000000000000000000000000610463565b61024061059c366004614fa6565b612d71565b6102406105af3660046143f6565b612ed7565b6102406105c2366004615002565b613033565b606560009054906101000a90046001600160a01b03166001600160a01b031663eab66d7a6040518163ffffffff1660e01b8152600401602060405180830381865afa15801561061a573d6000803e3d6000fd5b505050506040513d601f19601f8201168201806040525081019061063e9190615141565b6001600160a01b0316336001600160a01b0316146106775760405162461bcd60e51b815260040161066e9061515e565b60405180910390fd5b61050a81613565565b60655460405163237dfb4760e11b81523360048201526001600160a01b03909116906346fbf68e90602401602060405180830381865afa1580156106c8573d6000803e3d6000fd5b505050506040513d601f19601f820116820180604052508101906106ec91906151a8565b6107085760405162461bcd60e51b815260040161066e906151c5565b606654818116146107815760405162461bcd60e51b815260206004820152603860248201527f5061757361626c652e70617573653a20696e76616c696420617474656d70742060448201527f746f20756e70617573652066756e6374696f6e616c6974790000000000000000606482015260840161066e565b606681905560405181815233907fab40a374bc51de372200a8bc981af8c9ecdc08dfdaef0bb6e09f88f3c616ef3d906020015b60405180910390a250565b60008060007f30644e72e131a029b85045b68181585d2833e84879b9709143e1f593f0000001878760000151886020015188600001516000600281106108075761080761520d565b60200201518951600160200201518a6020015160006002811061082c5761082c61520d565b60200201518b602001516001600281106108485761084861520d565b602090810291909101518c518d8301516040516108a59a99989796959401988952602089019790975260408801959095526060870193909352608086019190915260a085015260c084015260e08301526101008201526101200190565b6040516020818303038152906040528051906020012060001c6108c89190615223565b905061093b6108e16108da888461365c565b86906136f3565b6108e9613787565b6109316109228561091c604080518082018252600080825260209182015281518083019092526001825260029082015290565b9061365c565b61092b8c613847565b906136f3565b886201d4c06138d7565b909890975095505050505050565b60606000846001600160a01b031663683048356040518163ffffffff1660e01b8152600401602060405180830381865afa15801561098b573d6000803e3d6000fd5b505050506040513d601f19601f820116820180604052508101906109af9190615141565b90506000856001600160a01b0316639e9923c26040518163ffffffff1660e01b8152600401602060405180830381865afa1580156109f1573d6000803e3d6000fd5b505050506040513d601f19601f82011682018060405250810190610a159190615141565b90506000866001600160a01b0316635df459466040518163ffffffff1660e01b8152600401602060405180830381865afa158015610a57573d6000803e3d6000fd5b505050506040513d601f19601f82011682018060405250810190610a7b9190615141565b9050600086516001600160401b03811115610a9857610a9861440f565b604051908082528060200260200182016040528015610acb57816020015b6060815260200190600190039081610ab65790505b50905060005b8751811015610dd3576000888281518110610aee57610aee61520d565b0160200151604051638902624560e01b815260f89190911c6004820181905263ffffffff8a16602483015291506000906001600160a01b03871690638902624590604401600060405180830381865afa158015610b4f573d6000803e3d6000fd5b505050506040513d6000823e601f3d908101601f19168201604052610b779190810190615245565b905080516001600160401b03811115610b9257610b9261440f565b604051908082528060200260200182016040528015610bdd57816020015b6040805160608101825260008082526020808301829052928201528252600019909201910181610bb05790505b50848481518110610bf057610bf061520d565b602002602001018190525060005b8151811015610dbd576040518060600160405280876001600160a01b03166347b314e8858581518110610c3357610c3361520d565b60200260200101516040518263ffffffff1660e01b8152600401610c5991815260200190565b602060405180830381865afa158015610c76573d6000803e3d6000fd5b505050506040513d601f19601f82011682018060405250810190610c9a9190615141565b6001600160a01b03168152602001838381518110610cba57610cba61520d565b60200260200101518152602001896001600160a01b031663fa28c627858581518110610ce857610ce861520d565b60209081029190910101516040516001600160e01b031960e084901b168152600481019190915260ff8816602482015263ffffffff8f166044820152606401602060405180830381865afa158015610d44573d6000803e3d6000fd5b505050506040513d601f19601f82011682018060405250810190610d6891906152d5565b6001600160601b0316815250858581518110610d8657610d8661520d565b60200260200101518281518110610d9f57610d9f61520d565b60200260200101819052508080610db590615314565b915050610bfe565b5050508080610dcb90615314565b915050610ad1565b50979650505050505050565b7f00000000000000000000000000000000000000000000000000000000000000006001600160a01b0316638da5cb5b6040518163ffffffff1660e01b8152600401602060405180830381865afa158015610e3d573d6000803e3d6000fd5b505050506040513d601f19601f82011682018060405250810190610e619190615141565b6001600160a01b0316336001600160a01b031614610f0d5760405162461bcd60e51b815260206004820152605c60248201527f424c535369676e6174757265436865636b65722e6f6e6c79436f6f7264696e6160448201527f746f724f776e65723a2063616c6c6572206973206e6f7420746865206f776e6560648201527f72206f6620746865207265676973747279436f6f7264696e61746f7200000000608482015260a40161066e565b6097805460ff19168215159081179091556040519081527f40e4ed880a29e0f6ddce307457fb75cddf4feef7d3ecb0301bfdf4976a0e2dfc9060200160405180910390a150565b610f7f6040518060800160405280606081526020016060815260200160608152602001606081525090565b6000876001600160a01b031663683048356040518163ffffffff1660e01b8152600401602060405180830381865afa158015610fbf573d6000803e3d6000fd5b505050506040513d601f19601f82011682018060405250810190610fe39190615141565b90506110106040518060800160405280606081526020016060815260200160608152602001606081525090565b6040516361c8a12f60e11b81526001600160a01b038a169063c391425e90611040908b908990899060040161532f565b600060405180830381865afa15801561105d573d6000803e3d6000fd5b505050506040513d6000823e601f3d908101601f191682016040526110859190810190615379565b81526040516340e03a8160e11b81526001600160a01b038316906381c07502906110b7908b908b908b90600401615430565b600060405180830381865afa1580156110d4573d6000803e3d6000fd5b505050506040513d6000823e601f3d908101601f191682016040526110fc9190810190615379565b6040820152856001600160401b038111156111195761111961440f565b60405190808252806020026020018201604052801561114c57816020015b60608152602001906001900390816111375790505b50606082015260005b60ff811687111561158b576000856001600160401b0381111561117a5761117a61440f565b6040519080825280602002602001820160405280156111a3578160200160208202803683370190505b5083606001518360ff16815181106111bd576111bd61520d565b602002602001018190525060005b8681101561148b5760008c6001600160a01b03166304ec63518a8a858181106111f6576111f661520d565b905060200201358e886000015186815181106112145761121461520d565b60200260200101516040518463ffffffff1660e01b81526004016112519392919092835263ffffffff918216602084015216604082015260600190565b602060405180830381865afa15801561126e573d6000803e3d6000fd5b505050506040513d601f19601f820116820180604052508101906112929190615459565b90506001600160c01b0381166113365760405162461bcd60e51b815260206004820152605c60248201527f4f70657261746f7253746174655265747269657665722e676574436865636b5360448201527f69676e617475726573496e64696365733a206f70657261746f72206d7573742060648201527f6265207265676973746572656420617420626c6f636b6e756d62657200000000608482015260a40161066e565b8a8a8560ff1681811061134b5761134b61520d565b6001600160c01b03841692013560f81c9190911c60019081161415905061147857856001600160a01b031663dd9846b98a8a8581811061138d5761138d61520d565b905060200201358d8d8860ff168181106113a9576113a961520d565b6040516001600160e01b031960e087901b1681526004810194909452919091013560f81c60248301525063ffffffff8f166044820152606401602060405180830381865afa1580156113ff573d6000803e3d6000fd5b505050506040513d601f19601f820116820180604052508101906114239190615482565b85606001518560ff168151811061143c5761143c61520d565b602002602001015184815181106114555761145561520d565b63ffffffff909216602092830291909101909101528261147481615314565b9350505b508061148381615314565b9150506111cb565b506000816001600160401b038111156114a6576114a661440f565b6040519080825280602002602001820160405280156114cf578160200160208202803683370190505b50905060005b828110156115505784606001518460ff16815181106114f6576114f661520d565b6020026020010151818151811061150f5761150f61520d565b60200260200101518282815181106115295761152961520d565b63ffffffff909216602092830291909101909101528061154881615314565b9150506114d5565b508084606001518460ff168151811061156b5761156b61520d565b6020026020010181905250505080806115839061549f565b915050611155565b506000896001600160a01b0316635df459466040518163ffffffff1660e01b8152600401602060405180830381865afa1580156115cc573d6000803e3d6000fd5b505050506040513d601f19601f820116820180604052508101906115f09190615141565b60405163354952a360e21b81529091506001600160a01b0382169063d5254a8c90611623908b908b908e906004016154bf565b600060405180830381865afa158015611640573d6000803e3d6000fd5b505050506040513d6000823e601f3d908101601f191682016040526116689190810190615379565b60208301525098975050505050505050565b60655460405163237dfb4760e11b81523360048201526001600160a01b03909116906346fbf68e90602401602060405180830381865afa1580156116c2573d6000803e3d6000fd5b505050506040513d601f19601f820116820180604052508101906116e691906151a8565b6117025760405162461bcd60e51b815260040161066e906151c5565b600019606681905560405190815233907fab40a374bc51de372200a8bc981af8c9ecdc08dfdaef0bb6e09f88f3c616ef3d9060200160405180910390a2565b60606000846001600160a01b031663c391425e84866040518363ffffffff1660e01b81526004016117739291906154e9565b600060405180830381865afa158015611790573d6000803e3d6000fd5b505050506040513d6000823e601f3d908101601f191682016040526117b89190810190615379565b9050600084516001600160401b038111156117d5576117d561440f565b6040519080825280602002602001820160405280156117fe578160200160208202803683370190505b50905060005b85518110156118ff57866001600160a01b03166304ec635187838151811061182e5761182e61520d565b6020026020010151878685815181106118495761184961520d565b60200260200101516040518463ffffffff1660e01b81526004016118869392919092835263ffffffff918216602084015216604082015260600190565b602060405180830381865afa1580156118a3573d6000803e3d6000fd5b505050506040513d601f19601f820116820180604052508101906118c79190615459565b6001600160c01b03168282815181106118e2576118e261520d565b6020908102919091010152806118f781615314565b915050611804565b5095945050505050565b60d0546001600160a01b0316331461194b5760405162461bcd60e51b8152602060048201526005602482015264417574683160d81b604482015260640161066e565b60cd5463ffffffff16431480159061196257504315155b6119d45760405162461bcd60e51b815260206004820152603960248201527f43616e2774206372656174652061207461736b20696e207468652073616d652060448201527f626c6f636b206173206120636f6d706c65746564207461736b00000000000000606482015260840161066e565b6040805160e0810182526000818301819052606080830181905260a083015260c082015285815263ffffffff43811660208084019190915290861660808301528251601f85018290048202810182019093528383529091908490849081908401838280828437600092019190915250505050606082015260cd5463ffffffff16604082015260ce8054611a669061553d565b80601f0160208091040260200160405190810160405280929190818152602001828054611a929061553d565b8015611adf5780601f10611ab457610100808354040283529160200191611adf565b820191906000526020600020905b815481529060010190602001808311611ac257829003601f168201915b505050505060a082015260cf5463ffffffff90811660c083015260c9541615611b715760c954600090611b1a9060019063ffffffff16615578565b9050600163ffffffff8216600090815260cc602052604090205460ff166003811115611b4857611b48614eca565b1415611b6f5763ffffffff8116600090815260cc60205260409020805460ff191660021790555b505b80604051602001611b8291906155ea565b60408051808303601f19018152828252805160209182012060c9805463ffffffff908116600090815260ca85528581209390935581548116835260cc909352929020805460ff19166001179055905416907f933fbdf390ba7173f9bf83f5459edf1ae41ae5edbde6c8f9b374d979d30900be90611c009084906155ea565b60405180910390a260c954611c1c9063ffffffff16600161567d565b60c9805463ffffffff191663ffffffff929092169190911790555050505050565b6040805180820190915260608082526020820152600084611cb45760405162461bcd60e51b81526020600482015260376024820152600080516020615a9383398151915260448201527f7265733a20656d7074792071756f72756d20696e707574000000000000000000606482015260840161066e565b60408301515185148015611ccc575060a08301515185145b8015611cdc575060c08301515185145b8015611cec575060e08301515185145b611d565760405162461bcd60e51b81526020600482015260416024820152600080516020615a9383398151915260448201527f7265733a20696e7075742071756f72756d206c656e677468206d69736d6174636064820152600d60fb1b608482015260a40161066e565b82515160208401515114611dce5760405162461bcd60e51b815260206004820152604460248201819052600080516020615a93833981519152908201527f7265733a20696e707574206e6f6e7369676e6572206c656e677468206d69736d6064820152630c2e8c6d60e31b608482015260a40161066e565b4363ffffffff168463ffffffff1610611e3d5760405162461bcd60e51b815260206004820152603c6024820152600080516020615a9383398151915260448201527f7265733a20696e76616c6964207265666572656e636520626c6f636b00000000606482015260840161066e565b6040805180820182526000808252602080830191909152825180840190935260608084529083015290866001600160401b03811115611e7e57611e7e61440f565b604051908082528060200260200182016040528015611ea7578160200160208202803683370190505b506020820152866001600160401b03811115611ec557611ec561440f565b604051908082528060200260200182016040528015611eee578160200160208202803683370190505b50815260408051808201909152606080825260208201528560200151516001600160401b03811115611f2257611f2261440f565b604051908082528060200260200182016040528015611f4b578160200160208202803683370190505b5081526020860151516001600160401b03811115611f6b57611f6b61440f565b604051908082528060200260200182016040528015611f94578160200160208202803683370190505b50816020018190525060006120668a8a8080601f0160208091040260200160405190810160405280939291908181526020018383808284376000920191909152505060408051639aa1653d60e01b815290516001600160a01b037f0000000000000000000000000000000000000000000000000000000000000000169350639aa1653d925060048083019260209291908290030181865afa15801561203d573d6000803e3d6000fd5b505050506040513d601f19601f8201168201806040525081019061206191906156a5565b613afb565b905060005b876020015151811015612301576120b0886020015182815181106120915761209161520d565b6020026020010151805160009081526020918201519091526040902090565b836020015182815181106120c6576120c661520d565b602090810291909101015280156121865760208301516120e76001836156c2565b815181106120f7576120f761520d565b602002602001015160001c836020015182815181106121185761211861520d565b602002602001015160001c11612186576040805162461bcd60e51b8152602060048201526024810191909152600080516020615a9383398151915260448201527f7265733a206e6f6e5369676e65725075626b657973206e6f7420736f72746564606482015260840161066e565b7f00000000000000000000000000000000000000000000000000000000000000006001600160a01b03166304ec6351846020015183815181106121cb576121cb61520d565b60200260200101518b8b6000015185815181106121ea576121ea61520d565b60200260200101516040518463ffffffff1660e01b81526004016122279392919092835263ffffffff918216602084015216604082015260600190565b602060405180830381865afa158015612244573d6000803e3d6000fd5b505050506040513d601f19601f820116820180604052508101906122689190615459565b6001600160c01b0316836000015182815181106122875761228761520d565b6020026020010181815250506122ed6108da6122c184866000015185815181106122b3576122b361520d565b602002602001015116613b8e565b8a6020015184815181106122d7576122d761520d565b6020026020010151613bb990919063ffffffff16565b9450806122f981615314565b91505061206b565b505061230c83613c9d565b60975490935060ff166000816123235760006123a5565b7f00000000000000000000000000000000000000000000000000000000000000006001600160a01b031663c448feb86040518163ffffffff1660e01b8152600401602060405180830381865afa158015612381573d6000803e3d6000fd5b505050506040513d601f19601f820116820180604052508101906123a591906156d9565b905060005b8a811015612a24578215612506578963ffffffff16827f00000000000000000000000000000000000000000000000000000000000000006001600160a01b031663249a0c428f8f868181106124015761240161520d565b60405160e085901b6001600160e01b031916815292013560f81c600483015250602401602060405180830381865afa158015612441573d6000803e3d6000fd5b505050506040513d601f19601f8201168201806040525081019061246591906156d9565b61246f91906156f2565b10156125065760405162461bcd60e51b81526020600482015260666024820152600080516020615a9383398151915260448201527f7265733a205374616b6552656769737472792075706461746573206d7573742060648201527f62652077697468696e207769746864726177616c44656c6179426c6f636b732060848201526577696e646f7760d01b60a482015260c40161066e565b7f00000000000000000000000000000000000000000000000000000000000000006001600160a01b03166368bccaac8d8d848181106125475761254761520d565b9050013560f81c60f81b60f81c8c8c60a00151858151811061256b5761256b61520d565b60209081029190910101516040516001600160e01b031960e086901b16815260ff909316600484015263ffffffff9182166024840152166044820152606401602060405180830381865afa1580156125c7573d6000803e3d6000fd5b505050506040513d601f19601f820116820180604052508101906125eb919061570a565b6001600160401b03191661260e8a6040015183815181106120915761209161520d565b67ffffffffffffffff1916146126aa5760405162461bcd60e51b81526020600482015260616024820152600080516020615a9383398151915260448201527f7265733a2071756f72756d41706b206861736820696e2073746f72616765206460648201527f6f6573206e6f74206d617463682070726f76696465642071756f72756d2061706084820152606b60f81b60a482015260c40161066e565b6126da896040015182815181106126c3576126c361520d565b6020026020010151876136f390919063ffffffff16565b95507f00000000000000000000000000000000000000000000000000000000000000006001600160a01b031663c8294c568d8d8481811061271d5761271d61520d565b9050013560f81c60f81b60f81c8c8c60c0015185815181106127415761274161520d565b60209081029190910101516040516001600160e01b031960e086901b16815260ff909316600484015263ffffffff9182166024840152166044820152606401602060405180830381865afa15801561279d573d6000803e3d6000fd5b505050506040513d601f19601f820116820180604052508101906127c191906152d5565b856020015182815181106127d7576127d761520d565b6001600160601b039092166020928302919091018201528501518051829081106128035761280361520d565b6020026020010151856000015182815181106128215761282161520d565b60200260200101906001600160601b031690816001600160601b0316815250506000805b8a6020015151811015612a0f576128998660000151828151811061286b5761286b61520d565b60200260200101518f8f868181106128855761288561520d565b600192013560f81c9290921c811614919050565b156129fd577f00000000000000000000000000000000000000000000000000000000000000006001600160a01b031663f2be94ae8f8f868181106128df576128df61520d565b9050013560f81c60f81b60f81c8e896020015185815181106129035761290361520d565b60200260200101518f60e0015188815181106129215761292161520d565b6020026020010151878151811061293a5761293a61520d565b60209081029190910101516040516001600160e01b031960e087901b16815260ff909416600485015263ffffffff92831660248501526044840191909152166064820152608401602060405180830381865afa15801561299e573d6000803e3d6000fd5b505050506040513d601f19601f820116820180604052508101906129c291906152d5565b87518051859081106129d6576129d661520d565b602002602001018181516129ea9190615735565b6001600160601b03169052506001909101905b80612a0781615314565b915050612845565b50508080612a1c90615314565b9150506123aa565b505050600080612a3e8c868a606001518b608001516107bf565b9150915081612aaf5760405162461bcd60e51b81526020600482015260436024820152600080516020615a9383398151915260448201527f7265733a2070616972696e6720707265636f6d70696c652063616c6c206661696064820152621b195960ea1b608482015260a40161066e565b80612b105760405162461bcd60e51b81526020600482015260396024820152600080516020615a9383398151915260448201527f7265733a207369676e617475726520697320696e76616c696400000000000000606482015260840161066e565b50506000878260200151604051602001612b2b929190615755565b60408051808303601f190181529190528051602090910120929b929a509198505050505050505050565b612b5d613d38565b612b676000613d92565b565b6040805160018082528183019092526000916060918391602080830190803683370190505090508481600081518110612ba457612ba461520d565b60209081029190910101526040516361c8a12f60e11b81526000906001600160a01b0388169063c391425e90612be090889086906004016154e9565b600060405180830381865afa158015612bfd573d6000803e3d6000fd5b505050506040513d6000823e601f3d908101601f19168201604052612c259190810190615379565b600081518110612c3757612c3761520d565b60209081029190910101516040516304ec635160e01b81526004810188905263ffffffff87811660248301529091166044820181905291506000906001600160a01b038916906304ec635190606401602060405180830381865afa158015612ca3573d6000803e3d6000fd5b505050506040513d601f19601f82011682018060405250810190612cc79190615459565b6001600160c01b031690506000612cdd82613de4565b905081612ceb8a838a610949565b9550955050505050935093915050565b612d03613d38565b6001600160a01b038116612d685760405162461bcd60e51b815260206004820152602660248201527f4f776e61626c653a206e6577206f776e657220697320746865207a65726f206160448201526564647265737360d01b606482015260840161066e565b61050a81613d92565b600054610100900460ff1615808015612d915750600054600160ff909116105b80612dab5750303b158015612dab575060005460ff166001145b612e0e5760405162461bcd60e51b815260206004820152602e60248201527f496e697469616c697a61626c653a20636f6e747261637420697320616c72656160448201526d191e481a5b9a5d1a585b1a5e995960921b606482015260840161066e565b6000805460ff191660011790558015612e31576000805461ff0019166101001790555b612e3c856000613eb0565b612e4584613d92565b60cf8054640100000000600160c01b0319166401000000006001600160a01b03868116919091029190911790915560d080546001600160a01b0319169184169190911790558015612ed0576000805461ff0019169055604051600181527f7f26b83ff96e1f2b6a682f133852f6798a09c465da95921460cefb38474024989060200160405180910390a15b5050505050565b606560009054906101000a90046001600160a01b03166001600160a01b031663eab66d7a6040518163ffffffff1660e01b8152600401602060405180830381865afa158015612f2a573d6000803e3d6000fd5b505050506040513d601f19601f82011682018060405250810190612f4e9190615141565b6001600160a01b0316336001600160a01b031614612f7e5760405162461bcd60e51b815260040161066e9061515e565b606654198119606654191614612ffc5760405162461bcd60e51b815260206004820152603860248201527f5061757361626c652e756e70617573653a20696e76616c696420617474656d7060448201527f7420746f2070617573652066756e6374696f6e616c6974790000000000000000606482015260840161066e565b606681905560405181815233907f3582d1828e26bf56bd801502bc021ac0bc8afb57c826e4986b45593c8fad389c906020016107b4565b60cf5464010000000090046001600160a01b0316331461307d5760405162461bcd60e51b8152602060048201526005602482015264041757468360dc1b604482015260640161066e565b600061308f60408601602087016145e2565b90503660006130a1606088018861579d565b909250905060006130b860a0890160808a016145e2565b905060ca60006130cb60208a018a6145e2565b63ffffffff1663ffffffff16815260200190815260200160002054886040516020016130f79190615828565b60405160208183030381529060405280519060200120146131805760405162461bcd60e51b815260206004820152603d60248201527f737570706c696564207461736b20646f6573206e6f74206d617463682074686560448201527f206f6e65207265636f7264656420696e2074686520636f6e7472616374000000606482015260840161066e565b600160cc600061319360208b018b6145e2565b63ffffffff16815260208101919091526040016000205460ff1660038111156131be576131be614eca565b146131db5760405162461bcd60e51b815260040161066e906158ef565b600060cb816131ed60208b018b6145e2565b63ffffffff1663ffffffff16815260200190815260200160002054146132255760405162461bcd60e51b815260040161066e906158ef565b61324f7f00000000000000000000000000000000000000000000000000000000000000008561567d565b63ffffffff164363ffffffff1611156132c05760405162461bcd60e51b815260206004820152602d60248201527f41676772656761746f722068617320726573706f6e64656420746f207468652060448201526c7461736b20746f6f206c61746560981b606482015260840161066e565b6000876040516020016132d39190615986565b6040516020818303038152906040528051906020012090506000806132fb8387878a8d611c3d565b6040805160808101825263ffffffff4316815260208082018490528085015182840152845160608301529151939550919350909161333d918d91849101615994565b6040516020818303038152906040528051906020012060cb60008d600001602081019061336a91906145e2565b63ffffffff1663ffffffff168152602001908152602001600020819055507ff986623b08031c29efcbf1098118412d9c71ef7d32f63c701988d6bba251ce668b826040516133b9929190615994565b60405180910390a160005b8681101561345a578560ff16846020015182815181106133e6576133e661520d565b60200260200101516133f89190615a02565b6001600160601b03166064856000015183815181106134195761341961520d565b60200260200101516001600160601b03166134349190615a31565b10156134485750505050505050505061355f565b8061345281615314565b9150506133c4565b5060a08b013560d155600360cc600061347660208f018f6145e2565b63ffffffff16815260208101919091526040016000205460ff1660038111156134a1576134a1614eca565b506134b4905060408d0160208e016145e2565b60cd805463ffffffff191663ffffffff929092169190911790556134db60608d018d61579d565b6134e79160ce91614251565b506134f860a08d0160808e016145e2565b60cf805463ffffffff191663ffffffff9290921691909117905560608b013561352460208d018d6145e2565b63ffffffff167f8378be8a33cf3a493910a16e275cd96af4f048c5eb1a2c2962d4066e697fea8060405160405180910390a350505050505050505b50505050565b6001600160a01b0381166135f35760405162461bcd60e51b815260206004820152604960248201527f5061757361626c652e5f73657450617573657252656769737472793a206e657760448201527f50617573657252656769737472792063616e6e6f7420626520746865207a65726064820152686f206164647265737360b81b608482015260a40161066e565b606554604080516001600160a01b03928316815291831660208301527f6e9fcd539896fca60e8b0f01dd580233e48a6b0f7df013b89ba7f565869acdb6910160405180910390a1606580546001600160a01b0319166001600160a01b0392909216919091179055565b60408051808201909152600080825260208201526136786142d5565b835181526020808501519082015260408082018490526000908360608460076107d05a03fa90508080156136ab576136ad565bfe5b50806136eb5760405162461bcd60e51b815260206004820152600d60248201526c1958cb5b5d5b0b59985a5b1959609a1b604482015260640161066e565b505092915050565b604080518082019091526000808252602082015261370f6142f3565b835181526020808501518183015283516040808401919091529084015160608301526000908360808460066107d05a03fa90508080156136ab5750806136eb5760405162461bcd60e51b815260206004820152600d60248201526c1958cb5859190b59985a5b1959609a1b604482015260640161066e565b61378f614311565b50604080516080810182527f198e9393920d483a7260bfb731fb5d25f1aa493335a9e71297e485b7aef312c28183019081527f1800deef121f1e76426a00665e5c4479674322d4f75edadd46debd5cd992f6ed6060830152815281518083019092527f275dc4a288d1afb3cbb1ac09187524c7db36395df7be3b99e673b13a075a65ec82527f1d9befcd05a5323e6da4d435f3b617cdb3af83285c2df711ef39c01571827f9d60208381019190915281019190915290565b604080518082019091526000808252602082015260008080613877600080516020615a7383398151915286615223565b90505b61388381613f9a565b9093509150600080516020615a738339815191528283098314156138bd576040805180820190915290815260208101919091529392505050565b600080516020615a7383398151915260018208905061387a565b604080518082018252868152602080820186905282518084019093528683528201849052600091829190613909614336565b60005b6002811015613ace576000613922826006615a31565b90508482600281106139365761393661520d565b602002015151836139488360006156f2565b600c81106139585761395861520d565b602002015284826002811061396f5761396f61520d565b6020020151602001518382600161398691906156f2565b600c81106139965761399661520d565b60200201528382600281106139ad576139ad61520d565b60200201515151836139c08360026156f2565b600c81106139d0576139d061520d565b60200201528382600281106139e7576139e761520d565b6020020151516001602002015183613a008360036156f2565b600c8110613a1057613a1061520d565b6020020152838260028110613a2757613a2761520d565b602002015160200151600060028110613a4257613a4261520d565b602002015183613a538360046156f2565b600c8110613a6357613a6361520d565b6020020152838260028110613a7a57613a7a61520d565b602002015160200151600160028110613a9557613a9561520d565b602002015183613aa68360056156f2565b600c8110613ab657613ab661520d565b60200201525080613ac681615314565b91505061390c565b50613ad7614355565b60006020826101808560088cfa9151919c9115159b50909950505050505050505050565b600080613b078461401c565b9050808360ff166001901b11613b855760405162461bcd60e51b815260206004820152603f60248201527f4269746d61705574696c732e6f72646572656442797465734172726179546f4260448201527f69746d61703a206269746d61702065786365656473206d61782076616c756500606482015260840161066e565b90505b92915050565b6000805b8215613b8857613ba36001846156c2565b9092169180613bb181615a50565b915050613b92565b60408051808201909152600080825260208201526102008261ffff1610613c155760405162461bcd60e51b815260206004820152601060248201526f7363616c61722d746f6f2d6c6172676560801b604482015260640161066e565b8161ffff1660011415613c29575081613b88565b6040805180820190915260008082526020820181905284906001905b8161ffff168661ffff1610613c9257600161ffff871660ff83161c81161415613c7557613c7284846136f3565b93505b613c7f83846136f3565b92506201fffe600192831b169101613c45565b509195945050505050565b60408051808201909152600080825260208201528151158015613cc257506020820151155b15613ce0575050604080518082019091526000808252602082015290565b604051806040016040528083600001518152602001600080516020615a738339815191528460200151613d139190615223565b613d2b90600080516020615a738339815191526156c2565b905292915050565b919050565b6033546001600160a01b03163314612b675760405162461bcd60e51b815260206004820181905260248201527f4f776e61626c653a2063616c6c6572206973206e6f7420746865206f776e6572604482015260640161066e565b603380546001600160a01b038381166001600160a01b0319831681179093556040519116919082907f8be0079c531659141344cd1fd0a4f28419497f9722a3daafe3b4186f6b6457e090600090a35050565b6060600080613df284613b8e565b61ffff166001600160401b03811115613e0d57613e0d61440f565b6040519080825280601f01601f191660200182016040528015613e37576020820181803683370190505b5090506000805b825182108015613e4f575061010081105b15613ea6576001811b935085841615613e96578060f81b838381518110613e7857613e7861520d565b60200101906001600160f81b031916908160001a9053508160010191505b613e9f81615314565b9050613e3e565b5090949350505050565b6065546001600160a01b0316158015613ed157506001600160a01b03821615155b613f535760405162461bcd60e51b815260206004820152604760248201527f5061757361626c652e5f696e697469616c697a655061757365723a205f696e6960448201527f7469616c697a6550617573657228292063616e206f6e6c792062652063616c6c6064820152666564206f6e636560c81b608482015260a40161066e565b606681905560405181815233907fab40a374bc51de372200a8bc981af8c9ecdc08dfdaef0bb6e09f88f3c616ef3d9060200160405180910390a2613f9682613565565b5050565b60008080600080516020615a738339815191526003600080516020615a7383398151915286600080516020615a73833981519152888909090890506000614010827f0c19139cb84c680a6e14116da060561765e05aa45a1c72a34f082305b61f3f52600080516020615a738339815191526141a9565b91959194509092505050565b6000610100825111156140a55760405162461bcd60e51b8152602060048201526044602482018190527f4269746d61705574696c732e6f72646572656442797465734172726179546f42908201527f69746d61703a206f7264657265644279746573417272617920697320746f6f206064820152636c6f6e6760e01b608482015260a40161066e565b81516140b357506000919050565b600080836000815181106140c9576140c961520d565b0160200151600160f89190911c81901b92505b84518110156141a0578481815181106140f7576140f761520d565b0160200151600160f89190911c1b915082821161418c5760405162461bcd60e51b815260206004820152604760248201527f4269746d61705574696c732e6f72646572656442797465734172726179546f4260448201527f69746d61703a206f72646572656442797465734172726179206973206e6f74206064820152661bdc99195c995960ca1b608482015260a40161066e565b9181179161419981615314565b90506140dc565b50909392505050565b6000806141b4614355565b6141bc614373565b602080825281810181905260408201819052606082018890526080820187905260a082018690528260c08360056107d05a03fa92508280156136ab5750826142465760405162461bcd60e51b815260206004820152601a60248201527f424e3235342e6578704d6f643a2063616c6c206661696c757265000000000000604482015260640161066e565b505195945050505050565b82805461425d9061553d565b90600052602060002090601f01602090048101928261427f57600085556142c5565b82601f106142985782800160ff198235161785556142c5565b828001600101855582156142c5579182015b828111156142c55782358255916020019190600101906142aa565b506142d1929150614391565b5090565b60405180606001604052806003906020820280368337509192915050565b60405180608001604052806004906020820280368337509192915050565b60405180604001604052806143246143a6565b81526020016143316143a6565b905290565b604051806101800160405280600c906020820280368337509192915050565b60405180602001604052806001906020820280368337509192915050565b6040518060c001604052806006906020820280368337509192915050565b5b808211156142d15760008155600101614392565b60405180604001604052806002906020820280368337509192915050565b6001600160a01b038116811461050a57600080fd5b6000602082840312156143eb57600080fd5b8135613b85816143c4565b60006020828403121561440857600080fd5b5035919050565b634e487b7160e01b600052604160045260246000fd5b604080519081016001600160401b03811182821017156144475761444761440f565b60405290565b60405161010081016001600160401b03811182821017156144475761444761440f565b604051601f8201601f191681016001600160401b03811182821017156144985761449861440f565b604052919050565b6000604082840312156144b257600080fd5b6144ba614425565b9050813581526020820135602082015292915050565b600082601f8301126144e157600080fd5b604051604081018181106001600160401b03821117156145035761450361440f565b806040525080604084018581111561451a57600080fd5b845b81811015613c9257803583526020928301920161451c565b60006080828403121561454657600080fd5b61454e614425565b905061455a83836144d0565b815261456983604084016144d0565b602082015292915050565b600080600080610120858703121561458b57600080fd5b8435935061459c86602087016144a0565b92506145ab8660608701614534565b91506145ba8660e087016144a0565b905092959194509250565b63ffffffff8116811461050a57600080fd5b8035613d33816145c5565b6000602082840312156145f457600080fd5b8135613b85816145c5565b60008060006060848603121561461457600080fd5b833561461f816143c4565b92506020848101356001600160401b038082111561463c57600080fd5b818701915087601f83011261465057600080fd5b8135818111156146625761466261440f565b614674601f8201601f19168501614470565b9150808252888482850101111561468a57600080fd5b80848401858401376000848284010152508094505050506146ad604085016145d7565b90509250925092565b600081518084526020808501808196508360051b810191508286016000805b8681101561474c578385038a52825180518087529087019087870190845b8181101561473757835180516001600160a01b031684528a8101518b8501526040908101516001600160601b031690840152928901926060909201916001016146f3565b50509a87019a955050918501916001016146d5565b509298975050505050505050565b60208152600061476d60208301846146b6565b9392505050565b801515811461050a57600080fd5b60006020828403121561479457600080fd5b8135613b8581614774565b60008083601f8401126147b157600080fd5b5081356001600160401b038111156147c857600080fd5b6020830191508360208285010111156147e057600080fd5b9250929050565b6000806000806000806080878903121561480057600080fd5b863561480b816143c4565b9550602087013561481b816145c5565b945060408701356001600160401b038082111561483757600080fd5b6148438a838b0161479f565b9096509450606089013591508082111561485c57600080fd5b818901915089601f83011261487057600080fd5b81358181111561487f57600080fd5b8a60208260051b850101111561489457600080fd5b6020830194508093505050509295509295509295565b600081518084526020808501945080840160005b838110156148e057815163ffffffff16875295820195908201906001016148be565b509495945050505050565b60006020808352835160808285015261490760a08501826148aa565b905081850151601f198086840301604087015261492483836148aa565b9250604087015191508086840301606087015261494183836148aa565b60608801518782038301608089015280518083529194508501925084840190600581901b8501860160005b8281101561499857848783030184526149868287516148aa565b9588019593880193915060010161496c565b509998505050505050505050565b60ff8116811461050a57600080fd5b6000602082840312156149c757600080fd5b8135613b85816149a6565b60006001600160401b038211156149eb576149eb61440f565b5060051b60200190565b600080600060608486031215614a0a57600080fd5b8335614a15816143c4565b92506020848101356001600160401b03811115614a3157600080fd5b8501601f81018713614a4257600080fd5b8035614a55614a50826149d2565b614470565b81815260059190911b82018301908381019089831115614a7457600080fd5b928401925b82841015614a9257833582529284019290840190614a79565b80965050505050506146ad604085016145d7565b6020808252825182820181905260009190848201906040850190845b81811015614ade57835183529284019291840191600101614ac2565b50909695505050505050565b60008060008060608587031215614b0057600080fd5b843593506020850135614b12816145c5565b925060408501356001600160401b03811115614b2d57600080fd5b614b398782880161479f565b95989497509550505050565b600082601f830112614b5657600080fd5b81356020614b66614a50836149d2565b82815260059290921b84018101918181019086841115614b8557600080fd5b8286015b84811015614ba9578035614b9c816145c5565b8352918301918301614b89565b509695505050505050565b600082601f830112614bc557600080fd5b81356020614bd5614a50836149d2565b82815260069290921b84018101918181019086841115614bf457600080fd5b8286015b84811015614ba957614c0a88826144a0565b835291830191604001614bf8565b600082601f830112614c2957600080fd5b81356020614c39614a50836149d2565b82815260059290921b84018101918181019086841115614c5857600080fd5b8286015b84811015614ba95780356001600160401b03811115614c7b5760008081fd5b614c898986838b0101614b45565b845250918301918301614c5c565b60006101808284031215614caa57600080fd5b614cb261444d565b905081356001600160401b0380821115614ccb57600080fd5b614cd785838601614b45565b83526020840135915080821115614ced57600080fd5b614cf985838601614bb4565b60208401526040840135915080821115614d1257600080fd5b614d1e85838601614bb4565b6040840152614d308560608601614534565b6060840152614d428560e086016144a0565b6080840152610120840135915080821115614d5c57600080fd5b614d6885838601614b45565b60a0840152610140840135915080821115614d8257600080fd5b614d8e85838601614b45565b60c0840152610160840135915080821115614da857600080fd5b50614db584828501614c18565b60e08301525092915050565b600080600080600060808688031215614dd957600080fd5b8535945060208601356001600160401b0380821115614df757600080fd5b614e0389838a0161479f565b909650945060408801359150614e18826145c5565b90925060608701359080821115614e2e57600080fd5b50614e3b88828901614c97565b9150509295509295909350565b600081518084526020808501945080840160005b838110156148e05781516001600160601b031687529582019590820190600101614e5c565b6040815260008351604080840152614e9c6080840182614e48565b90506020850151603f19848303016060850152614eb98282614e48565b925050508260208301529392505050565b634e487b7160e01b600052602160045260246000fd5b6020810160048310614f0257634e487b7160e01b600052602160045260246000fd5b91905290565b600060208284031215614f1a57600080fd5b81356001600160401b03811115614f3057600080fd5b82016101408185031215613b8557600080fd5b600080600060608486031215614f5857600080fd5b8335614f63816143c4565b9250602084013591506040840135614f7a816145c5565b809150509250925092565b828152604060208201526000614f9e60408301846146b6565b949350505050565b60008060008060808587031215614fbc57600080fd5b8435614fc7816143c4565b93506020850135614fd7816143c4565b92506040850135614fe7816143c4565b91506060850135614ff7816143c4565b939692955090935050565b60008060008084860361012081121561501a57600080fd5b85356001600160401b038082111561503157600080fd5b9087019060e0828a03121561504557600080fd5b81965060c0601f198401121561505a57600080fd5b60208801955060e088013592508083111561507457600080fd5b61508089848a01614c97565b945061010092508288013591508082111561509a57600080fd5b818801915082828a0312156150ae57600080fd5b60405192506080830183811082821117156150cb576150cb61440f565b6040528135818111156150dd57600080fd5b6150e98a828501614b45565b8452506020820135818111156150fe57600080fd5b61510a8a828501614bb4565b6020850152505061511e8860408301614534565b60408301526151308860c083016144a0565b606083015250939692955090935050565b60006020828403121561515357600080fd5b8151613b85816143c4565b6020808252602a908201527f6d73672e73656e646572206973206e6f74207065726d697373696f6e6564206160408201526939903ab73830bab9b2b960b11b606082015260800190565b6000602082840312156151ba57600080fd5b8151613b8581614774565b60208082526028908201527f6d73672e73656e646572206973206e6f74207065726d697373696f6e6564206160408201526739903830bab9b2b960c11b606082015260800190565b634e487b7160e01b600052603260045260246000fd5b60008261524057634e487b7160e01b600052601260045260246000fd5b500690565b6000602080838503121561525857600080fd5b82516001600160401b0381111561526e57600080fd5b8301601f8101851361527f57600080fd5b805161528d614a50826149d2565b81815260059190911b820183019083810190878311156152ac57600080fd5b928401925b828410156152ca578351825292840192908401906152b1565b979650505050505050565b6000602082840312156152e757600080fd5b81516001600160601b0381168114613b8557600080fd5b634e487b7160e01b600052601160045260246000fd5b6000600019821415615328576153286152fe565b5060010190565b63ffffffff84168152604060208201819052810182905260006001600160fb1b0383111561535c57600080fd5b8260051b8085606085013760009201606001918252509392505050565b6000602080838503121561538c57600080fd5b82516001600160401b038111156153a257600080fd5b8301601f810185136153b357600080fd5b80516153c1614a50826149d2565b81815260059190911b820183019083810190878311156153e057600080fd5b928401925b828410156152ca5783516153f8816145c5565b825292840192908401906153e5565b81835281816020850137506000828201602090810191909152601f909101601f19169091010190565b63ffffffff84168152604060208201526000615450604083018486615407565b95945050505050565b60006020828403121561546b57600080fd5b81516001600160c01b0381168114613b8557600080fd5b60006020828403121561549457600080fd5b8151613b85816145c5565b600060ff821660ff8114156154b6576154b66152fe565b60010192915050565b6040815260006154d3604083018587615407565b905063ffffffff83166020830152949350505050565b60006040820163ffffffff851683526020604081850152818551808452606086019150828701935060005b8181101561553057845183529383019391830191600101615514565b5090979650505050505050565b600181811c9082168061555157607f821691505b6020821081141561557257634e487b7160e01b600052602260045260246000fd5b50919050565b600063ffffffff83811690831681811015615595576155956152fe565b039392505050565b6000815180845260005b818110156155c3576020818501810151868301820152016155a7565b818111156155d5576000602083870101525b50601f01601f19169290920160200192915050565b60208152815160208201526000602083015163ffffffff80821660408501528060408601511660608501526060850151915060e0608085015261563161010085018361559d565b91508060808601511660a08501525060a0840151601f198483030160c085015261565b828261559d565b91505060c084015161567560e085018263ffffffff169052565b509392505050565b600063ffffffff80831681851680830382111561569c5761569c6152fe565b01949350505050565b6000602082840312156156b757600080fd5b8151613b85816149a6565b6000828210156156d4576156d46152fe565b500390565b6000602082840312156156eb57600080fd5b5051919050565b60008219821115615705576157056152fe565b500190565b60006020828403121561571c57600080fd5b815167ffffffffffffffff1981168114613b8557600080fd5b60006001600160601b0383811690831681811015615595576155956152fe565b63ffffffff60e01b8360e01b1681526000600482018351602080860160005b8381101561579057815185529382019390820190600101615774565b5092979650505050505050565b6000808335601e198436030181126157b457600080fd5b8301803591506001600160401b038211156157ce57600080fd5b6020019150368190038213156147e057600080fd5b6000808335601e198436030181126157fa57600080fd5b83016020810192503590506001600160401b0381111561581957600080fd5b8036038313156147e057600080fd5b602081528135602082015260006020830135615843816145c5565b63ffffffff8116604084015250604083013561585e816145c5565b63ffffffff811660608401525061587860608401846157e3565b60e0608085015261588e61010085018284615407565b91505061589d608085016145d7565b63ffffffff811660a0850152506158b760a08501856157e3565b848303601f190160c08601526158ce838284615407565b925050506158de60c085016145d7565b63ffffffff811660e0850152615675565b6020808252602c908201527f41676772656761746f722068617320616c726561647920726573706f6e64656460408201526b20746f20746865207461736b60a01b606082015260800190565b8035615946816145c5565b63ffffffff81168352506020810135602083015260408101356040830152606081013560608301526080810135608083015260a081013560a08301525050565b60c08101613b88828461593b565b61599e818461593b565b60e060c082015263ffffffff82511660e082015260208201516101008201526000604083015160806101208401526159da610160840182614e48565b9050606084015160df19848303016101408501526159f88282614e48565b9695505050505050565b60006001600160601b0380831681851681830481118215151615615a2857615a286152fe565b02949350505050565b6000816000190483118215151615615a4b57615a4b6152fe565b500290565b600061ffff80831681811415615a6857615a686152fe565b600101939250505056fe30644e72e131a029b85045b68181585d97816a916871ca8d3c208c16d87cfd47424c535369676e6174757265436865636b65722e636865636b5369676e617475a264697066735822122083cfd3d1a980e6ec6983cdb300b5596c653f241a49788282176c6b4cd0fd78ae64736f6c634300080c0033","linkReferences":{}},"methodIdentifiers":{"aggregator()":"245a7bfc","allTaskHashes(uint32)":"2d89f6fc","allTaskResponses(uint32)":"2cb223d5","blsApkRegistry()":"5df45946","checkSignatures(bytes32,bytes,uint32,(uint32[],(uint256,uint256)[],(uint256,uint256)[],(uint256[2],uint256[2]),(uint256,uint256),uint32[],uint32[],uint32[][]))":"6efb4636","createNewTask(uint256,uint32,bytes)":"6b92787e","delegation()":"df5cf723","dummyForOperatorStateInfoType((bool,bool,uint8[],(uint8,uint96,(uint256,uint256))[],(uint8,uint96)[],(uint8,(uint256,uint256))[],bytes32[],(bytes32,uint8[],uint96[],uint8)[],(bytes32,uint8[],uint96[])[],(bytes32,uint8)[]))":"c3af8313","generator()":"7afa1eed","getCheckSignaturesIndices(address,uint32,bytes,bytes32[])":"4f739f74","getLatestPendingStateHash()":"0373408d","getOperatorState(address,bytes,uint32)":"3563b0d1","getOperatorState(address,bytes32,uint32)":"cefdc1d4","getQuorumBitmapsAtBlockNumber(address,bytes32[],uint32)":"5c155662","getTaskResponseWindowBlock()":"f5c9899d","indexToTaskStatus(uint32)":"99dba0c4","initialize(address,address,address,address)":"f8c8765e","latestTaskNum()":"8b00ce7c","owner()":"8da5cb5b","pause(uint256)":"136439dd","pauseAll()":"595c6a67","paused()":"5c975abb","paused(uint8)":"5ac86ab7","pauserRegistry()":"886f1195","registryCoordinator()":"6d14a987","renounceOwnership()":"715018a6","respondToTask((uint256,uint32,uint32,bytes,uint32,bytes,uint32),(uint32,bytes32,bytes32,bytes32,bytes32,bytes32),(uint32[],(uint256,uint256)[],(uint256,uint256)[],(uint256[2],uint256[2]),(uint256,uint256),uint32[],uint32[],uint32[][]),(uint32[],(uint256,uint256)[],(uint256[2],uint256[2]),(uint256,uint256)))":"ff5ca919","setPauserRegistry(address)":"10d67a2f","setStaleStakesForbidden(bool)":"416c7e5e","stakeRegistry()":"68304835","staleStakesForbidden()":"b98d0908","taskNumber()":"72d18e8d","transferOwnership(address)":"f2fde38b","trySignatureAndApkVerification(bytes32,(uint256,uint256),(uint256[2],uint256[2]),(uint256,uint256))":"171f1d5b","unpause(uint256)":"fabc1cbc"},"id":125}