{
  "abi": [
    {
      "inputs": [
        {
          "internalType": "contract IRegistryCoordinator",
          "name": "_registryCoordinator",
          "type": "address"
        },
        {
          "internalType": "uint32",
          "name": "_taskResponseWindowBlock",
          "type": "uint32"
        }
      ],
      "stateMutability": "nonpayable",
      "type": "constructor"
    },
    {
      "anonymous": false,
      "inputs": [
        {
          "indexed": false,
          "internalType": "uint8",
          "name": "version",
          "type": "uint8"
        }
      ],
      "name": "Initialized",
      "type": "event"
    },
    {
      "anonymous": false,
      "inputs": [
        {
          "indexed": true,
          "internalType": "uint32",
          "name": "taskIndex",
          "type": "uint32"
        },
        {
          "components": [
            {
              "internalType": "uint256",
              "name": "blockNumber",
              "type": "uint256"
            },
            {
              "internalType": "uint32",
              "name": "taskCreatedBlock",
              "type": "uint32"
            },
            {
              "internalType": "bytes",
              "name": "quorumNumbers",
              "type": "bytes"
            },
            {
              "internalType": "uint32",
              "name": "quorumThresholdPercentage",
              "type": "uint32"
            }
          ],
          "indexed": false,
          "internalType": "struct IFinalizerTaskManager.Task",
          "name": "task",
          "type": "tuple"
        }
      ],
      "name": "NewTaskCreated",
      "type": "event"
    },
    {
      "anonymous": false,
      "inputs": [
        {
          "indexed": true,
          "internalType": "address",
          "name": "previousOwner",
          "type": "address"
        },
        {
          "indexed": true,
          "internalType": "address",
          "name": "newOwner",
          "type": "address"
        }
      ],
      "name": "OwnershipTransferred",
      "type": "event"
    },
    {
      "anonymous": false,
      "inputs": [
        {
          "indexed": true,
          "internalType": "address",
          "name": "account",
          "type": "address"
        },
        {
          "indexed": false,
          "internalType": "uint256",
          "name": "newPausedStatus",
          "type": "uint256"
        }
      ],
      "name": "Paused",
      "type": "event"
    },
    {
      "anonymous": false,
      "inputs": [
        {
          "indexed": false,
          "internalType": "contract IPauserRegistry",
          "name": "pauserRegistry",
          "type": "address"
        },
        {
          "indexed": false,
          "internalType": "contract IPauserRegistry",
          "name": "newPauserRegistry",
          "type": "address"
        }
      ],
      "name": "PauserRegistrySet",
      "type": "event"
    },
    {
      "anonymous": false,
      "inputs": [
        {
          "indexed": false,
          "internalType": "bool",
          "name": "value",
          "type": "bool"
        }
      ],
      "name": "StaleStakesForbiddenUpdate",
      "type": "event"
    },
    {
      "anonymous": false,
      "inputs": [
        {
          "indexed": true,
          "internalType": "uint32",
          "name": "taskIndex",
          "type": "uint32"
        },
        {
          "indexed": true,
          "internalType": "bytes32",
          "name": "blockHash",
          "type": "bytes32"
        }
      ],
      "name": "TaskCompleted",
      "type": "event"
    },
    {
      "anonymous": false,
      "inputs": [
        {
          "components": [
            {
              "internalType": "uint32",
              "name": "referenceTaskIndex",
              "type": "uint32"
            },
            {
              "internalType": "bytes32",
              "name": "blockHash",
              "type": "bytes32"
            },
            {
              "internalType": "bytes32",
              "name": "storageProofHash",
              "type": "bytes32"
            },
            {
              "internalType": "bytes32",
              "name": "pendingStateHash",
              "type": "bytes32"
            }
          ],
          "indexed": false,
          "internalType": "struct IFinalizerTaskManager.TaskResponse",
          "name": "taskResponse",
          "type": "tuple"
        },
        {
          "components": [
            {
              "internalType": "uint32",
              "name": "taskResponsedBlock",
              "type": "uint32"
            },
            {
              "internalType": "bytes32",
              "name": "hashOfNonSigners",
              "type": "bytes32"
            },
            {
              "internalType": "uint96[]",
              "name": "quroumStakeTotals",
              "type": "uint96[]"
            },
            {
              "internalType": "uint96[]",
              "name": "quroumStakeSigned",
              "type": "uint96[]"
            }
          ],
          "indexed": false,
          "internalType": "struct IFinalizerTaskManager.TaskResponseMetadata",
          "name": "taskResponseMetadata",
          "type": "tuple"
        }
      ],
      "name": "TaskResponded",
      "type": "event"
    },
    {
      "anonymous": false,
      "inputs": [
        {
          "indexed": true,
          "internalType": "address",
          "name": "account",
          "type": "address"
        },
        {
          "indexed": false,
          "internalType": "uint256",
          "name": "newPausedStatus",
          "type": "uint256"
        }
      ],
      "name": "Unpaused",
      "type": "event"
    },
    {
      "inputs": [],
      "name": "aggregator",
      "outputs": [
        {
          "internalType": "address",
          "name": "",
          "type": "address"
        }
      ],
      "stateMutability": "view",
      "type": "function"
    },
    {
      "inputs": [
        {
          "internalType": "uint32",
          "name": "",
          "type": "uint32"
        }
      ],
      "name": "allTaskHashes",
      "outputs": [
        {
          "internalType": "bytes32",
          "name": "",
          "type": "bytes32"
        }
      ],
      "stateMutability": "view",
      "type": "function"
    },
    {
      "inputs": [
        {
          "internalType": "uint32",
          "name": "",
          "type": "uint32"
        }
      ],
      "name": "allTaskResponses",
      "outputs": [
        {
          "internalType": "bytes32",
          "name": "",
          "type": "bytes32"
        }
      ],
      "stateMutability": "view",
      "type": "function"
    },
    {
      "inputs": [],
      "name": "blsApkRegistry",
      "outputs": [
        {
          "internalType": "contract IBLSApkRegistry",
          "name": "",
          "type": "address"
        }
      ],
      "stateMutability": "view",
      "type": "function"
    },
    {
      "inputs": [
        {
          "internalType": "bytes32",
          "name": "msgHash",
          "type": "bytes32"
        },
        {
          "internalType": "bytes",
          "name": "quorumNumbers",
          "type": "bytes"
        },
        {
          "internalType": "uint32",
          "name": "referenceBlockNumber",
          "type": "uint32"
        },
        {
          "components": [
            {
              "internalType": "uint32[]",
              "name": "nonSignerQuorumBitmapIndices",
              "type": "uint32[]"
            },
            {
              "components": [
                {
                  "internalType": "uint256",
                  "name": "X",
                  "type": "uint256"
                },
                {
                  "internalType": "uint256",
                  "name": "Y",
                  "type": "uint256"
                }
              ],
              "internalType": "struct BN254.G1Point[]",
              "name": "nonSignerPubkeys",
              "type": "tuple[]"
            },
            {
              "components": [
                {
                  "internalType": "uint256",
                  "name": "X",
                  "type": "uint256"
                },
                {
                  "internalType": "uint256",
                  "name": "Y",
                  "type": "uint256"
                }
              ],
              "internalType": "struct BN254.G1Point[]",
              "name": "quorumApks",
              "type": "tuple[]"
            },
            {
              "components": [
                {
                  "internalType": "uint256[2]",
                  "name": "X",
                  "type": "uint256[2]"
                },
                {
                  "internalType": "uint256[2]",
                  "name": "Y",
                  "type": "uint256[2]"
                }
              ],
              "internalType": "struct BN254.G2Point",
              "name": "apkG2",
              "type": "tuple"
            },
            {
              "components": [
                {
                  "internalType": "uint256",
                  "name": "X",
                  "type": "uint256"
                },
                {
                  "internalType": "uint256",
                  "name": "Y",
                  "type": "uint256"
                }
              ],
              "internalType": "struct BN254.G1Point",
              "name": "sigma",
              "type": "tuple"
            },
            {
              "internalType": "uint32[]",
              "name": "quorumApkIndices",
              "type": "uint32[]"
            },
            {
              "internalType": "uint32[]",
              "name": "totalStakeIndices",
              "type": "uint32[]"
            },
            {
              "internalType": "uint32[][]",
              "name": "nonSignerStakeIndices",
              "type": "uint32[][]"
            }
          ],
          "internalType": "struct IBLSSignatureChecker.NonSignerStakesAndSignature",
          "name": "params",
          "type": "tuple"
        }
      ],
      "name": "checkSignatures",
      "outputs": [
        {
          "components": [
            {
              "internalType": "uint96[]",
              "name": "signedStakeForQuorum",
              "type": "uint96[]"
            },
            {
              "internalType": "uint96[]",
              "name": "totalStakeForQuorum",
              "type": "uint96[]"
            }
          ],
          "internalType": "struct IBLSSignatureChecker.QuorumStakeTotals",
          "name": "",
          "type": "tuple"
        },
        {
          "internalType": "bytes32",
          "name": "",
          "type": "bytes32"
        }
      ],
      "stateMutability": "view",
      "type": "function"
    },
    {
      "inputs": [
        {
          "internalType": "uint256",
          "name": "blockNumber",
          "type": "uint256"
        },
        {
          "internalType": "uint32",
          "name": "quorumThresholdPercentage",
          "type": "uint32"
        },
        {
          "internalType": "bytes",
          "name": "quorumNumbers",
          "type": "bytes"
        }
      ],
      "name": "createNewTask",
      "outputs": [],
      "stateMutability": "nonpayable",
      "type": "function"
    },
    {
      "inputs": [],
      "name": "delegation",
      "outputs": [
        {
          "internalType": "contract IDelegationManager",
          "name": "",
          "type": "address"
        }
      ],
      "stateMutability": "view",
      "type": "function"
    },
    {
      "inputs": [],
      "name": "generator",
      "outputs": [
        {
          "internalType": "address",
          "name": "",
          "type": "address"
        }
      ],
      "stateMutability": "view",
      "type": "function"
    },
    {
      "inputs": [
        {
          "internalType": "contract IRegistryCoordinator",
          "name": "registryCoordinator",
          "type": "address"
        },
        {
          "internalType": "uint32",
          "name": "referenceBlockNumber",
          "type": "uint32"
        },
        {
          "internalType": "bytes",
          "name": "quorumNumbers",
          "type": "bytes"
        },
        {
          "internalType": "bytes32[]",
          "name": "nonSignerOperatorIds",
          "type": "bytes32[]"
        }
      ],
      "name": "getCheckSignaturesIndices",
      "outputs": [
        {
          "components": [
            {
              "internalType": "uint32[]",
              "name": "nonSignerQuorumBitmapIndices",
              "type": "uint32[]"
            },
            {
              "internalType": "uint32[]",
              "name": "quorumApkIndices",
              "type": "uint32[]"
            },
            {
              "internalType": "uint32[]",
              "name": "totalStakeIndices",
              "type": "uint32[]"
            },
            {
              "internalType": "uint32[][]",
              "name": "nonSignerStakeIndices",
              "type": "uint32[][]"
            }
          ],
          "internalType": "struct OperatorStateRetriever.CheckSignaturesIndices",
          "name": "",
          "type": "tuple"
        }
      ],
      "stateMutability": "view",
      "type": "function"
    },
    {
      "inputs": [],
      "name": "getLatestPendingStateHash",
      "outputs": [
        {
          "internalType": "bytes32",
          "name": "",
          "type": "bytes32"
        }
      ],
      "stateMutability": "view",
      "type": "function"
    },
    {
      "inputs": [
        {
          "internalType": "contract IRegistryCoordinator",
          "name": "registryCoordinator",
          "type": "address"
        },
        {
          "internalType": "bytes",
          "name": "quorumNumbers",
          "type": "bytes"
        },
        {
          "internalType": "uint32",
          "name": "blockNumber",
          "type": "uint32"
        }
      ],
      "name": "getOperatorState",
      "outputs": [
        {
          "components": [
            {
              "internalType": "address",
              "name": "operator",
              "type": "address"
            },
            {
              "internalType": "bytes32",
              "name": "operatorId",
              "type": "bytes32"
            },
            {
              "internalType": "uint96",
              "name": "stake",
              "type": "uint96"
            }
          ],
          "internalType": "struct OperatorStateRetriever.Operator[][]",
          "name": "",
          "type": "tuple[][]"
        }
      ],
      "stateMutability": "view",
      "type": "function"
    },
    {
      "inputs": [
        {
          "internalType": "contract IRegistryCoordinator",
          "name": "registryCoordinator",
          "type": "address"
        },
        {
          "internalType": "bytes32",
          "name": "operatorId",
          "type": "bytes32"
        },
        {
          "internalType": "uint32",
          "name": "blockNumber",
          "type": "uint32"
        }
      ],
      "name": "getOperatorState",
      "outputs": [
        {
          "internalType": "uint256",
          "name": "",
          "type": "uint256"
        },
        {
          "components": [
            {
              "internalType": "address",
              "name": "operator",
              "type": "address"
            },
            {
              "internalType": "bytes32",
              "name": "operatorId",
              "type": "bytes32"
            },
            {
              "internalType": "uint96",
              "name": "stake",
              "type": "uint96"
            }
          ],
          "internalType": "struct OperatorStateRetriever.Operator[][]",
          "name": "",
          "type": "tuple[][]"
        }
      ],
      "stateMutability": "view",
      "type": "function"
    },
    {
      "inputs": [],
      "name": "getTaskResponseWindowBlock",
      "outputs": [
        {
          "internalType": "uint32",
          "name": "",
          "type": "uint32"
        }
      ],
      "stateMutability": "view",
      "type": "function"
    },
    {
      "inputs": [
        {
          "internalType": "contract IPauserRegistry",
          "name": "_pauserRegistry",
          "type": "address"
        },
        {
          "internalType": "address",
          "name": "initialOwner",
          "type": "address"
        },
        {
          "internalType": "address",
          "name": "_aggregator",
          "type": "address"
        },
        {
          "internalType": "address",
          "name": "_generator",
          "type": "address"
        }
      ],
      "name": "initialize",
      "outputs": [],
      "stateMutability": "nonpayable",
      "type": "function"
    },
    {
      "inputs": [],
      "name": "latestTaskNum",
      "outputs": [
        {
          "internalType": "uint32",
          "name": "",
          "type": "uint32"
        }
      ],
      "stateMutability": "view",
      "type": "function"
    },
    {
      "inputs": [],
      "name": "owner",
      "outputs": [
        {
          "internalType": "address",
          "name": "",
          "type": "address"
        }
      ],
      "stateMutability": "view",
      "type": "function"
    },
    {
      "inputs": [
        {
          "internalType": "uint256",
          "name": "newPausedStatus",
          "type": "uint256"
        }
      ],
      "name": "pause",
      "outputs": [],
      "stateMutability": "nonpayable",
      "type": "function"
    },
    {
      "inputs": [],
      "name": "pauseAll",
      "outputs": [],
      "stateMutability": "nonpayable",
      "type": "function"
    },
    {
      "inputs": [
        {
          "internalType": "uint8",
          "name": "index",
          "type": "uint8"
        }
      ],
      "name": "paused",
      "outputs": [
        {
          "internalType": "bool",
          "name": "",
          "type": "bool"
        }
      ],
      "stateMutability": "view",
      "type": "function"
    },
    {
      "inputs": [],
      "name": "paused",
      "outputs": [
        {
          "internalType": "uint256",
          "name": "",
          "type": "uint256"
        }
      ],
      "stateMutability": "view",
      "type": "function"
    },
    {
      "inputs": [],
      "name": "pauserRegistry",
      "outputs": [
        {
          "internalType": "contract IPauserRegistry",
          "name": "",
          "type": "address"
        }
      ],
      "stateMutability": "view",
      "type": "function"
    },
    {
      "inputs": [],
      "name": "registryCoordinator",
      "outputs": [
        {
          "internalType": "contract IRegistryCoordinator",
          "name": "",
          "type": "address"
        }
      ],
      "stateMutability": "view",
      "type": "function"
    },
    {
      "inputs": [],
      "name": "renounceOwnership",
      "outputs": [],
      "stateMutability": "nonpayable",
      "type": "function"
    },
    {
      "inputs": [
        {
          "components": [
            {
              "internalType": "uint256",
              "name": "blockNumber",
              "type": "uint256"
            },
            {
              "internalType": "uint32",
              "name": "taskCreatedBlock",
              "type": "uint32"
            },
            {
              "internalType": "bytes",
              "name": "quorumNumbers",
              "type": "bytes"
            },
            {
              "internalType": "uint32",
              "name": "quorumThresholdPercentage",
              "type": "uint32"
            }
          ],
          "internalType": "struct IFinalizerTaskManager.Task",
          "name": "task",
          "type": "tuple"
        },
        {
          "components": [
            {
              "internalType": "uint32",
              "name": "referenceTaskIndex",
              "type": "uint32"
            },
            {
              "internalType": "bytes32",
              "name": "blockHash",
              "type": "bytes32"
            },
            {
              "internalType": "bytes32",
              "name": "storageProofHash",
              "type": "bytes32"
            },
            {
              "internalType": "bytes32",
              "name": "pendingStateHash",
              "type": "bytes32"
            }
          ],
          "internalType": "struct IFinalizerTaskManager.TaskResponse",
          "name": "taskResponse",
          "type": "tuple"
        },
        {
          "components": [
            {
              "internalType": "uint32[]",
              "name": "nonSignerQuorumBitmapIndices",
              "type": "uint32[]"
            },
            {
              "components": [
                {
                  "internalType": "uint256",
                  "name": "X",
                  "type": "uint256"
                },
                {
                  "internalType": "uint256",
                  "name": "Y",
                  "type": "uint256"
                }
              ],
              "internalType": "struct BN254.G1Point[]",
              "name": "nonSignerPubkeys",
              "type": "tuple[]"
            },
            {
              "components": [
                {
                  "internalType": "uint256",
                  "name": "X",
                  "type": "uint256"
                },
                {
                  "internalType": "uint256",
                  "name": "Y",
                  "type": "uint256"
                }
              ],
              "internalType": "struct BN254.G1Point[]",
              "name": "quorumApks",
              "type": "tuple[]"
            },
            {
              "components": [
                {
                  "internalType": "uint256[2]",
                  "name": "X",
                  "type": "uint256[2]"
                },
                {
                  "internalType": "uint256[2]",
                  "name": "Y",
                  "type": "uint256[2]"
                }
              ],
              "internalType": "struct BN254.G2Point",
              "name": "apkG2",
              "type": "tuple"
            },
            {
              "components": [
                {
                  "internalType": "uint256",
                  "name": "X",
                  "type": "uint256"
                },
                {
                  "internalType": "uint256",
                  "name": "Y",
                  "type": "uint256"
                }
              ],
              "internalType": "struct BN254.G1Point",
              "name": "sigma",
              "type": "tuple"
            },
            {
              "internalType": "uint32[]",
              "name": "quorumApkIndices",
              "type": "uint32[]"
            },
            {
              "internalType": "uint32[]",
              "name": "totalStakeIndices",
              "type": "uint32[]"
            },
            {
              "internalType": "uint32[][]",
              "name": "nonSignerStakeIndices",
              "type": "uint32[][]"
            }
          ],
          "internalType": "struct IBLSSignatureChecker.NonSignerStakesAndSignature",
          "name": "nonSignerStakesAndSignature",
          "type": "tuple"
        }
      ],
      "name": "respondToTask",
      "outputs": [],
      "stateMutability": "nonpayable",
      "type": "function"
    },
    {
      "inputs": [
        {
          "internalType": "contract IPauserRegistry",
          "name": "newPauserRegistry",
          "type": "address"
        }
      ],
      "name": "setPauserRegistry",
      "outputs": [],
      "stateMutability": "nonpayable",
      "type": "function"
    },
    {
      "inputs": [
        {
          "internalType": "bool",
          "name": "value",
          "type": "bool"
        }
      ],
      "name": "setStaleStakesForbidden",
      "outputs": [],
      "stateMutability": "nonpayable",
      "type": "function"
    },
    {
      "inputs": [],
      "name": "stakeRegistry",
      "outputs": [
        {
          "internalType": "contract IStakeRegistry",
          "name": "",
          "type": "address"
        }
      ],
      "stateMutability": "view",
      "type": "function"
    },
    {
      "inputs": [],
      "name": "staleStakesForbidden",
      "outputs": [
        {
          "internalType": "bool",
          "name": "",
          "type": "bool"
        }
      ],
      "stateMutability": "view",
      "type": "function"
    },
    {
      "inputs": [],
      "name": "taskNumber",
      "outputs": [
        {
          "internalType": "uint32",
          "name": "",
          "type": "uint32"
        }
      ],
      "stateMutability": "view",
      "type": "function"
    },
    {
      "inputs": [
        {
          "internalType": "address",
          "name": "newOwner",
          "type": "address"
        }
      ],
      "name": "transferOwnership",
      "outputs": [],
      "stateMutability": "nonpayable",
      "type": "function"
    },
    {
      "inputs": [
        {
          "internalType": "bytes32",
          "name": "msgHash",
          "type": "bytes32"
        },
        {
          "components": [
            {
              "internalType": "uint256",
              "name": "X",
              "type": "uint256"
            },
            {
              "internalType": "uint256",
              "name": "Y",
              "type": "uint256"
            }
          ],
          "internalType": "struct BN254.G1Point",
          "name": "apk",
          "type": "tuple"
        },
        {
          "components": [
            {
              "internalType": "uint256[2]",
              "name": "X",
              "type": "uint256[2]"
            },
            {
              "internalType": "uint256[2]",
              "name": "Y",
              "type": "uint256[2]"
            }
          ],
          "internalType": "struct BN254.G2Point",
          "name": "apkG2",
          "type": "tuple"
        },
        {
          "components": [
            {
              "internalType": "uint256",
              "name": "X",
              "type": "uint256"
            },
            {
              "internalType": "uint256",
              "name": "Y",
              "type": "uint256"
            }
          ],
          "internalType": "struct BN254.G1Point",
          "name": "sigma",
          "type": "tuple"
        }
      ],
      "name": "trySignatureAndApkVerification",
      "outputs": [
        {
          "internalType": "bool",
          "name": "pairingSuccessful",
          "type": "bool"
        },
        {
          "internalType": "bool",
          "name": "siganatureIsValid",
          "type": "bool"
        }
      ],
      "stateMutability": "view",
      "type": "function"
    },
    {
      "inputs": [
        {
          "internalType": "uint256",
          "name": "newPausedStatus",
          "type": "uint256"
        }
      ],
      "name": "unpause",
      "outputs": [],
      "stateMutability": "nonpayable",
      "type": "function"
    }
  ],
  "bytecode": {
    "object": "0x6101206040523480156200001257600080fd5b5060405162005517380380620055178339810160408190526200003591620001f7565b81806001600160a01b03166080816001600160a01b031681525050806001600160a01b031663683048356040518163ffffffff1660e01b8152600401602060405180830381865afa1580156200008f573d6000803e3d6000fd5b505050506040513d601f19601f82011682018060405250810190620000b591906200023e565b6001600160a01b031660a0816001600160a01b031681525050806001600160a01b0316635df459466040518163ffffffff1660e01b8152600401602060405180830381865afa1580156200010d573d6000803e3d6000fd5b505050506040513d601f19601f820116820180604052508101906200013391906200023e565b6001600160a01b031660c0816001600160a01b03168152505060a0516001600160a01b031663df5cf7236040518163ffffffff1660e01b8152600401602060405180830381865afa1580156200018d573d6000803e3d6000fd5b505050506040513d601f19601f82011682018060405250810190620001b391906200023e565b6001600160a01b031660e052506097805460ff1916600117905563ffffffff16610100525062000265565b6001600160a01b0381168114620001f457600080fd5b50565b600080604083850312156200020b57600080fd5b82516200021881620001de565b602084015190925063ffffffff811681146200023357600080fd5b809150509250929050565b6000602082840312156200025157600080fd5b81516200025e81620001de565b9392505050565b60805160a05160c05160e0516101005161522e620002e9600039600081816104f30152612b0b0152600081816104a90152611f44015260008181610364015261212701526000818161038b015281816122fd01526124bf0152600081816103c501528181610d5a01528181611c0f01528181611da70152611fe1015261522e6000f3fe608060405234801561001057600080fd5b50600436106101f05760003560e01c80636d14a9871161010f578063b98d0908116100a2578063f2fde38b11610071578063f2fde38b146104de578063f5c9899d146104f1578063f8c8765e14610517578063fabc1cbc1461052a57600080fd5b8063b98d090814610476578063cefdc1d414610483578063df5cf723146104a4578063e4e3ad77146104cb57600080fd5b80637afa1eed116100de5780637afa1eed1461042f578063886f1195146104425780638b00ce7c146104555780638da5cb5b1461046557600080fd5b80636d14a987146103c05780636efb4636146103e7578063715018a61461040857806372d18e8d1461041057600080fd5b8063416c7e5e116101875780635c975abb116101565780635c975abb146103575780635df459461461035f57806368304835146103865780636b92787e146103ad57600080fd5b8063416c7e5e146102e95780634f739f74146102fc578063595c6a671461031c5780635ac86ab71461032457600080fd5b8063245a7bfc116101c3578063245a7bfc1461025e5780632cb223d5146102895780632d89f6fc146102a95780633563b0d1146102c957600080fd5b80630373408d146101f557806310d67a2f1461020c578063136439dd14610221578063171f1d5b14610234575b600080fd5b60ce545b6040519081526020015b60405180910390f35b61021f61021a366004613eba565b61053d565b005b61021f61022f366004613ed7565b6105f9565b610247610242366004614055565b610738565b604080519215158352901515602083015201610203565b60cc54610271906001600160a01b031681565b6040516001600160a01b039091168152602001610203565b6101f96102973660046140c3565b60cb6020526000908152604090205481565b6101f96102b73660046140c3565b60ca6020526000908152604090205481565b6102dc6102d73660046140e0565b6108c2565b604051610203919061423b565b61021f6102f7366004614263565b610d58565b61030f61030a3660046142c8565b610ecd565b60405161020391906143cc565b61021f6115f3565b610347610332366004614496565b606654600160ff9092169190911b9081161490565b6040519015158152602001610203565b6066546101f9565b6102717f000000000000000000000000000000000000000000000000000000000000000081565b6102717f000000000000000000000000000000000000000000000000000000000000000081565b61021f6103bb3660046144b3565b6116ba565b6102717f000000000000000000000000000000000000000000000000000000000000000081565b6103fa6103f53660046147b2565b61185b565b604051610203929190614872565b61021f612774565b60c95463ffffffff165b60405163ffffffff9091168152602001610203565b60cd54610271906001600160a01b031681565b606554610271906001600160a01b031681565b60c95461041a9063ffffffff1681565b6033546001600160a01b0316610271565b6097546103479060ff1681565b6104966104913660046148bb565b612788565b6040516102039291906148fd565b6102717f000000000000000000000000000000000000000000000000000000000000000081565b61021f6104d9366004614936565b61291a565b61021f6104ec366004613eba565b612d94565b7f000000000000000000000000000000000000000000000000000000000000000061041a565b61021f6105253660046149aa565b612e0a565b61021f610538366004613ed7565b612f5b565b606560009054906101000a90046001600160a01b03166001600160a01b031663eab66d7a6040518163ffffffff1660e01b8152600401602060405180830381865afa158015610590573d6000803e3d6000fd5b505050506040513d601f19601f820116820180604052508101906105b49190614a06565b6001600160a01b0316336001600160a01b0316146105ed5760405162461bcd60e51b81526004016105e490614a23565b60405180910390fd5b6105f6816130b7565b50565b60655460405163237dfb4760e11b81523360048201526001600160a01b03909116906346fbf68e90602401602060405180830381865afa158015610641573d6000803e3d6000fd5b505050506040513d601f19601f820116820180604052508101906106659190614a6d565b6106815760405162461bcd60e51b81526004016105e490614a8a565b606654818116146106fa5760405162461bcd60e51b815260206004820152603860248201527f5061757361626c652e70617573653a20696e76616c696420617474656d70742060448201527f746f20756e70617573652066756e6374696f6e616c697479000000000000000060648201526084016105e4565b606681905560405181815233907fab40a374bc51de372200a8bc981af8c9ecdc08dfdaef0bb6e09f88f3c616ef3d906020015b60405180910390a250565b60008060007f30644e72e131a029b85045b68181585d2833e84879b9709143e1f593f00000018787600001518860200151886000015160006002811061078057610780614ad2565b60200201518951600160200201518a602001516000600281106107a5576107a5614ad2565b60200201518b602001516001600281106107c1576107c1614ad2565b602090810291909101518c518d83015160405161081e9a99989796959401988952602089019790975260408801959095526060870193909352608086019190915260a085015260c084015260e08301526101008201526101200190565b6040516020818303038152906040528051906020012060001c6108419190614ae8565b90506108b461085a61085388846131ae565b8690613245565b6108626132d9565b6108aa61089b85610895604080518082018252600080825260209182015281518083019092526001825260029082015290565b906131ae565b6108a48c613399565b90613245565b886201d4c0613429565b909890975095505050505050565b60606000846001600160a01b031663683048356040518163ffffffff1660e01b8152600401602060405180830381865afa158015610904573d6000803e3d6000fd5b505050506040513d601f19601f820116820180604052508101906109289190614a06565b90506000856001600160a01b0316639e9923c26040518163ffffffff1660e01b8152600401602060405180830381865afa15801561096a573d6000803e3d6000fd5b505050506040513d601f19601f8201168201806040525081019061098e9190614a06565b90506000866001600160a01b0316635df459466040518163ffffffff1660e01b8152600401602060405180830381865afa1580156109d0573d6000803e3d6000fd5b505050506040513d601f19601f820116820180604052508101906109f49190614a06565b9050600086516001600160401b03811115610a1157610a11613ef0565b604051908082528060200260200182016040528015610a4457816020015b6060815260200190600190039081610a2f5790505b50905060005b8751811015610d4c576000888281518110610a6757610a67614ad2565b0160200151604051638902624560e01b815260f89190911c6004820181905263ffffffff8a16602483015291506000906001600160a01b03871690638902624590604401600060405180830381865afa158015610ac8573d6000803e3d6000fd5b505050506040513d6000823e601f3d908101601f19168201604052610af09190810190614b0a565b905080516001600160401b03811115610b0b57610b0b613ef0565b604051908082528060200260200182016040528015610b5657816020015b6040805160608101825260008082526020808301829052928201528252600019909201910181610b295790505b50848481518110610b6957610b69614ad2565b602002602001018190525060005b8151811015610d36576040518060600160405280876001600160a01b03166347b314e8858581518110610bac57610bac614ad2565b60200260200101516040518263ffffffff1660e01b8152600401610bd291815260200190565b602060405180830381865afa158015610bef573d6000803e3d6000fd5b505050506040513d601f19601f82011682018060405250810190610c139190614a06565b6001600160a01b03168152602001838381518110610c3357610c33614ad2565b60200260200101518152602001896001600160a01b031663fa28c627858581518110610c6157610c61614ad2565b60209081029190910101516040516001600160e01b031960e084901b168152600481019190915260ff8816602482015263ffffffff8f166044820152606401602060405180830381865afa158015610cbd573d6000803e3d6000fd5b505050506040513d601f19601f82011682018060405250810190610ce19190614b9a565b6001600160601b0316815250858581518110610cff57610cff614ad2565b60200260200101518281518110610d1857610d18614ad2565b60200260200101819052508080610d2e90614bd9565b915050610b77565b5050508080610d4490614bd9565b915050610a4a565b50979650505050505050565b7f00000000000000000000000000000000000000000000000000000000000000006001600160a01b0316638da5cb5b6040518163ffffffff1660e01b8152600401602060405180830381865afa158015610db6573d6000803e3d6000fd5b505050506040513d601f19601f82011682018060405250810190610dda9190614a06565b6001600160a01b0316336001600160a01b031614610e865760405162461bcd60e51b815260206004820152605c60248201527f424c535369676e6174757265436865636b65722e6f6e6c79436f6f7264696e6160448201527f746f724f776e65723a2063616c6c6572206973206e6f7420746865206f776e6560648201527f72206f6620746865207265676973747279436f6f7264696e61746f7200000000608482015260a4016105e4565b6097805460ff19168215159081179091556040519081527f40e4ed880a29e0f6ddce307457fb75cddf4feef7d3ecb0301bfdf4976a0e2dfc9060200160405180910390a150565b610ef86040518060800160405280606081526020016060815260200160608152602001606081525090565b6000876001600160a01b031663683048356040518163ffffffff1660e01b8152600401602060405180830381865afa158015610f38573d6000803e3d6000fd5b505050506040513d601f19601f82011682018060405250810190610f5c9190614a06565b9050610f896040518060800160405280606081526020016060815260200160608152602001606081525090565b6040516361c8a12f60e11b81526001600160a01b038a169063c391425e90610fb9908b9089908990600401614bf4565b600060405180830381865afa158015610fd6573d6000803e3d6000fd5b505050506040513d6000823e601f3d908101601f19168201604052610ffe9190810190614c3e565b81526040516340e03a8160e11b81526001600160a01b038316906381c0750290611030908b908b908b90600401614cf5565b600060405180830381865afa15801561104d573d6000803e3d6000fd5b505050506040513d6000823e601f3d908101601f191682016040526110759190810190614c3e565b6040820152856001600160401b0381111561109257611092613ef0565b6040519080825280602002602001820160405280156110c557816020015b60608152602001906001900390816110b05790505b50606082015260005b60ff8116871115611504576000856001600160401b038111156110f3576110f3613ef0565b60405190808252806020026020018201604052801561111c578160200160208202803683370190505b5083606001518360ff168151811061113657611136614ad2565b602002602001018190525060005b868110156114045760008c6001600160a01b03166304ec63518a8a8581811061116f5761116f614ad2565b905060200201358e8860000151868151811061118d5761118d614ad2565b60200260200101516040518463ffffffff1660e01b81526004016111ca9392919092835263ffffffff918216602084015216604082015260600190565b602060405180830381865afa1580156111e7573d6000803e3d6000fd5b505050506040513d601f19601f8201168201806040525081019061120b9190614d1e565b90506001600160c01b0381166112af5760405162461bcd60e51b815260206004820152605c60248201527f4f70657261746f7253746174655265747269657665722e676574436865636b5360448201527f69676e617475726573496e64696365733a206f70657261746f72206d7573742060648201527f6265207265676973746572656420617420626c6f636b6e756d62657200000000608482015260a4016105e4565b8a8a8560ff168181106112c4576112c4614ad2565b6001600160c01b03841692013560f81c9190911c6001908116141590506113f157856001600160a01b031663dd9846b98a8a8581811061130657611306614ad2565b905060200201358d8d8860ff1681811061132257611322614ad2565b6040516001600160e01b031960e087901b1681526004810194909452919091013560f81c60248301525063ffffffff8f166044820152606401602060405180830381865afa158015611378573d6000803e3d6000fd5b505050506040513d601f19601f8201168201806040525081019061139c9190614d47565b85606001518560ff16815181106113b5576113b5614ad2565b602002602001015184815181106113ce576113ce614ad2565b63ffffffff90921660209283029190910190910152826113ed81614bd9565b9350505b50806113fc81614bd9565b915050611144565b506000816001600160401b0381111561141f5761141f613ef0565b604051908082528060200260200182016040528015611448578160200160208202803683370190505b50905060005b828110156114c95784606001518460ff168151811061146f5761146f614ad2565b6020026020010151818151811061148857611488614ad2565b60200260200101518282815181106114a2576114a2614ad2565b63ffffffff90921660209283029190910190910152806114c181614bd9565b91505061144e565b508084606001518460ff16815181106114e4576114e4614ad2565b6020026020010181905250505080806114fc90614d64565b9150506110ce565b506000896001600160a01b0316635df459466040518163ffffffff1660e01b8152600401602060405180830381865afa158015611545573d6000803e3d6000fd5b505050506040513d601f19601f820116820180604052508101906115699190614a06565b60405163354952a360e21b81529091506001600160a01b0382169063d5254a8c9061159c908b908b908e90600401614d84565b600060405180830381865afa1580156115b9573d6000803e3d6000fd5b505050506040513d6000823e601f3d908101601f191682016040526115e19190810190614c3e565b60208301525098975050505050505050565b60655460405163237dfb4760e11b81523360048201526001600160a01b03909116906346fbf68e90602401602060405180830381865afa15801561163b573d6000803e3d6000fd5b505050506040513d601f19601f8201168201806040525081019061165f9190614a6d565b61167b5760405162461bcd60e51b81526004016105e490614a8a565b600019606681905560405190815233907fab40a374bc51de372200a8bc981af8c9ecdc08dfdaef0bb6e09f88f3c616ef3d9060200160405180910390a2565b60cd546001600160a01b0316331461171e5760405162461bcd60e51b815260206004820152602160248201527f5461736b2067656e657261746f72206d757374206265207468652063616c6c656044820152603960f91b60648201526084016105e4565b611755604051806080016040528060008152602001600063ffffffff16815260200160608152602001600063ffffffff1681525090565b84815263ffffffff438116602080840191909152908516606083015260408051601f8501839004830281018301909152838152908490849081908401838280828437600092019190915250505050604080830191909152516117bb908290602001614dae565b60408051601f19818403018152828252805160209182012060c9805463ffffffff908116600090815260ca90945293909220555416907f1695b8d06ec800b4615e745cfb5bd00c1f2875615d42925c3b5afa543bb24c489061181e908490614dae565b60405180910390a260c95461183a9063ffffffff166001614e39565b60c9805463ffffffff191663ffffffff929092169190911790555050505050565b60408051808201909152606080825260208201526000846118d25760405162461bcd60e51b815260206004820152603760248201526000805160206151d983398151915260448201527f7265733a20656d7074792071756f72756d20696e70757400000000000000000060648201526084016105e4565b604083015151851480156118ea575060a08301515185145b80156118fa575060c08301515185145b801561190a575060e08301515185145b6119745760405162461bcd60e51b815260206004820152604160248201526000805160206151d983398151915260448201527f7265733a20696e7075742071756f72756d206c656e677468206d69736d6174636064820152600d60fb1b608482015260a4016105e4565b825151602084015151146119ec5760405162461bcd60e51b8152602060048201526044602482018190526000805160206151d9833981519152908201527f7265733a20696e707574206e6f6e7369676e6572206c656e677468206d69736d6064820152630c2e8c6d60e31b608482015260a4016105e4565b4363ffffffff168463ffffffff161115611a5c5760405162461bcd60e51b815260206004820152603c60248201526000805160206151d983398151915260448201527f7265733a20696e76616c6964207265666572656e636520626c6f636b0000000060648201526084016105e4565b6040805180820182526000808252602080830191909152825180840190935260608084529083015290866001600160401b03811115611a9d57611a9d613ef0565b604051908082528060200260200182016040528015611ac6578160200160208202803683370190505b506020820152866001600160401b03811115611ae457611ae4613ef0565b604051908082528060200260200182016040528015611b0d578160200160208202803683370190505b50815260408051808201909152606080825260208201528560200151516001600160401b03811115611b4157611b41613ef0565b604051908082528060200260200182016040528015611b6a578160200160208202803683370190505b5081526020860151516001600160401b03811115611b8a57611b8a613ef0565b604051908082528060200260200182016040528015611bb3578160200160208202803683370190505b5081602001819052506000611c858a8a8080601f0160208091040260200160405190810160405280939291908181526020018383808284376000920191909152505060408051639aa1653d60e01b815290516001600160a01b037f0000000000000000000000000000000000000000000000000000000000000000169350639aa1653d925060048083019260209291908290030181865afa158015611c5c573d6000803e3d6000fd5b505050506040513d601f19601f82011682018060405250810190611c809190614e61565b61364d565b905060005b876020015151811015611f2057611ccf88602001518281518110611cb057611cb0614ad2565b6020026020010151805160009081526020918201519091526040902090565b83602001518281518110611ce557611ce5614ad2565b60209081029190910101528015611da5576020830151611d06600183614e7e565b81518110611d1657611d16614ad2565b602002602001015160001c83602001518281518110611d3757611d37614ad2565b602002602001015160001c11611da5576040805162461bcd60e51b81526020600482015260248101919091526000805160206151d983398151915260448201527f7265733a206e6f6e5369676e65725075626b657973206e6f7420736f7274656460648201526084016105e4565b7f00000000000000000000000000000000000000000000000000000000000000006001600160a01b03166304ec635184602001518381518110611dea57611dea614ad2565b60200260200101518b8b600001518581518110611e0957611e09614ad2565b60200260200101516040518463ffffffff1660e01b8152600401611e469392919092835263ffffffff918216602084015216604082015260600190565b602060405180830381865afa158015611e63573d6000803e3d6000fd5b505050506040513d601f19601f82011682018060405250810190611e879190614d1e565b6001600160c01b031683600001518281518110611ea657611ea6614ad2565b602002602001018181525050611f0c610853611ee08486600001518581518110611ed257611ed2614ad2565b602002602001015116613708565b8a602001518481518110611ef657611ef6614ad2565b602002602001015161373390919063ffffffff16565b945080611f1881614bd9565b915050611c8a565b5050611f2b83613817565b60975490935060ff16600081611f42576000611fc4565b7f00000000000000000000000000000000000000000000000000000000000000006001600160a01b031663c448feb86040518163ffffffff1660e01b8152600401602060405180830381865afa158015611fa0573d6000803e3d6000fd5b505050506040513d601f19601f82011682018060405250810190611fc49190614e95565b905060005b8a811015612643578215612125578963ffffffff16827f00000000000000000000000000000000000000000000000000000000000000006001600160a01b031663249a0c428f8f8681811061202057612020614ad2565b60405160e085901b6001600160e01b031916815292013560f81c600483015250602401602060405180830381865afa158015612060573d6000803e3d6000fd5b505050506040513d601f19601f820116820180604052508101906120849190614e95565b61208e9190614eae565b10156121255760405162461bcd60e51b815260206004820152606660248201526000805160206151d983398151915260448201527f7265733a205374616b6552656769737472792075706461746573206d7573742060648201527f62652077697468696e207769746864726177616c44656c6179426c6f636b732060848201526577696e646f7760d01b60a482015260c4016105e4565b7f00000000000000000000000000000000000000000000000000000000000000006001600160a01b03166368bccaac8d8d8481811061216657612166614ad2565b9050013560f81c60f81b60f81c8c8c60a00151858151811061218a5761218a614ad2565b60209081029190910101516040516001600160e01b031960e086901b16815260ff909316600484015263ffffffff9182166024840152166044820152606401602060405180830381865afa1580156121e6573d6000803e3d6000fd5b505050506040513d601f19601f8201168201806040525081019061220a9190614ec6565b6001600160401b03191661222d8a604001518381518110611cb057611cb0614ad2565b67ffffffffffffffff1916146122c95760405162461bcd60e51b815260206004820152606160248201526000805160206151d983398151915260448201527f7265733a2071756f72756d41706b206861736820696e2073746f72616765206460648201527f6f6573206e6f74206d617463682070726f76696465642071756f72756d2061706084820152606b60f81b60a482015260c4016105e4565b6122f9896040015182815181106122e2576122e2614ad2565b60200260200101518761324590919063ffffffff16565b95507f00000000000000000000000000000000000000000000000000000000000000006001600160a01b031663c8294c568d8d8481811061233c5761233c614ad2565b9050013560f81c60f81b60f81c8c8c60c00151858151811061236057612360614ad2565b60209081029190910101516040516001600160e01b031960e086901b16815260ff909316600484015263ffffffff9182166024840152166044820152606401602060405180830381865afa1580156123bc573d6000803e3d6000fd5b505050506040513d601f19601f820116820180604052508101906123e09190614b9a565b856020015182815181106123f6576123f6614ad2565b6001600160601b0390921660209283029190910182015285015180518290811061242257612422614ad2565b60200260200101518560000151828151811061244057612440614ad2565b60200260200101906001600160601b031690816001600160601b0316815250506000805b8a602001515181101561262e576124b88660000151828151811061248a5761248a614ad2565b60200260200101518f8f868181106124a4576124a4614ad2565b600192013560f81c9290921c811614919050565b1561261c577f00000000000000000000000000000000000000000000000000000000000000006001600160a01b031663f2be94ae8f8f868181106124fe576124fe614ad2565b9050013560f81c60f81b60f81c8e8960200151858151811061252257612522614ad2565b60200260200101518f60e00151888151811061254057612540614ad2565b6020026020010151878151811061255957612559614ad2565b60209081029190910101516040516001600160e01b031960e087901b16815260ff909416600485015263ffffffff92831660248501526044840191909152166064820152608401602060405180830381865afa1580156125bd573d6000803e3d6000fd5b505050506040513d601f19601f820116820180604052508101906125e19190614b9a565b87518051859081106125f5576125f5614ad2565b602002602001018181516126099190614ef1565b6001600160601b03169052506001909101905b8061262681614bd9565b915050612464565b5050808061263b90614bd9565b915050611fc9565b50505060008061265d8c868a606001518b60800151610738565b91509150816126ce5760405162461bcd60e51b815260206004820152604360248201526000805160206151d983398151915260448201527f7265733a2070616972696e6720707265636f6d70696c652063616c6c206661696064820152621b195960ea1b608482015260a4016105e4565b8061272f5760405162461bcd60e51b815260206004820152603960248201526000805160206151d983398151915260448201527f7265733a207369676e617475726520697320696e76616c69640000000000000060648201526084016105e4565b5050600087826020015160405160200161274a929190614f19565b60408051808303601f190181529190528051602090910120929b929a509198505050505050505050565b61277c6138b2565b612786600061390c565b565b60408051600180825281830190925260009160609183916020808301908036833701905050905084816000815181106127c3576127c3614ad2565b60209081029190910101526040516361c8a12f60e11b81526000906001600160a01b0388169063c391425e906127ff9088908690600401614f61565b600060405180830381865afa15801561281c573d6000803e3d6000fd5b505050506040513d6000823e601f3d908101601f191682016040526128449190810190614c3e565b60008151811061285657612856614ad2565b60209081029190910101516040516304ec635160e01b81526004810188905263ffffffff87811660248301529091166044820181905291506000906001600160a01b038916906304ec635190606401602060405180830381865afa1580156128c2573d6000803e3d6000fd5b505050506040513d601f19601f820116820180604052508101906128e69190614d1e565b6001600160c01b0316905060006128fc8261395e565b90508161290a8a838a6108c2565b9550955050505050935093915050565b60cc546001600160a01b031633146129745760405162461bcd60e51b815260206004820152601d60248201527f41676772656761746f72206d757374206265207468652063616c6c657200000060448201526064016105e4565b600061298660408501602086016140c3565b90503660006129986040870187614fb5565b909250905060006129af60808801606089016140c3565b905060ca60006129c260208901896140c3565b63ffffffff1663ffffffff16815260200190815260200160002054876040516020016129ee9190614ffb565b6040516020818303038152906040528051906020012014612a775760405162461bcd60e51b815260206004820152603d60248201527f737570706c696564207461736b20646f6573206e6f74206d617463682074686560448201527f206f6e65207265636f7264656420696e2074686520636f6e747261637400000060648201526084016105e4565b600060cb81612a8960208a018a6140c3565b63ffffffff1663ffffffff1681526020019081526020016000205414612b065760405162461bcd60e51b815260206004820152602c60248201527f41676772656761746f722068617320616c726561647920726573706f6e64656460448201526b20746f20746865207461736b60a01b60648201526084016105e4565b612b307f000000000000000000000000000000000000000000000000000000000000000085614e39565b63ffffffff164363ffffffff161115612ba15760405162461bcd60e51b815260206004820152602d60248201527f41676772656761746f722068617320726573706f6e64656420746f207468652060448201526c7461736b20746f6f206c61746560981b60648201526084016105e4565b600086604051602001612bb491906150ce565b604051602081830303815290604052805190602001209050600080612bdc8387878a8c61185b565b6040805160808101825263ffffffff43168152602080820184905280850151828401528451606083015291519395509193509091612c1e918c918491016150dc565b6040516020818303038152906040528051906020012060cb60008c6000016020810190612c4b91906140c3565b63ffffffff1663ffffffff168152602001908152602001600020819055507fb6b77f791d125b1522410ab3adf6a5ea133c836a193ce67ed29c129ca1d8f5c08a82604051612c9a9291906150dc565b60405180910390a160005b86811015612d3b578560ff1684602001518281518110612cc757612cc7614ad2565b6020026020010151612cd99190615148565b6001600160601b0316606485600001518381518110612cfa57612cfa614ad2565b60200260200101516001600160601b0316612d159190615177565b1015612d2957505050505050505050505050565b80612d3381614bd9565b915050612ca5565b5060608a013560ce5560208a01803590612d55908c6140c3565b63ffffffff167f8378be8a33cf3a493910a16e275cd96af4f048c5eb1a2c2962d4066e697fea8060405160405180910390a35050505050505050505050565b612d9c6138b2565b6001600160a01b038116612e015760405162461bcd60e51b815260206004820152602660248201527f4f776e61626c653a206e6577206f776e657220697320746865207a65726f206160448201526564647265737360d01b60648201526084016105e4565b6105f68161390c565b600054610100900460ff1615808015612e2a5750600054600160ff909116105b80612e445750303b158015612e44575060005460ff166001145b612ea75760405162461bcd60e51b815260206004820152602e60248201527f496e697469616c697a61626c653a20636f6e747261637420697320616c72656160448201526d191e481a5b9a5d1a585b1a5e995960921b60648201526084016105e4565b6000805460ff191660011790558015612eca576000805461ff0019166101001790555b612ed5856000613a2a565b612ede8461390c565b60cc80546001600160a01b038086166001600160a01b03199283161790925560cd8054928516929091169190911790558015612f54576000805461ff0019169055604051600181527f7f26b83ff96e1f2b6a682f133852f6798a09c465da95921460cefb38474024989060200160405180910390a15b5050505050565b606560009054906101000a90046001600160a01b03166001600160a01b031663eab66d7a6040518163ffffffff1660e01b8152600401602060405180830381865afa158015612fae573d6000803e3d6000fd5b505050506040513d601f19601f82011682018060405250810190612fd29190614a06565b6001600160a01b0316336001600160a01b0316146130025760405162461bcd60e51b81526004016105e490614a23565b6066541981196066541916146130805760405162461bcd60e51b815260206004820152603860248201527f5061757361626c652e756e70617573653a20696e76616c696420617474656d7060448201527f7420746f2070617573652066756e6374696f6e616c697479000000000000000060648201526084016105e4565b606681905560405181815233907f3582d1828e26bf56bd801502bc021ac0bc8afb57c826e4986b45593c8fad389c9060200161072d565b6001600160a01b0381166131455760405162461bcd60e51b815260206004820152604960248201527f5061757361626c652e5f73657450617573657252656769737472793a206e657760448201527f50617573657252656769737472792063616e6e6f7420626520746865207a65726064820152686f206164647265737360b81b608482015260a4016105e4565b606554604080516001600160a01b03928316815291831660208301527f6e9fcd539896fca60e8b0f01dd580233e48a6b0f7df013b89ba7f565869acdb6910160405180910390a1606580546001600160a01b0319166001600160a01b0392909216919091179055565b60408051808201909152600080825260208201526131ca613dcb565b835181526020808501519082015260408082018490526000908360608460076107d05a03fa90508080156131fd576131ff565bfe5b508061323d5760405162461bcd60e51b815260206004820152600d60248201526c1958cb5b5d5b0b59985a5b1959609a1b60448201526064016105e4565b505092915050565b6040805180820190915260008082526020820152613261613de9565b835181526020808501518183015283516040808401919091529084015160608301526000908360808460066107d05a03fa90508080156131fd57508061323d5760405162461bcd60e51b815260206004820152600d60248201526c1958cb5859190b59985a5b1959609a1b60448201526064016105e4565b6132e1613e07565b50604080516080810182527f198e9393920d483a7260bfb731fb5d25f1aa493335a9e71297e485b7aef312c28183019081527f1800deef121f1e76426a00665e5c4479674322d4f75edadd46debd5cd992f6ed6060830152815281518083019092527f275dc4a288d1afb3cbb1ac09187524c7db36395df7be3b99e673b13a075a65ec82527f1d9befcd05a5323e6da4d435f3b617cdb3af83285c2df711ef39c01571827f9d60208381019190915281019190915290565b6040805180820190915260008082526020820152600080806133c96000805160206151b983398151915286614ae8565b90505b6133d581613b14565b90935091506000805160206151b983398151915282830983141561340f576040805180820190915290815260208101919091529392505050565b6000805160206151b98339815191526001820890506133cc565b60408051808201825286815260208082018690528251808401909352868352820184905260009182919061345b613e2c565b60005b6002811015613620576000613474826006615177565b905084826002811061348857613488614ad2565b6020020151518361349a836000614eae565b600c81106134aa576134aa614ad2565b60200201528482600281106134c1576134c1614ad2565b602002015160200151838260016134d89190614eae565b600c81106134e8576134e8614ad2565b60200201528382600281106134ff576134ff614ad2565b6020020151515183613512836002614eae565b600c811061352257613522614ad2565b602002015283826002811061353957613539614ad2565b6020020151516001602002015183613552836003614eae565b600c811061356257613562614ad2565b602002015283826002811061357957613579614ad2565b60200201516020015160006002811061359457613594614ad2565b6020020151836135a5836004614eae565b600c81106135b5576135b5614ad2565b60200201528382600281106135cc576135cc614ad2565b6020020151602001516001600281106135e7576135e7614ad2565b6020020151836135f8836005614eae565b600c811061360857613608614ad2565b6020020152508061361881614bd9565b91505061345e565b50613629613e4b565b60006020826101808560088cfa9151919c9115159b50909950505050505050505050565b60008061365984613b96565b905080156136ff578260ff1684600186516136749190614e7e565b8151811061368457613684614ad2565b016020015160f81c106136ff5760405162461bcd60e51b815260206004820152603f60248201527f4269746d61705574696c732e6f72646572656442797465734172726179546f4260448201527f69746d61703a206269746d61702065786365656473206d61782076616c75650060648201526084016105e4565b90505b92915050565b6000805b82156137025761371d600184614e7e565b909216918061372b81615196565b91505061370c565b60408051808201909152600080825260208201526102008261ffff161061378f5760405162461bcd60e51b815260206004820152601060248201526f7363616c61722d746f6f2d6c6172676560801b60448201526064016105e4565b8161ffff16600114156137a3575081613702565b6040805180820190915260008082526020820181905284906001905b8161ffff168661ffff161061380c57600161ffff871660ff83161c811614156137ef576137ec8484613245565b93505b6137f98384613245565b92506201fffe600192831b1691016137bf565b509195945050505050565b6040805180820190915260008082526020820152815115801561383c57506020820151155b1561385a575050604080518082019091526000808252602082015290565b6040518060400160405280836000015181526020016000805160206151b9833981519152846020015161388d9190614ae8565b6138a5906000805160206151b9833981519152614e7e565b905292915050565b919050565b6033546001600160a01b031633146127865760405162461bcd60e51b815260206004820181905260248201527f4f776e61626c653a2063616c6c6572206973206e6f7420746865206f776e657260448201526064016105e4565b603380546001600160a01b038381166001600160a01b0319831681179093556040519116919082907f8be0079c531659141344cd1fd0a4f28419497f9722a3daafe3b4186f6b6457e090600090a35050565b606060008061396c84613708565b61ffff166001600160401b0381111561398757613987613ef0565b6040519080825280601f01601f1916602001820160405280156139b1576020820181803683370190505b5090506000805b8251821080156139c9575061010081105b15613a20576001811b935085841615613a10578060f81b8383815181106139f2576139f2614ad2565b60200101906001600160f81b031916908160001a9053508160010191505b613a1981614bd9565b90506139b8565b5090949350505050565b6065546001600160a01b0316158015613a4b57506001600160a01b03821615155b613acd5760405162461bcd60e51b815260206004820152604760248201527f5061757361626c652e5f696e697469616c697a655061757365723a205f696e6960448201527f7469616c697a6550617573657228292063616e206f6e6c792062652063616c6c6064820152666564206f6e636560c81b608482015260a4016105e4565b606681905560405181815233907fab40a374bc51de372200a8bc981af8c9ecdc08dfdaef0bb6e09f88f3c616ef3d9060200160405180910390a2613b10826130b7565b5050565b600080806000805160206151b983398151915260036000805160206151b9833981519152866000805160206151b9833981519152888909090890506000613b8a827f0c19139cb84c680a6e14116da060561765e05aa45a1c72a34f082305b61f3f526000805160206151b9833981519152613d23565b91959194509092505050565b600061010082511115613c1f5760405162461bcd60e51b8152602060048201526044602482018190527f4269746d61705574696c732e6f72646572656442797465734172726179546f42908201527f69746d61703a206f7264657265644279746573417272617920697320746f6f206064820152636c6f6e6760e01b608482015260a4016105e4565b8151613c2d57506000919050565b60008083600081518110613c4357613c43614ad2565b0160200151600160f89190911c81901b92505b8451811015613d1a57848181518110613c7157613c71614ad2565b0160200151600160f89190911c1b9150828211613d065760405162461bcd60e51b815260206004820152604760248201527f4269746d61705574696c732e6f72646572656442797465734172726179546f4260448201527f69746d61703a206f72646572656442797465734172726179206973206e6f74206064820152661bdc99195c995960ca1b608482015260a4016105e4565b91811791613d1381614bd9565b9050613c56565b50909392505050565b600080613d2e613e4b565b613d36613e69565b602080825281810181905260408201819052606082018890526080820187905260a082018690528260c08360056107d05a03fa92508280156131fd575082613dc05760405162461bcd60e51b815260206004820152601a60248201527f424e3235342e6578704d6f643a2063616c6c206661696c75726500000000000060448201526064016105e4565b505195945050505050565b60405180606001604052806003906020820280368337509192915050565b60405180608001604052806004906020820280368337509192915050565b6040518060400160405280613e1a613e87565b8152602001613e27613e87565b905290565b604051806101800160405280600c906020820280368337509192915050565b60405180602001604052806001906020820280368337509192915050565b6040518060c001604052806006906020820280368337509192915050565b60405180604001604052806002906020820280368337509192915050565b6001600160a01b03811681146105f657600080fd5b600060208284031215613ecc57600080fd5b81356136ff81613ea5565b600060208284031215613ee957600080fd5b5035919050565b634e487b7160e01b600052604160045260246000fd5b604080519081016001600160401b0381118282101715613f2857613f28613ef0565b60405290565b60405161010081016001600160401b0381118282101715613f2857613f28613ef0565b604051601f8201601f191681016001600160401b0381118282101715613f7957613f79613ef0565b604052919050565b600060408284031215613f9357600080fd5b613f9b613f06565b9050813581526020820135602082015292915050565b600082601f830112613fc257600080fd5b604051604081018181106001600160401b0382111715613fe457613fe4613ef0565b8060405250806040840185811115613ffb57600080fd5b845b8181101561380c578035835260209283019201613ffd565b60006080828403121561402757600080fd5b61402f613f06565b905061403b8383613fb1565b815261404a8360408401613fb1565b602082015292915050565b600080600080610120858703121561406c57600080fd5b8435935061407d8660208701613f81565b925061408c8660608701614015565b915061409b8660e08701613f81565b905092959194509250565b63ffffffff811681146105f657600080fd5b80356138ad816140a6565b6000602082840312156140d557600080fd5b81356136ff816140a6565b6000806000606084860312156140f557600080fd5b833561410081613ea5565b92506020848101356001600160401b038082111561411d57600080fd5b818701915087601f83011261413157600080fd5b81358181111561414357614143613ef0565b614155601f8201601f19168501613f51565b9150808252888482850101111561416b57600080fd5b808484018584013760008482840101525080945050505061418e604085016140b8565b90509250925092565b600081518084526020808501808196508360051b810191508286016000805b8681101561422d578385038a52825180518087529087019087870190845b8181101561421857835180516001600160a01b031684528a8101518b8501526040908101516001600160601b031690840152928901926060909201916001016141d4565b50509a87019a955050918501916001016141b6565b509298975050505050505050565b60208152600061424e6020830184614197565b9392505050565b80151581146105f657600080fd5b60006020828403121561427557600080fd5b81356136ff81614255565b60008083601f84011261429257600080fd5b5081356001600160401b038111156142a957600080fd5b6020830191508360208285010111156142c157600080fd5b9250929050565b600080600080600080608087890312156142e157600080fd5b86356142ec81613ea5565b955060208701356142fc816140a6565b945060408701356001600160401b038082111561431857600080fd5b6143248a838b01614280565b9096509450606089013591508082111561433d57600080fd5b818901915089601f83011261435157600080fd5b81358181111561436057600080fd5b8a60208260051b850101111561437557600080fd5b6020830194508093505050509295509295509295565b600081518084526020808501945080840160005b838110156143c157815163ffffffff168752958201959082019060010161439f565b509495945050505050565b6000602080835283516080828501526143e860a085018261438b565b905081850151601f1980868403016040870152614405838361438b565b92506040870151915080868403016060870152614422838361438b565b60608801518782038301608089015280518083529194508501925084840190600581901b8501860160005b82811015614479578487830301845261446782875161438b565b9588019593880193915060010161444d565b509998505050505050505050565b60ff811681146105f657600080fd5b6000602082840312156144a857600080fd5b81356136ff81614487565b600080600080606085870312156144c957600080fd5b8435935060208501356144db816140a6565b925060408501356001600160401b038111156144f657600080fd5b61450287828801614280565b95989497509550505050565b60006001600160401b0382111561452757614527613ef0565b5060051b60200190565b600082601f83011261454257600080fd5b813560206145576145528361450e565b613f51565b82815260059290921b8401810191818101908684111561457657600080fd5b8286015b8481101561459a57803561458d816140a6565b835291830191830161457a565b509695505050505050565b600082601f8301126145b657600080fd5b813560206145c66145528361450e565b82815260069290921b840181019181810190868411156145e557600080fd5b8286015b8481101561459a576145fb8882613f81565b8352918301916040016145e9565b600082601f83011261461a57600080fd5b8135602061462a6145528361450e565b82815260059290921b8401810191818101908684111561464957600080fd5b8286015b8481101561459a5780356001600160401b0381111561466c5760008081fd5b61467a8986838b0101614531565b84525091830191830161464d565b6000610180828403121561469b57600080fd5b6146a3613f2e565b905081356001600160401b03808211156146bc57600080fd5b6146c885838601614531565b835260208401359150808211156146de57600080fd5b6146ea858386016145a5565b6020840152604084013591508082111561470357600080fd5b61470f858386016145a5565b60408401526147218560608601614015565b60608401526147338560e08601613f81565b608084015261012084013591508082111561474d57600080fd5b61475985838601614531565b60a084015261014084013591508082111561477357600080fd5b61477f85838601614531565b60c084015261016084013591508082111561479957600080fd5b506147a684828501614609565b60e08301525092915050565b6000806000806000608086880312156147ca57600080fd5b8535945060208601356001600160401b03808211156147e857600080fd5b6147f489838a01614280565b909650945060408801359150614809826140a6565b9092506060870135908082111561481f57600080fd5b5061482c88828901614688565b9150509295509295909350565b600081518084526020808501945080840160005b838110156143c15781516001600160601b03168752958201959082019060010161484d565b604081526000835160408084015261488d6080840182614839565b90506020850151603f198483030160608501526148aa8282614839565b925050508260208301529392505050565b6000806000606084860312156148d057600080fd5b83356148db81613ea5565b92506020840135915060408401356148f2816140a6565b809150509250925092565b8281526040602082015260006149166040830184614197565b949350505050565b60006080828403121561493057600080fd5b50919050565b600080600060c0848603121561494b57600080fd5b83356001600160401b038082111561496257600080fd5b61496e8783880161491e565b945061497d876020880161491e565b935060a086013591508082111561499357600080fd5b506149a086828701614688565b9150509250925092565b600080600080608085870312156149c057600080fd5b84356149cb81613ea5565b935060208501356149db81613ea5565b925060408501356149eb81613ea5565b915060608501356149fb81613ea5565b939692955090935050565b600060208284031215614a1857600080fd5b81516136ff81613ea5565b6020808252602a908201527f6d73672e73656e646572206973206e6f74207065726d697373696f6e6564206160408201526939903ab73830bab9b2b960b11b606082015260800190565b600060208284031215614a7f57600080fd5b81516136ff81614255565b60208082526028908201527f6d73672e73656e646572206973206e6f74207065726d697373696f6e6564206160408201526739903830bab9b2b960c11b606082015260800190565b634e487b7160e01b600052603260045260246000fd5b600082614b0557634e487b7160e01b600052601260045260246000fd5b500690565b60006020808385031215614b1d57600080fd5b82516001600160401b03811115614b3357600080fd5b8301601f81018513614b4457600080fd5b8051614b526145528261450e565b81815260059190911b82018301908381019087831115614b7157600080fd5b928401925b82841015614b8f57835182529284019290840190614b76565b979650505050505050565b600060208284031215614bac57600080fd5b81516001600160601b03811681146136ff57600080fd5b634e487b7160e01b600052601160045260246000fd5b6000600019821415614bed57614bed614bc3565b5060010190565b63ffffffff84168152604060208201819052810182905260006001600160fb1b03831115614c2157600080fd5b8260051b8085606085013760009201606001918252509392505050565b60006020808385031215614c5157600080fd5b82516001600160401b03811115614c6757600080fd5b8301601f81018513614c7857600080fd5b8051614c866145528261450e565b81815260059190911b82018301908381019087831115614ca557600080fd5b928401925b82841015614b8f578351614cbd816140a6565b82529284019290840190614caa565b81835281816020850137506000828201602090810191909152601f909101601f19169091010190565b63ffffffff84168152604060208201526000614d15604083018486614ccc565b95945050505050565b600060208284031215614d3057600080fd5b81516001600160c01b03811681146136ff57600080fd5b600060208284031215614d5957600080fd5b81516136ff816140a6565b600060ff821660ff811415614d7b57614d7b614bc3565b60010192915050565b604081526000614d98604083018587614ccc565b905063ffffffff83166020830152949350505050565b6000602080835283518184015263ffffffff8185015116604084015260408401516080606085015280518060a086015260005b81811015614dfd5782810184015186820160c001528301614de1565b81811115614e0f57600060c083880101525b50606086015163ffffffff811660808701529250601f01601f19169390930160c001949350505050565b600063ffffffff808316818516808303821115614e5857614e58614bc3565b01949350505050565b600060208284031215614e7357600080fd5b81516136ff81614487565b600082821015614e9057614e90614bc3565b500390565b600060208284031215614ea757600080fd5b5051919050565b60008219821115614ec157614ec1614bc3565b500190565b600060208284031215614ed857600080fd5b815167ffffffffffffffff19811681146136ff57600080fd5b60006001600160601b0383811690831681811015614f1157614f11614bc3565b039392505050565b63ffffffff60e01b8360e01b1681526000600482018351602080860160005b83811015614f5457815185529382019390820190600101614f38565b5092979650505050505050565b60006040820163ffffffff851683526020604081850152818551808452606086019150828701935060005b81811015614fa857845183529383019391830191600101614f8c565b5090979650505050505050565b6000808335601e19843603018112614fcc57600080fd5b8301803591506001600160401b03821115614fe657600080fd5b6020019150368190038213156142c157600080fd5b602081528135602082015260006020830135615016816140a6565b63ffffffff81166040840152506040830135601e1984360301811261503a57600080fd5b830180356001600160401b0381111561505257600080fd5b80360385131561506157600080fd5b6080606085015261507960a085018260208501614ccc565b915050615088606085016140b8565b63ffffffff81166080850152509392505050565b80356150a7816140a6565b63ffffffff1682526020818101359083015260408082013590830152606090810135910152565b60808101613702828461509c565b6150e6818461509c565b60a0608082015263ffffffff82511660a0820152602082015160c082015260006040830151608060e0840152615120610120840182614839565b90506060840151609f198483030161010085015261513e8282614839565b9695505050505050565b60006001600160601b038083168185168183048111821515161561516e5761516e614bc3565b02949350505050565b600081600019048311821515161561519157615191614bc3565b500290565b600061ffff808316818114156151ae576151ae614bc3565b600101939250505056fe30644e72e131a029b85045b68181585d97816a916871ca8d3c208c16d87cfd47424c535369676e6174757265436865636b65722e636865636b5369676e617475a2646970667358221220a5cf49cc2a6798faa9d031ad1cd1377bfd3f6ab8ab6c2376ce530296ce16942b64736f6c634300080c0033",
    "linkReferences": {}
  },
  "methodIdentifiers": {
    "aggregator()": "245a7bfc",
    "allTaskHashes(uint32)": "2d89f6fc",
    "allTaskResponses(uint32)": "2cb223d5",
    "blsApkRegistry()": "5df45946",
    "checkSignatures(bytes32,bytes,uint32,(uint32[],(uint256,uint256)[],(uint256,uint256)[],(uint256[2],uint256[2]),(uint256,uint256),uint32[],uint32[],uint32[][]))": "6efb4636",
    "createNewTask(uint256,uint32,bytes)": "6b92787e",
    "delegation()": "df5cf723",
    "generator()": "7afa1eed",
    "getCheckSignaturesIndices(address,uint32,bytes,bytes32[])": "4f739f74",
    "getLatestPendingStateHash()": "0373408d",
    "getOperatorState(address,bytes,uint32)": "3563b0d1",
    "getOperatorState(address,bytes32,uint32)": "cefdc1d4",
    "getTaskResponseWindowBlock()": "f5c9899d",
    "initialize(address,address,address,address)": "f8c8765e",
    "latestTaskNum()": "8b00ce7c",
    "owner()": "8da5cb5b",
    "pause(uint256)": "136439dd",
    "pauseAll()": "595c6a67",
    "paused()": "5c975abb",
    "paused(uint8)": "5ac86ab7",
    "pauserRegistry()": "886f1195",
    "registryCoordinator()": "6d14a987",
    "renounceOwnership()": "715018a6",
    "respondToTask((uint256,uint32,bytes,uint32),(uint32,bytes32,bytes32,bytes32),(uint32[],(uint256,uint256)[],(uint256,uint256)[],(uint256[2],uint256[2]),(uint256,uint256),uint32[],uint32[],uint32[][]))": "e4e3ad77",
    "setPauserRegistry(address)": "10d67a2f",
    "setStaleStakesForbidden(bool)": "416c7e5e",
    "stakeRegistry()": "68304835",
    "staleStakesForbidden()": "b98d0908",
    "taskNumber()": "72d18e8d",
    "transferOwnership(address)": "f2fde38b",
    "trySignatureAndApkVerification(bytes32,(uint256,uint256),(uint256[2],uint256[2]),(uint256,uint256))": "171f1d5b",
    "unpause(uint256)": "fabc1cbc"
  },
  "id": 125
}