{"abi":[{"type":"function","name":"THRESHOLD_DENOMINATOR","inputs":[],"outputs":[{"name":"","type":"uint256","internalType":"uint256"}],"stateMutability":"view"},{"type":"function","name":"aggregator","inputs":[],"outputs":[{"name":"","type":"address","internalType":"address"}],"stateMutability":"view"},{"type":"function","name":"allTaskHashes","inputs":[{"name":"","type":"uint8","internalType":"enum FinalizerTaskManager.TaskType"},{"name":"","type":"uint32","internalType":"uint32"}],"outputs":[{"name":"","type":"bytes32","internalType":"bytes32"}],"stateMutability":"view"},{"type":"function","name":"allTaskResponses","inputs":[{"name":"","type":"uint8","internalType":"enum FinalizerTaskManager.TaskType"},{"name":"","type":"uint32","internalType":"uint32"}],"outputs":[{"name":"","type":"bytes32","internalType":"bytes32"}],"stateMutability":"view"},{"type":"function","name":"allowNonRootInit","inputs":[],"outputs":[{"name":"","type":"bool","internalType":"bool"}],"stateMutability":"view"},{"type":"function","name":"blsApkRegistry","inputs":[],"outputs":[{"name":"","type":"address","internalType":"contract IBLSApkRegistry"}],"stateMutability":"view"},{"type":"function","name":"blsSignatureChecker","inputs":[],"outputs":[{"name":"","type":"address","internalType":"contract BLSSignatureChecker"}],"stateMutability":"view"},{"type":"function","name":"checkSignatures","inputs":[{"name":"msgHash","type":"bytes32","internalType":"bytes32"},{"name":"quorumNumbers","type":"bytes","internalType":"bytes"},{"name":"referenceBlockNumber","type":"uint32","internalType":"uint32"},{"name":"nonSignerStakesAndSignature","type":"tuple","internalType":"struct IBLSSignatureChecker.NonSignerStakesAndSignature","components":[{"name":"nonSignerQuorumBitmapIndices","type":"uint32[]","internalType":"uint32[]"},{"name":"nonSignerPubkeys","type":"tuple[]","internalType":"struct BN254.G1Point[]","components":[{"name":"X","type":"uint256","internalType":"uint256"},{"name":"Y","type":"uint256","internalType":"uint256"}]},{"name":"quorumApks","type":"tuple[]","internalType":"struct BN254.G1Point[]","components":[{"name":"X","type":"uint256","internalType":"uint256"},{"name":"Y","type":"uint256","internalType":"uint256"}]},{"name":"apkG2","type":"tuple","internalType":"struct BN254.G2Point","components":[{"name":"X","type":"uint256[2]","internalType":"uint256[2]"},{"name":"Y","type":"uint256[2]","internalType":"uint256[2]"}]},{"name":"sigma","type":"tuple","internalType":"struct BN254.G1Point","components":[{"name":"X","type":"uint256","internalType":"uint256"},{"name":"Y","type":"uint256","internalType":"uint256"}]},{"name":"quorumApkIndices","type":"uint32[]","internalType":"uint32[]"},{"name":"totalStakeIndices","type":"uint32[]","internalType":"uint32[]"},{"name":"nonSignerStakeIndices","type":"uint32[][]","internalType":"uint32[][]"}]}],"outputs":[{"name":"","type":"tuple","internalType":"struct IBLSSignatureChecker.QuorumStakeTotals","components":[{"name":"signedStakeForQuorum","type":"uint96[]","internalType":"uint96[]"},{"name":"totalStakeForQuorum","type":"uint96[]","internalType":"uint96[]"}]},{"name":"","type":"bytes32","internalType":"bytes32"}],"stateMutability":"view"},{"type":"function","name":"createNewOpTask","inputs":[{"name":"quorumThresholdPercentage","type":"uint32","internalType":"uint32"},{"name":"quorumNumbers","type":"bytes","internalType":"bytes"}],"outputs":[],"stateMutability":"nonpayable"},{"type":"function","name":"createNewRdTask","inputs":[{"name":"blockNumber","type":"uint256","internalType":"uint256"}],"outputs":[],"stateMutability":"nonpayable"},{"type":"function","name":"delegation","inputs":[],"outputs":[{"name":"","type":"address","internalType":"contract IDelegationManager"}],"stateMutability":"view"},{"type":"function","name":"dummyForOperatorStateInfoType","inputs":[{"name":"_operatorStateInfo","type":"tuple","internalType":"struct IGaspMultiRollupServicePrimitives.OperatorStateInfo","components":[{"name":"operatorsStateChanged","type":"bool","internalType":"bool"},{"name":"quorumsRemoved","type":"uint8[]","internalType":"uint8[]"},{"name":"quorumsAdded","type":"tuple[]","internalType":"struct IGaspMultiRollupServicePrimitives.QuorumsAdded[]","components":[{"name":"quorumNumber","type":"uint8","internalType":"uint8"},{"name":"quorumStake","type":"uint96","internalType":"uint96"},{"name":"quorumApk","type":"tuple","internalType":"struct BN254.G1Point","components":[{"name":"X","type":"uint256","internalType":"uint256"},{"name":"Y","type":"uint256","internalType":"uint256"}]}]},{"name":"quorumsStakeUpdate","type":"tuple[]","internalType":"struct IGaspMultiRollupServicePrimitives.QuorumsStakeUpdate[]","components":[{"name":"quorumNumber","type":"uint8","internalType":"uint8"},{"name":"quorumStake","type":"uint96","internalType":"uint96"}]},{"name":"quorumsApkUpdate","type":"tuple[]","internalType":"struct IGaspMultiRollupServicePrimitives.QuorumsApkUpdate[]","components":[{"name":"quorumNumber","type":"uint8","internalType":"uint8"},{"name":"quorumApk","type":"tuple","internalType":"struct BN254.G1Point","components":[{"name":"X","type":"uint256","internalType":"uint256"},{"name":"Y","type":"uint256","internalType":"uint256"}]}]},{"name":"operatorsRemoved","type":"bytes32[]","internalType":"bytes32[]"},{"name":"operatorsAdded","type":"tuple[]","internalType":"struct IGaspMultiRollupServicePrimitives.OperatorsAdded[]","components":[{"name":"operatorId","type":"bytes32","internalType":"bytes32"},{"name":"quorumForStakes","type":"uint8[]","internalType":"uint8[]"},{"name":"quorumStakes","type":"uint96[]","internalType":"uint96[]"},{"name":"quorumCount","type":"uint8","internalType":"uint8"}]},{"name":"operatorsStakeUpdate","type":"tuple[]","internalType":"struct IGaspMultiRollupServicePrimitives.OperatorsStakeUpdate[]","components":[{"name":"operatorId","type":"bytes32","internalType":"bytes32"},{"name":"quorumForStakes","type":"uint8[]","internalType":"uint8[]"},{"name":"quorumStakes","type":"uint96[]","internalType":"uint96[]"}]},{"name":"operatorsQuorumCountUpdate","type":"tuple[]","internalType":"struct IGaspMultiRollupServicePrimitives.OperatorsQuorumCountUpdate[]","components":[{"name":"operatorId","type":"bytes32","internalType":"bytes32"},{"name":"quorumCount","type":"uint8","internalType":"uint8"}]}]}],"outputs":[],"stateMutability":"view"},{"type":"function","name":"dummyForQuorumStakeTotalsType","inputs":[{"name":"_quorumStakeTotals","type":"tuple","internalType":"struct IBLSSignatureChecker.QuorumStakeTotals","components":[{"name":"signedStakeForQuorum","type":"uint96[]","internalType":"uint96[]"},{"name":"totalStakeForQuorum","type":"uint96[]","internalType":"uint96[]"}]}],"outputs":[],"stateMutability":"view"},{"type":"function","name":"forceCreateNewOpTask","inputs":[{"name":"quorumThresholdPercentage","type":"uint32","internalType":"uint32"},{"name":"quorumNumbers","type":"bytes","internalType":"bytes"}],"outputs":[],"stateMutability":"nonpayable"},{"type":"function","name":"forceRespondToOpTask","inputs":[{"name":"task","type":"tuple","internalType":"struct IFinalizerTaskManager.OpTask","components":[{"name":"taskNum","type":"uint32","internalType":"uint32"},{"name":"taskCreatedBlock","type":"uint32","internalType":"uint32"},{"name":"lastCompletedOpTaskCreatedBlock","type":"uint32","internalType":"uint32"},{"name":"quorumNumbers","type":"bytes","internalType":"bytes"},{"name":"quorumThresholdPercentage","type":"uint32","internalType":"uint32"},{"name":"lastCompletedOpTaskQuorumNumbers","type":"bytes","internalType":"bytes"},{"name":"lastCompletedOpTaskQuorumThresholdPercentage","type":"uint32","internalType":"uint32"}]},{"name":"taskResponse","type":"tuple","internalType":"struct IFinalizerTaskManager.OpTaskResponse","components":[{"name":"referenceTaskIndex","type":"uint32","internalType":"uint32"},{"name":"referenceTaskHash","type":"bytes32","internalType":"bytes32"},{"name":"operatorsStateInfoHash","type":"bytes32","internalType":"bytes32"}]}],"outputs":[],"stateMutability":"nonpayable"},{"type":"function","name":"generator","inputs":[],"outputs":[{"name":"","type":"address","internalType":"address"}],"stateMutability":"view"},{"type":"function","name":"getCheckSignaturesIndices","inputs":[{"name":"registryCoordinator","type":"address","internalType":"contract IRegistryCoordinator"},{"name":"referenceBlockNumber","type":"uint32","internalType":"uint32"},{"name":"quorumNumbers","type":"bytes","internalType":"bytes"},{"name":"nonSignerOperatorIds","type":"bytes32[]","internalType":"bytes32[]"}],"outputs":[{"name":"","type":"tuple","internalType":"struct OperatorStateRetriever.CheckSignaturesIndices","components":[{"name":"nonSignerQuorumBitmapIndices","type":"uint32[]","internalType":"uint32[]"},{"name":"quorumApkIndices","type":"uint32[]","internalType":"uint32[]"},{"name":"totalStakeIndices","type":"uint32[]","internalType":"uint32[]"},{"name":"nonSignerStakeIndices","type":"uint32[][]","internalType":"uint32[][]"}]}],"stateMutability":"view"},{"type":"function","name":"getOperatorState","inputs":[{"name":"registryCoordinator","type":"address","internalType":"contract IRegistryCoordinator"},{"name":"quorumNumbers","type":"bytes","internalType":"bytes"},{"name":"blockNumber","type":"uint32","internalType":"uint32"}],"outputs":[{"name":"","type":"tuple[][]","internalType":"struct OperatorStateRetriever.Operator[][]","components":[{"name":"operator","type":"address","internalType":"address"},{"name":"operatorId","type":"bytes32","internalType":"bytes32"},{"name":"stake","type":"uint96","internalType":"uint96"}]}],"stateMutability":"view"},{"type":"function","name":"getOperatorState","inputs":[{"name":"registryCoordinator","type":"address","internalType":"contract IRegistryCoordinator"},{"name":"operatorId","type":"bytes32","internalType":"bytes32"},{"name":"blockNumber","type":"uint32","internalType":"uint32"}],"outputs":[{"name":"","type":"uint256","internalType":"uint256"},{"name":"","type":"tuple[][]","internalType":"struct OperatorStateRetriever.Operator[][]","components":[{"name":"operator","type":"address","internalType":"address"},{"name":"operatorId","type":"bytes32","internalType":"bytes32"},{"name":"stake","type":"uint96","internalType":"uint96"}]}],"stateMutability":"view"},{"type":"function","name":"getQuorumBitmapsAtBlockNumber","inputs":[{"name":"registryCoordinator","type":"address","internalType":"contract IRegistryCoordinator"},{"name":"operatorIds","type":"bytes32[]","internalType":"bytes32[]"},{"name":"blockNumber","type":"uint32","internalType":"uint32"}],"outputs":[{"name":"","type":"uint256[]","internalType":"uint256[]"}],"stateMutability":"view"},{"type":"function","name":"idToTaskStatus","inputs":[{"name":"","type":"uint8","internalType":"enum FinalizerTaskManager.TaskType"},{"name":"","type":"uint32","internalType":"uint32"}],"outputs":[{"name":"","type":"uint8","internalType":"enum FinalizerTaskManager.TaskStatus"}],"stateMutability":"view"},{"type":"function","name":"initialize","inputs":[{"name":"_pauserRegistry","type":"address","internalType":"contract IPauserRegistry"},{"name":"initialOwner","type":"address","internalType":"address"},{"name":"_aggregator","type":"address","internalType":"address"},{"name":"_generator","type":"address","internalType":"address"},{"name":"_allowNonRootInit","type":"bool","internalType":"bool"},{"name":"_blsSignatureCheckerAddress","type":"address","internalType":"address"},{"name":"_taskResponseWindowBlock","type":"uint32","internalType":"uint32"},{"name":"_minOpTaskResponseWindowBlock","type":"uint32","internalType":"uint32"}],"outputs":[],"stateMutability":"nonpayable"},{"type":"function","name":"lastCompletedOpTaskCreatedBlock","inputs":[],"outputs":[{"name":"","type":"uint32","internalType":"uint32"}],"stateMutability":"view"},{"type":"function","name":"lastCompletedOpTaskNum","inputs":[],"outputs":[{"name":"","type":"uint32","internalType":"uint32"}],"stateMutability":"view"},{"type":"function","name":"lastCompletedOpTaskQuorumNumbers","inputs":[],"outputs":[{"name":"","type":"bytes","internalType":"bytes"}],"stateMutability":"view"},{"type":"function","name":"lastCompletedOpTaskQuorumThresholdPercentage","inputs":[],"outputs":[{"name":"","type":"uint32","internalType":"uint32"}],"stateMutability":"view"},{"type":"function","name":"lastOpTaskCreatedBlock","inputs":[],"outputs":[{"name":"","type":"uint32","internalType":"uint32"}],"stateMutability":"view"},{"type":"function","name":"latestOpTaskNum","inputs":[],"outputs":[{"name":"","type":"uint32","internalType":"uint32"}],"stateMutability":"view"},{"type":"function","name":"latestPendingStateHash","inputs":[],"outputs":[{"name":"","type":"bytes32","internalType":"bytes32"}],"stateMutability":"view"},{"type":"function","name":"latestRdTaskNum","inputs":[],"outputs":[{"name":"","type":"uint32","internalType":"uint32"}],"stateMutability":"view"},{"type":"function","name":"minOpTaskResponseWindowBlock","inputs":[],"outputs":[{"name":"","type":"uint32","internalType":"uint32"}],"stateMutability":"view"},{"type":"function","name":"operatorsStateInfoHash","inputs":[],"outputs":[{"name":"","type":"bytes32","internalType":"bytes32"}],"stateMutability":"view"},{"type":"function","name":"owner","inputs":[],"outputs":[{"name":"","type":"address","internalType":"address"}],"stateMutability":"view"},{"type":"function","name":"pause","inputs":[{"name":"newPausedStatus","type":"uint256","internalType":"uint256"}],"outputs":[],"stateMutability":"nonpayable"},{"type":"function","name":"pauseAll","inputs":[],"outputs":[],"stateMutability":"nonpayable"},{"type":"function","name":"paused","inputs":[{"name":"index","type":"uint8","internalType":"uint8"}],"outputs":[{"name":"","type":"bool","internalType":"bool"}],"stateMutability":"view"},{"type":"function","name":"paused","inputs":[],"outputs":[{"name":"","type":"uint256","internalType":"uint256"}],"stateMutability":"view"},{"type":"function","name":"pauserRegistry","inputs":[],"outputs":[{"name":"","type":"address","internalType":"contract IPauserRegistry"}],"stateMutability":"view"},{"type":"function","name":"registryCoordinator","inputs":[],"outputs":[{"name":"","type":"address","internalType":"contract IRegistryCoordinator"}],"stateMutability":"view"},{"type":"function","name":"renounceOwnership","inputs":[],"outputs":[],"stateMutability":"nonpayable"},{"type":"function","name":"respondToOpTask","inputs":[{"name":"task","type":"tuple","internalType":"struct IFinalizerTaskManager.OpTask","components":[{"name":"taskNum","type":"uint32","internalType":"uint32"},{"name":"taskCreatedBlock","type":"uint32","internalType":"uint32"},{"name":"lastCompletedOpTaskCreatedBlock","type":"uint32","internalType":"uint32"},{"name":"quorumNumbers","type":"bytes","internalType":"bytes"},{"name":"quorumThresholdPercentage","type":"uint32","internalType":"uint32"},{"name":"lastCompletedOpTaskQuorumNumbers","type":"bytes","internalType":"bytes"},{"name":"lastCompletedOpTaskQuorumThresholdPercentage","type":"uint32","internalType":"uint32"}]},{"name":"taskResponse","type":"tuple","internalType":"struct IFinalizerTaskManager.OpTaskResponse","components":[{"name":"referenceTaskIndex","type":"uint32","internalType":"uint32"},{"name":"referenceTaskHash","type":"bytes32","internalType":"bytes32"},{"name":"operatorsStateInfoHash","type":"bytes32","internalType":"bytes32"}]},{"name":"nonSignerStakesAndSignature","type":"tuple","internalType":"struct IBLSSignatureChecker.NonSignerStakesAndSignature","components":[{"name":"nonSignerQuorumBitmapIndices","type":"uint32[]","internalType":"uint32[]"},{"name":"nonSignerPubkeys","type":"tuple[]","internalType":"struct BN254.G1Point[]","components":[{"name":"X","type":"uint256","internalType":"uint256"},{"name":"Y","type":"uint256","internalType":"uint256"}]},{"name":"quorumApks","type":"tuple[]","internalType":"struct BN254.G1Point[]","components":[{"name":"X","type":"uint256","internalType":"uint256"},{"name":"Y","type":"uint256","internalType":"uint256"}]},{"name":"apkG2","type":"tuple","internalType":"struct BN254.G2Point","components":[{"name":"X","type":"uint256[2]","internalType":"uint256[2]"},{"name":"Y","type":"uint256[2]","internalType":"uint256[2]"}]},{"name":"sigma","type":"tuple","internalType":"struct BN254.G1Point","components":[{"name":"X","type":"uint256","internalType":"uint256"},{"name":"Y","type":"uint256","internalType":"uint256"}]},{"name":"quorumApkIndices","type":"uint32[]","internalType":"uint32[]"},{"name":"totalStakeIndices","type":"uint32[]","internalType":"uint32[]"},{"name":"nonSignerStakeIndices","type":"uint32[][]","internalType":"uint32[][]"}]}],"outputs":[],"stateMutability":"nonpayable"},{"type":"function","name":"respondToRdTask","inputs":[{"name":"task","type":"tuple","internalType":"struct IFinalizerTaskManager.RdTask","components":[{"name":"taskNum","type":"uint32","internalType":"uint32"},{"name":"blockNumber","type":"uint256","internalType":"uint256"},{"name":"taskCreatedBlock","type":"uint32","internalType":"uint32"},{"name":"lastCompletedOpTaskCreatedBlock","type":"uint32","internalType":"uint32"},{"name":"lastCompletedOpTaskQuorumNumbers","type":"bytes","internalType":"bytes"},{"name":"lastCompletedOpTaskQuorumThresholdPercentage","type":"uint32","internalType":"uint32"}]},{"name":"taskResponse","type":"tuple","internalType":"struct IFinalizerTaskManager.RdTaskResponse","components":[{"name":"referenceTaskIndex","type":"uint32","internalType":"uint32"},{"name":"referenceTaskHash","type":"bytes32","internalType":"bytes32"},{"name":"blockHash","type":"bytes32","internalType":"bytes32"},{"name":"storageProofHash","type":"bytes32","internalType":"bytes32"},{"name":"pendingStateHash","type":"bytes32","internalType":"bytes32"}]},{"name":"nonSignerStakesAndSignature","type":"tuple","internalType":"struct IBLSSignatureChecker.NonSignerStakesAndSignature","components":[{"name":"nonSignerQuorumBitmapIndices","type":"uint32[]","internalType":"uint32[]"},{"name":"nonSignerPubkeys","type":"tuple[]","internalType":"struct BN254.G1Point[]","components":[{"name":"X","type":"uint256","internalType":"uint256"},{"name":"Y","type":"uint256","internalType":"uint256"}]},{"name":"quorumApks","type":"tuple[]","internalType":"struct BN254.G1Point[]","components":[{"name":"X","type":"uint256","internalType":"uint256"},{"name":"Y","type":"uint256","internalType":"uint256"}]},{"name":"apkG2","type":"tuple","internalType":"struct BN254.G2Point","components":[{"name":"X","type":"uint256[2]","internalType":"uint256[2]"},{"name":"Y","type":"uint256[2]","internalType":"uint256[2]"}]},{"name":"sigma","type":"tuple","internalType":"struct BN254.G1Point","components":[{"name":"X","type":"uint256","internalType":"uint256"},{"name":"Y","type":"uint256","internalType":"uint256"}]},{"name":"quorumApkIndices","type":"uint32[]","internalType":"uint32[]"},{"name":"totalStakeIndices","type":"uint32[]","internalType":"uint32[]"},{"name":"nonSignerStakeIndices","type":"uint32[][]","internalType":"uint32[][]"}]}],"outputs":[],"stateMutability":"nonpayable"},{"type":"function","name":"setPauserRegistry","inputs":[{"name":"newPauserRegistry","type":"address","internalType":"contract IPauserRegistry"}],"outputs":[],"stateMutability":"nonpayable"},{"type":"function","name":"stakeRegistry","inputs":[],"outputs":[{"name":"","type":"address","internalType":"contract IStakeRegistry"}],"stateMutability":"view"},{"type":"function","name":"taskResponseWindowBlock","inputs":[],"outputs":[{"name":"","type":"uint32","internalType":"uint32"}],"stateMutability":"view"},{"type":"function","name":"transferOwnership","inputs":[{"name":"newOwner","type":"address","internalType":"address"}],"outputs":[],"stateMutability":"nonpayable"},{"type":"function","name":"unpause","inputs":[{"name":"newPausedStatus","type":"uint256","internalType":"uint256"}],"outputs":[],"stateMutability":"nonpayable"},{"type":"function","name":"updateBlsSignatureCheckerAddress","inputs":[{"name":"_blsSignatureCheckerAddress","type":"address","internalType":"address"}],"outputs":[],"stateMutability":"nonpayable"},{"type":"event","name":"BLSSignatureCheckerAddressUpdated","inputs":[{"name":"blsSignatureCheckerAddress","type":"address","indexed":false,"internalType":"address"}],"anonymous":false},{"type":"event","name":"Initialized","inputs":[{"name":"version","type":"uint8","indexed":false,"internalType":"uint8"}],"anonymous":false},{"type":"event","name":"NewOpTaskCreated","inputs":[{"name":"taskIndex","type":"uint32","indexed":true,"internalType":"uint32"},{"name":"task","type":"tuple","indexed":false,"internalType":"struct IFinalizerTaskManager.OpTask","components":[{"name":"taskNum","type":"uint32","internalType":"uint32"},{"name":"taskCreatedBlock","type":"uint32","internalType":"uint32"},{"name":"lastCompletedOpTaskCreatedBlock","type":"uint32","internalType":"uint32"},{"name":"quorumNumbers","type":"bytes","internalType":"bytes"},{"name":"quorumThresholdPercentage","type":"uint32","internalType":"uint32"},{"name":"lastCompletedOpTaskQuorumNumbers","type":"bytes","internalType":"bytes"},{"name":"lastCompletedOpTaskQuorumThresholdPercentage","type":"uint32","internalType":"uint32"}]}],"anonymous":false},{"type":"event","name":"NewOpTaskForceCreated","inputs":[{"name":"taskIndex","type":"uint32","indexed":true,"internalType":"uint32"},{"name":"task","type":"tuple","indexed":false,"internalType":"struct IFinalizerTaskManager.OpTask","components":[{"name":"taskNum","type":"uint32","internalType":"uint32"},{"name":"taskCreatedBlock","type":"uint32","internalType":"uint32"},{"name":"lastCompletedOpTaskCreatedBlock","type":"uint32","internalType":"uint32"},{"name":"quorumNumbers","type":"bytes","internalType":"bytes"},{"name":"quorumThresholdPercentage","type":"uint32","internalType":"uint32"},{"name":"lastCompletedOpTaskQuorumNumbers","type":"bytes","internalType":"bytes"},{"name":"lastCompletedOpTaskQuorumThresholdPercentage","type":"uint32","internalType":"uint32"}]}],"anonymous":false},{"type":"event","name":"NewRdTaskCreated","inputs":[{"name":"taskIndex","type":"uint32","indexed":true,"internalType":"uint32"},{"name":"task","type":"tuple","indexed":false,"internalType":"struct IFinalizerTaskManager.RdTask","components":[{"name":"taskNum","type":"uint32","internalType":"uint32"},{"name":"blockNumber","type":"uint256","internalType":"uint256"},{"name":"taskCreatedBlock","type":"uint32","internalType":"uint32"},{"name":"lastCompletedOpTaskCreatedBlock","type":"uint32","internalType":"uint32"},{"name":"lastCompletedOpTaskQuorumNumbers","type":"bytes","internalType":"bytes"},{"name":"lastCompletedOpTaskQuorumThresholdPercentage","type":"uint32","internalType":"uint32"}]}],"anonymous":false},{"type":"event","name":"OpTaskCompleted","inputs":[{"name":"taskIndex","type":"uint32","indexed":true,"internalType":"uint32"},{"name":"taskResponse","type":"tuple","indexed":false,"internalType":"struct IFinalizerTaskManager.OpTaskResponse","components":[{"name":"referenceTaskIndex","type":"uint32","internalType":"uint32"},{"name":"referenceTaskHash","type":"bytes32","internalType":"bytes32"},{"name":"operatorsStateInfoHash","type":"bytes32","internalType":"bytes32"}]}],"anonymous":false},{"type":"event","name":"OpTaskForceCompleted","inputs":[{"name":"taskIndex","type":"uint32","indexed":true,"internalType":"uint32"},{"name":"taskResponse","type":"tuple","indexed":false,"internalType":"struct IFinalizerTaskManager.OpTaskResponse","components":[{"name":"referenceTaskIndex","type":"uint32","internalType":"uint32"},{"name":"referenceTaskHash","type":"bytes32","internalType":"bytes32"},{"name":"operatorsStateInfoHash","type":"bytes32","internalType":"bytes32"}]}],"anonymous":false},{"type":"event","name":"OpTaskResponded","inputs":[{"name":"taskIndex","type":"uint32","indexed":true,"internalType":"uint32"},{"name":"taskResponse","type":"tuple","indexed":false,"internalType":"struct IFinalizerTaskManager.OpTaskResponse","components":[{"name":"referenceTaskIndex","type":"uint32","internalType":"uint32"},{"name":"referenceTaskHash","type":"bytes32","internalType":"bytes32"},{"name":"operatorsStateInfoHash","type":"bytes32","internalType":"bytes32"}]},{"name":"taskResponseMetadata","type":"tuple","indexed":false,"internalType":"struct IFinalizerTaskManager.TaskResponseMetadata","components":[{"name":"taskResponsedBlock","type":"uint32","internalType":"uint32"},{"name":"hashOfNonSigners","type":"bytes32","internalType":"bytes32"},{"name":"quroumStakeTotals","type":"uint96[]","internalType":"uint96[]"},{"name":"quroumStakeSigned","type":"uint96[]","internalType":"uint96[]"}]}],"anonymous":false},{"type":"event","name":"OwnershipTransferred","inputs":[{"name":"previousOwner","type":"address","indexed":true,"internalType":"address"},{"name":"newOwner","type":"address","indexed":true,"internalType":"address"}],"anonymous":false},{"type":"event","name":"Paused","inputs":[{"name":"account","type":"address","indexed":true,"internalType":"address"},{"name":"newPausedStatus","type":"uint256","indexed":false,"internalType":"uint256"}],"anonymous":false},{"type":"event","name":"PauserRegistrySet","inputs":[{"name":"pauserRegistry","type":"address","indexed":false,"internalType":"contract IPauserRegistry"},{"name":"newPauserRegistry","type":"address","indexed":false,"internalType":"contract IPauserRegistry"}],"anonymous":false},{"type":"event","name":"RdTaskCompleted","inputs":[{"name":"taskIndex","type":"uint32","indexed":true,"internalType":"uint32"},{"name":"blockHash","type":"bytes32","indexed":true,"internalType":"bytes32"},{"name":"taskResponse","type":"tuple","indexed":false,"internalType":"struct IFinalizerTaskManager.RdTaskResponse","components":[{"name":"referenceTaskIndex","type":"uint32","internalType":"uint32"},{"name":"referenceTaskHash","type":"bytes32","internalType":"bytes32"},{"name":"blockHash","type":"bytes32","internalType":"bytes32"},{"name":"storageProofHash","type":"bytes32","internalType":"bytes32"},{"name":"pendingStateHash","type":"bytes32","internalType":"bytes32"}]}],"anonymous":false},{"type":"event","name":"RdTaskResponded","inputs":[{"name":"taskIndex","type":"uint32","indexed":true,"internalType":"uint32"},{"name":"taskResponse","type":"tuple","indexed":false,"internalType":"struct IFinalizerTaskManager.RdTaskResponse","components":[{"name":"referenceTaskIndex","type":"uint32","internalType":"uint32"},{"name":"referenceTaskHash","type":"bytes32","internalType":"bytes32"},{"name":"blockHash","type":"bytes32","internalType":"bytes32"},{"name":"storageProofHash","type":"bytes32","internalType":"bytes32"},{"name":"pendingStateHash","type":"bytes32","internalType":"bytes32"}]},{"name":"taskResponseMetadata","type":"tuple","indexed":false,"internalType":"struct IFinalizerTaskManager.TaskResponseMetadata","components":[{"name":"taskResponsedBlock","type":"uint32","internalType":"uint32"},{"name":"hashOfNonSigners","type":"bytes32","internalType":"bytes32"},{"name":"quroumStakeTotals","type":"uint96[]","internalType":"uint96[]"},{"name":"quroumStakeSigned","type":"uint96[]","internalType":"uint96[]"}]}],"anonymous":false},{"type":"event","name":"StaleStakesForbiddenUpdate","inputs":[{"name":"value","type":"bool","indexed":false,"internalType":"bool"}],"anonymous":false},{"type":"event","name":"Unpaused","inputs":[{"name":"account","type":"address","indexed":true,"internalType":"address"},{"name":"newPausedStatus","type":"uint256","indexed":false,"internalType":"uint256"}],"anonymous":false}],"bytecode":{"object":"0x608060405234801561001057600080fd5b50615d5980620000216000396000f3fe608060405234801561001057600080fd5b50600436106102a05760003560e01c80635df4594611610167578063a69563a9116100ce578063df5cf72311610087578063df5cf72314610672578063e70c26231461067a578063ef0244581461068a578063f2fde38b14610692578063f5640cf8146106a5578063fabc1cbc146106b857600080fd5b8063a69563a9146105cc578063adfcb048146105e3578063b3ea184e146105ec578063bf2315ed146105ff578063c987de8e1461063a578063cefdc1d41461065157600080fd5b8063723114ab11610120578063723114ab1461055b5780637afa1eed1461056e5780637afdd54b14610581578063886f1195146105915780638da5cb5b146105a45780638fc8729a146105b557600080fd5b80635df4594614610507578063683048351461050f5780636d14a987146105175780636e125ff41461051f5780636efb463614610532578063715018a61461055357600080fd5b806341789d571161020b578063537a2929116101c4578063537a29291461048f57806354d127de146104a6578063595c6a67146104b45780635ac86ab7146104bc5780635c155662146104df5780635c975abb146104ff57600080fd5b806341789d571461040657806345265b7a146104325780634ae6b203146104435780634d7a71161461044c5780634f739f741461045c578063516a72271461047c57600080fd5b80631ac272971161025d5780631ac272971461034e5780631c178e9c14610379578063245a7bfc146103a45780632830e8f9146103be5780632db2e39b146103d35780633563b0d1146103e657600080fd5b806301a3f013146102a557806305c6b663146102ba5780630ee0fdbd146102cd57806310d67a2f146102ef578063136439dd1461030257806313f815ed14610315575b600080fd5b6102b86102b33660046141b2565b6106cb565b005b6102b86102c8366004614617565b610bb0565b60a2546102da9060ff1681565b60405190151581526020015b60405180910390f35b6102b86102fd3660046146b4565b611175565b6102b86103103660046146d8565b611225565b6103406103233660046146f1565b609960209081526000928352604080842090915290825290205481565b6040519081526020016102e6565b61034061035c3660046146f1565b609a60209081526000928352604080842090915290825290205481565b60975461038c906001600160a01b031681565b6040516001600160a01b0390911681526020016102e6565b609e5461038c90600160201b90046001600160a01b031681565b6103c6611364565b6040516102e6919061477b565b6102b86103e136600461479c565b6113f2565b6103f96103f4366004614845565b6115ab565b6040516102e691906149a0565b60975461041d90600160e01b900463ffffffff1681565b60405163ffffffff90911681526020016102e6565b6102b86104403660046149b3565b50565b61034060a05481565b609c5461041d9063ffffffff1681565b61046f61046a366004614a35565b611a41565b6040516102e69190614b8e565b6102b861048a366004614c0c565b612167565b609c5461041d90600160401b900463ffffffff1681565b6102b8610440366004614c76565b6102b86128b3565b6102da6104ca366004614cb1565b606654600160ff9092169190911b9081161490565b6104f26104ed366004614cd4565b61297a565b6040516102e69190614d80565b606654610340565b61038c612b42565b61038c612bb5565b61038c612bff565b6102b861052d366004614dc4565b612c49565b610545610540366004614e18565b61304d565b6040516102e6929190614ed8565b6102b86130ed565b6102b86105693660046146b4565b613101565b609f5461038c906001600160a01b031681565b60985461041d9063ffffffff1681565b60655461038c906001600160a01b031681565b6033546001600160a01b031661038c565b609c5461041d90600160201b900463ffffffff1681565b60975461041d90600160a01b900463ffffffff1681565b61034060a15481565b6102b86105fa3660046146d8565b61315d565b61062d61060d3660046146f1565b609b60209081526000928352604080842090915290825290205460ff1681565b6040516102e69190614f37565b60975461041d90600160c01b900463ffffffff1681565b61066461065f366004614f5f565b613576565b6040516102e6929190614fa1565b61038c613708565b609e5461041d9063ffffffff1681565b610340606481565b6102b86106a03660046146b4565b613752565b6102b86106b3366004614dc4565b6137c8565b6102b86106c63660046146d8565b613c09565b6106d3613d65565b60006106e26020830183614fc2565b905060003681806106f96060880160408901614fc2565b63ffffffff1661073e576107136040880160208901614fc2565b93506107226060880188614fdf565b909350915061073760a0880160808901614fc2565b9050610775565b61074e6060880160408901614fc2565b935061075d60a0880188614fdf565b909350915061077260e0880160c08901614fc2565b90505b60006107876040890160208a01614fc2565b600080805260996020908152919250600080516020615d04833981519152916107b2908a018a614fc2565b63ffffffff1663ffffffff16815260200190815260200160002054886040516020016107de9190615093565b604051602081830303815290604052805190602001201461081a5760405162461bcd60e51b81526004016108119061516d565b60405180910390fd5b6000808052609b6020908152600191600080516020615cc483398151915291610845908b018b614fc2565b63ffffffff16815260208101919091526040016000205460ff16600481111561087057610870614f21565b1461088d5760405162461bcd60e51b8152600401610811906151ca565b6000808052609a60209081527fbe6620bd3346e5d7f8387fbec0981aa0d6289d22efa7c935f9ef6841bf2a98c79082906108c9908b018b614fc2565b63ffffffff1663ffffffff16815260200190815260200160002054146109015760405162461bcd60e51b8152600401610811906151ca565b60975461091b90600160a01b900463ffffffff168261522c565b63ffffffff164363ffffffff1611156109465760405162461bcd60e51b815260040161081190615254565b60408051808201909152606080825260208201526040805160808101825263ffffffff431681526000602080830182905284810151838501528451606084015292519092610998918c91849101615311565b60408051601f1981840301815291905280516020918201206000808052609a835290917fbe6620bd3346e5d7f8387fbec0981aa0d6289d22efa7c935f9ef6841bf2a98c791906109ea908e018e614fc2565b63ffffffff16815260208082019290925260409081016000908120939093558c013560a155818052609b8152600491600080516020615cc483398151915291610a35908e018e614fc2565b63ffffffff16815260208101919091526040016000205460ff166004811115610a6057610a60614f21565b50610a73905060408c0160208d01614fc2565b609c805463ffffffff92909216600160401b0263ffffffff60401b19909216919091179055610aa560608c018c614fdf565b610ab191609d916140ef565b50610ac260a08c0160808d01614fc2565b609e805463ffffffff191663ffffffff92909216919091179055610ae960208c018c614fc2565b609c805463ffffffff92909216600160201b0267ffffffff0000000019909216919091179055610b1c60208b018b614fc2565b63ffffffff167fff2908483d74b6b70053dd473260acf1b09e0ba0781bf94100bb8277581749de8b604051610b519190615331565b60405180910390a2610b6660208b018b614fc2565b63ffffffff167fdf22f3558e4841b63d77179546b3eae63e4e343bbe752746b093162bc526be4c8b604051610b9b9190615331565b60405180910390a25050505050505050505050565b609e54600160201b90046001600160a01b03163314610be15760405162461bcd60e51b81526004016108119061533f565b6000610bf36080850160608601614fc2565b90506000610c076060860160408701614fc2565b9050366000610c196080880188614fdf565b90925090506000610c3060c0890160a08a01614fc2565b60016000908152609960209081529192507fbb86fbc034f4e382929974bcd8419ed626b0ea647f962d89ba2fb6bd28785ab991610c6f908a018a614fc2565b63ffffffff1663ffffffff1681526020019081526020016000205488604051602001610c9b919061535e565b6040516020818303038152906040528051906020012014610cce5760405162461bcd60e51b81526004016108119061516d565b60016000818152609b6020908152600080516020615ce48339815191529190610cf9908b018b614fc2565b63ffffffff16815260208101919091526040016000205460ff166004811115610d2457610d24614f21565b14610d415760405162461bcd60e51b8152600401610811906151ca565b60016000908152609a60209081527f5b542b52981c4f2fa9965514d5bb7f37f1b7bc0902a6a4dc6b04dc05be85586b908290610d7f908b018b614fc2565b63ffffffff1663ffffffff1681526020019081526020016000205414610db75760405162461bcd60e51b8152600401610811906151ca565b609754610dd190600160a01b900463ffffffff168561522c565b63ffffffff164363ffffffff161115610dfc5760405162461bcd60e51b815260040161081190615254565b600087604051602001610e0f9190615438565b604051602081830303815290604052805190602001209050600080609760009054906101000a90046001600160a01b03166001600160a01b0316636efb46368488888c8e6040518663ffffffff1660e01b8152600401610e739594939291906154d0565b600060405180830381865afa158015610e90573d6000803e3d6000fd5b505050506040513d6000823e601f3d908101601f19168201604052610eb89190810190615647565b6040805160808101825263ffffffff43168152602080820184905280850151828401528451606083015291519395509193509091610efa918d918491016156e3565b60408051601f19818403018152919052805160209182012060016000908152609a835290917f5b542b52981c4f2fa9965514d5bb7f37f1b7bc0902a6a4dc6b04dc05be85586b9190610f4e908f018f614fc2565b63ffffffff1681526020810191909152604001600020556003609b6000600180811115610f7d57610f7d614f21565b815260200190815260200160002060008d6000016020810190610fa09190614fc2565b63ffffffff16815260208101919091526040016000205460ff166004811115610fcb57610fcb614f21565b50610fdb905060208d018d614fc2565b63ffffffff167f07ba8d7c4209c14e6d2ed5fd4542e9d8f47e1af3da0cbd9c50e2d0d3e87dfff08c836040516110129291906156e3565b60405180910390a260005b868110156110b4578560ff168460200151828151811061103f5761103f615703565b60200260200101516110519190615719565b6001600160601b031660648560000151838151811061107257611072615703565b60200260200101516001600160601b031661108d9190615748565b10156110a25750505050505050505050505050565b806110ac81615767565b91505061101d565b5060808b013560a05560016000908152609b6020908152600491600080516020615ce4833981519152916110ea908f018f614fc2565b63ffffffff16815260208101919091526040016000205460ff16600481111561111557611115614f21565b505060408b013561112960208d018d614fc2565b63ffffffff167f02046773dfd0e022ab6bf68cb07d73f080f87a4b82f7a4fccfe7d919d6c4ecb48d60405161115e9190615438565b60405180910390a35050505050505050505b505050565b606560009054906101000a90046001600160a01b03166001600160a01b031663eab66d7a6040518163ffffffff1660e01b8152600401602060405180830381865afa1580156111c8573d6000803e3d6000fd5b505050506040513d601f19601f820116820180604052508101906111ec9190615782565b6001600160a01b0316336001600160a01b03161461121c5760405162461bcd60e51b81526004016108119061579f565b61044081613dbf565b60655460405163237dfb4760e11b81523360048201526001600160a01b03909116906346fbf68e90602401602060405180830381865afa15801561126d573d6000803e3d6000fd5b505050506040513d601f19601f8201168201806040525081019061129191906157e9565b6112ad5760405162461bcd60e51b815260040161081190615806565b606654818116146113265760405162461bcd60e51b815260206004820152603860248201527f5061757361626c652e70617573653a20696e76616c696420617474656d70742060448201527f746f20756e70617573652066756e6374696f6e616c69747900000000000000006064820152608401610811565b606681905560405181815233907fab40a374bc51de372200a8bc981af8c9ecdc08dfdaef0bb6e09f88f3c616ef3d906020015b60405180910390a250565b609d80546113719061584e565b80601f016020809104026020016040519081016040528092919081815260200182805461139d9061584e565b80156113ea5780601f106113bf576101008083540402835291602001916113ea565b820191906000526020600020905b8154815290600101906020018083116113cd57829003601f168201915b505050505081565b600054610100900460ff16158080156114125750600054600160ff909116105b8061142c5750303b15801561142c575060005460ff166001145b61148f5760405162461bcd60e51b815260206004820152602e60248201527f496e697469616c697a61626c653a20636f6e747261637420697320616c72656160448201526d191e481a5b9a5d1a585b1a5e995960921b6064820152608401610811565b6000805460ff1916600117905580156114b2576000805461ff0019166101001790555b6114bd896000613eb6565b6114c688613fa0565b609e80546001600160a01b03808a16600160201b02640100000000600160c01b031990921691909117909155609f80548883166001600160a01b031990911617905560a2805487151560ff199091161790556097805463ffffffff858116600160c01b0263ffffffff60c01b19918816600160a01b026001600160c01b031990931694891694909417919091171691909117905580156115a0576000805461ff0019169055604051600181527f7f26b83ff96e1f2b6a682f133852f6798a09c465da95921460cefb38474024989060200160405180910390a15b505050505050505050565b60606000846001600160a01b031663683048356040518163ffffffff1660e01b8152600401602060405180830381865afa1580156115ed573d6000803e3d6000fd5b505050506040513d601f19601f820116820180604052508101906116119190615782565b90506000856001600160a01b0316639e9923c26040518163ffffffff1660e01b8152600401602060405180830381865afa158015611653573d6000803e3d6000fd5b505050506040513d601f19601f820116820180604052508101906116779190615782565b90506000866001600160a01b0316635df459466040518163ffffffff1660e01b8152600401602060405180830381865afa1580156116b9573d6000803e3d6000fd5b505050506040513d601f19601f820116820180604052508101906116dd9190615782565b9050600086516001600160401b038111156116fa576116fa614200565b60405190808252806020026020018201604052801561172d57816020015b60608152602001906001900390816117185790505b50905060005b8751811015611a3557600088828151811061175057611750615703565b0160200151604051638902624560e01b815260f89190911c6004820181905263ffffffff8a16602483015291506000906001600160a01b03871690638902624590604401600060405180830381865afa1580156117b1573d6000803e3d6000fd5b505050506040513d6000823e601f3d908101601f191682016040526117d99190810190615883565b905080516001600160401b038111156117f4576117f4614200565b60405190808252806020026020018201604052801561183f57816020015b60408051606081018252600080825260208083018290529282015282526000199092019101816118125790505b5084848151811061185257611852615703565b602002602001018190525060005b8151811015611a1f576040518060600160405280876001600160a01b03166347b314e885858151811061189557611895615703565b60200260200101516040518263ffffffff1660e01b81526004016118bb91815260200190565b602060405180830381865afa1580156118d8573d6000803e3d6000fd5b505050506040513d601f19601f820116820180604052508101906118fc9190615782565b6001600160a01b0316815260200183838151811061191c5761191c615703565b60200260200101518152602001896001600160a01b031663fa28c62785858151811061194a5761194a615703565b60209081029190910101516040516001600160e01b031960e084901b168152600481019190915260ff8816602482015263ffffffff8f166044820152606401602060405180830381865afa1580156119a6573d6000803e3d6000fd5b505050506040513d601f19601f820116820180604052508101906119ca9190615913565b6001600160601b03168152508585815181106119e8576119e8615703565b60200260200101518281518110611a0157611a01615703565b60200260200101819052508080611a1790615767565b915050611860565b5050508080611a2d90615767565b915050611733565b50979650505050505050565b611a6c6040518060800160405280606081526020016060815260200160608152602001606081525090565b6000876001600160a01b031663683048356040518163ffffffff1660e01b8152600401602060405180830381865afa158015611aac573d6000803e3d6000fd5b505050506040513d601f19601f82011682018060405250810190611ad09190615782565b9050611afd6040518060800160405280606081526020016060815260200160608152602001606081525090565b6040516361c8a12f60e11b81526001600160a01b038a169063c391425e90611b2d908b908990899060040161592e565b600060405180830381865afa158015611b4a573d6000803e3d6000fd5b505050506040513d6000823e601f3d908101601f19168201604052611b729190810190615978565b81526040516340e03a8160e11b81526001600160a01b038316906381c0750290611ba4908b908b908b90600401615a06565b600060405180830381865afa158015611bc1573d6000803e3d6000fd5b505050506040513d6000823e601f3d908101601f19168201604052611be99190810190615978565b6040820152856001600160401b03811115611c0657611c06614200565b604051908082528060200260200182016040528015611c3957816020015b6060815260200190600190039081611c245790505b50606082015260005b60ff8116871115612078576000856001600160401b03811115611c6757611c67614200565b604051908082528060200260200182016040528015611c90578160200160208202803683370190505b5083606001518360ff1681518110611caa57611caa615703565b602002602001018190525060005b86811015611f785760008c6001600160a01b03166304ec63518a8a85818110611ce357611ce3615703565b905060200201358e88600001518681518110611d0157611d01615703565b60200260200101516040518463ffffffff1660e01b8152600401611d3e9392919092835263ffffffff918216602084015216604082015260600190565b602060405180830381865afa158015611d5b573d6000803e3d6000fd5b505050506040513d601f19601f82011682018060405250810190611d7f9190615a26565b90506001600160c01b038116611e235760405162461bcd60e51b815260206004820152605c60248201527f4f70657261746f7253746174655265747269657665722e676574436865636b5360448201527f69676e617475726573496e64696365733a206f70657261746f72206d7573742060648201527f6265207265676973746572656420617420626c6f636b6e756d62657200000000608482015260a401610811565b8a8a8560ff16818110611e3857611e38615703565b6001600160c01b03841692013560f81c9190911c600190811614159050611f6557856001600160a01b031663dd9846b98a8a85818110611e7a57611e7a615703565b905060200201358d8d8860ff16818110611e9657611e96615703565b6040516001600160e01b031960e087901b1681526004810194909452919091013560f81c60248301525063ffffffff8f166044820152606401602060405180830381865afa158015611eec573d6000803e3d6000fd5b505050506040513d601f19601f82011682018060405250810190611f109190615a4f565b85606001518560ff1681518110611f2957611f29615703565b60200260200101518481518110611f4257611f42615703565b63ffffffff9092166020928302919091019091015282611f6181615767565b9350505b5080611f7081615767565b915050611cb8565b506000816001600160401b03811115611f9357611f93614200565b604051908082528060200260200182016040528015611fbc578160200160208202803683370190505b50905060005b8281101561203d5784606001518460ff1681518110611fe357611fe3615703565b60200260200101518181518110611ffc57611ffc615703565b602002602001015182828151811061201657612016615703565b63ffffffff909216602092830291909101909101528061203581615767565b915050611fc2565b508084606001518460ff168151811061205857612058615703565b60200260200101819052505050808061207090615a6c565b915050611c42565b506000896001600160a01b0316635df459466040518163ffffffff1660e01b8152600401602060405180830381865afa1580156120b9573d6000803e3d6000fd5b505050506040513d601f19601f820116820180604052508101906120dd9190615782565b60405163354952a360e21b81529091506001600160a01b0382169063d5254a8c90612110908b908b908e90600401615a8c565b600060405180830381865afa15801561212d573d6000803e3d6000fd5b505050506040513d6000823e601f3d908101601f191682016040526121559190810190615978565b60208301525098975050505050505050565b609c54600160401b900463ffffffff1615600036818061218d6060890160408a01614fc2565b63ffffffff166121d2576121a76040890160208a01614fc2565b93506121b66060890189614fdf565b90935091506121cb60a0890160808a01614fc2565b9050612209565b6121e26060890160408a01614fc2565b93506121f160a0890189614fdf565b909350915061220660e0890160c08a01614fc2565b90505b84156122925760a25460ff161561225057609e54600160201b90046001600160a01b0316331461224b5760405162461bcd60e51b81526004016108119061533f565b6122c3565b6033546001600160a01b0316331461224b5760405162461bcd60e51b815260206004820152600560248201526420baba341960d91b6044820152606401610811565b609e54600160201b90046001600160a01b031633146122c35760405162461bcd60e51b81526004016108119061533f565b60006122d560408a0160208b01614fc2565b600080805260996020908152919250600080516020615d0483398151915291612300908b018b614fc2565b63ffffffff1663ffffffff168152602001908152602001600020548960405160200161232c9190615093565b604051602081830303815290604052805190602001201461235f5760405162461bcd60e51b81526004016108119061516d565b6000808052609b6020908152600191600080516020615cc48339815191529161238a908c018c614fc2565b63ffffffff16815260208101919091526040016000205460ff1660048111156123b5576123b5614f21565b146123d25760405162461bcd60e51b8152600401610811906151ca565b6000808052609a60209081527fbe6620bd3346e5d7f8387fbec0981aa0d6289d22efa7c935f9ef6841bf2a98c790829061240e908c018c614fc2565b63ffffffff1663ffffffff16815260200190815260200160002054146124465760405162461bcd60e51b8152600401610811906151ca565b60975461246090600160a01b900463ffffffff168261522c565b63ffffffff164363ffffffff16111561248b5760405162461bcd60e51b815260040161081190615254565b60008860405160200161249e9190615331565b60408051601f19818403018152828252805160209182012083830190925260608084529083015291506000881561256357609760009054906101000a90046001600160a01b03166001600160a01b0316636efb46368489898c8f6040518663ffffffff1660e01b81526004016125189594939291906154d0565b600060405180830381865afa158015612535573d6000803e3d6000fd5b505050506040513d6000823e601f3d908101601f1916820160405261255d9190810190615647565b90925090505b6040805160808101825263ffffffff4316815260208082018490528481015182840152845160608301529151909161259f918e91849101615311565b60408051808303601f190181529190528051602090910120609a600080815260200190815260200160002060008e60000160208101906125df9190614fc2565b63ffffffff1681526020810191909152604001600020556003609b600080600181111561260e5761260e614f21565b815260200190815260200160002060008e60000160208101906126319190614fc2565b63ffffffff16815260208101919091526040016000205460ff16600481111561265c5761265c614f21565b5061266c905060208e018e614fc2565b63ffffffff167f47adacb0b6bbd726ae39ac6c006cca1c2006c9aedaa882dcba7c4804db7c41ce8d836040516126a3929190615311565b60405180910390a2891561274e5760005b8781101561274c578660ff16846020015182815181106126d6576126d6615703565b60200260200101516126e89190615719565b6001600160601b031660648560000151838151811061270957612709615703565b60200260200101516001600160601b03166127249190615748565b101561273a575050505050505050505050505050565b8061274481615767565b9150506126b4565b505b60408c013560a1556004609b600080815260200190815260200160002060008e60000160208101906127809190614fc2565b63ffffffff16815260208101919091526040016000205460ff1660048111156127ab576127ab614f21565b506127be905060408e0160208f01614fc2565b609c805463ffffffff92909216600160401b0263ffffffff60401b199092169190911790556127f060608e018e614fdf565b6127fc91609d916140ef565b5061280d60a08e0160808f01614fc2565b609e805463ffffffff191663ffffffff9290921691909117905561283460208e018e614fc2565b609c805463ffffffff92909216600160201b0267ffffffff000000001990921691909117905561286760208d018d614fc2565b63ffffffff167fff2908483d74b6b70053dd473260acf1b09e0ba0781bf94100bb8277581749de8d60405161289c9190615331565b60405180910390a250505050505050505050505050565b60655460405163237dfb4760e11b81523360048201526001600160a01b03909116906346fbf68e90602401602060405180830381865afa1580156128fb573d6000803e3d6000fd5b505050506040513d601f19601f8201168201806040525081019061291f91906157e9565b61293b5760405162461bcd60e51b815260040161081190615806565b600019606681905560405190815233907fab40a374bc51de372200a8bc981af8c9ecdc08dfdaef0bb6e09f88f3c616ef3d9060200160405180910390a2565b60606000846001600160a01b031663c391425e84866040518363ffffffff1660e01b81526004016129ac929190615ab6565b600060405180830381865afa1580156129c9573d6000803e3d6000fd5b505050506040513d6000823e601f3d908101601f191682016040526129f19190810190615978565b9050600084516001600160401b03811115612a0e57612a0e614200565b604051908082528060200260200182016040528015612a37578160200160208202803683370190505b50905060005b8551811015612b3857866001600160a01b03166304ec6351878381518110612a6757612a67615703565b602002602001015187868581518110612a8257612a82615703565b60200260200101516040518463ffffffff1660e01b8152600401612abf9392919092835263ffffffff918216602084015216604082015260600190565b602060405180830381865afa158015612adc573d6000803e3d6000fd5b505050506040513d601f19601f82011682018060405250810190612b009190615a26565b6001600160c01b0316828281518110612b1b57612b1b615703565b602090810291909101015280612b3081615767565b915050612a3d565b5095945050505050565b60975460408051632efa2ca360e11b815290516000926001600160a01b031691635df459469160048083019260209291908290030181865afa158015612b8c573d6000803e3d6000fd5b505050506040513d601f19601f82011682018060405250810190612bb09190615782565b905090565b60975460408051636830483560e01b815290516000926001600160a01b03169163683048359160048083019260209291908290030181865afa158015612b8c573d6000803e3d6000fd5b60975460408051636d14a98760e01b815290516000926001600160a01b031691636d14a9879160048083019260209291908290030181865afa158015612b8c573d6000803e3d6000fd5b609f546001600160a01b03163314612c8b5760405162461bcd60e51b8152602060048201526005602482015264417574683160d81b6044820152606401610811565b609c5463ffffffff600160401b909104164314801590612caa57504315155b612cc65760405162461bcd60e51b815260040161081190615b0a565b6040805160e0810182526000818301819052606080830181905260a083015260c0820152609754600160e01b900463ffffffff908116825243811660208084019190915290861660808301528251601f850182900482028101820190935283835290919084908490819084018382808284376000920191909152505050506060820152609c54600160401b900463ffffffff166040820152609d8054612d6b9061584e565b80601f0160208091040260200160405190810160405280929190818152602001828054612d979061584e565b8015612de45780601f10612db957610100808354040283529160200191612de4565b820191906000526020600020905b815481529060010190602001808311612dc757829003601f168201915b505050505060a0820152609e5463ffffffff90811660c0830152609754600160e01b90041615612ea057609754600090612e2d90600190600160e01b900463ffffffff16615b67565b63ffffffff81166000908152600080516020615cc4833981519152602052604090205490915060019060ff166004811115612e6a57612e6a614f21565b1415612e9e5763ffffffff81166000908152600080516020615cc483398151915260205260409020805460ff191660021790555b505b60985463ffffffff1615612f3957609854600090612ec69060019063ffffffff16615b67565b63ffffffff81166000908152600080516020615ce4833981519152602052604090205490915060019060ff166004811115612f0357612f03614f21565b1415612f375763ffffffff81166000908152600080516020615ce483398151915260205260409020805460ff191660021790555b505b80604051602001612f4a9190615b8c565b60408051601f1981840301815282825280516020918201206097805463ffffffff600160e01b9182900481166000908152600080516020615d04833981519152865286812094909455825482900481168452600080516020615cc4833981519152909452939091208054600160ff19909116179055609c805463ffffffff1916438416179055549190910416907ffaf4b2054479d0f83e909b73cde2a6cb18ec2a93ba8ad5a62329001c86b1f3ea90613004908490615b8c565b60405180910390a260975461302790600160e01b900463ffffffff16600161522c565b6097601c6101000a81548163ffffffff021916908363ffffffff16021790555050505050565b604080518082019091526060808252602082015260975460405163377da31b60e11b81526000916001600160a01b031690636efb46369061309a908a908a908a908a908a906004016154d0565b600060405180830381865afa1580156130b7573d6000803e3d6000fd5b505050506040513d6000823e601f3d908101601f191682016040526130df9190810190615647565b915091509550959350505050565b6130f5613d65565b6130ff6000613fa0565b565b613109613d65565b609780546001600160a01b0319166001600160a01b0383169081179091556040519081527f901a654dc830c94e8a12c9a3bc0a92ac11b5cf28046ca8d190691cdaf52090169060200160405180910390a150565b609f546001600160a01b0316331461319f5760405162461bcd60e51b8152602060048201526005602482015264417574683160d81b6044820152606401610811565b609c54600160401b900463ffffffff16158015906131bc57504315155b6131fa5760405162461bcd60e51b815260206004820152600f60248201526e13dc0814dd185d19481d5b9a5b9a5d608a1b6044820152606401610811565b6098546097546040805160c0810182526000606080830191909152608082015263ffffffff9384168082526020820186905243851692820192909252609e54841660a0820152609d80549294600160e01b90940490931692909161325d9061584e565b80601f01602080910402602001604051908101604052809291908181526020018280546132899061584e565b80156132d65780601f106132ab576101008083540402835291602001916132d6565b820191906000526020600020905b8154815290600101906020018083116132b957829003601f168201915b50505050506080820152609c54600160401b900463ffffffff908116606083015283161561337e57600061330b600185615b67565b63ffffffff81166000908152600080516020615ce4833981519152602052604090205490915060019060ff16600481111561334857613348614f21565b141561337c5763ffffffff81166000908152600080516020615ce483398151915260205260409020805460ff191660021790555b505b63ffffffff821615613495576000613397600184615b67565b63ffffffff81166000908152600080516020615cc4833981519152602052604090205490915060019060ff1660048111156133d4576133d4614f21565b141561349357609754609c546133fa9163ffffffff600160c01b9091048116911661522c565b63ffffffff164363ffffffff1611156134655760405162461bcd60e51b815260206004820152602760248201527f52645461736b2063616e2774207965742063616e63656c2074686520696e6974604482015266204f705461736b60c81b6064820152608401610811565b63ffffffff81166000908152600080516020615cc483398151915260205260409020805460ff191660021790555b505b806040516020016134a69190615c22565b60408051601f19818403018152828252805160209182012063ffffffff871660008181527fbb86fbc034f4e382929974bcd8419ed626b0ea647f962d89ba2fb6bd28785ab9845284812092909255600080516020615ce483398151915290925291909120805460ff19166001179055907f161faa5d92f6bf0262139c57c87ca6cc60e5b3c9c3341dc175cec97a2516cc7d90613543908490615c22565b60405180910390a261355683600161522c565b6098805463ffffffff191663ffffffff9290921691909117905550505050565b60408051600180825281830190925260009160609183916020808301908036833701905050905084816000815181106135b1576135b1615703565b60209081029190910101526040516361c8a12f60e11b81526000906001600160a01b0388169063c391425e906135ed9088908690600401615ab6565b600060405180830381865afa15801561360a573d6000803e3d6000fd5b505050506040513d6000823e601f3d908101601f191682016040526136329190810190615978565b60008151811061364457613644615703565b60209081029190910101516040516304ec635160e01b81526004810188905263ffffffff87811660248301529091166044820181905291506000906001600160a01b038916906304ec635190606401602060405180830381865afa1580156136b0573d6000803e3d6000fd5b505050506040513d601f19601f820116820180604052508101906136d49190615a26565b6001600160c01b0316905060006136ea82613ff2565b9050816136f88a838a6115ab565b9550955050505050935093915050565b6097546040805163df5cf72360e01b815290516000926001600160a01b03169163df5cf7239160048083019260209291908290030181865afa158015612b8c573d6000803e3d6000fd5b61375a613d65565b6001600160a01b0381166137bf5760405162461bcd60e51b815260206004820152602660248201527f4f776e61626c653a206e6577206f776e657220697320746865207a65726f206160448201526564647265737360d01b6064820152608401610811565b61044081613fa0565b6137d0613d65565b609c5463ffffffff600160401b9091041643148015906137ef57504315155b61380b5760405162461bcd60e51b815260040161081190615b0a565b6040805160e0810182526000818301819052606080830181905260a083015260c0820152609754600160e01b900463ffffffff908116825243811660208084019190915290861660808301528251601f850182900482028101820190935283835290919084908490819084018382808284376000920191909152505050506060820152609c54600160401b900463ffffffff166138fa5763ffffffff431660408083019190915280516020601f850181900481028201810190925283815290849084908190840183828082843760009201919091525050505060a082015263ffffffff841660c08201526139ae565b609c54600160401b900463ffffffff166040820152609d805461391c9061584e565b80601f01602080910402602001604051908101604052809291908181526020018280546139489061584e565b80156139955780601f1061396a57610100808354040283529160200191613995565b820191906000526020600020905b81548152906001019060200180831161397857829003601f168201915b505050505060a0820152609e5463ffffffff1660c08201525b609754600160e01b900463ffffffff1615613a55576097546000906139e290600190600160e01b900463ffffffff16615b67565b63ffffffff81166000908152600080516020615cc4833981519152602052604090205490915060019060ff166004811115613a1f57613a1f614f21565b1415613a535763ffffffff81166000908152600080516020615cc483398151915260205260409020805460ff191660021790555b505b60985463ffffffff1615613aee57609854600090613a7b9060019063ffffffff16615b67565b63ffffffff81166000908152600080516020615ce4833981519152602052604090205490915060019060ff166004811115613ab857613ab8614f21565b1415613aec5763ffffffff81166000908152600080516020615ce483398151915260205260409020805460ff191660021790555b505b80604051602001613aff9190615b8c565b60408051601f1981840301815282825280516020918201206097805463ffffffff600160e01b9182900481166000908152600080516020615d04833981519152865286812094909455825482900481168452600080516020615cc4833981519152909452939091208054600160ff19909116179055609c805463ffffffff1916438416179055549190910416907ffaf4b2054479d0f83e909b73cde2a6cb18ec2a93ba8ad5a62329001c86b1f3ea90613bb9908490615b8c565b60405180910390a26097601c9054906101000a900463ffffffff1663ffffffff167fdc5ba3b66ec6491b585b3f13698ed711aa829071f43300d6ede6dba67e28d75f826040516130049190615b8c565b606560009054906101000a90046001600160a01b03166001600160a01b031663eab66d7a6040518163ffffffff1660e01b8152600401602060405180830381865afa158015613c5c573d6000803e3d6000fd5b505050506040513d601f19601f82011682018060405250810190613c809190615782565b6001600160a01b0316336001600160a01b031614613cb05760405162461bcd60e51b81526004016108119061579f565b606654198119606654191614613d2e5760405162461bcd60e51b815260206004820152603860248201527f5061757361626c652e756e70617573653a20696e76616c696420617474656d7060448201527f7420746f2070617573652066756e6374696f6e616c69747900000000000000006064820152608401610811565b606681905560405181815233907f3582d1828e26bf56bd801502bc021ac0bc8afb57c826e4986b45593c8fad389c90602001611359565b6033546001600160a01b031633146130ff5760405162461bcd60e51b815260206004820181905260248201527f4f776e61626c653a2063616c6c6572206973206e6f7420746865206f776e65726044820152606401610811565b6001600160a01b038116613e4d5760405162461bcd60e51b815260206004820152604960248201527f5061757361626c652e5f73657450617573657252656769737472793a206e657760448201527f50617573657252656769737472792063616e6e6f7420626520746865207a65726064820152686f206164647265737360b81b608482015260a401610811565b606554604080516001600160a01b03928316815291831660208301527f6e9fcd539896fca60e8b0f01dd580233e48a6b0f7df013b89ba7f565869acdb6910160405180910390a1606580546001600160a01b0319166001600160a01b0392909216919091179055565b6065546001600160a01b0316158015613ed757506001600160a01b03821615155b613f595760405162461bcd60e51b815260206004820152604760248201527f5061757361626c652e5f696e697469616c697a655061757365723a205f696e6960448201527f7469616c697a6550617573657228292063616e206f6e6c792062652063616c6c6064820152666564206f6e636560c81b608482015260a401610811565b606681905560405181815233907fab40a374bc51de372200a8bc981af8c9ecdc08dfdaef0bb6e09f88f3c616ef3d9060200160405180910390a2613f9c82613dbf565b5050565b603380546001600160a01b038381166001600160a01b0319831681179093556040519116919082907f8be0079c531659141344cd1fd0a4f28419497f9722a3daafe3b4186f6b6457e090600090a35050565b6060600080614000846140be565b61ffff166001600160401b0381111561401b5761401b614200565b6040519080825280601f01601f191660200182016040528015614045576020820181803683370190505b5090506000805b82518210801561405d575061010081105b156140b4576001811b9350858416156140a4578060f81b83838151811061408657614086615703565b60200101906001600160f81b031916908160001a9053508160010191505b6140ad81615767565b905061404c565b5090949350505050565b6000805b82156140e9576140d3600184615c8a565b90921691806140e181615ca1565b9150506140c2565b92915050565b8280546140fb9061584e565b90600052602060002090601f01602090048101928261411d5760008555614163565b82601f106141365782800160ff19823516178555614163565b82800160010185558215614163579182015b82811115614163578235825591602001919060010190614148565b5061416f929150614173565b5090565b5b8082111561416f5760008155600101614174565b600060e0828403121561419a57600080fd5b50919050565b60006060828403121561419a57600080fd5b600080608083850312156141c557600080fd5b82356001600160401b038111156141db57600080fd5b6141e785828601614188565b9250506141f784602085016141a0565b90509250929050565b634e487b7160e01b600052604160045260246000fd5b604080519081016001600160401b038111828210171561423857614238614200565b60405290565b60405161010081016001600160401b038111828210171561423857614238614200565b604051601f8201601f191681016001600160401b038111828210171561428957614289614200565b604052919050565b60006001600160401b038211156142aa576142aa614200565b5060051b60200190565b63ffffffff8116811461044057600080fd5b80356142d1816142b4565b919050565b600082601f8301126142e757600080fd5b813560206142fc6142f783614291565b614261565b82815260059290921b8401810191818101908684111561431b57600080fd5b8286015b8481101561433f578035614332816142b4565b835291830191830161431f565b509695505050505050565b60006040828403121561435c57600080fd5b614364614216565b9050813581526020820135602082015292915050565b600082601f83011261438b57600080fd5b8135602061439b6142f783614291565b82815260069290921b840181019181810190868411156143ba57600080fd5b8286015b8481101561433f576143d0888261434a565b8352918301916040016143be565b600082601f8301126143ef57600080fd5b6143f7614216565b80604084018581111561440957600080fd5b845b8181101561442357803584526020938401930161440b565b509095945050505050565b60006080828403121561444057600080fd5b614448614216565b905061445483836143de565b815261446383604084016143de565b602082015292915050565b600082601f83011261447f57600080fd5b8135602061448f6142f783614291565b82815260059290921b840181019181810190868411156144ae57600080fd5b8286015b8481101561433f5780356001600160401b038111156144d15760008081fd5b6144df8986838b01016142d6565b8452509183019183016144b2565b6000610180828403121561450057600080fd5b61450861423e565b905081356001600160401b038082111561452157600080fd5b61452d858386016142d6565b8352602084013591508082111561454357600080fd5b61454f8583860161437a565b6020840152604084013591508082111561456857600080fd5b6145748583860161437a565b6040840152614586856060860161442e565b60608401526145988560e0860161434a565b60808401526101208401359150808211156145b257600080fd5b6145be858386016142d6565b60a08401526101408401359150808211156145d857600080fd5b6145e4858386016142d6565b60c08401526101608401359150808211156145fe57600080fd5b5061460b8482850161446e565b60e08301525092915050565b600080600083850360e081121561462d57600080fd5b84356001600160401b038082111561464457600080fd5b9086019060c0828903121561465857600080fd5b81955060a0601f198401121561466d57600080fd5b60208701945060c087013592508083111561468757600080fd5b5050614695868287016144ed565b9150509250925092565b6001600160a01b038116811461044057600080fd5b6000602082840312156146c657600080fd5b81356146d18161469f565b9392505050565b6000602082840312156146ea57600080fd5b5035919050565b6000806040838503121561470457600080fd5b82356002811061471357600080fd5b91506020830135614723816142b4565b809150509250929050565b6000815180845260005b8181101561475457602081850181015186830182015201614738565b81811115614766576000602083870101525b50601f01601f19169290920160200192915050565b6020815260006146d1602083018461472e565b801515811461044057600080fd5b600080600080600080600080610100898b0312156147b957600080fd5b88356147c48161469f565b975060208901356147d48161469f565b965060408901356147e48161469f565b955060608901356147f48161469f565b945060808901356148048161478e565b935060a08901356148148161469f565b925060c0890135614824816142b4565b915060e0890135614834816142b4565b809150509295985092959890939650565b60008060006060848603121561485a57600080fd5b83356148658161469f565b92506020848101356001600160401b038082111561488257600080fd5b818701915087601f83011261489657600080fd5b8135818111156148a8576148a8614200565b6148ba601f8201601f19168501614261565b915080825288848285010111156148d057600080fd5b80848401858401376000848284010152508094505050506148f3604085016142c6565b90509250925092565b600081518084526020808501808196508360051b810191508286016000805b86811015614992578385038a52825180518087529087019087870190845b8181101561497d57835180516001600160a01b031684528a8101518b8501526040908101516001600160601b03169084015292890192606090920191600101614939565b50509a87019a9550509185019160010161491b565b509298975050505050505050565b6020815260006146d160208301846148fc565b6000602082840312156149c557600080fd5b81356001600160401b038111156149db57600080fd5b8201604081850312156146d157600080fd5b60008083601f8401126149ff57600080fd5b5081356001600160401b03811115614a1657600080fd5b602083019150836020828501011115614a2e57600080fd5b9250929050565b60008060008060008060808789031215614a4e57600080fd5b8635614a598161469f565b95506020870135614a69816142b4565b945060408701356001600160401b0380821115614a8557600080fd5b614a918a838b016149ed565b90965094506060890135915080821115614aaa57600080fd5b818901915089601f830112614abe57600080fd5b813581811115614acd57600080fd5b8a60208260051b8501011115614ae257600080fd5b6020830194508093505050509295509295509295565b600081518084526020808501945080840160005b83811015614b2e57815163ffffffff1687529582019590820190600101614b0c565b509495945050505050565b600081518084526020808501808196508360051b8101915082860160005b85811015614b81578284038952614b6f848351614af8565b98850198935090840190600101614b57565b5091979650505050505050565b602081526000825160806020840152614baa60a0840182614af8565b90506020840151601f1980858403016040860152614bc88383614af8565b92506040860151915080858403016060860152614be58383614af8565b9250606086015191508085840301608086015250614c038282614b39565b95945050505050565b600080600060a08486031215614c2157600080fd5b83356001600160401b0380821115614c3857600080fd5b614c4487838801614188565b9450614c5387602088016141a0565b93506080860135915080821115614c6957600080fd5b50614695868287016144ed565b600060208284031215614c8857600080fd5b81356001600160401b03811115614c9e57600080fd5b820161012081850312156146d157600080fd5b600060208284031215614cc357600080fd5b813560ff811681146146d157600080fd5b600080600060608486031215614ce957600080fd5b8335614cf48161469f565b92506020848101356001600160401b03811115614d1057600080fd5b8501601f81018713614d2157600080fd5b8035614d2f6142f782614291565b81815260059190911b82018301908381019089831115614d4e57600080fd5b928401925b82841015614d6c57833582529284019290840190614d53565b80965050505050506148f3604085016142c6565b6020808252825182820181905260009190848201906040850190845b81811015614db857835183529284019291840191600101614d9c565b50909695505050505050565b600080600060408486031215614dd957600080fd5b8335614de4816142b4565b925060208401356001600160401b03811115614dff57600080fd5b614e0b868287016149ed565b9497909650939450505050565b600080600080600060808688031215614e3057600080fd5b8535945060208601356001600160401b0380821115614e4e57600080fd5b614e5a89838a016149ed565b909650945060408801359150614e6f826142b4565b90925060608701359080821115614e8557600080fd5b50614e92888289016144ed565b9150509295509295909350565b600081518084526020808501945080840160005b83811015614b2e5781516001600160601b031687529582019590820190600101614eb3565b6040815260008351604080840152614ef36080840182614e9f565b90506020850151603f19848303016060850152614f108282614e9f565b925050508260208301529392505050565b634e487b7160e01b600052602160045260246000fd5b6020810160058310614f5957634e487b7160e01b600052602160045260246000fd5b91905290565b600080600060608486031215614f7457600080fd5b8335614f7f8161469f565b9250602084013591506040840135614f96816142b4565b809150509250925092565b828152604060208201526000614fba60408301846148fc565b949350505050565b600060208284031215614fd457600080fd5b81356146d1816142b4565b6000808335601e19843603018112614ff657600080fd5b8301803591506001600160401b0382111561501057600080fd5b602001915036819003821315614a2e57600080fd5b6000808335601e1984360301811261503c57600080fd5b83016020810192503590506001600160401b0381111561505b57600080fd5b803603831315614a2e57600080fd5b81835281816020850137506000828201602090810191909152601f909101601f19169091010190565b60208152600082356150a4816142b4565b63ffffffff811660208401525060208301356150bf816142b4565b63ffffffff81166040840152506150d8604084016142c6565b63ffffffff81166060840152506150f26060840184615025565b60e060808501526151086101008501828461506a565b915050615117608085016142c6565b63ffffffff811660a08501525061513160a0850185615025565b848303601f190160c086015261514883828461506a565b9250505061515860c085016142c6565b63ffffffff811660e08501525b509392505050565b6020808252603d908201527f737570706c696564207461736b20646f6573206e6f74206d617463682074686560408201527f206f6e65207265636f7264656420696e2074686520636f6e7472616374000000606082015260800190565b6020808252602c908201527f41676772656761746f722068617320616c726561647920726573706f6e64656460408201526b20746f20746865207461736b60a01b606082015260800190565b634e487b7160e01b600052601160045260246000fd5b600063ffffffff80831681851680830382111561524b5761524b615216565b01949350505050565b6020808252602d908201527f41676772656761746f722068617320726573706f6e64656420746f207468652060408201526c7461736b20746f6f206c61746560981b606082015260800190565b80356152ac816142b4565b63ffffffff16825260208181013590830152604090810135910152565b63ffffffff81511682526020810151602083015260006040820151608060408501526152f86080850182614e9f565b905060608301518482036060860152614c038282614e9f565b61531b81846152a1565b608060608201526000614fba60808301846152c9565b606081016140e982846152a1565b602080825260059082015264041757468360dc1b604082015260600190565b602081526000823561536f816142b4565b63ffffffff80821660208501526020850135604085015260408501359150615396826142b4565b8082166060850152606085013591506153ae826142b4565b80821660808501526153c36080860186615025565b925060c060a08601526153da60e08601848361506a565b92505060a08501356153eb816142b4565b1660c0939093019290925250919050565b8035615407816142b4565b63ffffffff168252602081810135908301526040808201359083015260608082013590830152608090810135910152565b60a081016140e982846153fc565b600081518084526020808501945080840160005b83811015614b2e5761547787835180518252602090810151910152565b604096909601959082019060010161545a565b8060005b60028110156154ad57815184526020938401939091019060010161548e565b50505050565b6154be82825161548a565b6020810151611170604084018261548a565b8581526080602082015260006154ea60808301868861506a565b63ffffffff851660408401528281036060840152610180845181835261551282840182614af8565b9150506020850151828203602084015261552c8282615446565b915050604085015182820360408401526155468282615446565b915050606085015161555b60608401826154b3565b506080850151805160e08401526020015161010083015260a085015182820361012084015261558a8282614af8565b91505060c08501518282036101408401526155a58282614af8565b91505060e08501518282036101608401526155c08282614b39565b9a9950505050505050505050565b80516001600160601b03811681146142d157600080fd5b600082601f8301126155f657600080fd5b815160206156066142f783614291565b82815260059290921b8401810191818101908684111561562557600080fd5b8286015b8481101561433f5761563a816155ce565b8352918301918301615629565b6000806040838503121561565a57600080fd5b82516001600160401b038082111561567157600080fd5b908401906040828703121561568557600080fd5b61568d614216565b82518281111561569c57600080fd5b6156a8888286016155e5565b8252506020830151828111156156bd57600080fd5b6156c9888286016155e5565b602083015250809450505050602083015190509250929050565b6156ed81846153fc565b60c060a08201526000614fba60c08301846152c9565b634e487b7160e01b600052603260045260246000fd5b60006001600160601b038083168185168183048111821515161561573f5761573f615216565b02949350505050565b600081600019048311821515161561576257615762615216565b500290565b600060001982141561577b5761577b615216565b5060010190565b60006020828403121561579457600080fd5b81516146d18161469f565b6020808252602a908201527f6d73672e73656e646572206973206e6f74207065726d697373696f6e6564206160408201526939903ab73830bab9b2b960b11b606082015260800190565b6000602082840312156157fb57600080fd5b81516146d18161478e565b60208082526028908201527f6d73672e73656e646572206973206e6f74207065726d697373696f6e6564206160408201526739903830bab9b2b960c11b606082015260800190565b600181811c9082168061586257607f821691505b6020821081141561419a57634e487b7160e01b600052602260045260246000fd5b6000602080838503121561589657600080fd5b82516001600160401b038111156158ac57600080fd5b8301601f810185136158bd57600080fd5b80516158cb6142f782614291565b81815260059190911b820183019083810190878311156158ea57600080fd5b928401925b82841015615908578351825292840192908401906158ef565b979650505050505050565b60006020828403121561592557600080fd5b6146d1826155ce565b63ffffffff84168152604060208201819052810182905260006001600160fb1b0383111561595b57600080fd5b8260051b8085606085013760009201606001918252509392505050565b6000602080838503121561598b57600080fd5b82516001600160401b038111156159a157600080fd5b8301601f810185136159b257600080fd5b80516159c06142f782614291565b81815260059190911b820183019083810190878311156159df57600080fd5b928401925b828410156159085783516159f7816142b4565b825292840192908401906159e4565b63ffffffff84168152604060208201526000614c0360408301848661506a565b600060208284031215615a3857600080fd5b81516001600160c01b03811681146146d157600080fd5b600060208284031215615a6157600080fd5b81516146d1816142b4565b600060ff821660ff811415615a8357615a83615216565b60010192915050565b604081526000615aa060408301858761506a565b905063ffffffff83166020830152949350505050565b60006040820163ffffffff851683526020604081850152818551808452606086019150828701935060005b81811015615afd57845183529383019391830191600101615ae1565b5090979650505050505050565b60208082526039908201527f43616e2774206372656174652061207461736b20696e207468652073616d652060408201527f626c6f636b206173206120636f6d706c65746564207461736b00000000000000606082015260800190565b600063ffffffff83811690831681811015615b8457615b84615216565b039392505050565b60208152600063ffffffff80845116602084015280602085015116604084015280604085015116606084015250606083015160e06080840152615bd361010084018261472e565b90506080840151615bec60a085018263ffffffff169052565b5060a0840151838203601f190160c0850152615c08828261472e565b91505060c084015161516560e085018263ffffffff169052565b60208152600063ffffffff80845116602084015260208401516040840152806040850151166060840152806060850151166080840152608084015160c060a0850152615c7160e085018261472e565b90508160a08601511660c0850152809250505092915050565b600082821015615c9c57615c9c615216565b500390565b600061ffff80831681811415615cb957615cb9615216565b600101939250505056fe10afac9233b4ccc54d6404ffc1cf3b47515a2b8edbf675d15eddce05a027dcbd298c800d0881dd208d705ebc03eb18189f38118259f27dd43b4c60d61c607e87235d629dc802037ded8c61cb27fb29e40fa01b299719d8f991ffe20bdcc59f4fa26469706673582212202ccced8dcfea2da2671543bb524537581e4e0d00a90837d9c7ca7e4238b1683264736f6c634300080c0033","linkReferences":{}},"methodIdentifiers":{"THRESHOLD_DENOMINATOR()":"ef024458","aggregator()":"245a7bfc","allTaskHashes(uint8,uint32)":"13f815ed","allTaskResponses(uint8,uint32)":"1ac27297","allowNonRootInit()":"0ee0fdbd","blsApkRegistry()":"5df45946","blsSignatureChecker()":"1c178e9c","checkSignatures(bytes32,bytes,uint32,(uint32[],(uint256,uint256)[],(uint256,uint256)[],(uint256[2],uint256[2]),(uint256,uint256),uint32[],uint32[],uint32[][]))":"6efb4636","createNewOpTask(uint32,bytes)":"6e125ff4","createNewRdTask(uint256)":"b3ea184e","delegation()":"df5cf723","dummyForOperatorStateInfoType((bool,uint8[],(uint8,uint96,(uint256,uint256))[],(uint8,uint96)[],(uint8,(uint256,uint256))[],bytes32[],(bytes32,uint8[],uint96[],uint8)[],(bytes32,uint8[],uint96[])[],(bytes32,uint8)[]))":"54d127de","dummyForQuorumStakeTotalsType((uint96[],uint96[]))":"45265b7a","forceCreateNewOpTask(uint32,bytes)":"f5640cf8","forceRespondToOpTask((uint32,uint32,uint32,bytes,uint32,bytes,uint32),(uint32,bytes32,bytes32))":"01a3f013","generator()":"7afa1eed","getCheckSignaturesIndices(address,uint32,bytes,bytes32[])":"4f739f74","getOperatorState(address,bytes,uint32)":"3563b0d1","getOperatorState(address,bytes32,uint32)":"cefdc1d4","getQuorumBitmapsAtBlockNumber(address,bytes32[],uint32)":"5c155662","idToTaskStatus(uint8,uint32)":"bf2315ed","initialize(address,address,address,address,bool,address,uint32,uint32)":"2db2e39b","lastCompletedOpTaskCreatedBlock()":"537a2929","lastCompletedOpTaskNum()":"8fc8729a","lastCompletedOpTaskQuorumNumbers()":"2830e8f9","lastCompletedOpTaskQuorumThresholdPercentage()":"e70c2623","lastOpTaskCreatedBlock()":"4d7a7116","latestOpTaskNum()":"41789d57","latestPendingStateHash()":"4ae6b203","latestRdTaskNum()":"7afdd54b","minOpTaskResponseWindowBlock()":"c987de8e","operatorsStateInfoHash()":"adfcb048","owner()":"8da5cb5b","pause(uint256)":"136439dd","pauseAll()":"595c6a67","paused()":"5c975abb","paused(uint8)":"5ac86ab7","pauserRegistry()":"886f1195","registryCoordinator()":"6d14a987","renounceOwnership()":"715018a6","respondToOpTask((uint32,uint32,uint32,bytes,uint32,bytes,uint32),(uint32,bytes32,bytes32),(uint32[],(uint256,uint256)[],(uint256,uint256)[],(uint256[2],uint256[2]),(uint256,uint256),uint32[],uint32[],uint32[][]))":"516a7227","respondToRdTask((uint32,uint256,uint32,uint32,bytes,uint32),(uint32,bytes32,bytes32,bytes32,bytes32),(uint32[],(uint256,uint256)[],(uint256,uint256)[],(uint256[2],uint256[2]),(uint256,uint256),uint32[],uint32[],uint32[][]))":"05c6b663","setPauserRegistry(address)":"10d67a2f","stakeRegistry()":"68304835","taskResponseWindowBlock()":"a69563a9","transferOwnership(address)":"f2fde38b","unpause(uint256)":"fabc1cbc","updateBlsSignatureCheckerAddress(address)":"723114ab"},"id":118}