{"abi":[{"type":"function","name":"THRESHOLD_DENOMINATOR","inputs":[],"outputs":[{"name":"","type":"uint256","internalType":"uint256"}],"stateMutability":"view"},{"type":"function","name":"aggregator","inputs":[],"outputs":[{"name":"","type":"address","internalType":"address"}],"stateMutability":"view"},{"type":"function","name":"allTaskHashes","inputs":[{"name":"","type":"uint8","internalType":"enum IFinalizerTaskManager.TaskType"},{"name":"","type":"uint32","internalType":"uint32"}],"outputs":[{"name":"","type":"bytes32","internalType":"bytes32"}],"stateMutability":"view"},{"type":"function","name":"allTaskResponses","inputs":[{"name":"","type":"uint8","internalType":"enum IFinalizerTaskManager.TaskType"},{"name":"","type":"uint32","internalType":"uint32"}],"outputs":[{"name":"","type":"bytes32","internalType":"bytes32"}],"stateMutability":"view"},{"type":"function","name":"allowNonRootInit","inputs":[],"outputs":[{"name":"","type":"bool","internalType":"bool"}],"stateMutability":"view"},{"type":"function","name":"blsApkRegistry","inputs":[],"outputs":[{"name":"","type":"address","internalType":"contract IBLSApkRegistry"}],"stateMutability":"view"},{"type":"function","name":"blsSignatureChecker","inputs":[],"outputs":[{"name":"","type":"address","internalType":"contract BLSSignatureChecker"}],"stateMutability":"view"},{"type":"function","name":"chainRdBatchNonce","inputs":[{"name":"","type":"uint8","internalType":"enum IRolldownPrimitives.ChainId"}],"outputs":[{"name":"","type":"uint32","internalType":"uint32"}],"stateMutability":"view"},{"type":"function","name":"checkSignatures","inputs":[{"name":"msgHash","type":"bytes32","internalType":"bytes32"},{"name":"quorumNumbers","type":"bytes","internalType":"bytes"},{"name":"referenceBlockNumber","type":"uint32","internalType":"uint32"},{"name":"nonSignerStakesAndSignature","type":"tuple","internalType":"struct IBLSSignatureChecker.NonSignerStakesAndSignature","components":[{"name":"nonSignerQuorumBitmapIndices","type":"uint32[]","internalType":"uint32[]"},{"name":"nonSignerPubkeys","type":"tuple[]","internalType":"struct BN254.G1Point[]","components":[{"name":"X","type":"uint256","internalType":"uint256"},{"name":"Y","type":"uint256","internalType":"uint256"}]},{"name":"quorumApks","type":"tuple[]","internalType":"struct BN254.G1Point[]","components":[{"name":"X","type":"uint256","internalType":"uint256"},{"name":"Y","type":"uint256","internalType":"uint256"}]},{"name":"apkG2","type":"tuple","internalType":"struct BN254.G2Point","components":[{"name":"X","type":"uint256[2]","internalType":"uint256[2]"},{"name":"Y","type":"uint256[2]","internalType":"uint256[2]"}]},{"name":"sigma","type":"tuple","internalType":"struct BN254.G1Point","components":[{"name":"X","type":"uint256","internalType":"uint256"},{"name":"Y","type":"uint256","internalType":"uint256"}]},{"name":"quorumApkIndices","type":"uint32[]","internalType":"uint32[]"},{"name":"totalStakeIndices","type":"uint32[]","internalType":"uint32[]"},{"name":"nonSignerStakeIndices","type":"uint32[][]","internalType":"uint32[][]"}]}],"outputs":[{"name":"","type":"tuple","internalType":"struct IBLSSignatureChecker.QuorumStakeTotals","components":[{"name":"signedStakeForQuorum","type":"uint96[]","internalType":"uint96[]"},{"name":"totalStakeForQuorum","type":"uint96[]","internalType":"uint96[]"}]},{"name":"","type":"bytes32","internalType":"bytes32"}],"stateMutability":"view"},{"type":"function","name":"createNewOpTask","inputs":[{"name":"quorumThresholdPercentage","type":"uint32","internalType":"uint32"},{"name":"quorumNumbers","type":"bytes","internalType":"bytes"}],"outputs":[],"stateMutability":"nonpayable"},{"type":"function","name":"createNewRdTask","inputs":[{"name":"chainId","type":"uint8","internalType":"enum IRolldownPrimitives.ChainId"},{"name":"batchId","type":"uint32","internalType":"uint32"}],"outputs":[],"stateMutability":"nonpayable"},{"type":"function","name":"delegation","inputs":[],"outputs":[{"name":"","type":"address","internalType":"contract IDelegationManager"}],"stateMutability":"view"},{"type":"function","name":"dummyForOperatorStateInfoType","inputs":[{"name":"_operatorStateInfo","type":"tuple","internalType":"struct IGaspMultiRollupServicePrimitives.OperatorStateInfo","components":[{"name":"operatorsStateChanged","type":"bool","internalType":"bool"},{"name":"quorumsRemoved","type":"uint8[]","internalType":"uint8[]"},{"name":"quorumsAdded","type":"tuple[]","internalType":"struct IGaspMultiRollupServicePrimitives.QuorumsAdded[]","components":[{"name":"quorumNumber","type":"uint8","internalType":"uint8"},{"name":"quorumStake","type":"uint96","internalType":"uint96"},{"name":"quorumApk","type":"tuple","internalType":"struct BN254.G1Point","components":[{"name":"X","type":"uint256","internalType":"uint256"},{"name":"Y","type":"uint256","internalType":"uint256"}]}]},{"name":"quorumsStakeUpdate","type":"tuple[]","internalType":"struct IGaspMultiRollupServicePrimitives.QuorumsStakeUpdate[]","components":[{"name":"quorumNumber","type":"uint8","internalType":"uint8"},{"name":"quorumStake","type":"uint96","internalType":"uint96"}]},{"name":"quorumsApkUpdate","type":"tuple[]","internalType":"struct IGaspMultiRollupServicePrimitives.QuorumsApkUpdate[]","components":[{"name":"quorumNumber","type":"uint8","internalType":"uint8"},{"name":"quorumApk","type":"tuple","internalType":"struct BN254.G1Point","components":[{"name":"X","type":"uint256","internalType":"uint256"},{"name":"Y","type":"uint256","internalType":"uint256"}]}]},{"name":"operatorsRemoved","type":"bytes32[]","internalType":"bytes32[]"},{"name":"operatorsAdded","type":"tuple[]","internalType":"struct IGaspMultiRollupServicePrimitives.OperatorsAdded[]","components":[{"name":"operatorId","type":"bytes32","internalType":"bytes32"},{"name":"quorumForStakes","type":"uint8[]","internalType":"uint8[]"},{"name":"quorumStakes","type":"uint96[]","internalType":"uint96[]"},{"name":"quorumCount","type":"uint8","internalType":"uint8"}]},{"name":"operatorsStakeUpdate","type":"tuple[]","internalType":"struct IGaspMultiRollupServicePrimitives.OperatorsStakeUpdate[]","components":[{"name":"operatorId","type":"bytes32","internalType":"bytes32"},{"name":"quorumForStakes","type":"uint8[]","internalType":"uint8[]"},{"name":"quorumStakes","type":"uint96[]","internalType":"uint96[]"}]},{"name":"operatorsQuorumCountUpdate","type":"tuple[]","internalType":"struct IGaspMultiRollupServicePrimitives.OperatorsQuorumCountUpdate[]","components":[{"name":"operatorId","type":"bytes32","internalType":"bytes32"},{"name":"quorumCount","type":"uint8","internalType":"uint8"}]}]}],"outputs":[],"stateMutability":"view"},{"type":"function","name":"dummyForQuorumStakeTotalsType","inputs":[{"name":"_quorumStakeTotals","type":"tuple","internalType":"struct IBLSSignatureChecker.QuorumStakeTotals","components":[{"name":"signedStakeForQuorum","type":"uint96[]","internalType":"uint96[]"},{"name":"totalStakeForQuorum","type":"uint96[]","internalType":"uint96[]"}]}],"outputs":[],"stateMutability":"view"},{"type":"function","name":"forceCancelPendingTasks","inputs":[],"outputs":[],"stateMutability":"nonpayable"},{"type":"function","name":"forceCreateNewOpTask","inputs":[{"name":"quorumThresholdPercentage","type":"uint32","internalType":"uint32"},{"name":"quorumNumbers","type":"bytes","internalType":"bytes"}],"outputs":[],"stateMutability":"nonpayable"},{"type":"function","name":"forceRespondToOpTask","inputs":[{"name":"task","type":"tuple","internalType":"struct IFinalizerTaskManager.OpTask","components":[{"name":"taskNum","type":"uint32","internalType":"uint32"},{"name":"taskCreatedBlock","type":"uint32","internalType":"uint32"},{"name":"lastCompletedOpTaskCreatedBlock","type":"uint32","internalType":"uint32"},{"name":"quorumNumbers","type":"bytes","internalType":"bytes"},{"name":"quorumThresholdPercentage","type":"uint32","internalType":"uint32"},{"name":"lastCompletedOpTaskQuorumNumbers","type":"bytes","internalType":"bytes"},{"name":"lastCompletedOpTaskQuorumThresholdPercentage","type":"uint32","internalType":"uint32"}]},{"name":"taskResponse","type":"tuple","internalType":"struct IFinalizerTaskManager.OpTaskResponse","components":[{"name":"referenceTaskIndex","type":"uint32","internalType":"uint32"},{"name":"referenceTaskHash","type":"bytes32","internalType":"bytes32"},{"name":"operatorsStateInfoHash","type":"bytes32","internalType":"bytes32"}]}],"outputs":[],"stateMutability":"nonpayable"},{"type":"function","name":"generator","inputs":[],"outputs":[{"name":"","type":"address","internalType":"address"}],"stateMutability":"view"},{"type":"function","name":"getCheckSignaturesIndices","inputs":[{"name":"registryCoordinator","type":"address","internalType":"contract IRegistryCoordinator"},{"name":"referenceBlockNumber","type":"uint32","internalType":"uint32"},{"name":"quorumNumbers","type":"bytes","internalType":"bytes"},{"name":"nonSignerOperatorIds","type":"bytes32[]","internalType":"bytes32[]"}],"outputs":[{"name":"","type":"tuple","internalType":"struct OperatorStateRetriever.CheckSignaturesIndices","components":[{"name":"nonSignerQuorumBitmapIndices","type":"uint32[]","internalType":"uint32[]"},{"name":"quorumApkIndices","type":"uint32[]","internalType":"uint32[]"},{"name":"totalStakeIndices","type":"uint32[]","internalType":"uint32[]"},{"name":"nonSignerStakeIndices","type":"uint32[][]","internalType":"uint32[][]"}]}],"stateMutability":"view"},{"type":"function","name":"getOperatorState","inputs":[{"name":"registryCoordinator","type":"address","internalType":"contract IRegistryCoordinator"},{"name":"quorumNumbers","type":"bytes","internalType":"bytes"},{"name":"blockNumber","type":"uint32","internalType":"uint32"}],"outputs":[{"name":"","type":"tuple[][]","internalType":"struct OperatorStateRetriever.Operator[][]","components":[{"name":"operator","type":"address","internalType":"address"},{"name":"operatorId","type":"bytes32","internalType":"bytes32"},{"name":"stake","type":"uint96","internalType":"uint96"}]}],"stateMutability":"view"},{"type":"function","name":"getOperatorState","inputs":[{"name":"registryCoordinator","type":"address","internalType":"contract IRegistryCoordinator"},{"name":"operatorId","type":"bytes32","internalType":"bytes32"},{"name":"blockNumber","type":"uint32","internalType":"uint32"}],"outputs":[{"name":"","type":"uint256","internalType":"uint256"},{"name":"","type":"tuple[][]","internalType":"struct OperatorStateRetriever.Operator[][]","components":[{"name":"operator","type":"address","internalType":"address"},{"name":"operatorId","type":"bytes32","internalType":"bytes32"},{"name":"stake","type":"uint96","internalType":"uint96"}]}],"stateMutability":"view"},{"type":"function","name":"getQuorumBitmapsAtBlockNumber","inputs":[{"name":"registryCoordinator","type":"address","internalType":"contract IRegistryCoordinator"},{"name":"operatorIds","type":"bytes32[]","internalType":"bytes32[]"},{"name":"blockNumber","type":"uint32","internalType":"uint32"}],"outputs":[{"name":"","type":"uint256[]","internalType":"uint256[]"}],"stateMutability":"view"},{"type":"function","name":"idToTaskStatus","inputs":[{"name":"","type":"uint8","internalType":"enum IFinalizerTaskManager.TaskType"},{"name":"","type":"uint32","internalType":"uint32"}],"outputs":[{"name":"","type":"uint8","internalType":"enum IFinalizerTaskManager.TaskStatus"}],"stateMutability":"view"},{"type":"function","name":"initialize","inputs":[{"name":"_pauserRegistry","type":"address","internalType":"contract IPauserRegistry"},{"name":"initialOwner","type":"address","internalType":"address"},{"name":"_aggregator","type":"address","internalType":"address"},{"name":"_generator","type":"address","internalType":"address"},{"name":"_allowNonRootInit","type":"bool","internalType":"bool"},{"name":"_blsSignatureCheckerAddress","type":"address","internalType":"address"},{"name":"_taskResponseWindowBlock","type":"uint32","internalType":"uint32"},{"name":"_operatorStateRetrieverExtended","type":"address","internalType":"address"},{"name":"_rolldown","type":"address","internalType":"contract IRolldown"}],"outputs":[],"stateMutability":"nonpayable"},{"type":"function","name":"isTaskPending","inputs":[],"outputs":[{"name":"","type":"bool","internalType":"bool"}],"stateMutability":"view"},{"type":"function","name":"lastCompletedOpTaskCreatedBlock","inputs":[],"outputs":[{"name":"","type":"uint32","internalType":"uint32"}],"stateMutability":"view"},{"type":"function","name":"lastCompletedOpTaskNum","inputs":[],"outputs":[{"name":"","type":"uint32","internalType":"uint32"}],"stateMutability":"view"},{"type":"function","name":"lastCompletedOpTaskQuorumNumbers","inputs":[],"outputs":[{"name":"","type":"bytes","internalType":"bytes"}],"stateMutability":"view"},{"type":"function","name":"lastCompletedOpTaskQuorumThresholdPercentage","inputs":[],"outputs":[{"name":"","type":"uint32","internalType":"uint32"}],"stateMutability":"view"},{"type":"function","name":"lastOpTaskCreatedBlock","inputs":[],"outputs":[{"name":"","type":"uint32","internalType":"uint32"}],"stateMutability":"view"},{"type":"function","name":"latestOpTaskNum","inputs":[],"outputs":[{"name":"","type":"uint32","internalType":"uint32"}],"stateMutability":"view"},{"type":"function","name":"latestRdTaskNum","inputs":[],"outputs":[{"name":"","type":"uint32","internalType":"uint32"}],"stateMutability":"view"},{"type":"function","name":"operatorStateRetrieverExtended","inputs":[],"outputs":[{"name":"","type":"address","internalType":"address"}],"stateMutability":"view"},{"type":"function","name":"operatorsStateInfoHash","inputs":[],"outputs":[{"name":"","type":"bytes32","internalType":"bytes32"}],"stateMutability":"view"},{"type":"function","name":"owner","inputs":[],"outputs":[{"name":"","type":"address","internalType":"address"}],"stateMutability":"view"},{"type":"function","name":"pause","inputs":[{"name":"newPausedStatus","type":"uint256","internalType":"uint256"}],"outputs":[],"stateMutability":"nonpayable"},{"type":"function","name":"pauseAll","inputs":[],"outputs":[],"stateMutability":"nonpayable"},{"type":"function","name":"pauseTrackingOpState","inputs":[],"outputs":[],"stateMutability":"nonpayable"},{"type":"function","name":"paused","inputs":[{"name":"index","type":"uint8","internalType":"uint8"}],"outputs":[{"name":"","type":"bool","internalType":"bool"}],"stateMutability":"view"},{"type":"function","name":"paused","inputs":[],"outputs":[{"name":"","type":"uint256","internalType":"uint256"}],"stateMutability":"view"},{"type":"function","name":"pauserRegistry","inputs":[],"outputs":[{"name":"","type":"address","internalType":"contract IPauserRegistry"}],"stateMutability":"view"},{"type":"function","name":"registryCoordinator","inputs":[],"outputs":[{"name":"","type":"address","internalType":"contract IRegistryCoordinator"}],"stateMutability":"view"},{"type":"function","name":"renounceOwnership","inputs":[],"outputs":[],"stateMutability":"nonpayable"},{"type":"function","name":"respondToOpTask","inputs":[{"name":"task","type":"tuple","internalType":"struct IFinalizerTaskManager.OpTask","components":[{"name":"taskNum","type":"uint32","internalType":"uint32"},{"name":"taskCreatedBlock","type":"uint32","internalType":"uint32"},{"name":"lastCompletedOpTaskCreatedBlock","type":"uint32","internalType":"uint32"},{"name":"quorumNumbers","type":"bytes","internalType":"bytes"},{"name":"quorumThresholdPercentage","type":"uint32","internalType":"uint32"},{"name":"lastCompletedOpTaskQuorumNumbers","type":"bytes","internalType":"bytes"},{"name":"lastCompletedOpTaskQuorumThresholdPercentage","type":"uint32","internalType":"uint32"}]},{"name":"taskResponse","type":"tuple","internalType":"struct IFinalizerTaskManager.OpTaskResponse","components":[{"name":"referenceTaskIndex","type":"uint32","internalType":"uint32"},{"name":"referenceTaskHash","type":"bytes32","internalType":"bytes32"},{"name":"operatorsStateInfoHash","type":"bytes32","internalType":"bytes32"}]},{"name":"nonSignerStakesAndSignature","type":"tuple","internalType":"struct IBLSSignatureChecker.NonSignerStakesAndSignature","components":[{"name":"nonSignerQuorumBitmapIndices","type":"uint32[]","internalType":"uint32[]"},{"name":"nonSignerPubkeys","type":"tuple[]","internalType":"struct BN254.G1Point[]","components":[{"name":"X","type":"uint256","internalType":"uint256"},{"name":"Y","type":"uint256","internalType":"uint256"}]},{"name":"quorumApks","type":"tuple[]","internalType":"struct BN254.G1Point[]","components":[{"name":"X","type":"uint256","internalType":"uint256"},{"name":"Y","type":"uint256","internalType":"uint256"}]},{"name":"apkG2","type":"tuple","internalType":"struct BN254.G2Point","components":[{"name":"X","type":"uint256[2]","internalType":"uint256[2]"},{"name":"Y","type":"uint256[2]","internalType":"uint256[2]"}]},{"name":"sigma","type":"tuple","internalType":"struct BN254.G1Point","components":[{"name":"X","type":"uint256","internalType":"uint256"},{"name":"Y","type":"uint256","internalType":"uint256"}]},{"name":"quorumApkIndices","type":"uint32[]","internalType":"uint32[]"},{"name":"totalStakeIndices","type":"uint32[]","internalType":"uint32[]"},{"name":"nonSignerStakeIndices","type":"uint32[][]","internalType":"uint32[][]"}]}],"outputs":[],"stateMutability":"nonpayable"},{"type":"function","name":"respondToRdTask","inputs":[{"name":"task","type":"tuple","internalType":"struct IFinalizerTaskManager.RdTask","components":[{"name":"taskNum","type":"uint32","internalType":"uint32"},{"name":"chainId","type":"uint8","internalType":"enum IRolldownPrimitives.ChainId"},{"name":"batchId","type":"uint32","internalType":"uint32"},{"name":"taskCreatedBlock","type":"uint32","internalType":"uint32"},{"name":"lastCompletedOpTaskCreatedBlock","type":"uint32","internalType":"uint32"},{"name":"lastCompletedOpTaskQuorumNumbers","type":"bytes","internalType":"bytes"},{"name":"lastCompletedOpTaskQuorumThresholdPercentage","type":"uint32","internalType":"uint32"}]},{"name":"taskResponse","type":"tuple","internalType":"struct IFinalizerTaskManager.RdTaskResponse","components":[{"name":"referenceTaskIndex","type":"uint32","internalType":"uint32"},{"name":"referenceTaskHash","type":"bytes32","internalType":"bytes32"},{"name":"chainId","type":"uint8","internalType":"enum IRolldownPrimitives.ChainId"},{"name":"batchId","type":"uint32","internalType":"uint32"},{"name":"rdUpdate","type":"bytes32","internalType":"bytes32"},{"name":"rangeStart","type":"uint256","internalType":"uint256"},{"name":"rangeEnd","type":"uint256","internalType":"uint256"},{"name":"updater","type":"address","internalType":"address"}]},{"name":"nonSignerStakesAndSignature","type":"tuple","internalType":"struct IBLSSignatureChecker.NonSignerStakesAndSignature","components":[{"name":"nonSignerQuorumBitmapIndices","type":"uint32[]","internalType":"uint32[]"},{"name":"nonSignerPubkeys","type":"tuple[]","internalType":"struct BN254.G1Point[]","components":[{"name":"X","type":"uint256","internalType":"uint256"},{"name":"Y","type":"uint256","internalType":"uint256"}]},{"name":"quorumApks","type":"tuple[]","internalType":"struct BN254.G1Point[]","components":[{"name":"X","type":"uint256","internalType":"uint256"},{"name":"Y","type":"uint256","internalType":"uint256"}]},{"name":"apkG2","type":"tuple","internalType":"struct BN254.G2Point","components":[{"name":"X","type":"uint256[2]","internalType":"uint256[2]"},{"name":"Y","type":"uint256[2]","internalType":"uint256[2]"}]},{"name":"sigma","type":"tuple","internalType":"struct BN254.G1Point","components":[{"name":"X","type":"uint256","internalType":"uint256"},{"name":"Y","type":"uint256","internalType":"uint256"}]},{"name":"quorumApkIndices","type":"uint32[]","internalType":"uint32[]"},{"name":"totalStakeIndices","type":"uint32[]","internalType":"uint32[]"},{"name":"nonSignerStakeIndices","type":"uint32[][]","internalType":"uint32[][]"}]}],"outputs":[],"stateMutability":"nonpayable"},{"type":"function","name":"resumeTrackingQuorums","inputs":[{"name":"resetTrackedQuorums","type":"bool","internalType":"bool"}],"outputs":[],"stateMutability":"nonpayable"},{"type":"function","name":"rolldown","inputs":[],"outputs":[{"name":"","type":"address","internalType":"contract IRolldown"}],"stateMutability":"view"},{"type":"function","name":"setPauserRegistry","inputs":[{"name":"newPauserRegistry","type":"address","internalType":"contract IPauserRegistry"}],"outputs":[],"stateMutability":"nonpayable"},{"type":"function","name":"setRolldown","inputs":[{"name":"_rolldown","type":"address","internalType":"contract IRolldown"}],"outputs":[],"stateMutability":"nonpayable"},{"type":"function","name":"stakeRegistry","inputs":[],"outputs":[{"name":"","type":"address","internalType":"contract IStakeRegistry"}],"stateMutability":"view"},{"type":"function","name":"taskResponseWindowBlock","inputs":[],"outputs":[{"name":"","type":"uint32","internalType":"uint32"}],"stateMutability":"view"},{"type":"function","name":"transferOwnership","inputs":[{"name":"newOwner","type":"address","internalType":"address"}],"outputs":[],"stateMutability":"nonpayable"},{"type":"function","name":"unpause","inputs":[{"name":"newPausedStatus","type":"uint256","internalType":"uint256"}],"outputs":[],"stateMutability":"nonpayable"},{"type":"function","name":"updateBlsSignatureCheckerAddress","inputs":[{"name":"_blsSignatureCheckerAddress","type":"address","internalType":"address"}],"outputs":[],"stateMutability":"nonpayable"},{"type":"event","name":"BLSSignatureCheckerAddressUpdated","inputs":[{"name":"blsSignatureCheckerAddress","type":"address","indexed":false,"internalType":"address"}],"anonymous":false},{"type":"event","name":"Initialized","inputs":[{"name":"version","type":"uint8","indexed":false,"internalType":"uint8"}],"anonymous":false},{"type":"event","name":"NewOpTaskCreated","inputs":[{"name":"taskIndex","type":"uint32","indexed":true,"internalType":"uint32"},{"name":"task","type":"tuple","indexed":false,"internalType":"struct IFinalizerTaskManager.OpTask","components":[{"name":"taskNum","type":"uint32","internalType":"uint32"},{"name":"taskCreatedBlock","type":"uint32","internalType":"uint32"},{"name":"lastCompletedOpTaskCreatedBlock","type":"uint32","internalType":"uint32"},{"name":"quorumNumbers","type":"bytes","internalType":"bytes"},{"name":"quorumThresholdPercentage","type":"uint32","internalType":"uint32"},{"name":"lastCompletedOpTaskQuorumNumbers","type":"bytes","internalType":"bytes"},{"name":"lastCompletedOpTaskQuorumThresholdPercentage","type":"uint32","internalType":"uint32"}]}],"anonymous":false},{"type":"event","name":"NewOpTaskForceCreated","inputs":[],"anonymous":false},{"type":"event","name":"NewRdTaskCreated","inputs":[{"name":"taskIndex","type":"uint32","indexed":true,"internalType":"uint32"},{"name":"task","type":"tuple","indexed":false,"internalType":"struct IFinalizerTaskManager.RdTask","components":[{"name":"taskNum","type":"uint32","internalType":"uint32"},{"name":"chainId","type":"uint8","internalType":"enum IRolldownPrimitives.ChainId"},{"name":"batchId","type":"uint32","internalType":"uint32"},{"name":"taskCreatedBlock","type":"uint32","internalType":"uint32"},{"name":"lastCompletedOpTaskCreatedBlock","type":"uint32","internalType":"uint32"},{"name":"lastCompletedOpTaskQuorumNumbers","type":"bytes","internalType":"bytes"},{"name":"lastCompletedOpTaskQuorumThresholdPercentage","type":"uint32","internalType":"uint32"}]}],"anonymous":false},{"type":"event","name":"OpTaskCancelled","inputs":[{"name":"taskIndex","type":"uint32","indexed":true,"internalType":"uint32"}],"anonymous":false},{"type":"event","name":"OpTaskCompleted","inputs":[{"name":"taskIndex","type":"uint32","indexed":true,"internalType":"uint32"},{"name":"taskResponse","type":"tuple","indexed":false,"internalType":"struct IFinalizerTaskManager.OpTaskResponse","components":[{"name":"referenceTaskIndex","type":"uint32","internalType":"uint32"},{"name":"referenceTaskHash","type":"bytes32","internalType":"bytes32"},{"name":"operatorsStateInfoHash","type":"bytes32","internalType":"bytes32"}]}],"anonymous":false},{"type":"event","name":"OpTaskForceCompleted","inputs":[{"name":"taskIndex","type":"uint32","indexed":true,"internalType":"uint32"},{"name":"taskResponse","type":"tuple","indexed":false,"internalType":"struct IFinalizerTaskManager.OpTaskResponse","components":[{"name":"referenceTaskIndex","type":"uint32","internalType":"uint32"},{"name":"referenceTaskHash","type":"bytes32","internalType":"bytes32"},{"name":"operatorsStateInfoHash","type":"bytes32","internalType":"bytes32"}]}],"anonymous":false},{"type":"event","name":"OpTaskResponded","inputs":[{"name":"taskIndex","type":"uint32","indexed":true,"internalType":"uint32"},{"name":"taskResponse","type":"tuple","indexed":false,"internalType":"struct IFinalizerTaskManager.OpTaskResponse","components":[{"name":"referenceTaskIndex","type":"uint32","internalType":"uint32"},{"name":"referenceTaskHash","type":"bytes32","internalType":"bytes32"},{"name":"operatorsStateInfoHash","type":"bytes32","internalType":"bytes32"}]},{"name":"taskResponseMetadata","type":"tuple","indexed":false,"internalType":"struct IFinalizerTaskManager.TaskResponseMetadata","components":[{"name":"taskResponsedBlock","type":"uint32","internalType":"uint32"},{"name":"hashOfNonSigners","type":"bytes32","internalType":"bytes32"},{"name":"quroumStakeTotals","type":"uint96[]","internalType":"uint96[]"},{"name":"quroumStakeSigned","type":"uint96[]","internalType":"uint96[]"}]}],"anonymous":false},{"type":"event","name":"OwnershipTransferred","inputs":[{"name":"previousOwner","type":"address","indexed":true,"internalType":"address"},{"name":"newOwner","type":"address","indexed":true,"internalType":"address"}],"anonymous":false},{"type":"event","name":"PauseTrackingOpState","inputs":[],"anonymous":false},{"type":"event","name":"Paused","inputs":[{"name":"account","type":"address","indexed":true,"internalType":"address"},{"name":"newPausedStatus","type":"uint256","indexed":false,"internalType":"uint256"}],"anonymous":false},{"type":"event","name":"PauserRegistrySet","inputs":[{"name":"pauserRegistry","type":"address","indexed":false,"internalType":"contract IPauserRegistry"},{"name":"newPauserRegistry","type":"address","indexed":false,"internalType":"contract IPauserRegistry"}],"anonymous":false},{"type":"event","name":"RdTaskCancelled","inputs":[{"name":"taskIndex","type":"uint32","indexed":true,"internalType":"uint32"}],"anonymous":false},{"type":"event","name":"RdTaskCompleted","inputs":[{"name":"taskIndex","type":"uint32","indexed":true,"internalType":"uint32"},{"name":"taskResponse","type":"tuple","indexed":false,"internalType":"struct IFinalizerTaskManager.RdTaskResponse","components":[{"name":"referenceTaskIndex","type":"uint32","internalType":"uint32"},{"name":"referenceTaskHash","type":"bytes32","internalType":"bytes32"},{"name":"chainId","type":"uint8","internalType":"enum IRolldownPrimitives.ChainId"},{"name":"batchId","type":"uint32","internalType":"uint32"},{"name":"rdUpdate","type":"bytes32","internalType":"bytes32"},{"name":"rangeStart","type":"uint256","internalType":"uint256"},{"name":"rangeEnd","type":"uint256","internalType":"uint256"},{"name":"updater","type":"address","internalType":"address"}]}],"anonymous":false},{"type":"event","name":"RdTaskResponded","inputs":[{"name":"taskIndex","type":"uint32","indexed":true,"internalType":"uint32"},{"name":"taskResponse","type":"tuple","indexed":false,"internalType":"struct IFinalizerTaskManager.RdTaskResponse","components":[{"name":"referenceTaskIndex","type":"uint32","internalType":"uint32"},{"name":"referenceTaskHash","type":"bytes32","internalType":"bytes32"},{"name":"chainId","type":"uint8","internalType":"enum IRolldownPrimitives.ChainId"},{"name":"batchId","type":"uint32","internalType":"uint32"},{"name":"rdUpdate","type":"bytes32","internalType":"bytes32"},{"name":"rangeStart","type":"uint256","internalType":"uint256"},{"name":"rangeEnd","type":"uint256","internalType":"uint256"},{"name":"updater","type":"address","internalType":"address"}]},{"name":"taskResponseMetadata","type":"tuple","indexed":false,"internalType":"struct IFinalizerTaskManager.TaskResponseMetadata","components":[{"name":"taskResponsedBlock","type":"uint32","internalType":"uint32"},{"name":"hashOfNonSigners","type":"bytes32","internalType":"bytes32"},{"name":"quroumStakeTotals","type":"uint96[]","internalType":"uint96[]"},{"name":"quroumStakeSigned","type":"uint96[]","internalType":"uint96[]"}]}],"anonymous":false},{"type":"event","name":"ResumeTrackingOpState","inputs":[{"name":"resetTrackedQuorums","type":"bool","indexed":false,"internalType":"bool"}],"anonymous":false},{"type":"event","name":"RolldownTargetUpdated","inputs":[{"name":"rolldownAddress","type":"address","indexed":false,"internalType":"address"}],"anonymous":false},{"type":"event","name":"StaleStakesForbiddenUpdate","inputs":[{"name":"value","type":"bool","indexed":false,"internalType":"bool"}],"anonymous":false},{"type":"event","name":"Unpaused","inputs":[{"name":"account","type":"address","indexed":true,"internalType":"address"},{"name":"newPausedStatus","type":"uint256","indexed":false,"internalType":"uint256"}],"anonymous":false}],"bytecode":{"object":"0x608060405234801561001057600080fd5b50615ecf80620000216000396000f3fe608060405234801561001057600080fd5b50600436106103425760003560e01c80636d14a987116101b8578063930390d911610104578063e70c2623116100a2578063f2fde38b1161007c578063f2fde38b1461079e578063f5640cf8146107b1578063fabc1cbc146107c4578063fdc15de8146107d757600080fd5b8063e70c262314610773578063e72ddf1014610783578063ef0244581461079657600080fd5b8063bf2315ed116100de578063bf2315ed146106fc578063cefdc1d414610737578063de43483814610758578063df5cf7231461076b57600080fd5b8063930390d9146106b6578063a69563a9146106dc578063adfcb048146106f357600080fd5b806379badf73116101715780638380acbd1161014b5780638380acbd14610668578063886f11951461067b5780638da5cb5b1461068e5780638fc8729a1461069f57600080fd5b806379badf73146106365780637afa1eed1461063e5780637afdd54b1461065157600080fd5b80636d14a987146105cc5780636e125ff4146105d45780636efb4636146105e75780636f25481914610608578063715018a61461061b578063723114ab1461062357600080fd5b806341789d5711610292578063595c6a67116102305780635c975abb1161020a5780635c975abb146105ac5780635df45946146105b457806360202fc0146105bc57806368304835146105c457600080fd5b8063595c6a67146105615780635ac86ab7146105695780635c1556621461058c57600080fd5b80634f739f741161026c5780634f739f7414610509578063516a722714610529578063537a29291461053c57806354d127de1461055357600080fd5b806341789d57146104bc57806345265b7a146104e85780634d7a7116146104f957600080fd5b80631ac27297116102ff5780632830e8f9116102d95780632830e8f9146104605780633563b0d11461047557806336f78ed8146104955780633d9fb00c146104a957600080fd5b80631ac27297146103f05780631c178e9c1461041b578063245a7bfc1461044657600080fd5b806301a3f013146103475780630ee0fdbd1461035c57806310d67a2f1461037e578063136439dd1461039157806313f815ed146103a4578063191aac7a146103dd575b600080fd5b61035a6103553660046142e5565b6107ea565b005b60a3546103699060ff1681565b60405190151581526020015b60405180910390f35b61035a61038c366004614348565b610cc9565b61035a61039f366004614365565b610d79565b6103cf6103b23660046143ad565b609960209081526000928352604080842090915290825290205481565b604051908152602001610375565b61035a6103eb3660046143f4565b610eb8565b6103cf6103fe3660046143ad565b609a60209081526000928352604080842090915290825290205481565b60975461042e906001600160a01b031681565b6040516001600160a01b039091168152602001610375565b609e5461042e90600160201b90046001600160a01b031681565b610468610ef9565b604051610375919061445e565b610488610483366004614502565b610f87565b604051610375919061465d565b60a05461036990600160a01b900460ff1681565b60a05461042e906001600160a01b031681565b6098546104d390600160c01b900463ffffffff1681565b60405163ffffffff9091168152602001610375565b61035a6104f6366004614670565b50565b609c546104d39063ffffffff1681565b61051c6105173660046146f2565b61141f565b604051610375919061484b565b61035a610537366004614c2d565b611b45565b609c546104d390600160401b900463ffffffff1681565b61035a6104f6366004614ca1565b61035a61228b565b610369610577366004614cdc565b606654600160ff9092169190911b9081161490565b61059f61059a366004614cff565b612352565b6040516103759190614dab565b6066546103cf565b61042e61251a565b61035a61258d565b61042e6125cd565b61042e612617565b61035a6105e2366004614def565b612661565b6105fa6105f5366004614e43565b612704565b604051610375929190614f03565b61035a6106163660046143ad565b6127a4565b61035a612ae1565b61035a610631366004614348565b612af3565b61035a612b49565b609f5461042e906001600160a01b031681565b6098546104d390600160e01b900463ffffffff1681565b60985461042e906001600160a01b031681565b60655461042e906001600160a01b031681565b6033546001600160a01b031661042e565b609c546104d390600160201b900463ffffffff1681565b6104d36106c4366004614f4c565b60a16020526000908152604090205463ffffffff1681565b6098546104d390600160a01b900463ffffffff1681565b6103cf60a25481565b61072a61070a3660046143ad565b609b60209081526000928352604080842090915290825290205460ff1681565b6040516103759190614f7f565b61074a610745366004614f99565b612b7c565b604051610375929190614fdb565b61035a610766366004614ffc565b612d0e565b61042e612ec6565b609e546104d39063ffffffff1681565b61035a6107913660046150b8565b612f10565b6103cf606481565b61035a6107ac366004614348565b6136c3565b61035a6107bf366004614def565b613739565b61035a6107d2366004614365565b613794565b61035a6107e5366004614348565b6138f0565b6107f2613996565b60006108016020830183615130565b905060006108156060850160408601615130565b905060006108296040860160208701615130565b905036600061083b60a088018861514d565b9092509050600061085260e0890160c08a01615130565b60a054909150600160a01b900460ff16151560011461088c5760405162461bcd60e51b815260040161088390615193565b60405180910390fd5b6000808052609960209081527f235d629dc802037ded8c61cb27fb29e40fa01b299719d8f991ffe20bdcc59f4f91906108c7908a018a615130565b63ffffffff1663ffffffff16815260200190815260200160002054886040516020016108f3919061522a565b60405160208183030381529060405280519060200120146109265760405162461bcd60e51b815260040161088390615304565b6000808052609b6020908152600191600080516020615e5a83398151915291610951908b018b615130565b63ffffffff16815260208101919091526040016000205460ff16600481111561097c5761097c614f69565b146109995760405162461bcd60e51b81526004016108839061532b565b6000808052609a60209081527fbe6620bd3346e5d7f8387fbec0981aa0d6289d22efa7c935f9ef6841bf2a98c79082906109d5908b018b615130565b63ffffffff1663ffffffff1681526020019081526020016000205414610a0d5760405162461bcd60e51b815260040161088390615353565b609854610a2790600160a01b900463ffffffff168561538d565b63ffffffff164363ffffffff161115610a525760405162461bcd60e51b8152600401610883906153b5565b60408051808201909152606080825260208201526040805160808101825263ffffffff431681526000602080830182905284810151838501528451606084015292519092610aa4918c91849101615447565b60408051601f1981840301815291905280516020918201206000808052609a835290917fbe6620bd3346e5d7f8387fbec0981aa0d6289d22efa7c935f9ef6841bf2a98c79190610af6908e018e615130565b63ffffffff16815260208082019290925260409081016000908120939093558c013560a255818052609b8152600491600080516020615e5a83398151915291610b41908e018e615130565b63ffffffff16815260208101919091526040016000205460ff166004811115610b6c57610b6c614f69565b50610b7f905060408c0160208d01615130565b609c805463ffffffff92909216600160401b0263ffffffff60401b19909216919091179055610bb160608c018c61514d565b610bbd91609d91614222565b50610bce60a08c0160808d01615130565b609e805463ffffffff191663ffffffff92909216919091179055610bf560208c018c615130565b609c805463ffffffff92909216600160201b0267ffffffff000000001990921691909117905560a0805460ff60a01b19169055610c3560208b018b615130565b63ffffffff167fff2908483d74b6b70053dd473260acf1b09e0ba0781bf94100bb8277581749de8b604051610c6a9190615467565b60405180910390a2610c7f60208b018b615130565b63ffffffff167fdf22f3558e4841b63d77179546b3eae63e4e343bbe752746b093162bc526be4c8b604051610cb49190615467565b60405180910390a25050505050505050505050565b606560009054906101000a90046001600160a01b03166001600160a01b031663eab66d7a6040518163ffffffff1660e01b8152600401602060405180830381865afa158015610d1c573d6000803e3d6000fd5b505050506040513d601f19601f82011682018060405250810190610d409190615475565b6001600160a01b0316336001600160a01b031614610d705760405162461bcd60e51b815260040161088390615492565b6104f6816139f0565b60655460405163237dfb4760e11b81523360048201526001600160a01b03909116906346fbf68e90602401602060405180830381865afa158015610dc1573d6000803e3d6000fd5b505050506040513d601f19601f82011682018060405250810190610de591906154dc565b610e015760405162461bcd60e51b8152600401610883906154f9565b60665481811614610e7a5760405162461bcd60e51b815260206004820152603860248201527f5061757361626c652e70617573653a20696e76616c696420617474656d70742060448201527f746f20756e70617573652066756e6374696f6e616c69747900000000000000006064820152608401610883565b606681905560405181815233907fab40a374bc51de372200a8bc981af8c9ecdc08dfdaef0bb6e09f88f3c616ef3d906020015b60405180910390a250565b610ec0613996565b60405181151581527f6af4ae1f481aff20ce571abd65375b67b22359883a823d1ddf4bd8f2879ff7ba906020015b60405180910390a150565b609d8054610f0690615541565b80601f0160208091040260200160405190810160405280929190818152602001828054610f3290615541565b8015610f7f5780601f10610f5457610100808354040283529160200191610f7f565b820191906000526020600020905b815481529060010190602001808311610f6257829003601f168201915b505050505081565b60606000846001600160a01b031663683048356040518163ffffffff1660e01b8152600401602060405180830381865afa158015610fc9573d6000803e3d6000fd5b505050506040513d601f19601f82011682018060405250810190610fed9190615475565b90506000856001600160a01b0316639e9923c26040518163ffffffff1660e01b8152600401602060405180830381865afa15801561102f573d6000803e3d6000fd5b505050506040513d601f19601f820116820180604052508101906110539190615475565b90506000866001600160a01b0316635df459466040518163ffffffff1660e01b8152600401602060405180830381865afa158015611095573d6000803e3d6000fd5b505050506040513d601f19601f820116820180604052508101906110b99190615475565b9050600086516001600160401b038111156110d6576110d6614471565b60405190808252806020026020018201604052801561110957816020015b60608152602001906001900390816110f45790505b50905060005b875181101561141157600088828151811061112c5761112c615576565b0160200151604051638902624560e01b815260f89190911c6004820181905263ffffffff8a16602483015291506000906001600160a01b03871690638902624590604401600060405180830381865afa15801561118d573d6000803e3d6000fd5b505050506040513d6000823e601f3d908101601f191682016040526111b5919081019061558c565b905080516001600160401b038111156111d0576111d0614471565b60405190808252806020026020018201604052801561121b57816020015b60408051606081018252600080825260208083018290529282015282526000199092019101816111ee5790505b5084848151811061122e5761122e615576565b602002602001018190525060005b81518110156113fb576040518060600160405280876001600160a01b03166347b314e885858151811061127157611271615576565b60200260200101516040518263ffffffff1660e01b815260040161129791815260200190565b602060405180830381865afa1580156112b4573d6000803e3d6000fd5b505050506040513d601f19601f820116820180604052508101906112d89190615475565b6001600160a01b031681526020018383815181106112f8576112f8615576565b60200260200101518152602001896001600160a01b031663fa28c62785858151811061132657611326615576565b60209081029190910101516040516001600160e01b031960e084901b168152600481019190915260ff8816602482015263ffffffff8f166044820152606401602060405180830381865afa158015611382573d6000803e3d6000fd5b505050506040513d601f19601f820116820180604052508101906113a69190615633565b6001600160601b03168152508585815181106113c4576113c4615576565b602002602001015182815181106113dd576113dd615576565b602002602001018190525080806113f39061564e565b91505061123c565b50505080806114099061564e565b91505061110f565b5093505050505b9392505050565b61144a6040518060800160405280606081526020016060815260200160608152602001606081525090565b6000876001600160a01b031663683048356040518163ffffffff1660e01b8152600401602060405180830381865afa15801561148a573d6000803e3d6000fd5b505050506040513d601f19601f820116820180604052508101906114ae9190615475565b90506114db6040518060800160405280606081526020016060815260200160608152602001606081525090565b6040516361c8a12f60e11b81526001600160a01b038a169063c391425e9061150b908b9089908990600401615669565b600060405180830381865afa158015611528573d6000803e3d6000fd5b505050506040513d6000823e601f3d908101601f1916820160405261155091908101906156b3565b81526040516340e03a8160e11b81526001600160a01b038316906381c0750290611582908b908b908b90600401615741565b600060405180830381865afa15801561159f573d6000803e3d6000fd5b505050506040513d6000823e601f3d908101601f191682016040526115c791908101906156b3565b6040820152856001600160401b038111156115e4576115e4614471565b60405190808252806020026020018201604052801561161757816020015b60608152602001906001900390816116025790505b50606082015260005b60ff8116871115611a56576000856001600160401b0381111561164557611645614471565b60405190808252806020026020018201604052801561166e578160200160208202803683370190505b5083606001518360ff168151811061168857611688615576565b602002602001018190525060005b868110156119565760008c6001600160a01b03166304ec63518a8a858181106116c1576116c1615576565b905060200201358e886000015186815181106116df576116df615576565b60200260200101516040518463ffffffff1660e01b815260040161171c9392919092835263ffffffff918216602084015216604082015260600190565b602060405180830381865afa158015611739573d6000803e3d6000fd5b505050506040513d601f19601f8201168201806040525081019061175d9190615761565b90506001600160c01b0381166118015760405162461bcd60e51b815260206004820152605c60248201527f4f70657261746f7253746174655265747269657665722e676574436865636b5360448201527f69676e617475726573496e64696365733a206f70657261746f72206d7573742060648201527f6265207265676973746572656420617420626c6f636b6e756d62657200000000608482015260a401610883565b8a8a8560ff1681811061181657611816615576565b6001600160c01b03841692013560f81c9190911c60019081161415905061194357856001600160a01b031663dd9846b98a8a8581811061185857611858615576565b905060200201358d8d8860ff1681811061187457611874615576565b6040516001600160e01b031960e087901b1681526004810194909452919091013560f81c60248301525063ffffffff8f166044820152606401602060405180830381865afa1580156118ca573d6000803e3d6000fd5b505050506040513d601f19601f820116820180604052508101906118ee919061578a565b85606001518560ff168151811061190757611907615576565b6020026020010151848151811061192057611920615576565b63ffffffff909216602092830291909101909101528261193f8161564e565b9350505b508061194e8161564e565b915050611696565b506000816001600160401b0381111561197157611971614471565b60405190808252806020026020018201604052801561199a578160200160208202803683370190505b50905060005b82811015611a1b5784606001518460ff16815181106119c1576119c1615576565b602002602001015181815181106119da576119da615576565b60200260200101518282815181106119f4576119f4615576565b63ffffffff9092166020928302919091019091015280611a138161564e565b9150506119a0565b508084606001518460ff1681518110611a3657611a36615576565b602002602001018190525050508080611a4e906157a7565b915050611620565b506000896001600160a01b0316635df459466040518163ffffffff1660e01b8152600401602060405180830381865afa158015611a97573d6000803e3d6000fd5b505050506040513d601f19601f82011682018060405250810190611abb9190615475565b60405163354952a360e21b81529091506001600160a01b0382169063d5254a8c90611aee908b908b908e906004016157c7565b600060405180830381865afa158015611b0b573d6000803e3d6000fd5b505050506040513d6000823e601f3d908101601f19168201604052611b3391908101906156b3565b60208301525098975050505050505050565b609c54600160401b900463ffffffff16156000611b686060860160408701615130565b90508115611bf35760a35460ff1615611bb157609e54600160201b90046001600160a01b03163314611bac5760405162461bcd60e51b8152600401610883906157f1565b611c24565b6033546001600160a01b03163314611bac5760405162461bcd60e51b815260206004820152600560248201526420baba341960d91b6044820152606401610883565b609e54600160201b90046001600160a01b03163314611c245760405162461bcd60e51b8152600401610883906157f1565b6000611c366040870160208801615130565b9050366000611c4860a089018961514d565b90925090506000611c5f60e08a0160c08b01615130565b60a054909150600160a01b900460ff161515600114611c905760405162461bcd60e51b815260040161088390615193565b6000808052609960209081527f235d629dc802037ded8c61cb27fb29e40fa01b299719d8f991ffe20bdcc59f4f9190611ccb908b018b615130565b63ffffffff1663ffffffff1681526020019081526020016000205489604051602001611cf7919061522a565b6040516020818303038152906040528051906020012014611d2a5760405162461bcd60e51b815260040161088390615304565b6000808052609b6020908152600191600080516020615e5a83398151915291611d55908c018c615130565b63ffffffff16815260208101919091526040016000205460ff166004811115611d8057611d80614f69565b14611d9d5760405162461bcd60e51b81526004016108839061532b565b6000808052609a60209081527fbe6620bd3346e5d7f8387fbec0981aa0d6289d22efa7c935f9ef6841bf2a98c7908290611dd9908c018c615130565b63ffffffff1663ffffffff1681526020019081526020016000205414611e115760405162461bcd60e51b815260040161088390615353565b609854611e2b90600160a01b900463ffffffff168561538d565b63ffffffff164363ffffffff161115611e565760405162461bcd60e51b8152600401610883906153b5565b600088604051602001611e699190615467565b60408051601f198184030181528282528051602091820120838301909252606080845290830152915060008815611f2e57609760009054906101000a90046001600160a01b03166001600160a01b0316636efb46368488888c8f6040518663ffffffff1660e01b8152600401611ee395949392919061589a565b600060405180830381865afa158015611f00573d6000803e3d6000fd5b505050506040513d6000823e601f3d908101601f19168201604052611f2891908101906159fa565b90925090505b6040805160808101825263ffffffff43168152602080820184905284810151828401528451606083015291519091611f6a918e91849101615447565b60408051808303601f190181529190528051602090910120609a600080815260200190815260200160002060008e6000016020810190611faa9190615130565b63ffffffff1681526020810191909152604001600020556003609b6000806001811115611fd957611fd9614f69565b815260200190815260200160002060008e6000016020810190611ffc9190615130565b63ffffffff16815260208101919091526040016000205460ff16600481111561202757612027614f69565b50612037905060208e018e615130565b63ffffffff167f47adacb0b6bbd726ae39ac6c006cca1c2006c9aedaa882dcba7c4804db7c41ce8d8360405161206e929190615447565b60405180910390a260a0805460ff60a01b1916905589156121265760005b86811015612124578560ff16846020015182815181106120ae576120ae615576565b60200260200101516120c09190615a96565b6001600160601b03166064856000015183815181106120e1576120e1615576565b60200260200101516001600160601b03166120fc9190615ac5565b1015612112575050505050505050505050505050565b8061211c8161564e565b91505061208c565b505b60408c013560a2556004609b600080815260200190815260200160002060008e60000160208101906121589190615130565b63ffffffff16815260208101919091526040016000205460ff16600481111561218357612183614f69565b50612196905060408e0160208f01615130565b609c805463ffffffff92909216600160401b0263ffffffff60401b199092169190911790556121c860608e018e61514d565b6121d491609d91614222565b506121e560a08e0160808f01615130565b609e805463ffffffff191663ffffffff9290921691909117905561220c60208e018e615130565b609c805463ffffffff92909216600160201b0267ffffffff000000001990921691909117905561223f60208d018d615130565b63ffffffff167fff2908483d74b6b70053dd473260acf1b09e0ba0781bf94100bb8277581749de8d6040516122749190615467565b60405180910390a250505050505050505050505050565b60655460405163237dfb4760e11b81523360048201526001600160a01b03909116906346fbf68e90602401602060405180830381865afa1580156122d3573d6000803e3d6000fd5b505050506040513d601f19601f820116820180604052508101906122f791906154dc565b6123135760405162461bcd60e51b8152600401610883906154f9565b600019606681905560405190815233907fab40a374bc51de372200a8bc981af8c9ecdc08dfdaef0bb6e09f88f3c616ef3d9060200160405180910390a2565b60606000846001600160a01b031663c391425e84866040518363ffffffff1660e01b8152600401612384929190615ae4565b600060405180830381865afa1580156123a1573d6000803e3d6000fd5b505050506040513d6000823e601f3d908101601f191682016040526123c991908101906156b3565b9050600084516001600160401b038111156123e6576123e6614471565b60405190808252806020026020018201604052801561240f578160200160208202803683370190505b50905060005b855181101561251057866001600160a01b03166304ec635187838151811061243f5761243f615576565b60200260200101518786858151811061245a5761245a615576565b60200260200101516040518463ffffffff1660e01b81526004016124979392919092835263ffffffff918216602084015216604082015260600190565b602060405180830381865afa1580156124b4573d6000803e3d6000fd5b505050506040513d601f19601f820116820180604052508101906124d89190615761565b6001600160c01b03168282815181106124f3576124f3615576565b6020908102919091010152806125088161564e565b915050612415565b5095945050505050565b60975460408051632efa2ca360e11b815290516000926001600160a01b031691635df459469160048083019260209291908290030181865afa158015612564573d6000803e3d6000fd5b505050506040513d601f19601f820116820180604052508101906125889190615475565b905090565b612595613996565b60a054600160a01b900460ff1615156001146125c35760405162461bcd60e51b815260040161088390615193565b6125cb613ae7565b565b60975460408051636830483560e01b815290516000926001600160a01b03169163683048359160048083019260209291908290030181865afa158015612564573d6000803e3d6000fd5b60975460408051636d14a98760e01b815290516000926001600160a01b031691636d14a9879160048083019260209291908290030181865afa158015612564573d6000803e3d6000fd5b609f546001600160a01b031633146126a35760405162461bcd60e51b8152602060048201526005602482015264417574683160d81b6044820152606401610883565b60a054600160a01b900460ff16156126f45760405162461bcd60e51b81526020600482015260146024820152735461736b20616c72656164792070656e64696e6760601b6044820152606401610883565b6126ff838383613c90565b505050565b604080518082019091526060808252602082015260975460405163377da31b60e11b81526000916001600160a01b031690636efb463690612751908a908a908a908a908a9060040161589a565b600060405180830381865afa15801561276e573d6000803e3d6000fd5b505050506040513d6000823e601f3d908101601f1916820160405261279691908101906159fa565b915091509550959350505050565b609f546001600160a01b031633146127e65760405162461bcd60e51b8152602060048201526005602482015264417574683160d81b6044820152606401610883565b60a054600160a01b900460ff16156128375760405162461bcd60e51b81526020600482015260146024820152735461736b20616c72656164792070656e64696e6760601b6044820152606401610883565b609c54600160401b900463ffffffff161580159061285457504315155b6128925760405162461bcd60e51b815260206004820152600f60248201526e13dc0814dd185d19481d5b9a5b9a5d608a1b6044820152606401610883565b60985463ffffffff600160e01b8204811691600160c01b9004166128ec6040805160e08101909152600080825260208201908152600060208201819052604082018190526060808301829052608083015260a09091015290565b63ffffffff831681526020810185600181111561290b5761290b614f69565b9081600181111561291e5761291e614f69565b90525063ffffffff80851660408301524381166060830152609e541660c0820152609d805461294c90615541565b80601f016020809104026020016040519081016040528092919081815260200182805461297890615541565b80156129c55780601f1061299a576101008083540402835291602001916129c5565b820191906000526020600020905b8154815290600101906020018083116129a857829003601f168201915b505050505060a0820152609c54600160401b900463ffffffff1660808201526040516129f5908290602001615b4c565b60408051601f19818403018152828252805160209182012063ffffffff871660008181527fbb86fbc034f4e382929974bcd8419ed626b0ea647f962d89ba2fb6bd28785ab9845284812092909255600080516020615e7a83398151915290925291909120805460ff1916600117905560a08054600160a01b60ff60a01b19909116179055907f584637a8f9d0f91a80c9f709b2b09d7db1d770fc7294e20d9d2495c378586cd290612aa7908490615b4c565b60405180910390a2612aba83600161538d565b6098601c6101000a81548163ffffffff021916908363ffffffff1602179055505050505050565b612ae9613996565b6125cb6000613fe9565b612afb613996565b609780546001600160a01b0319166001600160a01b0383169081179091556040519081527f901a654dc830c94e8a12c9a3bc0a92ac11b5cf28046ca8d190691cdaf520901690602001610eee565b612b51613996565b6040517f4d60154266b2ea0c8f091d257eac5abc941c46cb54d0c3069a830f6339fe1da190600090a1565b6040805160018082528183019092526000916060918391602080830190803683370190505090508481600081518110612bb757612bb7615576565b60209081029190910101526040516361c8a12f60e11b81526000906001600160a01b0388169063c391425e90612bf39088908690600401615ae4565b600060405180830381865afa158015612c10573d6000803e3d6000fd5b505050506040513d6000823e601f3d908101601f19168201604052612c3891908101906156b3565b600081518110612c4a57612c4a615576565b60209081029190910101516040516304ec635160e01b81526004810188905263ffffffff87811660248301529091166044820181905291506000906001600160a01b038916906304ec635190606401602060405180830381865afa158015612cb6573d6000803e3d6000fd5b505050506040513d601f19601f82011682018060405250810190612cda9190615761565b6001600160c01b031690506000612cf08261403b565b905081612cfe8a838a610f87565b9550955050505050935093915050565b600054610100900460ff1615808015612d2e5750600054600160ff909116105b80612d485750303b158015612d48575060005460ff166001145b612dab5760405162461bcd60e51b815260206004820152602e60248201527f496e697469616c697a61626c653a20636f6e747261637420697320616c72656160448201526d191e481a5b9a5d1a585b1a5e995960921b6064820152608401610883565b6000805460ff191660011790558015612dce576000805461ff0019166101001790555b612dd98a6000614107565b612de289613fe9565b609e8054640100000000600160c01b031916600160201b6001600160a01b038b81169190910291909117909155609f80546001600160a01b03199081168a84161790915560a3805460ff1916891515179055609780548216888416179055609880548684166001600160c01b031990911617600160a01b63ffffffff89160217905560a080549091169184169190911790558015612eba576000805461ff0019169055604051600181527f7f26b83ff96e1f2b6a682f133852f6798a09c465da95921460cefb38474024989060200160405180910390a15b50505050505050505050565b6097546040805163df5cf72360e01b815290516000926001600160a01b03169163df5cf7239160048083019260209291908290030181865afa158015612564573d6000803e3d6000fd5b609e54600160201b90046001600160a01b03163314612f415760405162461bcd60e51b8152600401610883906157f1565b6000612f5360a0850160808601615130565b90506000612f676080860160608701615130565b9050366000612f7960a088018861514d565b90925090506000612f9060e0890160c08a01615130565b905060a16000612fa660608a0160408b01614f4c565b6001811115612fb757612fb7614f69565b6001811115612fc857612fc8614f69565b815260208101919091526040016000205463ffffffff16612fef6080890160608a01615130565b63ffffffff16146130425760405162461bcd60e51b815260206004820152601a60248201527f636861696e526442617463684e6f6e6365206d69736d617463680000000000006044820152606401610883565b60a054600160a01b900460ff1615156001146130705760405162461bcd60e51b815260040161088390615193565b60016000908152609960209081527fbb86fbc034f4e382929974bcd8419ed626b0ea647f962d89ba2fb6bd28785ab991906130ad908a018a615130565b63ffffffff1663ffffffff16815260200190815260200160002054886040516020016130d99190615bca565b604051602081830303815290604052805190602001201461310c5760405162461bcd60e51b815260040161088390615304565b60016000818152609b6020908152600080516020615e7a8339815191529190613137908b018b615130565b63ffffffff16815260208101919091526040016000205460ff16600481111561316257613162614f69565b1461317f5760405162461bcd60e51b81526004016108839061532b565b60016000908152609a60209081527f5b542b52981c4f2fa9965514d5bb7f37f1b7bc0902a6a4dc6b04dc05be85586b9082906131bd908b018b615130565b63ffffffff1663ffffffff16815260200190815260200160002054146131f55760405162461bcd60e51b815260040161088390615353565b60985461320f90600160a01b900463ffffffff168561538d565b63ffffffff164363ffffffff16111561323a5760405162461bcd60e51b8152600401610883906153b5565b60008760405160200161324d9190615d16565b604051602081830303815290604052805190602001209050600080609760009054906101000a90046001600160a01b03166001600160a01b0316636efb46368488888c8e6040518663ffffffff1660e01b81526004016132b195949392919061589a565b600060405180830381865afa1580156132ce573d6000803e3d6000fd5b505050506040513d6000823e601f3d908101601f191682016040526132f691908101906159fa565b6040805160808101825263ffffffff43168152602080820184905280850151828401528451606083015291519395509193509091613338918d91849101615d25565b60408051601f19818403018152919052805160209182012060016000908152609a835290917f5b542b52981c4f2fa9965514d5bb7f37f1b7bc0902a6a4dc6b04dc05be85586b919061338c908f018f615130565b63ffffffff1681526020810191909152604001600020556003609b60006001808111156133bb576133bb614f69565b815260200190815260200160002060008d60000160208101906133de9190615130565b63ffffffff16815260208101919091526040016000205460ff16600481111561340957613409614f69565b50613419905060208d018d615130565b63ffffffff167f82e5c8e9447510b867d248c892385ba34fa6c2d4c4c26ff6868499ae4027f2c68c83604051613450929190615d25565b60405180910390a260a0805460ff60a01b1916905560005b868110156134ff578560ff168460200151828151811061348a5761348a615576565b602002602001015161349c9190615a96565b6001600160601b03166064856000015183815181106134bd576134bd615576565b60200260200101516001600160601b03166134d89190615ac5565b10156134ed5750505050505050505050505050565b806134f78161564e565b915050613468565b5060016000908152609b6020908152600491600080516020615e7a8339815191529161352d908f018f615130565b63ffffffff16815260208101919091526040016000205460ff16600481111561355857613558614f69565b505060408051808201909152600080825260208201528b60a001358160000181815250508b60c0013581602001818152505060a060009054906101000a90046001600160a01b03166001600160a01b03166308f42d408d60800135836040518363ffffffff1660e01b81526004016135d1929190615d47565b600060405180830381600087803b1580156135eb57600080fd5b505af11580156135ff573d6000803e3d6000fd5b506136149250505060808d0160608e01615130565b61361f90600161538d565b60a160008e60400160208101906136369190614f4c565b600181111561364757613647614f69565b600181111561365857613658614f69565b8152602080820192909252604001600020805463ffffffff191663ffffffff939093169290921790915561368e908d018d615130565b63ffffffff167f1797ca59e06ea4a0efe10ac0fb51b58c8acf5cfedbc15fae51c10021dcb906e68d6040516122749190615d16565b6136cb613996565b6001600160a01b0381166137305760405162461bcd60e51b815260206004820152602660248201527f4f776e61626c653a206e6577206f776e657220697320746865207a65726f206160448201526564647265737360d01b6064820152608401610883565b6104f681613fe9565b613741613996565b60a054600160a01b900460ff161561375b5761375b613ae7565b613766838383613c90565b6040517f4ee987e5f1be19cabfb1a243e5c423889f060f33266753953ff0cf9db89966ab90600090a1505050565b606560009054906101000a90046001600160a01b03166001600160a01b031663eab66d7a6040518163ffffffff1660e01b8152600401602060405180830381865afa1580156137e7573d6000803e3d6000fd5b505050506040513d601f19601f8201168201806040525081019061380b9190615475565b6001600160a01b0316336001600160a01b03161461383b5760405162461bcd60e51b815260040161088390615492565b6066541981196066541916146138b95760405162461bcd60e51b815260206004820152603860248201527f5061757361626c652e756e70617573653a20696e76616c696420617474656d7060448201527f7420746f2070617573652066756e6374696f6e616c69747900000000000000006064820152608401610883565b606681905560405181815233907f3582d1828e26bf56bd801502bc021ac0bc8afb57c826e4986b45593c8fad389c90602001610ead565b606654156139405760405162461bcd60e51b815260206004820152601c60248201527f5061757361626c653a20636f6e747261637420697320706175736564000000006044820152606401610883565b613948613996565b60a080546001600160a01b0319166001600160a01b0383169081179091556040519081527f2f20cf1bda67739044c5bf577353970c3dbc183b2c7274d1e8584a102692326790602001610eee565b6033546001600160a01b031633146125cb5760405162461bcd60e51b815260206004820181905260248201527f4f776e61626c653a2063616c6c6572206973206e6f7420746865206f776e65726044820152606401610883565b6001600160a01b038116613a7e5760405162461bcd60e51b815260206004820152604960248201527f5061757361626c652e5f73657450617573657252656769737472793a206e657760448201527f50617573657252656769737472792063616e6e6f7420626520746865207a65726064820152686f206164647265737360b81b608482015260a401610883565b606554604080516001600160a01b03928316815291831660208301527f6e9fcd539896fca60e8b0f01dd580233e48a6b0f7df013b89ba7f565869acdb6910160405180910390a1606580546001600160a01b0319166001600160a01b0392909216919091179055565b609854600160c01b900463ffffffff1615613bb457609854600090613b1b90600190600160c01b900463ffffffff16615d65565b63ffffffff81166000908152600080516020615e5a833981519152602052604090205490915060019060ff166004811115613b5857613b58614f69565b1415613bb25763ffffffff81166000818152600080516020615e5a8339815191526020526040808220805460ff19166002179055517fd6a4e0ff9f3a053708757c7a124abee31ced61f43f17e6e1cf11943ec59e60719190a25b505b609854600160e01b900463ffffffff1615613c8157609854600090613be890600190600160e01b900463ffffffff16615d65565b63ffffffff81166000908152600080516020615e7a833981519152602052604090205490915060019060ff166004811115613c2557613c25614f69565b1415613c7f5763ffffffff81166000818152600080516020615e7a8339815191526020526040808220805460ff19166002179055517f0bf46bfca6e2137d35b893c295add8c33bcfbffafdef93252cb51aed7538ba0c9190a25b505b60a0805460ff60a01b19169055565b609c5463ffffffff600160401b909104164314801590613caf57504315155b613d0c5760405162461bcd60e51b815260206004820152602860248201527f43616e277420696e206c617374436f6d706c657465644f705461736b43726561604482015267746564426c6f636b60c01b6064820152608401610883565b6040805160e0810182526000818301819052606080830181905260a083015260c0820152609854600160c01b900463ffffffff908116825243811660208084019190915290861660808301528251601f850182900482028101820190935283835290919084908490819084018382808284376000920191909152505050506060820152609c54600160401b900463ffffffff16613dfb5763ffffffff431660408083019190915280516020601f850181900481028201810190925283815290849084908190840183828082843760009201919091525050505060a082015263ffffffff841660c0820152613eaf565b609c54600160401b900463ffffffff166040820152609d8054613e1d90615541565b80601f0160208091040260200160405190810160405280929190818152602001828054613e4990615541565b8015613e965780601f10613e6b57610100808354040283529160200191613e96565b820191906000526020600020905b815481529060010190602001808311613e7957829003601f168201915b505050505060a0820152609e5463ffffffff1660c08201525b80604051602001613ec09190615d8a565b60408051808303601f19018152828252805160209182012060988054600160c01b9081900463ffffffff90811660009081527f235d629dc802037ded8c61cb27fb29e40fa01b299719d8f991ffe20bdcc59f4f865286812094909455825482900481168452600080516020615e5a83398151915290945293909120805460ff19166001179055609c805463ffffffff191643841617905560a08054600160a01b60ff60a01b19909116179055549190910416907ffaf4b2054479d0f83e909b73cde2a6cb18ec2a93ba8ad5a62329001c86b1f3ea90613fa0908490615d8a565b60405180910390a2609854613fc390600160c01b900463ffffffff16600161538d565b609860186101000a81548163ffffffff021916908363ffffffff16021790555050505050565b603380546001600160a01b038381166001600160a01b0319831681179093556040519116919082907f8be0079c531659141344cd1fd0a4f28419497f9722a3daafe3b4186f6b6457e090600090a35050565b6060600080614049846141f1565b61ffff166001600160401b0381111561406457614064614471565b6040519080825280601f01601f19166020018201604052801561408e576020820181803683370190505b5090506000805b8251821080156140a6575061010081105b156140fd576001811b9350858416156140ed578060f81b8383815181106140cf576140cf615576565b60200101906001600160f81b031916908160001a9053508160010191505b6140f68161564e565b9050614095565b5090949350505050565b6065546001600160a01b031615801561412857506001600160a01b03821615155b6141aa5760405162461bcd60e51b815260206004820152604760248201527f5061757361626c652e5f696e697469616c697a655061757365723a205f696e6960448201527f7469616c697a6550617573657228292063616e206f6e6c792062652063616c6c6064820152666564206f6e636560c81b608482015260a401610883565b606681905560405181815233907fab40a374bc51de372200a8bc981af8c9ecdc08dfdaef0bb6e09f88f3c616ef3d9060200160405180910390a26141ed826139f0565b5050565b6000805b821561421c57614206600184615e20565b909216918061421481615e37565b9150506141f5565b92915050565b82805461422e90615541565b90600052602060002090601f0160209004810192826142505760008555614296565b82601f106142695782800160ff19823516178555614296565b82800160010185558215614296579182015b8281111561429657823582559160200191906001019061427b565b506142a29291506142a6565b5090565b5b808211156142a257600081556001016142a7565b600060e082840312156142cd57600080fd5b50919050565b6000606082840312156142cd57600080fd5b600080608083850312156142f857600080fd5b82356001600160401b0381111561430e57600080fd5b61431a858286016142bb565b92505061432a84602085016142d3565b90509250929050565b6001600160a01b03811681146104f657600080fd5b60006020828403121561435a57600080fd5b813561141881614333565b60006020828403121561437757600080fd5b5035919050565b600281106104f657600080fd5b63ffffffff811681146104f657600080fd5b80356143a88161438b565b919050565b600080604083850312156143c057600080fd5b82356143cb8161437e565b915060208301356143db8161438b565b809150509250929050565b80151581146104f657600080fd5b60006020828403121561440657600080fd5b8135611418816143e6565b6000815180845260005b818110156144375760208185018101518683018201520161441b565b81811115614449576000602083870101525b50601f01601f19169290920160200192915050565b6020815260006114186020830184614411565b634e487b7160e01b600052604160045260246000fd5b604080519081016001600160401b03811182821017156144a9576144a9614471565b60405290565b60405161010081016001600160401b03811182821017156144a9576144a9614471565b604051601f8201601f191681016001600160401b03811182821017156144fa576144fa614471565b604052919050565b60008060006060848603121561451757600080fd5b833561452281614333565b92506020848101356001600160401b038082111561453f57600080fd5b818701915087601f83011261455357600080fd5b81358181111561456557614565614471565b614577601f8201601f191685016144d2565b9150808252888482850101111561458d57600080fd5b80848401858401376000848284010152508094505050506145b06040850161439d565b90509250925092565b600081518084526020808501808196508360051b810191508286016000805b8681101561464f578385038a52825180518087529087019087870190845b8181101561463a57835180516001600160a01b031684528a8101518b8501526040908101516001600160601b031690840152928901926060909201916001016145f6565b50509a87019a955050918501916001016145d8565b509298975050505050505050565b60208152600061141860208301846145b9565b60006020828403121561468257600080fd5b81356001600160401b0381111561469857600080fd5b82016040818503121561141857600080fd5b60008083601f8401126146bc57600080fd5b5081356001600160401b038111156146d357600080fd5b6020830191508360208285010111156146eb57600080fd5b9250929050565b6000806000806000806080878903121561470b57600080fd5b863561471681614333565b955060208701356147268161438b565b945060408701356001600160401b038082111561474257600080fd5b61474e8a838b016146aa565b9096509450606089013591508082111561476757600080fd5b818901915089601f83011261477b57600080fd5b81358181111561478a57600080fd5b8a60208260051b850101111561479f57600080fd5b6020830194508093505050509295509295509295565b600081518084526020808501945080840160005b838110156147eb57815163ffffffff16875295820195908201906001016147c9565b509495945050505050565b600081518084526020808501808196508360051b8101915082860160005b8581101561483e57828403895261482c8483516147b5565b98850198935090840190600101614814565b5091979650505050505050565b60208152600082516080602084015261486760a08401826147b5565b90506020840151601f198085840301604086015261488583836147b5565b925060408601519150808584030160608601526148a283836147b5565b92506060860151915080858403016080860152506148c082826147f6565b95945050505050565b60006001600160401b038211156148e2576148e2614471565b5060051b60200190565b600082601f8301126148fd57600080fd5b8135602061491261490d836148c9565b6144d2565b82815260059290921b8401810191818101908684111561493157600080fd5b8286015b848110156149555780356149488161438b565b8352918301918301614935565b509695505050505050565b60006040828403121561497257600080fd5b61497a614487565b9050813581526020820135602082015292915050565b600082601f8301126149a157600080fd5b813560206149b161490d836148c9565b82815260069290921b840181019181810190868411156149d057600080fd5b8286015b84811015614955576149e68882614960565b8352918301916040016149d4565b600082601f830112614a0557600080fd5b614a0d614487565b806040840185811115614a1f57600080fd5b845b81811015614a39578035845260209384019301614a21565b509095945050505050565b600060808284031215614a5657600080fd5b614a5e614487565b9050614a6a83836149f4565b8152614a7983604084016149f4565b602082015292915050565b600082601f830112614a9557600080fd5b81356020614aa561490d836148c9565b82815260059290921b84018101918181019086841115614ac457600080fd5b8286015b848110156149555780356001600160401b03811115614ae75760008081fd5b614af58986838b01016148ec565b845250918301918301614ac8565b60006101808284031215614b1657600080fd5b614b1e6144af565b905081356001600160401b0380821115614b3757600080fd5b614b43858386016148ec565b83526020840135915080821115614b5957600080fd5b614b6585838601614990565b60208401526040840135915080821115614b7e57600080fd5b614b8a85838601614990565b6040840152614b9c8560608601614a44565b6060840152614bae8560e08601614960565b6080840152610120840135915080821115614bc857600080fd5b614bd4858386016148ec565b60a0840152610140840135915080821115614bee57600080fd5b614bfa858386016148ec565b60c0840152610160840135915080821115614c1457600080fd5b50614c2184828501614a84565b60e08301525092915050565b600080600060a08486031215614c4257600080fd5b83356001600160401b0380821115614c5957600080fd5b614c65878388016142bb565b9450614c7487602088016142d3565b93506080860135915080821115614c8a57600080fd5b50614c9786828701614b03565b9150509250925092565b600060208284031215614cb357600080fd5b81356001600160401b03811115614cc957600080fd5b8201610120818503121561141857600080fd5b600060208284031215614cee57600080fd5b813560ff8116811461141857600080fd5b600080600060608486031215614d1457600080fd5b8335614d1f81614333565b92506020848101356001600160401b03811115614d3b57600080fd5b8501601f81018713614d4c57600080fd5b8035614d5a61490d826148c9565b81815260059190911b82018301908381019089831115614d7957600080fd5b928401925b82841015614d9757833582529284019290840190614d7e565b80965050505050506145b06040850161439d565b6020808252825182820181905260009190848201906040850190845b81811015614de357835183529284019291840191600101614dc7565b50909695505050505050565b600080600060408486031215614e0457600080fd5b8335614e0f8161438b565b925060208401356001600160401b03811115614e2a57600080fd5b614e36868287016146aa565b9497909650939450505050565b600080600080600060808688031215614e5b57600080fd5b8535945060208601356001600160401b0380821115614e7957600080fd5b614e8589838a016146aa565b909650945060408801359150614e9a8261438b565b90925060608701359080821115614eb057600080fd5b50614ebd88828901614b03565b9150509295509295909350565b600081518084526020808501945080840160005b838110156147eb5781516001600160601b031687529582019590820190600101614ede565b6040815260008351604080840152614f1e6080840182614eca565b90506020850151603f19848303016060850152614f3b8282614eca565b925050508260208301529392505050565b600060208284031215614f5e57600080fd5b81356114188161437e565b634e487b7160e01b600052602160045260246000fd5b6020810160058310614f9357614f93614f69565b91905290565b600080600060608486031215614fae57600080fd5b8335614fb981614333565b9250602084013591506040840135614fd08161438b565b809150509250925092565b828152604060208201526000614ff460408301846145b9565b949350505050565b60008060008060008060008060006101208a8c03121561501b57600080fd5b893561502681614333565b985060208a013561503681614333565b975060408a013561504681614333565b965060608a013561505681614333565b955060808a0135615066816143e6565b945060a08a013561507681614333565b935060c08a01356150868161438b565b925060e08a013561509681614333565b91506101008a01356150a781614333565b809150509295985092959850929598565b60008060008385036101408112156150cf57600080fd5b84356001600160401b03808211156150e657600080fd5b6150f2888389016142bb565b9550610100601f198401121561510757600080fd5b60208701945061012087013592508083111561512257600080fd5b5050614c9786828701614b03565b60006020828403121561514257600080fd5b81356114188161438b565b6000808335601e1984360301811261516457600080fd5b8301803591506001600160401b0382111561517e57600080fd5b6020019150368190038213156146eb57600080fd5b6020808252600f908201526e4e6f207461736b2070656e64696e6760881b604082015260600190565b6000808335601e198436030181126151d357600080fd5b83016020810192503590506001600160401b038111156151f257600080fd5b8036038313156146eb57600080fd5b81835281816020850137506000828201602090810191909152601f909101601f19169091010190565b602081526000823561523b8161438b565b63ffffffff811660208401525060208301356152568161438b565b63ffffffff811660408401525061526f6040840161439d565b63ffffffff811660608401525061528960608401846151bc565b60e0608085015261529f61010085018284615201565b9150506152ae6080850161439d565b63ffffffff811660a0850152506152c860a08501856151bc565b848303601f190160c08601526152df838284615201565b925050506152ef60c0850161439d565b63ffffffff811660e08501525b509392505050565b6020808252600d908201526c0a8c2e6d640dad2e6dac2e8c6d609b1b604082015260600190565b6020808252600e908201526d4e6f7420496e697420737461746560901b604082015260600190565b6020808252600a90820152690416c72647920526573760b41b604082015260600190565b634e487b7160e01b600052601160045260246000fd5b600063ffffffff8083168185168083038211156153ac576153ac615377565b01949350505050565b602080825260089082015267546f6f206c61746560c01b604082015260600190565b80356153e28161438b565b63ffffffff16825260208181013590830152604090810135910152565b63ffffffff815116825260208101516020830152600060408201516080604085015261542e6080850182614eca565b9050606083015184820360608601526148c08282614eca565b61545181846153d7565b608060608201526000614ff460808301846153ff565b6060810161421c82846153d7565b60006020828403121561548757600080fd5b815161141881614333565b6020808252602a908201527f6d73672e73656e646572206973206e6f74207065726d697373696f6e6564206160408201526939903ab73830bab9b2b960b11b606082015260800190565b6000602082840312156154ee57600080fd5b8151611418816143e6565b60208082526028908201527f6d73672e73656e646572206973206e6f74207065726d697373696f6e6564206160408201526739903830bab9b2b960c11b606082015260800190565b600181811c9082168061555557607f821691505b602082108114156142cd57634e487b7160e01b600052602260045260246000fd5b634e487b7160e01b600052603260045260246000fd5b6000602080838503121561559f57600080fd5b82516001600160401b038111156155b557600080fd5b8301601f810185136155c657600080fd5b80516155d461490d826148c9565b81815260059190911b820183019083810190878311156155f357600080fd5b928401925b82841015615611578351825292840192908401906155f8565b979650505050505050565b80516001600160601b03811681146143a857600080fd5b60006020828403121561564557600080fd5b6114188261561c565b600060001982141561566257615662615377565b5060010190565b63ffffffff84168152604060208201819052810182905260006001600160fb1b0383111561569657600080fd5b8260051b8085606085013760009201606001918252509392505050565b600060208083850312156156c657600080fd5b82516001600160401b038111156156dc57600080fd5b8301601f810185136156ed57600080fd5b80516156fb61490d826148c9565b81815260059190911b8201830190838101908783111561571a57600080fd5b928401925b828410156156115783516157328161438b565b8252928401929084019061571f565b63ffffffff841681526040602082015260006148c0604083018486615201565b60006020828403121561577357600080fd5b81516001600160c01b038116811461141857600080fd5b60006020828403121561579c57600080fd5b81516114188161438b565b600060ff821660ff8114156157be576157be615377565b60010192915050565b6040815260006157db604083018587615201565b905063ffffffff83166020830152949350505050565b602080825260059082015264041757468360dc1b604082015260600190565b600081518084526020808501945080840160005b838110156147eb5761584187835180518252602090810151910152565b6040969096019590820190600101615824565b8060005b6002811015615877578151845260209384019390910190600101615858565b50505050565b615888828251615854565b60208101516126ff6040840182615854565b8581526080602082015260006158b4608083018688615201565b63ffffffff85166040840152828103606084015261018084518183526158dc828401826147b5565b915050602085015182820360208401526158f68282615810565b915050604085015182820360408401526159108282615810565b9150506060850151615925606084018261587d565b506080850151805160e08401526020015161010083015260a085015182820361012084015261595482826147b5565b91505060c085015182820361014084015261596f82826147b5565b91505060e085015182820361016084015261598a82826147f6565b9a9950505050505050505050565b600082601f8301126159a957600080fd5b815160206159b961490d836148c9565b82815260059290921b840181019181810190868411156159d857600080fd5b8286015b84811015614955576159ed8161561c565b83529183019183016159dc565b60008060408385031215615a0d57600080fd5b82516001600160401b0380821115615a2457600080fd5b9084019060408287031215615a3857600080fd5b615a40614487565b825182811115615a4f57600080fd5b615a5b88828601615998565b825250602083015182811115615a7057600080fd5b615a7c88828601615998565b602083015250809450505050602083015190509250929050565b60006001600160601b0380831681851681830481118215151615615abc57615abc615377565b02949350505050565b6000816000190483118215151615615adf57615adf615377565b500290565b60006040820163ffffffff851683526020604081850152818551808452606086019150828701935060005b81811015615b2b57845183529383019391830191600101615b0f565b5090979650505050505050565b60028110615b4857615b48614f69565b9052565b60208152600063ffffffff8084511660208401526020840151615b726040850182615b38565b508060408501511660608401528060608501511660808401528060808501511660a084015260a084015160e060c0850152615bb1610100850182614411565b90508160c08601511660e0850152809250505092915050565b6020815260008235615bdb8161438b565b63ffffffff808216602085015260208501359150615bf88261437e565b615c056040850183615b38565b60408501359150615c158261438b565b808216606085015260608501359150615c2d8261438b565b80821660808501525050615c436080840161439d565b63ffffffff811660a084015250615c5d60a08401846151bc565b60e060c0850152615c7361010085018284615201565b9150506152ef60c0850161439d565b8035615c8d8161438b565b63ffffffff80821684526020830135602085015260408301359150615cb18261437e565b615cbe6040850183615b38565b60608301359150615cce8261438b565b1660608301526080818101359083015260a0808201359083015260c0808201359083015260e0810135615d0081614333565b6001600160a01b031660e0929092019190915250565b610100810161421c8284615c82565b6000610120615d348386615c82565b806101008401526148c0818401856153ff565b82815260608101611418602083018480518252602090810151910152565b600063ffffffff83811690831681811015615d8257615d82615377565b039392505050565b60208152600063ffffffff80845116602084015280602085015116604084015280604085015116606084015250606083015160e06080840152615dd1610100840182614411565b90506080840151615dea60a085018263ffffffff169052565b5060a0840151838203601f190160c0850152615e068282614411565b91505060c08401516152fc60e085018263ffffffff169052565b600082821015615e3257615e32615377565b500390565b600061ffff80831681811415615e4f57615e4f615377565b600101939250505056fe10afac9233b4ccc54d6404ffc1cf3b47515a2b8edbf675d15eddce05a027dcbd298c800d0881dd208d705ebc03eb18189f38118259f27dd43b4c60d61c607e87a264697066735822122096744ba35f1aeb7abea6230a0899025d4e79850452a051378efb05164f62606564736f6c634300080c0033","linkReferences":{}},"methodIdentifiers":{"THRESHOLD_DENOMINATOR()":"ef024458","aggregator()":"245a7bfc","allTaskHashes(uint8,uint32)":"13f815ed","allTaskResponses(uint8,uint32)":"1ac27297","allowNonRootInit()":"0ee0fdbd","blsApkRegistry()":"5df45946","blsSignatureChecker()":"1c178e9c","chainRdBatchNonce(uint8)":"930390d9","checkSignatures(bytes32,bytes,uint32,(uint32[],(uint256,uint256)[],(uint256,uint256)[],(uint256[2],uint256[2]),(uint256,uint256),uint32[],uint32[],uint32[][]))":"6efb4636","createNewOpTask(uint32,bytes)":"6e125ff4","createNewRdTask(uint8,uint32)":"6f254819","delegation()":"df5cf723","dummyForOperatorStateInfoType((bool,uint8[],(uint8,uint96,(uint256,uint256))[],(uint8,uint96)[],(uint8,(uint256,uint256))[],bytes32[],(bytes32,uint8[],uint96[],uint8)[],(bytes32,uint8[],uint96[])[],(bytes32,uint8)[]))":"54d127de","dummyForQuorumStakeTotalsType((uint96[],uint96[]))":"45265b7a","forceCancelPendingTasks()":"60202fc0","forceCreateNewOpTask(uint32,bytes)":"f5640cf8","forceRespondToOpTask((uint32,uint32,uint32,bytes,uint32,bytes,uint32),(uint32,bytes32,bytes32))":"01a3f013","generator()":"7afa1eed","getCheckSignaturesIndices(address,uint32,bytes,bytes32[])":"4f739f74","getOperatorState(address,bytes,uint32)":"3563b0d1","getOperatorState(address,bytes32,uint32)":"cefdc1d4","getQuorumBitmapsAtBlockNumber(address,bytes32[],uint32)":"5c155662","idToTaskStatus(uint8,uint32)":"bf2315ed","initialize(address,address,address,address,bool,address,uint32,address,address)":"de434838","isTaskPending()":"36f78ed8","lastCompletedOpTaskCreatedBlock()":"537a2929","lastCompletedOpTaskNum()":"8fc8729a","lastCompletedOpTaskQuorumNumbers()":"2830e8f9","lastCompletedOpTaskQuorumThresholdPercentage()":"e70c2623","lastOpTaskCreatedBlock()":"4d7a7116","latestOpTaskNum()":"41789d57","latestRdTaskNum()":"7afdd54b","operatorStateRetrieverExtended()":"8380acbd","operatorsStateInfoHash()":"adfcb048","owner()":"8da5cb5b","pause(uint256)":"136439dd","pauseAll()":"595c6a67","pauseTrackingOpState()":"79badf73","paused()":"5c975abb","paused(uint8)":"5ac86ab7","pauserRegistry()":"886f1195","registryCoordinator()":"6d14a987","renounceOwnership()":"715018a6","respondToOpTask((uint32,uint32,uint32,bytes,uint32,bytes,uint32),(uint32,bytes32,bytes32),(uint32[],(uint256,uint256)[],(uint256,uint256)[],(uint256[2],uint256[2]),(uint256,uint256),uint32[],uint32[],uint32[][]))":"516a7227","respondToRdTask((uint32,uint8,uint32,uint32,uint32,bytes,uint32),(uint32,bytes32,uint8,uint32,bytes32,uint256,uint256,address),(uint32[],(uint256,uint256)[],(uint256,uint256)[],(uint256[2],uint256[2]),(uint256,uint256),uint32[],uint32[],uint32[][]))":"e72ddf10","resumeTrackingQuorums(bool)":"191aac7a","rolldown()":"3d9fb00c","setPauserRegistry(address)":"10d67a2f","setRolldown(address)":"fdc15de8","stakeRegistry()":"68304835","taskResponseWindowBlock()":"a69563a9","transferOwnership(address)":"f2fde38b","unpause(uint256)":"fabc1cbc","updateBlsSignatureCheckerAddress(address)":"723114ab"},"id":118}