{"abi":[{"type":"constructor","inputs":[],"stateMutability":"nonpayable"},{"type":"function","name":"cancelResolutions","inputs":[{"name":"","type":"uint256","internalType":"uint256"}],"outputs":[{"name":"requestId","type":"tuple","internalType":"struct RollDown.RequestId","components":[{"name":"origin","type":"uint8","internalType":"enum RollDown.Origin"},{"name":"id","type":"uint256","internalType":"uint256"}]},{"name":"l2RequestId","type":"uint256","internalType":"uint256"},{"name":"cancelJustified","type":"bool","internalType":"bool"},{"name":"timeStamp","type":"uint256","internalType":"uint256"}],"stateMutability":"view"},{"type":"function","name":"counter","inputs":[],"outputs":[{"name":"","type":"uint256","internalType":"uint256"}],"stateMutability":"view"},{"type":"function","name":"deposit","inputs":[{"name":"tokenAddress","type":"address","internalType":"address"},{"name":"amount","type":"uint256","internalType":"uint256"}],"outputs":[],"stateMutability":"nonpayable"},{"type":"function","name":"getUpdateForL2","inputs":[],"outputs":[{"name":"","type":"tuple","internalType":"struct RollDown.L1Update","components":[{"name":"pendingDeposits","type":"tuple[]","internalType":"struct RollDown.Deposit[]","components":[{"name":"requestId","type":"tuple","internalType":"struct RollDown.RequestId","components":[{"name":"origin","type":"uint8","internalType":"enum RollDown.Origin"},{"name":"id","type":"uint256","internalType":"uint256"}]},{"name":"depositRecipient","type":"address","internalType":"address"},{"name":"tokenAddress","type":"address","internalType":"address"},{"name":"amount","type":"uint256","internalType":"uint256"},{"name":"timeStamp","type":"uint256","internalType":"uint256"}]},{"name":"pendingCancelResultions","type":"tuple[]","internalType":"struct RollDown.CancelResolution[]","components":[{"name":"requestId","type":"tuple","internalType":"struct RollDown.RequestId","components":[{"name":"origin","type":"uint8","internalType":"enum RollDown.Origin"},{"name":"id","type":"uint256","internalType":"uint256"}]},{"name":"l2RequestId","type":"uint256","internalType":"uint256"},{"name":"cancelJustified","type":"bool","internalType":"bool"},{"name":"timeStamp","type":"uint256","internalType":"uint256"}]},{"name":"pendingWithdrawalResolutions","type":"tuple[]","internalType":"struct RollDown.WithdrawalResolution[]","components":[{"name":"requestId","type":"tuple","internalType":"struct RollDown.RequestId","components":[{"name":"origin","type":"uint8","internalType":"enum RollDown.Origin"},{"name":"id","type":"uint256","internalType":"uint256"}]},{"name":"l2RequestId","type":"uint256","internalType":"uint256"},{"name":"status","type":"bool","internalType":"bool"},{"name":"timeStamp","type":"uint256","internalType":"uint256"}]},{"name":"pendingL2UpdatesToRemove","type":"tuple[]","internalType":"struct RollDown.L2UpdatesToRemove[]","components":[{"name":"requestId","type":"tuple","internalType":"struct RollDown.RequestId","components":[{"name":"origin","type":"uint8","internalType":"enum RollDown.Origin"},{"name":"id","type":"uint256","internalType":"uint256"}]},{"name":"l2UpdatesToRemove","type":"uint256[]","internalType":"uint256[]"},{"name":"timeStamp","type":"uint256","internalType":"uint256"}]}]}],"stateMutability":"view"},{"type":"function","name":"lastProcessedUpdate_origin_l1","inputs":[],"outputs":[{"name":"","type":"uint256","internalType":"uint256"}],"stateMutability":"view"},{"type":"function","name":"lastProcessedUpdate_origin_l2","inputs":[],"outputs":[{"name":"","type":"uint256","internalType":"uint256"}],"stateMutability":"view"},{"type":"function","name":"update_l1_from_l2","inputs":[{"name":"inputArray","type":"tuple","internalType":"struct RollDown.L2Update","components":[{"name":"cancels","type":"tuple[]","internalType":"struct RollDown.Cancel[]","components":[{"name":"requestId","type":"tuple","internalType":"struct RollDown.RequestId","components":[{"name":"origin","type":"uint8","internalType":"enum RollDown.Origin"},{"name":"id","type":"uint256","internalType":"uint256"}]},{"name":"range","type":"tuple","internalType":"struct RollDown.Range","components":[{"name":"start","type":"uint256","internalType":"uint256"},{"name":"end","type":"uint256","internalType":"uint256"}]},{"name":"hash","type":"bytes32","internalType":"bytes32"}]},{"name":"withdrawals","type":"tuple[]","internalType":"struct RollDown.Withdrawal[]","components":[{"name":"requestId","type":"tuple","internalType":"struct RollDown.RequestId","components":[{"name":"origin","type":"uint8","internalType":"enum RollDown.Origin"},{"name":"id","type":"uint256","internalType":"uint256"}]},{"name":"withdrawalRecipient","type":"address","internalType":"address"},{"name":"tokenAddress","type":"address","internalType":"address"},{"name":"amount","type":"uint256","internalType":"uint256"}]},{"name":"results","type":"tuple[]","internalType":"struct RollDown.RequestResult[]","components":[{"name":"requestId","type":"tuple","internalType":"struct RollDown.RequestId","components":[{"name":"origin","type":"uint8","internalType":"enum RollDown.Origin"},{"name":"id","type":"uint256","internalType":"uint256"}]},{"name":"originRequestId","type":"uint256","internalType":"uint256"},{"name":"updateType","type":"uint8","internalType":"enum RollDown.UpdateType"},{"name":"status","type":"bool","internalType":"bool"}]}]}],"outputs":[],"stateMutability":"nonpayable"},{"type":"function","name":"withdrawalResolutions","inputs":[{"name":"","type":"uint256","internalType":"uint256"}],"outputs":[{"name":"requestId","type":"tuple","internalType":"struct RollDown.RequestId","components":[{"name":"origin","type":"uint8","internalType":"enum RollDown.Origin"},{"name":"id","type":"uint256","internalType":"uint256"}]},{"name":"l2RequestId","type":"uint256","internalType":"uint256"},{"name":"status","type":"bool","internalType":"bool"},{"name":"timeStamp","type":"uint256","internalType":"uint256"}],"stateMutability":"view"},{"type":"event","name":"DepositAcceptedIntoQueue","inputs":[{"name":"requestId","type":"uint256","indexed":false,"internalType":"uint256"},{"name":"depositRecipient","type":"address","indexed":false,"internalType":"address"},{"name":"tokenAddress","type":"address","indexed":false,"internalType":"address"},{"name":"amount","type":"uint256","indexed":false,"internalType":"uint256"}],"anonymous":false},{"type":"event","name":"DisputeResolutionAcceptedIntoQueue","inputs":[{"name":"requestId","type":"uint256","indexed":false,"internalType":"uint256"},{"name":"cancelJustified","type":"bool","indexed":false,"internalType":"bool"}],"anonymous":false},{"type":"event","name":"FundsReturned","inputs":[{"name":"depositRecipient","type":"address","indexed":false,"internalType":"address"},{"name":"tokenAddress","type":"address","indexed":false,"internalType":"address"},{"name":"amount","type":"uint256","indexed":false,"internalType":"uint256"}],"anonymous":false},{"type":"event","name":"FundsWithdrawn","inputs":[{"name":"withdrawRecipient","type":"address","indexed":false,"internalType":"address"},{"name":"tokenAddress","type":"address","indexed":false,"internalType":"address"},{"name":"amount","type":"uint256","indexed":false,"internalType":"uint256"}],"anonymous":false},{"type":"event","name":"L2UpdatesToRemovedAcceptedIntoQueue","inputs":[{"name":"requestId","type":"uint256","indexed":false,"internalType":"uint256"},{"name":"l2UpdatesToRemove","type":"uint256[]","indexed":false,"internalType":"uint256[]"}],"anonymous":false},{"type":"event","name":"WithdrawalResolutionAcceptedIntoQueue","inputs":[{"name":"requestId","type":"uint256","indexed":false,"internalType":"uint256"},{"name":"success","type":"bool","indexed":false,"internalType":"bool"}],"anonymous":false},{"type":"event","name":"cancelAndCalculatedHash","inputs":[{"name":"cancelHash","type":"bytes32","indexed":false,"internalType":"bytes32"},{"name":"calculatedHash","type":"bytes32","indexed":false,"internalType":"bytes32"}],"anonymous":false}],"bytecode":{"object":"0x608060405234801561001057600080fd5b506000600281905560018055600381905580546001600160a01b031916331790556122d8806100406000396000f3fe608060405234801561001057600080fd5b50600436106100885760003560e01c8063a80fc9bd1161005b578063a80fc9bd146100da578063b1538706146100fd578063ca9b21ae14610112578063f26ee9d01461012557600080fd5b806347e7ef241461008d5780635740b89d146100a257806361bc221a146100b55780637fd4f845146100d1575b600080fd5b6100a061009b366004611db2565b61012e565b005b6100a06100b0366004611ddc565b6103e9565b6100be60015481565b6040519081526020015b60405180910390f35b6100be60025481565b6100ed6100e8366004611e17565b610591565b6040516100c89493929190611e73565b610105610603565b6040516100c89190611ffe565b6100ed610120366004611e17565b610658565b6100be60035481565b6001600160a01b0382166101815760405162461bcd60e51b8152602060048201526015602482015274496e76616c696420746f6b656e206164647265737360581b60448201526064015b60405180910390fd5b600081116101d15760405162461bcd60e51b815260206004820181905260248201527f416d6f756e74206d7573742062652067726561746572207468616e207a65726f6044820152606401610178565b6040516323b872dd60e01b81523360048201819052306024830152604482018390529083906001600160a01b038216906323b872dd906064016020604051808303816000875af1158015610229573d6000803e3d6000fd5b505050506040513d601f19601f8201168201806040525081019061024d91906120f7565b6102915760405162461bcd60e51b8152602060048201526015602482015274151bdad95b881d1c985b9cd9995c8819985a5b1959605a1b6044820152606401610178565b6040805160e0810190915242906000908060a0810180848152602001600160008154809291906102c09061212a565b90915550905281526001600160a01b03808716602080840191909152908916604080840191909152606083018990526080909201859052825181015160009081526006909152208151805182549394508493839190829060ff19166001838181111561032e5761032e611e30565b021790555060209182015160019190910155828101516002830180546001600160a01b03199081166001600160a01b03938416179091556040808601516003860180549093169084161790915560608086015160048601556080958601516005909501949094558551830151815190815289831693810193909352908a16908201529081018790527fe28491c2da97a9923c92f6590a040dfc143fe636e8545356cdab0a796e1acefa910160405180910390a1505050505050565b60016103f86040830183612143565b90501015806104135750600161040e8280612143565b905010155b8061042d575060016104286020830183612143565b905010155b6104835760405162461bcd60e51b815260206004820152602160248201527f4172726179206d7573742068617665206174206c6561737420312075706461746044820152606560f81b6064820152608401610178565b600061049a6104956040840184612143565b61068d565b90506104a5826109fd565b80511561058d5760018054600091826104bd8361212a565b909155506040805180820190915290915080600081526020908101839052600083815260079091526040902081518154829060ff19166001838181111561050657610506611e30565b021790555060209182015160019091015560008281526007825260409020835161053892600290920191850190611d36565b5081516002600082825461054c9190612193565b90915550506040517f09b30365986269e3939307e7ca7b7b7421a8ad08ef18bb766c668d27cbc2aef99061058390839085906121a6565b60405180910390a1505b5050565b60046020526000908152604090819020815180830190925280549091908290829060ff1660018111156105c6576105c6611e30565b60018111156105d7576105d7611e30565b815260019190910154602090910152600282015460038301546004909301549192909160ff9091169084565b61062e6040518060800160405280606081526020016060815260200160608152602001606081525090565b61065360025460016106409190612193565b6001805461064e91906121c7565b610c7e565b905090565b60056020526000908152604090819020815180830190925280549091908290829060ff1660018111156105c6576105c6611e30565b606060008281036106ae5750506040805160008152602081019091526109f7565b6000848460008181106106c3576106c36121f0565b905060a0020160000160200135905060008585905067ffffffffffffffff8111156106f0576106f06121da565b604051908082528060200260200182016040528015610719578160200160208202803683370190505b50905060015b858110156107cc57610732836001612193565b878783818110610744576107446121f0565b905060a00201600001602001351461079e5760405162461bcd60e51b815260206004820152601960248201527f526571756573747320617265206e6f7420696e206f72646572000000000000006044820152606401610178565b8686828181106107b0576107b06121f0565b905060a00201600001602001359250808060010191505061071f565b5060005b8581101561095e57368787838181106107eb576107eb6121f0565b905060a0020190506002548160000160200135116108095750610956565b600061081b6080830160608401612206565b600581111561082c5761082c611e30565b0361086d5761083a81611309565b6040810135838661084a8161212a565b97508151811061085c5761085c6121f0565b602002602001018181525050610954565b600361087f6080830160608401612206565b600581111561089057610890611e30565b036108a5576040810135838661084a8161212a565b60056108b76080830160608401612206565b60058111156108c8576108c8611e30565b036108dd576040810135838661084a8161212a565b60026108ef6080830160608401612206565b600581111561090057610900611e30565b03610915576040810135838661084a8161212a565b60405162461bcd60e51b8152602060048201526014602482015273756e6b6e6f776e2072657175657374207479706560601b6044820152606401610178565b505b6001016107d0565b5060008367ffffffffffffffff81111561097a5761097a6121da565b6040519080825280602002602001820160405280156109a3578160200160208202803683370190505b50905060005b848110156109f0578281815181106109c3576109c36121f0565b60200260200101518282815181106109dd576109dd6121f0565b60209081029190910101526001016109a9565b5093505050505b92915050565b600080610a09836114a3565b9150915081600003610a2d5760405162461bcd60e51b815260040161017890612227565b600354610a3b906001612193565b821115610a5a5760405162461bcd60e51b815260040161017890612227565b6003548111610a7b5760405162461bcd60e51b815260040161017890612227565b6000610a8783856115d9565b90506000806000805b8451811015610c74576001858281518110610aad57610aad6121f0565b60200260200101516005811115610ac657610ac6611e30565b03610b365736610ad960208a018a612143565b85610ae38161212a565b9650818110610af457610af46121f0565b905060a002019050600354816000016020013511610b125750610c6c565b610b1b81611913565b60038054906000610b2b8361212a565b919050555050610c6c565b6004858281518110610b4a57610b4a6121f0565b60200260200101516005811115610b6357610b63611e30565b03610bb55736610b738980612143565b86610b7d8161212a565b9750818110610b8e57610b8e6121f0565b905060a002019050600354816000016020013511610bac5750610c6c565b610b1b81611bbe565b6003858281518110610bc957610bc96121f0565b60200260200101516005811115610be257610be2611e30565b03610c2e5736610bf560408a018a612143565b84610bff8161212a565b9550818110610c1057610c106121f0565b905060a002019050600354816000016020013511610b1b5750610c6c565b60405162461bcd60e51b8152602060048201526013602482015272756e6b6e6f776e20757064617465207479706560681b6044820152606401610178565b600101610a90565b5050505050505050565b610ca96040518060800160405280606081526020016060815260200160608152602001606081525090565b610cd46040518060800160405280606081526020016060815260200160608152602001606081525090565b6000808080875b878111610d945760008181526006602052604090206001015415610d0b5784610d038161212a565b955050610d82565b60008181526007602052604090206001015415610d345781610d2c8161212a565b925050610d82565b60008181526004602052604090206001015415610d5d5783610d558161212a565b945050610d82565b60008181526005602052604090206001015415610d825782610d7e8161212a565b9350505b80610d8c8161212a565b915050610cdb565b508367ffffffffffffffff811115610dae57610dae6121da565b604051908082528060200260200182016040528015610e1457816020015b6040805160e081018252600060a0820181815260c08301829052825260208083018290529282018190526060820181905260808201528252600019909201910181610dcc5790505b5085528167ffffffffffffffff811115610e3057610e306121da565b604051908082528060200260200182016040528015610e8f57816020015b6040805160c08101825260006080820181815260a083018290528252602080830182905292820181905260608201528252600019909201910181610e4e5790505b5060208601528267ffffffffffffffff811115610eae57610eae6121da565b604051908082528060200260200182016040528015610f0d57816020015b6040805160c08101825260006080820181815260a083018290528252602080830182905292820181905260608201528252600019909201910181610ecc5790505b5060408601528067ffffffffffffffff811115610f2c57610f2c6121da565b604051908082528060200260200182016040528015610f8657816020015b6040805160a08101825260006060808301828152608084018390528352602083015291810191909152815260200190600190039081610f4a5790505b506060860152506000925082915081905080875b8781116112fc576000818152600660205260409020600101541561107b5760008181526006602052604090819020815160e081019092528054829060a08201908390829060ff166001811115610ff257610ff2611e30565b600181111561100357611003611e30565b81526001919091015460209182015290825260028301546001600160a01b03908116918301919091526003830154166040820152600482015460608201526005909101546080909101528651866110598161212a565b97508151811061106b5761106b6121f0565b60200260200101819052506112ea565b600081815260046020526040902060010154156111365760008181526004602052604090819020815160c081019092528054829060808201908390829060ff1660018111156110cc576110cc611e30565b60018111156110dd576110dd611e30565b815260019190910154602091820152908252600283015490820152600382015460ff161515604080830191909152600490920154606090910152870151856111248161212a565b96508151811061106b5761106b6121f0565b6000818152600760205260409020600101541561122e5760008181526007602052604090819020815160a081019092528054829060608201908390829060ff16600181111561118757611187611e30565b600181111561119857611198611e30565b81526020016001820154815250508152602001600282018054806020026020016040519081016040528092919081815260200182805480156111f957602002820191906000526020600020905b8154815260200190600101908083116111e5575b505050505081526020016003820154815250508660600151838061121c9061212a565b94508151811061106b5761106b6121f0565b600081815260056020526040902060020154156112e55760008181526005602052604090819020815160c081019092528054829060808201908390829060ff16600181111561127f5761127f611e30565b600181111561129057611290611e30565b815260019190910154602091820152908252600283015482820152600383015460ff1615156040830152600490920154606090910152870151846112d38161212a565b95508151811061106b5761106b6121f0565b6112fc565b806112f48161212a565b915050610f9a565b5093979650505050505050565b61131960a0820160808301612251565b6114a057602080820135600081815260069092526040808320815160e081019092528054929392829060a08201908390829060ff16600181111561135f5761135f611e30565b600181111561137057611370611e30565b81526001919091015460209182015290825260028301546001600160a01b039081168383015260038401548116604080850191909152600480860154606080870191909152600590960154608090950194909452858101519286015194860151905163a9059cbb60e01b815294821693850193909352602484019290925292935082169063a9059cbb906044016020604051808303816000875af115801561141c573d6000803e3d6000fd5b505050506040513d601f19601f8201168201806040525081019061144091906120f7565b5060208083015160408085015160608087015183516001600160a01b0395861681529490921694840194909452908201527fd94415916610c60b0e0e439fd308b171a6e28fad608830cf17f14ff5928e2279910160405180910390a15050505b50565b60008060001981806114b58680612143565b90501115611539576114ee6114ca8680612143565b60008181106114db576114db6121f0565b905060a002016000016020013583611d0f565b91506115366114fd8680612143565b60016115098980612143565b6115149291506121c7565b818110611523576115236121f0565b905060a002016000016020013582611d27565b90505b60006115486020870187612143565b90501115611584576115606114ca6020870187612143565b91506115816115726020870187612143565b600161150960208a018a612143565b90505b60006115936040870187612143565b905011156115cf576115ab6114ca6040870187612143565b91506115cc6115bd6040870187612143565b600161150960408a018a612143565b90505b9094909350915050565b60606115e86040830183612143565b159050801561160057506115fc8280612143565b1590505b801561161857506116146020830183612143565b1590505b1561163257506040805160008152602081019091526109f7565b6000808080806116456040880188612143565b90506116546020890189612143565b90506116608980612143565b61166b929150612193565b6116759190612193565b905060008167ffffffffffffffff811115611692576116926121da565b6040519080825280602002602001820160405280156116bb578160200160208202803683370190505b509050885b6116ca838b612193565b811015611906576116de60208a018a612143565b9050871080156117165750806116f760208b018b612143565b89818110611707576117076121f0565b905060a0020160000160200135145b1561177e57600182858151811061172f5761172f6121f0565b6020026020010190600581111561174857611748611e30565b9081600581111561175b5761175b611e30565b905250866117688161212a565b97505083806117769061212a565b9450506118fe565b6117888980612143565b9050861080156117bd57508061179e8a80612143565b888181106117ae576117ae6121f0565b905060a0020160000160200135145b1561181d5760048285815181106117d6576117d66121f0565b602002602001019060058111156117ef576117ef611e30565b9081600581111561180257611802611e30565b9052508561180f8161212a565b96505083806117769061212a565b61182a60408a018a612143565b90508510801561186257508061184360408b018b612143565b87818110611853576118536121f0565b905060a0020160000160200135145b156118c257600382858151811061187b5761187b6121f0565b6020026020010190600581111561189457611894611e30565b908160058111156118a7576118a7611e30565b905250846118b48161212a565b95505083806117769061212a565b60405162461bcd60e51b8152602060048201526011602482015270696e76616c696465204c3255706461746560781b6044820152606401610178565b6001016116c0565b5098975050505050505050565b6000611925608083016060840161226e565b6040516370a0823160e01b81523060048201529091506000906080840135906001600160a01b038416906370a0823190602401602060405180830381865afa158015611975573d6000803e3d6000fd5b505050506040513d601f19601f820116820180604052508101906119999190612289565b6040805160c0810190915291111591504290600090806080810180848152602001600160008154809291906119cd9061212a565b9091555090528152602087810135818301528515156040808401919091526060909201859052825181015160009081526004909152208151805182549394508493839190829060ff191660018381811115611a2a57611a2a611e30565b02179055506020918201516001919091015582810151600283015560408084015160038401805460ff191691151591909117905560609093015160049092019190915582518101518251908152851515918101919091527f0c4873525770dbb64515e9d3950131f79ed8f72ff147ff1723bbe2e77e3791aa910160405180910390a18215611bb7576001600160a01b03841663a9059cbb611ad1606088016040890161226e565b6040516001600160e01b031960e084901b1681526001600160a01b039091166004820152608088013560248201526044016020604051808303816000875af1158015611b21573d6000803e3d6000fd5b505050506040513d601f19601f82011682018060405250810190611b4591906120f7565b507fa92ff919b850e4909ab2261d907ef955f11bc1716733a6cbece38d163a69af8a611b77606087016040880161226e565b611b87608088016060890161226e565b604080516001600160a01b0393841681529290911660208301526080880135908201526060015b60405180910390a15b5050505050565b6000611bd260408301356060840135610c7e565b9050600081604051602001611be79190611ffe565b60408051601f19818403018152828252805160209091012060c083019091529150429060009080608081018084815260200160016000815480929190611c2c9061212a565b909155509052815260208781013581830152608088013586146040808401919091526060909201859052825181015160009081526005909152208151805182549394508493839190829060ff191660018381811115611c8d57611c8d611e30565b021790555060209182015160019091015582810151600283015560408084015160038401805491151560ff199092169190911790556060909301516004909201919091558201518282015191517fd16f202ac5905ff5d1851f4805ffe56d1212db32fa989881d0044b9cf0f7277692611bae9282521515602082015260400190565b6000818310611d1e5781611d20565b825b9392505050565b6000818311611d1e5781611d20565b828054828255906000526020600020908101928215611d71579160200282015b82811115611d71578251825591602001919060010190611d56565b50611d7d929150611d81565b5090565b5b80821115611d7d5760008155600101611d82565b80356001600160a01b0381168114611dad57600080fd5b919050565b60008060408385031215611dc557600080fd5b611dce83611d96565b946020939093013593505050565b600060208284031215611dee57600080fd5b813567ffffffffffffffff811115611e0557600080fd5b820160608185031215611d2057600080fd5b600060208284031215611e2957600080fd5b5035919050565b634e487b7160e01b600052602160045260246000fd5b805160028110611e6657634e487b7160e01b600052602160045260246000fd5b8252602090810151910152565b60a08101611e818287611e46565b60408201949094529115156060830152608090910152919050565b611ea7828251611e46565b60208101516040830152604081015115156060830152606081015160808301525050565b60008151808452602080850194506020840160005b83811015611f0657611ef3878351611e9c565b60a0969096019590820190600101611ee0565b509495945050505050565b60008151808452602080850194506020840160005b83811015611f0657611f39878351611e9c565b60a0969096019590820190600101611f26565b60008151808452602080850194506020840160005b83811015611f0657815187529582019590820190600101611f61565b600082825180855260208086019550808260051b84010181860160005b84811015611ff157601f1986840301895281516080611fba858351611e46565b8582015160408281880152611fd183880183611f4c565b930151606096909601959095525098840198925090830190600101611f9a565b5090979650505050505050565b6000602080835260a080840185516080808588015282825180855260c0945060c089019150868401935060005b81811015612083578451612040848251611e46565b808901516001600160a01b03908116604086810191909152820151166060808601919091528101518585015284015187840152938701939185019160010161202b565b5050858901519550601f199450848882030160408901526120a48187611ecb565b9550505050506040850151818584030160608601526120c38382611f11565b9250506060850151818584030160808601526120df8382611f7d565b9695505050505050565b80151581146114a057600080fd5b60006020828403121561210957600080fd5b8151611d20816120e9565b634e487b7160e01b600052601160045260246000fd5b60006001820161213c5761213c612114565b5060010190565b6000808335601e1984360301811261215a57600080fd5b83018035915067ffffffffffffffff82111561217557600080fd5b602001915060a08102360382131561218c57600080fd5b9250929050565b808201808211156109f7576109f7612114565b8281526040602082015260006121bf6040830184611f4c565b949350505050565b818103818111156109f7576109f7612114565b634e487b7160e01b600052604160045260246000fd5b634e487b7160e01b600052603260045260246000fd5b60006020828403121561221857600080fd5b813560068110611d2057600080fd5b60208082526010908201526f496e76616c6964204c3255706461746560801b604082015260600190565b60006020828403121561226357600080fd5b8135611d20816120e9565b60006020828403121561228057600080fd5b611d2082611d96565b60006020828403121561229b57600080fd5b505191905056fea2646970667358221220815693024028ab4a4272887179f8b4fa80e7f01ea2dd6a180fcad517c30271c964736f6c63430008180033","linkReferences":{}},"methodIdentifiers":{"cancelResolutions(uint256)":"ca9b21ae","counter()":"61bc221a","deposit(address,uint256)":"47e7ef24","getUpdateForL2()":"b1538706","lastProcessedUpdate_origin_l1()":"7fd4f845","lastProcessedUpdate_origin_l2()":"f26ee9d0","update_l1_from_l2((((uint8,uint256),(uint256,uint256),bytes32)[],((uint8,uint256),address,address,uint256)[],((uint8,uint256),uint256,uint8,bool)[]))":"5740b89d","withdrawalResolutions(uint256)":"a80fc9bd"},"id":24}