{"abi":[{"type":"function","name":"CLOSED","inputs":[],"outputs":[{"name":"","type":"address","internalType":"address"}],"stateMutability":"view"},{"type":"function","name":"NATIVE_TOKEN_ADDRESS","inputs":[],"outputs":[{"name":"","type":"address","internalType":"address"}],"stateMutability":"view"},{"type":"function","name":"calculate_root","inputs":[{"name":"leave_hash","type":"bytes32","internalType":"bytes32"},{"name":"leave_idx","type":"uint32","internalType":"uint32"},{"name":"proof","type":"bytes32[]","internalType":"bytes32[]"},{"name":"leaves_count","type":"uint32","internalType":"uint32"}],"outputs":[{"name":"","type":"bytes32","internalType":"bytes32"}],"stateMutability":"pure"},{"type":"function","name":"calculate_root_impl","inputs":[{"name":"level","type":"uint32","internalType":"uint32"},{"name":"pos","type":"uint32","internalType":"uint32"},{"name":"hash","type":"bytes32","internalType":"bytes32"},{"name":"proofs","type":"bytes32[]","internalType":"bytes32[]"},{"name":"proof_idx","type":"uint32","internalType":"uint32"},{"name":"max_index","type":"uint32","internalType":"uint32"}],"outputs":[{"name":"","type":"bytes32","internalType":"bytes32"}],"stateMutability":"pure"},{"type":"function","name":"cancelResolutions","inputs":[{"name":"","type":"uint256","internalType":"uint256"}],"outputs":[{"name":"requestId","type":"tuple","internalType":"struct IRolldownPrimitives.RequestId","components":[{"name":"origin","type":"uint8","internalType":"enum IRolldownPrimitives.Origin"},{"name":"id","type":"uint256","internalType":"uint256"}]},{"name":"l2RequestId","type":"uint256","internalType":"uint256"},{"name":"cancelJustified","type":"bool","internalType":"bool"},{"name":"timeStamp","type":"uint256","internalType":"uint256"}],"stateMutability":"view"},{"type":"function","name":"chain","inputs":[],"outputs":[{"name":"","type":"uint8","internalType":"enum IRolldownPrimitives.ChainId"}],"stateMutability":"view"},{"type":"function","name":"close_cancel","inputs":[{"name":"cancel","type":"tuple","internalType":"struct IRolldownPrimitives.Cancel","components":[{"name":"requestId","type":"tuple","internalType":"struct IRolldownPrimitives.RequestId","components":[{"name":"origin","type":"uint8","internalType":"enum IRolldownPrimitives.Origin"},{"name":"id","type":"uint256","internalType":"uint256"}]},{"name":"range","type":"tuple","internalType":"struct IRolldownPrimitives.Range","components":[{"name":"start","type":"uint256","internalType":"uint256"},{"name":"end","type":"uint256","internalType":"uint256"}]},{"name":"hash","type":"bytes32","internalType":"bytes32"}]},{"name":"merkle_root","type":"bytes32","internalType":"bytes32"},{"name":"proof","type":"bytes32[]","internalType":"bytes32[]"}],"outputs":[],"stateMutability":"nonpayable"},{"type":"function","name":"close_deposit_refund","inputs":[{"name":"failedDeposit","type":"tuple","internalType":"struct IRolldownPrimitives.FailedDepositResolution","components":[{"name":"requestId","type":"tuple","internalType":"struct IRolldownPrimitives.RequestId","components":[{"name":"origin","type":"uint8","internalType":"enum IRolldownPrimitives.Origin"},{"name":"id","type":"uint256","internalType":"uint256"}]},{"name":"originRequestId","type":"uint256","internalType":"uint256"},{"name":"ferry","type":"address","internalType":"address"}]},{"name":"merkle_root","type":"bytes32","internalType":"bytes32"},{"name":"proof","type":"bytes32[]","internalType":"bytes32[]"}],"outputs":[],"stateMutability":"nonpayable"},{"type":"function","name":"close_withdrawal","inputs":[{"name":"withdrawal","type":"tuple","internalType":"struct IRolldownPrimitives.Withdrawal","components":[{"name":"requestId","type":"tuple","internalType":"struct IRolldownPrimitives.RequestId","components":[{"name":"origin","type":"uint8","internalType":"enum IRolldownPrimitives.Origin"},{"name":"id","type":"uint256","internalType":"uint256"}]},{"name":"recipient","type":"address","internalType":"address"},{"name":"tokenAddress","type":"address","internalType":"address"},{"name":"amount","type":"uint256","internalType":"uint256"},{"name":"ferryTip","type":"uint256","internalType":"uint256"}]},{"name":"merkle_root","type":"bytes32","internalType":"bytes32"},{"name":"proof","type":"bytes32[]","internalType":"bytes32[]"}],"outputs":[],"stateMutability":"nonpayable"},{"type":"function","name":"counter","inputs":[],"outputs":[{"name":"","type":"uint256","internalType":"uint256"}],"stateMutability":"view"},{"type":"function","name":"deposit","inputs":[{"name":"tokenAddress","type":"address","internalType":"address"},{"name":"amount","type":"uint256","internalType":"uint256"},{"name":"ferryTip","type":"uint256","internalType":"uint256"}],"outputs":[],"stateMutability":"nonpayable"},{"type":"function","name":"deposit","inputs":[{"name":"tokenAddress","type":"address","internalType":"address"},{"name":"amount","type":"uint256","internalType":"uint256"}],"outputs":[],"stateMutability":"nonpayable"},{"type":"function","name":"deposit_erc20","inputs":[{"name":"tokenAddress","type":"address","internalType":"address"},{"name":"amount","type":"uint256","internalType":"uint256"},{"name":"ferryTip","type":"uint256","internalType":"uint256"}],"outputs":[],"stateMutability":"nonpayable"},{"type":"function","name":"deposit_erc20","inputs":[{"name":"tokenAddress","type":"address","internalType":"address"},{"name":"amount","type":"uint256","internalType":"uint256"}],"outputs":[],"stateMutability":"nonpayable"},{"type":"function","name":"deposit_native","inputs":[],"outputs":[],"stateMutability":"payable"},{"type":"function","name":"deposit_native","inputs":[{"name":"ferryTip","type":"uint256","internalType":"uint256"}],"outputs":[],"stateMutability":"payable"},{"type":"function","name":"ferry_withdrawal","inputs":[{"name":"withdrawal","type":"tuple","internalType":"struct IRolldownPrimitives.Withdrawal","components":[{"name":"requestId","type":"tuple","internalType":"struct IRolldownPrimitives.RequestId","components":[{"name":"origin","type":"uint8","internalType":"enum IRolldownPrimitives.Origin"},{"name":"id","type":"uint256","internalType":"uint256"}]},{"name":"recipient","type":"address","internalType":"address"},{"name":"tokenAddress","type":"address","internalType":"address"},{"name":"amount","type":"uint256","internalType":"uint256"},{"name":"ferryTip","type":"uint256","internalType":"uint256"}]}],"outputs":[],"stateMutability":"payable"},{"type":"function","name":"find_l2_batch","inputs":[{"name":"requestId","type":"uint256","internalType":"uint256"}],"outputs":[{"name":"","type":"tuple","internalType":"struct IRolldownPrimitives.Range","components":[{"name":"start","type":"uint256","internalType":"uint256"},{"name":"end","type":"uint256","internalType":"uint256"}]}],"stateMutability":"view"},{"type":"function","name":"getPendingRequests","inputs":[{"name":"start","type":"uint256","internalType":"uint256"},{"name":"end","type":"uint256","internalType":"uint256"}],"outputs":[{"name":"","type":"tuple","internalType":"struct IRolldownPrimitives.L1Update","components":[{"name":"chain","type":"uint8","internalType":"enum IRolldownPrimitives.ChainId"},{"name":"pendingDeposits","type":"tuple[]","internalType":"struct IRolldownPrimitives.Deposit[]","components":[{"name":"requestId","type":"tuple","internalType":"struct IRolldownPrimitives.RequestId","components":[{"name":"origin","type":"uint8","internalType":"enum IRolldownPrimitives.Origin"},{"name":"id","type":"uint256","internalType":"uint256"}]},{"name":"depositRecipient","type":"address","internalType":"address"},{"name":"tokenAddress","type":"address","internalType":"address"},{"name":"amount","type":"uint256","internalType":"uint256"},{"name":"timeStamp","type":"uint256","internalType":"uint256"},{"name":"ferryTip","type":"uint256","internalType":"uint256"}]},{"name":"pendingCancelResolutions","type":"tuple[]","internalType":"struct IRolldownPrimitives.CancelResolution[]","components":[{"name":"requestId","type":"tuple","internalType":"struct IRolldownPrimitives.RequestId","components":[{"name":"origin","type":"uint8","internalType":"enum IRolldownPrimitives.Origin"},{"name":"id","type":"uint256","internalType":"uint256"}]},{"name":"l2RequestId","type":"uint256","internalType":"uint256"},{"name":"cancelJustified","type":"bool","internalType":"bool"},{"name":"timeStamp","type":"uint256","internalType":"uint256"}]}]}],"stateMutability":"view"},{"type":"function","name":"getUpdateForL2","inputs":[],"outputs":[{"name":"","type":"tuple","internalType":"struct IRolldownPrimitives.L1Update","components":[{"name":"chain","type":"uint8","internalType":"enum IRolldownPrimitives.ChainId"},{"name":"pendingDeposits","type":"tuple[]","internalType":"struct IRolldownPrimitives.Deposit[]","components":[{"name":"requestId","type":"tuple","internalType":"struct IRolldownPrimitives.RequestId","components":[{"name":"origin","type":"uint8","internalType":"enum IRolldownPrimitives.Origin"},{"name":"id","type":"uint256","internalType":"uint256"}]},{"name":"depositRecipient","type":"address","internalType":"address"},{"name":"tokenAddress","type":"address","internalType":"address"},{"name":"amount","type":"uint256","internalType":"uint256"},{"name":"timeStamp","type":"uint256","internalType":"uint256"},{"name":"ferryTip","type":"uint256","internalType":"uint256"}]},{"name":"pendingCancelResolutions","type":"tuple[]","internalType":"struct IRolldownPrimitives.CancelResolution[]","components":[{"name":"requestId","type":"tuple","internalType":"struct IRolldownPrimitives.RequestId","components":[{"name":"origin","type":"uint8","internalType":"enum IRolldownPrimitives.Origin"},{"name":"id","type":"uint256","internalType":"uint256"}]},{"name":"l2RequestId","type":"uint256","internalType":"uint256"},{"name":"cancelJustified","type":"bool","internalType":"bool"},{"name":"timeStamp","type":"uint256","internalType":"uint256"}]}]}],"stateMutability":"view"},{"type":"function","name":"initialize","inputs":[{"name":"_pauserRegistry","type":"address","internalType":"contract IPauserRegistry"},{"name":"initialOwner","type":"address","internalType":"address"},{"name":"chainId","type":"uint8","internalType":"enum IRolldownPrimitives.ChainId"},{"name":"updater","type":"address","internalType":"address"}],"outputs":[],"stateMutability":"nonpayable"},{"type":"function","name":"lastProcessedUpdate_origin_l1","inputs":[],"outputs":[{"name":"","type":"uint256","internalType":"uint256"}],"stateMutability":"view"},{"type":"function","name":"lastProcessedUpdate_origin_l2","inputs":[],"outputs":[{"name":"","type":"uint256","internalType":"uint256"}],"stateMutability":"view"},{"type":"function","name":"merkleRootRange","inputs":[{"name":"","type":"bytes32","internalType":"bytes32"}],"outputs":[{"name":"start","type":"uint256","internalType":"uint256"},{"name":"end","type":"uint256","internalType":"uint256"}],"stateMutability":"view"},{"type":"function","name":"owner","inputs":[],"outputs":[{"name":"","type":"address","internalType":"address"}],"stateMutability":"view"},{"type":"function","name":"pause","inputs":[{"name":"newPausedStatus","type":"uint256","internalType":"uint256"}],"outputs":[],"stateMutability":"nonpayable"},{"type":"function","name":"pauseAll","inputs":[],"outputs":[],"stateMutability":"nonpayable"},{"type":"function","name":"paused","inputs":[{"name":"index","type":"uint8","internalType":"uint8"}],"outputs":[{"name":"","type":"bool","internalType":"bool"}],"stateMutability":"view"},{"type":"function","name":"paused","inputs":[],"outputs":[{"name":"","type":"uint256","internalType":"uint256"}],"stateMutability":"view"},{"type":"function","name":"pauserRegistry","inputs":[],"outputs":[{"name":"","type":"address","internalType":"contract IPauserRegistry"}],"stateMutability":"view"},{"type":"function","name":"processedL2Requests","inputs":[{"name":"","type":"bytes32","internalType":"bytes32"}],"outputs":[{"name":"","type":"address","internalType":"address"}],"stateMutability":"view"},{"type":"function","name":"renounceOwnership","inputs":[],"outputs":[],"stateMutability":"nonpayable"},{"type":"function","name":"setPauserRegistry","inputs":[{"name":"newPauserRegistry","type":"address","internalType":"contract IPauserRegistry"}],"outputs":[],"stateMutability":"nonpayable"},{"type":"function","name":"setUpdater","inputs":[{"name":"updater","type":"address","internalType":"address"}],"outputs":[],"stateMutability":"nonpayable"},{"type":"function","name":"transferOwnership","inputs":[{"name":"newOwner","type":"address","internalType":"address"}],"outputs":[],"stateMutability":"nonpayable"},{"type":"function","name":"unpause","inputs":[{"name":"newPausedStatus","type":"uint256","internalType":"uint256"}],"outputs":[],"stateMutability":"nonpayable"},{"type":"function","name":"update_l1_from_l2","inputs":[{"name":"merkle_root","type":"bytes32","internalType":"bytes32"},{"name":"range","type":"tuple","internalType":"struct IRolldownPrimitives.Range","components":[{"name":"start","type":"uint256","internalType":"uint256"},{"name":"end","type":"uint256","internalType":"uint256"}]}],"outputs":[],"stateMutability":"nonpayable"},{"type":"function","name":"updaterAccount","inputs":[],"outputs":[{"name":"","type":"address","internalType":"address"}],"stateMutability":"view"},{"type":"event","name":"DepositAcceptedIntoQueue","inputs":[{"name":"requestId","type":"uint256","indexed":false,"internalType":"uint256"},{"name":"depositRecipient","type":"address","indexed":false,"internalType":"address"},{"name":"tokenAddress","type":"address","indexed":false,"internalType":"address"},{"name":"amount","type":"uint256","indexed":false,"internalType":"uint256"},{"name":"ferryTip","type":"uint256","indexed":false,"internalType":"uint256"}],"anonymous":false},{"type":"event","name":"DisputeResolutionAcceptedIntoQueue","inputs":[{"name":"requestId","type":"uint256","indexed":false,"internalType":"uint256"},{"name":"cancelJustified","type":"bool","indexed":false,"internalType":"bool"}],"anonymous":false},{"type":"event","name":"ERC20TokensWithdrawn","inputs":[{"name":"sender","type":"address","indexed":false,"internalType":"address"},{"name":"token_address","type":"address","indexed":false,"internalType":"address"},{"name":"amount","type":"uint256","indexed":false,"internalType":"uint256"}],"anonymous":false},{"type":"event","name":"FailedDepositResolutionClosed","inputs":[{"name":"requestId","type":"uint256","indexed":false,"internalType":"uint256"},{"name":"originDepositId","type":"uint256","indexed":false,"internalType":"uint256"},{"name":"failedDespotiResolutionHash","type":"bytes32","indexed":false,"internalType":"bytes32"}],"anonymous":false},{"type":"event","name":"FerriedWithdrawalClosed","inputs":[{"name":"requestId","type":"uint256","indexed":false,"internalType":"uint256"},{"name":"withdrawalHash","type":"bytes32","indexed":false,"internalType":"bytes32"}],"anonymous":false},{"type":"event","name":"Initialized","inputs":[{"name":"version","type":"uint8","indexed":false,"internalType":"uint8"}],"anonymous":false},{"type":"event","name":"L2UpdateAccepted","inputs":[{"name":"root","type":"bytes32","indexed":false,"internalType":"bytes32"},{"name":"range","type":"tuple","indexed":false,"internalType":"struct IRolldownPrimitives.Range","components":[{"name":"start","type":"uint256","internalType":"uint256"},{"name":"end","type":"uint256","internalType":"uint256"}]}],"anonymous":false},{"type":"event","name":"NativeTokensWithdrawn","inputs":[{"name":"sender","type":"address","indexed":false,"internalType":"address"},{"name":"amount","type":"uint256","indexed":false,"internalType":"uint256"}],"anonymous":false},{"type":"event","name":"NewUpdaterSet","inputs":[{"name":"updater","type":"address","indexed":false,"internalType":"address"}],"anonymous":false},{"type":"event","name":"OwnershipTransferred","inputs":[{"name":"previousOwner","type":"address","indexed":true,"internalType":"address"},{"name":"newOwner","type":"address","indexed":true,"internalType":"address"}],"anonymous":false},{"type":"event","name":"Paused","inputs":[{"name":"account","type":"address","indexed":true,"internalType":"address"},{"name":"newPausedStatus","type":"uint256","indexed":false,"internalType":"uint256"}],"anonymous":false},{"type":"event","name":"PauserRegistrySet","inputs":[{"name":"pauserRegistry","type":"address","indexed":false,"internalType":"contract IPauserRegistry"},{"name":"newPauserRegistry","type":"address","indexed":false,"internalType":"contract IPauserRegistry"}],"anonymous":false},{"type":"event","name":"Unpaused","inputs":[{"name":"account","type":"address","indexed":true,"internalType":"address"},{"name":"newPausedStatus","type":"uint256","indexed":false,"internalType":"uint256"}],"anonymous":false},{"type":"event","name":"WithdrawalClosed","inputs":[{"name":"requestId","type":"uint256","indexed":false,"internalType":"uint256"},{"name":"withdrawalHash","type":"bytes32","indexed":false,"internalType":"bytes32"}],"anonymous":false},{"type":"event","name":"WithdrawalFerried","inputs":[{"name":"requestId","type":"uint256","indexed":false,"internalType":"uint256"},{"name":"amount","type":"uint256","indexed":false,"internalType":"uint256"},{"name":"recipient","type":"address","indexed":false,"internalType":"address"},{"name":"ferry","type":"address","indexed":false,"internalType":"address"},{"name":"withdrawalHash","type":"bytes32","indexed":false,"internalType":"bytes32"}],"anonymous":false}],"bytecode":{"object":"0x608060405234801561001057600080fd5b50600160d255613c9d806100256000396000f3fe6080604052600436106102255760003560e01c8063886f119511610123578063d16544f0116100ab578063f26ee9d01161006f578063f26ee9d014610644578063f2fde38b1461065a578063f9ecd01e1461067a578063fabc1cbc146106b5578063ffea632b146106d557600080fd5b8063d16544f014610324578063de70e0b8146105c6578063df2ebdbb146105fc578063dffbdd9f14610611578063ef0ba5d01461062457600080fd5b8063af26c695116100f2578063af26c69514610532578063b153870614610552578063c763e5a114610567578063c87c22241461058e578063ca9b21ae1461059657600080fd5b8063886f1195146104b45780638da5cb5b146104d4578063950ac487146104f25780639d54f4191461051257600080fd5b80634bf5fec3116101b157806361bc221a1161017557806361bc221a14610421578063715018a61461043757806371c544611461044c57806379e041f2146104715780637fd4f8451461049e57600080fd5b80634bf5fec3146103445780634f48eedf14610364578063595c6a67146103ad5780635ac86ab7146103c25780635c975abb1461040257600080fd5b80630e2636a3116101f85780630e2636a31461029f5780630efe6a8b1461024c57806310d67a2f146102e4578063136439dd1461030457806347e7ef241461032457600080fd5b806301ef69661461022a57806308aba1b21461024c57806308f42d401461026c5780630cac57ab1461028c575b600080fd5b34801561023657600080fd5b5061024a610245366004613228565b6106f5565b005b34801561025857600080fd5b5061024a61026736600461329f565b6107cc565b34801561027857600080fd5b5061024a6102873660046132d4565b610829565b61024a61029a366004613324565b610a7c565b3480156102ab57600080fd5b506102c773111111111111111111111111111111111111111181565b6040516001600160a01b0390911681526020015b60405180910390f35b3480156102f057600080fd5b5061024a6102ff366004613340565b610f1a565b34801561031057600080fd5b5061024a61031f36600461335d565b610fcd565b34801561033057600080fd5b5061024a61033f366004613376565b61110c565b34801561035057600080fd5b5061024a61035f3660046133a2565b611169565b34801561037057600080fd5b5061039861037f36600461335d565b609d602052600090815260409020805460019091015482565b604080519283526020830191909152016102db565b3480156103b957600080fd5b5061024a6113ee565b3480156103ce57600080fd5b506103f26103dd3660046133e6565b606654600160ff9092169190911b9081161490565b60405190151581526020016102db565b34801561040e57600080fd5b506066545b6040519081526020016102db565b34801561042d57600080fd5b5061041360975481565b34801561044357600080fd5b5061024a6114b5565b34801561045857600080fd5b50609a546102c79061010090046001600160a01b031681565b34801561047d57600080fd5b5061049161048c366004613409565b6114c9565b6040516102db91906134df565b3480156104aa57600080fd5b5061041360985481565b3480156104c057600080fd5b506065546102c7906001600160a01b031681565b3480156104e057600080fd5b506033546001600160a01b03166102c7565b3480156104fe57600080fd5b5061024a61050d3660046135a2565b611889565b34801561051e57600080fd5b5061024a61052d366004613340565b611940565b34801561053e57600080fd5b5061041361054d366004613605565b6119c7565b34801561055e57600080fd5b50610491611a18565b34801561057357600080fd5b50609a546105819060ff1681565b6040516102db9190613674565b61024a611a63565b3480156105a257600080fd5b506105b66105b136600461335d565b611abc565b6040516102db9493929190613687565b3480156105d257600080fd5b506102c76105e136600461335d565b609e602052600090815260409020546001600160a01b031681565b34801561060857600080fd5b506102c7600181565b61024a61061f36600461335d565b611b2e565b34801561063057600080fd5b5061041361063f3660046136b0565b611b87565b34801561065057600080fd5b5061041360995481565b34801561066657600080fd5b5061024a610675366004613340565b611cc3565b34801561068657600080fd5b5061069a61069536600461335d565b611d39565b604080518251815260209283015192810192909252016102db565b3480156106c157600080fd5b5061024a6106d036600461335d565b611ead565b3480156106e157600080fd5b5061024a6106f036600461374d565b612009565b6066541561071e5760405162461bcd60e51b8152600401610715906137a9565b60405180910390fd5b600260d25414156107415760405162461bcd60e51b8152600401610715906137e0565b600260d25560405160009061075a908690602001613838565b604051602081830303815290604052805190602001209050610786856000016020013582868686612182565b61078f856122f7565b6000908152609e6020526040902080546001600160a01b0319167311111111111111111111111111111111111111111790555050600160d2555050565b606654156107ec5760405162461bcd60e51b8152600401610715906137a9565b600260d254141561080f5760405162461bcd60e51b8152600401610715906137e0565b600260d25561081f838383612449565b5050600160d25550565b606654156108495760405162461bcd60e51b8152600401610715906137a9565b609a5461010090046001600160a01b031633146108985760405162461bcd60e51b815260206004820152600d60248201526c2737ba103a34329037bbb732b960991b6044820152606401610715565b6099548160200135116108ed5760405162461bcd60e51b815260206004820152601960248201527f557064617465206272696e6773206e6f206e65772064617461000000000000006044820152606401610715565b803561093b5760405162461bcd60e51b815260206004820152601f60248201527f72616e6765206964206d7573742062652067726561746572207468616e2030006044820152606401610715565b60995461094a60018335613884565b11156109985760405162461bcd60e51b815260206004820152601760248201527f50726576696f757320757064617465206d697373696e670000000000000000006044820152606401610715565b8035602082013510156109dd5760405162461bcd60e51b815260206004820152600d60248201526c496e76616c69642072616e676560981b6044820152606401610715565b609f8054600181019091557f0bc14066c33013fe88f66e314e4cf150b0b2d4d6451a1a51dbbd1c27cd11de28018290556000828152609d602052604090208190610a34828281358155602082013560018201555050565b505060208101356099556040517f49c158d490db9e066f01b5d4f1a094485a6598cb6c5296b4c07e46c12a1dc11c90610a70908490849061389b565b60405180910390a15050565b60665415610a9c5760405162461bcd60e51b8152600401610715906137a9565b600260d2541415610abf5760405162461bcd60e51b8152600401610715906137e0565b600260d255608081013560a08201351115610aec5760405162461bcd60e51b8152600401610715906138b9565b6000610b0060a08301356080840135613884565b9050600082604051602001610b1591906138f0565b60408051601f1981840301815291815281516020928301206000818152609e9093529120549091506001600160a01b031615610b855760405162461bcd60e51b815260206004820152600f60248201526e105b1c9958591e4819995c9c9a5959608a1b6044820152606401610715565b6000818152609e6020526040902080546001600160a01b031916331790556001610bb56080850160608601613340565b6001600160a01b03161415610d4b5760003411610c0c5760405162461bcd60e51b815260206004820152601560248201527413985d1a5d99481d1bdad95b881b9bdd081cd95b9d605a1b6044820152606401610715565b813414610c925760405162461bcd60e51b815260206004820152604860248201527f53656e7420616d6f756e742073686f756c642065786163746c79206d6174636860448201527f207769746864726177616c2e616d6f756e74202d207769746864726177616c2e606482015267066657272795469760c41b608482015260a401610715565b610ca26060840160408501613340565b6001600160a01b03166108fc839081150290604051600060405180830381858888f19350505050158015610cda573d6000803e3d6000fd5b507f7a9abd9eb86bdbca89cba4069a632c37d93db82e3e14ad8119a3a7812814853e602084013583610d126060870160408801613340565b6040805193845260208401929092526001600160a01b0316908201523360608201526080810183905260a00160405180910390a161081f565b6000610d5d6080850160608601613340565b6040516370a0823160e01b815233600482015290915083906001600160a01b038316906370a0823190602401602060405180830381865afa158015610da6573d6000803e3d6000fd5b505050506040513d601f19601f82011682018060405250810190610dca919061394c565b1015610e0b5760405162461bcd60e51b815260206004820152601060248201526f4e6f7420656e6f7567682066756e647360801b6044820152606401610715565b6001600160a01b0381166323b872dd33610e2b6060880160408901613340565b6040516001600160e01b031960e085901b1681526001600160a01b03928316600482015291166024820152604481018690526064016020604051808303816000875af1158015610e7f573d6000803e3d6000fd5b505050506040513d601f19601f82011682018060405250810190610ea39190613965565b507f7a9abd9eb86bdbca89cba4069a632c37d93db82e3e14ad8119a3a7812814853e602085013584610edb6060880160408901613340565b6040805193845260208401929092526001600160a01b0316908201523360608201526080810184905260a00160405180910390a1505050600160d25550565b606560009054906101000a90046001600160a01b03166001600160a01b031663eab66d7a6040518163ffffffff1660e01b8152600401602060405180830381865afa158015610f6d573d6000803e3d6000fd5b505050506040513d601f19601f82011682018060405250810190610f919190613987565b6001600160a01b0316336001600160a01b031614610fc15760405162461bcd60e51b8152600401610715906139a4565b610fca8161265f565b50565b60655460405163237dfb4760e11b81523360048201526001600160a01b03909116906346fbf68e90602401602060405180830381865afa158015611015573d6000803e3d6000fd5b505050506040513d601f19601f820116820180604052508101906110399190613965565b6110555760405162461bcd60e51b8152600401610715906139ee565b606654818116146110ce5760405162461bcd60e51b815260206004820152603860248201527f5061757361626c652e70617573653a20696e76616c696420617474656d70742060448201527f746f20756e70617573652066756e6374696f6e616c69747900000000000000006064820152608401610715565b606681905560405181815233907fab40a374bc51de372200a8bc981af8c9ecdc08dfdaef0bb6e09f88f3c616ef3d906020015b60405180910390a250565b6066541561112c5760405162461bcd60e51b8152600401610715906137a9565b600260d254141561114f5760405162461bcd60e51b8152600401610715906137e0565b600260d25561116082826000612449565b5050600160d255565b606654156111895760405162461bcd60e51b8152600401610715906137a9565b600260d25414156111ac5760405162461bcd60e51b8152600401610715906137e0565b600260d2556040516111e990602080870135916111cb918891016138f0565b60405160208183030381529060405280519060200120858585612182565b6000846040516020016111fc91906138f0565b60408051601f1981840301815291815281516020928301206000818152609e909352912080546001600160a01b03198116731111111111111111111111111111111111111111179091559091506001600160a01b03168015158061133357600161126c6080890160608a01613340565b6001600160a01b0316141561129d5761129861128e6060890160408a01613340565b8860800135612756565b6112ca565b6112ca6112b06060890160408a01613340565b6112c060808a0160608b01613340565b8960800135612817565b7f935f26d94be31907080aa78b3e6e2ac6d48a072af096c20268388621bbc1178987600001602001358860405160200161130491906138f0565b60408051601f1981840301815282825280516020918201209383528201929092520160405180910390a16113e0565b60016113456080890160608a01613340565b6001600160a01b0316141561136757611362828860800135612756565b61137b565b61137b826112c060808a0160608b01613340565b7f2996fd546c37d74c170466ea6aa4a308e3ca2d4aa689e6e9e32994db5039cc0e8760000160200135886040516020016113b591906138f0565b60408051601f1981840301815282825280516020918201209383528201929092520160405180910390a15b5050600160d2555050505050565b60655460405163237dfb4760e11b81523360048201526001600160a01b03909116906346fbf68e90602401602060405180830381865afa158015611436573d6000803e3d6000fd5b505050506040513d601f19601f8201168201806040525081019061145a9190613965565b6114765760405162461bcd60e51b8152600401610715906139ee565b600019606681905560405190815233907fab40a374bc51de372200a8bc981af8c9ecdc08dfdaef0bb6e09f88f3c616ef3d9060200160405180910390a2565b6114bd612955565b6114c760006129af565b565b6114ee6040805160608101909152806000815260200160608152602001606081525090565b6115136040805160608101909152806000815260200160608152602001606081525090565b609a54819060ff16600181111561152c5761152c61342b565b9081600181111561153f5761153f61342b565b905250600080855b8581116115ae576000818152609c602052604090206001015415611577578261156f81613a36565b93505061159c565b6000818152609b60205260409020600101541561159c578161159881613a36565b9250505b806115a681613a36565b915050611547565b508167ffffffffffffffff8111156115c8576115c8613a51565b60405190808252806020026020018201604052801561163657816020015b6040805161010081018252600060c0820181815260e0830182905282526020808301829052928201819052606082018190526080820181905260a082015282526000199092019101816115e65790505b5060208401528067ffffffffffffffff81111561165557611655613a51565b6040519080825280602002602001820160405280156116b457816020015b6040805160c08101825260006080820181815260a0830182905282526020808301829052928201819052606082015282526000199092019101816116735790505b506040840152506000905080855b85811161187e576000818152609c6020526040902060010154156117ac576000818152609c602052604090819020815161010081019092528054829060c08201908390829060ff16600181111561171b5761171b61342b565b600181111561172c5761172c61342b565b81526001919091015460209182015290825260028301546001600160a01b03908116838301526003840154166040830152600483015460608301526005830154608083015260069092015460a0909101528501518461178a81613a36565b95508151811061179c5761179c613a67565b602002602001018190525061186c565b6000818152609b602052604090206002015415611867576000818152609b602052604090819020815160c081019092528054829060808201908390829060ff1660018111156117fd576117fd61342b565b600181111561180e5761180e61342b565b815260019190910154602091820152908252600283015490820152600382015460ff1615156040808301919091526004909201546060909101528501518361185581613a36565b94508151811061179c5761179c613a67565b61187e565b8061187681613a36565b9150506116c2565b509195945050505050565b606654156118a95760405162461bcd60e51b8152600401610715906137a9565b600260d25414156118cc5760405162461bcd60e51b8152600401610715906137e0565b600260d2556040516000906118e5908690602001613a7d565b6040516020818303038152906040528051906020012090506119378560000160200135866040516020016119199190613a7d565b60405160208183030381529060405280519060200120868686612182565b61078f85612a01565b611948612955565b606654156119685760405162461bcd60e51b8152600401610715906137a9565b609a8054610100600160a81b0319166101006001600160a01b038481168202929092179283905560405192041681527f1b0f2f500df596b42b73e80dbec6a1fb570f01978a586723f988a5fc54d773a19060200160405180910390a150565b600080825b63ffffffff8116156119f7576119e3600282613ad1565b90506119f0600183613af4565b91506119cc565b611a0c82888a8989600061063f60018c613b1c565b98975050505050505050565b611a3d6040805160608101909152806000815260200160608152602001606081525090565b611a5e6098546001611a4f9190613b41565b600160975461048c9190613884565b905090565b600260d2541415611a865760405162461bcd60e51b8152600401610715906137e0565b600260d25560665415611aab5760405162461bcd60e51b8152600401610715906137a9565b611ab56000612b19565b600160d255565b609b6020526000908152604090819020815180830190925280549091908290829060ff166001811115611af157611af161342b565b6001811115611b0257611b0261342b565b815260019190910154602090910152600282015460038301546004909301549192909160ff9091169084565b600260d2541415611b515760405162461bcd60e51b8152600401610715906137e0565b600260d25560665415611b765760405162461bcd60e51b8152600401610715906137a9565b611b7f81612b19565b50600160d255565b6000611b94600288613b59565b63ffffffff16611c19578163ffffffff168763ffffffff161415611bb757611c77565b85858585611bc481613b7c565b965063ffffffff16818110611bdb57611bdb613a67565b90506020020135604051602001611bfc929190918252602082015260400190565b604051602081830303815290604052805190602001209550611c77565b848484611c2581613b7c565b955063ffffffff16818110611c3c57611c3c613a67565b9050602002013586604051602001611c5e929190918252602082015260400190565b6040516020818303038152906040528051906020012095505b8763ffffffff1660011415611c8d575084611cb8565b611cb5611c9b60018a613b1c565b611ca660028a613ad1565b8888888861063f60028a613ad1565b90505b979650505050505050565b611ccb612955565b6001600160a01b038116611d305760405162461bcd60e51b815260206004820152602660248201527f4f776e61626c653a206e6577206f776e657220697320746865207a65726f206160448201526564647265737360d01b6064820152608401610715565b610fca816129af565b6040805180820190915260008082526020820152609954821115611d945760405162461bcd60e51b8152602060048201526012602482015271125b9d985b1a59081c995c5d595cdd081a5960721b6044820152606401610715565b609f54611db4575050604080518082019091526000808252602082015290565b609f54600090611dc690600190613884565b90505b609d6000609f8381548110611de057611de0613a67565b90600052602060002001548152602001908152602001600020600001548310158015611e3f5750609d6000609f8381548110611e1e57611e1e613a67565b90600052602060002001548152602001908152602001600020600101548311155b15611e9b57609d6000609f8381548110611e5b57611e5b613a67565b9060005260206000200154815260200190815260200160002060405180604001604052908160008201548152602001600182015481525050915050919050565b80611ea581613ba0565b915050611dc9565b606560009054906101000a90046001600160a01b03166001600160a01b031663eab66d7a6040518163ffffffff1660e01b8152600401602060405180830381865afa158015611f00573d6000803e3d6000fd5b505050506040513d601f19601f82011682018060405250810190611f249190613987565b6001600160a01b0316336001600160a01b031614611f545760405162461bcd60e51b8152600401610715906139a4565b606654198119606654191614611fd25760405162461bcd60e51b815260206004820152603860248201527f5061757361626c652e756e70617573653a20696e76616c696420617474656d7060448201527f7420746f2070617573652066756e6374696f6e616c69747900000000000000006064820152608401610715565b606681905560405181815233907f3582d1828e26bf56bd801502bc021ac0bc8afb57c826e4986b45593c8fad389c90602001611101565b600054610100900460ff16158080156120295750600054600160ff909116105b806120435750303b158015612043575060005460ff166001145b6120a65760405162461bcd60e51b815260206004820152602e60248201527f496e697469616c697a61626c653a20636f6e747261637420697320616c72656160448201526d191e481a5b9a5d1a585b1a5e995960921b6064820152608401610715565b6000805460ff1916600117905580156120c9576000805461ff0019166101001790555b6120d4856000612cf2565b6120dd846129af565b6000609881905560016097819055609991909155609a8054859260ff1990911690838181111561210f5761210f61342b565b0217905550609a8054610100600160a81b0319166101006001600160a01b03851602179055801561217b576000805461ff0019169055604051600181527f7f26b83ff96e1f2b6a682f133852f6798a09c465da95921460cefb3847402498906020015b60405180910390a15b5050505050565b6000838152609d60209081526040918290208251808401909352805480845260019091015491830191909152158015906121bf5750602081015115155b6122015760405162461bcd60e51b8152602060048201526013602482015272155b9adb9bdddb881b595c9adb19481c9bdbdd606a1b6044820152606401610715565b6000858152609e60205260409020546001600160a01b031673111111111111111111111111111111111111111114156122705760405162461bcd60e51b8152602060048201526011602482015270105b1c9958591e481c1c9bd8d95cdcd959607a1b6044820152606401610715565b8051602082015160009161228391613884565b61228e906001613b41565b82519091506000906122a09089613884565b9050856122b088838888876119c7565b146122ed5760405162461bcd60e51b815260206004820152600d60248201526c24b73b30b634b210383937b7b360991b6044820152606401610715565b5050505050505050565b600061230b604083013560608401356114c9565b905060008160405160200161232091906134df565b60408051601f19818403018152828252805160209091012060c08301909152915042906000908060808101808481526020016097600081548092919061236590613a36565b9091555090528152602087810135818301526080880135861415604080840191909152606090920185905282518101516000908152609b909152208151805182549394508493839190829060ff1916600183818111156123c7576123c761342b565b021790555060209182015160019091015582810151600283015560408084015160038401805491151560ff199092169190911790556060909301516004909201919091558201518282015191517fd16f202ac5905ff5d1851f4805ffe56d1212db32fa989881d0044b9cf0f72776926121729282521515602082015260400190565b818111156124695760405162461bcd60e51b8152600401610715906138b9565b6001600160a01b0383166124b75760405162461bcd60e51b8152602060048201526015602482015274496e76616c696420746f6b656e206164647265737360581b6044820152606401610715565b600082116124d75760405162461bcd60e51b815260040161071590613bb7565b33836124ee6001600160a01b038216833087612dd8565b60408051610100810190915242906000908060c08101808481526020016097600081548092919061251e90613a36565b90915550905281526001600160a01b03808716602080840191909152908a16604080840191909152606083018a90526080830186905260a090920188905282518101516000908152609c909152208151805182549394508493839190829060ff1916600183818111156125935761259361342b565b021790555060209182015160019190910155828101516002830180546001600160a01b03199081166001600160a01b0393841617909155604080860151600386018054909316908416179091556060808601516004860155608080870151600587015560a096870151600690960195909555865184015182519081528a841694810194909452918c169083015281018990529081018790527f225305ecb66fa9b9b29f8dead9baea365a6c225d639dfd866e782ccb63e2f05b910160405180910390a150505050505050565b6001600160a01b0381166126ed5760405162461bcd60e51b815260206004820152604960248201527f5061757361626c652e5f73657450617573657252656769737472793a206e657760448201527f50617573657252656769737472792063616e6e6f7420626520746865207a65726064820152686f206164647265737360b81b608482015260a401610715565b606554604080516001600160a01b03928316815291831660208301527f6e9fcd539896fca60e8b0f01dd580233e48a6b0f7df013b89ba7f565869acdb6910160405180910390a1606580546001600160a01b0319166001600160a01b0392909216919091179055565b30318111156127a75760405162461bcd60e51b815260206004820152601c60248201527f4e6f7420656e6f7567682066756e647320696e20636f6e7472616374000000006044820152606401610715565b600081116127c75760405162461bcd60e51b815260040161071590613bb7565b604080516001600160a01b0384168152602081018390527fe0495355c1e04c512584521854d222d239a4b782b39ac8a7e835a34f5ec7c1e1910160405180910390a16128138282612e49565b5050565b6040516370a0823160e01b8152306004820152829082906001600160a01b038316906370a0823190602401602060405180830381865afa15801561285f573d6000803e3d6000fd5b505050506040513d601f19601f82011682018060405250810190612883919061394c565b10156128d15760405162461bcd60e51b815260206004820152601c60248201527f4e6f7420656e6f7567682066756e647320696e20636f6e7472616374000000006044820152606401610715565b600082116128f15760405162461bcd60e51b815260040161071590613bb7565b6129056001600160a01b0382168584612f67565b604080516001600160a01b038087168252851660208201529081018390527ee763f7778b8ceef7270c89b7d1df1008b0e482da39c43831417733af96fb0d9060600160405180910390a150505050565b6033546001600160a01b031633146114c75760405162461bcd60e51b815260206004820181905260248201527f4f776e61626c653a2063616c6c6572206973206e6f7420746865206f776e65726044820152606401610715565b603380546001600160a01b038381166001600160a01b0319831681179093556040519116919082907f8be0079c531659141344cd1fd0a4f28419497f9722a3daafe3b4186f6b6457e090600090a35050565b6040808201356000908152609c602052908120600281015490916001600160a01b0390911690612a376080850160608601613340565b6001600160a01b031614612a5857612a556080840160608501613340565b90505b60038201546001600160a01b031660011415612a8157612a7c818360040154612756565b612aa2565b60038201546004830154612aa29183916001600160a01b0390911690612817565b7f13750c731f87c15242874ce74bf4649502cc8e7c829067ce846505acdb96289d8360000160200135846040013585604051602001612ae19190613a7d565b60408051601f1981840301815282825280516020918201209483528201929092529081019190915260600160405180910390a1505050565b34811115612b395760405162461bcd60e51b8152600401610715906138b9565b60003411612b895760405162461bcd60e51b815260206004820181905260248201527f6d73672076616c7565206d7573742062652067726561746572207468617420306044820152606401610715565b6040805161010081019091523390349042906000908060c081018084815260200160976000815480929190612bbd90613a36565b90915550905281526001600160a01b03861660208083019190915260016040808401829052606084018890526080840187905260a090930189905283518201516000908152609c9092529190208251805182549495508594929391928492839160ff1916908381811115612c3357612c3361342b565b0217905550602091820151600191820155838201516002840180546001600160a01b03199081166001600160a01b0393841617909155604080870151600387018054909316908416179091556060808701516004870155608080880151600588015560a09788015160069097019690965587518501518251908152928b16948301949094528101919091529081018690529081018790527f225305ecb66fa9b9b29f8dead9baea365a6c225d639dfd866e782ccb63e2f05b9101612172565b6065546001600160a01b0316158015612d1357506001600160a01b03821615155b612d955760405162461bcd60e51b815260206004820152604760248201527f5061757361626c652e5f696e697469616c697a655061757365723a205f696e6960448201527f7469616c697a6550617573657228292063616e206f6e6c792062652063616c6c6064820152666564206f6e636560c81b608482015260a401610715565b606681905560405181815233907fab40a374bc51de372200a8bc981af8c9ecdc08dfdaef0bb6e09f88f3c616ef3d9060200160405180910390a26128138261265f565b6040516001600160a01b0380851660248301528316604482015260648101829052612e439085906323b872dd60e01b906084015b60408051601f198184030181529190526020810180516001600160e01b03166001600160e01b031990931692909217909152612f97565b50505050565b80471015612e995760405162461bcd60e51b815260206004820152601d60248201527f416464726573733a20696e73756666696369656e742062616c616e63650000006044820152606401610715565b6000826001600160a01b03168260405160006040518083038185875af1925050503d8060008114612ee6576040519150601f19603f3d011682016040523d82523d6000602084013e612eeb565b606091505b5050905080612f625760405162461bcd60e51b815260206004820152603a60248201527f416464726573733a20756e61626c6520746f2073656e642076616c75652c207260448201527f6563697069656e74206d617920686176652072657665727465640000000000006064820152608401610715565b505050565b6040516001600160a01b038316602482015260448101829052612f6290849063a9059cbb60e01b90606401612e0c565b6000612fec826040518060400160405280602081526020017f5361666545524332303a206c6f772d6c6576656c2063616c6c206661696c6564815250856001600160a01b03166130699092919063ffffffff16565b805190915015612f62578080602001905181019061300a9190613965565b612f625760405162461bcd60e51b815260206004820152602a60248201527f5361666545524332303a204552433230206f7065726174696f6e20646964206e6044820152691bdd081cdd58d8d9595960b21b6064820152608401610715565b60606130788484600085613082565b90505b9392505050565b6060824710156130e35760405162461bcd60e51b815260206004820152602660248201527f416464726573733a20696e73756666696369656e742062616c616e636520666f6044820152651c8818d85b1b60d21b6064820152608401610715565b6001600160a01b0385163b61313a5760405162461bcd60e51b815260206004820152601d60248201527f416464726573733a2063616c6c20746f206e6f6e2d636f6e74726163740000006044820152606401610715565b600080866001600160a01b031685876040516131569190613c18565b60006040518083038185875af1925050503d8060008114613193576040519150601f19603f3d011682016040523d82523d6000602084013e613198565b606091505b5091509150611cb8828286606083156131b257508161307b565b8251156131c25782518084602001fd5b8160405162461bcd60e51b81526004016107159190613c34565b60008083601f8401126131ee57600080fd5b50813567ffffffffffffffff81111561320657600080fd5b6020830191508360208260051b850101111561322157600080fd5b9250929050565b60008060008084860360e081121561323f57600080fd5b60a081121561324d57600080fd5b5084935060a0850135925060c085013567ffffffffffffffff81111561327257600080fd5b61327e878288016131dc565b95989497509550505050565b6001600160a01b0381168114610fca57600080fd5b6000806000606084860312156132b457600080fd5b83356132bf8161328a565b95602085013595506040909401359392505050565b60008082840360608112156132e857600080fd5b833592506040601f19820112156132fe57600080fd5b506020830190509250929050565b600060c0828403121561331e57600080fd5b50919050565b600060c0828403121561333657600080fd5b61307b838361330c565b60006020828403121561335257600080fd5b813561307b8161328a565b60006020828403121561336f57600080fd5b5035919050565b6000806040838503121561338957600080fd5b82356133948161328a565b946020939093013593505050565b60008060008061010085870312156133b957600080fd5b6133c3868661330c565b935060c0850135925060e085013567ffffffffffffffff81111561327257600080fd5b6000602082840312156133f857600080fd5b813560ff8116811461307b57600080fd5b6000806040838503121561341c57600080fd5b50508035926020909101359150565b634e487b7160e01b600052602160045260246000fd5b60028110610fca57634e487b7160e01b600052602160045260246000fd5b805161346a81613441565b8252602090810151910152565b600081518084526020808501945080840160005b838110156134d45781516134a088825161345f565b8084015160408981019190915281015115156060808a01919091520151608088015260a0909601959082019060010161348b565b509495945050505050565b60006020808352608080840185516134f681613441565b85840152858301516060604080880182905282519384905260a093928601928489019060005b8181101561357757855161353184825161345f565b808a01516001600160a01b03908116858701528582015116868501528581015189850152888101518885015287015160c08401529488019460e09092019160010161351c565b505089820151898203601f1901848b015296506135948188613477565b9a9950505050505050505050565b60008060008084860360c08112156135b957600080fd5b60808112156135c757600080fd5b508493506080850135925060a085013567ffffffffffffffff81111561327257600080fd5b803563ffffffff8116811461360057600080fd5b919050565b60008060008060006080868803121561361d57600080fd5b8535945061362d602087016135ec565b9350604086013567ffffffffffffffff81111561364957600080fd5b613655888289016131dc565b90945092506136689050606087016135ec565b90509295509295909350565b6020810161368183613441565b91905290565b60a08101613695828761345f565b60408201949094529115156060830152608090910152919050565b600080600080600080600060c0888a0312156136cb57600080fd5b6136d4886135ec565b96506136e2602089016135ec565b955060408801359450606088013567ffffffffffffffff81111561370557600080fd5b6137118a828b016131dc565b90955093506137249050608089016135ec565b915061373260a089016135ec565b905092959891949750929550565b60028110610fca57600080fd5b6000806000806080858703121561376357600080fd5b843561376e8161328a565b9350602085013561377e8161328a565b9250604085013561378e81613740565b9150606085013561379e8161328a565b939692955090935050565b6020808252601c908201527f5061757361626c653a20636f6e74726163742069732070617573656400000000604082015260600190565b6020808252601f908201527f5265656e7472616e637947756172643a207265656e7472616e742063616c6c00604082015260600190565b803561382281613740565b61382b81613441565b8252602090810135910152565b60a081016138468284613817565b613860604083016040850180358252602090810135910152565b608092830135919092015290565b634e487b7160e01b600052601160045260246000fd5b6000828210156138965761389661386e565b500390565b8281526060810161307b602083018480358252602090810135910152565b6020808252601c908201527f5469702065786365656473206465706f736974656420616d6f756e7400000000604082015260600190565b60c081016138fe8284613817565b604083013561390c8161328a565b6001600160a01b03908116604084015260608401359061392b8261328a565b1660608301526080838101359083015260a092830135929091019190915290565b60006020828403121561395e57600080fd5b5051919050565b60006020828403121561397757600080fd5b8151801515811461307b57600080fd5b60006020828403121561399957600080fd5b815161307b8161328a565b6020808252602a908201527f6d73672e73656e646572206973206e6f74207065726d697373696f6e6564206160408201526939903ab73830bab9b2b960b11b606082015260800190565b60208082526028908201527f6d73672e73656e646572206973206e6f74207065726d697373696f6e6564206160408201526739903830bab9b2b960c11b606082015260800190565b6000600019821415613a4a57613a4a61386e565b5060010190565b634e487b7160e01b600052604160045260246000fd5b634e487b7160e01b600052603260045260246000fd5b60808101613a8b8284613817565b604083013560408301526060830135613aa38161328a565b6001600160a01b031660609290920191909152919050565b634e487b7160e01b600052601260045260246000fd5b600063ffffffff80841680613ae857613ae8613abb565b92169190910492915050565b600063ffffffff808316818516808303821115613b1357613b1361386e565b01949350505050565b600063ffffffff83811690831681811015613b3957613b3961386e565b039392505050565b60008219821115613b5457613b5461386e565b500190565b600063ffffffff80841680613b7057613b70613abb565b92169190910692915050565b600063ffffffff80831681811415613b9657613b9661386e565b6001019392505050565b600081613baf57613baf61386e565b506000190190565b6020808252818101527f416d6f756e74206d7573742062652067726561746572207468616e207a65726f604082015260600190565b60005b83811015613c07578181015183820152602001613bef565b83811115612e435750506000910152565b60008251613c2a818460208701613bec565b9190910192915050565b6020815260008251806020840152613c53816040850160208701613bec565b601f01601f1916919091016040019291505056fea26469706673582212201db9c83b9b7a91cbf56e5710a426b3cb8ca71c748f6505514ff06f974ad189e464736f6c634300080c0033","linkReferences":{}},"methodIdentifiers":{"CLOSED()":"0e2636a3","NATIVE_TOKEN_ADDRESS()":"df2ebdbb","calculate_root(bytes32,uint32,bytes32[],uint32)":"af26c695","calculate_root_impl(uint32,uint32,bytes32,bytes32[],uint32,uint32)":"ef0ba5d0","cancelResolutions(uint256)":"ca9b21ae","chain()":"c763e5a1","close_cancel(((uint8,uint256),(uint256,uint256),bytes32),bytes32,bytes32[])":"01ef6966","close_deposit_refund(((uint8,uint256),uint256,address),bytes32,bytes32[])":"950ac487","close_withdrawal(((uint8,uint256),address,address,uint256,uint256),bytes32,bytes32[])":"4bf5fec3","counter()":"61bc221a","deposit(address,uint256)":"47e7ef24","deposit(address,uint256,uint256)":"0efe6a8b","deposit_erc20(address,uint256)":"d16544f0","deposit_erc20(address,uint256,uint256)":"08aba1b2","deposit_native()":"c87c2224","deposit_native(uint256)":"dffbdd9f","ferry_withdrawal(((uint8,uint256),address,address,uint256,uint256))":"0cac57ab","find_l2_batch(uint256)":"f9ecd01e","getPendingRequests(uint256,uint256)":"79e041f2","getUpdateForL2()":"b1538706","initialize(address,address,uint8,address)":"ffea632b","lastProcessedUpdate_origin_l1()":"7fd4f845","lastProcessedUpdate_origin_l2()":"f26ee9d0","merkleRootRange(bytes32)":"4f48eedf","owner()":"8da5cb5b","pause(uint256)":"136439dd","pauseAll()":"595c6a67","paused()":"5c975abb","paused(uint8)":"5ac86ab7","pauserRegistry()":"886f1195","processedL2Requests(bytes32)":"de70e0b8","renounceOwnership()":"715018a6","setPauserRegistry(address)":"10d67a2f","setUpdater(address)":"9d54f419","transferOwnership(address)":"f2fde38b","unpause(uint256)":"fabc1cbc","update_l1_from_l2(bytes32,(uint256,uint256))":"08f42d40","updaterAccount()":"71c54461"},"id":139}