{
  "abi": [
    {
      "inputs": [],
      "stateMutability": "nonpayable",
      "type": "constructor"
    },
    {
      "anonymous": false,
      "inputs": [
        {
          "indexed": false,
          "internalType": "uint256",
          "name": "requestId",
          "type": "uint256"
        },
        {
          "indexed": false,
          "internalType": "address",
          "name": "depositRecipient",
          "type": "address"
        },
        {
          "indexed": false,
          "internalType": "address",
          "name": "tokenAddress",
          "type": "address"
        },
        {
          "indexed": false,
          "internalType": "uint256",
          "name": "amount",
          "type": "uint256"
        }
      ],
      "name": "DepositAcceptedIntoQueue",
      "type": "event"
    },
    {
      "anonymous": false,
      "inputs": [
        {
          "indexed": false,
          "internalType": "uint256",
          "name": "requestId",
          "type": "uint256"
        },
        {
          "indexed": false,
          "internalType": "bool",
          "name": "cancelJustified",
          "type": "bool"
        }
      ],
      "name": "DisputeResolutionAcceptedIntoQueue",
      "type": "event"
    },
    {
      "anonymous": false,
      "inputs": [
        {
          "indexed": false,
          "internalType": "address",
          "name": "withdrawRecipient",
          "type": "address"
        },
        {
          "indexed": false,
          "internalType": "address",
          "name": "tokenAddress",
          "type": "address"
        },
        {
          "indexed": false,
          "internalType": "uint256",
          "name": "amount",
          "type": "uint256"
        }
      ],
      "name": "FundsWithdrawn",
      "type": "event"
    },
    {
      "anonymous": false,
      "inputs": [
        {
          "indexed": false,
          "internalType": "uint256",
          "name": "requestId",
          "type": "uint256"
        },
        {
          "indexed": false,
          "internalType": "uint256[]",
          "name": "l2UpdatesToRemove",
          "type": "uint256[]"
        }
      ],
      "name": "L2UpdatesToRemovedAcceptedIntoQueue",
      "type": "event"
    },
    {
      "anonymous": false,
      "inputs": [
        {
          "indexed": false,
          "internalType": "bytes32",
          "name": "cancelHash",
          "type": "bytes32"
        },
        {
          "indexed": false,
          "internalType": "bytes32",
          "name": "calculatedHash",
          "type": "bytes32"
        }
      ],
      "name": "cancelAndCalculatedHash",
      "type": "event"
    },
    {
      "inputs": [
        {
          "internalType": "uint256",
          "name": "",
          "type": "uint256"
        }
      ],
      "name": "cancelResolutions",
      "outputs": [
        {
          "internalType": "uint256",
          "name": "l2RequestId",
          "type": "uint256"
        },
        {
          "internalType": "bool",
          "name": "cancelJustified",
          "type": "bool"
        },
        {
          "internalType": "bytes32",
          "name": "blockHash",
          "type": "bytes32"
        }
      ],
      "stateMutability": "view",
      "type": "function"
    },
    {
      "inputs": [],
      "name": "counter",
      "outputs": [
        {
          "internalType": "uint256",
          "name": "",
          "type": "uint256"
        }
      ],
      "stateMutability": "view",
      "type": "function"
    },
    {
      "inputs": [
        {
          "internalType": "address",
          "name": "tokenAddress",
          "type": "address"
        },
        {
          "internalType": "uint256",
          "name": "amount",
          "type": "uint256"
        }
      ],
      "name": "deposit",
      "outputs": [],
      "stateMutability": "nonpayable",
      "type": "function"
    },
    {
      "inputs": [],
      "name": "getUpdateForL2",
      "outputs": [
        {
          "components": [
            {
              "internalType": "uint256",
              "name": "lastProccessedRequestOnL1",
              "type": "uint256"
            },
            {
              "internalType": "uint256",
              "name": "lastAcceptedRequestOnL1",
              "type": "uint256"
            },
            {
              "internalType": "uint256",
              "name": "offset",
              "type": "uint256"
            },
            {
              "internalType": "enum RollDown.PendingRequestType[]",
              "name": "order",
              "type": "uint8[]"
            },
            {
              "components": [
                {
                  "internalType": "address",
                  "name": "depositRecipient",
                  "type": "address"
                },
                {
                  "internalType": "address",
                  "name": "tokenAddress",
                  "type": "address"
                },
                {
                  "internalType": "uint256",
                  "name": "amount",
                  "type": "uint256"
                },
                {
                  "internalType": "bytes32",
                  "name": "blockHash",
                  "type": "bytes32"
                }
              ],
              "internalType": "struct RollDown.Deposit[]",
              "name": "pendingDeposits",
              "type": "tuple[]"
            },
            {
              "components": [
                {
                  "internalType": "uint256",
                  "name": "l2RequestId",
                  "type": "uint256"
                },
                {
                  "internalType": "bool",
                  "name": "cancelJustified",
                  "type": "bool"
                },
                {
                  "internalType": "bytes32",
                  "name": "blockHash",
                  "type": "bytes32"
                }
              ],
              "internalType": "struct RollDown.CancelResolution[]",
              "name": "pendingCancelResultions",
              "type": "tuple[]"
            },
            {
              "components": [
                {
                  "internalType": "uint256[]",
                  "name": "l2UpdatesToRemove",
                  "type": "uint256[]"
                },
                {
                  "internalType": "bytes32",
                  "name": "blockHash",
                  "type": "bytes32"
                }
              ],
              "internalType": "struct RollDown.L2UpdatesToRemove[]",
              "name": "pendingL2UpdatesToRemove",
              "type": "tuple[]"
            }
          ],
          "internalType": "struct RollDown.L1Update",
          "name": "",
          "type": "tuple"
        }
      ],
      "stateMutability": "view",
      "type": "function"
    },
    {
      "inputs": [],
      "name": "lastProcessedUpdate_origin_l1",
      "outputs": [
        {
          "internalType": "uint256",
          "name": "",
          "type": "uint256"
        }
      ],
      "stateMutability": "view",
      "type": "function"
    },
    {
      "inputs": [],
      "name": "lastProcessedUpdate_origin_l2",
      "outputs": [
        {
          "internalType": "uint256",
          "name": "",
          "type": "uint256"
        }
      ],
      "stateMutability": "view",
      "type": "function"
    },
    {
      "inputs": [
        {
          "components": [
            {
              "components": [
                {
                  "internalType": "uint256",
                  "name": "l2RequestId",
                  "type": "uint256"
                },
                {
                  "internalType": "uint256",
                  "name": "lastProccessedRequestOnL1",
                  "type": "uint256"
                },
                {
                  "internalType": "uint256",
                  "name": "lastAcceptedRequestOnL1",
                  "type": "uint256"
                },
                {
                  "internalType": "bytes32",
                  "name": "hash",
                  "type": "bytes32"
                }
              ],
              "internalType": "struct RollDown.Cancel[]",
              "name": "cancels",
              "type": "tuple[]"
            },
            {
              "components": [
                {
                  "internalType": "uint256",
                  "name": "requestId",
                  "type": "uint256"
                },
                {
                  "internalType": "address",
                  "name": "withdrawRecipient",
                  "type": "address"
                },
                {
                  "internalType": "address",
                  "name": "tokenAddress",
                  "type": "address"
                },
                {
                  "internalType": "uint256",
                  "name": "amount",
                  "type": "uint256"
                }
              ],
              "internalType": "struct RollDown.Withdraw[]",
              "name": "withdraws",
              "type": "tuple[]"
            },
            {
              "components": [
                {
                  "internalType": "uint256",
                  "name": "requestId",
                  "type": "uint256"
                },
                {
                  "internalType": "enum RollDown.UpdateType",
                  "name": "updateType",
                  "type": "uint8"
                },
                {
                  "internalType": "bool",
                  "name": "status",
                  "type": "bool"
                }
              ],
              "internalType": "struct RollDown.RequestResult[]",
              "name": "results",
              "type": "tuple[]"
            }
          ],
          "internalType": "struct RollDown.L2Update",
          "name": "inputArray",
          "type": "tuple"
        }
      ],
      "name": "update_l1_from_l2",
      "outputs": [],
      "stateMutability": "nonpayable",
      "type": "function"
    }
  ],
  "bytecode": {
    "object": "0x608060405234801561001057600080fd5b50600060028190556001805560016001607f1b0360035580546001600160a01b03191633179055611d20806100466000396000f3fe608060405234801561001057600080fd5b506004361061007d5760003560e01c8063a4f577271161005b578063a4f57727146100bc578063b1538706146100cf578063ca9b21ae146100e4578063f26ee9d01461013157600080fd5b806347e7ef241461008257806361bc221a146100975780637fd4f845146100b3575b600080fd5b610095610090366004611864565b61013a565b005b6100a060015481565b6040519081526020015b60405180910390f35b6100a060025481565b6100956100ca36600461188e565b6103ac565b6100d7610557565b6040516100aa9190611a36565b6101166100f2366004611b1e565b600460205260009081526040902080546001820154600290920154909160ff169083565b604080519384529115156020840152908201526060016100aa565b6100a060035481565b6001600160a01b03821661018d5760405162461bcd60e51b8152602060048201526015602482015274496e76616c696420746f6b656e206164647265737360581b60448201526064015b60405180910390fd5b600081116101dd5760405162461bcd60e51b815260206004820181905260248201527f416d6f756e74206d7573742062652067726561746572207468616e207a65726f6044820152606401610184565b6040516323b872dd60e01b815233600482018190526001600160a01b038416602483018190526044830184905290918491906323b872dd906064016020604051808303816000875af1158015610237573d6000803e3d6000fd5b505050506040513d601f19601f8201168201806040525081019061025b9190611b37565b61029f5760405162461bcd60e51b8152602060048201526015602482015274151bdad95b881d1c985b9cd9995c8819985a5b1959605a1b6044820152606401610184565b604080516080810182526001600160a01b03808516825286166020820152908101849052434060608201819052600180549192918291600591600091826102e583611b6f565b9091555081526020808201929092526040908101600020835181546001600160a01b039182166001600160a01b03199182161783559385015160018084018054929093169190951617905590830151600282015560609092015160039092019190915580547fe28491c2da97a9923c92f6590a040dfc143fe636e8545356cdab0a796e1acefa9161037591611b88565b604080519182526001600160a01b0380881660208401528916908201526060810187905260800160405180910390a1505050505050565b60016103bb6040830183611b9b565b90501015806103d6575060016103d18280611beb565b905010155b806103f0575060016103eb6020830183611beb565b905010155b6104465760405162461bcd60e51b815260206004820152602160248201527f4172726179206d7573742068617665206174206c6561737420312075706461746044820152606560f81b6064820152608401610184565b600061045d6104586040840184611b9b565b610589565b9050600061046a83610865565b905060006104788383610a20565b805190915015610551576040805180820190915281815243406020820152600180548291600691600091826104ac83611b6f565b9091555081526020808201929092526040016000208251805191926104d6928492909101906117ab565b50602091909101516001909101556104f16040860186611b9b565b9050600260008282546105049190611c35565b9091555050600180547f09b30365986269e3939307e7ca7b7b7421a8ad08ef18bb766c668d27cbc2aef99161053891611b88565b83604051610547929190611c48565b60405180910390a1505b50505050565b61055f6117f6565b61058460025460016105719190611c35565b6001805461057f9190611b88565b610b32565b905090565b606060008281036105aa57505060408051600081526020810190915261085f565b6000848460008181106105bf576105bf611c7f565b60600291909101359150600090508467ffffffffffffffff8111156105e6576105e6611c69565b60405190808252806020026020018201604052801561060f578160200160208202803683370190505b50905060015b858110156106b657610628836001611c35565b87878381811061063a5761063a611c7f565b90506060020160000135146106915760405162461bcd60e51b815260206004820152601960248201527f526571756573747320617265206e6f7420696e206f72646572000000000000006044820152606401610184565b8686828181106106a3576106a3611c7f565b6060029190910135935050600101610615565b5060005b858110156107c657368787838181106106d5576106d5611c7f565b90506060020190506002548160000135116106f057506107be565b60006107026040830160208401611c95565b6003811115610713576107136118d0565b03610748578035838661072581611b6f565b97508151811061073757610737611c7f565b6020026020010181815250506107bc565b600261075a6040830160208401611c95565b600381111561076b5761076b6118d0565b0361077d578035838661072581611b6f565b60405162461bcd60e51b8152602060048201526014602482015273756e6b6e6f776e2072657175657374207479706560601b6044820152606401610184565b505b6001016106ba565b5060008367ffffffffffffffff8111156107e2576107e2611c69565b60405190808252806020026020018201604052801561080b578160200160208202803683370190505b50905060005b848110156108585782818151811061082b5761082b611c7f565b602002602001015182828151811061084557610845611c7f565b6020908102919091010152600101610811565b5093505050505b92915050565b606060008061087384611089565b9150915060008060005b8451811015610a1557600185828151811061089a5761089a611c7f565b602002602001015160038111156108b3576108b36118d0565b03610923576003546108c86020890189611beb565b848181106108d8576108d8611c7f565b905060800201600001351115610a0d5761091e6108f86020890189611beb565b8461090281611b6f565b955081811061091357610913611c7f565b9050608002016114c3565b6109f3565b600385828151811061093757610937611c7f565b60200260200101516003811115610950576109506118d0565b036109b5576003546109628880611beb565b8581811061097257610972611c7f565b905060800201600001351115610a0d5761091e61098f8880611beb565b8561099981611b6f565b96508181106109aa576109aa611c7f565b9050608002016116a9565b60405162461bcd60e51b8152602060048201526013602482015272756e6b6e6f776e20757064617465207479706560681b6044820152606401610184565b60018551610a019190611b88565b8103610a0d5760038190555b60010161087d565b509195945050505050565b6060600082518451610a329190611c35565b67ffffffffffffffff811115610a4a57610a4a611c69565b604051908082528060200260200182016040528015610a73578160200160208202803683370190505b5090506000805b8551811015610acf57858181518110610a9557610a95611c7f565b6020026020010151838381518110610aaf57610aaf611c7f565b602090810291909101015281610ac481611b6f565b925050600101610a7a565b5060005b8451811015610b2857848181518110610aee57610aee611c7f565b6020026020010151838381518110610b0857610b08611c7f565b602090810291909101015281610b1d81611b6f565b925050600101610ad3565b5090949350505050565b610b3a6117f6565b610b426117f6565b6000808080875b878111610bd9576000818152600560205260409020546001600160a01b031615610b7f5784610b7781611b6f565b955050610bc7565b60008181526006602052604090205415610ba55781610b9d81611b6f565b925050610bc7565b60008181526004602052604090205415610bc75782610bc381611b6f565b9350505b80610bd181611b6f565b915050610b49565b5060008183610be88688611c35565b610bf29190611c35565b610bfc9190611c35565b90508067ffffffffffffffff811115610c1757610c17611c69565b604051908082528060200260200182016040528015610c40578160200160208202803683370190505b506060870152604086018990528467ffffffffffffffff811115610c6657610c66611c69565b604051908082528060200260200182016040528015610cb857816020015b604080516080810182526000808252602080830182905292820181905260608201528252600019909201910181610c845790505b5060808701528267ffffffffffffffff811115610cd757610cd7611c69565b604051908082528060200260200182016040528015610d2257816020015b6040805160608101825260008082526020808301829052928201528252600019909201910181610cf55790505b5060a08701528167ffffffffffffffff811115610d4157610d41611c69565b604051908082528060200260200182016040528015610d8757816020015b604080518082019091526060815260006020820152815260200190600190039081610d5f5790505b5060c0870152600254865260018054610da09190611b88565b6020870152506000935083925082915081905080885b88811161107b576000818152600560205260409020546001600160a01b031615610ea857600087606001518380610dec90611b6f565b945081518110610dfe57610dfe611c7f565b60200260200101906003811115610e1757610e176118d0565b90816003811115610e2a57610e2a6118d0565b90525060008181526005602090815260409182902082516080808201855282546001600160a01b0390811683526001840154169382019390935260028201549381019390935260030154606083015288015187610e8681611b6f565b985081518110610e9857610e98611c7f565b6020026020010181905250611069565b60008181526006602052604090205415610fa257600387606001518380610ece90611b6f565b945081518110610ee057610ee0611c7f565b60200260200101906003811115610ef957610ef96118d0565b90816003811115610f0c57610f0c6118d0565b9052506000818152600660209081526040918290208251815460609381028201840185529381018481529093919284928491840182828015610f6d57602002820191906000526020600020905b815481526020019060010190808311610f59575b505050505081526020016001820154815250508760c001518480610f9090611b6f565b955081518110610e9857610e98611c7f565b6000818152600460205260409020541561106457600287606001518380610fc890611b6f565b945081518110610fda57610fda611c7f565b60200260200101906003811115610ff357610ff36118d0565b90816003811115611006576110066118d0565b905250600081815260046020908152604091829020825160608101845281548152600182015460ff16151592810192909252600201549181019190915260a08801518561105281611b6f565b965081518110610e9857610e98611c7f565b61107b565b8061107381611b6f565b915050610db6565b509498975050505050505050565b6060806110968380611beb565b15905080156110b157506110ad6020840184611beb565b1590505b156110d45750506040805160008082526020820190815281830190925292909150565b60008080600019816110e96020890189611beb565b90506110f58980611beb565b611100929150611c35565b9050600061111160208a018a611beb565b905067ffffffffffffffff81111561112b5761112b611c69565b604051908082528060200260200182016040528015611154578160200160208202803683370190505b50905060008267ffffffffffffffff81111561117257611172611c69565b60405190808252806020026020018201604052801561119b578160200160208202803683370190505b50905060006111aa8b80611beb565b9050111561120c57836111bd8b80611beb565b60008181106111ce576111ce611c7f565b90506080020160000135106111e35783611209565b6111ed8a80611beb565b60008181106111fe576111fe611c7f565b905060800201600001355b93505b600061121b60208c018c611beb565b90501115611283578361123160208c018c611beb565b600081811061124257611242611c7f565b90506080020160000135106112575783611280565b61126460208b018b611beb565b600081811061127557611275611c7f565b905060800201600001355b93505b600354611291906001611c35565b8411156112d35760405162461bcd60e51b815260206004820152601060248201526f496e76616c6964204c3255706461746560801b6044820152606401610184565b835b6112df8486611c35565b8110156114b4576112f360208c018c611beb565b90508810801561132857508061130c60208d018d611beb565b8a81811061131c5761131c611c7f565b90506080020160000135145b156113d457600182878151811061134157611341611c7f565b6020026020010190600381111561135a5761135a6118d0565b9081600381111561136d5761136d6118d0565b90525061137d60208c018c611beb565b8981811061138d5761138d611c7f565b905060800201600001358389815181106113a9576113a9611c7f565b6020908102919091010152876113be81611b6f565b98505085806113cc90611b6f565b9650506114ac565b6113de8b80611beb565b9050871080156114105750806113f48c80611beb565b8981811061140457611404611c7f565b90506080020160000135145b1561147057600382878151811061142957611429611c7f565b60200260200101906003811115611442576114426118d0565b90816003811115611455576114556118d0565b9052508661146281611b6f565b97505085806113cc90611b6f565b60405162461bcd60e51b8152602060048201526011602482015270696e76616c696465204c3255706461746560781b6044820152606401610184565b6001016112d5565b50999098509650505050505050565b60006114d56060830160408401611cb6565b6040516370a0823160e01b81523060048201529091506060830135906001600160a01b038316906370a0823190602401602060405180830381865afa158015611522573d6000803e3d6000fd5b505050506040513d601f19601f820116820180604052508101906115469190611cd1565b10156115a05760405162461bcd60e51b8152602060048201526024808201527f496e73756666696369656e742062616c616e636520696e2074686520636f6e746044820152631c9858dd60e21b6064820152608401610184565b6001600160a01b03811663a9059cbb6115bf6040850160208601611cb6565b6040516001600160e01b031960e084901b1681526001600160a01b039091166004820152606085013560248201526044016020604051808303816000875af115801561160f573d6000803e3d6000fd5b505050506040513d601f19601f820116820180604052508101906116339190611b37565b507fa92ff919b850e4909ab2261d907ef955f11bc1716733a6cbece38d163a69af8a6116656040840160208501611cb6565b6116756060850160408601611cb6565b604080516001600160a01b039384168152929091166020830152606080860135918301919091520160405180910390a15050565b60006116c76116bd60208401356001611c35565b8360400135610b32565b90506000816040516020016116dc9190611a36565b60408051601f19818403018152828252805160209182012060608085018452873585528701358114918401919091524340918301829052600180549194509192918291600491600091908261173083611b6f565b9091555081526020808201929092526040908101600020835181558383015160018201805460ff19169115159190911790559281015160029093019290925582518382015183519182521515918101919091527fd16f202ac5905ff5d1851f4805ffe56d1212db32fa989881d0044b9cf0f727769101610547565b8280548282559060005260206000209081019282156117e6579160200282015b828111156117e65782518255916020019190600101906117cb565b506117f2929150611833565b5090565b6040518060e00160405280600081526020016000815260200160008152602001606081526020016060815260200160608152602001606081525090565b5b808211156117f25760008155600101611834565b80356001600160a01b038116811461185f57600080fd5b919050565b6000806040838503121561187757600080fd5b61188083611848565b946020939093013593505050565b6000602082840312156118a057600080fd5b813567ffffffffffffffff8111156118b757600080fd5b8201606081850312156118c957600080fd5b9392505050565b634e487b7160e01b600052602160045260246000fd5b60008151808452602080850194506020840160005b8381101561194357815180516001600160a01b0390811689528482015116848901526040808201519089015260609081015190880152608090960195908201906001016118fb565b509495945050505050565b60008151808452602080850194506020840160005b8381101561194357815180518852838101511515848901526040908101519088015260609096019590820190600101611963565b60008151808452602080850194506020840160005b83811015611943578151875295820195908201906001016119ac565b600082825180855260208086019550808260051b84010181860160005b84811015611a2957601f19868403018952815160408151818652611a0b82870182611997565b928701519587019590955250988401989250908301906001016119e5565b5090979650505050505050565b60006020808352610100830184518285015281850151604085015260408501516060850152606085015160e060808601528181518084526101208701915084830193506000925060005b81811015611ab95784516004808210611aa657634e487b7160e01b865260218152602486fd5b5083529385019391850191600101611a80565b505060808701519350601f199250828682030160a0870152611adb81856118e6565b9350505060a0850151818584030160c0860152611af8838261194e565b92505060c0850151818584030160e0860152611b1483826119c8565b9695505050505050565b600060208284031215611b3057600080fd5b5035919050565b600060208284031215611b4957600080fd5b815180151581146118c957600080fd5b634e487b7160e01b600052601160045260246000fd5b600060018201611b8157611b81611b59565b5060010190565b8181038181111561085f5761085f611b59565b6000808335601e19843603018112611bb257600080fd5b83018035915067ffffffffffffffff821115611bcd57600080fd5b6020019150606081023603821315611be457600080fd5b9250929050565b6000808335601e19843603018112611c0257600080fd5b83018035915067ffffffffffffffff821115611c1d57600080fd5b6020019150600781901b3603821315611be457600080fd5b8082018082111561085f5761085f611b59565b828152604060208201526000611c616040830184611997565b949350505050565b634e487b7160e01b600052604160045260246000fd5b634e487b7160e01b600052603260045260246000fd5b600060208284031215611ca757600080fd5b8135600481106118c957600080fd5b600060208284031215611cc857600080fd5b6118c982611848565b600060208284031215611ce357600080fd5b505191905056fea2646970667358221220cb84e1387b95b5e89fd9bb2c56fb9ae7a60a90672bf43460eebd3c58bd1e3f7d64736f6c63430008160033",
    "linkReferences": {}
  },
  "methodIdentifiers": {
    "cancelResolutions(uint256)": "ca9b21ae",
    "counter()": "61bc221a",
    "deposit(address,uint256)": "47e7ef24",
    "getUpdateForL2()": "b1538706",
    "lastProcessedUpdate_origin_l1()": "7fd4f845",
    "lastProcessedUpdate_origin_l2()": "f26ee9d0",
    "update_l1_from_l2(((uint256,uint256,uint256,bytes32)[],(uint256,address,address,uint256)[],(uint256,uint8,bool)[]))": "a4f57727"
  },
  "id": 24
}