{
  "abi": [
    {
      "anonymous": false,
      "inputs": [
        {
          "indexed": false,
          "internalType": "uint256",
          "name": "requestId",
          "type": "uint256"
        },
        {
          "indexed": false,
          "internalType": "address",
          "name": "depositRecipient",
          "type": "address"
        },
        {
          "indexed": false,
          "internalType": "address",
          "name": "tokenAddress",
          "type": "address"
        },
        {
          "indexed": false,
          "internalType": "uint256",
          "name": "amount",
          "type": "uint256"
        }
      ],
      "name": "DepositAcceptedIntoQueue",
      "type": "event"
    },
    {
      "anonymous": false,
      "inputs": [
        {
          "indexed": false,
          "internalType": "uint256",
          "name": "requestId",
          "type": "uint256"
        },
        {
          "indexed": false,
          "internalType": "bool",
          "name": "cancelJustified",
          "type": "bool"
        }
      ],
      "name": "DisputeResolutionAcceptedIntoQueue",
      "type": "event"
    },
    {
      "anonymous": false,
      "inputs": [
        {
          "indexed": false,
          "internalType": "address",
          "name": "sender",
          "type": "address"
        },
        {
          "indexed": false,
          "internalType": "address",
          "name": "token_address",
          "type": "address"
        },
        {
          "indexed": false,
          "internalType": "uint256",
          "name": "amount",
          "type": "uint256"
        }
      ],
      "name": "ERC20TokensWithdrawn",
      "type": "event"
    },
    {
      "anonymous": false,
      "inputs": [
        {
          "indexed": false,
          "internalType": "uint8",
          "name": "version",
          "type": "uint8"
        }
      ],
      "name": "Initialized",
      "type": "event"
    },
    {
      "anonymous": false,
      "inputs": [
        {
          "indexed": false,
          "internalType": "address",
          "name": "sender",
          "type": "address"
        },
        {
          "indexed": false,
          "internalType": "uint256",
          "name": "amount",
          "type": "uint256"
        }
      ],
      "name": "NativeTokensWithdrawn",
      "type": "event"
    },
    {
      "anonymous": false,
      "inputs": [
        {
          "indexed": false,
          "internalType": "address",
          "name": "updater",
          "type": "address"
        }
      ],
      "name": "NewUpdaterSet",
      "type": "event"
    },
    {
      "anonymous": false,
      "inputs": [
        {
          "indexed": true,
          "internalType": "address",
          "name": "previousOwner",
          "type": "address"
        },
        {
          "indexed": true,
          "internalType": "address",
          "name": "newOwner",
          "type": "address"
        }
      ],
      "name": "OwnershipTransferred",
      "type": "event"
    },
    {
      "anonymous": false,
      "inputs": [
        {
          "indexed": true,
          "internalType": "address",
          "name": "account",
          "type": "address"
        },
        {
          "indexed": false,
          "internalType": "uint256",
          "name": "newPausedStatus",
          "type": "uint256"
        }
      ],
      "name": "Paused",
      "type": "event"
    },
    {
      "anonymous": false,
      "inputs": [
        {
          "indexed": false,
          "internalType": "contract IPauserRegistry",
          "name": "pauserRegistry",
          "type": "address"
        },
        {
          "indexed": false,
          "internalType": "contract IPauserRegistry",
          "name": "newPauserRegistry",
          "type": "address"
        }
      ],
      "name": "PauserRegistrySet",
      "type": "event"
    },
    {
      "anonymous": false,
      "inputs": [
        {
          "indexed": true,
          "internalType": "address",
          "name": "account",
          "type": "address"
        },
        {
          "indexed": false,
          "internalType": "uint256",
          "name": "newPausedStatus",
          "type": "uint256"
        }
      ],
      "name": "Unpaused",
      "type": "event"
    },
    {
      "anonymous": false,
      "inputs": [
        {
          "indexed": false,
          "internalType": "uint256",
          "name": "requestId",
          "type": "uint256"
        },
        {
          "indexed": false,
          "internalType": "bytes32",
          "name": "withdrawalHash",
          "type": "bytes32"
        }
      ],
      "name": "WithdrawalClosed",
      "type": "event"
    },
    {
      "inputs": [],
      "name": "ETH_TOKEN_ADDRESS",
      "outputs": [
        {
          "internalType": "address",
          "name": "",
          "type": "address"
        }
      ],
      "stateMutability": "view",
      "type": "function"
    },
    {
      "inputs": [
        {
          "internalType": "bytes32",
          "name": "leave_hash",
          "type": "bytes32"
        },
        {
          "internalType": "uint32",
          "name": "leave_idx",
          "type": "uint32"
        },
        {
          "internalType": "bytes32[]",
          "name": "proof",
          "type": "bytes32[]"
        },
        {
          "internalType": "uint32",
          "name": "leaves_count",
          "type": "uint32"
        }
      ],
      "name": "calculate_root",
      "outputs": [
        {
          "internalType": "bytes32",
          "name": "",
          "type": "bytes32"
        }
      ],
      "stateMutability": "pure",
      "type": "function"
    },
    {
      "inputs": [
        {
          "internalType": "uint32",
          "name": "level",
          "type": "uint32"
        },
        {
          "internalType": "uint32",
          "name": "pos",
          "type": "uint32"
        },
        {
          "internalType": "bytes32",
          "name": "hash",
          "type": "bytes32"
        },
        {
          "internalType": "bytes32[]",
          "name": "proofs",
          "type": "bytes32[]"
        },
        {
          "internalType": "uint32",
          "name": "proof_idx",
          "type": "uint32"
        },
        {
          "internalType": "uint32",
          "name": "max_index",
          "type": "uint32"
        }
      ],
      "name": "calculate_root_impl",
      "outputs": [
        {
          "internalType": "bytes32",
          "name": "",
          "type": "bytes32"
        }
      ],
      "stateMutability": "pure",
      "type": "function"
    },
    {
      "inputs": [
        {
          "internalType": "uint256",
          "name": "",
          "type": "uint256"
        }
      ],
      "name": "cancelResolutions",
      "outputs": [
        {
          "components": [
            {
              "internalType": "enum IRolldownPrimitives.Origin",
              "name": "origin",
              "type": "uint8"
            },
            {
              "internalType": "uint256",
              "name": "id",
              "type": "uint256"
            }
          ],
          "internalType": "struct IRolldownPrimitives.RequestId",
          "name": "requestId",
          "type": "tuple"
        },
        {
          "internalType": "uint256",
          "name": "l2RequestId",
          "type": "uint256"
        },
        {
          "internalType": "bool",
          "name": "cancelJustified",
          "type": "bool"
        },
        {
          "internalType": "uint256",
          "name": "timeStamp",
          "type": "uint256"
        }
      ],
      "stateMutability": "view",
      "type": "function"
    },
    {
      "inputs": [],
      "name": "chain",
      "outputs": [
        {
          "internalType": "enum IRolldownPrimitives.ChainId",
          "name": "",
          "type": "uint8"
        }
      ],
      "stateMutability": "view",
      "type": "function"
    },
    {
      "inputs": [
        {
          "components": [
            {
              "components": [
                {
                  "internalType": "enum IRolldownPrimitives.Origin",
                  "name": "origin",
                  "type": "uint8"
                },
                {
                  "internalType": "uint256",
                  "name": "id",
                  "type": "uint256"
                }
              ],
              "internalType": "struct IRolldownPrimitives.RequestId",
              "name": "requestId",
              "type": "tuple"
            },
            {
              "components": [
                {
                  "internalType": "uint256",
                  "name": "start",
                  "type": "uint256"
                },
                {
                  "internalType": "uint256",
                  "name": "end",
                  "type": "uint256"
                }
              ],
              "internalType": "struct IRolldownPrimitives.Range",
              "name": "range",
              "type": "tuple"
            },
            {
              "internalType": "bytes32",
              "name": "hash",
              "type": "bytes32"
            }
          ],
          "internalType": "struct IRolldownPrimitives.Cancel",
          "name": "cancel",
          "type": "tuple"
        },
        {
          "internalType": "bytes32",
          "name": "merkle_root",
          "type": "bytes32"
        },
        {
          "internalType": "bytes32[]",
          "name": "proof",
          "type": "bytes32[]"
        }
      ],
      "name": "close_cancel",
      "outputs": [],
      "stateMutability": "nonpayable",
      "type": "function"
    },
    {
      "inputs": [
        {
          "components": [
            {
              "components": [
                {
                  "internalType": "enum IRolldownPrimitives.Origin",
                  "name": "origin",
                  "type": "uint8"
                },
                {
                  "internalType": "uint256",
                  "name": "id",
                  "type": "uint256"
                }
              ],
              "internalType": "struct IRolldownPrimitives.RequestId",
              "name": "requestId",
              "type": "tuple"
            },
            {
              "internalType": "address",
              "name": "recipient",
              "type": "address"
            },
            {
              "internalType": "address",
              "name": "tokenAddress",
              "type": "address"
            },
            {
              "internalType": "uint256",
              "name": "amount",
              "type": "uint256"
            }
          ],
          "internalType": "struct IRolldownPrimitives.Withdrawal",
          "name": "withdrawal",
          "type": "tuple"
        },
        {
          "internalType": "bytes32",
          "name": "merkle_root",
          "type": "bytes32"
        },
        {
          "internalType": "bytes32[]",
          "name": "proof",
          "type": "bytes32[]"
        }
      ],
      "name": "close_withdrawal",
      "outputs": [],
      "stateMutability": "nonpayable",
      "type": "function"
    },
    {
      "inputs": [],
      "name": "counter",
      "outputs": [
        {
          "internalType": "uint256",
          "name": "",
          "type": "uint256"
        }
      ],
      "stateMutability": "view",
      "type": "function"
    },
    {
      "inputs": [
        {
          "internalType": "address",
          "name": "tokenAddress",
          "type": "address"
        },
        {
          "internalType": "uint256",
          "name": "amount",
          "type": "uint256"
        }
      ],
      "name": "deposit",
      "outputs": [],
      "stateMutability": "nonpayable",
      "type": "function"
    },
    {
      "inputs": [
        {
          "internalType": "address",
          "name": "tokenAddress",
          "type": "address"
        },
        {
          "internalType": "uint256",
          "name": "amount",
          "type": "uint256"
        }
      ],
      "name": "deposit_erc20",
      "outputs": [],
      "stateMutability": "nonpayable",
      "type": "function"
    },
    {
      "inputs": [],
      "name": "deposit_native",
      "outputs": [],
      "stateMutability": "payable",
      "type": "function"
    },
    {
      "inputs": [
        {
          "internalType": "uint256",
          "name": "requestId",
          "type": "uint256"
        }
      ],
      "name": "find_l2_batch",
      "outputs": [
        {
          "components": [
            {
              "internalType": "uint256",
              "name": "start",
              "type": "uint256"
            },
            {
              "internalType": "uint256",
              "name": "end",
              "type": "uint256"
            }
          ],
          "internalType": "struct IRolldownPrimitives.Range",
          "name": "",
          "type": "tuple"
        }
      ],
      "stateMutability": "view",
      "type": "function"
    },
    {
      "inputs": [
        {
          "internalType": "uint256",
          "name": "start",
          "type": "uint256"
        },
        {
          "internalType": "uint256",
          "name": "end",
          "type": "uint256"
        }
      ],
      "name": "getPendingRequests",
      "outputs": [
        {
          "components": [
            {
              "internalType": "enum IRolldownPrimitives.ChainId",
              "name": "chain",
              "type": "uint8"
            },
            {
              "components": [
                {
                  "components": [
                    {
                      "internalType": "enum IRolldownPrimitives.Origin",
                      "name": "origin",
                      "type": "uint8"
                    },
                    {
                      "internalType": "uint256",
                      "name": "id",
                      "type": "uint256"
                    }
                  ],
                  "internalType": "struct IRolldownPrimitives.RequestId",
                  "name": "requestId",
                  "type": "tuple"
                },
                {
                  "internalType": "address",
                  "name": "depositRecipient",
                  "type": "address"
                },
                {
                  "internalType": "address",
                  "name": "tokenAddress",
                  "type": "address"
                },
                {
                  "internalType": "uint256",
                  "name": "amount",
                  "type": "uint256"
                },
                {
                  "internalType": "uint256",
                  "name": "timeStamp",
                  "type": "uint256"
                }
              ],
              "internalType": "struct IRolldownPrimitives.Deposit[]",
              "name": "pendingDeposits",
              "type": "tuple[]"
            },
            {
              "components": [
                {
                  "components": [
                    {
                      "internalType": "enum IRolldownPrimitives.Origin",
                      "name": "origin",
                      "type": "uint8"
                    },
                    {
                      "internalType": "uint256",
                      "name": "id",
                      "type": "uint256"
                    }
                  ],
                  "internalType": "struct IRolldownPrimitives.RequestId",
                  "name": "requestId",
                  "type": "tuple"
                },
                {
                  "internalType": "uint256",
                  "name": "l2RequestId",
                  "type": "uint256"
                },
                {
                  "internalType": "bool",
                  "name": "cancelJustified",
                  "type": "bool"
                },
                {
                  "internalType": "uint256",
                  "name": "timeStamp",
                  "type": "uint256"
                }
              ],
              "internalType": "struct IRolldownPrimitives.CancelResolution[]",
              "name": "pendingCancelResolutions",
              "type": "tuple[]"
            }
          ],
          "internalType": "struct IRolldownPrimitives.L1Update",
          "name": "",
          "type": "tuple"
        }
      ],
      "stateMutability": "view",
      "type": "function"
    },
    {
      "inputs": [],
      "name": "getUpdateForL2",
      "outputs": [
        {
          "components": [
            {
              "internalType": "enum IRolldownPrimitives.ChainId",
              "name": "chain",
              "type": "uint8"
            },
            {
              "components": [
                {
                  "components": [
                    {
                      "internalType": "enum IRolldownPrimitives.Origin",
                      "name": "origin",
                      "type": "uint8"
                    },
                    {
                      "internalType": "uint256",
                      "name": "id",
                      "type": "uint256"
                    }
                  ],
                  "internalType": "struct IRolldownPrimitives.RequestId",
                  "name": "requestId",
                  "type": "tuple"
                },
                {
                  "internalType": "address",
                  "name": "depositRecipient",
                  "type": "address"
                },
                {
                  "internalType": "address",
                  "name": "tokenAddress",
                  "type": "address"
                },
                {
                  "internalType": "uint256",
                  "name": "amount",
                  "type": "uint256"
                },
                {
                  "internalType": "uint256",
                  "name": "timeStamp",
                  "type": "uint256"
                }
              ],
              "internalType": "struct IRolldownPrimitives.Deposit[]",
              "name": "pendingDeposits",
              "type": "tuple[]"
            },
            {
              "components": [
                {
                  "components": [
                    {
                      "internalType": "enum IRolldownPrimitives.Origin",
                      "name": "origin",
                      "type": "uint8"
                    },
                    {
                      "internalType": "uint256",
                      "name": "id",
                      "type": "uint256"
                    }
                  ],
                  "internalType": "struct IRolldownPrimitives.RequestId",
                  "name": "requestId",
                  "type": "tuple"
                },
                {
                  "internalType": "uint256",
                  "name": "l2RequestId",
                  "type": "uint256"
                },
                {
                  "internalType": "bool",
                  "name": "cancelJustified",
                  "type": "bool"
                },
                {
                  "internalType": "uint256",
                  "name": "timeStamp",
                  "type": "uint256"
                }
              ],
              "internalType": "struct IRolldownPrimitives.CancelResolution[]",
              "name": "pendingCancelResolutions",
              "type": "tuple[]"
            }
          ],
          "internalType": "struct IRolldownPrimitives.L1Update",
          "name": "",
          "type": "tuple"
        }
      ],
      "stateMutability": "view",
      "type": "function"
    },
    {
      "inputs": [
        {
          "internalType": "contract IPauserRegistry",
          "name": "_pauserRegistry",
          "type": "address"
        },
        {
          "internalType": "address",
          "name": "initialOwner",
          "type": "address"
        },
        {
          "internalType": "enum IRolldownPrimitives.ChainId",
          "name": "chainId",
          "type": "uint8"
        },
        {
          "internalType": "address",
          "name": "updater",
          "type": "address"
        }
      ],
      "name": "initialize",
      "outputs": [],
      "stateMutability": "nonpayable",
      "type": "function"
    },
    {
      "inputs": [],
      "name": "lastProcessedUpdate_origin_l1",
      "outputs": [
        {
          "internalType": "uint256",
          "name": "",
          "type": "uint256"
        }
      ],
      "stateMutability": "view",
      "type": "function"
    },
    {
      "inputs": [],
      "name": "lastProcessedUpdate_origin_l2",
      "outputs": [
        {
          "internalType": "uint256",
          "name": "",
          "type": "uint256"
        }
      ],
      "stateMutability": "view",
      "type": "function"
    },
    {
      "inputs": [
        {
          "internalType": "bytes32",
          "name": "",
          "type": "bytes32"
        }
      ],
      "name": "merkleRootRange",
      "outputs": [
        {
          "internalType": "uint256",
          "name": "start",
          "type": "uint256"
        },
        {
          "internalType": "uint256",
          "name": "end",
          "type": "uint256"
        }
      ],
      "stateMutability": "view",
      "type": "function"
    },
    {
      "inputs": [],
      "name": "owner",
      "outputs": [
        {
          "internalType": "address",
          "name": "",
          "type": "address"
        }
      ],
      "stateMutability": "view",
      "type": "function"
    },
    {
      "inputs": [
        {
          "internalType": "uint256",
          "name": "newPausedStatus",
          "type": "uint256"
        }
      ],
      "name": "pause",
      "outputs": [],
      "stateMutability": "nonpayable",
      "type": "function"
    },
    {
      "inputs": [],
      "name": "pauseAll",
      "outputs": [],
      "stateMutability": "nonpayable",
      "type": "function"
    },
    {
      "inputs": [
        {
          "internalType": "uint8",
          "name": "index",
          "type": "uint8"
        }
      ],
      "name": "paused",
      "outputs": [
        {
          "internalType": "bool",
          "name": "",
          "type": "bool"
        }
      ],
      "stateMutability": "view",
      "type": "function"
    },
    {
      "inputs": [],
      "name": "paused",
      "outputs": [
        {
          "internalType": "uint256",
          "name": "",
          "type": "uint256"
        }
      ],
      "stateMutability": "view",
      "type": "function"
    },
    {
      "inputs": [],
      "name": "pauserRegistry",
      "outputs": [
        {
          "internalType": "contract IPauserRegistry",
          "name": "",
          "type": "address"
        }
      ],
      "stateMutability": "view",
      "type": "function"
    },
    {
      "inputs": [
        {
          "internalType": "uint256",
          "name": "",
          "type": "uint256"
        }
      ],
      "name": "processedL2Requests",
      "outputs": [
        {
          "internalType": "bool",
          "name": "",
          "type": "bool"
        }
      ],
      "stateMutability": "view",
      "type": "function"
    },
    {
      "inputs": [],
      "name": "renounceOwnership",
      "outputs": [],
      "stateMutability": "nonpayable",
      "type": "function"
    },
    {
      "inputs": [
        {
          "internalType": "contract IPauserRegistry",
          "name": "newPauserRegistry",
          "type": "address"
        }
      ],
      "name": "setPauserRegistry",
      "outputs": [],
      "stateMutability": "nonpayable",
      "type": "function"
    },
    {
      "inputs": [
        {
          "internalType": "address",
          "name": "updater",
          "type": "address"
        }
      ],
      "name": "setUpdater",
      "outputs": [],
      "stateMutability": "nonpayable",
      "type": "function"
    },
    {
      "inputs": [
        {
          "internalType": "address",
          "name": "newOwner",
          "type": "address"
        }
      ],
      "name": "transferOwnership",
      "outputs": [],
      "stateMutability": "nonpayable",
      "type": "function"
    },
    {
      "inputs": [
        {
          "internalType": "uint256",
          "name": "newPausedStatus",
          "type": "uint256"
        }
      ],
      "name": "unpause",
      "outputs": [],
      "stateMutability": "nonpayable",
      "type": "function"
    },
    {
      "inputs": [
        {
          "internalType": "bytes32",
          "name": "merkle_root",
          "type": "bytes32"
        },
        {
          "components": [
            {
              "internalType": "uint256",
              "name": "start",
              "type": "uint256"
            },
            {
              "internalType": "uint256",
              "name": "end",
              "type": "uint256"
            }
          ],
          "internalType": "struct IRolldownPrimitives.Range",
          "name": "range",
          "type": "tuple"
        }
      ],
      "name": "update_l1_from_l2",
      "outputs": [],
      "stateMutability": "nonpayable",
      "type": "function"
    },
    {
      "inputs": [],
      "name": "updaterAccount",
      "outputs": [
        {
          "internalType": "address",
          "name": "",
          "type": "address"
        }
      ],
      "stateMutability": "view",
      "type": "function"
    }
  ],
  "bytecode": {
    "object": "0x608060405234801561001057600080fd5b50600160d2556132da806100256000396000f3fe6080604052600436106101e35760003560e01c80638da5cb5b11610102578063d16544f011610095578063f2fde38b11610064578063f2fde38b146105a4578063f9ecd01e146105c4578063fabc1cbc146105ff578063ffea632b1461061f57600080fd5b8063d16544f01461052e578063dfb0b12b1461054e578063ef0ba5d01461056e578063f26ee9d01461058e57600080fd5b8063b1538706116100d1578063b1538706146104ba578063c763e5a1146104cf578063c87c2224146104f6578063ca9b21ae146104fe57600080fd5b80638da5cb5b1461042c5780639d54f4191461044a578063a555980b1461046a578063af26c6951461049a57600080fd5b80635ac86ab71161017a57806371c544611161014957806371c54461146103a457806379e041f2146103c95780637fd4f845146103f6578063886f11951461040c57600080fd5b80635ac86ab71461031a5780635c975abb1461035a57806361bc221a14610379578063715018a61461038f57600080fd5b80631878d1f1116101b65780631878d1f11461026a57806347e7ef241461029c5780634f48eedf146102bc578063595c6a671461030557600080fd5b806301ef6966146101e857806308f42d401461020a57806310d67a2f1461022a578063136439dd1461024a575b600080fd5b3480156101f457600080fd5b50610208610203366004612a0d565b61063f565b005b34801561021657600080fd5b50610208610225366004612a68565b61084c565b34801561023657600080fd5b50610208610245366004612ab5565b610a15565b34801561025657600080fd5b50610208610265366004612ad2565b610ac8565b34801561027657600080fd5b5061027f600181565b6040516001600160a01b0390911681526020015b60405180910390f35b3480156102a857600080fd5b506102086102b7366004612aeb565b610c07565b3480156102c857600080fd5b506102f06102d7366004612ad2565b609d602052600090815260409020805460019091015482565b60408051928352602083019190915201610293565b34801561031157600080fd5b50610208610c62565b34801561032657600080fd5b5061034a610335366004612b17565b606654600160ff9092169190911b9081161490565b6040519015158152602001610293565b34801561036657600080fd5b506066545b604051908152602001610293565b34801561038557600080fd5b5061036b60975481565b34801561039b57600080fd5b50610208610d29565b3480156103b057600080fd5b50609a5461027f9061010090046001600160a01b031681565b3480156103d557600080fd5b506103e96103e4366004612b3a565b610d3d565b6040516102939190612c10565b34801561040257600080fd5b5061036b60985481565b34801561041857600080fd5b5060655461027f906001600160a01b031681565b34801561043857600080fd5b506033546001600160a01b031661027f565b34801561045657600080fd5b50610208610465366004612ab5565b6110ea565b34801561047657600080fd5b5061034a610485366004612ad2565b609e6020526000908152604090205460ff1681565b3480156104a657600080fd5b5061036b6104b5366004612ce3565b6111e8565b3480156104c657600080fd5b506103e9611239565b3480156104db57600080fd5b50609a546104e99060ff1681565b6040516102939190612d52565b610208611284565b34801561050a57600080fd5b5061051e610519366004612ad2565b61144b565b6040516102939493929190612d65565b34801561053a57600080fd5b50610208610549366004612aeb565b6114bd565b34801561055a57600080fd5b50610208610569366004612a0d565b6116e7565b34801561057a57600080fd5b5061036b610589366004612d8e565b6118bb565b34801561059a57600080fd5b5061036b60995481565b3480156105b057600080fd5b506102086105bf366004612ab5565b6119f7565b3480156105d057600080fd5b506105e46105df366004612ad2565b611a6d565b60408051825181526020928301519281019290925201610293565b34801561060b57600080fd5b5061020861061a366004612ad2565b611be1565b34801561062b57600080fd5b5061020861063a366004612e2b565b611d3d565b606654156106685760405162461bcd60e51b815260040161065f90612e87565b60405180910390fd5b600260d254141561068b5760405162461bcd60e51b815260040161065f90612ebe565b600260d2556000838152609d60209081526040918290208251808401909352805480845260019091015491830191909152158015906106cd5750602081015115155b61070f5760405162461bcd60e51b8152602060048201526013602482015272155b9adb9bdddb881b595c9adb19481c9bdbdd606a1b604482015260640161065f565b6000856040516020016107229190612f16565b60408051601f198184030181529181528151602092830120888301356000908152609e90935291205490915060ff16156107925760405162461bcd60e51b8152602060048201526011602482015270105b1c9958591e481c1c9bd8d95cdcd959607a1b604482015260640161065f565b815160208301516000916107a591612f5e565b6107b0906001612f75565b83519091506000906107c79060208a013590612f5e565b9050866107d784838989876111e8565b146108145760405162461bcd60e51b815260206004820152600d60248201526c24b73b30b634b210383937b7b360991b604482015260640161065f565b61081d88611eb6565b505050506020938401356000908152609e90945250506040909120805460ff1916600190811790915560d25550565b6066541561086c5760405162461bcd60e51b815260040161065f90612e87565b609a5461010090046001600160a01b031633146108bb5760405162461bcd60e51b815260206004820152600d60248201526c2737ba103a34329037bbb732b960991b604482015260640161065f565b6099548160200135116109105760405162461bcd60e51b815260206004820152601960248201527f557064617465206272696e6773206e6f206e6577206461746100000000000000604482015260640161065f565b60995461091f60018335612f5e565b111561096d5760405162461bcd60e51b815260206004820152601760248201527f50726576696f757320757064617465206d697373696e67000000000000000000604482015260640161065f565b8035602082013510156109b25760405162461bcd60e51b815260206004820152600d60248201526c496e76616c69642072616e676560981b604482015260640161065f565b609f8054600181019091557f0bc14066c33013fe88f66e314e4cf150b0b2d4d6451a1a51dbbd1c27cd11de28018290556000828152609d602052604090208190610a09828281358155602082013560018201555050565b50506020013560995550565b606560009054906101000a90046001600160a01b03166001600160a01b031663eab66d7a6040518163ffffffff1660e01b8152600401602060405180830381865afa158015610a68573d6000803e3d6000fd5b505050506040513d601f19601f82011682018060405250810190610a8c9190612f8d565b6001600160a01b0316336001600160a01b031614610abc5760405162461bcd60e51b815260040161065f90612faa565b610ac581612008565b50565b60655460405163237dfb4760e11b81523360048201526001600160a01b03909116906346fbf68e90602401602060405180830381865afa158015610b10573d6000803e3d6000fd5b505050506040513d601f19601f82011682018060405250810190610b349190612ff4565b610b505760405162461bcd60e51b815260040161065f90613016565b60665481811614610bc95760405162461bcd60e51b815260206004820152603860248201527f5061757361626c652e70617573653a20696e76616c696420617474656d70742060448201527f746f20756e70617573652066756e6374696f6e616c6974790000000000000000606482015260840161065f565b606681905560405181815233907fab40a374bc51de372200a8bc981af8c9ecdc08dfdaef0bb6e09f88f3c616ef3d906020015b60405180910390a250565b60665415610c275760405162461bcd60e51b815260040161065f90612e87565b600260d2541415610c4a5760405162461bcd60e51b815260040161065f90612ebe565b600260d255610c5982826114bd565b5050600160d255565b60655460405163237dfb4760e11b81523360048201526001600160a01b03909116906346fbf68e90602401602060405180830381865afa158015610caa573d6000803e3d6000fd5b505050506040513d601f19601f82011682018060405250810190610cce9190612ff4565b610cea5760405162461bcd60e51b815260040161065f90613016565b600019606681905560405190815233907fab40a374bc51de372200a8bc981af8c9ecdc08dfdaef0bb6e09f88f3c616ef3d9060200160405180910390a2565b610d316120ff565b610d3b6000612159565b565b610d626040805160608101909152806000815260200160608152602001606081525090565b610d876040805160608101909152806000815260200160608152602001606081525090565b609a54819060ff166001811115610da057610da0612b5c565b90816001811115610db357610db3612b5c565b905250600080855b858111610e22576000818152609c602052604090206001015415610deb5782610de38161305e565b935050610e10565b6000818152609b602052604090206001015415610e105781610e0c8161305e565b9250505b80610e1a8161305e565b915050610dbb565b508167ffffffffffffffff811115610e3c57610e3c613079565b604051908082528060200260200182016040528015610ea257816020015b6040805160e081018252600060a0820181815260c08301829052825260208083018290529282018190526060820181905260808201528252600019909201910181610e5a5790505b5060208401528067ffffffffffffffff811115610ec157610ec1613079565b604051908082528060200260200182016040528015610f2057816020015b6040805160c08101825260006080820181815260a083018290528252602080830182905292820181905260608201528252600019909201910181610edf5790505b506040840152506000905080855b8581116110df576000818152609c60205260409020600101541561100d576000818152609c602052604090819020815160e081019092528054829060a08201908390829060ff166001811115610f8657610f86612b5c565b6001811115610f9757610f97612b5c565b81526001919091015460209182015290825260028301546001600160a01b039081168383015260038401541660408301526004830154606083015260059092015460809091015285015184610feb8161305e565b955081518110610ffd57610ffd61308f565b60200260200101819052506110cd565b6000818152609b6020526040902060020154156110c8576000818152609b602052604090819020815160c081019092528054829060808201908390829060ff16600181111561105e5761105e612b5c565b600181111561106f5761106f612b5c565b815260019190910154602091820152908252600283015490820152600382015460ff161515604080830191909152600490920154606090910152850151836110b68161305e565b945081518110610ffd57610ffd61308f565b6110df565b806110d78161305e565b915050610f2e565b509195945050505050565b6066541561110a5760405162461bcd60e51b815260040161065f90612e87565b609a5461010090046001600160a01b031633146111885760405162461bcd60e51b815260206004820152603660248201527f4f6e6c792061637469766520757064617465722063616e206d6f7665207269676044820152751a1d1cc81d1bc818481b995dc818481858d8dbdd5b9d60521b606482015260840161065f565b609a8054610100600160a81b0319166101006001600160a01b038481168202929092179283905560405192041681527f1b0f2f500df596b42b73e80dbec6a1fb570f01978a586723f988a5fc54d773a1906020015b60405180910390a150565b600080825b63ffffffff811615611218576112046002826130bb565b90506112116001836130de565b91506111ed565b61122d82888a8989600061058960018c613106565b98975050505050505050565b61125e6040805160608101909152806000815260200160608152602001606081525090565b61127f60985460016112709190612f75565b60016097546103e49190612f5e565b905090565b606654156112a45760405162461bcd60e51b815260040161065f90612e87565b600034116112f45760405162461bcd60e51b815260206004820181905260248201527f6d73672076616c7565206d757374206265206772656174657220746861742030604482015260640161065f565b6040805160e081019091523390349042906000908060a0810180848152602001609760008154809291906113279061305e565b90915550905281526001600160a01b0386166020808301919091526001604080840182905260608401889052608090930186905283518201516000908152609c9092529190208251805182549495508594929391928492839160ff191690838181111561139657611396612b5c565b0217905550602091820151600191820155838201516002840180546001600160a01b03199081166001600160a01b039384161790915560408087015160038701805490931690841617909155606080870151600487015560809687015160059096019590955586518401518151908152918a1693820193909352918201529081018590527fe28491c2da97a9923c92f6590a040dfc143fe636e8545356cdab0a796e1acefa910160405180910390a150505050565b609b6020526000908152604090819020815180830190925280549091908290829060ff16600181111561148057611480612b5c565b600181111561149157611491612b5c565b815260019190910154602090910152600282015460038301546004909301549192909160ff9091169084565b606654156114dd5760405162461bcd60e51b815260040161065f90612e87565b600260d25414156115005760405162461bcd60e51b815260040161065f90612ebe565b600260d2556001600160a01b0382166115535760405162461bcd60e51b8152602060048201526015602482015274496e76616c696420746f6b656e206164647265737360581b604482015260640161065f565b600081116115735760405162461bcd60e51b815260040161065f9061312b565b338261158a6001600160a01b0382168330866121ab565b6040805160e0810190915242906000908060a0810180848152602001609760008154809291906115b99061305e565b90915550905281526001600160a01b0380871660208084019190915290891660408084019190915260608301899052608090920185905282518101516000908152609c909152208151805182549394508493839190829060ff19166001838181111561162757611627612b5c565b021790555060209182015160019190910155828101516002830180546001600160a01b03199081166001600160a01b03938416179091556040808601516003860180549093169084161790915560608086015160048601556080958601516005909501949094558551830151815190815289831693810193909352908a16908201529081018790527fe28491c2da97a9923c92f6590a040dfc143fe636e8545356cdab0a796e1acefa910160405180910390a15050600160d25550505050565b606654156117075760405162461bcd60e51b815260040161065f90612e87565b600260d254141561172a5760405162461bcd60e51b815260040161065f90612ebe565b600260d2556000838152609d602090815260409182902082518084019093528054808452600190910154918301919091521580159061176c5750602081015115155b6117ae5760405162461bcd60e51b8152602060048201526013602482015272155b9adb9bdddb881b595c9adb19481c9bdbdd606a1b604482015260640161065f565b6000856040516020016117c19190613160565b60408051601f198184030181529181528151602092830120888301356000908152609e90935291205490915060ff16156118315760405162461bcd60e51b8152602060048201526011602482015270105b1c9958591e481c1c9bd8d95cdcd959607a1b604482015260640161065f565b8151602083015160009161184491612f5e565b61184f906001612f75565b83519091506000906118659060208a0135612f5e565b90508661187584838989876111e8565b146118b25760405162461bcd60e51b815260206004820152600d60248201526c24b73b30b634b210383937b7b360991b604482015260640161065f565b61081d8861221c565b60006118c86002886131b2565b63ffffffff1661194d578163ffffffff168763ffffffff1614156118eb576119ab565b858585856118f8816131d5565b965063ffffffff1681811061190f5761190f61308f565b90506020020135604051602001611930929190918252602082015260400190565b6040516020818303038152906040528051906020012095506119ab565b848484611959816131d5565b955063ffffffff168181106119705761197061308f565b9050602002013586604051602001611992929190918252602082015260400190565b6040516020818303038152906040528051906020012095505b8763ffffffff16600114156119c15750846119ec565b6119e96119cf60018a613106565b6119da60028a6130bb565b8888888861058960028a6130bb565b90505b979650505050505050565b6119ff6120ff565b6001600160a01b038116611a645760405162461bcd60e51b815260206004820152602660248201527f4f776e61626c653a206e6577206f776e657220697320746865207a65726f206160448201526564647265737360d01b606482015260840161065f565b610ac581612159565b6040805180820190915260008082526020820152609954821115611ac85760405162461bcd60e51b8152602060048201526012602482015271125b9d985b1a59081c995c5d595cdd081a5960721b604482015260640161065f565b609f54611ae8575050604080518082019091526000808252602082015290565b609f54600090611afa90600190612f5e565b90505b609d6000609f8381548110611b1457611b1461308f565b90600052602060002001548152602001908152602001600020600001548310158015611b735750609d6000609f8381548110611b5257611b5261308f565b90600052602060002001548152602001908152602001600020600101548311155b15611bcf57609d6000609f8381548110611b8f57611b8f61308f565b9060005260206000200154815260200190815260200160002060405180604001604052908160008201548152602001600182015481525050915050919050565b80611bd9816131f9565b915050611afd565b606560009054906101000a90046001600160a01b03166001600160a01b031663eab66d7a6040518163ffffffff1660e01b8152600401602060405180830381865afa158015611c34573d6000803e3d6000fd5b505050506040513d601f19601f82011682018060405250810190611c589190612f8d565b6001600160a01b0316336001600160a01b031614611c885760405162461bcd60e51b815260040161065f90612faa565b606654198119606654191614611d065760405162461bcd60e51b815260206004820152603860248201527f5061757361626c652e756e70617573653a20696e76616c696420617474656d7060448201527f7420746f2070617573652066756e6374696f6e616c6974790000000000000000606482015260840161065f565b606681905560405181815233907f3582d1828e26bf56bd801502bc021ac0bc8afb57c826e4986b45593c8fad389c90602001610bfc565b600054610100900460ff1615808015611d5d5750600054600160ff909116105b80611d775750303b158015611d77575060005460ff166001145b611dda5760405162461bcd60e51b815260206004820152602e60248201527f496e697469616c697a61626c653a20636f6e747261637420697320616c72656160448201526d191e481a5b9a5d1a585b1a5e995960921b606482015260840161065f565b6000805460ff191660011790558015611dfd576000805461ff0019166101001790555b611e088560006122b5565b611e1184612159565b6000609881905560016097819055609991909155609a8054859260ff19909116908381811115611e4357611e43612b5c565b0217905550609a8054610100600160a81b0319166101006001600160a01b038516021790558015611eaf576000805461ff0019169055604051600181527f7f26b83ff96e1f2b6a682f133852f6798a09c465da95921460cefb3847402498906020015b60405180910390a15b5050505050565b6000611eca60408301356060840135610d3d565b9050600081604051602001611edf9190612c10565b60408051601f19818403018152828252805160209091012060c083019091529150429060009080608081018084815260200160976000815480929190611f249061305e565b9091555090528152602087810135818301526080880135861415604080840191909152606090920185905282518101516000908152609b909152208151805182549394508493839190829060ff191660018381811115611f8657611f86612b5c565b021790555060209182015160019091015582810151600283015560408084015160038401805491151560ff199092169190911790556060909301516004909201919091558201518282015191517fd16f202ac5905ff5d1851f4805ffe56d1212db32fa989881d0044b9cf0f7277692611ea69282521515602082015260400190565b6001600160a01b0381166120965760405162461bcd60e51b815260206004820152604960248201527f5061757361626c652e5f73657450617573657252656769737472793a206e657760448201527f50617573657252656769737472792063616e6e6f7420626520746865207a65726064820152686f206164647265737360b81b608482015260a40161065f565b606554604080516001600160a01b03928316815291831660208301527f6e9fcd539896fca60e8b0f01dd580233e48a6b0f7df013b89ba7f565869acdb6910160405180910390a1606580546001600160a01b0319166001600160a01b0392909216919091179055565b6033546001600160a01b03163314610d3b5760405162461bcd60e51b815260206004820181905260248201527f4f776e61626c653a2063616c6c6572206973206e6f7420746865206f776e6572604482015260640161065f565b603380546001600160a01b038381166001600160a01b0319831681179093556040519116919082907f8be0079c531659141344cd1fd0a4f28419497f9722a3daafe3b4186f6b6457e090600090a35050565b6040516001600160a01b03808516602483015283166044820152606481018290526122169085906323b872dd60e01b906084015b60408051601f198184030181529190526020810180516001600160e01b03166001600160e01b03199093169290921790915261239f565b50505050565b600161222e6080830160608401612ab5565b6001600160a01b0316141561224b5761224681612476565b612254565b6122548161255e565b7f935f26d94be31907080aa78b3e6e2ac6d48a072af096c20268388621bbc1178981600001602001358260405160200161228e9190613160565b60408051601f198184030181528282528051602091820120938352820192909252016111dd565b6065546001600160a01b03161580156122d657506001600160a01b03821615155b6123585760405162461bcd60e51b815260206004820152604760248201527f5061757361626c652e5f696e697469616c697a655061757365723a205f696e6960448201527f7469616c697a6550617573657228292063616e206f6e6c792062652063616c6c6064820152666564206f6e636560c81b608482015260a40161065f565b606681905560405181815233907fab40a374bc51de372200a8bc981af8c9ecdc08dfdaef0bb6e09f88f3c616ef3d9060200160405180910390a261239b82612008565b5050565b60006123f4826040518060400160405280602081526020017f5361666545524332303a206c6f772d6c6576656c2063616c6c206661696c6564815250856001600160a01b03166126ed9092919063ffffffff16565b80519091501561247157808060200190518101906124129190612ff4565b6124715760405162461bcd60e51b815260206004820152602a60248201527f5361666545524332303a204552433230206f7065726174696f6e20646964206e6044820152691bdd081cdd58d8d9595960b21b606482015260840161065f565b505050565b6080810135303110156124cb5760405162461bcd60e51b815260206004820152601c60248201527f4e6f7420656e6f7567682066756e647320696e20636f6e747261637400000000604482015260640161065f565b60008160800135116124ef5760405162461bcd60e51b815260040161065f9061312b565b61250c6125026060830160408401612ab5565b8260800135612706565b7fe0495355c1e04c512584521854d222d239a4b782b39ac8a7e835a34f5ec7c1e161253d6060830160408401612ab5565b604080516001600160a01b03909216825260808401356020830152016111dd565b60006125706080830160608401612ab5565b6040516370a0823160e01b81523060048201529091506080830135906001600160a01b038316906370a0823190602401602060405180830381865afa1580156125bd573d6000803e3d6000fd5b505050506040513d601f19601f820116820180604052508101906125e19190613210565b101561262f5760405162461bcd60e51b815260206004820152601c60248201527f4e6f7420656e6f7567682066756e647320696e20636f6e747261637400000000604482015260640161065f565b60008260800135116126535760405162461bcd60e51b815260040161065f9061312b565b61267b6126666060840160408501612ab5565b6001600160a01b03831690608085013561281f565b7ee763f7778b8ceef7270c89b7d1df1008b0e482da39c43831417733af96fb0d6126ab6060840160408501612ab5565b6126bb6080850160608601612ab5565b604080516001600160a01b03938416815292909116602083015260808501359082015260600160405180910390a15050565b60606126fc848460008561284f565b90505b9392505050565b804710156127565760405162461bcd60e51b815260206004820152601d60248201527f416464726573733a20696e73756666696369656e742062616c616e6365000000604482015260640161065f565b6000826001600160a01b03168260405160006040518083038185875af1925050503d80600081146127a3576040519150601f19603f3d011682016040523d82523d6000602084013e6127a8565b606091505b50509050806124715760405162461bcd60e51b815260206004820152603a60248201527f416464726573733a20756e61626c6520746f2073656e642076616c75652c207260448201527f6563697069656e74206d61792068617665207265766572746564000000000000606482015260840161065f565b6040516001600160a01b03831660248201526044810182905261247190849063a9059cbb60e01b906064016121df565b6060824710156128b05760405162461bcd60e51b815260206004820152602660248201527f416464726573733a20696e73756666696369656e742062616c616e636520666f6044820152651c8818d85b1b60d21b606482015260840161065f565b6001600160a01b0385163b6129075760405162461bcd60e51b815260206004820152601d60248201527f416464726573733a2063616c6c20746f206e6f6e2d636f6e7472616374000000604482015260640161065f565b600080866001600160a01b031685876040516129239190613255565b60006040518083038185875af1925050503d8060008114612960576040519150601f19603f3d011682016040523d82523d6000602084013e612965565b606091505b50915091506119ec8282866060831561297f5750816126ff565b82511561298f5782518084602001fd5b8160405162461bcd60e51b815260040161065f9190613271565b600060a082840312156129bb57600080fd5b50919050565b60008083601f8401126129d357600080fd5b50813567ffffffffffffffff8111156129eb57600080fd5b6020830191508360208260051b8501011115612a0657600080fd5b9250929050565b60008060008060e08587031215612a2357600080fd5b612a2d86866129a9565b935060a0850135925060c085013567ffffffffffffffff811115612a5057600080fd5b612a5c878288016129c1565b95989497509550505050565b6000808284036060811215612a7c57600080fd5b833592506040601f1982011215612a9257600080fd5b506020830190509250929050565b6001600160a01b0381168114610ac557600080fd5b600060208284031215612ac757600080fd5b81356126ff81612aa0565b600060208284031215612ae457600080fd5b5035919050565b60008060408385031215612afe57600080fd5b8235612b0981612aa0565b946020939093013593505050565b600060208284031215612b2957600080fd5b813560ff811681146126ff57600080fd5b60008060408385031215612b4d57600080fd5b50508035926020909101359150565b634e487b7160e01b600052602160045260246000fd5b60028110610ac557634e487b7160e01b600052602160045260246000fd5b8051612b9b81612b72565b8252602090810151910152565b600081518084526020808501945080840160005b83811015612c05578151612bd1888251612b90565b8084015160408981019190915281015115156060808a01919091520151608088015260a09096019590820190600101612bbc565b509495945050505050565b6000602080835260808084018551612c2781612b72565b85840152858301516060604080880182905282519384905260a093928601928489019060005b81811015612c9f578551612c62848251612b90565b808a01516001600160a01b03908116858701528582015116868501528581015189850152880151878401529488019460c090920191600101612c4d565b505089820151898203601f1901848b01529650612cbc8188612ba8565b9a9950505050505050505050565b803563ffffffff81168114612cde57600080fd5b919050565b600080600080600060808688031215612cfb57600080fd5b85359450612d0b60208701612cca565b9350604086013567ffffffffffffffff811115612d2757600080fd5b612d33888289016129c1565b9094509250612d46905060608701612cca565b90509295509295909350565b60208101612d5f83612b72565b91905290565b60a08101612d738287612b90565b60408201949094529115156060830152608090910152919050565b600080600080600080600060c0888a031215612da957600080fd5b612db288612cca565b9650612dc060208901612cca565b955060408801359450606088013567ffffffffffffffff811115612de357600080fd5b612def8a828b016129c1565b9095509350612e02905060808901612cca565b9150612e1060a08901612cca565b905092959891949750929550565b60028110610ac557600080fd5b60008060008060808587031215612e4157600080fd5b8435612e4c81612aa0565b93506020850135612e5c81612aa0565b92506040850135612e6c81612e1e565b91506060850135612e7c81612aa0565b939692955090935050565b6020808252601c908201527f5061757361626c653a20636f6e74726163742069732070617573656400000000604082015260600190565b6020808252601f908201527f5265656e7472616e637947756172643a207265656e7472616e742063616c6c00604082015260600190565b8035612f0081612e1e565b612f0981612b72565b8252602090810135910152565b60a08101612f248284612ef5565b60408301356040830152606083013560608301526080830135608083015292915050565b634e487b7160e01b600052601160045260246000fd5b600082821015612f7057612f70612f48565b500390565b60008219821115612f8857612f88612f48565b500190565b600060208284031215612f9f57600080fd5b81516126ff81612aa0565b6020808252602a908201527f6d73672e73656e646572206973206e6f74207065726d697373696f6e6564206160408201526939903ab73830bab9b2b960b11b606082015260800190565b60006020828403121561300657600080fd5b815180151581146126ff57600080fd5b60208082526028908201527f6d73672e73656e646572206973206e6f74207065726d697373696f6e6564206160408201526739903830bab9b2b960c11b606082015260800190565b600060001982141561307257613072612f48565b5060010190565b634e487b7160e01b600052604160045260246000fd5b634e487b7160e01b600052603260045260246000fd5b634e487b7160e01b600052601260045260246000fd5b600063ffffffff808416806130d2576130d26130a5565b92169190910492915050565b600063ffffffff8083168185168083038211156130fd576130fd612f48565b01949350505050565b600063ffffffff8381169083168181101561312357613123612f48565b039392505050565b6020808252818101527f416d6f756e74206d7573742062652067726561746572207468616e207a65726f604082015260600190565b60a0810161316e8284612ef5565b604083013561317c81612aa0565b6001600160a01b03908116604084015260608401359061319b82612aa0565b166060830152608092830135929091019190915290565b600063ffffffff808416806131c9576131c96130a5565b92169190910692915050565b600063ffffffff808316818114156131ef576131ef612f48565b6001019392505050565b60008161320857613208612f48565b506000190190565b60006020828403121561322257600080fd5b5051919050565b60005b8381101561324457818101518382015260200161322c565b838111156122165750506000910152565b60008251613267818460208701613229565b9190910192915050565b6020815260008251806020840152613290816040850160208701613229565b601f01601f1916919091016040019291505056fea2646970667358221220ac916d00d21219f97d0673ff30b090329e70ff90890ac6ed5b9439f3954ccf5064736f6c634300080c0033",
    "linkReferences": {}
  },
  "methodIdentifiers": {
    "ETH_TOKEN_ADDRESS()": "1878d1f1",
    "calculate_root(bytes32,uint32,bytes32[],uint32)": "af26c695",
    "calculate_root_impl(uint32,uint32,bytes32,bytes32[],uint32,uint32)": "ef0ba5d0",
    "cancelResolutions(uint256)": "ca9b21ae",
    "chain()": "c763e5a1",
    "close_cancel(((uint8,uint256),(uint256,uint256),bytes32),bytes32,bytes32[])": "01ef6966",
    "close_withdrawal(((uint8,uint256),address,address,uint256),bytes32,bytes32[])": "dfb0b12b",
    "counter()": "61bc221a",
    "deposit(address,uint256)": "47e7ef24",
    "deposit_erc20(address,uint256)": "d16544f0",
    "deposit_native()": "c87c2224",
    "find_l2_batch(uint256)": "f9ecd01e",
    "getPendingRequests(uint256,uint256)": "79e041f2",
    "getUpdateForL2()": "b1538706",
    "initialize(address,address,uint8,address)": "ffea632b",
    "lastProcessedUpdate_origin_l1()": "7fd4f845",
    "lastProcessedUpdate_origin_l2()": "f26ee9d0",
    "merkleRootRange(bytes32)": "4f48eedf",
    "owner()": "8da5cb5b",
    "pause(uint256)": "136439dd",
    "pauseAll()": "595c6a67",
    "paused()": "5c975abb",
    "paused(uint8)": "5ac86ab7",
    "pauserRegistry()": "886f1195",
    "processedL2Requests(uint256)": "a555980b",
    "renounceOwnership()": "715018a6",
    "setPauserRegistry(address)": "10d67a2f",
    "setUpdater(address)": "9d54f419",
    "transferOwnership(address)": "f2fde38b",
    "unpause(uint256)": "fabc1cbc",
    "update_l1_from_l2(bytes32,(uint256,uint256))": "08f42d40",
    "updaterAccount()": "71c54461"
  },
  "id": 129
}