{
  "abi": [
    {
      "anonymous": false,
      "inputs": [
        {
          "indexed": false,
          "internalType": "uint256",
          "name": "requestId",
          "type": "uint256"
        },
        {
          "indexed": false,
          "internalType": "address",
          "name": "depositRecipient",
          "type": "address"
        },
        {
          "indexed": false,
          "internalType": "address",
          "name": "tokenAddress",
          "type": "address"
        },
        {
          "indexed": false,
          "internalType": "uint256",
          "name": "amount",
          "type": "uint256"
        },
        {
          "indexed": false,
          "internalType": "uint256",
          "name": "ferryTip",
          "type": "uint256"
        }
      ],
      "name": "DepositAcceptedIntoQueue",
      "type": "event"
    },
    {
      "anonymous": false,
      "inputs": [
        {
          "indexed": false,
          "internalType": "uint256",
          "name": "requestId",
          "type": "uint256"
        },
        {
          "indexed": false,
          "internalType": "bool",
          "name": "cancelJustified",
          "type": "bool"
        }
      ],
      "name": "DisputeResolutionAcceptedIntoQueue",
      "type": "event"
    },
    {
      "anonymous": false,
      "inputs": [
        {
          "indexed": false,
          "internalType": "address",
          "name": "sender",
          "type": "address"
        },
        {
          "indexed": false,
          "internalType": "address",
          "name": "token_address",
          "type": "address"
        },
        {
          "indexed": false,
          "internalType": "uint256",
          "name": "amount",
          "type": "uint256"
        }
      ],
      "name": "ERC20TokensWithdrawn",
      "type": "event"
    },
    {
      "anonymous": false,
      "inputs": [
        {
          "indexed": false,
          "internalType": "uint256",
          "name": "requestId",
          "type": "uint256"
        },
        {
          "indexed": false,
          "internalType": "uint256",
          "name": "originDepositId",
          "type": "uint256"
        },
        {
          "indexed": false,
          "internalType": "bytes32",
          "name": "failedDespotiResolutionHash",
          "type": "bytes32"
        }
      ],
      "name": "FailedDepositResolutionClosed",
      "type": "event"
    },
    {
      "anonymous": false,
      "inputs": [
        {
          "indexed": false,
          "internalType": "uint256",
          "name": "requestId",
          "type": "uint256"
        },
        {
          "indexed": false,
          "internalType": "bytes32",
          "name": "withdrawalHash",
          "type": "bytes32"
        }
      ],
      "name": "FerriedWithdrawalClosed",
      "type": "event"
    },
    {
      "anonymous": false,
      "inputs": [
        {
          "indexed": false,
          "internalType": "uint8",
          "name": "version",
          "type": "uint8"
        }
      ],
      "name": "Initialized",
      "type": "event"
    },
    {
      "anonymous": false,
      "inputs": [
        {
          "indexed": false,
          "internalType": "bytes32",
          "name": "root",
          "type": "bytes32"
        },
        {
          "components": [
            {
              "internalType": "uint256",
              "name": "start",
              "type": "uint256"
            },
            {
              "internalType": "uint256",
              "name": "end",
              "type": "uint256"
            }
          ],
          "indexed": false,
          "internalType": "struct IRolldownPrimitives.Range",
          "name": "range",
          "type": "tuple"
        }
      ],
      "name": "L2UpdateAccepted",
      "type": "event"
    },
    {
      "anonymous": false,
      "inputs": [
        {
          "indexed": false,
          "internalType": "address",
          "name": "sender",
          "type": "address"
        },
        {
          "indexed": false,
          "internalType": "uint256",
          "name": "amount",
          "type": "uint256"
        }
      ],
      "name": "NativeTokensWithdrawn",
      "type": "event"
    },
    {
      "anonymous": false,
      "inputs": [
        {
          "indexed": false,
          "internalType": "address",
          "name": "updater",
          "type": "address"
        }
      ],
      "name": "NewUpdaterSet",
      "type": "event"
    },
    {
      "anonymous": false,
      "inputs": [
        {
          "indexed": true,
          "internalType": "address",
          "name": "previousOwner",
          "type": "address"
        },
        {
          "indexed": true,
          "internalType": "address",
          "name": "newOwner",
          "type": "address"
        }
      ],
      "name": "OwnershipTransferred",
      "type": "event"
    },
    {
      "anonymous": false,
      "inputs": [
        {
          "indexed": true,
          "internalType": "address",
          "name": "account",
          "type": "address"
        },
        {
          "indexed": false,
          "internalType": "uint256",
          "name": "newPausedStatus",
          "type": "uint256"
        }
      ],
      "name": "Paused",
      "type": "event"
    },
    {
      "anonymous": false,
      "inputs": [
        {
          "indexed": false,
          "internalType": "contract IPauserRegistry",
          "name": "pauserRegistry",
          "type": "address"
        },
        {
          "indexed": false,
          "internalType": "contract IPauserRegistry",
          "name": "newPauserRegistry",
          "type": "address"
        }
      ],
      "name": "PauserRegistrySet",
      "type": "event"
    },
    {
      "anonymous": false,
      "inputs": [
        {
          "indexed": true,
          "internalType": "address",
          "name": "account",
          "type": "address"
        },
        {
          "indexed": false,
          "internalType": "uint256",
          "name": "newPausedStatus",
          "type": "uint256"
        }
      ],
      "name": "Unpaused",
      "type": "event"
    },
    {
      "anonymous": false,
      "inputs": [
        {
          "indexed": false,
          "internalType": "uint256",
          "name": "requestId",
          "type": "uint256"
        },
        {
          "indexed": false,
          "internalType": "bytes32",
          "name": "withdrawalHash",
          "type": "bytes32"
        }
      ],
      "name": "WithdrawalClosed",
      "type": "event"
    },
    {
      "anonymous": false,
      "inputs": [
        {
          "indexed": false,
          "internalType": "uint256",
          "name": "requestId",
          "type": "uint256"
        },
        {
          "indexed": false,
          "internalType": "uint256",
          "name": "amount",
          "type": "uint256"
        },
        {
          "indexed": false,
          "internalType": "address",
          "name": "recipient",
          "type": "address"
        },
        {
          "indexed": false,
          "internalType": "address",
          "name": "ferry",
          "type": "address"
        },
        {
          "indexed": false,
          "internalType": "bytes32",
          "name": "withdrawalHash",
          "type": "bytes32"
        }
      ],
      "name": "WithdrawalFerried",
      "type": "event"
    },
    {
      "inputs": [],
      "name": "CLOSED",
      "outputs": [
        {
          "internalType": "address",
          "name": "",
          "type": "address"
        }
      ],
      "stateMutability": "view",
      "type": "function"
    },
    {
      "inputs": [],
      "name": "NATIVE_TOKEN_ADDRESS",
      "outputs": [
        {
          "internalType": "address",
          "name": "",
          "type": "address"
        }
      ],
      "stateMutability": "view",
      "type": "function"
    },
    {
      "inputs": [
        {
          "internalType": "bytes32",
          "name": "leave_hash",
          "type": "bytes32"
        },
        {
          "internalType": "uint32",
          "name": "leave_idx",
          "type": "uint32"
        },
        {
          "internalType": "bytes32[]",
          "name": "proof",
          "type": "bytes32[]"
        },
        {
          "internalType": "uint32",
          "name": "leaves_count",
          "type": "uint32"
        }
      ],
      "name": "calculate_root",
      "outputs": [
        {
          "internalType": "bytes32",
          "name": "",
          "type": "bytes32"
        }
      ],
      "stateMutability": "pure",
      "type": "function"
    },
    {
      "inputs": [
        {
          "internalType": "uint32",
          "name": "level",
          "type": "uint32"
        },
        {
          "internalType": "uint32",
          "name": "pos",
          "type": "uint32"
        },
        {
          "internalType": "bytes32",
          "name": "hash",
          "type": "bytes32"
        },
        {
          "internalType": "bytes32[]",
          "name": "proofs",
          "type": "bytes32[]"
        },
        {
          "internalType": "uint32",
          "name": "proof_idx",
          "type": "uint32"
        },
        {
          "internalType": "uint32",
          "name": "max_index",
          "type": "uint32"
        }
      ],
      "name": "calculate_root_impl",
      "outputs": [
        {
          "internalType": "bytes32",
          "name": "",
          "type": "bytes32"
        }
      ],
      "stateMutability": "pure",
      "type": "function"
    },
    {
      "inputs": [
        {
          "internalType": "uint256",
          "name": "",
          "type": "uint256"
        }
      ],
      "name": "cancelResolutions",
      "outputs": [
        {
          "components": [
            {
              "internalType": "enum IRolldownPrimitives.Origin",
              "name": "origin",
              "type": "uint8"
            },
            {
              "internalType": "uint256",
              "name": "id",
              "type": "uint256"
            }
          ],
          "internalType": "struct IRolldownPrimitives.RequestId",
          "name": "requestId",
          "type": "tuple"
        },
        {
          "internalType": "uint256",
          "name": "l2RequestId",
          "type": "uint256"
        },
        {
          "internalType": "bool",
          "name": "cancelJustified",
          "type": "bool"
        },
        {
          "internalType": "uint256",
          "name": "timeStamp",
          "type": "uint256"
        }
      ],
      "stateMutability": "view",
      "type": "function"
    },
    {
      "inputs": [],
      "name": "chain",
      "outputs": [
        {
          "internalType": "enum IRolldownPrimitives.ChainId",
          "name": "",
          "type": "uint8"
        }
      ],
      "stateMutability": "view",
      "type": "function"
    },
    {
      "inputs": [
        {
          "components": [
            {
              "components": [
                {
                  "internalType": "enum IRolldownPrimitives.Origin",
                  "name": "origin",
                  "type": "uint8"
                },
                {
                  "internalType": "uint256",
                  "name": "id",
                  "type": "uint256"
                }
              ],
              "internalType": "struct IRolldownPrimitives.RequestId",
              "name": "requestId",
              "type": "tuple"
            },
            {
              "components": [
                {
                  "internalType": "uint256",
                  "name": "start",
                  "type": "uint256"
                },
                {
                  "internalType": "uint256",
                  "name": "end",
                  "type": "uint256"
                }
              ],
              "internalType": "struct IRolldownPrimitives.Range",
              "name": "range",
              "type": "tuple"
            },
            {
              "internalType": "bytes32",
              "name": "hash",
              "type": "bytes32"
            }
          ],
          "internalType": "struct IRolldownPrimitives.Cancel",
          "name": "cancel",
          "type": "tuple"
        },
        {
          "internalType": "bytes32",
          "name": "merkle_root",
          "type": "bytes32"
        },
        {
          "internalType": "bytes32[]",
          "name": "proof",
          "type": "bytes32[]"
        }
      ],
      "name": "close_cancel",
      "outputs": [],
      "stateMutability": "nonpayable",
      "type": "function"
    },
    {
      "inputs": [
        {
          "components": [
            {
              "components": [
                {
                  "internalType": "enum IRolldownPrimitives.Origin",
                  "name": "origin",
                  "type": "uint8"
                },
                {
                  "internalType": "uint256",
                  "name": "id",
                  "type": "uint256"
                }
              ],
              "internalType": "struct IRolldownPrimitives.RequestId",
              "name": "requestId",
              "type": "tuple"
            },
            {
              "internalType": "uint256",
              "name": "originRequestId",
              "type": "uint256"
            },
            {
              "internalType": "address",
              "name": "ferry",
              "type": "address"
            }
          ],
          "internalType": "struct IRolldownPrimitives.FailedDepositResolution",
          "name": "failedDeposit",
          "type": "tuple"
        },
        {
          "internalType": "bytes32",
          "name": "merkle_root",
          "type": "bytes32"
        },
        {
          "internalType": "bytes32[]",
          "name": "proof",
          "type": "bytes32[]"
        }
      ],
      "name": "close_deposit_refund",
      "outputs": [],
      "stateMutability": "nonpayable",
      "type": "function"
    },
    {
      "inputs": [
        {
          "components": [
            {
              "components": [
                {
                  "internalType": "enum IRolldownPrimitives.Origin",
                  "name": "origin",
                  "type": "uint8"
                },
                {
                  "internalType": "uint256",
                  "name": "id",
                  "type": "uint256"
                }
              ],
              "internalType": "struct IRolldownPrimitives.RequestId",
              "name": "requestId",
              "type": "tuple"
            },
            {
              "internalType": "address",
              "name": "recipient",
              "type": "address"
            },
            {
              "internalType": "address",
              "name": "tokenAddress",
              "type": "address"
            },
            {
              "internalType": "uint256",
              "name": "amount",
              "type": "uint256"
            },
            {
              "internalType": "uint256",
              "name": "ferryTip",
              "type": "uint256"
            }
          ],
          "internalType": "struct IRolldownPrimitives.Withdrawal",
          "name": "withdrawal",
          "type": "tuple"
        },
        {
          "internalType": "bytes32",
          "name": "merkle_root",
          "type": "bytes32"
        },
        {
          "internalType": "bytes32[]",
          "name": "proof",
          "type": "bytes32[]"
        }
      ],
      "name": "close_withdrawal",
      "outputs": [],
      "stateMutability": "nonpayable",
      "type": "function"
    },
    {
      "inputs": [],
      "name": "counter",
      "outputs": [
        {
          "internalType": "uint256",
          "name": "",
          "type": "uint256"
        }
      ],
      "stateMutability": "view",
      "type": "function"
    },
    {
      "inputs": [
        {
          "internalType": "address",
          "name": "tokenAddress",
          "type": "address"
        },
        {
          "internalType": "uint256",
          "name": "amount",
          "type": "uint256"
        },
        {
          "internalType": "uint256",
          "name": "ferryTip",
          "type": "uint256"
        }
      ],
      "name": "deposit",
      "outputs": [],
      "stateMutability": "nonpayable",
      "type": "function"
    },
    {
      "inputs": [
        {
          "internalType": "address",
          "name": "tokenAddress",
          "type": "address"
        },
        {
          "internalType": "uint256",
          "name": "amount",
          "type": "uint256"
        }
      ],
      "name": "deposit",
      "outputs": [],
      "stateMutability": "nonpayable",
      "type": "function"
    },
    {
      "inputs": [
        {
          "internalType": "address",
          "name": "tokenAddress",
          "type": "address"
        },
        {
          "internalType": "uint256",
          "name": "amount",
          "type": "uint256"
        },
        {
          "internalType": "uint256",
          "name": "ferryTip",
          "type": "uint256"
        }
      ],
      "name": "deposit_erc20",
      "outputs": [],
      "stateMutability": "nonpayable",
      "type": "function"
    },
    {
      "inputs": [
        {
          "internalType": "address",
          "name": "tokenAddress",
          "type": "address"
        },
        {
          "internalType": "uint256",
          "name": "amount",
          "type": "uint256"
        }
      ],
      "name": "deposit_erc20",
      "outputs": [],
      "stateMutability": "nonpayable",
      "type": "function"
    },
    {
      "inputs": [],
      "name": "deposit_native",
      "outputs": [],
      "stateMutability": "payable",
      "type": "function"
    },
    {
      "inputs": [
        {
          "internalType": "uint256",
          "name": "ferryTip",
          "type": "uint256"
        }
      ],
      "name": "deposit_native",
      "outputs": [],
      "stateMutability": "payable",
      "type": "function"
    },
    {
      "inputs": [
        {
          "components": [
            {
              "components": [
                {
                  "internalType": "enum IRolldownPrimitives.Origin",
                  "name": "origin",
                  "type": "uint8"
                },
                {
                  "internalType": "uint256",
                  "name": "id",
                  "type": "uint256"
                }
              ],
              "internalType": "struct IRolldownPrimitives.RequestId",
              "name": "requestId",
              "type": "tuple"
            },
            {
              "internalType": "address",
              "name": "recipient",
              "type": "address"
            },
            {
              "internalType": "address",
              "name": "tokenAddress",
              "type": "address"
            },
            {
              "internalType": "uint256",
              "name": "amount",
              "type": "uint256"
            },
            {
              "internalType": "uint256",
              "name": "ferryTip",
              "type": "uint256"
            }
          ],
          "internalType": "struct IRolldownPrimitives.Withdrawal",
          "name": "withdrawal",
          "type": "tuple"
        }
      ],
      "name": "ferry_withdrawal",
      "outputs": [],
      "stateMutability": "payable",
      "type": "function"
    },
    {
      "inputs": [
        {
          "internalType": "uint256",
          "name": "requestId",
          "type": "uint256"
        }
      ],
      "name": "find_l2_batch",
      "outputs": [
        {
          "components": [
            {
              "internalType": "uint256",
              "name": "start",
              "type": "uint256"
            },
            {
              "internalType": "uint256",
              "name": "end",
              "type": "uint256"
            }
          ],
          "internalType": "struct IRolldownPrimitives.Range",
          "name": "",
          "type": "tuple"
        }
      ],
      "stateMutability": "view",
      "type": "function"
    },
    {
      "inputs": [
        {
          "internalType": "uint256",
          "name": "start",
          "type": "uint256"
        },
        {
          "internalType": "uint256",
          "name": "end",
          "type": "uint256"
        }
      ],
      "name": "getPendingRequests",
      "outputs": [
        {
          "components": [
            {
              "internalType": "enum IRolldownPrimitives.ChainId",
              "name": "chain",
              "type": "uint8"
            },
            {
              "components": [
                {
                  "components": [
                    {
                      "internalType": "enum IRolldownPrimitives.Origin",
                      "name": "origin",
                      "type": "uint8"
                    },
                    {
                      "internalType": "uint256",
                      "name": "id",
                      "type": "uint256"
                    }
                  ],
                  "internalType": "struct IRolldownPrimitives.RequestId",
                  "name": "requestId",
                  "type": "tuple"
                },
                {
                  "internalType": "address",
                  "name": "depositRecipient",
                  "type": "address"
                },
                {
                  "internalType": "address",
                  "name": "tokenAddress",
                  "type": "address"
                },
                {
                  "internalType": "uint256",
                  "name": "amount",
                  "type": "uint256"
                },
                {
                  "internalType": "uint256",
                  "name": "timeStamp",
                  "type": "uint256"
                },
                {
                  "internalType": "uint256",
                  "name": "ferryTip",
                  "type": "uint256"
                }
              ],
              "internalType": "struct IRolldownPrimitives.Deposit[]",
              "name": "pendingDeposits",
              "type": "tuple[]"
            },
            {
              "components": [
                {
                  "components": [
                    {
                      "internalType": "enum IRolldownPrimitives.Origin",
                      "name": "origin",
                      "type": "uint8"
                    },
                    {
                      "internalType": "uint256",
                      "name": "id",
                      "type": "uint256"
                    }
                  ],
                  "internalType": "struct IRolldownPrimitives.RequestId",
                  "name": "requestId",
                  "type": "tuple"
                },
                {
                  "internalType": "uint256",
                  "name": "l2RequestId",
                  "type": "uint256"
                },
                {
                  "internalType": "bool",
                  "name": "cancelJustified",
                  "type": "bool"
                },
                {
                  "internalType": "uint256",
                  "name": "timeStamp",
                  "type": "uint256"
                }
              ],
              "internalType": "struct IRolldownPrimitives.CancelResolution[]",
              "name": "pendingCancelResolutions",
              "type": "tuple[]"
            }
          ],
          "internalType": "struct IRolldownPrimitives.L1Update",
          "name": "",
          "type": "tuple"
        }
      ],
      "stateMutability": "view",
      "type": "function"
    },
    {
      "inputs": [],
      "name": "getUpdateForL2",
      "outputs": [
        {
          "components": [
            {
              "internalType": "enum IRolldownPrimitives.ChainId",
              "name": "chain",
              "type": "uint8"
            },
            {
              "components": [
                {
                  "components": [
                    {
                      "internalType": "enum IRolldownPrimitives.Origin",
                      "name": "origin",
                      "type": "uint8"
                    },
                    {
                      "internalType": "uint256",
                      "name": "id",
                      "type": "uint256"
                    }
                  ],
                  "internalType": "struct IRolldownPrimitives.RequestId",
                  "name": "requestId",
                  "type": "tuple"
                },
                {
                  "internalType": "address",
                  "name": "depositRecipient",
                  "type": "address"
                },
                {
                  "internalType": "address",
                  "name": "tokenAddress",
                  "type": "address"
                },
                {
                  "internalType": "uint256",
                  "name": "amount",
                  "type": "uint256"
                },
                {
                  "internalType": "uint256",
                  "name": "timeStamp",
                  "type": "uint256"
                },
                {
                  "internalType": "uint256",
                  "name": "ferryTip",
                  "type": "uint256"
                }
              ],
              "internalType": "struct IRolldownPrimitives.Deposit[]",
              "name": "pendingDeposits",
              "type": "tuple[]"
            },
            {
              "components": [
                {
                  "components": [
                    {
                      "internalType": "enum IRolldownPrimitives.Origin",
                      "name": "origin",
                      "type": "uint8"
                    },
                    {
                      "internalType": "uint256",
                      "name": "id",
                      "type": "uint256"
                    }
                  ],
                  "internalType": "struct IRolldownPrimitives.RequestId",
                  "name": "requestId",
                  "type": "tuple"
                },
                {
                  "internalType": "uint256",
                  "name": "l2RequestId",
                  "type": "uint256"
                },
                {
                  "internalType": "bool",
                  "name": "cancelJustified",
                  "type": "bool"
                },
                {
                  "internalType": "uint256",
                  "name": "timeStamp",
                  "type": "uint256"
                }
              ],
              "internalType": "struct IRolldownPrimitives.CancelResolution[]",
              "name": "pendingCancelResolutions",
              "type": "tuple[]"
            }
          ],
          "internalType": "struct IRolldownPrimitives.L1Update",
          "name": "",
          "type": "tuple"
        }
      ],
      "stateMutability": "view",
      "type": "function"
    },
    {
      "inputs": [
        {
          "internalType": "contract IPauserRegistry",
          "name": "_pauserRegistry",
          "type": "address"
        },
        {
          "internalType": "address",
          "name": "initialOwner",
          "type": "address"
        },
        {
          "internalType": "enum IRolldownPrimitives.ChainId",
          "name": "chainId",
          "type": "uint8"
        },
        {
          "internalType": "address",
          "name": "updater",
          "type": "address"
        }
      ],
      "name": "initialize",
      "outputs": [],
      "stateMutability": "nonpayable",
      "type": "function"
    },
    {
      "inputs": [],
      "name": "lastProcessedUpdate_origin_l1",
      "outputs": [
        {
          "internalType": "uint256",
          "name": "",
          "type": "uint256"
        }
      ],
      "stateMutability": "view",
      "type": "function"
    },
    {
      "inputs": [],
      "name": "lastProcessedUpdate_origin_l2",
      "outputs": [
        {
          "internalType": "uint256",
          "name": "",
          "type": "uint256"
        }
      ],
      "stateMutability": "view",
      "type": "function"
    },
    {
      "inputs": [
        {
          "internalType": "bytes32",
          "name": "",
          "type": "bytes32"
        }
      ],
      "name": "merkleRootRange",
      "outputs": [
        {
          "internalType": "uint256",
          "name": "start",
          "type": "uint256"
        },
        {
          "internalType": "uint256",
          "name": "end",
          "type": "uint256"
        }
      ],
      "stateMutability": "view",
      "type": "function"
    },
    {
      "inputs": [],
      "name": "owner",
      "outputs": [
        {
          "internalType": "address",
          "name": "",
          "type": "address"
        }
      ],
      "stateMutability": "view",
      "type": "function"
    },
    {
      "inputs": [
        {
          "internalType": "uint256",
          "name": "newPausedStatus",
          "type": "uint256"
        }
      ],
      "name": "pause",
      "outputs": [],
      "stateMutability": "nonpayable",
      "type": "function"
    },
    {
      "inputs": [],
      "name": "pauseAll",
      "outputs": [],
      "stateMutability": "nonpayable",
      "type": "function"
    },
    {
      "inputs": [
        {
          "internalType": "uint8",
          "name": "index",
          "type": "uint8"
        }
      ],
      "name": "paused",
      "outputs": [
        {
          "internalType": "bool",
          "name": "",
          "type": "bool"
        }
      ],
      "stateMutability": "view",
      "type": "function"
    },
    {
      "inputs": [],
      "name": "paused",
      "outputs": [
        {
          "internalType": "uint256",
          "name": "",
          "type": "uint256"
        }
      ],
      "stateMutability": "view",
      "type": "function"
    },
    {
      "inputs": [],
      "name": "pauserRegistry",
      "outputs": [
        {
          "internalType": "contract IPauserRegistry",
          "name": "",
          "type": "address"
        }
      ],
      "stateMutability": "view",
      "type": "function"
    },
    {
      "inputs": [
        {
          "internalType": "bytes32",
          "name": "",
          "type": "bytes32"
        }
      ],
      "name": "processedL2Requests",
      "outputs": [
        {
          "internalType": "address",
          "name": "",
          "type": "address"
        }
      ],
      "stateMutability": "view",
      "type": "function"
    },
    {
      "inputs": [],
      "name": "renounceOwnership",
      "outputs": [],
      "stateMutability": "nonpayable",
      "type": "function"
    },
    {
      "inputs": [
        {
          "internalType": "contract IPauserRegistry",
          "name": "newPauserRegistry",
          "type": "address"
        }
      ],
      "name": "setPauserRegistry",
      "outputs": [],
      "stateMutability": "nonpayable",
      "type": "function"
    },
    {
      "inputs": [
        {
          "internalType": "address",
          "name": "updater",
          "type": "address"
        }
      ],
      "name": "setUpdater",
      "outputs": [],
      "stateMutability": "nonpayable",
      "type": "function"
    },
    {
      "inputs": [
        {
          "internalType": "address",
          "name": "newOwner",
          "type": "address"
        }
      ],
      "name": "transferOwnership",
      "outputs": [],
      "stateMutability": "nonpayable",
      "type": "function"
    },
    {
      "inputs": [
        {
          "internalType": "uint256",
          "name": "newPausedStatus",
          "type": "uint256"
        }
      ],
      "name": "unpause",
      "outputs": [],
      "stateMutability": "nonpayable",
      "type": "function"
    },
    {
      "inputs": [
        {
          "internalType": "bytes32",
          "name": "merkle_root",
          "type": "bytes32"
        },
        {
          "components": [
            {
              "internalType": "uint256",
              "name": "start",
              "type": "uint256"
            },
            {
              "internalType": "uint256",
              "name": "end",
              "type": "uint256"
            }
          ],
          "internalType": "struct IRolldownPrimitives.Range",
          "name": "range",
          "type": "tuple"
        }
      ],
      "name": "update_l1_from_l2",
      "outputs": [],
      "stateMutability": "nonpayable",
      "type": "function"
    },
    {
      "inputs": [],
      "name": "updaterAccount",
      "outputs": [
        {
          "internalType": "address",
          "name": "",
          "type": "address"
        }
      ],
      "stateMutability": "view",
      "type": "function"
    }
  ],
  "bytecode": {
    "object": "0x608060405234801561001057600080fd5b50600160d255613d13806100256000396000f3fe6080604052600436106102255760003560e01c8063886f119511610123578063d16544f0116100ab578063f26ee9d01161006f578063f26ee9d014610644578063f2fde38b1461065a578063f9ecd01e1461067a578063fabc1cbc146106b5578063ffea632b146106d557600080fd5b8063d16544f014610324578063de70e0b8146105c6578063df2ebdbb146105fc578063dffbdd9f14610611578063ef0ba5d01461062457600080fd5b8063af26c695116100f2578063af26c69514610532578063b153870614610552578063c763e5a114610567578063c87c22241461058e578063ca9b21ae1461059657600080fd5b8063886f1195146104b45780638da5cb5b146104d4578063950ac487146104f25780639d54f4191461051257600080fd5b80634bf5fec3116101b157806361bc221a1161017557806361bc221a14610421578063715018a61461043757806371c544611461044c57806379e041f2146104715780637fd4f8451461049e57600080fd5b80634bf5fec3146103445780634f48eedf14610364578063595c6a67146103ad5780635ac86ab7146103c25780635c975abb1461040257600080fd5b80630e2636a3116101f85780630e2636a31461029f5780630efe6a8b1461024c57806310d67a2f146102e4578063136439dd1461030457806347e7ef241461032457600080fd5b806301ef69661461022a57806308aba1b21461024c57806308f42d401461026c5780630cac57ab1461028c575b600080fd5b34801561023657600080fd5b5061024a61024536600461329e565b6106f5565b005b34801561025857600080fd5b5061024a610267366004613315565b6107cc565b34801561027857600080fd5b5061024a61028736600461334a565b610829565b61024a61029a36600461339a565b610a7c565b3480156102ab57600080fd5b506102c773111111111111111111111111111111111111111181565b6040516001600160a01b0390911681526020015b60405180910390f35b3480156102f057600080fd5b5061024a6102ff3660046133b6565b610f1a565b34801561031057600080fd5b5061024a61031f3660046133d3565b610fcd565b34801561033057600080fd5b5061024a61033f3660046133ec565b61110c565b34801561035057600080fd5b5061024a61035f366004613418565b611169565b34801561037057600080fd5b5061039861037f3660046133d3565b609d602052600090815260409020805460019091015482565b604080519283526020830191909152016102db565b3480156103b957600080fd5b5061024a6113ee565b3480156103ce57600080fd5b506103f26103dd36600461345c565b606654600160ff9092169190911b9081161490565b60405190151581526020016102db565b34801561040e57600080fd5b506066545b6040519081526020016102db565b34801561042d57600080fd5b5061041360975481565b34801561044357600080fd5b5061024a6114b5565b34801561045857600080fd5b50609a546102c79061010090046001600160a01b031681565b34801561047d57600080fd5b5061049161048c36600461347f565b6114c9565b6040516102db9190613555565b3480156104aa57600080fd5b5061041360985481565b3480156104c057600080fd5b506065546102c7906001600160a01b031681565b3480156104e057600080fd5b506033546001600160a01b03166102c7565b3480156104fe57600080fd5b5061024a61050d366004613618565b611889565b34801561051e57600080fd5b5061024a61052d3660046133b6565b611940565b34801561053e57600080fd5b5061041361054d36600461367b565b611a3d565b34801561055e57600080fd5b50610491611a8e565b34801561057357600080fd5b50609a546105819060ff1681565b6040516102db91906136ea565b61024a611ad9565b3480156105a257600080fd5b506105b66105b13660046133d3565b611b32565b6040516102db94939291906136fd565b3480156105d257600080fd5b506102c76105e13660046133d3565b609e602052600090815260409020546001600160a01b031681565b34801561060857600080fd5b506102c7600181565b61024a61061f3660046133d3565b611ba4565b34801561063057600080fd5b5061041361063f366004613726565b611bfd565b34801561065057600080fd5b5061041360995481565b34801561066657600080fd5b5061024a6106753660046133b6565b611d39565b34801561068657600080fd5b5061069a6106953660046133d3565b611daf565b604080518251815260209283015192810192909252016102db565b3480156106c157600080fd5b5061024a6106d03660046133d3565b611f23565b3480156106e157600080fd5b5061024a6106f03660046137c3565b61207f565b6066541561071e5760405162461bcd60e51b81526004016107159061381f565b60405180910390fd5b600260d25414156107415760405162461bcd60e51b815260040161071590613856565b600260d25560405160009061075a9086906020016138ae565b6040516020818303038152906040528051906020012090506107868560000160200135828686866121f8565b61078f8561236d565b6000908152609e6020526040902080546001600160a01b0319167311111111111111111111111111111111111111111790555050600160d2555050565b606654156107ec5760405162461bcd60e51b81526004016107159061381f565b600260d254141561080f5760405162461bcd60e51b815260040161071590613856565b600260d25561081f8383836124bf565b5050600160d25550565b606654156108495760405162461bcd60e51b81526004016107159061381f565b609a5461010090046001600160a01b031633146108985760405162461bcd60e51b815260206004820152600d60248201526c2737ba103a34329037bbb732b960991b6044820152606401610715565b6099548160200135116108ed5760405162461bcd60e51b815260206004820152601960248201527f557064617465206272696e6773206e6f206e65772064617461000000000000006044820152606401610715565b803561093b5760405162461bcd60e51b815260206004820152601f60248201527f72616e6765206964206d7573742062652067726561746572207468616e2030006044820152606401610715565b60995461094a600183356138fa565b11156109985760405162461bcd60e51b815260206004820152601760248201527f50726576696f757320757064617465206d697373696e670000000000000000006044820152606401610715565b8035602082013510156109dd5760405162461bcd60e51b815260206004820152600d60248201526c496e76616c69642072616e676560981b6044820152606401610715565b609f8054600181019091557f0bc14066c33013fe88f66e314e4cf150b0b2d4d6451a1a51dbbd1c27cd11de28018290556000828152609d602052604090208190610a34828281358155602082013560018201555050565b505060208101356099556040517f49c158d490db9e066f01b5d4f1a094485a6598cb6c5296b4c07e46c12a1dc11c90610a709084908490613911565b60405180910390a15050565b60665415610a9c5760405162461bcd60e51b81526004016107159061381f565b600260d2541415610abf5760405162461bcd60e51b815260040161071590613856565b600260d255608081013560a08201351115610aec5760405162461bcd60e51b81526004016107159061392f565b6000610b0060a083013560808401356138fa565b9050600082604051602001610b159190613966565b60408051601f1981840301815291815281516020928301206000818152609e9093529120549091506001600160a01b031615610b855760405162461bcd60e51b815260206004820152600f60248201526e105b1c9958591e4819995c9c9a5959608a1b6044820152606401610715565b6000818152609e6020526040902080546001600160a01b031916331790556001610bb560808501606086016133b6565b6001600160a01b03161415610d4b5760003411610c0c5760405162461bcd60e51b815260206004820152601560248201527413985d1a5d99481d1bdad95b881b9bdd081cd95b9d605a1b6044820152606401610715565b813414610c925760405162461bcd60e51b815260206004820152604860248201527f53656e7420616d6f756e742073686f756c642065786163746c79206d6174636860448201527f207769746864726177616c2e616d6f756e74202d207769746864726177616c2e606482015267066657272795469760c41b608482015260a401610715565b610ca260608401604085016133b6565b6001600160a01b03166108fc839081150290604051600060405180830381858888f19350505050158015610cda573d6000803e3d6000fd5b507f7a9abd9eb86bdbca89cba4069a632c37d93db82e3e14ad8119a3a7812814853e602084013583610d1260608701604088016133b6565b6040805193845260208401929092526001600160a01b0316908201523360608201526080810183905260a00160405180910390a161081f565b6000610d5d60808501606086016133b6565b6040516370a0823160e01b815233600482015290915083906001600160a01b038316906370a0823190602401602060405180830381865afa158015610da6573d6000803e3d6000fd5b505050506040513d601f19601f82011682018060405250810190610dca91906139c2565b1015610e0b5760405162461bcd60e51b815260206004820152601060248201526f4e6f7420656e6f7567682066756e647360801b6044820152606401610715565b6001600160a01b0381166323b872dd33610e2b60608801604089016133b6565b6040516001600160e01b031960e085901b1681526001600160a01b03928316600482015291166024820152604481018690526064016020604051808303816000875af1158015610e7f573d6000803e3d6000fd5b505050506040513d601f19601f82011682018060405250810190610ea391906139db565b507f7a9abd9eb86bdbca89cba4069a632c37d93db82e3e14ad8119a3a7812814853e602085013584610edb60608801604089016133b6565b6040805193845260208401929092526001600160a01b0316908201523360608201526080810184905260a00160405180910390a1505050600160d25550565b606560009054906101000a90046001600160a01b03166001600160a01b031663eab66d7a6040518163ffffffff1660e01b8152600401602060405180830381865afa158015610f6d573d6000803e3d6000fd5b505050506040513d601f19601f82011682018060405250810190610f9191906139fd565b6001600160a01b0316336001600160a01b031614610fc15760405162461bcd60e51b815260040161071590613a1a565b610fca816126d5565b50565b60655460405163237dfb4760e11b81523360048201526001600160a01b03909116906346fbf68e90602401602060405180830381865afa158015611015573d6000803e3d6000fd5b505050506040513d601f19601f8201168201806040525081019061103991906139db565b6110555760405162461bcd60e51b815260040161071590613a64565b606654818116146110ce5760405162461bcd60e51b815260206004820152603860248201527f5061757361626c652e70617573653a20696e76616c696420617474656d70742060448201527f746f20756e70617573652066756e6374696f6e616c69747900000000000000006064820152608401610715565b606681905560405181815233907fab40a374bc51de372200a8bc981af8c9ecdc08dfdaef0bb6e09f88f3c616ef3d906020015b60405180910390a250565b6066541561112c5760405162461bcd60e51b81526004016107159061381f565b600260d254141561114f5760405162461bcd60e51b815260040161071590613856565b600260d255611160828260006124bf565b5050600160d255565b606654156111895760405162461bcd60e51b81526004016107159061381f565b600260d25414156111ac5760405162461bcd60e51b815260040161071590613856565b600260d2556040516111e990602080870135916111cb91889101613966565b604051602081830303815290604052805190602001208585856121f8565b6000846040516020016111fc9190613966565b60408051601f1981840301815291815281516020928301206000818152609e909352912080546001600160a01b03198116731111111111111111111111111111111111111111179091559091506001600160a01b03168015158061133357600161126c6080890160608a016133b6565b6001600160a01b0316141561129d5761129861128e6060890160408a016133b6565b88608001356127cc565b6112ca565b6112ca6112b06060890160408a016133b6565b6112c060808a0160608b016133b6565b896080013561288d565b7f935f26d94be31907080aa78b3e6e2ac6d48a072af096c20268388621bbc117898760000160200135886040516020016113049190613966565b60408051601f1981840301815282825280516020918201209383528201929092520160405180910390a16113e0565b60016113456080890160608a016133b6565b6001600160a01b03161415611367576113628288608001356127cc565b61137b565b61137b826112c060808a0160608b016133b6565b7f2996fd546c37d74c170466ea6aa4a308e3ca2d4aa689e6e9e32994db5039cc0e8760000160200135886040516020016113b59190613966565b60408051601f1981840301815282825280516020918201209383528201929092520160405180910390a15b5050600160d2555050505050565b60655460405163237dfb4760e11b81523360048201526001600160a01b03909116906346fbf68e90602401602060405180830381865afa158015611436573d6000803e3d6000fd5b505050506040513d601f19601f8201168201806040525081019061145a91906139db565b6114765760405162461bcd60e51b815260040161071590613a64565b600019606681905560405190815233907fab40a374bc51de372200a8bc981af8c9ecdc08dfdaef0bb6e09f88f3c616ef3d9060200160405180910390a2565b6114bd6129cb565b6114c76000612a25565b565b6114ee6040805160608101909152806000815260200160608152602001606081525090565b6115136040805160608101909152806000815260200160608152602001606081525090565b609a54819060ff16600181111561152c5761152c6134a1565b9081600181111561153f5761153f6134a1565b905250600080855b8581116115ae576000818152609c602052604090206001015415611577578261156f81613aac565b93505061159c565b6000818152609b60205260409020600101541561159c578161159881613aac565b9250505b806115a681613aac565b915050611547565b508167ffffffffffffffff8111156115c8576115c8613ac7565b60405190808252806020026020018201604052801561163657816020015b6040805161010081018252600060c0820181815260e0830182905282526020808301829052928201819052606082018190526080820181905260a082015282526000199092019101816115e65790505b5060208401528067ffffffffffffffff81111561165557611655613ac7565b6040519080825280602002602001820160405280156116b457816020015b6040805160c08101825260006080820181815260a0830182905282526020808301829052928201819052606082015282526000199092019101816116735790505b506040840152506000905080855b85811161187e576000818152609c6020526040902060010154156117ac576000818152609c602052604090819020815161010081019092528054829060c08201908390829060ff16600181111561171b5761171b6134a1565b600181111561172c5761172c6134a1565b81526001919091015460209182015290825260028301546001600160a01b03908116838301526003840154166040830152600483015460608301526005830154608083015260069092015460a0909101528501518461178a81613aac565b95508151811061179c5761179c613add565b602002602001018190525061186c565b6000818152609b602052604090206002015415611867576000818152609b602052604090819020815160c081019092528054829060808201908390829060ff1660018111156117fd576117fd6134a1565b600181111561180e5761180e6134a1565b815260019190910154602091820152908252600283015490820152600382015460ff1615156040808301919091526004909201546060909101528501518361185581613aac565b94508151811061179c5761179c613add565b61187e565b8061187681613aac565b9150506116c2565b509195945050505050565b606654156118a95760405162461bcd60e51b81526004016107159061381f565b600260d25414156118cc5760405162461bcd60e51b815260040161071590613856565b600260d2556040516000906118e5908690602001613af3565b6040516020818303038152906040528051906020012090506119378560000160200135866040516020016119199190613af3565b604051602081830303815290604052805190602001208686866121f8565b61078f85612a77565b606654156119605760405162461bcd60e51b81526004016107159061381f565b609a5461010090046001600160a01b031633146119de5760405162461bcd60e51b815260206004820152603660248201527f4f6e6c792061637469766520757064617465722063616e206d6f7665207269676044820152751a1d1cc81d1bc818481b995dc818481858d8dbdd5b9d60521b6064820152608401610715565b609a8054610100600160a81b0319166101006001600160a01b038481168202929092179283905560405192041681527f1b0f2f500df596b42b73e80dbec6a1fb570f01978a586723f988a5fc54d773a19060200160405180910390a150565b600080825b63ffffffff811615611a6d57611a59600282613b47565b9050611a66600183613b6a565b9150611a42565b611a8282888a8989600061063f60018c613b92565b98975050505050505050565b611ab36040805160608101909152806000815260200160608152602001606081525090565b611ad46098546001611ac59190613bb7565b600160975461048c91906138fa565b905090565b600260d2541415611afc5760405162461bcd60e51b815260040161071590613856565b600260d25560665415611b215760405162461bcd60e51b81526004016107159061381f565b611b2b6000612b8f565b600160d255565b609b6020526000908152604090819020815180830190925280549091908290829060ff166001811115611b6757611b676134a1565b6001811115611b7857611b786134a1565b815260019190910154602090910152600282015460038301546004909301549192909160ff9091169084565b600260d2541415611bc75760405162461bcd60e51b815260040161071590613856565b600260d25560665415611bec5760405162461bcd60e51b81526004016107159061381f565b611bf581612b8f565b50600160d255565b6000611c0a600288613bcf565b63ffffffff16611c8f578163ffffffff168763ffffffff161415611c2d57611ced565b85858585611c3a81613bf2565b965063ffffffff16818110611c5157611c51613add565b90506020020135604051602001611c72929190918252602082015260400190565b604051602081830303815290604052805190602001209550611ced565b848484611c9b81613bf2565b955063ffffffff16818110611cb257611cb2613add565b9050602002013586604051602001611cd4929190918252602082015260400190565b6040516020818303038152906040528051906020012095505b8763ffffffff1660011415611d03575084611d2e565b611d2b611d1160018a613b92565b611d1c60028a613b47565b8888888861063f60028a613b47565b90505b979650505050505050565b611d416129cb565b6001600160a01b038116611da65760405162461bcd60e51b815260206004820152602660248201527f4f776e61626c653a206e6577206f776e657220697320746865207a65726f206160448201526564647265737360d01b6064820152608401610715565b610fca81612a25565b6040805180820190915260008082526020820152609954821115611e0a5760405162461bcd60e51b8152602060048201526012602482015271125b9d985b1a59081c995c5d595cdd081a5960721b6044820152606401610715565b609f54611e2a575050604080518082019091526000808252602082015290565b609f54600090611e3c906001906138fa565b90505b609d6000609f8381548110611e5657611e56613add565b90600052602060002001548152602001908152602001600020600001548310158015611eb55750609d6000609f8381548110611e9457611e94613add565b90600052602060002001548152602001908152602001600020600101548311155b15611f1157609d6000609f8381548110611ed157611ed1613add565b9060005260206000200154815260200190815260200160002060405180604001604052908160008201548152602001600182015481525050915050919050565b80611f1b81613c16565b915050611e3f565b606560009054906101000a90046001600160a01b03166001600160a01b031663eab66d7a6040518163ffffffff1660e01b8152600401602060405180830381865afa158015611f76573d6000803e3d6000fd5b505050506040513d601f19601f82011682018060405250810190611f9a91906139fd565b6001600160a01b0316336001600160a01b031614611fca5760405162461bcd60e51b815260040161071590613a1a565b6066541981196066541916146120485760405162461bcd60e51b815260206004820152603860248201527f5061757361626c652e756e70617573653a20696e76616c696420617474656d7060448201527f7420746f2070617573652066756e6374696f6e616c69747900000000000000006064820152608401610715565b606681905560405181815233907f3582d1828e26bf56bd801502bc021ac0bc8afb57c826e4986b45593c8fad389c90602001611101565b600054610100900460ff161580801561209f5750600054600160ff909116105b806120b95750303b1580156120b9575060005460ff166001145b61211c5760405162461bcd60e51b815260206004820152602e60248201527f496e697469616c697a61626c653a20636f6e747261637420697320616c72656160448201526d191e481a5b9a5d1a585b1a5e995960921b6064820152608401610715565b6000805460ff19166001179055801561213f576000805461ff0019166101001790555b61214a856000612d68565b61215384612a25565b6000609881905560016097819055609991909155609a8054859260ff19909116908381811115612185576121856134a1565b0217905550609a8054610100600160a81b0319166101006001600160a01b0385160217905580156121f1576000805461ff0019169055604051600181527f7f26b83ff96e1f2b6a682f133852f6798a09c465da95921460cefb3847402498906020015b60405180910390a15b5050505050565b6000838152609d60209081526040918290208251808401909352805480845260019091015491830191909152158015906122355750602081015115155b6122775760405162461bcd60e51b8152602060048201526013602482015272155b9adb9bdddb881b595c9adb19481c9bdbdd606a1b6044820152606401610715565b6000858152609e60205260409020546001600160a01b031673111111111111111111111111111111111111111114156122e65760405162461bcd60e51b8152602060048201526011602482015270105b1c9958591e481c1c9bd8d95cdcd959607a1b6044820152606401610715565b805160208201516000916122f9916138fa565b612304906001613bb7565b825190915060009061231690896138fa565b9050856123268883888887611a3d565b146123635760405162461bcd60e51b815260206004820152600d60248201526c24b73b30b634b210383937b7b360991b6044820152606401610715565b5050505050505050565b6000612381604083013560608401356114c9565b90506000816040516020016123969190613555565b60408051601f19818403018152828252805160209091012060c0830190915291504290600090806080810180848152602001609760008154809291906123db90613aac565b9091555090528152602087810135818301526080880135861415604080840191909152606090920185905282518101516000908152609b909152208151805182549394508493839190829060ff19166001838181111561243d5761243d6134a1565b021790555060209182015160019091015582810151600283015560408084015160038401805491151560ff199092169190911790556060909301516004909201919091558201518282015191517fd16f202ac5905ff5d1851f4805ffe56d1212db32fa989881d0044b9cf0f72776926121e89282521515602082015260400190565b818111156124df5760405162461bcd60e51b81526004016107159061392f565b6001600160a01b03831661252d5760405162461bcd60e51b8152602060048201526015602482015274496e76616c696420746f6b656e206164647265737360581b6044820152606401610715565b6000821161254d5760405162461bcd60e51b815260040161071590613c2d565b33836125646001600160a01b038216833087612e4e565b60408051610100810190915242906000908060c08101808481526020016097600081548092919061259490613aac565b90915550905281526001600160a01b03808716602080840191909152908a16604080840191909152606083018a90526080830186905260a090920188905282518101516000908152609c909152208151805182549394508493839190829060ff191660018381811115612609576126096134a1565b021790555060209182015160019190910155828101516002830180546001600160a01b03199081166001600160a01b0393841617909155604080860151600386018054909316908416179091556060808601516004860155608080870151600587015560a096870151600690960195909555865184015182519081528a841694810194909452918c169083015281018990529081018790527f225305ecb66fa9b9b29f8dead9baea365a6c225d639dfd866e782ccb63e2f05b910160405180910390a150505050505050565b6001600160a01b0381166127635760405162461bcd60e51b815260206004820152604960248201527f5061757361626c652e5f73657450617573657252656769737472793a206e657760448201527f50617573657252656769737472792063616e6e6f7420626520746865207a65726064820152686f206164647265737360b81b608482015260a401610715565b606554604080516001600160a01b03928316815291831660208301527f6e9fcd539896fca60e8b0f01dd580233e48a6b0f7df013b89ba7f565869acdb6910160405180910390a1606580546001600160a01b0319166001600160a01b0392909216919091179055565b303181111561281d5760405162461bcd60e51b815260206004820152601c60248201527f4e6f7420656e6f7567682066756e647320696e20636f6e7472616374000000006044820152606401610715565b6000811161283d5760405162461bcd60e51b815260040161071590613c2d565b604080516001600160a01b0384168152602081018390527fe0495355c1e04c512584521854d222d239a4b782b39ac8a7e835a34f5ec7c1e1910160405180910390a16128898282612ebf565b5050565b6040516370a0823160e01b8152306004820152829082906001600160a01b038316906370a0823190602401602060405180830381865afa1580156128d5573d6000803e3d6000fd5b505050506040513d601f19601f820116820180604052508101906128f991906139c2565b10156129475760405162461bcd60e51b815260206004820152601c60248201527f4e6f7420656e6f7567682066756e647320696e20636f6e7472616374000000006044820152606401610715565b600082116129675760405162461bcd60e51b815260040161071590613c2d565b61297b6001600160a01b0382168584612fdd565b604080516001600160a01b038087168252851660208201529081018390527ee763f7778b8ceef7270c89b7d1df1008b0e482da39c43831417733af96fb0d9060600160405180910390a150505050565b6033546001600160a01b031633146114c75760405162461bcd60e51b815260206004820181905260248201527f4f776e61626c653a2063616c6c6572206973206e6f7420746865206f776e65726044820152606401610715565b603380546001600160a01b038381166001600160a01b0319831681179093556040519116919082907f8be0079c531659141344cd1fd0a4f28419497f9722a3daafe3b4186f6b6457e090600090a35050565b6040808201356000908152609c602052908120600281015490916001600160a01b0390911690612aad60808501606086016133b6565b6001600160a01b031614612ace57612acb60808401606085016133b6565b90505b60038201546001600160a01b031660011415612af757612af28183600401546127cc565b612b18565b60038201546004830154612b189183916001600160a01b039091169061288d565b7f13750c731f87c15242874ce74bf4649502cc8e7c829067ce846505acdb96289d8360000160200135846040013585604051602001612b579190613af3565b60408051601f1981840301815282825280516020918201209483528201929092529081019190915260600160405180910390a1505050565b34811115612baf5760405162461bcd60e51b81526004016107159061392f565b60003411612bff5760405162461bcd60e51b815260206004820181905260248201527f6d73672076616c7565206d7573742062652067726561746572207468617420306044820152606401610715565b6040805161010081019091523390349042906000908060c081018084815260200160976000815480929190612c3390613aac565b90915550905281526001600160a01b03861660208083019190915260016040808401829052606084018890526080840187905260a090930189905283518201516000908152609c9092529190208251805182549495508594929391928492839160ff1916908381811115612ca957612ca96134a1565b0217905550602091820151600191820155838201516002840180546001600160a01b03199081166001600160a01b0393841617909155604080870151600387018054909316908416179091556060808701516004870155608080880151600588015560a09788015160069097019690965587518501518251908152928b16948301949094528101919091529081018690529081018790527f225305ecb66fa9b9b29f8dead9baea365a6c225d639dfd866e782ccb63e2f05b91016121e8565b6065546001600160a01b0316158015612d8957506001600160a01b03821615155b612e0b5760405162461bcd60e51b815260206004820152604760248201527f5061757361626c652e5f696e697469616c697a655061757365723a205f696e6960448201527f7469616c697a6550617573657228292063616e206f6e6c792062652063616c6c6064820152666564206f6e636560c81b608482015260a401610715565b606681905560405181815233907fab40a374bc51de372200a8bc981af8c9ecdc08dfdaef0bb6e09f88f3c616ef3d9060200160405180910390a2612889826126d5565b6040516001600160a01b0380851660248301528316604482015260648101829052612eb99085906323b872dd60e01b906084015b60408051601f198184030181529190526020810180516001600160e01b03166001600160e01b03199093169290921790915261300d565b50505050565b80471015612f0f5760405162461bcd60e51b815260206004820152601d60248201527f416464726573733a20696e73756666696369656e742062616c616e63650000006044820152606401610715565b6000826001600160a01b03168260405160006040518083038185875af1925050503d8060008114612f5c576040519150601f19603f3d011682016040523d82523d6000602084013e612f61565b606091505b5050905080612fd85760405162461bcd60e51b815260206004820152603a60248201527f416464726573733a20756e61626c6520746f2073656e642076616c75652c207260448201527f6563697069656e74206d617920686176652072657665727465640000000000006064820152608401610715565b505050565b6040516001600160a01b038316602482015260448101829052612fd890849063a9059cbb60e01b90606401612e82565b6000613062826040518060400160405280602081526020017f5361666545524332303a206c6f772d6c6576656c2063616c6c206661696c6564815250856001600160a01b03166130df9092919063ffffffff16565b805190915015612fd8578080602001905181019061308091906139db565b612fd85760405162461bcd60e51b815260206004820152602a60248201527f5361666545524332303a204552433230206f7065726174696f6e20646964206e6044820152691bdd081cdd58d8d9595960b21b6064820152608401610715565b60606130ee84846000856130f8565b90505b9392505050565b6060824710156131595760405162461bcd60e51b815260206004820152602660248201527f416464726573733a20696e73756666696369656e742062616c616e636520666f6044820152651c8818d85b1b60d21b6064820152608401610715565b6001600160a01b0385163b6131b05760405162461bcd60e51b815260206004820152601d60248201527f416464726573733a2063616c6c20746f206e6f6e2d636f6e74726163740000006044820152606401610715565b600080866001600160a01b031685876040516131cc9190613c8e565b60006040518083038185875af1925050503d8060008114613209576040519150601f19603f3d011682016040523d82523d6000602084013e61320e565b606091505b5091509150611d2e828286606083156132285750816130f1565b8251156132385782518084602001fd5b8160405162461bcd60e51b81526004016107159190613caa565b60008083601f84011261326457600080fd5b50813567ffffffffffffffff81111561327c57600080fd5b6020830191508360208260051b850101111561329757600080fd5b9250929050565b60008060008084860360e08112156132b557600080fd5b60a08112156132c357600080fd5b5084935060a0850135925060c085013567ffffffffffffffff8111156132e857600080fd5b6132f487828801613252565b95989497509550505050565b6001600160a01b0381168114610fca57600080fd5b60008060006060848603121561332a57600080fd5b833561333581613300565b95602085013595506040909401359392505050565b600080828403606081121561335e57600080fd5b833592506040601f198201121561337457600080fd5b506020830190509250929050565b600060c0828403121561339457600080fd5b50919050565b600060c082840312156133ac57600080fd5b6130f18383613382565b6000602082840312156133c857600080fd5b81356130f181613300565b6000602082840312156133e557600080fd5b5035919050565b600080604083850312156133ff57600080fd5b823561340a81613300565b946020939093013593505050565b600080600080610100858703121561342f57600080fd5b6134398686613382565b935060c0850135925060e085013567ffffffffffffffff8111156132e857600080fd5b60006020828403121561346e57600080fd5b813560ff811681146130f157600080fd5b6000806040838503121561349257600080fd5b50508035926020909101359150565b634e487b7160e01b600052602160045260246000fd5b60028110610fca57634e487b7160e01b600052602160045260246000fd5b80516134e0816134b7565b8252602090810151910152565b600081518084526020808501945080840160005b8381101561354a5781516135168882516134d5565b8084015160408981019190915281015115156060808a01919091520151608088015260a09096019590820190600101613501565b509495945050505050565b600060208083526080808401855161356c816134b7565b85840152858301516060604080880182905282519384905260a093928601928489019060005b818110156135ed5785516135a78482516134d5565b808a01516001600160a01b03908116858701528582015116868501528581015189850152888101518885015287015160c08401529488019460e090920191600101613592565b505089820151898203601f1901848b0152965061360a81886134ed565b9a9950505050505050505050565b60008060008084860360c081121561362f57600080fd5b608081121561363d57600080fd5b508493506080850135925060a085013567ffffffffffffffff8111156132e857600080fd5b803563ffffffff8116811461367657600080fd5b919050565b60008060008060006080868803121561369357600080fd5b853594506136a360208701613662565b9350604086013567ffffffffffffffff8111156136bf57600080fd5b6136cb88828901613252565b90945092506136de905060608701613662565b90509295509295909350565b602081016136f7836134b7565b91905290565b60a0810161370b82876134d5565b60408201949094529115156060830152608090910152919050565b600080600080600080600060c0888a03121561374157600080fd5b61374a88613662565b965061375860208901613662565b955060408801359450606088013567ffffffffffffffff81111561377b57600080fd5b6137878a828b01613252565b909550935061379a905060808901613662565b91506137a860a08901613662565b905092959891949750929550565b60028110610fca57600080fd5b600080600080608085870312156137d957600080fd5b84356137e481613300565b935060208501356137f481613300565b92506040850135613804816137b6565b9150606085013561381481613300565b939692955090935050565b6020808252601c908201527f5061757361626c653a20636f6e74726163742069732070617573656400000000604082015260600190565b6020808252601f908201527f5265656e7472616e637947756172643a207265656e7472616e742063616c6c00604082015260600190565b8035613898816137b6565b6138a1816134b7565b8252602090810135910152565b60a081016138bc828461388d565b6138d6604083016040850180358252602090810135910152565b608092830135919092015290565b634e487b7160e01b600052601160045260246000fd5b60008282101561390c5761390c6138e4565b500390565b828152606081016130f1602083018480358252602090810135910152565b6020808252601c908201527f5469702065786365656473206465706f736974656420616d6f756e7400000000604082015260600190565b60c08101613974828461388d565b604083013561398281613300565b6001600160a01b0390811660408401526060840135906139a182613300565b1660608301526080838101359083015260a092830135929091019190915290565b6000602082840312156139d457600080fd5b5051919050565b6000602082840312156139ed57600080fd5b815180151581146130f157600080fd5b600060208284031215613a0f57600080fd5b81516130f181613300565b6020808252602a908201527f6d73672e73656e646572206973206e6f74207065726d697373696f6e6564206160408201526939903ab73830bab9b2b960b11b606082015260800190565b60208082526028908201527f6d73672e73656e646572206973206e6f74207065726d697373696f6e6564206160408201526739903830bab9b2b960c11b606082015260800190565b6000600019821415613ac057613ac06138e4565b5060010190565b634e487b7160e01b600052604160045260246000fd5b634e487b7160e01b600052603260045260246000fd5b60808101613b01828461388d565b604083013560408301526060830135613b1981613300565b6001600160a01b031660609290920191909152919050565b634e487b7160e01b600052601260045260246000fd5b600063ffffffff80841680613b5e57613b5e613b31565b92169190910492915050565b600063ffffffff808316818516808303821115613b8957613b896138e4565b01949350505050565b600063ffffffff83811690831681811015613baf57613baf6138e4565b039392505050565b60008219821115613bca57613bca6138e4565b500190565b600063ffffffff80841680613be657613be6613b31565b92169190910692915050565b600063ffffffff80831681811415613c0c57613c0c6138e4565b6001019392505050565b600081613c2557613c256138e4565b506000190190565b6020808252818101527f416d6f756e74206d7573742062652067726561746572207468616e207a65726f604082015260600190565b60005b83811015613c7d578181015183820152602001613c65565b83811115612eb95750506000910152565b60008251613ca0818460208701613c62565b9190910192915050565b6020815260008251806020840152613cc9816040850160208701613c62565b601f01601f1916919091016040019291505056fea2646970667358221220bf252608d69f661d66e85c4b1cc90c6b315afac0a418a8c90b6a622b6ebaa49164736f6c634300080c0033",
    "linkReferences": {}
  },
  "methodIdentifiers": {
    "CLOSED()": "0e2636a3",
    "NATIVE_TOKEN_ADDRESS()": "df2ebdbb",
    "calculate_root(bytes32,uint32,bytes32[],uint32)": "af26c695",
    "calculate_root_impl(uint32,uint32,bytes32,bytes32[],uint32,uint32)": "ef0ba5d0",
    "cancelResolutions(uint256)": "ca9b21ae",
    "chain()": "c763e5a1",
    "close_cancel(((uint8,uint256),(uint256,uint256),bytes32),bytes32,bytes32[])": "01ef6966",
    "close_deposit_refund(((uint8,uint256),uint256,address),bytes32,bytes32[])": "950ac487",
    "close_withdrawal(((uint8,uint256),address,address,uint256,uint256),bytes32,bytes32[])": "4bf5fec3",
    "counter()": "61bc221a",
    "deposit(address,uint256)": "47e7ef24",
    "deposit(address,uint256,uint256)": "0efe6a8b",
    "deposit_erc20(address,uint256)": "d16544f0",
    "deposit_erc20(address,uint256,uint256)": "08aba1b2",
    "deposit_native()": "c87c2224",
    "deposit_native(uint256)": "dffbdd9f",
    "ferry_withdrawal(((uint8,uint256),address,address,uint256,uint256))": "0cac57ab",
    "find_l2_batch(uint256)": "f9ecd01e",
    "getPendingRequests(uint256,uint256)": "79e041f2",
    "getUpdateForL2()": "b1538706",
    "initialize(address,address,uint8,address)": "ffea632b",
    "lastProcessedUpdate_origin_l1()": "7fd4f845",
    "lastProcessedUpdate_origin_l2()": "f26ee9d0",
    "merkleRootRange(bytes32)": "4f48eedf",
    "owner()": "8da5cb5b",
    "pause(uint256)": "136439dd",
    "pauseAll()": "595c6a67",
    "paused()": "5c975abb",
    "paused(uint8)": "5ac86ab7",
    "pauserRegistry()": "886f1195",
    "processedL2Requests(bytes32)": "de70e0b8",
    "renounceOwnership()": "715018a6",
    "setPauserRegistry(address)": "10d67a2f",
    "setUpdater(address)": "9d54f419",
    "transferOwnership(address)": "f2fde38b",
    "unpause(uint256)": "fabc1cbc",
    "update_l1_from_l2(bytes32,(uint256,uint256))": "08f42d40",
    "updaterAccount()": "71c54461"
  },
  "id": 129
}