{"abi":[{"type":"function","name":"ETH_TOKEN_ADDRESS","inputs":[],"outputs":[{"name":"","type":"address","internalType":"address"}],"stateMutability":"view"},{"type":"function","name":"cancelResolutions","inputs":[{"name":"","type":"uint256","internalType":"uint256"}],"outputs":[{"name":"requestId","type":"tuple","internalType":"struct IRolldownPrimitives.RequestId","components":[{"name":"origin","type":"uint8","internalType":"enum IRolldownPrimitives.Origin"},{"name":"id","type":"uint256","internalType":"uint256"}]},{"name":"l2RequestId","type":"uint256","internalType":"uint256"},{"name":"cancelJustified","type":"bool","internalType":"bool"},{"name":"timeStamp","type":"uint256","internalType":"uint256"}],"stateMutability":"view"},{"type":"function","name":"counter","inputs":[],"outputs":[{"name":"","type":"uint256","internalType":"uint256"}],"stateMutability":"view"},{"type":"function","name":"deposit","inputs":[{"name":"tokenAddress","type":"address","internalType":"address"},{"name":"amount","type":"uint256","internalType":"uint256"}],"outputs":[],"stateMutability":"nonpayable"},{"type":"function","name":"deposit_erc20","inputs":[{"name":"tokenAddress","type":"address","internalType":"address"},{"name":"amount","type":"uint256","internalType":"uint256"}],"outputs":[],"stateMutability":"nonpayable"},{"type":"function","name":"deposit_eth","inputs":[],"outputs":[],"stateMutability":"payable"},{"type":"function","name":"getPendingRequests","inputs":[{"name":"start","type":"uint256","internalType":"uint256"},{"name":"end","type":"uint256","internalType":"uint256"}],"outputs":[{"name":"","type":"tuple","internalType":"struct IRolldownPrimitives.L1Update","components":[{"name":"pendingDeposits","type":"tuple[]","internalType":"struct IRolldownPrimitives.Deposit[]","components":[{"name":"requestId","type":"tuple","internalType":"struct IRolldownPrimitives.RequestId","components":[{"name":"origin","type":"uint8","internalType":"enum IRolldownPrimitives.Origin"},{"name":"id","type":"uint256","internalType":"uint256"}]},{"name":"depositRecipient","type":"address","internalType":"address"},{"name":"tokenAddress","type":"address","internalType":"address"},{"name":"amount","type":"uint256","internalType":"uint256"},{"name":"timeStamp","type":"uint256","internalType":"uint256"}]},{"name":"pendingCancelResolutions","type":"tuple[]","internalType":"struct IRolldownPrimitives.CancelResolution[]","components":[{"name":"requestId","type":"tuple","internalType":"struct IRolldownPrimitives.RequestId","components":[{"name":"origin","type":"uint8","internalType":"enum IRolldownPrimitives.Origin"},{"name":"id","type":"uint256","internalType":"uint256"}]},{"name":"l2RequestId","type":"uint256","internalType":"uint256"},{"name":"cancelJustified","type":"bool","internalType":"bool"},{"name":"timeStamp","type":"uint256","internalType":"uint256"}]},{"name":"pendingWithdrawalResolutions","type":"tuple[]","internalType":"struct IRolldownPrimitives.WithdrawalResolution[]","components":[{"name":"requestId","type":"tuple","internalType":"struct IRolldownPrimitives.RequestId","components":[{"name":"origin","type":"uint8","internalType":"enum IRolldownPrimitives.Origin"},{"name":"id","type":"uint256","internalType":"uint256"}]},{"name":"l2RequestId","type":"uint256","internalType":"uint256"},{"name":"status","type":"bool","internalType":"bool"},{"name":"timeStamp","type":"uint256","internalType":"uint256"}]},{"name":"pendingL2UpdatesToRemove","type":"tuple[]","internalType":"struct IRolldownPrimitives.L2UpdatesToRemove[]","components":[{"name":"requestId","type":"tuple","internalType":"struct IRolldownPrimitives.RequestId","components":[{"name":"origin","type":"uint8","internalType":"enum IRolldownPrimitives.Origin"},{"name":"id","type":"uint256","internalType":"uint256"}]},{"name":"l2UpdatesToRemove","type":"uint256[]","internalType":"uint256[]"},{"name":"timeStamp","type":"uint256","internalType":"uint256"}]}]}],"stateMutability":"view"},{"type":"function","name":"getUpdateForL2","inputs":[],"outputs":[{"name":"","type":"tuple","internalType":"struct IRolldownPrimitives.L1Update","components":[{"name":"pendingDeposits","type":"tuple[]","internalType":"struct IRolldownPrimitives.Deposit[]","components":[{"name":"requestId","type":"tuple","internalType":"struct IRolldownPrimitives.RequestId","components":[{"name":"origin","type":"uint8","internalType":"enum IRolldownPrimitives.Origin"},{"name":"id","type":"uint256","internalType":"uint256"}]},{"name":"depositRecipient","type":"address","internalType":"address"},{"name":"tokenAddress","type":"address","internalType":"address"},{"name":"amount","type":"uint256","internalType":"uint256"},{"name":"timeStamp","type":"uint256","internalType":"uint256"}]},{"name":"pendingCancelResolutions","type":"tuple[]","internalType":"struct IRolldownPrimitives.CancelResolution[]","components":[{"name":"requestId","type":"tuple","internalType":"struct IRolldownPrimitives.RequestId","components":[{"name":"origin","type":"uint8","internalType":"enum IRolldownPrimitives.Origin"},{"name":"id","type":"uint256","internalType":"uint256"}]},{"name":"l2RequestId","type":"uint256","internalType":"uint256"},{"name":"cancelJustified","type":"bool","internalType":"bool"},{"name":"timeStamp","type":"uint256","internalType":"uint256"}]},{"name":"pendingWithdrawalResolutions","type":"tuple[]","internalType":"struct IRolldownPrimitives.WithdrawalResolution[]","components":[{"name":"requestId","type":"tuple","internalType":"struct IRolldownPrimitives.RequestId","components":[{"name":"origin","type":"uint8","internalType":"enum IRolldownPrimitives.Origin"},{"name":"id","type":"uint256","internalType":"uint256"}]},{"name":"l2RequestId","type":"uint256","internalType":"uint256"},{"name":"status","type":"bool","internalType":"bool"},{"name":"timeStamp","type":"uint256","internalType":"uint256"}]},{"name":"pendingL2UpdatesToRemove","type":"tuple[]","internalType":"struct IRolldownPrimitives.L2UpdatesToRemove[]","components":[{"name":"requestId","type":"tuple","internalType":"struct IRolldownPrimitives.RequestId","components":[{"name":"origin","type":"uint8","internalType":"enum IRolldownPrimitives.Origin"},{"name":"id","type":"uint256","internalType":"uint256"}]},{"name":"l2UpdatesToRemove","type":"uint256[]","internalType":"uint256[]"},{"name":"timeStamp","type":"uint256","internalType":"uint256"}]}]}],"stateMutability":"view"},{"type":"function","name":"initialize","inputs":[{"name":"_pauserRegistry","type":"address","internalType":"contract IPauserRegistry"},{"name":"initialOwner","type":"address","internalType":"address"}],"outputs":[],"stateMutability":"nonpayable"},{"type":"function","name":"lastProcessedUpdate_origin_l1","inputs":[],"outputs":[{"name":"","type":"uint256","internalType":"uint256"}],"stateMutability":"view"},{"type":"function","name":"lastProcessedUpdate_origin_l2","inputs":[],"outputs":[{"name":"","type":"uint256","internalType":"uint256"}],"stateMutability":"view"},{"type":"function","name":"owner","inputs":[],"outputs":[{"name":"","type":"address","internalType":"address"}],"stateMutability":"view"},{"type":"function","name":"pause","inputs":[{"name":"newPausedStatus","type":"uint256","internalType":"uint256"}],"outputs":[],"stateMutability":"nonpayable"},{"type":"function","name":"pauseAll","inputs":[],"outputs":[],"stateMutability":"nonpayable"},{"type":"function","name":"paused","inputs":[{"name":"index","type":"uint8","internalType":"uint8"}],"outputs":[{"name":"","type":"bool","internalType":"bool"}],"stateMutability":"view"},{"type":"function","name":"paused","inputs":[],"outputs":[{"name":"","type":"uint256","internalType":"uint256"}],"stateMutability":"view"},{"type":"function","name":"pauserRegistry","inputs":[],"outputs":[{"name":"","type":"address","internalType":"contract IPauserRegistry"}],"stateMutability":"view"},{"type":"function","name":"pendingEthWithdrawals","inputs":[{"name":"","type":"address","internalType":"address"}],"outputs":[{"name":"","type":"uint256","internalType":"uint256"}],"stateMutability":"view"},{"type":"function","name":"renounceOwnership","inputs":[],"outputs":[],"stateMutability":"nonpayable"},{"type":"function","name":"setPauserRegistry","inputs":[{"name":"newPauserRegistry","type":"address","internalType":"contract IPauserRegistry"}],"outputs":[],"stateMutability":"nonpayable"},{"type":"function","name":"transferOwnership","inputs":[{"name":"newOwner","type":"address","internalType":"address"}],"outputs":[],"stateMutability":"nonpayable"},{"type":"function","name":"unpause","inputs":[{"name":"newPausedStatus","type":"uint256","internalType":"uint256"}],"outputs":[],"stateMutability":"nonpayable"},{"type":"function","name":"update_l1_from_l2","inputs":[{"name":"inputArray","type":"tuple","internalType":"struct IRolldownPrimitives.L2Update","components":[{"name":"cancels","type":"tuple[]","internalType":"struct IRolldownPrimitives.Cancel[]","components":[{"name":"requestId","type":"tuple","internalType":"struct IRolldownPrimitives.RequestId","components":[{"name":"origin","type":"uint8","internalType":"enum IRolldownPrimitives.Origin"},{"name":"id","type":"uint256","internalType":"uint256"}]},{"name":"range","type":"tuple","internalType":"struct IRolldownPrimitives.Range","components":[{"name":"start","type":"uint256","internalType":"uint256"},{"name":"end","type":"uint256","internalType":"uint256"}]},{"name":"hash","type":"bytes32","internalType":"bytes32"}]},{"name":"withdrawals","type":"tuple[]","internalType":"struct IRolldownPrimitives.Withdrawal[]","components":[{"name":"requestId","type":"tuple","internalType":"struct IRolldownPrimitives.RequestId","components":[{"name":"origin","type":"uint8","internalType":"enum IRolldownPrimitives.Origin"},{"name":"id","type":"uint256","internalType":"uint256"}]},{"name":"withdrawalRecipient","type":"address","internalType":"address"},{"name":"tokenAddress","type":"address","internalType":"address"},{"name":"amount","type":"uint256","internalType":"uint256"}]},{"name":"results","type":"tuple[]","internalType":"struct IRolldownPrimitives.RequestResult[]","components":[{"name":"requestId","type":"tuple","internalType":"struct IRolldownPrimitives.RequestId","components":[{"name":"origin","type":"uint8","internalType":"enum IRolldownPrimitives.Origin"},{"name":"id","type":"uint256","internalType":"uint256"}]},{"name":"originRequestId","type":"uint256","internalType":"uint256"},{"name":"updateType","type":"uint8","internalType":"enum IRolldownPrimitives.UpdateType"},{"name":"status","type":"bool","internalType":"bool"}]}]}],"outputs":[],"stateMutability":"nonpayable"},{"type":"function","name":"withdraw_pending_eth","inputs":[{"name":"amount","type":"uint256","internalType":"uint256"}],"outputs":[],"stateMutability":"nonpayable"},{"type":"function","name":"withdrawalResolutions","inputs":[{"name":"","type":"uint256","internalType":"uint256"}],"outputs":[{"name":"requestId","type":"tuple","internalType":"struct IRolldownPrimitives.RequestId","components":[{"name":"origin","type":"uint8","internalType":"enum IRolldownPrimitives.Origin"},{"name":"id","type":"uint256","internalType":"uint256"}]},{"name":"l2RequestId","type":"uint256","internalType":"uint256"},{"name":"status","type":"bool","internalType":"bool"},{"name":"timeStamp","type":"uint256","internalType":"uint256"}],"stateMutability":"view"},{"type":"event","name":"DepositAcceptedIntoQueue","inputs":[{"name":"requestId","type":"uint256","indexed":false,"internalType":"uint256"},{"name":"depositRecipient","type":"address","indexed":false,"internalType":"address"},{"name":"tokenAddress","type":"address","indexed":false,"internalType":"address"},{"name":"amount","type":"uint256","indexed":false,"internalType":"uint256"}],"anonymous":false},{"type":"event","name":"DisputeResolutionAcceptedIntoQueue","inputs":[{"name":"requestId","type":"uint256","indexed":false,"internalType":"uint256"},{"name":"cancelJustified","type":"bool","indexed":false,"internalType":"bool"}],"anonymous":false},{"type":"event","name":"EthWithdrawPending","inputs":[{"name":"sender","type":"address","indexed":false,"internalType":"address"},{"name":"amount","type":"uint256","indexed":false,"internalType":"uint256"}],"anonymous":false},{"type":"event","name":"FundsReturned","inputs":[{"name":"depositRecipient","type":"address","indexed":false,"internalType":"address"},{"name":"tokenAddress","type":"address","indexed":false,"internalType":"address"},{"name":"amount","type":"uint256","indexed":false,"internalType":"uint256"}],"anonymous":false},{"type":"event","name":"FundsWithdrawn","inputs":[{"name":"withdrawRecipient","type":"address","indexed":false,"internalType":"address"},{"name":"tokenAddress","type":"address","indexed":false,"internalType":"address"},{"name":"amount","type":"uint256","indexed":false,"internalType":"uint256"}],"anonymous":false},{"type":"event","name":"Initialized","inputs":[{"name":"version","type":"uint8","indexed":false,"internalType":"uint8"}],"anonymous":false},{"type":"event","name":"L2UpdatesToRemovedAcceptedIntoQueue","inputs":[{"name":"requestId","type":"uint256","indexed":false,"internalType":"uint256"},{"name":"l2UpdatesToRemove","type":"uint256[]","indexed":false,"internalType":"uint256[]"}],"anonymous":false},{"type":"event","name":"OwnershipTransferred","inputs":[{"name":"previousOwner","type":"address","indexed":true,"internalType":"address"},{"name":"newOwner","type":"address","indexed":true,"internalType":"address"}],"anonymous":false},{"type":"event","name":"Paused","inputs":[{"name":"account","type":"address","indexed":true,"internalType":"address"},{"name":"newPausedStatus","type":"uint256","indexed":false,"internalType":"uint256"}],"anonymous":false},{"type":"event","name":"PauserRegistrySet","inputs":[{"name":"pauserRegistry","type":"address","indexed":false,"internalType":"contract IPauserRegistry"},{"name":"newPauserRegistry","type":"address","indexed":false,"internalType":"contract IPauserRegistry"}],"anonymous":false},{"type":"event","name":"PendingEthWithdrawn","inputs":[{"name":"sender","type":"address","indexed":false,"internalType":"address"},{"name":"amount","type":"uint256","indexed":false,"internalType":"uint256"}],"anonymous":false},{"type":"event","name":"Unpaused","inputs":[{"name":"account","type":"address","indexed":true,"internalType":"address"},{"name":"newPausedStatus","type":"uint256","indexed":false,"internalType":"uint256"}],"anonymous":false},{"type":"event","name":"WithdrawalResolutionAcceptedIntoQueue","inputs":[{"name":"requestId","type":"uint256","indexed":false,"internalType":"uint256"},{"name":"success","type":"bool","indexed":false,"internalType":"bool"}],"anonymous":false},{"type":"event","name":"cancelAndCalculatedHash","inputs":[{"name":"cancelHash","type":"bytes32","indexed":false,"internalType":"bytes32"},{"name":"calculatedHash","type":"bytes32","indexed":false,"internalType":"bytes32"}],"anonymous":false}],"bytecode":{"object":"0x608060405234801561001057600080fd5b5061383f806100206000396000f3fe6080604052600436106101665760003560e01c806379e041f2116100d1578063a80fc9bd1161008a578063d16544f011610064578063d16544f01461042c578063f26ee9d01461044c578063f2fde38b14610462578063fabc1cbc1461048257600080fd5b8063a80fc9bd146103c7578063b1538706146103f7578063ca9b21ae1461040c57600080fd5b806379e041f2146102f95780637fd4f8451461032657806380bc280c1461033c578063886f1195146103695780638da5cb5b14610389578063a7acab46146103a757600080fd5b80635740b89d116101235780635740b89d1461023a578063595c6a671461025a5780635ac86ab71461026f5780635c975abb146102af57806361bc221a146102ce578063715018a6146102e457600080fd5b806310d67a2f1461016b578063136439dd1461018d5780631878d1f1146101ad578063274b3df4146101f257806347e7ef24146101fa578063485cc9551461021a575b600080fd5b34801561017757600080fd5b5061018b6101863660046130d3565b6104a2565b005b34801561019957600080fd5b5061018b6101a83660046130f0565b61055e565b3480156101b957600080fd5b506101d573574839586746383753739573937593749373345781565b6040516001600160a01b0390911681526020015b60405180910390f35b61018b61069d565b34801561020657600080fd5b5061018b610215366004613109565b61088e565b34801561022657600080fd5b5061018b610235366004613135565b6108bc565b34801561024657600080fd5b5061018b61025536600461316e565b6109ea565b34801561026657600080fd5b5061018b610c5e565b34801561027b57600080fd5b5061029f61028a3660046131a9565b606654600160ff9092169190911b9081161490565b60405190151581526020016101e9565b3480156102bb57600080fd5b506066545b6040519081526020016101e9565b3480156102da57600080fd5b506102c060975481565b3480156102f057600080fd5b5061018b610d25565b34801561030557600080fd5b506103196103143660046131cc565b610d39565b6040516101e99190613347565b34801561033257600080fd5b506102c060985481565b34801561034857600080fd5b506102c06103573660046130d3565b609e6020526000908152604090205481565b34801561037557600080fd5b506065546101d5906001600160a01b031681565b34801561039557600080fd5b506033546001600160a01b03166101d5565b3480156103b357600080fd5b5061018b6103c23660046130f0565b6113c6565b3480156103d357600080fd5b506103e76103e23660046130f0565b611561565b6040516101e99493929190613432565b34801561040357600080fd5b506103196115d3565b34801561041857600080fd5b506103e76104273660046130f0565b611624565b34801561043857600080fd5b5061018b610447366004613109565b611659565b34801561045857600080fd5b506102c060995481565b34801561046e57600080fd5b5061018b61047d3660046130d3565b611924565b34801561048e57600080fd5b5061018b61049d3660046130f0565b61199a565b606560009054906101000a90046001600160a01b03166001600160a01b031663eab66d7a6040518163ffffffff1660e01b8152600401602060405180830381865afa1580156104f5573d6000803e3d6000fd5b505050506040513d601f19601f82011682018060405250810190610519919061345b565b6001600160a01b0316336001600160a01b0316146105525760405162461bcd60e51b815260040161054990613478565b60405180910390fd5b61055b81611af6565b50565b60655460405163237dfb4760e11b81523360048201526001600160a01b03909116906346fbf68e90602401602060405180830381865afa1580156105a6573d6000803e3d6000fd5b505050506040513d601f19601f820116820180604052508101906105ca91906134d0565b6105e65760405162461bcd60e51b8152600401610549906134ed565b6066548181161461065f5760405162461bcd60e51b815260206004820152603860248201527f5061757361626c652e70617573653a20696e76616c696420617474656d70742060448201527f746f20756e70617573652066756e6374696f6e616c69747900000000000000006064820152608401610549565b606681905560405181815233907fab40a374bc51de372200a8bc981af8c9ecdc08dfdaef0bb6e09f88f3c616ef3d906020015b60405180910390a250565b606654156106bd5760405162461bcd60e51b815260040161054990613535565b6000341161070d5760405162461bcd60e51b815260206004820181905260248201527f6d73672076616c7565206d7573742062652067726561746572207468617420306044820152606401610549565b6040805160e081019091523390349042906000908060a08101808481526020016097600081548092919061074090613582565b90915550905281526001600160a01b03861660208083019190915273574839586746383753739573937593749373345760408084019190915260608301879052608090920185905282518101516000908152609c909152208151805182549394508493839190829060ff1916600183818111156107bf576107bf6131ee565b021790555060209182015160019190910155828101516002830180546001600160a01b03199081166001600160a01b03938416179091556040808601516003860180549093169084161790915560608086015160048601556080958601516005909501949094558551830151815190815291891692820192909252735748395867463837537395739375937493733457918101919091529081018590527fe28491c2da97a9923c92f6590a040dfc143fe636e8545356cdab0a796e1acefa91015b60405180910390a150505050565b606654156108ae5760405162461bcd60e51b815260040161054990613535565b6108b88282611659565b5050565b600054610100900460ff16158080156108dc5750600054600160ff909116105b806108f65750303b1580156108f6575060005460ff166001145b6109595760405162461bcd60e51b815260206004820152602e60248201527f496e697469616c697a61626c653a20636f6e747261637420697320616c72656160448201526d191e481a5b9a5d1a585b1a5e995960921b6064820152608401610549565b6000805460ff19166001179055801561097c576000805461ff0019166101001790555b610987836000611bed565b61099082611cd3565b60006098819055600160975560995580156109e5576000805461ff0019169055604051600181527f7f26b83ff96e1f2b6a682f133852f6798a09c465da95921460cefb38474024989060200160405180910390a15b505050565b60665415610a0a5760405162461bcd60e51b815260040161054990613535565b6001610a19604083018361359d565b9050101580610a3457506001610a2f828061359d565b905010155b80610a4e57506001610a49602083018361359d565b905010155b610aa45760405162461bcd60e51b815260206004820152602160248201527f4172726179206d7573742068617665206174206c6561737420312075706461746044820152606560f81b6064820152608401610549565b600080610ab083611d25565b915091508160001415610ad55760405162461bcd60e51b8152600401610549906135ed565b609954610ae3906001613617565b821115610b025760405162461bcd60e51b8152600401610549906135ed565b6099548111610b235760405162461bcd60e51b8152600401610549906135ed565b6000610b2f8385611e5b565b90506000610b4982610b44604088018861359d565b6121d5565b9050610b55828661249b565b805115610c57576097805460009182610b6d83613582565b909155506040805160a08101909152909150806060810180600081526020908101859052908252818101859052426040928301526000848152609d90915220815180518254839190829060ff191660018381811115610bce57610bce6131ee565b0217905550602091820151600190910155828101518051610bf5926002850192019061305e565b5060408201518160030155905050815160986000828254610c169190613617565b90915550506040517f09b30365986269e3939307e7ca7b7b7421a8ad08ef18bb766c668d27cbc2aef990610c4d908390859061362f565b60405180910390a1505b5050505050565b60655460405163237dfb4760e11b81523360048201526001600160a01b03909116906346fbf68e90602401602060405180830381865afa158015610ca6573d6000803e3d6000fd5b505050506040513d601f19601f82011682018060405250810190610cca91906134d0565b610ce65760405162461bcd60e51b8152600401610549906134ed565b600019606681905560405190815233907fab40a374bc51de372200a8bc981af8c9ecdc08dfdaef0bb6e09f88f3c616ef3d9060200160405180910390a2565b610d2d61269b565b610d376000611cd3565b565b610d646040518060800160405280606081526020016060815260200160608152602001606081525090565b610d8f6040518060800160405280606081526020016060815260200160608152602001606081525090565b6000808080875b878111610e4f576000818152609c602052604090206001015415610dc65784610dbe81613582565b955050610e3d565b6000818152609d602052604090206001015415610def5781610de781613582565b925050610e3d565b6000818152609a602052604090206001015415610e185783610e1081613582565b945050610e3d565b6000818152609b602052604090206001015415610e3d5782610e3981613582565b9350505b80610e4781613582565b915050610d96565b508367ffffffffffffffff811115610e6957610e69613650565b604051908082528060200260200182016040528015610ecf57816020015b6040805160e081018252600060a0820181815260c08301829052825260208083018290529282018190526060820181905260808201528252600019909201910181610e875790505b5085528167ffffffffffffffff811115610eeb57610eeb613650565b604051908082528060200260200182016040528015610f4a57816020015b6040805160c08101825260006080820181815260a083018290528252602080830182905292820181905260608201528252600019909201910181610f095790505b5060208601528267ffffffffffffffff811115610f6957610f69613650565b604051908082528060200260200182016040528015610fc857816020015b6040805160c08101825260006080820181815260a083018290528252602080830182905292820181905260608201528252600019909201910181610f875790505b5060408601528067ffffffffffffffff811115610fe757610fe7613650565b60405190808252806020026020018201604052801561104157816020015b6040805160a081018252600060608083018281526080840183905283526020830152918101919091528152602001906001900390816110055790505b506060860152506000925082915081905080875b8781116113b7576000818152609c602052604090206001015415611136576000818152609c602052604090819020815160e081019092528054829060a08201908390829060ff1660018111156110ad576110ad6131ee565b60018111156110be576110be6131ee565b81526001919091015460209182015290825260028301546001600160a01b039081169183019190915260038301541660408201526004820154606082015260059091015460809091015286518661111481613582565b97508151811061112657611126613666565b60200260200101819052506113a5565b6000818152609a6020526040902060010154156111f1576000818152609a602052604090819020815160c081019092528054829060808201908390829060ff166001811115611187576111876131ee565b6001811115611198576111986131ee565b815260019190910154602091820152908252600283015490820152600382015460ff161515604080830191909152600490920154606090910152870151856111df81613582565b96508151811061112657611126613666565b6000818152609d6020526040902060010154156112e9576000818152609d602052604090819020815160a081019092528054829060608201908390829060ff166001811115611242576112426131ee565b6001811115611253576112536131ee565b81526020016001820154815250508152602001600282018054806020026020016040519081016040528092919081815260200182805480156112b457602002820191906000526020600020905b8154815260200190600101908083116112a0575b50505050508152602001600382015481525050866060015183806112d790613582565b94508151811061112657611126613666565b6000818152609b6020526040902060020154156113a0576000818152609b602052604090819020815160c081019092528054829060808201908390829060ff16600181111561133a5761133a6131ee565b600181111561134b5761134b6131ee565b815260019190910154602091820152908252600283015482820152600383015460ff16151560408301526004909201546060909101528701518461138e81613582565b95508151811061112657611126613666565b6113b7565b806113af81613582565b915050611055565b50939450505050505b92915050565b606654156113e65760405162461bcd60e51b815260040161054990613535565b600081116114365760405162461bcd60e51b815260206004820181905260248201527f416d6f756e74206d7573742062652067726561746572207468616e207a65726f6044820152606401610549565b336000818152609e60205260409020548211156114a05760405162461bcd60e51b815260206004820152602260248201527f6e6f7420656e6f7567682070656e64696e6720776974686472617720616d6f756044820152611b9d60f21b6064820152608401610549565b30318211156114e85760405162461bcd60e51b81526020600482015260146024820152736e6f7420656e6f756768206574682066756e647360601b6044820152606401610549565b6001600160a01b0381166000908152609e60205260408120805484929061151090849061367c565b9091555050604080516001600160a01b0383168152602081018490527f74b13e26477934df4349c96042c16ffb2ec5e0f902cdf60e4755711cd460ce99910160405180910390a16108b881836126f5565b609a6020526000908152604090819020815180830190925280549091908290829060ff166001811115611596576115966131ee565b60018111156115a7576115a76131ee565b815260019190910154602090910152600282015460038301546004909301549192909160ff9091169084565b6115fe6040518060800160405280606081526020016060815260200160608152602001606081525090565b61161f60985460016116109190613617565b6001609754610314919061367c565b905090565b609b6020526000908152604090819020815180830190925280549091908290829060ff166001811115611596576115966131ee565b606654156116795760405162461bcd60e51b815260040161054990613535565b6001600160a01b0382166116c75760405162461bcd60e51b8152602060048201526015602482015274496e76616c696420746f6b656e206164647265737360581b6044820152606401610549565b600081116117175760405162461bcd60e51b815260206004820181905260248201527f416d6f756e74206d7573742062652067726561746572207468616e207a65726f6044820152606401610549565b6040516323b872dd60e01b81523360048201819052306024830152604482018390529083906001600160a01b038216906323b872dd906064016020604051808303816000875af115801561176f573d6000803e3d6000fd5b505050506040513d601f19601f8201168201806040525081019061179391906134d0565b6117d75760405162461bcd60e51b8152602060048201526015602482015274151bdad95b881d1c985b9cd9995c8819985a5b1959605a1b6044820152606401610549565b6040805160e0810190915242906000908060a08101808481526020016097600081548092919061180690613582565b90915550905281526001600160a01b0380871660208084019190915290891660408084019190915260608301899052608090920185905282518101516000908152609c909152208151805182549394508493839190829060ff191660018381811115611874576118746131ee565b021790555060209182015160019190910155828101516002830180546001600160a01b03199081166001600160a01b03938416179091556040808601516003860180549093169084161790915560608086015160048601556080958601516005909501949094558551830151815190815289831693810193909352908a16908201529081018790527fe28491c2da97a9923c92f6590a040dfc143fe636e8545356cdab0a796e1acefa9101610c4d565b61192c61269b565b6001600160a01b0381166119915760405162461bcd60e51b815260206004820152602660248201527f4f776e61626c653a206e6577206f776e657220697320746865207a65726f206160448201526564647265737360d01b6064820152608401610549565b61055b81611cd3565b606560009054906101000a90046001600160a01b03166001600160a01b031663eab66d7a6040518163ffffffff1660e01b8152600401602060405180830381865afa1580156119ed573d6000803e3d6000fd5b505050506040513d601f19601f82011682018060405250810190611a11919061345b565b6001600160a01b0316336001600160a01b031614611a415760405162461bcd60e51b815260040161054990613478565b606654198119606654191614611abf5760405162461bcd60e51b815260206004820152603860248201527f5061757361626c652e756e70617573653a20696e76616c696420617474656d7060448201527f7420746f2070617573652066756e6374696f6e616c69747900000000000000006064820152608401610549565b606681905560405181815233907f3582d1828e26bf56bd801502bc021ac0bc8afb57c826e4986b45593c8fad389c90602001610692565b6001600160a01b038116611b845760405162461bcd60e51b815260206004820152604960248201527f5061757361626c652e5f73657450617573657252656769737472793a206e657760448201527f50617573657252656769737472792063616e6e6f7420626520746865207a65726064820152686f206164647265737360b81b608482015260a401610549565b606554604080516001600160a01b03928316815291831660208301527f6e9fcd539896fca60e8b0f01dd580233e48a6b0f7df013b89ba7f565869acdb6910160405180910390a1606580546001600160a01b0319166001600160a01b0392909216919091179055565b6065546001600160a01b0316158015611c0e57506001600160a01b03821615155b611c905760405162461bcd60e51b815260206004820152604760248201527f5061757361626c652e5f696e697469616c697a655061757365723a205f696e6960448201527f7469616c697a6550617573657228292063616e206f6e6c792062652063616c6c6064820152666564206f6e636560c81b608482015260a401610549565b606681905560405181815233907fab40a374bc51de372200a8bc981af8c9ecdc08dfdaef0bb6e09f88f3c616ef3d9060200160405180910390a26108b882611af6565b603380546001600160a01b038381166001600160a01b0319831681179093556040519116919082907f8be0079c531659141344cd1fd0a4f28419497f9722a3daafe3b4186f6b6457e090600090a35050565b6000806000198180611d37868061359d565b90501115611dbb57611d70611d4c868061359d565b6000818110611d5d57611d5d613666565b905060a00201600001602001358361280e565b9150611db8611d7f868061359d565b6001611d8b898061359d565b611d9692915061367c565b818110611da557611da5613666565b905060a002016000016020013582612824565b90505b6000611dca602087018761359d565b90501115611e0657611de2611d4c602087018761359d565b9150611e03611df4602087018761359d565b6001611d8b60208a018a61359d565b90505b6000611e15604087018761359d565b90501115611e5157611e2d611d4c604087018761359d565b9150611e4e611e3f604087018761359d565b6001611d8b60408a018a61359d565b90505b9094909350915050565b6060611e6a604083018361359d565b1590508015611e825750611e7e828061359d565b1590505b8015611e9a5750611e96602083018361359d565b1590505b15611eb457506040805160008152602081019091526113c0565b600080808080611ec7604088018861359d565b9050611ed6602089018961359d565b9050611ee2898061359d565b611eed929150613617565b611ef79190613617565b905060008167ffffffffffffffff811115611f1457611f14613650565b604051908082528060200260200182016040528015611f3d578160200160208202803683370190505b509050885b611f4c838b613617565b8110156121c857611f6060208a018a61359d565b905087108015611f98575080611f7960208b018b61359d565b89818110611f8957611f89613666565b905060a0020160000160200135145b15612000576001828581518110611fb157611fb1613666565b60200260200101906005811115611fca57611fca6131ee565b90816005811115611fdd57611fdd6131ee565b90525086611fea81613582565b9750508380611ff890613582565b9450506121b6565b61200a898061359d565b90508610801561203f5750806120208a8061359d565b8881811061203057612030613666565b905060a0020160000160200135145b1561209f57600482858151811061205857612058613666565b60200260200101906005811115612071576120716131ee565b90816005811115612084576120846131ee565b9052508561209181613582565b9650508380611ff890613582565b6120ac60408a018a61359d565b9050851080156120e45750806120c560408b018b61359d565b878181106120d5576120d5613666565b905060a0020160000160200135145b156121445760038285815181106120fd576120fd613666565b60200260200101906005811115612116576121166131ee565b90816005811115612129576121296131ee565b9052508461213681613582565b9550508380611ff890613582565b61217a604051806040016040528060158152602001743932b8bab2b9ba39903737ba1034b71037b93232b960591b815250612833565b60405162461bcd60e51b8152602060048201526011602482015270696e76616c696465204c3255706461746560781b6044820152606401610549565b806121c081613582565b915050611f42565b5098975050505050505050565b6060816121f15750604080516000815260208101909152612494565b6000808367ffffffffffffffff81111561220d5761220d613650565b604051908082528060200260200182016040528015612236578160200160208202803683370190505b5090506000805b87518110156123f157600388828151811061225a5761225a613666565b60200260200101516005811115612273576122736131ee565b14156123df57600087878461228781613582565b955081811061229857612298613666565b905060a002018036038101906122ae919061370b565b9050609954816000015160200151116122c757506123df565b6000816040015160058111156122df576122df6131ee565b148061230057506003816040015160058111156122fe576122fe6131ee565b145b80612320575060058160400151600581111561231e5761231e6131ee565b145b80612340575060028160400151600581111561233e5761233e6131ee565b145b1561239e576020810151848661235581613582565b97508151811061236757612367613666565b602090810291909101015260008160400151600581111561238a5761238a6131ee565b14156123995761239981612876565b6123dd565b60405162461bcd60e51b8152602060048201526014602482015273756e6b6e6f776e2072657175657374207479706560601b6044820152606401610549565b505b806123e981613582565b91505061223d565b5060008367ffffffffffffffff81111561240d5761240d613650565b604051908082528060200260200182016040528015612436578160200160208202803683370190505b50905060005b8481101561248d5783818151811061245657612456613666565b602002602001015182828151811061247057612470613666565b60209081029190910101528061248581613582565b91505061243c565b5093505050505b9392505050565b6000806000805b85518110156126935760018682815181106124bf576124bf613666565b602002602001015160058111156124d8576124d86131ee565b141561254957366124ec602087018761359d565b856124f681613582565b965081811061250757612507613666565b905060a0020190506099548160000160200135116125255750612681565b61252e816129fd565b6099805490600061253e83613582565b919050555050612681565b600486828151811061255d5761255d613666565b60200260200101516005811115612576576125766131ee565b14156125c95736612587868061359d565b8661259181613582565b97508181106125a2576125a2613666565b905060a0020190506099548160000160200135116125c05750612681565b61252e81612a43565b60038682815181106125dd576125dd613666565b602002602001015160058111156125f6576125f66131ee565b1415612643573661260a604087018761359d565b8461261481613582565b955081811061262557612625613666565b905060a00201905060995481600001602001351161252e5750612681565b60405162461bcd60e51b8152602060048201526013602482015272756e6b6e6f776e20757064617465207479706560681b6044820152606401610549565b8061268b81613582565b9150506124a2565b505050505050565b6033546001600160a01b03163314610d375760405162461bcd60e51b815260206004820181905260248201527f4f776e61626c653a2063616c6c6572206973206e6f7420746865206f776e65726044820152606401610549565b804710156127455760405162461bcd60e51b815260206004820152601d60248201527f416464726573733a20696e73756666696369656e742062616c616e63650000006044820152606401610549565b6000826001600160a01b03168260405160006040518083038185875af1925050503d8060008114612792576040519150601f19603f3d011682016040523d82523d6000602084013e612797565b606091505b50509050806109e55760405162461bcd60e51b815260206004820152603a60248201527f416464726573733a20756e61626c6520746f2073656e642076616c75652c207260448201527f6563697069656e74206d617920686176652072657665727465640000000000006064820152608401610549565b600081831061281d5781612494565b5090919050565b600081831161281d5781612494565b61055b81604051602401612847919061379b565b60408051601f198184030181529190526020810180516001600160e01b031663104c13eb60e21b179052612ba3565b806060015161055b5780516020908101516000818152609c9092526040808320815160e081019092528054929392829060a08201908390829060ff1660018111156128c3576128c36131ee565b60018111156128d4576128d46131ee565b81526001919091015460209182015290825260028301546001600160a01b039081168383015260038401548116604080850191909152600480860154606080870191909152600590960154608090950194909452858101519286015194860151905163a9059cbb60e01b815294821693850193909352602484019290925292935082169063a9059cbb906044016020604051808303816000875af1158015612980573d6000803e3d6000fd5b505050506040513d601f19601f820116820180604052508101906129a491906134d0565b5060208083015160408085015160608087015183516001600160a01b0395861681529490921694840194909452908201527fd94415916610c60b0e0e439fd308b171a6e28fad608830cf17f14ff5928e22799101610880565b735748395867463837537395739375937493733457612a2260808301606084016130d3565b6001600160a01b03161415612a3a5761055b81612bc4565b61055b81612dbf565b6000612a5760408301356060840135610d39565b9050600081604051602001612a6c9190613347565b60408051601f19818403018152828252805160209091012060c083019091529150429060009080608081018084815260200160976000815480929190612ab190613582565b90915550905281526020878101358183015260808801358614604080840191909152606090920185905282518101516000908152609b909152208151805182549394508493839190829060ff191660018381811115612b1257612b126131ee565b021790555060209182015160019091015582810151600283015560408084015160038401805491151560ff199092169190911790556060909301516004909201919091558201518282015191517fd16f202ac5905ff5d1851f4805ffe56d1212db32fa989881d0044b9cf0f7277692612b949282521515602082015260400190565b60405180910390a15050505050565b80516a636f6e736f6c652e6c6f67602083016000808483855afa5050505050565b6040805160c081019091526080808301353031101591429160009190819081018084815260200160976000815480929190612bfe90613582565b909155509052815260208681013581830152851515604080840191909152606090920185905282518101516000908152609a909152208151805182549394508493839190829060ff191660018381811115612c5b57612c5b6131ee565b02179055506020918201516001919091015582810151600283015560408084015160038401805460ff191691151591909117905560609093015160049092019190915582518101518251908152851515918101919091527f0c4873525770dbb64515e9d3950131f79ed8f72ff147ff1723bbe2e77e3791aa910160405180910390a18215612db9576080840135609e6000612cfc60608801604089016130d3565b6001600160a01b03166001600160a01b031681526020019081526020016000206000828254612d2b9190613617565b909155507fe40f985f6a88d7d060348dc647fb85bb6365eee1437a753cd67141bc3eda8fa99050612d6260608601604087016130d3565b609e6000612d766060890160408a016130d3565b6001600160a01b03166001600160a01b03168152602001908152602001600020546040516108809291906001600160a01b03929092168252602082015260400190565b50505050565b6000612dd160808301606084016130d3565b6040516370a0823160e01b81523060048201529091506000906080840135906001600160a01b038416906370a0823190602401602060405180830381865afa158015612e21573d6000803e3d6000fd5b505050506040513d601f19601f82011682018060405250810190612e4591906137f0565b6040805160c081019091529111159150429060009080608081018084815260200160976000815480929190612e7990613582565b909155509052815260208781013581830152851515604080840191909152606090920185905282518101516000908152609a909152208151805182549394508493839190829060ff191660018381811115612ed657612ed66131ee565b02179055506020918201516001919091015582810151600283015560408084015160038401805460ff191691151591909117905560609093015160049092019190915582518101518251908152851515918101919091527f0c4873525770dbb64515e9d3950131f79ed8f72ff147ff1723bbe2e77e3791aa910160405180910390a18215610c57576001600160a01b03841663a9059cbb612f7d60608801604089016130d3565b6040516001600160e01b031960e084901b1681526001600160a01b039091166004820152608088013560248201526044016020604051808303816000875af1158015612fcd573d6000803e3d6000fd5b505050506040513d601f19601f82011682018060405250810190612ff191906134d0565b507fa92ff919b850e4909ab2261d907ef955f11bc1716733a6cbece38d163a69af8a61302360608701604088016130d3565b61303360808801606089016130d3565b604080516001600160a01b039384168152929091166020830152608088013590820152606001612b94565b828054828255906000526020600020908101928215613099579160200282015b8281111561309957825182559160200191906001019061307e565b506130a59291506130a9565b5090565b5b808211156130a557600081556001016130aa565b6001600160a01b038116811461055b57600080fd5b6000602082840312156130e557600080fd5b8135612494816130be565b60006020828403121561310257600080fd5b5035919050565b6000806040838503121561311c57600080fd5b8235613127816130be565b946020939093013593505050565b6000806040838503121561314857600080fd5b8235613153816130be565b91506020830135613163816130be565b809150509250929050565b60006020828403121561318057600080fd5b813567ffffffffffffffff81111561319757600080fd5b82016060818503121561249457600080fd5b6000602082840312156131bb57600080fd5b813560ff8116811461249457600080fd5b600080604083850312156131df57600080fd5b50508035926020909101359150565b634e487b7160e01b600052602160045260246000fd5b80516002811061322457634e487b7160e01b600052602160045260246000fd5b8252602090810151910152565b600081518084526020808501945080840160005b8381101561328e57815161325a888251613204565b8084015160408981019190915281015115156060808a01919091520151608088015260a09096019590820190600101613245565b509495945050505050565b600081518084526020808501945080840160005b8381101561328e578151875295820195908201906001016132ad565b600081518084526020808501808196508360051b8101915082860160005b8581101561333a57828403895281516080613303868351613204565b868201516040828189015261331a83890183613299565b9301516060979097019690965250988501989350908401906001016132e7565b5091979650505050505050565b6000602080835260a080840185516080808588015282825180855260c094508489019150868401935060005b818110156133cb578451613388848251613204565b808901516001600160a01b039081166040868101919091528201511660608086019190915281015185850152840151878401529387019391850191600101613373565b5050858901519550601f199450848882030160408901526133ec8187613231565b955050604088015192508387860301606088015261340a8584613231565b945060608801519250838786030181880152505061342883826132c9565b9695505050505050565b60a081016134408287613204565b60408201949094529115156060830152608090910152919050565b60006020828403121561346d57600080fd5b8151612494816130be565b6020808252602a908201527f6d73672e73656e646572206973206e6f74207065726d697373696f6e6564206160408201526939903ab73830bab9b2b960b11b606082015260800190565b801515811461055b57600080fd5b6000602082840312156134e257600080fd5b8151612494816134c2565b60208082526028908201527f6d73672e73656e646572206973206e6f74207065726d697373696f6e6564206160408201526739903830bab9b2b960c11b606082015260800190565b6020808252601c908201527f5061757361626c653a20636f6e74726163742069732070617573656400000000604082015260600190565b634e487b7160e01b600052601160045260246000fd5b60006000198214156135965761359661356c565b5060010190565b6000808335601e198436030181126135b457600080fd5b83018035915067ffffffffffffffff8211156135cf57600080fd5b602001915060a0810236038213156135e657600080fd5b9250929050565b60208082526010908201526f496e76616c6964204c3255706461746560801b604082015260600190565b6000821982111561362a5761362a61356c565b500190565b8281526040602082015260006136486040830184613299565b949350505050565b634e487b7160e01b600052604160045260246000fd5b634e487b7160e01b600052603260045260246000fd5b60008282101561368e5761368e61356c565b500390565b6040516080810167ffffffffffffffff811182821017156136c457634e487b7160e01b600052604160045260246000fd5b60405290565b6040805190810167ffffffffffffffff811182821017156136c457634e487b7160e01b600052604160045260246000fd5b8035613706816134c2565b919050565b600081830360a081121561371e57600080fd5b613726613693565b604082121561373457600080fd5b61373c6136ca565b915083356002811061374d57600080fd5b808352506020840135602083015281815260408401356020820152606084013591506006821061377c57600080fd5b81604082015261378e608085016136fb565b6060820152949350505050565b600060208083528351808285015260005b818110156137c8578581018301518582016040015282016137ac565b818111156137da576000604083870101525b50601f01601f1916929092016040019392505050565b60006020828403121561380257600080fd5b505191905056fea2646970667358221220feb1fa713f0fcaca765df442d55e06cc1f199eca048cfa0686fdbfcf43a073cf64736f6c634300080c0033","linkReferences":{}},"methodIdentifiers":{"ETH_TOKEN_ADDRESS()":"1878d1f1","cancelResolutions(uint256)":"ca9b21ae","counter()":"61bc221a","deposit(address,uint256)":"47e7ef24","deposit_erc20(address,uint256)":"d16544f0","deposit_eth()":"274b3df4","getPendingRequests(uint256,uint256)":"79e041f2","getUpdateForL2()":"b1538706","initialize(address,address)":"485cc955","lastProcessedUpdate_origin_l1()":"7fd4f845","lastProcessedUpdate_origin_l2()":"f26ee9d0","owner()":"8da5cb5b","pause(uint256)":"136439dd","pauseAll()":"595c6a67","paused()":"5c975abb","paused(uint8)":"5ac86ab7","pauserRegistry()":"886f1195","pendingEthWithdrawals(address)":"80bc280c","renounceOwnership()":"715018a6","setPauserRegistry(address)":"10d67a2f","transferOwnership(address)":"f2fde38b","unpause(uint256)":"fabc1cbc","update_l1_from_l2((((uint8,uint256),(uint256,uint256),bytes32)[],((uint8,uint256),address,address,uint256)[],((uint8,uint256),uint256,uint8,bool)[]))":"5740b89d","withdraw_pending_eth(uint256)":"a7acab46","withdrawalResolutions(uint256)":"a80fc9bd"},"id":134}