{
  "abi": [
    {
      "anonymous": false,
      "inputs": [
        {
          "indexed": false,
          "internalType": "uint256",
          "name": "requestId",
          "type": "uint256"
        },
        {
          "indexed": false,
          "internalType": "address",
          "name": "depositRecipient",
          "type": "address"
        },
        {
          "indexed": false,
          "internalType": "address",
          "name": "tokenAddress",
          "type": "address"
        },
        {
          "indexed": false,
          "internalType": "uint256",
          "name": "amount",
          "type": "uint256"
        }
      ],
      "name": "DepositAcceptedIntoQueue",
      "type": "event"
    },
    {
      "anonymous": false,
      "inputs": [
        {
          "indexed": false,
          "internalType": "uint256",
          "name": "requestId",
          "type": "uint256"
        },
        {
          "indexed": false,
          "internalType": "bool",
          "name": "cancelJustified",
          "type": "bool"
        }
      ],
      "name": "DisputeResolutionAcceptedIntoQueue",
      "type": "event"
    },
    {
      "anonymous": false,
      "inputs": [
        {
          "indexed": false,
          "internalType": "address",
          "name": "sender",
          "type": "address"
        },
        {
          "indexed": false,
          "internalType": "uint256",
          "name": "amount",
          "type": "uint256"
        }
      ],
      "name": "EthWithdrawPending",
      "type": "event"
    },
    {
      "anonymous": false,
      "inputs": [
        {
          "indexed": false,
          "internalType": "address",
          "name": "depositRecipient",
          "type": "address"
        },
        {
          "indexed": false,
          "internalType": "address",
          "name": "tokenAddress",
          "type": "address"
        },
        {
          "indexed": false,
          "internalType": "uint256",
          "name": "amount",
          "type": "uint256"
        }
      ],
      "name": "FundsReturned",
      "type": "event"
    },
    {
      "anonymous": false,
      "inputs": [
        {
          "indexed": false,
          "internalType": "address",
          "name": "withdrawRecipient",
          "type": "address"
        },
        {
          "indexed": false,
          "internalType": "address",
          "name": "tokenAddress",
          "type": "address"
        },
        {
          "indexed": false,
          "internalType": "uint256",
          "name": "amount",
          "type": "uint256"
        }
      ],
      "name": "FundsWithdrawn",
      "type": "event"
    },
    {
      "anonymous": false,
      "inputs": [
        {
          "indexed": false,
          "internalType": "uint8",
          "name": "version",
          "type": "uint8"
        }
      ],
      "name": "Initialized",
      "type": "event"
    },
    {
      "anonymous": false,
      "inputs": [
        {
          "indexed": false,
          "internalType": "uint256",
          "name": "requestId",
          "type": "uint256"
        },
        {
          "indexed": false,
          "internalType": "uint256[]",
          "name": "l2UpdatesToRemove",
          "type": "uint256[]"
        }
      ],
      "name": "L2UpdatesToRemovedAcceptedIntoQueue",
      "type": "event"
    },
    {
      "anonymous": false,
      "inputs": [
        {
          "indexed": false,
          "internalType": "address",
          "name": "updater",
          "type": "address"
        }
      ],
      "name": "NewUpdaterSet",
      "type": "event"
    },
    {
      "anonymous": false,
      "inputs": [
        {
          "indexed": true,
          "internalType": "address",
          "name": "previousOwner",
          "type": "address"
        },
        {
          "indexed": true,
          "internalType": "address",
          "name": "newOwner",
          "type": "address"
        }
      ],
      "name": "OwnershipTransferred",
      "type": "event"
    },
    {
      "anonymous": false,
      "inputs": [
        {
          "indexed": true,
          "internalType": "address",
          "name": "account",
          "type": "address"
        },
        {
          "indexed": false,
          "internalType": "uint256",
          "name": "newPausedStatus",
          "type": "uint256"
        }
      ],
      "name": "Paused",
      "type": "event"
    },
    {
      "anonymous": false,
      "inputs": [
        {
          "indexed": false,
          "internalType": "contract IPauserRegistry",
          "name": "pauserRegistry",
          "type": "address"
        },
        {
          "indexed": false,
          "internalType": "contract IPauserRegistry",
          "name": "newPauserRegistry",
          "type": "address"
        }
      ],
      "name": "PauserRegistrySet",
      "type": "event"
    },
    {
      "anonymous": false,
      "inputs": [
        {
          "indexed": false,
          "internalType": "address",
          "name": "sender",
          "type": "address"
        },
        {
          "indexed": false,
          "internalType": "uint256",
          "name": "amount",
          "type": "uint256"
        }
      ],
      "name": "PendingEthWithdrawn",
      "type": "event"
    },
    {
      "anonymous": false,
      "inputs": [
        {
          "indexed": true,
          "internalType": "address",
          "name": "account",
          "type": "address"
        },
        {
          "indexed": false,
          "internalType": "uint256",
          "name": "newPausedStatus",
          "type": "uint256"
        }
      ],
      "name": "Unpaused",
      "type": "event"
    },
    {
      "anonymous": false,
      "inputs": [
        {
          "indexed": false,
          "internalType": "uint256",
          "name": "requestId",
          "type": "uint256"
        },
        {
          "indexed": false,
          "internalType": "bool",
          "name": "success",
          "type": "bool"
        }
      ],
      "name": "WithdrawalResolutionAcceptedIntoQueue",
      "type": "event"
    },
    {
      "anonymous": false,
      "inputs": [
        {
          "indexed": false,
          "internalType": "bytes32",
          "name": "cancelHash",
          "type": "bytes32"
        },
        {
          "indexed": false,
          "internalType": "bytes32",
          "name": "calculatedHash",
          "type": "bytes32"
        }
      ],
      "name": "cancelAndCalculatedHash",
      "type": "event"
    },
    {
      "inputs": [],
      "name": "ETH_TOKEN_ADDRESS",
      "outputs": [
        {
          "internalType": "address",
          "name": "",
          "type": "address"
        }
      ],
      "stateMutability": "view",
      "type": "function"
    },
    {
      "inputs": [
        {
          "internalType": "uint256",
          "name": "",
          "type": "uint256"
        }
      ],
      "name": "cancelResolutions",
      "outputs": [
        {
          "components": [
            {
              "internalType": "enum IRolldownPrimitives.Origin",
              "name": "origin",
              "type": "uint8"
            },
            {
              "internalType": "uint256",
              "name": "id",
              "type": "uint256"
            }
          ],
          "internalType": "struct IRolldownPrimitives.RequestId",
          "name": "requestId",
          "type": "tuple"
        },
        {
          "internalType": "uint256",
          "name": "l2RequestId",
          "type": "uint256"
        },
        {
          "internalType": "bool",
          "name": "cancelJustified",
          "type": "bool"
        },
        {
          "internalType": "uint256",
          "name": "timeStamp",
          "type": "uint256"
        }
      ],
      "stateMutability": "view",
      "type": "function"
    },
    {
      "inputs": [],
      "name": "chain",
      "outputs": [
        {
          "internalType": "enum IRolldownPrimitives.ChainId",
          "name": "",
          "type": "uint8"
        }
      ],
      "stateMutability": "view",
      "type": "function"
    },
    {
      "inputs": [],
      "name": "counter",
      "outputs": [
        {
          "internalType": "uint256",
          "name": "",
          "type": "uint256"
        }
      ],
      "stateMutability": "view",
      "type": "function"
    },
    {
      "inputs": [
        {
          "internalType": "address",
          "name": "tokenAddress",
          "type": "address"
        },
        {
          "internalType": "uint256",
          "name": "amount",
          "type": "uint256"
        }
      ],
      "name": "deposit",
      "outputs": [],
      "stateMutability": "nonpayable",
      "type": "function"
    },
    {
      "inputs": [
        {
          "internalType": "address",
          "name": "tokenAddress",
          "type": "address"
        },
        {
          "internalType": "uint256",
          "name": "amount",
          "type": "uint256"
        }
      ],
      "name": "deposit_erc20",
      "outputs": [],
      "stateMutability": "nonpayable",
      "type": "function"
    },
    {
      "inputs": [],
      "name": "deposit_native",
      "outputs": [],
      "stateMutability": "payable",
      "type": "function"
    },
    {
      "inputs": [
        {
          "internalType": "uint256",
          "name": "start",
          "type": "uint256"
        },
        {
          "internalType": "uint256",
          "name": "end",
          "type": "uint256"
        }
      ],
      "name": "getPendingRequests",
      "outputs": [
        {
          "components": [
            {
              "internalType": "enum IRolldownPrimitives.ChainId",
              "name": "chain",
              "type": "uint8"
            },
            {
              "components": [
                {
                  "components": [
                    {
                      "internalType": "enum IRolldownPrimitives.Origin",
                      "name": "origin",
                      "type": "uint8"
                    },
                    {
                      "internalType": "uint256",
                      "name": "id",
                      "type": "uint256"
                    }
                  ],
                  "internalType": "struct IRolldownPrimitives.RequestId",
                  "name": "requestId",
                  "type": "tuple"
                },
                {
                  "internalType": "address",
                  "name": "depositRecipient",
                  "type": "address"
                },
                {
                  "internalType": "address",
                  "name": "tokenAddress",
                  "type": "address"
                },
                {
                  "internalType": "uint256",
                  "name": "amount",
                  "type": "uint256"
                },
                {
                  "internalType": "uint256",
                  "name": "timeStamp",
                  "type": "uint256"
                }
              ],
              "internalType": "struct IRolldownPrimitives.Deposit[]",
              "name": "pendingDeposits",
              "type": "tuple[]"
            },
            {
              "components": [
                {
                  "components": [
                    {
                      "internalType": "enum IRolldownPrimitives.Origin",
                      "name": "origin",
                      "type": "uint8"
                    },
                    {
                      "internalType": "uint256",
                      "name": "id",
                      "type": "uint256"
                    }
                  ],
                  "internalType": "struct IRolldownPrimitives.RequestId",
                  "name": "requestId",
                  "type": "tuple"
                },
                {
                  "internalType": "uint256",
                  "name": "l2RequestId",
                  "type": "uint256"
                },
                {
                  "internalType": "bool",
                  "name": "cancelJustified",
                  "type": "bool"
                },
                {
                  "internalType": "uint256",
                  "name": "timeStamp",
                  "type": "uint256"
                }
              ],
              "internalType": "struct IRolldownPrimitives.CancelResolution[]",
              "name": "pendingCancelResolutions",
              "type": "tuple[]"
            },
            {
              "components": [
                {
                  "components": [
                    {
                      "internalType": "enum IRolldownPrimitives.Origin",
                      "name": "origin",
                      "type": "uint8"
                    },
                    {
                      "internalType": "uint256",
                      "name": "id",
                      "type": "uint256"
                    }
                  ],
                  "internalType": "struct IRolldownPrimitives.RequestId",
                  "name": "requestId",
                  "type": "tuple"
                },
                {
                  "internalType": "uint256",
                  "name": "l2RequestId",
                  "type": "uint256"
                },
                {
                  "internalType": "bool",
                  "name": "status",
                  "type": "bool"
                },
                {
                  "internalType": "uint256",
                  "name": "timeStamp",
                  "type": "uint256"
                }
              ],
              "internalType": "struct IRolldownPrimitives.WithdrawalResolution[]",
              "name": "pendingWithdrawalResolutions",
              "type": "tuple[]"
            },
            {
              "components": [
                {
                  "components": [
                    {
                      "internalType": "enum IRolldownPrimitives.Origin",
                      "name": "origin",
                      "type": "uint8"
                    },
                    {
                      "internalType": "uint256",
                      "name": "id",
                      "type": "uint256"
                    }
                  ],
                  "internalType": "struct IRolldownPrimitives.RequestId",
                  "name": "requestId",
                  "type": "tuple"
                },
                {
                  "internalType": "uint256[]",
                  "name": "l2UpdatesToRemove",
                  "type": "uint256[]"
                },
                {
                  "internalType": "uint256",
                  "name": "timeStamp",
                  "type": "uint256"
                }
              ],
              "internalType": "struct IRolldownPrimitives.L2UpdatesToRemove[]",
              "name": "pendingL2UpdatesToRemove",
              "type": "tuple[]"
            }
          ],
          "internalType": "struct IRolldownPrimitives.L1Update",
          "name": "",
          "type": "tuple"
        }
      ],
      "stateMutability": "view",
      "type": "function"
    },
    {
      "inputs": [],
      "name": "getUpdateForL2",
      "outputs": [
        {
          "components": [
            {
              "internalType": "enum IRolldownPrimitives.ChainId",
              "name": "chain",
              "type": "uint8"
            },
            {
              "components": [
                {
                  "components": [
                    {
                      "internalType": "enum IRolldownPrimitives.Origin",
                      "name": "origin",
                      "type": "uint8"
                    },
                    {
                      "internalType": "uint256",
                      "name": "id",
                      "type": "uint256"
                    }
                  ],
                  "internalType": "struct IRolldownPrimitives.RequestId",
                  "name": "requestId",
                  "type": "tuple"
                },
                {
                  "internalType": "address",
                  "name": "depositRecipient",
                  "type": "address"
                },
                {
                  "internalType": "address",
                  "name": "tokenAddress",
                  "type": "address"
                },
                {
                  "internalType": "uint256",
                  "name": "amount",
                  "type": "uint256"
                },
                {
                  "internalType": "uint256",
                  "name": "timeStamp",
                  "type": "uint256"
                }
              ],
              "internalType": "struct IRolldownPrimitives.Deposit[]",
              "name": "pendingDeposits",
              "type": "tuple[]"
            },
            {
              "components": [
                {
                  "components": [
                    {
                      "internalType": "enum IRolldownPrimitives.Origin",
                      "name": "origin",
                      "type": "uint8"
                    },
                    {
                      "internalType": "uint256",
                      "name": "id",
                      "type": "uint256"
                    }
                  ],
                  "internalType": "struct IRolldownPrimitives.RequestId",
                  "name": "requestId",
                  "type": "tuple"
                },
                {
                  "internalType": "uint256",
                  "name": "l2RequestId",
                  "type": "uint256"
                },
                {
                  "internalType": "bool",
                  "name": "cancelJustified",
                  "type": "bool"
                },
                {
                  "internalType": "uint256",
                  "name": "timeStamp",
                  "type": "uint256"
                }
              ],
              "internalType": "struct IRolldownPrimitives.CancelResolution[]",
              "name": "pendingCancelResolutions",
              "type": "tuple[]"
            },
            {
              "components": [
                {
                  "components": [
                    {
                      "internalType": "enum IRolldownPrimitives.Origin",
                      "name": "origin",
                      "type": "uint8"
                    },
                    {
                      "internalType": "uint256",
                      "name": "id",
                      "type": "uint256"
                    }
                  ],
                  "internalType": "struct IRolldownPrimitives.RequestId",
                  "name": "requestId",
                  "type": "tuple"
                },
                {
                  "internalType": "uint256",
                  "name": "l2RequestId",
                  "type": "uint256"
                },
                {
                  "internalType": "bool",
                  "name": "status",
                  "type": "bool"
                },
                {
                  "internalType": "uint256",
                  "name": "timeStamp",
                  "type": "uint256"
                }
              ],
              "internalType": "struct IRolldownPrimitives.WithdrawalResolution[]",
              "name": "pendingWithdrawalResolutions",
              "type": "tuple[]"
            },
            {
              "components": [
                {
                  "components": [
                    {
                      "internalType": "enum IRolldownPrimitives.Origin",
                      "name": "origin",
                      "type": "uint8"
                    },
                    {
                      "internalType": "uint256",
                      "name": "id",
                      "type": "uint256"
                    }
                  ],
                  "internalType": "struct IRolldownPrimitives.RequestId",
                  "name": "requestId",
                  "type": "tuple"
                },
                {
                  "internalType": "uint256[]",
                  "name": "l2UpdatesToRemove",
                  "type": "uint256[]"
                },
                {
                  "internalType": "uint256",
                  "name": "timeStamp",
                  "type": "uint256"
                }
              ],
              "internalType": "struct IRolldownPrimitives.L2UpdatesToRemove[]",
              "name": "pendingL2UpdatesToRemove",
              "type": "tuple[]"
            }
          ],
          "internalType": "struct IRolldownPrimitives.L1Update",
          "name": "",
          "type": "tuple"
        }
      ],
      "stateMutability": "view",
      "type": "function"
    },
    {
      "inputs": [
        {
          "internalType": "contract IPauserRegistry",
          "name": "_pauserRegistry",
          "type": "address"
        },
        {
          "internalType": "address",
          "name": "initialOwner",
          "type": "address"
        },
        {
          "internalType": "enum IRolldownPrimitives.ChainId",
          "name": "chainId",
          "type": "uint8"
        },
        {
          "internalType": "address",
          "name": "updater",
          "type": "address"
        }
      ],
      "name": "initialize",
      "outputs": [],
      "stateMutability": "nonpayable",
      "type": "function"
    },
    {
      "inputs": [],
      "name": "lastProcessedUpdate_origin_l1",
      "outputs": [
        {
          "internalType": "uint256",
          "name": "",
          "type": "uint256"
        }
      ],
      "stateMutability": "view",
      "type": "function"
    },
    {
      "inputs": [],
      "name": "lastProcessedUpdate_origin_l2",
      "outputs": [
        {
          "internalType": "uint256",
          "name": "",
          "type": "uint256"
        }
      ],
      "stateMutability": "view",
      "type": "function"
    },
    {
      "inputs": [],
      "name": "owner",
      "outputs": [
        {
          "internalType": "address",
          "name": "",
          "type": "address"
        }
      ],
      "stateMutability": "view",
      "type": "function"
    },
    {
      "inputs": [
        {
          "internalType": "uint256",
          "name": "newPausedStatus",
          "type": "uint256"
        }
      ],
      "name": "pause",
      "outputs": [],
      "stateMutability": "nonpayable",
      "type": "function"
    },
    {
      "inputs": [],
      "name": "pauseAll",
      "outputs": [],
      "stateMutability": "nonpayable",
      "type": "function"
    },
    {
      "inputs": [
        {
          "internalType": "uint8",
          "name": "index",
          "type": "uint8"
        }
      ],
      "name": "paused",
      "outputs": [
        {
          "internalType": "bool",
          "name": "",
          "type": "bool"
        }
      ],
      "stateMutability": "view",
      "type": "function"
    },
    {
      "inputs": [],
      "name": "paused",
      "outputs": [
        {
          "internalType": "uint256",
          "name": "",
          "type": "uint256"
        }
      ],
      "stateMutability": "view",
      "type": "function"
    },
    {
      "inputs": [],
      "name": "pauserRegistry",
      "outputs": [
        {
          "internalType": "contract IPauserRegistry",
          "name": "",
          "type": "address"
        }
      ],
      "stateMutability": "view",
      "type": "function"
    },
    {
      "inputs": [
        {
          "internalType": "address",
          "name": "",
          "type": "address"
        }
      ],
      "name": "pendingEthWithdrawals",
      "outputs": [
        {
          "internalType": "uint256",
          "name": "",
          "type": "uint256"
        }
      ],
      "stateMutability": "view",
      "type": "function"
    },
    {
      "inputs": [],
      "name": "renounceOwnership",
      "outputs": [],
      "stateMutability": "nonpayable",
      "type": "function"
    },
    {
      "inputs": [
        {
          "internalType": "contract IPauserRegistry",
          "name": "newPauserRegistry",
          "type": "address"
        }
      ],
      "name": "setPauserRegistry",
      "outputs": [],
      "stateMutability": "nonpayable",
      "type": "function"
    },
    {
      "inputs": [
        {
          "internalType": "address",
          "name": "updater",
          "type": "address"
        }
      ],
      "name": "setUpdater",
      "outputs": [],
      "stateMutability": "nonpayable",
      "type": "function"
    },
    {
      "inputs": [
        {
          "internalType": "address",
          "name": "newOwner",
          "type": "address"
        }
      ],
      "name": "transferOwnership",
      "outputs": [],
      "stateMutability": "nonpayable",
      "type": "function"
    },
    {
      "inputs": [
        {
          "internalType": "uint256",
          "name": "newPausedStatus",
          "type": "uint256"
        }
      ],
      "name": "unpause",
      "outputs": [],
      "stateMutability": "nonpayable",
      "type": "function"
    },
    {
      "inputs": [
        {
          "components": [
            {
              "components": [
                {
                  "components": [
                    {
                      "internalType": "enum IRolldownPrimitives.Origin",
                      "name": "origin",
                      "type": "uint8"
                    },
                    {
                      "internalType": "uint256",
                      "name": "id",
                      "type": "uint256"
                    }
                  ],
                  "internalType": "struct IRolldownPrimitives.RequestId",
                  "name": "requestId",
                  "type": "tuple"
                },
                {
                  "components": [
                    {
                      "internalType": "uint256",
                      "name": "start",
                      "type": "uint256"
                    },
                    {
                      "internalType": "uint256",
                      "name": "end",
                      "type": "uint256"
                    }
                  ],
                  "internalType": "struct IRolldownPrimitives.Range",
                  "name": "range",
                  "type": "tuple"
                },
                {
                  "internalType": "bytes32",
                  "name": "hash",
                  "type": "bytes32"
                }
              ],
              "internalType": "struct IRolldownPrimitives.Cancel[]",
              "name": "cancels",
              "type": "tuple[]"
            },
            {
              "components": [
                {
                  "components": [
                    {
                      "internalType": "enum IRolldownPrimitives.Origin",
                      "name": "origin",
                      "type": "uint8"
                    },
                    {
                      "internalType": "uint256",
                      "name": "id",
                      "type": "uint256"
                    }
                  ],
                  "internalType": "struct IRolldownPrimitives.RequestId",
                  "name": "requestId",
                  "type": "tuple"
                },
                {
                  "internalType": "address",
                  "name": "withdrawalRecipient",
                  "type": "address"
                },
                {
                  "internalType": "address",
                  "name": "tokenAddress",
                  "type": "address"
                },
                {
                  "internalType": "uint256",
                  "name": "amount",
                  "type": "uint256"
                }
              ],
              "internalType": "struct IRolldownPrimitives.Withdrawal[]",
              "name": "withdrawals",
              "type": "tuple[]"
            },
            {
              "components": [
                {
                  "components": [
                    {
                      "internalType": "enum IRolldownPrimitives.Origin",
                      "name": "origin",
                      "type": "uint8"
                    },
                    {
                      "internalType": "uint256",
                      "name": "id",
                      "type": "uint256"
                    }
                  ],
                  "internalType": "struct IRolldownPrimitives.RequestId",
                  "name": "requestId",
                  "type": "tuple"
                },
                {
                  "internalType": "uint256",
                  "name": "originRequestId",
                  "type": "uint256"
                },
                {
                  "internalType": "enum IRolldownPrimitives.UpdateType",
                  "name": "updateType",
                  "type": "uint8"
                },
                {
                  "internalType": "bool",
                  "name": "status",
                  "type": "bool"
                }
              ],
              "internalType": "struct IRolldownPrimitives.RequestResult[]",
              "name": "results",
              "type": "tuple[]"
            }
          ],
          "internalType": "struct IRolldownPrimitives.L2Update",
          "name": "inputArray",
          "type": "tuple"
        }
      ],
      "name": "update_l1_from_l2",
      "outputs": [],
      "stateMutability": "nonpayable",
      "type": "function"
    },
    {
      "inputs": [],
      "name": "updaterAccount",
      "outputs": [
        {
          "internalType": "address",
          "name": "",
          "type": "address"
        }
      ],
      "stateMutability": "view",
      "type": "function"
    },
    {
      "inputs": [
        {
          "internalType": "uint256",
          "name": "amount",
          "type": "uint256"
        }
      ],
      "name": "withdraw_pending_eth",
      "outputs": [],
      "stateMutability": "nonpayable",
      "type": "function"
    },
    {
      "inputs": [
        {
          "internalType": "uint256",
          "name": "",
          "type": "uint256"
        }
      ],
      "name": "withdrawalResolutions",
      "outputs": [
        {
          "components": [
            {
              "internalType": "enum IRolldownPrimitives.Origin",
              "name": "origin",
              "type": "uint8"
            },
            {
              "internalType": "uint256",
              "name": "id",
              "type": "uint256"
            }
          ],
          "internalType": "struct IRolldownPrimitives.RequestId",
          "name": "requestId",
          "type": "tuple"
        },
        {
          "internalType": "uint256",
          "name": "l2RequestId",
          "type": "uint256"
        },
        {
          "internalType": "bool",
          "name": "status",
          "type": "bool"
        },
        {
          "internalType": "uint256",
          "name": "timeStamp",
          "type": "uint256"
        }
      ],
      "stateMutability": "view",
      "type": "function"
    }
  ],
  "bytecode": {
    "object": "0x608060405234801561001057600080fd5b50613b57806100206000396000f3fe6080604052600436106101b75760003560e01c8063886f1195116100ec578063c87c22241161008a578063f26ee9d011610064578063f26ee9d0146104d6578063f2fde38b146104ec578063fabc1cbc1461050c578063ffea632b1461052c57600080fd5b8063c87c22241461048e578063ca9b21ae14610496578063d16544f0146104b657600080fd5b8063a7acab46116100c6578063a7acab4614610402578063a80fc9bd14610422578063b153870614610452578063c763e5a11461046757600080fd5b8063886f1195146103a45780638da5cb5b146103c45780639d54f419146103e257600080fd5b80635c975abb1161015957806371c544611161013357806371c544611461030f57806379e041f2146103345780637fd4f8451461036157806380bc280c1461037757600080fd5b80635c975abb146102c557806361bc221a146102e4578063715018a6146102fa57600080fd5b806347e7ef241161019557806347e7ef24146102305780635740b89d14610250578063595c6a67146102705780635ac86ab71461028557600080fd5b806310d67a2f146101bc578063136439dd146101de5780631878d1f1146101fe575b600080fd5b3480156101c857600080fd5b506101dc6101d7366004613393565b61054c565b005b3480156101ea57600080fd5b506101dc6101f93660046133b0565b610608565b34801561020a57600080fd5b50610213600181565b6040516001600160a01b0390911681526020015b60405180910390f35b34801561023c57600080fd5b506101dc61024b3660046133c9565b610747565b34801561025c57600080fd5b506101dc61026b3660046133f5565b610775565b34801561027c57600080fd5b506101dc610a38565b34801561029157600080fd5b506102b56102a0366004613430565b606654600160ff9092169190911b9081161490565b6040519015158152602001610227565b3480156102d157600080fd5b506066545b604051908152602001610227565b3480156102f057600080fd5b506102d660975481565b34801561030657600080fd5b506101dc610aff565b34801561031b57600080fd5b50609a546102139061010090046001600160a01b031681565b34801561034057600080fd5b5061035461034f366004613453565b610b13565b60405161022791906135d7565b34801561036d57600080fd5b506102d660985481565b34801561038357600080fd5b506102d6610392366004613393565b609f6020526000908152604090205481565b3480156103b057600080fd5b50606554610213906001600160a01b031681565b3480156103d057600080fd5b506033546001600160a01b0316610213565b3480156103ee57600080fd5b506101dc6103fd366004613393565b6111e0565b34801561040e57600080fd5b506101dc61041d3660046133b0565b6112dd565b34801561042e57600080fd5b5061044261043d3660046133b0565b611307565b60405161022794939291906136d7565b34801561045e57600080fd5b50610354611379565b34801561047357600080fd5b50609a546104819060ff1681565b6040516102279190613700565b6101dc6113d2565b3480156104a257600080fd5b506104426104b13660046133b0565b61159a565b3480156104c257600080fd5b506101dc6104d13660046133c9565b6115cf565b3480156104e257600080fd5b506102d660995481565b3480156104f857600080fd5b506101dc610507366004613393565b61189a565b34801561051857600080fd5b506101dc6105273660046133b0565b611910565b34801561053857600080fd5b506101dc610547366004613720565b611a6c565b606560009054906101000a90046001600160a01b03166001600160a01b031663eab66d7a6040518163ffffffff1660e01b8152600401602060405180830381865afa15801561059f573d6000803e3d6000fd5b505050506040513d601f19601f820116820180604052508101906105c3919061377c565b6001600160a01b0316336001600160a01b0316146105fc5760405162461bcd60e51b81526004016105f390613799565b60405180910390fd5b61060581611be4565b50565b60655460405163237dfb4760e11b81523360048201526001600160a01b03909116906346fbf68e90602401602060405180830381865afa158015610650573d6000803e3d6000fd5b505050506040513d601f19601f8201168201806040525081019061067491906137f1565b6106905760405162461bcd60e51b81526004016105f39061380e565b606654818116146107095760405162461bcd60e51b815260206004820152603860248201527f5061757361626c652e70617573653a20696e76616c696420617474656d70742060448201527f746f20756e70617573652066756e6374696f6e616c697479000000000000000060648201526084016105f3565b606681905560405181815233907fab40a374bc51de372200a8bc981af8c9ecdc08dfdaef0bb6e09f88f3c616ef3d906020015b60405180910390a250565b606654156107675760405162461bcd60e51b81526004016105f390613856565b61077182826115cf565b5050565b606654156107955760405162461bcd60e51b81526004016105f390613856565b609a5461010090046001600160a01b031633146107e45760405162461bcd60e51b815260206004820152600d60248201526c2737ba103a34329037bbb732b960991b60448201526064016105f3565b60016107f3604083018361388d565b905010158061080e57506001610809828061388d565b905010155b8061082857506001610823602083018361388d565b905010155b61087e5760405162461bcd60e51b815260206004820152602160248201527f4172726179206d7573742068617665206174206c6561737420312075706461746044820152606560f81b60648201526084016105f3565b60008061088a83611cdb565b9150915081600014156108af5760405162461bcd60e51b81526004016105f3906138dd565b6099546108bd90600161391d565b8211156108dc5760405162461bcd60e51b81526004016105f3906138dd565b60995481116108fd5760405162461bcd60e51b81526004016105f3906138dd565b60006109098385611e11565b905060006109238261091e604088018861388d565b61218b565b905061092f8286612451565b805115610a3157609780546000918261094783613935565b909155506040805160a08101909152909150806060810180600081526020908101859052908252818101859052426040928301526000848152609e90915220815180518254839190829060ff1916600183818111156109a8576109a8613475565b02179055506020918201516001909101558281015180516109cf926002850192019061331e565b50604082015181600301559050508151609860008282546109f0919061391d565b90915550506040517f09b30365986269e3939307e7ca7b7b7421a8ad08ef18bb766c668d27cbc2aef990610a279083908590613950565b60405180910390a1505b5050505050565b60655460405163237dfb4760e11b81523360048201526001600160a01b03909116906346fbf68e90602401602060405180830381865afa158015610a80573d6000803e3d6000fd5b505050506040513d601f19601f82011682018060405250810190610aa491906137f1565b610ac05760405162461bcd60e51b81526004016105f39061380e565b600019606681905560405190815233907fab40a374bc51de372200a8bc981af8c9ecdc08dfdaef0bb6e09f88f3c616ef3d9060200160405180910390a2565b610b07612651565b610b1160006126ab565b565b610b466040805160a081019091528060008152602001606081526020016060815260200160608152602001606081525090565b610b796040805160a081019091528060008152602001606081526020016060815260200160608152602001606081525090565b609a54819060ff166001811115610b9257610b92613475565b90816001811115610ba557610ba5613475565b9052506000808080875b878111610c68576000818152609d602052604090206001015415610bdf5784610bd781613935565b955050610c56565b6000818152609e602052604090206001015415610c085781610c0081613935565b925050610c56565b6000818152609b602052604090206001015415610c315783610c2981613935565b945050610c56565b6000818152609c602052604090206001015415610c565782610c5281613935565b9350505b80610c6081613935565b915050610baf565b508367ffffffffffffffff811115610c8257610c82613971565b604051908082528060200260200182016040528015610ce857816020015b6040805160e081018252600060a0820181815260c08301829052825260208083018290529282018190526060820181905260808201528252600019909201910181610ca05790505b5060208601528167ffffffffffffffff811115610d0757610d07613971565b604051908082528060200260200182016040528015610d6657816020015b6040805160c08101825260006080820181815260a083018290528252602080830182905292820181905260608201528252600019909201910181610d255790505b5060408601528267ffffffffffffffff811115610d8557610d85613971565b604051908082528060200260200182016040528015610de457816020015b6040805160c08101825260006080820181815260a083018290528252602080830182905292820181905260608201528252600019909201910181610da35790505b5060608601528067ffffffffffffffff811115610e0357610e03613971565b604051908082528060200260200182016040528015610e5d57816020015b6040805160a08101825260006060808301828152608084018390528352602083015291810191909152815260200190600190039081610e215790505b506080860152506000925082915081905080875b8781116111d1576000818152609d602052604090206001015415610f50576000818152609d602052604090819020815160e081019092528054829060a08201908390829060ff166001811115610ec957610ec9613475565b6001811115610eda57610eda613475565b81526001919091015460209182015290825260028301546001600160a01b039081168383015260038401541660408301526004830154606083015260059092015460809091015287015186610f2e81613935565b975081518110610f4057610f40613987565b60200260200101819052506111bf565b6000818152609b602052604090206001015415611007576000818152609b602052604090819020815160c081019092528054829060808201908390829060ff166001811115610fa157610fa1613475565b6001811115610fb257610fb2613475565b815260019190910154602091820152908252600283015490820152600382015460ff161515604082015260049091015460609182015287015185610ff581613935565b965081518110610f4057610f40613987565b6000818152609e6020526040902060010154156110ff576000818152609e602052604090819020815160a081019092528054829060608201908390829060ff16600181111561105857611058613475565b600181111561106957611069613475565b81526020016001820154815250508152602001600282018054806020026020016040519081016040528092919081815260200182805480156110ca57602002820191906000526020600020905b8154815260200190600101908083116110b6575b50505050508152602001600382015481525050866080015183806110ed90613935565b945081518110610f4057610f40613987565b6000818152609c6020526040902060020154156111ba576000818152609c602052604090819020815160c081019092528054829060808201908390829060ff16600181111561115057611150613475565b600181111561116157611161613475565b815260019190910154602091820152908252600283015490820152600382015460ff161515604080830191909152600490920154606090910152870151846111a881613935565b955081518110610f4057610f40613987565b6111d1565b806111c981613935565b915050610e71565b50939450505050505b92915050565b606654156112005760405162461bcd60e51b81526004016105f390613856565b609a5461010090046001600160a01b0316331461127e5760405162461bcd60e51b815260206004820152603660248201527f4f6e6c792061637469766520757064617465722063616e206d6f7665207269676044820152751a1d1cc81d1bc818481b995dc818481858d8dbdd5b9d60521b60648201526084016105f3565b609a8054610100600160a81b0319166101006001600160a01b038481168202929092179283905560405192041681527f1b0f2f500df596b42b73e80dbec6a1fb570f01978a586723f988a5fc54d773a19060200160405180910390a150565b606654156112fd5760405162461bcd60e51b81526004016105f390613856565b61060581336126fd565b609b6020526000908152604090819020815180830190925280549091908290829060ff16600181111561133c5761133c613475565b600181111561134d5761134d613475565b815260019190910154602090910152600282015460038301546004909301549192909160ff9091169084565b6113ac6040805160a081019091528060008152602001606081526020016060815260200160608152602001606081525090565b6113cd60985460016113be919061391d565b600160975461034f919061399d565b905090565b606654156113f25760405162461bcd60e51b81526004016105f390613856565b600034116114425760405162461bcd60e51b815260206004820181905260248201527f6d73672076616c7565206d75737420626520677265617465722074686174203060448201526064016105f3565b6040805160e081019091523390349042906000908060a08101808481526020016097600081548092919061147590613935565b90915550905281526001600160a01b0386166020808301919091526001604080840182905260608401889052608090930186905283518201516000908152609d9092529190208251805182549495508594929391928492839160ff19169083818111156114e4576114e4613475565b0217905550602091820151600191820155838201516002840180546001600160a01b03199081166001600160a01b039384161790915560408087015160038701805490931690841617909155606080870151600487015560809687015160059096019590955586518401518151908152918a1693820193909352918201529081018590527fe28491c2da97a9923c92f6590a040dfc143fe636e8545356cdab0a796e1acefa91015b60405180910390a150505050565b609c6020526000908152604090819020815180830190925280549091908290829060ff16600181111561133c5761133c613475565b606654156115ef5760405162461bcd60e51b81526004016105f390613856565b6001600160a01b03821661163d5760405162461bcd60e51b8152602060048201526015602482015274496e76616c696420746f6b656e206164647265737360581b60448201526064016105f3565b6000811161168d5760405162461bcd60e51b815260206004820181905260248201527f416d6f756e74206d7573742062652067726561746572207468616e207a65726f60448201526064016105f3565b6040516323b872dd60e01b81523360048201819052306024830152604482018390529083906001600160a01b038216906323b872dd906064016020604051808303816000875af11580156116e5573d6000803e3d6000fd5b505050506040513d601f19601f8201168201806040525081019061170991906137f1565b61174d5760405162461bcd60e51b8152602060048201526015602482015274151bdad95b881d1c985b9cd9995c8819985a5b1959605a1b60448201526064016105f3565b6040805160e0810190915242906000908060a08101808481526020016097600081548092919061177c90613935565b90915550905281526001600160a01b0380871660208084019190915290891660408084019190915260608301899052608090920185905282518101516000908152609d909152208151805182549394508493839190829060ff1916600183818111156117ea576117ea613475565b021790555060209182015160019190910155828101516002830180546001600160a01b03199081166001600160a01b03938416179091556040808601516003860180549093169084161790915560608086015160048601556080958601516005909501949094558551830151815190815289831693810193909352908a16908201529081018790527fe28491c2da97a9923c92f6590a040dfc143fe636e8545356cdab0a796e1acefa9101610a27565b6118a2612651565b6001600160a01b0381166119075760405162461bcd60e51b815260206004820152602660248201527f4f776e61626c653a206e6577206f776e657220697320746865207a65726f206160448201526564647265737360d01b60648201526084016105f3565b610605816126ab565b606560009054906101000a90046001600160a01b03166001600160a01b031663eab66d7a6040518163ffffffff1660e01b8152600401602060405180830381865afa158015611963573d6000803e3d6000fd5b505050506040513d601f19601f82011682018060405250810190611987919061377c565b6001600160a01b0316336001600160a01b0316146119b75760405162461bcd60e51b81526004016105f390613799565b606654198119606654191614611a355760405162461bcd60e51b815260206004820152603860248201527f5061757361626c652e756e70617573653a20696e76616c696420617474656d7060448201527f7420746f2070617573652066756e6374696f6e616c697479000000000000000060648201526084016105f3565b606681905560405181815233907f3582d1828e26bf56bd801502bc021ac0bc8afb57c826e4986b45593c8fad389c9060200161073c565b600054610100900460ff1615808015611a8c5750600054600160ff909116105b80611aa65750303b158015611aa6575060005460ff166001145b611b095760405162461bcd60e51b815260206004820152602e60248201527f496e697469616c697a61626c653a20636f6e747261637420697320616c72656160448201526d191e481a5b9a5d1a585b1a5e995960921b60648201526084016105f3565b6000805460ff191660011790558015611b2c576000805461ff0019166101001790555b611b378560006128a1565b611b40846126ab565b6000609881905560016097819055609991909155609a8054859260ff19909116908381811115611b7257611b72613475565b0217905550609a8054610100600160a81b0319166101006001600160a01b038516021790558015610a31576000805461ff0019169055604051600181527f7f26b83ff96e1f2b6a682f133852f6798a09c465da95921460cefb3847402498906020015b60405180910390a15050505050565b6001600160a01b038116611c725760405162461bcd60e51b815260206004820152604960248201527f5061757361626c652e5f73657450617573657252656769737472793a206e657760448201527f50617573657252656769737472792063616e6e6f7420626520746865207a65726064820152686f206164647265737360b81b608482015260a4016105f3565b606554604080516001600160a01b03928316815291831660208301527f6e9fcd539896fca60e8b0f01dd580233e48a6b0f7df013b89ba7f565869acdb6910160405180910390a1606580546001600160a01b0319166001600160a01b0392909216919091179055565b6000806000198180611ced868061388d565b90501115611d7157611d26611d02868061388d565b6000818110611d1357611d13613987565b905060a002016000016020013583612987565b9150611d6e611d35868061388d565b6001611d41898061388d565b611d4c92915061399d565b818110611d5b57611d5b613987565b905060a00201600001602001358261299d565b90505b6000611d80602087018761388d565b90501115611dbc57611d98611d02602087018761388d565b9150611db9611daa602087018761388d565b6001611d4160208a018a61388d565b90505b6000611dcb604087018761388d565b90501115611e0757611de3611d02604087018761388d565b9150611e04611df5604087018761388d565b6001611d4160408a018a61388d565b90505b9094909350915050565b6060611e20604083018361388d565b1590508015611e385750611e34828061388d565b1590505b8015611e505750611e4c602083018361388d565b1590505b15611e6a57506040805160008152602081019091526111da565b600080808080611e7d604088018861388d565b9050611e8c602089018961388d565b9050611e98898061388d565b611ea392915061391d565b611ead919061391d565b905060008167ffffffffffffffff811115611eca57611eca613971565b604051908082528060200260200182016040528015611ef3578160200160208202803683370190505b509050885b611f02838b61391d565b81101561217e57611f1660208a018a61388d565b905087108015611f4e575080611f2f60208b018b61388d565b89818110611f3f57611f3f613987565b905060a0020160000160200135145b15611fb6576001828581518110611f6757611f67613987565b60200260200101906005811115611f8057611f80613475565b90816005811115611f9357611f93613475565b90525086611fa081613935565b9750508380611fae90613935565b94505061216c565b611fc0898061388d565b905086108015611ff5575080611fd68a8061388d565b88818110611fe657611fe6613987565b905060a0020160000160200135145b1561205557600482858151811061200e5761200e613987565b6020026020010190600581111561202757612027613475565b9081600581111561203a5761203a613475565b9052508561204781613935565b9650508380611fae90613935565b61206260408a018a61388d565b90508510801561209a57508061207b60408b018b61388d565b8781811061208b5761208b613987565b905060a0020160000160200135145b156120fa5760038285815181106120b3576120b3613987565b602002602001019060058111156120cc576120cc613475565b908160058111156120df576120df613475565b905250846120ec81613935565b9550508380611fae90613935565b612130604051806040016040528060158152602001743932b8bab2b9ba39903737ba1034b71037b93232b960591b8152506129ac565b60405162461bcd60e51b8152602060048201526011602482015270696e76616c696465204c3255706461746560781b60448201526064016105f3565b8061217681613935565b915050611ef8565b5098975050505050505050565b6060816121a7575060408051600081526020810190915261244a565b6000808367ffffffffffffffff8111156121c3576121c3613971565b6040519080825280602002602001820160405280156121ec578160200160208202803683370190505b5090506000805b87518110156123a757600388828151811061221057612210613987565b6020026020010151600581111561222957612229613475565b141561239557600087878461223d81613935565b955081811061224e5761224e613987565b905060a0020180360381019061226491906139fb565b90506099548160000151602001511161227d5750612395565b60008160400151600581111561229557612295613475565b14806122b657506003816040015160058111156122b4576122b4613475565b145b806122d657506005816040015160058111156122d4576122d4613475565b145b806122f657506002816040015160058111156122f4576122f4613475565b145b15612354576020810151848661230b81613935565b97508151811061231d5761231d613987565b602090810291909101015260008160400151600581111561234057612340613475565b141561234f5761234f816129ef565b612393565b60405162461bcd60e51b8152602060048201526014602482015273756e6b6e6f776e2072657175657374207479706560601b60448201526064016105f3565b505b8061239f81613935565b9150506121f3565b5060008367ffffffffffffffff8111156123c3576123c3613971565b6040519080825280602002602001820160405280156123ec578160200160208202803683370190505b50905060005b848110156124435783818151811061240c5761240c613987565b602002602001015182828151811061242657612426613987565b60209081029190910101528061243b81613935565b9150506123f2565b5093505050505b9392505050565b6000806000805b855181101561264957600186828151811061247557612475613987565b6020026020010151600581111561248e5761248e613475565b14156124ff57366124a2602087018761388d565b856124ac81613935565b96508181106124bd576124bd613987565b905060a0020190506099548160000160200135116124db5750612637565b6124e481612b76565b609980549060006124f483613935565b919050555050612637565b600486828151811061251357612513613987565b6020026020010151600581111561252c5761252c613475565b141561257f573661253d868061388d565b8661254781613935565b975081811061255857612558613987565b905060a0020190506099548160000160200135116125765750612637565b6124e481612ba9565b600386828151811061259357612593613987565b602002602001015160058111156125ac576125ac613475565b14156125f957366125c0604087018761388d565b846125ca81613935565b95508181106125db576125db613987565b905060a0020190506099548160000160200135116124e45750612637565b60405162461bcd60e51b8152602060048201526013602482015272756e6b6e6f776e20757064617465207479706560681b60448201526064016105f3565b8061264181613935565b915050612458565b505050505050565b6033546001600160a01b03163314610b115760405162461bcd60e51b815260206004820181905260248201527f4f776e61626c653a2063616c6c6572206973206e6f7420746865206f776e657260448201526064016105f3565b603380546001600160a01b038381166001600160a01b0319831681179093556040519116919082907f8be0079c531659141344cd1fd0a4f28419497f9722a3daafe3b4186f6b6457e090600090a35050565b6066541561271d5760405162461bcd60e51b81526004016105f390613856565b6000821161276d5760405162461bcd60e51b815260206004820181905260248201527f416d6f756e74206d7573742062652067726561746572207468616e207a65726f60448201526064016105f3565b6001600160a01b0381166000908152609f60205260409020548211156127e05760405162461bcd60e51b815260206004820152602260248201527f6e6f7420656e6f7567682070656e64696e6720776974686472617720616d6f756044820152611b9d60f21b60648201526084016105f3565b30318211156128285760405162461bcd60e51b81526020600482015260146024820152736e6f7420656e6f756768206574682066756e647360601b60448201526064016105f3565b6001600160a01b0381166000908152609f60205260408120805484929061285090849061399d565b9091555050604080516001600160a01b0383168152602081018490527f74b13e26477934df4349c96042c16ffb2ec5e0f902cdf60e4755711cd460ce99910160405180910390a16107718183612cfa565b6065546001600160a01b03161580156128c257506001600160a01b03821615155b6129445760405162461bcd60e51b815260206004820152604760248201527f5061757361626c652e5f696e697469616c697a655061757365723a205f696e6960448201527f7469616c697a6550617573657228292063616e206f6e6c792062652063616c6c6064820152666564206f6e636560c81b608482015260a4016105f3565b606681905560405181815233907fab40a374bc51de372200a8bc981af8c9ecdc08dfdaef0bb6e09f88f3c616ef3d9060200160405180910390a261077182611be4565b6000818310612996578161244a565b5090919050565b6000818311612996578161244a565b610605816040516024016129c09190613ab3565b60408051601f198184030181529190526020810180516001600160e01b031663104c13eb60e21b179052612e18565b80606001516106055780516020908101516000818152609d9092526040808320815160e081019092528054929392829060a08201908390829060ff166001811115612a3c57612a3c613475565b6001811115612a4d57612a4d613475565b81526001919091015460209182015290825260028301546001600160a01b039081168383015260038401548116604080850191909152600480860154606080870191909152600590960154608090950194909452858101519286015194860151905163a9059cbb60e01b815294821693850193909352602484019290925292935082169063a9059cbb906044016020604051808303816000875af1158015612af9573d6000803e3d6000fd5b505050506040513d601f19601f82011682018060405250810190612b1d91906137f1565b5060208083015160408085015160608087015183516001600160a01b0395861681529490921694840194909452908201527fd94415916610c60b0e0e439fd308b171a6e28fad608830cf17f14ff5928e2279910161158c565b6001612b886080830160608401613393565b6001600160a01b03161415612ba05761060581612e39565b6106058161307f565b6000612bbd60408301356060840135610b13565b9050600081604051602001612bd291906135d7565b60408051601f19818403018152828252805160209091012060c083019091529150429060009080608081018084815260200160976000815480929190612c1790613935565b90915550905281526020878101358183015260808801358614604080840191909152606090920185905282518101516000908152609c909152208151805182549394508493839190829060ff191660018381811115612c7857612c78613475565b021790555060209182015160019091015582810151600283015560408084015160038401805491151560ff199092169190911790556060909301516004909201919091558201518282015191517fd16f202ac5905ff5d1851f4805ffe56d1212db32fa989881d0044b9cf0f7277692611bd59282521515602082015260400190565b80471015612d4a5760405162461bcd60e51b815260206004820152601d60248201527f416464726573733a20696e73756666696369656e742062616c616e636500000060448201526064016105f3565b6000826001600160a01b03168260405160006040518083038185875af1925050503d8060008114612d97576040519150601f19603f3d011682016040523d82523d6000602084013e612d9c565b606091505b5050905080612e135760405162461bcd60e51b815260206004820152603a60248201527f416464726573733a20756e61626c6520746f2073656e642076616c75652c207260448201527f6563697069656e74206d6179206861766520726576657274656400000000000060648201526084016105f3565b505050565b80516a636f6e736f6c652e6c6f67602083016000808483855afa5050505050565b6080810135303110156000612e546060840160408501613393565b6001600160a01b03163b1590506000828015612e6d5750815b6040805160c08101909152909150429060009080608081018084815260200160976000815480929190612e9f90613935565b909155509052815260208881013581830152851515604080840191909152606090920185905282518101516000908152609b909152208151805182549394508493839190829060ff191660018381811115612efc57612efc613475565b02179055506020918201516001919091015582810151600283015560408084015160038401805460ff191691151591909117905560609093015160049092019190915582518101518251908152851515918101919091527f0c4873525770dbb64515e9d3950131f79ed8f72ff147ff1723bbe2e77e3791aa910160405180910390a18215612649576080860135609f6000612f9d60608a0160408b01613393565b6001600160a01b03166001600160a01b031681526020019081526020016000206000828254612fcc919061391d565b909155507fe40f985f6a88d7d060348dc647fb85bb6365eee1437a753cd67141bc3eda8fa990506130036060880160408901613393565b609f600061301760608b0160408c01613393565b6001600160a01b03166001600160a01b031681526020019081526020016000205460405161305a9291906001600160a01b03929092168252602082015260400190565b60405180910390a1612649608087013561307a6060890160408a01613393565b6126fd565b60006130916080830160608401613393565b6040516370a0823160e01b81523060048201529091506000906080840135906001600160a01b038416906370a0823190602401602060405180830381865afa1580156130e1573d6000803e3d6000fd5b505050506040513d601f19601f820116820180604052508101906131059190613b08565b6040805160c08101909152911115915042906000908060808101808481526020016097600081548092919061313990613935565b909155509052815260208781013581830152851515604080840191909152606090920185905282518101516000908152609b909152208151805182549394508493839190829060ff19166001838181111561319657613196613475565b02179055506020918201516001919091015582810151600283015560408084015160038401805460ff191691151591909117905560609093015160049092019190915582518101518251908152851515918101919091527f0c4873525770dbb64515e9d3950131f79ed8f72ff147ff1723bbe2e77e3791aa910160405180910390a18215610a31576001600160a01b03841663a9059cbb61323d6060880160408901613393565b6040516001600160e01b031960e084901b1681526001600160a01b039091166004820152608088013560248201526044016020604051808303816000875af115801561328d573d6000803e3d6000fd5b505050506040513d601f19601f820116820180604052508101906132b191906137f1565b507fa92ff919b850e4909ab2261d907ef955f11bc1716733a6cbece38d163a69af8a6132e36060870160408801613393565b6132f36080880160608901613393565b604080516001600160a01b039384168152929091166020830152608088013590820152606001611bd5565b828054828255906000526020600020908101928215613359579160200282015b8281111561335957825182559160200191906001019061333e565b50613365929150613369565b5090565b5b80821115613365576000815560010161336a565b6001600160a01b038116811461060557600080fd5b6000602082840312156133a557600080fd5b813561244a8161337e565b6000602082840312156133c257600080fd5b5035919050565b600080604083850312156133dc57600080fd5b82356133e78161337e565b946020939093013593505050565b60006020828403121561340757600080fd5b813567ffffffffffffffff81111561341e57600080fd5b82016060818503121561244a57600080fd5b60006020828403121561344257600080fd5b813560ff8116811461244a57600080fd5b6000806040838503121561346657600080fd5b50508035926020909101359150565b634e487b7160e01b600052602160045260246000fd5b6002811061060557634e487b7160e01b600052602160045260246000fd5b80516134b48161348b565b8252602090810151910152565b600081518084526020808501945080840160005b8381101561351e5781516134ea8882516134a9565b8084015160408981019190915281015115156060808a01919091520151608088015260a090960195908201906001016134d5565b509495945050505050565b600081518084526020808501945080840160005b8381101561351e5781518752958201959082019060010161353d565b600081518084526020808501808196508360051b8101915082860160005b858110156135ca578284038952815160806135938683516134a9565b86820151604082818901526135aa83890183613529565b930151606097909701969096525098850198935090840190600101613577565b5091979650505050505050565b6000602080835260c080840185516135ee8161348b565b858401528583015160a06040808801829052825193849052918501926000929060e08901905b808510156136705785516136298382516134a9565b808901516001600160a01b03908116848601528482015116606080850191909152810151608080850191909152015184830152948701946001949094019390860190613614565b50818a01519650601f199550858982030160608a015261369081886134c1565b9650505060608801519250838786030160808801526136af85846134c1565b94506080880151925083878603018188015250506136cd8382613559565b9695505050505050565b60a081016136e582876134a9565b60408201949094529115156060830152608090910152919050565b6020810161370d8361348b565b91905290565b6002811061060557600080fd5b6000806000806080858703121561373657600080fd5b84356137418161337e565b935060208501356137518161337e565b9250604085013561376181613713565b915060608501356137718161337e565b939692955090935050565b60006020828403121561378e57600080fd5b815161244a8161337e565b6020808252602a908201527f6d73672e73656e646572206973206e6f74207065726d697373696f6e6564206160408201526939903ab73830bab9b2b960b11b606082015260800190565b801515811461060557600080fd5b60006020828403121561380357600080fd5b815161244a816137e3565b60208082526028908201527f6d73672e73656e646572206973206e6f74207065726d697373696f6e6564206160408201526739903830bab9b2b960c11b606082015260800190565b6020808252601c908201527f5061757361626c653a20636f6e74726163742069732070617573656400000000604082015260600190565b6000808335601e198436030181126138a457600080fd5b83018035915067ffffffffffffffff8211156138bf57600080fd5b602001915060a0810236038213156138d657600080fd5b9250929050565b60208082526010908201526f496e76616c6964204c3255706461746560801b604082015260600190565b634e487b7160e01b600052601160045260246000fd5b6000821982111561393057613930613907565b500190565b600060001982141561394957613949613907565b5060010190565b8281526040602082015260006139696040830184613529565b949350505050565b634e487b7160e01b600052604160045260246000fd5b634e487b7160e01b600052603260045260246000fd5b6000828210156139af576139af613907565b500390565b6040805190810167ffffffffffffffff811182821017156139e557634e487b7160e01b600052604160045260246000fd5b60405290565b80356139f6816137e3565b919050565b600081830360a0811215613a0e57600080fd5b6040516080810181811067ffffffffffffffff82111715613a3f57634e487b7160e01b600052604160045260246000fd5b6040908152821215613a5057600080fd5b613a586139b4565b91508335613a6581613713565b8083525060208401356020830152818152604084013560208201526060840135915060068210613a9457600080fd5b816040820152613aa6608085016139eb565b6060820152949350505050565b600060208083528351808285015260005b81811015613ae057858101830151858201604001528201613ac4565b81811115613af2576000604083870101525b50601f01601f1916929092016040019392505050565b600060208284031215613b1a57600080fd5b505191905056fea2646970667358221220e87aa0b9911314163c5139e076ee3dd9085fb51cff9c27a3c69032e100d95ba964736f6c634300080c0033",
    "linkReferences": {}
  },
  "methodIdentifiers": {
    "ETH_TOKEN_ADDRESS()": "1878d1f1",
    "cancelResolutions(uint256)": "ca9b21ae",
    "chain()": "c763e5a1",
    "counter()": "61bc221a",
    "deposit(address,uint256)": "47e7ef24",
    "deposit_erc20(address,uint256)": "d16544f0",
    "deposit_native()": "c87c2224",
    "getPendingRequests(uint256,uint256)": "79e041f2",
    "getUpdateForL2()": "b1538706",
    "initialize(address,address,uint8,address)": "ffea632b",
    "lastProcessedUpdate_origin_l1()": "7fd4f845",
    "lastProcessedUpdate_origin_l2()": "f26ee9d0",
    "owner()": "8da5cb5b",
    "pause(uint256)": "136439dd",
    "pauseAll()": "595c6a67",
    "paused()": "5c975abb",
    "paused(uint8)": "5ac86ab7",
    "pauserRegistry()": "886f1195",
    "pendingEthWithdrawals(address)": "80bc280c",
    "renounceOwnership()": "715018a6",
    "setPauserRegistry(address)": "10d67a2f",
    "setUpdater(address)": "9d54f419",
    "transferOwnership(address)": "f2fde38b",
    "unpause(uint256)": "fabc1cbc",
    "update_l1_from_l2((((uint8,uint256),(uint256,uint256),bytes32)[],((uint8,uint256),address,address,uint256)[],((uint8,uint256),uint256,uint8,bool)[]))": "5740b89d",
    "updaterAccount()": "71c54461",
    "withdraw_pending_eth(uint256)": "a7acab46",
    "withdrawalResolutions(uint256)": "a80fc9bd"
  },
  "id": 121
}