{
  "abi": [
    {
      "anonymous": false,
      "inputs": [
        {
          "indexed": false,
          "internalType": "uint256",
          "name": "requestId",
          "type": "uint256"
        },
        {
          "indexed": false,
          "internalType": "address",
          "name": "depositRecipient",
          "type": "address"
        },
        {
          "indexed": false,
          "internalType": "address",
          "name": "tokenAddress",
          "type": "address"
        },
        {
          "indexed": false,
          "internalType": "uint256",
          "name": "amount",
          "type": "uint256"
        },
        {
          "indexed": false,
          "internalType": "uint256",
          "name": "ferryTip",
          "type": "uint256"
        }
      ],
      "name": "DepositAcceptedIntoQueue",
      "type": "event"
    },
    {
      "anonymous": false,
      "inputs": [
        {
          "indexed": false,
          "internalType": "uint256",
          "name": "requestId",
          "type": "uint256"
        },
        {
          "indexed": false,
          "internalType": "bool",
          "name": "cancelJustified",
          "type": "bool"
        }
      ],
      "name": "DisputeResolutionAcceptedIntoQueue",
      "type": "event"
    },
    {
      "anonymous": false,
      "inputs": [
        {
          "indexed": false,
          "internalType": "address",
          "name": "sender",
          "type": "address"
        },
        {
          "indexed": false,
          "internalType": "address",
          "name": "token_address",
          "type": "address"
        },
        {
          "indexed": false,
          "internalType": "uint256",
          "name": "amount",
          "type": "uint256"
        }
      ],
      "name": "ERC20TokensWithdrawn",
      "type": "event"
    },
    {
      "anonymous": false,
      "inputs": [
        {
          "indexed": false,
          "internalType": "uint256",
          "name": "requestId",
          "type": "uint256"
        },
        {
          "indexed": false,
          "internalType": "uint256",
          "name": "originDepositId",
          "type": "uint256"
        },
        {
          "indexed": false,
          "internalType": "bytes32",
          "name": "failedDespotiResolutionHash",
          "type": "bytes32"
        }
      ],
      "name": "FailedDepositResolutionClosed",
      "type": "event"
    },
    {
      "anonymous": false,
      "inputs": [
        {
          "indexed": false,
          "internalType": "uint256",
          "name": "requestId",
          "type": "uint256"
        },
        {
          "indexed": false,
          "internalType": "bytes32",
          "name": "withdrawalHash",
          "type": "bytes32"
        }
      ],
      "name": "FerriedWithdrawalClosed",
      "type": "event"
    },
    {
      "anonymous": false,
      "inputs": [
        {
          "indexed": false,
          "internalType": "uint8",
          "name": "version",
          "type": "uint8"
        }
      ],
      "name": "Initialized",
      "type": "event"
    },
    {
      "anonymous": false,
      "inputs": [
        {
          "indexed": false,
          "internalType": "bytes32",
          "name": "root",
          "type": "bytes32"
        },
        {
          "components": [
            {
              "internalType": "uint256",
              "name": "start",
              "type": "uint256"
            },
            {
              "internalType": "uint256",
              "name": "end",
              "type": "uint256"
            }
          ],
          "indexed": false,
          "internalType": "struct IRolldownPrimitives.Range",
          "name": "range",
          "type": "tuple"
        }
      ],
      "name": "L2UpdateAccepted",
      "type": "event"
    },
    {
      "anonymous": false,
      "inputs": [
        {
          "indexed": false,
          "internalType": "address",
          "name": "sender",
          "type": "address"
        },
        {
          "indexed": false,
          "internalType": "uint256",
          "name": "amount",
          "type": "uint256"
        }
      ],
      "name": "NativeTokensWithdrawn",
      "type": "event"
    },
    {
      "anonymous": false,
      "inputs": [
        {
          "indexed": false,
          "internalType": "address",
          "name": "updater",
          "type": "address"
        }
      ],
      "name": "NewUpdaterSet",
      "type": "event"
    },
    {
      "anonymous": false,
      "inputs": [
        {
          "indexed": true,
          "internalType": "address",
          "name": "previousOwner",
          "type": "address"
        },
        {
          "indexed": true,
          "internalType": "address",
          "name": "newOwner",
          "type": "address"
        }
      ],
      "name": "OwnershipTransferred",
      "type": "event"
    },
    {
      "anonymous": false,
      "inputs": [
        {
          "indexed": true,
          "internalType": "address",
          "name": "account",
          "type": "address"
        },
        {
          "indexed": false,
          "internalType": "uint256",
          "name": "newPausedStatus",
          "type": "uint256"
        }
      ],
      "name": "Paused",
      "type": "event"
    },
    {
      "anonymous": false,
      "inputs": [
        {
          "indexed": false,
          "internalType": "contract IPauserRegistry",
          "name": "pauserRegistry",
          "type": "address"
        },
        {
          "indexed": false,
          "internalType": "contract IPauserRegistry",
          "name": "newPauserRegistry",
          "type": "address"
        }
      ],
      "name": "PauserRegistrySet",
      "type": "event"
    },
    {
      "anonymous": false,
      "inputs": [
        {
          "indexed": true,
          "internalType": "address",
          "name": "account",
          "type": "address"
        },
        {
          "indexed": false,
          "internalType": "uint256",
          "name": "newPausedStatus",
          "type": "uint256"
        }
      ],
      "name": "Unpaused",
      "type": "event"
    },
    {
      "anonymous": false,
      "inputs": [
        {
          "indexed": false,
          "internalType": "uint256",
          "name": "requestId",
          "type": "uint256"
        },
        {
          "indexed": false,
          "internalType": "bytes32",
          "name": "withdrawalHash",
          "type": "bytes32"
        }
      ],
      "name": "WithdrawalClosed",
      "type": "event"
    },
    {
      "anonymous": false,
      "inputs": [
        {
          "indexed": false,
          "internalType": "uint256",
          "name": "requestId",
          "type": "uint256"
        },
        {
          "indexed": false,
          "internalType": "uint256",
          "name": "amount",
          "type": "uint256"
        },
        {
          "indexed": false,
          "internalType": "address",
          "name": "recipient",
          "type": "address"
        },
        {
          "indexed": false,
          "internalType": "address",
          "name": "ferry",
          "type": "address"
        },
        {
          "indexed": false,
          "internalType": "bytes32",
          "name": "withdrawalHash",
          "type": "bytes32"
        }
      ],
      "name": "WithdrawalFerried",
      "type": "event"
    },
    {
      "inputs": [],
      "name": "CLOSED",
      "outputs": [
        {
          "internalType": "address",
          "name": "",
          "type": "address"
        }
      ],
      "stateMutability": "view",
      "type": "function"
    },
    {
      "inputs": [],
      "name": "NATIVE_TOKEN_ADDRESS",
      "outputs": [
        {
          "internalType": "address",
          "name": "",
          "type": "address"
        }
      ],
      "stateMutability": "view",
      "type": "function"
    },
    {
      "inputs": [
        {
          "internalType": "bytes32",
          "name": "leave_hash",
          "type": "bytes32"
        },
        {
          "internalType": "uint32",
          "name": "leave_idx",
          "type": "uint32"
        },
        {
          "internalType": "bytes32[]",
          "name": "proof",
          "type": "bytes32[]"
        },
        {
          "internalType": "uint32",
          "name": "leaves_count",
          "type": "uint32"
        }
      ],
      "name": "calculate_root",
      "outputs": [
        {
          "internalType": "bytes32",
          "name": "",
          "type": "bytes32"
        }
      ],
      "stateMutability": "pure",
      "type": "function"
    },
    {
      "inputs": [
        {
          "internalType": "uint32",
          "name": "level",
          "type": "uint32"
        },
        {
          "internalType": "uint32",
          "name": "pos",
          "type": "uint32"
        },
        {
          "internalType": "bytes32",
          "name": "hash",
          "type": "bytes32"
        },
        {
          "internalType": "bytes32[]",
          "name": "proofs",
          "type": "bytes32[]"
        },
        {
          "internalType": "uint32",
          "name": "proof_idx",
          "type": "uint32"
        },
        {
          "internalType": "uint32",
          "name": "max_index",
          "type": "uint32"
        }
      ],
      "name": "calculate_root_impl",
      "outputs": [
        {
          "internalType": "bytes32",
          "name": "",
          "type": "bytes32"
        }
      ],
      "stateMutability": "pure",
      "type": "function"
    },
    {
      "inputs": [
        {
          "internalType": "uint256",
          "name": "",
          "type": "uint256"
        }
      ],
      "name": "cancelResolutions",
      "outputs": [
        {
          "components": [
            {
              "internalType": "enum IRolldownPrimitives.Origin",
              "name": "origin",
              "type": "uint8"
            },
            {
              "internalType": "uint256",
              "name": "id",
              "type": "uint256"
            }
          ],
          "internalType": "struct IRolldownPrimitives.RequestId",
          "name": "requestId",
          "type": "tuple"
        },
        {
          "internalType": "uint256",
          "name": "l2RequestId",
          "type": "uint256"
        },
        {
          "internalType": "bool",
          "name": "cancelJustified",
          "type": "bool"
        },
        {
          "internalType": "uint256",
          "name": "timeStamp",
          "type": "uint256"
        }
      ],
      "stateMutability": "view",
      "type": "function"
    },
    {
      "inputs": [],
      "name": "chain",
      "outputs": [
        {
          "internalType": "enum IRolldownPrimitives.ChainId",
          "name": "",
          "type": "uint8"
        }
      ],
      "stateMutability": "view",
      "type": "function"
    },
    {
      "inputs": [
        {
          "components": [
            {
              "components": [
                {
                  "internalType": "enum IRolldownPrimitives.Origin",
                  "name": "origin",
                  "type": "uint8"
                },
                {
                  "internalType": "uint256",
                  "name": "id",
                  "type": "uint256"
                }
              ],
              "internalType": "struct IRolldownPrimitives.RequestId",
              "name": "requestId",
              "type": "tuple"
            },
            {
              "components": [
                {
                  "internalType": "uint256",
                  "name": "start",
                  "type": "uint256"
                },
                {
                  "internalType": "uint256",
                  "name": "end",
                  "type": "uint256"
                }
              ],
              "internalType": "struct IRolldownPrimitives.Range",
              "name": "range",
              "type": "tuple"
            },
            {
              "internalType": "bytes32",
              "name": "hash",
              "type": "bytes32"
            }
          ],
          "internalType": "struct IRolldownPrimitives.Cancel",
          "name": "cancel",
          "type": "tuple"
        },
        {
          "internalType": "bytes32",
          "name": "merkle_root",
          "type": "bytes32"
        },
        {
          "internalType": "bytes32[]",
          "name": "proof",
          "type": "bytes32[]"
        }
      ],
      "name": "close_cancel",
      "outputs": [],
      "stateMutability": "nonpayable",
      "type": "function"
    },
    {
      "inputs": [
        {
          "components": [
            {
              "components": [
                {
                  "internalType": "enum IRolldownPrimitives.Origin",
                  "name": "origin",
                  "type": "uint8"
                },
                {
                  "internalType": "uint256",
                  "name": "id",
                  "type": "uint256"
                }
              ],
              "internalType": "struct IRolldownPrimitives.RequestId",
              "name": "requestId",
              "type": "tuple"
            },
            {
              "internalType": "uint256",
              "name": "originRequestId",
              "type": "uint256"
            },
            {
              "internalType": "address",
              "name": "ferry",
              "type": "address"
            }
          ],
          "internalType": "struct IRolldownPrimitives.FailedDepositResolution",
          "name": "failedDeposit",
          "type": "tuple"
        },
        {
          "internalType": "bytes32",
          "name": "merkle_root",
          "type": "bytes32"
        },
        {
          "internalType": "bytes32[]",
          "name": "proof",
          "type": "bytes32[]"
        }
      ],
      "name": "close_deposit_refund",
      "outputs": [],
      "stateMutability": "nonpayable",
      "type": "function"
    },
    {
      "inputs": [
        {
          "components": [
            {
              "components": [
                {
                  "internalType": "enum IRolldownPrimitives.Origin",
                  "name": "origin",
                  "type": "uint8"
                },
                {
                  "internalType": "uint256",
                  "name": "id",
                  "type": "uint256"
                }
              ],
              "internalType": "struct IRolldownPrimitives.RequestId",
              "name": "requestId",
              "type": "tuple"
            },
            {
              "internalType": "address",
              "name": "recipient",
              "type": "address"
            },
            {
              "internalType": "address",
              "name": "tokenAddress",
              "type": "address"
            },
            {
              "internalType": "uint256",
              "name": "amount",
              "type": "uint256"
            },
            {
              "internalType": "uint256",
              "name": "ferryTip",
              "type": "uint256"
            }
          ],
          "internalType": "struct IRolldownPrimitives.Withdrawal",
          "name": "withdrawal",
          "type": "tuple"
        },
        {
          "internalType": "bytes32",
          "name": "merkle_root",
          "type": "bytes32"
        },
        {
          "internalType": "bytes32[]",
          "name": "proof",
          "type": "bytes32[]"
        }
      ],
      "name": "close_withdrawal",
      "outputs": [],
      "stateMutability": "nonpayable",
      "type": "function"
    },
    {
      "inputs": [],
      "name": "counter",
      "outputs": [
        {
          "internalType": "uint256",
          "name": "",
          "type": "uint256"
        }
      ],
      "stateMutability": "view",
      "type": "function"
    },
    {
      "inputs": [
        {
          "internalType": "address",
          "name": "tokenAddress",
          "type": "address"
        },
        {
          "internalType": "uint256",
          "name": "amount",
          "type": "uint256"
        },
        {
          "internalType": "uint256",
          "name": "ferryTip",
          "type": "uint256"
        }
      ],
      "name": "deposit",
      "outputs": [],
      "stateMutability": "nonpayable",
      "type": "function"
    },
    {
      "inputs": [
        {
          "internalType": "address",
          "name": "tokenAddress",
          "type": "address"
        },
        {
          "internalType": "uint256",
          "name": "amount",
          "type": "uint256"
        }
      ],
      "name": "deposit",
      "outputs": [],
      "stateMutability": "nonpayable",
      "type": "function"
    },
    {
      "inputs": [
        {
          "internalType": "address",
          "name": "tokenAddress",
          "type": "address"
        },
        {
          "internalType": "uint256",
          "name": "amount",
          "type": "uint256"
        },
        {
          "internalType": "uint256",
          "name": "ferryTip",
          "type": "uint256"
        }
      ],
      "name": "deposit_erc20",
      "outputs": [],
      "stateMutability": "nonpayable",
      "type": "function"
    },
    {
      "inputs": [
        {
          "internalType": "address",
          "name": "tokenAddress",
          "type": "address"
        },
        {
          "internalType": "uint256",
          "name": "amount",
          "type": "uint256"
        }
      ],
      "name": "deposit_erc20",
      "outputs": [],
      "stateMutability": "nonpayable",
      "type": "function"
    },
    {
      "inputs": [],
      "name": "deposit_native",
      "outputs": [],
      "stateMutability": "payable",
      "type": "function"
    },
    {
      "inputs": [
        {
          "internalType": "uint256",
          "name": "ferryTip",
          "type": "uint256"
        }
      ],
      "name": "deposit_native",
      "outputs": [],
      "stateMutability": "payable",
      "type": "function"
    },
    {
      "inputs": [
        {
          "internalType": "uint256",
          "name": "",
          "type": "uint256"
        }
      ],
      "name": "deposits",
      "outputs": [
        {
          "components": [
            {
              "internalType": "enum IRolldownPrimitives.Origin",
              "name": "origin",
              "type": "uint8"
            },
            {
              "internalType": "uint256",
              "name": "id",
              "type": "uint256"
            }
          ],
          "internalType": "struct IRolldownPrimitives.RequestId",
          "name": "requestId",
          "type": "tuple"
        },
        {
          "internalType": "address",
          "name": "depositRecipient",
          "type": "address"
        },
        {
          "internalType": "address",
          "name": "tokenAddress",
          "type": "address"
        },
        {
          "internalType": "uint256",
          "name": "amount",
          "type": "uint256"
        },
        {
          "internalType": "uint256",
          "name": "timeStamp",
          "type": "uint256"
        },
        {
          "internalType": "uint256",
          "name": "ferryTip",
          "type": "uint256"
        }
      ],
      "stateMutability": "view",
      "type": "function"
    },
    {
      "inputs": [
        {
          "components": [
            {
              "components": [
                {
                  "internalType": "enum IRolldownPrimitives.Origin",
                  "name": "origin",
                  "type": "uint8"
                },
                {
                  "internalType": "uint256",
                  "name": "id",
                  "type": "uint256"
                }
              ],
              "internalType": "struct IRolldownPrimitives.RequestId",
              "name": "requestId",
              "type": "tuple"
            },
            {
              "internalType": "address",
              "name": "recipient",
              "type": "address"
            },
            {
              "internalType": "address",
              "name": "tokenAddress",
              "type": "address"
            },
            {
              "internalType": "uint256",
              "name": "amount",
              "type": "uint256"
            },
            {
              "internalType": "uint256",
              "name": "ferryTip",
              "type": "uint256"
            }
          ],
          "internalType": "struct IRolldownPrimitives.Withdrawal",
          "name": "withdrawal",
          "type": "tuple"
        }
      ],
      "name": "ferry_withdrawal",
      "outputs": [],
      "stateMutability": "payable",
      "type": "function"
    },
    {
      "inputs": [
        {
          "internalType": "uint256",
          "name": "requestId",
          "type": "uint256"
        }
      ],
      "name": "find_l2_batch",
      "outputs": [
        {
          "components": [
            {
              "internalType": "uint256",
              "name": "start",
              "type": "uint256"
            },
            {
              "internalType": "uint256",
              "name": "end",
              "type": "uint256"
            }
          ],
          "internalType": "struct IRolldownPrimitives.Range",
          "name": "",
          "type": "tuple"
        }
      ],
      "stateMutability": "view",
      "type": "function"
    },
    {
      "inputs": [],
      "name": "getMerkleRootsLength",
      "outputs": [
        {
          "internalType": "uint256",
          "name": "",
          "type": "uint256"
        }
      ],
      "stateMutability": "view",
      "type": "function"
    },
    {
      "inputs": [
        {
          "internalType": "uint256",
          "name": "start",
          "type": "uint256"
        },
        {
          "internalType": "uint256",
          "name": "end",
          "type": "uint256"
        }
      ],
      "name": "getPendingRequests",
      "outputs": [
        {
          "components": [
            {
              "internalType": "enum IRolldownPrimitives.ChainId",
              "name": "chain",
              "type": "uint8"
            },
            {
              "components": [
                {
                  "components": [
                    {
                      "internalType": "enum IRolldownPrimitives.Origin",
                      "name": "origin",
                      "type": "uint8"
                    },
                    {
                      "internalType": "uint256",
                      "name": "id",
                      "type": "uint256"
                    }
                  ],
                  "internalType": "struct IRolldownPrimitives.RequestId",
                  "name": "requestId",
                  "type": "tuple"
                },
                {
                  "internalType": "address",
                  "name": "depositRecipient",
                  "type": "address"
                },
                {
                  "internalType": "address",
                  "name": "tokenAddress",
                  "type": "address"
                },
                {
                  "internalType": "uint256",
                  "name": "amount",
                  "type": "uint256"
                },
                {
                  "internalType": "uint256",
                  "name": "timeStamp",
                  "type": "uint256"
                },
                {
                  "internalType": "uint256",
                  "name": "ferryTip",
                  "type": "uint256"
                }
              ],
              "internalType": "struct IRolldownPrimitives.Deposit[]",
              "name": "pendingDeposits",
              "type": "tuple[]"
            },
            {
              "components": [
                {
                  "components": [
                    {
                      "internalType": "enum IRolldownPrimitives.Origin",
                      "name": "origin",
                      "type": "uint8"
                    },
                    {
                      "internalType": "uint256",
                      "name": "id",
                      "type": "uint256"
                    }
                  ],
                  "internalType": "struct IRolldownPrimitives.RequestId",
                  "name": "requestId",
                  "type": "tuple"
                },
                {
                  "internalType": "uint256",
                  "name": "l2RequestId",
                  "type": "uint256"
                },
                {
                  "internalType": "bool",
                  "name": "cancelJustified",
                  "type": "bool"
                },
                {
                  "internalType": "uint256",
                  "name": "timeStamp",
                  "type": "uint256"
                }
              ],
              "internalType": "struct IRolldownPrimitives.CancelResolution[]",
              "name": "pendingCancelResolutions",
              "type": "tuple[]"
            }
          ],
          "internalType": "struct IRolldownPrimitives.L1Update",
          "name": "",
          "type": "tuple"
        }
      ],
      "stateMutability": "view",
      "type": "function"
    },
    {
      "inputs": [],
      "name": "getUpdateForL2",
      "outputs": [
        {
          "components": [
            {
              "internalType": "enum IRolldownPrimitives.ChainId",
              "name": "chain",
              "type": "uint8"
            },
            {
              "components": [
                {
                  "components": [
                    {
                      "internalType": "enum IRolldownPrimitives.Origin",
                      "name": "origin",
                      "type": "uint8"
                    },
                    {
                      "internalType": "uint256",
                      "name": "id",
                      "type": "uint256"
                    }
                  ],
                  "internalType": "struct IRolldownPrimitives.RequestId",
                  "name": "requestId",
                  "type": "tuple"
                },
                {
                  "internalType": "address",
                  "name": "depositRecipient",
                  "type": "address"
                },
                {
                  "internalType": "address",
                  "name": "tokenAddress",
                  "type": "address"
                },
                {
                  "internalType": "uint256",
                  "name": "amount",
                  "type": "uint256"
                },
                {
                  "internalType": "uint256",
                  "name": "timeStamp",
                  "type": "uint256"
                },
                {
                  "internalType": "uint256",
                  "name": "ferryTip",
                  "type": "uint256"
                }
              ],
              "internalType": "struct IRolldownPrimitives.Deposit[]",
              "name": "pendingDeposits",
              "type": "tuple[]"
            },
            {
              "components": [
                {
                  "components": [
                    {
                      "internalType": "enum IRolldownPrimitives.Origin",
                      "name": "origin",
                      "type": "uint8"
                    },
                    {
                      "internalType": "uint256",
                      "name": "id",
                      "type": "uint256"
                    }
                  ],
                  "internalType": "struct IRolldownPrimitives.RequestId",
                  "name": "requestId",
                  "type": "tuple"
                },
                {
                  "internalType": "uint256",
                  "name": "l2RequestId",
                  "type": "uint256"
                },
                {
                  "internalType": "bool",
                  "name": "cancelJustified",
                  "type": "bool"
                },
                {
                  "internalType": "uint256",
                  "name": "timeStamp",
                  "type": "uint256"
                }
              ],
              "internalType": "struct IRolldownPrimitives.CancelResolution[]",
              "name": "pendingCancelResolutions",
              "type": "tuple[]"
            }
          ],
          "internalType": "struct IRolldownPrimitives.L1Update",
          "name": "",
          "type": "tuple"
        }
      ],
      "stateMutability": "view",
      "type": "function"
    },
    {
      "inputs": [
        {
          "internalType": "contract IPauserRegistry",
          "name": "_pauserRegistry",
          "type": "address"
        },
        {
          "internalType": "address",
          "name": "initialOwner",
          "type": "address"
        },
        {
          "internalType": "enum IRolldownPrimitives.ChainId",
          "name": "chainId",
          "type": "uint8"
        },
        {
          "internalType": "address",
          "name": "updater",
          "type": "address"
        }
      ],
      "name": "initialize",
      "outputs": [],
      "stateMutability": "nonpayable",
      "type": "function"
    },
    {
      "inputs": [],
      "name": "lastProcessedUpdate_origin_l1",
      "outputs": [
        {
          "internalType": "uint256",
          "name": "",
          "type": "uint256"
        }
      ],
      "stateMutability": "view",
      "type": "function"
    },
    {
      "inputs": [],
      "name": "lastProcessedUpdate_origin_l2",
      "outputs": [
        {
          "internalType": "uint256",
          "name": "",
          "type": "uint256"
        }
      ],
      "stateMutability": "view",
      "type": "function"
    },
    {
      "inputs": [
        {
          "internalType": "bytes32",
          "name": "",
          "type": "bytes32"
        }
      ],
      "name": "merkleRootRange",
      "outputs": [
        {
          "internalType": "uint256",
          "name": "start",
          "type": "uint256"
        },
        {
          "internalType": "uint256",
          "name": "end",
          "type": "uint256"
        }
      ],
      "stateMutability": "view",
      "type": "function"
    },
    {
      "inputs": [],
      "name": "owner",
      "outputs": [
        {
          "internalType": "address",
          "name": "",
          "type": "address"
        }
      ],
      "stateMutability": "view",
      "type": "function"
    },
    {
      "inputs": [
        {
          "internalType": "uint256",
          "name": "newPausedStatus",
          "type": "uint256"
        }
      ],
      "name": "pause",
      "outputs": [],
      "stateMutability": "nonpayable",
      "type": "function"
    },
    {
      "inputs": [],
      "name": "pauseAll",
      "outputs": [],
      "stateMutability": "nonpayable",
      "type": "function"
    },
    {
      "inputs": [
        {
          "internalType": "uint8",
          "name": "index",
          "type": "uint8"
        }
      ],
      "name": "paused",
      "outputs": [
        {
          "internalType": "bool",
          "name": "",
          "type": "bool"
        }
      ],
      "stateMutability": "view",
      "type": "function"
    },
    {
      "inputs": [],
      "name": "paused",
      "outputs": [
        {
          "internalType": "uint256",
          "name": "",
          "type": "uint256"
        }
      ],
      "stateMutability": "view",
      "type": "function"
    },
    {
      "inputs": [],
      "name": "pauserRegistry",
      "outputs": [
        {
          "internalType": "contract IPauserRegistry",
          "name": "",
          "type": "address"
        }
      ],
      "stateMutability": "view",
      "type": "function"
    },
    {
      "inputs": [
        {
          "internalType": "bytes32",
          "name": "",
          "type": "bytes32"
        }
      ],
      "name": "processedL2Requests",
      "outputs": [
        {
          "internalType": "address",
          "name": "",
          "type": "address"
        }
      ],
      "stateMutability": "view",
      "type": "function"
    },
    {
      "inputs": [],
      "name": "renounceOwnership",
      "outputs": [],
      "stateMutability": "nonpayable",
      "type": "function"
    },
    {
      "inputs": [
        {
          "internalType": "uint256",
          "name": "",
          "type": "uint256"
        }
      ],
      "name": "roots",
      "outputs": [
        {
          "internalType": "bytes32",
          "name": "",
          "type": "bytes32"
        }
      ],
      "stateMutability": "view",
      "type": "function"
    },
    {
      "inputs": [
        {
          "internalType": "contract IPauserRegistry",
          "name": "newPauserRegistry",
          "type": "address"
        }
      ],
      "name": "setPauserRegistry",
      "outputs": [],
      "stateMutability": "nonpayable",
      "type": "function"
    },
    {
      "inputs": [
        {
          "internalType": "address",
          "name": "updater",
          "type": "address"
        }
      ],
      "name": "setUpdater",
      "outputs": [],
      "stateMutability": "nonpayable",
      "type": "function"
    },
    {
      "inputs": [
        {
          "internalType": "address",
          "name": "newOwner",
          "type": "address"
        }
      ],
      "name": "transferOwnership",
      "outputs": [],
      "stateMutability": "nonpayable",
      "type": "function"
    },
    {
      "inputs": [
        {
          "internalType": "uint256",
          "name": "newPausedStatus",
          "type": "uint256"
        }
      ],
      "name": "unpause",
      "outputs": [],
      "stateMutability": "nonpayable",
      "type": "function"
    },
    {
      "inputs": [
        {
          "internalType": "bytes32",
          "name": "merkle_root",
          "type": "bytes32"
        },
        {
          "components": [
            {
              "internalType": "uint256",
              "name": "start",
              "type": "uint256"
            },
            {
              "internalType": "uint256",
              "name": "end",
              "type": "uint256"
            }
          ],
          "internalType": "struct IRolldownPrimitives.Range",
          "name": "range",
          "type": "tuple"
        }
      ],
      "name": "update_l1_from_l2",
      "outputs": [],
      "stateMutability": "nonpayable",
      "type": "function"
    },
    {
      "inputs": [],
      "name": "updaterAccount",
      "outputs": [
        {
          "internalType": "address",
          "name": "",
          "type": "address"
        }
      ],
      "stateMutability": "view",
      "type": "function"
    }
  ],
  "bytecode": {
    "object": "0x608060405234801561001057600080fd5b50600160d255613e8d806100256000396000f3fe6080604052600436106102465760003560e01c80638da5cb5b11610139578063d16544f0116100b6578063f26ee9d01161007a578063f26ee9d0146106b7578063f2fde38b146106cd578063f9ecd01e146106ed578063fabc1cbc14610728578063ff2bae8614610748578063ffea632b1461075d57600080fd5b8063d16544f014610345578063de70e0b814610639578063df2ebdbb1461066f578063dffbdd9f14610684578063ef0ba5d01461069757600080fd5b8063b1538706116100fd578063b1538706146105a5578063c2b40ae4146105ba578063c763e5a1146105da578063c87c222414610601578063ca9b21ae1461060957600080fd5b80638da5cb5b146104f5578063950ac487146105135780639d54f41914610533578063af26c69514610553578063b02c43d01461057357600080fd5b80634f48eedf116101c7578063715018a61161018b578063715018a61461045857806371c544611461046d57806379e041f2146104925780637fd4f845146104bf578063886f1195146104d557600080fd5b80634f48eedf14610385578063595c6a67146103ce5780635ac86ab7146103e35780635c975abb1461042357806361bc221a1461044257600080fd5b80630efe6a8b1161020e5780630efe6a8b1461026d57806310d67a2f14610305578063136439dd1461032557806347e7ef24146103455780634bf5fec31461036557600080fd5b806301ef69661461024b57806308aba1b21461026d57806308f42d401461028d5780630cac57ab146102ad5780630e2636a3146102c0575b600080fd5b34801561025757600080fd5b5061026b6102663660046133d9565b61077d565b005b34801561027957600080fd5b5061026b610288366004613450565b610853565b34801561029957600080fd5b5061026b6102a8366004613485565b6108af565b61026b6102bb3660046134d5565b610b02565b3480156102cc57600080fd5b506102e873111111111111111111111111111111111111111181565b6040516001600160a01b0390911681526020015b60405180910390f35b34801561031157600080fd5b5061026b6103203660046134f1565b610f9e565b34801561033157600080fd5b5061026b61034036600461350e565b611051565b34801561035157600080fd5b5061026b610360366004613527565b611190565b34801561037157600080fd5b5061026b610380366004613553565b6111ec565b34801561039157600080fd5b506103b96103a036600461350e565b609d602052600090815260409020805460019091015482565b604080519283526020830191909152016102fc565b3480156103da57600080fd5b5061026b61146e565b3480156103ef57600080fd5b506104136103fe366004613597565b606654600160ff9092169190911b9081161490565b60405190151581526020016102fc565b34801561042f57600080fd5b506066545b6040519081526020016102fc565b34801561044e57600080fd5b5061043460975481565b34801561046457600080fd5b5061026b611535565b34801561047957600080fd5b50609a546102e89061010090046001600160a01b031681565b34801561049e57600080fd5b506104b26104ad3660046135ba565b611549565b6040516102fc9190613690565b3480156104cb57600080fd5b5061043460985481565b3480156104e157600080fd5b506065546102e8906001600160a01b031681565b34801561050157600080fd5b506033546001600160a01b03166102e8565b34801561051f57600080fd5b5061026b61052e366004613753565b611963565b34801561053f57600080fd5b5061026b61054e3660046134f1565b611a19565b34801561055f57600080fd5b5061043461056e3660046137b6565b611aa0565b34801561057f57600080fd5b5061059361058e36600461350e565b611af1565b6040516102fc96959493929190613825565b3480156105b157600080fd5b506104b2611b78565b3480156105c657600080fd5b506104346105d536600461350e565b611bc3565b3480156105e657600080fd5b50609a546105f49060ff1681565b6040516102fc9190613867565b61026b611be4565b34801561061557600080fd5b5061062961062436600461350e565b611c3c565b6040516102fc949392919061387a565b34801561064557600080fd5b506102e861065436600461350e565b609e602052600090815260409020546001600160a01b031681565b34801561067b57600080fd5b506102e8600181565b61026b61069236600461350e565b611cae565b3480156106a357600080fd5b506104346106b23660046138a3565b611d06565b3480156106c357600080fd5b5061043460995481565b3480156106d957600080fd5b5061026b6106e83660046134f1565b611e3f565b3480156106f957600080fd5b5061070d61070836600461350e565b611eb5565b604080518251815260209283015192810192909252016102fc565b34801561073457600080fd5b5061026b61074336600461350e565b61202c565b34801561075457600080fd5b50609f54610434565b34801561076957600080fd5b5061026b610778366004613940565b612188565b606654156107a65760405162461bcd60e51b815260040161079d9061399c565b60405180910390fd5b600260d254036107c85760405162461bcd60e51b815260040161079d906139d3565b600260d2556040516000906107e1908690602001613a2b565b60405160208183030381529060405280519060200120905061080d856000016020013582868686612301565b61081685612476565b6000908152609e6020526040902080546001600160a01b0319167311111111111111111111111111111111111111111790555050600160d2555050565b606654156108735760405162461bcd60e51b815260040161079d9061399c565b600260d254036108955760405162461bcd60e51b815260040161079d906139d3565b600260d2556108a5838383612603565b5050600160d25550565b606654156108cf5760405162461bcd60e51b815260040161079d9061399c565b609a5461010090046001600160a01b0316331461091e5760405162461bcd60e51b815260206004820152600d60248201526c2737ba103a34329037bbb732b960991b604482015260640161079d565b6099548160200135116109735760405162461bcd60e51b815260206004820152601960248201527f557064617465206272696e6773206e6f206e6577206461746100000000000000604482015260640161079d565b80356109c15760405162461bcd60e51b815260206004820152601f60248201527f72616e6765206964206d7573742062652067726561746572207468616e203000604482015260640161079d565b6099546109d060018335613a77565b1115610a1e5760405162461bcd60e51b815260206004820152601760248201527f50726576696f757320757064617465206d697373696e67000000000000000000604482015260640161079d565b803560208201351015610a635760405162461bcd60e51b815260206004820152600d60248201526c496e76616c69642072616e676560981b604482015260640161079d565b609f8054600181019091557f0bc14066c33013fe88f66e314e4cf150b0b2d4d6451a1a51dbbd1c27cd11de28018290556000828152609d602052604090208190610aba828281358155602082013560018201555050565b505060208101356099556040517f49c158d490db9e066f01b5d4f1a094485a6598cb6c5296b4c07e46c12a1dc11c90610af69084908490613a8e565b60405180910390a15050565b60665415610b225760405162461bcd60e51b815260040161079d9061399c565b600260d25403610b445760405162461bcd60e51b815260040161079d906139d3565b600260d255608081013560a08201351115610b715760405162461bcd60e51b815260040161079d90613aac565b6000610b8560a08301356080840135613a77565b9050600082604051602001610b9a9190613ae3565b60408051601f1981840301815291815281516020928301206000818152609e9093529120549091506001600160a01b031615610c0a5760405162461bcd60e51b815260206004820152600f60248201526e105b1c9958591e4819995c9c9a5959608a1b604482015260640161079d565b6000818152609e6020526040902080546001600160a01b031916331790556001610c3a60808501606086016134f1565b6001600160a01b031603610dcf5760003411610c905760405162461bcd60e51b815260206004820152601560248201527413985d1a5d99481d1bdad95b881b9bdd081cd95b9d605a1b604482015260640161079d565b813414610d165760405162461bcd60e51b815260206004820152604860248201527f53656e7420616d6f756e742073686f756c642065786163746c79206d6174636860448201527f207769746864726177616c2e616d6f756e74202d207769746864726177616c2e606482015267066657272795469760c41b608482015260a40161079d565b610d2660608401604085016134f1565b6001600160a01b03166108fc839081150290604051600060405180830381858888f19350505050158015610d5e573d6000803e3d6000fd5b507f7a9abd9eb86bdbca89cba4069a632c37d93db82e3e14ad8119a3a7812814853e602084013583610d9660608701604088016134f1565b6040805193845260208401929092526001600160a01b0316908201523360608201526080810183905260a00160405180910390a16108a5565b6000610de160808501606086016134f1565b6040516370a0823160e01b815233600482015290915083906001600160a01b038316906370a0823190602401602060405180830381865afa158015610e2a573d6000803e3d6000fd5b505050506040513d601f19601f82011682018060405250810190610e4e9190613b3f565b1015610e8f5760405162461bcd60e51b815260206004820152601060248201526f4e6f7420656e6f7567682066756e647360801b604482015260640161079d565b6001600160a01b0381166323b872dd33610eaf60608801604089016134f1565b6040516001600160e01b031960e085901b1681526001600160a01b03928316600482015291166024820152604481018690526064016020604051808303816000875af1158015610f03573d6000803e3d6000fd5b505050506040513d601f19601f82011682018060405250810190610f279190613b58565b507f7a9abd9eb86bdbca89cba4069a632c37d93db82e3e14ad8119a3a7812814853e602085013584610f5f60608801604089016134f1565b6040805193845260208401929092526001600160a01b0316908201523360608201526080810184905260a00160405180910390a1505050600160d25550565b606560009054906101000a90046001600160a01b03166001600160a01b031663eab66d7a6040518163ffffffff1660e01b8152600401602060405180830381865afa158015610ff1573d6000803e3d6000fd5b505050506040513d601f19601f820116820180604052508101906110159190613b7a565b6001600160a01b0316336001600160a01b0316146110455760405162461bcd60e51b815260040161079d90613b97565b61104e81612819565b50565b60655460405163237dfb4760e11b81523360048201526001600160a01b03909116906346fbf68e90602401602060405180830381865afa158015611099573d6000803e3d6000fd5b505050506040513d601f19601f820116820180604052508101906110bd9190613b58565b6110d95760405162461bcd60e51b815260040161079d90613be1565b606654818116146111525760405162461bcd60e51b815260206004820152603860248201527f5061757361626c652e70617573653a20696e76616c696420617474656d70742060448201527f746f20756e70617573652066756e6374696f6e616c6974790000000000000000606482015260840161079d565b606681905560405181815233907fab40a374bc51de372200a8bc981af8c9ecdc08dfdaef0bb6e09f88f3c616ef3d906020015b60405180910390a250565b606654156111b05760405162461bcd60e51b815260040161079d9061399c565b600260d254036111d25760405162461bcd60e51b815260040161079d906139d3565b600260d2556111e382826000612603565b5050600160d255565b6066541561120c5760405162461bcd60e51b815260040161079d9061399c565b600260d2540361122e5760405162461bcd60e51b815260040161079d906139d3565b600260d25560405161126b906020808701359161124d91889101613ae3565b60405160208183030381529060405280519060200120858585612301565b60008460405160200161127e9190613ae3565b60408051601f1981840301815291815281516020928301206000818152609e909352912080546001600160a01b03198116731111111111111111111111111111111111111111179091559091506001600160a01b0316801515806113b45760016112ee6080890160608a016134f1565b6001600160a01b03160361131e5761131961130f6060890160408a016134f1565b8860800135612910565b61134b565b61134b6113316060890160408a016134f1565b61134160808a0160608b016134f1565b89608001356129d1565b7f935f26d94be31907080aa78b3e6e2ac6d48a072af096c20268388621bbc117898760000160200135886040516020016113859190613ae3565b60408051601f1981840301815282825280516020918201209383528201929092520160405180910390a1611460565b60016113c66080890160608a016134f1565b6001600160a01b0316036113e7576113e2828860800135612910565b6113fb565b6113fb8261134160808a0160608b016134f1565b7f2996fd546c37d74c170466ea6aa4a308e3ca2d4aa689e6e9e32994db5039cc0e8760000160200135886040516020016114359190613ae3565b60408051601f1981840301815282825280516020918201209383528201929092520160405180910390a15b5050600160d2555050505050565b60655460405163237dfb4760e11b81523360048201526001600160a01b03909116906346fbf68e90602401602060405180830381865afa1580156114b6573d6000803e3d6000fd5b505050506040513d601f19601f820116820180604052508101906114da9190613b58565b6114f65760405162461bcd60e51b815260040161079d90613be1565b600019606681905560405190815233907fab40a374bc51de372200a8bc981af8c9ecdc08dfdaef0bb6e09f88f3c616ef3d9060200160405180910390a2565b61153d612b06565b6115476000612b60565b565b61156e6040805160608101909152806000815260200160608152602001606081525090565b6115936040805160608101909152806000815260200160608152602001606081525090565b609a54819060ff1660018111156115ac576115ac6135dc565b908160018111156115bf576115bf6135dc565b905250600080851580156115d1575084155b156115e15782935050505061195d565b855b858111611686576000818152609c602052604090206001015415611613578261160b81613c29565b935050611674565b6000818152609b60205260409020600101541561163c578161163481613c29565b925050611674565b60405162461bcd60e51b815260206004820152600d60248201526c496e76616c69642072616e676560981b604482015260640161079d565b8061167e81613c29565b9150506115e3565b508167ffffffffffffffff8111156116a0576116a0613c42565b60405190808252806020026020018201604052801561170e57816020015b6040805161010081018252600060c0820181815260e0830182905282526020808301829052928201819052606082018190526080820181905260a082015282526000199092019101816116be5790505b5060208401528067ffffffffffffffff81111561172d5761172d613c42565b60405190808252806020026020018201604052801561178c57816020015b6040805160c08101825260006080820181815260a08301829052825260208083018290529282018190526060820152825260001990920191018161174b5790505b506040840152506000905080855b858111611956576000818152609c602052604090206001015415611884576000818152609c602052604090819020815161010081019092528054829060c08201908390829060ff1660018111156117f3576117f36135dc565b6001811115611804576118046135dc565b81526001919091015460209182015290825260028301546001600160a01b03908116838301526003840154166040830152600483015460608301526005830154608083015260069092015460a0909101528501518461186281613c29565b95508151811061187457611874613c58565b6020026020010181905250611944565b6000818152609b60205260409020600201541561193f576000818152609b602052604090819020815160c081019092528054829060808201908390829060ff1660018111156118d5576118d56135dc565b60018111156118e6576118e66135dc565b815260019190910154602091820152908252600283015490820152600382015460ff1615156040808301919091526004909201546060909101528501518361192d81613c29565b94508151811061187457611874613c58565b611956565b8061194e81613c29565b91505061179a565b5091925050505b92915050565b606654156119835760405162461bcd60e51b815260040161079d9061399c565b600260d254036119a55760405162461bcd60e51b815260040161079d906139d3565b600260d2556040516000906119be908690602001613c6e565b604051602081830303815290604052805190602001209050611a108560000160200135866040516020016119f29190613c6e565b60405160208183030381529060405280519060200120868686612301565b61081685612bb2565b611a21612b06565b60665415611a415760405162461bcd60e51b815260040161079d9061399c565b609a8054610100600160a81b0319166101006001600160a01b038481168202929092179283905560405192041681527f1b0f2f500df596b42b73e80dbec6a1fb570f01978a586723f988a5fc54d773a19060200160405180910390a150565b600080825b63ffffffff811615611ad057611abc600282613cc2565b9050611ac9600183613ce5565b9150611aa5565b611ae582888a898960006106b260018c613d0d565b98975050505050505050565b609c6020526000908152604090819020815180830190925280549091908290829060ff166001811115611b2657611b266135dc565b6001811115611b3757611b376135dc565b815260019190910154602090910152600282015460038301546004840154600585015460069095015493946001600160a01b03938416949290931692909186565b611b9d6040805160608101909152806000815260200160608152602001606081525090565b611bbe6098546001611baf9190613d32565b60016097546104ad9190613a77565b905090565b609f8181548110611bd357600080fd5b600091825260209091200154905081565b600260d25403611c065760405162461bcd60e51b815260040161079d906139d3565b600260d25560665415611c2b5760405162461bcd60e51b815260040161079d9061399c565b611c356000612cca565b600160d255565b609b6020526000908152604090819020815180830190925280549091908290829060ff166001811115611c7157611c716135dc565b6001811115611c8257611c826135dc565b815260019190910154602090910152600282015460038301546004909301549192909160ff9091169084565b600260d25403611cd05760405162461bcd60e51b815260040161079d906139d3565b600260d25560665415611cf55760405162461bcd60e51b815260040161079d9061399c565b611cfe81612cca565b50600160d255565b6000611d13600288613d4a565b63ffffffff16600003611d96578163ffffffff168763ffffffff160315611df45785858585611d4181613d6d565b965063ffffffff16818110611d5857611d58613c58565b90506020020135604051602001611d79929190918252602082015260400190565b604051602081830303815290604052805190602001209550611df4565b848484611da281613d6d565b955063ffffffff16818110611db957611db9613c58565b9050602002013586604051602001611ddb929190918252602082015260400190565b6040516020818303038152906040528051906020012095505b8763ffffffff16600103611e09575084611e34565b611e31611e1760018a613d0d565b611e2260028a613cc2565b888888886106b260028a613cc2565b90505b979650505050505050565b611e47612b06565b6001600160a01b038116611eac5760405162461bcd60e51b815260206004820152602660248201527f4f776e61626c653a206e6577206f776e657220697320746865207a65726f206160448201526564647265737360d01b606482015260840161079d565b61104e81612b60565b6040805180820190915260008082526020820152609954821115611f105760405162461bcd60e51b8152602060048201526012602482015271125b9d985b1a59081c995c5d595cdd081a5960721b604482015260640161079d565b609f54600003611f33575050604080518082019091526000808252602082015290565b609f54600090611f4590600190613a77565b90505b609d6000609f8381548110611f5f57611f5f613c58565b90600052602060002001548152602001908152602001600020600001548310158015611fbe5750609d6000609f8381548110611f9d57611f9d613c58565b90600052602060002001548152602001908152602001600020600101548311155b1561201a57609d6000609f8381548110611fda57611fda613c58565b9060005260206000200154815260200190815260200160002060405180604001604052908160008201548152602001600182015481525050915050919050565b8061202481613d90565b915050611f48565b606560009054906101000a90046001600160a01b03166001600160a01b031663eab66d7a6040518163ffffffff1660e01b8152600401602060405180830381865afa15801561207f573d6000803e3d6000fd5b505050506040513d601f19601f820116820180604052508101906120a39190613b7a565b6001600160a01b0316336001600160a01b0316146120d35760405162461bcd60e51b815260040161079d90613b97565b6066541981196066541916146121515760405162461bcd60e51b815260206004820152603860248201527f5061757361626c652e756e70617573653a20696e76616c696420617474656d7060448201527f7420746f2070617573652066756e6374696f6e616c6974790000000000000000606482015260840161079d565b606681905560405181815233907f3582d1828e26bf56bd801502bc021ac0bc8afb57c826e4986b45593c8fad389c90602001611185565b600054610100900460ff16158080156121a85750600054600160ff909116105b806121c25750303b1580156121c2575060005460ff166001145b6122255760405162461bcd60e51b815260206004820152602e60248201527f496e697469616c697a61626c653a20636f6e747261637420697320616c72656160448201526d191e481a5b9a5d1a585b1a5e995960921b606482015260840161079d565b6000805460ff191660011790558015612248576000805461ff0019166101001790555b612253856000612ea3565b61225c84612b60565b6000609881905560016097819055609991909155609a8054859260ff1990911690838181111561228e5761228e6135dc565b0217905550609a8054610100600160a81b0319166101006001600160a01b0385160217905580156122fa576000805461ff0019169055604051600181527f7f26b83ff96e1f2b6a682f133852f6798a09c465da95921460cefb3847402498906020015b60405180910390a15b5050505050565b6000838152609d602090815260409182902082518084019093528054808452600190910154918301919091521580159061233e5750602081015115155b6123805760405162461bcd60e51b8152602060048201526013602482015272155b9adb9bdddb881b595c9adb19481c9bdbdd606a1b604482015260640161079d565b6000858152609e60205260409020546001600160a01b031673111111111111111111111111111111111111111019016123ef5760405162461bcd60e51b8152602060048201526011602482015270105b1c9958591e481c1c9bd8d95cdcd959607a1b604482015260640161079d565b8051602082015160009161240291613a77565b61240d906001613d32565b825190915060009061241f9089613a77565b90508561242f8883888887611aa0565b1461246c5760405162461bcd60e51b815260206004820152600d60248201526c24b73b30b634b210383937b7b360991b604482015260640161079d565b5050505050505050565b600060016097546124879190613a77565b6060830135111561249a575060016124e7565b60006124ae60408401356060850135611549565b90506000816040516020016124c39190613690565b60408051601f19818403018152919052805160209091012060808501351415925050505b6040805160c0810190915242906000908060808101808481526020016097600081548092919061251690613c29565b909155509052815260208681013581830152851515604080840191909152606090920185905282518101516000908152609b909152208151805182549394508493839190829060ff191660018381811115612573576125736135dc565b021790555060209182015160019091015582810151600283015560408084015160038401805491151560ff199092169190911790556060909301516004909201919091558201518282015191517fd16f202ac5905ff5d1851f4805ffe56d1212db32fa989881d0044b9cf0f72776926125f59282521515602082015260400190565b60405180910390a150505050565b818111156126235760405162461bcd60e51b815260040161079d90613aac565b6001600160a01b0383166126715760405162461bcd60e51b8152602060048201526015602482015274496e76616c696420746f6b656e206164647265737360581b604482015260640161079d565b600082116126915760405162461bcd60e51b815260040161079d90613da7565b33836126a86001600160a01b038216833087612f89565b60408051610100810190915242906000908060c0810180848152602001609760008154809291906126d890613c29565b90915550905281526001600160a01b03808716602080840191909152908a16604080840191909152606083018a90526080830186905260a090920188905282518101516000908152609c909152208151805182549394508493839190829060ff19166001838181111561274d5761274d6135dc565b021790555060209182015160019190910155828101516002830180546001600160a01b03199081166001600160a01b0393841617909155604080860151600386018054909316908416179091556060808601516004860155608080870151600587015560a096870151600690960195909555865184015182519081528a841694810194909452918c169083015281018990529081018790527f225305ecb66fa9b9b29f8dead9baea365a6c225d639dfd866e782ccb63e2f05b910160405180910390a150505050505050565b6001600160a01b0381166128a75760405162461bcd60e51b815260206004820152604960248201527f5061757361626c652e5f73657450617573657252656769737472793a206e657760448201527f50617573657252656769737472792063616e6e6f7420626520746865207a65726064820152686f206164647265737360b81b608482015260a40161079d565b606554604080516001600160a01b03928316815291831660208301527f6e9fcd539896fca60e8b0f01dd580233e48a6b0f7df013b89ba7f565869acdb6910160405180910390a1606580546001600160a01b0319166001600160a01b0392909216919091179055565b30318111156129615760405162461bcd60e51b815260206004820152601c60248201527f4e6f7420656e6f7567682066756e647320696e20636f6e747261637400000000604482015260640161079d565b600081116129815760405162461bcd60e51b815260040161079d90613da7565b604080516001600160a01b0384168152602081018390527fe0495355c1e04c512584521854d222d239a4b782b39ac8a7e835a34f5ec7c1e1910160405180910390a16129cd8282612ffa565b5050565b6040516370a0823160e01b8152306004820152829082906001600160a01b038316906370a0823190602401602060405180830381865afa158015612a19573d6000803e3d6000fd5b505050506040513d601f19601f82011682018060405250810190612a3d9190613b3f565b1015612a8b5760405162461bcd60e51b815260206004820152601c60248201527f4e6f7420656e6f7567682066756e647320696e20636f6e747261637400000000604482015260640161079d565b60008211612aab5760405162461bcd60e51b815260040161079d90613da7565b612abf6001600160a01b0382168584613118565b604080516001600160a01b038087168252851660208201529081018390527ee763f7778b8ceef7270c89b7d1df1008b0e482da39c43831417733af96fb0d906060016125f5565b6033546001600160a01b031633146115475760405162461bcd60e51b815260206004820181905260248201527f4f776e61626c653a2063616c6c6572206973206e6f7420746865206f776e6572604482015260640161079d565b603380546001600160a01b038381166001600160a01b0319831681179093556040519116919082907f8be0079c531659141344cd1fd0a4f28419497f9722a3daafe3b4186f6b6457e090600090a35050565b6040808201356000908152609c602052908120600281015490916001600160a01b0390911690612be860808501606086016134f1565b6001600160a01b031614612c0957612c0660808401606085016134f1565b90505b60038201546001600160a01b031660001901612c3257612c2d818360040154612910565b612c53565b60038201546004830154612c539183916001600160a01b03909116906129d1565b7f13750c731f87c15242874ce74bf4649502cc8e7c829067ce846505acdb96289d8360000160200135846040013585604051602001612c929190613c6e565b60408051601f1981840301815282825280516020918201209483528201929092529081019190915260600160405180910390a1505050565b34811115612cea5760405162461bcd60e51b815260040161079d90613aac565b60003411612d3a5760405162461bcd60e51b815260206004820181905260248201527f6d73672076616c7565206d757374206265206772656174657220746861742030604482015260640161079d565b6040805161010081019091523390349042906000908060c081018084815260200160976000815480929190612d6e90613c29565b90915550905281526001600160a01b03861660208083019190915260016040808401829052606084018890526080840187905260a090930189905283518201516000908152609c9092529190208251805182549495508594929391928492839160ff1916908381811115612de457612de46135dc565b0217905550602091820151600191820155838201516002840180546001600160a01b03199081166001600160a01b0393841617909155604080870151600387018054909316908416179091556060808701516004870155608080880151600588015560a09788015160069097019690965587518501518251908152928b16948301949094528101919091529081018690529081018790527f225305ecb66fa9b9b29f8dead9baea365a6c225d639dfd866e782ccb63e2f05b91016122f1565b6065546001600160a01b0316158015612ec457506001600160a01b03821615155b612f465760405162461bcd60e51b815260206004820152604760248201527f5061757361626c652e5f696e697469616c697a655061757365723a205f696e6960448201527f7469616c697a6550617573657228292063616e206f6e6c792062652063616c6c6064820152666564206f6e636560c81b608482015260a40161079d565b606681905560405181815233907fab40a374bc51de372200a8bc981af8c9ecdc08dfdaef0bb6e09f88f3c616ef3d9060200160405180910390a26129cd82612819565b6040516001600160a01b0380851660248301528316604482015260648101829052612ff49085906323b872dd60e01b906084015b60408051601f198184030181529190526020810180516001600160e01b03166001600160e01b031990931692909217909152613148565b50505050565b8047101561304a5760405162461bcd60e51b815260206004820152601d60248201527f416464726573733a20696e73756666696369656e742062616c616e6365000000604482015260640161079d565b6000826001600160a01b03168260405160006040518083038185875af1925050503d8060008114613097576040519150601f19603f3d011682016040523d82523d6000602084013e61309c565b606091505b50509050806131135760405162461bcd60e51b815260206004820152603a60248201527f416464726573733a20756e61626c6520746f2073656e642076616c75652c207260448201527f6563697069656e74206d61792068617665207265766572746564000000000000606482015260840161079d565b505050565b6040516001600160a01b03831660248201526044810182905261311390849063a9059cbb60e01b90606401612fbd565b600061319d826040518060400160405280602081526020017f5361666545524332303a206c6f772d6c6576656c2063616c6c206661696c6564815250856001600160a01b031661321a9092919063ffffffff16565b80519091501561311357808060200190518101906131bb9190613b58565b6131135760405162461bcd60e51b815260206004820152602a60248201527f5361666545524332303a204552433230206f7065726174696f6e20646964206e6044820152691bdd081cdd58d8d9595960b21b606482015260840161079d565b60606132298484600085613233565b90505b9392505050565b6060824710156132945760405162461bcd60e51b815260206004820152602660248201527f416464726573733a20696e73756666696369656e742062616c616e636520666f6044820152651c8818d85b1b60d21b606482015260840161079d565b6001600160a01b0385163b6132eb5760405162461bcd60e51b815260206004820152601d60248201527f416464726573733a2063616c6c20746f206e6f6e2d636f6e7472616374000000604482015260640161079d565b600080866001600160a01b031685876040516133079190613e08565b60006040518083038185875af1925050503d8060008114613344576040519150601f19603f3d011682016040523d82523d6000602084013e613349565b606091505b5091509150611e348282866060831561336357508161322c565b8251156133735782518084602001fd5b8160405162461bcd60e51b815260040161079d9190613e24565b60008083601f84011261339f57600080fd5b50813567ffffffffffffffff8111156133b757600080fd5b6020830191508360208260051b85010111156133d257600080fd5b9250929050565b60008060008084860360e08112156133f057600080fd5b60a08112156133fe57600080fd5b5084935060a0850135925060c085013567ffffffffffffffff81111561342357600080fd5b61342f8782880161338d565b95989497509550505050565b6001600160a01b038116811461104e57600080fd5b60008060006060848603121561346557600080fd5b83356134708161343b565b95602085013595506040909401359392505050565b600080828403606081121561349957600080fd5b833592506040601f19820112156134af57600080fd5b506020830190509250929050565b600060c082840312156134cf57600080fd5b50919050565b600060c082840312156134e757600080fd5b61322c83836134bd565b60006020828403121561350357600080fd5b813561322c8161343b565b60006020828403121561352057600080fd5b5035919050565b6000806040838503121561353a57600080fd5b82356135458161343b565b946020939093013593505050565b600080600080610100858703121561356a57600080fd5b61357486866134bd565b935060c0850135925060e085013567ffffffffffffffff81111561342357600080fd5b6000602082840312156135a957600080fd5b813560ff8116811461322c57600080fd5b600080604083850312156135cd57600080fd5b50508035926020909101359150565b634e487b7160e01b600052602160045260246000fd5b6002811061104e57634e487b7160e01b600052602160045260246000fd5b805161361b816135f2565b8252602090810151910152565b600081518084526020808501945080840160005b83811015613685578151613651888251613610565b8084015160408981019190915281015115156060808a01919091520151608088015260a0909601959082019060010161363c565b509495945050505050565b60006020808352608080840185516136a7816135f2565b85840152858301516060604080880182905282519384905260a093928601928489019060005b818110156137285785516136e2848251613610565b808a01516001600160a01b03908116858701528582015116868501528581015189850152888101518885015287015160c08401529488019460e0909201916001016136cd565b505089820151898203601f1901848b015296506137458188613628565b9a9950505050505050505050565b60008060008084860360c081121561376a57600080fd5b608081121561377857600080fd5b508493506080850135925060a085013567ffffffffffffffff81111561342357600080fd5b803563ffffffff811681146137b157600080fd5b919050565b6000806000806000608086880312156137ce57600080fd5b853594506137de6020870161379d565b9350604086013567ffffffffffffffff8111156137fa57600080fd5b6138068882890161338d565b909450925061381990506060870161379d565b90509295509295909350565b60e081016138338289613610565b6001600160a01b039687166040830152949095166060860152608085019290925260a084015260c090920191909152919050565b60208101613874836135f2565b91905290565b60a081016138888287613610565b60408201949094529115156060830152608090910152919050565b600080600080600080600060c0888a0312156138be57600080fd5b6138c78861379d565b96506138d56020890161379d565b955060408801359450606088013567ffffffffffffffff8111156138f857600080fd5b6139048a828b0161338d565b909550935061391790506080890161379d565b915061392560a0890161379d565b905092959891949750929550565b6002811061104e57600080fd5b6000806000806080858703121561395657600080fd5b84356139618161343b565b935060208501356139718161343b565b9250604085013561398181613933565b915060608501356139918161343b565b939692955090935050565b6020808252601c908201527f5061757361626c653a20636f6e74726163742069732070617573656400000000604082015260600190565b6020808252601f908201527f5265656e7472616e637947756172643a207265656e7472616e742063616c6c00604082015260600190565b8035613a1581613933565b613a1e816135f2565b8252602090810135910152565b60a08101613a398284613a0a565b613a53604083016040850180358252602090810135910152565b608092830135919092015290565b634e487b7160e01b600052601160045260246000fd5b600082821015613a8957613a89613a61565b500390565b8281526060810161322c602083018480358252602090810135910152565b6020808252601c908201527f5469702065786365656473206465706f736974656420616d6f756e7400000000604082015260600190565b60c08101613af18284613a0a565b6040830135613aff8161343b565b6001600160a01b039081166040840152606084013590613b1e8261343b565b1660608301526080838101359083015260a092830135929091019190915290565b600060208284031215613b5157600080fd5b5051919050565b600060208284031215613b6a57600080fd5b8151801515811461322c57600080fd5b600060208284031215613b8c57600080fd5b815161322c8161343b565b6020808252602a908201527f6d73672e73656e646572206973206e6f74207065726d697373696f6e6564206160408201526939903ab73830bab9b2b960b11b606082015260800190565b60208082526028908201527f6d73672e73656e646572206973206e6f74207065726d697373696f6e6564206160408201526739903830bab9b2b960c11b606082015260800190565b600060018201613c3b57613c3b613a61565b5060010190565b634e487b7160e01b600052604160045260246000fd5b634e487b7160e01b600052603260045260246000fd5b60808101613c7c8284613a0a565b604083013560408301526060830135613c948161343b565b6001600160a01b031660609290920191909152919050565b634e487b7160e01b600052601260045260246000fd5b600063ffffffff80841680613cd957613cd9613cac565b92169190910492915050565b600063ffffffff808316818516808303821115613d0457613d04613a61565b01949350505050565b600063ffffffff83811690831681811015613d2a57613d2a613a61565b039392505050565b60008219821115613d4557613d45613a61565b500190565b600063ffffffff80841680613d6157613d61613cac565b92169190910692915050565b600063ffffffff808316818103613d8657613d86613a61565b6001019392505050565b600081613d9f57613d9f613a61565b506000190190565b6020808252818101527f416d6f756e74206d7573742062652067726561746572207468616e207a65726f604082015260600190565b60005b83811015613df7578181015183820152602001613ddf565b83811115612ff45750506000910152565b60008251613e1a818460208701613ddc565b9190910192915050565b6020815260008251806020840152613e43816040850160208701613ddc565b601f01601f1916919091016040019291505056fea2646970667358221220843fd7eb779cadb2abc4e51c5578bf37b83b9e0730f138d177237624c6b6a31a64736f6c634300080d0033",
    "linkReferences": {}
  },
  "methodIdentifiers": {
    "CLOSED()": "0e2636a3",
    "NATIVE_TOKEN_ADDRESS()": "df2ebdbb",
    "calculate_root(bytes32,uint32,bytes32[],uint32)": "af26c695",
    "calculate_root_impl(uint32,uint32,bytes32,bytes32[],uint32,uint32)": "ef0ba5d0",
    "cancelResolutions(uint256)": "ca9b21ae",
    "chain()": "c763e5a1",
    "close_cancel(((uint8,uint256),(uint256,uint256),bytes32),bytes32,bytes32[])": "01ef6966",
    "close_deposit_refund(((uint8,uint256),uint256,address),bytes32,bytes32[])": "950ac487",
    "close_withdrawal(((uint8,uint256),address,address,uint256,uint256),bytes32,bytes32[])": "4bf5fec3",
    "counter()": "61bc221a",
    "deposit(address,uint256)": "47e7ef24",
    "deposit(address,uint256,uint256)": "0efe6a8b",
    "deposit_erc20(address,uint256)": "d16544f0",
    "deposit_erc20(address,uint256,uint256)": "08aba1b2",
    "deposit_native()": "c87c2224",
    "deposit_native(uint256)": "dffbdd9f",
    "deposits(uint256)": "b02c43d0",
    "ferry_withdrawal(((uint8,uint256),address,address,uint256,uint256))": "0cac57ab",
    "find_l2_batch(uint256)": "f9ecd01e",
    "getMerkleRootsLength()": "ff2bae86",
    "getPendingRequests(uint256,uint256)": "79e041f2",
    "getUpdateForL2()": "b1538706",
    "initialize(address,address,uint8,address)": "ffea632b",
    "lastProcessedUpdate_origin_l1()": "7fd4f845",
    "lastProcessedUpdate_origin_l2()": "f26ee9d0",
    "merkleRootRange(bytes32)": "4f48eedf",
    "owner()": "8da5cb5b",
    "pause(uint256)": "136439dd",
    "pauseAll()": "595c6a67",
    "paused()": "5c975abb",
    "paused(uint8)": "5ac86ab7",
    "pauserRegistry()": "886f1195",
    "processedL2Requests(bytes32)": "de70e0b8",
    "renounceOwnership()": "715018a6",
    "roots(uint256)": "c2b40ae4",
    "setPauserRegistry(address)": "10d67a2f",
    "setUpdater(address)": "9d54f419",
    "transferOwnership(address)": "f2fde38b",
    "unpause(uint256)": "fabc1cbc",
    "update_l1_from_l2(bytes32,(uint256,uint256))": "08f42d40",
    "updaterAccount()": "71c54461"
  },
  "id": 141
}